{
  "_format": "hh-sol-artifact-1",
  "contractName": "MockNFTInfo",
  "sourceName": "contracts/mocks/MockNFTInfo.sol",
  "abi": [
    {
      "inputs": [
        {
          "internalType": "uint256",
          "name": "tokenId",
          "type": "uint256"
        }
      ],
      "name": "getNFTInfo",
      "outputs": [
        {
          "internalType": "string",
          "name": "",
          "type": "string"
        },
        {
          "internalType": "string",
          "name": "",
          "type": "string"
        }
      ],
      "stateMutability": "view",
      "type": "function"
    },
    {
      "inputs": [
        {
          "internalType": "uint256",
          "name": "",
          "type": "uint256"
        }
      ],
      "name": "nftInfos",
      "outputs": [
        {
          "internalType": "string",
          "name": "name",
          "type": "string"
        },
        {
          "internalType": "string",
          "name": "description",
          "type": "string"
        }
      ],
      "stateMutability": "view",
      "type": "function"
    },
    {
      "inputs": [
        {
          "internalType": "uint256",
          "name": "tokenId",
          "type": "uint256"
        },
        {
          "internalType": "string",
          "name": "name",
          "type": "string"
        },
        {
          "internalType": "string",
          "name": "description",
          "type": "string"
        }
      ],
      "name": "setNFTInfo",
      "outputs": [],
      "stateMutability": "nonpayable",
      "type": "function"
    }
  ],
  "bytecode": "0x608060405234801561001057600080fd5b50610684806100206000396000f3fe608060405234801561001057600080fd5b50600436106100415760003560e01c80634bc834eb14610046578063bbe6bd8c14610070578063d188929f14610085575b600080fd5b61005961005436600461036c565b610098565b6040516100679291906103cb565b60405180910390f35b61008361007e36600461049c565b6101c4565b005b61005961009336600461036c565b610210565b6000602081905290815260409020805481906100b390610509565b80601f01602080910402602001604051908101604052809291908181526020018280546100df90610509565b801561012c5780601f106101015761010080835404028352916020019161012c565b820191906000526020600020905b81548152906001019060200180831161010f57829003601f168201915b50505050509080600101805461014190610509565b80601f016020809104026020016040519081016040528092919081815260200182805461016d90610509565b80156101ba5780601f1061018f576101008083540402835291602001916101ba565b820191906000526020600020905b81548152906001019060200180831161019d57829003601f168201915b5050505050905082565b604080518082018252838152602080820184905260008681529081905291909120815181906101f3908261058e565b5060208201516001820190610208908261058e565b505050505050565b606080600080600085815260200190815260200160002060405180604001604052908160008201805461024290610509565b80601f016020809104026020016040519081016040528092919081815260200182805461026e90610509565b80156102bb5780601f10610290576101008083540402835291602001916102bb565b820191906000526020600020905b81548152906001019060200180831161029e57829003601f168201915b505050505081526020016001820180546102d490610509565b80601f016020809104026020016040519081016040528092919081815260200182805461030090610509565b801561034d5780601f106103225761010080835404028352916020019161034d565b820191906000526020600020905b81548152906001019060200180831161033057829003601f168201915b5050505050815250509050806000015181602001519250925050915091565b60006020828403121561037e57600080fd5b5035919050565b6000815180845260005b818110156103ab5760208185018101518683018201520161038f565b506000602082860101526020601f19601f83011685010191505092915050565b6040815260006103de6040830185610385565b82810360208401526103f08185610385565b95945050505050565b634e487b7160e01b600052604160045260246000fd5b600082601f83011261042057600080fd5b813567ffffffffffffffff8082111561043b5761043b6103f9565b604051601f8301601f19908116603f01168101908282118183101715610463576104636103f9565b8160405283815286602085880101111561047c57600080fd5b836020870160208301376000602085830101528094505050505092915050565b6000806000606084860312156104b157600080fd5b83359250602084013567ffffffffffffffff808211156104d057600080fd5b6104dc8783880161040f565b935060408601359150808211156104f257600080fd5b506104ff8682870161040f565b9150509250925092565b600181811c9082168061051d57607f821691505b60208210810361053d57634e487b7160e01b600052602260045260246000fd5b50919050565b601f82111561058957600081815260208120601f850160051c8101602086101561056a5750805b601f850160051c820191505b8181101561020857828155600101610576565b505050565b815167ffffffffffffffff8111156105a8576105a86103f9565b6105bc816105b68454610509565b84610543565b602080601f8311600181146105f157600084156105d95750858301515b600019600386901b1c1916600185901b178555610208565b600085815260208120601f198616915b8281101561062057888601518255948401946001909101908401610601565b508582101561063e5787850151600019600388901b60f8161c191681555b5050505050600190811b0190555056fea26469706673582212209184e0b5d137a0fccb74c682e0014a366c17e08229e20dad1b52d81b321bcc5364736f6c63430008140033",
  "linkReferences": {},
  "deployedLinkReferences": {}
}