{
  "_format": "hh-sol-artifact-1",
  "contractName": "TransactionManager",
  "sourceName": "contracts/core/TransactionManager.sol",
  "abi": [
    {
      "inputs": [],
      "stateMutability": "nonpayable",
      "type": "constructor"
    },
    {
      "inputs": [],
      "name": "InvalidInitialization",
      "type": "error"
    },
    {
      "inputs": [],
      "name": "NotInitializing",
      "type": "error"
    },
    {
      "inputs": [
        {
          "internalType": "address",
          "name": "owner",
          "type": "address"
        }
      ],
      "name": "OwnableInvalidOwner",
      "type": "error"
    },
    {
      "inputs": [
        {
          "internalType": "address",
          "name": "account",
          "type": "address"
        }
      ],
      "name": "OwnableUnauthorizedAccount",
      "type": "error"
    },
    {
      "inputs": [],
      "name": "ReentrancyGuardReentrantCall",
      "type": "error"
    },
    {
      "anonymous": false,
      "inputs": [
        {
          "indexed": true,
          "internalType": "address",
          "name": "dapp",
          "type": "address"
        },
        {
          "indexed": true,
          "internalType": "bytes32",
          "name": "txId",
          "type": "bytes32"
        }
      ],
      "name": "ArbitrationRequested",
      "type": "event"
    },
    {
      "anonymous": false,
      "inputs": [
        {
          "indexed": true,
          "internalType": "address",
          "name": "dapp",
          "type": "address"
        },
        {
          "indexed": true,
          "internalType": "bytes32",
          "name": "txId",
          "type": "bytes32"
        }
      ],
      "name": "ArbitrationSubmitted",
      "type": "event"
    },
    {
      "anonymous": false,
      "inputs": [
        {
          "indexed": true,
          "internalType": "address",
          "name": "compensationManager",
          "type": "address"
        }
      ],
      "name": "CompensationManagerInitialized",
      "type": "event"
    },
    {
      "anonymous": false,
      "inputs": [
        {
          "indexed": false,
          "internalType": "uint64",
          "name": "version",
          "type": "uint64"
        }
      ],
      "name": "Initialized",
      "type": "event"
    },
    {
      "anonymous": false,
      "inputs": [
        {
          "indexed": true,
          "internalType": "address",
          "name": "previousOwner",
          "type": "address"
        },
        {
          "indexed": true,
          "internalType": "address",
          "name": "newOwner",
          "type": "address"
        }
      ],
      "name": "OwnershipTransferred",
      "type": "event"
    },
    {
      "anonymous": false,
      "inputs": [
        {
          "indexed": true,
          "internalType": "bytes32",
          "name": "id",
          "type": "bytes32"
        }
      ],
      "name": "TransactionCancelled",
      "type": "event"
    },
    {
      "anonymous": false,
      "inputs": [
        {
          "indexed": true,
          "internalType": "address",
          "name": "dapp",
          "type": "address"
        },
        {
          "indexed": true,
          "internalType": "bytes32",
          "name": "txId",
          "type": "bytes32"
        }
      ],
      "name": "TransactionCompleted",
      "type": "event"
    },
    {
      "anonymous": false,
      "inputs": [
        {
          "indexed": true,
          "internalType": "bytes32",
          "name": "id",
          "type": "bytes32"
        },
        {
          "indexed": true,
          "internalType": "address",
          "name": "sender",
          "type": "address"
        },
        {
          "indexed": true,
          "internalType": "address",
          "name": "arbitrator",
          "type": "address"
        }
      ],
      "name": "TransactionCreated",
      "type": "event"
    },
    {
      "anonymous": false,
      "inputs": [
        {
          "indexed": true,
          "internalType": "bytes32",
          "name": "id",
          "type": "bytes32"
        },
        {
          "indexed": true,
          "internalType": "address",
          "name": "dapp",
          "type": "address"
        },
        {
          "indexed": true,
          "internalType": "address",
          "name": "arbitrator",
          "type": "address"
        }
      ],
      "name": "TransactionRegistered",
      "type": "event"
    },
    {
      "inputs": [],
      "name": "arbitratorManager",
      "outputs": [
        {
          "internalType": "contract IArbitratorManager",
          "name": "",
          "type": "address"
        }
      ],
      "stateMutability": "view",
      "type": "function"
    },
    {
      "inputs": [],
      "name": "compensationManager",
      "outputs": [
        {
          "internalType": "address",
          "name": "",
          "type": "address"
        }
      ],
      "stateMutability": "view",
      "type": "function"
    },
    {
      "inputs": [
        {
          "internalType": "bytes32",
          "name": "id",
          "type": "bytes32"
        }
      ],
      "name": "completeTransaction",
      "outputs": [],
      "stateMutability": "nonpayable",
      "type": "function"
    },
    {
      "inputs": [],
      "name": "configManager",
      "outputs": [
        {
          "internalType": "contract ConfigManager",
          "name": "",
          "type": "address"
        }
      ],
      "stateMutability": "view",
      "type": "function"
    },
    {
      "inputs": [],
      "name": "dappRegistry",
      "outputs": [
        {
          "internalType": "contract IDAppRegistry",
          "name": "",
          "type": "address"
        }
      ],
      "stateMutability": "view",
      "type": "function"
    },
    {
      "inputs": [
        {
          "internalType": "bytes32",
          "name": "txHash",
          "type": "bytes32"
        }
      ],
      "name": "getTransaction",
      "outputs": [
        {
          "components": [
            {
              "internalType": "address",
              "name": "dapp",
              "type": "address"
            },
            {
              "internalType": "address",
              "name": "arbitrator",
              "type": "address"
            },
            {
              "internalType": "uint256",
              "name": "startTime",
              "type": "uint256"
            },
            {
              "internalType": "uint256",
              "name": "deadline",
              "type": "uint256"
            },
            {
              "internalType": "bytes",
              "name": "btcTx",
              "type": "bytes"
            },
            {
              "internalType": "bytes32",
              "name": "btcTxHash",
              "type": "bytes32"
            },
            {
              "internalType": "enum DataTypes.TransactionStatus",
              "name": "status",
              "type": "uint8"
            },
            {
              "internalType": "uint256",
              "name": "depositedFee",
              "type": "uint256"
            },
            {
              "internalType": "bytes",
              "name": "signature",
              "type": "bytes"
            },
            {
              "internalType": "address",
              "name": "compensationReceiver",
              "type": "address"
            },
            {
              "internalType": "address",
              "name": "timeoutCompensationReceiver",
              "type": "address"
            }
          ],
          "internalType": "struct DataTypes.Transaction",
          "name": "",
          "type": "tuple"
        }
      ],
      "stateMutability": "view",
      "type": "function"
    },
    {
      "inputs": [
        {
          "internalType": "bytes32",
          "name": "id",
          "type": "bytes32"
        }
      ],
      "name": "getTransactionById",
      "outputs": [
        {
          "components": [
            {
              "internalType": "address",
              "name": "dapp",
              "type": "address"
            },
            {
              "internalType": "address",
              "name": "arbitrator",
              "type": "address"
            },
            {
              "internalType": "uint256",
              "name": "startTime",
              "type": "uint256"
            },
            {
              "internalType": "uint256",
              "name": "deadline",
              "type": "uint256"
            },
            {
              "internalType": "bytes",
              "name": "btcTx",
              "type": "bytes"
            },
            {
              "internalType": "bytes32",
              "name": "btcTxHash",
              "type": "bytes32"
            },
            {
              "internalType": "enum DataTypes.TransactionStatus",
              "name": "status",
              "type": "uint8"
            },
            {
              "internalType": "uint256",
              "name": "depositedFee",
              "type": "uint256"
            },
            {
              "internalType": "bytes",
              "name": "signature",
              "type": "bytes"
            },
            {
              "internalType": "address",
              "name": "compensationReceiver",
              "type": "address"
            },
            {
              "internalType": "address",
              "name": "timeoutCompensationReceiver",
              "type": "address"
            }
          ],
          "internalType": "struct DataTypes.Transaction",
          "name": "",
          "type": "tuple"
        }
      ],
      "stateMutability": "view",
      "type": "function"
    },
    {
      "inputs": [
        {
          "internalType": "address",
          "name": "_compensationManager",
          "type": "address"
        }
      ],
      "name": "initCompensationManager",
      "outputs": [],
      "stateMutability": "nonpayable",
      "type": "function"
    },
    {
      "inputs": [
        {
          "internalType": "address",
          "name": "_arbitratorManager",
          "type": "address"
        },
        {
          "internalType": "address",
          "name": "_dappRegistry",
          "type": "address"
        },
        {
          "internalType": "address",
          "name": "_configManager",
          "type": "address"
        }
      ],
      "name": "initialize",
      "outputs": [],
      "stateMutability": "nonpayable",
      "type": "function"
    },
    {
      "inputs": [],
      "name": "owner",
      "outputs": [
        {
          "internalType": "address",
          "name": "",
          "type": "address"
        }
      ],
      "stateMutability": "view",
      "type": "function"
    },
    {
      "inputs": [
        {
          "internalType": "address",
          "name": "arbitrator",
          "type": "address"
        },
        {
          "internalType": "uint256",
          "name": "deadline",
          "type": "uint256"
        },
        {
          "internalType": "address",
          "name": "compensationReceiver",
          "type": "address"
        }
      ],
      "name": "registerTransaction",
      "outputs": [
        {
          "internalType": "uint256",
          "name": "",
          "type": "uint256"
        }
      ],
      "stateMutability": "payable",
      "type": "function"
    },
    {
      "inputs": [],
      "name": "renounceOwnership",
      "outputs": [],
      "stateMutability": "nonpayable",
      "type": "function"
    },
    {
      "inputs": [
        {
          "internalType": "bytes32",
          "name": "id",
          "type": "bytes32"
        },
        {
          "internalType": "bytes",
          "name": "btcTx",
          "type": "bytes"
        },
        {
          "internalType": "address",
          "name": "timeoutCompensationReceiver",
          "type": "address"
        }
      ],
      "name": "requestArbitration",
      "outputs": [],
      "stateMutability": "nonpayable",
      "type": "function"
    },
    {
      "inputs": [
        {
          "internalType": "bytes32",
          "name": "id",
          "type": "bytes32"
        },
        {
          "internalType": "bytes",
          "name": "btcTxSignature",
          "type": "bytes"
        }
      ],
      "name": "submitArbitration",
      "outputs": [],
      "stateMutability": "nonpayable",
      "type": "function"
    },
    {
      "inputs": [
        {
          "internalType": "bytes32",
          "name": "",
          "type": "bytes32"
        }
      ],
      "name": "transactions",
      "outputs": [
        {
          "internalType": "address",
          "name": "dapp",
          "type": "address"
        },
        {
          "internalType": "address",
          "name": "arbitrator",
          "type": "address"
        },
        {
          "internalType": "uint256",
          "name": "startTime",
          "type": "uint256"
        },
        {
          "internalType": "uint256",
          "name": "deadline",
          "type": "uint256"
        },
        {
          "internalType": "bytes",
          "name": "btcTx",
          "type": "bytes"
        },
        {
          "internalType": "bytes32",
          "name": "btcTxHash",
          "type": "bytes32"
        },
        {
          "internalType": "enum DataTypes.TransactionStatus",
          "name": "status",
          "type": "uint8"
        },
        {
          "internalType": "uint256",
          "name": "depositedFee",
          "type": "uint256"
        },
        {
          "internalType": "bytes",
          "name": "signature",
          "type": "bytes"
        },
        {
          "internalType": "address",
          "name": "compensationReceiver",
          "type": "address"
        },
        {
          "internalType": "address",
          "name": "timeoutCompensationReceiver",
          "type": "address"
        }
      ],
      "stateMutability": "view",
      "type": "function"
    },
    {
      "inputs": [
        {
          "internalType": "bytes32",
          "name": "id",
          "type": "bytes32"
        }
      ],
      "name": "transferArbitrationFee",
      "outputs": [
        {
          "internalType": "uint256",
          "name": "arbitratorFee",
          "type": "uint256"
        },
        {
          "internalType": "uint256",
          "name": "systemFee",
          "type": "uint256"
        }
      ],
      "stateMutability": "nonpayable",
      "type": "function"
    },
    {
      "inputs": [
        {
          "internalType": "address",
          "name": "newOwner",
          "type": "address"
        }
      ],
      "name": "transferOwnership",
      "outputs": [],
      "stateMutability": "nonpayable",
      "type": "function"
    },
    {
      "inputs": [
        {
          "internalType": "bytes32",
          "name": "",
          "type": "bytes32"
        }
      ],
      "name": "txHashToId",
      "outputs": [
        {
          "internalType": "bytes32",
          "name": "",
          "type": "bytes32"
        }
      ],
      "stateMutability": "view",
      "type": "function"
    }
  ],
  "bytecode": "0x60806040523480156200001157600080fd5b506200001c62000022565b620000d6565b7ff0c57e16840df040f15088dc2f81fe391c3923bec73e23a9662efc9c229c6a00805468010000000000000000900460ff1615620000735760405163f92ee8a960e01b815260040160405180910390fd5b80546001600160401b0390811614620000d35780546001600160401b0319166001600160401b0390811782556040519081527fc7f505b2f371ae2175ee4913f4499e1f2633a7b5936321eed1cdaeb6115181d29060200160405180910390a15b50565b61427a80620000e66000396000f3fe6080604052600436106101095760003560e01c80638da5cb5b11610095578063c0e3896b11610064578063c0e3896b14610319578063c1ce47d214610339578063ca0ab07514610366578063de0ca16614610386578063f2fde38b146103a657600080fd5b80638da5cb5b1461027c578063a130312a146102b9578063a890b7b4146102d9578063c0c53b8b146102f957600080fd5b80634e4f0ec4116100dc5780634e4f0ec4146101bb578063642f2eaf146101db578063715018a6146102125780637577b6df14610227578063759787c41461025c57600080fd5b80630559b8771461010e5780631613f25b1461014b578063350a07ea1461016c5780634aae13ca1461018e575b600080fd5b34801561011a57600080fd5b5060065461012e906001600160a01b031681565b6040516001600160a01b0390911681526020015b60405180910390f35b61015e61015936600461373d565b6103c6565b604051908152602001610142565b34801561017857600080fd5b5061018c61018736600461377f565b610d3b565b005b34801561019a57600080fd5b506101ae6101a936600461379c565b610ddb565b604051610142919061383d565b3480156101c757600080fd5b5061018c6101d6366004613969565b611023565b3480156101e757600080fd5b506101fb6101f636600461379c565b6111ad565b6040516101429b9a999897969594939291906139b4565b34801561021e57600080fd5b5061018c611335565b34801561023357600080fd5b5061024761024236600461379c565b611349565b60408051928352602083019190915201610142565b34801561026857600080fd5b5060005461012e906001600160a01b031681565b34801561028857600080fd5b507f9016d09d72d40fdae2fd8ceac6b6234c7706214fd39c1cd1e609a0528c199300546001600160a01b031661012e565b3480156102c557600080fd5b5061018c6102d436600461379c565b61141b565b3480156102e557600080fd5b506101ae6102f436600461379c565b61155b565b34801561030557600080fd5b5061018c610314366004613a3f565b61174b565b34801561032557600080fd5b5061018c610334366004613a7f565b611978565b34801561034557600080fd5b5061015e61035436600461379c565b60046020526000908152604090205481565b34801561037257600080fd5b5060025461012e906001600160a01b031681565b34801561039257600080fd5b5060015461012e906001600160a01b031681565b3480156103b257600080fd5b5061018c6103c136600461377f565b611b9c565b60006103d0611bda565b6001600160a01b03841615806103ed57506001600160a01b038216155b1561043557604080518082018252600c81526b5a65726f206164647265737360a01b6020820152905162461bcd60e51b815261042c9190600401613add565b60405180910390fd5b60015460405163682dc82b60e11b81523360048201526001600160a01b039091169063d05b905690602401602060405180830381865afa15801561047d573d6000803e3d6000fd5b505050506040513d601f19601f820116820180604052508101906104a19190613af0565b6104e257604080518082018252600f81526e44417070206e6f742061637469766560881b6020820152905162461bcd60e51b815261042c9190600401613add565b600080546040516326415b0f60e21b81526001600160a01b038781166004830152909116906399056c3c90602401600060405180830381865afa15801561052d573d6000803e3d6000fd5b505050506040513d6000823e601f3d908101601f191682016040526105559190810190613c85565b600054604051631c569df760e31b81526001600160a01b03888116600483015292935091169063e2b4efb890602401602060405180830381865afa1580156105a1573d6000803e3d6000fd5b505050506040513d601f19601f820116820180604052508101906105c59190613af0565b61060c57604080518082018252601581527441726269747261746f72206e6f742061637469766560581b6020820152905162461bcd60e51b815261042c9190600401613add565b42841161065157604080518082018252601081526f496e76616c696420646561646c696e6560801b6020820152905162461bcd60e51b815261042c9190600401613add565b600061065d4286613e42565b60025460408051631c8c542360e11b815290519293506001600160a01b0390911691636dd5b69d918391633918a846916004808201926020929091908290030181865afa1580156106b2573d6000803e3d6000fd5b505050506040513d601f19601f820116820180604052508101906106d69190613e5b565b6040518263ffffffff1660e01b81526004016106f491815260200190565b602060405180830381865afa158015610711573d6000803e3d6000fd5b505050506040513d601f19601f820116820180604052508101906107359190613e5b565b8110806108155750600254604080516358d0b14760e01b815290516001600160a01b0390921691636dd5b69d9183916358d0b147916004808201926020929091908290030181865afa15801561078f573d6000803e3d6000fd5b505050506040513d601f19601f820116820180604052508101906107b39190613e5b565b6040518263ffffffff1660e01b81526004016107d191815260200190565b602060405180830381865afa1580156107ee573d6000803e3d6000fd5b505050506040513d601f19601f820116820180604052508101906108129190613e5b565b81115b1561085857604080518082018252601081526f24b73b30b634b210323ab930ba34b7b760811b6020820152905162461bcd60e51b815261042c9190600401613add565b600061086a6127106301e13380613e74565b8360200151838560a0015161087f9190613e74565b6108899190613e74565b6108939190613e8b565b600254604080516325ba6ce560e11b815290519293506000926001600160a01b0390921691636dd5b69d918391634b74d9ca916004808201926020929091908290030181865afa1580156108eb573d6000803e3d6000fd5b505050506040513d601f19601f8201168201806040525081019061090f9190613e5b565b6040518263ffffffff1660e01b815260040161092d91815260200190565b602060405180830381865afa15801561094a573d6000803e3d6000fd5b505050506040513d601f19601f8201168201806040525081019061096e9190613e5b565b9050808460200151108061098757506127108460200151115b156109ca57604080518082018252601081526f496e76616c696420666565207261746560801b6020820152905162461bcd60e51b815261042c9190600401613add565b81600003610a0b57604080518082018252600b81526a496e76616c69642066656560a81b6020820152905162461bcd60e51b815261042c9190600401613add565b81341015610a5157604080518082018252601081526f496e73756666696369656e742066656560801b6020820152905162461bcd60e51b815261042c9190600401613add565b600042338a60056000815480929190610a6990613ead565b909155506040805160208101959095526bffffffffffffffffffffffff19606094851b8116918601919091529190921b166054830152606882015260880160408051808303601f190181529082905280516020909101206000546315969bed60e11b83526001600160a01b038c81166004850152602484018390529193501690632b2d37da90604401600060405180830381600087803b158015610b0c57600080fd5b505af1158015610b20573d6000803e3d6000fd5b50505050604051806101600160405280336001600160a01b031681526020018a6001600160a01b0316815260200142815260200189815260200160006001600160401b03811115610b7357610b73613b12565b6040519080825280601f01601f191660200182016040528015610b9d576020820181803683370190505b5081526000602080830182905260408084018390526060840188905280518381529182019052608090920191905081526001600160a01b03808a1660208084018290526040938401919091526000858152600380835290849020855181549085166001600160a01b0319918216178255928601516001820180549190951693169290921790925591830151600283015560608301519082015560808201516004820190610c4a9082613f4f565b5060a0820151816005015560c08201518160060160006101000a81548160ff02191690836005811115610c7f57610c7f613805565b021790555060e082015160078201556101008201516008820190610ca39082613f4f565b506101208201516009820180546001600160a01b03199081166001600160a01b039384161790915561014090930151600a909201805490931691811691909117909155604051908a1690339083907f3f9704516fd7b664375bdfc5fb0c00e1326d44378d723aa344109738be611a2a90600090a4945050505050610d34600160008051602061422583398151915255565b9392505050565b610d43611c26565b6001600160a01b038116610d8b57604080518082018252600c81526b5a65726f206164647265737360a01b6020820152905162461bcd60e51b815261042c9190600401613add565b600680546001600160a81b0319166001600160a01b038316908117600160a01b179091556040517f3e89cfb4fcf3c219579a7287319c014b58f4ff0f30188fd1d661727cf54faae590600090a250565b610de36136cf565b60008281526004602052604090205480610e3a576040805180820182526015815274151c985b9cd858dd1a5bdb881b9bdd08199bdd5b99605a1b6020820152905162461bcd60e51b815261042c9190600401613add565b60008181526003602081815260409283902083516101608101855281546001600160a01b03908116825260018301541692810192909252600281015493820193909352908201546060820152600482018054919291608084019190610e9e90613ec6565b80601f0160208091040260200160405190810160405280929190818152602001828054610eca90613ec6565b8015610f175780601f10610eec57610100808354040283529160200191610f17565b820191906000526020600020905b815481529060010190602001808311610efa57829003601f168201915b50505091835250506005828101546020830152600683015460409092019160ff1690811115610f4857610f48613805565b6005811115610f5957610f59613805565b815260200160078201548152602001600882018054610f7790613ec6565b80601f0160208091040260200160405190810160405280929190818152602001828054610fa390613ec6565b8015610ff05780601f10610fc557610100808354040283529160200191610ff0565b820191906000526020600020905b815481529060010190602001808311610fd357829003601f168201915b505050918352505060098201546001600160a01b039081166020830152600a909201549091166040909101529392505050565b60008381526003602052604090206002600682015460ff16600581111561104c5761104c613805565b1461109957604080518082018252601a815279496e76616c6964207472616e73616374696f6e2073746174757360301b6020820152905162461bcd60e51b815261042c9190600401613add565b6000546001820154604051630e70978b60e21b81526001600160a01b0391821660048201523360248201529116906339c25e2c90604401602060405180830381865afa1580156110ed573d6000803e3d6000fd5b505050506040513d601f19601f820116820180604052508101906111119190613af0565b61115157604080518082018252600e81526d139bdd08185d5d1a1bdc9a5e995960921b6020820152905162461bcd60e51b815261042c9190600401613add565b60068101805460ff191660051790556008810161116f83858361400e565b50805460405185916001600160a01b0316907fc5a53e8918a64b3e9944e2344fc4fdd4c8b33a433b3a696975c4996090b39f6190600090a350505050565b6003602081905260009182526040909120805460018201546002830154938301546004840180546001600160a01b0394851696949093169491926111f090613ec6565b80601f016020809104026020016040519081016040528092919081815260200182805461121c90613ec6565b80156112695780601f1061123e57610100808354040283529160200191611269565b820191906000526020600020905b81548152906001019060200180831161124c57829003601f168201915b5050506005840154600685015460078601546008870180549697939660ff90931695509093509061129990613ec6565b80601f01602080910402602001604051908101604052809291908181526020018280546112c590613ec6565b80156113125780601f106112e757610100808354040283529160200191611312565b820191906000526020600020905b8154815290600101906020018083116112f557829003601f168201915b505050506009830154600a9093015491926001600160a01b03908116921690508b565b61133d611c26565b6113476000611c81565b565b60065460009081906001600160a01b031633146113ab57604080518082018252601881527f4e6f7420636f6d70656e736174696f6e206d616e6167657200000000000000006020820152905162461bcd60e51b815261042c9190600401613add565b600654600160a01b900460ff166113f957604080518082018252600f81526e139bdd081a5b9a5d1a585b1a5e9959608a1b6020820152905162461bcd60e51b815261042c9190600401613add565b60008381526003602052604090206114118482611cf2565b9250925050915091565b600081815260036020526040812090600682015460ff16600581111561144357611443613805565b1480156114535750806003015442105b1561149657604080518082018252601081526f496e76616c696420646561646c696e6560801b6020820152905162461bcd60e51b815261042c9190600401613add565b6005600682015460ff1660058111156114b1576114b1613805565b146114fe57604080518082018252601a815279496e76616c6964207472616e73616374696f6e2073746174757360301b6020820152905162461bcd60e51b815261042c9190600401613add565b80546001600160a01b0316331461154b57604080518082018252600e81526d139bdd08185d5d1a1bdc9a5e995960921b6020820152905162461bcd60e51b815261042c9190600401613add565b6115558282611cf2565b50505050565b6115636136cf565b60008281526003602081815260409283902083516101608101855281546001600160a01b039081168252600183015416928101929092526002810154938201939093529082015460608201526004820180549192916080840191906115c790613ec6565b80601f01602080910402602001604051908101604052809291908181526020018280546115f390613ec6565b80156116405780601f1061161557610100808354040283529160200191611640565b820191906000526020600020905b81548152906001019060200180831161162357829003601f168201915b50505091835250506005828101546020830152600683015460409092019160ff169081111561167157611671613805565b600581111561168257611682613805565b8152602001600782015481526020016008820180546116a090613ec6565b80601f01602080910402602001604051908101604052809291908181526020018280546116cc90613ec6565b80156117195780601f106116ee57610100808354040283529160200191611719565b820191906000526020600020905b8154815290600101906020018083116116fc57829003601f168201915b505050918352505060098201546001600160a01b039081166020830152600a9092015490911660409091015292915050565b7ff0c57e16840df040f15088dc2f81fe391c3923bec73e23a9662efc9c229c6a008054600160401b810460ff1615906001600160401b03166000811580156117905750825b90506000826001600160401b031660011480156117ac5750303b155b9050811580156117ba575080155b156117d85760405163f92ee8a960e01b815260040160405180910390fd5b845467ffffffffffffffff19166001178555831561180257845460ff60401b1916600160401b1785555b61180a612203565b61181333612213565b6001600160a01b03881661185b57604080518082018252600c81526b5a65726f206164647265737360a01b6020820152905162461bcd60e51b815261042c9190600401613add565b6001600160a01b0387166118a357604080518082018252600c81526b5a65726f206164647265737360a01b6020820152905162461bcd60e51b815261042c9190600401613add565b6001600160a01b0386166118eb57604080518082018252600c81526b5a65726f206164647265737360a01b6020820152905162461bcd60e51b815261042c9190600401613add565b600080546001600160a01b03808b166001600160a01b031992831617909255600180548a84169083161790556002805492891692909116919091179055831561196e57845460ff60401b19168555604051600181527fc7f505b2f371ae2175ee4913f4499e1f2633a7b5936321eed1cdaeb6115181d29060200160405180910390a15b5050505050505050565b611980611bda565b6001600160a01b0381166119c857604080518082018252600c81526b5a65726f206164647265737360a01b6020820152905162461bcd60e51b815261042c9190600401613add565b600084815260036020526040812090600682015460ff1660058111156119f0576119f0613805565b14611a3d57604080518082018252601a815279496e76616c6964207472616e73616374696f6e2073746174757360301b6020820152905162461bcd60e51b815261042c9190600401613add565b80546001600160a01b03163314611a8a57604080518082018252600e81526d139bdd08185d5d1a1bdc9a5e995960921b6020820152905162461bcd60e51b815261042c9190600401613add565b6000611a968585612224565b90506000611aa38261240f565b90506000600282604051611ab791906140ce565b602060405180830381855afa158015611ad4573d6000803e3d6000fd5b5050506040513d601f19601f82011682018060405250810190611af79190613e5b565b60068501805460ff19166002179055905060048401611b1787898361400e565b5060058401819055600a840180546001600160a01b0319166001600160a01b03878116919091179091556000828152600460205260408082208b9055865490518b9391909116917f31e90e280e677d9edeb57411a7ccf29ae3094cc999a12de72dfdecf0b9ed1f0591a350505050611555600160008051602061422583398151915255565b611ba4611c26565b6001600160a01b038116611bce57604051631e4fbdf760e01b81526000600482015260240161042c565b611bd781611c81565b50565b600080516020614225833981519152805460011901611c0c57604051633ee5aeb560e01b815260040160405180910390fd5b60029055565b600160008051602061422583398151915255565b33611c587f9016d09d72d40fdae2fd8ceac6b6234c7706214fd39c1cd1e609a0528c199300546001600160a01b031690565b6001600160a01b0316146113475760405163118cdaa760e01b815233600482015260240161042c565b7f9016d09d72d40fdae2fd8ceac6b6234c7706214fd39c1cd1e609a0528c19930080546001600160a01b031981166001600160a01b03848116918217845560405192169182907f8be0079c531659141344cd1fd0a4f28419497f9722a3daafe3b4186f6b6457e090600090a3505050565b6000805460018301546040516326415b0f60e21b81526001600160a01b0391821660048201528392839216906399056c3c90602401600060405180830381865afa158015611d44573d6000803e3d6000fd5b505050506040513d6000823e601f3d908101601f19168201604052611d6c9190810190613c85565b90506000846002015442611d809190613e42565b90506000611d946127106301e13380613e74565b8360200151838560a00151611da99190613e74565b611db39190613e74565b611dbd9190613e8b565b6002546040805163286e9cd160e21b81529051929350600092612710926001600160a01b031691636dd5b69d91839163a1ba73449160048083019260209291908290030181865afa158015611e16573d6000803e3d6000fd5b505050506040513d601f19601f82011682018060405250810190611e3a9190613e5b565b6040518263ffffffff1660e01b8152600401611e5891815260200190565b602060405180830381865afa158015611e75573d6000803e3d6000fd5b505050506040513d601f19601f82011682018060405250810190611e999190613e5b565b611ea39084613e74565b611ead9190613e8b565b90506000611ebb8284613e42565b90506000600260009054906101000a90046001600160a01b03166001600160a01b0316638b6570a06040518163ffffffff1660e01b8152600401602060405180830381865afa158015611f12573d6000803e3d6000fd5b505050506040513d601f19601f82011682018060405250810190611f3691906140ea565b90506000816001600160a01b03168460405160006040518083038185875af1925050503d8060008114611f85576040519150601f19603f3d011682016040523d82523d6000602084013e611f8a565b606091505b5050905080611fd057604080518082018252600f81526e151c985b9cd9995c8819985a5b1959608a1b6020820152905162461bcd60e51b815261042c9190600401613add565b60018a01546040516000916001600160a01b03169085908381818185875af1925050503d806000811461201f576040519150601f19603f3d011682016040523d82523d6000602084013e612024565b606091505b505090508061206a57604080518082018252600f81526e151c985b9cd9995c8819985a5b1959608a1b6020820152905162461bcd60e51b815261042c9190600401613add565b47801561210a578b546040516000916001600160a01b03169083908381818185875af1925050503d80600081146120bd576040519150601f19603f3d011682016040523d82523d6000602084013e6120c2565b606091505b505090508061210857604080518082018252600f81526e151c985b9cd9995c8819985a5b1959608a1b6020820152905162461bcd60e51b815261042c9190600401613add565b505b60008054906101000a90046001600160a01b03166001600160a01b031663cedb588b8d60010160009054906101000a90046001600160a01b03168f6040518363ffffffff1660e01b81526004016121769291906001600160a01b03929092168252602082015260400190565b600060405180830381600087803b15801561219057600080fd5b505af11580156121a4573d6000803e3d6000fd5b5050505060068c01805460ff191660011790558b546040518e916001600160a01b0316907fd4ce83344b315e3d656d76b02d51dcb1e3c92f1f9f9c28524cfb20882e9e6bc790600090a3509298509296505050505050505b9250929050565b61220b612ab0565b611347612af9565b61221b612ab0565b611bd781612b01565b6040805160a08101825260008082526060602083018190529282018390529181018290526080810182905290828061225d600484614107565b111561229c57604080518082018252601781526000805160206142058339815191526020820152905162461bcd60e51b815261042c9190600401613add565b8482856122aa600483614107565b926122b79392919061411a565b6122c091614144565b60e01c83526122d0600483614107565b91506000806122e0878786612b09565b8115156080880152945091508390506000806122fd898985612b9c565b60208901829052965091508590506000806123198b8b85612c94565b60408b0182905298509150879050851561233d5761233a8b8b8a8751612d74565b97505b86612349896004614107565b111561238857604080518082018252601781526000805160206142058339815191526020820152905162461bcd60e51b815261042c9190600401613add565b8a888b612396826004614107565b926123a39392919061411a565b6123ac91614144565b60e01c60608a01526123bf600489614107565b975086881461240157604080518082018252601781526000805160206142058339815191526020820152905162461bcd60e51b815261042c9190600401613add565b505050505050505092915050565b6060600060049050612425836020015151612e07565b61242f9082614107565b905060005b83602001515181101561246d5761244c602883614107565b9150612459600183614107565b91508061246581613ead565b915050612434565b5061247c836040015151612e07565b6124869082614107565b905060005b83604001515181101561251e576124a3600883614107565b91506124d0846040015182815181106124be576124be614174565b60200260200101516020015151612e07565b6124da9083614107565b9150836040015181815181106124f2576124f2614174565b602002602001015160200151518261250a9190614107565b91508061251681613ead565b91505061248b565b5061252a600482614107565b90506000816001600160401b0381111561254657612546613b12565b6040519080825280601f01601f191660200182016040528015612570576020820181803683370190505b50845190915060009060e01b815b60048110156125e15781816004811061259957612599614174565b1a60f81b846125a88386614107565b815181106125b8576125b8614174565b60200101906001600160f81b031916908160001a905350806125d981613ead565b91505061257e565b506125ed600483614107565b91506125ff8660200151518484612e4b565b6126099083614107565b915060005b86602001515181101561283a5760005b60208110156126a2578760200151828151811061263d5761263d614174565b602002602001015160000151816020811061265a5761265a614174565b1a60f81b856126698387614107565b8151811061267957612679614174565b60200101906001600160f81b031916908160001a9053508061269a81613ead565b91505061261e565b506126ae602084614107565b92506000876020015182815181106126c8576126c8614174565b60200260200101516020015160e01b905060005b600481101561273f578181600481106126f7576126f7614174565b1a60f81b866127068388614107565b8151811061271657612716614174565b60200101906001600160f81b031916908160001a9053508061273781613ead565b9150506126dc565b5061274b600485614107565b9350600060f81b85858151811061276457612764614174565b60200101906001600160f81b031916908160001a905350612786600185614107565b93506000886020015183815181106127a0576127a0614174565b60200260200101516060015160e01b905060005b6004811015612817578181600481106127cf576127cf614174565b1a60f81b876127de8389614107565b815181106127ee576127ee614174565b60200101906001600160f81b031916908160001a9053508061280f81613ead565b9150506127b4565b50612823600486614107565b94505050808061283290613ead565b91505061260e565b5061284b8660400151518484612e4b565b6128559083614107565b915060005b866040015151811015612a355760008760400151828151811061287f5761287f614174565b60200260200101516000015160c01b905060005b60088110156128f6578181600881106128ae576128ae614174565b1a60f81b866128bd8388614107565b815181106128cd576128cd614174565b60200101906001600160f81b031916908160001a905350806128ee81613ead565b915050612893565b50612902600885614107565b93506129318860400151838151811061291d5761291d614174565b602002602001015160200151518686612e4b565b61293b9085614107565b935060005b8860400151838151811061295657612956614174565b602002602001015160200151518110156129f0578860400151838151811061298057612980614174565b602002602001015160200151818151811061299d5761299d614174565b01602001516001600160f81b031916866129b78388614107565b815181106129c7576129c7614174565b60200101906001600160f81b031916908160001a905350806129e881613ead565b915050612940565b5087604001518281518110612a0757612a07614174565b6020026020010151602001515184612a1f9190614107565b9350508080612a2d90613ead565b91505061285a565b50606086015160e01b60005b6004811015612aa457818160048110612a5c57612a5c614174565b1a60f81b85612a6b8387614107565b81518110612a7b57612a7b614174565b60200101906001600160f81b031916908160001a90535080612a9c81613ead565b915050612a41565b50929695505050505050565b7ff0c57e16840df040f15088dc2f81fe391c3923bec73e23a9662efc9c229c6a0054600160401b900460ff1661134757604051631afcd79f60e31b815260040160405180910390fd5b611c12612ab0565b611ba4612ab0565b60008183612b18826002614107565b11612b94576000858585818110612b3157612b31614174565b919091013560f81c9150600090508686612b4c876001614107565b818110612b5b57612b5b614174565b919091013560f81c91505060ff8216158015612b7a575060ff81166001145b15612b915760019350612b8e600284614107565b92505b50505b935093915050565b60606000806000612bae8787876130b1565b9092509050612bbd8186614107565b9250816001600160401b03811115612bd757612bd7613b12565b604051908082528060200260200182016040528015612c2a57816020015b60408051608081018252600080825260208083018290526060938301849052928201528252600019909201910181612bf55790505b50935060005b82811015612c8957600080612c468a8a886132e0565b9150915081878481518110612c5d57612c5d614174565b6020908102919091010152612c728187614107565b955050508080612c8190613ead565b915050612c30565b505050935093915050565b60606000806000612ca68787876130b1565b9092509050612cb58186614107565b9250816001600160401b03811115612ccf57612ccf613b12565b604051908082528060200260200182016040528015612d1557816020015b604080518082019091526000815260606020820152815260200190600190039081612ced5790505b50935060005b82811015612c8957600080612d318a8a88613570565b9150915081878481518110612d4857612d48614174565b6020908102919091010152612d5d8187614107565b955050508080612d6c90613ead565b915050612d1b565b8160005b82811015612dfe57600080612d8e8888866130b1565b9092509050612d9d8185614107565b935060005b82811015612de857600080612db88b8b896130b1565b9092509050612dc78282614107565b612dd19088614107565b965050508080612de090613ead565b915050612da2565b5050508080612df690613ead565b915050612d78565b50949350505050565b600060fc821015612e1a57506001919050565b61ffff8211612e2b57506003919050565b63ffffffff8211612e3e57506005919050565b506009919050565b919050565b600060fc841015612e8c578360f81b838381518110612e6c57612e6c614174565b60200101906001600160f81b031916908160001a90535060019050610d34565b61ffff8411612f465760fd60f81b838381518110612eac57612eac614174565b60200101906001600160f81b031916908160001a90535060f084901b8060001a60f81b84612edb856001614107565b81518110612eeb57612eeb614174565b60200101906001600160f81b031916908160001a9053508060011a60f81b84612f15856002614107565b81518110612f2557612f25614174565b60200101906001600160f81b031916908160001a9053506003915050610d34565b63ffffffff84116130015760fe60f81b838381518110612f6857612f68614174565b60200101906001600160f81b031916908160001a90535060e084901b60005b6004811015612ff657818160048110612fa257612fa2614174565b1a60f81b8582612fb3876001614107565b612fbd9190614107565b81518110612fcd57612fcd614174565b60200101906001600160f81b031916908160001a90535080612fee81613ead565b915050612f87565b506005915050610d34565b60ff60f81b83838151811061301857613018614174565b60200101906001600160f81b031916908160001a90535060c084901b60005b60088110156130a65781816008811061305257613052614174565b1a60f81b8582613063876001614107565b61306d9190614107565b8151811061307d5761307d614174565b60200101906001600160f81b031916908160001a9053508061309e81613ead565b915050613037565b506009915050610d34565b6000808383106130f457604080518082018252601781526000805160206142058339815191526020820152905162461bcd60e51b815261042c9190600401613add565b600085858581811061310857613108614174565b919091013560f81c91505060fc81101561312a5760ff16915060019050612b94565b60fc1960ff8216016131c05784613142856003614107565b111561318157604080518082018252601781526000805160206142058339815191526020820152905162461bcd60e51b815261042c9190600401613add565b858561318e866001614107565b9061319a876003614107565b926131a79392919061411a565b6131b09161418a565b60f01c925060039150612b949050565b60fd1960ff82160161325657846131d8856005614107565b111561321757604080518082018252601781526000805160206142058339815191526020820152905162461bcd60e51b815261042c9190600401613add565b8585613224866001614107565b90613230876005614107565b9261323d9392919061411a565b61324691614144565b60e01c925060059150612b949050565b84613262856009614107565b11156132a157604080518082018252601781526000805160206142058339815191526020820152905162461bcd60e51b815261042c9190600401613add565b85856132ae866001614107565b906132ba876009614107565b926132c79392919061411a565b6132d0916141b8565b60c01c925060099150612b949050565b6040805160808101825260008082526020820181905260609282018390529181019190915260008284613314826020614107565b111561335357604080518082018252601781526000805160206142058339815191526020820152905162461bcd60e51b815261042c9190600401613add565b858486613361826020614107565b9261336e9392919061411a565b613377916141e6565b8352613384602085614107565b935084613392856004614107565b11156133d157604080518082018252601781526000805160206142058339815191526020820152905162461bcd60e51b815261042c9190600401613add565b8584866133df826004614107565b926133ec9392919061411a565b6133f591614144565b60e01c6020840152613408600485614107565b93506000806134188888886130b1565b90925090506134278187614107565b9550866134348388614107565b111561347357604080518082018252601781526000805160206142058339815191526020820152905162461bcd60e51b815261042c9190600401613add565b8786886134808583614107565b9261348d9392919061411a565b8080601f01602080910402602001604051908101604052809392919081815260200183838082843760009201919091525050505060408601526134d08287614107565b9550866134de876004614107565b111561351d57604080518082018252601781526000805160206142058339815191526020820152905162461bcd60e51b815261042c9190600401613add565b87868861352b826004614107565b926135389392919061411a565b61354191614144565b60e01c6060860152613554600487614107565b9550846135618488613e42565b94509450505050935093915050565b60408051808201909152600081526060602082015260008284613594826008614107565b11156135d357604080518082018252601781526000805160206142058339815191526020820152905162461bcd60e51b815261042c9190600401613add565b8584866135e1826008614107565b926135ee9392919061411a565b6135f7916141b8565b60c01c8352613607600885614107565b93506000806136178888886130b1565b90925090506136268187614107565b9550866136338388614107565b111561367257604080518082018252601781526000805160206142058339815191526020820152905162461bcd60e51b815261042c9190600401613add565b87868861367f8583614107565b9261368c9392919061411a565b8080601f01602080910402602001604051908101604052809392919081815260200183838082843760009201919091525050505060208601526135548287614107565b60408051610160810182526000808252602082018190529181018290526060808201839052608082015260a081018290529060c08201908152600060208201819052606060408301819052820181905260809091015290565b6001600160a01b0381168114611bd757600080fd5b60008060006060848603121561375257600080fd5b833561375d81613728565b925060208401359150604084013561377481613728565b809150509250925092565b60006020828403121561379157600080fd5b8135610d3481613728565b6000602082840312156137ae57600080fd5b5035919050565b60005b838110156137d05781810151838201526020016137b8565b50506000910152565b600081518084526137f18160208601602086016137b5565b601f01601f19169290920160200192915050565b634e487b7160e01b600052602160045260246000fd5b6006811061383957634e487b7160e01b600052602160045260246000fd5b9052565b602081526138576020820183516001600160a01b03169052565b6000602083015161387360408401826001600160a01b03169052565b50604083015160608301526060830151608083015260808301516101608060a08501526138a46101808501836137d9565b915060a085015160c085015260c08501516138c260e086018261381b565b5060e0850151610100818187015280870151915050610120601f1986850301818701526138ef84836137d9565b93508087015191505061014061390f818701836001600160a01b03169052565b909501516001600160a01b031693019290925250919050565b60008083601f84011261393a57600080fd5b5081356001600160401b0381111561395157600080fd5b6020830191508360208285010111156121fc57600080fd5b60008060006040848603121561397e57600080fd5b8335925060208401356001600160401b0381111561399b57600080fd5b6139a786828701613928565b9497909650939450505050565b600061016060018060a01b03808f168452808e1660208501528c60408501528b60608501528160808501526139eb8285018c6137d9565b91508960a0850152613a0060c085018a61381b565b8760e0850152838203610100850152613a1982886137d9565b925080861661012085015280851661014085015250509c9b505050505050505050505050565b600080600060608486031215613a5457600080fd5b8335613a5f81613728565b92506020840135613a6f81613728565b9150604084013561377481613728565b60008060008060608587031215613a9557600080fd5b8435935060208501356001600160401b03811115613ab257600080fd5b613abe87828801613928565b9094509250506040850135613ad281613728565b939692955090935050565b602081526000610d3460208301846137d9565b600060208284031215613b0257600080fd5b81518015158114610d3457600080fd5b634e487b7160e01b600052604160045260246000fd5b60405161020081016001600160401b0381118282101715613b4b57613b4b613b12565b60405290565b604051601f8201601f191681016001600160401b0381118282101715613b7957613b79613b12565b604052919050565b8051612e4681613728565b805160048110612e4657600080fd5b600082601f830112613bac57600080fd5b815160206001600160401b03821115613bc757613bc7613b12565b8160051b613bd6828201613b51565b9283528481018201928281019087851115613bf057600080fd5b83870192505b84831015613c0f57825182529183019190830190613bf6565b979650505050505050565b600082601f830112613c2b57600080fd5b81516001600160401b03811115613c4457613c44613b12565b613c57601f8201601f1916602001613b51565b818152846020838601011115613c6c57600080fd5b613c7d8260208301602087016137b5565b949350505050565b600060208284031215613c9757600080fd5b81516001600160401b0380821115613cae57600080fd5b908301906102008286031215613cc357600080fd5b613ccb613b28565b613cd483613b81565b81526020830151602082015260408301516040820152613cf660608401613b8c565b60608201526080830151608082015260a083015160a0820152613d1b60c08401613b81565b60c0820152613d2c60e08401613b81565b60e08201526101008084015183811115613d4557600080fd5b613d5188828701613b9b565b828401525050610120613d65818501613b81565b908201526101408381015183811115613d7d57600080fd5b613d8988828701613c1a565b8284015250506101608084015183811115613da357600080fd5b613daf88828701613c1a565b8284015250506101808084015181830152506101a08084015183811115613dd557600080fd5b613de188828701613c1a565b8284015250506101c08084015183811115613dfb57600080fd5b613e0788828701613c1a565b8284015250506101e09150613e1d828401613b81565b91810191909152949350505050565b634e487b7160e01b600052601160045260246000fd5b81810381811115613e5557613e55613e2c565b92915050565b600060208284031215613e6d57600080fd5b5051919050565b8082028115828204841417613e5557613e55613e2c565b600082613ea857634e487b7160e01b600052601260045260246000fd5b500490565b600060018201613ebf57613ebf613e2c565b5060010190565b600181811c90821680613eda57607f821691505b602082108103613efa57634e487b7160e01b600052602260045260246000fd5b50919050565b601f821115613f4a57600081815260208120601f850160051c81016020861015613f275750805b601f850160051c820191505b81811015613f4657828155600101613f33565b5050505b505050565b81516001600160401b03811115613f6857613f68613b12565b613f7c81613f768454613ec6565b84613f00565b602080601f831160018114613fb15760008415613f995750858301515b600019600386901b1c1916600185901b178555613f46565b600085815260208120601f198616915b82811015613fe057888601518255948401946001909101908401613fc1565b5085821015613ffe5787850151600019600388901b60f8161c191681555b5050505050600190811b01905550565b6001600160401b0383111561402557614025613b12565b614039836140338354613ec6565b83613f00565b6000601f84116001811461406d57600085156140555750838201355b600019600387901b1c1916600186901b1783556140c7565b600083815260209020601f19861690835b8281101561409e578685013582556020948501946001909201910161407e565b50868210156140bb5760001960f88860031b161c19848701351681555b505060018560011b0183555b5050505050565b600082516140e08184602087016137b5565b9190910192915050565b6000602082840312156140fc57600080fd5b8151610d3481613728565b80820180821115613e5557613e55613e2c565b6000808585111561412a57600080fd5b8386111561413757600080fd5b5050820193919092039150565b6001600160e01b0319813581811691600485101561416c5780818660040360031b1b83161692505b505092915050565b634e487b7160e01b600052603260045260246000fd5b6001600160f01b0319813581811691600285101561416c5760029490940360031b84901b1690921692915050565b6001600160c01b0319813581811691600885101561416c5760089490940360031b84901b1690921692915050565b80356020831015613e5557600019602084900360031b1b169291505056fe496e76616c696420425443207472616e73616374696f6e0000000000000000009b779b17422d0df92223018b32b4d1fa46e071723d6817e2486d003becc55f00a2646970667358221220ac24249244ab4848c26394e302626e4d003614f28072108caf33b0ee65f29f9064736f6c63430008140033",
  "linkReferences": {},
  "deployedLinkReferences": {}
}