{
  "_format": "hh-sol-artifact-1",
  "contractName": "TransactionManager",
  "sourceName": "contracts/core/TransactionManager.sol",
  "abi": [
    {
      "inputs": [],
      "stateMutability": "nonpayable",
      "type": "constructor"
    },
    {
      "inputs": [],
      "name": "InvalidInitialization",
      "type": "error"
    },
    {
      "inputs": [],
      "name": "NotInitializing",
      "type": "error"
    },
    {
      "inputs": [
        {
          "internalType": "address",
          "name": "owner",
          "type": "address"
        }
      ],
      "name": "OwnableInvalidOwner",
      "type": "error"
    },
    {
      "inputs": [
        {
          "internalType": "address",
          "name": "account",
          "type": "address"
        }
      ],
      "name": "OwnableUnauthorizedAccount",
      "type": "error"
    },
    {
      "inputs": [],
      "name": "ReentrancyGuardReentrantCall",
      "type": "error"
    },
    {
      "anonymous": false,
      "inputs": [
        {
          "indexed": true,
          "internalType": "bytes32",
          "name": "txId",
          "type": "bytes32"
        },
        {
          "indexed": true,
          "internalType": "address",
          "name": "dapp",
          "type": "address"
        },
        {
          "indexed": false,
          "internalType": "address",
          "name": "arbitrator",
          "type": "address"
        },
        {
          "indexed": false,
          "internalType": "bytes",
          "name": "btcTx",
          "type": "bytes"
        },
        {
          "indexed": false,
          "internalType": "bytes",
          "name": "script",
          "type": "bytes"
        },
        {
          "indexed": false,
          "internalType": "address",
          "name": "timeoutCompensationReceiver",
          "type": "address"
        }
      ],
      "name": "ArbitrationRequested",
      "type": "event"
    },
    {
      "anonymous": false,
      "inputs": [
        {
          "indexed": true,
          "internalType": "bytes32",
          "name": "txId",
          "type": "bytes32"
        },
        {
          "indexed": true,
          "internalType": "address",
          "name": "dapp",
          "type": "address"
        },
        {
          "indexed": true,
          "internalType": "address",
          "name": "arbitrator",
          "type": "address"
        },
        {
          "indexed": false,
          "internalType": "bytes",
          "name": "btcTxSignature",
          "type": "bytes"
        }
      ],
      "name": "ArbitrationSubmitted",
      "type": "event"
    },
    {
      "anonymous": false,
      "inputs": [
        {
          "indexed": false,
          "internalType": "uint64",
          "name": "version",
          "type": "uint64"
        }
      ],
      "name": "Initialized",
      "type": "event"
    },
    {
      "anonymous": false,
      "inputs": [
        {
          "indexed": true,
          "internalType": "address",
          "name": "previousOwner",
          "type": "address"
        },
        {
          "indexed": true,
          "internalType": "address",
          "name": "newOwner",
          "type": "address"
        }
      ],
      "name": "OwnershipTransferred",
      "type": "event"
    },
    {
      "anonymous": false,
      "inputs": [
        {
          "indexed": true,
          "internalType": "address",
          "name": "arbitratorManager",
          "type": "address"
        }
      ],
      "name": "SetArbitratorManager",
      "type": "event"
    },
    {
      "anonymous": false,
      "inputs": [
        {
          "indexed": true,
          "internalType": "bytes32",
          "name": "txId",
          "type": "bytes32"
        },
        {
          "indexed": true,
          "internalType": "address",
          "name": "dapp",
          "type": "address"
        }
      ],
      "name": "TransactionCompleted",
      "type": "event"
    },
    {
      "anonymous": false,
      "inputs": [
        {
          "indexed": true,
          "internalType": "bytes32",
          "name": "id",
          "type": "bytes32"
        },
        {
          "indexed": true,
          "internalType": "address",
          "name": "dapp",
          "type": "address"
        },
        {
          "indexed": true,
          "internalType": "address",
          "name": "arbitrator",
          "type": "address"
        },
        {
          "indexed": false,
          "internalType": "uint256",
          "name": "deadline",
          "type": "uint256"
        },
        {
          "indexed": false,
          "internalType": "uint256",
          "name": "depositFee",
          "type": "uint256"
        },
        {
          "indexed": false,
          "internalType": "address",
          "name": "compensationReceiver",
          "type": "address"
        }
      ],
      "name": "TransactionRegistered",
      "type": "event"
    },
    {
      "anonymous": false,
      "inputs": [
        {
          "indexed": true,
          "internalType": "bytes32",
          "name": "txId",
          "type": "bytes32"
        },
        {
          "indexed": true,
          "internalType": "address",
          "name": "dapp",
          "type": "address"
        }
      ],
      "name": "UTXOsUploaded",
      "type": "event"
    },
    {
      "inputs": [],
      "name": "arbitratorManager",
      "outputs": [
        {
          "internalType": "contract IArbitratorManager",
          "name": "",
          "type": "address"
        }
      ],
      "stateMutability": "view",
      "type": "function"
    },
    {
      "inputs": [],
      "name": "compensationManager",
      "outputs": [
        {
          "internalType": "address",
          "name": "",
          "type": "address"
        }
      ],
      "stateMutability": "view",
      "type": "function"
    },
    {
      "inputs": [
        {
          "internalType": "bytes32",
          "name": "id",
          "type": "bytes32"
        }
      ],
      "name": "completeTransaction",
      "outputs": [],
      "stateMutability": "nonpayable",
      "type": "function"
    },
    {
      "inputs": [
        {
          "internalType": "bytes32",
          "name": "id",
          "type": "bytes32"
        },
        {
          "internalType": "address",
          "name": "receivedCompensationAddress",
          "type": "address"
        }
      ],
      "name": "completeTransactionWithSlash",
      "outputs": [],
      "stateMutability": "nonpayable",
      "type": "function"
    },
    {
      "inputs": [],
      "name": "configManager",
      "outputs": [
        {
          "internalType": "contract ConfigManager",
          "name": "",
          "type": "address"
        }
      ],
      "stateMutability": "view",
      "type": "function"
    },
    {
      "inputs": [],
      "name": "dappRegistry",
      "outputs": [
        {
          "internalType": "contract IDAppRegistry",
          "name": "",
          "type": "address"
        }
      ],
      "stateMutability": "view",
      "type": "function"
    },
    {
      "inputs": [
        {
          "internalType": "uint256",
          "name": "deadline",
          "type": "uint256"
        },
        {
          "internalType": "address",
          "name": "arbitrator",
          "type": "address"
        }
      ],
      "name": "getRegisterTransactionFee",
      "outputs": [
        {
          "internalType": "uint256",
          "name": "fee",
          "type": "uint256"
        }
      ],
      "stateMutability": "view",
      "type": "function"
    },
    {
      "inputs": [
        {
          "internalType": "bytes32",
          "name": "txHash",
          "type": "bytes32"
        }
      ],
      "name": "getTransaction",
      "outputs": [
        {
          "components": [
            {
              "internalType": "address",
              "name": "dapp",
              "type": "address"
            },
            {
              "internalType": "address",
              "name": "arbitrator",
              "type": "address"
            },
            {
              "internalType": "uint256",
              "name": "startTime",
              "type": "uint256"
            },
            {
              "internalType": "uint256",
              "name": "deadline",
              "type": "uint256"
            },
            {
              "internalType": "bytes",
              "name": "btcTx",
              "type": "bytes"
            },
            {
              "internalType": "bytes32",
              "name": "btcTxHash",
              "type": "bytes32"
            },
            {
              "internalType": "enum DataTypes.TransactionStatus",
              "name": "status",
              "type": "uint8"
            },
            {
              "internalType": "uint256",
              "name": "depositedFee",
              "type": "uint256"
            },
            {
              "internalType": "bytes",
              "name": "signature",
              "type": "bytes"
            },
            {
              "internalType": "address",
              "name": "compensationReceiver",
              "type": "address"
            },
            {
              "internalType": "address",
              "name": "timeoutCompensationReceiver",
              "type": "address"
            },
            {
              "components": [
                {
                  "internalType": "bytes32",
                  "name": "txHash",
                  "type": "bytes32"
                },
                {
                  "internalType": "uint32",
                  "name": "index",
                  "type": "uint32"
                },
                {
                  "internalType": "bytes",
                  "name": "script",
                  "type": "bytes"
                },
                {
                  "internalType": "uint256",
                  "name": "amount",
                  "type": "uint256"
                }
              ],
              "internalType": "struct DataTypes.UTXO[]",
              "name": "utxos",
              "type": "tuple[]"
            },
            {
              "internalType": "bytes",
              "name": "script",
              "type": "bytes"
            },
            {
              "internalType": "uint256",
              "name": "requestArbitrationTime",
              "type": "uint256"
            }
          ],
          "internalType": "struct DataTypes.Transaction",
          "name": "",
          "type": "tuple"
        }
      ],
      "stateMutability": "view",
      "type": "function"
    },
    {
      "inputs": [
        {
          "internalType": "bytes32",
          "name": "id",
          "type": "bytes32"
        }
      ],
      "name": "getTransactionById",
      "outputs": [
        {
          "components": [
            {
              "internalType": "address",
              "name": "dapp",
              "type": "address"
            },
            {
              "internalType": "address",
              "name": "arbitrator",
              "type": "address"
            },
            {
              "internalType": "uint256",
              "name": "startTime",
              "type": "uint256"
            },
            {
              "internalType": "uint256",
              "name": "deadline",
              "type": "uint256"
            },
            {
              "internalType": "bytes",
              "name": "btcTx",
              "type": "bytes"
            },
            {
              "internalType": "bytes32",
              "name": "btcTxHash",
              "type": "bytes32"
            },
            {
              "internalType": "enum DataTypes.TransactionStatus",
              "name": "status",
              "type": "uint8"
            },
            {
              "internalType": "uint256",
              "name": "depositedFee",
              "type": "uint256"
            },
            {
              "internalType": "bytes",
              "name": "signature",
              "type": "bytes"
            },
            {
              "internalType": "address",
              "name": "compensationReceiver",
              "type": "address"
            },
            {
              "internalType": "address",
              "name": "timeoutCompensationReceiver",
              "type": "address"
            },
            {
              "components": [
                {
                  "internalType": "bytes32",
                  "name": "txHash",
                  "type": "bytes32"
                },
                {
                  "internalType": "uint32",
                  "name": "index",
                  "type": "uint32"
                },
                {
                  "internalType": "bytes",
                  "name": "script",
                  "type": "bytes"
                },
                {
                  "internalType": "uint256",
                  "name": "amount",
                  "type": "uint256"
                }
              ],
              "internalType": "struct DataTypes.UTXO[]",
              "name": "utxos",
              "type": "tuple[]"
            },
            {
              "internalType": "bytes",
              "name": "script",
              "type": "bytes"
            },
            {
              "internalType": "uint256",
              "name": "requestArbitrationTime",
              "type": "uint256"
            }
          ],
          "internalType": "struct DataTypes.Transaction",
          "name": "",
          "type": "tuple"
        }
      ],
      "stateMutability": "view",
      "type": "function"
    },
    {
      "inputs": [
        {
          "internalType": "address",
          "name": "_arbitratorManager",
          "type": "address"
        },
        {
          "internalType": "address",
          "name": "_dappRegistry",
          "type": "address"
        },
        {
          "internalType": "address",
          "name": "_configManager",
          "type": "address"
        },
        {
          "internalType": "address",
          "name": "_compensationManager",
          "type": "address"
        }
      ],
      "name": "initialize",
      "outputs": [],
      "stateMutability": "nonpayable",
      "type": "function"
    },
    {
      "inputs": [
        {
          "internalType": "bytes32",
          "name": "id",
          "type": "bytes32"
        }
      ],
      "name": "isAbleCompletedTransaction",
      "outputs": [
        {
          "internalType": "bool",
          "name": "",
          "type": "bool"
        }
      ],
      "stateMutability": "view",
      "type": "function"
    },
    {
      "inputs": [],
      "name": "owner",
      "outputs": [
        {
          "internalType": "address",
          "name": "",
          "type": "address"
        }
      ],
      "stateMutability": "view",
      "type": "function"
    },
    {
      "inputs": [
        {
          "internalType": "address",
          "name": "arbitrator",
          "type": "address"
        },
        {
          "internalType": "uint256",
          "name": "deadline",
          "type": "uint256"
        },
        {
          "internalType": "address",
          "name": "compensationReceiver",
          "type": "address"
        }
      ],
      "name": "registerTransaction",
      "outputs": [
        {
          "internalType": "bytes32",
          "name": "",
          "type": "bytes32"
        }
      ],
      "stateMutability": "payable",
      "type": "function"
    },
    {
      "inputs": [],
      "name": "renounceOwnership",
      "outputs": [],
      "stateMutability": "nonpayable",
      "type": "function"
    },
    {
      "inputs": [
        {
          "internalType": "bytes32",
          "name": "id",
          "type": "bytes32"
        },
        {
          "internalType": "bytes",
          "name": "btcTx",
          "type": "bytes"
        },
        {
          "internalType": "bytes",
          "name": "script",
          "type": "bytes"
        },
        {
          "internalType": "address",
          "name": "timeoutCompensationReceiver",
          "type": "address"
        }
      ],
      "name": "requestArbitration",
      "outputs": [],
      "stateMutability": "nonpayable",
      "type": "function"
    },
    {
      "inputs": [
        {
          "internalType": "address",
          "name": "_arbitratorManager",
          "type": "address"
        }
      ],
      "name": "setArbitratorManager",
      "outputs": [],
      "stateMutability": "nonpayable",
      "type": "function"
    },
    {
      "inputs": [
        {
          "internalType": "bytes32",
          "name": "id",
          "type": "bytes32"
        },
        {
          "internalType": "bytes",
          "name": "btcTxSignature",
          "type": "bytes"
        }
      ],
      "name": "submitArbitration",
      "outputs": [],
      "stateMutability": "nonpayable",
      "type": "function"
    },
    {
      "inputs": [
        {
          "internalType": "bytes32",
          "name": "",
          "type": "bytes32"
        }
      ],
      "name": "transactions",
      "outputs": [
        {
          "internalType": "address",
          "name": "dapp",
          "type": "address"
        },
        {
          "internalType": "address",
          "name": "arbitrator",
          "type": "address"
        },
        {
          "internalType": "uint256",
          "name": "startTime",
          "type": "uint256"
        },
        {
          "internalType": "uint256",
          "name": "deadline",
          "type": "uint256"
        },
        {
          "internalType": "bytes",
          "name": "btcTx",
          "type": "bytes"
        },
        {
          "internalType": "bytes32",
          "name": "btcTxHash",
          "type": "bytes32"
        },
        {
          "internalType": "enum DataTypes.TransactionStatus",
          "name": "status",
          "type": "uint8"
        },
        {
          "internalType": "uint256",
          "name": "depositedFee",
          "type": "uint256"
        },
        {
          "internalType": "bytes",
          "name": "signature",
          "type": "bytes"
        },
        {
          "internalType": "address",
          "name": "compensationReceiver",
          "type": "address"
        },
        {
          "internalType": "address",
          "name": "timeoutCompensationReceiver",
          "type": "address"
        },
        {
          "internalType": "bytes",
          "name": "script",
          "type": "bytes"
        },
        {
          "internalType": "uint256",
          "name": "requestArbitrationTime",
          "type": "uint256"
        }
      ],
      "stateMutability": "view",
      "type": "function"
    },
    {
      "inputs": [
        {
          "internalType": "bytes32",
          "name": "id",
          "type": "bytes32"
        }
      ],
      "name": "transferArbitrationFee",
      "outputs": [
        {
          "internalType": "uint256",
          "name": "arbitratorFee",
          "type": "uint256"
        },
        {
          "internalType": "uint256",
          "name": "systemFee",
          "type": "uint256"
        }
      ],
      "stateMutability": "nonpayable",
      "type": "function"
    },
    {
      "inputs": [
        {
          "internalType": "address",
          "name": "newOwner",
          "type": "address"
        }
      ],
      "name": "transferOwnership",
      "outputs": [],
      "stateMutability": "nonpayable",
      "type": "function"
    },
    {
      "inputs": [
        {
          "internalType": "bytes32",
          "name": "",
          "type": "bytes32"
        }
      ],
      "name": "txHashToId",
      "outputs": [
        {
          "internalType": "bytes32",
          "name": "",
          "type": "bytes32"
        }
      ],
      "stateMutability": "view",
      "type": "function"
    },
    {
      "inputs": [
        {
          "internalType": "bytes32",
          "name": "id",
          "type": "bytes32"
        },
        {
          "components": [
            {
              "internalType": "bytes32",
              "name": "txHash",
              "type": "bytes32"
            },
            {
              "internalType": "uint32",
              "name": "index",
              "type": "uint32"
            },
            {
              "internalType": "bytes",
              "name": "script",
              "type": "bytes"
            },
            {
              "internalType": "uint256",
              "name": "amount",
              "type": "uint256"
            }
          ],
          "internalType": "struct DataTypes.UTXO[]",
          "name": "utxos",
          "type": "tuple[]"
        }
      ],
      "name": "uploadUTXOs",
      "outputs": [],
      "stateMutability": "nonpayable",
      "type": "function"
    }
  ],
  "bytecode": "0x60806040523480156200001157600080fd5b506200001c62000022565b620000d6565b7ff0c57e16840df040f15088dc2f81fe391c3923bec73e23a9662efc9c229c6a00805468010000000000000000900460ff1615620000735760405163f92ee8a960e01b815260040160405180910390fd5b80546001600160401b0390811614620000d35780546001600160401b0319166001600160401b0390811782556040519081527fc7f505b2f371ae2175ee4913f4499e1f2633a7b5936321eed1cdaeb6115181d29060200160405180910390a15b50565b615f8880620000e66000396000f3fe6080604052600436106101355760003560e01c8063759787c4116100ab578063c1ce47d21161006f578063c1ce47d2146103b7578063ca0ab075146103e4578063d09d03a314610404578063de0ca16614610424578063f2fde38b14610444578063f8c8765e1461046457600080fd5b8063759787c4146102fa5780638da5cb5b1461031a578063a130312a14610357578063a715719014610377578063a890b7b41461039757600080fd5b80634aae13ca116100fd5780634aae13ca146101fa5780634e4f0ec414610227578063520936b514610247578063642f2eaf14610277578063715018a6146102b05780637577b6df146102c557600080fd5b80630433e9041461013a5780630559b8771461015c5780630f6f9a1e146101995780631613f25b146101b95780632c7e8ca3146101da575b600080fd5b34801561014657600080fd5b5061015a610155366004615285565b610484565b005b34801561016857600080fd5b5060065461017c906001600160a01b031681565b6040516001600160a01b0390911681526020015b60405180910390f35b3480156101a557600080fd5b5061015a6101b4366004615310565b6108fd565b6101cc6101c736600461538e565b610aac565b604051908152602001610190565b3480156101e657600080fd5b5061015a6101f53660046153d0565b61111f565b34801561020657600080fd5b5061021a6102153660046153ed565b61116f565b6040516101909190615515565b34801561023357600080fd5b5061015a610242366004615654565b611525565b34801561025357600080fd5b506102676102623660046153ed565b611acd565b6040519015158152602001610190565b34801561028357600080fd5b506102976102923660046153ed565b611efa565b6040516101909d9c9b9a9998979695949392919061569f565b3480156102bc57600080fd5b5061015a61211b565b3480156102d157600080fd5b506102e56102e03660046153ed565b61212f565b60408051928352602083019190915201610190565b34801561030657600080fd5b5060005461017c906001600160a01b031681565b34801561032657600080fd5b507f9016d09d72d40fdae2fd8ceac6b6234c7706214fd39c1cd1e609a0528c199300546001600160a01b031661017c565b34801561036357600080fd5b5061015a6103723660046153ed565b61228f565b34801561038357600080fd5b506101cc610392366004615754565b612383565b3480156103a357600080fd5b5061021a6103b23660046153ed565b612658565b3480156103c357600080fd5b506101cc6103d23660046153ed565b60046020526000908152604090205481565b3480156103f057600080fd5b5060025461017c906001600160a01b031681565b34801561041057600080fd5b5061015a61041f366004615754565b612959565b34801561043057600080fd5b5060015461017c906001600160a01b031681565b34801561045057600080fd5b5061015a61045f3660046153d0565b612b7b565b34801561047057600080fd5b5061015a61047f366004615784565b612bb9565b61048c612d92565b6001600160a01b0381166104d357604080518082018252600281526105a360f41b6020820152905162461bcd60e51b81526104ca91906004016157e0565b60405180910390fd5b600086815260036020526040812090600682015460ff1660058111156104fb576104fb615456565b146105305760408051808201825260028152612a1960f11b6020820152905162461bcd60e51b81526104ca91906004016157e0565b80546001600160a01b0316331461057157604080518082018252600281526104e360f41b6020820152905162461bcd60e51b81526104ca91906004016157e0565b600b8101546000036105ad576040805180820182526002815261553360f01b6020820152905162461bcd60e51b81526104ca91906004016157e0565b8060030154600260009054906101000a90046001600160a01b03166001600160a01b0316632b6f600d6040518163ffffffff1660e01b8152600401602060405180830381865afa158015610605573d6000803e3d6000fd5b505050506040513d601f19601f8201168201806040525081019061062991906157f3565b6106339042615822565b1115610669576040805180820182526002815261553760f01b6020820152905162461bcd60e51b81526104ca91906004016157e0565b60006106758787612dca565b600b830154602082015151919250146106b8576040805180820182526002815261553160f01b6020820152905162461bcd60e51b81526104ca91906004016157e0565b60005b8160200151518110156107be5782600b0181815481106106dd576106dd615835565b9060005260206000209060040201600001548260200151828151811061070557610705615835565b602002602001015160000151141580610777575082600b01818154811061072e5761072e615835565b60009182526020918290206001600490920201015490830151805163ffffffff909216918390811061076257610762615835565b60200260200101516020015163ffffffff1614155b156107ac576040805180820182526002815261553160f01b6020820152905162461bcd60e51b81526104ca91906004016157e0565b806107b68161584b565b9150506106bb565b50600060026107cc83612fba565b6040516107d99190615864565b602060405180830381855afa1580156107f6573d6000803e3d6000fd5b5050506040513d601f19601f8201168201806040525081019061081991906157f3565b60068401805460ff19166002179055905060048301610839888a8361591b565b5060058301819055600a830180546001600160a01b0319166001600160a01b038616179055600c830161086d86888361591b565b5042600d840155600081815260046020526040908190208a90556001840154905133918b917f81c89bbce5115bf315ea29f7001ebabb88f6d3e4d76132bf792f2085799ed0e4916108d3916001600160a01b03909116908d908d908d908d908d90615a04565b60405180910390a35050506108f56001600080516020615f3383398151915255565b505050505050565b6000819003610936576040805180820182526002815261055360f41b6020820152905162461bcd60e51b81526104ca91906004016157e0565b600083815260036020526040812090600682015460ff16600581111561095e5761095e615456565b146109935760408051808201825260028152612a1960f11b6020820152905162461bcd60e51b81526104ca91906004016157e0565b80546001600160a01b031633146109d457604080518082018252600281526104e360f41b6020820152905162461bcd60e51b81526104ca91906004016157e0565b600b81015415610a0e5760408051808201825260028152612a9960f11b6020820152905162461bcd60e51b81526104ca91906004016157e0565b60005b82811015610a785781600b01848483818110610a2f57610a2f615835565b9050602002810190610a419190615a51565b815460018101835560009283526020909220909160040201610a638282615a67565b50508080610a709061584b565b915050610a11565b50604051339085907fbe870ee46d1946169135a006725f4beb7bf05701d38e45b8d0e55892fabff1d990600090a350505050565b6000610ab6612d92565b6001600160a01b0384161580610ad357506001600160a01b038216155b15610b0857604080518082018252600281526105a360f41b6020820152905162461bcd60e51b81526104ca91906004016157e0565b60015460405163682dc82b60e11b81523360048201526001600160a01b039091169063d05b905690602401602060405180830381865afa158015610b50573d6000803e3d6000fd5b505050506040513d601f19601f82011682018060405250810190610b749190615b08565b610ba8576040805180820182526002815261221960f11b6020820152905162461bcd60e51b81526104ca91906004016157e0565b600054604051631c569df760e31b81526001600160a01b0386811660048301529091169063e2b4efb890602401602060405180830381865afa158015610bf2573d6000803e3d6000fd5b505050506040513d601f19601f82011682018060405250810190610c169190615b08565b610c4a576040805180820182526002815261413360f01b6020820152905162461bcd60e51b81526104ca91906004016157e0565b428311610c81576040805180820182526002815261543360f01b6020820152905162461bcd60e51b81526104ca91906004016157e0565b6000610c8d4285615b23565b60025460408051631c8c542360e11b815290519293506001600160a01b0390911691636dd5b69d918391633918a846916004808201926020929091908290030181865afa158015610ce2573d6000803e3d6000fd5b505050506040513d601f19601f82011682018060405250810190610d0691906157f3565b6040518263ffffffff1660e01b8152600401610d2491815260200190565b602060405180830381865afa158015610d41573d6000803e3d6000fd5b505050506040513d601f19601f82011682018060405250810190610d6591906157f3565b811080610e455750600254604080516358d0b14760e01b815290516001600160a01b0390921691636dd5b69d9183916358d0b147916004808201926020929091908290030181865afa158015610dbf573d6000803e3d6000fd5b505050506040513d601f19601f82011682018060405250810190610de391906157f3565b6040518263ffffffff1660e01b8152600401610e0191815260200190565b602060405180830381865afa158015610e1e573d6000803e3d6000fd5b505050506040513d601f19601f82011682018060405250810190610e4291906157f3565b81115b15610e7a576040805180820182526002815261493160f01b6020820152905162461bcd60e51b81526104ca91906004016157e0565b604051630a71571960e41b8152600481018590526001600160a01b0386166024820152600090309063a715719090604401602060405180830381865afa158015610ec8573d6000803e3d6000fd5b505050506040513d601f19601f82011682018060405250810190610eec91906157f3565b905080600003610f26576040805180820182526002815261150d60f21b6020820152905162461bcd60e51b81526104ca91906004016157e0565b80341015610f5e576040805180820182526002815261543560f01b6020820152905162461bcd60e51b81526104ca91906004016157e0565b600042338860056000815480929190610f769061584b565b909155506040805160208101959095526bffffffffffffffffffffffff19606094851b8116918601919091529190921b166054830152606882015260880160408051808303601f190181529082905280516020909101206000546315969bed60e11b83526001600160a01b038a81166004850152602484018390529193501690632b2d37da90604401600060405180830381600087803b15801561101957600080fd5b505af115801561102d573d6000803e3d6000fd5b505050600082815260036020819052604082208054336001600160a01b0319918216178255600180830180549092166001600160a01b038e16179091554260028301559181018a90556006810180549194509160ff199091169083021790555034600782018190556009820180546001600160a01b0319166001600160a01b03898116918217909255604080518b81526020810194909452830152891690339084907feb31e9cc08e6aec1724c65bd618ab8709af006b0972f1a04bba0fe0b0192142e9060600160405180910390a450925050506111186001600080516020615f3383398151915255565b9392505050565b6111276136a3565b600080546001600160a01b0319166001600160a01b038316908117825560405190917fa323f9f93bbee02edb5e1034969f6ef41fb674527d2ea7e9271ad206435b58f491a250565b6111776151af565b600082815260046020818152604080842054845260038083529381902081516101c08101835281546001600160a01b0390811682526001830154169381019390935260028101549183019190915292830154606082015290820180549192916080840191906111e590615896565b80601f016020809104026020016040519081016040528092919081815260200182805461121190615896565b801561125e5780601f106112335761010080835404028352916020019161125e565b820191906000526020600020905b81548152906001019060200180831161124157829003601f168201915b50505091835250506005828101546020830152600683015460409092019160ff169081111561128f5761128f615456565b60058111156112a0576112a0615456565b8152602001600782015481526020016008820180546112be90615896565b80601f01602080910402602001604051908101604052809291908181526020018280546112ea90615896565b80156113375780601f1061130c57610100808354040283529160200191611337565b820191906000526020600020905b81548152906001019060200180831161131a57829003601f168201915b505050918352505060098201546001600160a01b03908116602080840191909152600a840154909116604080840191909152600b84018054825181850281018501909352808352606090940193919290919060009084015b8282101561147a576000848152602090819020604080516080810182526004860290920180548352600181015463ffffffff1693830193909352600283018054929392918401916113df90615896565b80601f016020809104026020016040519081016040528092919081815260200182805461140b90615896565b80156114585780601f1061142d57610100808354040283529160200191611458565b820191906000526020600020905b81548152906001019060200180831161143b57829003601f168201915b505050505081526020016003820154815250508152602001906001019061138f565b505050508152602001600c8201805461149290615896565b80601f01602080910402602001604051908101604052809291908181526020018280546114be90615896565b801561150b5780601f106114e05761010080835404028352916020019161150b565b820191906000526020600020905b8154815290600101906020018083116114ee57829003601f168201915b50505050508152602001600d820154815250509050919050565b60008381526003602052604090206002600682015460ff16600581111561154e5761154e615456565b146115835760408051808201825260028152612a1960f11b6020820152905162461bcd60e51b81526104ca91906004016157e0565b604080516101c08101825282546001600160a01b039081168252600184015416602082015260028301549181019190915260038201546060820152600482018054611918929184916080840191906115da90615896565b80601f016020809104026020016040519081016040528092919081815260200182805461160690615896565b80156116535780601f1061162857610100808354040283529160200191611653565b820191906000526020600020905b81548152906001019060200180831161163657829003601f168201915b50505091835250506005828101546020830152600683015460409092019160ff169081111561168457611684615456565b600581111561169557611695615456565b8152602001600782015481526020016008820180546116b390615896565b80601f01602080910402602001604051908101604052809291908181526020018280546116df90615896565b801561172c5780601f106117015761010080835404028352916020019161172c565b820191906000526020600020905b81548152906001019060200180831161170f57829003601f168201915b505050918352505060098201546001600160a01b03908116602080840191909152600a840154909116604080840191909152600b84018054825181850281018501909352808352606090940193919290919060009084015b8282101561186f576000848152602090819020604080516080810182526004860290920180548352600181015463ffffffff1693830193909352600283018054929392918401916117d490615896565b80601f016020809104026020016040519081016040528092919081815260200182805461180090615896565b801561184d5780601f106118225761010080835404028352916020019161184d565b820191906000526020600020905b81548152906001019060200180831161183057829003601f168201915b5050505050815260200160038201548152505081526020019060010190611784565b505050508152602001600c8201805461188790615896565b80601f01602080910402602001604051908101604052809291908181526020018280546118b390615896565b80156119005780601f106118d557610100808354040283529160200191611900565b820191906000526020600020905b8154815290600101906020018083116118e357829003601f168201915b50505050508152602001600d820154815250506136fe565b1561194d576040805180820182526002815261543960f01b6020820152905162461bcd60e51b81526104ca91906004016157e0565b6000546001820154604051630e70978b60e21b81526001600160a01b0391821660048201523360248201529116906339c25e2c90604401602060405180830381865afa1580156119a1573d6000803e3d6000fd5b505050506040513d601f19601f820116820180604052508101906119c59190615b08565b6119f957604080518082018252600281526104e360f41b6020820152905162461bcd60e51b81526104ca91906004016157e0565b60068101805460ff1916600517905560088101611a1783858361591b565b50600054600182015460405163069fa0a760e51b81526001600160a01b03918216600482015291169063d3f414e090602401600060405180830381600087803b158015611a6357600080fd5b505af1158015611a77573d6000803e3d6000fd5b505082546040513393506001600160a01b03909116915086907fc3087094b1ca79d1b0196cfe915c3153df5266eba37502790ddfc1e3532d355990611abf9088908890615b36565b60405180910390a450505050565b600081815260036020818152604080842081516101c08101835281546001600160a01b039081168252600183015416938101939093526002810154918301919091529182015460608201526004820180548493916080840191611b2f90615896565b80601f0160208091040260200160405190810160405280929190818152602001828054611b5b90615896565b8015611ba85780601f10611b7d57610100808354040283529160200191611ba8565b820191906000526020600020905b815481529060010190602001808311611b8b57829003601f168201915b50505091835250506005828101546020830152600683015460409092019160ff1690811115611bd957611bd9615456565b6005811115611bea57611bea615456565b815260200160078201548152602001600882018054611c0890615896565b80601f0160208091040260200160405190810160405280929190818152602001828054611c3490615896565b8015611c815780601f10611c5657610100808354040283529160200191611c81565b820191906000526020600020905b815481529060010190602001808311611c6457829003601f168201915b505050918352505060098201546001600160a01b03908116602080840191909152600a840154909116604080840191909152600b84018054825181850281018501909352808352606090940193919290919060009084015b82821015611dc4576000848152602090819020604080516080810182526004860290920180548352600181015463ffffffff169383019390935260028301805492939291840191611d2990615896565b80601f0160208091040260200160405190810160405280929190818152602001828054611d5590615896565b8015611da25780601f10611d7757610100808354040283529160200191611da2565b820191906000526020600020905b815481529060010190602001808311611d8557829003601f168201915b5050505050815260200160038201548152505081526020019060010190611cd9565b505050508152602001600c82018054611ddc90615896565b80601f0160208091040260200160405190810160405280929190818152602001828054611e0890615896565b8015611e555780601f10611e2a57610100808354040283529160200191611e55565b820191906000526020600020905b815481529060010190602001808311611e3857829003601f168201915b5050509183525050600d9190910154602090910152905060008160c001516005811115611e8457611e84615456565b03611e925750600192915050565b60028160c001516005811115611eaa57611eaa615456565b03611ecb57611eb8816136fe565b15611ec65750600192915050565b611ef1565b60058160c001516005811115611ee357611ee3615456565b03611ef15750600192915050565b50600092915050565b6003602081905260009182526040909120805460018201546002830154938301546004840180546001600160a01b039485169694909316949192611f3d90615896565b80601f0160208091040260200160405190810160405280929190818152602001828054611f6990615896565b8015611fb65780601f10611f8b57610100808354040283529160200191611fb6565b820191906000526020600020905b815481529060010190602001808311611f9957829003601f168201915b5050506005840154600685015460078601546008870180549697939660ff909316955090935090611fe690615896565b80601f016020809104026020016040519081016040528092919081815260200182805461201290615896565b801561205f5780601f106120345761010080835404028352916020019161205f565b820191906000526020600020905b81548152906001019060200180831161204257829003601f168201915b5050506009840154600a850154600c8601805495966001600160a01b039384169692909316945091925061209290615896565b80601f01602080910402602001604051908101604052809291908181526020018280546120be90615896565b801561210b5780601f106120e05761010080835404028352916020019161210b565b820191906000526020600020905b8154815290600101906020018083116120ee57829003601f168201915b50505050509080600d015490508d565b6121236136a3565b61212d600061379e565b565b60065460009081906001600160a01b031633146121765760408051808201825260028152614e3760f01b6020820152905162461bcd60e51b81526104ca91906004016157e0565b60008381526003602052604090206005600682015460ff16600581111561219f5761219f615456565b146121d45760408051808201825260028152612a1960f11b6020820152905162461bcd60e51b81526104ca91906004016157e0565b6000546001820154604051632911125160e01b81526001600160a01b039182166004820152911690632911125190602401602060405180830381865afa158015612222573d6000803e3d6000fd5b505050506040513d601f19601f820116820180604052508101906122469190615b08565b1561227b576040805180820182526002815261209b60f11b6020820152905162461bcd60e51b81526104ca91906004016157e0565b612285848261380f565b9250925050915091565b60008181526003602052604090819020905163520936b560e01b815260048101839052309063520936b590602401602060405180830381865afa1580156122da573d6000803e3d6000fd5b505050506040513d601f19601f820116820180604052508101906122fe9190615b08565b6123325760408051808201825260028152610a8760f31b6020820152905162461bcd60e51b81526104ca91906004016157e0565b80546001600160a01b0316331461237357604080518082018252600281526104e360f41b6020820152905162461bcd60e51b81526104ca91906004016157e0565b61237d828261380f565b50505050565b60008042841161239457600061239e565b61239e4285615b23565b60025460408051631c8c542360e11b815290519293506001600160a01b0390911691636dd5b69d918391633918a846916004808201926020929091908290030181865afa1580156123f3573d6000803e3d6000fd5b505050506040513d601f19601f8201168201806040525081019061241791906157f3565b6040518263ffffffff1660e01b815260040161243591815260200190565b602060405180830381865afa158015612452573d6000803e3d6000fd5b505050506040513d601f19601f8201168201806040525081019061247691906157f3565b8110806125565750600254604080516358d0b14760e01b815290516001600160a01b0390921691636dd5b69d9183916358d0b147916004808201926020929091908290030181865afa1580156124d0573d6000803e3d6000fd5b505050506040513d601f19601f820116820180604052508101906124f491906157f3565b6040518263ffffffff1660e01b815260040161251291815260200190565b602060405180830381865afa15801561252f573d6000803e3d6000fd5b505050506040513d601f19601f8201168201806040525081019061255391906157f3565b81115b1561258b576040805180820182526002815261493160f01b6020820152905162461bcd60e51b81526104ca91906004016157e0565b6001600160a01b0383166125c957604080518082018252600281526105a360f41b6020820152905162461bcd60e51b81526104ca91906004016157e0565b600080546040516326415b0f60e21b81526001600160a01b038681166004830152909116906399056c3c90602401600060405180830381865afa158015612614573d6000803e3d6000fd5b505050506040513d6000823e601f3d908101601f1916820160405261263c9190810190615c98565b905061264d84826040015184613c71565b925050505b92915050565b6126606151af565b60008281526003602081815260409283902083516101c08101855281546001600160a01b039081168252600183015416928101929092526002810154938201939093529082015460608201526004820180549192916080840191906126c490615896565b80601f01602080910402602001604051908101604052809291908181526020018280546126f090615896565b801561273d5780601f106127125761010080835404028352916020019161273d565b820191906000526020600020905b81548152906001019060200180831161272057829003601f168201915b50505091835250506005828101546020830152600683015460409092019160ff169081111561276e5761276e615456565b600581111561277f5761277f615456565b81526020016007820154815260200160088201805461279d90615896565b80601f01602080910402602001604051908101604052809291908181526020018280546127c990615896565b80156128165780601f106127eb57610100808354040283529160200191612816565b820191906000526020600020905b8154815290600101906020018083116127f957829003601f168201915b505050918352505060098201546001600160a01b03908116602080840191909152600a840154909116604080840191909152600b84018054825181850281018501909352808352606090940193919290919060009084015b8282101561147a576000848152602090819020604080516080810182526004860290920180548352600181015463ffffffff1693830193909352600283018054929392918401916128be90615896565b80601f01602080910402602001604051908101604052809291908181526020018280546128ea90615896565b80156129375780601f1061290c57610100808354040283529160200191612937565b820191906000526020600020905b81548152906001019060200180831161291a57829003601f168201915b505050505081526020016003820154815250508152602001906001019061286e565b6006546001600160a01b0316331461299b5760408051808201825260028152614e3760f01b6020820152905162461bcd60e51b81526104ca91906004016157e0565b60008281526003602052604090206001600682015460ff1660058111156129c4576129c4615456565b036129f95760408051808201825260028152612a1960f11b6020820152905162461bcd60e51b81526104ca91906004016157e0565b6001600160a01b038216612a3757604080518082018252600281526105a360f41b6020820152905162461bcd60e51b81526104ca91906004016157e0565b60068101805460ff1916600117905560078101546040516000916001600160a01b038516918381818185875af1925050503d8060008114612a94576040519150601f19603f3d011682016040523d82523d6000602084013e612a99565b606091505b5050905080612ad2576040805180820182526002815261463160f01b6020820152905162461bcd60e51b81526104ca91906004016157e0565b600054600183015460405163cedb588b60e01b81526001600160a01b0391821660048201526024810187905291169063cedb588b90604401600060405180830381600087803b158015612b2457600080fd5b505af1158015612b38573d6000803e3d6000fd5b505083546040516001600160a01b0390911692508691507f15d1e788ed875e6f2294a51087aa5cd2e2c10c92e627eb0a6bbbfceceaa01b9890600090a350505050565b612b836136a3565b6001600160a01b038116612bad57604051631e4fbdf760e01b8152600060048201526024016104ca565b612bb68161379e565b50565b7ff0c57e16840df040f15088dc2f81fe391c3923bec73e23a9662efc9c229c6a008054600160401b810460ff1615906001600160401b0316600081158015612bfe5750825b90506000826001600160401b03166001148015612c1a5750303b155b905081158015612c28575080155b15612c465760405163f92ee8a960e01b815260040160405180910390fd5b845467ffffffffffffffff191660011785558315612c7057845460ff60401b1916600160401b1785555b612c78613d1a565b612c8133613d2a565b6001600160a01b0389161580612c9e57506001600160a01b038816155b80612cb057506001600160a01b038716155b80612cc257506001600160a01b038616155b15612cf757604080518082018252600281526105a360f41b6020820152905162461bcd60e51b81526104ca91906004016157e0565b600080546001600160a01b03808c166001600160a01b031992831617909255600180548b8416908316179055600280548a841690831617905560068054928916929091169190911790558315612d8757845460ff60401b19168555604051600181527fc7f505b2f371ae2175ee4913f4499e1f2633a7b5936321eed1cdaeb6115181d29060200160405180910390a15b505050505050505050565b600080516020615f33833981519152805460011901612dc457604051633ee5aeb560e01b815260040160405180910390fd5b60029055565b6040805160a081018252600080825260606020830181905292820183905291810182905260808101829052908280612e03600484615822565b1115612e39576040805180820182526002815261543760f01b6020820152905162461bcd60e51b81526104ca91906004016157e0565b612e7a85858080601f016020809104026020016040519081016040528093929190818152602001838380828437600092019190915250869250613d3b915050565b63ffffffff168352612e8d600483615822565b9150600080612e9d878786613e24565b811515608088015294509150839050600080612eba898985613eb7565b6020890182905296509150859050600080612ed68b8b85613faf565b60408b01829052985091508790508515612efa57612ef78b8b8a875161408f565b97505b86612f06896004615822565b1115612f3c576040805180820182526002815261543760f01b6020820152905162461bcd60e51b81526104ca91906004016157e0565b8a888b612f4a826004615822565b92612f5793929190615e40565b612f6091615e6a565b60e01c60608a0152612f73600489615822565b9750868814612fac576040805180820182526002815261543760f01b6020820152905162461bcd60e51b81526104ca91906004016157e0565b505050505050505092915050565b6060600060049050612fd0836020015151614122565b612fda9082615822565b905060005b83602001515181101561301857612ff7602883615822565b9150613004600183615822565b9150806130108161584b565b915050612fdf565b50613027836040015151614122565b6130319082615822565b905060005b8360400151518110156130c95761304e600883615822565b915061307b8460400151828151811061306957613069615835565b60200260200101516020015151614122565b6130859083615822565b91508360400151818151811061309d5761309d615835565b60200260200101516020015151826130b59190615822565b9150806130c18161584b565b915050613036565b506130d5600482615822565b90506000816001600160401b038111156130f1576130f1615880565b6040519080825280601f01601f19166020018201604052801561311b576020820181803683370190505b50845190915060009060e01b815b6004811015613196578161313e826003615b23565b6004811061314e5761314e615835565b1a60f81b8461315d8386615822565b8151811061316d5761316d615835565b60200101906001600160f81b031916908160001a9053508061318e8161584b565b915050613129565b506131a2600483615822565b91506131b48660200151518484614166565b6131be9083615822565b915060005b86602001515181101561340f5760005b602081101561326357876020015182815181106131f2576131f2615835565b60200260200101516000015181601f61320b9190615b23565b6020811061321b5761321b615835565b1a60f81b8561322a8387615822565b8151811061323a5761323a615835565b60200101906001600160f81b031916908160001a9053508061325b8161584b565b9150506131d3565b5061326f602084615822565b925060008760200151828151811061328957613289615835565b60200260200101516020015160e01b905060005b600481101561330a57816132b2826003615b23565b600481106132c2576132c2615835565b1a60f81b866132d18388615822565b815181106132e1576132e1615835565b60200101906001600160f81b031916908160001a905350806133028161584b565b91505061329d565b50613316600485615822565b9350600060f81b85858151811061332f5761332f615835565b60200101906001600160f81b031916908160001a905350613351600185615822565b935060008860200151838151811061336b5761336b615835565b60200260200101516060015160e01b905060005b60048110156133ec5781613394826003615b23565b600481106133a4576133a4615835565b1a60f81b876133b38389615822565b815181106133c3576133c3615835565b60200101906001600160f81b031916908160001a905350806133e48161584b565b91505061337f565b506133f8600486615822565b9450505080806134079061584b565b9150506131c3565b506134208660400151518484614166565b61342a9083615822565b915060005b8660400151518110156136145760008760400151828151811061345457613454615835565b60200260200101516000015160c01b905060005b60088110156134d5578161347d826007615b23565b6008811061348d5761348d615835565b1a60f81b8661349c8388615822565b815181106134ac576134ac615835565b60200101906001600160f81b031916908160001a905350806134cd8161584b565b915050613468565b506134e1600885615822565b9350613510886040015183815181106134fc576134fc615835565b602002602001015160200151518686614166565b61351a9085615822565b935060005b8860400151838151811061353557613535615835565b602002602001015160200151518110156135cf578860400151838151811061355f5761355f615835565b602002602001015160200151818151811061357c5761357c615835565b01602001516001600160f81b031916866135968388615822565b815181106135a6576135a6615835565b60200101906001600160f81b031916908160001a905350806135c78161584b565b91505061351f565b50876040015182815181106135e6576135e6615835565b60200260200101516020015151846135fe9190615822565b935050808061360c9061584b565b91505061342f565b50606086015160e01b60005b60048110156136835781816004811061363b5761363b615835565b1a60f81b8561364a8387615822565b8151811061365a5761365a615835565b60200101906001600160f81b031916908160001a9053508061367b8161584b565b915050613620565b50929695505050505050565b6001600080516020615f3383398151915255565b336136d57f9016d09d72d40fdae2fd8ceac6b6234c7706214fd39c1cd1e609a0528c199300546001600160a01b031690565b6001600160a01b03161461212d5760405163118cdaa760e01b81523360048201526024016104ca565b6000816060015142111561371457506001919050565b60025460408051632b6f600d60e01b815290516000926001600160a01b031691632b6f600d9160048083019260209291908290030181865afa15801561375e573d6000803e3d6000fd5b505050506040513d601f19601f8201168201806040525081019061378291906157f3565b905080836101a001516137959190615822565b42119392505050565b7f9016d09d72d40fdae2fd8ceac6b6234c7706214fd39c1cd1e609a0528c19930080546001600160a01b031981166001600160a01b03848116918217845560405192169182907f8be0079c531659141344cd1fd0a4f28419497f9722a3daafe3b4186f6b6457e090600090a3505050565b604080516101c08101825282546001600160a01b039081168252600184015416602082015260028301549181019190915260038201546060820152600482018054600092839283928392613bad9290918891608084019161386f90615896565b80601f016020809104026020016040519081016040528092919081815260200182805461389b90615896565b80156138e85780601f106138bd576101008083540402835291602001916138e8565b820191906000526020600020905b8154815290600101906020018083116138cb57829003601f168201915b50505091835250506005828101546020830152600683015460409092019160ff169081111561391957613919615456565b600581111561392a5761392a615456565b81526020016007820154815260200160088201805461394890615896565b80601f016020809104026020016040519081016040528092919081815260200182805461397490615896565b80156139c15780601f10613996576101008083540402835291602001916139c1565b820191906000526020600020905b8154815290600101906020018083116139a457829003601f168201915b505050918352505060098201546001600160a01b03908116602080840191909152600a840154909116604080840191909152600b84018054825181850281018501909352808352606090940193919290919060009084015b82821015613b04576000848152602090819020604080516080810182526004860290920180548352600181015463ffffffff169383019390935260028301805492939291840191613a6990615896565b80601f0160208091040260200160405190810160405280929190818152602001828054613a9590615896565b8015613ae25780601f10613ab757610100808354040283529160200191613ae2565b820191906000526020600020905b815481529060010190602001808311613ac557829003601f168201915b5050505050815260200160038201548152505081526020019060010190613a19565b505050508152602001600c82018054613b1c90615896565b80601f0160208091040260200160405190810160405280929190818152602001828054613b4890615896565b8015613b955780601f10613b6a57610100808354040283529160200191613b95565b820191906000526020600020905b815481529060010190602001808311613b7857829003601f168201915b50505050508152602001600d820154815250506143e0565b600054600188015460405163cedb588b60e01b81526001600160a01b039182166004820152602481018b9052939550919350169063cedb588b90604401600060405180830381600087803b158015613c0457600080fd5b505af1158015613c18573d6000803e3d6000fd5b5050505060068501805460ff1916600117905584546040516001600160a01b039091169087907f15d1e788ed875e6f2294a51087aa5cd2e2c10c92e627eb0a6bbbfceceaa01b9890600090a390925090505b9250929050565b6000805460405163014f6b1960e41b81526001600160a01b038681166004830152839216906314f6b19090602401602060405180830381865afa158015613cbc573d6000803e3d6000fd5b505050506040513d601f19601f82011682018060405250810190613ce091906157f3565b9050613cf26127106301e13380615e9a565b84613cfd8584615e9a565b613d079190615e9a565b613d119190615eb1565b95945050505050565b613d2261480b565b61212d614854565b613d3261480b565b612bb68161485c565b8151600090613d4b836004615822565b111560405180604001604052806002815260200161553560f01b81525090613d865760405162461bcd60e51b81526004016104ca91906157e0565b50828281518110613d9957613d99615835565b016020015160f81c600884613daf856001615822565b81518110613dbf57613dbf615835565b016020015160f81c901b601085613dd7866002615822565b81518110613de757613de7615835565b016020015160f81c901b601886613dff876003615822565b81518110613e0f57613e0f615835565b016020015160f81c901b171717905092915050565b60008183613e33826002615822565b11613eaf576000858585818110613e4c57613e4c615835565b919091013560f81c9150600090508686613e67876001615822565b818110613e7657613e76615835565b919091013560f81c91505060ff8216158015613e95575060ff81166001145b15613eac5760019350613ea9600284615822565b92505b50505b935093915050565b60606000806000613ec9878787614864565b9092509050613ed88186615822565b9250816001600160401b03811115613ef257613ef2615880565b604051908082528060200260200182016040528015613f4557816020015b60408051608081018252600080825260208083018290526060938301849052928201528252600019909201910181613f105790505b50935060005b82811015613fa457600080613f618a8a88614ad0565b9150915081878481518110613f7857613f78615835565b6020908102919091010152613f8d8187615822565b955050508080613f9c9061584b565b915050613f4b565b505050935093915050565b60606000806000613fc1878787614864565b9092509050613fd08186615822565b9250816001600160401b03811115613fea57613fea615880565b60405190808252806020026020018201604052801561403057816020015b6040805180820190915260008152606060208201528152602001906001900390816140085790505b50935060005b82811015613fa45760008061404c8a8a88614d84565b915091508187848151811061406357614063615835565b60209081029190910101526140788187615822565b9550505080806140879061584b565b915050614036565b8160005b82811015614119576000806140a9888886614864565b90925090506140b88185615822565b935060005b82811015614103576000806140d38b8b89614864565b90925090506140e28282615822565b6140ec9088615822565b9650505080806140fb9061584b565b9150506140bd565b50505080806141119061584b565b915050614093565b50949350505050565b600060fc82101561413557506001919050565b61ffff821161414657506003919050565b63ffffffff821161415957506005919050565b506009919050565b919050565b600060fc8410156141a7578360f81b83838151811061418757614187615835565b60200101906001600160f81b031916908160001a90535060019050611118565b61ffff84116142615760fd60f81b8383815181106141c7576141c7615835565b60200101906001600160f81b031916908160001a90535060f084901b8060011a60f81b846141f6856001615822565b8151811061420657614206615835565b60200101906001600160f81b031916908160001a9053508060001a60f81b84614230856002615822565b8151811061424057614240615835565b60200101906001600160f81b031916908160001a9053506003915050611118565b63ffffffff84116143265760fe60f81b83838151811061428357614283615835565b60200101906001600160f81b031916908160001a90535060e084901b60005b600481101561431b57816142b7826003615b23565b600481106142c7576142c7615835565b1a60f81b85826142d8876001615822565b6142e29190615822565b815181106142f2576142f2615835565b60200101906001600160f81b031916908160001a905350806143138161584b565b9150506142a2565b506005915050611118565b60ff60f81b83838151811061433d5761433d615835565b60200101906001600160f81b031916908160001a90535060c084901b60005b60088110156143d55781614371826007615b23565b6008811061438157614381615835565b1a60f81b8582614392876001615822565b61439c9190615822565b815181106143ac576143ac615835565b60200101906001600160f81b031916908160001a905350806143cd8161584b565b91505061435c565b506009915050611118565b6000805460208301516040516326415b0f60e21b81526001600160a01b0391821660048201528392839216906399056c3c90602401600060405180830381865afa158015614432573d6000803e3d6000fd5b505050506040513d6000823e601f3d908101601f1916820160405261445a9190810190615c98565b905060008460600151421161447d5760408501516144789042615b23565b614491565b846040015185606001516144919190615b23565b905060006144a88660200151846040015184613c71565b90508560e001518111156144bd575060e08501515b6002546040805163286e9cd160e21b81529051600092612710926001600160a01b0390911691636dd5b69d91839163a1ba7344916004808201926020929091908290030181865afa158015614516573d6000803e3d6000fd5b505050506040513d601f19601f8201168201806040525081019061453a91906157f3565b6040518263ffffffff1660e01b815260040161455891815260200190565b602060405180830381865afa158015614575573d6000803e3d6000fd5b505050506040513d601f19601f8201168201806040525081019061459991906157f3565b6145a39084615e9a565b6145ad9190615eb1565b905060006145bb8284615b23565b90506000600260009054906101000a90046001600160a01b03166001600160a01b0316638b6570a06040518163ffffffff1660e01b8152600401602060405180830381865afa158015614612573d6000803e3d6000fd5b505050506040513d601f19601f820116820180604052508101906146369190615ed3565b90506000816001600160a01b03168460405160006040518083038185875af1925050503d8060008114614685576040519150601f19603f3d011682016040523d82523d6000602084013e61468a565b606091505b50509050806146c3576040805180820182526002815261463160f01b6020820152905162461bcd60e51b81526104ca91906004016157e0565b6000876101c001516001600160a01b03168460405160006040518083038185875af1925050503d8060008114614715576040519150601f19603f3d011682016040523d82523d6000602084013e61471a565b606091505b5050905080614753576040805180820182526002815261463160f01b6020820152905162461bcd60e51b81526104ca91906004016157e0565b6000868c60e001516147659190615b23565b905080156147f9578b516040516000916001600160a01b03169083908381818185875af1925050503d80600081146147b9576040519150601f19603f3d011682016040523d82523d6000602084013e6147be565b606091505b50509050806147f7576040805180820182526002815261271b60f11b6020820152905162461bcd60e51b81526104ca91906004016157e0565b505b50929a93995092975050505050505050565b7ff0c57e16840df040f15088dc2f81fe391c3923bec73e23a9662efc9c229c6a0054600160401b900460ff1661212d57604051631afcd79f60e31b815260040160405180910390fd5b61368f61480b565b612b8361480b565b60008083831061489e576040805180820182526002815261543760f01b6020820152905162461bcd60e51b81526104ca91906004016157e0565b60008585858181106148b2576148b2615835565b919091013560f81c91505060fc8110156148d45760ff16915060019050613eaf565b60fc1960ff82160161497f57846148ec856003615822565b1115614922576040805180820182526002815261543760f01b6020820152905162461bcd60e51b81526104ca91906004016157e0565b61496e86868080601f016020809104026020016040519081016040528093929190818152602001838380828437600092019190915250614969925088915060019050615822565b614ef4565b61ffff16925060039150613eaf9050565b60fd1960ff821601614a2c5784614997856005615822565b11156149cd576040805180820182526002815261543760f01b6020820152905162461bcd60e51b81526104ca91906004016157e0565b614a1986868080601f016020809104026020016040519081016040528093929190818152602001838380828437600092019190915250614a14925088915060019050615822565b613d3b565b63ffffffff16925060059150613eaf9050565b84614a38856009615822565b1115614a6e576040805180820182526002815261543760f01b6020820152905162461bcd60e51b81526104ca91906004016157e0565b614aba86868080601f016020809104026020016040519081016040528093929190818152602001838380828437600092019190915250614ab5925088915060019050615822565b614f8b565b6001600160401b0316925060099150613eaf9050565b6040805160808101825260008082526020820181905260609282018390529181019190915260008284614b04826020615822565b1115614b3a576040805180820182526002815261543760f01b6020820152905162461bcd60e51b81526104ca91906004016157e0565b614b66868587614b4b826020615822565b92614b5893929190615e40565b614b6191615ef0565b61511a565b8352614b73602085615822565b935084614b81856004615822565b1115614bb7576040805180820182526002815261543760f01b6020820152905162461bcd60e51b81526104ca91906004016157e0565b614bf886868080601f016020809104026020016040519081016040528093929190818152602001838380828437600092019190915250889250613d3b915050565b63ffffffff166020840152614c0e600485615822565b9350600080614c1e888888614864565b9092509050614c2d8187615822565b955086614c3a8388615822565b1115614c70576040805180820182526002815261543760f01b6020820152905162461bcd60e51b81526104ca91906004016157e0565b878688614c7d8583615822565b92614c8a93929190615e40565b8080601f0160208091040260200160405190810160405280939291908181526020018383808284376000920191909152505050506040860152614ccd8287615822565b955086614cdb876004615822565b1115614d11576040805180820182526002815261543760f01b6020820152905162461bcd60e51b81526104ca91906004016157e0565b614d5288888080601f0160208091040260200160405190810160405280939291908181526020018383808284376000920191909152508a9250613d3b915050565b63ffffffff166060860152614d68600487615822565b955084614d758488615b23565b94509450505050935093915050565b60408051808201909152600081526060602082015260008284614da8826008615822565b1115614dde576040805180820182526002815261543760f01b6020820152905162461bcd60e51b81526104ca91906004016157e0565b614e1f86868080601f016020809104026020016040519081016040528093929190818152602001838380828437600092019190915250889250614f8b915050565b6001600160401b03168352614e35600885615822565b9350600080614e45888888614864565b9092509050614e548187615822565b955086614e618388615822565b1115614e97576040805180820182526002815261543760f01b6020820152905162461bcd60e51b81526104ca91906004016157e0565b878688614ea48583615822565b92614eb193929190615e40565b8080601f0160208091040260200160405190810160405280939291908181526020018383808284376000920191909152505050506020860152614d688287615822565b8151600090614f04836002615822565b111560405180604001604052806002815260200161154d60f21b81525090614f3f5760405162461bcd60e51b81526004016104ca91906157e0565b50828281518110614f5257614f52615835565b016020015160f81c600884614f68856001615822565b81518110614f7857614f78615835565b016020015160f81c901b17905092915050565b8151600090614f9b836008615822565b1115604051806040016040528060028152602001612a9b60f11b81525090614fd65760405162461bcd60e51b81526004016104ca91906157e0565b50828281518110614fe957614fe9615835565b016020015160f81c600884614fff856001615822565b8151811061500f5761500f615835565b016020015160f81c901b601085615027866002615822565b8151811061503757615037615835565b016020015160f81c901b60188661504f876003615822565b8151811061505f5761505f615835565b0160209081015160f81c90911b9087615079886004615822565b8151811061508957615089615835565b016020015160f81c901b6028886150a1896005615822565b815181106150b1576150b1615835565b016020015160f81c901b6030896150c98a6006615822565b815181106150d9576150d9615835565b016020015160f81c901b60388a6150f18b6007615822565b8151811061510157615101615835565b016020015160f81c901b17171717171717905092915050565b60408051602080825281830190925260009182919060208201818036833701905050905060005b60208110156151a5578361515682601f615b23565b6020811061516657615166615835565b1a60f81b82828151811061517c5761517c615835565b60200101906001600160f81b031916908160001a9053508061519d8161584b565b915050615141565b5061111881615f0e565b604080516101c0810182526000808252602082018190529181018290526060808201839052608082015260a081018290529060c08201908152602001600081526020016060815260200160006001600160a01b0316815260200160006001600160a01b031681526020016060815260200160608152602001600081525090565b60008083601f84011261524157600080fd5b5081356001600160401b0381111561525857600080fd5b602083019150836020828501011115613c6a57600080fd5b6001600160a01b0381168114612bb657600080fd5b6000806000806000806080878903121561529e57600080fd5b8635955060208701356001600160401b03808211156152bc57600080fd5b6152c88a838b0161522f565b909750955060408901359150808211156152e157600080fd5b506152ee89828a0161522f565b909450925050606087013561530281615270565b809150509295509295509295565b60008060006040848603121561532557600080fd5b8335925060208401356001600160401b038082111561534357600080fd5b818601915086601f83011261535757600080fd5b81358181111561536657600080fd5b8760208260051b850101111561537b57600080fd5b6020830194508093505050509250925092565b6000806000606084860312156153a357600080fd5b83356153ae81615270565b92506020840135915060408401356153c581615270565b809150509250925092565b6000602082840312156153e257600080fd5b813561111881615270565b6000602082840312156153ff57600080fd5b5035919050565b60005b83811015615421578181015183820152602001615409565b50506000910152565b60008151808452615442816020860160208601615406565b601f01601f19169290920160200192915050565b634e487b7160e01b600052602160045260246000fd5b6006811061548a57634e487b7160e01b600052602160045260246000fd5b9052565b600081518084526020808501808196508360051b8101915082860160005b85811015615508578284038952815160808151865263ffffffff87830151168787015260408083015182828901526154e68389018261542a565b60609485015198909401979097525050988501989350908401906001016154ac565b5091979650505050505050565b6020815261552f6020820183516001600160a01b03169052565b6000602083015161554b60408401826001600160a01b03169052565b50604083015160608301526060830151608083015260808301516101c08060a085015261557c6101e085018361542a565b915060a085015160c085015260c085015161559a60e086018261546c565b5060e0850151610100818187015280870151915050601f196101208187860301818801526155c8858461542a565b9450808801519250506101406155e8818801846001600160a01b03169052565b8701519150610160615604878201846001600160a01b03169052565b80880151925050610180818786030181880152615621858461548e565b9450808801519250506101a0818786030181880152615640858461542a565b970151959092019490945250929392505050565b60008060006040848603121561566957600080fd5b8335925060208401356001600160401b0381111561568657600080fd5b6156928682870161522f565b9497909650939450505050565b6001600160a01b038e811682528d1660208201528b60408201528a60608201526101a0608082015260006156d76101a083018c61542a565b8a60a08401526156ea60c084018b61546c565b8860e0840152828103610100840152615703818961542a565b6001600160a01b03881661012085015290506001600160a01b038616610140840152828103610160840152615738818661542a565b915050826101808301529e9d5050505050505050505050505050565b6000806040838503121561576757600080fd5b82359150602083013561577981615270565b809150509250929050565b6000806000806080858703121561579a57600080fd5b84356157a581615270565b935060208501356157b581615270565b925060408501356157c581615270565b915060608501356157d581615270565b939692955090935050565b602081526000611118602083018461542a565b60006020828403121561580557600080fd5b5051919050565b634e487b7160e01b600052601160045260246000fd5b808201808211156126525761265261580c565b634e487b7160e01b600052603260045260246000fd5b60006001820161585d5761585d61580c565b5060010190565b60008251615876818460208701615406565b9190910192915050565b634e487b7160e01b600052604160045260246000fd5b600181811c908216806158aa57607f821691505b6020821081036158ca57634e487b7160e01b600052602260045260246000fd5b50919050565b601f82111561591657600081815260208120601f850160051c810160208610156158f75750805b601f850160051c820191505b818110156108f557828155600101615903565b505050565b6001600160401b0383111561593257615932615880565b615946836159408354615896565b836158d0565b6000601f84116001811461597a57600085156159625750838201355b600019600387901b1c1916600186901b1783556159d4565b600083815260209020601f19861690835b828110156159ab578685013582556020948501946001909201910161598b565b50868210156159c85760001960f88860031b161c19848701351681555b505060018560011b0183555b5050505050565b81835281816020850137506000828201602090810191909152601f909101601f19169091010190565b600060018060a01b03808916835260806020840152615a2760808401888a6159db565b8381036040850152615a3a8187896159db565b925050808416606084015250979650505050505050565b60008235607e1983360301811261587657600080fd5b8135815560018101602083013563ffffffff8116808214615a8757600080fd5b825463ffffffff19161790915550604082013536839003601e19018112615aad57600080fd5b820180356001600160401b03811115615ac557600080fd5b602082019150803603821315615ada57600080fd5b615ae881836002860161591b565b5050606082013560038201555050565b8051801515811461416157600080fd5b600060208284031215615b1a57600080fd5b61111882615af8565b818103818111156126525761265261580c565b602081526000615b4a6020830184866159db565b949350505050565b60405161020081016001600160401b0381118282101715615b7557615b75615880565b60405290565b604051601f8201601f191681016001600160401b0381118282101715615ba357615ba3615880565b604052919050565b805161416181615270565b600082601f830112615bc757600080fd5b815160206001600160401b03821115615be257615be2615880565b8160051b615bf1828201615b7b565b9283528481018201928281019087851115615c0b57600080fd5b83870192505b84831015615c2a57825182529183019190830190615c11565b979650505050505050565b600082601f830112615c4657600080fd5b81516001600160401b03811115615c5f57615c5f615880565b615c72601f8201601f1916602001615b7b565b818152846020838601011115615c8757600080fd5b615b4a826020830160208701615406565b600060208284031215615caa57600080fd5b81516001600160401b0380821115615cc157600080fd5b908301906102008286031215615cd657600080fd5b615cde615b52565b615ce783615bab565b8152615cf560208401615af8565b6020820152604083015160408201526060830151606082015260808301516080820152615d2460a08401615bab565b60a0820152615d3560c08401615bab565b60c082015260e083015182811115615d4c57600080fd5b615d5887828601615bb6565b60e083015250610100615d6c818501615bab565b908201526101208381015183811115615d8457600080fd5b615d9088828701615c35565b8284015250506101408084015183811115615daa57600080fd5b615db688828701615c35565b8284015250506101608084015181830152506101808084015183811115615ddc57600080fd5b615de888828701615c35565b8284015250506101a08084015183811115615e0257600080fd5b615e0e88828701615c35565b8284015250506101c09150615e24828401615bab565b918101919091526101e091820151918101919091529392505050565b60008085851115615e5057600080fd5b83861115615e5d57600080fd5b5050820193919092039150565b6001600160e01b03198135818116916004851015615e925780818660040360031b1b83161692505b505092915050565b80820281158282048414176126525761265261580c565b600082615ece57634e487b7160e01b600052601260045260246000fd5b500490565b600060208284031215615ee557600080fd5b815161111881615270565b8035602083101561265257600019602084900360031b1b1692915050565b805160208083015191908110156158ca5760001960209190910360031b1b1691905056fe9b779b17422d0df92223018b32b4d1fa46e071723d6817e2486d003becc55f00a2646970667358221220a7e34c2606054a0acb32dab7117b2ac649479ca8eb7d82c76e8bd3fd3b4389e664736f6c63430008140033",
  "linkReferences": {},
  "deployedLinkReferences": {}
}