{
  "_format": "hh-sol-artifact-1",
  "contractName": "TransactionManager",
  "sourceName": "contracts/core/TransactionManager.sol",
  "abi": [
    {
      "inputs": [],
      "stateMutability": "nonpayable",
      "type": "constructor"
    },
    {
      "inputs": [],
      "name": "InvalidInitialization",
      "type": "error"
    },
    {
      "inputs": [],
      "name": "NotInitializing",
      "type": "error"
    },
    {
      "inputs": [
        {
          "internalType": "address",
          "name": "owner",
          "type": "address"
        }
      ],
      "name": "OwnableInvalidOwner",
      "type": "error"
    },
    {
      "inputs": [
        {
          "internalType": "address",
          "name": "account",
          "type": "address"
        }
      ],
      "name": "OwnableUnauthorizedAccount",
      "type": "error"
    },
    {
      "inputs": [],
      "name": "ReentrancyGuardReentrantCall",
      "type": "error"
    },
    {
      "anonymous": false,
      "inputs": [
        {
          "indexed": true,
          "internalType": "address",
          "name": "dapp",
          "type": "address"
        },
        {
          "indexed": true,
          "internalType": "bytes32",
          "name": "txId",
          "type": "bytes32"
        }
      ],
      "name": "ArbitrationRequested",
      "type": "event"
    },
    {
      "anonymous": false,
      "inputs": [
        {
          "indexed": true,
          "internalType": "address",
          "name": "dapp",
          "type": "address"
        },
        {
          "indexed": true,
          "internalType": "bytes32",
          "name": "txId",
          "type": "bytes32"
        }
      ],
      "name": "ArbitrationSubmitted",
      "type": "event"
    },
    {
      "anonymous": false,
      "inputs": [
        {
          "indexed": true,
          "internalType": "address",
          "name": "compensationManager",
          "type": "address"
        }
      ],
      "name": "CompensationManagerInitialized",
      "type": "event"
    },
    {
      "anonymous": false,
      "inputs": [
        {
          "indexed": false,
          "internalType": "uint64",
          "name": "version",
          "type": "uint64"
        }
      ],
      "name": "Initialized",
      "type": "event"
    },
    {
      "anonymous": false,
      "inputs": [
        {
          "indexed": true,
          "internalType": "address",
          "name": "previousOwner",
          "type": "address"
        },
        {
          "indexed": true,
          "internalType": "address",
          "name": "newOwner",
          "type": "address"
        }
      ],
      "name": "OwnershipTransferred",
      "type": "event"
    },
    {
      "anonymous": false,
      "inputs": [
        {
          "indexed": true,
          "internalType": "address",
          "name": "arbitratorManager",
          "type": "address"
        }
      ],
      "name": "SetArbitratorManager",
      "type": "event"
    },
    {
      "anonymous": false,
      "inputs": [
        {
          "indexed": true,
          "internalType": "bytes32",
          "name": "id",
          "type": "bytes32"
        }
      ],
      "name": "TransactionCancelled",
      "type": "event"
    },
    {
      "anonymous": false,
      "inputs": [
        {
          "indexed": true,
          "internalType": "address",
          "name": "dapp",
          "type": "address"
        },
        {
          "indexed": true,
          "internalType": "bytes32",
          "name": "txId",
          "type": "bytes32"
        }
      ],
      "name": "TransactionCompleted",
      "type": "event"
    },
    {
      "anonymous": false,
      "inputs": [
        {
          "indexed": true,
          "internalType": "bytes32",
          "name": "id",
          "type": "bytes32"
        },
        {
          "indexed": true,
          "internalType": "address",
          "name": "sender",
          "type": "address"
        },
        {
          "indexed": true,
          "internalType": "address",
          "name": "arbitrator",
          "type": "address"
        }
      ],
      "name": "TransactionCreated",
      "type": "event"
    },
    {
      "anonymous": false,
      "inputs": [
        {
          "indexed": true,
          "internalType": "bytes32",
          "name": "id",
          "type": "bytes32"
        },
        {
          "indexed": true,
          "internalType": "address",
          "name": "dapp",
          "type": "address"
        },
        {
          "indexed": true,
          "internalType": "address",
          "name": "arbitrator",
          "type": "address"
        }
      ],
      "name": "TransactionRegistered",
      "type": "event"
    },
    {
      "inputs": [],
      "name": "arbitratorManager",
      "outputs": [
        {
          "internalType": "contract IArbitratorManager",
          "name": "",
          "type": "address"
        }
      ],
      "stateMutability": "view",
      "type": "function"
    },
    {
      "inputs": [],
      "name": "compensationManager",
      "outputs": [
        {
          "internalType": "address",
          "name": "",
          "type": "address"
        }
      ],
      "stateMutability": "view",
      "type": "function"
    },
    {
      "inputs": [
        {
          "internalType": "bytes32",
          "name": "id",
          "type": "bytes32"
        }
      ],
      "name": "completeTransaction",
      "outputs": [],
      "stateMutability": "nonpayable",
      "type": "function"
    },
    {
      "inputs": [],
      "name": "configManager",
      "outputs": [
        {
          "internalType": "contract ConfigManager",
          "name": "",
          "type": "address"
        }
      ],
      "stateMutability": "view",
      "type": "function"
    },
    {
      "inputs": [],
      "name": "dappRegistry",
      "outputs": [
        {
          "internalType": "contract IDAppRegistry",
          "name": "",
          "type": "address"
        }
      ],
      "stateMutability": "view",
      "type": "function"
    },
    {
      "inputs": [
        {
          "internalType": "uint256",
          "name": "deadline",
          "type": "uint256"
        },
        {
          "internalType": "address",
          "name": "arbitrator",
          "type": "address"
        }
      ],
      "name": "getRegisterTransactionFee",
      "outputs": [
        {
          "internalType": "uint256",
          "name": "fee",
          "type": "uint256"
        }
      ],
      "stateMutability": "view",
      "type": "function"
    },
    {
      "inputs": [
        {
          "internalType": "bytes32",
          "name": "txHash",
          "type": "bytes32"
        }
      ],
      "name": "getTransaction",
      "outputs": [
        {
          "components": [
            {
              "internalType": "address",
              "name": "dapp",
              "type": "address"
            },
            {
              "internalType": "address",
              "name": "arbitrator",
              "type": "address"
            },
            {
              "internalType": "uint256",
              "name": "startTime",
              "type": "uint256"
            },
            {
              "internalType": "uint256",
              "name": "deadline",
              "type": "uint256"
            },
            {
              "internalType": "bytes",
              "name": "btcTx",
              "type": "bytes"
            },
            {
              "internalType": "bytes32",
              "name": "btcTxHash",
              "type": "bytes32"
            },
            {
              "internalType": "enum DataTypes.TransactionStatus",
              "name": "status",
              "type": "uint8"
            },
            {
              "internalType": "uint256",
              "name": "depositedFee",
              "type": "uint256"
            },
            {
              "internalType": "bytes",
              "name": "signature",
              "type": "bytes"
            },
            {
              "internalType": "address",
              "name": "compensationReceiver",
              "type": "address"
            },
            {
              "internalType": "address",
              "name": "timeoutCompensationReceiver",
              "type": "address"
            },
            {
              "components": [
                {
                  "internalType": "bytes32",
                  "name": "txHash",
                  "type": "bytes32"
                },
                {
                  "internalType": "uint32",
                  "name": "index",
                  "type": "uint32"
                },
                {
                  "internalType": "bytes",
                  "name": "script",
                  "type": "bytes"
                },
                {
                  "internalType": "uint256",
                  "name": "amount",
                  "type": "uint256"
                }
              ],
              "internalType": "struct DataTypes.UTXO[]",
              "name": "utxos",
              "type": "tuple[]"
            }
          ],
          "internalType": "struct DataTypes.Transaction",
          "name": "",
          "type": "tuple"
        }
      ],
      "stateMutability": "view",
      "type": "function"
    },
    {
      "inputs": [
        {
          "internalType": "bytes32",
          "name": "id",
          "type": "bytes32"
        }
      ],
      "name": "getTransactionById",
      "outputs": [
        {
          "components": [
            {
              "internalType": "address",
              "name": "dapp",
              "type": "address"
            },
            {
              "internalType": "address",
              "name": "arbitrator",
              "type": "address"
            },
            {
              "internalType": "uint256",
              "name": "startTime",
              "type": "uint256"
            },
            {
              "internalType": "uint256",
              "name": "deadline",
              "type": "uint256"
            },
            {
              "internalType": "bytes",
              "name": "btcTx",
              "type": "bytes"
            },
            {
              "internalType": "bytes32",
              "name": "btcTxHash",
              "type": "bytes32"
            },
            {
              "internalType": "enum DataTypes.TransactionStatus",
              "name": "status",
              "type": "uint8"
            },
            {
              "internalType": "uint256",
              "name": "depositedFee",
              "type": "uint256"
            },
            {
              "internalType": "bytes",
              "name": "signature",
              "type": "bytes"
            },
            {
              "internalType": "address",
              "name": "compensationReceiver",
              "type": "address"
            },
            {
              "internalType": "address",
              "name": "timeoutCompensationReceiver",
              "type": "address"
            },
            {
              "components": [
                {
                  "internalType": "bytes32",
                  "name": "txHash",
                  "type": "bytes32"
                },
                {
                  "internalType": "uint32",
                  "name": "index",
                  "type": "uint32"
                },
                {
                  "internalType": "bytes",
                  "name": "script",
                  "type": "bytes"
                },
                {
                  "internalType": "uint256",
                  "name": "amount",
                  "type": "uint256"
                }
              ],
              "internalType": "struct DataTypes.UTXO[]",
              "name": "utxos",
              "type": "tuple[]"
            }
          ],
          "internalType": "struct DataTypes.Transaction",
          "name": "",
          "type": "tuple"
        }
      ],
      "stateMutability": "view",
      "type": "function"
    },
    {
      "inputs": [
        {
          "internalType": "address",
          "name": "_compensationManager",
          "type": "address"
        }
      ],
      "name": "initCompensationManager",
      "outputs": [],
      "stateMutability": "nonpayable",
      "type": "function"
    },
    {
      "inputs": [
        {
          "internalType": "address",
          "name": "_arbitratorManager",
          "type": "address"
        },
        {
          "internalType": "address",
          "name": "_dappRegistry",
          "type": "address"
        },
        {
          "internalType": "address",
          "name": "_configManager",
          "type": "address"
        }
      ],
      "name": "initialize",
      "outputs": [],
      "stateMutability": "nonpayable",
      "type": "function"
    },
    {
      "inputs": [
        {
          "internalType": "bytes32",
          "name": "id",
          "type": "bytes32"
        }
      ],
      "name": "isAbleCompletedTransaction",
      "outputs": [
        {
          "internalType": "bool",
          "name": "",
          "type": "bool"
        }
      ],
      "stateMutability": "view",
      "type": "function"
    },
    {
      "inputs": [],
      "name": "owner",
      "outputs": [
        {
          "internalType": "address",
          "name": "",
          "type": "address"
        }
      ],
      "stateMutability": "view",
      "type": "function"
    },
    {
      "inputs": [
        {
          "components": [
            {
              "internalType": "bytes32",
              "name": "txHash",
              "type": "bytes32"
            },
            {
              "internalType": "uint32",
              "name": "index",
              "type": "uint32"
            },
            {
              "internalType": "bytes",
              "name": "script",
              "type": "bytes"
            },
            {
              "internalType": "uint256",
              "name": "amount",
              "type": "uint256"
            }
          ],
          "internalType": "struct DataTypes.UTXO[]",
          "name": "utxos",
          "type": "tuple[]"
        },
        {
          "internalType": "address",
          "name": "arbitrator",
          "type": "address"
        },
        {
          "internalType": "uint256",
          "name": "deadline",
          "type": "uint256"
        },
        {
          "internalType": "address",
          "name": "compensationReceiver",
          "type": "address"
        }
      ],
      "name": "registerTransaction",
      "outputs": [
        {
          "internalType": "bytes32",
          "name": "",
          "type": "bytes32"
        }
      ],
      "stateMutability": "payable",
      "type": "function"
    },
    {
      "inputs": [],
      "name": "renounceOwnership",
      "outputs": [],
      "stateMutability": "nonpayable",
      "type": "function"
    },
    {
      "inputs": [
        {
          "internalType": "bytes32",
          "name": "id",
          "type": "bytes32"
        },
        {
          "internalType": "bytes",
          "name": "btcTx",
          "type": "bytes"
        },
        {
          "internalType": "address",
          "name": "timeoutCompensationReceiver",
          "type": "address"
        }
      ],
      "name": "requestArbitration",
      "outputs": [],
      "stateMutability": "nonpayable",
      "type": "function"
    },
    {
      "inputs": [
        {
          "internalType": "address",
          "name": "_arbitratorManager",
          "type": "address"
        }
      ],
      "name": "setArbitratorManager",
      "outputs": [],
      "stateMutability": "nonpayable",
      "type": "function"
    },
    {
      "inputs": [
        {
          "internalType": "bytes32",
          "name": "id",
          "type": "bytes32"
        },
        {
          "internalType": "bytes",
          "name": "btcTxSignature",
          "type": "bytes"
        }
      ],
      "name": "submitArbitration",
      "outputs": [],
      "stateMutability": "nonpayable",
      "type": "function"
    },
    {
      "inputs": [
        {
          "internalType": "bytes32",
          "name": "",
          "type": "bytes32"
        }
      ],
      "name": "transactions",
      "outputs": [
        {
          "internalType": "address",
          "name": "dapp",
          "type": "address"
        },
        {
          "internalType": "address",
          "name": "arbitrator",
          "type": "address"
        },
        {
          "internalType": "uint256",
          "name": "startTime",
          "type": "uint256"
        },
        {
          "internalType": "uint256",
          "name": "deadline",
          "type": "uint256"
        },
        {
          "internalType": "bytes",
          "name": "btcTx",
          "type": "bytes"
        },
        {
          "internalType": "bytes32",
          "name": "btcTxHash",
          "type": "bytes32"
        },
        {
          "internalType": "enum DataTypes.TransactionStatus",
          "name": "status",
          "type": "uint8"
        },
        {
          "internalType": "uint256",
          "name": "depositedFee",
          "type": "uint256"
        },
        {
          "internalType": "bytes",
          "name": "signature",
          "type": "bytes"
        },
        {
          "internalType": "address",
          "name": "compensationReceiver",
          "type": "address"
        },
        {
          "internalType": "address",
          "name": "timeoutCompensationReceiver",
          "type": "address"
        }
      ],
      "stateMutability": "view",
      "type": "function"
    },
    {
      "inputs": [
        {
          "internalType": "bytes32",
          "name": "id",
          "type": "bytes32"
        }
      ],
      "name": "transferArbitrationFee",
      "outputs": [
        {
          "internalType": "uint256",
          "name": "arbitratorFee",
          "type": "uint256"
        },
        {
          "internalType": "uint256",
          "name": "systemFee",
          "type": "uint256"
        }
      ],
      "stateMutability": "nonpayable",
      "type": "function"
    },
    {
      "inputs": [
        {
          "internalType": "address",
          "name": "newOwner",
          "type": "address"
        }
      ],
      "name": "transferOwnership",
      "outputs": [],
      "stateMutability": "nonpayable",
      "type": "function"
    },
    {
      "inputs": [
        {
          "internalType": "bytes32",
          "name": "",
          "type": "bytes32"
        }
      ],
      "name": "txHashToId",
      "outputs": [
        {
          "internalType": "bytes32",
          "name": "",
          "type": "bytes32"
        }
      ],
      "stateMutability": "view",
      "type": "function"
    }
  ],
  "bytecode": "0x60806040523480156200001157600080fd5b506200001c62000022565b620000d6565b7ff0c57e16840df040f15088dc2f81fe391c3923bec73e23a9662efc9c229c6a00805468010000000000000000900460ff1615620000735760405163f92ee8a960e01b815260040160405180910390fd5b80546001600160401b0390811614620000d35780546001600160401b0319166001600160401b0390811782556040519081527fc7f505b2f371ae2175ee4913f4499e1f2633a7b5936321eed1cdaeb6115181d29060200160405180910390a15b50565b615b8680620000e66000396000f3fe60806040526004361061012a5760003560e01c80638da5cb5b116100ab578063c0c53b8b1161006f578063c0c53b8b1461038a578063c0e3896b146103aa578063c1ce47d2146103ca578063ca0ab075146103f7578063de0ca16614610417578063f2fde38b1461043757600080fd5b80638da5cb5b146102cc5780639100c06214610309578063a130312a1461032a578063a71571901461034a578063a890b7b41461036a57600080fd5b8063520936b5116100f2578063520936b5146101fb578063642f2eaf1461022b578063715018a6146102625780637577b6df14610277578063759787c4146102ac57600080fd5b80630559b8771461012f5780632c7e8ca31461016c578063350a07ea1461018e5780634aae13ca146101ae5780634e4f0ec4146101db575b600080fd5b34801561013b57600080fd5b5060065461014f906001600160a01b031681565b6040516001600160a01b0390911681526020015b60405180910390f35b34801561017857600080fd5b5061018c610187366004614e7d565b610457565b005b34801561019a57600080fd5b5061018c6101a9366004614e7d565b6104a7565b3480156101ba57600080fd5b506101ce6101c9366004614e9a565b610550565b6040516101639190614fc5565b3480156101e757600080fd5b5061018c6101f6366004615118565b6108b7565b34801561020757600080fd5b5061021b610216366004614e9a565b610def565b6040519015158152602001610163565b34801561023757600080fd5b5061024b610246366004614e9a565b61117f565b6040516101639b9a99989796959493929190615163565b34801561026e57600080fd5b5061018c611307565b34801561028357600080fd5b50610297610292366004614e9a565b61131b565b60408051928352602083019190915201610163565b3480156102b857600080fd5b5060005461014f906001600160a01b031681565b3480156102d857600080fd5b507f9016d09d72d40fdae2fd8ceac6b6234c7706214fd39c1cd1e609a0528c199300546001600160a01b031661014f565b61031c6103173660046151ee565b61150b565b604051908152602001610163565b34801561033657600080fd5b5061018c610345366004614e9a565b611cee565b34801561035657600080fd5b5061031c610365366004615290565b611e09565b34801561037657600080fd5b506101ce610385366004614e9a565b6120f6565b34801561039657600080fd5b5061018c6103a53660046152c0565b612405565b3480156103b657600080fd5b5061018c6103c536600461530b565b612632565b3480156103d657600080fd5b5061031c6103e5366004614e9a565b60046020526000908152604090205481565b34801561040357600080fd5b5060025461014f906001600160a01b031681565b34801561042357600080fd5b5060015461014f906001600160a01b031681565b34801561044357600080fd5b5061018c610452366004614e7d565b6129c0565b61045f6129fe565b600080546001600160a01b0319166001600160a01b038316908117825560405190917fa323f9f93bbee02edb5e1034969f6ef41fb674527d2ea7e9271ad206435b58f491a250565b6104af6129fe565b6001600160a01b03811661050057604080518082018252600c81526b5a65726f206164647265737360a01b6020820152905162461bcd60e51b81526104f79190600401615369565b60405180910390fd5b600680546001600160a81b0319166001600160a01b038316908117600160a01b179091556040517f3e89cfb4fcf3c219579a7287319c014b58f4ff0f30188fd1d661727cf54faae590600090a250565b610558614d52565b600082815260046020526040902054806105af576040805180820182526015815274151c985b9cd858dd1a5bdb881b9bdd08199bdd5b99605a1b6020820152905162461bcd60e51b81526104f79190600401615369565b60008181526003602081815260409283902083516101808101855281546001600160a01b039081168252600183015416928101929092526002810154938201939093529082015460608201526004820180549192916080840191906106139061537c565b80601f016020809104026020016040519081016040528092919081815260200182805461063f9061537c565b801561068c5780601f106106615761010080835404028352916020019161068c565b820191906000526020600020905b81548152906001019060200180831161066f57829003601f168201915b50505091835250506005828101546020830152600683015460409092019160ff16908111156106bd576106bd614f03565b60058111156106ce576106ce614f03565b8152602001600782015481526020016008820180546106ec9061537c565b80601f01602080910402602001604051908101604052809291908181526020018280546107189061537c565b80156107655780601f1061073a57610100808354040283529160200191610765565b820191906000526020600020905b81548152906001019060200180831161074857829003601f168201915b505050918352505060098201546001600160a01b03908116602080840191909152600a840154909116604080840191909152600b84018054825181850281018501909352808352606090940193919290919060009084015b828210156108a8576000848152602090819020604080516080810182526004860290920180548352600181015463ffffffff16938301939093526002830180549293929184019161080d9061537c565b80601f01602080910402602001604051908101604052809291908181526020018280546108399061537c565b80156108865780601f1061085b57610100808354040283529160200191610886565b820191906000526020600020905b81548152906001019060200180831161086957829003601f168201915b50505050508152602001600382015481525050815260200190600101906107bd565b50505091525090949350505050565b60008381526003602052604090206002600682015460ff1660058111156108e0576108e0614f03565b1461092d57604080518082018252601a815279496e76616c6964207472616e73616374696f6e2073746174757360301b6020820152905162461bcd60e51b81526104f79190600401615369565b604080516101808101825282546001600160a01b039081168252600184015416602082015260028301549181019190915260038201546060820152600482018054610c26929184916080840191906109849061537c565b80601f01602080910402602001604051908101604052809291908181526020018280546109b09061537c565b80156109fd5780601f106109d2576101008083540402835291602001916109fd565b820191906000526020600020905b8154815290600101906020018083116109e057829003601f168201915b50505091835250506005828101546020830152600683015460409092019160ff1690811115610a2e57610a2e614f03565b6005811115610a3f57610a3f614f03565b815260200160078201548152602001600882018054610a5d9061537c565b80601f0160208091040260200160405190810160405280929190818152602001828054610a899061537c565b8015610ad65780601f10610aab57610100808354040283529160200191610ad6565b820191906000526020600020905b815481529060010190602001808311610ab957829003601f168201915b505050918352505060098201546001600160a01b03908116602080840191909152600a840154909116604080840191909152600b84018054825181850281018501909352808352606090940193919290919060009084015b82821015610c19576000848152602090819020604080516080810182526004860290920180548352600181015463ffffffff169383019390935260028301805492939291840191610b7e9061537c565b80601f0160208091040260200160405190810160405280929190818152602001828054610baa9061537c565b8015610bf75780601f10610bcc57610100808354040283529160200191610bf7565b820191906000526020600020905b815481529060010190602001808311610bda57829003601f168201915b5050505050815260200160038201548152505081526020019060010190610b2e565b5050505081525050612a59565b15610c7657604080518082018252601d81527f4f7574207375626d6974746564207369676e6174757265732074696d650000006020820152905162461bcd60e51b81526104f79190600401615369565b6000546001820154604051630e70978b60e21b81526001600160a01b0391821660048201523360248201529116906339c25e2c90604401602060405180830381865afa158015610cca573d6000803e3d6000fd5b505050506040513d601f19601f82011682018060405250810190610cee91906153b6565b610d2e57604080518082018252600e81526d139bdd08185d5d1a1bdc9a5e995960921b6020820152905162461bcd60e51b81526104f79190600401615369565b60068101805460ff1916600517905560088101610d4c83858361543d565b50600054600182015460405163069fa0a760e51b81526001600160a01b03918216600482015291169063d3f414e090602401600060405180830381600087803b158015610d9857600080fd5b505af1158015610dac573d6000803e3d6000fd5b505082546040518793506001600160a01b0390911691507fc5a53e8918a64b3e9944e2344fc4fdd4c8b33a433b3a696975c4996090b39f6190600090a350505050565b600081815260036020818152604080842081516101808101835281546001600160a01b039081168252600183015416938101939093526002810154918301919091529182015460608201526004820180548493916080840191610e519061537c565b80601f0160208091040260200160405190810160405280929190818152602001828054610e7d9061537c565b8015610eca5780601f10610e9f57610100808354040283529160200191610eca565b820191906000526020600020905b815481529060010190602001808311610ead57829003601f168201915b50505091835250506005828101546020830152600683015460409092019160ff1690811115610efb57610efb614f03565b6005811115610f0c57610f0c614f03565b815260200160078201548152602001600882018054610f2a9061537c565b80601f0160208091040260200160405190810160405280929190818152602001828054610f569061537c565b8015610fa35780601f10610f7857610100808354040283529160200191610fa3565b820191906000526020600020905b815481529060010190602001808311610f8657829003601f168201915b505050918352505060098201546001600160a01b03908116602080840191909152600a840154909116604080840191909152600b84018054825181850281018501909352808352606090940193919290919060009084015b828210156110e6576000848152602090819020604080516080810182526004860290920180548352600181015463ffffffff16938301939093526002830180549293929184019161104b9061537c565b80601f01602080910402602001604051908101604052809291908181526020018280546110779061537c565b80156110c45780601f10611099576101008083540402835291602001916110c4565b820191906000526020600020905b8154815290600101906020018083116110a757829003601f168201915b5050505050815260200160038201548152505081526020019060010190610ffb565b505050915250909150600090508160c00151600581111561110957611109614f03565b036111175750600192915050565b60028160c00151600581111561112f5761112f614f03565b036111505761113d81612a59565b1561114b5750600192915050565b611176565b60058160c00151600581111561116857611168614f03565b036111765750600192915050565b50600092915050565b6003602081905260009182526040909120805460018201546002830154938301546004840180546001600160a01b0394851696949093169491926111c29061537c565b80601f01602080910402602001604051908101604052809291908181526020018280546111ee9061537c565b801561123b5780601f106112105761010080835404028352916020019161123b565b820191906000526020600020905b81548152906001019060200180831161121e57829003601f168201915b5050506005840154600685015460078601546008870180549697939660ff90931695509093509061126b9061537c565b80601f01602080910402602001604051908101604052809291908181526020018280546112979061537c565b80156112e45780601f106112b9576101008083540402835291602001916112e4565b820191906000526020600020905b8154815290600101906020018083116112c757829003601f168201915b505050506009830154600a9093015491926001600160a01b03908116921690508b565b61130f6129fe565b6113196000612af8565b565b60065460009081906001600160a01b0316331461137d57604080518082018252601881527f4e6f7420636f6d70656e736174696f6e206d616e6167657200000000000000006020820152905162461bcd60e51b81526104f79190600401615369565b600654600160a01b900460ff166113cb57604080518082018252600f81526e139bdd081a5b9a5d1a585b1a5e9959608a1b6020820152905162461bcd60e51b81526104f79190600401615369565b60008381526003602052604090206005600682015460ff1660058111156113f4576113f4614f03565b1461144157604080518082018252601a815279496e76616c6964207472616e73616374696f6e2073746174757360301b6020820152905162461bcd60e51b81526104f79190600401615369565b6000546001820154604051632911125160e01b81526001600160a01b039182166004820152911690632911125190602401602060405180830381865afa15801561148f573d6000803e3d6000fd5b505050506040513d601f19601f820116820180604052508101906114b391906153b6565b156114f757604080518082018252601181527020b93134ba3930ba37b910333937bd32b760791b6020820152905162461bcd60e51b81526104f79190600401615369565b6115018482612b69565b9250925050915091565b6000611515612f2d565b6001600160a01b038416158061153257506001600160a01b038216155b1561157157604080518082018252600c81526b5a65726f206164647265737360a01b6020820152905162461bcd60e51b81526104f79190600401615369565b60008590036115b457604080518082018252600c81526b496e76616c6964205554584f60a01b6020820152905162461bcd60e51b81526104f79190600401615369565b60015460405163682dc82b60e11b81523360048201526001600160a01b039091169063d05b905690602401602060405180830381865afa1580156115fc573d6000803e3d6000fd5b505050506040513d601f19601f8201168201806040525081019061162091906153b6565b61166157604080518082018252600f81526e44417070206e6f742061637469766560881b6020820152905162461bcd60e51b81526104f79190600401615369565b600054604051631c569df760e31b81526001600160a01b0386811660048301529091169063e2b4efb890602401602060405180830381865afa1580156116ab573d6000803e3d6000fd5b505050506040513d601f19601f820116820180604052508101906116cf91906153b6565b61171657604080518082018252601581527441726269747261746f72206e6f742061637469766560581b6020820152905162461bcd60e51b81526104f79190600401615369565b42831161175b57604080518082018252601081526f496e76616c696420646561646c696e6560801b6020820152905162461bcd60e51b81526104f79190600401615369565b60006117674285615513565b60025460408051631c8c542360e11b815290519293506001600160a01b0390911691636dd5b69d918391633918a846916004808201926020929091908290030181865afa1580156117bc573d6000803e3d6000fd5b505050506040513d601f19601f820116820180604052508101906117e09190615526565b6040518263ffffffff1660e01b81526004016117fe91815260200190565b602060405180830381865afa15801561181b573d6000803e3d6000fd5b505050506040513d601f19601f8201168201806040525081019061183f9190615526565b81108061191f5750600254604080516358d0b14760e01b815290516001600160a01b0390921691636dd5b69d9183916358d0b147916004808201926020929091908290030181865afa158015611899573d6000803e3d6000fd5b505050506040513d601f19601f820116820180604052508101906118bd9190615526565b6040518263ffffffff1660e01b81526004016118db91815260200190565b602060405180830381865afa1580156118f8573d6000803e3d6000fd5b505050506040513d601f19601f8201168201806040525081019061191c9190615526565b81115b1561196257604080518082018252601081526f24b73b30b634b210323ab930ba34b7b760811b6020820152905162461bcd60e51b81526104f79190600401615369565b604051630a71571960e41b8152600481018590526001600160a01b0386166024820152600090309063a715719090604401602060405180830381865afa1580156119b0573d6000803e3d6000fd5b505050506040513d601f19601f820116820180604052508101906119d49190615526565b905080600003611a1757604080518082018252600b81526a496e76616c69642066656560a81b6020820152905162461bcd60e51b81526104f79190600401615369565b80341015611a5d57604080518082018252601081526f496e73756666696369656e742066656560801b6020820152905162461bcd60e51b81526104f79190600401615369565b600042338860056000815480929190611a759061553f565b909155506040805160208101959095526bffffffffffffffffffffffff19606094851b8116918601919091529190921b166054830152606882015260880160408051808303601f190181529082905280516020909101206000546315969bed60e11b83526001600160a01b038a81166004850152602484018390529193501690632b2d37da90604401600060405180830381600087803b158015611b1857600080fd5b505af1158015611b2c573d6000803e3d6000fd5b505050600082815260036020819052604082208054336001600160a01b03199182161782556001820180549091166001600160a01b038d1617905542600282015590810189905591506040519080825280601f01601f191660200182016040528015611b9f576020820181803683370190505b506004820190611baf9082615558565b5060006005820181905560068201805460ff1916905560078201849055604080519182526020820190526008820190611be89082615558565b506009810180546001600160a01b0388166001600160a01b03199182168117909255600a830180549091169091179055611c26600b82016000614dc4565b60005b89811015611c905781600b018b8b83818110611c4757611c47615617565b9050602002810190611c59919061562d565b815460018101835560009283526020909220909160040201611c7b828261564d565b50508080611c889061553f565b915050611c29565b506040516001600160a01b03891690339084907f3f9704516fd7b664375bdfc5fb0c00e1326d44378d723aa344109738be611a2a90600090a45092505050611ce56001600080516020615b3183398151915255565b95945050505050565b60008181526003602052604090819020905163520936b560e01b815260048101839052309063520936b590602401602060405180830381865afa158015611d39573d6000803e3d6000fd5b505050506040513d601f19601f82011682018060405250810190611d5d91906153b6565b611dac57604080518082018252601b81527f43616e6e6f7420636f6d706c657465207472616e73616374696f6e00000000006020820152905162461bcd60e51b81526104f79190600401615369565b80546001600160a01b03163314611df957604080518082018252600e81526d139bdd08185d5d1a1bdc9a5e995960921b6020820152905162461bcd60e51b81526104f79190600401615369565b611e038282612b69565b50505050565b600080428411611e1a576000611e24565b611e244285615513565b60025460408051631c8c542360e11b815290519293506001600160a01b0390911691636dd5b69d918391633918a846916004808201926020929091908290030181865afa158015611e79573d6000803e3d6000fd5b505050506040513d601f19601f82011682018060405250810190611e9d9190615526565b6040518263ffffffff1660e01b8152600401611ebb91815260200190565b602060405180830381865afa158015611ed8573d6000803e3d6000fd5b505050506040513d601f19601f82011682018060405250810190611efc9190615526565b811080611fdc5750600254604080516358d0b14760e01b815290516001600160a01b0390921691636dd5b69d9183916358d0b147916004808201926020929091908290030181865afa158015611f56573d6000803e3d6000fd5b505050506040513d601f19601f82011682018060405250810190611f7a9190615526565b6040518263ffffffff1660e01b8152600401611f9891815260200190565b602060405180830381865afa158015611fb5573d6000803e3d6000fd5b505050506040513d601f19601f82011682018060405250810190611fd99190615526565b81115b1561201f57604080518082018252601081526f24b73b30b634b210323ab930ba34b7b760811b6020820152905162461bcd60e51b81526104f79190600401615369565b6001600160a01b03831661206757604080518082018252600c81526b5a65726f206164647265737360a01b6020820152905162461bcd60e51b81526104f79190600401615369565b600080546040516326415b0f60e21b81526001600160a01b038681166004830152909116906399056c3c90602401600060405180830381865afa1580156120b2573d6000803e3d6000fd5b505050506040513d6000823e601f3d908101601f191682016040526120da919081019061583b565b90506120eb84826020015184612f79565b925050505b92915050565b6120fe614d52565b60008281526003602081815260409283902083516101808101855281546001600160a01b039081168252600183015416928101929092526002810154938201939093529082015460608201526004820180549192916080840191906121629061537c565b80601f016020809104026020016040519081016040528092919081815260200182805461218e9061537c565b80156121db5780601f106121b0576101008083540402835291602001916121db565b820191906000526020600020905b8154815290600101906020018083116121be57829003601f168201915b50505091835250506005828101546020830152600683015460409092019160ff169081111561220c5761220c614f03565b600581111561221d5761221d614f03565b81526020016007820154815260200160088201805461223b9061537c565b80601f01602080910402602001604051908101604052809291908181526020018280546122679061537c565b80156122b45780601f10612289576101008083540402835291602001916122b4565b820191906000526020600020905b81548152906001019060200180831161229757829003601f168201915b505050918352505060098201546001600160a01b03908116602080840191909152600a840154909116604080840191909152600b84018054825181850281018501909352808352606090940193919290919060009084015b828210156123f7576000848152602090819020604080516080810182526004860290920180548352600181015463ffffffff16938301939093526002830180549293929184019161235c9061537c565b80601f01602080910402602001604051908101604052809291908181526020018280546123889061537c565b80156123d55780601f106123aa576101008083540402835291602001916123d5565b820191906000526020600020905b8154815290600101906020018083116123b857829003601f168201915b505050505081526020016003820154815250508152602001906001019061230c565b505050915250909392505050565b7ff0c57e16840df040f15088dc2f81fe391c3923bec73e23a9662efc9c229c6a008054600160401b810460ff1615906001600160401b031660008115801561244a5750825b90506000826001600160401b031660011480156124665750303b155b905081158015612474575080155b156124925760405163f92ee8a960e01b815260040160405180910390fd5b845467ffffffffffffffff1916600117855583156124bc57845460ff60401b1916600160401b1785555b6124c4613024565b6124cd33613034565b6001600160a01b03881661251557604080518082018252600c81526b5a65726f206164647265737360a01b6020820152905162461bcd60e51b81526104f79190600401615369565b6001600160a01b03871661255d57604080518082018252600c81526b5a65726f206164647265737360a01b6020820152905162461bcd60e51b81526104f79190600401615369565b6001600160a01b0386166125a557604080518082018252600c81526b5a65726f206164647265737360a01b6020820152905162461bcd60e51b81526104f79190600401615369565b600080546001600160a01b03808b166001600160a01b031992831617909255600180548a84169083161790556002805492891692909116919091179055831561262857845460ff60401b19168555604051600181527fc7f505b2f371ae2175ee4913f4499e1f2633a7b5936321eed1cdaeb6115181d29060200160405180910390a15b5050505050505050565b61263a612f2d565b6001600160a01b03811661268257604080518082018252600c81526b5a65726f206164647265737360a01b6020820152905162461bcd60e51b81526104f79190600401615369565b600084815260036020526040812090600682015460ff1660058111156126aa576126aa614f03565b146126f757604080518082018252601a815279496e76616c6964207472616e73616374696f6e2073746174757360301b6020820152905162461bcd60e51b81526104f79190600401615369565b80546001600160a01b0316331461274457604080518082018252600e81526d139bdd08185d5d1a1bdc9a5e995960921b6020820152905162461bcd60e51b81526104f79190600401615369565b60006127508585613045565b600b830154602082015151919250146127a457604080518082018252601381527224b73b30b634b2103a3930b739b0b1ba34b7b760691b6020820152905162461bcd60e51b81526104f79190600401615369565b60005b8160200151518110156128bb5782600b0181815481106127c9576127c9615617565b906000526020600020906004020160000154826020015182815181106127f1576127f1615617565b602002602001015160000151141580612863575082600b01818154811061281a5761281a615617565b60009182526020918290206001600490920201015490830151805163ffffffff909216918390811061284e5761284e615617565b60200260200101516020015163ffffffff1614155b156128a957604080518082018252601381527224b73b30b634b2103a3930b739b0b1ba34b7b760691b6020820152905162461bcd60e51b81526104f79190600401615369565b806128b38161553f565b9150506127a7565b5060006128c78261326a565b905060006002826040516128db91906159ef565b602060405180830381855afa1580156128f8573d6000803e3d6000fd5b5050506040513d601f19601f8201168201806040525081019061291b9190615526565b60068501805460ff1916600217905590506004840161293b87898361543d565b5060058401819055600a840180546001600160a01b0319166001600160a01b03878116919091179091556000828152600460205260408082208b9055865490518b9391909116917f31e90e280e677d9edeb57411a7ccf29ae3094cc999a12de72dfdecf0b9ed1f0591a350505050611e036001600080516020615b3183398151915255565b6129c86129fe565b6001600160a01b0381166129f257604051631e4fbdf760e01b8152600060048201526024016104f7565b6129fb81612af8565b50565b33612a307f9016d09d72d40fdae2fd8ceac6b6234c7706214fd39c1cd1e609a0528c199300546001600160a01b031690565b6001600160a01b0316146113195760405163118cdaa760e01b81523360048201526024016104f7565b60008160600151421115612a6f57506001919050565b60025460408051632b6f600d60e01b815290516000926001600160a01b031691632b6f600d9160048083019260209291908290030181865afa158015612ab9573d6000803e3d6000fd5b505050506040513d601f19601f82011682018060405250810190612add9190615526565b9050808360400151612aef9190615a01565b42119392505050565b7f9016d09d72d40fdae2fd8ceac6b6234c7706214fd39c1cd1e609a0528c19930080546001600160a01b031981166001600160a01b03848116918217845560405192169182907f8be0079c531659141344cd1fd0a4f28419497f9722a3daafe3b4186f6b6457e090600090a3505050565b604080516101808101825282546001600160a01b039081168252600184015416602082015260028301549181019190915260038201546060820152600482018054600092839283928392612e6b92909188916080840191612bc99061537c565b80601f0160208091040260200160405190810160405280929190818152602001828054612bf59061537c565b8015612c425780601f10612c1757610100808354040283529160200191612c42565b820191906000526020600020905b815481529060010190602001808311612c2557829003601f168201915b50505091835250506005828101546020830152600683015460409092019160ff1690811115612c7357612c73614f03565b6005811115612c8457612c84614f03565b815260200160078201548152602001600882018054612ca29061537c565b80601f0160208091040260200160405190810160405280929190818152602001828054612cce9061537c565b8015612d1b5780601f10612cf057610100808354040283529160200191612d1b565b820191906000526020600020905b815481529060010190602001808311612cfe57829003601f168201915b505050918352505060098201546001600160a01b03908116602080840191909152600a840154909116604080840191909152600b84018054825181850281018501909352808352606090940193919290919060009084015b82821015612e5e576000848152602090819020604080516080810182526004860290920180548352600181015463ffffffff169383019390935260028301805492939291840191612dc39061537c565b80601f0160208091040260200160405190810160405280929190818152602001828054612def9061537c565b8015612e3c5780601f10612e1157610100808354040283529160200191612e3c565b820191906000526020600020905b815481529060010190602001808311612e1f57829003601f168201915b5050505050815260200160038201548152505081526020019060010190612d73565b505050508152505061390b565b600054600188015460405163cedb588b60e01b81526001600160a01b039182166004820152602481018b9052939550919350169063cedb588b90604401600060405180830381600087803b158015612ec257600080fd5b505af1158015612ed6573d6000803e3d6000fd5b5050505060068501805460ff19166001179055845460405187916001600160a01b0316907fd4ce83344b315e3d656d76b02d51dcb1e3c92f1f9f9c28524cfb20882e9e6bc790600090a390925090505b9250929050565b600080516020615b31833981519152805460011901612f5f57604051633ee5aeb560e01b815260040160405180910390fd5b60029055565b6001600080516020615b3183398151915255565b6000805460405163014f6b1960e41b81526001600160a01b038681166004830152839216906314f6b19090602401602060405180830381865afa158015612fc4573d6000803e3d6000fd5b505050506040513d601f19601f82011682018060405250810190612fe89190615526565b9050612ffa6127106301e13380615a14565b846130058584615a14565b61300f9190615a14565b6130199190615a2b565b9150505b9392505050565b61302c613d5d565b611319613da6565b61303c613d5d565b6129fb81613dae565b6040805160a08101825260008082526060602083018190529282018390529181018290526080810182905290828061307e600484615a01565b11156130bd5760408051808201825260178152600080516020615b118339815191526020820152905162461bcd60e51b81526104f79190600401615369565b8482856130cb600483615a01565b926130d893929190615a4d565b6130e191615a77565b60e01c83526130f1600483615a01565b9150600080613101878786613db6565b81151560808801529450915083905060008061311e898985613e49565b602089018290529650915085905060008061313a8b8b85613f41565b60408b0182905298509150879050851561315e5761315b8b8b8a8751614021565b97505b83516001146131985760405162461bcd60e51b815260206004820152600660248201526503232b13ab3960d51b60448201526064016104f7565b866131a4896004615a01565b11156131e35760408051808201825260178152600080516020615b118339815191526020820152905162461bcd60e51b81526104f79190600401615369565b8a888b6131f1826004615a01565b926131fe93929190615a4d565b61320791615a77565b60e01c60608a015261321a600489615a01565b975086881461325c5760408051808201825260178152600080516020615b118339815191526020820152905162461bcd60e51b81526104f79190600401615369565b505050505050505092915050565b60606000600490506132808360200151516140b4565b61328a9082615a01565b905060005b8360200151518110156132c8576132a7602883615a01565b91506132b4600183615a01565b9150806132c08161553f565b91505061328f565b506132d78360400151516140b4565b6132e19082615a01565b905060005b836040015151811015613379576132fe600883615a01565b915061332b8460400151828151811061331957613319615617565b602002602001015160200151516140b4565b6133359083615a01565b91508360400151818151811061334d5761334d615617565b60200260200101516020015151826133659190615a01565b9150806133718161553f565b9150506132e6565b50613385600482615a01565b90506000816001600160401b038111156133a1576133a16153d8565b6040519080825280601f01601f1916602001820160405280156133cb576020820181803683370190505b50845190915060009060e01b815b600481101561343c578181600481106133f4576133f4615617565b1a60f81b846134038386615a01565b8151811061341357613413615617565b60200101906001600160f81b031916908160001a905350806134348161553f565b9150506133d9565b50613448600483615a01565b915061345a86602001515184846140f8565b6134649083615a01565b915060005b8660200151518110156136955760005b60208110156134fd578760200151828151811061349857613498615617565b60200260200101516000015181602081106134b5576134b5615617565b1a60f81b856134c48387615a01565b815181106134d4576134d4615617565b60200101906001600160f81b031916908160001a905350806134f58161553f565b915050613479565b50613509602084615a01565b925060008760200151828151811061352357613523615617565b60200260200101516020015160e01b905060005b600481101561359a5781816004811061355257613552615617565b1a60f81b866135618388615a01565b8151811061357157613571615617565b60200101906001600160f81b031916908160001a905350806135928161553f565b915050613537565b506135a6600485615a01565b9350600060f81b8585815181106135bf576135bf615617565b60200101906001600160f81b031916908160001a9053506135e1600185615a01565b93506000886020015183815181106135fb576135fb615617565b60200260200101516060015160e01b905060005b60048110156136725781816004811061362a5761362a615617565b1a60f81b876136398389615a01565b8151811061364957613649615617565b60200101906001600160f81b031916908160001a9053508061366a8161553f565b91505061360f565b5061367e600486615a01565b94505050808061368d9061553f565b915050613469565b506136a686604001515184846140f8565b6136b09083615a01565b915060005b866040015151811015613890576000876040015182815181106136da576136da615617565b60200260200101516000015160c01b905060005b60088110156137515781816008811061370957613709615617565b1a60f81b866137188388615a01565b8151811061372857613728615617565b60200101906001600160f81b031916908160001a905350806137498161553f565b9150506136ee565b5061375d600885615a01565b935061378c8860400151838151811061377857613778615617565b6020026020010151602001515186866140f8565b6137969085615a01565b935060005b886040015183815181106137b1576137b1615617565b6020026020010151602001515181101561384b57886040015183815181106137db576137db615617565b60200260200101516020015181815181106137f8576137f8615617565b01602001516001600160f81b031916866138128388615a01565b8151811061382257613822615617565b60200101906001600160f81b031916908160001a905350806138438161553f565b91505061379b565b508760400151828151811061386257613862615617565b602002602001015160200151518461387a9190615a01565b93505080806138889061553f565b9150506136b5565b50606086015160e01b60005b60048110156138ff578181600481106138b7576138b7615617565b1a60f81b856138c68387615a01565b815181106138d6576138d6615617565b60200101906001600160f81b031916908160001a905350806138f78161553f565b91505061389c565b50929695505050505050565b6000805460208301516040516326415b0f60e21b81526001600160a01b0391821660048201528392839216906399056c3c90602401600060405180830381865afa15801561395d573d6000803e3d6000fd5b505050506040513d6000823e601f3d908101601f19168201604052613985919081019061583b565b90506000846060015142116139a85760408501516139a39042615513565b6139bc565b846040015185606001516139bc9190615513565b905060006139d38660200151846020015184612f79565b90508560e001518111156139e8575060e08501515b6002546040805163286e9cd160e21b81529051600092612710926001600160a01b0390911691636dd5b69d91839163a1ba7344916004808201926020929091908290030181865afa158015613a41573d6000803e3d6000fd5b505050506040513d601f19601f82011682018060405250810190613a659190615526565b6040518263ffffffff1660e01b8152600401613a8391815260200190565b602060405180830381865afa158015613aa0573d6000803e3d6000fd5b505050506040513d601f19601f82011682018060405250810190613ac49190615526565b613ace9084615a14565b613ad89190615a2b565b90506000613ae68284615513565b90506000600260009054906101000a90046001600160a01b03166001600160a01b0316638b6570a06040518163ffffffff1660e01b8152600401602060405180830381865afa158015613b3d573d6000803e3d6000fd5b505050506040513d601f19601f82011682018060405250810190613b619190615aa7565b90506000816001600160a01b03168460405160006040518083038185875af1925050503d8060008114613bb0576040519150601f19603f3d011682016040523d82523d6000602084013e613bb5565b606091505b5050905080613bfb57604080518082018252600f81526e151c985b9cd9995c8819985a5b1959608a1b6020820152905162461bcd60e51b81526104f79190600401615369565b6000876101e001516001600160a01b03168460405160006040518083038185875af1925050503d8060008114613c4d576040519150601f19603f3d011682016040523d82523d6000602084013e613c52565b606091505b5050905080613c9857604080518082018252600f81526e151c985b9cd9995c8819985a5b1959608a1b6020820152905162461bcd60e51b81526104f79190600401615369565b6000868c60e00151613caa9190615513565b90508015613d4b578b516040516000916001600160a01b03169083908381818185875af1925050503d8060008114613cfe576040519150601f19603f3d011682016040523d82523d6000602084013e613d03565b606091505b5050905080613d4957604080518082018252600f81526e151c985b9cd9995c8819985a5b1959608a1b6020820152905162461bcd60e51b81526104f79190600401615369565b505b50929a93995092975050505050505050565b7ff0c57e16840df040f15088dc2f81fe391c3923bec73e23a9662efc9c229c6a0054600160401b900460ff1661131957604051631afcd79f60e31b815260040160405180910390fd5b612f65613d5d565b6129c8613d5d565b60008183613dc5826002615a01565b11613e41576000858585818110613dde57613dde615617565b919091013560f81c9150600090508686613df9876001615a01565b818110613e0857613e08615617565b919091013560f81c91505060ff8216158015613e27575060ff81166001145b15613e3e5760019350613e3b600284615a01565b92505b50505b935093915050565b60606000806000613e5b87878761435e565b9092509050613e6a8186615a01565b9250816001600160401b03811115613e8457613e846153d8565b604051908082528060200260200182016040528015613ed757816020015b60408051608081018252600080825260208083018290526060938301849052928201528252600019909201910181613ea25790505b50935060005b82811015613f3657600080613ef38a8a886145ee565b9150915081878481518110613f0a57613f0a615617565b6020908102919091010152613f1f8187615a01565b955050508080613f2e9061553f565b915050613edd565b505050935093915050565b60606000806000613f5387878761435e565b9092509050613f628186615a01565b9250816001600160401b03811115613f7c57613f7c6153d8565b604051908082528060200260200182016040528015613fc257816020015b604080518082019091526000815260606020820152815260200190600190039081613f9a5790505b50935060005b82811015613f3657600080613fde8a8a8861487e565b9150915081878481518110613ff557613ff5615617565b602090810291909101015261400a8187615a01565b9550505080806140199061553f565b915050613fc8565b8160005b828110156140ab5760008061403b88888661435e565b909250905061404a8185615a01565b935060005b82811015614095576000806140658b8b8961435e565b90925090506140748282615a01565b61407e9088615a01565b96505050808061408d9061553f565b91505061404f565b50505080806140a39061553f565b915050614025565b50949350505050565b600060fc8210156140c757506001919050565b61ffff82116140d857506003919050565b63ffffffff82116140eb57506005919050565b506009919050565b919050565b600060fc841015614139578360f81b83838151811061411957614119615617565b60200101906001600160f81b031916908160001a9053506001905061301d565b61ffff84116141f35760fd60f81b83838151811061415957614159615617565b60200101906001600160f81b031916908160001a90535060f084901b8060001a60f81b84614188856001615a01565b8151811061419857614198615617565b60200101906001600160f81b031916908160001a9053508060011a60f81b846141c2856002615a01565b815181106141d2576141d2615617565b60200101906001600160f81b031916908160001a905350600391505061301d565b63ffffffff84116142ae5760fe60f81b83838151811061421557614215615617565b60200101906001600160f81b031916908160001a90535060e084901b60005b60048110156142a35781816004811061424f5761424f615617565b1a60f81b8582614260876001615a01565b61426a9190615a01565b8151811061427a5761427a615617565b60200101906001600160f81b031916908160001a9053508061429b8161553f565b915050614234565b50600591505061301d565b60ff60f81b8383815181106142c5576142c5615617565b60200101906001600160f81b031916908160001a90535060c084901b60005b6008811015614353578181600881106142ff576142ff615617565b1a60f81b8582614310876001615a01565b61431a9190615a01565b8151811061432a5761432a615617565b60200101906001600160f81b031916908160001a9053508061434b8161553f565b9150506142e4565b50600991505061301d565b6000808383106143a15760408051808201825260178152600080516020615b118339815191526020820152905162461bcd60e51b81526104f79190600401615369565b60008585858181106143b5576143b5615617565b919091013560f81c91505060fc8110156143d75760ff16915060019050613e41565b60fc1960ff82160161448b57846143ef856003615a01565b111561442e5760408051808201825260178152600080516020615b118339815191526020820152905162461bcd60e51b81526104f79190600401615369565b61447a86868080601f016020809104026020016040519081016040528093929190818152602001838380828437600092019190915250614475925088915060019050615a01565b6149dd565b61ffff16925060039150613e419050565b60fd1960ff82160161454157846144a3856005615a01565b11156144e25760408051808201825260178152600080516020615b118339815191526020820152905162461bcd60e51b81526104f79190600401615369565b61452e86868080601f016020809104026020016040519081016040528093929190818152602001838380828437600092019190915250614529925088915060019050615a01565b614a96565b63ffffffff16925060059150613e419050565b8461454d856009615a01565b111561458c5760408051808201825260178152600080516020615b118339815191526020820152905162461bcd60e51b81526104f79190600401615369565b6145d886868080601f0160208091040260200160405190810160405280939291908181526020018383808284376000920191909152506145d3925088915060019050615a01565b614ba1565b6001600160401b0316925060099150613e419050565b6040805160808101825260008082526020820181905260609282018390529181019190915260008284614622826020615a01565b11156146615760408051808201825260178152600080516020615b118339815191526020820152905162461bcd60e51b81526104f79190600401615369565b85848661466f826020615a01565b9261467c93929190615a4d565b61468591615ac4565b8352614692602085615a01565b9350846146a0856004615a01565b11156146df5760408051808201825260178152600080516020615b118339815191526020820152905162461bcd60e51b81526104f79190600401615369565b8584866146ed826004615a01565b926146fa93929190615a4d565b61470391615a77565b60e01c6020840152614716600485615a01565b935060008061472688888861435e565b90925090506147358187615a01565b9550866147428388615a01565b11156147815760408051808201825260178152600080516020615b118339815191526020820152905162461bcd60e51b81526104f79190600401615369565b87868861478e8583615a01565b9261479b93929190615a4d565b8080601f01602080910402602001604051908101604052809392919081815260200183838082843760009201919091525050505060408601526147de8287615a01565b9550866147ec876004615a01565b111561482b5760408051808201825260178152600080516020615b118339815191526020820152905162461bcd60e51b81526104f79190600401615369565b878688614839826004615a01565b9261484693929190615a4d565b61484f91615a77565b60e01c6060860152614862600487615a01565b95508461486f8488615513565b94509450505050935093915050565b604080518082019091526000815260606020820152600082846148a2826008615a01565b11156148e15760408051808201825260178152600080516020615b118339815191526020820152905162461bcd60e51b81526104f79190600401615369565b8584866148ef826008615a01565b926148fc93929190615a4d565b61490591615ae2565b60c01c8352614915600885615a01565b935060008061492588888861435e565b90925090506149348187615a01565b9550866149418388615a01565b11156149805760408051808201825260178152600080516020615b118339815191526020820152905162461bcd60e51b81526104f79190600401615369565b87868861498d8583615a01565b9261499a93929190615a4d565b8080601f01602080910402602001604051908101604052809392919081815260200183838082843760009201919091525050505060208601526148628287615a01565b81516000906149ed836002615a01565b1115614a4b5760405162461bcd60e51b815260206004820152602760248201527f4254435574696c733a20696e73756666696369656e7420627974657320666f72604482015266103ab4b73a189b60c91b60648201526084016104f7565b828281518110614a5d57614a5d615617565b016020015160f81c600884614a73856001615a01565b81518110614a8357614a83615617565b016020015160f81c901b17905092915050565b8151600090614aa6836004615a01565b1115614b045760405162461bcd60e51b815260206004820152602760248201527f4254435574696c733a20696e73756666696369656e7420627974657320666f72604482015266103ab4b73a199960c91b60648201526084016104f7565b828281518110614b1657614b16615617565b016020015160f81c600884614b2c856001615a01565b81518110614b3c57614b3c615617565b016020015160f81c901b601085614b54866002615a01565b81518110614b6457614b64615617565b016020015160f81c901b601886614b7c876003615a01565b81518110614b8c57614b8c615617565b016020015160f81c901b171717905092915050565b8151600090614bb1836008615a01565b1115614c0f5760405162461bcd60e51b815260206004820152602760248201527f4254435574696c733a20696e73756666696369656e7420627974657320666f72604482015266081d5a5b9d0d8d60ca1b60648201526084016104f7565b828281518110614c2157614c21615617565b016020015160f81c600884614c37856001615a01565b81518110614c4757614c47615617565b016020015160f81c901b601085614c5f866002615a01565b81518110614c6f57614c6f615617565b016020015160f81c901b601886614c87876003615a01565b81518110614c9757614c97615617565b0160209081015160f81c90911b9087614cb1886004615a01565b81518110614cc157614cc1615617565b016020015160f81c901b602888614cd9896005615a01565b81518110614ce957614ce9615617565b016020015160f81c901b603089614d018a6006615a01565b81518110614d1157614d11615617565b016020015160f81c901b60388a614d298b6007615a01565b81518110614d3957614d39615617565b016020015160f81c901b17171717171717905092915050565b60408051610180810182526000808252602082018190529181018290526060808201839052608082015260a081018290529060c08201908152602001600081526020016060815260200160006001600160a01b0316815260200160006001600160a01b03168152602001606081525090565b50805460008255600402906000526020600020908101906129fb91905b80821115614e1a57600080825560018201805463ffffffff19169055614e0a6002830182614e1e565b5060006003820155600401614de1565b5090565b508054614e2a9061537c565b6000825580601f10614e3a575050565b601f0160209004906000526020600020908101906129fb91905b80821115614e1a5760008155600101614e54565b6001600160a01b03811681146129fb57600080fd5b600060208284031215614e8f57600080fd5b813561301d81614e68565b600060208284031215614eac57600080fd5b5035919050565b60005b83811015614ece578181015183820152602001614eb6565b50506000910152565b60008151808452614eef816020860160208601614eb3565b601f01601f19169290920160200192915050565b634e487b7160e01b600052602160045260246000fd5b60068110614f3757634e487b7160e01b600052602160045260246000fd5b9052565b600082825180855260208086019550808260051b84010181860160005b84811015614fb857601f19868403018952815160808151855263ffffffff8683015116868601526040808301518282880152614f9683880182614ed7565b6060948501519790940196909652505098840198925090830190600101614f58565b5090979650505050505050565b60208152614fdf6020820183516001600160a01b03169052565b60006020830151614ffb60408401826001600160a01b03169052565b50604083015160608301526060830151608083015260808301516101808060a085015261502c6101a0850183614ed7565b915060a085015160c085015260c085015161504a60e0860182614f19565b5060e0850151610100818187015280870151915050601f196101208187860301818801526150788584614ed7565b945080880151925050610140615098818801846001600160a01b03169052565b87015191506101606150b4878201846001600160a01b03169052565b8701518685039091018387015290506150cd8382614f3b565b9695505050505050565b60008083601f8401126150e957600080fd5b5081356001600160401b0381111561510057600080fd5b602083019150836020828501011115612f2657600080fd5b60008060006040848603121561512d57600080fd5b8335925060208401356001600160401b0381111561514a57600080fd5b615156868287016150d7565b9497909650939450505050565b600061016060018060a01b03808f168452808e1660208501528c60408501528b606085015281608085015261519a8285018c614ed7565b91508960a08501526151af60c085018a614f19565b8760e08501528382036101008501526151c88288614ed7565b925080861661012085015280851661014085015250509c9b505050505050505050505050565b60008060008060006080868803121561520657600080fd5b85356001600160401b038082111561521d57600080fd5b818801915088601f83011261523157600080fd5b81358181111561524057600080fd5b8960208260051b850101111561525557600080fd5b6020928301975095505086013561526b81614e68565b925060408601359150606086013561528281614e68565b809150509295509295909350565b600080604083850312156152a357600080fd5b8235915060208301356152b581614e68565b809150509250929050565b6000806000606084860312156152d557600080fd5b83356152e081614e68565b925060208401356152f081614e68565b9150604084013561530081614e68565b809150509250925092565b6000806000806060858703121561532157600080fd5b8435935060208501356001600160401b0381111561533e57600080fd5b61534a878288016150d7565b909450925050604085013561535e81614e68565b939692955090935050565b60208152600061301d6020830184614ed7565b600181811c9082168061539057607f821691505b6020821081036153b057634e487b7160e01b600052602260045260246000fd5b50919050565b6000602082840312156153c857600080fd5b8151801515811461301d57600080fd5b634e487b7160e01b600052604160045260246000fd5b601f82111561543857600081815260208120601f850160051c810160208610156154155750805b601f850160051c820191505b8181101561543457828155600101615421565b5050505b505050565b6001600160401b03831115615454576154546153d8565b61546883615462835461537c565b836153ee565b6000601f84116001811461549c57600085156154845750838201355b600019600387901b1c1916600186901b1783556154f6565b600083815260209020601f19861690835b828110156154cd57868501358255602094850194600190920191016154ad565b50868210156154ea5760001960f88860031b161c19848701351681555b505060018560011b0183555b5050505050565b634e487b7160e01b600052601160045260246000fd5b818103818111156120f0576120f06154fd565b60006020828403121561553857600080fd5b5051919050565b600060018201615551576155516154fd565b5060010190565b81516001600160401b03811115615571576155716153d8565b6155858161557f845461537c565b846153ee565b602080601f8311600181146155ba57600084156155a25750858301515b600019600386901b1c1916600185901b178555615434565b600085815260208120601f198616915b828110156155e9578886015182559484019460019091019084016155ca565b50858210156156075787850151600019600388901b60f8161c191681555b5050505050600190811b01905550565b634e487b7160e01b600052603260045260246000fd5b60008235607e1983360301811261564357600080fd5b9190910192915050565b8135815560018101602083013563ffffffff811680821461566d57600080fd5b825463ffffffff19161790915550604082013536839003601e1901811261569357600080fd5b820180356001600160401b038111156156ab57600080fd5b6020820191508036038213156156c057600080fd5b6156ce81836002860161543d565b5050606082013560038201555050565b60405161022081016001600160401b0381118282101715615701576157016153d8565b60405290565b604051601f8201601f191681016001600160401b038111828210171561572f5761572f6153d8565b604052919050565b80516140f381614e68565b8051600581106140f357600080fd5b600082601f83011261576257600080fd5b815160206001600160401b0382111561577d5761577d6153d8565b8160051b61578c828201615707565b92835284810182019282810190878511156157a657600080fd5b83870192505b848310156157c5578251825291830191908301906157ac565b979650505050505050565b600082601f8301126157e157600080fd5b81516001600160401b038111156157fa576157fa6153d8565b61580d601f8201601f1916602001615707565b81815284602083860101111561582257600080fd5b615833826020830160208701614eb3565b949350505050565b60006020828403121561584d57600080fd5b81516001600160401b038082111561586457600080fd5b90830190610220828603121561587957600080fd5b6158816156de565b61588a83615737565b815260208301516020820152604083015160408201526158ac60608401615742565b60608201526080830151608082015260a083015160a08201526158d160c08401615737565b60c08201526158e260e08401615737565b60e082015261010080840151838111156158fb57600080fd5b61590788828701615751565b82840152505061012061591b818501615737565b90820152610140838101518381111561593357600080fd5b61593f888287016157d0565b828401525050610160808401518381111561595957600080fd5b615965888287016157d0565b8284015250506101808084015181830152506101a0808401518381111561598b57600080fd5b615997888287016157d0565b8284015250506101c080840151838111156159b157600080fd5b6159bd888287016157d0565b8284015250506101e091506159d3828401615737565b9181019190915261020091820151918101919091529392505050565b60008251615643818460208701614eb3565b808201808211156120f0576120f06154fd565b80820281158282048414176120f0576120f06154fd565b600082615a4857634e487b7160e01b600052601260045260246000fd5b500490565b60008085851115615a5d57600080fd5b83861115615a6a57600080fd5b5050820193919092039150565b6001600160e01b03198135818116916004851015615a9f5780818660040360031b1b83161692505b505092915050565b600060208284031215615ab957600080fd5b815161301d81614e68565b803560208310156120f057600019602084900360031b1b1692915050565b6001600160c01b03198135818116916008851015615a9f5760089490940360031b84901b169092169291505056fe496e76616c696420425443207472616e73616374696f6e0000000000000000009b779b17422d0df92223018b32b4d1fa46e071723d6817e2486d003becc55f00a2646970667358221220e11f5114ac7e639b2516676a4e9842fe0ecf15ba2276f6bb594e4cd83348285064736f6c63430008140033",
  "linkReferences": {},
  "deployedLinkReferences": {}
}