{
  "_format": "hh-sol-artifact-1",
  "contractName": "TransactionManager",
  "sourceName": "contracts/core/TransactionManager.sol",
  "abi": [
    {
      "inputs": [],
      "stateMutability": "nonpayable",
      "type": "constructor"
    },
    {
      "inputs": [],
      "name": "InvalidInitialization",
      "type": "error"
    },
    {
      "inputs": [],
      "name": "NotInitializing",
      "type": "error"
    },
    {
      "inputs": [
        {
          "internalType": "address",
          "name": "owner",
          "type": "address"
        }
      ],
      "name": "OwnableInvalidOwner",
      "type": "error"
    },
    {
      "inputs": [
        {
          "internalType": "address",
          "name": "account",
          "type": "address"
        }
      ],
      "name": "OwnableUnauthorizedAccount",
      "type": "error"
    },
    {
      "inputs": [],
      "name": "ReentrancyGuardReentrantCall",
      "type": "error"
    },
    {
      "anonymous": false,
      "inputs": [
        {
          "indexed": true,
          "internalType": "bytes32",
          "name": "txId",
          "type": "bytes32"
        },
        {
          "indexed": true,
          "internalType": "address",
          "name": "dapp",
          "type": "address"
        },
        {
          "indexed": false,
          "internalType": "address",
          "name": "arbitrator",
          "type": "address"
        },
        {
          "indexed": false,
          "internalType": "bytes",
          "name": "btcTx",
          "type": "bytes"
        },
        {
          "indexed": false,
          "internalType": "bytes",
          "name": "script",
          "type": "bytes"
        },
        {
          "indexed": false,
          "internalType": "address",
          "name": "timeoutCompensationReceiver",
          "type": "address"
        }
      ],
      "name": "ArbitrationRequested",
      "type": "event"
    },
    {
      "anonymous": false,
      "inputs": [
        {
          "indexed": true,
          "internalType": "bytes32",
          "name": "txId",
          "type": "bytes32"
        },
        {
          "indexed": true,
          "internalType": "address",
          "name": "dapp",
          "type": "address"
        },
        {
          "indexed": true,
          "internalType": "address",
          "name": "arbitrator",
          "type": "address"
        },
        {
          "indexed": false,
          "internalType": "bytes",
          "name": "btcTxSignature",
          "type": "bytes"
        }
      ],
      "name": "ArbitrationSubmitted",
      "type": "event"
    },
    {
      "anonymous": false,
      "inputs": [
        {
          "indexed": false,
          "internalType": "uint64",
          "name": "version",
          "type": "uint64"
        }
      ],
      "name": "Initialized",
      "type": "event"
    },
    {
      "anonymous": false,
      "inputs": [
        {
          "indexed": true,
          "internalType": "address",
          "name": "previousOwner",
          "type": "address"
        },
        {
          "indexed": true,
          "internalType": "address",
          "name": "newOwner",
          "type": "address"
        }
      ],
      "name": "OwnershipTransferred",
      "type": "event"
    },
    {
      "anonymous": false,
      "inputs": [
        {
          "indexed": true,
          "internalType": "address",
          "name": "arbitratorManager",
          "type": "address"
        }
      ],
      "name": "SetArbitratorManager",
      "type": "event"
    },
    {
      "anonymous": false,
      "inputs": [
        {
          "indexed": true,
          "internalType": "bytes32",
          "name": "txId",
          "type": "bytes32"
        },
        {
          "indexed": true,
          "internalType": "address",
          "name": "dapp",
          "type": "address"
        }
      ],
      "name": "TransactionCompleted",
      "type": "event"
    },
    {
      "anonymous": false,
      "inputs": [
        {
          "indexed": true,
          "internalType": "bytes32",
          "name": "id",
          "type": "bytes32"
        },
        {
          "indexed": true,
          "internalType": "address",
          "name": "dapp",
          "type": "address"
        },
        {
          "indexed": true,
          "internalType": "address",
          "name": "arbitrator",
          "type": "address"
        },
        {
          "indexed": false,
          "internalType": "uint256",
          "name": "deadline",
          "type": "uint256"
        },
        {
          "indexed": false,
          "internalType": "uint256",
          "name": "depositFee",
          "type": "uint256"
        },
        {
          "indexed": false,
          "internalType": "address",
          "name": "compensationReceiver",
          "type": "address"
        }
      ],
      "name": "TransactionRegistered",
      "type": "event"
    },
    {
      "anonymous": false,
      "inputs": [
        {
          "indexed": true,
          "internalType": "bytes32",
          "name": "txId",
          "type": "bytes32"
        },
        {
          "indexed": true,
          "internalType": "address",
          "name": "dapp",
          "type": "address"
        }
      ],
      "name": "UTXOsUploaded",
      "type": "event"
    },
    {
      "inputs": [],
      "name": "arbitratorManager",
      "outputs": [
        {
          "internalType": "contract IArbitratorManager",
          "name": "",
          "type": "address"
        }
      ],
      "stateMutability": "view",
      "type": "function"
    },
    {
      "inputs": [],
      "name": "compensationManager",
      "outputs": [
        {
          "internalType": "address",
          "name": "",
          "type": "address"
        }
      ],
      "stateMutability": "view",
      "type": "function"
    },
    {
      "inputs": [
        {
          "internalType": "bytes32",
          "name": "id",
          "type": "bytes32"
        }
      ],
      "name": "completeTransaction",
      "outputs": [],
      "stateMutability": "nonpayable",
      "type": "function"
    },
    {
      "inputs": [
        {
          "internalType": "bytes32",
          "name": "id",
          "type": "bytes32"
        },
        {
          "internalType": "address",
          "name": "receivedCompensationAddress",
          "type": "address"
        }
      ],
      "name": "completeTransactionWithSlash",
      "outputs": [],
      "stateMutability": "nonpayable",
      "type": "function"
    },
    {
      "inputs": [],
      "name": "configManager",
      "outputs": [
        {
          "internalType": "contract ConfigManager",
          "name": "",
          "type": "address"
        }
      ],
      "stateMutability": "view",
      "type": "function"
    },
    {
      "inputs": [],
      "name": "dappRegistry",
      "outputs": [
        {
          "internalType": "contract IDAppRegistry",
          "name": "",
          "type": "address"
        }
      ],
      "stateMutability": "view",
      "type": "function"
    },
    {
      "inputs": [
        {
          "internalType": "uint256",
          "name": "deadline",
          "type": "uint256"
        },
        {
          "internalType": "address",
          "name": "arbitrator",
          "type": "address"
        }
      ],
      "name": "getRegisterTransactionFee",
      "outputs": [
        {
          "internalType": "uint256",
          "name": "fee",
          "type": "uint256"
        }
      ],
      "stateMutability": "view",
      "type": "function"
    },
    {
      "inputs": [
        {
          "internalType": "bytes32",
          "name": "txHash",
          "type": "bytes32"
        }
      ],
      "name": "getTransaction",
      "outputs": [
        {
          "components": [
            {
              "internalType": "address",
              "name": "dapp",
              "type": "address"
            },
            {
              "internalType": "address",
              "name": "arbitrator",
              "type": "address"
            },
            {
              "internalType": "uint256",
              "name": "startTime",
              "type": "uint256"
            },
            {
              "internalType": "uint256",
              "name": "requestArbitrationTime",
              "type": "uint256"
            },
            {
              "internalType": "uint256",
              "name": "deadline",
              "type": "uint256"
            },
            {
              "internalType": "bytes",
              "name": "btcTx",
              "type": "bytes"
            },
            {
              "internalType": "bytes32",
              "name": "btcTxHash",
              "type": "bytes32"
            },
            {
              "internalType": "enum DataTypes.TransactionStatus",
              "name": "status",
              "type": "uint8"
            },
            {
              "internalType": "uint256",
              "name": "depositedFee",
              "type": "uint256"
            },
            {
              "internalType": "bytes",
              "name": "signature",
              "type": "bytes"
            },
            {
              "internalType": "address",
              "name": "compensationReceiver",
              "type": "address"
            },
            {
              "internalType": "address",
              "name": "timeoutCompensationReceiver",
              "type": "address"
            },
            {
              "components": [
                {
                  "internalType": "bytes32",
                  "name": "txHash",
                  "type": "bytes32"
                },
                {
                  "internalType": "uint32",
                  "name": "index",
                  "type": "uint32"
                },
                {
                  "internalType": "bytes",
                  "name": "script",
                  "type": "bytes"
                },
                {
                  "internalType": "uint256",
                  "name": "amount",
                  "type": "uint256"
                }
              ],
              "internalType": "struct DataTypes.UTXO[]",
              "name": "utxos",
              "type": "tuple[]"
            },
            {
              "internalType": "bytes",
              "name": "script",
              "type": "bytes"
            }
          ],
          "internalType": "struct DataTypes.Transaction",
          "name": "",
          "type": "tuple"
        }
      ],
      "stateMutability": "view",
      "type": "function"
    },
    {
      "inputs": [
        {
          "internalType": "bytes32",
          "name": "id",
          "type": "bytes32"
        }
      ],
      "name": "getTransactionById",
      "outputs": [
        {
          "components": [
            {
              "internalType": "address",
              "name": "dapp",
              "type": "address"
            },
            {
              "internalType": "address",
              "name": "arbitrator",
              "type": "address"
            },
            {
              "internalType": "uint256",
              "name": "startTime",
              "type": "uint256"
            },
            {
              "internalType": "uint256",
              "name": "requestArbitrationTime",
              "type": "uint256"
            },
            {
              "internalType": "uint256",
              "name": "deadline",
              "type": "uint256"
            },
            {
              "internalType": "bytes",
              "name": "btcTx",
              "type": "bytes"
            },
            {
              "internalType": "bytes32",
              "name": "btcTxHash",
              "type": "bytes32"
            },
            {
              "internalType": "enum DataTypes.TransactionStatus",
              "name": "status",
              "type": "uint8"
            },
            {
              "internalType": "uint256",
              "name": "depositedFee",
              "type": "uint256"
            },
            {
              "internalType": "bytes",
              "name": "signature",
              "type": "bytes"
            },
            {
              "internalType": "address",
              "name": "compensationReceiver",
              "type": "address"
            },
            {
              "internalType": "address",
              "name": "timeoutCompensationReceiver",
              "type": "address"
            },
            {
              "components": [
                {
                  "internalType": "bytes32",
                  "name": "txHash",
                  "type": "bytes32"
                },
                {
                  "internalType": "uint32",
                  "name": "index",
                  "type": "uint32"
                },
                {
                  "internalType": "bytes",
                  "name": "script",
                  "type": "bytes"
                },
                {
                  "internalType": "uint256",
                  "name": "amount",
                  "type": "uint256"
                }
              ],
              "internalType": "struct DataTypes.UTXO[]",
              "name": "utxos",
              "type": "tuple[]"
            },
            {
              "internalType": "bytes",
              "name": "script",
              "type": "bytes"
            }
          ],
          "internalType": "struct DataTypes.Transaction",
          "name": "",
          "type": "tuple"
        }
      ],
      "stateMutability": "view",
      "type": "function"
    },
    {
      "inputs": [
        {
          "internalType": "address",
          "name": "_arbitratorManager",
          "type": "address"
        },
        {
          "internalType": "address",
          "name": "_dappRegistry",
          "type": "address"
        },
        {
          "internalType": "address",
          "name": "_configManager",
          "type": "address"
        },
        {
          "internalType": "address",
          "name": "_compensationManager",
          "type": "address"
        }
      ],
      "name": "initialize",
      "outputs": [],
      "stateMutability": "nonpayable",
      "type": "function"
    },
    {
      "inputs": [
        {
          "internalType": "bytes32",
          "name": "id",
          "type": "bytes32"
        }
      ],
      "name": "isAbleCompletedTransaction",
      "outputs": [
        {
          "internalType": "bool",
          "name": "",
          "type": "bool"
        }
      ],
      "stateMutability": "view",
      "type": "function"
    },
    {
      "inputs": [],
      "name": "owner",
      "outputs": [
        {
          "internalType": "address",
          "name": "",
          "type": "address"
        }
      ],
      "stateMutability": "view",
      "type": "function"
    },
    {
      "inputs": [
        {
          "internalType": "address",
          "name": "arbitrator",
          "type": "address"
        },
        {
          "internalType": "uint256",
          "name": "deadline",
          "type": "uint256"
        },
        {
          "internalType": "address",
          "name": "compensationReceiver",
          "type": "address"
        }
      ],
      "name": "registerTransaction",
      "outputs": [
        {
          "internalType": "bytes32",
          "name": "",
          "type": "bytes32"
        }
      ],
      "stateMutability": "payable",
      "type": "function"
    },
    {
      "inputs": [],
      "name": "renounceOwnership",
      "outputs": [],
      "stateMutability": "nonpayable",
      "type": "function"
    },
    {
      "inputs": [
        {
          "internalType": "bytes32",
          "name": "id",
          "type": "bytes32"
        },
        {
          "internalType": "bytes",
          "name": "btcTx",
          "type": "bytes"
        },
        {
          "internalType": "bytes",
          "name": "script",
          "type": "bytes"
        },
        {
          "internalType": "address",
          "name": "timeoutCompensationReceiver",
          "type": "address"
        }
      ],
      "name": "requestArbitration",
      "outputs": [],
      "stateMutability": "nonpayable",
      "type": "function"
    },
    {
      "inputs": [
        {
          "internalType": "address",
          "name": "_arbitratorManager",
          "type": "address"
        }
      ],
      "name": "setArbitratorManager",
      "outputs": [],
      "stateMutability": "nonpayable",
      "type": "function"
    },
    {
      "inputs": [
        {
          "internalType": "bytes32",
          "name": "id",
          "type": "bytes32"
        },
        {
          "internalType": "bytes",
          "name": "btcTxSignature",
          "type": "bytes"
        }
      ],
      "name": "submitArbitration",
      "outputs": [],
      "stateMutability": "nonpayable",
      "type": "function"
    },
    {
      "inputs": [
        {
          "internalType": "bytes32",
          "name": "",
          "type": "bytes32"
        }
      ],
      "name": "transactions",
      "outputs": [
        {
          "internalType": "address",
          "name": "dapp",
          "type": "address"
        },
        {
          "internalType": "address",
          "name": "arbitrator",
          "type": "address"
        },
        {
          "internalType": "uint256",
          "name": "startTime",
          "type": "uint256"
        },
        {
          "internalType": "uint256",
          "name": "requestArbitrationTime",
          "type": "uint256"
        },
        {
          "internalType": "uint256",
          "name": "deadline",
          "type": "uint256"
        },
        {
          "internalType": "bytes",
          "name": "btcTx",
          "type": "bytes"
        },
        {
          "internalType": "bytes32",
          "name": "btcTxHash",
          "type": "bytes32"
        },
        {
          "internalType": "enum DataTypes.TransactionStatus",
          "name": "status",
          "type": "uint8"
        },
        {
          "internalType": "uint256",
          "name": "depositedFee",
          "type": "uint256"
        },
        {
          "internalType": "bytes",
          "name": "signature",
          "type": "bytes"
        },
        {
          "internalType": "address",
          "name": "compensationReceiver",
          "type": "address"
        },
        {
          "internalType": "address",
          "name": "timeoutCompensationReceiver",
          "type": "address"
        },
        {
          "internalType": "bytes",
          "name": "script",
          "type": "bytes"
        }
      ],
      "stateMutability": "view",
      "type": "function"
    },
    {
      "inputs": [
        {
          "internalType": "bytes32",
          "name": "id",
          "type": "bytes32"
        }
      ],
      "name": "transferArbitrationFee",
      "outputs": [
        {
          "internalType": "uint256",
          "name": "arbitratorFee",
          "type": "uint256"
        },
        {
          "internalType": "uint256",
          "name": "systemFee",
          "type": "uint256"
        }
      ],
      "stateMutability": "nonpayable",
      "type": "function"
    },
    {
      "inputs": [
        {
          "internalType": "address",
          "name": "newOwner",
          "type": "address"
        }
      ],
      "name": "transferOwnership",
      "outputs": [],
      "stateMutability": "nonpayable",
      "type": "function"
    },
    {
      "inputs": [
        {
          "internalType": "bytes32",
          "name": "",
          "type": "bytes32"
        }
      ],
      "name": "txHashToId",
      "outputs": [
        {
          "internalType": "bytes32",
          "name": "",
          "type": "bytes32"
        }
      ],
      "stateMutability": "view",
      "type": "function"
    },
    {
      "inputs": [
        {
          "internalType": "bytes32",
          "name": "id",
          "type": "bytes32"
        },
        {
          "components": [
            {
              "internalType": "bytes32",
              "name": "txHash",
              "type": "bytes32"
            },
            {
              "internalType": "uint32",
              "name": "index",
              "type": "uint32"
            },
            {
              "internalType": "bytes",
              "name": "script",
              "type": "bytes"
            },
            {
              "internalType": "uint256",
              "name": "amount",
              "type": "uint256"
            }
          ],
          "internalType": "struct DataTypes.UTXO[]",
          "name": "utxos",
          "type": "tuple[]"
        }
      ],
      "name": "uploadUTXOs",
      "outputs": [],
      "stateMutability": "nonpayable",
      "type": "function"
    }
  ],
  "bytecode": "0x60806040523480156200001157600080fd5b506200001c62000022565b620000d6565b7ff0c57e16840df040f15088dc2f81fe391c3923bec73e23a9662efc9c229c6a00805468010000000000000000900460ff1615620000735760405163f92ee8a960e01b815260040160405180910390fd5b80546001600160401b0390811614620000d35780546001600160401b0319166001600160401b0390811782556040519081527fc7f505b2f371ae2175ee4913f4499e1f2633a7b5936321eed1cdaeb6115181d29060200160405180910390a15b50565b615f9080620000e66000396000f3fe6080604052600436106101355760003560e01c8063759787c4116100ab578063c1ce47d21161006f578063c1ce47d2146103b7578063ca0ab075146103e4578063d09d03a314610404578063de0ca16614610424578063f2fde38b14610444578063f8c8765e1461046457600080fd5b8063759787c4146102fa5780638da5cb5b1461031a578063a130312a14610357578063a715719014610377578063a890b7b41461039757600080fd5b80634aae13ca116100fd5780634aae13ca146101fa5780634e4f0ec414610227578063520936b514610247578063642f2eaf14610277578063715018a6146102b05780637577b6df146102c557600080fd5b80630433e9041461013a5780630559b8771461015c5780630f6f9a1e146101995780631613f25b146101b95780632c7e8ca3146101da575b600080fd5b34801561014657600080fd5b5061015a61015536600461528d565b610484565b005b34801561016857600080fd5b5060065461017c906001600160a01b031681565b6040516001600160a01b0390911681526020015b60405180910390f35b3480156101a557600080fd5b5061015a6101b4366004615318565b6108fd565b6101cc6101c7366004615396565b610aac565b604051908152602001610190565b3480156101e657600080fd5b5061015a6101f53660046153d8565b611108565b34801561020657600080fd5b5061021a6102153660046153f5565b611158565b604051610190919061551d565b34801561023357600080fd5b5061015a61024236600461565c565b61150e565b34801561025357600080fd5b506102676102623660046153f5565b611ab6565b6040519015158152602001610190565b34801561028357600080fd5b506102976102923660046153f5565b611ef2565b6040516101909d9c9b9a999897969594939291906156a7565b3480156102bc57600080fd5b5061015a612115565b3480156102d157600080fd5b506102e56102e03660046153f5565b612129565b60408051928352602083019190915201610190565b34801561030657600080fd5b5060005461017c906001600160a01b031681565b34801561032657600080fd5b507f9016d09d72d40fdae2fd8ceac6b6234c7706214fd39c1cd1e609a0528c199300546001600160a01b031661017c565b34801561036357600080fd5b5061015a6103723660046153f5565b61228b565b34801561038357600080fd5b506101cc61039236600461575c565b61237f565b3480156103a357600080fd5b5061021a6103b23660046153f5565b612654565b3480156103c357600080fd5b506101cc6103d23660046153f5565b60046020526000908152604090205481565b3480156103f057600080fd5b5060025461017c906001600160a01b031681565b34801561041057600080fd5b5061015a61041f36600461575c565b61295f565b34801561043057600080fd5b5060015461017c906001600160a01b031681565b34801561045057600080fd5b5061015a61045f3660046153d8565b612b81565b34801561047057600080fd5b5061015a61047f36600461578c565b612bbf565b61048c612d98565b6001600160a01b0381166104d357604080518082018252600281526105a360f41b6020820152905162461bcd60e51b81526104ca91906004016157e8565b60405180910390fd5b600086815260036020526040812090600782015460ff1660038111156104fb576104fb61545e565b146105305760408051808201825260028152612a1960f11b6020820152905162461bcd60e51b81526104ca91906004016157e8565b80546001600160a01b0316331461057157604080518082018252600281526104e360f41b6020820152905162461bcd60e51b81526104ca91906004016157e8565b600c8101546000036105ad576040805180820182526002815261553360f01b6020820152905162461bcd60e51b81526104ca91906004016157e8565b8060040154600260009054906101000a90046001600160a01b03166001600160a01b0316632b6f600d6040518163ffffffff1660e01b8152600401602060405180830381865afa158015610605573d6000803e3d6000fd5b505050506040513d601f19601f8201168201806040525081019061062991906157fb565b610633904261582a565b1115610669576040805180820182526002815261553760f01b6020820152905162461bcd60e51b81526104ca91906004016157e8565b60006106758787612dd0565b600c830154602082015151919250146106b8576040805180820182526002815261553160f01b6020820152905162461bcd60e51b81526104ca91906004016157e8565b60005b8160200151518110156107be5782600c0181815481106106dd576106dd61583d565b906000526020600020906004020160000154826020015182815181106107055761070561583d565b602002602001015160000151141580610777575082600c01818154811061072e5761072e61583d565b60009182526020918290206001600490920201015490830151805163ffffffff90921691839081106107625761076261583d565b60200260200101516020015163ffffffff1614155b156107ac576040805180820182526002815261553160f01b6020820152905162461bcd60e51b81526104ca91906004016157e8565b806107b681615853565b9150506106bb565b50600060026107cc83612fc0565b6040516107d9919061586c565b602060405180830381855afa1580156107f6573d6000803e3d6000fd5b5050506040513d601f19601f8201168201806040525081019061081991906157fb565b60078401805460ff19166002179055905060058301610839888a83615923565b5060068301819055600b830180546001600160a01b0319166001600160a01b038616179055600d830161086d868883615923565b50426003840155600081815260046020526040908190208a90556001840154905133918b917f81c89bbce5115bf315ea29f7001ebabb88f6d3e4d76132bf792f2085799ed0e4916108d3916001600160a01b03909116908d908d908d908d908d90615a0c565b60405180910390a35050506108f56001600080516020615f3b83398151915255565b505050505050565b6000819003610936576040805180820182526002815261055360f41b6020820152905162461bcd60e51b81526104ca91906004016157e8565b600083815260036020526040812090600782015460ff16600381111561095e5761095e61545e565b146109935760408051808201825260028152612a1960f11b6020820152905162461bcd60e51b81526104ca91906004016157e8565b80546001600160a01b031633146109d457604080518082018252600281526104e360f41b6020820152905162461bcd60e51b81526104ca91906004016157e8565b600c81015415610a0e5760408051808201825260028152612a9960f11b6020820152905162461bcd60e51b81526104ca91906004016157e8565b60005b82811015610a785781600c01848483818110610a2f57610a2f61583d565b9050602002810190610a419190615a59565b815460018101835560009283526020909220909160040201610a638282615a6f565b50508080610a7090615853565b915050610a11565b50604051339085907fbe870ee46d1946169135a006725f4beb7bf05701d38e45b8d0e55892fabff1d990600090a350505050565b6000610ab6612d98565b6001600160a01b0384161580610ad357506001600160a01b038216155b15610b0857604080518082018252600281526105a360f41b6020820152905162461bcd60e51b81526104ca91906004016157e8565b60015460405163682dc82b60e11b81523360048201526001600160a01b039091169063d05b905690602401602060405180830381865afa158015610b50573d6000803e3d6000fd5b505050506040513d601f19601f82011682018060405250810190610b749190615b10565b610ba8576040805180820182526002815261221960f11b6020820152905162461bcd60e51b81526104ca91906004016157e8565b600054604051631c569df760e31b81526001600160a01b0386811660048301529091169063e2b4efb890602401602060405180830381865afa158015610bf2573d6000803e3d6000fd5b505050506040513d601f19601f82011682018060405250810190610c169190615b10565b610c4a576040805180820182526002815261413360f01b6020820152905162461bcd60e51b81526104ca91906004016157e8565b428311610c81576040805180820182526002815261543360f01b6020820152905162461bcd60e51b81526104ca91906004016157e8565b6000610c8d4285615b2b565b60025460408051631c8c542360e11b815290519293506001600160a01b0390911691636dd5b69d918391633918a846916004808201926020929091908290030181865afa158015610ce2573d6000803e3d6000fd5b505050506040513d601f19601f82011682018060405250810190610d0691906157fb565b6040518263ffffffff1660e01b8152600401610d2491815260200190565b602060405180830381865afa158015610d41573d6000803e3d6000fd5b505050506040513d601f19601f82011682018060405250810190610d6591906157fb565b811080610e455750600254604080516358d0b14760e01b815290516001600160a01b0390921691636dd5b69d9183916358d0b147916004808201926020929091908290030181865afa158015610dbf573d6000803e3d6000fd5b505050506040513d601f19601f82011682018060405250810190610de391906157fb565b6040518263ffffffff1660e01b8152600401610e0191815260200190565b602060405180830381865afa158015610e1e573d6000803e3d6000fd5b505050506040513d601f19601f82011682018060405250810190610e4291906157fb565b81115b15610e7a576040805180820182526002815261493160f01b6020820152905162461bcd60e51b81526104ca91906004016157e8565b604051630a71571960e41b8152600481018590526001600160a01b0386166024820152600090309063a715719090604401602060405180830381865afa158015610ec8573d6000803e3d6000fd5b505050506040513d601f19601f82011682018060405250810190610eec91906157fb565b905080600003610f26576040805180820182526002815261150d60f21b6020820152905162461bcd60e51b81526104ca91906004016157e8565b80341015610f5e576040805180820182526002815261543560f01b6020820152905162461bcd60e51b81526104ca91906004016157e8565b600042338860056000815480929190610f7690615853565b909155506040805160208101959095526bffffffffffffffffffffffff19606094851b8116918601919091529190921b166054830152606882015260880160408051808303601f190181529082905280516020909101206000546315969bed60e11b83526001600160a01b038a81166004850152602484018390529193501690632b2d37da90604401600060405180830381600087803b15801561101957600080fd5b505af115801561102d573d6000803e3d6000fd5b50505060008281526003602090815260409182902080546001600160a01b03199081163390811783556001830180546001600160a01b038f81169185168217909255426002860155600485018e905560078501805460ff191690553460088601819055600a86018054938f1693909516831790945586518e815295860193909352848601529351919450929185917feb31e9cc08e6aec1724c65bd618ab8709af006b0972f1a04bba0fe0b0192142e9181900360600190a450925050506111016001600080516020615f3b83398151915255565b9392505050565b6111106136a9565b600080546001600160a01b0319166001600160a01b038316908117825560405190917fa323f9f93bbee02edb5e1034969f6ef41fb674527d2ea7e9271ad206435b58f491a250565b6111606151b7565b600082815260046020818152604080842054845260038083529381902081516101c08101835281546001600160a01b0390811682526001830154169381019390935260028101549183019190915292830154606082015290820154608082015260058201805491929160a0840191906111d89061589e565b80601f01602080910402602001604051908101604052809291908181526020018280546112049061589e565b80156112515780601f1061122657610100808354040283529160200191611251565b820191906000526020600020905b81548152906001019060200180831161123457829003601f168201915b505050918352505060068201546020820152600782015460409091019060ff1660038111156112825761128261545e565b60038111156112935761129361545e565b8152602001600882015481526020016009820180546112b19061589e565b80601f01602080910402602001604051908101604052809291908181526020018280546112dd9061589e565b801561132a5780601f106112ff5761010080835404028352916020019161132a565b820191906000526020600020905b81548152906001019060200180831161130d57829003601f168201915b5050509183525050600a8201546001600160a01b03908116602080840191909152600b840154909116604080840191909152600c84018054825181850281018501909352808352606090940193919290919060009084015b8282101561146d576000848152602090819020604080516080810182526004860290920180548352600181015463ffffffff1693830193909352600283018054929392918401916113d29061589e565b80601f01602080910402602001604051908101604052809291908181526020018280546113fe9061589e565b801561144b5780601f106114205761010080835404028352916020019161144b565b820191906000526020600020905b81548152906001019060200180831161142e57829003601f168201915b5050505050815260200160038201548152505081526020019060010190611382565b505050508152602001600d820180546114859061589e565b80601f01602080910402602001604051908101604052809291908181526020018280546114b19061589e565b80156114fe5780601f106114d3576101008083540402835291602001916114fe565b820191906000526020600020905b8154815290600101906020018083116114e157829003601f168201915b5050505050815250509050919050565b60008381526003602052604090206002600782015460ff1660038111156115375761153761545e565b1461156c5760408051808201825260028152612a1960f11b6020820152905162461bcd60e51b81526104ca91906004016157e8565b604080516101c08101825282546001600160a01b039081168252600184015416602082015260028301549181019190915260038201546060820152600482015460808201526005820180546119019291849160a0840191906115cd9061589e565b80601f01602080910402602001604051908101604052809291908181526020018280546115f99061589e565b80156116465780601f1061161b57610100808354040283529160200191611646565b820191906000526020600020905b81548152906001019060200180831161162957829003601f168201915b505050918352505060068201546020820152600782015460409091019060ff1660038111156116775761167761545e565b60038111156116885761168861545e565b8152602001600882015481526020016009820180546116a69061589e565b80601f01602080910402602001604051908101604052809291908181526020018280546116d29061589e565b801561171f5780601f106116f45761010080835404028352916020019161171f565b820191906000526020600020905b81548152906001019060200180831161170257829003601f168201915b5050509183525050600a8201546001600160a01b03908116602080840191909152600b840154909116604080840191909152600c84018054825181850281018501909352808352606090940193919290919060009084015b82821015611862576000848152602090819020604080516080810182526004860290920180548352600181015463ffffffff1693830193909352600283018054929392918401916117c79061589e565b80601f01602080910402602001604051908101604052809291908181526020018280546117f39061589e565b80156118405780601f1061181557610100808354040283529160200191611840565b820191906000526020600020905b81548152906001019060200180831161182357829003601f168201915b5050505050815260200160038201548152505081526020019060010190611777565b505050508152602001600d8201805461187a9061589e565b80601f01602080910402602001604051908101604052809291908181526020018280546118a69061589e565b80156118f35780601f106118c8576101008083540402835291602001916118f3565b820191906000526020600020905b8154815290600101906020018083116118d657829003601f168201915b505050505081525050613704565b15611936576040805180820182526002815261543960f01b6020820152905162461bcd60e51b81526104ca91906004016157e8565b6000546001820154604051630e70978b60e21b81526001600160a01b0391821660048201523360248201529116906339c25e2c90604401602060405180830381865afa15801561198a573d6000803e3d6000fd5b505050506040513d601f19601f820116820180604052508101906119ae9190615b10565b6119e257604080518082018252600281526104e360f41b6020820152905162461bcd60e51b81526104ca91906004016157e8565b60078101805460ff1916600317905560098101611a00838583615923565b50600054600182015460405163069fa0a760e51b81526001600160a01b03918216600482015291169063d3f414e090602401600060405180830381600087803b158015611a4c57600080fd5b505af1158015611a60573d6000803e3d6000fd5b505082546040513393506001600160a01b03909116915086907fc3087094b1ca79d1b0196cfe915c3153df5266eba37502790ddfc1e3532d355990611aa89088908890615b3e565b60405180910390a450505050565b600081815260036020818152604080842081516101c08101835281546001600160a01b039081168252600183015416938101939093526002810154918301919091529182015460608201526004820154608082015260058201805484939160a0840191611b229061589e565b80601f0160208091040260200160405190810160405280929190818152602001828054611b4e9061589e565b8015611b9b5780601f10611b7057610100808354040283529160200191611b9b565b820191906000526020600020905b815481529060010190602001808311611b7e57829003601f168201915b505050918352505060068201546020820152600782015460409091019060ff166003811115611bcc57611bcc61545e565b6003811115611bdd57611bdd61545e565b815260200160088201548152602001600982018054611bfb9061589e565b80601f0160208091040260200160405190810160405280929190818152602001828054611c279061589e565b8015611c745780601f10611c4957610100808354040283529160200191611c74565b820191906000526020600020905b815481529060010190602001808311611c5757829003601f168201915b5050509183525050600a8201546001600160a01b03908116602080840191909152600b840154909116604080840191909152600c84018054825181850281018501909352808352606090940193919290919060009084015b82821015611db7576000848152602090819020604080516080810182526004860290920180548352600181015463ffffffff169383019390935260028301805492939291840191611d1c9061589e565b80601f0160208091040260200160405190810160405280929190818152602001828054611d489061589e565b8015611d955780601f10611d6a57610100808354040283529160200191611d95565b820191906000526020600020905b815481529060010190602001808311611d7857829003601f168201915b5050505050815260200160038201548152505081526020019060010190611ccc565b505050508152602001600d82018054611dcf9061589e565b80601f0160208091040260200160405190810160405280929190818152602001828054611dfb9061589e565b8015611e485780601f10611e1d57610100808354040283529160200191611e48565b820191906000526020600020905b815481529060010190602001808311611e2b57829003601f168201915b505050505081525050905060006003811115611e6657611e6661545e565b8160e001516003811115611e7c57611e7c61545e565b03611e8a5750600192915050565b60028160e001516003811115611ea257611ea261545e565b03611ec357611eb081613704565b15611ebe5750600192915050565b611ee9565b60038160e001516003811115611edb57611edb61545e565b03611ee95750600192915050565b50600092915050565b60036020819052600091825260409091208054600182015460028301549383015460048401546005850180546001600160a01b039586169795909416959293919291611f3d9061589e565b80601f0160208091040260200160405190810160405280929190818152602001828054611f699061589e565b8015611fb65780601f10611f8b57610100808354040283529160200191611fb6565b820191906000526020600020905b815481529060010190602001808311611f9957829003601f168201915b5050506006840154600785015460088601546009870180549697939660ff909316955090935090611fe69061589e565b80601f01602080910402602001604051908101604052809291908181526020018280546120129061589e565b801561205f5780601f106120345761010080835404028352916020019161205f565b820191906000526020600020905b81548152906001019060200180831161204257829003601f168201915b505050600a840154600b850154600d8601805495966001600160a01b03938416969290931694509192506120929061589e565b80601f01602080910402602001604051908101604052809291908181526020018280546120be9061589e565b801561210b5780601f106120e05761010080835404028352916020019161210b565b820191906000526020600020905b8154815290600101906020018083116120ee57829003601f168201915b505050505090508d565b61211d6136a9565b61212760006137a3565b565b60065460009081906001600160a01b031633146121705760408051808201825260028152614e3760f01b6020820152905162461bcd60e51b81526104ca91906004016157e8565b600083815260036020819052604090912090600782015460ff16600381111561219b5761219b61545e565b146121d05760408051808201825260028152612a1960f11b6020820152905162461bcd60e51b81526104ca91906004016157e8565b6000546001820154604051632911125160e01b81526001600160a01b039182166004820152911690632911125190602401602060405180830381865afa15801561221e573d6000803e3d6000fd5b505050506040513d601f19601f820116820180604052508101906122429190615b10565b15612277576040805180820182526002815261209b60f11b6020820152905162461bcd60e51b81526104ca91906004016157e8565b6122818482613814565b9250925050915091565b60008181526003602052604090819020905163520936b560e01b815260048101839052309063520936b590602401602060405180830381865afa1580156122d6573d6000803e3d6000fd5b505050506040513d601f19601f820116820180604052508101906122fa9190615b10565b61232e5760408051808201825260028152610a8760f31b6020820152905162461bcd60e51b81526104ca91906004016157e8565b80546001600160a01b0316331461236f57604080518082018252600281526104e360f41b6020820152905162461bcd60e51b81526104ca91906004016157e8565b6123798282613814565b50505050565b60008042841161239057600061239a565b61239a4285615b2b565b60025460408051631c8c542360e11b815290519293506001600160a01b0390911691636dd5b69d918391633918a846916004808201926020929091908290030181865afa1580156123ef573d6000803e3d6000fd5b505050506040513d601f19601f8201168201806040525081019061241391906157fb565b6040518263ffffffff1660e01b815260040161243191815260200190565b602060405180830381865afa15801561244e573d6000803e3d6000fd5b505050506040513d601f19601f8201168201806040525081019061247291906157fb565b8110806125525750600254604080516358d0b14760e01b815290516001600160a01b0390921691636dd5b69d9183916358d0b147916004808201926020929091908290030181865afa1580156124cc573d6000803e3d6000fd5b505050506040513d601f19601f820116820180604052508101906124f091906157fb565b6040518263ffffffff1660e01b815260040161250e91815260200190565b602060405180830381865afa15801561252b573d6000803e3d6000fd5b505050506040513d601f19601f8201168201806040525081019061254f91906157fb565b81115b15612587576040805180820182526002815261493160f01b6020820152905162461bcd60e51b81526104ca91906004016157e8565b6001600160a01b0383166125c557604080518082018252600281526105a360f41b6020820152905162461bcd60e51b81526104ca91906004016157e8565b600080546040516326415b0f60e21b81526001600160a01b038681166004830152909116906399056c3c90602401600060405180830381865afa158015612610573d6000803e3d6000fd5b505050506040513d6000823e601f3d908101601f191682016040526126389190810190615ca0565b905061264984826040015184613c76565b925050505b92915050565b61265c6151b7565b60008281526003602081815260409283902083516101c08101855281546001600160a01b039081168252600183015416928101929092526002810154938201939093529082015460608201526004820154608082015260058201805491929160a0840191906126ca9061589e565b80601f01602080910402602001604051908101604052809291908181526020018280546126f69061589e565b80156127435780601f1061271857610100808354040283529160200191612743565b820191906000526020600020905b81548152906001019060200180831161272657829003601f168201915b505050918352505060068201546020820152600782015460409091019060ff1660038111156127745761277461545e565b60038111156127855761278561545e565b8152602001600882015481526020016009820180546127a39061589e565b80601f01602080910402602001604051908101604052809291908181526020018280546127cf9061589e565b801561281c5780601f106127f15761010080835404028352916020019161281c565b820191906000526020600020905b8154815290600101906020018083116127ff57829003601f168201915b5050509183525050600a8201546001600160a01b03908116602080840191909152600b840154909116604080840191909152600c84018054825181850281018501909352808352606090940193919290919060009084015b8282101561146d576000848152602090819020604080516080810182526004860290920180548352600181015463ffffffff1693830193909352600283018054929392918401916128c49061589e565b80601f01602080910402602001604051908101604052809291908181526020018280546128f09061589e565b801561293d5780601f106129125761010080835404028352916020019161293d565b820191906000526020600020905b81548152906001019060200180831161292057829003601f168201915b5050505050815260200160038201548152505081526020019060010190612874565b6006546001600160a01b031633146129a15760408051808201825260028152614e3760f01b6020820152905162461bcd60e51b81526104ca91906004016157e8565b60008281526003602052604090206001600782015460ff1660038111156129ca576129ca61545e565b036129ff5760408051808201825260028152612a1960f11b6020820152905162461bcd60e51b81526104ca91906004016157e8565b6001600160a01b038216612a3d57604080518082018252600281526105a360f41b6020820152905162461bcd60e51b81526104ca91906004016157e8565b60078101805460ff1916600117905560088101546040516000916001600160a01b038516918381818185875af1925050503d8060008114612a9a576040519150601f19603f3d011682016040523d82523d6000602084013e612a9f565b606091505b5050905080612ad8576040805180820182526002815261463160f01b6020820152905162461bcd60e51b81526104ca91906004016157e8565b600054600183015460405163cedb588b60e01b81526001600160a01b0391821660048201526024810187905291169063cedb588b90604401600060405180830381600087803b158015612b2a57600080fd5b505af1158015612b3e573d6000803e3d6000fd5b505083546040516001600160a01b0390911692508691507f15d1e788ed875e6f2294a51087aa5cd2e2c10c92e627eb0a6bbbfceceaa01b9890600090a350505050565b612b896136a9565b6001600160a01b038116612bb357604051631e4fbdf760e01b8152600060048201526024016104ca565b612bbc816137a3565b50565b7ff0c57e16840df040f15088dc2f81fe391c3923bec73e23a9662efc9c229c6a008054600160401b810460ff1615906001600160401b0316600081158015612c045750825b90506000826001600160401b03166001148015612c205750303b155b905081158015612c2e575080155b15612c4c5760405163f92ee8a960e01b815260040160405180910390fd5b845467ffffffffffffffff191660011785558315612c7657845460ff60401b1916600160401b1785555b612c7e613d1f565b612c8733613d2f565b6001600160a01b0389161580612ca457506001600160a01b038816155b80612cb657506001600160a01b038716155b80612cc857506001600160a01b038616155b15612cfd57604080518082018252600281526105a360f41b6020820152905162461bcd60e51b81526104ca91906004016157e8565b600080546001600160a01b03808c166001600160a01b031992831617909255600180548b8416908316179055600280548a841690831617905560068054928916929091169190911790558315612d8d57845460ff60401b19168555604051600181527fc7f505b2f371ae2175ee4913f4499e1f2633a7b5936321eed1cdaeb6115181d29060200160405180910390a15b505050505050505050565b600080516020615f3b833981519152805460011901612dca57604051633ee5aeb560e01b815260040160405180910390fd5b60029055565b6040805160a081018252600080825260606020830181905292820183905291810182905260808101829052908280612e0960048461582a565b1115612e3f576040805180820182526002815261543760f01b6020820152905162461bcd60e51b81526104ca91906004016157e8565b612e8085858080601f016020809104026020016040519081016040528093929190818152602001838380828437600092019190915250869250613d40915050565b63ffffffff168352612e9360048361582a565b9150600080612ea3878786613e29565b811515608088015294509150839050600080612ec0898985613ebc565b6020890182905296509150859050600080612edc8b8b85613fb4565b60408b01829052985091508790508515612f0057612efd8b8b8a8751614094565b97505b86612f0c89600461582a565b1115612f42576040805180820182526002815261543760f01b6020820152905162461bcd60e51b81526104ca91906004016157e8565b8a888b612f5082600461582a565b92612f5d93929190615e48565b612f6691615e72565b60e01c60608a0152612f7960048961582a565b9750868814612fb2576040805180820182526002815261543760f01b6020820152905162461bcd60e51b81526104ca91906004016157e8565b505050505050505092915050565b6060600060049050612fd6836020015151614127565b612fe0908261582a565b905060005b83602001515181101561301e57612ffd60288361582a565b915061300a60018361582a565b91508061301681615853565b915050612fe5565b5061302d836040015151614127565b613037908261582a565b905060005b8360400151518110156130cf5761305460088361582a565b91506130818460400151828151811061306f5761306f61583d565b60200260200101516020015151614127565b61308b908361582a565b9150836040015181815181106130a3576130a361583d565b60200260200101516020015151826130bb919061582a565b9150806130c781615853565b91505061303c565b506130db60048261582a565b90506000816001600160401b038111156130f7576130f7615888565b6040519080825280601f01601f191660200182016040528015613121576020820181803683370190505b50845190915060009060e01b815b600481101561319c5781613144826003615b2b565b600481106131545761315461583d565b1a60f81b84613163838661582a565b815181106131735761317361583d565b60200101906001600160f81b031916908160001a9053508061319481615853565b91505061312f565b506131a860048361582a565b91506131ba866020015151848461416b565b6131c4908361582a565b915060005b8660200151518110156134155760005b602081101561326957876020015182815181106131f8576131f861583d565b60200260200101516000015181601f6132119190615b2b565b602081106132215761322161583d565b1a60f81b85613230838761582a565b815181106132405761324061583d565b60200101906001600160f81b031916908160001a9053508061326181615853565b9150506131d9565b5061327560208461582a565b925060008760200151828151811061328f5761328f61583d565b60200260200101516020015160e01b905060005b600481101561331057816132b8826003615b2b565b600481106132c8576132c861583d565b1a60f81b866132d7838861582a565b815181106132e7576132e761583d565b60200101906001600160f81b031916908160001a9053508061330881615853565b9150506132a3565b5061331c60048561582a565b9350600060f81b8585815181106133355761333561583d565b60200101906001600160f81b031916908160001a90535061335760018561582a565b93506000886020015183815181106133715761337161583d565b60200260200101516060015160e01b905060005b60048110156133f2578161339a826003615b2b565b600481106133aa576133aa61583d565b1a60f81b876133b9838961582a565b815181106133c9576133c961583d565b60200101906001600160f81b031916908160001a905350806133ea81615853565b915050613385565b506133fe60048661582a565b94505050808061340d90615853565b9150506131c9565b50613426866040015151848461416b565b613430908361582a565b915060005b86604001515181101561361a5760008760400151828151811061345a5761345a61583d565b60200260200101516000015160c01b905060005b60088110156134db5781613483826007615b2b565b600881106134935761349361583d565b1a60f81b866134a2838861582a565b815181106134b2576134b261583d565b60200101906001600160f81b031916908160001a905350806134d381615853565b91505061346e565b506134e760088561582a565b9350613516886040015183815181106135025761350261583d565b60200260200101516020015151868661416b565b613520908561582a565b935060005b8860400151838151811061353b5761353b61583d565b602002602001015160200151518110156135d557886040015183815181106135655761356561583d565b60200260200101516020015181815181106135825761358261583d565b01602001516001600160f81b0319168661359c838861582a565b815181106135ac576135ac61583d565b60200101906001600160f81b031916908160001a905350806135cd81615853565b915050613525565b50876040015182815181106135ec576135ec61583d565b6020026020010151602001515184613604919061582a565b935050808061361290615853565b915050613435565b50606086015160e01b60005b6004811015613689578181600481106136415761364161583d565b1a60f81b85613650838761582a565b815181106136605761366061583d565b60200101906001600160f81b031916908160001a9053508061368181615853565b915050613626565b50929695505050505050565b6001600080516020615f3b83398151915255565b336136db7f9016d09d72d40fdae2fd8ceac6b6234c7706214fd39c1cd1e609a0528c199300546001600160a01b031690565b6001600160a01b0316146121275760405163118cdaa760e01b81523360048201526024016104ca565b6000816080015142111561371a57506001919050565b60025460408051632b6f600d60e01b815290516000926001600160a01b031691632b6f600d9160048083019260209291908290030181865afa158015613764573d6000803e3d6000fd5b505050506040513d601f19601f8201168201806040525081019061378891906157fb565b905080836060015161379a919061582a565b42119392505050565b7f9016d09d72d40fdae2fd8ceac6b6234c7706214fd39c1cd1e609a0528c19930080546001600160a01b031981166001600160a01b03848116918217845560405192169182907f8be0079c531659141344cd1fd0a4f28419497f9722a3daafe3b4186f6b6457e090600090a3505050565b604080516101c08101825282546001600160a01b03908116825260018401541660208201526002830154918101919091526003820154606082015260048201546080820152600582018054600092839283928392613bb2929091889160a084019161387e9061589e565b80601f01602080910402602001604051908101604052809291908181526020018280546138aa9061589e565b80156138f75780601f106138cc576101008083540402835291602001916138f7565b820191906000526020600020905b8154815290600101906020018083116138da57829003601f168201915b505050918352505060068201546020820152600782015460409091019060ff1660038111156139285761392861545e565b60038111156139395761393961545e565b8152602001600882015481526020016009820180546139579061589e565b80601f01602080910402602001604051908101604052809291908181526020018280546139839061589e565b80156139d05780601f106139a5576101008083540402835291602001916139d0565b820191906000526020600020905b8154815290600101906020018083116139b357829003601f168201915b5050509183525050600a8201546001600160a01b03908116602080840191909152600b840154909116604080840191909152600c84018054825181850281018501909352808352606090940193919290919060009084015b82821015613b13576000848152602090819020604080516080810182526004860290920180548352600181015463ffffffff169383019390935260028301805492939291840191613a789061589e565b80601f0160208091040260200160405190810160405280929190818152602001828054613aa49061589e565b8015613af15780601f10613ac657610100808354040283529160200191613af1565b820191906000526020600020905b815481529060010190602001808311613ad457829003601f168201915b5050505050815260200160038201548152505081526020019060010190613a28565b505050508152602001600d82018054613b2b9061589e565b80601f0160208091040260200160405190810160405280929190818152602001828054613b579061589e565b8015613ba45780601f10613b7957610100808354040283529160200191613ba4565b820191906000526020600020905b815481529060010190602001808311613b8757829003601f168201915b5050505050815250506143e5565b600054600188015460405163cedb588b60e01b81526001600160a01b039182166004820152602481018b9052939550919350169063cedb588b90604401600060405180830381600087803b158015613c0957600080fd5b505af1158015613c1d573d6000803e3d6000fd5b5050505060078501805460ff1916600117905584546040516001600160a01b039091169087907f15d1e788ed875e6f2294a51087aa5cd2e2c10c92e627eb0a6bbbfceceaa01b9890600090a390925090505b9250929050565b6000805460405163014f6b1960e41b81526001600160a01b038681166004830152839216906314f6b19090602401602060405180830381865afa158015613cc1573d6000803e3d6000fd5b505050506040513d601f19601f82011682018060405250810190613ce591906157fb565b9050613cf76127106301e13380615ea2565b84613d028584615ea2565b613d0c9190615ea2565b613d169190615eb9565b95945050505050565b613d27614813565b61212761485c565b613d37614813565b612bbc81614864565b8151600090613d5083600461582a565b111560405180604001604052806002815260200161553560f01b81525090613d8b5760405162461bcd60e51b81526004016104ca91906157e8565b50828281518110613d9e57613d9e61583d565b016020015160f81c600884613db485600161582a565b81518110613dc457613dc461583d565b016020015160f81c901b601085613ddc86600261582a565b81518110613dec57613dec61583d565b016020015160f81c901b601886613e0487600361582a565b81518110613e1457613e1461583d565b016020015160f81c901b171717905092915050565b60008183613e3882600261582a565b11613eb4576000858585818110613e5157613e5161583d565b919091013560f81c9150600090508686613e6c87600161582a565b818110613e7b57613e7b61583d565b919091013560f81c91505060ff8216158015613e9a575060ff81166001145b15613eb15760019350613eae60028461582a565b92505b50505b935093915050565b60606000806000613ece87878761486c565b9092509050613edd818661582a565b9250816001600160401b03811115613ef757613ef7615888565b604051908082528060200260200182016040528015613f4a57816020015b60408051608081018252600080825260208083018290526060938301849052928201528252600019909201910181613f155790505b50935060005b82811015613fa957600080613f668a8a88614ad8565b9150915081878481518110613f7d57613f7d61583d565b6020908102919091010152613f92818761582a565b955050508080613fa190615853565b915050613f50565b505050935093915050565b60606000806000613fc687878761486c565b9092509050613fd5818661582a565b9250816001600160401b03811115613fef57613fef615888565b60405190808252806020026020018201604052801561403557816020015b60408051808201909152600081526060602082015281526020019060019003908161400d5790505b50935060005b82811015613fa9576000806140518a8a88614d8c565b91509150818784815181106140685761406861583d565b602090810291909101015261407d818761582a565b95505050808061408c90615853565b91505061403b565b8160005b8281101561411e576000806140ae88888661486c565b90925090506140bd818561582a565b935060005b82811015614108576000806140d88b8b8961486c565b90925090506140e7828261582a565b6140f1908861582a565b96505050808061410090615853565b9150506140c2565b505050808061411690615853565b915050614098565b50949350505050565b600060fc82101561413a57506001919050565b61ffff821161414b57506003919050565b63ffffffff821161415e57506005919050565b506009919050565b919050565b600060fc8410156141ac578360f81b83838151811061418c5761418c61583d565b60200101906001600160f81b031916908160001a90535060019050611101565b61ffff84116142665760fd60f81b8383815181106141cc576141cc61583d565b60200101906001600160f81b031916908160001a90535060f084901b8060011a60f81b846141fb85600161582a565b8151811061420b5761420b61583d565b60200101906001600160f81b031916908160001a9053508060001a60f81b8461423585600261582a565b815181106142455761424561583d565b60200101906001600160f81b031916908160001a9053506003915050611101565b63ffffffff841161432b5760fe60f81b8383815181106142885761428861583d565b60200101906001600160f81b031916908160001a90535060e084901b60005b600481101561432057816142bc826003615b2b565b600481106142cc576142cc61583d565b1a60f81b85826142dd87600161582a565b6142e7919061582a565b815181106142f7576142f761583d565b60200101906001600160f81b031916908160001a9053508061431881615853565b9150506142a7565b506005915050611101565b60ff60f81b8383815181106143425761434261583d565b60200101906001600160f81b031916908160001a90535060c084901b60005b60088110156143da5781614376826007615b2b565b600881106143865761438661583d565b1a60f81b858261439787600161582a565b6143a1919061582a565b815181106143b1576143b161583d565b60200101906001600160f81b031916908160001a905350806143d281615853565b915050614361565b506009915050611101565b6000805460208301516040516326415b0f60e21b81526001600160a01b0391821660048201528392839216906399056c3c90602401600060405180830381865afa158015614437573d6000803e3d6000fd5b505050506040513d6000823e601f3d908101601f1916820160405261445f9190810190615ca0565b905060008460800151421161448257604085015161447d9042615b2b565b614496565b846040015185608001516144969190615b2b565b905060006144ad8660200151846040015184613c76565b90508561010001518111156144c457506101008501515b6002546040805163286e9cd160e21b81529051600092612710926001600160a01b0390911691636dd5b69d91839163a1ba7344916004808201926020929091908290030181865afa15801561451d573d6000803e3d6000fd5b505050506040513d601f19601f8201168201806040525081019061454191906157fb565b6040518263ffffffff1660e01b815260040161455f91815260200190565b602060405180830381865afa15801561457c573d6000803e3d6000fd5b505050506040513d601f19601f820116820180604052508101906145a091906157fb565b6145aa9084615ea2565b6145b49190615eb9565b905060006145c28284615b2b565b90506000600260009054906101000a90046001600160a01b03166001600160a01b0316638b6570a06040518163ffffffff1660e01b8152600401602060405180830381865afa158015614619573d6000803e3d6000fd5b505050506040513d601f19601f8201168201806040525081019061463d9190615edb565b90506000816001600160a01b03168460405160006040518083038185875af1925050503d806000811461468c576040519150601f19603f3d011682016040523d82523d6000602084013e614691565b606091505b50509050806146ca576040805180820182526002815261463160f01b6020820152905162461bcd60e51b81526104ca91906004016157e8565b6000876101c001516001600160a01b03168460405160006040518083038185875af1925050503d806000811461471c576040519150601f19603f3d011682016040523d82523d6000602084013e614721565b606091505b505090508061475a576040805180820182526002815261463160f01b6020820152905162461bcd60e51b81526104ca91906004016157e8565b6000868c610100015161476d9190615b2b565b90508015614801578b516040516000916001600160a01b03169083908381818185875af1925050503d80600081146147c1576040519150601f19603f3d011682016040523d82523d6000602084013e6147c6565b606091505b50509050806147ff576040805180820182526002815261271b60f11b6020820152905162461bcd60e51b81526104ca91906004016157e8565b505b50929a93995092975050505050505050565b7ff0c57e16840df040f15088dc2f81fe391c3923bec73e23a9662efc9c229c6a0054600160401b900460ff1661212757604051631afcd79f60e31b815260040160405180910390fd5b613695614813565b612b89614813565b6000808383106148a6576040805180820182526002815261543760f01b6020820152905162461bcd60e51b81526104ca91906004016157e8565b60008585858181106148ba576148ba61583d565b919091013560f81c91505060fc8110156148dc5760ff16915060019050613eb4565b60fc1960ff82160161498757846148f485600361582a565b111561492a576040805180820182526002815261543760f01b6020820152905162461bcd60e51b81526104ca91906004016157e8565b61497686868080601f01602080910402602001604051908101604052809392919081815260200183838082843760009201919091525061497192508891506001905061582a565b614efc565b61ffff16925060039150613eb49050565b60fd1960ff821601614a34578461499f85600561582a565b11156149d5576040805180820182526002815261543760f01b6020820152905162461bcd60e51b81526104ca91906004016157e8565b614a2186868080601f016020809104026020016040519081016040528093929190818152602001838380828437600092019190915250614a1c92508891506001905061582a565b613d40565b63ffffffff16925060059150613eb49050565b84614a4085600961582a565b1115614a76576040805180820182526002815261543760f01b6020820152905162461bcd60e51b81526104ca91906004016157e8565b614ac286868080601f016020809104026020016040519081016040528093929190818152602001838380828437600092019190915250614abd92508891506001905061582a565b614f93565b6001600160401b0316925060099150613eb49050565b6040805160808101825260008082526020820181905260609282018390529181019190915260008284614b0c82602061582a565b1115614b42576040805180820182526002815261543760f01b6020820152905162461bcd60e51b81526104ca91906004016157e8565b614b6e868587614b5382602061582a565b92614b6093929190615e48565b614b6991615ef8565b615122565b8352614b7b60208561582a565b935084614b8985600461582a565b1115614bbf576040805180820182526002815261543760f01b6020820152905162461bcd60e51b81526104ca91906004016157e8565b614c0086868080601f016020809104026020016040519081016040528093929190818152602001838380828437600092019190915250889250613d40915050565b63ffffffff166020840152614c1660048561582a565b9350600080614c2688888861486c565b9092509050614c35818761582a565b955086614c42838861582a565b1115614c78576040805180820182526002815261543760f01b6020820152905162461bcd60e51b81526104ca91906004016157e8565b878688614c85858361582a565b92614c9293929190615e48565b8080601f0160208091040260200160405190810160405280939291908181526020018383808284376000920191909152505050506040860152614cd5828761582a565b955086614ce387600461582a565b1115614d19576040805180820182526002815261543760f01b6020820152905162461bcd60e51b81526104ca91906004016157e8565b614d5a88888080601f0160208091040260200160405190810160405280939291908181526020018383808284376000920191909152508a9250613d40915050565b63ffffffff166060860152614d7060048761582a565b955084614d7d8488615b2b565b94509450505050935093915050565b60408051808201909152600081526060602082015260008284614db082600861582a565b1115614de6576040805180820182526002815261543760f01b6020820152905162461bcd60e51b81526104ca91906004016157e8565b614e2786868080601f016020809104026020016040519081016040528093929190818152602001838380828437600092019190915250889250614f93915050565b6001600160401b03168352614e3d60088561582a565b9350600080614e4d88888861486c565b9092509050614e5c818761582a565b955086614e69838861582a565b1115614e9f576040805180820182526002815261543760f01b6020820152905162461bcd60e51b81526104ca91906004016157e8565b878688614eac858361582a565b92614eb993929190615e48565b8080601f0160208091040260200160405190810160405280939291908181526020018383808284376000920191909152505050506020860152614d70828761582a565b8151600090614f0c83600261582a565b111560405180604001604052806002815260200161154d60f21b81525090614f475760405162461bcd60e51b81526004016104ca91906157e8565b50828281518110614f5a57614f5a61583d565b016020015160f81c600884614f7085600161582a565b81518110614f8057614f8061583d565b016020015160f81c901b17905092915050565b8151600090614fa383600861582a565b1115604051806040016040528060028152602001612a9b60f11b81525090614fde5760405162461bcd60e51b81526004016104ca91906157e8565b50828281518110614ff157614ff161583d565b016020015160f81c60088461500785600161582a565b815181106150175761501761583d565b016020015160f81c901b60108561502f86600261582a565b8151811061503f5761503f61583d565b016020015160f81c901b60188661505787600361582a565b815181106150675761506761583d565b0160209081015160f81c90911b908761508188600461582a565b815181106150915761509161583d565b016020015160f81c901b6028886150a989600561582a565b815181106150b9576150b961583d565b016020015160f81c901b6030896150d18a600661582a565b815181106150e1576150e161583d565b016020015160f81c901b60388a6150f98b600761582a565b815181106151095761510961583d565b016020015160f81c901b17171717171717905092915050565b60408051602080825281830190925260009182919060208201818036833701905050905060005b60208110156151ad578361515e82601f615b2b565b6020811061516e5761516e61583d565b1a60f81b8282815181106151845761518461583d565b60200101906001600160f81b031916908160001a905350806151a581615853565b915050615149565b5061110181615f16565b604080516101c08101825260008082526020820181905291810182905260608082018390526080820183905260a082015260c081018290529060e08201908152602001600081526020016060815260200160006001600160a01b0316815260200160006001600160a01b0316815260200160608152602001606081525090565b60008083601f84011261524957600080fd5b5081356001600160401b0381111561526057600080fd5b602083019150836020828501011115613c6f57600080fd5b6001600160a01b0381168114612bbc57600080fd5b600080600080600080608087890312156152a657600080fd5b8635955060208701356001600160401b03808211156152c457600080fd5b6152d08a838b01615237565b909750955060408901359150808211156152e957600080fd5b506152f689828a01615237565b909450925050606087013561530a81615278565b809150509295509295509295565b60008060006040848603121561532d57600080fd5b8335925060208401356001600160401b038082111561534b57600080fd5b818601915086601f83011261535f57600080fd5b81358181111561536e57600080fd5b8760208260051b850101111561538357600080fd5b6020830194508093505050509250925092565b6000806000606084860312156153ab57600080fd5b83356153b681615278565b92506020840135915060408401356153cd81615278565b809150509250925092565b6000602082840312156153ea57600080fd5b813561110181615278565b60006020828403121561540757600080fd5b5035919050565b60005b83811015615429578181015183820152602001615411565b50506000910152565b6000815180845261544a81602086016020860161540e565b601f01601f19169290920160200192915050565b634e487b7160e01b600052602160045260246000fd5b6004811061549257634e487b7160e01b600052602160045260246000fd5b9052565b600081518084526020808501808196508360051b8101915082860160005b85811015615510578284038952815160808151865263ffffffff87830151168787015260408083015182828901526154ee83890182615432565b60609485015198909401979097525050988501989350908401906001016154b4565b5091979650505050505050565b602081526155376020820183516001600160a01b03169052565b6000602083015161555360408401826001600160a01b03169052565b506040830151606083015260608301516080830152608083015160a083015260a08301516101c08060c085015261558e6101e0850183615432565b915060c085015160e085015260e08501516101006155ae81870183615474565b80870151915050610120818187015280870151915050601f196101408187860301818801526155dd8584615432565b9450808801519250506101606155fd818801846001600160a01b03169052565b8701519150610180615619878201846001600160a01b03169052565b808801519250506101a08187860301818801526156368584615496565b9088015187820390920184880152935090506156528382615432565b9695505050505050565b60008060006040848603121561567157600080fd5b8335925060208401356001600160401b0381111561568e57600080fd5b61569a86828701615237565b9497909650939450505050565b6001600160a01b038e811682528d1660208201528b60408201528a60608201528960808201526101a060a082015260006156e56101a083018b615432565b8960c08401526156f860e084018a615474565b876101008401528281036101208401526157128188615432565b6001600160a01b03871661014085015290506001600160a01b0385166101608401528281036101808401526157478185615432565b9150509e9d5050505050505050505050505050565b6000806040838503121561576f57600080fd5b82359150602083013561578181615278565b809150509250929050565b600080600080608085870312156157a257600080fd5b84356157ad81615278565b935060208501356157bd81615278565b925060408501356157cd81615278565b915060608501356157dd81615278565b939692955090935050565b6020815260006111016020830184615432565b60006020828403121561580d57600080fd5b5051919050565b634e487b7160e01b600052601160045260246000fd5b8082018082111561264e5761264e615814565b634e487b7160e01b600052603260045260246000fd5b60006001820161586557615865615814565b5060010190565b6000825161587e81846020870161540e565b9190910192915050565b634e487b7160e01b600052604160045260246000fd5b600181811c908216806158b257607f821691505b6020821081036158d257634e487b7160e01b600052602260045260246000fd5b50919050565b601f82111561591e57600081815260208120601f850160051c810160208610156158ff5750805b601f850160051c820191505b818110156108f55782815560010161590b565b505050565b6001600160401b0383111561593a5761593a615888565b61594e83615948835461589e565b836158d8565b6000601f841160018114615982576000851561596a5750838201355b600019600387901b1c1916600186901b1783556159dc565b600083815260209020601f19861690835b828110156159b35786850135825560209485019460019092019101615993565b50868210156159d05760001960f88860031b161c19848701351681555b505060018560011b0183555b5050505050565b81835281816020850137506000828201602090810191909152601f909101601f19169091010190565b600060018060a01b03808916835260806020840152615a2f60808401888a6159e3565b8381036040850152615a428187896159e3565b925050808416606084015250979650505050505050565b60008235607e1983360301811261587e57600080fd5b8135815560018101602083013563ffffffff8116808214615a8f57600080fd5b825463ffffffff19161790915550604082013536839003601e19018112615ab557600080fd5b820180356001600160401b03811115615acd57600080fd5b602082019150803603821315615ae257600080fd5b615af0818360028601615923565b5050606082013560038201555050565b8051801515811461416657600080fd5b600060208284031215615b2257600080fd5b61110182615b00565b8181038181111561264e5761264e615814565b602081526000615b526020830184866159e3565b949350505050565b60405161020081016001600160401b0381118282101715615b7d57615b7d615888565b60405290565b604051601f8201601f191681016001600160401b0381118282101715615bab57615bab615888565b604052919050565b805161416681615278565b600082601f830112615bcf57600080fd5b815160206001600160401b03821115615bea57615bea615888565b8160051b615bf9828201615b83565b9283528481018201928281019087851115615c1357600080fd5b83870192505b84831015615c3257825182529183019190830190615c19565b979650505050505050565b600082601f830112615c4e57600080fd5b81516001600160401b03811115615c6757615c67615888565b615c7a601f8201601f1916602001615b83565b818152846020838601011115615c8f57600080fd5b615b5282602083016020870161540e565b600060208284031215615cb257600080fd5b81516001600160401b0380821115615cc957600080fd5b908301906102008286031215615cde57600080fd5b615ce6615b5a565b615cef83615bb3565b8152615cfd60208401615b00565b6020820152604083015160408201526060830151606082015260808301516080820152615d2c60a08401615bb3565b60a0820152615d3d60c08401615bb3565b60c082015260e083015182811115615d5457600080fd5b615d6087828601615bbe565b60e083015250610100615d74818501615bb3565b908201526101208381015183811115615d8c57600080fd5b615d9888828701615c3d565b8284015250506101408084015183811115615db257600080fd5b615dbe88828701615c3d565b8284015250506101608084015181830152506101808084015183811115615de457600080fd5b615df088828701615c3d565b8284015250506101a08084015183811115615e0a57600080fd5b615e1688828701615c3d565b8284015250506101c09150615e2c828401615bb3565b918101919091526101e091820151918101919091529392505050565b60008085851115615e5857600080fd5b83861115615e6557600080fd5b5050820193919092039150565b6001600160e01b03198135818116916004851015615e9a5780818660040360031b1b83161692505b505092915050565b808202811582820484141761264e5761264e615814565b600082615ed657634e487b7160e01b600052601260045260246000fd5b500490565b600060208284031215615eed57600080fd5b815161110181615278565b8035602083101561264e57600019602084900360031b1b1692915050565b805160208083015191908110156158d25760001960209190910360031b1b1691905056fe9b779b17422d0df92223018b32b4d1fa46e071723d6817e2486d003becc55f00a2646970667358221220637f6ee850434ea690f46277fe5d0f3712ac76a167cf1312e0ff57b4e894c03b64736f6c63430008140033",
  "linkReferences": {},
  "deployedLinkReferences": {}
}