{
  "_format": "hh-sol-artifact-1",
  "contractName": "TransactionManager",
  "sourceName": "contracts/core/TransactionManager.sol",
  "abi": [
    {
      "inputs": [],
      "stateMutability": "nonpayable",
      "type": "constructor"
    },
    {
      "inputs": [],
      "name": "InvalidInitialization",
      "type": "error"
    },
    {
      "inputs": [],
      "name": "NotInitializing",
      "type": "error"
    },
    {
      "inputs": [
        {
          "internalType": "address",
          "name": "owner",
          "type": "address"
        }
      ],
      "name": "OwnableInvalidOwner",
      "type": "error"
    },
    {
      "inputs": [
        {
          "internalType": "address",
          "name": "account",
          "type": "address"
        }
      ],
      "name": "OwnableUnauthorizedAccount",
      "type": "error"
    },
    {
      "inputs": [],
      "name": "ReentrancyGuardReentrantCall",
      "type": "error"
    },
    {
      "anonymous": false,
      "inputs": [
        {
          "indexed": true,
          "internalType": "bytes32",
          "name": "txId",
          "type": "bytes32"
        },
        {
          "indexed": true,
          "internalType": "address",
          "name": "dapp",
          "type": "address"
        },
        {
          "indexed": false,
          "internalType": "address",
          "name": "arbitrator",
          "type": "address"
        },
        {
          "indexed": false,
          "internalType": "bytes",
          "name": "signData",
          "type": "bytes"
        },
        {
          "indexed": false,
          "internalType": "bytes",
          "name": "script",
          "type": "bytes"
        },
        {
          "indexed": false,
          "internalType": "address",
          "name": "timeoutCompensationReceiver",
          "type": "address"
        }
      ],
      "name": "ArbitrationRequested",
      "type": "event"
    },
    {
      "anonymous": false,
      "inputs": [
        {
          "indexed": true,
          "internalType": "bytes32",
          "name": "txId",
          "type": "bytes32"
        },
        {
          "indexed": true,
          "internalType": "address",
          "name": "dapp",
          "type": "address"
        },
        {
          "indexed": true,
          "internalType": "address",
          "name": "arbitrator",
          "type": "address"
        },
        {
          "indexed": false,
          "internalType": "bytes",
          "name": "btcTxSignature",
          "type": "bytes"
        }
      ],
      "name": "ArbitrationSubmitted",
      "type": "event"
    },
    {
      "anonymous": false,
      "inputs": [
        {
          "indexed": false,
          "internalType": "uint64",
          "name": "version",
          "type": "uint64"
        }
      ],
      "name": "Initialized",
      "type": "event"
    },
    {
      "anonymous": false,
      "inputs": [
        {
          "indexed": true,
          "internalType": "address",
          "name": "previousOwner",
          "type": "address"
        },
        {
          "indexed": true,
          "internalType": "address",
          "name": "newOwner",
          "type": "address"
        }
      ],
      "name": "OwnershipTransferred",
      "type": "event"
    },
    {
      "anonymous": false,
      "inputs": [
        {
          "indexed": true,
          "internalType": "address",
          "name": "arbitratorManager",
          "type": "address"
        }
      ],
      "name": "SetArbitratorManager",
      "type": "event"
    },
    {
      "anonymous": false,
      "inputs": [
        {
          "indexed": true,
          "internalType": "bytes32",
          "name": "txId",
          "type": "bytes32"
        },
        {
          "indexed": true,
          "internalType": "address",
          "name": "dapp",
          "type": "address"
        }
      ],
      "name": "TransactionCompleted",
      "type": "event"
    },
    {
      "anonymous": false,
      "inputs": [
        {
          "indexed": true,
          "internalType": "bytes32",
          "name": "id",
          "type": "bytes32"
        },
        {
          "indexed": true,
          "internalType": "address",
          "name": "dapp",
          "type": "address"
        },
        {
          "indexed": true,
          "internalType": "address",
          "name": "arbitrator",
          "type": "address"
        },
        {
          "indexed": false,
          "internalType": "uint256",
          "name": "deadline",
          "type": "uint256"
        },
        {
          "indexed": false,
          "internalType": "uint256",
          "name": "depositFee",
          "type": "uint256"
        },
        {
          "indexed": false,
          "internalType": "address",
          "name": "compensationReceiver",
          "type": "address"
        }
      ],
      "name": "TransactionRegistered",
      "type": "event"
    },
    {
      "anonymous": false,
      "inputs": [
        {
          "indexed": true,
          "internalType": "bytes32",
          "name": "txId",
          "type": "bytes32"
        },
        {
          "indexed": true,
          "internalType": "address",
          "name": "dapp",
          "type": "address"
        }
      ],
      "name": "UTXOsUploaded",
      "type": "event"
    },
    {
      "inputs": [],
      "name": "arbitratorManager",
      "outputs": [
        {
          "internalType": "contract IArbitratorManager",
          "name": "",
          "type": "address"
        }
      ],
      "stateMutability": "view",
      "type": "function"
    },
    {
      "inputs": [],
      "name": "compensationManager",
      "outputs": [
        {
          "internalType": "address",
          "name": "",
          "type": "address"
        }
      ],
      "stateMutability": "view",
      "type": "function"
    },
    {
      "inputs": [
        {
          "internalType": "bytes32",
          "name": "id",
          "type": "bytes32"
        }
      ],
      "name": "completeTransaction",
      "outputs": [],
      "stateMutability": "nonpayable",
      "type": "function"
    },
    {
      "inputs": [
        {
          "internalType": "bytes32",
          "name": "id",
          "type": "bytes32"
        },
        {
          "internalType": "address",
          "name": "receivedCompensationAddress",
          "type": "address"
        }
      ],
      "name": "completeTransactionWithSlash",
      "outputs": [],
      "stateMutability": "nonpayable",
      "type": "function"
    },
    {
      "inputs": [],
      "name": "configManager",
      "outputs": [
        {
          "internalType": "contract ConfigManager",
          "name": "",
          "type": "address"
        }
      ],
      "stateMutability": "view",
      "type": "function"
    },
    {
      "inputs": [],
      "name": "dappRegistry",
      "outputs": [
        {
          "internalType": "contract IDAppRegistry",
          "name": "",
          "type": "address"
        }
      ],
      "stateMutability": "view",
      "type": "function"
    },
    {
      "inputs": [
        {
          "internalType": "uint256",
          "name": "deadline",
          "type": "uint256"
        },
        {
          "internalType": "address",
          "name": "arbitrator",
          "type": "address"
        }
      ],
      "name": "getRegisterTransactionFee",
      "outputs": [
        {
          "internalType": "uint256",
          "name": "fee",
          "type": "uint256"
        }
      ],
      "stateMutability": "view",
      "type": "function"
    },
    {
      "inputs": [
        {
          "internalType": "bytes32",
          "name": "txHash",
          "type": "bytes32"
        }
      ],
      "name": "getTransaction",
      "outputs": [
        {
          "components": [
            {
              "internalType": "address",
              "name": "dapp",
              "type": "address"
            },
            {
              "internalType": "address",
              "name": "arbitrator",
              "type": "address"
            },
            {
              "internalType": "uint256",
              "name": "startTime",
              "type": "uint256"
            },
            {
              "internalType": "uint256",
              "name": "deadline",
              "type": "uint256"
            },
            {
              "internalType": "bytes",
              "name": "btcTx",
              "type": "bytes"
            },
            {
              "internalType": "bytes32",
              "name": "btcTxHash",
              "type": "bytes32"
            },
            {
              "internalType": "enum DataTypes.TransactionStatus",
              "name": "status",
              "type": "uint8"
            },
            {
              "internalType": "uint256",
              "name": "depositedFee",
              "type": "uint256"
            },
            {
              "internalType": "bytes",
              "name": "signature",
              "type": "bytes"
            },
            {
              "internalType": "address",
              "name": "compensationReceiver",
              "type": "address"
            },
            {
              "internalType": "address",
              "name": "timeoutCompensationReceiver",
              "type": "address"
            },
            {
              "components": [
                {
                  "internalType": "bytes32",
                  "name": "txHash",
                  "type": "bytes32"
                },
                {
                  "internalType": "uint32",
                  "name": "index",
                  "type": "uint32"
                },
                {
                  "internalType": "bytes",
                  "name": "script",
                  "type": "bytes"
                },
                {
                  "internalType": "uint256",
                  "name": "amount",
                  "type": "uint256"
                }
              ],
              "internalType": "struct DataTypes.UTXO[]",
              "name": "utxos",
              "type": "tuple[]"
            },
            {
              "internalType": "bytes",
              "name": "script",
              "type": "bytes"
            },
            {
              "internalType": "uint256",
              "name": "requestArbitrationTime",
              "type": "uint256"
            }
          ],
          "internalType": "struct DataTypes.Transaction",
          "name": "",
          "type": "tuple"
        }
      ],
      "stateMutability": "view",
      "type": "function"
    },
    {
      "inputs": [
        {
          "internalType": "bytes32",
          "name": "id",
          "type": "bytes32"
        }
      ],
      "name": "getTransactionById",
      "outputs": [
        {
          "components": [
            {
              "internalType": "address",
              "name": "dapp",
              "type": "address"
            },
            {
              "internalType": "address",
              "name": "arbitrator",
              "type": "address"
            },
            {
              "internalType": "uint256",
              "name": "startTime",
              "type": "uint256"
            },
            {
              "internalType": "uint256",
              "name": "deadline",
              "type": "uint256"
            },
            {
              "internalType": "bytes",
              "name": "btcTx",
              "type": "bytes"
            },
            {
              "internalType": "bytes32",
              "name": "btcTxHash",
              "type": "bytes32"
            },
            {
              "internalType": "enum DataTypes.TransactionStatus",
              "name": "status",
              "type": "uint8"
            },
            {
              "internalType": "uint256",
              "name": "depositedFee",
              "type": "uint256"
            },
            {
              "internalType": "bytes",
              "name": "signature",
              "type": "bytes"
            },
            {
              "internalType": "address",
              "name": "compensationReceiver",
              "type": "address"
            },
            {
              "internalType": "address",
              "name": "timeoutCompensationReceiver",
              "type": "address"
            },
            {
              "components": [
                {
                  "internalType": "bytes32",
                  "name": "txHash",
                  "type": "bytes32"
                },
                {
                  "internalType": "uint32",
                  "name": "index",
                  "type": "uint32"
                },
                {
                  "internalType": "bytes",
                  "name": "script",
                  "type": "bytes"
                },
                {
                  "internalType": "uint256",
                  "name": "amount",
                  "type": "uint256"
                }
              ],
              "internalType": "struct DataTypes.UTXO[]",
              "name": "utxos",
              "type": "tuple[]"
            },
            {
              "internalType": "bytes",
              "name": "script",
              "type": "bytes"
            },
            {
              "internalType": "uint256",
              "name": "requestArbitrationTime",
              "type": "uint256"
            }
          ],
          "internalType": "struct DataTypes.Transaction",
          "name": "",
          "type": "tuple"
        }
      ],
      "stateMutability": "view",
      "type": "function"
    },
    {
      "inputs": [
        {
          "internalType": "bytes32",
          "name": "id",
          "type": "bytes32"
        }
      ],
      "name": "getTransactionStatus",
      "outputs": [
        {
          "internalType": "enum DataTypes.TransactionStatus",
          "name": "status",
          "type": "uint8"
        }
      ],
      "stateMutability": "view",
      "type": "function"
    },
    {
      "inputs": [
        {
          "internalType": "address",
          "name": "_arbitratorManager",
          "type": "address"
        },
        {
          "internalType": "address",
          "name": "_dappRegistry",
          "type": "address"
        },
        {
          "internalType": "address",
          "name": "_configManager",
          "type": "address"
        },
        {
          "internalType": "address",
          "name": "_compensationManager",
          "type": "address"
        }
      ],
      "name": "initialize",
      "outputs": [],
      "stateMutability": "nonpayable",
      "type": "function"
    },
    {
      "inputs": [
        {
          "internalType": "bytes32",
          "name": "id",
          "type": "bytes32"
        }
      ],
      "name": "isAbleCompletedTransaction",
      "outputs": [
        {
          "internalType": "bool",
          "name": "",
          "type": "bool"
        }
      ],
      "stateMutability": "view",
      "type": "function"
    },
    {
      "inputs": [],
      "name": "owner",
      "outputs": [
        {
          "internalType": "address",
          "name": "",
          "type": "address"
        }
      ],
      "stateMutability": "view",
      "type": "function"
    },
    {
      "inputs": [
        {
          "internalType": "address",
          "name": "arbitrator",
          "type": "address"
        },
        {
          "internalType": "uint256",
          "name": "deadline",
          "type": "uint256"
        },
        {
          "internalType": "address",
          "name": "compensationReceiver",
          "type": "address"
        }
      ],
      "name": "registerTransaction",
      "outputs": [
        {
          "internalType": "bytes32",
          "name": "",
          "type": "bytes32"
        }
      ],
      "stateMutability": "payable",
      "type": "function"
    },
    {
      "inputs": [],
      "name": "renounceOwnership",
      "outputs": [],
      "stateMutability": "nonpayable",
      "type": "function"
    },
    {
      "inputs": [
        {
          "internalType": "bytes32",
          "name": "id",
          "type": "bytes32"
        },
        {
          "internalType": "bytes",
          "name": "signData",
          "type": "bytes"
        },
        {
          "internalType": "enum DataTypes.SignDataType",
          "name": "signDataType",
          "type": "uint8"
        },
        {
          "internalType": "bytes",
          "name": "script",
          "type": "bytes"
        },
        {
          "internalType": "address",
          "name": "timeoutCompensationReceiver",
          "type": "address"
        }
      ],
      "name": "requestArbitration",
      "outputs": [],
      "stateMutability": "nonpayable",
      "type": "function"
    },
    {
      "inputs": [
        {
          "internalType": "address",
          "name": "_arbitratorManager",
          "type": "address"
        }
      ],
      "name": "setArbitratorManager",
      "outputs": [],
      "stateMutability": "nonpayable",
      "type": "function"
    },
    {
      "inputs": [
        {
          "internalType": "bytes32",
          "name": "id",
          "type": "bytes32"
        },
        {
          "internalType": "bytes",
          "name": "btcTxSignature",
          "type": "bytes"
        }
      ],
      "name": "submitArbitration",
      "outputs": [],
      "stateMutability": "nonpayable",
      "type": "function"
    },
    {
      "inputs": [
        {
          "internalType": "bytes32",
          "name": "",
          "type": "bytes32"
        }
      ],
      "name": "transactions",
      "outputs": [
        {
          "internalType": "address",
          "name": "dapp",
          "type": "address"
        },
        {
          "internalType": "address",
          "name": "arbitrator",
          "type": "address"
        },
        {
          "internalType": "uint256",
          "name": "startTime",
          "type": "uint256"
        },
        {
          "internalType": "uint256",
          "name": "deadline",
          "type": "uint256"
        },
        {
          "internalType": "bytes",
          "name": "btcTx",
          "type": "bytes"
        },
        {
          "internalType": "bytes32",
          "name": "btcTxHash",
          "type": "bytes32"
        },
        {
          "internalType": "enum DataTypes.TransactionStatus",
          "name": "status",
          "type": "uint8"
        },
        {
          "internalType": "uint256",
          "name": "depositedFee",
          "type": "uint256"
        },
        {
          "internalType": "bytes",
          "name": "signature",
          "type": "bytes"
        },
        {
          "internalType": "address",
          "name": "compensationReceiver",
          "type": "address"
        },
        {
          "internalType": "address",
          "name": "timeoutCompensationReceiver",
          "type": "address"
        },
        {
          "internalType": "bytes",
          "name": "script",
          "type": "bytes"
        },
        {
          "internalType": "uint256",
          "name": "requestArbitrationTime",
          "type": "uint256"
        }
      ],
      "stateMutability": "view",
      "type": "function"
    },
    {
      "inputs": [
        {
          "internalType": "bytes32",
          "name": "id",
          "type": "bytes32"
        }
      ],
      "name": "transferArbitrationFee",
      "outputs": [
        {
          "internalType": "uint256",
          "name": "arbitratorFee",
          "type": "uint256"
        },
        {
          "internalType": "uint256",
          "name": "systemFee",
          "type": "uint256"
        }
      ],
      "stateMutability": "nonpayable",
      "type": "function"
    },
    {
      "inputs": [
        {
          "internalType": "address",
          "name": "newOwner",
          "type": "address"
        }
      ],
      "name": "transferOwnership",
      "outputs": [],
      "stateMutability": "nonpayable",
      "type": "function"
    },
    {
      "inputs": [
        {
          "internalType": "bytes32",
          "name": "",
          "type": "bytes32"
        }
      ],
      "name": "txHashToId",
      "outputs": [
        {
          "internalType": "bytes32",
          "name": "",
          "type": "bytes32"
        }
      ],
      "stateMutability": "view",
      "type": "function"
    },
    {
      "inputs": [
        {
          "internalType": "bytes32",
          "name": "id",
          "type": "bytes32"
        },
        {
          "components": [
            {
              "internalType": "bytes32",
              "name": "txHash",
              "type": "bytes32"
            },
            {
              "internalType": "uint32",
              "name": "index",
              "type": "uint32"
            },
            {
              "internalType": "bytes",
              "name": "script",
              "type": "bytes"
            },
            {
              "internalType": "uint256",
              "name": "amount",
              "type": "uint256"
            }
          ],
          "internalType": "struct DataTypes.UTXO[]",
          "name": "utxos",
          "type": "tuple[]"
        }
      ],
      "name": "uploadUTXOs",
      "outputs": [],
      "stateMutability": "nonpayable",
      "type": "function"
    }
  ],
  "bytecode": "0x60806040523480156200001157600080fd5b506200001c62000022565b620000d6565b7ff0c57e16840df040f15088dc2f81fe391c3923bec73e23a9662efc9c229c6a00805468010000000000000000900460ff1615620000735760405163f92ee8a960e01b815260040160405180910390fd5b80546001600160401b0390811614620000d35780546001600160401b0319166001600160401b0390811782556040519081527fc7f505b2f371ae2175ee4913f4499e1f2633a7b5936321eed1cdaeb6115181d29060200160405180910390a15b50565b615b9280620000e66000396000f3fe6080604052600436106101405760003560e01c8063870967ec116100b6578063c1ce47d21161006f578063c1ce47d2146103ef578063ca0ab0751461041c578063d09d03a31461043c578063de0ca1661461045c578063f2fde38b1461047c578063f8c8765e1461049c57600080fd5b8063870967ec146103055780638da5cb5b146103255780639440746514610362578063a130312a1461038f578063a7157190146103af578063a890b7b4146103cf57600080fd5b80634e4f0ec4116101085780634e4f0ec414610212578063520936b514610232578063642f2eaf14610262578063715018a61461029b5780637577b6df146102b0578063759787c4146102e557600080fd5b80630559b877146101455780630f6f9a1e146101825780631613f25b146101a45780632c7e8ca3146101c55780634aae13ca146101e5575b600080fd5b34801561015157600080fd5b50600654610165906001600160a01b031681565b6040516001600160a01b0390911681526020015b60405180910390f35b34801561018e57600080fd5b506101a261019d366004614dfb565b6104bc565b005b6101b76101b2366004614e8e565b610673565b604051908152602001610179565b3480156101d157600080fd5b506101a26101e0366004614ed0565b610ce6565b3480156101f157600080fd5b50610205610200366004614eed565b610d36565b6040516101799190615018565b34801561021e57600080fd5b506101a261022d366004615198565b6110ec565b34801561023e57600080fd5b5061025261024d366004614eed565b6116d2565b6040519015158152602001610179565b34801561026e57600080fd5b5061028261027d366004614eed565b611aff565b6040516101799d9c9b9a999897969594939291906151e3565b3480156102a757600080fd5b506101a2611d20565b3480156102bc57600080fd5b506102d06102cb366004614eed565b611d34565b60408051928352602083019190915201610179565b3480156102f157600080fd5b50600054610165906001600160a01b031681565b34801561031157600080fd5b506101a2610320366004615298565b611e99565b34801561033157600080fd5b507f9016d09d72d40fdae2fd8ceac6b6234c7706214fd39c1cd1e609a0528c199300546001600160a01b0316610165565b34801561036e57600080fd5b5061038261037d366004614eed565b6123ba565b604051610179919061533d565b34801561039b57600080fd5b506101a26103aa366004614eed565b6127c3565b3480156103bb57600080fd5b506101b76103ca36600461534b565b6128b7565b3480156103db57600080fd5b506102056103ea366004614eed565b612b8c565b3480156103fb57600080fd5b506101b761040a366004614eed565b60046020526000908152604090205481565b34801561042857600080fd5b50600254610165906001600160a01b031681565b34801561044857600080fd5b506101a261045736600461534b565b612e8d565b34801561046857600080fd5b50600154610165906001600160a01b031681565b34801561048857600080fd5b506101a2610497366004614ed0565b6130af565b3480156104a857600080fd5b506101a26104b736600461537b565b6130ed565b600181146104fd576040805180820182526002815261055360f41b6020820152905162461bcd60e51b81526104f491906004016153d7565b60405180910390fd5b600083815260036020526040812090600682015460ff16600581111561052557610525614f56565b1461055a5760408051808201825260028152612a1960f11b6020820152905162461bcd60e51b81526104f491906004016153d7565b80546001600160a01b0316331461059b57604080518082018252600281526104e360f41b6020820152905162461bcd60e51b81526104f491906004016153d7565b600b810154156105d55760408051808201825260028152612a9960f11b6020820152905162461bcd60e51b81526104f491906004016153d7565b60005b8281101561063f5781600b018484838181106105f6576105f66153ea565b90506020028101906106089190615400565b81546001810183556000928352602090922090916004020161062a8282615579565b5050808061063790615620565b9150506105d8565b50604051339085907fbe870ee46d1946169135a006725f4beb7bf05701d38e45b8d0e55892fabff1d990600090a350505050565b600061067d6132c6565b6001600160a01b038416158061069a57506001600160a01b038216155b156106cf57604080518082018252600281526105a360f41b6020820152905162461bcd60e51b81526104f491906004016153d7565b60015460405163682dc82b60e11b81523360048201526001600160a01b039091169063d05b905690602401602060405180830381865afa158015610717573d6000803e3d6000fd5b505050506040513d601f19601f8201168201806040525081019061073b919061564e565b61076f576040805180820182526002815261221960f11b6020820152905162461bcd60e51b81526104f491906004016153d7565b600054604051631c569df760e31b81526001600160a01b0386811660048301529091169063e2b4efb890602401602060405180830381865afa1580156107b9573d6000803e3d6000fd5b505050506040513d601f19601f820116820180604052508101906107dd919061564e565b610811576040805180820182526002815261413360f01b6020820152905162461bcd60e51b81526104f491906004016153d7565b428311610848576040805180820182526002815261543360f01b6020820152905162461bcd60e51b81526104f491906004016153d7565b60006108544285615669565b60025460408051631c8c542360e11b815290519293506001600160a01b0390911691636dd5b69d918391633918a846916004808201926020929091908290030181865afa1580156108a9573d6000803e3d6000fd5b505050506040513d601f19601f820116820180604052508101906108cd919061567c565b6040518263ffffffff1660e01b81526004016108eb91815260200190565b602060405180830381865afa158015610908573d6000803e3d6000fd5b505050506040513d601f19601f8201168201806040525081019061092c919061567c565b811080610a0c5750600254604080516358d0b14760e01b815290516001600160a01b0390921691636dd5b69d9183916358d0b147916004808201926020929091908290030181865afa158015610986573d6000803e3d6000fd5b505050506040513d601f19601f820116820180604052508101906109aa919061567c565b6040518263ffffffff1660e01b81526004016109c891815260200190565b602060405180830381865afa1580156109e5573d6000803e3d6000fd5b505050506040513d601f19601f82011682018060405250810190610a09919061567c565b81115b15610a41576040805180820182526002815261493160f01b6020820152905162461bcd60e51b81526104f491906004016153d7565b604051630a71571960e41b8152600481018590526001600160a01b0386166024820152600090309063a715719090604401602060405180830381865afa158015610a8f573d6000803e3d6000fd5b505050506040513d601f19601f82011682018060405250810190610ab3919061567c565b905080600003610aed576040805180820182526002815261150d60f21b6020820152905162461bcd60e51b81526104f491906004016153d7565b80341015610b25576040805180820182526002815261543560f01b6020820152905162461bcd60e51b81526104f491906004016153d7565b600042338860056000815480929190610b3d90615620565b909155506040805160208101959095526bffffffffffffffffffffffff19606094851b8116918601919091529190921b166054830152606882015260880160408051808303601f190181529082905280516020909101206000546315969bed60e11b83526001600160a01b038a81166004850152602484018390529193501690632b2d37da90604401600060405180830381600087803b158015610be057600080fd5b505af1158015610bf4573d6000803e3d6000fd5b505050600082815260036020819052604082208054336001600160a01b0319918216178255600180830180549092166001600160a01b038e16179091554260028301559181018a90556006810180549194509160ff199091169083021790555034600782018190556009820180546001600160a01b0319166001600160a01b03898116918217909255604080518b81526020810194909452830152891690339084907feb31e9cc08e6aec1724c65bd618ab8709af006b0972f1a04bba0fe0b0192142e9060600160405180910390a45092505050610cdf6001600080516020615b3d83398151915255565b9392505050565b610cee613312565b600080546001600160a01b0319166001600160a01b038316908117825560405190917fa323f9f93bbee02edb5e1034969f6ef41fb674527d2ea7e9271ad206435b58f491a250565b610d3e614d7b565b600082815260046020818152604080842054845260038083529381902081516101c08101835281546001600160a01b039081168252600183015416938101939093526002810154918301919091529283015460608201529082018054919291608084019190610dac90615436565b80601f0160208091040260200160405190810160405280929190818152602001828054610dd890615436565b8015610e255780601f10610dfa57610100808354040283529160200191610e25565b820191906000526020600020905b815481529060010190602001808311610e0857829003601f168201915b50505091835250506005828101546020830152600683015460409092019160ff1690811115610e5657610e56614f56565b6005811115610e6757610e67614f56565b815260200160078201548152602001600882018054610e8590615436565b80601f0160208091040260200160405190810160405280929190818152602001828054610eb190615436565b8015610efe5780601f10610ed357610100808354040283529160200191610efe565b820191906000526020600020905b815481529060010190602001808311610ee157829003601f168201915b505050918352505060098201546001600160a01b03908116602080840191909152600a840154909116604080840191909152600b84018054825181850281018501909352808352606090940193919290919060009084015b82821015611041576000848152602090819020604080516080810182526004860290920180548352600181015463ffffffff169383019390935260028301805492939291840191610fa690615436565b80601f0160208091040260200160405190810160405280929190818152602001828054610fd290615436565b801561101f5780601f10610ff45761010080835404028352916020019161101f565b820191906000526020600020905b81548152906001019060200180831161100257829003601f168201915b5050505050815260200160038201548152505081526020019060010190610f56565b505050508152602001600c8201805461105990615436565b80601f016020809104026020016040519081016040528092919081815260200182805461108590615436565b80156110d25780601f106110a7576101008083540402835291602001916110d2565b820191906000526020600020905b8154815290600101906020018083116110b557829003601f168201915b50505050508152602001600d820154815250509050919050565b60008381526003602052604090206002600682015460ff16600581111561111557611115614f56565b1461114a5760408051808201825260028152612a1960f11b6020820152905162461bcd60e51b81526104f491906004016153d7565b604080516101c08101825282546001600160a01b0390811682526001840154166020820152600283015491810191909152600382015460608201526004820180546114df929184916080840191906111a190615436565b80601f01602080910402602001604051908101604052809291908181526020018280546111cd90615436565b801561121a5780601f106111ef5761010080835404028352916020019161121a565b820191906000526020600020905b8154815290600101906020018083116111fd57829003601f168201915b50505091835250506005828101546020830152600683015460409092019160ff169081111561124b5761124b614f56565b600581111561125c5761125c614f56565b81526020016007820154815260200160088201805461127a90615436565b80601f01602080910402602001604051908101604052809291908181526020018280546112a690615436565b80156112f35780601f106112c8576101008083540402835291602001916112f3565b820191906000526020600020905b8154815290600101906020018083116112d657829003601f168201915b505050918352505060098201546001600160a01b03908116602080840191909152600a840154909116604080840191909152600b84018054825181850281018501909352808352606090940193919290919060009084015b82821015611436576000848152602090819020604080516080810182526004860290920180548352600181015463ffffffff16938301939093526002830180549293929184019161139b90615436565b80601f01602080910402602001604051908101604052809291908181526020018280546113c790615436565b80156114145780601f106113e957610100808354040283529160200191611414565b820191906000526020600020905b8154815290600101906020018083116113f757829003601f168201915b505050505081526020016003820154815250508152602001906001019061134b565b505050508152602001600c8201805461144e90615436565b80601f016020809104026020016040519081016040528092919081815260200182805461147a90615436565b80156114c75780601f1061149c576101008083540402835291602001916114c7565b820191906000526020600020905b8154815290600101906020018083116114aa57829003601f168201915b50505050508152602001600d8201548152505061336d565b15611514576040805180820182526002815261543960f01b6020820152905162461bcd60e51b81526104f491906004016153d7565b6000546001820154604051630e70978b60e21b81526001600160a01b0391821660048201523360248201529116906339c25e2c90604401602060405180830381865afa158015611568573d6000803e3d6000fd5b505050506040513d601f19601f8201168201806040525081019061158c919061564e565b6115c057604080518082018252600281526104e360f41b6020820152905162461bcd60e51b81526104f491906004016153d7565b6115ca838361340d565b6115fe576040805180820182526002815261553960f01b6020820152905162461bcd60e51b81526104f491906004016153d7565b60068101805460ff191660051790556008810161161c8385836154b9565b50600054600182015460405163069fa0a760e51b81526001600160a01b03918216600482015291169063d3f414e090602401600060405180830381600087803b15801561166857600080fd5b505af115801561167c573d6000803e3d6000fd5b505082546040513393506001600160a01b03909116915086907fc3087094b1ca79d1b0196cfe915c3153df5266eba37502790ddfc1e3532d3559906116c490889088906156be565b60405180910390a450505050565b600081815260036020818152604080842081516101c08101835281546001600160a01b03908116825260018301541693810193909352600281015491830191909152918201546060820152600482018054849391608084019161173490615436565b80601f016020809104026020016040519081016040528092919081815260200182805461176090615436565b80156117ad5780601f10611782576101008083540402835291602001916117ad565b820191906000526020600020905b81548152906001019060200180831161179057829003601f168201915b50505091835250506005828101546020830152600683015460409092019160ff16908111156117de576117de614f56565b60058111156117ef576117ef614f56565b81526020016007820154815260200160088201805461180d90615436565b80601f016020809104026020016040519081016040528092919081815260200182805461183990615436565b80156118865780601f1061185b57610100808354040283529160200191611886565b820191906000526020600020905b81548152906001019060200180831161186957829003601f168201915b505050918352505060098201546001600160a01b03908116602080840191909152600a840154909116604080840191909152600b84018054825181850281018501909352808352606090940193919290919060009084015b828210156119c9576000848152602090819020604080516080810182526004860290920180548352600181015463ffffffff16938301939093526002830180549293929184019161192e90615436565b80601f016020809104026020016040519081016040528092919081815260200182805461195a90615436565b80156119a75780601f1061197c576101008083540402835291602001916119a7565b820191906000526020600020905b81548152906001019060200180831161198a57829003601f168201915b50505050508152602001600382015481525050815260200190600101906118de565b505050508152602001600c820180546119e190615436565b80601f0160208091040260200160405190810160405280929190818152602001828054611a0d90615436565b8015611a5a5780601f10611a2f57610100808354040283529160200191611a5a565b820191906000526020600020905b815481529060010190602001808311611a3d57829003601f168201915b5050509183525050600d9190910154602090910152905060008160c001516005811115611a8957611a89614f56565b03611a975750600192915050565b60028160c001516005811115611aaf57611aaf614f56565b03611ad057611abd8161336d565b15611acb5750600192915050565b611af6565b60058160c001516005811115611ae857611ae8614f56565b03611af65750600192915050565b50600092915050565b6003602081905260009182526040909120805460018201546002830154938301546004840180546001600160a01b039485169694909316949192611b4290615436565b80601f0160208091040260200160405190810160405280929190818152602001828054611b6e90615436565b8015611bbb5780601f10611b9057610100808354040283529160200191611bbb565b820191906000526020600020905b815481529060010190602001808311611b9e57829003601f168201915b5050506005840154600685015460078601546008870180549697939660ff909316955090935090611beb90615436565b80601f0160208091040260200160405190810160405280929190818152602001828054611c1790615436565b8015611c645780601f10611c3957610100808354040283529160200191611c64565b820191906000526020600020905b815481529060010190602001808311611c4757829003601f168201915b5050506009840154600a850154600c8601805495966001600160a01b0393841696929093169450919250611c9790615436565b80601f0160208091040260200160405190810160405280929190818152602001828054611cc390615436565b8015611d105780601f10611ce557610100808354040283529160200191611d10565b820191906000526020600020905b815481529060010190602001808311611cf357829003601f168201915b50505050509080600d015490508d565b611d28613312565b611d326000613723565b565b60065460009081906001600160a01b03163314611d7b5760408051808201825260028152614e3760f01b6020820152905162461bcd60e51b81526104f491906004016153d7565b600083815260036020526040812090600682015460ff166005811115611da357611da3614f56565b148015611db35750806003015442115b80611e5057506005600682015460ff166005811115611dd457611dd4614f56565b148015611e5057506000546001820154604051632911125160e01b81526001600160a01b039182166004820152911690632911125190602401602060405180830381865afa158015611e2a573d6000803e3d6000fd5b505050506040513d601f19601f82011682018060405250810190611e4e919061564e565b155b15611e6957611e5f8482613794565b9250925050915091565b60408051808201825260028152612a1960f11b6020820152905162461bcd60e51b81526104f491906004016153d7565b611ea16132c6565b6001600160a01b038116611edf57604080518082018252600281526105a360f41b6020820152905162461bcd60e51b81526104f491906004016153d7565b600087815260036020526040812090600682015460ff166005811115611f0757611f07614f56565b14611f3c5760408051808201825260028152612a1960f11b6020820152905162461bcd60e51b81526104f491906004016153d7565b80546001600160a01b03163314611f7d57604080518082018252600281526104e360f41b6020820152905162461bcd60e51b81526104f491906004016153d7565b600b810154600003611fb9576040805180820182526002815261553360f01b6020820152905162461bcd60e51b81526104f491906004016153d7565b8060030154600260009054906101000a90046001600160a01b03166001600160a01b0316632b6f600d6040518163ffffffff1660e01b8152600401602060405180830381865afa158015612011573d6000803e3d6000fd5b505050506040513d601f19601f82011682018060405250810190612035919061567c565b61203f90426156da565b1115612075576040805180820182526002815261553760f01b6020820152905162461bcd60e51b81526104f491906004016153d7565b600185600281111561208957612089614f56565b146120be5760408051808201825260028152610aa760f31b6020820152905162461bcd60e51b81526104f491906004016153d7565b60006120ca8888613bf6565b600b8301546020820151519192501461210d576040805180820182526002815261553160f01b6020820152905162461bcd60e51b81526104f491906004016153d7565b60005b8160200151518110156122135782600b018181548110612132576121326153ea565b9060005260206000209060040201600001548260200151828151811061215a5761215a6153ea565b6020026020010151600001511415806121cc575082600b018181548110612183576121836153ea565b60009182526020918290206001600490920201015490830151805163ffffffff90921691839081106121b7576121b76153ea565b60200260200101516020015163ffffffff1614155b15612201576040805180820182526002815261553160f01b6020820152905162461bcd60e51b81526104f491906004016153d7565b8061220b81615620565b915050612110565b5060006002808a8a6040516122299291906156ed565b602060405180830381855afa158015612246573d6000803e3d6000fd5b5050506040513d601f19601f82011682018060405250810190612269919061567c565b60405160200161227b91815260200190565b60408051601f1981840301815290829052612295916156fd565b602060405180830381855afa1580156122b2573d6000803e3d6000fd5b5050506040513d601f19601f820116820180604052508101906122d5919061567c565b60068401805460ff191660021790559050600483016122f5898b836154b9565b5060058301819055600a830180546001600160a01b0319166001600160a01b038616179055600c83016123298688836154b9565b5042600d840155600081815260046020526040908190208b90556001840154905133918c917f81c89bbce5115bf315ea29f7001ebabb88f6d3e4d76132bf792f2085799ed0e49161238f916001600160a01b03909116908e908e908d908d908d9061570f565b60405180910390a35050506123b16001600080516020615b3d83398151915255565b50505050505050565b600081815260036020818152604080842081516101c08101835281546001600160a01b03908116825260018301541693810193909352600281015491830191909152918201546060820152600482018054849391608084019161241c90615436565b80601f016020809104026020016040519081016040528092919081815260200182805461244890615436565b80156124955780601f1061246a57610100808354040283529160200191612495565b820191906000526020600020905b81548152906001019060200180831161247857829003601f168201915b50505091835250506005828101546020830152600683015460409092019160ff16908111156124c6576124c6614f56565b60058111156124d7576124d7614f56565b8152602001600782015481526020016008820180546124f590615436565b80601f016020809104026020016040519081016040528092919081815260200182805461252190615436565b801561256e5780601f106125435761010080835404028352916020019161256e565b820191906000526020600020905b81548152906001019060200180831161255157829003601f168201915b505050918352505060098201546001600160a01b03908116602080840191909152600a840154909116604080840191909152600b84018054825181850281018501909352808352606090940193919290919060009084015b828210156126b1576000848152602090819020604080516080810182526004860290920180548352600181015463ffffffff16938301939093526002830180549293929184019161261690615436565b80601f016020809104026020016040519081016040528092919081815260200182805461264290615436565b801561268f5780601f106126645761010080835404028352916020019161268f565b820191906000526020600020905b81548152906001019060200180831161267257829003601f168201915b50505050508152602001600382015481525050815260200190600101906125c6565b505050508152602001600c820180546126c990615436565b80601f01602080910402602001604051908101604052809291908181526020018280546126f590615436565b80156127425780601f1061271757610100808354040283529160200191612742565b820191906000526020600020905b81548152906001019060200180831161272557829003601f168201915b5050509183525050600d919091015460209091015260c081015192509050600082600581111561277457612774614f56565b1480156127845750428160600151105b1561278e57600391505b60028260058111156127a2576127a2614f56565b1480156127b357506127b38161336d565b156127bd57600391505b50919050565b60008181526003602052604090819020905163520936b560e01b815260048101839052309063520936b590602401602060405180830381865afa15801561280e573d6000803e3d6000fd5b505050506040513d601f19601f82011682018060405250810190612832919061564e565b6128665760408051808201825260028152610a8760f31b6020820152905162461bcd60e51b81526104f491906004016153d7565b80546001600160a01b031633146128a757604080518082018252600281526104e360f41b6020820152905162461bcd60e51b81526104f491906004016153d7565b6128b18282613794565b50505050565b6000804284116128c85760006128d2565b6128d24285615669565b60025460408051631c8c542360e11b815290519293506001600160a01b0390911691636dd5b69d918391633918a846916004808201926020929091908290030181865afa158015612927573d6000803e3d6000fd5b505050506040513d601f19601f8201168201806040525081019061294b919061567c565b6040518263ffffffff1660e01b815260040161296991815260200190565b602060405180830381865afa158015612986573d6000803e3d6000fd5b505050506040513d601f19601f820116820180604052508101906129aa919061567c565b811080612a8a5750600254604080516358d0b14760e01b815290516001600160a01b0390921691636dd5b69d9183916358d0b147916004808201926020929091908290030181865afa158015612a04573d6000803e3d6000fd5b505050506040513d601f19601f82011682018060405250810190612a28919061567c565b6040518263ffffffff1660e01b8152600401612a4691815260200190565b602060405180830381865afa158015612a63573d6000803e3d6000fd5b505050506040513d601f19601f82011682018060405250810190612a87919061567c565b81115b15612abf576040805180820182526002815261493160f01b6020820152905162461bcd60e51b81526104f491906004016153d7565b6001600160a01b038316612afd57604080518082018252600281526105a360f41b6020820152905162461bcd60e51b81526104f491906004016153d7565b600080546040516326415b0f60e21b81526001600160a01b038681166004830152909116906399056c3c90602401600060405180830381865afa158015612b48573d6000803e3d6000fd5b505050506040513d6000823e601f3d908101601f19168201604052612b7091908101906158a2565b9050612b8184826040015184614215565b925050505b92915050565b612b94614d7b565b60008281526003602081815260409283902083516101c08101855281546001600160a01b03908116825260018301541692810192909252600281015493820193909352908201546060820152600482018054919291608084019190612bf890615436565b80601f0160208091040260200160405190810160405280929190818152602001828054612c2490615436565b8015612c715780601f10612c4657610100808354040283529160200191612c71565b820191906000526020600020905b815481529060010190602001808311612c5457829003601f168201915b50505091835250506005828101546020830152600683015460409092019160ff1690811115612ca257612ca2614f56565b6005811115612cb357612cb3614f56565b815260200160078201548152602001600882018054612cd190615436565b80601f0160208091040260200160405190810160405280929190818152602001828054612cfd90615436565b8015612d4a5780601f10612d1f57610100808354040283529160200191612d4a565b820191906000526020600020905b815481529060010190602001808311612d2d57829003601f168201915b505050918352505060098201546001600160a01b03908116602080840191909152600a840154909116604080840191909152600b84018054825181850281018501909352808352606090940193919290919060009084015b82821015611041576000848152602090819020604080516080810182526004860290920180548352600181015463ffffffff169383019390935260028301805492939291840191612df290615436565b80601f0160208091040260200160405190810160405280929190818152602001828054612e1e90615436565b8015612e6b5780601f10612e4057610100808354040283529160200191612e6b565b820191906000526020600020905b815481529060010190602001808311612e4e57829003601f168201915b5050505050815260200160038201548152505081526020019060010190612da2565b6006546001600160a01b03163314612ecf5760408051808201825260028152614e3760f01b6020820152905162461bcd60e51b81526104f491906004016153d7565b60008281526003602052604090206001600682015460ff166005811115612ef857612ef8614f56565b03612f2d5760408051808201825260028152612a1960f11b6020820152905162461bcd60e51b81526104f491906004016153d7565b6001600160a01b038216612f6b57604080518082018252600281526105a360f41b6020820152905162461bcd60e51b81526104f491906004016153d7565b60068101805460ff1916600117905560078101546040516000916001600160a01b038516918381818185875af1925050503d8060008114612fc8576040519150601f19603f3d011682016040523d82523d6000602084013e612fcd565b606091505b5050905080613006576040805180820182526002815261463160f01b6020820152905162461bcd60e51b81526104f491906004016153d7565b600054600183015460405163cedb588b60e01b81526001600160a01b0391821660048201526024810187905291169063cedb588b90604401600060405180830381600087803b15801561305857600080fd5b505af115801561306c573d6000803e3d6000fd5b505083546040516001600160a01b0390911692508691507f15d1e788ed875e6f2294a51087aa5cd2e2c10c92e627eb0a6bbbfceceaa01b9890600090a350505050565b6130b7613312565b6001600160a01b0381166130e157604051631e4fbdf760e01b8152600060048201526024016104f4565b6130ea81613723565b50565b7ff0c57e16840df040f15088dc2f81fe391c3923bec73e23a9662efc9c229c6a008054600160401b810460ff1615906001600160401b03166000811580156131325750825b90506000826001600160401b0316600114801561314e5750303b155b90508115801561315c575080155b1561317a5760405163f92ee8a960e01b815260040160405180910390fd5b845467ffffffffffffffff1916600117855583156131a457845460ff60401b1916600160401b1785555b6131ac6142be565b6131b5336142ce565b6001600160a01b03891615806131d257506001600160a01b038816155b806131e457506001600160a01b038716155b806131f657506001600160a01b038616155b1561322b57604080518082018252600281526105a360f41b6020820152905162461bcd60e51b81526104f491906004016153d7565b600080546001600160a01b03808c166001600160a01b031992831617909255600180548b8416908316179055600280548a8416908316179055600680549289169290911691909117905583156132bb57845460ff60401b19168555604051600181527fc7f505b2f371ae2175ee4913f4499e1f2633a7b5936321eed1cdaeb6115181d29060200160405180910390a15b505050505050505050565b600080516020615b3d8339815191528054600119016132f857604051633ee5aeb560e01b815260040160405180910390fd5b60029055565b6001600080516020615b3d83398151915255565b336133447f9016d09d72d40fdae2fd8ceac6b6234c7706214fd39c1cd1e609a0528c199300546001600160a01b031690565b6001600160a01b031614611d325760405163118cdaa760e01b81523360048201526024016104f4565b6000816060015142111561338357506001919050565b60025460408051632b6f600d60e01b815290516000926001600160a01b031691632b6f600d9160048083019260209291908290030181865afa1580156133cd573d6000803e3d6000fd5b505050506040513d601f19601f820116820180604052508101906133f1919061567c565b905080836101a0015161340491906156da565b42119392505050565b6000600882101561342057506000612b86565b82826000818110613433576134336153ea565b9091013560f81c603014905061344b57506000612b86565b600083836001818110613460576134606153ea565b919091013560f81c91508390506134788260026156da565b14613487576000915050612b86565b600284848281811061349b5761349b6153ea565b9091013560f81c60021490506134b657600092505050612b86565b600085856134c58460016156da565b8181106134d4576134d46153ea565b919091013560f81c91505060008190036134f45760009350505050612b86565b60218111806135185750848161350b8460026156da565b61351591906156da565b10155b156135295760009350505050612b86565b60018111801561355c575085856135418460026156da565b818110613550576135506153ea565b919091013560f81c1590505b80156135935750608086866135728560036156da565b818110613581576135816153ea565b9050013560f81c60f81b60f81c60ff16105b156135a45760009350505050612b86565b6000816135b28460026156da565b6135bc91906156da565b90508686828181106135d0576135d06153ea565b9091013560f81c60021490506135ed576000945050505050612b86565b600087876135fc8460016156da565b81811061360b5761360b6153ea565b919091013560f81c915050600081900361362d57600095505050505050612b86565b6021811180613650575086816136448460026156da565b61364e91906156da565b115b1561366357600095505050505050612b86565b6001811180156136965750878761367b8460026156da565b81811061368a5761368a6153ea565b919091013560f81c1590505b80156136cd5750608088886136ac8560036156da565b8181106136bb576136bb6153ea565b9050013560f81c60f81b60f81c60ff16105b156136e057600095505050505050612b86565b806136ec8460026156da565b6136f79060026156da565b61370191906156da565b851461371557600095505050505050612b86565b506001979650505050505050565b7f9016d09d72d40fdae2fd8ceac6b6234c7706214fd39c1cd1e609a0528c19930080546001600160a01b031981166001600160a01b03848116918217845560405192169182907f8be0079c531659141344cd1fd0a4f28419497f9722a3daafe3b4186f6b6457e090600090a3505050565b604080516101c08101825282546001600160a01b039081168252600184015416602082015260028301549181019190915260038201546060820152600482018054600092839283928392613b32929091889160808401916137f490615436565b80601f016020809104026020016040519081016040528092919081815260200182805461382090615436565b801561386d5780601f106138425761010080835404028352916020019161386d565b820191906000526020600020905b81548152906001019060200180831161385057829003601f168201915b50505091835250506005828101546020830152600683015460409092019160ff169081111561389e5761389e614f56565b60058111156138af576138af614f56565b8152602001600782015481526020016008820180546138cd90615436565b80601f01602080910402602001604051908101604052809291908181526020018280546138f990615436565b80156139465780601f1061391b57610100808354040283529160200191613946565b820191906000526020600020905b81548152906001019060200180831161392957829003601f168201915b505050918352505060098201546001600160a01b03908116602080840191909152600a840154909116604080840191909152600b84018054825181850281018501909352808352606090940193919290919060009084015b82821015613a89576000848152602090819020604080516080810182526004860290920180548352600181015463ffffffff1693830193909352600283018054929392918401916139ee90615436565b80601f0160208091040260200160405190810160405280929190818152602001828054613a1a90615436565b8015613a675780601f10613a3c57610100808354040283529160200191613a67565b820191906000526020600020905b815481529060010190602001808311613a4a57829003601f168201915b505050505081526020016003820154815250508152602001906001019061399e565b505050508152602001600c82018054613aa190615436565b80601f0160208091040260200160405190810160405280929190818152602001828054613acd90615436565b8015613b1a5780601f10613aef57610100808354040283529160200191613b1a565b820191906000526020600020905b815481529060010190602001808311613afd57829003601f168201915b50505050508152602001600d820154815250506142df565b600054600188015460405163cedb588b60e01b81526001600160a01b039182166004820152602481018b9052939550919350169063cedb588b90604401600060405180830381600087803b158015613b8957600080fd5b505af1158015613b9d573d6000803e3d6000fd5b5050505060068501805460ff1916600117905584546040516001600160a01b039091169087907f15d1e788ed875e6f2294a51087aa5cd2e2c10c92e627eb0a6bbbfceceaa01b9890600090a390925090505b9250929050565b6040805160a081018252600080825260606020830181905292820183905291810182905260808101829052908280613c2f6004846156da565b1115613c65576040805180820182526002815261543760f01b6020820152905162461bcd60e51b81526104f491906004016153d7565b613ca685858080601f01602080910402602001604051908101604052809392919081815260200183838082843760009201919091525086925061470a915050565b63ffffffff168352613cb96004836156da565b915080613cc78360206156da565b1115613cfd576040805180820182526002815261543760f01b6020820152905162461bcd60e51b81526104f491906004016153d7565b613d086020836156da565b915080613d168360206156da565b1115613d4c576040805180820182526002815261543760f01b6020820152905162461bcd60e51b81526104f491906004016153d7565b613d576020836156da565b604080516001808252818301909252919350816020015b60408051608081018252600080825260208083018290526060938301849052928201528252600019909201910181613d6e57905050836020018190525080826020613db991906156da565b1115613def576040805180820182526002815261543760f01b6020820152905162461bcd60e51b81526104f491906004016153d7565b613e1b858386613e008260206156da565b92613e0d93929190615a4a565b613e1691615a74565b6147f3565b8360200151600081518110613e3257613e326153ea565b60200260200101516000018181525050602082613e4f91906156da565b915080613e5d8360046156da565b1115613e93576040805180820182526002815261543760f01b6020820152905162461bcd60e51b81526104f491906004016153d7565b613ed485858080601f01602080910402602001604051908101604052809392919081815260200183838082843760009201919091525086925061470a915050565b8360200151600081518110613eeb57613eeb6153ea565b60209081029190910181015163ffffffff909216910152613f0d6004836156da565b9150600080613f1d878786614888565b9092509050613f2c81856156da565b935082613f3983866156da565b1115613f6f576040805180820182526002815261543760f01b6020820152905162461bcd60e51b81526104f491906004016153d7565b868487613f7c85836156da565b92613f8993929190615a4a565b8080601f016020809104026020016040519081016040528093929190818152602001838380828437600092018290525060208a0151805190945090925015159050613fd657613fd66153ea565b602090810291909101015160400152613fef82856156da565b935082613ffd8560086156da565b1115614033576040805180820182526002815261543760f01b6020820152905162461bcd60e51b81526104f491906004016153d7565b61403e6008856156da565b93508261404c8560046156da565b1115614082576040805180820182526002815261543760f01b6020820152905162461bcd60e51b81526104f491906004016153d7565b6140c387878080601f01602080910402602001604051908101604052809392919081815260200183838082843760009201919091525088925061470a915050565b85602001516000815181106140da576140da6153ea565b602090810291909101015163ffffffff9091166060909101526140fe6004856156da565b93508261410c8560206156da565b1115614142576040805180820182526002815261543760f01b6020820152905162461bcd60e51b81526104f491906004016153d7565b61414d6020856156da565b93508261415b8560046156da565b1115614191576040805180820182526002815261543760f01b6020820152905162461bcd60e51b81526104f491906004016153d7565b86848761419f8260046156da565b926141ac93929190615a4a565b6141b591615a92565b60e01c60608601526141c86004856156da565b9350826141d68560046156da565b1461420b576040805180820182526002815261543760f01b6020820152905162461bcd60e51b81526104f491906004016153d7565b5050505092915050565b6000805460405163014f6b1960e41b81526001600160a01b038681166004830152839216906314f6b19090602401602060405180830381865afa158015614260573d6000803e3d6000fd5b505050506040513d601f19601f82011682018060405250810190614284919061567c565b90506142966127106301e13380615ac2565b846142a18584615ac2565b6142ab9190615ac2565b6142b59190615ad9565b95945050505050565b6142c6614afc565b611d32614b45565b6142d6614afc565b6130ea81614b4d565b6000805460208301516040516326415b0f60e21b81526001600160a01b0391821660048201528392839216906399056c3c90602401600060405180830381865afa158015614331573d6000803e3d6000fd5b505050506040513d6000823e601f3d908101601f1916820160405261435991908101906158a2565b905060008460600151421161437c5760408501516143779042615669565b614390565b846040015185606001516143909190615669565b905060006143a78660200151846040015184614215565b90508560e001518111156143bc575060e08501515b6002546040805163286e9cd160e21b81529051600092612710926001600160a01b0390911691636dd5b69d91839163a1ba7344916004808201926020929091908290030181865afa158015614415573d6000803e3d6000fd5b505050506040513d601f19601f82011682018060405250810190614439919061567c565b6040518263ffffffff1660e01b815260040161445791815260200190565b602060405180830381865afa158015614474573d6000803e3d6000fd5b505050506040513d601f19601f82011682018060405250810190614498919061567c565b6144a29084615ac2565b6144ac9190615ad9565b905060006144ba8284615669565b90506000600260009054906101000a90046001600160a01b03166001600160a01b0316638b6570a06040518163ffffffff1660e01b8152600401602060405180830381865afa158015614511573d6000803e3d6000fd5b505050506040513d601f19601f820116820180604052508101906145359190615afb565b90506000816001600160a01b03168460405160006040518083038185875af1925050503d8060008114614584576040519150601f19603f3d011682016040523d82523d6000602084013e614589565b606091505b50509050806145c2576040805180820182526002815261463160f01b6020820152905162461bcd60e51b81526104f491906004016153d7565b6000876101c001516001600160a01b03168460405160006040518083038185875af1925050503d8060008114614614576040519150601f19603f3d011682016040523d82523d6000602084013e614619565b606091505b5050905080614652576040805180820182526002815261463160f01b6020820152905162461bcd60e51b81526104f491906004016153d7565b6000868c60e001516146649190615669565b905080156146f8578b516040516000916001600160a01b03169083908381818185875af1925050503d80600081146146b8576040519150601f19603f3d011682016040523d82523d6000602084013e6146bd565b606091505b50509050806146f6576040805180820182526002815261271b60f11b6020820152905162461bcd60e51b81526104f491906004016153d7565b505b50929a93995092975050505050505050565b815160009061471a8360046156da565b111560405180604001604052806002815260200161553560f01b815250906147555760405162461bcd60e51b81526004016104f491906153d7565b50828281518110614768576147686153ea565b016020015160f81c60088461477e8560016156da565b8151811061478e5761478e6153ea565b016020015160f81c901b6010856147a68660026156da565b815181106147b6576147b66153ea565b016020015160f81c901b6018866147ce8760036156da565b815181106147de576147de6153ea565b016020015160f81c901b171717905092915050565b60408051602080825281830190925260009182919060208201818036833701905050905060005b602081101561487e578361482f82601f615669565b6020811061483f5761483f6153ea565b1a60f81b828281518110614855576148556153ea565b60200101906001600160f81b031916908160001a9053508061487681615620565b91505061481a565b50610cdf81615b18565b6000808383106148c2576040805180820182526002815261543760f01b6020820152905162461bcd60e51b81526104f491906004016153d7565b60008585858181106148d6576148d66153ea565b919091013560f81c91505060fc8110156148f85760ff16915060019050614af4565b60fc1960ff8216016149a357846149108560036156da565b1115614946576040805180820182526002815261543760f01b6020820152905162461bcd60e51b81526104f491906004016153d7565b61499286868080601f01602080910402602001604051908101604052809392919081815260200183838082843760009201919091525061498d9250889150600190506156da565b614b55565b61ffff16925060039150614af49050565b60fd1960ff821601614a5057846149bb8560056156da565b11156149f1576040805180820182526002815261543760f01b6020820152905162461bcd60e51b81526104f491906004016153d7565b614a3d86868080601f016020809104026020016040519081016040528093929190818152602001838380828437600092019190915250614a389250889150600190506156da565b61470a565b63ffffffff16925060059150614af49050565b84614a5c8560096156da565b1115614a92576040805180820182526002815261543760f01b6020820152905162461bcd60e51b81526104f491906004016153d7565b614ade86868080601f016020809104026020016040519081016040528093929190818152602001838380828437600092019190915250614ad99250889150600190506156da565b614bec565b6001600160401b0316925060099150614af49050565b935093915050565b7ff0c57e16840df040f15088dc2f81fe391c3923bec73e23a9662efc9c229c6a0054600160401b900460ff16611d3257604051631afcd79f60e31b815260040160405180910390fd5b6132fe614afc565b6130b7614afc565b8151600090614b658360026156da565b111560405180604001604052806002815260200161154d60f21b81525090614ba05760405162461bcd60e51b81526004016104f491906153d7565b50828281518110614bb357614bb36153ea565b016020015160f81c600884614bc98560016156da565b81518110614bd957614bd96153ea565b016020015160f81c901b17905092915050565b8151600090614bfc8360086156da565b1115604051806040016040528060028152602001612a9b60f11b81525090614c375760405162461bcd60e51b81526004016104f491906153d7565b50828281518110614c4a57614c4a6153ea565b016020015160f81c600884614c608560016156da565b81518110614c7057614c706153ea565b016020015160f81c901b601085614c888660026156da565b81518110614c9857614c986153ea565b016020015160f81c901b601886614cb08760036156da565b81518110614cc057614cc06153ea565b0160209081015160f81c90911b9087614cda8860046156da565b81518110614cea57614cea6153ea565b016020015160f81c901b602888614d028960056156da565b81518110614d1257614d126153ea565b016020015160f81c901b603089614d2a8a60066156da565b81518110614d3a57614d3a6153ea565b016020015160f81c901b60388a614d528b60076156da565b81518110614d6257614d626153ea565b016020015160f81c901b17171717171717905092915050565b604080516101c0810182526000808252602082018190529181018290526060808201839052608082015260a081018290529060c08201908152602001600081526020016060815260200160006001600160a01b0316815260200160006001600160a01b031681526020016060815260200160608152602001600081525090565b600080600060408486031215614e1057600080fd5b8335925060208401356001600160401b0380821115614e2e57600080fd5b818601915086601f830112614e4257600080fd5b813581811115614e5157600080fd5b8760208260051b8501011115614e6657600080fd5b6020830194508093505050509250925092565b6001600160a01b03811681146130ea57600080fd5b600080600060608486031215614ea357600080fd5b8335614eae81614e79565b9250602084013591506040840135614ec581614e79565b809150509250925092565b600060208284031215614ee257600080fd5b8135610cdf81614e79565b600060208284031215614eff57600080fd5b5035919050565b60005b83811015614f21578181015183820152602001614f09565b50506000910152565b60008151808452614f42816020860160208601614f06565b601f01601f19169290920160200192915050565b634e487b7160e01b600052602160045260246000fd5b60068110614f8a57634e487b7160e01b600052602160045260246000fd5b9052565b600082825180855260208086019550808260051b84010181860160005b8481101561500b57601f19868403018952815160808151855263ffffffff8683015116868601526040808301518282880152614fe983880182614f2a565b6060948501519790940196909652505098840198925090830190600101614fab565b5090979650505050505050565b602081526150326020820183516001600160a01b03169052565b6000602083015161504e60408401826001600160a01b03169052565b50604083015160608301526060830151608083015260808301516101c08060a085015261507f6101e0850183614f2a565b915060a085015160c085015260c085015161509d60e0860182614f6c565b5060e0850151610100818187015280870151915050601f196101208187860301818801526150cb8584614f2a565b9450808801519250506101406150eb818801846001600160a01b03169052565b8701519150610160615107878201846001600160a01b03169052565b808801519250506101808187860301818801526151248584614f8e565b9450808801519250506101a08187860301818801526151438584614f2a565b970151959092019490945250929392505050565b60008083601f84011261516957600080fd5b5081356001600160401b0381111561518057600080fd5b602083019150836020828501011115613bef57600080fd5b6000806000604084860312156151ad57600080fd5b8335925060208401356001600160401b038111156151ca57600080fd5b6151d686828701615157565b9497909650939450505050565b6001600160a01b038e811682528d1660208201528b60408201528a60608201526101a06080820152600061521b6101a083018c614f2a565b8a60a084015261522e60c084018b614f6c565b8860e08401528281036101008401526152478189614f2a565b6001600160a01b03881661012085015290506001600160a01b03861661014084015282810361016084015261527c8186614f2a565b915050826101808301529e9d5050505050505050505050505050565b600080600080600080600060a0888a0312156152b357600080fd5b8735965060208801356001600160401b03808211156152d157600080fd5b6152dd8b838c01615157565b909850965060408a01359150600382106152f657600080fd5b9094506060890135908082111561530c57600080fd5b506153198a828b01615157565b909450925050608088013561532d81614e79565b8091505092959891949750929550565b60208101612b868284614f6c565b6000806040838503121561535e57600080fd5b82359150602083013561537081614e79565b809150509250929050565b6000806000806080858703121561539157600080fd5b843561539c81614e79565b935060208501356153ac81614e79565b925060408501356153bc81614e79565b915060608501356153cc81614e79565b939692955090935050565b602081526000610cdf6020830184614f2a565b634e487b7160e01b600052603260045260246000fd5b60008235607e1983360301811261541657600080fd5b9190910192915050565b634e487b7160e01b600052604160045260246000fd5b600181811c9082168061544a57607f821691505b6020821081036127bd57634e487b7160e01b600052602260045260246000fd5b601f8211156154b457600081815260208120601f850160051c810160208610156154915750805b601f850160051c820191505b818110156154b05782815560010161549d565b5050505b505050565b6001600160401b038311156154d0576154d0615420565b6154e4836154de8354615436565b8361546a565b6000601f84116001811461551857600085156155005750838201355b600019600387901b1c1916600186901b178355615572565b600083815260209020601f19861690835b828110156155495786850135825560209485019460019092019101615529565b50868210156155665760001960f88860031b161c19848701351681555b505060018560011b0183555b5050505050565b8135815560018101602083013563ffffffff811680821461559957600080fd5b825463ffffffff19161790915550604082013536839003601e190181126155bf57600080fd5b820180356001600160401b038111156155d757600080fd5b6020820191508036038213156155ec57600080fd5b6155fa8183600286016154b9565b5050606082013560038201555050565b634e487b7160e01b600052601160045260246000fd5b6000600182016156325761563261560a565b5060010190565b8051801515811461564957600080fd5b919050565b60006020828403121561566057600080fd5b610cdf82615639565b81810381811115612b8657612b8661560a565b60006020828403121561568e57600080fd5b5051919050565b81835281816020850137506000828201602090810191909152601f909101601f19169091010190565b6020815260006156d2602083018486615695565b949350505050565b80820180821115612b8657612b8661560a565b8183823760009101908152919050565b60008251615416818460208701614f06565b600060018060a01b0380891683526080602084015261573260808401888a615695565b8381036040850152615745818789615695565b925050808416606084015250979650505050505050565b60405161020081016001600160401b038111828210171561577f5761577f615420565b60405290565b604051601f8201601f191681016001600160401b03811182821017156157ad576157ad615420565b604052919050565b805161564981614e79565b600082601f8301126157d157600080fd5b815160206001600160401b038211156157ec576157ec615420565b8160051b6157fb828201615785565b928352848101820192828101908785111561581557600080fd5b83870192505b848310156158345782518252918301919083019061581b565b979650505050505050565b600082601f83011261585057600080fd5b81516001600160401b0381111561586957615869615420565b61587c601f8201601f1916602001615785565b81815284602083860101111561589157600080fd5b6156d2826020830160208701614f06565b6000602082840312156158b457600080fd5b81516001600160401b03808211156158cb57600080fd5b9083019061020082860312156158e057600080fd5b6158e861575c565b6158f1836157b5565b81526158ff60208401615639565b602082015260408301516040820152606083015160608201526080830151608082015261592e60a084016157b5565b60a082015261593f60c084016157b5565b60c082015260e08301518281111561595657600080fd5b615962878286016157c0565b60e0830152506101006159768185016157b5565b90820152610120838101518381111561598e57600080fd5b61599a8882870161583f565b82840152505061014080840151838111156159b457600080fd5b6159c08882870161583f565b82840152505061016080840151818301525061018080840151838111156159e657600080fd5b6159f28882870161583f565b8284015250506101a08084015183811115615a0c57600080fd5b615a188882870161583f565b8284015250506101c09150615a2e8284016157b5565b918101919091526101e091820151918101919091529392505050565b60008085851115615a5a57600080fd5b83861115615a6757600080fd5b5050820193919092039150565b80356020831015612b8657600019602084900360031b1b1692915050565b6001600160e01b03198135818116916004851015615aba5780818660040360031b1b83161692505b505092915050565b8082028115828204841417612b8657612b8661560a565b600082615af657634e487b7160e01b600052601260045260246000fd5b500490565b600060208284031215615b0d57600080fd5b8151610cdf81614e79565b805160208083015191908110156127bd5760001960209190910360031b1b1691905056fe9b779b17422d0df92223018b32b4d1fa46e071723d6817e2486d003becc55f00a2646970667358221220266dd7dd5cf5ab58756ba08e82cd9db73eee393a507e04dba6bc766adf31a4c664736f6c63430008140033",
  "linkReferences": {},
  "deployedLinkReferences": {}
}