{
  "_format": "hh-sol-artifact-1",
  "contractName": "DAppRegistry",
  "sourceName": "contracts/core/DAppRegistry.sol",
  "abi": [
    {
      "inputs": [],
      "stateMutability": "nonpayable",
      "type": "constructor"
    },
    {
      "inputs": [],
      "name": "InvalidInitialization",
      "type": "error"
    },
    {
      "inputs": [],
      "name": "NotInitializing",
      "type": "error"
    },
    {
      "inputs": [
        {
          "internalType": "address",
          "name": "owner",
          "type": "address"
        }
      ],
      "name": "OwnableInvalidOwner",
      "type": "error"
    },
    {
      "inputs": [
        {
          "internalType": "address",
          "name": "account",
          "type": "address"
        }
      ],
      "name": "OwnableUnauthorizedAccount",
      "type": "error"
    },
    {
      "anonymous": false,
      "inputs": [
        {
          "indexed": true,
          "internalType": "address",
          "name": "oldConfigManager",
          "type": "address"
        },
        {
          "indexed": true,
          "internalType": "address",
          "name": "newConfigManager",
          "type": "address"
        }
      ],
      "name": "ConfigManagerUpdated",
      "type": "event"
    },
    {
      "anonymous": false,
      "inputs": [
        {
          "indexed": true,
          "internalType": "address",
          "name": "dapp",
          "type": "address"
        }
      ],
      "name": "DAppAuthorized",
      "type": "event"
    },
    {
      "anonymous": false,
      "inputs": [
        {
          "indexed": true,
          "internalType": "address",
          "name": "dapp",
          "type": "address"
        }
      ],
      "name": "DAppDeregistered",
      "type": "event"
    },
    {
      "anonymous": false,
      "inputs": [
        {
          "indexed": true,
          "internalType": "address",
          "name": "dapp",
          "type": "address"
        },
        {
          "indexed": true,
          "internalType": "address",
          "name": "owner",
          "type": "address"
        }
      ],
      "name": "DAppRegistered",
      "type": "event"
    },
    {
      "anonymous": false,
      "inputs": [
        {
          "indexed": true,
          "internalType": "address",
          "name": "dapp",
          "type": "address"
        }
      ],
      "name": "DAppSuspended",
      "type": "event"
    },
    {
      "anonymous": false,
      "inputs": [
        {
          "indexed": false,
          "internalType": "uint64",
          "name": "version",
          "type": "uint64"
        }
      ],
      "name": "Initialized",
      "type": "event"
    },
    {
      "anonymous": false,
      "inputs": [
        {
          "indexed": true,
          "internalType": "address",
          "name": "previousOwner",
          "type": "address"
        },
        {
          "indexed": true,
          "internalType": "address",
          "name": "newOwner",
          "type": "address"
        }
      ],
      "name": "OwnershipTransferred",
      "type": "event"
    },
    {
      "inputs": [],
      "name": "REGISTRATION_FEE",
      "outputs": [
        {
          "internalType": "uint256",
          "name": "",
          "type": "uint256"
        }
      ],
      "stateMutability": "view",
      "type": "function"
    },
    {
      "inputs": [
        {
          "internalType": "address",
          "name": "dapp",
          "type": "address"
        }
      ],
      "name": "authorizeDApp",
      "outputs": [],
      "stateMutability": "nonpayable",
      "type": "function"
    },
    {
      "inputs": [],
      "name": "configManager",
      "outputs": [
        {
          "internalType": "contract IConfigManager",
          "name": "",
          "type": "address"
        }
      ],
      "stateMutability": "view",
      "type": "function"
    },
    {
      "inputs": [
        {
          "internalType": "address",
          "name": "dapp",
          "type": "address"
        }
      ],
      "name": "deregisterDApp",
      "outputs": [],
      "stateMutability": "nonpayable",
      "type": "function"
    },
    {
      "inputs": [
        {
          "internalType": "address",
          "name": "dapp",
          "type": "address"
        }
      ],
      "name": "getDAppOwner",
      "outputs": [
        {
          "internalType": "address",
          "name": "",
          "type": "address"
        }
      ],
      "stateMutability": "view",
      "type": "function"
    },
    {
      "inputs": [
        {
          "internalType": "address",
          "name": "dapp",
          "type": "address"
        }
      ],
      "name": "getDAppStatus",
      "outputs": [
        {
          "internalType": "enum DataTypes.DAppStatus",
          "name": "",
          "type": "uint8"
        }
      ],
      "stateMutability": "view",
      "type": "function"
    },
    {
      "inputs": [
        {
          "internalType": "address",
          "name": "_configManager",
          "type": "address"
        }
      ],
      "name": "initialize",
      "outputs": [],
      "stateMutability": "nonpayable",
      "type": "function"
    },
    {
      "inputs": [
        {
          "internalType": "address",
          "name": "dapp",
          "type": "address"
        }
      ],
      "name": "isActiveDApp",
      "outputs": [
        {
          "internalType": "bool",
          "name": "",
          "type": "bool"
        }
      ],
      "stateMutability": "view",
      "type": "function"
    },
    {
      "inputs": [
        {
          "internalType": "address",
          "name": "dapp",
          "type": "address"
        }
      ],
      "name": "isRegistered",
      "outputs": [
        {
          "internalType": "bool",
          "name": "",
          "type": "bool"
        }
      ],
      "stateMutability": "view",
      "type": "function"
    },
    {
      "inputs": [],
      "name": "owner",
      "outputs": [
        {
          "internalType": "address",
          "name": "",
          "type": "address"
        }
      ],
      "stateMutability": "view",
      "type": "function"
    },
    {
      "inputs": [
        {
          "internalType": "address",
          "name": "dappContract",
          "type": "address"
        }
      ],
      "name": "registerDApp",
      "outputs": [],
      "stateMutability": "payable",
      "type": "function"
    },
    {
      "inputs": [],
      "name": "renounceOwnership",
      "outputs": [],
      "stateMutability": "nonpayable",
      "type": "function"
    },
    {
      "inputs": [
        {
          "internalType": "address",
          "name": "_configManager",
          "type": "address"
        }
      ],
      "name": "setConfigManager",
      "outputs": [],
      "stateMutability": "nonpayable",
      "type": "function"
    },
    {
      "inputs": [
        {
          "internalType": "address",
          "name": "newOwner",
          "type": "address"
        }
      ],
      "name": "transferOwnership",
      "outputs": [],
      "stateMutability": "nonpayable",
      "type": "function"
    }
  ],
  "bytecode": "0x608060405234801561001057600080fd5b5061001961001e565b6100d0565b7ff0c57e16840df040f15088dc2f81fe391c3923bec73e23a9662efc9c229c6a00805468010000000000000000900460ff161561006e5760405163f92ee8a960e01b815260040160405180910390fd5b80546001600160401b03908116146100cd5780546001600160401b0319166001600160401b0390811782556040519081527fc7f505b2f371ae2175ee4913f4499e1f2633a7b5936321eed1cdaeb6115181d29060200160405180910390a15b50565b610d18806100df6000396000f3fe6080604052600436106100dd5760003560e01c8063c4d66de81161007f578063d83c123d11610059578063d83c123d14610238578063e80263dc1461027e578063f0c9bcfd1461029e578063f2fde38b146102d757600080fd5b8063c4d66de8146101d8578063ca0ab075146101f8578063d05b90561461021857600080fd5b806382adbfde116100bb57806382adbfde146101485780638da5cb5b1461015b578063b4e25e8014610188578063c3c5a547146101a857600080fd5b806364b4f751146100e2578063715018a6146101115780637d1bff5714610128575b600080fd5b3480156100ee57600080fd5b506100fe678ac7230489e8000081565b6040519081526020015b60405180910390f35b34801561011d57600080fd5b506101266102f7565b005b34801561013457600080fd5b50610126610143366004610c15565b61030b565b610126610156366004610c15565b61049f565b34801561016757600080fd5b50610170610727565b6040516001600160a01b039091168152602001610108565b34801561019457600080fd5b506101266101a3366004610c15565b610755565b3480156101b457600080fd5b506101c86101c3366004610c15565b6107f7565b6040519015158152602001610108565b3480156101e457600080fd5b506101266101f3366004610c15565b610830565b34801561020457600080fd5b50600254610170906001600160a01b031681565b34801561022457600080fd5b506101c8610233366004610c15565b6109a3565b34801561024457600080fd5b50610271610253366004610c15565b6001600160a01b031660009081526020819052604090205460ff1690565b6040516101089190610c4f565b34801561028a57600080fd5b50610126610299366004610c15565b6109ac565b3480156102aa57600080fd5b506101706102b9366004610c15565b6001600160a01b039081166000908152600160205260409020541690565b3480156102e357600080fd5b506101266102f2366004610c15565b610abd565b6102ff610afb565b6103096000610b2d565b565b6001600160a01b03811661035c57604080518082018252600c81526b5a65726f206164647265737360a01b6020820152905162461bcd60e51b81526103539190600401610c77565b60405180910390fd5b6001600160a01b03811660009081526020819052604081205460ff16600481111561038957610389610c39565b036103cf57604080518082018252601381527211105c1c081b9bdd081c9959da5cdd195c9959606a1b6020820152905162461bcd60e51b81526103539190600401610c77565b6001600160a01b0381811660009081526001602052604090205416331480159061041257506103fc610727565b6001600160a01b0316336001600160a01b031614155b1561045357604080518082018252600e81526d139bdd08185d5d1a1bdc9a5e995960921b6020820152905162461bcd60e51b81526103539190600401610c77565b6001600160a01b038116600081815260208190526040808220805460ff19166004179055517f5be02dc93181c90c736ed2fd1e05bd3972f0d008b3274ca14909f0465456b7739190a250565b6001600160a01b0381166104e757604080518082018252600c81526b5a65726f206164647265737360a01b6020820152905162461bcd60e51b81526103539190600401610c77565b6001600160a01b03811660009081526020819052604081205460ff16600481111561051457610514610c39565b1461056457604080518082018252601781527f4441707020616c726561647920726567697374657265640000000000000000006020820152905162461bcd60e51b81526103539190600401610c77565b678ac7230489e8000034146105b157604080518082018252601081526f496e73756666696369656e742066656560801b6020820152905162461bcd60e51b81526103539190600401610c77565b6002546040805163045b2b8560e51b815290516000926001600160a01b031691638b6570a09160048083019260209291908290030181865afa1580156105fb573d6000803e3d6000fd5b505050506040513d601f19601f8201168201806040525081019061061f9190610cc5565b90506000816001600160a01b03163460405160006040518083038185875af1925050503d806000811461066e576040519150601f19603f3d011682016040523d82523d6000602084013e610673565b606091505b50509050806106b957604080518082018252600f81526e151c985b9cd9995c8819985a5b1959608a1b6020820152905162461bcd60e51b81526103539190600401610c77565b6001600160a01b038316600081815260208181526040808320805460ff191660019081179091559091528082208054336001600160a01b0319909116811790915590519092917f9556da376adaed27a1a0abee59b39c360a149f34758848160830a78715e8524d91a3505050565b7f9016d09d72d40fdae2fd8ceac6b6234c7706214fd39c1cd1e609a0528c199300546001600160a01b031690565b61075d610afb565b6001600160a01b0381166107a557604080518082018252600c81526b5a65726f206164647265737360a01b6020820152905162461bcd60e51b81526103539190600401610c77565b600280546001600160a01b038381166001600160a01b0319831681179093556040519116919082907f9a8adda1be0c6ce602e02c6b77f3da07fadafdc4b4b8d466e3f967ee5ba24a9290600090a35050565b600060015b6001600160a01b03831660009081526020819052604090205460ff16600481111561082957610829610c39565b1492915050565b7ff0c57e16840df040f15088dc2f81fe391c3923bec73e23a9662efc9c229c6a008054600160401b810460ff16159067ffffffffffffffff166000811580156108765750825b905060008267ffffffffffffffff1660011480156108935750303b155b9050811580156108a1575080155b156108bf5760405163f92ee8a960e01b815260040160405180910390fd5b845467ffffffffffffffff1916600117855583156108e957845460ff60401b1916600160401b1785555b6108f233610b9e565b6001600160a01b03861661093a57604080518082018252600c81526b5a65726f206164647265737360a01b6020820152905162461bcd60e51b81526103539190600401610c77565b600280546001600160a01b0319166001600160a01b038816179055831561099b57845460ff60401b19168555604051600181527fc7f505b2f371ae2175ee4913f4499e1f2633a7b5936321eed1cdaeb6115181d29060200160405180910390a15b505050505050565b600060026107fc565b6109b4610afb565b6001600160a01b0381166109fc57604080518082018252600c81526b5a65726f206164647265737360a01b6020820152905162461bcd60e51b81526103539190600401610c77565b60016001600160a01b03821660009081526020819052604090205460ff166004811115610a2b57610a2b610c39565b14610a7157604080518082018252601381527211105c1c081b9bdd081c9959da5cdd195c9959606a1b6020820152905162461bcd60e51b81526103539190600401610c77565b6001600160a01b038116600081815260208190526040808220805460ff19166002179055517fa4e9a3f971c061ed79f140c54a4bd3a6b627031cb183cf824e50c1eed621ddeb9190a250565b610ac5610afb565b6001600160a01b038116610aef57604051631e4fbdf760e01b815260006004820152602401610353565b610af881610b2d565b50565b33610b04610727565b6001600160a01b0316146103095760405163118cdaa760e01b8152336004820152602401610353565b7f9016d09d72d40fdae2fd8ceac6b6234c7706214fd39c1cd1e609a0528c19930080546001600160a01b031981166001600160a01b03848116918217845560405192169182907f8be0079c531659141344cd1fd0a4f28419497f9722a3daafe3b4186f6b6457e090600090a3505050565b610ba6610baf565b610af881610bf8565b7ff0c57e16840df040f15088dc2f81fe391c3923bec73e23a9662efc9c229c6a0054600160401b900460ff1661030957604051631afcd79f60e31b815260040160405180910390fd5b610ac5610baf565b6001600160a01b0381168114610af857600080fd5b600060208284031215610c2757600080fd5b8135610c3281610c00565b9392505050565b634e487b7160e01b600052602160045260246000fd5b6020810160058310610c7157634e487b7160e01b600052602160045260246000fd5b91905290565b600060208083528351808285015260005b81811015610ca457858101830151858201604001528201610c88565b506000604082860101526040601f19601f8301168501019250505092915050565b600060208284031215610cd757600080fd5b8151610c3281610c0056fea26469706673582212200bb75983f4c9fd50cf92817e73c28b65b91af07b719166fd00c7f5d94e825f7564736f6c63430008140033",
  "linkReferences": {},
  "deployedLinkReferences": {}
}