{
  "_format": "hh-sol-artifact-1",
  "contractName": "CompensationManager",
  "sourceName": "contracts/core/CompensationManager.sol",
  "abi": [
    {
      "inputs": [],
      "stateMutability": "nonpayable",
      "type": "constructor"
    },
    {
      "inputs": [],
      "name": "InvalidInitialization",
      "type": "error"
    },
    {
      "inputs": [],
      "name": "NotInitializing",
      "type": "error"
    },
    {
      "inputs": [
        {
          "internalType": "address",
          "name": "owner",
          "type": "address"
        }
      ],
      "name": "OwnableInvalidOwner",
      "type": "error"
    },
    {
      "inputs": [
        {
          "internalType": "address",
          "name": "account",
          "type": "address"
        }
      ],
      "name": "OwnableUnauthorizedAccount",
      "type": "error"
    },
    {
      "anonymous": false,
      "inputs": [
        {
          "indexed": true,
          "internalType": "address",
          "name": "newArbitratorManager",
          "type": "address"
        }
      ],
      "name": "ArbitratorManagerUpdated",
      "type": "event"
    },
    {
      "anonymous": false,
      "inputs": [
        {
          "indexed": true,
          "internalType": "bytes32",
          "name": "claimId",
          "type": "bytes32"
        },
        {
          "indexed": true,
          "internalType": "address",
          "name": "claimer",
          "type": "address"
        },
        {
          "indexed": true,
          "internalType": "address",
          "name": "arbitrator",
          "type": "address"
        },
        {
          "indexed": false,
          "internalType": "uint256",
          "name": "ethAmount",
          "type": "uint256"
        },
        {
          "indexed": false,
          "internalType": "uint256[]",
          "name": "nftTokenIds",
          "type": "uint256[]"
        },
        {
          "indexed": false,
          "internalType": "uint256",
          "name": "totalAmount",
          "type": "uint256"
        },
        {
          "indexed": false,
          "internalType": "address",
          "name": "receivedCompensationAddress",
          "type": "address"
        },
        {
          "indexed": false,
          "internalType": "uint8",
          "name": "claimType",
          "type": "uint8"
        }
      ],
      "name": "CompensationClaimed",
      "type": "event"
    },
    {
      "anonymous": false,
      "inputs": [
        {
          "indexed": true,
          "internalType": "bytes32",
          "name": "claimId",
          "type": "bytes32"
        },
        {
          "indexed": true,
          "internalType": "address",
          "name": "claimer",
          "type": "address"
        },
        {
          "indexed": true,
          "internalType": "address",
          "name": "receivedCompensationAddress",
          "type": "address"
        },
        {
          "indexed": false,
          "internalType": "uint256",
          "name": "ethAmount",
          "type": "uint256"
        },
        {
          "indexed": false,
          "internalType": "uint256[]",
          "name": "nftTokenIds",
          "type": "uint256[]"
        },
        {
          "indexed": false,
          "internalType": "uint256",
          "name": "systemFee",
          "type": "uint256"
        },
        {
          "indexed": false,
          "internalType": "uint256",
          "name": "excessPaymenttoClaimer",
          "type": "uint256"
        }
      ],
      "name": "CompensationWithdrawn",
      "type": "event"
    },
    {
      "anonymous": false,
      "inputs": [
        {
          "indexed": true,
          "internalType": "address",
          "name": "newConfigManager",
          "type": "address"
        }
      ],
      "name": "ConfigManagerUpdated",
      "type": "event"
    },
    {
      "anonymous": false,
      "inputs": [
        {
          "indexed": false,
          "internalType": "uint64",
          "name": "version",
          "type": "uint64"
        }
      ],
      "name": "Initialized",
      "type": "event"
    },
    {
      "anonymous": false,
      "inputs": [
        {
          "indexed": true,
          "internalType": "address",
          "name": "previousOwner",
          "type": "address"
        },
        {
          "indexed": true,
          "internalType": "address",
          "name": "newOwner",
          "type": "address"
        }
      ],
      "name": "OwnershipTransferred",
      "type": "event"
    },
    {
      "anonymous": false,
      "inputs": [
        {
          "indexed": true,
          "internalType": "address",
          "name": "newSignatureValidationService",
          "type": "address"
        }
      ],
      "name": "SignatureValidationServiceUpdated",
      "type": "event"
    },
    {
      "anonymous": false,
      "inputs": [
        {
          "indexed": true,
          "internalType": "address",
          "name": "newTransactionManager",
          "type": "address"
        }
      ],
      "name": "TransactionManagerUpdated",
      "type": "event"
    },
    {
      "anonymous": false,
      "inputs": [
        {
          "indexed": true,
          "internalType": "address",
          "name": "newZkService",
          "type": "address"
        }
      ],
      "name": "ZkServiceUpdated",
      "type": "event"
    },
    {
      "inputs": [],
      "name": "arbitratorManager",
      "outputs": [
        {
          "internalType": "contract IArbitratorManager",
          "name": "",
          "type": "address"
        }
      ],
      "stateMutability": "view",
      "type": "function"
    },
    {
      "inputs": [
        {
          "internalType": "bytes32",
          "name": "txId",
          "type": "bytes32"
        }
      ],
      "name": "claimArbitratorFee",
      "outputs": [
        {
          "internalType": "bytes32",
          "name": "",
          "type": "bytes32"
        }
      ],
      "stateMutability": "nonpayable",
      "type": "function"
    },
    {
      "inputs": [
        {
          "internalType": "bytes32",
          "name": "evidence",
          "type": "bytes32"
        }
      ],
      "name": "claimFailedArbitrationCompensation",
      "outputs": [
        {
          "internalType": "bytes32",
          "name": "claimId",
          "type": "bytes32"
        }
      ],
      "stateMutability": "nonpayable",
      "type": "function"
    },
    {
      "inputs": [
        {
          "internalType": "address",
          "name": "arbitrator",
          "type": "address"
        },
        {
          "internalType": "bytes32",
          "name": "evidence",
          "type": "bytes32"
        }
      ],
      "name": "claimIllegalSignatureCompensation",
      "outputs": [
        {
          "internalType": "bytes32",
          "name": "claimId",
          "type": "bytes32"
        }
      ],
      "stateMutability": "nonpayable",
      "type": "function"
    },
    {
      "inputs": [
        {
          "internalType": "bytes32",
          "name": "id",
          "type": "bytes32"
        }
      ],
      "name": "claimTimeoutCompensation",
      "outputs": [
        {
          "internalType": "bytes32",
          "name": "claimId",
          "type": "bytes32"
        }
      ],
      "stateMutability": "nonpayable",
      "type": "function"
    },
    {
      "inputs": [
        {
          "internalType": "bytes32",
          "name": "",
          "type": "bytes32"
        }
      ],
      "name": "claims",
      "outputs": [
        {
          "internalType": "address",
          "name": "claimer",
          "type": "address"
        },
        {
          "internalType": "address",
          "name": "arbitrator",
          "type": "address"
        },
        {
          "internalType": "uint256",
          "name": "ethAmount",
          "type": "uint256"
        },
        {
          "internalType": "address",
          "name": "nftContract",
          "type": "address"
        },
        {
          "internalType": "uint256",
          "name": "totalAmount",
          "type": "uint256"
        },
        {
          "internalType": "bool",
          "name": "withdrawn",
          "type": "bool"
        },
        {
          "internalType": "enum CompensationManager.CompensationType",
          "name": "claimType",
          "type": "uint8"
        },
        {
          "internalType": "address",
          "name": "receivedCompensationAddress",
          "type": "address"
        }
      ],
      "stateMutability": "view",
      "type": "function"
    },
    {
      "inputs": [],
      "name": "configManager",
      "outputs": [
        {
          "internalType": "contract IConfigManager",
          "name": "",
          "type": "address"
        }
      ],
      "stateMutability": "view",
      "type": "function"
    },
    {
      "inputs": [
        {
          "internalType": "bytes32",
          "name": "claimId",
          "type": "bytes32"
        }
      ],
      "name": "getClaimableAmount",
      "outputs": [
        {
          "internalType": "uint256",
          "name": "",
          "type": "uint256"
        }
      ],
      "stateMutability": "view",
      "type": "function"
    },
    {
      "inputs": [
        {
          "internalType": "address",
          "name": "_zkService",
          "type": "address"
        },
        {
          "internalType": "address",
          "name": "_configManager",
          "type": "address"
        },
        {
          "internalType": "address",
          "name": "_arbitratorManager",
          "type": "address"
        },
        {
          "internalType": "address",
          "name": "_signatureValidationService",
          "type": "address"
        }
      ],
      "name": "initialize",
      "outputs": [],
      "stateMutability": "nonpayable",
      "type": "function"
    },
    {
      "inputs": [],
      "name": "owner",
      "outputs": [
        {
          "internalType": "address",
          "name": "",
          "type": "address"
        }
      ],
      "stateMutability": "view",
      "type": "function"
    },
    {
      "inputs": [],
      "name": "renounceOwnership",
      "outputs": [],
      "stateMutability": "nonpayable",
      "type": "function"
    },
    {
      "inputs": [
        {
          "internalType": "address",
          "name": "_arbitratorManager",
          "type": "address"
        }
      ],
      "name": "setArbitratorManager",
      "outputs": [],
      "stateMutability": "nonpayable",
      "type": "function"
    },
    {
      "inputs": [
        {
          "internalType": "address",
          "name": "_configManager",
          "type": "address"
        }
      ],
      "name": "setConfigManager",
      "outputs": [],
      "stateMutability": "nonpayable",
      "type": "function"
    },
    {
      "inputs": [
        {
          "internalType": "address",
          "name": "_signatureValidationService",
          "type": "address"
        }
      ],
      "name": "setSignatureValidationService",
      "outputs": [],
      "stateMutability": "nonpayable",
      "type": "function"
    },
    {
      "inputs": [
        {
          "internalType": "address",
          "name": "_transactionManager",
          "type": "address"
        }
      ],
      "name": "setTransactionManager",
      "outputs": [],
      "stateMutability": "nonpayable",
      "type": "function"
    },
    {
      "inputs": [
        {
          "internalType": "address",
          "name": "_zkService",
          "type": "address"
        }
      ],
      "name": "setZkService",
      "outputs": [],
      "stateMutability": "nonpayable",
      "type": "function"
    },
    {
      "inputs": [],
      "name": "signatureValidationService",
      "outputs": [
        {
          "internalType": "contract ISignatureValidationService",
          "name": "",
          "type": "address"
        }
      ],
      "stateMutability": "view",
      "type": "function"
    },
    {
      "inputs": [],
      "name": "transactionManager",
      "outputs": [
        {
          "internalType": "contract ITransactionManager",
          "name": "",
          "type": "address"
        }
      ],
      "stateMutability": "view",
      "type": "function"
    },
    {
      "inputs": [
        {
          "internalType": "address",
          "name": "newOwner",
          "type": "address"
        }
      ],
      "name": "transferOwnership",
      "outputs": [],
      "stateMutability": "nonpayable",
      "type": "function"
    },
    {
      "inputs": [
        {
          "internalType": "bytes32",
          "name": "claimId",
          "type": "bytes32"
        }
      ],
      "name": "withdrawCompensation",
      "outputs": [],
      "stateMutability": "payable",
      "type": "function"
    },
    {
      "inputs": [],
      "name": "zkService",
      "outputs": [
        {
          "internalType": "contract IZkService",
          "name": "",
          "type": "address"
        }
      ],
      "stateMutability": "view",
      "type": "function"
    },
    {
      "stateMutability": "payable",
      "type": "receive"
    }
  ],
  "bytecode": "0x60806040523480156200001157600080fd5b506200001c62000022565b620000d6565b7ff0c57e16840df040f15088dc2f81fe391c3923bec73e23a9662efc9c229c6a00805468010000000000000000900460ff1615620000735760405163f92ee8a960e01b815260040160405180910390fd5b80546001600160401b0390811614620000d35780546001600160401b0319166001600160401b0390811782556040519081527fc7f505b2f371ae2175ee4913f4499e1f2633a7b5936321eed1cdaeb6115181d29060200160405180910390a15b50565b61365a80620000e66000396000f3fe60806040526004361061012e5760003560e01c80638cc5d008116100ab578063bb64fd441161006f578063bb64fd441461034c578063ca0ab0751461036c578063e2a0a69c1461038c578063eff0f592146103ac578063f2fde38b14610435578063f8c8765e1461045557600080fd5b80638cc5d0081461029c5780638da5cb5b146102af57806399b29871146102ec5780639a46c8cf1461030c578063b4e25e801461032c57600080fd5b80635b33b1df116100f25780635b33b1df146102075780635cd5f63714610227578063614b5d8c14610247578063715018a614610267578063759787c41461027c57600080fd5b806301db96cf1461013a5780630b1fa61c1461016d5780632c7e8ca31461018f5780633b716452146101af5780633e5d7588146101e757600080fd5b3661013557005b600080fd5b34801561014657600080fd5b5061015a610155366004612adc565b610475565b6040519081526020015b60405180910390f35b34801561017957600080fd5b5061018d610188366004612b08565b610bc6565b005b34801561019b57600080fd5b5061018d6101aa366004612b08565b610c79565b3480156101bb57600080fd5b506001546101cf906001600160a01b031681565b6040516001600160a01b039091168152602001610164565b3480156101f357600080fd5b5061018d610202366004612b08565b610d2b565b34801561021357600080fd5b5061015a610222366004612b2c565b610dd1565b34801561023357600080fd5b506000546101cf906001600160a01b031681565b34801561025357600080fd5b5061018d610262366004612b08565b6114f6565b34801561027357600080fd5b5061018d6115b1565b34801561028857600080fd5b506003546101cf906001600160a01b031681565b61018d6102aa366004612b2c565b6115c5565b3480156102bb57600080fd5b507f9016d09d72d40fdae2fd8ceac6b6234c7706214fd39c1cd1e609a0528c199300546001600160a01b03166101cf565b3480156102f857600080fd5b5061015a610307366004612b2c565b611aaa565b34801561031857600080fd5b5061015a610327366004612b2c565b6120a3565b34801561033857600080fd5b5061018d610347366004612b08565b612499565b34801561035857600080fd5b5061015a610367366004612b2c565b612541565b34801561037857600080fd5b506002546101cf906001600160a01b031681565b34801561039857600080fd5b506005546101cf906001600160a01b031681565b3480156103b857600080fd5b506104216103c7366004612b2c565b6004602052600090815260409020805460018201546002830154600384015460058501546006909501546001600160a01b03948516959385169492939183169260ff80831692610100810490911691620100009091041688565b604051610164989796959493929190612b5b565b34801561044157600080fd5b5061018d610450366004612b08565b61256f565b34801561046157600080fd5b5061018d610470366004612bce565b6125ad565b6003546040516326415b0f60e21b81526001600160a01b03848116600483015260009283929116906399056c3c90602401600060405180830381865afa1580156104c3573d6000803e3d6000fd5b505050506040513d6000823e601f3d908101601f191682016040526104eb9190810190612e3d565b606081015190915060000361053357604080518082018252600281526109a760f31b6020820152905162461bcd60e51b815261052a9190600401612fe5565b60405180910390fd5b6001546060820151604051632a242ded60e21b815260048101919091526000916001600160a01b03169063a890b7b490602401600060405180830381865afa158015610583573d6000803e3d6000fd5b505050506040513d6000823e601f3d908101601f191682016040526105ab9190810190613114565b905060008160c0015160058111156105c5576105c5612b45565b146105fa57604080518082018252600281526109a760f31b6020820152905162461bcd60e51b815261052a9190600401612fe5565b838582610120015160006040516020016106179493929190613281565b60408051601f198184030181529181528151602092830120600081815260049093529120549093506001600160a01b03161561067d5760408051808201825260028152614d3960f01b6020820152905162461bcd60e51b815261052a9190600401612fe5565b6040805160c08101825260008082526060602083018190528284018290528083018190526080830182905260a083015254915163ddb8ec8b60e01b81526004810187905290916001600160a01b03169063ddb8ec8b90602401600060405180830381865afa1580156106f3573d6000803e3d6000fd5b505050506040513d6000823e601f3d908101601f1916820160405261071b91908101906132df565b805190915015610755576040805180820182526002815261269b60f11b6020820152905162461bcd60e51b815261052a9190600401612fe5565b602081015151158061076957506040810151155b1561079e576040805180820182526002815261493760f01b6020820152905162461bcd60e51b815261052a9190600401612fe5565b80608001516107d7576040805180820182526002815261299b60f11b6020820152905162461bcd60e51b815261052a9190600401612fe5565b82610120015151600003610815576040805180820182526002815261493760f01b6020820152905162461bcd60e51b815261052a9190600401612fe5565b82610120015180519060200120816020015180519060200120146108635760408051808201825260028152614d3760f01b6020820152905162461bcd60e51b815261052a9190600401612fe5565b6108768160a0015183610160015161277e565b60035460405163014f6b1960e41b81526001600160a01b03888116600483015260009216906314f6b19090602401602060405180830381865afa1580156108c1573d6000803e3d6000fd5b505050506040513d601f19601f820116820180604052508101906108e591906133b8565b90508060000361091f57604080518082018252600281526109c760f31b6020820152905162461bcd60e51b815261052a9190600401612fe5565b604051806101200160405280336001600160a01b03168152602001886001600160a01b03168152602001856080015181526020018560c001516001600160a01b031681526020018560e0015181526020018281526020016000151581526020016000600381111561099257610992612b45565b81526101208501516001600160a01b0390811660209283015260008881526004808452604091829020855181549085166001600160a01b031991821617825586860151600183018054918716918316919091179055928601516002820155606086015160038201805491909516931692909217909255608084015180519193610a2093850192910190612a67565b5060a0820151600582015560c082015160068201805491151560ff1983168117825560e08501519261ff001990911661ffff1990911617610100836003811115610a6c57610a6c612b45565b021790555061010091909101516006909101805462010000600160b01b031916620100006001600160a01b039384160217905560035460405163133165fb60e31b8152898316600482015291169063998b2fd890602401600060405180830381600087803b158015610add57600080fd5b505af1158015610af1573d6000803e3d6000fd5b5050600154606087015161012087015160405163d09d03a360e01b81526001600160a01b03909316945063d09d03a39350610b40926004019182526001600160a01b0316602082015260400190565b600060405180830381600087803b158015610b5a57600080fd5b505af1158015610b6e573d6000803e3d6000fd5b50505050608084015160e08501516101208501516040516001600160a01b038b169333938a9360008051602061360583398151915293610bb493929189916000906133d1565b60405180910390a45050505092915050565b610bce612939565b6001600160a01b038116610c2f5760405162461bcd60e51b815260206004820152602260248201527f496e76616c6964205472616e73616374696f6e4d616e61676572206164647265604482015261737360f01b606482015260840161052a565b600180546001600160a01b0319166001600160a01b0383169081179091556040517f3bc3af46ee56a7b5246248b8e24bb285f23d745c278db873d49f66c027a19f2b90600090a250565b610c81612939565b6001600160a01b038116610ce15760405162461bcd60e51b815260206004820152602160248201527f496e76616c69642041726269747261746f724d616e61676572206164647265736044820152607360f81b606482015260840161052a565b600380546001600160a01b0319166001600160a01b0383169081179091556040517f5501b7dfdd6860a14bdbc85c3ca16cf46242ad8c30ffecaaf2dbc192ef761bfc90600090a250565b610d33612939565b6001600160a01b038116610d895760405162461bcd60e51b815260206004820152601960248201527f496e76616c6964205a6b53657276696365206164647265737300000000000000604482015260640161052a565b600080546001600160a01b0319166001600160a01b038316908117825560405190917f89f8f878479acf261604346b8864312704f9de61c236e83a48afc4d87d93b19a91a250565b600554604051632b7531e160e21b81526004810183905260009182918291829182916001600160a01b03169063add4c78490602401600060405180830381865afa158015610e23573d6000803e3d6000fd5b505050506040513d6000823e601f3d908101601f19168201604052610e4b919081019061343f565b92965090945092509050821580610e6157508151155b80610e6b57508051155b15610ea0576040805180820182526002815261269b60f11b6020820152905162461bcd60e51b815261052a9190600401612fe5565b8315610ed6576040805180820182526002815261533760f01b6020820152905162461bcd60e51b815261052a9190600401612fe5565b60015460405163255709e560e11b8152600481018590526000916001600160a01b031690634aae13ca90602401600060405180830381865afa158015610f20573d6000803e3d6000fd5b505050506040513d6000823e601f3d908101601f19168201604052610f489190810190613114565b80519091506001600160a01b03161580610f6d575060208101516001600160a01b0316155b15610fa257604080518082018252600281526109a760f31b6020820152905162461bcd60e51b815261052a9190600401612fe5565b8681602001518261012001516002604051602001610fc39493929190613281565b60408051601f198184030181529181528151602092830120600081815260049093529120549096506001600160a01b0316156110295760408051808201825260028152614d3960f01b6020820152905162461bcd60e51b815261052a9190600401612fe5565b80610100015151600003611067576040805180820182526002815261533560f01b6020820152905162461bcd60e51b815261052a9190600401612fe5565b828051906020012081610100015180519060200120146110b1576040805180820182526002815261299b60f11b6020820152905162461bcd60e51b815261052a9190600401612fe5565b60035460208201516040516326415b0f60e21b81526001600160a01b03918216600482015260009291909116906399056c3c90602401600060405180830381865afa158015611104573d6000803e3d6000fd5b505050506040513d6000823e601f3d908101601f1916820160405261112c9190810190612e3d565b9050806101200151805190602001208380519060200120146111785760408051808201825260028152614d3760f01b6020820152905162461bcd60e51b815261052a9190600401612fe5565b600354602083015160405163014f6b1960e41b81526001600160a01b03918216600482015260009291909116906314f6b19090602401602060405180830381865afa1580156111cb573d6000803e3d6000fd5b505050506040513d601f19601f820116820180604052508101906111ef91906133b8565b90508060000361122957604080518082018252600281526109c760f31b6020820152905162461bcd60e51b815261052a9190600401612fe5565b604051806101200160405280336001600160a01b0316815260200184602001516001600160a01b03168152602001836080015181526020018360c001516001600160a01b031681526020018360e001518152602001828152602001600015158152602001600260038111156112a0576112a0612b45565b81526101208501516001600160a01b0390811660209283015260008b81526004808452604091829020855181549085166001600160a01b03199182161782558686015160018301805491871691831691909117905592860151600282015560608601516003820180549190951693169290921790925560808401518051919361132e93850192910190612a67565b5060a0820151600582015560c082015160068201805491151560ff1983168117825560e08501519261ff001990911661ffff199091161761010083600381111561137a5761137a612b45565b021790555061010091909101516006909101805462010000600160b01b031916620100006001600160a01b0393841602179055600354602085015160405163133165fb60e31b8152908316600482015291169063998b2fd890602401600060405180830381600087803b1580156113f057600080fd5b505af1158015611404573d6000803e3d6000fd5b5050600154606085015161012087015160405163d09d03a360e01b81526001600160a01b03909316945063d09d03a39350611453926004019182526001600160a01b0316602082015260400190565b600060405180830381600087803b15801561146d57600080fd5b505af1158015611481573d6000803e3d6000fd5b5050505082602001516001600160a01b0316336001600160a01b03168960008051602061360583398151915285608001518660e0015186896101200151600260038111156114d1576114d1612b45565b6040516114e29594939291906133d1565b60405180910390a450505050505050919050565b6114fe612939565b6001600160a01b0381166115675760405162461bcd60e51b815260206004820152602a60248201527f496e76616c6964205369676e617475726556616c69646174696f6e53657276696044820152696365206164647265737360b01b606482015260840161052a565b600580546001600160a01b0319166001600160a01b0383169081179091556040517f477f891f776a7f2e5d05a03ba599cad3b3715530049fc949bf6dc5d7e825c77790600090a250565b6115b9612939565b6115c36000612994565b565b6000818152600460205260409020600681015460ff1615611610576040805180820182526002815261134d60f21b6020820152905162461bcd60e51b815261052a9190600401612fe5565b600281015415801561162457506004810154155b156116595760408051808201825260028152614d3560f01b6020820152905162461bcd60e51b815261052a9190600401612fe5565b60068101546201000090046001600160a01b03166116a157604080518082018252600281526105a360f41b6020820152905162461bcd60e51b815261052a9190600401612fe5565b60025460408051631e4432d760e11b815290516000926001600160a01b031691633c8865ae9160048083019260209291908290030181865afa1580156116eb573d6000803e3d6000fd5b505050506040513d601f19601f8201168201806040525081019061170f91906133b8565b9050600061271082846005015461172691906134d2565b61173091906134ef565b90508034101561176a576040805180820182526002815261543560f01b6020820152905162461bcd60e51b815261052a9190600401612fe5565b60068301805460ff1916600117905560028301541561182557600683015460028401546040516000926201000090046001600160a01b031691908381818185875af1925050503d80600081146117dc576040519150601f19603f3d011682016040523d82523d6000602084013e6117e1565b606091505b50509050806118235760405162461bcd60e51b815260206004820152600e60248201526d151c985b9cd9995c91985a5b195960921b604482015260640161052a565b505b60005b60048401548110156118f957600384015460068501546004860180546001600160a01b03938416936323b872dd93309362010000909104909116918690811061187357611873613511565b6000918252602090912001546040516001600160e01b031960e086901b1681526001600160a01b0393841660048201529290911660248301526044820152606401600060405180830381600087803b1580156118ce57600080fd5b505af11580156118e2573d6000803e3d6000fd5b5050505080806118f190613527565b915050611828565b506002546040805163045b2b8560e51b815290516000926001600160a01b031691638b6570a09160048083019260209291908290030181865afa158015611944573d6000803e3d6000fd5b505050506040513d601f19601f820116820180604052508101906119689190613540565b6040519091506001600160a01b0382169083156108fc029084906000818181858888f193505050501580156119a1573d6000803e3d6000fd5b50600082341115611a44576119b6833461355d565b604051909150600090339083908381818185875af1925050503d80600081146119fb576040519150601f19603f3d011682016040523d82523d6000602084013e611a00565b606091505b5050905080611a425760405162461bcd60e51b815260206004820152600e60248201526d151c985b9cd9995c91985a5b195960921b604482015260640161052a565b505b60068501546002860154604051620100009092046001600160a01b031691339189917fa6a4bd55cab187f1d44eb0f7fde59c599b88b1f8db6e4f916348d93ef1ad695091611a9a9160048c01908a908990613570565b60405180910390a4505050505050565b600154604051632a242ded60e21b81526004810183905260009182916001600160a01b039091169063a890b7b490602401600060405180830381865afa158015611af8573d6000803e3d6000fd5b505050506040513d6000823e601f3d908101601f19168201604052611b209190810190613114565b602080820151610140830151604051939450611b4193879360019101613281565b60408051601f198184030181529181528151602092830120600081815260049093529120549092506001600160a01b031615611ba75760408051808201825260028152614d3960f01b6020820152905162461bcd60e51b815261052a9190600401612fe5565b60028160c001516005811115611bbf57611bbf612b45565b14611bf4576040805180820182526002815261269960f11b6020820152905162461bcd60e51b815261052a9190600401612fe5565b60025460408051632b6f600d60e01b815290516000926001600160a01b031691632b6f600d9160048083019260209291908290030181865afa158015611c3e573d6000803e3d6000fd5b505050506040513d601f19601f82011682018060405250810190611c6291906133b8565b90504281836101a00151611c7691906135cd565b1115611cac5760408051808201825260028152614d3360f01b6020820152905162461bcd60e51b815261052a9190600401612fe5565b60035460208301516040516326415b0f60e21b81526001600160a01b03918216600482015260009291909116906399056c3c90602401600060405180830381865afa158015611cff573d6000803e3d6000fd5b505050506040513d6000823e601f3d908101601f19168201604052611d279190810190612e3d565b600354602085015160405163014f6b1960e41b81526001600160a01b0391821660048201529293506000929116906314f6b19090602401602060405180830381865afa158015611d7b573d6000803e3d6000fd5b505050506040513d601f19601f82011682018060405250810190611d9f91906133b8565b905080600003611dd957604080518082018252600281526109c760f31b6020820152905162461bcd60e51b815261052a9190600401612fe5565b604051806101200160405280336001600160a01b0316815260200185602001516001600160a01b03168152602001836080015181526020018360c001516001600160a01b031681526020018360e00151815260200182815260200160001515815260200160016003811115611e5057611e50612b45565b81526101408601516001600160a01b0390811660209283015260008881526004808452604091829020855181549085166001600160a01b031991821617825586860151600183018054918716918316919091179055928601516002820155606086015160038201805491909516931692909217909255608084015180519193611ede93850192910190612a67565b5060a0820151600582015560c082015160068201805491151560ff1983168117825560e08501519261ff001990911661ffff1990911617610100836003811115611f2a57611f2a612b45565b021790555061010091909101516006909101805462010000600160b01b031916620100006001600160a01b0393841602179055600354602086015160405163133165fb60e31b8152908316600482015291169063998b2fd890602401600060405180830381600087803b158015611fa057600080fd5b505af1158015611fb4573d6000803e3d6000fd5b5050600154606085015161014088015160405163d09d03a360e01b81526001600160a01b03909316945063d09d03a39350612003926004019182526001600160a01b0316602082015260400190565b600060405180830381600087803b15801561201d57600080fd5b505af1158015612031573d6000803e3d6000fd5b5050505083602001516001600160a01b0316336001600160a01b03168660008051602061360583398151915285608001518660e00151868a61014001516001600381111561208157612081612b45565b6040516120929594939291906133d1565b60405180910390a450505050919050565b600154604051632a242ded60e21b81526004810183905260009182916001600160a01b039091169063a890b7b490602401600060405180830381865afa1580156120f1573d6000803e3d6000fd5b505050506040513d6000823e601f3d908101601f191682016040526121199190810190613114565b60208101519091506001600160a01b031633146121605760408051808201825260028152614d3160f01b6020820152905162461bcd60e51b815261052a9190600401612fe5565b600154604051637577b6df60e01b8152600481018590526000916001600160a01b031690637577b6df9060240160408051808303816000875af11580156121ab573d6000803e3d6000fd5b505050506040513d601f19601f820116820180604052508101906121cf91906135e0565b5060035460208401516040516326415b0f60e21b81526001600160a01b0391821660048201529293506000929116906399056c3c90602401600060405180830381865afa158015612224573d6000803e3d6000fd5b505050506040513d6000823e601f3d908101601f1916820160405261224c9190810190612e3d565b90506000858460200151836101c0015160036040516020016122719493929190613281565b60408051601f198184030181529181528151602092830120600081815260049093529120549091506001600160a01b0316156122d75760408051808201825260028152614d3960f01b6020820152905162461bcd60e51b815261052a9190600401612fe5565b60408051610120810182523381526020868101516001600160a01b03908116828401908152838501888152600060608601818152875182815280870189526080880190815260a088018c9052600160c08901819052600360e08a018190526101c08d015188166101008b01528b85526004808a529a909420895181549089166001600160a01b031991821617825596519181018054928916928816929092179091559351600285015590519183018054929095169190931617909255518051939491936123ac93928501929190910190612a67565b5060a0820151600582015560c082015160068201805491151560ff1983168117825560e08501519261ff001990911661ffff19909116176101008360038111156123f8576123f8612b45565b021790555061010091909101516006909101805462010000600160b01b031916620100006001600160a01b0393841602179055602085015116338260008051602061360583398151915286600060405190808252806020026020018201604052801561246e578160200160208202803683370190505b506101c08801516040516124889392918b916003906133d1565b60405180910390a495945050505050565b6124a1612939565b6001600160a01b0381166124f75760405162461bcd60e51b815260206004820152601d60248201527f496e76616c696420436f6e6669674d616e616765722061646472657373000000604482015260640161052a565b600280546001600160a01b0319166001600160a01b0383169081179091556040517f6a801685c5950e3d8ece256f75ca0ff31ed0ae02aeae73f8180ff32e978a2f6b90600090a250565b6000818152600460205260408120600681015460ff16156125655750600092915050565b6005015492915050565b612577612939565b6001600160a01b0381166125a157604051631e4fbdf760e01b81526000600482015260240161052a565b6125aa81612994565b50565b7ff0c57e16840df040f15088dc2f81fe391c3923bec73e23a9662efc9c229c6a008054600160401b810460ff1615906001600160401b03166000811580156125f25750825b90506000826001600160401b0316600114801561260e5750303b155b90508115801561261c575080155b1561263a5760405163f92ee8a960e01b815260040160405180910390fd5b845467ffffffffffffffff19166001178555831561266457845460ff60401b1916600160401b1785555b61266d33612a05565b6001600160a01b038916158061268a57506001600160a01b038816155b8061269c57506001600160a01b038716155b806126ae57506001600160a01b038616155b156126e357604080518082018252600281526105a360f41b6020820152905162461bcd60e51b815261052a9190600401612fe5565b600080546001600160a01b03808c166001600160a01b031992831617909255600280548b8416908316179055600380548a84169083161790556005805492891692909116919091179055831561277357845460ff60401b19168555604051600181527fc7f505b2f371ae2175ee4913f4499e1f2633a7b5936321eed1cdaeb6115181d29060200160405180910390a15b505050505050505050565b80518251146127b7576040805180820182526002815261055360f41b6020820152905162461bcd60e51b815261052a9190600401612fe5565b60005b8251811015612934578181815181106127d5576127d5613511565b6020026020010151600001518382815181106127f3576127f3613511565b60200260200101516000015114612834576040805180820182526002815261055360f41b6020820152905162461bcd60e51b815261052a9190600401612fe5565b81818151811061284657612846613511565b60200260200101516020015163ffffffff1683828151811061286a5761286a613511565b60200260200101516020015163ffffffff16146128b1576040805180820182526002815261055360f41b6020820152905162461bcd60e51b815261052a9190600401612fe5565b8181815181106128c3576128c3613511565b6020026020010151606001518382815181106128e1576128e1613511565b60200260200101516060015114612922576040805180820182526002815261055360f41b6020820152905162461bcd60e51b815261052a9190600401612fe5565b8061292c81613527565b9150506127ba565b505050565b3361296b7f9016d09d72d40fdae2fd8ceac6b6234c7706214fd39c1cd1e609a0528c199300546001600160a01b031690565b6001600160a01b0316146115c35760405163118cdaa760e01b815233600482015260240161052a565b7f9016d09d72d40fdae2fd8ceac6b6234c7706214fd39c1cd1e609a0528c19930080546001600160a01b031981166001600160a01b03848116918217845560405192169182907f8be0079c531659141344cd1fd0a4f28419497f9722a3daafe3b4186f6b6457e090600090a3505050565b612a0d612a16565b6125aa81612a5f565b7ff0c57e16840df040f15088dc2f81fe391c3923bec73e23a9662efc9c229c6a0054600160401b900460ff166115c357604051631afcd79f60e31b815260040160405180910390fd5b612577612a16565b828054828255906000526020600020908101928215612aa2579160200282015b82811115612aa2578251825591602001919060010190612a87565b50612aae929150612ab2565b5090565b5b80821115612aae5760008155600101612ab3565b6001600160a01b03811681146125aa57600080fd5b60008060408385031215612aef57600080fd5b8235612afa81612ac7565b946020939093013593505050565b600060208284031215612b1a57600080fd5b8135612b2581612ac7565b9392505050565b600060208284031215612b3e57600080fd5b5035919050565b634e487b7160e01b600052602160045260246000fd5b6001600160a01b03898116825288811660208301526040820188905286811660608301526080820186905284151560a083015261010082019060048510612bb257634e487b7160e01b600052602160045260246000fd5b8460c084015280841660e0840152509998505050505050505050565b60008060008060808587031215612be457600080fd5b8435612bef81612ac7565b93506020850135612bff81612ac7565b92506040850135612c0f81612ac7565b91506060850135612c1f81612ac7565b939692955090935050565b634e487b7160e01b600052604160045260246000fd5b60405161020081016001600160401b0381118282101715612c6357612c63612c2a565b60405290565b604051608081016001600160401b0381118282101715612c6357612c63612c2a565b6040516101c081016001600160401b0381118282101715612c6357612c63612c2a565b60405160c081016001600160401b0381118282101715612c6357612c63612c2a565b604051601f8201601f191681016001600160401b0381118282101715612cf857612cf8612c2a565b604052919050565b8051612d0b81612ac7565b919050565b80518015158114612d0b57600080fd5b60006001600160401b03821115612d3957612d39612c2a565b5060051b60200190565b600082601f830112612d5457600080fd5b81516020612d69612d6483612d20565b612cd0565b82815260059290921b84018101918181019086841115612d8857600080fd5b8286015b84811015612da35780518352918301918301612d8c565b509695505050505050565b60005b83811015612dc9578181015183820152602001612db1565b50506000910152565b600082601f830112612de357600080fd5b81516001600160401b03811115612dfc57612dfc612c2a565b612e0f601f8201601f1916602001612cd0565b818152846020838601011115612e2457600080fd5b612e35826020830160208701612dae565b949350505050565b600060208284031215612e4f57600080fd5b81516001600160401b0380821115612e6657600080fd5b908301906102008286031215612e7b57600080fd5b612e83612c40565b612e8c83612d00565b8152612e9a60208401612d10565b6020820152604083015160408201526060830151606082015260808301516080820152612ec960a08401612d00565b60a0820152612eda60c08401612d00565b60c082015260e083015182811115612ef157600080fd5b612efd87828601612d43565b60e083015250610100612f11818501612d00565b908201526101208381015183811115612f2957600080fd5b612f3588828701612dd2565b8284015250506101408084015183811115612f4f57600080fd5b612f5b88828701612dd2565b8284015250506101608084015181830152506101808084015183811115612f8157600080fd5b612f8d88828701612dd2565b8284015250506101a08084015183811115612fa757600080fd5b612fb388828701612dd2565b8284015250506101c09150612fc9828401612d00565b918101919091526101e091820151918101919091529392505050565b6020815260008251806020840152613004816040850160208701612dae565b601f01601f19169190910160400192915050565b805160068110612d0b57600080fd5b600082601f83011261303857600080fd5b81516020613048612d6483612d20565b82815260059290921b8401810191818101908684111561306757600080fd5b8286015b84811015612da35780516001600160401b038082111561308b5760008081fd5b908801906080828b03601f19018113156130a55760008081fd5b6130ad612c69565b87840151815260408085015163ffffffff811681146130cc5760008081fd5b828a0152606085810151858111156130e45760008081fd5b6130f28f8c838a0101612dd2565b928401929092529490920151938101939093525050835291830191830161306b565b60006020828403121561312657600080fd5b81516001600160401b038082111561313d57600080fd5b908301906101c0828603121561315257600080fd5b61315a612c8b565b61316383612d00565b815261317160208401612d00565b6020820152604083015160408201526060830151606082015260808301518281111561319c57600080fd5b6131a887828601612dd2565b60808301525060a083015160a08201526131c460c08401613018565b60c082015260e083015160e082015261010080840151838111156131e757600080fd5b6131f388828701612dd2565b828401525050610120613207818501612d00565b90820152610140613219848201612d00565b90820152610160838101518381111561323157600080fd5b61323d88828701613027565b828401525050610180808401518381111561325757600080fd5b61326388828701612dd2565b91830191909152506101a09283015192810192909252509392505050565b84815260006bffffffffffffffffffffffff19808660601b166020840152808560601b16603484015250600483106132c957634e487b7160e01b600052602160045260246000fd5b5060f89190911b60488201526049019392505050565b6000602082840312156132f157600080fd5b81516001600160401b038082111561330857600080fd5b9083019060c0828603121561331c57600080fd5b613324612cae565b8251815260208301518281111561333a57600080fd5b61334687828601612dd2565b6020830152506040830151604082015260608301518281111561336857600080fd5b61337487828601612dd2565b60608301525061338660808401612d10565b608082015260a08301518281111561339d57600080fd5b6133a987828601613027565b60a08301525095945050505050565b6000602082840312156133ca57600080fd5b5051919050565b600060a08201878352602060a08185015281885180845260c086019150828a01935060005b81811015613412578451835293830193918301916001016133f6565b505060408501979097525050506001600160a01b0392909216606083015260ff1660809091015292915050565b6000806000806080858703121561345557600080fd5b61345e85612d10565b93506020850151925060408501516001600160401b038082111561348157600080fd5b61348d88838901612dd2565b935060608701519150808211156134a357600080fd5b506134b087828801612dd2565b91505092959194509250565b634e487b7160e01b600052601160045260246000fd5b80820281158282048414176134e9576134e96134bc565b92915050565b60008261350c57634e487b7160e01b600052601260045260246000fd5b500490565b634e487b7160e01b600052603260045260246000fd5b600060018201613539576135396134bc565b5060010190565b60006020828403121561355257600080fd5b8151612b2581612ac7565b818103818111156134e9576134e96134bc565b600060808201868352602060808185015281875480845260a0860191508860005282600020935060005b818110156135b65784548352600194850194928401920161359a565b505060408501969096525050506060015292915050565b808201808211156134e9576134e96134bc565b600080604083850312156135f357600080fd5b50508051602090910151909290915056feb9e0ad71af9252e1922aa65a5543f63b7ef69d1cbe0b60793ec8adaff1991817a26469706673582212209e43de393e3c8575460239c25aec64dca8ada7470d76a9a9d6563a8baa86007664736f6c63430008140033",
  "linkReferences": {},
  "deployedLinkReferences": {}
}