{
  "_format": "hh-sol-artifact-1",
  "contractName": "CompensationManager",
  "sourceName": "contracts/core/CompensationManager.sol",
  "abi": [
    {
      "inputs": [
        {
          "internalType": "address",
          "name": "_zkService",
          "type": "address"
        },
        {
          "internalType": "address",
          "name": "_transactionManager",
          "type": "address"
        },
        {
          "internalType": "address",
          "name": "_configManager",
          "type": "address"
        },
        {
          "internalType": "address",
          "name": "_arbitratorManager",
          "type": "address"
        }
      ],
      "stateMutability": "nonpayable",
      "type": "constructor"
    },
    {
      "inputs": [],
      "name": "BTC_TRANSACTION_MISMATCH",
      "type": "error"
    },
    {
      "inputs": [],
      "name": "COMPENSATION_WITHDRAWN",
      "type": "error"
    },
    {
      "inputs": [],
      "name": "DEADLINE_NOT_REACHED",
      "type": "error"
    },
    {
      "inputs": [],
      "name": "EMPTY_HASH",
      "type": "error"
    },
    {
      "inputs": [],
      "name": "EMPTY_OPERATOR_PUBLIC_KEY",
      "type": "error"
    },
    {
      "inputs": [],
      "name": "EMPTY_PUBLIC_KEY",
      "type": "error"
    },
    {
      "inputs": [],
      "name": "EMPTY_RAW_DATA",
      "type": "error"
    },
    {
      "inputs": [],
      "name": "EMPTY_SIGNATURE",
      "type": "error"
    },
    {
      "inputs": [],
      "name": "INSUFFICIENT_SYSTEM_FEE",
      "type": "error"
    },
    {
      "inputs": [],
      "name": "INVALID_ZK_PROOF",
      "type": "error"
    },
    {
      "inputs": [],
      "name": "NOT_TRANSACTION_ARBITRATOR",
      "type": "error"
    },
    {
      "inputs": [],
      "name": "NOT_TRANSACTION_OWNER",
      "type": "error"
    },
    {
      "inputs": [],
      "name": "NO_COMPENSATION_AVAILABLE",
      "type": "error"
    },
    {
      "inputs": [],
      "name": "NO_STAKE_AVAILABLE",
      "type": "error"
    },
    {
      "inputs": [],
      "name": "PUBLIC_KEY_MISMATCH",
      "type": "error"
    },
    {
      "inputs": [],
      "name": "SIGNATURE_ALREADY_SUBMITTED",
      "type": "error"
    },
    {
      "inputs": [],
      "name": "SIGNATURE_MISMATCH",
      "type": "error"
    },
    {
      "inputs": [],
      "name": "SIGNATURE_NOT_SUBMITTED",
      "type": "error"
    },
    {
      "inputs": [],
      "name": "TRANSACTION_COMPLETED",
      "type": "error"
    },
    {
      "inputs": [],
      "name": "TRANSACTION_EXISTS",
      "type": "error"
    },
    {
      "inputs": [],
      "name": "TRANSACTION_NOT_COMPLETED",
      "type": "error"
    },
    {
      "anonymous": false,
      "inputs": [
        {
          "indexed": true,
          "internalType": "bytes32",
          "name": "claimId",
          "type": "bytes32"
        },
        {
          "indexed": true,
          "internalType": "address",
          "name": "claimer",
          "type": "address"
        },
        {
          "indexed": false,
          "internalType": "uint8",
          "name": "claimType",
          "type": "uint8"
        }
      ],
      "name": "CompensationClaimed",
      "type": "event"
    },
    {
      "anonymous": false,
      "inputs": [
        {
          "indexed": true,
          "internalType": "bytes32",
          "name": "claimId",
          "type": "bytes32"
        }
      ],
      "name": "CompensationWithdrawn",
      "type": "event"
    },
    {
      "inputs": [],
      "name": "arbitratorManager",
      "outputs": [
        {
          "internalType": "contract IArbitratorManager",
          "name": "",
          "type": "address"
        }
      ],
      "stateMutability": "view",
      "type": "function"
    },
    {
      "inputs": [
        {
          "internalType": "bytes32",
          "name": "txId",
          "type": "bytes32"
        }
      ],
      "name": "claimArbitratorFee",
      "outputs": [
        {
          "internalType": "bytes32",
          "name": "",
          "type": "bytes32"
        }
      ],
      "stateMutability": "nonpayable",
      "type": "function"
    },
    {
      "inputs": [
        {
          "internalType": "bytes",
          "name": "btcTx",
          "type": "bytes"
        },
        {
          "internalType": "bytes32",
          "name": "evidence",
          "type": "bytes32"
        }
      ],
      "name": "claimFailedArbitrationCompensation",
      "outputs": [
        {
          "internalType": "bytes32",
          "name": "claimId",
          "type": "bytes32"
        }
      ],
      "stateMutability": "nonpayable",
      "type": "function"
    },
    {
      "inputs": [
        {
          "internalType": "address",
          "name": "arbitrator",
          "type": "address"
        },
        {
          "internalType": "bytes",
          "name": "btcTx",
          "type": "bytes"
        },
        {
          "internalType": "bytes32",
          "name": "evidence",
          "type": "bytes32"
        }
      ],
      "name": "claimIllegalSignatureCompensation",
      "outputs": [
        {
          "internalType": "bytes32",
          "name": "claimId",
          "type": "bytes32"
        }
      ],
      "stateMutability": "nonpayable",
      "type": "function"
    },
    {
      "inputs": [
        {
          "internalType": "bytes32",
          "name": "id",
          "type": "bytes32"
        }
      ],
      "name": "claimTimeoutCompensation",
      "outputs": [
        {
          "internalType": "bytes32",
          "name": "claimId",
          "type": "bytes32"
        }
      ],
      "stateMutability": "nonpayable",
      "type": "function"
    },
    {
      "inputs": [
        {
          "internalType": "bytes32",
          "name": "",
          "type": "bytes32"
        }
      ],
      "name": "claims",
      "outputs": [
        {
          "internalType": "address",
          "name": "dapp",
          "type": "address"
        },
        {
          "internalType": "address",
          "name": "arbitrator",
          "type": "address"
        },
        {
          "internalType": "uint256",
          "name": "ethAmount",
          "type": "uint256"
        },
        {
          "internalType": "address",
          "name": "nftContract",
          "type": "address"
        },
        {
          "internalType": "uint256",
          "name": "totalAmount",
          "type": "uint256"
        },
        {
          "internalType": "bool",
          "name": "withdrawn",
          "type": "bool"
        },
        {
          "internalType": "enum CompensationManager.CompensationType",
          "name": "claimType",
          "type": "uint8"
        }
      ],
      "stateMutability": "view",
      "type": "function"
    },
    {
      "inputs": [],
      "name": "configManager",
      "outputs": [
        {
          "internalType": "contract IConfigManager",
          "name": "",
          "type": "address"
        }
      ],
      "stateMutability": "view",
      "type": "function"
    },
    {
      "inputs": [
        {
          "internalType": "bytes32",
          "name": "claimId",
          "type": "bytes32"
        }
      ],
      "name": "getClaimableAmount",
      "outputs": [
        {
          "internalType": "uint256",
          "name": "",
          "type": "uint256"
        }
      ],
      "stateMutability": "view",
      "type": "function"
    },
    {
      "inputs": [],
      "name": "transactionManager",
      "outputs": [
        {
          "internalType": "contract ITransactionManager",
          "name": "",
          "type": "address"
        }
      ],
      "stateMutability": "view",
      "type": "function"
    },
    {
      "inputs": [
        {
          "internalType": "bytes32",
          "name": "claimId",
          "type": "bytes32"
        }
      ],
      "name": "withdrawCompensation",
      "outputs": [],
      "stateMutability": "payable",
      "type": "function"
    },
    {
      "inputs": [],
      "name": "zkService",
      "outputs": [
        {
          "internalType": "contract IZkService",
          "name": "",
          "type": "address"
        }
      ],
      "stateMutability": "view",
      "type": "function"
    },
    {
      "stateMutability": "payable",
      "type": "receive"
    }
  ],
  "bytecode": "0x60806040523480156200001157600080fd5b50604051620022b9380380620022b98339810160408190526200003491620000a5565b600080546001600160a01b039586166001600160a01b031991821617909155600180549486169482169490941790935560028054928516928416929092179091556003805491909316911617905562000102565b80516001600160a01b0381168114620000a057600080fd5b919050565b60008060008060808587031215620000bc57600080fd5b620000c78562000088565b9350620000d76020860162000088565b9250620000e76040860162000088565b9150620000f76060860162000088565b905092959194509250565b6121a780620001126000396000f3fe6080604052600436106100a05760003560e01c80638cc5d008116100645780638cc5d0081461017757806399b298711461018c5780639a46c8cf146101ac578063bb64fd44146101cc578063ca0ab075146101ec578063eff0f5921461020c57600080fd5b80633b716452146100ac5780635cd5f637146100e9578063759787c41461010957806386312159146101295780638c4e46e91461015757600080fd5b366100a757005b600080fd5b3480156100b857600080fd5b506001546100cc906001600160a01b031681565b6040516001600160a01b0390911681526020015b60405180910390f35b3480156100f557600080fd5b506000546100cc906001600160a01b031681565b34801561011557600080fd5b506003546100cc906001600160a01b031681565b34801561013557600080fd5b50610149610144366004611a36565b61028a565b6040519081526020016100e0565b34801561016357600080fd5b50610149610172366004611a92565b610804565b61018a610185366004611ade565b610d93565b005b34801561019857600080fd5b506101496101a7366004611ade565b6111a4565b3480156101b857600080fd5b506101496101c7366004611ade565b6115f0565b3480156101d857600080fd5b506101496101e7366004611ade565b611947565b3480156101f857600080fd5b506002546100cc906001600160a01b031681565b34801561021857600080fd5b50610277610227366004611ade565b6004602052600090815260409020805460018201546002830154600384015460058501546006909501546001600160a01b0394851695938516949293919092169160ff8082169161010090041687565b6040516100e09796959493929190611b0d565b6000805460405163ddb8ec8b60e01b81526004810184905282918291829182916001600160a01b039091169063ddb8ec8b90602401600060405180830381865afa1580156102dc573d6000803e3d6000fd5b505050506040513d6000823e601f3d908101601f191682016040526103049190810190611c8d565b945050935093509350835160000361032f57604051633c2b008360e21b815260040160405180910390fd5b825160000361035157604051630ee88f3160e01b815260040160405180910390fd5b8161036f57604051632645e40360e01b815260040160405180910390fd5b8061038d57604051632b61c2d760e01b815260040160405180910390fd5b6001546040516360e723e960e11b8152600481018490526000916001600160a01b03169063c1ce47d290602401602060405180830381865afa1580156103d7573d6000803e3d6000fd5b505050506040513d601f19601f820116820180604052508101906103fb9190611d39565b9050801561041c5760405163715c2f0160e01b815260040160405180910390fd5b6003546040516326415b0f60e21b81526001600160a01b038c8116600483015260009216906399056c3c90602401600060405180830381865afa158015610467573d6000803e3d6000fd5b505050506040513d6000823e601f3d908101601f1916820160405261048f9190810190611df1565b9050806101400151516000036104b8576040516387dafbbd60e01b815260040160405180910390fd5b806101400151805190602001208580519060200120146104ee57604051600162044a3760e21b0319815260040160405180910390fd5b85516020870120604051610505908c908c90611f3a565b60405180910390201461052b5760405163c2c3820b60e01b815260040160405180910390fd5b60a081015160008190036105525760405163c6994ed560e01b815260040160405180910390fd5b604080514260208201526001600160601b031960608f811b8216938301939093523390921b90911660548201526f496c6c6567616c5369676e617475726560801b6068820152607801604051602081830303815290604052805190602001209750604051806101000160405280336001600160a01b031681526020018d6001600160a01b031681526020018281526020018360e001516001600160a01b031681526020018361010001518152602001600360009054906101000a90046001600160a01b03166001600160a01b03166314f6b1908f6040518263ffffffff1660e01b815260040161065191906001600160a01b0391909116815260200190565b602060405180830381865afa15801561066e573d6000803e3d6000fd5b505050506040513d601f19601f820116820180604052508101906106929190611d39565b8152600060208201819052604090910152600089815260046020818152604092839020845181546001600160a01b03199081166001600160a01b0392831617835586840151600184018054831691841691909117905594860151600283015560608601516003830180549096169116179093556080840151805161071d938501929190910190611975565b5060a0820151600582015560c082015160068201805491151560ff1983168117825560e08501519261ff001990911661ffff199091161761010083600381111561076957610769611af7565b02179055505060035460405163133165fb60e31b81526001600160a01b038f81166004830152909116915063998b2fd890602401600060405180830381600087803b1580156107b757600080fd5b505af11580156107cb573d6000803e3d6000fd5b5050604051600081523392508a91506000805160206121528339815191529060200160405180910390a350505050505050949350505050565b6000805460405163ddb8ec8b60e01b815260048101849052829182918291829182916001600160a01b03169063ddb8ec8b90602401600060405180830381865afa158015610856573d6000803e3d6000fd5b505050506040513d6000823e601f3d908101601f1916820160405261087e9190810190611c8d565b9450945094509450945084516000036108aa57604051633c2b008360e21b815260040160405180910390fd5b83516000036108cc57604051630ee88f3160e01b815260040160405180910390fd5b826108ea57604051632645e40360e01b815260040160405180910390fd5b815160000361090c5760405163737ccdab60e01b815260040160405180910390fd5b801561092b57604051632b61c2d760e01b815260040160405180910390fd5b84516020860120604051610942908b908b90611f3a565b6040518091039020146109685760405163c2c3820b60e01b815260040160405180910390fd5b60015460405163255709e560e11b8152600481018590526000916001600160a01b031690634aae13ca90602401600060405180830381865afa1580156109b2573d6000803e3d6000fd5b505050506040513d6000823e601f3d908101601f191682016040526109da9190810190611f59565b80519091506001600160a01b03163314610a07576040516304ec9dd360e21b815260040160405180910390fd5b80610100015151600003610a2e57604051630d2937eb60e01b815260040160405180910390fd5b80610100015180519060200120838051906020012014610a615760405163ef462e8760e01b815260040160405180910390fd5b60035460208201516040516326415b0f60e21b81526001600160a01b03918216600482015260009291909116906399056c3c90602401600060405180830381865afa158015610ab4573d6000803e3d6000fd5b505050506040513d6000823e601f3d908101601f19168201604052610adc9190810190611df1565b60a08101519091506000819003610b065760405163c6994ed560e01b815260040160405180910390fd5b42836020015133604051602001610b5b93929190928352606091821b6001600160601b03199081166020850152911b166034820152702330b4b632b220b93134ba3930ba34b7b760791b604882015260590190565b60408051808303601f190181528282528051602091820120610100808501845233855287830180516001600160a01b039081169487019490945285850187905260e0880151841660608701529087015160808601526003549051935163014f6b1960e41b81529383166004850152909c5060a08401929116906314f6b19090602401602060405180830381865afa158015610bfa573d6000803e3d6000fd5b505050506040513d601f19601f82011682018060405250810190610c1e9190611d39565b8152600060208201526040016002905260008a815260046020818152604092839020845181546001600160a01b03199081166001600160a01b03928316178355868401516001840180548316918416919091179055948601516002830155606086015160038301805490961691161790935560808401518051610ca8938501929190910190611975565b5060a0820151600582015560c082015160068201805491151560ff1983168117825560e08501519261ff001990911661ffff1990911617610100836003811115610cf457610cf4611af7565b021790555050600354602085015160405163133165fb60e31b81526001600160a01b0391821660048201529116915063998b2fd890602401600060405180830381600087803b158015610d4657600080fd5b505af1158015610d5a573d6000803e3d6000fd5b5050604051600281523392508b91506000805160206121528339815191529060200160405180910390a350505050505050509392505050565b6000818152600460205260409020600681015460ff1615610dc757604051635dfaa47360e01b815260040160405180910390fd5b6002810154158015610ddb57506004810154155b15610df957604051633056be2d60e21b815260040160405180910390fd5b60025460408051631e4432d760e11b815290516000926001600160a01b031691633c8865ae9160048083019260209291908290030181865afa158015610e43573d6000803e3d6000fd5b505050506040513d601f19601f82011682018060405250810190610e679190611d39565b90506000612710828460050154610e7e9190612088565b610e8891906120a5565b905080341015610eab57604051639916604560e01b815260040160405180910390fd5b600283015460068401805460ff191660011790558015610f675760006002850181905584546040516001600160a01b039091169083908381818185875af1925050503d8060008114610f19576040519150601f19603f3d011682016040523d82523d6000602084013e610f1e565b606091505b5050905080610f655760405162461bcd60e51b815260206004820152600e60248201526d151c985b9cd9995c91985a5b195960921b60448201526064015b60405180910390fd5b505b60005b600485015481101561102e5760038501546004860180546001600160a01b03909216916323b872dd91309133919086908110610fa857610fa86120c7565b6000918252602090912001546040516001600160e01b031960e086901b1681526001600160a01b0393841660048201529290911660248301526044820152606401600060405180830381600087803b15801561100357600080fd5b505af1158015611017573d6000803e3d6000fd5b505050508080611026906120dd565b915050610f6a565b506002546040805163045b2b8560e51b815290516000926001600160a01b031691638b6570a09160048083019260209291908290030181865afa158015611079573d6000803e3d6000fd5b505050506040513d601f19601f8201168201806040525081019061109d91906120f6565b6040519091506001600160a01b0382169084156108fc029085906000818181858888f193505050501580156110d6573d6000803e3d6000fd5b5082341115611171576000336110ec853461211a565b604051600081818185875af1925050503d8060008114611128576040519150601f19603f3d011682016040523d82523d6000602084013e61112d565b606091505b505090508061116f5760405162461bcd60e51b815260206004820152600e60248201526d151c985b9cd9995c91985a5b195960921b6044820152606401610f5c565b505b60405186907f7c719d0bd68ca0ef65ed3c059467ed6600adb256a026587f6eb3a06c50f6f4aa90600090a2505050505050565b600154604051632a242ded60e21b81526004810183905260009182916001600160a01b039091169063a890b7b490602401600060405180830381865afa1580156111f2573d6000803e3d6000fd5b505050506040513d6000823e601f3d908101601f1916820160405261121a9190810190611f59565b80519091506001600160a01b03163314611247576040516304ec9dd360e21b815260040160405180910390fd5b60018160c00151600481111561125f5761125f611af7565b0361127d576040516368b078e360e01b815260040160405180910390fd5b806060015142116112a1576040516343a7fe3760e01b815260040160405180910390fd5b61010081015151156112c6576040516330ddaab760e01b815260040160405180910390fd5b60035460208201516040516326415b0f60e21b81526001600160a01b03918216600482015260009291909116906399056c3c90602401600060405180830381865afa158015611319573d6000803e3d6000fd5b505050506040513d6000823e601f3d908101601f191682016040526113419190810190611df1565b60a0810151909150600081900361136b5760405163c6994ed560e01b815260040160405180910390fd5b42836020015133876040516020016113bf9493929190938452606092831b6001600160601b031990811660208601529190921b16603483015266151a5b595bdd5d60ca1b6048830152604f820152606f0190565b60408051808303601f190181528282528051602091820120610100808501845233855287830180516001600160a01b039081169487019490945285850187905260e0880151841660608701529087015160808601526003549051935163014f6b1960e41b8152938316600485015290975060a08401929116906314f6b19090602401602060405180830381865afa15801561145e573d6000803e3d6000fd5b505050506040513d601f19601f820116820180604052508101906114829190611d39565b81526000602082015260400160019052600085815260046020818152604092839020845181546001600160a01b03199081166001600160a01b0392831617835586840151600184018054831691841691909117905594860151600283015560608601516003830180549096169116179093556080840151805161150c938501929190910190611975565b5060a0820151600582015560c082015160068201805491151560ff1983168117825560e08501519261ff001990911661ffff199091161761010083600381111561155857611558611af7565b021790555050600354602085015160405163133165fb60e31b81526001600160a01b0391821660048201529116915063998b2fd890602401600060405180830381600087803b1580156115aa57600080fd5b505af11580156115be573d6000803e3d6000fd5b5050604051600181523392508691506000805160206121528339815191529060200160405180910390a3505050919050565b600154604051632a242ded60e21b81526004810183905260009182916001600160a01b039091169063a890b7b490602401600060405180830381865afa15801561163e573d6000803e3d6000fd5b505050506040513d6000823e601f3d908101601f191682016040526116669190810190611f59565b60208101519091506001600160a01b03163314611696576040516393f2e9a760e01b815260040160405180910390fd5b60018160c0015160048111156116ae576116ae611af7565b146116cc576040516308753a9160e01b815260040160405180910390fd5b600154604051637577b6df60e01b8152600481018590526000916001600160a01b031690637577b6df9060240160408051808303816000875af1158015611717573d6000803e3d6000fd5b505050506040513d601f19601f8201168201806040525081019061173b919061212d565b50905060004283602001513360405160200161179193929190928352606091821b6001600160601b03199081166020850152911b1660348201526c41726269747261746f7246656560981b604882015260550190565b60405160208183030381529060405280519060200120905060405180610100016040528084600001516001600160a01b0316815260200184602001516001600160a01b0316815260200183815260200160006001600160a01b03168152602001600067ffffffffffffffff81111561180b5761180b611b73565b604051908082528060200260200182016040528015611834578160200160208202803683370190505b508152602081018490526001604082015260600160039052600082815260046020818152604092839020845181546001600160a01b03199081166001600160a01b039283161783558684015160018401805483169184169190911790559486015160028301556060860151600383018054909616911617909355608084015180516118c6938501929190910190611975565b5060a0820151600582015560c082015160068201805491151560ff1983168117825560e08501519261ff001990911661ffff199091161761010083600381111561191257611912611af7565b0217905550506040516003815233915082906000805160206121528339815191529060200160405180910390a3949350505050565b6000818152600460205260408120600681015460ff161561196b5750600092915050565b6005015492915050565b8280548282559060005260206000209081019282156119b0579160200282015b828111156119b0578251825591602001919060010190611995565b506119bc9291506119c0565b5090565b5b808211156119bc57600081556001016119c1565b6001600160a01b03811681146119ea57600080fd5b50565b60008083601f8401126119ff57600080fd5b50813567ffffffffffffffff811115611a1757600080fd5b602083019150836020828501011115611a2f57600080fd5b9250929050565b60008060008060608587031215611a4c57600080fd5b8435611a57816119d5565b9350602085013567ffffffffffffffff811115611a7357600080fd5b611a7f878288016119ed565b9598909750949560400135949350505050565b600080600060408486031215611aa757600080fd5b833567ffffffffffffffff811115611abe57600080fd5b611aca868287016119ed565b909790965060209590950135949350505050565b600060208284031215611af057600080fd5b5035919050565b634e487b7160e01b600052602160045260246000fd5b6001600160a01b038881168252878116602083015260408201879052851660608201526080810184905282151560a082015260e0810160048310611b6157634e487b7160e01b600052602160045260246000fd5b8260c083015298975050505050505050565b634e487b7160e01b600052604160045260246000fd5b6040516101a0810167ffffffffffffffff81118282101715611bad57611bad611b73565b60405290565b604051610160810167ffffffffffffffff81118282101715611bad57611bad611b73565b604051601f8201601f1916810167ffffffffffffffff81118282101715611c0057611c00611b73565b604052919050565b600082601f830112611c1957600080fd5b815167ffffffffffffffff811115611c3357611c33611b73565b6020611c47601f8301601f19168201611bd7565b8281528582848701011115611c5b57600080fd5b60005b83811015611c79578581018301518282018401528201611c5e565b506000928101909101919091529392505050565b600080600080600060a08688031215611ca557600080fd5b855167ffffffffffffffff80821115611cbd57600080fd5b611cc989838a01611c08565b96506020880151915080821115611cdf57600080fd5b611ceb89838a01611c08565b9550604088015194506060880151915080821115611d0857600080fd5b50611d1588828901611c08565b92505060808601518015158114611d2b57600080fd5b809150509295509295909350565b600060208284031215611d4b57600080fd5b5051919050565b8051611d5d816119d5565b919050565b805160048110611d5d57600080fd5b600082601f830112611d8257600080fd5b8151602067ffffffffffffffff821115611d9e57611d9e611b73565b8160051b611dad828201611bd7565b9283528481018201928281019087851115611dc757600080fd5b83870192505b84831015611de657825182529183019190830190611dcd565b979650505050505050565b600060208284031215611e0357600080fd5b815167ffffffffffffffff80821115611e1b57600080fd5b908301906101a08286031215611e3057600080fd5b611e38611b89565b611e4183611d52565b81526020830151602082015260408301516040820152611e6360608401611d62565b60608201526080830151608082015260a083015160a0820152611e8860c08401611d52565b60c0820152611e9960e08401611d52565b60e08201526101008084015183811115611eb257600080fd5b611ebe88828701611d71565b828401525050610120611ed2818501611d52565b908201526101408381015183811115611eea57600080fd5b611ef688828701611c08565b8284015250506101608084015183811115611f1057600080fd5b611f1c88828701611c08565b91830191909152506101809283015192810192909252509392505050565b8183823760009101908152919050565b805160058110611d5d57600080fd5b600060208284031215611f6b57600080fd5b815167ffffffffffffffff80821115611f8357600080fd5b908301906101608286031215611f9857600080fd5b611fa0611bb3565b611fa983611d52565b8152611fb760208401611d52565b60208201526040830151604082015260608301516060820152608083015182811115611fe257600080fd5b611fee87828601611c08565b60808301525060a083015160a082015261200a60c08401611f4a565b60c082015260e083015160e0820152610100808401518381111561202d57600080fd5b61203988828701611c08565b828401525050610120915061204f828401611d52565b828201526101409150612063828401611d52565b91810191909152949350505050565b634e487b7160e01b600052601160045260246000fd5b808202811582820484141761209f5761209f612072565b92915050565b6000826120c257634e487b7160e01b600052601260045260246000fd5b500490565b634e487b7160e01b600052603260045260246000fd5b6000600182016120ef576120ef612072565b5060010190565b60006020828403121561210857600080fd5b8151612113816119d5565b9392505050565b8181038181111561209f5761209f612072565b6000806040838503121561214057600080fd5b50508051602090910151909290915056fe35b845de5e0534eed951fd57a2e3050c150cedde6cf5b0facfc7924b107d467aa26469706673582212205cfc3d7d2dec1a541fe5f64fbd99dc1fcf797452d4c054a846b7e231363c480d64736f6c63430008140033",
  "linkReferences": {},
  "deployedLinkReferences": {}
}