{
  "_format": "hh-sol-artifact-1",
  "contractName": "CompensationManager",
  "sourceName": "contracts/core/CompensationManager.sol",
  "abi": [
    {
      "inputs": [],
      "stateMutability": "nonpayable",
      "type": "constructor"
    },
    {
      "inputs": [],
      "name": "InvalidInitialization",
      "type": "error"
    },
    {
      "inputs": [],
      "name": "NotInitializing",
      "type": "error"
    },
    {
      "inputs": [
        {
          "internalType": "address",
          "name": "owner",
          "type": "address"
        }
      ],
      "name": "OwnableInvalidOwner",
      "type": "error"
    },
    {
      "inputs": [
        {
          "internalType": "address",
          "name": "account",
          "type": "address"
        }
      ],
      "name": "OwnableUnauthorizedAccount",
      "type": "error"
    },
    {
      "anonymous": false,
      "inputs": [
        {
          "indexed": true,
          "internalType": "address",
          "name": "newArbitratorManager",
          "type": "address"
        }
      ],
      "name": "ArbitratorManagerUpdated",
      "type": "event"
    },
    {
      "anonymous": false,
      "inputs": [
        {
          "indexed": true,
          "internalType": "bytes32",
          "name": "claimId",
          "type": "bytes32"
        },
        {
          "indexed": true,
          "internalType": "address",
          "name": "claimer",
          "type": "address"
        },
        {
          "indexed": true,
          "internalType": "address",
          "name": "arbitrator",
          "type": "address"
        },
        {
          "indexed": false,
          "internalType": "uint256",
          "name": "ethAmount",
          "type": "uint256"
        },
        {
          "indexed": false,
          "internalType": "uint256[]",
          "name": "nftTokenIds",
          "type": "uint256[]"
        },
        {
          "indexed": false,
          "internalType": "uint256",
          "name": "totalAmount",
          "type": "uint256"
        },
        {
          "indexed": false,
          "internalType": "address",
          "name": "receivedCompensationAddress",
          "type": "address"
        },
        {
          "indexed": false,
          "internalType": "uint8",
          "name": "claimType",
          "type": "uint8"
        }
      ],
      "name": "CompensationClaimed",
      "type": "event"
    },
    {
      "anonymous": false,
      "inputs": [
        {
          "indexed": true,
          "internalType": "bytes32",
          "name": "claimId",
          "type": "bytes32"
        },
        {
          "indexed": true,
          "internalType": "address",
          "name": "claimer",
          "type": "address"
        },
        {
          "indexed": true,
          "internalType": "address",
          "name": "receivedCompensationAddress",
          "type": "address"
        },
        {
          "indexed": false,
          "internalType": "uint256",
          "name": "ethAmount",
          "type": "uint256"
        },
        {
          "indexed": false,
          "internalType": "uint256[]",
          "name": "nftTokenIds",
          "type": "uint256[]"
        },
        {
          "indexed": false,
          "internalType": "uint256",
          "name": "systemFee",
          "type": "uint256"
        },
        {
          "indexed": false,
          "internalType": "uint256",
          "name": "excessPaymenttoClaimer",
          "type": "uint256"
        }
      ],
      "name": "CompensationWithdrawn",
      "type": "event"
    },
    {
      "anonymous": false,
      "inputs": [
        {
          "indexed": true,
          "internalType": "address",
          "name": "newConfigManager",
          "type": "address"
        }
      ],
      "name": "ConfigManagerUpdated",
      "type": "event"
    },
    {
      "anonymous": false,
      "inputs": [
        {
          "indexed": false,
          "internalType": "uint64",
          "name": "version",
          "type": "uint64"
        }
      ],
      "name": "Initialized",
      "type": "event"
    },
    {
      "anonymous": false,
      "inputs": [
        {
          "indexed": true,
          "internalType": "address",
          "name": "previousOwner",
          "type": "address"
        },
        {
          "indexed": true,
          "internalType": "address",
          "name": "newOwner",
          "type": "address"
        }
      ],
      "name": "OwnershipTransferred",
      "type": "event"
    },
    {
      "anonymous": false,
      "inputs": [
        {
          "indexed": true,
          "internalType": "address",
          "name": "newTransactionManager",
          "type": "address"
        }
      ],
      "name": "TransactionManagerUpdated",
      "type": "event"
    },
    {
      "anonymous": false,
      "inputs": [
        {
          "indexed": true,
          "internalType": "address",
          "name": "newZkService",
          "type": "address"
        }
      ],
      "name": "ZkServiceUpdated",
      "type": "event"
    },
    {
      "inputs": [],
      "name": "arbitratorManager",
      "outputs": [
        {
          "internalType": "contract IArbitratorManager",
          "name": "",
          "type": "address"
        }
      ],
      "stateMutability": "view",
      "type": "function"
    },
    {
      "inputs": [
        {
          "internalType": "bytes32",
          "name": "txId",
          "type": "bytes32"
        }
      ],
      "name": "claimArbitratorFee",
      "outputs": [
        {
          "internalType": "bytes32",
          "name": "",
          "type": "bytes32"
        }
      ],
      "stateMutability": "nonpayable",
      "type": "function"
    },
    {
      "inputs": [
        {
          "internalType": "bytes",
          "name": "btcTx",
          "type": "bytes"
        },
        {
          "internalType": "bytes32",
          "name": "evidence",
          "type": "bytes32"
        }
      ],
      "name": "claimFailedArbitrationCompensation",
      "outputs": [
        {
          "internalType": "bytes32",
          "name": "claimId",
          "type": "bytes32"
        }
      ],
      "stateMutability": "nonpayable",
      "type": "function"
    },
    {
      "inputs": [
        {
          "internalType": "address",
          "name": "arbitrator",
          "type": "address"
        },
        {
          "internalType": "bytes",
          "name": "btcTx",
          "type": "bytes"
        },
        {
          "internalType": "bytes32",
          "name": "evidence",
          "type": "bytes32"
        }
      ],
      "name": "claimIllegalSignatureCompensation",
      "outputs": [
        {
          "internalType": "bytes32",
          "name": "claimId",
          "type": "bytes32"
        }
      ],
      "stateMutability": "nonpayable",
      "type": "function"
    },
    {
      "inputs": [
        {
          "internalType": "bytes32",
          "name": "id",
          "type": "bytes32"
        }
      ],
      "name": "claimTimeoutCompensation",
      "outputs": [
        {
          "internalType": "bytes32",
          "name": "claimId",
          "type": "bytes32"
        }
      ],
      "stateMutability": "nonpayable",
      "type": "function"
    },
    {
      "inputs": [
        {
          "internalType": "bytes32",
          "name": "",
          "type": "bytes32"
        }
      ],
      "name": "claims",
      "outputs": [
        {
          "internalType": "address",
          "name": "claimer",
          "type": "address"
        },
        {
          "internalType": "address",
          "name": "arbitrator",
          "type": "address"
        },
        {
          "internalType": "uint256",
          "name": "ethAmount",
          "type": "uint256"
        },
        {
          "internalType": "address",
          "name": "nftContract",
          "type": "address"
        },
        {
          "internalType": "uint256",
          "name": "totalAmount",
          "type": "uint256"
        },
        {
          "internalType": "bool",
          "name": "withdrawn",
          "type": "bool"
        },
        {
          "internalType": "enum CompensationManager.CompensationType",
          "name": "claimType",
          "type": "uint8"
        },
        {
          "internalType": "address",
          "name": "receivedCompensationAddress",
          "type": "address"
        }
      ],
      "stateMutability": "view",
      "type": "function"
    },
    {
      "inputs": [],
      "name": "configManager",
      "outputs": [
        {
          "internalType": "contract IConfigManager",
          "name": "",
          "type": "address"
        }
      ],
      "stateMutability": "view",
      "type": "function"
    },
    {
      "inputs": [
        {
          "internalType": "bytes32",
          "name": "claimId",
          "type": "bytes32"
        }
      ],
      "name": "getClaimableAmount",
      "outputs": [
        {
          "internalType": "uint256",
          "name": "",
          "type": "uint256"
        }
      ],
      "stateMutability": "view",
      "type": "function"
    },
    {
      "inputs": [
        {
          "internalType": "address",
          "name": "_zkService",
          "type": "address"
        },
        {
          "internalType": "address",
          "name": "_configManager",
          "type": "address"
        },
        {
          "internalType": "address",
          "name": "_arbitratorManager",
          "type": "address"
        }
      ],
      "name": "initialize",
      "outputs": [],
      "stateMutability": "nonpayable",
      "type": "function"
    },
    {
      "inputs": [],
      "name": "owner",
      "outputs": [
        {
          "internalType": "address",
          "name": "",
          "type": "address"
        }
      ],
      "stateMutability": "view",
      "type": "function"
    },
    {
      "inputs": [],
      "name": "renounceOwnership",
      "outputs": [],
      "stateMutability": "nonpayable",
      "type": "function"
    },
    {
      "inputs": [
        {
          "internalType": "address",
          "name": "_arbitratorManager",
          "type": "address"
        }
      ],
      "name": "setArbitratorManager",
      "outputs": [],
      "stateMutability": "nonpayable",
      "type": "function"
    },
    {
      "inputs": [
        {
          "internalType": "address",
          "name": "_configManager",
          "type": "address"
        }
      ],
      "name": "setConfigManager",
      "outputs": [],
      "stateMutability": "nonpayable",
      "type": "function"
    },
    {
      "inputs": [
        {
          "internalType": "address",
          "name": "_transactionManager",
          "type": "address"
        }
      ],
      "name": "setTransactionManager",
      "outputs": [],
      "stateMutability": "nonpayable",
      "type": "function"
    },
    {
      "inputs": [
        {
          "internalType": "address",
          "name": "_zkService",
          "type": "address"
        }
      ],
      "name": "setZkService",
      "outputs": [],
      "stateMutability": "nonpayable",
      "type": "function"
    },
    {
      "inputs": [],
      "name": "transactionManager",
      "outputs": [
        {
          "internalType": "contract ITransactionManager",
          "name": "",
          "type": "address"
        }
      ],
      "stateMutability": "view",
      "type": "function"
    },
    {
      "inputs": [
        {
          "internalType": "address",
          "name": "newOwner",
          "type": "address"
        }
      ],
      "name": "transferOwnership",
      "outputs": [],
      "stateMutability": "nonpayable",
      "type": "function"
    },
    {
      "inputs": [
        {
          "internalType": "bytes32",
          "name": "claimId",
          "type": "bytes32"
        }
      ],
      "name": "withdrawCompensation",
      "outputs": [],
      "stateMutability": "payable",
      "type": "function"
    },
    {
      "inputs": [],
      "name": "zkService",
      "outputs": [
        {
          "internalType": "contract IZkService",
          "name": "",
          "type": "address"
        }
      ],
      "stateMutability": "view",
      "type": "function"
    },
    {
      "stateMutability": "payable",
      "type": "receive"
    }
  ],
  "bytecode": "0x60806040523480156200001157600080fd5b506200001c62000022565b620000d6565b7ff0c57e16840df040f15088dc2f81fe391c3923bec73e23a9662efc9c229c6a00805468010000000000000000900460ff1615620000735760405163f92ee8a960e01b815260040160405180910390fd5b80546001600160401b0390811614620000d35780546001600160401b0319166001600160401b0390811782556040519081527fc7f505b2f371ae2175ee4913f4499e1f2633a7b5936321eed1cdaeb6115181d29060200160405180910390a15b50565b6150a380620000e66000396000f3fe6080604052600436106101185760003560e01c80638cc5d008116100a0578063bb64fd4411610064578063bb64fd4414610316578063c0c53b8b14610336578063ca0ab07514610356578063eff0f59214610376578063f2fde38b146103ff57600080fd5b80638cc5d008146102665780638da5cb5b1461027957806399b29871146102b65780639a46c8cf146102d6578063b4e25e80146102f657600080fd5b80635cd5f637116100e75780635cd5f637146101c3578063715018a6146101e3578063759787c4146101f857806386312159146102185780638c4e46e91461024657600080fd5b80630b1fa61c146101245780632c7e8ca3146101465780633b716452146101665780633e5d7588146101a357600080fd5b3661011f57005b600080fd5b34801561013057600080fd5b5061014461013f36600461444a565b61041f565b005b34801561015257600080fd5b5061014461016136600461444a565b6104d7565b34801561017257600080fd5b50600154610186906001600160a01b031681565b6040516001600160a01b0390911681526020015b60405180910390f35b3480156101af57600080fd5b506101446101be36600461444a565b610589565b3480156101cf57600080fd5b50600054610186906001600160a01b031681565b3480156101ef57600080fd5b5061014461062f565b34801561020457600080fd5b50600354610186906001600160a01b031681565b34801561022457600080fd5b506102386102333660046144af565b610643565b60405190815260200161019a565b34801561025257600080fd5b5061023861026136600461450a565b610e34565b610144610274366004614555565b61169b565b34801561028557600080fd5b507f9016d09d72d40fdae2fd8ceac6b6234c7706214fd39c1cd1e609a0528c199300546001600160a01b0316610186565b3480156102c257600080fd5b506102386102d1366004614555565b611b80565b3480156102e257600080fd5b506102386102f1366004614555565b612178565b34801561030257600080fd5b5061014461031136600461444a565b61256e565b34801561032257600080fd5b50610238610331366004614555565b612616565b34801561034257600080fd5b5061014461035136600461456e565b612644565b34801561036257600080fd5b50600254610186906001600160a01b031681565b34801561038257600080fd5b506103eb610391366004614555565b6004602052600090815260409020805460018201546002830154600384015460058501546006909501546001600160a01b03948516959385169492939183169260ff80831692610100810490911691620100009091041688565b60405161019a9897969594939291906145cf565b34801561040b57600080fd5b5061014461041a36600461444a565b6127f5565b610427612833565b6001600160a01b03811661048d5760405162461bcd60e51b815260206004820152602260248201527f496e76616c6964205472616e73616374696f6e4d616e61676572206164647265604482015261737360f01b60648201526084015b60405180910390fd5b600180546001600160a01b0319166001600160a01b0383169081179091556040517f3bc3af46ee56a7b5246248b8e24bb285f23d745c278db873d49f66c027a19f2b90600090a250565b6104df612833565b6001600160a01b03811661053f5760405162461bcd60e51b815260206004820152602160248201527f496e76616c69642041726269747261746f724d616e61676572206164647265736044820152607360f81b6064820152608401610484565b600380546001600160a01b0319166001600160a01b0383169081179091556040517f5501b7dfdd6860a14bdbc85c3ca16cf46242ad8c30ffecaaf2dbc192ef761bfc90600090a250565b610591612833565b6001600160a01b0381166105e75760405162461bcd60e51b815260206004820152601960248201527f496e76616c6964205a6b536572766963652061646472657373000000000000006044820152606401610484565b600080546001600160a01b0319166001600160a01b038316908117825560405190917f89f8f878479acf261604346b8864312704f9de61c236e83a48afc4d87d93b19a91a250565b610637612833565b610641600061288e565b565b6003546040516326415b0f60e21b81526001600160a01b03868116600483015260009283929116906399056c3c90602401600060405180830381865afa158015610691573d6000803e3d6000fd5b505050506040513d6000823e601f3d908101601f191682016040526106b99190810190614850565b60608101519091506000036106f857604080518082018252600281526109a760f31b6020820152905162461bcd60e51b815261048491906004016149f8565b6001546060820151604051632a242ded60e21b815260048101919091526000916001600160a01b03169063a890b7b490602401600060405180830381865afa158015610748573d6000803e3d6000fd5b505050506040513d6000823e601f3d908101601f191682016040526107709190810190614b27565b905060008160e00151600381111561078a5761078a6145b9565b146107bf57604080518082018252600281526109a760f31b6020820152905162461bcd60e51b815261048491906004016149f8565b838782610140015160006040516020016107dc9493929190614c92565b60408051601f198184030181529181528151602092830120600081815260049093529120549093506001600160a01b0316156108425760408051808201825260028152614d3960f01b6020820152905162461bcd60e51b815261048491906004016149f8565b6040805160c08101825260008082526060602083018190528284018290528083018190526080830182905260a083015254915163ddb8ec8b60e01b81526004810187905290916001600160a01b03169063ddb8ec8b90602401600060405180830381865afa1580156108b8573d6000803e3d6000fd5b505050506040513d6000823e601f3d908101601f191682016040526108e09190810190614cf0565b80519091501561091a576040805180820182526002815261269b60f11b6020820152905162461bcd60e51b815261048491906004016149f8565b602081015151158061092e57506040810151155b15610963576040805180820182526002815261493760f01b6020820152905162461bcd60e51b815261048491906004016149f8565b806080015161099c576040805180820182526002815261299b60f11b6020820152905162461bcd60e51b815261048491906004016149f8565b826101200151516000036109da576040805180820182526002815261493760f01b6020820152905162461bcd60e51b815261048491906004016149f8565b8261012001518051906020012081602001518051906020012014610a285760408051808201825260028152614d3760f01b6020820152905162461bcd60e51b815261048491906004016149f8565b6000610a3488886128ff565b90506000610a4182612aef565b90508260400151600282604051610a589190614dc9565b602060405180830381855afa158015610a75573d6000803e3d6000fd5b5050506040513d601f19601f82011682018060405250810190610a989190614de5565b14610acd576040805180820182526002815261423160f01b6020820152905162461bcd60e51b815261048491906004016149f8565b610ae08360a001518561018001516131c4565b60035460405163014f6b1960e41b81526001600160a01b038c8116600483015260009216906314f6b19090602401602060405180830381865afa158015610b2b573d6000803e3d6000fd5b505050506040513d601f19601f82011682018060405250810190610b4f9190614de5565b905080600003610b8957604080518082018252600281526109c760f31b6020820152905162461bcd60e51b815261048491906004016149f8565b604051806101200160405280336001600160a01b031681526020018c6001600160a01b03168152602001876080015181526020018760c001516001600160a01b031681526020018760e00151815260200182815260200160001515815260200160006003811115610bfc57610bfc6145b9565b81526101408701516001600160a01b0390811660209283015260008a81526004808452604091829020855181549085166001600160a01b031991821617825586860151600183018054918716918316919091179055928601516002820155606086015160038201805491909516931692909217909255608084015180519193610c8a938501929101906143d5565b5060a0820151600582015560c082015160068201805491151560ff1983168117825560e08501519261ff001990911661ffff1990911617610100836003811115610cd657610cd66145b9565b021790555061010091909101516006909101805462010000600160b01b031916620100006001600160a01b039384160217905560035460405163133165fb60e31b81528d8316600482015291169063998b2fd890602401600060405180830381600087803b158015610d4757600080fd5b505af1158015610d5b573d6000803e3d6000fd5b5050600154606089015161014089015160405163d09d03a360e01b81526001600160a01b03909316945063d09d03a39350610daa926004019182526001600160a01b0316602082015260400190565b600060405180830381600087803b158015610dc457600080fd5b505af1158015610dd8573d6000803e3d6000fd5b50505050608086015160e08701516101408701516040516001600160a01b038f169333938c9360008051602061504e83398151915293610e1e9392918991600090614dfe565b60405180910390a4505050505050949350505050565b6000610e746040518060c0016040528060008152602001606081526020016000801916815260200160608152602001600015158152602001606081525090565b60005460405163ddb8ec8b60e01b8152600481018590526001600160a01b039091169063ddb8ec8b90602401600060405180830381865afa158015610ebd573d6000803e3d6000fd5b505050506040513d6000823e601f3d908101601f19168201604052610ee59190810190614cf0565b805190915015610f1f576040805180820182526002815261269b60f11b6020820152905162461bcd60e51b815261048491906004016149f8565b806020015151600003610f5c576040805180820182526002815261453160f01b6020820152905162461bcd60e51b815261048491906004016149f8565b6040810151610f95576040805180820182526002815261229960f11b6020820152905162461bcd60e51b815261048491906004016149f8565b806060015151600003610fd2576040805180820182526002815261453360f01b6020820152905162461bcd60e51b815261048491906004016149f8565b80608001511561100c576040805180820182526002815261533760f01b6020820152905162461bcd60e51b815261048491906004016149f8565b600154604082810151905163255709e560e11b815260048101919091526000916001600160a01b031690634aae13ca90602401600060405180830381865afa15801561105c573d6000803e3d6000fd5b505050506040513d6000823e601f3d908101601f191682016040526110849190810190614b27565b9050600061109287876128ff565b9050600061109f82612aef565b90508260c001516002826040516110b69190614dc9565b602060405180830381855afa1580156110d3573d6000803e3d6000fd5b5050506040513d601f19601f820116820180604052508101906110f69190614de5565b1461112b576040805180820182526002815261423160f01b6020820152905162461bcd60e51b815261048491906004016149f8565b858360200151846101400151600260405160200161114c9493929190614c92565b60408051601f198184030181529181528151602092830120600081815260049093529120549095506001600160a01b0316156111b25760408051808201825260028152614d3960f01b6020820152905162461bcd60e51b815261048491906004016149f8565b6111c58460a001518461018001516131c4565b82610120015151600003611203576040805180820182526002815261533560f01b6020820152905162461bcd60e51b815261048491906004016149f8565b8360600151805190602001208361012001518051906020012014611251576040805180820182526002815261299b60f11b6020820152905162461bcd60e51b815261048491906004016149f8565b60035460208401516040516326415b0f60e21b81526001600160a01b03918216600482015260009291909116906399056c3c90602401600060405180830381865afa1580156112a4573d6000803e3d6000fd5b505050506040513d6000823e601f3d908101601f191682016040526112cc9190810190614850565b9050806101200151805190602001208560200151805190602001201461131c5760408051808201825260028152614d3760f01b6020820152905162461bcd60e51b815261048491906004016149f8565b600354602085015160405163014f6b1960e41b81526001600160a01b03918216600482015260009291909116906314f6b19090602401602060405180830381865afa15801561136f573d6000803e3d6000fd5b505050506040513d601f19601f820116820180604052508101906113939190614de5565b9050806000036113cd57604080518082018252600281526109c760f31b6020820152905162461bcd60e51b815261048491906004016149f8565b604051806101200160405280336001600160a01b0316815260200186602001516001600160a01b03168152602001836080015181526020018360c001516001600160a01b031681526020018360e00151815260200182815260200160001515815260200160026003811115611444576114446145b9565b81526101408701516001600160a01b0390811660209283015260008a81526004808452604091829020855181549085166001600160a01b0319918216178255868601516001830180549187169183169190911790559286015160028201556060860151600382018054919095169316929092179092556080840151805191936114d2938501929101906143d5565b5060a0820151600582015560c082015160068201805491151560ff1983168117825560e08501519261ff001990911661ffff199091161761010083600381111561151e5761151e6145b9565b021790555061010091909101516006909101805462010000600160b01b031916620100006001600160a01b0393841602179055600354602087015160405163133165fb60e31b8152908316600482015291169063998b2fd890602401600060405180830381600087803b15801561159457600080fd5b505af11580156115a8573d6000803e3d6000fd5b5050600154606085015161014089015160405163d09d03a360e01b81526001600160a01b03909316945063d09d03a393506115f7926004019182526001600160a01b0316602082015260400190565b600060405180830381600087803b15801561161157600080fd5b505af1158015611625573d6000803e3d6000fd5b5050505084602001516001600160a01b0316336001600160a01b03168860008051602061504e83398151915285608001518660e00151868b610140015160026003811115611675576116756145b9565b604051611686959493929190614dfe565b60405180910390a45050505050509392505050565b6000818152600460205260409020600681015460ff16156116e6576040805180820182526002815261134d60f21b6020820152905162461bcd60e51b815261048491906004016149f8565b60028101541580156116fa57506004810154155b1561172f5760408051808201825260028152614d3560f01b6020820152905162461bcd60e51b815261048491906004016149f8565b60068101546201000090046001600160a01b031661177757604080518082018252600281526105a360f41b6020820152905162461bcd60e51b815261048491906004016149f8565b60025460408051631e4432d760e11b815290516000926001600160a01b031691633c8865ae9160048083019260209291908290030181865afa1580156117c1573d6000803e3d6000fd5b505050506040513d601f19601f820116820180604052508101906117e59190614de5565b905060006127108284600501546117fc9190614e82565b6118069190614e99565b905080341015611840576040805180820182526002815261543560f01b6020820152905162461bcd60e51b815261048491906004016149f8565b60068301805460ff191660011790556002830154156118fb57600683015460028401546040516000926201000090046001600160a01b031691908381818185875af1925050503d80600081146118b2576040519150601f19603f3d011682016040523d82523d6000602084013e6118b7565b606091505b50509050806118f95760405162461bcd60e51b815260206004820152600e60248201526d151c985b9cd9995c91985a5b195960921b6044820152606401610484565b505b60005b60048401548110156119cf57600384015460068501546004860180546001600160a01b03938416936323b872dd93309362010000909104909116918690811061194957611949614ebb565b6000918252602090912001546040516001600160e01b031960e086901b1681526001600160a01b0393841660048201529290911660248301526044820152606401600060405180830381600087803b1580156119a457600080fd5b505af11580156119b8573d6000803e3d6000fd5b5050505080806119c790614ed1565b9150506118fe565b506002546040805163045b2b8560e51b815290516000926001600160a01b031691638b6570a09160048083019260209291908290030181865afa158015611a1a573d6000803e3d6000fd5b505050506040513d601f19601f82011682018060405250810190611a3e9190614eea565b6040519091506001600160a01b0382169083156108fc029084906000818181858888f19350505050158015611a77573d6000803e3d6000fd5b50600082341115611b1a57611a8c8334614f07565b604051909150600090339083908381818185875af1925050503d8060008114611ad1576040519150601f19603f3d011682016040523d82523d6000602084013e611ad6565b606091505b5050905080611b185760405162461bcd60e51b815260206004820152600e60248201526d151c985b9cd9995c91985a5b195960921b6044820152606401610484565b505b60068501546002860154604051620100009092046001600160a01b031691339189917fa6a4bd55cab187f1d44eb0f7fde59c599b88b1f8db6e4f916348d93ef1ad695091611b709160048c01908a908990614f1a565b60405180910390a4505050505050565b600154604051632a242ded60e21b81526004810183905260009182916001600160a01b039091169063a890b7b490602401600060405180830381865afa158015611bce573d6000803e3d6000fd5b505050506040513d6000823e601f3d908101601f19168201604052611bf69190810190614b27565b602080820151610160830151604051939450611c1793879360019101614c92565b60408051601f198184030181529181528151602092830120600081815260049093529120549092506001600160a01b031615611c7d5760408051808201825260028152614d3960f01b6020820152905162461bcd60e51b815261048491906004016149f8565b60028160e001516003811115611c9557611c956145b9565b14611cca576040805180820182526002815261269960f11b6020820152905162461bcd60e51b815261048491906004016149f8565b60025460408051632b6f600d60e01b815290516000926001600160a01b031691632b6f600d9160048083019260209291908290030181865afa158015611d14573d6000803e3d6000fd5b505050506040513d601f19601f82011682018060405250810190611d389190614de5565b905042818360600151611d4b9190614f77565b1115611d815760408051808201825260028152614d3360f01b6020820152905162461bcd60e51b815261048491906004016149f8565b60035460208301516040516326415b0f60e21b81526001600160a01b03918216600482015260009291909116906399056c3c90602401600060405180830381865afa158015611dd4573d6000803e3d6000fd5b505050506040513d6000823e601f3d908101601f19168201604052611dfc9190810190614850565b600354602085015160405163014f6b1960e41b81526001600160a01b0391821660048201529293506000929116906314f6b19090602401602060405180830381865afa158015611e50573d6000803e3d6000fd5b505050506040513d601f19601f82011682018060405250810190611e749190614de5565b905080600003611eae57604080518082018252600281526109c760f31b6020820152905162461bcd60e51b815261048491906004016149f8565b604051806101200160405280336001600160a01b0316815260200185602001516001600160a01b03168152602001836080015181526020018360c001516001600160a01b031681526020018360e00151815260200182815260200160001515815260200160016003811115611f2557611f256145b9565b81526101608601516001600160a01b0390811660209283015260008881526004808452604091829020855181549085166001600160a01b031991821617825586860151600183018054918716918316919091179055928601516002820155606086015160038201805491909516931692909217909255608084015180519193611fb3938501929101906143d5565b5060a0820151600582015560c082015160068201805491151560ff1983168117825560e08501519261ff001990911661ffff1990911617610100836003811115611fff57611fff6145b9565b021790555061010091909101516006909101805462010000600160b01b031916620100006001600160a01b0393841602179055600354602086015160405163133165fb60e31b8152908316600482015291169063998b2fd890602401600060405180830381600087803b15801561207557600080fd5b505af1158015612089573d6000803e3d6000fd5b5050600154606085015161016088015160405163d09d03a360e01b81526001600160a01b03909316945063d09d03a393506120d8926004019182526001600160a01b0316602082015260400190565b600060405180830381600087803b1580156120f257600080fd5b505af1158015612106573d6000803e3d6000fd5b5050505083602001516001600160a01b0316336001600160a01b03168660008051602061504e83398151915285608001518660e00151868a610160015160016003811115612156576121566145b9565b604051612167959493929190614dfe565b60405180910390a450505050919050565b600154604051632a242ded60e21b81526004810183905260009182916001600160a01b039091169063a890b7b490602401600060405180830381865afa1580156121c6573d6000803e3d6000fd5b505050506040513d6000823e601f3d908101601f191682016040526121ee9190810190614b27565b60208101519091506001600160a01b031633146122355760408051808201825260028152614d3160f01b6020820152905162461bcd60e51b815261048491906004016149f8565b600154604051637577b6df60e01b8152600481018590526000916001600160a01b031690637577b6df9060240160408051808303816000875af1158015612280573d6000803e3d6000fd5b505050506040513d601f19601f820116820180604052508101906122a49190614f8a565b5060035460208401516040516326415b0f60e21b81526001600160a01b0391821660048201529293506000929116906399056c3c90602401600060405180830381865afa1580156122f9573d6000803e3d6000fd5b505050506040513d6000823e601f3d908101601f191682016040526123219190810190614850565b90506000858460200151836101c0015160036040516020016123469493929190614c92565b60408051601f198184030181529181528151602092830120600081815260049093529120549091506001600160a01b0316156123ac5760408051808201825260028152614d3960f01b6020820152905162461bcd60e51b815261048491906004016149f8565b60408051610120810182523381526020868101516001600160a01b03908116828401908152838501888152600060608601818152875182815280870189526080880190815260a088018c9052600160c08901819052600360e08a018190526101c08d015188166101008b01528b85526004808a529a909420895181549089166001600160a01b03199182161782559651918101805492891692881692909217909155935160028501559051918301805492909516919093161790925551805193949193612481939285019291909101906143d5565b5060a0820151600582015560c082015160068201805491151560ff1983168117825560e08501519261ff001990911661ffff19909116176101008360038111156124cd576124cd6145b9565b021790555061010091909101516006909101805462010000600160b01b031916620100006001600160a01b0393841602179055602085015116338260008051602061504e833981519152866000604051908082528060200260200182016040528015612543578160200160208202803683370190505b506101c088015160405161255d9392918b91600390614dfe565b60405180910390a495945050505050565b612576612833565b6001600160a01b0381166125cc5760405162461bcd60e51b815260206004820152601d60248201527f496e76616c696420436f6e6669674d616e6167657220616464726573730000006044820152606401610484565b600280546001600160a01b0319166001600160a01b0383169081179091556040517f6a801685c5950e3d8ece256f75ca0ff31ed0ae02aeae73f8180ff32e978a2f6b90600090a250565b6000818152600460205260408120600681015460ff161561263a5750600092915050565b6005015492915050565b7ff0c57e16840df040f15088dc2f81fe391c3923bec73e23a9662efc9c229c6a008054600160401b810460ff1615906001600160401b03166000811580156126895750825b90506000826001600160401b031660011480156126a55750303b155b9050811580156126b3575080155b156126d15760405163f92ee8a960e01b815260040160405180910390fd5b845467ffffffffffffffff1916600117855583156126fb57845460ff60401b1916600160401b1785555b6127043361337f565b6001600160a01b038816158061272157506001600160a01b038716155b8061273357506001600160a01b038616155b1561276857604080518082018252600281526105a360f41b6020820152905162461bcd60e51b815261048491906004016149f8565b600080546001600160a01b03808b166001600160a01b031992831617909255600280548a8416908316179055600380549289169290911691909117905583156127eb57845460ff60401b19168555604051600181527fc7f505b2f371ae2175ee4913f4499e1f2633a7b5936321eed1cdaeb6115181d29060200160405180910390a15b5050505050505050565b6127fd612833565b6001600160a01b03811661282757604051631e4fbdf760e01b815260006004820152602401610484565b6128308161288e565b50565b336128657f9016d09d72d40fdae2fd8ceac6b6234c7706214fd39c1cd1e609a0528c199300546001600160a01b031690565b6001600160a01b0316146106415760405163118cdaa760e01b8152336004820152602401610484565b7f9016d09d72d40fdae2fd8ceac6b6234c7706214fd39c1cd1e609a0528c19930080546001600160a01b031981166001600160a01b03848116918217845560405192169182907f8be0079c531659141344cd1fd0a4f28419497f9722a3daafe3b4186f6b6457e090600090a3505050565b6040805160a081018252600080825260606020830181905292820183905291810182905260808101829052908280612938600484614f77565b111561296e576040805180820182526002815261543760f01b6020820152905162461bcd60e51b815261048491906004016149f8565b6129af85858080601f016020809104026020016040519081016040528093929190818152602001838380828437600092019190915250869250613390915050565b63ffffffff1683526129c2600483614f77565b91506000806129d287878661347a565b8115156080880152945091508390506000806129ef89898561350d565b6020890182905296509150859050600080612a0b8b8b85613605565b60408b01829052985091508790508515612a2f57612a2c8b8b8a87516136e5565b97505b86612a3b896004614f77565b1115612a71576040805180820182526002815261543760f01b6020820152905162461bcd60e51b815261048491906004016149f8565b8a888b612a7f826004614f77565b92612a8c93929190614fae565b612a9591614fd8565b60e01c60608a0152612aa8600489614f77565b9750868814612ae1576040805180820182526002815261543760f01b6020820152905162461bcd60e51b815261048491906004016149f8565b505050505050505092915050565b6060600060049050612b05836020015151613778565b612b0f9082614f77565b905060005b836020015151811015612b4d57612b2c602883614f77565b9150612b39600183614f77565b915080612b4581614ed1565b915050612b14565b50612b5c836040015151613778565b612b669082614f77565b905060005b836040015151811015612bfe57612b83600883614f77565b9150612bb084604001518281518110612b9e57612b9e614ebb565b60200260200101516020015151613778565b612bba9083614f77565b915083604001518181518110612bd257612bd2614ebb565b6020026020010151602001515182612bea9190614f77565b915080612bf681614ed1565b915050612b6b565b50612c0a600482614f77565b90506000816001600160401b03811115612c2657612c26614642565b6040519080825280601f01601f191660200182016040528015612c50576020820181803683370190505b50845190915060009060e01b815b6004811015612ccb5781612c73826003614f07565b60048110612c8357612c83614ebb565b1a60f81b84612c928386614f77565b81518110612ca257612ca2614ebb565b60200101906001600160f81b031916908160001a90535080612cc381614ed1565b915050612c5e565b50612cd7600483614f77565b9150612ce986602001515184846137bc565b612cf39083614f77565b915060005b866020015151811015612f445760005b6020811015612d985787602001518281518110612d2757612d27614ebb565b60200260200101516000015181601f612d409190614f07565b60208110612d5057612d50614ebb565b1a60f81b85612d5f8387614f77565b81518110612d6f57612d6f614ebb565b60200101906001600160f81b031916908160001a90535080612d9081614ed1565b915050612d08565b50612da4602084614f77565b9250600087602001518281518110612dbe57612dbe614ebb565b60200260200101516020015160e01b905060005b6004811015612e3f5781612de7826003614f07565b60048110612df757612df7614ebb565b1a60f81b86612e068388614f77565b81518110612e1657612e16614ebb565b60200101906001600160f81b031916908160001a90535080612e3781614ed1565b915050612dd2565b50612e4b600485614f77565b9350600060f81b858581518110612e6457612e64614ebb565b60200101906001600160f81b031916908160001a905350612e86600185614f77565b9350600088602001518381518110612ea057612ea0614ebb565b60200260200101516060015160e01b905060005b6004811015612f215781612ec9826003614f07565b60048110612ed957612ed9614ebb565b1a60f81b87612ee88389614f77565b81518110612ef857612ef8614ebb565b60200101906001600160f81b031916908160001a90535080612f1981614ed1565b915050612eb4565b50612f2d600486614f77565b945050508080612f3c90614ed1565b915050612cf8565b50612f5586604001515184846137bc565b612f5f9083614f77565b915060005b86604001515181101561314957600087604001518281518110612f8957612f89614ebb565b60200260200101516000015160c01b905060005b600881101561300a5781612fb2826007614f07565b60088110612fc257612fc2614ebb565b1a60f81b86612fd18388614f77565b81518110612fe157612fe1614ebb565b60200101906001600160f81b031916908160001a9053508061300281614ed1565b915050612f9d565b50613016600885614f77565b93506130458860400151838151811061303157613031614ebb565b6020026020010151602001515186866137bc565b61304f9085614f77565b935060005b8860400151838151811061306a5761306a614ebb565b60200260200101516020015151811015613104578860400151838151811061309457613094614ebb565b60200260200101516020015181815181106130b1576130b1614ebb565b01602001516001600160f81b031916866130cb8388614f77565b815181106130db576130db614ebb565b60200101906001600160f81b031916908160001a905350806130fc81614ed1565b915050613054565b508760400151828151811061311b5761311b614ebb565b60200260200101516020015151846131339190614f77565b935050808061314190614ed1565b915050612f64565b50606086015160e01b60005b60048110156131b85781816004811061317057613170614ebb565b1a60f81b8561317f8387614f77565b8151811061318f5761318f614ebb565b60200101906001600160f81b031916908160001a905350806131b081614ed1565b915050613155565b50929695505050505050565b80518251146131fd576040805180820182526002815261055360f41b6020820152905162461bcd60e51b815261048491906004016149f8565b60005b825181101561337a5781818151811061321b5761321b614ebb565b60200260200101516000015183828151811061323957613239614ebb565b6020026020010151600001511461327a576040805180820182526002815261055360f41b6020820152905162461bcd60e51b815261048491906004016149f8565b81818151811061328c5761328c614ebb565b60200260200101516020015163ffffffff168382815181106132b0576132b0614ebb565b60200260200101516020015163ffffffff16146132f7576040805180820182526002815261055360f41b6020820152905162461bcd60e51b815261048491906004016149f8565b81818151811061330957613309614ebb565b60200260200101516060015183828151811061332757613327614ebb565b60200260200101516060015114613368576040805180820182526002815261055360f41b6020820152905162461bcd60e51b815261048491906004016149f8565b8061337281614ed1565b915050613200565b505050565b613387613a39565b61283081613a82565b81516000906133a0836004614f77565b111560405180604001604052806002815260200161553560f01b815250906133db5760405162461bcd60e51b815260040161048491906149f8565b508282815181106133ee576133ee614ebb565b016020015160f81c600884613404856001614f77565b8151811061341457613414614ebb565b016020015160f81c901b60108561342c866002614f77565b8151811061343c5761343c614ebb565b016020015160f81c901b601886613454876003614f77565b8151811061346457613464614ebb565b016020015160f81c901b17171790505b92915050565b60008183613489826002614f77565b116135055760008585858181106134a2576134a2614ebb565b919091013560f81c91506000905086866134bd876001614f77565b8181106134cc576134cc614ebb565b919091013560f81c91505060ff82161580156134eb575060ff81166001145b1561350257600193506134ff600284614f77565b92505b50505b935093915050565b6060600080600061351f878787613a8a565b909250905061352e8186614f77565b9250816001600160401b0381111561354857613548614642565b60405190808252806020026020018201604052801561359b57816020015b604080516080810182526000808252602080830182905260609383018490529282015282526000199092019101816135665790505b50935060005b828110156135fa576000806135b78a8a88613cf6565b91509150818784815181106135ce576135ce614ebb565b60209081029190910101526135e38187614f77565b9550505080806135f290614ed1565b9150506135a1565b505050935093915050565b60606000806000613617878787613a8a565b90925090506136268186614f77565b9250816001600160401b0381111561364057613640614642565b60405190808252806020026020018201604052801561368657816020015b60408051808201909152600081526060602082015281526020019060019003908161365e5790505b50935060005b828110156135fa576000806136a28a8a88613faa565b91509150818784815181106136b9576136b9614ebb565b60209081029190910101526136ce8187614f77565b9550505080806136dd90614ed1565b91505061368c565b8160005b8281101561376f576000806136ff888886613a8a565b909250905061370e8185614f77565b935060005b82811015613759576000806137298b8b89613a8a565b90925090506137388282614f77565b6137429088614f77565b96505050808061375190614ed1565b915050613713565b505050808061376790614ed1565b9150506136e9565b50949350505050565b600060fc82101561378b57506001919050565b61ffff821161379c57506003919050565b63ffffffff82116137af57506005919050565b506009919050565b919050565b600060fc8410156137fd578360f81b8383815181106137dd576137dd614ebb565b60200101906001600160f81b031916908160001a90535060019050613a32565b61ffff84116138b75760fd60f81b83838151811061381d5761381d614ebb565b60200101906001600160f81b031916908160001a90535060f084901b8060011a60f81b8461384c856001614f77565b8151811061385c5761385c614ebb565b60200101906001600160f81b031916908160001a9053508060001a60f81b84613886856002614f77565b8151811061389657613896614ebb565b60200101906001600160f81b031916908160001a9053506003915050613a32565b63ffffffff841161397c5760fe60f81b8383815181106138d9576138d9614ebb565b60200101906001600160f81b031916908160001a90535060e084901b60005b6004811015613971578161390d826003614f07565b6004811061391d5761391d614ebb565b1a60f81b858261392e876001614f77565b6139389190614f77565b8151811061394857613948614ebb565b60200101906001600160f81b031916908160001a9053508061396981614ed1565b9150506138f8565b506005915050613a32565b60ff60f81b83838151811061399357613993614ebb565b60200101906001600160f81b031916908160001a90535060c084901b60005b6008811015613a2b57816139c7826007614f07565b600881106139d7576139d7614ebb565b1a60f81b85826139e8876001614f77565b6139f29190614f77565b81518110613a0257613a02614ebb565b60200101906001600160f81b031916908160001a90535080613a2381614ed1565b9150506139b2565b5060099150505b9392505050565b7ff0c57e16840df040f15088dc2f81fe391c3923bec73e23a9662efc9c229c6a0054600160401b900460ff1661064157604051631afcd79f60e31b815260040160405180910390fd5b6127fd613a39565b600080838310613ac4576040805180820182526002815261543760f01b6020820152905162461bcd60e51b815261048491906004016149f8565b6000858585818110613ad857613ad8614ebb565b919091013560f81c91505060fc811015613afa5760ff16915060019050613505565b60fc1960ff821601613ba55784613b12856003614f77565b1115613b48576040805180820182526002815261543760f01b6020820152905162461bcd60e51b815261048491906004016149f8565b613b9486868080601f016020809104026020016040519081016040528093929190818152602001838380828437600092019190915250613b8f925088915060019050614f77565b61411a565b61ffff169250600391506135059050565b60fd1960ff821601613c525784613bbd856005614f77565b1115613bf3576040805180820182526002815261543760f01b6020820152905162461bcd60e51b815261048491906004016149f8565b613c3f86868080601f016020809104026020016040519081016040528093929190818152602001838380828437600092019190915250613c3a925088915060019050614f77565b613390565b63ffffffff169250600591506135059050565b84613c5e856009614f77565b1115613c94576040805180820182526002815261543760f01b6020820152905162461bcd60e51b815261048491906004016149f8565b613ce086868080601f016020809104026020016040519081016040528093929190818152602001838380828437600092019190915250613cdb925088915060019050614f77565b6141b1565b6001600160401b03169250600991506135059050565b6040805160808101825260008082526020820181905260609282018390529181019190915260008284613d2a826020614f77565b1115613d60576040805180820182526002815261543760f01b6020820152905162461bcd60e51b815261048491906004016149f8565b613d8c868587613d71826020614f77565b92613d7e93929190614fae565b613d8791615008565b614340565b8352613d99602085614f77565b935084613da7856004614f77565b1115613ddd576040805180820182526002815261543760f01b6020820152905162461bcd60e51b815261048491906004016149f8565b613e1e86868080601f016020809104026020016040519081016040528093929190818152602001838380828437600092019190915250889250613390915050565b63ffffffff166020840152613e34600485614f77565b9350600080613e44888888613a8a565b9092509050613e538187614f77565b955086613e608388614f77565b1115613e96576040805180820182526002815261543760f01b6020820152905162461bcd60e51b815261048491906004016149f8565b878688613ea38583614f77565b92613eb093929190614fae565b8080601f0160208091040260200160405190810160405280939291908181526020018383808284376000920191909152505050506040860152613ef38287614f77565b955086613f01876004614f77565b1115613f37576040805180820182526002815261543760f01b6020820152905162461bcd60e51b815261048491906004016149f8565b613f7888888080601f0160208091040260200160405190810160405280939291908181526020018383808284376000920191909152508a9250613390915050565b63ffffffff166060860152613f8e600487614f77565b955084613f9b8488614f07565b94509450505050935093915050565b60408051808201909152600081526060602082015260008284613fce826008614f77565b1115614004576040805180820182526002815261543760f01b6020820152905162461bcd60e51b815261048491906004016149f8565b61404586868080601f0160208091040260200160405190810160405280939291908181526020018383808284376000920191909152508892506141b1915050565b6001600160401b0316835261405b600885614f77565b935060008061406b888888613a8a565b909250905061407a8187614f77565b9550866140878388614f77565b11156140bd576040805180820182526002815261543760f01b6020820152905162461bcd60e51b815261048491906004016149f8565b8786886140ca8583614f77565b926140d793929190614fae565b8080601f0160208091040260200160405190810160405280939291908181526020018383808284376000920191909152505050506020860152613f8e8287614f77565b815160009061412a836002614f77565b111560405180604001604052806002815260200161154d60f21b815250906141655760405162461bcd60e51b815260040161048491906149f8565b5082828151811061417857614178614ebb565b016020015160f81c60088461418e856001614f77565b8151811061419e5761419e614ebb565b016020015160f81c901b17905092915050565b81516000906141c1836008614f77565b1115604051806040016040528060028152602001612a9b60f11b815250906141fc5760405162461bcd60e51b815260040161048491906149f8565b5082828151811061420f5761420f614ebb565b016020015160f81c600884614225856001614f77565b8151811061423557614235614ebb565b016020015160f81c901b60108561424d866002614f77565b8151811061425d5761425d614ebb565b016020015160f81c901b601886614275876003614f77565b8151811061428557614285614ebb565b0160209081015160f81c90911b908761429f886004614f77565b815181106142af576142af614ebb565b016020015160f81c901b6028886142c7896005614f77565b815181106142d7576142d7614ebb565b016020015160f81c901b6030896142ef8a6006614f77565b815181106142ff576142ff614ebb565b016020015160f81c901b60388a6143178b6007614f77565b8151811061432757614327614ebb565b016020015160f81c901b17171717171717905092915050565b60408051602080825281830190925260009182919060208201818036833701905050905060005b60208110156143cb578361437c82601f614f07565b6020811061438c5761438c614ebb565b1a60f81b8282815181106143a2576143a2614ebb565b60200101906001600160f81b031916908160001a905350806143c381614ed1565b915050614367565b50613a3281615026565b828054828255906000526020600020908101928215614410579160200282015b828111156144105782518255916020019190600101906143f5565b5061441c929150614420565b5090565b5b8082111561441c5760008155600101614421565b6001600160a01b038116811461283057600080fd5b60006020828403121561445c57600080fd5b8135613a3281614435565b60008083601f84011261447957600080fd5b5081356001600160401b0381111561449057600080fd5b6020830191508360208285010111156144a857600080fd5b9250929050565b600080600080606085870312156144c557600080fd5b84356144d081614435565b935060208501356001600160401b038111156144eb57600080fd5b6144f787828801614467565b9598909750949560400135949350505050565b60008060006040848603121561451f57600080fd5b83356001600160401b0381111561453557600080fd5b61454186828701614467565b909790965060209590950135949350505050565b60006020828403121561456757600080fd5b5035919050565b60008060006060848603121561458357600080fd5b833561458e81614435565b9250602084013561459e81614435565b915060408401356145ae81614435565b809150509250925092565b634e487b7160e01b600052602160045260246000fd5b6001600160a01b03898116825288811660208301526040820188905286811660608301526080820186905284151560a08301526101008201906004851061462657634e487b7160e01b600052602160045260246000fd5b8460c084015280841660e0840152509998505050505050505050565b634e487b7160e01b600052604160045260246000fd5b60405161020081016001600160401b038111828210171561467b5761467b614642565b60405290565b604051608081016001600160401b038111828210171561467b5761467b614642565b6040516101c081016001600160401b038111828210171561467b5761467b614642565b60405160c081016001600160401b038111828210171561467b5761467b614642565b604051601f8201601f191681016001600160401b038111828210171561471057614710614642565b604052919050565b80516137b781614435565b805180151581146137b757600080fd5b60006001600160401b0382111561474c5761474c614642565b5060051b60200190565b600082601f83011261476757600080fd5b8151602061477c61477783614733565b6146e8565b82815260059290921b8401810191818101908684111561479b57600080fd5b8286015b848110156147b6578051835291830191830161479f565b509695505050505050565b60005b838110156147dc5781810151838201526020016147c4565b50506000910152565b600082601f8301126147f657600080fd5b81516001600160401b0381111561480f5761480f614642565b614822601f8201601f19166020016146e8565b81815284602083860101111561483757600080fd5b6148488260208301602087016147c1565b949350505050565b60006020828403121561486257600080fd5b81516001600160401b038082111561487957600080fd5b90830190610200828603121561488e57600080fd5b614896614658565b61489f83614718565b81526148ad60208401614723565b60208201526040830151604082015260608301516060820152608083015160808201526148dc60a08401614718565b60a08201526148ed60c08401614718565b60c082015260e08301518281111561490457600080fd5b61491087828601614756565b60e083015250610100614924818501614718565b90820152610120838101518381111561493c57600080fd5b614948888287016147e5565b828401525050610140808401518381111561496257600080fd5b61496e888287016147e5565b828401525050610160808401518183015250610180808401518381111561499457600080fd5b6149a0888287016147e5565b8284015250506101a080840151838111156149ba57600080fd5b6149c6888287016147e5565b8284015250506101c091506149dc828401614718565b918101919091526101e091820151918101919091529392505050565b6020815260008251806020840152614a178160408501602087016147c1565b601f01601f19169190910160400192915050565b8051600481106137b757600080fd5b600082601f830112614a4b57600080fd5b81516020614a5b61477783614733565b82815260059290921b84018101918181019086841115614a7a57600080fd5b8286015b848110156147b65780516001600160401b0380821115614a9e5760008081fd5b908801906080828b03601f1901811315614ab85760008081fd5b614ac0614681565b87840151815260408085015163ffffffff81168114614adf5760008081fd5b828a015260608581015185811115614af75760008081fd5b614b058f8c838a01016147e5565b9284019290925294909201519381019390935250508352918301918301614a7e565b600060208284031215614b3957600080fd5b81516001600160401b0380821115614b5057600080fd5b908301906101c08286031215614b6557600080fd5b614b6d6146a3565b614b7683614718565b8152614b8460208401614718565b602082015260408301516040820152606083015160608201526080830151608082015260a083015182811115614bb957600080fd5b614bc5878286016147e5565b60a08301525060c083015160c0820152614be160e08401614a2b565b60e082015261010083810151908201526101208084015183811115614c0557600080fd5b614c11888287016147e5565b828401525050610140614c25818501614718565b90820152610160614c37848201614718565b908201526101808381015183811115614c4f57600080fd5b614c5b88828701614a3a565b8284015250506101a08084015183811115614c7557600080fd5b614c81888287016147e5565b918301919091525095945050505050565b84815260006bffffffffffffffffffffffff19808660601b166020840152808560601b1660348401525060048310614cda57634e487b7160e01b600052602160045260246000fd5b5060f89190911b60488201526049019392505050565b600060208284031215614d0257600080fd5b81516001600160401b0380821115614d1957600080fd5b9083019060c08286031215614d2d57600080fd5b614d356146c6565b82518152602083015182811115614d4b57600080fd5b614d57878286016147e5565b60208301525060408301516040820152606083015182811115614d7957600080fd5b614d85878286016147e5565b606083015250614d9760808401614723565b608082015260a083015182811115614dae57600080fd5b614dba87828601614a3a565b60a08301525095945050505050565b60008251614ddb8184602087016147c1565b9190910192915050565b600060208284031215614df757600080fd5b5051919050565b600060a08201878352602060a08185015281885180845260c086019150828a01935060005b81811015614e3f57845183529383019391830191600101614e23565b505060408501979097525050506001600160a01b0392909216606083015260ff1660809091015292915050565b634e487b7160e01b600052601160045260246000fd5b808202811582820484141761347457613474614e6c565b600082614eb657634e487b7160e01b600052601260045260246000fd5b500490565b634e487b7160e01b600052603260045260246000fd5b600060018201614ee357614ee3614e6c565b5060010190565b600060208284031215614efc57600080fd5b8151613a3281614435565b8181038181111561347457613474614e6c565b600060808201868352602060808185015281875480845260a0860191508860005282600020935060005b81811015614f6057845483526001948501949284019201614f44565b505060408501969096525050506060015292915050565b8082018082111561347457613474614e6c565b60008060408385031215614f9d57600080fd5b505080516020909101519092909150565b60008085851115614fbe57600080fd5b83861115614fcb57600080fd5b5050820193919092039150565b6001600160e01b031981358181169160048510156150005780818660040360031b1b83161692505b505092915050565b8035602083101561347457600019602084900360031b1b1692915050565b80516020808301519190811015615047576000198160200360031b1b821691505b5091905056feb9e0ad71af9252e1922aa65a5543f63b7ef69d1cbe0b60793ec8adaff1991817a2646970667358221220918bc3f729a37655e488ce10842dbc0ea8a7458d94a2a2b725e71aeff36091ff64736f6c63430008140033",
  "linkReferences": {},
  "deployedLinkReferences": {}
}