{
  "_format": "hh-sol-artifact-1",
  "contractName": "CompensationManager",
  "sourceName": "contracts/core/CompensationManager.sol",
  "abi": [
    {
      "inputs": [],
      "stateMutability": "nonpayable",
      "type": "constructor"
    },
    {
      "inputs": [],
      "name": "InvalidInitialization",
      "type": "error"
    },
    {
      "inputs": [],
      "name": "NotInitializing",
      "type": "error"
    },
    {
      "inputs": [
        {
          "internalType": "address",
          "name": "owner",
          "type": "address"
        }
      ],
      "name": "OwnableInvalidOwner",
      "type": "error"
    },
    {
      "inputs": [
        {
          "internalType": "address",
          "name": "account",
          "type": "address"
        }
      ],
      "name": "OwnableUnauthorizedAccount",
      "type": "error"
    },
    {
      "anonymous": false,
      "inputs": [
        {
          "indexed": true,
          "internalType": "bytes32",
          "name": "claimId",
          "type": "bytes32"
        },
        {
          "indexed": true,
          "internalType": "address",
          "name": "claimer",
          "type": "address"
        },
        {
          "indexed": false,
          "internalType": "uint8",
          "name": "claimType",
          "type": "uint8"
        }
      ],
      "name": "CompensationClaimed",
      "type": "event"
    },
    {
      "anonymous": false,
      "inputs": [
        {
          "indexed": true,
          "internalType": "bytes32",
          "name": "claimId",
          "type": "bytes32"
        }
      ],
      "name": "CompensationWithdrawn",
      "type": "event"
    },
    {
      "anonymous": false,
      "inputs": [
        {
          "indexed": false,
          "internalType": "uint64",
          "name": "version",
          "type": "uint64"
        }
      ],
      "name": "Initialized",
      "type": "event"
    },
    {
      "anonymous": false,
      "inputs": [
        {
          "indexed": true,
          "internalType": "address",
          "name": "previousOwner",
          "type": "address"
        },
        {
          "indexed": true,
          "internalType": "address",
          "name": "newOwner",
          "type": "address"
        }
      ],
      "name": "OwnershipTransferred",
      "type": "event"
    },
    {
      "inputs": [],
      "name": "arbitratorManager",
      "outputs": [
        {
          "internalType": "contract IArbitratorManager",
          "name": "",
          "type": "address"
        }
      ],
      "stateMutability": "view",
      "type": "function"
    },
    {
      "inputs": [
        {
          "internalType": "bytes32",
          "name": "txId",
          "type": "bytes32"
        }
      ],
      "name": "claimArbitratorFee",
      "outputs": [
        {
          "internalType": "bytes32",
          "name": "",
          "type": "bytes32"
        }
      ],
      "stateMutability": "nonpayable",
      "type": "function"
    },
    {
      "inputs": [
        {
          "internalType": "bytes",
          "name": "btcTx",
          "type": "bytes"
        },
        {
          "internalType": "bytes32",
          "name": "evidence",
          "type": "bytes32"
        }
      ],
      "name": "claimFailedArbitrationCompensation",
      "outputs": [
        {
          "internalType": "bytes32",
          "name": "claimId",
          "type": "bytes32"
        }
      ],
      "stateMutability": "nonpayable",
      "type": "function"
    },
    {
      "inputs": [
        {
          "internalType": "address",
          "name": "arbitrator",
          "type": "address"
        },
        {
          "internalType": "bytes",
          "name": "btcTx",
          "type": "bytes"
        },
        {
          "internalType": "bytes32",
          "name": "evidence",
          "type": "bytes32"
        }
      ],
      "name": "claimIllegalSignatureCompensation",
      "outputs": [
        {
          "internalType": "bytes32",
          "name": "claimId",
          "type": "bytes32"
        }
      ],
      "stateMutability": "nonpayable",
      "type": "function"
    },
    {
      "inputs": [
        {
          "internalType": "bytes32",
          "name": "id",
          "type": "bytes32"
        }
      ],
      "name": "claimTimeoutCompensation",
      "outputs": [
        {
          "internalType": "bytes32",
          "name": "claimId",
          "type": "bytes32"
        }
      ],
      "stateMutability": "nonpayable",
      "type": "function"
    },
    {
      "inputs": [
        {
          "internalType": "bytes32",
          "name": "",
          "type": "bytes32"
        }
      ],
      "name": "claims",
      "outputs": [
        {
          "internalType": "address",
          "name": "dapp",
          "type": "address"
        },
        {
          "internalType": "address",
          "name": "arbitrator",
          "type": "address"
        },
        {
          "internalType": "uint256",
          "name": "ethAmount",
          "type": "uint256"
        },
        {
          "internalType": "address",
          "name": "nftContract",
          "type": "address"
        },
        {
          "internalType": "uint256",
          "name": "totalAmount",
          "type": "uint256"
        },
        {
          "internalType": "bool",
          "name": "withdrawn",
          "type": "bool"
        },
        {
          "internalType": "enum CompensationManager.CompensationType",
          "name": "claimType",
          "type": "uint8"
        },
        {
          "internalType": "address",
          "name": "receivedCompensationAddress",
          "type": "address"
        }
      ],
      "stateMutability": "view",
      "type": "function"
    },
    {
      "inputs": [],
      "name": "configManager",
      "outputs": [
        {
          "internalType": "contract IConfigManager",
          "name": "",
          "type": "address"
        }
      ],
      "stateMutability": "view",
      "type": "function"
    },
    {
      "inputs": [
        {
          "internalType": "bytes32",
          "name": "claimId",
          "type": "bytes32"
        }
      ],
      "name": "getClaimableAmount",
      "outputs": [
        {
          "internalType": "uint256",
          "name": "",
          "type": "uint256"
        }
      ],
      "stateMutability": "view",
      "type": "function"
    },
    {
      "inputs": [
        {
          "internalType": "address",
          "name": "_zkService",
          "type": "address"
        },
        {
          "internalType": "address",
          "name": "_transactionManager",
          "type": "address"
        },
        {
          "internalType": "address",
          "name": "_configManager",
          "type": "address"
        },
        {
          "internalType": "address",
          "name": "_arbitratorManager",
          "type": "address"
        }
      ],
      "name": "initialize",
      "outputs": [],
      "stateMutability": "nonpayable",
      "type": "function"
    },
    {
      "inputs": [],
      "name": "owner",
      "outputs": [
        {
          "internalType": "address",
          "name": "",
          "type": "address"
        }
      ],
      "stateMutability": "view",
      "type": "function"
    },
    {
      "inputs": [],
      "name": "renounceOwnership",
      "outputs": [],
      "stateMutability": "nonpayable",
      "type": "function"
    },
    {
      "inputs": [],
      "name": "transactionManager",
      "outputs": [
        {
          "internalType": "contract ITransactionManager",
          "name": "",
          "type": "address"
        }
      ],
      "stateMutability": "view",
      "type": "function"
    },
    {
      "inputs": [
        {
          "internalType": "address",
          "name": "newOwner",
          "type": "address"
        }
      ],
      "name": "transferOwnership",
      "outputs": [],
      "stateMutability": "nonpayable",
      "type": "function"
    },
    {
      "inputs": [
        {
          "internalType": "bytes32",
          "name": "claimId",
          "type": "bytes32"
        }
      ],
      "name": "withdrawCompensation",
      "outputs": [],
      "stateMutability": "payable",
      "type": "function"
    },
    {
      "inputs": [],
      "name": "zkService",
      "outputs": [
        {
          "internalType": "contract IZkService",
          "name": "",
          "type": "address"
        }
      ],
      "stateMutability": "view",
      "type": "function"
    },
    {
      "stateMutability": "payable",
      "type": "receive"
    }
  ],
  "bytecode": "0x60806040523480156200001157600080fd5b506200001c62000022565b620000d6565b7ff0c57e16840df040f15088dc2f81fe391c3923bec73e23a9662efc9c229c6a00805468010000000000000000900460ff1615620000735760405163f92ee8a960e01b815260040160405180910390fd5b80546001600160401b0390811614620000d35780546001600160401b0319166001600160401b0390811782556040519081527fc7f505b2f371ae2175ee4913f4499e1f2633a7b5936321eed1cdaeb6115181d29060200160405180910390a15b50565b61335980620000e66000396000f3fe6080604052600436106100ec5760003560e01c80638da5cb5b1161008a578063ca0ab07511610059578063ca0ab0751461028a578063eff0f592146102aa578063f2fde38b14610333578063f8c8765e1461035357600080fd5b80638da5cb5b146101ed57806399b298711461022a5780639a46c8cf1461024a578063bb64fd441461026a57600080fd5b8063759787c4116100c6578063759787c41461016c578063863121591461018c5780638c4e46e9146101ba5780638cc5d008146101da57600080fd5b80633b716452146100f85780635cd5f63714610135578063715018a61461015557600080fd5b366100f357005b600080fd5b34801561010457600080fd5b50600154610118906001600160a01b031681565b6040516001600160a01b0390911681526020015b60405180910390f35b34801561014157600080fd5b50600054610118906001600160a01b031681565b34801561016157600080fd5b5061016a610373565b005b34801561017857600080fd5b50600354610118906001600160a01b031681565b34801561019857600080fd5b506101ac6101a7366004612943565b610387565b60405190815260200161012c565b3480156101c657600080fd5b506101ac6101d536600461299e565b61097e565b61016a6101e83660046129e9565b611126565b3480156101f957600080fd5b507f9016d09d72d40fdae2fd8ceac6b6234c7706214fd39c1cd1e609a0528c199300546001600160a01b0316610118565b34801561023657600080fd5b506101ac6102453660046129e9565b611670565b34801561025657600080fd5b506101ac6102653660046129e9565b611bfd565b34801561027657600080fd5b506101ac6102853660046129e9565b6120cc565b34801561029657600080fd5b50600254610118906001600160a01b031681565b3480156102b657600080fd5b5061031f6102c53660046129e9565b6004602052600090815260409020805460018201546002830154600384015460058501546006909501546001600160a01b03948516959385169492939183169260ff80831692610100810490911691620100009091041688565b60405161012c989796959493929190612a18565b34801561033f57600080fd5b5061016a61034e366004612a8b565b6120fa565b34801561035f57600080fd5b5061016a61036e366004612aaf565b612138565b61037b6123b3565b610385600061240e565b565b6000805460405163ddb8ec8b60e01b81526004810184905282918291829182916001600160a01b039091169063ddb8ec8b90602401600060405180830381865afa1580156103d9573d6000803e3d6000fd5b505050506040513d6000823e601f3d908101601f191682016040526104019190810190612d83565b9550509450945050935083516000148061041a57508251155b80610423575081155b8061042c575080155b15610481576040805180820182526019815278496e76616c696420766572696669636174696f6e206461746160381b6020820152905162461bcd60e51b81526104789190600401612e48565b60405180910390fd5b6001546040516360e723e960e11b8152600481018490526000916001600160a01b03169063c1ce47d290602401602060405180830381865afa1580156104cb573d6000803e3d6000fd5b505050506040513d601f19601f820116820180604052508101906104ef9190612e7b565b146105345760408051808201825260128152715472616e73616374696f6e2065786973747360701b6020820152905162461bcd60e51b81526104789190600401612e48565b6003546040516326415b0f60e21b81526001600160a01b038b8116600483015260009216906399056c3c90602401600060405180830381865afa15801561057f573d6000803e3d6000fd5b505050506040513d6000823e601f3d908101601f191682016040526105a79190810190612f09565b905080610140015151600014806105d1575080610140015180519060200120848051906020012014155b806105f95750845160208601206040516105ee908b908b906130bd565b604051809103902014155b15610645576040805180820182526019815278496e76616c696420766572696669636174696f6e206461746160381b6020820152905162461bcd60e51b81526104789190600401612e48565b6000610651823361247f565b60a083015190915060008190036106a25760408051808201825260128152714e6f207374616b6520617661696c61626c6560701b6020820152905162461bcd60e51b81526104789190600401612e48565b604080514260208201526001600160601b031960608f811b8216938301939093523390921b90911660548201526f496c6c6567616c5369676e617475726560801b6068820152607801604051602081830303815290604052805190602001209750604051806101200160405280336001600160a01b031681526020018d6001600160a01b031681526020018281526020018460e001516001600160a01b031681526020018461010001518152602001600360009054906101000a90046001600160a01b03166001600160a01b03166314f6b1908f6040518263ffffffff1660e01b81526004016107a191906001600160a01b0391909116815260200190565b602060405180830381865afa1580156107be573d6000803e3d6000fd5b505050506040513d601f19601f820116820180604052508101906107e29190612e7b565b81526000602080830182905260408084018390526001600160a01b038781166060958601528d8452600480845293829020865181546001600160a01b031990811691841691909117825587850151600183018054831691851691909117905592870151600282015594860151600386018054909316911617905560808401518051610874938501929190910190612886565b5060a0820151600582015560c082015160068201805491151560ff1983168117825560e08501519261ff001990911661ffff19909116176101008360038111156108c0576108c0612a02565b021790555061010091909101516006909101805462010000600160b01b031916620100006001600160a01b039384160217905560035460405163133165fb60e31b81528e8316600482015291169063998b2fd890602401600060405180830381600087803b15801561093157600080fd5b505af1158015610945573d6000803e3d6000fd5b5050604051600081523392508a91506000805160206133048339815191529060200160405180910390a350505050505050949350505050565b6000805460405163ddb8ec8b60e01b8152600481018490528291829182918291829182916001600160a01b039091169063ddb8ec8b90602401600060405180830381865afa1580156109d4573d6000803e3d6000fd5b505050506040513d6000823e601f3d908101601f191682016040526109fc9190810190612d83565b9550955095509550955095508551600003610a4d57604080518082018252600e81526d456d70747920726177206461746160901b6020820152905162461bcd60e51b81526104789190600401612e48565b8351600003610a9457604080518082018252601081526f456d707479207075626c6963206b657960801b6020820152905162461bcd60e51b81526104789190600401612e48565b82610ad157604080518082018252600a81526908adae0e8f240d0c2e6d60b31b6020820152905162461bcd60e51b81526104789190600401612e48565b8151600003610b1757604080518082018252600f81526e456d707479207369676e617475726560881b6020820152905162461bcd60e51b81526104789190600401612e48565b8015610b6857604080518082018252601c81527f496e76616c6964207a65726f2d6b6e6f776c656467652070726f6f66000000006020820152905162461bcd60e51b81526104789190600401612e48565b85516020870120604051610b7f908c908c906130bd565b604051809103902014610bd757604080518082018252601881527f425443207472616e73616374696f6e206d69736d6174636800000000000000006020820152905162461bcd60e51b81526104789190600401612e48565b60015460405163255709e560e11b8152600481018590526000916001600160a01b031690634aae13ca90602401600060405180830381865afa158015610c21573d6000803e3d6000fd5b505050506040513d6000823e601f3d908101601f19168201604052610c4991908101906130dc565b9050610c5a868261016001516125b8565b80516001600160a01b03163314610cae5760408051808201825260158152742737ba103a3930b739b0b1ba34b7b71037bbb732b960591b6020820152905162461bcd60e51b81526104789190600401612e48565b80610100015151600003610d0757604080518082018252601781527f5369676e6174757265206e6f74207375626d69747465640000000000000000006020820152905162461bcd60e51b81526104789190600401612e48565b80610100015180519060200120838051906020012014610d615760408051808201825260128152710a6d2cedcc2e8eae4ca40dad2e6dac2e8c6d60731b6020820152905162461bcd60e51b81526104789190600401612e48565b60035460208201516040516326415b0f60e21b81526001600160a01b03918216600482015260009291909116906399056c3c90602401600060405180830381865afa158015610db4573d6000803e3d6000fd5b505050506040513d6000823e601f3d908101601f19168201604052610ddc9190810190612f09565b60a08101519091506000819003610e2d5760408051808201825260128152714e6f207374616b6520617661696c61626c6560701b6020820152905162461bcd60e51b81526104789190600401612e48565b600354602084015160405163014f6b1960e41b81526001600160a01b03918216600482015260009291909116906314f6b19090602401602060405180830381865afa158015610e80573d6000803e3d6000fd5b505050506040513d601f19601f82011682018060405250810190610ea49190612e7b565b905042846020015133604051602001610efb93929190928352606091821b6001600160601b03199081166020850152911b166034820152702330b4b632b220b93134ba3930ba34b7b760791b604882015260590190565b604051602081830303815290604052805190602001209a50604051806101200160405280336001600160a01b0316815260200185602001516001600160a01b031681526020018381526020018460e001516001600160a01b03168152602001846101000151815260200182815260200160001515815260200160026003811115610f8757610f87612a02565b81526101208601516001600160a01b0390811660209283015260008e81526004808452604091829020855181549085166001600160a01b03199182161782558686015160018301805491871691831691909117905592860151600282015560608601516003820180549190951693169290921790925560808401518051919361101593850192910190612886565b5060a0820151600582015560c082015160068201805491151560ff1983168117825560e08501519261ff001990911661ffff199091161761010083600381111561106157611061612a02565b021790555061010091909101516006909101805462010000600160b01b031916620100006001600160a01b0393841602179055600354602086015160405163133165fb60e31b8152908316600482015291169063998b2fd890602401600060405180830381600087803b1580156110d757600080fd5b505af11580156110eb573d6000803e3d6000fd5b5050604051600281523392508d91506000805160206133048339815191529060200160405180910390a3505050505050505050509392505050565b6000818152600460205260409020600681015460ff161561118557604080518082018252601681527521b7b6b832b739b0ba34b7b7103bb4ba34323930bbb760511b6020820152905162461bcd60e51b81526104789190600401612e48565b600281015415801561119957506004810154155b156111e55760408051808201825260198152784e6f20636f6d70656e736174696f6e20617661696c61626c6560381b6020820152905162461bcd60e51b81526104789190600401612e48565b60025460408051631e4432d760e11b815290516000926001600160a01b031691633c8865ae9160048083019260209291908290030181865afa15801561122f573d6000803e3d6000fd5b505050506040513d601f19601f820116820180604052508101906112539190612e7b565b9050600061271082846005015461126a919061322c565b6112749190613243565b9050803410156112c957604080518082018252601781527f496e73756666696369656e742073797374656d206665650000000000000000006020820152905162461bcd60e51b81526104789190600401612e48565b60068301546201000090046001600160a01b03166113285760408051808201825260198152784e6f20636f6d70656e736174696f6e20617661696c61626c6560381b6020820152905162461bcd60e51b81526104789190600401612e48565b600283015460068401805460ff19166001179055801580159061135d575060068401546201000090046001600160a01b031615155b1561140c576000600285018190556006850154604051620100009091046001600160a01b031690839060006040518083038185875af1925050503d80600081146113c3576040519150601f19603f3d011682016040523d82523d6000602084013e6113c8565b606091505b505090508061140a5760405162461bcd60e51b815260206004820152600e60248201526d151c985b9cd9995c91985a5b195960921b6044820152606401610478565b505b60068401546201000090046001600160a01b0316156114fb5760005b60048501548110156114f957600385015460068601546004870180546001600160a01b03938416936323b872dd93309362010000909104909116918690811061147357611473613265565b6000918252602090912001546040516001600160e01b031960e086901b1681526001600160a01b0393841660048201529290911660248301526044820152606401600060405180830381600087803b1580156114ce57600080fd5b505af11580156114e2573d6000803e3d6000fd5b5050505080806114f19061327b565b915050611428565b505b6002546040805163045b2b8560e51b815290516000926001600160a01b031691638b6570a09160048083019260209291908290030181865afa158015611545573d6000803e3d6000fd5b505050506040513d601f19601f820116820180604052508101906115699190613294565b6040519091506001600160a01b0382169084156108fc029085906000818181858888f193505050501580156115a2573d6000803e3d6000fd5b508234111561163d576000336115b885346132b1565b604051600081818185875af1925050503d80600081146115f4576040519150601f19603f3d011682016040523d82523d6000602084013e6115f9565b606091505b505090508061163b5760405162461bcd60e51b815260206004820152600e60248201526d151c985b9cd9995c91985a5b195960921b6044820152606401610478565b505b60405186907f7c719d0bd68ca0ef65ed3c059467ed6600adb256a026587f6eb3a06c50f6f4aa90600090a2505050505050565b600154604051632a242ded60e21b81526004810183905260009182916001600160a01b039091169063a890b7b490602401600060405180830381865afa1580156116be573d6000803e3d6000fd5b505050506040513d6000823e601f3d908101601f191682016040526116e691908101906130dc565b80519091506001600160a01b0316331461173d5760408051808201825260158152742737ba103a3930b739b0b1ba34b7b71037bbb732b960591b6020820152905162461bcd60e51b81526104789190600401612e48565b60018160c00151600581111561175557611755612a02565b0361179d576040805180820182526015815274151c985b9cd858dd1a5bdb8818dbdb5c1b195d1959605a1b6020820152905162461bcd60e51b81526104789190600401612e48565b806060015142116117ea576040805180820182526014815273111958591b1a5b99481b9bdd081c995858da195960621b6020820152905162461bcd60e51b81526104789190600401612e48565b610100810151511561184157604080518082018252601b81527f5369676e617475726520616c7265616479207375626d697474656400000000006020820152905162461bcd60e51b81526104789190600401612e48565b60035460208201516040516326415b0f60e21b81526001600160a01b03918216600482015260009291909116906399056c3c90602401600060405180830381865afa158015611894573d6000803e3d6000fd5b505050506040513d6000823e601f3d908101601f191682016040526118bc9190810190612f09565b60a0810151909150600081900361190d5760408051808201825260128152714e6f207374616b6520617661696c61626c6560701b6020820152905162461bcd60e51b81526104789190600401612e48565b600354602084015160405163014f6b1960e41b81526001600160a01b03918216600482015260009291909116906314f6b19090602401602060405180830381865afa158015611960573d6000803e3d6000fd5b505050506040513d601f19601f820116820180604052508101906119849190612e7b565b905042846020015133886040516020016119da9493929190938452606092831b6001600160601b031990811660208601529190921b16603483015266151a5b595bdd5d60ca1b6048830152604f820152606f0190565b604051602081830303815290604052805190602001209450604051806101200160405280336001600160a01b0316815260200185602001516001600160a01b031681526020018381526020018460e001516001600160a01b03168152602001846101000151815260200182815260200160001515815260200160016003811115611a6657611a66612a02565b81526101408601516001600160a01b0390811660209283015260008881526004808452604091829020855181549085166001600160a01b031991821617825586860151600183018054918716918316919091179055928601516002820155606086015160038201805491909516931692909217909255608084015180519193611af493850192910190612886565b5060a0820151600582015560c082015160068201805491151560ff1983168117825560e08501519261ff001990911661ffff1990911617610100836003811115611b4057611b40612a02565b021790555061010091909101516006909101805462010000600160b01b031916620100006001600160a01b0393841602179055600354602086015160405163133165fb60e31b8152908316600482015291169063998b2fd890602401600060405180830381600087803b158015611bb657600080fd5b505af1158015611bca573d6000803e3d6000fd5b5050604051600181523392508791506000805160206133048339815191529060200160405180910390a350505050919050565b600154604051632a242ded60e21b81526004810183905260009182916001600160a01b039091169063a890b7b490602401600060405180830381865afa158015611c4b573d6000803e3d6000fd5b505050506040513d6000823e601f3d908101601f19168201604052611c7391908101906130dc565b60208101519091506001600160a01b03163314611cd557604080518082018252601a81527f4e6f74207472616e73616374696f6e2061726269747261746f720000000000006020820152905162461bcd60e51b81526104789190600401612e48565b60015460405163520936b560e01b8152600481018590526001600160a01b039091169063520936b590602401602060405180830381865afa158015611d1e573d6000803e3d6000fd5b505050506040513d601f19601f82011682018060405250810190611d4291906132c4565b611d9157604080518082018252601b81527f63616e6e6f7420636c61696d2061726269747261746f722066656500000000006020820152905162461bcd60e51b81526104789190600401612e48565b600154604051637577b6df60e01b8152600481018590526000916001600160a01b031690637577b6df9060240160408051808303816000875af1158015611ddc573d6000803e3d6000fd5b505050506040513d601f19601f82011682018060405250810190611e0091906132df565b509050600042836020015133604051602001611e5693929190928352606091821b6001600160601b03199081166020850152911b1660348201526c41726269747261746f7246656560981b604882015260550190565b60408051808303601f19018152908290528051602091820120600354918601516326415b0f60e21b84526001600160a01b0390811660048501529093506000929116906399056c3c90602401600060405180830381865afa158015611ebf573d6000803e3d6000fd5b505050506040513d6000823e601f3d908101601f19168201604052611ee79190810190612f09565b905060405180610120016040528085600001516001600160a01b0316815260200185602001516001600160a01b0316815260200184815260200160006001600160a01b0316815260200160006001600160401b03811115611f4a57611f4a612b0b565b604051908082528060200260200182016040528015611f73578160200160208202803683370190505b5081526020810185905260016040820152606001600381526101e08301516001600160a01b0390811660209283015260008581526004808452604091829020855181549085166001600160a01b03199182161782558686015160018301805491871691831691909117905592860151600282015560608601516003820180549190951693169290921790925560808401518051919361201793850192910190612886565b5060a0820151600582015560c082015160068201805491151560ff1983168117825560e08501519261ff001990911661ffff199091161761010083600381111561206357612063612a02565b02179055506101009190910151600690910180546001600160a01b03909216620100000262010000600160b01b03199092169190911790553382600080516020613304833981519152600360405160ff909116815260200160405180910390a350949350505050565b6000818152600460205260408120600681015460ff16156120f05750600092915050565b6005015492915050565b6121026123b3565b6001600160a01b03811661212c57604051631e4fbdf760e01b815260006004820152602401610478565b6121358161240e565b50565b7ff0c57e16840df040f15088dc2f81fe391c3923bec73e23a9662efc9c229c6a008054600160401b810460ff1615906001600160401b031660008115801561217d5750825b90506000826001600160401b031660011480156121995750303b155b9050811580156121a7575080155b156121c55760405163f92ee8a960e01b815260040160405180910390fd5b845467ffffffffffffffff1916600117855583156121ef57845460ff60401b1916600160401b1785555b6121f833612824565b6001600160a01b03891661224057604080518082018252600c81526b5a65726f206164647265737360a01b6020820152905162461bcd60e51b81526104789190600401612e48565b6001600160a01b03881661228857604080518082018252600c81526b5a65726f206164647265737360a01b6020820152905162461bcd60e51b81526104789190600401612e48565b6001600160a01b0387166122d057604080518082018252600c81526b5a65726f206164647265737360a01b6020820152905162461bcd60e51b81526104789190600401612e48565b6001600160a01b03861661231857604080518082018252600c81526b5a65726f206164647265737360a01b6020820152905162461bcd60e51b81526104789190600401612e48565b600080546001600160a01b03808c166001600160a01b031992831617909255600180548b8416908316179055600280548a8416908316179055600380549289169290911691909117905583156123a857845460ff60401b19168555604051600181527fc7f505b2f371ae2175ee4913f4499e1f2633a7b5936321eed1cdaeb6115181d29060200160405180910390a15b505050505050505050565b336123e57f9016d09d72d40fdae2fd8ceac6b6234c7706214fd39c1cd1e609a0528c199300546001600160a01b031690565b6001600160a01b0316146103855760405163118cdaa760e01b8152336004820152602401610478565b7f9016d09d72d40fdae2fd8ceac6b6234c7706214fd39c1cd1e609a0528c19930080546001600160a01b031981166001600160a01b03848116918217845560405192169182907f8be0079c531659141344cd1fd0a4f28419497f9722a3daafe3b4186f6b6457e090600090a3505050565b608082015160009081036124d057604080518082018252601581527427379030b1ba34bb32903a3930b739b0b1ba34b7b760591b6020820152905162461bcd60e51b81526104789190600401612e48565b6001546080840151604051632a242ded60e21b815260048101919091526000916001600160a01b03169063a890b7b490602401600060405180830381865afa158015612520573d6000803e3d6000fd5b505050506040513d6000823e601f3d908101601f1916820160405261254891908101906130dc565b9050826001600160a01b031681600001516001600160a01b0316146125aa5760408051808201825260158152742737ba103a3930b739b0b1ba34b7b71037bbb732b960591b6020820152905162461bcd60e51b81526104789190600401612e48565b610120015190505b92915050565b80518251146125fb57604080518082018252600c81526b496e76616c6964205554584f60a01b6020820152905162461bcd60e51b81526104789190600401612e48565b60005b825181101561281f5781818151811061261957612619613265565b60200260200101516000015183828151811061263757612637613265565b6020026020010151600001511461268257604080518082018252600c81526b496e76616c6964205554584f60a01b6020820152905162461bcd60e51b81526104789190600401612e48565b81818151811061269457612694613265565b60200260200101516020015163ffffffff168382815181106126b8576126b8613265565b60200260200101516020015163ffffffff161461270957604080518082018252600c81526b496e76616c6964205554584f60a01b6020820152905162461bcd60e51b81526104789190600401612e48565b81818151811061271b5761271b613265565b6020026020010151604001518051906020012083828151811061274057612740613265565b602002602001015160400151805190602001201461279257604080518082018252600c81526b496e76616c6964205554584f60a01b6020820152905162461bcd60e51b81526104789190600401612e48565b8181815181106127a4576127a4613265565b6020026020010151606001518382815181106127c2576127c2613265565b6020026020010151606001511461280d57604080518082018252600c81526b496e76616c6964205554584f60a01b6020820152905162461bcd60e51b81526104789190600401612e48565b806128178161327b565b9150506125fe565b505050565b61282c612835565b6121358161287e565b7ff0c57e16840df040f15088dc2f81fe391c3923bec73e23a9662efc9c229c6a0054600160401b900460ff1661038557604051631afcd79f60e31b815260040160405180910390fd5b612102612835565b8280548282559060005260206000209081019282156128c1579160200282015b828111156128c15782518255916020019190600101906128a6565b506128cd9291506128d1565b5090565b5b808211156128cd57600081556001016128d2565b6001600160a01b038116811461213557600080fd5b60008083601f84011261290d57600080fd5b5081356001600160401b0381111561292457600080fd5b60208301915083602082850101111561293c57600080fd5b9250929050565b6000806000806060858703121561295957600080fd5b8435612964816128e6565b935060208501356001600160401b0381111561297f57600080fd5b61298b878288016128fb565b9598909750949560400135949350505050565b6000806000604084860312156129b357600080fd5b83356001600160401b038111156129c957600080fd5b6129d5868287016128fb565b909790965060209590950135949350505050565b6000602082840312156129fb57600080fd5b5035919050565b634e487b7160e01b600052602160045260246000fd5b6001600160a01b03898116825288811660208301526040820188905286811660608301526080820186905284151560a083015261010082019060048510612a6f57634e487b7160e01b600052602160045260246000fd5b8460c084015280841660e0840152509998505050505050505050565b600060208284031215612a9d57600080fd5b8135612aa8816128e6565b9392505050565b60008060008060808587031215612ac557600080fd5b8435612ad0816128e6565b93506020850135612ae0816128e6565b92506040850135612af0816128e6565b91506060850135612b00816128e6565b939692955090935050565b634e487b7160e01b600052604160045260246000fd5b604051608081016001600160401b0381118282101715612b4357612b43612b0b565b60405290565b60405161022081016001600160401b0381118282101715612b4357612b43612b0b565b60405161018081016001600160401b0381118282101715612b4357612b43612b0b565b604051601f8201601f191681016001600160401b0381118282101715612bb757612bb7612b0b565b604052919050565b60005b83811015612bda578181015183820152602001612bc2565b50506000910152565b600082601f830112612bf457600080fd5b81516001600160401b03811115612c0d57612c0d612b0b565b612c20601f8201601f1916602001612b8f565b818152846020838601011115612c3557600080fd5b612c46826020830160208701612bbf565b949350505050565b60006001600160401b03821115612c6757612c67612b0b565b5060051b60200190565b600082601f830112612c8257600080fd5b81516020612c97612c9283612c4e565b612b8f565b82815260059290921b84018101918181019086841115612cb657600080fd5b8286015b84811015612d635780516001600160401b0380821115612cda5760008081fd5b908801906080828b03601f1901811315612cf45760008081fd5b612cfc612b21565b87840151815260408085015163ffffffff81168114612d1b5760008081fd5b828a015260608581015185811115612d335760008081fd5b612d418f8c838a0101612be3565b9284019290925294909201519381019390935250508352918301918301612cba565b509695505050505050565b80518015158114612d7e57600080fd5b919050565b60008060008060008060c08789031215612d9c57600080fd5b86516001600160401b0380821115612db357600080fd5b612dbf8a838b01612be3565b97506020890151915080821115612dd557600080fd5b612de18a838b01612c71565b96506040890151915080821115612df757600080fd5b612e038a838b01612be3565b9550606089015194506080890151915080821115612e2057600080fd5b50612e2d89828a01612be3565b925050612e3c60a08801612d6e565b90509295509295509295565b6020815260008251806020840152612e67816040850160208701612bbf565b601f01601f19169190910160400192915050565b600060208284031215612e8d57600080fd5b5051919050565b8051612d7e816128e6565b805160048110612d7e57600080fd5b600082601f830112612ebf57600080fd5b81516020612ecf612c9283612c4e565b82815260059290921b84018101918181019086841115612eee57600080fd5b8286015b84811015612d635780518352918301918301612ef2565b600060208284031215612f1b57600080fd5b81516001600160401b0380821115612f3257600080fd5b908301906102208286031215612f4757600080fd5b612f4f612b49565b612f5883612e94565b81526020830151602082015260408301516040820152612f7a60608401612e9f565b60608201526080830151608082015260a083015160a0820152612f9f60c08401612e94565b60c0820152612fb060e08401612e94565b60e08201526101008084015183811115612fc957600080fd5b612fd588828701612eae565b828401525050610120612fe9818501612e94565b90820152610140838101518381111561300157600080fd5b61300d88828701612be3565b828401525050610160808401518381111561302757600080fd5b61303388828701612be3565b8284015250506101808084015181830152506101a0808401518381111561305957600080fd5b61306588828701612be3565b8284015250506101c0808401518381111561307f57600080fd5b61308b88828701612be3565b8284015250506101e091506130a1828401612e94565b9181019190915261020091820151918101919091529392505050565b8183823760009101908152919050565b805160068110612d7e57600080fd5b6000602082840312156130ee57600080fd5b81516001600160401b038082111561310557600080fd5b90830190610180828603121561311a57600080fd5b613122612b6c565b61312b83612e94565b815261313960208401612e94565b6020820152604083015160408201526060830151606082015260808301518281111561316457600080fd5b61317087828601612be3565b60808301525060a083015160a082015261318c60c084016130cd565b60c082015260e083015160e082015261010080840151838111156131af57600080fd5b6131bb88828701612be3565b8284015250506101206131cf818501612e94565b908201526101406131e1848201612e94565b9082015261016083810151838111156131f957600080fd5b61320588828701612c71565b918301919091525095945050505050565b634e487b7160e01b600052601160045260246000fd5b80820281158282048414176125b2576125b2613216565b60008261326057634e487b7160e01b600052601260045260246000fd5b500490565b634e487b7160e01b600052603260045260246000fd5b60006001820161328d5761328d613216565b5060010190565b6000602082840312156132a657600080fd5b8151612aa8816128e6565b818103818111156125b2576125b2613216565b6000602082840312156132d657600080fd5b612aa882612d6e565b600080604083850312156132f257600080fd5b50508051602090910151909290915056fe35b845de5e0534eed951fd57a2e3050c150cedde6cf5b0facfc7924b107d467aa26469706673582212200c703c5e53ec840028956ca1a1a07a10583ddc6e806c43739fe04723fb7521f764736f6c63430008140033",
  "linkReferences": {},
  "deployedLinkReferences": {}
}