{
  "_format": "hh-sol-artifact-1",
  "contractName": "CompensationManager",
  "sourceName": "contracts/core/CompensationManager.sol",
  "abi": [
    {
      "inputs": [],
      "stateMutability": "nonpayable",
      "type": "constructor"
    },
    {
      "inputs": [],
      "name": "InvalidInitialization",
      "type": "error"
    },
    {
      "inputs": [],
      "name": "NotInitializing",
      "type": "error"
    },
    {
      "inputs": [
        {
          "internalType": "address",
          "name": "owner",
          "type": "address"
        }
      ],
      "name": "OwnableInvalidOwner",
      "type": "error"
    },
    {
      "inputs": [
        {
          "internalType": "address",
          "name": "account",
          "type": "address"
        }
      ],
      "name": "OwnableUnauthorizedAccount",
      "type": "error"
    },
    {
      "anonymous": false,
      "inputs": [
        {
          "indexed": true,
          "internalType": "address",
          "name": "newArbitratorManager",
          "type": "address"
        }
      ],
      "name": "ArbitratorManagerUpdated",
      "type": "event"
    },
    {
      "anonymous": false,
      "inputs": [
        {
          "indexed": true,
          "internalType": "bytes32",
          "name": "claimId",
          "type": "bytes32"
        },
        {
          "indexed": true,
          "internalType": "address",
          "name": "claimer",
          "type": "address"
        },
        {
          "indexed": false,
          "internalType": "uint8",
          "name": "claimType",
          "type": "uint8"
        }
      ],
      "name": "CompensationClaimed",
      "type": "event"
    },
    {
      "anonymous": false,
      "inputs": [
        {
          "indexed": true,
          "internalType": "bytes32",
          "name": "claimId",
          "type": "bytes32"
        }
      ],
      "name": "CompensationWithdrawn",
      "type": "event"
    },
    {
      "anonymous": false,
      "inputs": [
        {
          "indexed": true,
          "internalType": "address",
          "name": "newConfigManager",
          "type": "address"
        }
      ],
      "name": "ConfigManagerUpdated",
      "type": "event"
    },
    {
      "anonymous": false,
      "inputs": [
        {
          "indexed": false,
          "internalType": "uint64",
          "name": "version",
          "type": "uint64"
        }
      ],
      "name": "Initialized",
      "type": "event"
    },
    {
      "anonymous": false,
      "inputs": [
        {
          "indexed": true,
          "internalType": "address",
          "name": "previousOwner",
          "type": "address"
        },
        {
          "indexed": true,
          "internalType": "address",
          "name": "newOwner",
          "type": "address"
        }
      ],
      "name": "OwnershipTransferred",
      "type": "event"
    },
    {
      "anonymous": false,
      "inputs": [
        {
          "indexed": true,
          "internalType": "address",
          "name": "newTransactionManager",
          "type": "address"
        }
      ],
      "name": "TransactionManagerUpdated",
      "type": "event"
    },
    {
      "anonymous": false,
      "inputs": [
        {
          "indexed": true,
          "internalType": "address",
          "name": "newZkService",
          "type": "address"
        }
      ],
      "name": "ZkServiceUpdated",
      "type": "event"
    },
    {
      "inputs": [],
      "name": "arbitratorManager",
      "outputs": [
        {
          "internalType": "contract IArbitratorManager",
          "name": "",
          "type": "address"
        }
      ],
      "stateMutability": "view",
      "type": "function"
    },
    {
      "inputs": [
        {
          "internalType": "bytes32",
          "name": "txId",
          "type": "bytes32"
        }
      ],
      "name": "claimArbitratorFee",
      "outputs": [
        {
          "internalType": "bytes32",
          "name": "",
          "type": "bytes32"
        }
      ],
      "stateMutability": "nonpayable",
      "type": "function"
    },
    {
      "inputs": [
        {
          "internalType": "bytes",
          "name": "btcTx",
          "type": "bytes"
        },
        {
          "internalType": "bytes32",
          "name": "evidence",
          "type": "bytes32"
        }
      ],
      "name": "claimFailedArbitrationCompensation",
      "outputs": [
        {
          "internalType": "bytes32",
          "name": "claimId",
          "type": "bytes32"
        }
      ],
      "stateMutability": "nonpayable",
      "type": "function"
    },
    {
      "inputs": [
        {
          "internalType": "address",
          "name": "arbitrator",
          "type": "address"
        },
        {
          "internalType": "bytes",
          "name": "btcTx",
          "type": "bytes"
        },
        {
          "internalType": "bytes32",
          "name": "evidence",
          "type": "bytes32"
        }
      ],
      "name": "claimIllegalSignatureCompensation",
      "outputs": [
        {
          "internalType": "bytes32",
          "name": "claimId",
          "type": "bytes32"
        }
      ],
      "stateMutability": "nonpayable",
      "type": "function"
    },
    {
      "inputs": [
        {
          "internalType": "bytes32",
          "name": "id",
          "type": "bytes32"
        }
      ],
      "name": "claimTimeoutCompensation",
      "outputs": [
        {
          "internalType": "bytes32",
          "name": "claimId",
          "type": "bytes32"
        }
      ],
      "stateMutability": "nonpayable",
      "type": "function"
    },
    {
      "inputs": [
        {
          "internalType": "bytes32",
          "name": "",
          "type": "bytes32"
        }
      ],
      "name": "claims",
      "outputs": [
        {
          "internalType": "address",
          "name": "dapp",
          "type": "address"
        },
        {
          "internalType": "address",
          "name": "arbitrator",
          "type": "address"
        },
        {
          "internalType": "uint256",
          "name": "ethAmount",
          "type": "uint256"
        },
        {
          "internalType": "address",
          "name": "nftContract",
          "type": "address"
        },
        {
          "internalType": "uint256",
          "name": "totalAmount",
          "type": "uint256"
        },
        {
          "internalType": "bool",
          "name": "withdrawn",
          "type": "bool"
        },
        {
          "internalType": "enum CompensationManager.CompensationType",
          "name": "claimType",
          "type": "uint8"
        },
        {
          "internalType": "address",
          "name": "receivedCompensationAddress",
          "type": "address"
        }
      ],
      "stateMutability": "view",
      "type": "function"
    },
    {
      "inputs": [],
      "name": "configManager",
      "outputs": [
        {
          "internalType": "contract IConfigManager",
          "name": "",
          "type": "address"
        }
      ],
      "stateMutability": "view",
      "type": "function"
    },
    {
      "inputs": [
        {
          "internalType": "bytes32",
          "name": "claimId",
          "type": "bytes32"
        }
      ],
      "name": "getClaimableAmount",
      "outputs": [
        {
          "internalType": "uint256",
          "name": "",
          "type": "uint256"
        }
      ],
      "stateMutability": "view",
      "type": "function"
    },
    {
      "inputs": [
        {
          "internalType": "address",
          "name": "_zkService",
          "type": "address"
        },
        {
          "internalType": "address",
          "name": "_transactionManager",
          "type": "address"
        },
        {
          "internalType": "address",
          "name": "_configManager",
          "type": "address"
        },
        {
          "internalType": "address",
          "name": "_arbitratorManager",
          "type": "address"
        }
      ],
      "name": "initialize",
      "outputs": [],
      "stateMutability": "nonpayable",
      "type": "function"
    },
    {
      "inputs": [],
      "name": "owner",
      "outputs": [
        {
          "internalType": "address",
          "name": "",
          "type": "address"
        }
      ],
      "stateMutability": "view",
      "type": "function"
    },
    {
      "inputs": [],
      "name": "renounceOwnership",
      "outputs": [],
      "stateMutability": "nonpayable",
      "type": "function"
    },
    {
      "inputs": [
        {
          "internalType": "address",
          "name": "_arbitratorManager",
          "type": "address"
        }
      ],
      "name": "setArbitratorManager",
      "outputs": [],
      "stateMutability": "nonpayable",
      "type": "function"
    },
    {
      "inputs": [
        {
          "internalType": "address",
          "name": "_configManager",
          "type": "address"
        }
      ],
      "name": "setConfigManager",
      "outputs": [],
      "stateMutability": "nonpayable",
      "type": "function"
    },
    {
      "inputs": [
        {
          "internalType": "address",
          "name": "_transactionManager",
          "type": "address"
        }
      ],
      "name": "setTransactionManager",
      "outputs": [],
      "stateMutability": "nonpayable",
      "type": "function"
    },
    {
      "inputs": [
        {
          "internalType": "address",
          "name": "_zkService",
          "type": "address"
        }
      ],
      "name": "setZkService",
      "outputs": [],
      "stateMutability": "nonpayable",
      "type": "function"
    },
    {
      "inputs": [],
      "name": "transactionManager",
      "outputs": [
        {
          "internalType": "contract ITransactionManager",
          "name": "",
          "type": "address"
        }
      ],
      "stateMutability": "view",
      "type": "function"
    },
    {
      "inputs": [
        {
          "internalType": "address",
          "name": "newOwner",
          "type": "address"
        }
      ],
      "name": "transferOwnership",
      "outputs": [],
      "stateMutability": "nonpayable",
      "type": "function"
    },
    {
      "inputs": [
        {
          "internalType": "bytes32",
          "name": "claimId",
          "type": "bytes32"
        }
      ],
      "name": "withdrawCompensation",
      "outputs": [],
      "stateMutability": "payable",
      "type": "function"
    },
    {
      "inputs": [],
      "name": "zkService",
      "outputs": [
        {
          "internalType": "contract IZkService",
          "name": "",
          "type": "address"
        }
      ],
      "stateMutability": "view",
      "type": "function"
    },
    {
      "stateMutability": "payable",
      "type": "receive"
    }
  ],
  "bytecode": "0x60806040523480156200001157600080fd5b506200001c62000022565b620000d6565b7ff0c57e16840df040f15088dc2f81fe391c3923bec73e23a9662efc9c229c6a00805468010000000000000000900460ff1615620000735760405163f92ee8a960e01b815260040160405180910390fd5b80546001600160401b0390811614620000d35780546001600160401b0319166001600160401b0390811782556040519081527fc7f505b2f371ae2175ee4913f4499e1f2633a7b5936321eed1cdaeb6115181d29060200160405180910390a15b50565b61378c80620000e66000396000f3fe6080604052600436106101185760003560e01c80638cc5d008116100a0578063bb64fd4411610064578063bb64fd4414610316578063ca0ab07514610336578063eff0f59214610356578063f2fde38b146103df578063f8c8765e146103ff57600080fd5b80638cc5d008146102665780638da5cb5b1461027957806399b29871146102b65780639a46c8cf146102d6578063b4e25e80146102f657600080fd5b80635cd5f637116100e75780635cd5f637146101c3578063715018a6146101e3578063759787c4146101f857806386312159146102185780638c4e46e91461024657600080fd5b80630b1fa61c146101245780632c7e8ca3146101465780633b716452146101665780633e5d7588146101a357600080fd5b3661011f57005b600080fd5b34801561013057600080fd5b5061014461013f366004612cde565b61041f565b005b34801561015257600080fd5b50610144610161366004612cde565b6104d7565b34801561017257600080fd5b50600154610186906001600160a01b031681565b6040516001600160a01b0390911681526020015b60405180910390f35b3480156101af57600080fd5b506101446101be366004612cde565b610589565b3480156101cf57600080fd5b50600054610186906001600160a01b031681565b3480156101ef57600080fd5b5061014461062f565b34801561020457600080fd5b50600354610186906001600160a01b031681565b34801561022457600080fd5b50610238610233366004612d4a565b610643565b60405190815260200161019a565b34801561025257600080fd5b50610238610261366004612da5565b610cbc565b610144610274366004612df0565b611460565b34801561028557600080fd5b507f9016d09d72d40fdae2fd8ceac6b6234c7706214fd39c1cd1e609a0528c199300546001600160a01b0316610186565b3480156102c257600080fd5b506102386102d1366004612df0565b6119aa565b3480156102e257600080fd5b506102386102f1366004612df0565b611f38565b34801561030257600080fd5b50610144610311366004612cde565b612407565b34801561032257600080fd5b50610238610331366004612df0565b6124af565b34801561034257600080fd5b50600254610186906001600160a01b031681565b34801561036257600080fd5b506103cb610371366004612df0565b6004602052600090815260409020805460018201546002830154600384015460058501546006909501546001600160a01b03948516959385169492939183169260ff80831692610100810490911691620100009091041688565b60405161019a989796959493929190612e1f565b3480156103eb57600080fd5b506101446103fa366004612cde565b6124dd565b34801561040b57600080fd5b5061014461041a366004612e92565b61251b565b610427612796565b6001600160a01b03811661048d5760405162461bcd60e51b815260206004820152602260248201527f496e76616c6964205472616e73616374696f6e4d616e61676572206164647265604482015261737360f01b60648201526084015b60405180910390fd5b600180546001600160a01b0319166001600160a01b0383169081179091556040517f3bc3af46ee56a7b5246248b8e24bb285f23d745c278db873d49f66c027a19f2b90600090a250565b6104df612796565b6001600160a01b03811661053f5760405162461bcd60e51b815260206004820152602160248201527f496e76616c69642041726269747261746f724d616e61676572206164647265736044820152607360f81b6064820152608401610484565b600380546001600160a01b0319166001600160a01b0383169081179091556040517f5501b7dfdd6860a14bdbc85c3ca16cf46242ad8c30ffecaaf2dbc192ef761bfc90600090a250565b610591612796565b6001600160a01b0381166105e75760405162461bcd60e51b815260206004820152601960248201527f496e76616c6964205a6b536572766963652061646472657373000000000000006044820152606401610484565b600080546001600160a01b0319166001600160a01b038316908117825560405190917f89f8f878479acf261604346b8864312704f9de61c236e83a48afc4d87d93b19a91a250565b610637612796565b61064160006127f1565b565b6000805460405163ddb8ec8b60e01b81526004810184905282916001600160a01b03169063ddb8ec8b90602401600060405180830381865afa15801561068d573d6000803e3d6000fd5b505050506040513d6000823e601f3d908101601f191682016040526106b59190810190613188565b80515190915015806106ca5750602081015151155b806106d757506040810151155b15610723576040805180820182526019815278496e76616c696420766572696669636174696f6e206461746160381b6020820152905162461bcd60e51b8152610484919060040161327b565b806080015161076c5760408051808201825260128152710a6d2cedcc2e8eae4ca40dad2e6dac2e8c6d60731b6020820152905162461bcd60e51b8152610484919060040161327b565b60015460408281015190516360e723e960e11b815260048101919091526000916001600160a01b03169063c1ce47d290602401602060405180830381865afa1580156107bc573d6000803e3d6000fd5b505050506040513d601f19601f820116820180604052508101906107e091906132ae565b146108255760408051808201825260128152715472616e73616374696f6e2065786973747360701b6020820152905162461bcd60e51b8152610484919060040161327b565b6003546040516326415b0f60e21b81526001600160a01b03888116600483015260009216906399056c3c90602401600060405180830381865afa158015610870573d6000803e3d6000fd5b505050506040513d6000823e601f3d908101601f19168201604052610898919081019061333c565b9050806101400151516000036108ef576040805180820182526019815278496e76616c696420766572696669636174696f6e206461746160381b6020820152905162461bcd60e51b8152610484919060040161327b565b8061014001518051906020012082602001518051906020012014610954576040805180820182526019815278496e76616c696420766572696669636174696f6e206461746160381b6020820152905162461bcd60e51b8152610484919060040161327b565b8151805160209091012060405161096e90889088906134f0565b6040518091039020146109c2576040805180820182526019815278496e76616c696420766572696669636174696f6e206461746160381b6020820152905162461bcd60e51b8152610484919060040161327b565b60006109ce8233612862565b60a08301519091506000819003610a1f5760408051808201825260128152714e6f207374616b6520617661696c61626c6560701b6020820152905162461bcd60e51b8152610484919060040161327b565b604080514260208201526001600160601b031960608c811b8216938301939093523390921b90911660548201526f496c6c6567616c5369676e617475726560801b606882015260780160408051808303601f190181528282528051602091820120610120840183523384526001600160a01b038d811692850183905284840186905260e0880151811660608601526101008801516080860152600354935163014f6b1960e41b8152600481019390935290985060a084019216906314f6b19090602401602060405180830381865afa158015610aff573d6000803e3d6000fd5b505050506040513d601f19601f82011682018060405250810190610b2391906132ae565b81526000602080830182905260408084018390526001600160a01b038781166060958601528a8452600480845293829020865181546001600160a01b031990811691841691909117825587850151600183018054831691851691909117905592870151600282015594860151600386018054909316911617905560808401518051610bb5938501929190910190612c69565b5060a0820151600582015560c082015160068201805491151560ff1983168117825560e08501519261ff001990911661ffff1990911617610100836003811115610c0157610c01612e09565b021790555061010091909101516006909101805462010000600160b01b031916620100006001600160a01b039384160217905560035460405163133165fb60e31b81528b8316600482015291169063998b2fd890602401600060405180830381600087803b158015610c7257600080fd5b505af1158015610c86573d6000803e3d6000fd5b5050604051600081523392508791506000805160206137378339815191529060200160405180910390a350505050949350505050565b6000805460405163ddb8ec8b60e01b81526004810184905282916001600160a01b03169063ddb8ec8b90602401600060405180830381865afa158015610d06573d6000803e3d6000fd5b505050506040513d6000823e601f3d908101601f19168201604052610d2e9190810190613188565b805151909150600003610d7757604080518082018252600e81526d456d70747920726177206461746160901b6020820152905162461bcd60e51b8152610484919060040161327b565b806020015151600003610dc257604080518082018252601081526f456d707479207075626c6963206b657960801b6020820152905162461bcd60e51b8152610484919060040161327b565b6040810151610e0357604080518082018252600a81526908adae0e8f240d0c2e6d60b31b6020820152905162461bcd60e51b8152610484919060040161327b565b806060015151600003610e4d57604080518082018252600f81526e456d707479207369676e617475726560881b6020820152905162461bcd60e51b8152610484919060040161327b565b8060800151610e965760408051808201825260128152710a6d2cedcc2e8eae4ca40dad2e6dac2e8c6d60731b6020820152905162461bcd60e51b8152610484919060040161327b565b80518051602090910120604051610eb090879087906134f0565b604051809103902014610f0857604080518082018252601881527f425443207472616e73616374696f6e206d69736d6174636800000000000000006020820152905162461bcd60e51b8152610484919060040161327b565b600154604082810151905163255709e560e11b815260048101919091526000916001600160a01b031690634aae13ca90602401600060405180830381865afa158015610f58573d6000803e3d6000fd5b505050506040513d6000823e601f3d908101601f19168201604052610f80919081019061350f565b9050610f958260a0015182610160015161299b565b80516001600160a01b03163314610fe95760408051808201825260158152742737ba103a3930b739b0b1ba34b7b71037bbb732b960591b6020820152905162461bcd60e51b8152610484919060040161327b565b8061010001515160000361104257604080518082018252601781527f5369676e6174757265206e6f74207375626d69747465640000000000000000006020820152905162461bcd60e51b8152610484919060040161327b565b81606001518051906020012081610100015180519060200120146110a05760408051808201825260128152710a6d2cedcc2e8eae4ca40dad2e6dac2e8c6d60731b6020820152905162461bcd60e51b8152610484919060040161327b565b60035460208201516040516326415b0f60e21b81526001600160a01b03918216600482015260009291909116906399056c3c90602401600060405180830381865afa1580156110f3573d6000803e3d6000fd5b505050506040513d6000823e601f3d908101601f1916820160405261111b919081019061333c565b60a0810151909150600081900361116c5760408051808201825260128152714e6f207374616b6520617661696c61626c6560701b6020820152905162461bcd60e51b8152610484919060040161327b565b600354602084015160405163014f6b1960e41b81526001600160a01b03918216600482015260009291909116906314f6b19090602401602060405180830381865afa1580156111bf573d6000803e3d6000fd5b505050506040513d601f19601f820116820180604052508101906111e391906132ae565b90504284602001513360405160200161123a93929190928352606091821b6001600160601b03199081166020850152911b166034820152702330b4b632b220b93134ba3930ba34b7b760791b604882015260590190565b604051602081830303815290604052805190602001209550604051806101200160405280336001600160a01b0316815260200185602001516001600160a01b031681526020018381526020018460e001516001600160a01b031681526020018461010001518152602001828152602001600015158152602001600260038111156112c6576112c6612e09565b81526101208601516001600160a01b0390811660209283015260008981526004808452604091829020855181549085166001600160a01b03199182161782558686015160018301805491871691831691909117905592860151600282015560608601516003820180549190951693169290921790925560808401518051919361135493850192910190612c69565b5060a0820151600582015560c082015160068201805491151560ff1983168117825560e08501519261ff001990911661ffff19909116176101008360038111156113a0576113a0612e09565b021790555061010091909101516006909101805462010000600160b01b031916620100006001600160a01b0393841602179055600354602086015160405163133165fb60e31b8152908316600482015291169063998b2fd890602401600060405180830381600087803b15801561141657600080fd5b505af115801561142a573d6000803e3d6000fd5b5050604051600281523392508891506000805160206137378339815191529060200160405180910390a350505050509392505050565b6000818152600460205260409020600681015460ff16156114bf57604080518082018252601681527521b7b6b832b739b0ba34b7b7103bb4ba34323930bbb760511b6020820152905162461bcd60e51b8152610484919060040161327b565b60028101541580156114d357506004810154155b1561151f5760408051808201825260198152784e6f20636f6d70656e736174696f6e20617661696c61626c6560381b6020820152905162461bcd60e51b8152610484919060040161327b565b60025460408051631e4432d760e11b815290516000926001600160a01b031691633c8865ae9160048083019260209291908290030181865afa158015611569573d6000803e3d6000fd5b505050506040513d601f19601f8201168201806040525081019061158d91906132ae565b905060006127108284600501546115a4919061365f565b6115ae9190613676565b90508034101561160357604080518082018252601781527f496e73756666696369656e742073797374656d206665650000000000000000006020820152905162461bcd60e51b8152610484919060040161327b565b60068301546201000090046001600160a01b03166116625760408051808201825260198152784e6f20636f6d70656e736174696f6e20617661696c61626c6560381b6020820152905162461bcd60e51b8152610484919060040161327b565b600283015460068401805460ff191660011790558015801590611697575060068401546201000090046001600160a01b031615155b15611746576000600285018190556006850154604051620100009091046001600160a01b031690839060006040518083038185875af1925050503d80600081146116fd576040519150601f19603f3d011682016040523d82523d6000602084013e611702565b606091505b50509050806117445760405162461bcd60e51b815260206004820152600e60248201526d151c985b9cd9995c91985a5b195960921b6044820152606401610484565b505b60068401546201000090046001600160a01b0316156118355760005b600485015481101561183357600385015460068601546004870180546001600160a01b03938416936323b872dd9330936201000090910490911691869081106117ad576117ad613698565b6000918252602090912001546040516001600160e01b031960e086901b1681526001600160a01b0393841660048201529290911660248301526044820152606401600060405180830381600087803b15801561180857600080fd5b505af115801561181c573d6000803e3d6000fd5b50505050808061182b906136ae565b915050611762565b505b6002546040805163045b2b8560e51b815290516000926001600160a01b031691638b6570a09160048083019260209291908290030181865afa15801561187f573d6000803e3d6000fd5b505050506040513d601f19601f820116820180604052508101906118a391906136c7565b6040519091506001600160a01b0382169084156108fc029085906000818181858888f193505050501580156118dc573d6000803e3d6000fd5b5082341115611977576000336118f285346136e4565b604051600081818185875af1925050503d806000811461192e576040519150601f19603f3d011682016040523d82523d6000602084013e611933565b606091505b50509050806119755760405162461bcd60e51b815260206004820152600e60248201526d151c985b9cd9995c91985a5b195960921b6044820152606401610484565b505b60405186907f7c719d0bd68ca0ef65ed3c059467ed6600adb256a026587f6eb3a06c50f6f4aa90600090a2505050505050565b600154604051632a242ded60e21b81526004810183905260009182916001600160a01b039091169063a890b7b490602401600060405180830381865afa1580156119f8573d6000803e3d6000fd5b505050506040513d6000823e601f3d908101601f19168201604052611a20919081019061350f565b80519091506001600160a01b03163314611a775760408051808201825260158152742737ba103a3930b739b0b1ba34b7b71037bbb732b960591b6020820152905162461bcd60e51b8152610484919060040161327b565b60018160c001516005811115611a8f57611a8f612e09565b03611ad7576040805180820182526015815274151c985b9cd858dd1a5bdb8818dbdb5c1b195d1959605a1b6020820152905162461bcd60e51b8152610484919060040161327b565b8060600151421015611b25576040805180820182526014815273111958591b1a5b99481b9bdd081c995858da195960621b6020820152905162461bcd60e51b8152610484919060040161327b565b6101008101515115611b7c57604080518082018252601b81527f5369676e617475726520616c7265616479207375626d697474656400000000006020820152905162461bcd60e51b8152610484919060040161327b565b60035460208201516040516326415b0f60e21b81526001600160a01b03918216600482015260009291909116906399056c3c90602401600060405180830381865afa158015611bcf573d6000803e3d6000fd5b505050506040513d6000823e601f3d908101601f19168201604052611bf7919081019061333c565b60a08101519091506000819003611c485760408051808201825260128152714e6f207374616b6520617661696c61626c6560701b6020820152905162461bcd60e51b8152610484919060040161327b565b600354602084015160405163014f6b1960e41b81526001600160a01b03918216600482015260009291909116906314f6b19090602401602060405180830381865afa158015611c9b573d6000803e3d6000fd5b505050506040513d601f19601f82011682018060405250810190611cbf91906132ae565b90504284602001513388604051602001611d159493929190938452606092831b6001600160601b031990811660208601529190921b16603483015266151a5b595bdd5d60ca1b6048830152604f820152606f0190565b604051602081830303815290604052805190602001209450604051806101200160405280336001600160a01b0316815260200185602001516001600160a01b031681526020018381526020018460e001516001600160a01b03168152602001846101000151815260200182815260200160001515815260200160016003811115611da157611da1612e09565b81526101408601516001600160a01b0390811660209283015260008881526004808452604091829020855181549085166001600160a01b031991821617825586860151600183018054918716918316919091179055928601516002820155606086015160038201805491909516931692909217909255608084015180519193611e2f93850192910190612c69565b5060a0820151600582015560c082015160068201805491151560ff1983168117825560e08501519261ff001990911661ffff1990911617610100836003811115611e7b57611e7b612e09565b021790555061010091909101516006909101805462010000600160b01b031916620100006001600160a01b0393841602179055600354602086015160405163133165fb60e31b8152908316600482015291169063998b2fd890602401600060405180830381600087803b158015611ef157600080fd5b505af1158015611f05573d6000803e3d6000fd5b5050604051600181523392508791506000805160206137378339815191529060200160405180910390a350505050919050565b600154604051632a242ded60e21b81526004810183905260009182916001600160a01b039091169063a890b7b490602401600060405180830381865afa158015611f86573d6000803e3d6000fd5b505050506040513d6000823e601f3d908101601f19168201604052611fae919081019061350f565b60208101519091506001600160a01b0316331461201057604080518082018252601a81527f4e6f74207472616e73616374696f6e2061726269747261746f720000000000006020820152905162461bcd60e51b8152610484919060040161327b565b60015460405163520936b560e01b8152600481018590526001600160a01b039091169063520936b590602401602060405180830381865afa158015612059573d6000803e3d6000fd5b505050506040513d601f19601f8201168201806040525081019061207d91906136f7565b6120cc57604080518082018252601b81527f63616e6e6f7420636c61696d2061726269747261746f722066656500000000006020820152905162461bcd60e51b8152610484919060040161327b565b600154604051637577b6df60e01b8152600481018590526000916001600160a01b031690637577b6df9060240160408051808303816000875af1158015612117573d6000803e3d6000fd5b505050506040513d601f19601f8201168201806040525081019061213b9190613712565b50905060004283602001513360405160200161219193929190928352606091821b6001600160601b03199081166020850152911b1660348201526c41726269747261746f7246656560981b604882015260550190565b60408051808303601f19018152908290528051602091820120600354918601516326415b0f60e21b84526001600160a01b0390811660048501529093506000929116906399056c3c90602401600060405180830381865afa1580156121fa573d6000803e3d6000fd5b505050506040513d6000823e601f3d908101601f19168201604052612222919081019061333c565b905060405180610120016040528085600001516001600160a01b0316815260200185602001516001600160a01b0316815260200184815260200160006001600160a01b0316815260200160006001600160401b0381111561228557612285612eee565b6040519080825280602002602001820160405280156122ae578160200160208202803683370190505b5081526020810185905260016040820152606001600381526101e08301516001600160a01b0390811660209283015260008581526004808452604091829020855181549085166001600160a01b03199182161782558686015160018301805491871691831691909117905592860151600282015560608601516003820180549190951693169290921790925560808401518051919361235293850192910190612c69565b5060a0820151600582015560c082015160068201805491151560ff1983168117825560e08501519261ff001990911661ffff199091161761010083600381111561239e5761239e612e09565b02179055506101009190910151600690910180546001600160a01b03909216620100000262010000600160b01b03199092169190911790553382600080516020613737833981519152600360405160ff909116815260200160405180910390a350949350505050565b61240f612796565b6001600160a01b0381166124655760405162461bcd60e51b815260206004820152601d60248201527f496e76616c696420436f6e6669674d616e6167657220616464726573730000006044820152606401610484565b600280546001600160a01b0319166001600160a01b0383169081179091556040517f6a801685c5950e3d8ece256f75ca0ff31ed0ae02aeae73f8180ff32e978a2f6b90600090a250565b6000818152600460205260408120600681015460ff16156124d35750600092915050565b6005015492915050565b6124e5612796565b6001600160a01b03811661250f57604051631e4fbdf760e01b815260006004820152602401610484565b612518816127f1565b50565b7ff0c57e16840df040f15088dc2f81fe391c3923bec73e23a9662efc9c229c6a008054600160401b810460ff1615906001600160401b03166000811580156125605750825b90506000826001600160401b0316600114801561257c5750303b155b90508115801561258a575080155b156125a85760405163f92ee8a960e01b815260040160405180910390fd5b845467ffffffffffffffff1916600117855583156125d257845460ff60401b1916600160401b1785555b6125db33612c07565b6001600160a01b03891661262357604080518082018252600c81526b5a65726f206164647265737360a01b6020820152905162461bcd60e51b8152610484919060040161327b565b6001600160a01b03881661266b57604080518082018252600c81526b5a65726f206164647265737360a01b6020820152905162461bcd60e51b8152610484919060040161327b565b6001600160a01b0387166126b357604080518082018252600c81526b5a65726f206164647265737360a01b6020820152905162461bcd60e51b8152610484919060040161327b565b6001600160a01b0386166126fb57604080518082018252600c81526b5a65726f206164647265737360a01b6020820152905162461bcd60e51b8152610484919060040161327b565b600080546001600160a01b03808c166001600160a01b031992831617909255600180548b8416908316179055600280548a84169083161790556003805492891692909116919091179055831561278b57845460ff60401b19168555604051600181527fc7f505b2f371ae2175ee4913f4499e1f2633a7b5936321eed1cdaeb6115181d29060200160405180910390a15b505050505050505050565b336127c87f9016d09d72d40fdae2fd8ceac6b6234c7706214fd39c1cd1e609a0528c199300546001600160a01b031690565b6001600160a01b0316146106415760405163118cdaa760e01b8152336004820152602401610484565b7f9016d09d72d40fdae2fd8ceac6b6234c7706214fd39c1cd1e609a0528c19930080546001600160a01b031981166001600160a01b03848116918217845560405192169182907f8be0079c531659141344cd1fd0a4f28419497f9722a3daafe3b4186f6b6457e090600090a3505050565b608082015160009081036128b357604080518082018252601581527427379030b1ba34bb32903a3930b739b0b1ba34b7b760591b6020820152905162461bcd60e51b8152610484919060040161327b565b6001546080840151604051632a242ded60e21b815260048101919091526000916001600160a01b03169063a890b7b490602401600060405180830381865afa158015612903573d6000803e3d6000fd5b505050506040513d6000823e601f3d908101601f1916820160405261292b919081019061350f565b9050826001600160a01b031681600001516001600160a01b03161461298d5760408051808201825260158152742737ba103a3930b739b0b1ba34b7b71037bbb732b960591b6020820152905162461bcd60e51b8152610484919060040161327b565b610120015190505b92915050565b80518251146129de57604080518082018252600c81526b496e76616c6964205554584f60a01b6020820152905162461bcd60e51b8152610484919060040161327b565b60005b8251811015612c02578181815181106129fc576129fc613698565b602002602001015160000151838281518110612a1a57612a1a613698565b60200260200101516000015114612a6557604080518082018252600c81526b496e76616c6964205554584f60a01b6020820152905162461bcd60e51b8152610484919060040161327b565b818181518110612a7757612a77613698565b60200260200101516020015163ffffffff16838281518110612a9b57612a9b613698565b60200260200101516020015163ffffffff1614612aec57604080518082018252600c81526b496e76616c6964205554584f60a01b6020820152905162461bcd60e51b8152610484919060040161327b565b818181518110612afe57612afe613698565b60200260200101516040015180519060200120838281518110612b2357612b23613698565b6020026020010151604001518051906020012014612b7557604080518082018252600c81526b496e76616c6964205554584f60a01b6020820152905162461bcd60e51b8152610484919060040161327b565b818181518110612b8757612b87613698565b602002602001015160600151838281518110612ba557612ba5613698565b60200260200101516060015114612bf057604080518082018252600c81526b496e76616c6964205554584f60a01b6020820152905162461bcd60e51b8152610484919060040161327b565b80612bfa816136ae565b9150506129e1565b505050565b612c0f612c18565b61251881612c61565b7ff0c57e16840df040f15088dc2f81fe391c3923bec73e23a9662efc9c229c6a0054600160401b900460ff1661064157604051631afcd79f60e31b815260040160405180910390fd5b6124e5612c18565b828054828255906000526020600020908101928215612ca4579160200282015b82811115612ca4578251825591602001919060010190612c89565b50612cb0929150612cb4565b5090565b5b80821115612cb05760008155600101612cb5565b6001600160a01b038116811461251857600080fd5b600060208284031215612cf057600080fd5b8135612cfb81612cc9565b9392505050565b60008083601f840112612d1457600080fd5b5081356001600160401b03811115612d2b57600080fd5b602083019150836020828501011115612d4357600080fd5b9250929050565b60008060008060608587031215612d6057600080fd5b8435612d6b81612cc9565b935060208501356001600160401b03811115612d8657600080fd5b612d9287828801612d02565b9598909750949560400135949350505050565b600080600060408486031215612dba57600080fd5b83356001600160401b03811115612dd057600080fd5b612ddc86828701612d02565b909790965060209590950135949350505050565b600060208284031215612e0257600080fd5b5035919050565b634e487b7160e01b600052602160045260246000fd5b6001600160a01b03898116825288811660208301526040820188905286811660608301526080820186905284151560a083015261010082019060048510612e7657634e487b7160e01b600052602160045260246000fd5b8460c084015280841660e0840152509998505050505050505050565b60008060008060808587031215612ea857600080fd5b8435612eb381612cc9565b93506020850135612ec381612cc9565b92506040850135612ed381612cc9565b91506060850135612ee381612cc9565b939692955090935050565b634e487b7160e01b600052604160045260246000fd5b604051608081016001600160401b0381118282101715612f2657612f26612eee565b60405290565b60405160c081016001600160401b0381118282101715612f2657612f26612eee565b60405161022081016001600160401b0381118282101715612f2657612f26612eee565b60405161018081016001600160401b0381118282101715612f2657612f26612eee565b604051601f8201601f191681016001600160401b0381118282101715612fbc57612fbc612eee565b604052919050565b60005b83811015612fdf578181015183820152602001612fc7565b50506000910152565b600082601f830112612ff957600080fd5b81516001600160401b0381111561301257613012612eee565b613025601f8201601f1916602001612f94565b81815284602083860101111561303a57600080fd5b61304b826020830160208701612fc4565b949350505050565b8051801515811461306357600080fd5b919050565b60006001600160401b0382111561308157613081612eee565b5060051b60200190565b600082601f83011261309c57600080fd5b815160206130b16130ac83613068565b612f94565b82815260059290921b840181019181810190868411156130d057600080fd5b8286015b8481101561317d5780516001600160401b03808211156130f45760008081fd5b908801906080828b03601f190181131561310e5760008081fd5b613116612f04565b87840151815260408085015163ffffffff811681146131355760008081fd5b828a01526060858101518581111561314d5760008081fd5b61315b8f8c838a0101612fe8565b92840192909252949092015193810193909352505083529183019183016130d4565b509695505050505050565b60006020828403121561319a57600080fd5b81516001600160401b03808211156131b157600080fd5b9083019060c082860312156131c557600080fd5b6131cd612f2c565b8251828111156131dc57600080fd5b6131e887828601612fe8565b8252506020830151828111156131fd57600080fd5b61320987828601612fe8565b6020830152506040830151604082015260608301518281111561322b57600080fd5b61323787828601612fe8565b60608301525061324960808401613053565b608082015260a08301518281111561326057600080fd5b61326c8782860161308b565b60a08301525095945050505050565b602081526000825180602084015261329a816040850160208701612fc4565b601f01601f19169190910160400192915050565b6000602082840312156132c057600080fd5b5051919050565b805161306381612cc9565b80516004811061306357600080fd5b600082601f8301126132f257600080fd5b815160206133026130ac83613068565b82815260059290921b8401810191818101908684111561332157600080fd5b8286015b8481101561317d5780518352918301918301613325565b60006020828403121561334e57600080fd5b81516001600160401b038082111561336557600080fd5b90830190610220828603121561337a57600080fd5b613382612f4e565b61338b836132c7565b815260208301516020820152604083015160408201526133ad606084016132d2565b60608201526080830151608082015260a083015160a08201526133d260c084016132c7565b60c08201526133e360e084016132c7565b60e082015261010080840151838111156133fc57600080fd5b613408888287016132e1565b82840152505061012061341c8185016132c7565b90820152610140838101518381111561343457600080fd5b61344088828701612fe8565b828401525050610160808401518381111561345a57600080fd5b61346688828701612fe8565b8284015250506101808084015181830152506101a0808401518381111561348c57600080fd5b61349888828701612fe8565b8284015250506101c080840151838111156134b257600080fd5b6134be88828701612fe8565b8284015250506101e091506134d48284016132c7565b9181019190915261020091820151918101919091529392505050565b8183823760009101908152919050565b80516006811061306357600080fd5b60006020828403121561352157600080fd5b81516001600160401b038082111561353857600080fd5b90830190610180828603121561354d57600080fd5b613555612f71565b61355e836132c7565b815261356c602084016132c7565b6020820152604083015160408201526060830151606082015260808301518281111561359757600080fd5b6135a387828601612fe8565b60808301525060a083015160a08201526135bf60c08401613500565b60c082015260e083015160e082015261010080840151838111156135e257600080fd5b6135ee88828701612fe8565b8284015250506101206136028185016132c7565b908201526101406136148482016132c7565b90820152610160838101518381111561362c57600080fd5b6136388882870161308b565b918301919091525095945050505050565b634e487b7160e01b600052601160045260246000fd5b808202811582820484141761299557612995613649565b60008261369357634e487b7160e01b600052601260045260246000fd5b500490565b634e487b7160e01b600052603260045260246000fd5b6000600182016136c0576136c0613649565b5060010190565b6000602082840312156136d957600080fd5b8151612cfb81612cc9565b8181038181111561299557612995613649565b60006020828403121561370957600080fd5b612cfb82613053565b6000806040838503121561372557600080fd5b50508051602090910151909290915056fe35b845de5e0534eed951fd57a2e3050c150cedde6cf5b0facfc7924b107d467aa26469706673582212204adb3df48ddc7ead1b56c5050175536bfd614cd3ff6257584e4023261ca6e93c64736f6c63430008140033",
  "linkReferences": {},
  "deployedLinkReferences": {}
}