{
  "_format": "hh-sol-artifact-1",
  "contractName": "ArbitratorManager",
  "sourceName": "contracts/core/ArbitratorManager.sol",
  "abi": [
    {
      "inputs": [],
      "stateMutability": "nonpayable",
      "type": "constructor"
    },
    {
      "inputs": [],
      "name": "InvalidInitialization",
      "type": "error"
    },
    {
      "inputs": [],
      "name": "NotInitializing",
      "type": "error"
    },
    {
      "inputs": [
        {
          "internalType": "address",
          "name": "owner",
          "type": "address"
        }
      ],
      "name": "OwnableInvalidOwner",
      "type": "error"
    },
    {
      "inputs": [
        {
          "internalType": "address",
          "name": "account",
          "type": "address"
        }
      ],
      "name": "OwnableUnauthorizedAccount",
      "type": "error"
    },
    {
      "inputs": [],
      "name": "ReentrancyGuardReentrantCall",
      "type": "error"
    },
    {
      "anonymous": false,
      "inputs": [
        {
          "indexed": true,
          "internalType": "address",
          "name": "arbitrator",
          "type": "address"
        },
        {
          "indexed": false,
          "internalType": "uint256",
          "name": "feeRate",
          "type": "uint256"
        },
        {
          "indexed": false,
          "internalType": "uint256",
          "name": "deadline",
          "type": "uint256"
        }
      ],
      "name": "ArbitratorParamsSet",
      "type": "event"
    },
    {
      "anonymous": false,
      "inputs": [
        {
          "indexed": true,
          "internalType": "address",
          "name": "arbitrator",
          "type": "address"
        }
      ],
      "name": "ArbitratorPaused",
      "type": "event"
    },
    {
      "anonymous": false,
      "inputs": [
        {
          "indexed": true,
          "internalType": "address",
          "name": "arbitrator",
          "type": "address"
        },
        {
          "indexed": true,
          "internalType": "address",
          "name": "operator",
          "type": "address"
        },
        {
          "indexed": false,
          "internalType": "address",
          "name": "revenueAddress",
          "type": "address"
        },
        {
          "indexed": false,
          "internalType": "string",
          "name": "btcAddress",
          "type": "string"
        },
        {
          "indexed": false,
          "internalType": "bytes",
          "name": "btcPubKey",
          "type": "bytes"
        },
        {
          "indexed": false,
          "internalType": "uint256",
          "name": "feeRate",
          "type": "uint256"
        },
        {
          "indexed": false,
          "internalType": "uint256",
          "name": "deadline",
          "type": "uint256"
        }
      ],
      "name": "ArbitratorRegistered",
      "type": "event"
    },
    {
      "anonymous": false,
      "inputs": [
        {
          "indexed": true,
          "internalType": "address",
          "name": "arbitrator",
          "type": "address"
        },
        {
          "indexed": false,
          "internalType": "enum DataTypes.ArbitratorStatus",
          "name": "status",
          "type": "uint8"
        }
      ],
      "name": "ArbitratorStatusChanged",
      "type": "event"
    },
    {
      "anonymous": false,
      "inputs": [
        {
          "indexed": true,
          "internalType": "address",
          "name": "arbitrator",
          "type": "address"
        }
      ],
      "name": "ArbitratorUnpaused",
      "type": "event"
    },
    {
      "anonymous": false,
      "inputs": [
        {
          "indexed": true,
          "internalType": "address",
          "name": "oldManager",
          "type": "address"
        },
        {
          "indexed": true,
          "internalType": "address",
          "name": "newManager",
          "type": "address"
        }
      ],
      "name": "CompensationManagerUpdated",
      "type": "event"
    },
    {
      "anonymous": false,
      "inputs": [
        {
          "indexed": false,
          "internalType": "uint64",
          "name": "version",
          "type": "uint64"
        }
      ],
      "name": "Initialized",
      "type": "event"
    },
    {
      "anonymous": false,
      "inputs": [
        {
          "indexed": true,
          "internalType": "address",
          "name": "transactionManager",
          "type": "address"
        },
        {
          "indexed": true,
          "internalType": "address",
          "name": "compensationManager",
          "type": "address"
        }
      ],
      "name": "InitializedManager",
      "type": "event"
    },
    {
      "anonymous": false,
      "inputs": [
        {
          "indexed": true,
          "internalType": "address",
          "name": "arbitrator",
          "type": "address"
        },
        {
          "indexed": true,
          "internalType": "address",
          "name": "operator",
          "type": "address"
        },
        {
          "indexed": false,
          "internalType": "bytes",
          "name": "btcPubKey",
          "type": "bytes"
        },
        {
          "indexed": false,
          "internalType": "string",
          "name": "btcAddress",
          "type": "string"
        }
      ],
      "name": "OperatorSet",
      "type": "event"
    },
    {
      "anonymous": false,
      "inputs": [
        {
          "indexed": true,
          "internalType": "address",
          "name": "previousOwner",
          "type": "address"
        },
        {
          "indexed": true,
          "internalType": "address",
          "name": "newOwner",
          "type": "address"
        }
      ],
      "name": "OwnershipTransferred",
      "type": "event"
    },
    {
      "anonymous": false,
      "inputs": [
        {
          "indexed": true,
          "internalType": "address",
          "name": "arbitrator",
          "type": "address"
        },
        {
          "indexed": false,
          "internalType": "address",
          "name": "ethAddress",
          "type": "address"
        },
        {
          "indexed": false,
          "internalType": "bytes",
          "name": "btcPubKey",
          "type": "bytes"
        },
        {
          "indexed": false,
          "internalType": "string",
          "name": "btcAddress",
          "type": "string"
        }
      ],
      "name": "RevenueAddressesSet",
      "type": "event"
    },
    {
      "anonymous": false,
      "inputs": [
        {
          "indexed": true,
          "internalType": "address",
          "name": "arbitrator",
          "type": "address"
        },
        {
          "indexed": true,
          "internalType": "address",
          "name": "assetAddress",
          "type": "address"
        },
        {
          "indexed": false,
          "internalType": "uint256",
          "name": "amount",
          "type": "uint256"
        },
        {
          "indexed": false,
          "internalType": "uint256[]",
          "name": "nftTokenIds",
          "type": "uint256[]"
        }
      ],
      "name": "StakeAdded",
      "type": "event"
    },
    {
      "anonymous": false,
      "inputs": [
        {
          "indexed": true,
          "internalType": "address",
          "name": "arbitrator",
          "type": "address"
        },
        {
          "indexed": true,
          "internalType": "address",
          "name": "assetAddress",
          "type": "address"
        },
        {
          "indexed": false,
          "internalType": "uint256",
          "name": "amount",
          "type": "uint256"
        }
      ],
      "name": "StakeWithdrawn",
      "type": "event"
    },
    {
      "anonymous": false,
      "inputs": [
        {
          "indexed": true,
          "internalType": "address",
          "name": "oldManager",
          "type": "address"
        },
        {
          "indexed": true,
          "internalType": "address",
          "name": "newManager",
          "type": "address"
        }
      ],
      "name": "TransactionManagerUpdated",
      "type": "event"
    },
    {
      "inputs": [
        {
          "internalType": "address",
          "name": "arbitrator",
          "type": "address"
        }
      ],
      "name": "canUnStake",
      "outputs": [
        {
          "internalType": "bool",
          "name": "",
          "type": "bool"
        }
      ],
      "stateMutability": "view",
      "type": "function"
    },
    {
      "inputs": [],
      "name": "compensationManager",
      "outputs": [
        {
          "internalType": "address",
          "name": "",
          "type": "address"
        }
      ],
      "stateMutability": "view",
      "type": "function"
    },
    {
      "inputs": [],
      "name": "configManager",
      "outputs": [
        {
          "internalType": "contract ConfigManager",
          "name": "",
          "type": "address"
        }
      ],
      "stateMutability": "view",
      "type": "function"
    },
    {
      "inputs": [
        {
          "internalType": "address",
          "name": "arbitratorAddress",
          "type": "address"
        }
      ],
      "name": "getArbitratorInfo",
      "outputs": [
        {
          "components": [
            {
              "internalType": "address",
              "name": "arbitrator",
              "type": "address"
            },
            {
              "internalType": "uint256",
              "name": "currentFeeRate",
              "type": "uint256"
            },
            {
              "internalType": "uint256",
              "name": "pendingFeeRate",
              "type": "uint256"
            },
            {
              "internalType": "enum DataTypes.ArbitratorStatus",
              "name": "status",
              "type": "uint8"
            },
            {
              "internalType": "bytes32",
              "name": "activeTransactionId",
              "type": "bytes32"
            },
            {
              "internalType": "uint256",
              "name": "ethAmount",
              "type": "uint256"
            },
            {
              "internalType": "address",
              "name": "erc20Token",
              "type": "address"
            },
            {
              "internalType": "address",
              "name": "nftContract",
              "type": "address"
            },
            {
              "internalType": "uint256[]",
              "name": "nftTokenIds",
              "type": "uint256[]"
            },
            {
              "internalType": "address",
              "name": "operator",
              "type": "address"
            },
            {
              "internalType": "bytes",
              "name": "operatorBtcPubKey",
              "type": "bytes"
            },
            {
              "internalType": "string",
              "name": "operatorBtcAddress",
              "type": "string"
            },
            {
              "internalType": "uint256",
              "name": "deadLine",
              "type": "uint256"
            },
            {
              "internalType": "bytes",
              "name": "revenueBtcPubKey",
              "type": "bytes"
            },
            {
              "internalType": "string",
              "name": "revenueBtcAddress",
              "type": "string"
            },
            {
              "internalType": "address",
              "name": "revenueETHAddress",
              "type": "address"
            },
            {
              "internalType": "uint256",
              "name": "lastCompletedWorkTime",
              "type": "uint256"
            }
          ],
          "internalType": "struct DataTypes.ArbitratorInfo",
          "name": "",
          "type": "tuple"
        }
      ],
      "stateMutability": "view",
      "type": "function"
    },
    {
      "inputs": [
        {
          "internalType": "address",
          "name": "arbitrator",
          "type": "address"
        }
      ],
      "name": "getAvailableStake",
      "outputs": [
        {
          "internalType": "uint256",
          "name": "",
          "type": "uint256"
        }
      ],
      "stateMutability": "view",
      "type": "function"
    },
    {
      "inputs": [
        {
          "internalType": "address",
          "name": "arbitrator",
          "type": "address"
        }
      ],
      "name": "getTotalNFTStakeValue",
      "outputs": [
        {
          "internalType": "uint256",
          "name": "",
          "type": "uint256"
        }
      ],
      "stateMutability": "view",
      "type": "function"
    },
    {
      "inputs": [
        {
          "internalType": "address",
          "name": "_transactionManager",
          "type": "address"
        },
        {
          "internalType": "address",
          "name": "_compensationManager",
          "type": "address"
        }
      ],
      "name": "initTransactionAndCompensationManager",
      "outputs": [],
      "stateMutability": "nonpayable",
      "type": "function"
    },
    {
      "inputs": [
        {
          "internalType": "address",
          "name": "_configManager",
          "type": "address"
        },
        {
          "internalType": "address",
          "name": "_nftContract",
          "type": "address"
        },
        {
          "internalType": "address",
          "name": "_nftInfo",
          "type": "address"
        }
      ],
      "name": "initialize",
      "outputs": [],
      "stateMutability": "nonpayable",
      "type": "function"
    },
    {
      "inputs": [
        {
          "internalType": "address",
          "name": "arbitratorAddress",
          "type": "address"
        }
      ],
      "name": "isActiveArbitrator",
      "outputs": [
        {
          "internalType": "bool",
          "name": "",
          "type": "bool"
        }
      ],
      "stateMutability": "view",
      "type": "function"
    },
    {
      "inputs": [
        {
          "internalType": "address",
          "name": "arbitrator",
          "type": "address"
        },
        {
          "internalType": "address",
          "name": "operator",
          "type": "address"
        }
      ],
      "name": "isOperatorOf",
      "outputs": [
        {
          "internalType": "bool",
          "name": "",
          "type": "bool"
        }
      ],
      "stateMutability": "view",
      "type": "function"
    },
    {
      "inputs": [
        {
          "internalType": "address",
          "name": "arbitrator",
          "type": "address"
        }
      ],
      "name": "isPaused",
      "outputs": [
        {
          "internalType": "bool",
          "name": "",
          "type": "bool"
        }
      ],
      "stateMutability": "view",
      "type": "function"
    },
    {
      "inputs": [],
      "name": "nftContract",
      "outputs": [
        {
          "internalType": "contract IERC721",
          "name": "",
          "type": "address"
        }
      ],
      "stateMutability": "view",
      "type": "function"
    },
    {
      "inputs": [],
      "name": "nftInfo",
      "outputs": [
        {
          "internalType": "contract IBNFTInfo",
          "name": "",
          "type": "address"
        }
      ],
      "stateMutability": "view",
      "type": "function"
    },
    {
      "inputs": [],
      "name": "owner",
      "outputs": [
        {
          "internalType": "address",
          "name": "",
          "type": "address"
        }
      ],
      "stateMutability": "view",
      "type": "function"
    },
    {
      "inputs": [],
      "name": "pause",
      "outputs": [],
      "stateMutability": "nonpayable",
      "type": "function"
    },
    {
      "inputs": [
        {
          "internalType": "string",
          "name": "defaultRevenueBtcAddress",
          "type": "string"
        },
        {
          "internalType": "bytes",
          "name": "defaultRevenueBtcPubKey",
          "type": "bytes"
        },
        {
          "internalType": "uint256",
          "name": "feeRate",
          "type": "uint256"
        },
        {
          "internalType": "uint256",
          "name": "deadline",
          "type": "uint256"
        }
      ],
      "name": "registerArbitratorByStakeETH",
      "outputs": [],
      "stateMutability": "payable",
      "type": "function"
    },
    {
      "inputs": [
        {
          "internalType": "uint256[]",
          "name": "tokenIds",
          "type": "uint256[]"
        },
        {
          "internalType": "string",
          "name": "defaultRevenueBtcAddress",
          "type": "string"
        },
        {
          "internalType": "bytes",
          "name": "defaultRevenueBtcPubKey",
          "type": "bytes"
        },
        {
          "internalType": "uint256",
          "name": "feeRate",
          "type": "uint256"
        },
        {
          "internalType": "uint256",
          "name": "deadline",
          "type": "uint256"
        }
      ],
      "name": "registerArbitratorByStakeNFT",
      "outputs": [],
      "stateMutability": "nonpayable",
      "type": "function"
    },
    {
      "inputs": [
        {
          "internalType": "address",
          "name": "arbitrator",
          "type": "address"
        },
        {
          "internalType": "bytes32",
          "name": "transactionId",
          "type": "bytes32"
        }
      ],
      "name": "releaseArbitrator",
      "outputs": [],
      "stateMutability": "nonpayable",
      "type": "function"
    },
    {
      "inputs": [],
      "name": "renounceOwnership",
      "outputs": [],
      "stateMutability": "nonpayable",
      "type": "function"
    },
    {
      "inputs": [
        {
          "internalType": "uint256",
          "name": "feeRate",
          "type": "uint256"
        },
        {
          "internalType": "uint256",
          "name": "deadline",
          "type": "uint256"
        }
      ],
      "name": "setArbitratorParams",
      "outputs": [],
      "stateMutability": "nonpayable",
      "type": "function"
    },
    {
      "inputs": [
        {
          "internalType": "address",
          "name": "arbitrator",
          "type": "address"
        },
        {
          "internalType": "bytes32",
          "name": "transactionId",
          "type": "bytes32"
        }
      ],
      "name": "setArbitratorWorking",
      "outputs": [],
      "stateMutability": "nonpayable",
      "type": "function"
    },
    {
      "inputs": [
        {
          "internalType": "address",
          "name": "_compensationManager",
          "type": "address"
        }
      ],
      "name": "setCompensationManager",
      "outputs": [],
      "stateMutability": "nonpayable",
      "type": "function"
    },
    {
      "inputs": [
        {
          "internalType": "address",
          "name": "operator",
          "type": "address"
        },
        {
          "internalType": "bytes",
          "name": "btcPubKey",
          "type": "bytes"
        },
        {
          "internalType": "string",
          "name": "btcAddress",
          "type": "string"
        }
      ],
      "name": "setOperator",
      "outputs": [],
      "stateMutability": "nonpayable",
      "type": "function"
    },
    {
      "inputs": [
        {
          "internalType": "address",
          "name": "ethAddress",
          "type": "address"
        },
        {
          "internalType": "bytes",
          "name": "btcPubKey",
          "type": "bytes"
        },
        {
          "internalType": "string",
          "name": "btcAddress",
          "type": "string"
        }
      ],
      "name": "setRevenueAddresses",
      "outputs": [],
      "stateMutability": "nonpayable",
      "type": "function"
    },
    {
      "inputs": [
        {
          "internalType": "address",
          "name": "_transactionManager",
          "type": "address"
        }
      ],
      "name": "setTransactionManager",
      "outputs": [],
      "stateMutability": "nonpayable",
      "type": "function"
    },
    {
      "inputs": [],
      "name": "stakeETH",
      "outputs": [],
      "stateMutability": "payable",
      "type": "function"
    },
    {
      "inputs": [
        {
          "internalType": "uint256[]",
          "name": "tokenIds",
          "type": "uint256[]"
        }
      ],
      "name": "stakeNFT",
      "outputs": [],
      "stateMutability": "nonpayable",
      "type": "function"
    },
    {
      "inputs": [
        {
          "internalType": "address",
          "name": "arbitrator",
          "type": "address"
        }
      ],
      "name": "terminateArbitratorWithSlash",
      "outputs": [],
      "stateMutability": "nonpayable",
      "type": "function"
    },
    {
      "inputs": [],
      "name": "transactionManager",
      "outputs": [
        {
          "internalType": "address",
          "name": "",
          "type": "address"
        }
      ],
      "stateMutability": "view",
      "type": "function"
    },
    {
      "inputs": [
        {
          "internalType": "address",
          "name": "newOwner",
          "type": "address"
        }
      ],
      "name": "transferOwnership",
      "outputs": [],
      "stateMutability": "nonpayable",
      "type": "function"
    },
    {
      "inputs": [],
      "name": "unpause",
      "outputs": [],
      "stateMutability": "nonpayable",
      "type": "function"
    },
    {
      "inputs": [],
      "name": "unstake",
      "outputs": [],
      "stateMutability": "nonpayable",
      "type": "function"
    },
    {
      "inputs": [],
      "name": "zeroAddress",
      "outputs": [
        {
          "internalType": "address",
          "name": "",
          "type": "address"
        }
      ],
      "stateMutability": "view",
      "type": "function"
    }
  ],
  "bytecode": "0x60806040523480156200001157600080fd5b506200001c62000022565b620000d6565b7ff0c57e16840df040f15088dc2f81fe391c3923bec73e23a9662efc9c229c6a00805468010000000000000000900460ff1615620000735760405163f92ee8a960e01b815260040160405180910390fd5b80546001600160401b0390811614620000d35780546001600160401b0319166001600160401b0390811782556040519081527fc7f505b2f371ae2175ee4913f4499e1f2633a7b5936321eed1cdaeb6115181d29060200160405180910390a15b50565b61441b80620000e66000396000f3fe6080604052600436106101ee5760003560e01c8063715018a61161010d578063ca0ab075116100a0578063dceb986d1161006f578063dceb986d14610596578063e25268d21461059e578063e2b4efb8146105be578063f2fde38b146105de578063f3724d18146105fe57600080fd5b8063ca0ab07514610516578063cedb588b14610536578063d2b6f74b14610556578063d56d229d1461057657600080fd5b806399056c3c116100dc57806399056c3c14610489578063998b2fd8146104b6578063b553fe1e146104d6578063c0c53b8b146104f657600080fd5b8063715018a6146104025780637cacabef146104175780638456cb59146104375780638da5cb5b1461044c57600080fd5b806337e406e9116101855780634476a660116101545780634476a660146103825780635b14f183146103a2578063654b4e83146103c25780636a65f2fd146103e257600080fd5b806337e406e91461030a57806339c25e2c1461031d5780633b7164521461034d5780633f4ba83a1461036d57600080fd5b8063182c5744116101c1578063182c57441461029557806329a3f203146102b55780632b2d37da146102d55780632def6620146102f557600080fd5b80630559b877146101f35780630930907b146102305780630b1fa61c1461024557806314f6b19014610267575b600080fd5b3480156101ff57600080fd5b50600554610213906001600160a01b031681565b6040516001600160a01b0390911681526020015b60405180910390f35b34801561023c57600080fd5b50610213600081565b34801561025157600080fd5b506102656102603660046136f6565b61061e565b005b34801561027357600080fd5b506102876102823660046136f6565b6106c9565b604051908152602001610227565b3480156102a157600080fd5b506102656102b0366004613763565b610705565b3480156102c157600080fd5b506102656102d03660046137e5565b610813565b3480156102e157600080fd5b506102656102f0366004613865565b6108f8565b34801561030157600080fd5b50610265610acc565b61026561031836600461388f565b611124565b34801561032957600080fd5b5061033d61033836600461390c565b6112d0565b6040519015158152602001610227565b34801561035957600080fd5b50600454610213906001600160a01b031681565b34801561037957600080fd5b506102656112fa565b34801561038e57600080fd5b5061026561039d3660046136f6565b611412565b3480156103ae57600080fd5b5061033d6103bd3660046136f6565b6114b4565b3480156103ce57600080fd5b506102656103dd3660046137e5565b6114f0565b3480156103ee57600080fd5b506102656103fd36600461393f565b611625565b34801561040e57600080fd5b50610265611860565b34801561042357600080fd5b5061033d6104323660046136f6565b611874565b34801561044357600080fd5b50610265611906565b34801561045857600080fd5b507f9016d09d72d40fdae2fd8ceac6b6234c7706214fd39c1cd1e609a0528c199300546001600160a01b0316610213565b34801561049557600080fd5b506104a96104a43660046136f6565b611a21565b6040516102279190613a24565b3480156104c257600080fd5b506102656104d13660046136f6565b611e40565b3480156104e257600080fd5b50600254610213906001600160a01b031681565b34801561050257600080fd5b50610265610511366004613bae565b61214c565b34801561052257600080fd5b50600054610213906001600160a01b031681565b34801561054257600080fd5b50610265610551366004613865565b612379565b34801561056257600080fd5b5061026561057136600461390c565b612538565b34801561058257600080fd5b50600154610213906001600160a01b031681565b61026561268f565b3480156105aa57600080fd5b506102876105b93660046136f6565b612752565b3480156105ca57600080fd5b5061033d6105d93660046136f6565b61289c565b3480156105ea57600080fd5b506102656105f93660046136f6565b612ab4565b34801561060a57600080fd5b50610265610619366004613bf1565b612af2565b610626612d0e565b6001600160a01b03811661067757604080518082018252600c81526b5a65726f206164647265737360a01b6020820152905162461bcd60e51b815261066e9190600401613c99565b60405180910390fd5b600480546001600160a01b038381166001600160a01b0319831681179093556040519116919082907f960d9803c7ca631d3232d16e9971c7fd8e82d5f7ff7c2824c7b29dcab8a37d2e90600090a35050565b6001600160a01b0381166000908152600360205260408120816106eb84612752565b90508082600501546106fd9190613cc2565b949350505050565b600081900361074b57604080518082018252600f81526e456d70747920746f6b656e2049447360881b6020820152905162461bcd60e51b815261066e9190600401613c99565b33600090815260036020526040902080546001600160a01b03166107a257604080518082018252601981526000805160206143c68339815191526020820152905162461bcd60e51b815261066e9190600401613c99565b60006107ae8484612d69565b90506107bb828585612e87565b6107c9826005015482612f76565b6107d2826131d2565b6001546040516001600160a01b039091169033906000805160206143a68339815191529061080590859089908990613cd5565b60405180910390a350505050565b33600090815260036020526040902080546001600160a01b031661086a57604080518082018252601981526000805160206143c68339815191526020820152905162461bcd60e51b815261066e9190600401613c99565b600f810180546001600160a01b0319166001600160a01b038816179055600d8101610896858783613db5565b50600e81016108a6838583613db5565b50336001600160a01b03167f8e68353cf53df77c6b6993341bb1d784fab04f2f38b2c51654b51de6ce32274e87878787876040516108e8959493929190613e9d565b60405180910390a2505050505050565b6004546001600160a01b0316331461094f5760408051808201825260178152762737ba103a3930b739b0b1ba34b7b71036b0b730b3b2b960491b6020820152905162461bcd60e51b815261066e9190600401613c99565b600554600160a01b900460ff1661099d57604080518082018252600f81526e139bdd081a5b9a5d1a585b1a5e9959608a1b6020820152905162461bcd60e51b815261066e9190600401613c99565b6001600160a01b03821660009081526003602052604081209060038083015460ff16908111156109cf576109cf613961565b14610a1757604080518082018252601581527441726269747261746f72206e6f742061637469766560581b6020820152905162461bcd60e51b815261066e9190600401613c99565b600481015415610a6c57604080518082018252601a81527f41726269747261746f7220616c726561647920776f726b696e670000000000006020820152905162461bcd60e51b815261066e9190600401613c99565b60038101805460ff19166001908117909155600482018390556040516001600160a01b038516917f3a8979d9edd937f82708579234f5915d536a25d9fd31832a26aeb36a4a991c3c91610abf9190613ee1565b60405180910390a2505050565b336000908152600360205260409020600481015415610afd5760405162461bcd60e51b815260040161066e90613eef565b3360009081526003602081815260409283902083516102208101855281546001600160a01b0316815260018201549281019290925260028101549382019390935282820154610e95928491606084019160ff90911690811115610b6257610b62613961565b6003811115610b7357610b73613961565b81526004820154602080830191909152600583015460408084019190915260068401546001600160a01b039081166060850152600785015416608084015260088401805482518185028101850190935280835260a0909401939192909190830182828015610c0057602002820191906000526020600020905b815481526020019060010190808311610bec575b505050918352505060098201546001600160a01b03166020820152600a82018054604090920191610c3090613d2c565b80601f0160208091040260200160405190810160405280929190818152602001828054610c5c90613d2c565b8015610ca95780601f10610c7e57610100808354040283529160200191610ca9565b820191906000526020600020905b815481529060010190602001808311610c8c57829003601f168201915b50505050508152602001600b82018054610cc290613d2c565b80601f0160208091040260200160405190810160405280929190818152602001828054610cee90613d2c565b8015610d3b5780601f10610d1057610100808354040283529160200191610d3b565b820191906000526020600020905b815481529060010190602001808311610d1e57829003601f168201915b50505050508152602001600c8201548152602001600d82018054610d5e90613d2c565b80601f0160208091040260200160405190810160405280929190818152602001828054610d8a90613d2c565b8015610dd75780601f10610dac57610100808354040283529160200191610dd7565b820191906000526020600020905b815481529060010190602001808311610dba57829003601f168201915b50505050508152602001600e82018054610df090613d2c565b80601f0160208091040260200160405190810160405280929190818152602001828054610e1c90613d2c565b8015610e695780601f10610e3e57610100808354040283529160200191610e69565b820191906000526020600020905b815481529060010190602001808311610e4c57829003601f168201915b5050509183525050600f8201546001600160a01b03166020820152601090910154604090910152613267565b15610ed157604080518082018252600981526824b990333937bd32b760b91b6020820152905162461bcd60e51b815261066e9190600401613c99565b600081600501541180610ee75750600881015415155b610f1d5760405162461bcd60e51b81526020600482015260076024820152664e6f5374616b6560c81b604482015260640161066e565b60058101805460009091556003808301805460ff1916909117905560078201546001600160a01b031615801590610f575750600882015415155b156110555760005b6008830154811015611021576001546008840180546001600160a01b03909216916323b872dd91309133919086908110610f9b57610f9b613f1a565b6000918252602090912001546040516001600160e01b031960e086901b1681526001600160a01b0393841660048201529290911660248301526044820152606401600060405180830381600087803b158015610ff657600080fd5b505af115801561100a573d6000803e3d6000fd5b50505050808061101990613f30565b915050610f5f565b50604080516000815260208101918290525161104191600885019161367a565b506007820180546001600160a01b03191690555b80156110e657604051600090339083908381818185875af1925050503d806000811461109d576040519150601f19603f3d011682016040523d82523d6000602084013e6110a2565b606091505b50509050806110e45760405162461bcd60e51b815260206004820152600e60248201526d151c985b9cd9995c91985a5b195960921b604482015260640161066e565b505b60405181815260009033907fb7c918e0e249f999e965cafeb6c664271b3f4317d296461500e71da39f0cbda3906020015b60405180910390a3505050565b611132868686868686613316565b61113d346000612f76565b3360009081526003602090815260409182902080548351808501909452601d84527f41726269747261746f7220616c726561647920726567697374657265640000009284019290925291906001600160a01b0316156111af5760405162461bcd60e51b815260040161066e9190613c99565b508054336001600160a01b031991821681178355600983018054831682179055600f83018054909216179055600e81016111ea878983613db5565b50600d81016111fa858783613db5565b5060018101839055600c8101829055600581018054349190600090611220908490613cc2565b909155505080546040805160008082526020820192839052926001600160a01b0316916000805160206143a68339815191529161125f91349190613f49565b60405180910390a36009810154600f8201546040516001600160a01b039283169233927f1ab9d0508879cf64270650fc89b30617972d694fd1053946f028860daf125c7c926112bf9290911690600e870190600d8801908a908a90614014565b60405180910390a350505050505050565b6001600160a01b038281166000908152600360205260409020600901548116908216145b92915050565b33600090815260036020526040902060048101541561132b5760405162461bcd60e51b815260040161066e90613eef565b33600090815260036020526040902080546001600160a01b031661138257604080518082018252601981526000805160206143c68339815191526020820152905162461bcd60e51b815261066e9190600401613c99565b600260038083015460ff169081111561139d5761139d613961565b146113d75760405162461bcd60e51b815260206004820152600a6024820152691b9bdd081c185d5cd95960b21b604482015260640161066e565b60038101805460ff1916905560405133907f9f71f687820b75e4208e6fdd2091be151d94465fe4bafd2506bed2b9a430437d90600090a25050565b61141a612d0e565b6001600160a01b03811661146257604080518082018252600c81526b5a65726f206164647265737360a01b6020820152905162461bcd60e51b815261066e9190600401613c99565b600580546001600160a01b038381166001600160a01b0319831681179093556040519116919082907fb2de57cf284062a9a3402f8683281c49d5a6747b1f369d0eec883b83503f3c8d90600090a35050565b600060026001600160a01b038316600090815260036020819052604090912081015460ff16908111156114e9576114e9613961565b1492915050565b6001600160a01b0385166115385760405162461bcd60e51b815260206004820152600f60248201526e24b73b30b634b227b832b930ba37b960891b604482015260640161066e565b33600090815260036020526040902080546001600160a01b031661158f57604080518082018252601981526000805160206143c68339815191526020820152905162461bcd60e51b815261066e9190600401613c99565b6009810180546001600160a01b0319166001600160a01b038816179055600a81016115bb858783613db5565b50600b81016115cb838583613db5565b50856001600160a01b0316336001600160a01b03167ff920b7832d3774e2ac2efb86fccb411bc92e19a8ea66687764dea93140bdad4a87878787604051611615949392919061405f565b60405180910390a3505050505050565b3360009081526003602052604090206004810154156116565760405162461bcd60e51b815260040161066e90613eef565b600054604080516325ba6ce560e11b815290516001600160a01b0390921691636dd5b69d918391634b74d9ca916004808201926020929091908290030181865afa1580156116a8573d6000803e3d6000fd5b505050506040513d601f19601f820116820180604052508101906116cc9190614091565b6040518263ffffffff1660e01b81526004016116ea91815260200190565b602060405180830381865afa158015611707573d6000803e3d6000fd5b505050506040513d601f19601f8201168201806040525081019061172b9190614091565b8310156117665760405162461bcd60e51b8152602060048201526009602482015268466565546f6f4c6f7760b81b604482015260640161066e565b81158061177257504282115b6040518060400160405280601081526020016f496e76616c696420646561646c696e6560801b815250906117b95760405162461bcd60e51b815260040161066e9190613c99565b5033600090815260036020526040902080546001600160a01b031661181157604080518082018252601981526000805160206143c68339815191526020820152905162461bcd60e51b815261066e9190600401613c99565b60018101849055600c8101839055604080518581526020810185905233917f37a8e1e367daa706c049f32e9f3db5c7f05287d62d178accd3a148a80d4bf01a910160405180910390a250505050565b611868612d0e565b611872600061351f565b565b6001600160a01b038082166000908152600360208181526040808420815161022081018352815490961686526001810154928601929092526002820154908501528082015492936118d9939092606084019160ff1690811115610b6257610b62613961565b156118e657506000919050565b506001600160a01b03166000908152600360205260409020600401541590565b3360009081526003602052604090206004810154156119375760405162461bcd60e51b815260040161066e90613eef565b33600090815260036020526040902080546001600160a01b031661198e57604080518082018252601981526000805160206143c68339815191526020820152905162461bcd60e51b815261066e9190600401613c99565b600060038083015460ff16908111156119a9576119a9613961565b146119e35760405162461bcd60e51b815260206004820152600a6024820152694e6f742061637469766560b01b604482015260640161066e565b60038101805460ff1916600217905560405133907ff8f74f9bb1ed360c36a0bd59e0d8aa5cbdd15bb6e8e86af871f343daf432be2290600090a25050565b604080516102208101825260008082526020820181905291810182905260608082018390526080820183905260a0820183905260c0820183905260e08201839052610100820181905261012082018390526101408201819052610160820181905261018082018390526101a082018190526101c08201526101e081018290526102008101919091526001600160a01b038083166000908152600360208181526040928390208351610220810185528154909516855260018101549185019190915260028101549284019290925281810154606084019160ff90911690811115611b0c57611b0c613961565b6003811115611b1d57611b1d613961565b81526004820154602080830191909152600583015460408084019190915260068401546001600160a01b039081166060850152600785015416608084015260088401805482518185028101850190935280835260a0909401939192909190830182828015611baa57602002820191906000526020600020905b815481526020019060010190808311611b96575b505050918352505060098201546001600160a01b03166020820152600a82018054604090920191611bda90613d2c565b80601f0160208091040260200160405190810160405280929190818152602001828054611c0690613d2c565b8015611c535780601f10611c2857610100808354040283529160200191611c53565b820191906000526020600020905b815481529060010190602001808311611c3657829003601f168201915b50505050508152602001600b82018054611c6c90613d2c565b80601f0160208091040260200160405190810160405280929190818152602001828054611c9890613d2c565b8015611ce55780601f10611cba57610100808354040283529160200191611ce5565b820191906000526020600020905b815481529060010190602001808311611cc857829003601f168201915b50505050508152602001600c8201548152602001600d82018054611d0890613d2c565b80601f0160208091040260200160405190810160405280929190818152602001828054611d3490613d2c565b8015611d815780601f10611d5657610100808354040283529160200191611d81565b820191906000526020600020905b815481529060010190602001808311611d6457829003601f168201915b50505050508152602001600e82018054611d9a90613d2c565b80601f0160208091040260200160405190810160405280929190818152602001828054611dc690613d2c565b8015611e135780601f10611de857610100808354040283529160200191611e13565b820191906000526020600020905b815481529060010190602001808311611df657829003601f168201915b5050509183525050600f8201546001600160a01b0316602082015260109091015460409091015292915050565b6005546001600160a01b03163314611e9d57604080518082018252601881527f4e6f7420636f6d70656e736174696f6e206d616e6167657200000000000000006020820152905162461bcd60e51b815261066e9190600401613c99565b600554600160a01b900460ff16611eeb57604080518082018252600f81526e139bdd081a5b9a5d1a585b1a5e9959608a1b6020820152905162461bcd60e51b815261066e9190600401613c99565b6001600160a01b0380821660009081526003602052604090208054909116611f4657604080518082018252601981526000805160206143c68339815191526020820152905162461bcd60e51b815261066e9190600401613c99565b6003818101805460ff19169091179055600581015480156120025760006005838101829055546040516001600160a01b039091169083908381818185875af1925050503d8060008114611fb5576040519150601f19603f3d011682016040523d82523d6000602084013e611fba565b606091505b505090508061200057604080518082018252600f81526e151c985b9cd9995c8819985a5b1959608a1b6020820152905162461bcd60e51b815261066e9190600401613c99565b505b60078201546001600160a01b0316158015906120215750600882015415155b156121125760005b60088301548110156120f05760078301546005546008850180546001600160a01b03938416936323b872dd9330939116918690811061206a5761206a613f1a565b6000918252602090912001546040516001600160e01b031960e086901b1681526001600160a01b0393841660048201529290911660248301526044820152606401600060405180830381600087803b1580156120c557600080fd5b505af11580156120d9573d6000803e3d6000fd5b5050505080806120e890613f30565b915050612029565b50604080516000815260208101918290525161211091600885019161367a565b505b826001600160a01b03167f3a8979d9edd937f82708579234f5915d536a25d9fd31832a26aeb36a4a991c3c6003604051610abf9190613ee1565b7ff0c57e16840df040f15088dc2f81fe391c3923bec73e23a9662efc9c229c6a008054600160401b810460ff1615906001600160401b03166000811580156121915750825b90506000826001600160401b031660011480156121ad5750303b155b9050811580156121bb575080155b156121d95760405163f92ee8a960e01b815260040160405180910390fd5b845467ffffffffffffffff19166001178555831561220357845460ff60401b1916600160401b1785555b61220b613590565b612214336135a0565b6001600160a01b03881661225c57604080518082018252600c81526b5a65726f206164647265737360a01b6020820152905162461bcd60e51b815261066e9190600401613c99565b6001600160a01b0387166122a457604080518082018252600c81526b5a65726f206164647265737360a01b6020820152905162461bcd60e51b815261066e9190600401613c99565b6001600160a01b0386166122ec57604080518082018252600c81526b5a65726f206164647265737360a01b6020820152905162461bcd60e51b815261066e9190600401613c99565b600080546001600160a01b03808b166001600160a01b031992831617909255600180548a84169083161790556002805492891692909116919091179055831561236f57845460ff60401b19168555604051600181527fc7f505b2f371ae2175ee4913f4499e1f2633a7b5936321eed1cdaeb6115181d29060200160405180910390a15b5050505050505050565b6004546001600160a01b031633146123d05760408051808201825260178152762737ba103a3930b739b0b1ba34b7b71036b0b730b3b2b960491b6020820152905162461bcd60e51b815261066e9190600401613c99565b600554600160a01b900460ff1661241e57604080518082018252600f81526e139bdd081a5b9a5d1a585b1a5e9959608a1b6020820152905162461bcd60e51b815261066e9190600401613c99565b6001600160a01b0382166000908152600360205260409020600160038083015460ff169081111561245157612451613961565b1461249a57604080518082018252601681527541726269747261746f72206e6f7420776f726b696e6760501b6020820152905162461bcd60e51b815261066e9190600401613c99565b818160040154146124e9576040805180820182526016815275125b9d985b1a59081d1c985b9cd858dd1a5bdb88125160521b6020820152905162461bcd60e51b815261066e9190600401613c99565b60038101805460ff191690556000600482018190556040516001600160a01b038516917f3a8979d9edd937f82708579234f5915d536a25d9fd31832a26aeb36a4a991c3c91610abf9190613ee1565b612540612d0e565b600554600160a01b900460ff1615612593576040805180820182526013815272105b1c9958591e481a5b9a5d1a585b1a5e9959606a1b6020820152905162461bcd60e51b815261066e9190600401613c99565b6001600160a01b0382166125db57604080518082018252600c81526b5a65726f206164647265737360a01b6020820152905162461bcd60e51b815261066e9190600401613c99565b6001600160a01b03811661262357604080518082018252600c81526b5a65726f206164647265737360a01b6020820152905162461bcd60e51b815261066e9190600401613c99565b600480546001600160a01b038085166001600160a01b03199092168217909255600580546001600160a81b03191684841617600160a01b17908190556040519216917f255c9edca3ea4cd6ff3c64c4cd7a5f812c6ae0ca0ae939f85e9e3eb49cdb416f90600090a35050565b33600090815260036020526040902080546001600160a01b03166126e657604080518082018252601981526000805160206143c68339815191526020820152905162461bcd60e51b815261066e9190600401613c99565b60006126f133612752565b905060003483600501546127059190613cc2565b6005840181905590506127188183612f76565b82546040805160008082526020820192839052926001600160a01b0316916000805160206143a68339815191529161111791349190613f49565b6001600160a01b038116600090815260036020526040812081805b6008830154811015612894576002546008840180546000926001600160a01b03169163d5ec2d8391859081106127a5576127a5613f1a565b90600052602060002001546040518263ffffffff1660e01b81526004016127ce91815260200190565b600060405180830381865afa1580156127eb573d6000803e3d6000fd5b505050506040513d6000823e601f3d908101601f19168201604052612813919081019061414f565b91505060005b81606001515181101561287f578160600151818151811061283c5761283c613f1a565b6020026020010151602001516402540be400612858919061432b565b61286b906001600160401b031685613cc2565b93508061287781613f30565b915050612819565b5050808061288c90613f30565b91505061276d565b509392505050565b6001600160a01b03811660009081526003602052604081208160038083015460ff16908111156128ce576128ce613961565b146128dc5750600092915050565b80600c01546000036128f15750600092915050565b4281600c0154116129055750600092915050565b604080516102208101825282546001600160a01b031681526001830154602082015260028301549181019190915260038083015461295a92918491606084019160ff90911690811115610b6257610b62613961565b156129685750600092915050565b60405163014f6b1960e41b81526001600160a01b038416600482015260009030906314f6b19090602401602060405180830381865afa1580156129af573d6000803e3d6000fd5b505050506040513d601f19601f820116820180604052508101906129d39190614091565b600054604080516332c70ad760e21b815290519293506001600160a01b0390911691636dd5b69d91839163cb1c2b5c916004808201926020929091908290030181865afa158015612a28573d6000803e3d6000fd5b505050506040513d601f19601f82011682018060405250810190612a4c9190614091565b6040518263ffffffff1660e01b8152600401612a6a91815260200190565b602060405180830381865afa158015612a87573d6000803e3d6000fd5b505050506040513d601f19601f82011682018060405250810190612aab9190614091565b11159392505050565b612abc612d0e565b6001600160a01b038116612ae657604051631e4fbdf760e01b81526000600482015260240161066e565b612aef8161351f565b50565b612afa6135b1565b612b08868686868686613316565b6000879003612b4e57604080518082018252600f81526e456d70747920746f6b656e2049447360881b6020820152905162461bcd60e51b815261066e9190600401613c99565b3360009081526003602090815260409182902080548351808501909452601d84527f41726269747261746f7220616c726561647920726567697374657265640000009284019290925291906001600160a01b031615612bc05760405162461bcd60e51b815260040161066e9190613c99565b508054336001600160a01b031991821681178355600983018054831682179055600f83018054909216179055600e8101612bfb878983613db5565b50600d8101612c0b858783613db5565b5060018101839055600c81018290556000612c268a8a612d69565b9050612c33828b8b612e87565b612c41826005015482612f76565b612c4a826131d2565b6001546040516001600160a01b039091169033906000805160206143a683398151915290612c7d9085908f908f90613cd5565b60405180910390a36009820154600f8301546040516001600160a01b039283169233927f1ab9d0508879cf64270650fc89b30617972d694fd1053946f028860daf125c7c92612cdb92909116908d908d908d908d908d908d90614356565b60405180910390a3505061236f60017f9b779b17422d0df92223018b32b4d1fa46e071723d6817e2486d003becc55f0055565b33612d407f9016d09d72d40fdae2fd8ceac6b6234c7706214fd39c1cd1e609a0528c199300546001600160a01b031690565b6001600160a01b0316146118725760405163118cdaa760e01b815233600482015260240161066e565b600080805b83811015612894576002546000906001600160a01b031663d5ec2d83878785818110612d9c57612d9c613f1a565b905060200201356040518263ffffffff1660e01b8152600401612dc191815260200190565b600060405180830381865afa158015612dde573d6000803e3d6000fd5b505050506040513d6000823e601f3d908101601f19168201604052612e06919081019061414f565b91505060005b816060015151811015612e725781606001518181518110612e2f57612e2f613f1a565b6020026020010151602001516402540be400612e4b919061432b565b612e5e906001600160401b031685613cc2565b935080612e6a81613f30565b915050612e0c565b50508080612e7f90613f30565b915050612d6e565b60005b81811015612f70576001546001600160a01b03166323b872dd3330868686818110612eb757612eb7613f1a565b6040516001600160e01b031960e088901b1681526001600160a01b03958616600482015294909316602485015250602090910201356044820152606401600060405180830381600087803b158015612f0e57600080fd5b505af1158015612f22573d6000803e3d6000fd5b5050505083600801838383818110612f3c57612f3c613f1a565b8354600181018555600094855260209485902091909402929092013591909201555080612f6881613f30565b915050612e8a565b50505050565b6000612f828284613cc2565b60008054604080516332c70ad760e21b8152905193945091926001600160a01b0390911691636dd5b69d91839163cb1c2b5c9160048083019260209291908290030181865afa158015612fd9573d6000803e3d6000fd5b505050506040513d601f19601f82011682018060405250810190612ffd9190614091565b6040518263ffffffff1660e01b815260040161301b91815260200190565b602060405180830381865afa158015613038573d6000803e3d6000fd5b505050506040513d601f19601f8201168201806040525081019061305c9190614091565b600080546040805163c98517c560e01b8152905193945091926001600160a01b0390911691636dd5b69d91839163c98517c59160048083019260209291908290030181865afa1580156130b3573d6000803e3d6000fd5b505050506040513d601f19601f820116820180604052508101906130d79190614091565b6040518263ffffffff1660e01b81526004016130f591815260200190565b602060405180830381865afa158015613112573d6000803e3d6000fd5b505050506040513d601f19601f820116820180604052508101906131369190614091565b905081831015613180576040805180820182526012815271496e73756666696369656e74207374616b6560701b6020820152905162461bcd60e51b815261066e9190600401613c99565b808311156131cb5760408051808201825260158152745374616b652065786365656473206d6178696d756d60581b6020820152905162461bcd60e51b815261066e9190600401613c99565b5050505050565b60078101546001600160a01b031661320b576001546007820180546001600160a01b0319166001600160a01b0390921691909117905550565b60015460078201546001600160a01b03908116911614612aef576040805180820182526014815273125b9d985b1a59081391950818dbdb9d1c9858dd60621b6020820152905162461bcd60e51b815261066e9190600401613c99565b6000805460408051632f672f1960e11b8152905183926001600160a01b031691635ece5e329160048083019260209291908290030181865afa1580156132b1573d6000803e3d6000fd5b505050506040513d601f19601f820116820180604052508101906132d59190614091565b90508261020001516000036132ed5750600092915050565b42818461020001516132ff9190613cc2565b1161330d5750600092915050565b50600092915050565b600085900361335e57604080518082018252601181527024b73b30b634b2103830b930b6b2ba32b960791b6020820152905162461bcd60e51b815261066e9190600401613c99565b60008390036133a657604080518082018252601181527024b73b30b634b2103830b930b6b2ba32b960791b6020820152905162461bcd60e51b815261066e9190600401613c99565b60008054604080516325ba6ce560e11b815290516001600160a01b0390921691636dd5b69d918391634b74d9ca916004808201926020929091908290030181865afa1580156133f9573d6000803e3d6000fd5b505050506040513d601f19601f8201168201806040525081019061341d9190614091565b6040518263ffffffff1660e01b815260040161343b91815260200190565b602060405180830381865afa158015613458573d6000803e3d6000fd5b505050506040513d601f19601f8201168201806040525081019061347c9190614091565b9050808310156134c457604080518082018252601081526f496e76616c696420666565207261746560801b6020820152905162461bcd60e51b815261066e9190600401613c99565b81158015906134d35750428211155b1561351657604080518082018252601081526f496e76616c696420646561646c696e6560801b6020820152905162461bcd60e51b815261066e9190600401613c99565b50505050505050565b7f9016d09d72d40fdae2fd8ceac6b6234c7706214fd39c1cd1e609a0528c19930080546001600160a01b031981166001600160a01b03848116918217845560405192169182907f8be0079c531659141344cd1fd0a4f28419497f9722a3daafe3b4186f6b6457e090600090a3505050565b613598613621565b61187261366a565b6135a8613621565b612aef81613672565b7f9b779b17422d0df92223018b32b4d1fa46e071723d6817e2486d003becc55f008054600119016135f557604051633ee5aeb560e01b815260040160405180910390fd5b60029055565b60017f9b779b17422d0df92223018b32b4d1fa46e071723d6817e2486d003becc55f0055565b7ff0c57e16840df040f15088dc2f81fe391c3923bec73e23a9662efc9c229c6a0054600160401b900460ff1661187257604051631afcd79f60e31b815260040160405180910390fd5b6135fb613621565b612abc613621565b8280548282559060005260206000209081019282156136b5579160200282015b828111156136b557825182559160200191906001019061369a565b506136c19291506136c5565b5090565b5b808211156136c157600081556001016136c6565b80356001600160a01b03811681146136f157600080fd5b919050565b60006020828403121561370857600080fd5b613711826136da565b9392505050565b60008083601f84011261372a57600080fd5b5081356001600160401b0381111561374157600080fd5b6020830191508360208260051b850101111561375c57600080fd5b9250929050565b6000806020838503121561377657600080fd5b82356001600160401b0381111561378c57600080fd5b61379885828601613718565b90969095509350505050565b60008083601f8401126137b657600080fd5b5081356001600160401b038111156137cd57600080fd5b60208301915083602082850101111561375c57600080fd5b6000806000806000606086880312156137fd57600080fd5b613806866136da565b945060208601356001600160401b038082111561382257600080fd5b61382e89838a016137a4565b9096509450604088013591508082111561384757600080fd5b50613854888289016137a4565b969995985093965092949392505050565b6000806040838503121561387857600080fd5b613881836136da565b946020939093013593505050565b600080600080600080608087890312156138a857600080fd5b86356001600160401b03808211156138bf57600080fd5b6138cb8a838b016137a4565b909850965060208901359150808211156138e457600080fd5b506138f189828a016137a4565b979a9699509760408101359660609091013595509350505050565b6000806040838503121561391f57600080fd5b613928836136da565b9150613936602084016136da565b90509250929050565b6000806040838503121561395257600080fd5b50508035926020909101359150565b634e487b7160e01b600052602160045260246000fd5b6004811061399557634e487b7160e01b600052602160045260246000fd5b9052565b600081518084526020808501945080840160005b838110156139c9578151875295820195908201906001016139ad565b509495945050505050565b60005b838110156139ef5781810151838201526020016139d7565b50506000910152565b60008151808452613a108160208601602086016139d4565b601f01601f19169290920160200192915050565b60208152613a3e6020820183516001600160a01b03169052565b602082015160408201526040820151606082015260006060830151613a666080840182613977565b50608083015160a083015260a083015160c083015260c0830151613a9560e08401826001600160a01b03169052565b5060e0830151610100613ab2818501836001600160a01b03169052565b808501519150506102206101208181860152613ad2610240860184613999565b90860151909250610140613af0868201836001600160a01b03169052565b80870151915050601f19610160818786030181880152613b1085846139f8565b945080880151925050610180818786030181880152613b2f85846139f8565b9450808801519250506101a08281880152808801519250506101c0818786030181880152613b5d85846139f8565b9450808801519250506101e0818786030181880152613b7c85846139f8565b94508088015192505050610200613b9d818701836001600160a01b03169052565b959095015193019290925250919050565b600080600060608486031215613bc357600080fd5b613bcc846136da565b9250613bda602085016136da565b9150613be8604085016136da565b90509250925092565b60008060008060008060008060a0898b031215613c0d57600080fd5b88356001600160401b0380821115613c2457600080fd5b613c308c838d01613718565b909a50985060208b0135915080821115613c4957600080fd5b613c558c838d016137a4565b909850965060408b0135915080821115613c6e57600080fd5b50613c7b8b828c016137a4565b999c989b509699959896976060870135966080013595509350505050565b60208152600061371160208301846139f8565b634e487b7160e01b600052601160045260246000fd5b808201808211156112f4576112f4613cac565b838152604060208201819052810182905260006001600160fb1b03831115613cfc57600080fd5b8260051b8085606085013791909101606001949350505050565b634e487b7160e01b600052604160045260246000fd5b600181811c90821680613d4057607f821691505b602082108103613d6057634e487b7160e01b600052602260045260246000fd5b50919050565b601f821115613db057600081815260208120601f850160051c81016020861015613d8d5750805b601f850160051c820191505b81811015613dac57828155600101613d99565b5050505b505050565b6001600160401b03831115613dcc57613dcc613d16565b613de083613dda8354613d2c565b83613d66565b6000601f841160018114613e145760008515613dfc5750838201355b600019600387901b1c1916600186901b1783556131cb565b600083815260209020601f19861690835b82811015613e455786850135825560209485019460019092019101613e25565b5086821015613e625760001960f88860031b161c19848701351681555b505060018560011b0183555050505050565b81835281816020850137506000828201602090810191909152601f909101601f19169091010190565b6001600160a01b0386168152606060208201819052600090613ec29083018688613e74565b8281036040840152613ed5818587613e74565b98975050505050505050565b602081016112f48284613977565b60208082526011908201527041726269747261746f72576f726b696e6760781b604082015260600190565b634e487b7160e01b600052603260045260246000fd5b600060018201613f4257613f42613cac565b5060010190565b6000604082018483526020604081850152818551808452606086019150828701935060005b81811015613f8a57845183529383019391830191600101613f6e565b5090979650505050505050565b60008154613fa481613d2c565b808552602060018381168015613fc15760018114613fdb57614009565b60ff1985168884015283151560051b880183019550614009565b866000528260002060005b858110156140015781548a8201860152908301908401613fe6565b890184019650505b505050505092915050565b6001600160a01b038616815260a06020820181905260009061403890830187613f97565b828103604084015261404a8187613f97565b60608401959095525050608001529392505050565b604081526000614073604083018688613e74565b8281036020840152614086818587613e74565b979650505050505050565b6000602082840312156140a357600080fd5b5051919050565b604051608081016001600160401b03811182821017156140cc576140cc613d16565b60405290565b604051606081016001600160401b03811182821017156140cc576140cc613d16565b604051601f8201601f191681016001600160401b038111828210171561411c5761411c613d16565b604052919050565b805163ffffffff811681146136f157600080fd5b80516001600160401b03811681146136f157600080fd5b6000806040838503121561416257600080fd5b8251915060208301516001600160401b038082111561418057600080fd5b908401906080828703121561419457600080fd5b61419c6140aa565b825181526141ac60208401614124565b6020820152604083015160ff811681146141c557600080fd5b60408201526060830151828111156141dc57600080fd5b80840193505086601f8401126141f157600080fd5b82518281111561420357614203613d16565b61421260208260051b016140f4565b8082825260208201915060208360051b87010192508983111561423457600080fd5b602086015b838110156143175780518681111561425057600080fd5b8701601f196060828e038201121561426757600080fd5b61426f6140d2565b60208301518981111561428157600080fd5b8301603f81018f1361429257600080fd5b60208101518a8111156142a7576142a7613d16565b6142b8602085601f840116016140f4565b93508084528f60408284010111156142cf57600080fd5b6142e08160208601604085016139d4565b50508181526142f160408401614138565b602082015261430260608401614124565b60408201528552505060209283019201614239565b506060840152509497909650945050505050565b6001600160401b0381811683821602808216919082811461434e5761434e613cac565b505092915050565b6001600160a01b038816815260a06020820181905260009061437b908301888a613e74565b828103604084015261438e818789613e74565b60608401959095525050608001529594505050505056fe03666b063f075e29b3926eb82a4d1f7746231db3395483f453e477b56531038e41726269747261746f72206e6f74207265676973746572656400000000000000a2646970667358221220ff3add7446bd4b0a8707e55b791d6b41cc8fbf7ccc186fbf79843e58cfd4d00164736f6c63430008140033",
  "linkReferences": {},
  "deployedLinkReferences": {}
}