{
  "_format": "hh-sol-artifact-1",
  "contractName": "ArbitratorManager",
  "sourceName": "contracts/core/ArbitratorManager.sol",
  "abi": [
    {
      "inputs": [],
      "stateMutability": "nonpayable",
      "type": "constructor"
    },
    {
      "inputs": [],
      "name": "InvalidInitialization",
      "type": "error"
    },
    {
      "inputs": [],
      "name": "NotInitializing",
      "type": "error"
    },
    {
      "inputs": [
        {
          "internalType": "address",
          "name": "owner",
          "type": "address"
        }
      ],
      "name": "OwnableInvalidOwner",
      "type": "error"
    },
    {
      "inputs": [
        {
          "internalType": "address",
          "name": "account",
          "type": "address"
        }
      ],
      "name": "OwnableUnauthorizedAccount",
      "type": "error"
    },
    {
      "inputs": [],
      "name": "ReentrancyGuardReentrantCall",
      "type": "error"
    },
    {
      "anonymous": false,
      "inputs": [
        {
          "indexed": true,
          "internalType": "address",
          "name": "arbitrator",
          "type": "address"
        },
        {
          "indexed": false,
          "internalType": "uint256",
          "name": "feeRate",
          "type": "uint256"
        },
        {
          "indexed": false,
          "internalType": "uint256",
          "name": "deadline",
          "type": "uint256"
        }
      ],
      "name": "ArbitratorParamsSet",
      "type": "event"
    },
    {
      "anonymous": false,
      "inputs": [
        {
          "indexed": true,
          "internalType": "address",
          "name": "arbitrator",
          "type": "address"
        }
      ],
      "name": "ArbitratorPaused",
      "type": "event"
    },
    {
      "anonymous": false,
      "inputs": [
        {
          "indexed": true,
          "internalType": "address",
          "name": "arbitrator",
          "type": "address"
        },
        {
          "indexed": true,
          "internalType": "address",
          "name": "operator",
          "type": "address"
        },
        {
          "indexed": false,
          "internalType": "address",
          "name": "revenueAddress",
          "type": "address"
        },
        {
          "indexed": false,
          "internalType": "string",
          "name": "btcAddress",
          "type": "string"
        },
        {
          "indexed": false,
          "internalType": "bytes",
          "name": "btcPubKey",
          "type": "bytes"
        },
        {
          "indexed": false,
          "internalType": "uint256",
          "name": "feeRate",
          "type": "uint256"
        },
        {
          "indexed": false,
          "internalType": "uint256",
          "name": "deadline",
          "type": "uint256"
        }
      ],
      "name": "ArbitratorRegistered",
      "type": "event"
    },
    {
      "anonymous": false,
      "inputs": [
        {
          "indexed": true,
          "internalType": "address",
          "name": "arbitrator",
          "type": "address"
        },
        {
          "indexed": false,
          "internalType": "enum DataTypes.ArbitratorStatus",
          "name": "status",
          "type": "uint8"
        }
      ],
      "name": "ArbitratorStatusChanged",
      "type": "event"
    },
    {
      "anonymous": false,
      "inputs": [
        {
          "indexed": true,
          "internalType": "address",
          "name": "arbitrator",
          "type": "address"
        }
      ],
      "name": "ArbitratorUnpaused",
      "type": "event"
    },
    {
      "anonymous": false,
      "inputs": [
        {
          "indexed": true,
          "internalType": "address",
          "name": "oldManager",
          "type": "address"
        },
        {
          "indexed": true,
          "internalType": "address",
          "name": "newManager",
          "type": "address"
        }
      ],
      "name": "CompensationManagerUpdated",
      "type": "event"
    },
    {
      "anonymous": false,
      "inputs": [
        {
          "indexed": false,
          "internalType": "uint64",
          "name": "version",
          "type": "uint64"
        }
      ],
      "name": "Initialized",
      "type": "event"
    },
    {
      "anonymous": false,
      "inputs": [
        {
          "indexed": true,
          "internalType": "address",
          "name": "transactionManager",
          "type": "address"
        },
        {
          "indexed": true,
          "internalType": "address",
          "name": "compensationManager",
          "type": "address"
        }
      ],
      "name": "InitializedManager",
      "type": "event"
    },
    {
      "anonymous": false,
      "inputs": [
        {
          "indexed": true,
          "internalType": "address",
          "name": "arbitrator",
          "type": "address"
        },
        {
          "indexed": true,
          "internalType": "address",
          "name": "operator",
          "type": "address"
        },
        {
          "indexed": false,
          "internalType": "bytes",
          "name": "btcPubKey",
          "type": "bytes"
        },
        {
          "indexed": false,
          "internalType": "string",
          "name": "btcAddress",
          "type": "string"
        }
      ],
      "name": "OperatorSet",
      "type": "event"
    },
    {
      "anonymous": false,
      "inputs": [
        {
          "indexed": true,
          "internalType": "address",
          "name": "previousOwner",
          "type": "address"
        },
        {
          "indexed": true,
          "internalType": "address",
          "name": "newOwner",
          "type": "address"
        }
      ],
      "name": "OwnershipTransferred",
      "type": "event"
    },
    {
      "anonymous": false,
      "inputs": [
        {
          "indexed": true,
          "internalType": "address",
          "name": "arbitrator",
          "type": "address"
        },
        {
          "indexed": false,
          "internalType": "address",
          "name": "ethAddress",
          "type": "address"
        },
        {
          "indexed": false,
          "internalType": "bytes",
          "name": "btcPubKey",
          "type": "bytes"
        },
        {
          "indexed": false,
          "internalType": "string",
          "name": "btcAddress",
          "type": "string"
        }
      ],
      "name": "RevenueAddressesSet",
      "type": "event"
    },
    {
      "anonymous": false,
      "inputs": [
        {
          "indexed": true,
          "internalType": "address",
          "name": "arbitrator",
          "type": "address"
        },
        {
          "indexed": true,
          "internalType": "address",
          "name": "assetAddress",
          "type": "address"
        },
        {
          "indexed": false,
          "internalType": "uint256",
          "name": "amount",
          "type": "uint256"
        },
        {
          "indexed": false,
          "internalType": "uint256[]",
          "name": "nftTokenIds",
          "type": "uint256[]"
        }
      ],
      "name": "StakeAdded",
      "type": "event"
    },
    {
      "anonymous": false,
      "inputs": [
        {
          "indexed": true,
          "internalType": "address",
          "name": "arbitrator",
          "type": "address"
        },
        {
          "indexed": true,
          "internalType": "address",
          "name": "assetAddress",
          "type": "address"
        },
        {
          "indexed": false,
          "internalType": "uint256",
          "name": "amount",
          "type": "uint256"
        }
      ],
      "name": "StakeWithdrawn",
      "type": "event"
    },
    {
      "anonymous": false,
      "inputs": [
        {
          "indexed": true,
          "internalType": "address",
          "name": "oldManager",
          "type": "address"
        },
        {
          "indexed": true,
          "internalType": "address",
          "name": "newManager",
          "type": "address"
        }
      ],
      "name": "TransactionManagerUpdated",
      "type": "event"
    },
    {
      "inputs": [
        {
          "internalType": "address",
          "name": "arbitrator",
          "type": "address"
        }
      ],
      "name": "canUnStake",
      "outputs": [
        {
          "internalType": "bool",
          "name": "",
          "type": "bool"
        }
      ],
      "stateMutability": "view",
      "type": "function"
    },
    {
      "inputs": [],
      "name": "compensationManager",
      "outputs": [
        {
          "internalType": "address",
          "name": "",
          "type": "address"
        }
      ],
      "stateMutability": "view",
      "type": "function"
    },
    {
      "inputs": [],
      "name": "configManager",
      "outputs": [
        {
          "internalType": "contract ConfigManager",
          "name": "",
          "type": "address"
        }
      ],
      "stateMutability": "view",
      "type": "function"
    },
    {
      "inputs": [
        {
          "internalType": "address",
          "name": "arbitrator",
          "type": "address"
        }
      ],
      "name": "frozenArbitrator",
      "outputs": [],
      "stateMutability": "nonpayable",
      "type": "function"
    },
    {
      "inputs": [
        {
          "internalType": "address",
          "name": "arbitratorAddress",
          "type": "address"
        }
      ],
      "name": "getArbitratorInfo",
      "outputs": [
        {
          "components": [
            {
              "internalType": "address",
              "name": "arbitrator",
              "type": "address"
            },
            {
              "internalType": "uint256",
              "name": "currentFeeRate",
              "type": "uint256"
            },
            {
              "internalType": "uint256",
              "name": "pendingFeeRate",
              "type": "uint256"
            },
            {
              "internalType": "enum DataTypes.ArbitratorStatus",
              "name": "status",
              "type": "uint8"
            },
            {
              "internalType": "bytes32",
              "name": "activeTransactionId",
              "type": "bytes32"
            },
            {
              "internalType": "uint256",
              "name": "ethAmount",
              "type": "uint256"
            },
            {
              "internalType": "address",
              "name": "erc20Token",
              "type": "address"
            },
            {
              "internalType": "address",
              "name": "nftContract",
              "type": "address"
            },
            {
              "internalType": "uint256[]",
              "name": "nftTokenIds",
              "type": "uint256[]"
            },
            {
              "internalType": "address",
              "name": "operator",
              "type": "address"
            },
            {
              "internalType": "bytes",
              "name": "operatorBtcPubKey",
              "type": "bytes"
            },
            {
              "internalType": "string",
              "name": "operatorBtcAddress",
              "type": "string"
            },
            {
              "internalType": "uint256",
              "name": "deadLine",
              "type": "uint256"
            },
            {
              "internalType": "bytes",
              "name": "revenueBtcPubKey",
              "type": "bytes"
            },
            {
              "internalType": "string",
              "name": "revenueBtcAddress",
              "type": "string"
            },
            {
              "internalType": "address",
              "name": "revenueETHAddress",
              "type": "address"
            },
            {
              "internalType": "uint256",
              "name": "lastSubmittedWorkTime",
              "type": "uint256"
            }
          ],
          "internalType": "struct DataTypes.ArbitratorInfo",
          "name": "",
          "type": "tuple"
        }
      ],
      "stateMutability": "view",
      "type": "function"
    },
    {
      "inputs": [
        {
          "internalType": "address",
          "name": "arbitrator",
          "type": "address"
        }
      ],
      "name": "getAvailableStake",
      "outputs": [
        {
          "internalType": "uint256",
          "name": "",
          "type": "uint256"
        }
      ],
      "stateMutability": "view",
      "type": "function"
    },
    {
      "inputs": [
        {
          "internalType": "address",
          "name": "arbitrator",
          "type": "address"
        }
      ],
      "name": "getTotalNFTStakeValue",
      "outputs": [
        {
          "internalType": "uint256",
          "name": "",
          "type": "uint256"
        }
      ],
      "stateMutability": "view",
      "type": "function"
    },
    {
      "inputs": [
        {
          "internalType": "address",
          "name": "_transactionManager",
          "type": "address"
        },
        {
          "internalType": "address",
          "name": "_compensationManager",
          "type": "address"
        }
      ],
      "name": "initTransactionAndCompensationManager",
      "outputs": [],
      "stateMutability": "nonpayable",
      "type": "function"
    },
    {
      "inputs": [
        {
          "internalType": "address",
          "name": "_configManager",
          "type": "address"
        },
        {
          "internalType": "address",
          "name": "_nftContract",
          "type": "address"
        },
        {
          "internalType": "address",
          "name": "_nftInfo",
          "type": "address"
        }
      ],
      "name": "initialize",
      "outputs": [],
      "stateMutability": "nonpayable",
      "type": "function"
    },
    {
      "inputs": [
        {
          "internalType": "address",
          "name": "arbitratorAddress",
          "type": "address"
        }
      ],
      "name": "isActiveArbitrator",
      "outputs": [
        {
          "internalType": "bool",
          "name": "",
          "type": "bool"
        }
      ],
      "stateMutability": "view",
      "type": "function"
    },
    {
      "inputs": [
        {
          "internalType": "address",
          "name": "arbitrator",
          "type": "address"
        },
        {
          "internalType": "address",
          "name": "operator",
          "type": "address"
        }
      ],
      "name": "isOperatorOf",
      "outputs": [
        {
          "internalType": "bool",
          "name": "",
          "type": "bool"
        }
      ],
      "stateMutability": "view",
      "type": "function"
    },
    {
      "inputs": [
        {
          "internalType": "address",
          "name": "arbitrator",
          "type": "address"
        }
      ],
      "name": "isPaused",
      "outputs": [
        {
          "internalType": "bool",
          "name": "",
          "type": "bool"
        }
      ],
      "stateMutability": "view",
      "type": "function"
    },
    {
      "inputs": [],
      "name": "nftContract",
      "outputs": [
        {
          "internalType": "contract IERC721",
          "name": "",
          "type": "address"
        }
      ],
      "stateMutability": "view",
      "type": "function"
    },
    {
      "inputs": [],
      "name": "nftInfo",
      "outputs": [
        {
          "internalType": "contract IBNFTInfo",
          "name": "",
          "type": "address"
        }
      ],
      "stateMutability": "view",
      "type": "function"
    },
    {
      "inputs": [],
      "name": "owner",
      "outputs": [
        {
          "internalType": "address",
          "name": "",
          "type": "address"
        }
      ],
      "stateMutability": "view",
      "type": "function"
    },
    {
      "inputs": [],
      "name": "pause",
      "outputs": [],
      "stateMutability": "nonpayable",
      "type": "function"
    },
    {
      "inputs": [
        {
          "internalType": "string",
          "name": "defaultBtcAddress",
          "type": "string"
        },
        {
          "internalType": "bytes",
          "name": "defaultBtcPubKey",
          "type": "bytes"
        },
        {
          "internalType": "uint256",
          "name": "feeRate",
          "type": "uint256"
        },
        {
          "internalType": "uint256",
          "name": "deadline",
          "type": "uint256"
        }
      ],
      "name": "registerArbitratorByStakeETH",
      "outputs": [],
      "stateMutability": "payable",
      "type": "function"
    },
    {
      "inputs": [
        {
          "internalType": "uint256[]",
          "name": "tokenIds",
          "type": "uint256[]"
        },
        {
          "internalType": "string",
          "name": "defaultBtcAddress",
          "type": "string"
        },
        {
          "internalType": "bytes",
          "name": "defaultBtcPubKey",
          "type": "bytes"
        },
        {
          "internalType": "uint256",
          "name": "feeRate",
          "type": "uint256"
        },
        {
          "internalType": "uint256",
          "name": "deadline",
          "type": "uint256"
        }
      ],
      "name": "registerArbitratorByStakeNFT",
      "outputs": [],
      "stateMutability": "nonpayable",
      "type": "function"
    },
    {
      "inputs": [
        {
          "internalType": "address",
          "name": "arbitrator",
          "type": "address"
        },
        {
          "internalType": "bytes32",
          "name": "transactionId",
          "type": "bytes32"
        }
      ],
      "name": "releaseArbitrator",
      "outputs": [],
      "stateMutability": "nonpayable",
      "type": "function"
    },
    {
      "inputs": [],
      "name": "renounceOwnership",
      "outputs": [],
      "stateMutability": "nonpayable",
      "type": "function"
    },
    {
      "inputs": [
        {
          "internalType": "uint256",
          "name": "feeRate",
          "type": "uint256"
        },
        {
          "internalType": "uint256",
          "name": "deadline",
          "type": "uint256"
        }
      ],
      "name": "setArbitratorParams",
      "outputs": [],
      "stateMutability": "nonpayable",
      "type": "function"
    },
    {
      "inputs": [
        {
          "internalType": "address",
          "name": "arbitrator",
          "type": "address"
        },
        {
          "internalType": "bytes32",
          "name": "transactionId",
          "type": "bytes32"
        }
      ],
      "name": "setArbitratorWorking",
      "outputs": [],
      "stateMutability": "nonpayable",
      "type": "function"
    },
    {
      "inputs": [
        {
          "internalType": "address",
          "name": "_compensationManager",
          "type": "address"
        }
      ],
      "name": "setCompensationManager",
      "outputs": [],
      "stateMutability": "nonpayable",
      "type": "function"
    },
    {
      "inputs": [
        {
          "internalType": "address",
          "name": "operator",
          "type": "address"
        },
        {
          "internalType": "bytes",
          "name": "btcPubKey",
          "type": "bytes"
        },
        {
          "internalType": "string",
          "name": "btcAddress",
          "type": "string"
        }
      ],
      "name": "setOperator",
      "outputs": [],
      "stateMutability": "nonpayable",
      "type": "function"
    },
    {
      "inputs": [
        {
          "internalType": "address",
          "name": "ethAddress",
          "type": "address"
        },
        {
          "internalType": "bytes",
          "name": "btcPubKey",
          "type": "bytes"
        },
        {
          "internalType": "string",
          "name": "btcAddress",
          "type": "string"
        }
      ],
      "name": "setRevenueAddresses",
      "outputs": [],
      "stateMutability": "nonpayable",
      "type": "function"
    },
    {
      "inputs": [
        {
          "internalType": "address",
          "name": "_transactionManager",
          "type": "address"
        }
      ],
      "name": "setTransactionManager",
      "outputs": [],
      "stateMutability": "nonpayable",
      "type": "function"
    },
    {
      "inputs": [],
      "name": "stakeETH",
      "outputs": [],
      "stateMutability": "payable",
      "type": "function"
    },
    {
      "inputs": [
        {
          "internalType": "uint256[]",
          "name": "tokenIds",
          "type": "uint256[]"
        }
      ],
      "name": "stakeNFT",
      "outputs": [],
      "stateMutability": "nonpayable",
      "type": "function"
    },
    {
      "inputs": [
        {
          "internalType": "address",
          "name": "arbitrator",
          "type": "address"
        }
      ],
      "name": "terminateArbitratorWithSlash",
      "outputs": [],
      "stateMutability": "nonpayable",
      "type": "function"
    },
    {
      "inputs": [],
      "name": "transactionManager",
      "outputs": [
        {
          "internalType": "address",
          "name": "",
          "type": "address"
        }
      ],
      "stateMutability": "view",
      "type": "function"
    },
    {
      "inputs": [
        {
          "internalType": "address",
          "name": "newOwner",
          "type": "address"
        }
      ],
      "name": "transferOwnership",
      "outputs": [],
      "stateMutability": "nonpayable",
      "type": "function"
    },
    {
      "inputs": [],
      "name": "unpause",
      "outputs": [],
      "stateMutability": "nonpayable",
      "type": "function"
    },
    {
      "inputs": [],
      "name": "unstake",
      "outputs": [],
      "stateMutability": "nonpayable",
      "type": "function"
    },
    {
      "inputs": [],
      "name": "zeroAddress",
      "outputs": [
        {
          "internalType": "address",
          "name": "",
          "type": "address"
        }
      ],
      "stateMutability": "view",
      "type": "function"
    }
  ],
  "bytecode": "0x60806040523480156200001157600080fd5b506200001c62000022565b620000d6565b7ff0c57e16840df040f15088dc2f81fe391c3923bec73e23a9662efc9c229c6a00805468010000000000000000900460ff1615620000735760405163f92ee8a960e01b815260040160405180910390fd5b80546001600160401b0390811614620000d35780546001600160401b0319166001600160401b0390811782556040519081527fc7f505b2f371ae2175ee4913f4499e1f2633a7b5936321eed1cdaeb6115181d29060200160405180910390a15b50565b61460c80620000e66000396000f3fe6080604052600436106101f95760003560e01c80637cacabef1161010d578063cedb588b116100a0578063dceb986d1161006f578063dceb986d146105c1578063e25268d2146105c9578063e2b4efb8146105e9578063f2fde38b14610609578063f3724d181461062957600080fd5b8063cedb588b14610541578063d2b6f74b14610561578063d3f414e014610581578063d56d229d146105a157600080fd5b8063998b2fd8116100dc578063998b2fd8146104c1578063b553fe1e146104e1578063c0c53b8b14610501578063ca0ab0751461052157600080fd5b80637cacabef146104225780638456cb59146104425780638da5cb5b1461045757806399056c3c1461049457600080fd5b806337e406e9116101905780634476a6601161015f5780634476a6601461038d5780635b14f183146103ad578063654b4e83146103cd5780636a65f2fd146103ed578063715018a61461040d57600080fd5b806337e406e91461031557806339c25e2c146103285780633b716452146103585780633f4ba83a1461037857600080fd5b8063182c5744116101cc578063182c5744146102a057806329a3f203146102c05780632b2d37da146102e05780632def66201461030057600080fd5b80630559b877146101fe5780630930907b1461023b5780630b1fa61c1461025057806314f6b19014610272575b600080fd5b34801561020a57600080fd5b5060055461021e906001600160a01b031681565b6040516001600160a01b0390911681526020015b60405180910390f35b34801561024757600080fd5b5061021e600081565b34801561025c57600080fd5b5061027061026b3660046138a5565b610649565b005b34801561027e57600080fd5b5061029261028d3660046138a5565b6106f4565b604051908152602001610232565b3480156102ac57600080fd5b506102706102bb366004613912565b610730565b3480156102cc57600080fd5b506102706102db366004613994565b61083e565b3480156102ec57600080fd5b506102706102fb366004613a14565b610923565b34801561030c57600080fd5b50610270610ae5565b610270610323366004613a3e565b610e29565b34801561033457600080fd5b50610348610343366004613abb565b610ff5565b6040519015158152602001610232565b34801561036457600080fd5b5060045461021e906001600160a01b031681565b34801561038457600080fd5b5061027061101f565b34801561039957600080fd5b506102706103a83660046138a5565b611137565b3480156103b957600080fd5b506103486103c83660046138a5565b6111d9565b3480156103d957600080fd5b506102706103e8366004613994565b611213565b3480156103f957600080fd5b50610270610408366004613aee565b611348565b34801561041957600080fd5b50610270611583565b34801561042e57600080fd5b5061034861043d3660046138a5565b611597565b34801561044e57600080fd5b5061027061195e565b34801561046357600080fd5b507f9016d09d72d40fdae2fd8ceac6b6234c7706214fd39c1cd1e609a0528c199300546001600160a01b031661021e565b3480156104a057600080fd5b506104b46104af3660046138a5565b611a79565b6040516102329190613bd3565b3480156104cd57600080fd5b506102706104dc3660046138a5565b611e96565b3480156104ed57600080fd5b5060025461021e906001600160a01b031681565b34801561050d57600080fd5b5061027061051c366004613d5d565b612190565b34801561052d57600080fd5b5060005461021e906001600160a01b031681565b34801561054d57600080fd5b5061027061055c366004613a14565b6123bd565b34801561056d57600080fd5b5061027061057c366004613abb565b612506565b34801561058d57600080fd5b5061027061059c3660046138a5565b61265d565b3480156105ad57600080fd5b5060015461021e906001600160a01b031681565b610270612820565b3480156105d557600080fd5b506102926105e43660046138a5565b6128e3565b3480156105f557600080fd5b506103486106043660046138a5565b612a2d565b34801561061557600080fd5b506102706106243660046138a5565b612c43565b34801561063557600080fd5b50610270610644366004613da0565b612c81565b610651612ebd565b6001600160a01b0381166106a257604080518082018252600c81526b5a65726f206164647265737360a01b6020820152905162461bcd60e51b81526106999190600401613e48565b60405180910390fd5b600480546001600160a01b038381166001600160a01b0319831681179093556040519116919082907f960d9803c7ca631d3232d16e9971c7fd8e82d5f7ff7c2824c7b29dcab8a37d2e90600090a35050565b6001600160a01b038116600090815260036020526040812081610716846128e3565b90508082600501546107289190613e71565b949350505050565b600081900361077657604080518082018252600f81526e456d70747920746f6b656e2049447360881b6020820152905162461bcd60e51b81526106999190600401613e48565b33600090815260036020526040902080546001600160a01b03166107cd57604080518082018252601981526000805160206145b78339815191526020820152905162461bcd60e51b81526106999190600401613e48565b60006107d98484612f18565b90506107e6828585613036565b6107f4826005015482613125565b6107fd82613381565b6001546040516001600160a01b039091169033906000805160206145778339815191529061083090859089908990613e84565b60405180910390a350505050565b33600090815260036020526040902080546001600160a01b031661089557604080518082018252601981526000805160206145b78339815191526020820152905162461bcd60e51b81526106999190600401613e48565b600f810180546001600160a01b0319166001600160a01b038816179055600d81016108c1858783613f64565b50600e81016108d1838583613f64565b50336001600160a01b03167f8e68353cf53df77c6b6993341bb1d784fab04f2f38b2c51654b51de6ce32274e878787878760405161091395949392919061404c565b60405180910390a2505050505050565b6004546001600160a01b0316331461097a5760408051808201825260178152762737ba103a3930b739b0b1ba34b7b71036b0b730b3b2b960491b6020820152905162461bcd60e51b81526106999190600401613e48565b600554600160a01b900460ff166109c857604080518082018252600f81526e139bdd081a5b9a5d1a585b1a5e9959608a1b6020820152905162461bcd60e51b81526106999190600401613e48565b6001600160a01b038216600090815260036020526040812090600382015460ff1660048111156109fa576109fa613b10565b14610a4257604080518082018252601581527441726269747261746f72206e6f742061637469766560581b6020820152905162461bcd60e51b81526106999190600401613e48565b600481015415610a9757604080518082018252601a81527f41726269747261746f7220616c726561647920776f726b696e670000000000006020820152905162461bcd60e51b81526106999190600401613e48565b60038101805460ff19166001908117909155600482018390556040516001600160a01b0385169160008051602061459783398151915291610ad89190614090565b60405180910390a2505050565b336000908152600360205260409020600481015415610b165760405162461bcd60e51b81526004016106999061409e565b336000908152600360205260409081902080549151637cacabef60e01b81526001600160a01b039092166004830152903090637cacabef90602401602060405180830381865afa158015610b6e573d6000803e3d6000fd5b505050506040513d601f19601f82011682018060405250810190610b9291906140c9565b610bd657604080518082018252601281527114dd185ad9481cdd1a5b1b081b1bd8dad95960721b6020820152905162461bcd60e51b81526106999190600401613e48565b600081600501541180610bec5750600881015415155b610c225760405162461bcd60e51b81526020600482015260076024820152664e6f5374616b6560c81b6044820152606401610699565b60058101805460009091556003808301805460ff1916909117905560078201546001600160a01b031615801590610c5c5750600882015415155b15610d5a5760005b6008830154811015610d26576001546008840180546001600160a01b03909216916323b872dd91309133919086908110610ca057610ca06140eb565b6000918252602090912001546040516001600160e01b031960e086901b1681526001600160a01b0393841660048201529290911660248301526044820152606401600060405180830381600087803b158015610cfb57600080fd5b505af1158015610d0f573d6000803e3d6000fd5b505050508080610d1e90614101565b915050610c64565b506040805160008152602081019182905251610d46916008850191613829565b506007820180546001600160a01b03191690555b8015610deb57604051600090339083908381818185875af1925050503d8060008114610da2576040519150601f19603f3d011682016040523d82523d6000602084013e610da7565b606091505b5050905080610de95760405162461bcd60e51b815260206004820152600e60248201526d151c985b9cd9995c91985a5b195960921b6044820152606401610699565b505b60405181815260009033907fb7c918e0e249f999e965cafeb6c664271b3f4317d296461500e71da39f0cbda3906020015b60405180910390a3505050565b610e37868686868686613416565b610e42346000613125565b3360009081526003602090815260409182902080548351808501909452601d84527f41726269747261746f7220616c726561647920726567697374657265640000009284019290925291906001600160a01b031615610eb45760405162461bcd60e51b81526004016106999190613e48565b508054336001600160a01b031991821681178355600983018054831682179055600f83018054909216179055600e8101610eef878983613f64565b50600d8101610eff858783613f64565b50600b8101610f0f878983613f64565b50600a8101610f1f858783613f64565b5060018101839055600c8101829055600581018054349190600090610f45908490613e71565b909155505080546040805160008082526020820192839052926001600160a01b03169160008051602061457783398151915291610f849134919061411a565b60405180910390a36009810154600f8201546040516001600160a01b039283169233927f1ab9d0508879cf64270650fc89b30617972d694fd1053946f028860daf125c7c92610fe49290911690600e870190600d8801908a908a906141e5565b60405180910390a350505050505050565b6001600160a01b038281166000908152600360205260409020600901548116908216145b92915050565b3360009081526003602052604090206004810154156110505760405162461bcd60e51b81526004016106999061409e565b33600090815260036020526040902080546001600160a01b03166110a757604080518082018252601981526000805160206145b78339815191526020820152905162461bcd60e51b81526106999190600401613e48565b6002600382015460ff1660048111156110c2576110c2613b10565b146110fc5760405162461bcd60e51b815260206004820152600a6024820152691b9bdd081c185d5cd95960b21b6044820152606401610699565b60038101805460ff1916905560405133907f9f71f687820b75e4208e6fdd2091be151d94465fe4bafd2506bed2b9a430437d90600090a25050565b61113f612ebd565b6001600160a01b03811661118757604080518082018252600c81526b5a65726f206164647265737360a01b6020820152905162461bcd60e51b81526106999190600401613e48565b600580546001600160a01b038381166001600160a01b0319831681179093556040519116919082907fb2de57cf284062a9a3402f8683281c49d5a6747b1f369d0eec883b83503f3c8d90600090a35050565b6001600160a01b03811660009081526003602081905260408220015460029060ff16600481111561120c5761120c613b10565b1492915050565b6001600160a01b03851661125b5760405162461bcd60e51b815260206004820152600f60248201526e24b73b30b634b227b832b930ba37b960891b6044820152606401610699565b33600090815260036020526040902080546001600160a01b03166112b257604080518082018252601981526000805160206145b78339815191526020820152905162461bcd60e51b81526106999190600401613e48565b6009810180546001600160a01b0319166001600160a01b038816179055600a81016112de858783613f64565b50600b81016112ee838583613f64565b50856001600160a01b0316336001600160a01b03167ff920b7832d3774e2ac2efb86fccb411bc92e19a8ea66687764dea93140bdad4a878787876040516113389493929190614230565b60405180910390a3505050505050565b3360009081526003602052604090206004810154156113795760405162461bcd60e51b81526004016106999061409e565b600054604080516325ba6ce560e11b815290516001600160a01b0390921691636dd5b69d918391634b74d9ca916004808201926020929091908290030181865afa1580156113cb573d6000803e3d6000fd5b505050506040513d601f19601f820116820180604052508101906113ef9190614262565b6040518263ffffffff1660e01b815260040161140d91815260200190565b602060405180830381865afa15801561142a573d6000803e3d6000fd5b505050506040513d601f19601f8201168201806040525081019061144e9190614262565b8310156114895760405162461bcd60e51b8152602060048201526009602482015268466565546f6f4c6f7760b81b6044820152606401610699565b81158061149557504282115b6040518060400160405280601081526020016f496e76616c696420646561646c696e6560801b815250906114dc5760405162461bcd60e51b81526004016106999190613e48565b5033600090815260036020526040902080546001600160a01b031661153457604080518082018252601981526000805160206145b78339815191526020820152905162461bcd60e51b81526106999190600401613e48565b60018101849055600c8101839055604080518581526020810185905233917f37a8e1e367daa706c049f32e9f3db5c7f05287d62d178accd3a148a80d4bf01a910160405180910390a250505050565b61158b612ebd565b611595600061361f565b565b6001600160a01b0380821660009081526003602081815260408084208151610220810183528154909616865260018101549286019290925260028201549085015290810154919261193192909190606083019060ff1660048111156115fe576115fe613b10565b600481111561160f5761160f613b10565b81526004820154602080830191909152600583015460408084019190915260068401546001600160a01b039081166060850152600785015416608084015260088401805482518185028101850190935280835260a090940193919290919083018282801561169c57602002820191906000526020600020905b815481526020019060010190808311611688575b505050918352505060098201546001600160a01b03166020820152600a820180546040909201916116cc90613edb565b80601f01602080910402602001604051908101604052809291908181526020018280546116f890613edb565b80156117455780601f1061171a57610100808354040283529160200191611745565b820191906000526020600020905b81548152906001019060200180831161172857829003601f168201915b50505050508152602001600b8201805461175e90613edb565b80601f016020809104026020016040519081016040528092919081815260200182805461178a90613edb565b80156117d75780601f106117ac576101008083540402835291602001916117d7565b820191906000526020600020905b8154815290600101906020018083116117ba57829003601f168201915b50505050508152602001600c8201548152602001600d820180546117fa90613edb565b80601f016020809104026020016040519081016040528092919081815260200182805461182690613edb565b80156118735780601f1061184857610100808354040283529160200191611873565b820191906000526020600020905b81548152906001019060200180831161185657829003601f168201915b50505050508152602001600e8201805461188c90613edb565b80601f01602080910402602001604051908101604052809291908181526020018280546118b890613edb565b80156119055780601f106118da57610100808354040283529160200191611905565b820191906000526020600020905b8154815290600101906020018083116118e857829003601f168201915b5050509183525050600f8201546001600160a01b03166020820152601090910154604090910152613690565b1561193e57506000919050565b506001600160a01b03166000908152600360205260409020600401541590565b33600090815260036020526040902060048101541561198f5760405162461bcd60e51b81526004016106999061409e565b33600090815260036020526040902080546001600160a01b03166119e657604080518082018252601981526000805160206145b78339815191526020820152905162461bcd60e51b81526106999190600401613e48565b6000600382015460ff166004811115611a0157611a01613b10565b14611a3b5760405162461bcd60e51b815260206004820152600a6024820152694e6f742061637469766560b01b6044820152606401610699565b60038101805460ff1916600217905560405133907ff8f74f9bb1ed360c36a0bd59e0d8aa5cbdd15bb6e8e86af871f343daf432be2290600090a25050565b604080516102208101825260008082526020820181905291810182905260608082018390526080820183905260a0820183905260c0820183905260e08201839052610100820181905261012082018390526101408201819052610160820181905261018082018390526101a082018190526101c08201526101e081018290526102008101919091526001600160a01b0380831660009081526003602081815260409283902083516102208101855281549095168552600181015491850191909152600281015492840192909252810154606083019060ff166004811115611b6257611b62613b10565b6004811115611b7357611b73613b10565b81526004820154602080830191909152600583015460408084019190915260068401546001600160a01b039081166060850152600785015416608084015260088401805482518185028101850190935280835260a0909401939192909190830182828015611c0057602002820191906000526020600020905b815481526020019060010190808311611bec575b505050918352505060098201546001600160a01b03166020820152600a82018054604090920191611c3090613edb565b80601f0160208091040260200160405190810160405280929190818152602001828054611c5c90613edb565b8015611ca95780601f10611c7e57610100808354040283529160200191611ca9565b820191906000526020600020905b815481529060010190602001808311611c8c57829003601f168201915b50505050508152602001600b82018054611cc290613edb565b80601f0160208091040260200160405190810160405280929190818152602001828054611cee90613edb565b8015611d3b5780601f10611d1057610100808354040283529160200191611d3b565b820191906000526020600020905b815481529060010190602001808311611d1e57829003601f168201915b50505050508152602001600c8201548152602001600d82018054611d5e90613edb565b80601f0160208091040260200160405190810160405280929190818152602001828054611d8a90613edb565b8015611dd75780601f10611dac57610100808354040283529160200191611dd7565b820191906000526020600020905b815481529060010190602001808311611dba57829003601f168201915b50505050508152602001600e82018054611df090613edb565b80601f0160208091040260200160405190810160405280929190818152602001828054611e1c90613edb565b8015611e695780601f10611e3e57610100808354040283529160200191611e69565b820191906000526020600020905b815481529060010190602001808311611e4c57829003601f168201915b5050509183525050600f8201546001600160a01b0316602082015260109091015460409091015292915050565b6005546001600160a01b03163314611ef357604080518082018252601881527f4e6f7420636f6d70656e736174696f6e206d616e6167657200000000000000006020820152905162461bcd60e51b81526106999190600401613e48565b600554600160a01b900460ff16611f4157604080518082018252600f81526e139bdd081a5b9a5d1a585b1a5e9959608a1b6020820152905162461bcd60e51b81526106999190600401613e48565b6001600160a01b0380821660009081526003602052604090208054909116611f9c57604080518082018252601981526000805160206145b78339815191526020820152905162461bcd60e51b81526106999190600401613e48565b6003818101805460ff19169091179055600581015480156120585760006005838101829055546040516001600160a01b039091169083908381818185875af1925050503d806000811461200b576040519150601f19603f3d011682016040523d82523d6000602084013e612010565b606091505b505090508061205657604080518082018252600f81526e151c985b9cd9995c8819985a5b1959608a1b6020820152905162461bcd60e51b81526106999190600401613e48565b505b60078201546001600160a01b0316158015906120775750600882015415155b156121685760005b60088301548110156121465760078301546005546008850180546001600160a01b03938416936323b872dd933093911691869081106120c0576120c06140eb565b6000918252602090912001546040516001600160e01b031960e086901b1681526001600160a01b0393841660048201529290911660248301526044820152606401600060405180830381600087803b15801561211b57600080fd5b505af115801561212f573d6000803e3d6000fd5b50505050808061213e90614101565b91505061207f565b506040805160008152602081019182905251612166916008850191613829565b505b826001600160a01b03166000805160206145978339815191526003604051610ad89190614090565b7ff0c57e16840df040f15088dc2f81fe391c3923bec73e23a9662efc9c229c6a008054600160401b810460ff1615906001600160401b03166000811580156121d55750825b90506000826001600160401b031660011480156121f15750303b155b9050811580156121ff575080155b1561221d5760405163f92ee8a960e01b815260040160405180910390fd5b845467ffffffffffffffff19166001178555831561224757845460ff60401b1916600160401b1785555b61224f61373f565b6122583361374f565b6001600160a01b0388166122a057604080518082018252600c81526b5a65726f206164647265737360a01b6020820152905162461bcd60e51b81526106999190600401613e48565b6001600160a01b0387166122e857604080518082018252600c81526b5a65726f206164647265737360a01b6020820152905162461bcd60e51b81526106999190600401613e48565b6001600160a01b03861661233057604080518082018252600c81526b5a65726f206164647265737360a01b6020820152905162461bcd60e51b81526106999190600401613e48565b600080546001600160a01b03808b166001600160a01b031992831617909255600180548a8416908316179055600280549289169290911691909117905583156123b357845460ff60401b19168555604051600181527fc7f505b2f371ae2175ee4913f4499e1f2633a7b5936321eed1cdaeb6115181d29060200160405180910390a15b5050505050505050565b6004546001600160a01b031633146124145760408051808201825260178152762737ba103a3930b739b0b1ba34b7b71036b0b730b3b2b960491b6020820152905162461bcd60e51b81526106999190600401613e48565b600554600160a01b900460ff1661246257604080518082018252600f81526e139bdd081a5b9a5d1a585b1a5e9959608a1b6020820152905162461bcd60e51b81526106999190600401613e48565b6001600160a01b0382166000908152600360205260409020600481015482146124c9576040805180820182526016815275125b9d985b1a59081d1c985b9cd858dd1a5bdb88125160521b6020820152905162461bcd60e51b81526106999190600401613e48565b60038101805460ff191690556000600482018190556040516001600160a01b0385169160008051602061459783398151915291610ad89190614090565b61250e612ebd565b600554600160a01b900460ff1615612561576040805180820182526013815272105b1c9958591e481a5b9a5d1a585b1a5e9959606a1b6020820152905162461bcd60e51b81526106999190600401613e48565b6001600160a01b0382166125a957604080518082018252600c81526b5a65726f206164647265737360a01b6020820152905162461bcd60e51b81526106999190600401613e48565b6001600160a01b0381166125f157604080518082018252600c81526b5a65726f206164647265737360a01b6020820152905162461bcd60e51b81526106999190600401613e48565b600480546001600160a01b038085166001600160a01b03199092168217909255600580546001600160a81b03191684841617600160a01b17908190556040519216917f255c9edca3ea4cd6ff3c64c4cd7a5f812c6ae0ca0ae939f85e9e3eb49cdb416f90600090a35050565b6004546001600160a01b031633146126b45760408051808201825260178152762737ba103a3930b739b0b1ba34b7b71036b0b730b3b2b960491b6020820152905162461bcd60e51b81526106999190600401613e48565b600554600160a01b900460ff1661270257604080518082018252600f81526e139bdd081a5b9a5d1a585b1a5e9959608a1b6020820152905162461bcd60e51b81526106999190600401613e48565b6001600160a01b0380821660009081526003602090815260409182902080548351808501909452601984526000805160206145b78339815191529284019290925292166127625760405162461bcd60e51b81526004016106999190613e48565b506001600382015460ff16600481111561277e5761277e613b10565b146040518060400160405280601981526020017f496e76616c69642061726269747261746f722073746174757300000000000000815250906127d35760405162461bcd60e51b81526004016106999190613e48565b5042601082015560038101805460ff191660049081179091556040516001600160a01b03841691600080516020614597833981519152916128149190614090565b60405180910390a25050565b33600090815260036020526040902080546001600160a01b031661287757604080518082018252601981526000805160206145b78339815191526020820152905162461bcd60e51b81526106999190600401613e48565b6000612882336128e3565b905060003483600501546128969190613e71565b6005840181905590506128a98183613125565b82546040805160008082526020820192839052926001600160a01b03169160008051602061457783398151915291610e1c9134919061411a565b6001600160a01b038116600090815260036020526040812081805b6008830154811015612a25576002546008840180546000926001600160a01b03169163d5ec2d839185908110612936576129366140eb565b90600052602060002001546040518263ffffffff1660e01b815260040161295f91815260200190565b600060405180830381865afa15801561297c573d6000803e3d6000fd5b505050506040513d6000823e601f3d908101601f191682016040526129a49190810190614320565b91505060005b816060015151811015612a1057816060015181815181106129cd576129cd6140eb565b6020026020010151602001516402540be4006129e991906144fc565b6129fc906001600160401b031685613e71565b935080612a0881614101565b9150506129aa565b50508080612a1d90614101565b9150506128fe565b509392505050565b6001600160a01b038116600090815260036020526040812081600382015460ff166004811115612a5f57612a5f613b10565b14612a6d5750600092915050565b80600c0154600003612a825750600092915050565b4281600c015411612a965750600092915050565b604080516102208101825282546001600160a01b03168152600183015460208201526002830154918101919091526003820154612ae991908390606083019060ff1660048111156115fe576115fe613b10565b15612af75750600092915050565b60405163014f6b1960e41b81526001600160a01b038416600482015260009030906314f6b19090602401602060405180830381865afa158015612b3e573d6000803e3d6000fd5b505050506040513d601f19601f82011682018060405250810190612b629190614262565b600054604080516332c70ad760e21b815290519293506001600160a01b0390911691636dd5b69d91839163cb1c2b5c916004808201926020929091908290030181865afa158015612bb7573d6000803e3d6000fd5b505050506040513d601f19601f82011682018060405250810190612bdb9190614262565b6040518263ffffffff1660e01b8152600401612bf991815260200190565b602060405180830381865afa158015612c16573d6000803e3d6000fd5b505050506040513d601f19601f82011682018060405250810190612c3a9190614262565b11159392505050565b612c4b612ebd565b6001600160a01b038116612c7557604051631e4fbdf760e01b815260006004820152602401610699565b612c7e8161361f565b50565b612c89613760565b612c97868686868686613416565b6000879003612cdd57604080518082018252600f81526e456d70747920746f6b656e2049447360881b6020820152905162461bcd60e51b81526106999190600401613e48565b3360009081526003602090815260409182902080548351808501909452601d84527f41726269747261746f7220616c726561647920726567697374657265640000009284019290925291906001600160a01b031615612d4f5760405162461bcd60e51b81526004016106999190613e48565b508054336001600160a01b031991821681178355600983018054831682179055600f83018054909216179055600e8101612d8a878983613f64565b50600d8101612d9a858783613f64565b50600b8101612daa878983613f64565b50600a8101612dba858783613f64565b5060018101839055600c81018290556000612dd58a8a612f18565b9050612de2828b8b613036565b612df0826005015482613125565b612df982613381565b6001546040516001600160a01b0390911690339060008051602061457783398151915290612e2c9085908f908f90613e84565b60405180910390a36009820154600f8301546040516001600160a01b039283169233927f1ab9d0508879cf64270650fc89b30617972d694fd1053946f028860daf125c7c92612e8a92909116908d908d908d908d908d908d90614527565b60405180910390a350506123b360017f9b779b17422d0df92223018b32b4d1fa46e071723d6817e2486d003becc55f0055565b33612eef7f9016d09d72d40fdae2fd8ceac6b6234c7706214fd39c1cd1e609a0528c199300546001600160a01b031690565b6001600160a01b0316146115955760405163118cdaa760e01b8152336004820152602401610699565b600080805b83811015612a25576002546000906001600160a01b031663d5ec2d83878785818110612f4b57612f4b6140eb565b905060200201356040518263ffffffff1660e01b8152600401612f7091815260200190565b600060405180830381865afa158015612f8d573d6000803e3d6000fd5b505050506040513d6000823e601f3d908101601f19168201604052612fb59190810190614320565b91505060005b8160600151518110156130215781606001518181518110612fde57612fde6140eb565b6020026020010151602001516402540be400612ffa91906144fc565b61300d906001600160401b031685613e71565b93508061301981614101565b915050612fbb565b5050808061302e90614101565b915050612f1d565b60005b8181101561311f576001546001600160a01b03166323b872dd3330868686818110613066576130666140eb565b6040516001600160e01b031960e088901b1681526001600160a01b03958616600482015294909316602485015250602090910201356044820152606401600060405180830381600087803b1580156130bd57600080fd5b505af11580156130d1573d6000803e3d6000fd5b50505050836008018383838181106130eb576130eb6140eb565b835460018101855560009485526020948590209190940292909201359190920155508061311781614101565b915050613039565b50505050565b60006131318284613e71565b60008054604080516332c70ad760e21b8152905193945091926001600160a01b0390911691636dd5b69d91839163cb1c2b5c9160048083019260209291908290030181865afa158015613188573d6000803e3d6000fd5b505050506040513d601f19601f820116820180604052508101906131ac9190614262565b6040518263ffffffff1660e01b81526004016131ca91815260200190565b602060405180830381865afa1580156131e7573d6000803e3d6000fd5b505050506040513d601f19601f8201168201806040525081019061320b9190614262565b600080546040805163c98517c560e01b8152905193945091926001600160a01b0390911691636dd5b69d91839163c98517c59160048083019260209291908290030181865afa158015613262573d6000803e3d6000fd5b505050506040513d601f19601f820116820180604052508101906132869190614262565b6040518263ffffffff1660e01b81526004016132a491815260200190565b602060405180830381865afa1580156132c1573d6000803e3d6000fd5b505050506040513d601f19601f820116820180604052508101906132e59190614262565b90508183101561332f576040805180820182526012815271496e73756666696369656e74207374616b6560701b6020820152905162461bcd60e51b81526106999190600401613e48565b8083111561337a5760408051808201825260158152745374616b652065786365656473206d6178696d756d60581b6020820152905162461bcd60e51b81526106999190600401613e48565b5050505050565b60078101546001600160a01b03166133ba576001546007820180546001600160a01b0319166001600160a01b0390921691909117905550565b60015460078201546001600160a01b03908116911614612c7e576040805180820182526014815273125b9d985b1a59081391950818dbdb9d1c9858dd60621b6020820152905162461bcd60e51b81526106999190600401613e48565b600085900361345e57604080518082018252601181527024b73b30b634b2103830b930b6b2ba32b960791b6020820152905162461bcd60e51b81526106999190600401613e48565b60008390036134a657604080518082018252601181527024b73b30b634b2103830b930b6b2ba32b960791b6020820152905162461bcd60e51b81526106999190600401613e48565b60008054604080516325ba6ce560e11b815290516001600160a01b0390921691636dd5b69d918391634b74d9ca916004808201926020929091908290030181865afa1580156134f9573d6000803e3d6000fd5b505050506040513d601f19601f8201168201806040525081019061351d9190614262565b6040518263ffffffff1660e01b815260040161353b91815260200190565b602060405180830381865afa158015613558573d6000803e3d6000fd5b505050506040513d601f19601f8201168201806040525081019061357c9190614262565b9050808310156135c457604080518082018252601081526f496e76616c696420666565207261746560801b6020820152905162461bcd60e51b81526106999190600401613e48565b81158015906135d35750428211155b1561361657604080518082018252601081526f496e76616c696420646561646c696e6560801b6020820152905162461bcd60e51b81526106999190600401613e48565b50505050505050565b7f9016d09d72d40fdae2fd8ceac6b6234c7706214fd39c1cd1e609a0528c19930080546001600160a01b031981166001600160a01b03848116918217845560405192169182907f8be0079c531659141344cd1fd0a4f28419497f9722a3daafe3b4186f6b6457e090600090a3505050565b6000805460408051632f672f1960e11b8152905183926001600160a01b031691635ece5e329160048083019260209291908290030181865afa1580156136da573d6000803e3d6000fd5b505050506040513d601f19601f820116820180604052508101906136fe9190614262565b90508261020001516000036137165750600092915050565b42818461020001516137289190613e71565b116137365750600192915050565b50600092915050565b6137476137d0565b611595613819565b6137576137d0565b612c7e81613821565b7f9b779b17422d0df92223018b32b4d1fa46e071723d6817e2486d003becc55f008054600119016137a457604051633ee5aeb560e01b815260040160405180910390fd5b60029055565b60017f9b779b17422d0df92223018b32b4d1fa46e071723d6817e2486d003becc55f0055565b7ff0c57e16840df040f15088dc2f81fe391c3923bec73e23a9662efc9c229c6a0054600160401b900460ff1661159557604051631afcd79f60e31b815260040160405180910390fd5b6137aa6137d0565b612c4b6137d0565b828054828255906000526020600020908101928215613864579160200282015b82811115613864578251825591602001919060010190613849565b50613870929150613874565b5090565b5b808211156138705760008155600101613875565b80356001600160a01b03811681146138a057600080fd5b919050565b6000602082840312156138b757600080fd5b6138c082613889565b9392505050565b60008083601f8401126138d957600080fd5b5081356001600160401b038111156138f057600080fd5b6020830191508360208260051b850101111561390b57600080fd5b9250929050565b6000806020838503121561392557600080fd5b82356001600160401b0381111561393b57600080fd5b613947858286016138c7565b90969095509350505050565b60008083601f84011261396557600080fd5b5081356001600160401b0381111561397c57600080fd5b60208301915083602082850101111561390b57600080fd5b6000806000806000606086880312156139ac57600080fd5b6139b586613889565b945060208601356001600160401b03808211156139d157600080fd5b6139dd89838a01613953565b909650945060408801359150808211156139f657600080fd5b50613a0388828901613953565b969995985093965092949392505050565b60008060408385031215613a2757600080fd5b613a3083613889565b946020939093013593505050565b60008060008060008060808789031215613a5757600080fd5b86356001600160401b0380821115613a6e57600080fd5b613a7a8a838b01613953565b90985096506020890135915080821115613a9357600080fd5b50613aa089828a01613953565b979a9699509760408101359660609091013595509350505050565b60008060408385031215613ace57600080fd5b613ad783613889565b9150613ae560208401613889565b90509250929050565b60008060408385031215613b0157600080fd5b50508035926020909101359150565b634e487b7160e01b600052602160045260246000fd5b60058110613b4457634e487b7160e01b600052602160045260246000fd5b9052565b600081518084526020808501945080840160005b83811015613b7857815187529582019590820190600101613b5c565b509495945050505050565b60005b83811015613b9e578181015183820152602001613b86565b50506000910152565b60008151808452613bbf816020860160208601613b83565b601f01601f19169290920160200192915050565b60208152613bed6020820183516001600160a01b03169052565b602082015160408201526040820151606082015260006060830151613c156080840182613b26565b50608083015160a083015260a083015160c083015260c0830151613c4460e08401826001600160a01b03169052565b5060e0830151610100613c61818501836001600160a01b03169052565b808501519150506102206101208181860152613c81610240860184613b48565b90860151909250610140613c9f868201836001600160a01b03169052565b80870151915050601f19610160818786030181880152613cbf8584613ba7565b945080880151925050610180818786030181880152613cde8584613ba7565b9450808801519250506101a08281880152808801519250506101c0818786030181880152613d0c8584613ba7565b9450808801519250506101e0818786030181880152613d2b8584613ba7565b94508088015192505050610200613d4c818701836001600160a01b03169052565b959095015193019290925250919050565b600080600060608486031215613d7257600080fd5b613d7b84613889565b9250613d8960208501613889565b9150613d9760408501613889565b90509250925092565b60008060008060008060008060a0898b031215613dbc57600080fd5b88356001600160401b0380821115613dd357600080fd5b613ddf8c838d016138c7565b909a50985060208b0135915080821115613df857600080fd5b613e048c838d01613953565b909850965060408b0135915080821115613e1d57600080fd5b50613e2a8b828c01613953565b999c989b509699959896976060870135966080013595509350505050565b6020815260006138c06020830184613ba7565b634e487b7160e01b600052601160045260246000fd5b8082018082111561101957611019613e5b565b838152604060208201819052810182905260006001600160fb1b03831115613eab57600080fd5b8260051b8085606085013791909101606001949350505050565b634e487b7160e01b600052604160045260246000fd5b600181811c90821680613eef57607f821691505b602082108103613f0f57634e487b7160e01b600052602260045260246000fd5b50919050565b601f821115613f5f57600081815260208120601f850160051c81016020861015613f3c5750805b601f850160051c820191505b81811015613f5b57828155600101613f48565b5050505b505050565b6001600160401b03831115613f7b57613f7b613ec5565b613f8f83613f898354613edb565b83613f15565b6000601f841160018114613fc35760008515613fab5750838201355b600019600387901b1c1916600186901b17835561337a565b600083815260209020601f19861690835b82811015613ff45786850135825560209485019460019092019101613fd4565b50868210156140115760001960f88860031b161c19848701351681555b505060018560011b0183555050505050565b81835281816020850137506000828201602090810191909152601f909101601f19169091010190565b6001600160a01b03861681526060602082018190526000906140719083018688614023565b8281036040840152614084818587614023565b98975050505050505050565b602081016110198284613b26565b60208082526011908201527041726269747261746f72576f726b696e6760781b604082015260600190565b6000602082840312156140db57600080fd5b815180151581146138c057600080fd5b634e487b7160e01b600052603260045260246000fd5b60006001820161411357614113613e5b565b5060010190565b6000604082018483526020604081850152818551808452606086019150828701935060005b8181101561415b5784518352938301939183019160010161413f565b5090979650505050505050565b6000815461417581613edb565b80855260206001838116801561419257600181146141ac576141da565b60ff1985168884015283151560051b8801830195506141da565b866000528260002060005b858110156141d25781548a82018601529083019084016141b7565b890184019650505b505050505092915050565b6001600160a01b038616815260a06020820181905260009061420990830187614168565b828103604084015261421b8187614168565b60608401959095525050608001529392505050565b604081526000614244604083018688614023565b8281036020840152614257818587614023565b979650505050505050565b60006020828403121561427457600080fd5b5051919050565b604051608081016001600160401b038111828210171561429d5761429d613ec5565b60405290565b604051606081016001600160401b038111828210171561429d5761429d613ec5565b604051601f8201601f191681016001600160401b03811182821017156142ed576142ed613ec5565b604052919050565b805163ffffffff811681146138a057600080fd5b80516001600160401b03811681146138a057600080fd5b6000806040838503121561433357600080fd5b8251915060208301516001600160401b038082111561435157600080fd5b908401906080828703121561436557600080fd5b61436d61427b565b8251815261437d602084016142f5565b6020820152604083015160ff8116811461439657600080fd5b60408201526060830151828111156143ad57600080fd5b80840193505086601f8401126143c257600080fd5b8251828111156143d4576143d4613ec5565b6143e360208260051b016142c5565b8082825260208201915060208360051b87010192508983111561440557600080fd5b602086015b838110156144e85780518681111561442157600080fd5b8701601f196060828e038201121561443857600080fd5b6144406142a3565b60208301518981111561445257600080fd5b8301603f81018f1361446357600080fd5b60208101518a81111561447857614478613ec5565b614489602085601f840116016142c5565b93508084528f60408284010111156144a057600080fd5b6144b1816020860160408501613b83565b50508181526144c260408401614309565b60208201526144d3606084016142f5565b6040820152855250506020928301920161440a565b506060840152509497909650945050505050565b6001600160401b0381811683821602808216919082811461451f5761451f613e5b565b505092915050565b6001600160a01b038816815260a06020820181905260009061454c908301888a614023565b828103604084015261455f818789614023565b60608401959095525050608001529594505050505056fe03666b063f075e29b3926eb82a4d1f7746231db3395483f453e477b56531038e3a8979d9edd937f82708579234f5915d536a25d9fd31832a26aeb36a4a991c3c41726269747261746f72206e6f74207265676973746572656400000000000000a2646970667358221220f6143c3d3000c669e4e534627c0e500fce7d3659bd4245848afe13a24caf4a3c64736f6c63430008140033",
  "linkReferences": {},
  "deployedLinkReferences": {}
}