{
  "_format": "hh-sol-artifact-1",
  "contractName": "MockSignatureValidationService",
  "sourceName": "contracts/mocks/MockSignatureValidationService.sol",
  "abi": [
    {
      "inputs": [
        {
          "internalType": "bytes32",
          "name": "id",
          "type": "bytes32"
        }
      ],
      "name": "getResult",
      "outputs": [
        {
          "internalType": "bool",
          "name": "verified",
          "type": "bool"
        },
        {
          "internalType": "bytes32",
          "name": "msghash",
          "type": "bytes32"
        },
        {
          "internalType": "bytes",
          "name": "signature",
          "type": "bytes"
        },
        {
          "internalType": "bytes",
          "name": "pubkey",
          "type": "bytes"
        }
      ],
      "stateMutability": "view",
      "type": "function"
    },
    {
      "inputs": [
        {
          "internalType": "bytes32",
          "name": "msghash",
          "type": "bytes32"
        },
        {
          "internalType": "uint8",
          "name": "signType",
          "type": "uint8"
        },
        {
          "internalType": "bytes",
          "name": "signature",
          "type": "bytes"
        },
        {
          "internalType": "bytes",
          "name": "pubkey",
          "type": "bytes"
        }
      ],
      "name": "submit",
      "outputs": [
        {
          "internalType": "bytes32",
          "name": "",
          "type": "bytes32"
        }
      ],
      "stateMutability": "payable",
      "type": "function"
    },
    {
      "inputs": [
        {
          "internalType": "bytes32",
          "name": "msghash",
          "type": "bytes32"
        },
        {
          "internalType": "uint8",
          "name": "signType",
          "type": "uint8"
        },
        {
          "internalType": "bytes",
          "name": "signature",
          "type": "bytes"
        },
        {
          "internalType": "bytes",
          "name": "pubkey",
          "type": "bytes"
        }
      ],
      "name": "submitFailedData",
      "outputs": [
        {
          "internalType": "bytes32",
          "name": "",
          "type": "bytes32"
        }
      ],
      "stateMutability": "payable",
      "type": "function"
    }
  ],
  "bytecode": "0x608060405234801561001057600080fd5b506107d4806100206000396000f3fe6080604052600436106100345760003560e01c8063add4c78414610039578063e3fa537414610072578063f693734b14610093575b600080fd5b34801561004557600080fd5b50610059610054366004610481565b6100a6565b60405161006994939291906104e0565b60405180910390f35b610085610080366004610567565b610238565b604051908152602001610069565b6100856100a1366004610567565b61037b565b600081815260208181526040808320815160a08101835281548152600182015460ff16938101939093526002810180548594606094859487949293909291840191906100f1906105f9565b80601f016020809104026020016040519081016040528092919081815260200182805461011d906105f9565b801561016a5780601f1061013f5761010080835404028352916020019161016a565b820191906000526020600020905b81548152906001019060200180831161014d57829003601f168201915b50505050508152602001600382018054610183906105f9565b80601f01602080910402602001604051908101604052809291908181526020018280546101af906105f9565b80156101fc5780601f106101d1576101008083540402835291602001916101fc565b820191906000526020600020905b8154815290600101906020018083116101df57829003601f168201915b50505091835250506004919091015460ff1615156020909101526080810151815160408301516060909301519199909850919650945092505050565b60008087878787878760405160200161025696959493929190610633565b6040516020818303038152906040528051906020012090506040518060a001604052808981526020018860ff16815260200187878080601f016020809104026020016040519081016040528093929190818152602001838380828437600092019190915250505090825250604080516020601f88018190048102820181019092528681529181019190879087908190840183828082843760009201829052509385525050600160209384018190528583528284526040928390208551815593850151908401805460ff191660ff90921691909117905550820151600282019061033f90826106de565b506060820151600382019061035490826106de565b50608091909101516004909101805460ff1916911515919091179055979650505050505050565b60008087878787878760405160200161039996959493929190610633565b6040516020818303038152906040528051906020012090506040518060a001604052808981526020018860ff16815260200187878080601f016020809104026020016040519081016040528093929190818152602001838380828437600092019190915250505090825250604080516020601f88018190048102820181019092528681529181019190879087908190840183828082843760009201829052509385525050506020918201819052838152808252604090819020835181559183015160018301805460ff191660ff909216919091179055820151600282019061033f90826106de565b60006020828403121561049357600080fd5b5035919050565b6000815180845260005b818110156104c0576020818501810151868301820152016104a4565b506000602082860101526020601f19601f83011685010191505092915050565b8415158152836020820152608060408201526000610501608083018561049a565b8281036060840152610513818561049a565b979650505050505050565b60008083601f84011261053057600080fd5b50813567ffffffffffffffff81111561054857600080fd5b60208301915083602082850101111561056057600080fd5b9250929050565b6000806000806000806080878903121561058057600080fd5b86359550602087013560ff8116811461059857600080fd5b9450604087013567ffffffffffffffff808211156105b557600080fd5b6105c18a838b0161051e565b909650945060608901359150808211156105da57600080fd5b506105e789828a0161051e565b979a9699509497509295939492505050565b600181811c9082168061060d57607f821691505b60208210810361062d57634e487b7160e01b600052602260045260246000fd5b50919050565b86815260f886901b6001600160f81b0319166020820152838560218301376000848201602181016000815284868237506000930160210192835250909695505050505050565b634e487b7160e01b600052604160045260246000fd5b601f8211156106d957600081815260208120601f850160051c810160208610156106b65750805b601f850160051c820191505b818110156106d5578281556001016106c2565b5050505b505050565b815167ffffffffffffffff8111156106f8576106f8610679565b61070c8161070684546105f9565b8461068f565b602080601f83116001811461074157600084156107295750858301515b600019600386901b1c1916600185901b1785556106d5565b600085815260208120601f198616915b8281101561077057888601518255948401946001909101908401610751565b508582101561078e5787850151600019600388901b60f8161c191681555b5050505050600190811b0190555056fea264697066735822122098d66d34f6cbf454242810f7420db5f99cd6c48cec72aae58384666cc5e5cee364736f6c63430008140033",
  "linkReferences": {},
  "deployedLinkReferences": {}
}