{
  "_format": "hh-sol-artifact-1",
  "contractName": "TestBTCUtils",
  "sourceName": "contracts/test/TestBTCUtils.sol",
  "abi": [
    {
      "inputs": [
        {
          "internalType": "bytes",
          "name": "txBytes",
          "type": "bytes"
        }
      ],
      "name": "testParseBTCTransaction",
      "outputs": [
        {
          "components": [
            {
              "internalType": "uint32",
              "name": "version",
              "type": "uint32"
            },
            {
              "components": [
                {
                  "internalType": "bytes32",
                  "name": "txid",
                  "type": "bytes32"
                },
                {
                  "internalType": "uint32",
                  "name": "vout",
                  "type": "uint32"
                },
                {
                  "internalType": "bytes",
                  "name": "scriptSig",
                  "type": "bytes"
                },
                {
                  "internalType": "uint32",
                  "name": "sequence",
                  "type": "uint32"
                }
              ],
              "internalType": "struct BTCUtils.BTCInput[]",
              "name": "inputs",
              "type": "tuple[]"
            },
            {
              "components": [
                {
                  "internalType": "uint64",
                  "name": "value",
                  "type": "uint64"
                },
                {
                  "internalType": "bytes",
                  "name": "scriptPubKey",
                  "type": "bytes"
                }
              ],
              "internalType": "struct BTCUtils.BTCOutput[]",
              "name": "outputs",
              "type": "tuple[]"
            },
            {
              "internalType": "uint32",
              "name": "locktime",
              "type": "uint32"
            },
            {
              "internalType": "bool",
              "name": "hasWitness",
              "type": "bool"
            }
          ],
          "internalType": "struct BTCUtils.BTCTransaction",
          "name": "",
          "type": "tuple"
        }
      ],
      "stateMutability": "pure",
      "type": "function"
    }
  ],
  "bytecode": "0x608060405234801561001057600080fd5b50611336806100206000396000f3fe608060405234801561001057600080fd5b506004361061002b5760003560e01c80633fce492f14610030575b600080fd5b61004361003e366004610f6a565b610059565b6040516100509190611096565b60405180910390f35b610061610f05565b61006b8383610074565b90505b92915050565b61007c610f05565b6000828061008b60048461119c565b11156100d357604080518082018252601781526000805160206112e18339815191526020820152905162461bcd60e51b81526100ca91906004016111af565b60405180910390fd5b8482856100e160048361119c565b926100ee939291906111c2565b6100f7916111ec565b60e01c835261010760048361119c565b9150600080610117878786610280565b811515608088015294509150839050600080610134898985610313565b60208901829052965091508590506000806101508b8b856103f1565b60408b01829052985091508790508515610174576101718b8b8a87516104d1565b97505b83516001146101ae5760405162461bcd60e51b815260206004820152600660248201526503232b13ab3960d51b60448201526064016100ca565b866101ba89600461119c565b11156101f957604080518082018252601781526000805160206112e18339815191526020820152905162461bcd60e51b81526100ca91906004016111af565b8a888b61020782600461119c565b92610214939291906111c2565b61021d916111ec565b60e01c60608a015261023060048961119c565b975086881461027257604080518082018252601781526000805160206112e18339815191526020820152905162461bcd60e51b81526100ca91906004016111af565b505050505050505092915050565b6000818361028f82600261119c565b1161030b5760008585858181106102a8576102a861121c565b919091013560f81c91506000905086866102c387600161119c565b8181106102d2576102d261121c565b919091013560f81c91505060ff82161580156102f1575060ff81166001145b15610308576001935061030560028461119c565b92505b50505b935093915050565b60606000806000610325878787610564565b9092509050610334818661119c565b9250816001600160401b0381111561034e5761034e611232565b60405190808252806020026020018201604052801561038757816020015b610374610f42565b81526020019060019003908161036c5790505b50935060005b828110156103e6576000806103a38a8a886107f4565b91509150818784815181106103ba576103ba61121c565b60209081029190910101526103cf818761119c565b9550505080806103de90611248565b91505061038d565b505050935093915050565b60606000806000610403878787610564565b9092509050610412818661119c565b9250816001600160401b0381111561042c5761042c611232565b60405190808252806020026020018201604052801561047257816020015b60408051808201909152600081526060602082015281526020019060019003908161044a5790505b50935060005b828110156103e65760008061048e8a8a88610a67565b91509150818784815181106104a5576104a561121c565b60209081029190910101526104ba818761119c565b9550505080806104c990611248565b915050610478565b8160005b8281101561055b576000806104eb888886610564565b90925090506104fa818561119c565b935060005b82811015610545576000806105158b8b89610564565b9092509050610524828261119c565b61052e908861119c565b96505050808061053d90611248565b9150506104ff565b505050808061055390611248565b9150506104d5565b50949350505050565b6000808383106105a757604080518082018252601781526000805160206112e18339815191526020820152905162461bcd60e51b81526100ca91906004016111af565b60008585858181106105bb576105bb61121c565b919091013560f81c91505060fc8110156105dd5760ff1691506001905061030b565b60fc1960ff82160161069157846105f585600361119c565b111561063457604080518082018252601781526000805160206112e18339815191526020820152905162461bcd60e51b81526100ca91906004016111af565b61068086868080601f01602080910402602001604051908101604052809392919081815260200183838082843760009201919091525061067b92508891506001905061119c565b610bc6565b61ffff1692506003915061030b9050565b60fd1960ff82160161074757846106a985600561119c565b11156106e857604080518082018252601781526000805160206112e18339815191526020820152905162461bcd60e51b81526100ca91906004016111af565b61073486868080601f01602080910402602001604051908101604052809392919081815260200183838082843760009201919091525061072f92508891506001905061119c565b610c6d565b63ffffffff1692506005915061030b9050565b8461075385600961119c565b111561079257604080518082018252601781526000805160206112e18339815191526020820152905162461bcd60e51b81526100ca91906004016111af565b6107de86868080601f0160208091040260200160405190810160405280939291908181526020018383808284376000920191909152506107d992508891506001905061119c565b610d66565b6001600160401b031692506009915061030b9050565b6107fc610f42565b6000828461080b82602061119c565b111561084a57604080518082018252601781526000805160206112e18339815191526020820152905162461bcd60e51b81526100ca91906004016111af565b85848661085882602061119c565b92610865939291906111c2565b61086e91611261565b835261087b60208561119c565b93508461088985600461119c565b11156108c857604080518082018252601781526000805160206112e18339815191526020820152905162461bcd60e51b81526100ca91906004016111af565b8584866108d682600461119c565b926108e3939291906111c2565b6108ec916111ec565b60e01c60208401526108ff60048561119c565b935060008061090f888888610564565b909250905061091e818761119c565b95508661092b838861119c565b111561096a57604080518082018252601781526000805160206112e18339815191526020820152905162461bcd60e51b81526100ca91906004016111af565b878688610977858361119c565b92610984939291906111c2565b8080601f01602080910402602001604051908101604052809392919081815260200183838082843760009201919091525050505060408601526109c7828761119c565b9550866109d587600461119c565b1115610a1457604080518082018252601781526000805160206112e18339815191526020820152905162461bcd60e51b81526100ca91906004016111af565b878688610a2282600461119c565b92610a2f939291906111c2565b610a38916111ec565b60e01c6060860152610a4b60048761119c565b955084610a58848861127f565b94509450505050935093915050565b60408051808201909152600081526060602082015260008284610a8b82600861119c565b1115610aca57604080518082018252601781526000805160206112e18339815191526020820152905162461bcd60e51b81526100ca91906004016111af565b858486610ad882600861119c565b92610ae5939291906111c2565b610aee91611292565b60c01c8352610afe60088561119c565b9350600080610b0e888888610564565b9092509050610b1d818761119c565b955086610b2a838861119c565b1115610b6957604080518082018252601781526000805160206112e18339815191526020820152905162461bcd60e51b81526100ca91906004016111af565b878688610b76858361119c565b92610b83939291906111c2565b8080601f0160208091040260200160405190810160405280939291908181526020018383808284376000920191909152505050506020860152610a4b828761119c565b8151600090610bd683600261119c565b1115610c225760405162461bcd60e51b815260206004820152602760248201526000805160206112c1833981519152604482015266103ab4b73a189b60c91b60648201526084016100ca565b828281518110610c3457610c3461121c565b016020015160f81c600884610c4a85600161119c565b81518110610c5a57610c5a61121c565b016020015160f81c901b17905092915050565b8151600090610c7d83600461119c565b1115610cc95760405162461bcd60e51b815260206004820152602760248201526000805160206112c1833981519152604482015266103ab4b73a199960c91b60648201526084016100ca565b828281518110610cdb57610cdb61121c565b016020015160f81c600884610cf185600161119c565b81518110610d0157610d0161121c565b016020015160f81c901b601085610d1986600261119c565b81518110610d2957610d2961121c565b016020015160f81c901b601886610d4187600361119c565b81518110610d5157610d5161121c565b016020015160f81c901b171717905092915050565b8151600090610d7683600861119c565b1115610dc25760405162461bcd60e51b815260206004820152602760248201526000805160206112c1833981519152604482015266081d5a5b9d0d8d60ca1b60648201526084016100ca565b828281518110610dd457610dd461121c565b016020015160f81c600884610dea85600161119c565b81518110610dfa57610dfa61121c565b016020015160f81c901b601085610e1286600261119c565b81518110610e2257610e2261121c565b016020015160f81c901b601886610e3a87600361119c565b81518110610e4a57610e4a61121c565b0160209081015160f81c90911b9087610e6488600461119c565b81518110610e7457610e7461121c565b016020015160f81c901b602888610e8c89600561119c565b81518110610e9c57610e9c61121c565b016020015160f81c901b603089610eb48a600661119c565b81518110610ec457610ec461121c565b016020015160f81c901b60388a610edc8b600761119c565b81518110610eec57610eec61121c565b016020015160f81c901b17171717171717905092915050565b6040518060a00160405280600063ffffffff1681526020016060815260200160608152602001600063ffffffff1681526020016000151581525090565b6040805160808101825260008082526020820181905260609282018390529181019190915290565b60008060208385031215610f7d57600080fd5b82356001600160401b0380821115610f9457600080fd5b818501915085601f830112610fa857600080fd5b813581811115610fb757600080fd5b866020828501011115610fc957600080fd5b60209290920196919550909350505050565b6000815180845260005b8181101561100157602081850181015186830182015201610fe5565b506000602082860101526020601f19601f83011685010191505092915050565b600082825180855260208086019550808260051b84010181860160005b8481101561108957858303601f19018952815180516001600160401b03168452840151604085850181905261107581860183610fdb565b9a86019a945050509083019060010161103e565b5090979650505050505050565b6000602080835260c0830163ffffffff808651168386015282860151604060a08188015283825180865260e08901915060e08160051b8a01019550868401935060005b818110156111345760df198a88030183528451608081518952878a830151168a8a01528582015181878b0152611111828b0182610fdb565b6060938401518a169a9093019990995250965093870193918701916001016110d9565b505050870151868403601f190160608801529350611156915082905083611021565b9150506060840151611170608085018263ffffffff169052565b50608084015180151560a0850152509392505050565b634e487b7160e01b600052601160045260246000fd5b8082018082111561006e5761006e611186565b60208152600061006b6020830184610fdb565b600080858511156111d257600080fd5b838611156111df57600080fd5b5050820193919092039150565b6001600160e01b031981358181169160048510156112145780818660040360031b1b83161692505b505092915050565b634e487b7160e01b600052603260045260246000fd5b634e487b7160e01b600052604160045260246000fd5b60006001820161125a5761125a611186565b5060010190565b8035602083101561006e57600019602084900360031b1b1692915050565b8181038181111561006e5761006e611186565b6001600160c01b031981358181169160088510156112145760089490940360031b84901b169092169291505056fe4254435574696c733a20696e73756666696369656e7420627974657320666f72496e76616c696420425443207472616e73616374696f6e000000000000000000a26469706673582212200fcfe6ed6a3d3a82bccf7af741ca14c3e3a81658b0137f308c9b6c5df332c2ad64736f6c63430008140033",
  "linkReferences": {},
  "deployedLinkReferences": {}
}