{
  "_format": "hh-sol-artifact-1",
  "contractName": "TestBTCUtils",
  "sourceName": "contracts/test/TestBTCUtils.sol",
  "abi": [
    {
      "inputs": [
        {
          "internalType": "bytes",
          "name": "txBytes",
          "type": "bytes"
        }
      ],
      "name": "parseBTCTransaction",
      "outputs": [
        {
          "components": [
            {
              "internalType": "uint32",
              "name": "version",
              "type": "uint32"
            },
            {
              "components": [
                {
                  "internalType": "bytes32",
                  "name": "txid",
                  "type": "bytes32"
                },
                {
                  "internalType": "uint32",
                  "name": "vout",
                  "type": "uint32"
                },
                {
                  "internalType": "bytes",
                  "name": "scriptSig",
                  "type": "bytes"
                },
                {
                  "internalType": "uint32",
                  "name": "sequence",
                  "type": "uint32"
                }
              ],
              "internalType": "struct BTCUtils.BTCInput[]",
              "name": "inputs",
              "type": "tuple[]"
            },
            {
              "components": [
                {
                  "internalType": "uint64",
                  "name": "value",
                  "type": "uint64"
                },
                {
                  "internalType": "bytes",
                  "name": "scriptPubKey",
                  "type": "bytes"
                }
              ],
              "internalType": "struct BTCUtils.BTCOutput[]",
              "name": "outputs",
              "type": "tuple[]"
            },
            {
              "internalType": "uint32",
              "name": "locktime",
              "type": "uint32"
            },
            {
              "internalType": "bool",
              "name": "hasWitness",
              "type": "bool"
            }
          ],
          "internalType": "struct BTCUtils.BTCTransaction",
          "name": "",
          "type": "tuple"
        }
      ],
      "stateMutability": "pure",
      "type": "function"
    },
    {
      "inputs": [
        {
          "internalType": "bytes",
          "name": "txBytes",
          "type": "bytes"
        }
      ],
      "name": "testParseBTCTransaction",
      "outputs": [
        {
          "internalType": "bytes",
          "name": "",
          "type": "bytes"
        },
        {
          "internalType": "bytes32",
          "name": "",
          "type": "bytes32"
        }
      ],
      "stateMutability": "pure",
      "type": "function"
    }
  ],
  "bytecode": "0x608060405234801561001057600080fd5b50611de9806100206000396000f3fe608060405234801561001057600080fd5b50600436106100365760003560e01c80633fce492f1461003b578063f64af3d314610065575b600080fd5b61004e610049366004611a04565b610085565b60405161005c929190611ac6565b60405180910390f35b610078610073366004611a04565b610103565b60405161005c9190611b5b565b60606000806100948585610143565b905060006100a18261033c565b905060006002826040516100b59190611c4b565b602060405180830381855afa1580156100d2573d6000803e3d6000fd5b5050506040513d601f19601f820116820180604052508101906100f59190611c67565b919791965090945050505050565b6040805160a081018252600080825260606020830181905292820183905291810182905260808101829052906101398484610143565b9150505b92915050565b6040805160a08101825260008082526060602083018190529282018390529181018290526080810182905290828061017c600484611c96565b11156101bb576040805180820182526002815261543760f01b6020820152905162461bcd60e51b81526101b29190600401611ca9565b60405180910390fd5b6101fc85858080601f016020809104026020016040519081016040528093929190818152602001838380828437600092019190915250869250610a12915050565b63ffffffff16835261020f600483611c96565b915060008061021f878786610afb565b81151560808801529450915083905060008061023c898985610b8e565b60208901829052965091508590506000806102588b8b85610c87565b60408b0182905298509150879050851561027c576102798b8b8a8751610d68565b97505b86610288896004611c96565b11156102be576040805180820182526002815261543760f01b6020820152905162461bcd60e51b81526101b29190600401611ca9565b8a888b6102cc826004611c96565b926102d993929190611cbc565b6102e291611ce6565b60e01c60608a01526102f5600489611c96565b975086881461032e576040805180820182526002815261543760f01b6020820152905162461bcd60e51b81526101b29190600401611ca9565b505050505050505092915050565b6060600060049050610352836020015151610dfb565b61035c9082611c96565b905060005b83602001515181101561039a57610379602883611c96565b9150610386600183611c96565b91508061039281611d16565b915050610361565b506103a9836040015151610dfb565b6103b39082611c96565b905060005b83604001515181101561044b576103d0600883611c96565b91506103fd846040015182815181106103eb576103eb611d2f565b60200260200101516020015151610dfb565b6104079083611c96565b91508360400151818151811061041f5761041f611d2f565b60200260200101516020015151826104379190611c96565b91508061044381611d16565b9150506103b8565b50610457600482611c96565b905060008167ffffffffffffffff81111561047457610474611d45565b6040519080825280601f01601f19166020018201604052801561049e576020820181803683370190505b50845190915060009060e01b815b600481101561051957816104c1826003611d5b565b600481106104d1576104d1611d2f565b1a60f81b846104e08386611c96565b815181106104f0576104f0611d2f565b60200101906001600160f81b031916908160001a9053508061051181611d16565b9150506104ac565b50610525600483611c96565b91506105378660200151518484610e3a565b6105419083611c96565b915060005b8660200151518110156107925760005b60208110156105e6578760200151828151811061057557610575611d2f565b60200260200101516000015181601f61058e9190611d5b565b6020811061059e5761059e611d2f565b1a60f81b856105ad8387611c96565b815181106105bd576105bd611d2f565b60200101906001600160f81b031916908160001a905350806105de81611d16565b915050610556565b506105f2602084611c96565b925060008760200151828151811061060c5761060c611d2f565b60200260200101516020015160e01b905060005b600481101561068d5781610635826003611d5b565b6004811061064557610645611d2f565b1a60f81b866106548388611c96565b8151811061066457610664611d2f565b60200101906001600160f81b031916908160001a9053508061068581611d16565b915050610620565b50610699600485611c96565b9350600060f81b8585815181106106b2576106b2611d2f565b60200101906001600160f81b031916908160001a9053506106d4600185611c96565b93506000886020015183815181106106ee576106ee611d2f565b60200260200101516060015160e01b905060005b600481101561076f5781610717826003611d5b565b6004811061072757610727611d2f565b1a60f81b876107368389611c96565b8151811061074657610746611d2f565b60200101906001600160f81b031916908160001a9053508061076781611d16565b915050610702565b5061077b600486611c96565b94505050808061078a90611d16565b915050610546565b506107a38660400151518484610e3a565b6107ad9083611c96565b915060005b866040015151811015610997576000876040015182815181106107d7576107d7611d2f565b60200260200101516000015160c01b905060005b60088110156108585781610800826007611d5b565b6008811061081057610810611d2f565b1a60f81b8661081f8388611c96565b8151811061082f5761082f611d2f565b60200101906001600160f81b031916908160001a9053508061085081611d16565b9150506107eb565b50610864600885611c96565b93506108938860400151838151811061087f5761087f611d2f565b602002602001015160200151518686610e3a565b61089d9085611c96565b935060005b886040015183815181106108b8576108b8611d2f565b6020026020010151602001515181101561095257886040015183815181106108e2576108e2611d2f565b60200260200101516020015181815181106108ff576108ff611d2f565b01602001516001600160f81b031916866109198388611c96565b8151811061092957610929611d2f565b60200101906001600160f81b031916908160001a9053508061094a81611d16565b9150506108a2565b508760400151828151811061096957610969611d2f565b60200260200101516020015151846109819190611c96565b935050808061098f90611d16565b9150506107b2565b50606086015160e01b60005b6004811015610a06578181600481106109be576109be611d2f565b1a60f81b856109cd8387611c96565b815181106109dd576109dd611d2f565b60200101906001600160f81b031916908160001a905350806109fe81611d16565b9150506109a3565b50929695505050505050565b8151600090610a22836004611c96565b111560405180604001604052806002815260200161553560f01b81525090610a5d5760405162461bcd60e51b81526004016101b29190611ca9565b50828281518110610a7057610a70611d2f565b016020015160f81c600884610a86856001611c96565b81518110610a9657610a96611d2f565b016020015160f81c901b601085610aae866002611c96565b81518110610abe57610abe611d2f565b016020015160f81c901b601886610ad6876003611c96565b81518110610ae657610ae6611d2f565b016020015160f81c901b171717905092915050565b60008183610b0a826002611c96565b11610b86576000858585818110610b2357610b23611d2f565b919091013560f81c9150600090508686610b3e876001611c96565b818110610b4d57610b4d611d2f565b919091013560f81c91505060ff8216158015610b6c575060ff81166001145b15610b835760019350610b80600284611c96565b92505b50505b935093915050565b60606000806000610ba08787876110b7565b9092509050610baf8186611c96565b92508167ffffffffffffffff811115610bca57610bca611d45565b604051908082528060200260200182016040528015610c1d57816020015b60408051608081018252600080825260208083018290526060938301849052928201528252600019909201910181610be85790505b50935060005b82811015610c7c57600080610c398a8a88611324565b9150915081878481518110610c5057610c50611d2f565b6020908102919091010152610c658187611c96565b955050508080610c7490611d16565b915050610c23565b505050935093915050565b60606000806000610c998787876110b7565b9092509050610ca88186611c96565b92508167ffffffffffffffff811115610cc357610cc3611d45565b604051908082528060200260200182016040528015610d0957816020015b604080518082019091526000815260606020820152815260200190600190039081610ce15790505b50935060005b82811015610c7c57600080610d258a8a886115d8565b9150915081878481518110610d3c57610d3c611d2f565b6020908102919091010152610d518187611c96565b955050508080610d6090611d16565b915050610d0f565b8160005b82811015610df257600080610d828888866110b7565b9092509050610d918185611c96565b935060005b82811015610ddc57600080610dac8b8b896110b7565b9092509050610dbb8282611c96565b610dc59088611c96565b965050508080610dd490611d16565b915050610d96565b5050508080610dea90611d16565b915050610d6c565b50949350505050565b600060fc821015610e0e57506001919050565b61ffff8211610e1f57506003919050565b63ffffffff8211610e3257506005919050565b506009919050565b600060fc841015610e7b578360f81b838381518110610e5b57610e5b611d2f565b60200101906001600160f81b031916908160001a905350600190506110b0565b61ffff8411610f355760fd60f81b838381518110610e9b57610e9b611d2f565b60200101906001600160f81b031916908160001a90535060f084901b8060011a60f81b84610eca856001611c96565b81518110610eda57610eda611d2f565b60200101906001600160f81b031916908160001a9053508060001a60f81b84610f04856002611c96565b81518110610f1457610f14611d2f565b60200101906001600160f81b031916908160001a90535060039150506110b0565b63ffffffff8411610ffa5760fe60f81b838381518110610f5757610f57611d2f565b60200101906001600160f81b031916908160001a90535060e084901b60005b6004811015610fef5781610f8b826003611d5b565b60048110610f9b57610f9b611d2f565b1a60f81b8582610fac876001611c96565b610fb69190611c96565b81518110610fc657610fc6611d2f565b60200101906001600160f81b031916908160001a90535080610fe781611d16565b915050610f76565b5060059150506110b0565b60ff60f81b83838151811061101157611011611d2f565b60200101906001600160f81b031916908160001a90535060c084901b60005b60088110156110a95781611045826007611d5b565b6008811061105557611055611d2f565b1a60f81b8582611066876001611c96565b6110709190611c96565b8151811061108057611080611d2f565b60200101906001600160f81b031916908160001a905350806110a181611d16565b915050611030565b5060099150505b9392505050565b6000808383106110f1576040805180820182526002815261543760f01b6020820152905162461bcd60e51b81526101b29190600401611ca9565b600085858581811061110557611105611d2f565b919091013560f81c91505060fc8110156111275760ff16915060019050610b86565b60fc1960ff8216016111d2578461113f856003611c96565b1115611175576040805180820182526002815261543760f01b6020820152905162461bcd60e51b81526101b29190600401611ca9565b6111c186868080601f0160208091040260200160405190810160405280939291908181526020018383808284376000920191909152506111bc925088915060019050611c96565b611749565b61ffff16925060039150610b869050565b60fd1960ff82160161127f57846111ea856005611c96565b1115611220576040805180820182526002815261543760f01b6020820152905162461bcd60e51b81526101b29190600401611ca9565b61126c86868080601f016020809104026020016040519081016040528093929190818152602001838380828437600092019190915250611267925088915060019050611c96565b610a12565b63ffffffff16925060059150610b869050565b8461128b856009611c96565b11156112c1576040805180820182526002815261543760f01b6020820152905162461bcd60e51b81526101b29190600401611ca9565b61130d86868080601f016020809104026020016040519081016040528093929190818152602001838380828437600092019190915250611308925088915060019050611c96565b6117e0565b67ffffffffffffffff16925060099150610b869050565b6040805160808101825260008082526020820181905260609282018390529181019190915260008284611358826020611c96565b111561138e576040805180820182526002815261543760f01b6020820152905162461bcd60e51b81526101b29190600401611ca9565b6113ba86858761139f826020611c96565b926113ac93929190611cbc565b6113b591611d6e565b61196f565b83526113c7602085611c96565b9350846113d5856004611c96565b111561140b576040805180820182526002815261543760f01b6020820152905162461bcd60e51b81526101b29190600401611ca9565b61144c86868080601f016020809104026020016040519081016040528093929190818152602001838380828437600092019190915250889250610a12915050565b63ffffffff166020840152611462600485611c96565b93506000806114728888886110b7565b90925090506114818187611c96565b95508661148e8388611c96565b11156114c4576040805180820182526002815261543760f01b6020820152905162461bcd60e51b81526101b29190600401611ca9565b8786886114d18583611c96565b926114de93929190611cbc565b8080601f01602080910402602001604051908101604052809392919081815260200183838082843760009201919091525050505060408601526115218287611c96565b95508661152f876004611c96565b1115611565576040805180820182526002815261543760f01b6020820152905162461bcd60e51b81526101b29190600401611ca9565b6115a688888080601f0160208091040260200160405190810160405280939291908181526020018383808284376000920191909152508a9250610a12915050565b63ffffffff1660608601526115bc600487611c96565b9550846115c98488611d5b565b94509450505050935093915050565b604080518082019091526000815260606020820152600082846115fc826008611c96565b1115611632576040805180820182526002815261543760f01b6020820152905162461bcd60e51b81526101b29190600401611ca9565b61167386868080601f0160208091040260200160405190810160405280939291908181526020018383808284376000920191909152508892506117e0915050565b67ffffffffffffffff16835261168a600885611c96565b935060008061169a8888886110b7565b90925090506116a98187611c96565b9550866116b68388611c96565b11156116ec576040805180820182526002815261543760f01b6020820152905162461bcd60e51b81526101b29190600401611ca9565b8786886116f98583611c96565b9261170693929190611cbc565b8080601f01602080910402602001604051908101604052809392919081815260200183838082843760009201919091525050505060208601526115bc8287611c96565b8151600090611759836002611c96565b111560405180604001604052806002815260200161154d60f21b815250906117945760405162461bcd60e51b81526004016101b29190611ca9565b508282815181106117a7576117a7611d2f565b016020015160f81c6008846117bd856001611c96565b815181106117cd576117cd611d2f565b016020015160f81c901b17905092915050565b81516000906117f0836008611c96565b1115604051806040016040528060028152602001612a9b60f11b8152509061182b5760405162461bcd60e51b81526004016101b29190611ca9565b5082828151811061183e5761183e611d2f565b016020015160f81c600884611854856001611c96565b8151811061186457611864611d2f565b016020015160f81c901b60108561187c866002611c96565b8151811061188c5761188c611d2f565b016020015160f81c901b6018866118a4876003611c96565b815181106118b4576118b4611d2f565b0160209081015160f81c90911b90876118ce886004611c96565b815181106118de576118de611d2f565b016020015160f81c901b6028886118f6896005611c96565b8151811061190657611906611d2f565b016020015160f81c901b60308961191e8a6006611c96565b8151811061192e5761192e611d2f565b016020015160f81c901b60388a6119468b6007611c96565b8151811061195657611956611d2f565b016020015160f81c901b17171717171717905092915050565b60408051602080825281830190925260009182919060208201818036833701905050905060005b60208110156119fa57836119ab82601f611d5b565b602081106119bb576119bb611d2f565b1a60f81b8282815181106119d1576119d1611d2f565b60200101906001600160f81b031916908160001a905350806119f281611d16565b915050611996565b506110b081611d8c565b60008060208385031215611a1757600080fd5b823567ffffffffffffffff80821115611a2f57600080fd5b818501915085601f830112611a4357600080fd5b813581811115611a5257600080fd5b866020828501011115611a6457600080fd5b60209290920196919550909350505050565b60005b83811015611a91578181015183820152602001611a79565b50506000910152565b60008151808452611ab2816020860160208601611a76565b601f01601f19169290920160200192915050565b604081526000611ad96040830185611a9a565b90508260208301529392505050565b600081518084526020808501808196508360051b8101915082860160005b85811015611b4e5782840389528151805167ffffffffffffffff1685528501516040868601819052611b3a81870183611a9a565b9a87019a9550505090840190600101611b06565b5091979650505050505050565b6000602080835260c0830163ffffffff808651168386015282860151604060a08188015283825180865260e08901915060e08160051b8a01019550868401935060005b81811015611bf95760df198a88030183528451608081518952878a830151168a8a01528582015181878b0152611bd6828b0182611a9a565b6060938401518a169a909301999099525096509387019391870191600101611b9e565b505050870151868403601f190160608801529350611c1b915082905083611ae8565b9150506060840151611c35608085018263ffffffff169052565b50608084015180151560a0850152509392505050565b60008251611c5d818460208701611a76565b9190910192915050565b600060208284031215611c7957600080fd5b5051919050565b634e487b7160e01b600052601160045260246000fd5b8082018082111561013d5761013d611c80565b6020815260006110b06020830184611a9a565b60008085851115611ccc57600080fd5b83861115611cd957600080fd5b5050820193919092039150565b6001600160e01b03198135818116916004851015611d0e5780818660040360031b1b83161692505b505092915050565b600060018201611d2857611d28611c80565b5060010190565b634e487b7160e01b600052603260045260246000fd5b634e487b7160e01b600052604160045260246000fd5b8181038181111561013d5761013d611c80565b8035602083101561013d57600019602084900360031b1b1692915050565b80516020808301519190811015611dad576000198160200360031b1b821691505b5091905056fea26469706673582212202299a5322610fde0b30815c0f6635a87b70e19ef57b4ab5751c9a7654d9fdac964736f6c63430008140033",
  "linkReferences": {},
  "deployedLinkReferences": {}
}