{
  "_format": "hh-sol-artifact-1",
  "contractName": "ArbitratorManager",
  "sourceName": "contracts/core/ArbitratorManager.sol",
  "abi": [
    {
      "inputs": [
        {
          "internalType": "address",
          "name": "_configManager",
          "type": "address"
        },
        {
          "internalType": "address",
          "name": "initialOwner",
          "type": "address"
        },
        {
          "internalType": "address",
          "name": "_nftContract",
          "type": "address"
        },
        {
          "internalType": "address",
          "name": "_nftInfo",
          "type": "address"
        }
      ],
      "stateMutability": "nonpayable",
      "type": "constructor"
    },
    {
      "inputs": [],
      "name": "ALREADY_INITIALIZED",
      "type": "error"
    },
    {
      "inputs": [],
      "name": "ARBITRATOR_ALREADY_WORKING",
      "type": "error"
    },
    {
      "inputs": [],
      "name": "ARBITRATOR_NOT_ACTIVE",
      "type": "error"
    },
    {
      "inputs": [],
      "name": "ARBITRATOR_NOT_REGISTERED",
      "type": "error"
    },
    {
      "inputs": [],
      "name": "ARBITRATOR_NOT_WORKING",
      "type": "error"
    },
    {
      "inputs": [],
      "name": "EMPTY_TOKEN_IDS",
      "type": "error"
    },
    {
      "inputs": [],
      "name": "INSUFFICIENT_STAKE",
      "type": "error"
    },
    {
      "inputs": [],
      "name": "INVALID_NFT_CONTRACT",
      "type": "error"
    },
    {
      "inputs": [],
      "name": "INVALID_TRANSACTION_ID",
      "type": "error"
    },
    {
      "inputs": [],
      "name": "NOT_COMPENSATION_MANAGER",
      "type": "error"
    },
    {
      "inputs": [],
      "name": "NOT_INITIALIZED",
      "type": "error"
    },
    {
      "inputs": [],
      "name": "NOT_TRANSACTION_MANAGER",
      "type": "error"
    },
    {
      "inputs": [
        {
          "internalType": "address",
          "name": "owner",
          "type": "address"
        }
      ],
      "name": "OwnableInvalidOwner",
      "type": "error"
    },
    {
      "inputs": [
        {
          "internalType": "address",
          "name": "account",
          "type": "address"
        }
      ],
      "name": "OwnableUnauthorizedAccount",
      "type": "error"
    },
    {
      "inputs": [],
      "name": "ReentrancyGuardReentrantCall",
      "type": "error"
    },
    {
      "inputs": [],
      "name": "STAKE_EXCEEDS_MAX",
      "type": "error"
    },
    {
      "inputs": [],
      "name": "TRANSFER_FAILED",
      "type": "error"
    },
    {
      "inputs": [],
      "name": "ZERO_ADDRESS",
      "type": "error"
    },
    {
      "anonymous": false,
      "inputs": [
        {
          "indexed": true,
          "internalType": "address",
          "name": "arbitrator",
          "type": "address"
        },
        {
          "indexed": false,
          "internalType": "uint256",
          "name": "feeRate",
          "type": "uint256"
        },
        {
          "indexed": false,
          "internalType": "uint256",
          "name": "deadline",
          "type": "uint256"
        }
      ],
      "name": "ArbitratorParamsSet",
      "type": "event"
    },
    {
      "anonymous": false,
      "inputs": [
        {
          "indexed": true,
          "internalType": "address",
          "name": "arbitrator",
          "type": "address"
        }
      ],
      "name": "ArbitratorPaused",
      "type": "event"
    },
    {
      "anonymous": false,
      "inputs": [
        {
          "indexed": true,
          "internalType": "address",
          "name": "arbitrator",
          "type": "address"
        },
        {
          "indexed": false,
          "internalType": "enum DataTypes.ArbitratorStatus",
          "name": "status",
          "type": "uint8"
        }
      ],
      "name": "ArbitratorStatusChanged",
      "type": "event"
    },
    {
      "anonymous": false,
      "inputs": [
        {
          "indexed": true,
          "internalType": "address",
          "name": "arbitrator",
          "type": "address"
        }
      ],
      "name": "ArbitratorUnpaused",
      "type": "event"
    },
    {
      "anonymous": false,
      "inputs": [
        {
          "indexed": true,
          "internalType": "address",
          "name": "transactionManager",
          "type": "address"
        },
        {
          "indexed": true,
          "internalType": "address",
          "name": "compensationManager",
          "type": "address"
        }
      ],
      "name": "Initialized",
      "type": "event"
    },
    {
      "anonymous": false,
      "inputs": [
        {
          "indexed": true,
          "internalType": "address",
          "name": "arbitrator",
          "type": "address"
        },
        {
          "indexed": true,
          "internalType": "address",
          "name": "operator",
          "type": "address"
        },
        {
          "indexed": false,
          "internalType": "bytes",
          "name": "btcPubKey",
          "type": "bytes"
        },
        {
          "indexed": false,
          "internalType": "string",
          "name": "btcAddress",
          "type": "string"
        }
      ],
      "name": "OperatorSet",
      "type": "event"
    },
    {
      "anonymous": false,
      "inputs": [
        {
          "indexed": true,
          "internalType": "address",
          "name": "previousOwner",
          "type": "address"
        },
        {
          "indexed": true,
          "internalType": "address",
          "name": "newOwner",
          "type": "address"
        }
      ],
      "name": "OwnershipTransferred",
      "type": "event"
    },
    {
      "anonymous": false,
      "inputs": [
        {
          "indexed": true,
          "internalType": "address",
          "name": "arbitrator",
          "type": "address"
        },
        {
          "indexed": false,
          "internalType": "address",
          "name": "ethAddress",
          "type": "address"
        },
        {
          "indexed": false,
          "internalType": "bytes",
          "name": "btcPubKey",
          "type": "bytes"
        },
        {
          "indexed": false,
          "internalType": "string",
          "name": "btcAddress",
          "type": "string"
        }
      ],
      "name": "RevenueAddressesSet",
      "type": "event"
    },
    {
      "anonymous": false,
      "inputs": [
        {
          "indexed": true,
          "internalType": "address",
          "name": "arbitrator",
          "type": "address"
        },
        {
          "indexed": true,
          "internalType": "address",
          "name": "assetAddress",
          "type": "address"
        },
        {
          "indexed": false,
          "internalType": "uint256",
          "name": "amount",
          "type": "uint256"
        }
      ],
      "name": "StakeAdded",
      "type": "event"
    },
    {
      "anonymous": false,
      "inputs": [
        {
          "indexed": true,
          "internalType": "address",
          "name": "arbitrator",
          "type": "address"
        },
        {
          "indexed": true,
          "internalType": "address",
          "name": "assetAddress",
          "type": "address"
        },
        {
          "indexed": false,
          "internalType": "uint256",
          "name": "amount",
          "type": "uint256"
        }
      ],
      "name": "StakeWithdrawn",
      "type": "event"
    },
    {
      "inputs": [
        {
          "internalType": "address",
          "name": "arbitrator",
          "type": "address"
        }
      ],
      "name": "canUnstake",
      "outputs": [
        {
          "internalType": "bool",
          "name": "",
          "type": "bool"
        }
      ],
      "stateMutability": "view",
      "type": "function"
    },
    {
      "inputs": [],
      "name": "compensationManager",
      "outputs": [
        {
          "internalType": "address",
          "name": "",
          "type": "address"
        }
      ],
      "stateMutability": "view",
      "type": "function"
    },
    {
      "inputs": [
        {
          "internalType": "address",
          "name": "arbitratorAddress",
          "type": "address"
        }
      ],
      "name": "getArbitratorInfo",
      "outputs": [
        {
          "components": [
            {
              "internalType": "address",
              "name": "arbitrator",
              "type": "address"
            },
            {
              "internalType": "uint256",
              "name": "currentFeeRate",
              "type": "uint256"
            },
            {
              "internalType": "uint256",
              "name": "pendingFeeRate",
              "type": "uint256"
            },
            {
              "internalType": "enum DataTypes.ArbitratorStatus",
              "name": "status",
              "type": "uint8"
            },
            {
              "internalType": "bytes32",
              "name": "activeTransactionId",
              "type": "bytes32"
            },
            {
              "internalType": "uint256",
              "name": "ethAmount",
              "type": "uint256"
            },
            {
              "internalType": "address",
              "name": "erc20Token",
              "type": "address"
            },
            {
              "internalType": "address",
              "name": "nftContract",
              "type": "address"
            },
            {
              "internalType": "uint256[]",
              "name": "nftTokenIds",
              "type": "uint256[]"
            },
            {
              "internalType": "address",
              "name": "operator",
              "type": "address"
            },
            {
              "internalType": "bytes",
              "name": "operatorBtcPubKey",
              "type": "bytes"
            },
            {
              "internalType": "string",
              "name": "operatorBtcAddress",
              "type": "string"
            },
            {
              "internalType": "uint256",
              "name": "lastArbitrationTime",
              "type": "uint256"
            }
          ],
          "internalType": "struct DataTypes.ArbitratorInfo",
          "name": "",
          "type": "tuple"
        }
      ],
      "stateMutability": "view",
      "type": "function"
    },
    {
      "inputs": [
        {
          "internalType": "address",
          "name": "arbitrator",
          "type": "address"
        }
      ],
      "name": "getAvailableStake",
      "outputs": [
        {
          "internalType": "uint256",
          "name": "",
          "type": "uint256"
        }
      ],
      "stateMutability": "view",
      "type": "function"
    },
    {
      "inputs": [
        {
          "internalType": "address",
          "name": "arbitrator",
          "type": "address"
        }
      ],
      "name": "getTotalNFTStakeValue",
      "outputs": [
        {
          "internalType": "uint256",
          "name": "",
          "type": "uint256"
        }
      ],
      "stateMutability": "view",
      "type": "function"
    },
    {
      "inputs": [
        {
          "internalType": "address",
          "name": "_transactionManager",
          "type": "address"
        },
        {
          "internalType": "address",
          "name": "_compensationManager",
          "type": "address"
        }
      ],
      "name": "initialize",
      "outputs": [],
      "stateMutability": "nonpayable",
      "type": "function"
    },
    {
      "inputs": [
        {
          "internalType": "address",
          "name": "arbitratorAddress",
          "type": "address"
        }
      ],
      "name": "isActiveArbitrator",
      "outputs": [
        {
          "internalType": "bool",
          "name": "",
          "type": "bool"
        }
      ],
      "stateMutability": "view",
      "type": "function"
    },
    {
      "inputs": [
        {
          "internalType": "address",
          "name": "arbitrator",
          "type": "address"
        },
        {
          "internalType": "address",
          "name": "operator",
          "type": "address"
        }
      ],
      "name": "isOperatorOf",
      "outputs": [
        {
          "internalType": "bool",
          "name": "",
          "type": "bool"
        }
      ],
      "stateMutability": "view",
      "type": "function"
    },
    {
      "inputs": [
        {
          "internalType": "address",
          "name": "arbitrator",
          "type": "address"
        }
      ],
      "name": "isPaused",
      "outputs": [
        {
          "internalType": "bool",
          "name": "",
          "type": "bool"
        }
      ],
      "stateMutability": "view",
      "type": "function"
    },
    {
      "inputs": [],
      "name": "nftContract",
      "outputs": [
        {
          "internalType": "contract IERC721",
          "name": "",
          "type": "address"
        }
      ],
      "stateMutability": "view",
      "type": "function"
    },
    {
      "inputs": [],
      "name": "nftInfo",
      "outputs": [
        {
          "internalType": "contract IBNFTInfo",
          "name": "",
          "type": "address"
        }
      ],
      "stateMutability": "view",
      "type": "function"
    },
    {
      "inputs": [],
      "name": "owner",
      "outputs": [
        {
          "internalType": "address",
          "name": "",
          "type": "address"
        }
      ],
      "stateMutability": "view",
      "type": "function"
    },
    {
      "inputs": [],
      "name": "pause",
      "outputs": [],
      "stateMutability": "nonpayable",
      "type": "function"
    },
    {
      "inputs": [
        {
          "internalType": "address",
          "name": "arbitrator",
          "type": "address"
        },
        {
          "internalType": "bytes32",
          "name": "transactionId",
          "type": "bytes32"
        }
      ],
      "name": "releaseArbitrator",
      "outputs": [],
      "stateMutability": "nonpayable",
      "type": "function"
    },
    {
      "inputs": [],
      "name": "renounceOwnership",
      "outputs": [],
      "stateMutability": "nonpayable",
      "type": "function"
    },
    {
      "inputs": [
        {
          "internalType": "uint256",
          "name": "feeRate",
          "type": "uint256"
        },
        {
          "internalType": "uint256",
          "name": "deadline",
          "type": "uint256"
        }
      ],
      "name": "setArbitratorParams",
      "outputs": [],
      "stateMutability": "nonpayable",
      "type": "function"
    },
    {
      "inputs": [
        {
          "internalType": "address",
          "name": "arbitrator",
          "type": "address"
        },
        {
          "internalType": "bytes32",
          "name": "transactionId",
          "type": "bytes32"
        }
      ],
      "name": "setArbitratorWorking",
      "outputs": [],
      "stateMutability": "nonpayable",
      "type": "function"
    },
    {
      "inputs": [
        {
          "internalType": "address",
          "name": "operator",
          "type": "address"
        },
        {
          "internalType": "bytes",
          "name": "btcPubKey",
          "type": "bytes"
        },
        {
          "internalType": "string",
          "name": "btcAddress",
          "type": "string"
        }
      ],
      "name": "setOperator",
      "outputs": [],
      "stateMutability": "nonpayable",
      "type": "function"
    },
    {
      "inputs": [
        {
          "internalType": "address",
          "name": "ethAddress",
          "type": "address"
        },
        {
          "internalType": "bytes",
          "name": "btcPubKey",
          "type": "bytes"
        },
        {
          "internalType": "string",
          "name": "btcAddress",
          "type": "string"
        }
      ],
      "name": "setRevenueAddresses",
      "outputs": [],
      "stateMutability": "nonpayable",
      "type": "function"
    },
    {
      "inputs": [],
      "name": "stakeETH",
      "outputs": [],
      "stateMutability": "payable",
      "type": "function"
    },
    {
      "inputs": [
        {
          "internalType": "uint256[]",
          "name": "tokenIds",
          "type": "uint256[]"
        }
      ],
      "name": "stakeNFT",
      "outputs": [],
      "stateMutability": "nonpayable",
      "type": "function"
    },
    {
      "inputs": [
        {
          "internalType": "address",
          "name": "arbitrator",
          "type": "address"
        }
      ],
      "name": "terminateArbitratorWithSlash",
      "outputs": [],
      "stateMutability": "nonpayable",
      "type": "function"
    },
    {
      "inputs": [],
      "name": "transactionManager",
      "outputs": [
        {
          "internalType": "address",
          "name": "",
          "type": "address"
        }
      ],
      "stateMutability": "view",
      "type": "function"
    },
    {
      "inputs": [
        {
          "internalType": "address",
          "name": "newOwner",
          "type": "address"
        }
      ],
      "name": "transferOwnership",
      "outputs": [],
      "stateMutability": "nonpayable",
      "type": "function"
    },
    {
      "inputs": [],
      "name": "unpause",
      "outputs": [],
      "stateMutability": "nonpayable",
      "type": "function"
    },
    {
      "inputs": [],
      "name": "unstake",
      "outputs": [],
      "stateMutability": "nonpayable",
      "type": "function"
    },
    {
      "inputs": [],
      "name": "zeroAddress",
      "outputs": [
        {
          "internalType": "address",
          "name": "",
          "type": "address"
        }
      ],
      "stateMutability": "view",
      "type": "function"
    }
  ],
  "bytecode": "0x60a06040523480156200001157600080fd5b5060405162002eb138038062002eb1833981016040819052620000349162000195565b6001600055826001600160a01b0381166200006957604051631e4fbdf760e01b81526000600482015260240160405180910390fd5b620000748162000126565b506001600160a01b0384166200009d5760405163538ba4f960e01b815260040160405180910390fd5b6001600160a01b038216620000c55760405163538ba4f960e01b815260040160405180910390fd5b6001600160a01b038116620000ed5760405163538ba4f960e01b815260040160405180910390fd5b6001600160a01b03938416608052600280549285166001600160a01b0319938416179055600380549190941691161790915550620001f2565b600180546001600160a01b038381166001600160a01b0319831681179093556040519116919082907f8be0079c531659141344cd1fd0a4f28419497f9722a3daafe3b4186f6b6457e090600090a35050565b80516001600160a01b03811681146200019057600080fd5b919050565b60008060008060808587031215620001ac57600080fd5b620001b78562000178565b9350620001c76020860162000178565b9250620001d76040860162000178565b9150620001e76060860162000178565b905092959194509250565b608051612c566200025b600039600081816107b4015281816107e3015281816108c8015281816108f7015281816112c5015281816112f401528181611ca401528181611cd301528181611db801528181611de7015281816120de015261210d0152612c566000f3fe60806040526004361061019c5760003560e01c80636a65f2fd116100ec578063b553fe1e1161008a578063dceb986d11610064578063dceb986d146104ad578063e25268d2146104b5578063e2b4efb8146104d5578063f2fde38b146104f557600080fd5b8063b553fe1e1461044d578063cedb588b1461046d578063d56d229d1461048d57600080fd5b806385f4498b116100c657806385f4498b146103a75780638da5cb5b146103e257806399056c3c14610400578063998b2fd81461042d57600080fd5b80636a65f2fd1461035d578063715018a61461037d5780638456cb591461039257600080fd5b80632def6620116101595780633f4ba83a116101335780633f4ba83a146102e8578063485cc955146102fd5780635b14f1831461031d578063654b4e831461033d57600080fd5b80632def66201461028357806339c25e2c146102985780633b716452146102c857600080fd5b80630559b877146101a15780630930907b146101de57806314f6b190146101f3578063182c57441461022157806329a3f203146102435780632b2d37da14610263575b600080fd5b3480156101ad57600080fd5b506006546101c1906001600160a01b031681565b6040516001600160a01b0390911681526020015b60405180910390f35b3480156101ea57600080fd5b506101c1600081565b3480156101ff57600080fd5b5061021361020e36600461232f565b610515565b6040519081526020016101d5565b34801561022d57600080fd5b5061024161023c366004612351565b610551565b005b34801561024f57600080fd5b5061024161025e36600461240f565b610ad5565b34801561026f57600080fd5b5061024161027e366004612490565b610b7d565b34801561028f57600080fd5b50610241610ca5565b3480156102a457600080fd5b506102b86102b33660046124ba565b610f31565b60405190151581526020016101d5565b3480156102d457600080fd5b506005546101c1906001600160a01b031681565b3480156102f457600080fd5b50610241610f5b565b34801561030957600080fd5b506102416103183660046124ba565b611055565b34801561032957600080fd5b506102b861033836600461232f565b61113f565b34801561034957600080fd5b5061024161035836600461240f565b61117b565b34801561036957600080fd5b506102416103783660046124ed565b611290565b34801561038957600080fd5b506102416114de565b34801561039e57600080fd5b506102416114f2565b3480156103b357600080fd5b506102b86103c236600461232f565b6001600160a01b0316600090815260046020819052604090912001541590565b3480156103ee57600080fd5b506001546001600160a01b03166101c1565b34801561040c57600080fd5b5061042061041b36600461232f565b6115ef565b6040516101d591906125d2565b34801561043957600080fd5b5061024161044836600461232f565b6118af565b34801561045957600080fd5b506003546101c1906001600160a01b031681565b34801561047957600080fd5b50610241610488366004612490565b611b22565b34801561049957600080fd5b506002546101c1906001600160a01b031681565b610241611c3b565b3480156104c157600080fd5b506102136104d036600461232f565b611f3f565b3480156104e157600080fd5b506102b86104f036600461232f565b61207b565b34801561050157600080fd5b5061024161051036600461232f565b6121f6565b6001600160a01b03811660009081526004602052604081208161053784611f3f565b90508082600501546105499190612707565b949350505050565b600081900361057357604051630b72e1b360e21b815260040160405180910390fd5b33600090815260046020526040902080546001600160a01b03166105a25780546001600160a01b031916331781555b6000805b838110156106b1576003546000906001600160a01b031663d5ec2d838787858181106105d4576105d461271a565b905060200201356040518263ffffffff1660e01b81526004016105f991815260200190565b600060405180830381865afa158015610616573d6000803e3d6000fd5b505050506040513d6000823e601f3d908101601f1916820160405261063e91908101906127ef565b91505060005b81606001515181101561069c57816060015181815181106106675761066761271a565b60200260200101516020015167ffffffffffffffff16846106889190612707565b935080610694816129cc565b915050610644565b505080806106a9906129cc565b9150506105a6565b5060005b8381101561079b576002546001600160a01b03166323b872dd33308888868181106106e2576106e261271a565b6040516001600160e01b031960e088901b1681526001600160a01b03958616600482015294909316602485015250602090910201356044820152606401600060405180830381600087803b15801561073957600080fd5b505af115801561074d573d6000803e3d6000fd5b50505050826008018585838181106107675761076761271a565b8354600181018555600094855260209485902091909402929092013591909201555080610793816129cc565b9150506106b5565b5060008183600501546107ae9190612707565b905060007f00000000000000000000000000000000000000000000000000000000000000006001600160a01b0316636dd5b69d7f00000000000000000000000000000000000000000000000000000000000000006001600160a01b031663cb1c2b5c6040518163ffffffff1660e01b8152600401602060405180830381865afa15801561083f573d6000803e3d6000fd5b505050506040513d601f19601f8201168201806040525081019061086391906129e5565b6040518263ffffffff1660e01b815260040161088191815260200190565b602060405180830381865afa15801561089e573d6000803e3d6000fd5b505050506040513d601f19601f820116820180604052508101906108c291906129e5565b905060007f00000000000000000000000000000000000000000000000000000000000000006001600160a01b0316636dd5b69d7f00000000000000000000000000000000000000000000000000000000000000006001600160a01b031663c98517c56040518163ffffffff1660e01b8152600401602060405180830381865afa158015610953573d6000803e3d6000fd5b505050506040513d601f19601f8201168201806040525081019061097791906129e5565b6040518263ffffffff1660e01b815260040161099591815260200190565b602060405180830381865afa1580156109b2573d6000803e3d6000fd5b505050506040513d601f19601f820116820180604052508101906109d691906129e5565b9050818310156109f95760405163379e1d0760e01b815260040160405180910390fd5b80831115610a1a576040516339ff922560e11b815260040160405180910390fd5b60078501546001600160a01b0316610a55576002546007860180546001600160a01b0319166001600160a01b03909216919091179055610a88565b60025460078601546001600160a01b03908116911614610a88576040516312372a3960e01b815260040160405180910390fd5b6002546040518581526001600160a01b039091169033907ffb8efd70c9f0ca009bfc9f2ca8a9256a5aefbc720bdb8d838e4bcd42c241b9eb9060200160405180910390a350505050505050565b33600090815260046020526040902080546001600160a01b0316610b0c57604051634381b6c160e11b815260040160405180910390fd5b600a8101610b1b858783612a87565b50600b8101610b2b838583612a87565b50336001600160a01b03167f8e68353cf53df77c6b6993341bb1d784fab04f2f38b2c51654b51de6ce32274e8787878787604051610b6d959493929190612b71565b60405180910390a2505050505050565b6005546001600160a01b03163314610ba857604051631a4273c160e01b815260040160405180910390fd5b600654600160a01b900460ff16610bd257604051630f68fe6360e21b815260040160405180910390fd5b6001600160a01b03821660009081526004602052604081209060038083015460ff1690811115610c0457610c0461250f565b14610c225760405163689b992760e01b815260040160405180910390fd5b600481015415610c4557604051630f58271760e01b815260040160405180910390fd5b60038101805460ff19166001908117909155600482018390556040516001600160a01b038516917f3a8979d9edd937f82708579234f5915d536a25d9fd31832a26aeb36a4a991c3c91610c989190612bb5565b60405180910390a2505050565b3360009081526004602081905260409091209081015415610ce15760405162461bcd60e51b8152600401610cd890612bc3565b60405180910390fd5b3360009081526004602052604090206005810154151580610d055750600881015415155b610d3b5760405162461bcd60e51b81526020600482015260076024820152664e6f5374616b6560c81b6044820152606401610cd8565b600581018054600090915560078201546001600160a01b031615801590610d655750600882015415155b15610e635760005b6008830154811015610e2f576002546008840180546001600160a01b03909216916323b872dd91309133919086908110610da957610da961271a565b6000918252602090912001546040516001600160e01b031960e086901b1681526001600160a01b0393841660048201529290911660248301526044820152606401600060405180830381600087803b158015610e0457600080fd5b505af1158015610e18573d6000803e3d6000fd5b505050508080610e27906129cc565b915050610d6d565b506040805160008152602081019182905251610e4f9160088501916122b3565b506007820180546001600160a01b03191690555b8015610ef457604051600090339083908381818185875af1925050503d8060008114610eab576040519150601f19603f3d011682016040523d82523d6000602084013e610eb0565b606091505b5050905080610ef25760405162461bcd60e51b815260206004820152600e60248201526d151c985b9cd9995c91985a5b195960921b6044820152606401610cd8565b505b60405181815260009033907fb7c918e0e249f999e965cafeb6c664271b3f4317d296461500e71da39f0cbda39060200160405180910390a3505050565b6001600160a01b038281166000908152600460205260409020600901548116908216145b92915050565b3360009081526004602081905260409091209081015415610f8e5760405162461bcd60e51b8152600401610cd890612bc3565b33600090815260046020526040902080546001600160a01b0316610fc557604051634381b6c160e11b815260040160405180910390fd5b600260038083015460ff1690811115610fe057610fe061250f565b1461101a5760405162461bcd60e51b815260206004820152600a6024820152691b9bdd081c185d5cd95960b21b6044820152606401610cd8565b60038101805460ff1916905560405133907f9f71f687820b75e4208e6fdd2091be151d94465fe4bafd2506bed2b9a430437d90600090a25050565b61105d612234565b600654600160a01b900460ff16156110885760405163439a74c960e01b815260040160405180910390fd5b6001600160a01b0382166110af5760405163538ba4f960e01b815260040160405180910390fd5b6001600160a01b0381166110d65760405163538ba4f960e01b815260040160405180910390fd5b600580546001600160a01b038085166001600160a01b03199092168217909255600680546001600160a81b031916928416928317600160a01b1790556040517f3cd5ec01b1ae7cfec6ca1863e2cd6aa25d6d1702825803ff2b7cc95010fffdc290600090a35050565b600060026001600160a01b038316600090815260046020526040902060039081015460ff16908111156111745761117461250f565b1492915050565b6001600160a01b0385166111c35760405162461bcd60e51b815260206004820152600f60248201526e24b73b30b634b227b832b930ba37b960891b6044820152606401610cd8565b33600090815260046020526040902080546001600160a01b03166111fa57604051634381b6c160e11b815260040160405180910390fd5b6009810180546001600160a01b0319166001600160a01b038816179055600a8101611226858783612a87565b50600b8101611236838583612a87565b50856001600160a01b0316336001600160a01b03167ff920b7832d3774e2ac2efb86fccb411bc92e19a8ea66687764dea93140bdad4a878787876040516112809493929190612bee565b60405180910390a3505050505050565b33600090815260046020819052604090912090810154156112c35760405162461bcd60e51b8152600401610cd890612bc3565b7f00000000000000000000000000000000000000000000000000000000000000006001600160a01b0316636dd5b69d7f00000000000000000000000000000000000000000000000000000000000000006001600160a01b0316634b74d9ca6040518163ffffffff1660e01b8152600401602060405180830381865afa158015611350573d6000803e3d6000fd5b505050506040513d601f19601f8201168201806040525081019061137491906129e5565b6040518263ffffffff1660e01b815260040161139291815260200190565b602060405180830381865afa1580156113af573d6000803e3d6000fd5b505050506040513d601f19601f820116820180604052508101906113d391906129e5565b83101561140e5760405162461bcd60e51b8152602060048201526009602482015268466565546f6f4c6f7760b81b6044820152606401610cd8565b81158061141a57504282115b6114585760405162461bcd60e51b815260206004820152600f60248201526e496e76616c6964446561646c696e6560881b6044820152606401610cd8565b33600090815260046020526040902080546001600160a01b031661148f57604051634381b6c160e11b815260040160405180910390fd5b60018101849055600c8101839055604080518581526020810185905233917f37a8e1e367daa706c049f32e9f3db5c7f05287d62d178accd3a148a80d4bf01a910160405180910390a250505050565b6114e6612234565b6114f06000612261565b565b33600090815260046020819052604090912090810154156115255760405162461bcd60e51b8152600401610cd890612bc3565b33600090815260046020526040902080546001600160a01b031661155c57604051634381b6c160e11b815260040160405180910390fd5b600060038083015460ff16908111156115775761157761250f565b146115b15760405162461bcd60e51b815260206004820152600a6024820152694e6f742061637469766560b01b6044820152606401610cd8565b60038101805460ff1916600217905560405133907ff8f74f9bb1ed360c36a0bd59e0d8aa5cbdd15bb6e8e86af871f343daf432be2290600090a25050565b604080516101a08101825260008082526020820181905291810182905260608082018390526080820183905260a0820183905260c0820183905260e082018390526101008201819052610120820183905261014082018190526101608201526101808101919091526001600160a01b0380831660009081526004602090815260409182902082516101a08101845281549094168452600181015491840191909152600281015491830191909152600380820154606084019160ff909116908111156116bc576116bc61250f565b60038111156116cd576116cd61250f565b81526004820154602080830191909152600583015460408084019190915260068401546001600160a01b039081166060850152600785015416608084015260088401805482518185028101850190935280835260a090940193919290919083018282801561175a57602002820191906000526020600020905b815481526020019060010190808311611746575b505050918352505060098201546001600160a01b03166020820152600a8201805460409092019161178a906129fe565b80601f01602080910402602001604051908101604052809291908181526020018280546117b6906129fe565b80156118035780601f106117d857610100808354040283529160200191611803565b820191906000526020600020905b8154815290600101906020018083116117e657829003601f168201915b50505050508152602001600b8201805461181c906129fe565b80601f0160208091040260200160405190810160405280929190818152602001828054611848906129fe565b80156118955780601f1061186a57610100808354040283529160200191611895565b820191906000526020600020905b81548152906001019060200180831161187857829003601f168201915b50505050508152602001600c820154815250509050919050565b6006546001600160a01b031633146118da57604051636f5ba97360e01b815260040160405180910390fd5b600654600160a01b900460ff1661190457604051630f68fe6360e21b815260040160405180910390fd5b6001600160a01b038082166000908152600460205260409020805490911661193f57604051634381b6c160e11b815260040160405180910390fd5b6003818101805460ff19169091179055600581015480156119d8576000600583018190556006546040516001600160a01b039091169083908381818185875af1925050503d80600081146119af576040519150601f19603f3d011682016040523d82523d6000602084013e6119b4565b606091505b50509050806119d657604051631fa55c0760e11b815260040160405180910390fd5b505b60078201546001600160a01b0316158015906119f75750600882015415155b15611ae85760005b6008830154811015611ac65760078301546006546008850180546001600160a01b03938416936323b872dd93309391169186908110611a4057611a4061271a565b6000918252602090912001546040516001600160e01b031960e086901b1681526001600160a01b0393841660048201529290911660248301526044820152606401600060405180830381600087803b158015611a9b57600080fd5b505af1158015611aaf573d6000803e3d6000fd5b505050508080611abe906129cc565b9150506119ff565b506040805160008152602081019182905251611ae69160088501916122b3565b505b826001600160a01b03167f3a8979d9edd937f82708579234f5915d536a25d9fd31832a26aeb36a4a991c3c6003604051610c989190612bb5565b6005546001600160a01b03163314611b4d57604051631a4273c160e01b815260040160405180910390fd5b600654600160a01b900460ff16611b7757604051630f68fe6360e21b815260040160405180910390fd5b6001600160a01b0382166000908152600460205260409020600160038083015460ff1690811115611baa57611baa61250f565b14611bc85760405163650925bd60e11b815260040160405180910390fd5b81816004015414611bec5760405163286976e760e21b815260040160405180910390fd5b60038101805460ff191690556000600482018190556040516001600160a01b038516917f3a8979d9edd937f82708579234f5915d536a25d9fd31832a26aeb36a4a991c3c91610c989190612bb5565b33600090815260046020526040902080546001600160a01b0316611c6a5780546001600160a01b031916331781555b6000611c7533611f3f565b90506000348360050154611c899190612707565b6005840181905590506000611c9e8383612707565b905060007f00000000000000000000000000000000000000000000000000000000000000006001600160a01b0316636dd5b69d7f00000000000000000000000000000000000000000000000000000000000000006001600160a01b031663cb1c2b5c6040518163ffffffff1660e01b8152600401602060405180830381865afa158015611d2f573d6000803e3d6000fd5b505050506040513d601f19601f82011682018060405250810190611d5391906129e5565b6040518263ffffffff1660e01b8152600401611d7191815260200190565b602060405180830381865afa158015611d8e573d6000803e3d6000fd5b505050506040513d601f19601f82011682018060405250810190611db291906129e5565b905060007f00000000000000000000000000000000000000000000000000000000000000006001600160a01b0316636dd5b69d7f00000000000000000000000000000000000000000000000000000000000000006001600160a01b031663c98517c56040518163ffffffff1660e01b8152600401602060405180830381865afa158015611e43573d6000803e3d6000fd5b505050506040513d601f19601f82011682018060405250810190611e6791906129e5565b6040518263ffffffff1660e01b8152600401611e8591815260200190565b602060405180830381865afa158015611ea2573d6000803e3d6000fd5b505050506040513d601f19601f82011682018060405250810190611ec691906129e5565b905081831015611ee95760405163379e1d0760e01b815260040160405180910390fd5b80831115611f0a576040516339ff922560e11b815260040160405180910390fd5b60405134815260009033907ffb8efd70c9f0ca009bfc9f2ca8a9256a5aefbc720bdb8d838e4bcd42c241b9eb90602001611280565b6001600160a01b038116600090815260046020526040812081805b6008830154811015612073576003546008840180546000926001600160a01b03169163d5ec2d839185908110611f9257611f9261271a565b90600052602060002001546040518263ffffffff1660e01b8152600401611fbb91815260200190565b600060405180830381865afa158015611fd8573d6000803e3d6000fd5b505050506040513d6000823e601f3d908101601f1916820160405261200091908101906127ef565b91505060005b81606001515181101561205e57816060015181815181106120295761202961271a565b60200260200101516020015167ffffffffffffffff168461204a9190612707565b935080612056816129cc565b915050612006565b5050808061206b906129cc565b915050611f5a565b509392505050565b6001600160a01b03811660009081526004602052604081208160038083015460ff16908111156120ad576120ad61250f565b146120bb5750600092915050565b60006120c684611f3f565b905060008183600501546120da9190612707565b90507f00000000000000000000000000000000000000000000000000000000000000006001600160a01b0316636dd5b69d7f00000000000000000000000000000000000000000000000000000000000000006001600160a01b031663cb1c2b5c6040518163ffffffff1660e01b8152600401602060405180830381865afa158015612169573d6000803e3d6000fd5b505050506040513d601f19601f8201168201806040525081019061218d91906129e5565b6040518263ffffffff1660e01b81526004016121ab91815260200190565b602060405180830381865afa1580156121c8573d6000803e3d6000fd5b505050506040513d601f19601f820116820180604052508101906121ec91906129e5565b1115949350505050565b6121fe612234565b6001600160a01b03811661222857604051631e4fbdf760e01b815260006004820152602401610cd8565b61223181612261565b50565b6001546001600160a01b031633146114f05760405163118cdaa760e01b8152336004820152602401610cd8565b600180546001600160a01b038381166001600160a01b0319831681179093556040519116919082907f8be0079c531659141344cd1fd0a4f28419497f9722a3daafe3b4186f6b6457e090600090a35050565b8280548282559060005260206000209081019282156122ee579160200282015b828111156122ee5782518255916020019190600101906122d3565b506122fa9291506122fe565b5090565b5b808211156122fa57600081556001016122ff565b80356001600160a01b038116811461232a57600080fd5b919050565b60006020828403121561234157600080fd5b61234a82612313565b9392505050565b6000806020838503121561236457600080fd5b823567ffffffffffffffff8082111561237c57600080fd5b818501915085601f83011261239057600080fd5b81358181111561239f57600080fd5b8660208260051b85010111156123b457600080fd5b60209290920196919550909350505050565b60008083601f8401126123d857600080fd5b50813567ffffffffffffffff8111156123f057600080fd5b60208301915083602082850101111561240857600080fd5b9250929050565b60008060008060006060868803121561242757600080fd5b61243086612313565b9450602086013567ffffffffffffffff8082111561244d57600080fd5b61245989838a016123c6565b9096509450604088013591508082111561247257600080fd5b5061247f888289016123c6565b969995985093965092949392505050565b600080604083850312156124a357600080fd5b6124ac83612313565b946020939093013593505050565b600080604083850312156124cd57600080fd5b6124d683612313565b91506124e460208401612313565b90509250929050565b6000806040838503121561250057600080fd5b50508035926020909101359150565b634e487b7160e01b600052602160045260246000fd5b6004811061254357634e487b7160e01b600052602160045260246000fd5b9052565b600081518084526020808501945080840160005b838110156125775781518752958201959082019060010161255b565b509495945050505050565b60005b8381101561259d578181015183820152602001612585565b50506000910152565b600081518084526125be816020860160208601612582565b601f01601f19169290920160200192915050565b602081526125ec6020820183516001600160a01b03169052565b6020820151604082015260408201516060820152600060608301516126146080840182612525565b50608083015160a083015260a083015160c083015260c083015161264360e08401826001600160a01b03169052565b5060e0830151610100612660818501836001600160a01b03169052565b808501519150506101a061012081818601526126806101c0860184612547565b9086015190925061014061269e868201836001600160a01b03169052565b80870151915050601f196101608187860301818801526126be85846125a6565b9450808801519250506101808187860301818801526126dd85846125a6565b970151959092019490945250929392505050565b634e487b7160e01b600052601160045260246000fd5b80820180821115610f5557610f556126f1565b634e487b7160e01b600052603260045260246000fd5b634e487b7160e01b600052604160045260246000fd5b6040516080810167ffffffffffffffff8111828210171561276957612769612730565b60405290565b6040516060810167ffffffffffffffff8111828210171561276957612769612730565b604051601f8201601f1916810167ffffffffffffffff811182821017156127bb576127bb612730565b604052919050565b805163ffffffff8116811461232a57600080fd5b805167ffffffffffffffff8116811461232a57600080fd5b6000806040838503121561280257600080fd5b82519150602083015167ffffffffffffffff8082111561282157600080fd5b908401906080828703121561283557600080fd5b61283d612746565b8251815261284d602084016127c3565b6020820152604083015160ff8116811461286657600080fd5b604082015260608301518281111561287d57600080fd5b80840193505086601f84011261289257600080fd5b8251828111156128a4576128a4612730565b6128b360208260051b01612792565b8082825260208201915060208360051b8701019250898311156128d557600080fd5b602086015b838110156129b8578051868111156128f157600080fd5b8701601f196060828e038201121561290857600080fd5b61291061276f565b60208301518981111561292257600080fd5b8301603f81018f1361293357600080fd5b60208101518a81111561294857612948612730565b612959602085601f84011601612792565b93508084528f604082840101111561297057600080fd5b612981816020860160408501612582565b5050818152612992604084016127d7565b60208201526129a3606084016127c3565b604082015285525050602092830192016128da565b506060840152509497909650945050505050565b6000600182016129de576129de6126f1565b5060010190565b6000602082840312156129f757600080fd5b5051919050565b600181811c90821680612a1257607f821691505b602082108103612a3257634e487b7160e01b600052602260045260246000fd5b50919050565b601f821115612a8257600081815260208120601f850160051c81016020861015612a5f5750805b601f850160051c820191505b81811015612a7e57828155600101612a6b565b5050505b505050565b67ffffffffffffffff831115612a9f57612a9f612730565b612ab383612aad83546129fe565b83612a38565b6000601f841160018114612ae75760008515612acf5750838201355b600019600387901b1c1916600186901b178355612b41565b600083815260209020601f19861690835b82811015612b185786850135825560209485019460019092019101612af8565b5086821015612b355760001960f88860031b161c19848701351681555b505060018560011b0183555b5050505050565b81835281816020850137506000828201602090810191909152601f909101601f19169091010190565b6001600160a01b0386168152606060208201819052600090612b969083018688612b48565b8281036040840152612ba9818587612b48565b98975050505050505050565b60208101610f558284612525565b60208082526011908201527041726269747261746f72576f726b696e6760781b604082015260600190565b604081526000612c02604083018688612b48565b8281036020840152612c15818587612b48565b97965050505050505056fea264697066735822122096a7c9b4d51fabfc36b8df4ce6a55486759f03bcf25b7c93a12180a2efd7dc2b64736f6c63430008140033",
  "linkReferences": {},
  "deployedLinkReferences": {}
}