{
  "_format": "hh-sol-artifact-1",
  "contractName": "ArbitratorManager",
  "sourceName": "contracts/core/ArbitratorManager.sol",
  "abi": [
    {
      "inputs": [],
      "stateMutability": "nonpayable",
      "type": "constructor"
    },
    {
      "inputs": [],
      "name": "InvalidInitialization",
      "type": "error"
    },
    {
      "inputs": [],
      "name": "NotInitializing",
      "type": "error"
    },
    {
      "inputs": [
        {
          "internalType": "address",
          "name": "owner",
          "type": "address"
        }
      ],
      "name": "OwnableInvalidOwner",
      "type": "error"
    },
    {
      "inputs": [
        {
          "internalType": "address",
          "name": "account",
          "type": "address"
        }
      ],
      "name": "OwnableUnauthorizedAccount",
      "type": "error"
    },
    {
      "inputs": [],
      "name": "ReentrancyGuardReentrantCall",
      "type": "error"
    },
    {
      "anonymous": false,
      "inputs": [
        {
          "indexed": true,
          "internalType": "address",
          "name": "arbitrator",
          "type": "address"
        },
        {
          "indexed": false,
          "internalType": "uint256",
          "name": "feeRate",
          "type": "uint256"
        },
        {
          "indexed": false,
          "internalType": "uint256",
          "name": "deadline",
          "type": "uint256"
        }
      ],
      "name": "ArbitratorParamsSet",
      "type": "event"
    },
    {
      "anonymous": false,
      "inputs": [
        {
          "indexed": true,
          "internalType": "address",
          "name": "arbitrator",
          "type": "address"
        }
      ],
      "name": "ArbitratorPaused",
      "type": "event"
    },
    {
      "anonymous": false,
      "inputs": [
        {
          "indexed": true,
          "internalType": "address",
          "name": "arbitrator",
          "type": "address"
        },
        {
          "indexed": true,
          "internalType": "address",
          "name": "operator",
          "type": "address"
        },
        {
          "indexed": false,
          "internalType": "address",
          "name": "revenueAddress",
          "type": "address"
        },
        {
          "indexed": false,
          "internalType": "string",
          "name": "btcAddress",
          "type": "string"
        },
        {
          "indexed": false,
          "internalType": "bytes",
          "name": "btcPubKey",
          "type": "bytes"
        },
        {
          "indexed": false,
          "internalType": "uint256",
          "name": "feeRate",
          "type": "uint256"
        },
        {
          "indexed": false,
          "internalType": "uint256",
          "name": "deadline",
          "type": "uint256"
        }
      ],
      "name": "ArbitratorRegistered",
      "type": "event"
    },
    {
      "anonymous": false,
      "inputs": [
        {
          "indexed": true,
          "internalType": "address",
          "name": "arbitrator",
          "type": "address"
        },
        {
          "indexed": false,
          "internalType": "enum DataTypes.ArbitratorStatus",
          "name": "status",
          "type": "uint8"
        }
      ],
      "name": "ArbitratorStatusChanged",
      "type": "event"
    },
    {
      "anonymous": false,
      "inputs": [
        {
          "indexed": true,
          "internalType": "address",
          "name": "arbitrator",
          "type": "address"
        }
      ],
      "name": "ArbitratorUnpaused",
      "type": "event"
    },
    {
      "anonymous": false,
      "inputs": [
        {
          "indexed": true,
          "internalType": "address",
          "name": "oldManager",
          "type": "address"
        },
        {
          "indexed": true,
          "internalType": "address",
          "name": "newManager",
          "type": "address"
        }
      ],
      "name": "CompensationManagerUpdated",
      "type": "event"
    },
    {
      "anonymous": false,
      "inputs": [
        {
          "indexed": false,
          "internalType": "uint64",
          "name": "version",
          "type": "uint64"
        }
      ],
      "name": "Initialized",
      "type": "event"
    },
    {
      "anonymous": false,
      "inputs": [
        {
          "indexed": true,
          "internalType": "address",
          "name": "transactionManager",
          "type": "address"
        },
        {
          "indexed": true,
          "internalType": "address",
          "name": "compensationManager",
          "type": "address"
        }
      ],
      "name": "InitializedManager",
      "type": "event"
    },
    {
      "anonymous": false,
      "inputs": [
        {
          "indexed": true,
          "internalType": "address",
          "name": "arbitrator",
          "type": "address"
        },
        {
          "indexed": true,
          "internalType": "address",
          "name": "operator",
          "type": "address"
        },
        {
          "indexed": false,
          "internalType": "bytes",
          "name": "btcPubKey",
          "type": "bytes"
        },
        {
          "indexed": false,
          "internalType": "string",
          "name": "btcAddress",
          "type": "string"
        }
      ],
      "name": "OperatorSet",
      "type": "event"
    },
    {
      "anonymous": false,
      "inputs": [
        {
          "indexed": true,
          "internalType": "address",
          "name": "previousOwner",
          "type": "address"
        },
        {
          "indexed": true,
          "internalType": "address",
          "name": "newOwner",
          "type": "address"
        }
      ],
      "name": "OwnershipTransferred",
      "type": "event"
    },
    {
      "anonymous": false,
      "inputs": [
        {
          "indexed": true,
          "internalType": "address",
          "name": "arbitrator",
          "type": "address"
        },
        {
          "indexed": false,
          "internalType": "address",
          "name": "ethAddress",
          "type": "address"
        },
        {
          "indexed": false,
          "internalType": "bytes",
          "name": "btcPubKey",
          "type": "bytes"
        },
        {
          "indexed": false,
          "internalType": "string",
          "name": "btcAddress",
          "type": "string"
        }
      ],
      "name": "RevenueAddressesSet",
      "type": "event"
    },
    {
      "anonymous": false,
      "inputs": [
        {
          "indexed": true,
          "internalType": "address",
          "name": "arbitrator",
          "type": "address"
        },
        {
          "indexed": true,
          "internalType": "address",
          "name": "assetAddress",
          "type": "address"
        },
        {
          "indexed": false,
          "internalType": "uint256",
          "name": "amount",
          "type": "uint256"
        },
        {
          "indexed": false,
          "internalType": "uint256[]",
          "name": "nftTokenIds",
          "type": "uint256[]"
        },
        {
          "indexed": false,
          "internalType": "enum DataTypes.ArbitratorStatus",
          "name": "status",
          "type": "uint8"
        }
      ],
      "name": "StakeAdded",
      "type": "event"
    },
    {
      "anonymous": false,
      "inputs": [
        {
          "indexed": true,
          "internalType": "address",
          "name": "arbitrator",
          "type": "address"
        },
        {
          "indexed": true,
          "internalType": "address",
          "name": "assetAddress",
          "type": "address"
        },
        {
          "indexed": false,
          "internalType": "uint256",
          "name": "amount",
          "type": "uint256"
        }
      ],
      "name": "StakeWithdrawn",
      "type": "event"
    },
    {
      "anonymous": false,
      "inputs": [
        {
          "indexed": true,
          "internalType": "address",
          "name": "oldManager",
          "type": "address"
        },
        {
          "indexed": true,
          "internalType": "address",
          "name": "newManager",
          "type": "address"
        }
      ],
      "name": "TransactionManagerUpdated",
      "type": "event"
    },
    {
      "inputs": [
        {
          "internalType": "address",
          "name": "arbitrator",
          "type": "address"
        }
      ],
      "name": "canUnStake",
      "outputs": [
        {
          "internalType": "bool",
          "name": "",
          "type": "bool"
        }
      ],
      "stateMutability": "view",
      "type": "function"
    },
    {
      "inputs": [],
      "name": "compensationManager",
      "outputs": [
        {
          "internalType": "address",
          "name": "",
          "type": "address"
        }
      ],
      "stateMutability": "view",
      "type": "function"
    },
    {
      "inputs": [],
      "name": "configManager",
      "outputs": [
        {
          "internalType": "contract ConfigManager",
          "name": "",
          "type": "address"
        }
      ],
      "stateMutability": "view",
      "type": "function"
    },
    {
      "inputs": [
        {
          "internalType": "address",
          "name": "arbitrator",
          "type": "address"
        }
      ],
      "name": "frozenArbitrator",
      "outputs": [],
      "stateMutability": "nonpayable",
      "type": "function"
    },
    {
      "inputs": [
        {
          "internalType": "address",
          "name": "arbitratorAddress",
          "type": "address"
        }
      ],
      "name": "getArbitratorInfo",
      "outputs": [
        {
          "components": [
            {
              "internalType": "address",
              "name": "arbitrator",
              "type": "address"
            },
            {
              "internalType": "uint256",
              "name": "currentFeeRate",
              "type": "uint256"
            },
            {
              "internalType": "uint256",
              "name": "pendingFeeRate",
              "type": "uint256"
            },
            {
              "internalType": "enum DataTypes.ArbitratorStatus",
              "name": "status",
              "type": "uint8"
            },
            {
              "internalType": "bytes32",
              "name": "activeTransactionId",
              "type": "bytes32"
            },
            {
              "internalType": "uint256",
              "name": "ethAmount",
              "type": "uint256"
            },
            {
              "internalType": "address",
              "name": "erc20Token",
              "type": "address"
            },
            {
              "internalType": "address",
              "name": "nftContract",
              "type": "address"
            },
            {
              "internalType": "uint256[]",
              "name": "nftTokenIds",
              "type": "uint256[]"
            },
            {
              "internalType": "address",
              "name": "operator",
              "type": "address"
            },
            {
              "internalType": "bytes",
              "name": "operatorBtcPubKey",
              "type": "bytes"
            },
            {
              "internalType": "string",
              "name": "operatorBtcAddress",
              "type": "string"
            },
            {
              "internalType": "uint256",
              "name": "deadLine",
              "type": "uint256"
            },
            {
              "internalType": "bytes",
              "name": "revenueBtcPubKey",
              "type": "bytes"
            },
            {
              "internalType": "string",
              "name": "revenueBtcAddress",
              "type": "string"
            },
            {
              "internalType": "address",
              "name": "revenueETHAddress",
              "type": "address"
            },
            {
              "internalType": "uint256",
              "name": "lastSubmittedWorkTime",
              "type": "uint256"
            }
          ],
          "internalType": "struct DataTypes.ArbitratorInfo",
          "name": "",
          "type": "tuple"
        }
      ],
      "stateMutability": "view",
      "type": "function"
    },
    {
      "inputs": [
        {
          "internalType": "address",
          "name": "arbitrator",
          "type": "address"
        }
      ],
      "name": "getArbitratorStatus",
      "outputs": [
        {
          "internalType": "enum DataTypes.ArbitratorStatus",
          "name": "",
          "type": "uint8"
        }
      ],
      "stateMutability": "view",
      "type": "function"
    },
    {
      "inputs": [
        {
          "internalType": "address",
          "name": "arbitrator",
          "type": "address"
        }
      ],
      "name": "getAvailableStake",
      "outputs": [
        {
          "internalType": "uint256",
          "name": "",
          "type": "uint256"
        }
      ],
      "stateMutability": "view",
      "type": "function"
    },
    {
      "inputs": [
        {
          "internalType": "address",
          "name": "arbitrator",
          "type": "address"
        }
      ],
      "name": "getTotalNFTStakeValue",
      "outputs": [
        {
          "internalType": "uint256",
          "name": "",
          "type": "uint256"
        }
      ],
      "stateMutability": "view",
      "type": "function"
    },
    {
      "inputs": [
        {
          "internalType": "address",
          "name": "_transactionManager",
          "type": "address"
        },
        {
          "internalType": "address",
          "name": "_compensationManager",
          "type": "address"
        }
      ],
      "name": "initTransactionAndCompensationManager",
      "outputs": [],
      "stateMutability": "nonpayable",
      "type": "function"
    },
    {
      "inputs": [
        {
          "internalType": "address",
          "name": "_configManager",
          "type": "address"
        },
        {
          "internalType": "address",
          "name": "_nftContract",
          "type": "address"
        },
        {
          "internalType": "address",
          "name": "_nftInfo",
          "type": "address"
        }
      ],
      "name": "initialize",
      "outputs": [],
      "stateMutability": "nonpayable",
      "type": "function"
    },
    {
      "inputs": [
        {
          "internalType": "address",
          "name": "arbitratorAddress",
          "type": "address"
        }
      ],
      "name": "isActiveArbitrator",
      "outputs": [
        {
          "internalType": "bool",
          "name": "",
          "type": "bool"
        }
      ],
      "stateMutability": "view",
      "type": "function"
    },
    {
      "inputs": [
        {
          "internalType": "address",
          "name": "arbitrator",
          "type": "address"
        }
      ],
      "name": "isFrozenStatus",
      "outputs": [
        {
          "internalType": "bool",
          "name": "",
          "type": "bool"
        }
      ],
      "stateMutability": "view",
      "type": "function"
    },
    {
      "inputs": [
        {
          "internalType": "address",
          "name": "arbitrator",
          "type": "address"
        },
        {
          "internalType": "address",
          "name": "operator",
          "type": "address"
        }
      ],
      "name": "isOperatorOf",
      "outputs": [
        {
          "internalType": "bool",
          "name": "",
          "type": "bool"
        }
      ],
      "stateMutability": "view",
      "type": "function"
    },
    {
      "inputs": [
        {
          "internalType": "address",
          "name": "arbitrator",
          "type": "address"
        }
      ],
      "name": "isPaused",
      "outputs": [
        {
          "internalType": "bool",
          "name": "",
          "type": "bool"
        }
      ],
      "stateMutability": "view",
      "type": "function"
    },
    {
      "inputs": [],
      "name": "nftContract",
      "outputs": [
        {
          "internalType": "contract IERC721",
          "name": "",
          "type": "address"
        }
      ],
      "stateMutability": "view",
      "type": "function"
    },
    {
      "inputs": [],
      "name": "nftInfo",
      "outputs": [
        {
          "internalType": "contract IBNFTInfo",
          "name": "",
          "type": "address"
        }
      ],
      "stateMutability": "view",
      "type": "function"
    },
    {
      "inputs": [],
      "name": "owner",
      "outputs": [
        {
          "internalType": "address",
          "name": "",
          "type": "address"
        }
      ],
      "stateMutability": "view",
      "type": "function"
    },
    {
      "inputs": [],
      "name": "pause",
      "outputs": [],
      "stateMutability": "nonpayable",
      "type": "function"
    },
    {
      "inputs": [
        {
          "internalType": "string",
          "name": "defaultBtcAddress",
          "type": "string"
        },
        {
          "internalType": "bytes",
          "name": "defaultBtcPubKey",
          "type": "bytes"
        },
        {
          "internalType": "uint256",
          "name": "feeRate",
          "type": "uint256"
        },
        {
          "internalType": "uint256",
          "name": "deadline",
          "type": "uint256"
        }
      ],
      "name": "registerArbitratorByStakeETH",
      "outputs": [],
      "stateMutability": "payable",
      "type": "function"
    },
    {
      "inputs": [
        {
          "internalType": "uint256[]",
          "name": "tokenIds",
          "type": "uint256[]"
        },
        {
          "internalType": "string",
          "name": "defaultBtcAddress",
          "type": "string"
        },
        {
          "internalType": "bytes",
          "name": "defaultBtcPubKey",
          "type": "bytes"
        },
        {
          "internalType": "uint256",
          "name": "feeRate",
          "type": "uint256"
        },
        {
          "internalType": "uint256",
          "name": "deadline",
          "type": "uint256"
        }
      ],
      "name": "registerArbitratorByStakeNFT",
      "outputs": [],
      "stateMutability": "nonpayable",
      "type": "function"
    },
    {
      "inputs": [
        {
          "internalType": "address",
          "name": "arbitrator",
          "type": "address"
        },
        {
          "internalType": "bytes32",
          "name": "transactionId",
          "type": "bytes32"
        }
      ],
      "name": "releaseArbitrator",
      "outputs": [],
      "stateMutability": "nonpayable",
      "type": "function"
    },
    {
      "inputs": [],
      "name": "renounceOwnership",
      "outputs": [],
      "stateMutability": "nonpayable",
      "type": "function"
    },
    {
      "inputs": [
        {
          "internalType": "uint256",
          "name": "feeRate",
          "type": "uint256"
        },
        {
          "internalType": "uint256",
          "name": "deadline",
          "type": "uint256"
        }
      ],
      "name": "setArbitratorParams",
      "outputs": [],
      "stateMutability": "nonpayable",
      "type": "function"
    },
    {
      "inputs": [
        {
          "internalType": "address",
          "name": "arbitrator",
          "type": "address"
        },
        {
          "internalType": "bytes32",
          "name": "transactionId",
          "type": "bytes32"
        }
      ],
      "name": "setArbitratorWorking",
      "outputs": [],
      "stateMutability": "nonpayable",
      "type": "function"
    },
    {
      "inputs": [
        {
          "internalType": "address",
          "name": "_compensationManager",
          "type": "address"
        }
      ],
      "name": "setCompensationManager",
      "outputs": [],
      "stateMutability": "nonpayable",
      "type": "function"
    },
    {
      "inputs": [
        {
          "internalType": "address",
          "name": "operator",
          "type": "address"
        },
        {
          "internalType": "bytes",
          "name": "btcPubKey",
          "type": "bytes"
        },
        {
          "internalType": "string",
          "name": "btcAddress",
          "type": "string"
        }
      ],
      "name": "setOperator",
      "outputs": [],
      "stateMutability": "nonpayable",
      "type": "function"
    },
    {
      "inputs": [
        {
          "internalType": "address",
          "name": "ethAddress",
          "type": "address"
        },
        {
          "internalType": "bytes",
          "name": "btcPubKey",
          "type": "bytes"
        },
        {
          "internalType": "string",
          "name": "btcAddress",
          "type": "string"
        }
      ],
      "name": "setRevenueAddresses",
      "outputs": [],
      "stateMutability": "nonpayable",
      "type": "function"
    },
    {
      "inputs": [
        {
          "internalType": "address",
          "name": "_transactionManager",
          "type": "address"
        }
      ],
      "name": "setTransactionManager",
      "outputs": [],
      "stateMutability": "nonpayable",
      "type": "function"
    },
    {
      "inputs": [],
      "name": "stakeETH",
      "outputs": [],
      "stateMutability": "payable",
      "type": "function"
    },
    {
      "inputs": [
        {
          "internalType": "uint256[]",
          "name": "tokenIds",
          "type": "uint256[]"
        }
      ],
      "name": "stakeNFT",
      "outputs": [],
      "stateMutability": "nonpayable",
      "type": "function"
    },
    {
      "inputs": [
        {
          "internalType": "address",
          "name": "arbitrator",
          "type": "address"
        }
      ],
      "name": "terminateArbitratorWithSlash",
      "outputs": [],
      "stateMutability": "nonpayable",
      "type": "function"
    },
    {
      "inputs": [],
      "name": "transactionManager",
      "outputs": [
        {
          "internalType": "address",
          "name": "",
          "type": "address"
        }
      ],
      "stateMutability": "view",
      "type": "function"
    },
    {
      "inputs": [
        {
          "internalType": "address",
          "name": "newOwner",
          "type": "address"
        }
      ],
      "name": "transferOwnership",
      "outputs": [],
      "stateMutability": "nonpayable",
      "type": "function"
    },
    {
      "inputs": [],
      "name": "unpause",
      "outputs": [],
      "stateMutability": "nonpayable",
      "type": "function"
    },
    {
      "inputs": [],
      "name": "unstake",
      "outputs": [],
      "stateMutability": "nonpayable",
      "type": "function"
    },
    {
      "inputs": [],
      "name": "zeroAddress",
      "outputs": [
        {
          "internalType": "address",
          "name": "",
          "type": "address"
        }
      ],
      "stateMutability": "view",
      "type": "function"
    }
  ],
  "bytecode": "0x60806040523480156200001157600080fd5b506200001c62000022565b620000d6565b7ff0c57e16840df040f15088dc2f81fe391c3923bec73e23a9662efc9c229c6a00805468010000000000000000900460ff1615620000735760405163f92ee8a960e01b815260040160405180910390fd5b80546001600160401b0390811614620000d35780546001600160401b0319166001600160401b0390811782556040519081527fc7f505b2f371ae2175ee4913f4499e1f2633a7b5936321eed1cdaeb6115181d29060200160405180910390a15b50565b6155b080620000e66000396000f3fe60806040526004361061020f5760003560e01c80637cacabef11610118578063cedb588b116100a0578063dceb986d1161006f578063dceb986d14610624578063e25268d21461062c578063e2b4efb81461064c578063f2fde38b1461066c578063f3724d181461068c57600080fd5b8063cedb588b146105a4578063d2b6f74b146105c4578063d3f414e0146105e4578063d56d229d1461060457600080fd5b806399056c3c116100e757806399056c3c146104f7578063998b2fd814610524578063b553fe1e14610544578063c0c53b8b14610564578063ca0ab0751461058457600080fd5b80637cacabef146104585780638456cb5914610478578063888d8fd51461048d5780638da5cb5b146104ba57600080fd5b806337e406e91161019b5780634476a6601161016a5780634476a660146103c35780635b14f183146103e3578063654b4e83146104035780636a65f2fd14610423578063715018a61461044357600080fd5b806337e406e91461035b57806339c25e2c1461036e5780633b7164521461038e5780633f4ba83a146103ae57600080fd5b8063182c5744116101e2578063182c5744146102b657806329111251146102d657806329a3f203146103065780632b2d37da146103265780632def66201461034657600080fd5b80630559b877146102145780630930907b146102515780630b1fa61c1461026657806314f6b19014610288575b600080fd5b34801561022057600080fd5b50600554610234906001600160a01b031681565b6040516001600160a01b0390911681526020015b60405180910390f35b34801561025d57600080fd5b50610234600081565b34801561027257600080fd5b50610286610281366004614819565b6106ac565b005b34801561029457600080fd5b506102a86102a3366004614819565b610757565b604051908152602001610248565b3480156102c257600080fd5b506102866102d136600461487f565b610793565b3480156102e257600080fd5b506102f66102f1366004614819565b610cf0565b6040519015158152602001610248565b34801561031257600080fd5b50610286610321366004614901565b6110e0565b34801561033257600080fd5b50610286610341366004614981565b6111c5565b34801561035257600080fd5b50610286611387565b6102866103693660046149ab565b6116cb565b34801561037a57600080fd5b506102f6610389366004614a28565b611907565b34801561039a57600080fd5b50600454610234906001600160a01b031681565b3480156103ba57600080fd5b50610286611931565b3480156103cf57600080fd5b506102866103de366004614819565b611a49565b3480156103ef57600080fd5b506102f66103fe366004614819565b611aeb565b34801561040f57600080fd5b5061028661041e366004614901565b611b25565b34801561042f57600080fd5b5061028661043e366004614a5b565b611c5a565b34801561044f57600080fd5b50610286611e95565b34801561046457600080fd5b506102f6610473366004614819565b611ea9565b34801561048457600080fd5b50610286612270565b34801561049957600080fd5b506104ad6104a8366004614819565b61238b565b6040516102489190614ab5565b3480156104c657600080fd5b507f9016d09d72d40fdae2fd8ceac6b6234c7706214fd39c1cd1e609a0528c199300546001600160a01b0316610234565b34801561050357600080fd5b50610517610512366004614819565b612811565b6040516102489190614b4e565b34801561053057600080fd5b5061028661053f366004614819565b612c2e565b34801561055057600080fd5b50600254610234906001600160a01b031681565b34801561057057600080fd5b5061028661057f366004614cd8565b612f28565b34801561059057600080fd5b50600054610234906001600160a01b031681565b3480156105b057600080fd5b506102866105bf366004614981565b613155565b3480156105d057600080fd5b506102866105df366004614a28565b61329e565b3480156105f057600080fd5b506102866105ff366004614819565b6133f5565b34801561061057600080fd5b50600154610234906001600160a01b031681565b6102866135b8565b34801561063857600080fd5b506102a8610647366004614819565b613797565b34801561065857600080fd5b506102f6610667366004614819565b6138e1565b34801561067857600080fd5b50610286610687366004614819565b6139dc565b34801561069857600080fd5b506102866106a7366004614d1b565b613a1a565b6106b4613cbc565b6001600160a01b03811661070557604080518082018252600c81526b5a65726f206164647265737360a01b6020820152905162461bcd60e51b81526106fc9190600401614dc3565b60405180910390fd5b600480546001600160a01b038381166001600160a01b0319831681179093556040519116919082907f960d9803c7ca631d3232d16e9971c7fd8e82d5f7ff7c2824c7b29dcab8a37d2e90600090a35050565b6001600160a01b03811660009081526003602052604081208161077984613797565b905080826005015461078b9190614dec565b949350505050565b60008190036107d957604080518082018252600f81526e456d70747920746f6b656e2049447360881b6020820152905162461bcd60e51b81526106fc9190600401614dc3565b33600090815260036020526040902080546001600160a01b0316610830576040805180820182526019815260008051602061555b8339815191526020820152905162461bcd60e51b81526106fc9190600401614dc3565b600061083c8484613d17565b9050610849828585613e35565b610857826005015482613f24565b61086082614180565b60038083015460ff16600481111561087a5761087a614a7d565b03610c1657604080516102208101825283546001600160a01b03168152600184015460208201526002840154918101919091526003830154610c0591908490606083019060ff1660048111156108d2576108d2614a7d565b60048111156108e3576108e3614a7d565b81526004820154602080830191909152600583015460408084019190915260068401546001600160a01b039081166060850152600785015416608084015260088401805482518185028101850190935280835260a090940193919290919083018282801561097057602002820191906000526020600020905b81548152602001906001019080831161095c575b505050918352505060098201546001600160a01b03166020820152600a820180546040909201916109a090614dff565b80601f01602080910402602001604051908101604052809291908181526020018280546109cc90614dff565b8015610a195780601f106109ee57610100808354040283529160200191610a19565b820191906000526020600020905b8154815290600101906020018083116109fc57829003601f168201915b50505050508152602001600b82018054610a3290614dff565b80601f0160208091040260200160405190810160405280929190818152602001828054610a5e90614dff565b8015610aab5780601f10610a8057610100808354040283529160200191610aab565b820191906000526020600020905b815481529060010190602001808311610a8e57829003601f168201915b50505050508152602001600c8201548152602001600d82018054610ace90614dff565b80601f0160208091040260200160405190810160405280929190818152602001828054610afa90614dff565b8015610b475780601f10610b1c57610100808354040283529160200191610b47565b820191906000526020600020905b815481529060010190602001808311610b2a57829003601f168201915b50505050508152602001600e82018054610b6090614dff565b80601f0160208091040260200160405190810160405280929190818152602001828054610b8c90614dff565b8015610bd95780601f10610bae57610100808354040283529160200191610bd9565b820191906000526020600020905b815481529060010190602001808311610bbc57829003601f168201915b5050509183525050600f8201546001600160a01b03166020820152601090910154604090910152614215565b610c165760038201805460ff191690555b815460405163888d8fd560e01b81526001600160a01b039091166004820152309063888d8fd590602401602060405180830381865afa158015610c5d573d6000803e3d6000fd5b505050506040513d601f19601f82011682018060405250810190610c819190614e39565b60038301805460ff19166001836004811115610c9f57610c9f614a7d565b021790555060015460038301546040516001600160a01b0390921691339160008051602061553b83398151915291610ce29186918a918a9160ff90911690614e5a565b60405180910390a350505050565b6001600160a01b038082166000908152600360208181526040808420815161022081018352815490961686526001810154928601929092526002820154908501529081015491928392909190606083019060ff166004811115610d5557610d55614a7d565b6004811115610d6657610d66614a7d565b81526004820154602080830191909152600583015460408084019190915260068401546001600160a01b039081166060850152600785015416608084015260088401805482518185028101850190935280835260a0909401939192909190830182828015610df357602002820191906000526020600020905b815481526020019060010190808311610ddf575b505050918352505060098201546001600160a01b03166020820152600a82018054604090920191610e2390614dff565b80601f0160208091040260200160405190810160405280929190818152602001828054610e4f90614dff565b8015610e9c5780601f10610e7157610100808354040283529160200191610e9c565b820191906000526020600020905b815481529060010190602001808311610e7f57829003601f168201915b50505050508152602001600b82018054610eb590614dff565b80601f0160208091040260200160405190810160405280929190818152602001828054610ee190614dff565b8015610f2e5780601f10610f0357610100808354040283529160200191610f2e565b820191906000526020600020905b815481529060010190602001808311610f1157829003601f168201915b50505050508152602001600c8201548152602001600d82018054610f5190614dff565b80601f0160208091040260200160405190810160405280929190818152602001828054610f7d90614dff565b8015610fca5780601f10610f9f57610100808354040283529160200191610fca565b820191906000526020600020905b815481529060010190602001808311610fad57829003601f168201915b50505050508152602001600e82018054610fe390614dff565b80601f016020809104026020016040519081016040528092919081815260200182805461100f90614dff565b801561105c5780601f106110315761010080835404028352916020019161105c565b820191906000526020600020905b81548152906001019060200180831161103f57829003601f168201915b5050509183525050600f8201546001600160a01b03908116602080840191909152601090930154604092830152835182518084019093526019835260008051602061555b8339815191529383019390935292935091166110cf5760405162461bcd60e51b81526004016106fc9190614dc3565b506110d98161438a565b9392505050565b33600090815260036020526040902080546001600160a01b0316611137576040805180820182526019815260008051602061555b8339815191526020820152905162461bcd60e51b81526106fc9190600401614dc3565b600f810180546001600160a01b0319166001600160a01b038816179055600d8101611163858783614f0e565b50600e8101611173838583614f0e565b50336001600160a01b03167f8e68353cf53df77c6b6993341bb1d784fab04f2f38b2c51654b51de6ce32274e87878787876040516111b5959493929190614ff6565b60405180910390a2505050505050565b6004546001600160a01b0316331461121c5760408051808201825260178152762737ba103a3930b739b0b1ba34b7b71036b0b730b3b2b960491b6020820152905162461bcd60e51b81526106fc9190600401614dc3565b600554600160a01b900460ff1661126a57604080518082018252600f81526e139bdd081a5b9a5d1a585b1a5e9959608a1b6020820152905162461bcd60e51b81526106fc9190600401614dc3565b6001600160a01b038216600090815260036020526040812090600382015460ff16600481111561129c5761129c614a7d565b146112e457604080518082018252601581527441726269747261746f72206e6f742061637469766560581b6020820152905162461bcd60e51b81526106fc9190600401614dc3565b60048101541561133957604080518082018252601a81527f41726269747261746f7220616c726561647920776f726b696e670000000000006020820152905162461bcd60e51b81526106fc9190600401614dc3565b60038101805460ff19166001908117909155600482018390556040516001600160a01b0385169160008051602061551b8339815191529161137a9190614ab5565b60405180910390a2505050565b3360009081526003602052604090206004810154156113b85760405162461bcd60e51b81526004016106fc9061503a565b336000908152600360205260409081902080549151637cacabef60e01b81526001600160a01b039092166004830152903090637cacabef90602401602060405180830381865afa158015611410573d6000803e3d6000fd5b505050506040513d601f19601f820116820180604052508101906114349190615065565b61147857604080518082018252601281527114dd185ad9481cdd1a5b1b081b1bd8dad95960721b6020820152905162461bcd60e51b81526106fc9190600401614dc3565b60008160050154118061148e5750600881015415155b6114c45760405162461bcd60e51b81526020600482015260076024820152664e6f5374616b6560c81b60448201526064016106fc565b60058101805460009091556003808301805460ff1916909117905560078201546001600160a01b0316158015906114fe5750600882015415155b156115fc5760005b60088301548110156115c8576001546008840180546001600160a01b03909216916323b872dd9130913391908690811061154257611542615087565b6000918252602090912001546040516001600160e01b031960e086901b1681526001600160a01b0393841660048201529290911660248301526044820152606401600060405180830381600087803b15801561159d57600080fd5b505af11580156115b1573d6000803e3d6000fd5b5050505080806115c09061509d565b915050611506565b5060408051600081526020810191829052516115e891600885019161479d565b506007820180546001600160a01b03191690555b801561168d57604051600090339083908381818185875af1925050503d8060008114611644576040519150601f19603f3d011682016040523d82523d6000602084013e611649565b606091505b505090508061168b5760405162461bcd60e51b815260206004820152600e60248201526d151c985b9cd9995c91985a5b195960921b60448201526064016106fc565b505b60405181815260009033907fb7c918e0e249f999e965cafeb6c664271b3f4317d296461500e71da39f0cbda3906020015b60405180910390a3505050565b6116d9868686868686614439565b6116e4346000613f24565b3360009081526003602090815260409182902080548351808501909452601d84527f41726269747261746f7220616c726561647920726567697374657265640000009284019290925291906001600160a01b0316156117565760405162461bcd60e51b81526004016106fc9190614dc3565b508054336001600160a01b031991821681178355600983018054831682179055600f83018054909216179055600e8101611791878983614f0e565b50600d81016117a1858783614f0e565b50600b81016117b1878983614f0e565b50600a81016117c1858783614f0e565b5060018101839055600c81018290556005810180543491906000906117e7908490614dec565b909155505080546040805160008082526020820190925290916001600160a01b03169060008051602061553b833981519152903490855460405163888d8fd560e01b81526001600160a01b039091166004820152309063888d8fd590602401602060405180830381865afa158015611863573d6000803e3d6000fd5b505050506040513d601f19601f820116820180604052508101906118879190614e39565b604051611896939291906150b6565b60405180910390a36009810154600f8201546040516001600160a01b039283169233927f1ab9d0508879cf64270650fc89b30617972d694fd1053946f028860daf125c7c926118f69290911690600e870190600d8801908a908a90615189565b60405180910390a350505050505050565b6001600160a01b038281166000908152600360205260409020600901548116908216145b92915050565b3360009081526003602052604090206004810154156119625760405162461bcd60e51b81526004016106fc9061503a565b33600090815260036020526040902080546001600160a01b03166119b9576040805180820182526019815260008051602061555b8339815191526020820152905162461bcd60e51b81526106fc9190600401614dc3565b6002600382015460ff1660048111156119d4576119d4614a7d565b14611a0e5760405162461bcd60e51b815260206004820152600a6024820152691b9bdd081c185d5cd95960b21b60448201526064016106fc565b60038101805460ff1916905560405133907f9f71f687820b75e4208e6fdd2091be151d94465fe4bafd2506bed2b9a430437d90600090a25050565b611a51613cbc565b6001600160a01b038116611a9957604080518082018252600c81526b5a65726f206164647265737360a01b6020820152905162461bcd60e51b81526106fc9190600401614dc3565b600580546001600160a01b038381166001600160a01b0319831681179093556040519116919082907fb2de57cf284062a9a3402f8683281c49d5a6747b1f369d0eec883b83503f3c8d90600090a35050565b6001600160a01b03811660009081526003602081905260408220015460029060ff166004811115611b1e57611b1e614a7d565b1492915050565b6001600160a01b038516611b6d5760405162461bcd60e51b815260206004820152600f60248201526e24b73b30b634b227b832b930ba37b960891b60448201526064016106fc565b33600090815260036020526040902080546001600160a01b0316611bc4576040805180820182526019815260008051602061555b8339815191526020820152905162461bcd60e51b81526106fc9190600401614dc3565b6009810180546001600160a01b0319166001600160a01b038816179055600a8101611bf0858783614f0e565b50600b8101611c00838583614f0e565b50856001600160a01b0316336001600160a01b03167ff920b7832d3774e2ac2efb86fccb411bc92e19a8ea66687764dea93140bdad4a87878787604051611c4a94939291906151d4565b60405180910390a3505050505050565b336000908152600360205260409020600481015415611c8b5760405162461bcd60e51b81526004016106fc9061503a565b600054604080516325ba6ce560e11b815290516001600160a01b0390921691636dd5b69d918391634b74d9ca916004808201926020929091908290030181865afa158015611cdd573d6000803e3d6000fd5b505050506040513d601f19601f82011682018060405250810190611d019190615206565b6040518263ffffffff1660e01b8152600401611d1f91815260200190565b602060405180830381865afa158015611d3c573d6000803e3d6000fd5b505050506040513d601f19601f82011682018060405250810190611d609190615206565b831015611d9b5760405162461bcd60e51b8152602060048201526009602482015268466565546f6f4c6f7760b81b60448201526064016106fc565b811580611da757504282115b6040518060400160405280601081526020016f496e76616c696420646561646c696e6560801b81525090611dee5760405162461bcd60e51b81526004016106fc9190614dc3565b5033600090815260036020526040902080546001600160a01b0316611e46576040805180820182526019815260008051602061555b8339815191526020820152905162461bcd60e51b81526106fc9190600401614dc3565b60018101849055600c8101839055604080518581526020810185905233917f37a8e1e367daa706c049f32e9f3db5c7f05287d62d178accd3a148a80d4bf01a910160405180910390a250505050565b611e9d613cbc565b611ea76000614642565b565b6001600160a01b0380821660009081526003602081815260408084208151610220810183528154909616865260018101549286019290925260028201549085015290810154919261224392909190606083019060ff166004811115611f1057611f10614a7d565b6004811115611f2157611f21614a7d565b81526004820154602080830191909152600583015460408084019190915260068401546001600160a01b039081166060850152600785015416608084015260088401805482518185028101850190935280835260a0909401939192909190830182828015611fae57602002820191906000526020600020905b815481526020019060010190808311611f9a575b505050918352505060098201546001600160a01b03166020820152600a82018054604090920191611fde90614dff565b80601f016020809104026020016040519081016040528092919081815260200182805461200a90614dff565b80156120575780601f1061202c57610100808354040283529160200191612057565b820191906000526020600020905b81548152906001019060200180831161203a57829003601f168201915b50505050508152602001600b8201805461207090614dff565b80601f016020809104026020016040519081016040528092919081815260200182805461209c90614dff565b80156120e95780601f106120be576101008083540402835291602001916120e9565b820191906000526020600020905b8154815290600101906020018083116120cc57829003601f168201915b50505050508152602001600c8201548152602001600d8201805461210c90614dff565b80601f016020809104026020016040519081016040528092919081815260200182805461213890614dff565b80156121855780601f1061215a57610100808354040283529160200191612185565b820191906000526020600020905b81548152906001019060200180831161216857829003601f168201915b50505050508152602001600e8201805461219e90614dff565b80601f01602080910402602001604051908101604052809291908181526020018280546121ca90614dff565b80156122175780601f106121ec57610100808354040283529160200191612217565b820191906000526020600020905b8154815290600101906020018083116121fa57829003601f168201915b5050509183525050600f8201546001600160a01b0316602082015260109091015460409091015261438a565b1561225057506000919050565b506001600160a01b03166000908152600360205260409020600401541590565b3360009081526003602052604090206004810154156122a15760405162461bcd60e51b81526004016106fc9061503a565b33600090815260036020526040902080546001600160a01b03166122f8576040805180820182526019815260008051602061555b8339815191526020820152905162461bcd60e51b81526106fc9190600401614dc3565b6000600382015460ff16600481111561231357612313614a7d565b1461234d5760405162461bcd60e51b815260206004820152600a6024820152694e6f742061637469766560b01b60448201526064016106fc565b60038101805460ff1916600217905560405133907ff8f74f9bb1ed360c36a0bd59e0d8aa5cbdd15bb6e8e86af871f343daf432be2290600090a25050565b6001600160a01b038082166000908152600360208181526040808420815161022081018352815490961686526001810154928601929092526002820154908501529081015491928392909190606083019060ff1660048111156123f0576123f0614a7d565b600481111561240157612401614a7d565b81526004820154602080830191909152600583015460408084019190915260068401546001600160a01b039081166060850152600785015416608084015260088401805482518185028101850190935280835260a090940193919290919083018282801561248e57602002820191906000526020600020905b81548152602001906001019080831161247a575b505050918352505060098201546001600160a01b03166020820152600a820180546040909201916124be90614dff565b80601f01602080910402602001604051908101604052809291908181526020018280546124ea90614dff565b80156125375780601f1061250c57610100808354040283529160200191612537565b820191906000526020600020905b81548152906001019060200180831161251a57829003601f168201915b50505050508152602001600b8201805461255090614dff565b80601f016020809104026020016040519081016040528092919081815260200182805461257c90614dff565b80156125c95780601f1061259e576101008083540402835291602001916125c9565b820191906000526020600020905b8154815290600101906020018083116125ac57829003601f168201915b50505050508152602001600c8201548152602001600d820180546125ec90614dff565b80601f016020809104026020016040519081016040528092919081815260200182805461261890614dff565b80156126655780601f1061263a57610100808354040283529160200191612665565b820191906000526020600020905b81548152906001019060200180831161264857829003601f168201915b50505050508152602001600e8201805461267e90614dff565b80601f01602080910402602001604051908101604052809291908181526020018280546126aa90614dff565b80156126f75780601f106126cc576101008083540402835291602001916126f7565b820191906000526020600020905b8154815290600101906020018083116126da57829003601f168201915b5050509183525050600f8201546001600160a01b039081166020830152601090920154604090910152815191925016612763576040805180820182526019815260008051602061555b8339815191526020820152905162461bcd60e51b81526106fc9190600401614dc3565b604051631c569df760e31b81526001600160a01b0384166004820152309063e2b4efb890602401602060405180830381865afa1580156127a7573d6000803e3d6000fd5b505050506040513d601f19601f820116820180604052508101906127cb9190615065565b156127d95750600092915050565b6127e28161438a565b156127f05750600492915050565b6127f981614215565b156128075750600392915050565b6060015192915050565b604080516102208101825260008082526020820181905291810182905260608082018390526080820183905260a0820183905260c0820183905260e08201839052610100820181905261012082018390526101408201819052610160820181905261018082018390526101a082018190526101c08201526101e081018290526102008101919091526001600160a01b0380831660009081526003602081815260409283902083516102208101855281549095168552600181015491850191909152600281015492840192909252810154606083019060ff1660048111156128fa576128fa614a7d565b600481111561290b5761290b614a7d565b81526004820154602080830191909152600583015460408084019190915260068401546001600160a01b039081166060850152600785015416608084015260088401805482518185028101850190935280835260a090940193919290919083018282801561299857602002820191906000526020600020905b815481526020019060010190808311612984575b505050918352505060098201546001600160a01b03166020820152600a820180546040909201916129c890614dff565b80601f01602080910402602001604051908101604052809291908181526020018280546129f490614dff565b8015612a415780601f10612a1657610100808354040283529160200191612a41565b820191906000526020600020905b815481529060010190602001808311612a2457829003601f168201915b50505050508152602001600b82018054612a5a90614dff565b80601f0160208091040260200160405190810160405280929190818152602001828054612a8690614dff565b8015612ad35780601f10612aa857610100808354040283529160200191612ad3565b820191906000526020600020905b815481529060010190602001808311612ab657829003601f168201915b50505050508152602001600c8201548152602001600d82018054612af690614dff565b80601f0160208091040260200160405190810160405280929190818152602001828054612b2290614dff565b8015612b6f5780601f10612b4457610100808354040283529160200191612b6f565b820191906000526020600020905b815481529060010190602001808311612b5257829003601f168201915b50505050508152602001600e82018054612b8890614dff565b80601f0160208091040260200160405190810160405280929190818152602001828054612bb490614dff565b8015612c015780601f10612bd657610100808354040283529160200191612c01565b820191906000526020600020905b815481529060010190602001808311612be457829003601f168201915b5050509183525050600f8201546001600160a01b0316602082015260109091015460409091015292915050565b6005546001600160a01b03163314612c8b57604080518082018252601881527f4e6f7420636f6d70656e736174696f6e206d616e6167657200000000000000006020820152905162461bcd60e51b81526106fc9190600401614dc3565b600554600160a01b900460ff16612cd957604080518082018252600f81526e139bdd081a5b9a5d1a585b1a5e9959608a1b6020820152905162461bcd60e51b81526106fc9190600401614dc3565b6001600160a01b0380821660009081526003602052604090208054909116612d34576040805180820182526019815260008051602061555b8339815191526020820152905162461bcd60e51b81526106fc9190600401614dc3565b6003818101805460ff1916909117905560058101548015612df05760006005838101829055546040516001600160a01b039091169083908381818185875af1925050503d8060008114612da3576040519150601f19603f3d011682016040523d82523d6000602084013e612da8565b606091505b5050905080612dee57604080518082018252600f81526e151c985b9cd9995c8819985a5b1959608a1b6020820152905162461bcd60e51b81526106fc9190600401614dc3565b505b60078201546001600160a01b031615801590612e0f5750600882015415155b15612f005760005b6008830154811015612ede5760078301546005546008850180546001600160a01b03938416936323b872dd93309391169186908110612e5857612e58615087565b6000918252602090912001546040516001600160e01b031960e086901b1681526001600160a01b0393841660048201529290911660248301526044820152606401600060405180830381600087803b158015612eb357600080fd5b505af1158015612ec7573d6000803e3d6000fd5b505050508080612ed69061509d565b915050612e17565b506040805160008152602081019182905251612efe91600885019161479d565b505b826001600160a01b031660008051602061551b833981519152600360405161137a9190614ab5565b7ff0c57e16840df040f15088dc2f81fe391c3923bec73e23a9662efc9c229c6a008054600160401b810460ff1615906001600160401b0316600081158015612f6d5750825b90506000826001600160401b03166001148015612f895750303b155b905081158015612f97575080155b15612fb55760405163f92ee8a960e01b815260040160405180910390fd5b845467ffffffffffffffff191660011785558315612fdf57845460ff60401b1916600160401b1785555b612fe76146b3565b612ff0336146c3565b6001600160a01b03881661303857604080518082018252600c81526b5a65726f206164647265737360a01b6020820152905162461bcd60e51b81526106fc9190600401614dc3565b6001600160a01b03871661308057604080518082018252600c81526b5a65726f206164647265737360a01b6020820152905162461bcd60e51b81526106fc9190600401614dc3565b6001600160a01b0386166130c857604080518082018252600c81526b5a65726f206164647265737360a01b6020820152905162461bcd60e51b81526106fc9190600401614dc3565b600080546001600160a01b03808b166001600160a01b031992831617909255600180548a84169083161790556002805492891692909116919091179055831561314b57845460ff60401b19168555604051600181527fc7f505b2f371ae2175ee4913f4499e1f2633a7b5936321eed1cdaeb6115181d29060200160405180910390a15b5050505050505050565b6004546001600160a01b031633146131ac5760408051808201825260178152762737ba103a3930b739b0b1ba34b7b71036b0b730b3b2b960491b6020820152905162461bcd60e51b81526106fc9190600401614dc3565b600554600160a01b900460ff166131fa57604080518082018252600f81526e139bdd081a5b9a5d1a585b1a5e9959608a1b6020820152905162461bcd60e51b81526106fc9190600401614dc3565b6001600160a01b038216600090815260036020526040902060048101548214613261576040805180820182526016815275125b9d985b1a59081d1c985b9cd858dd1a5bdb88125160521b6020820152905162461bcd60e51b81526106fc9190600401614dc3565b60038101805460ff191690556000600482018190556040516001600160a01b0385169160008051602061551b8339815191529161137a9190614ab5565b6132a6613cbc565b600554600160a01b900460ff16156132f9576040805180820182526013815272105b1c9958591e481a5b9a5d1a585b1a5e9959606a1b6020820152905162461bcd60e51b81526106fc9190600401614dc3565b6001600160a01b03821661334157604080518082018252600c81526b5a65726f206164647265737360a01b6020820152905162461bcd60e51b81526106fc9190600401614dc3565b6001600160a01b03811661338957604080518082018252600c81526b5a65726f206164647265737360a01b6020820152905162461bcd60e51b81526106fc9190600401614dc3565b600480546001600160a01b038085166001600160a01b03199092168217909255600580546001600160a81b03191684841617600160a01b17908190556040519216917f255c9edca3ea4cd6ff3c64c4cd7a5f812c6ae0ca0ae939f85e9e3eb49cdb416f90600090a35050565b6004546001600160a01b0316331461344c5760408051808201825260178152762737ba103a3930b739b0b1ba34b7b71036b0b730b3b2b960491b6020820152905162461bcd60e51b81526106fc9190600401614dc3565b600554600160a01b900460ff1661349a57604080518082018252600f81526e139bdd081a5b9a5d1a585b1a5e9959608a1b6020820152905162461bcd60e51b81526106fc9190600401614dc3565b6001600160a01b03808216600090815260036020908152604091829020805483518085019094526019845260008051602061555b8339815191529284019290925292166134fa5760405162461bcd60e51b81526004016106fc9190614dc3565b506001600382015460ff16600481111561351657613516614a7d565b146040518060400160405280601981526020017f496e76616c69642061726269747261746f7220737461747573000000000000008152509061356b5760405162461bcd60e51b81526004016106fc9190614dc3565b5042601082015560038101805460ff191660049081179091556040516001600160a01b0384169160008051602061551b833981519152916135ac9190614ab5565b60405180910390a25050565b33600090815260036020526040902080546001600160a01b031661360f576040805180820182526019815260008051602061555b8339815191526020820152905162461bcd60e51b81526106fc9190600401614dc3565b600061361a33613797565b9050600034836005015461362e9190614dec565b60058401819055905060038084015460ff16600481111561365157613651614a7d565b036136ba57604080516102208101825284546001600160a01b031681526001850154602082015260028501549181019190915260038401546136a991908590606083019060ff1660048111156108d2576108d2614a7d565b6136ba5760038301805460ff191690555b825460405163888d8fd560e01b81526001600160a01b039091166004820152309063888d8fd590602401602060405180830381865afa158015613701573d6000803e3d6000fd5b505050506040513d601f19601f820116820180604052508101906137259190614e39565b60038401805460ff1916600183600481111561374357613743614a7d565b02179055506137528183613f24565b82546040805160008082526020820192839052600387015490936001600160a01b03169260008051602061553b833981519152926116be92349260ff909116906150b6565b6001600160a01b038116600090815260036020526040812081805b60088301548110156138d9576002546008840180546000926001600160a01b03169163d5ec2d8391859081106137ea576137ea615087565b90600052602060002001546040518263ffffffff1660e01b815260040161381391815260200190565b600060405180830381865afa158015613830573d6000803e3d6000fd5b505050506040513d6000823e601f3d908101601f1916820160405261385891908101906152c4565b91505060005b8160600151518110156138c4578160600151818151811061388157613881615087565b6020026020010151602001516402540be40061389d91906154a0565b6138b0906001600160401b031685614dec565b9350806138bc8161509d565b91505061385e565b505080806138d19061509d565b9150506137b2565b509392505050565b6001600160a01b03808216600090815260036020818152604080842081516102208101835281549096168652600181015492860192909252600282015490850152908101549192909161394a91908390606083019060ff1660048111156108d2576108d2614a7d565b156139585750600092915050565b604080516102208101825282546001600160a01b031681526001830154602082015260028301549181019190915260038201546139ab91908390606083019060ff166004811115611f1057611f10614a7d565b156139b95750600092915050565b6000600382015460ff1660048111156139d4576139d4614a7d565b149392505050565b6139e4613cbc565b6001600160a01b038116613a0e57604051631e4fbdf760e01b8152600060048201526024016106fc565b613a1781614642565b50565b613a226146d4565b613a30868686868686614439565b6000879003613a7657604080518082018252600f81526e456d70747920746f6b656e2049447360881b6020820152905162461bcd60e51b81526106fc9190600401614dc3565b3360009081526003602090815260409182902080548351808501909452601d84527f41726269747261746f7220616c726561647920726567697374657265640000009284019290925291906001600160a01b031615613ae85760405162461bcd60e51b81526004016106fc9190614dc3565b508054336001600160a01b031991821681178355600983018054831682179055600f83018054909216179055600e8101613b23878983614f0e565b50600d8101613b33858783614f0e565b50600b8101613b43878983614f0e565b50600a8101613b53858783614f0e565b5060018101839055600c81018290556000613b6e8a8a613d17565b9050613b7b828b8b613e35565b613b89826005015482613f24565b613b9282614180565b600154825460405163888d8fd560e01b81526001600160a01b039182166004820152911690339060008051602061553b8339815191529084908e908e90309063888d8fd590602401602060405180830381865afa158015613bf7573d6000803e3d6000fd5b505050506040513d601f19601f82011682018060405250810190613c1b9190614e39565b604051613c2b9493929190614e5a565b60405180910390a36009820154600f8301546040516001600160a01b039283169233927f1ab9d0508879cf64270650fc89b30617972d694fd1053946f028860daf125c7c92613c8992909116908d908d908d908d908d908d906154cb565b60405180910390a3505061314b60017f9b779b17422d0df92223018b32b4d1fa46e071723d6817e2486d003becc55f0055565b33613cee7f9016d09d72d40fdae2fd8ceac6b6234c7706214fd39c1cd1e609a0528c199300546001600160a01b031690565b6001600160a01b031614611ea75760405163118cdaa760e01b81523360048201526024016106fc565b600080805b838110156138d9576002546000906001600160a01b031663d5ec2d83878785818110613d4a57613d4a615087565b905060200201356040518263ffffffff1660e01b8152600401613d6f91815260200190565b600060405180830381865afa158015613d8c573d6000803e3d6000fd5b505050506040513d6000823e601f3d908101601f19168201604052613db491908101906152c4565b91505060005b816060015151811015613e205781606001518181518110613ddd57613ddd615087565b6020026020010151602001516402540be400613df991906154a0565b613e0c906001600160401b031685614dec565b935080613e188161509d565b915050613dba565b50508080613e2d9061509d565b915050613d1c565b60005b81811015613f1e576001546001600160a01b03166323b872dd3330868686818110613e6557613e65615087565b6040516001600160e01b031960e088901b1681526001600160a01b03958616600482015294909316602485015250602090910201356044820152606401600060405180830381600087803b158015613ebc57600080fd5b505af1158015613ed0573d6000803e3d6000fd5b5050505083600801838383818110613eea57613eea615087565b8354600181018555600094855260209485902091909402929092013591909201555080613f168161509d565b915050613e38565b50505050565b6000613f308284614dec565b60008054604080516332c70ad760e21b8152905193945091926001600160a01b0390911691636dd5b69d91839163cb1c2b5c9160048083019260209291908290030181865afa158015613f87573d6000803e3d6000fd5b505050506040513d601f19601f82011682018060405250810190613fab9190615206565b6040518263ffffffff1660e01b8152600401613fc991815260200190565b602060405180830381865afa158015613fe6573d6000803e3d6000fd5b505050506040513d601f19601f8201168201806040525081019061400a9190615206565b600080546040805163c98517c560e01b8152905193945091926001600160a01b0390911691636dd5b69d91839163c98517c59160048083019260209291908290030181865afa158015614061573d6000803e3d6000fd5b505050506040513d601f19601f820116820180604052508101906140859190615206565b6040518263ffffffff1660e01b81526004016140a391815260200190565b602060405180830381865afa1580156140c0573d6000803e3d6000fd5b505050506040513d601f19601f820116820180604052508101906140e49190615206565b90508183101561412e576040805180820182526012815271496e73756666696369656e74207374616b6560701b6020820152905162461bcd60e51b81526106fc9190600401614dc3565b808311156141795760408051808201825260158152745374616b652065786365656473206d6178696d756d60581b6020820152905162461bcd60e51b81526106fc9190600401614dc3565b5050505050565b60078101546001600160a01b03166141b9576001546007820180546001600160a01b0319166001600160a01b0390921691909117905550565b60015460078201546001600160a01b03908116911614613a17576040805180820182526014815273125b9d985b1a59081391950818dbdb9d1c9858dd60621b6020820152905162461bcd60e51b81526106fc9190600401614dc3565b60008082610180015111801561423057504282610180015111155b1561423d57506001919050565b815160405163014f6b1960e41b81526001600160a01b03909116600482015260009030906314f6b19090602401602060405180830381865afa158015614287573d6000803e3d6000fd5b505050506040513d601f19601f820116820180604052508101906142ab9190615206565b600054604080516332c70ad760e21b815290519293506001600160a01b0390911691636dd5b69d91839163cb1c2b5c916004808201926020929091908290030181865afa158015614300573d6000803e3d6000fd5b505050506040513d601f19601f820116820180604052508101906143249190615206565b6040518263ffffffff1660e01b815260040161434291815260200190565b602060405180830381865afa15801561435f573d6000803e3d6000fd5b505050506040513d601f19601f820116820180604052508101906143839190615206565b1192915050565b6000805460408051632f672f1960e11b8152905183926001600160a01b031691635ece5e329160048083019260209291908290030181865afa1580156143d4573d6000803e3d6000fd5b505050506040513d601f19601f820116820180604052508101906143f89190615206565b90508261020001516000036144105750600092915050565b42818461020001516144229190614dec565b116144305750600192915050565b50600092915050565b600085900361448157604080518082018252601181527024b73b30b634b2103830b930b6b2ba32b960791b6020820152905162461bcd60e51b81526106fc9190600401614dc3565b60008390036144c957604080518082018252601181527024b73b30b634b2103830b930b6b2ba32b960791b6020820152905162461bcd60e51b81526106fc9190600401614dc3565b60008054604080516325ba6ce560e11b815290516001600160a01b0390921691636dd5b69d918391634b74d9ca916004808201926020929091908290030181865afa15801561451c573d6000803e3d6000fd5b505050506040513d601f19601f820116820180604052508101906145409190615206565b6040518263ffffffff1660e01b815260040161455e91815260200190565b602060405180830381865afa15801561457b573d6000803e3d6000fd5b505050506040513d601f19601f8201168201806040525081019061459f9190615206565b9050808310156145e757604080518082018252601081526f496e76616c696420666565207261746560801b6020820152905162461bcd60e51b81526106fc9190600401614dc3565b81158015906145f65750428211155b1561463957604080518082018252601081526f496e76616c696420646561646c696e6560801b6020820152905162461bcd60e51b81526106fc9190600401614dc3565b50505050505050565b7f9016d09d72d40fdae2fd8ceac6b6234c7706214fd39c1cd1e609a0528c19930080546001600160a01b031981166001600160a01b03848116918217845560405192169182907f8be0079c531659141344cd1fd0a4f28419497f9722a3daafe3b4186f6b6457e090600090a3505050565b6146bb614744565b611ea761478d565b6146cb614744565b613a1781614795565b7f9b779b17422d0df92223018b32b4d1fa46e071723d6817e2486d003becc55f0080546001190161471857604051633ee5aeb560e01b815260040160405180910390fd5b60029055565b60017f9b779b17422d0df92223018b32b4d1fa46e071723d6817e2486d003becc55f0055565b7ff0c57e16840df040f15088dc2f81fe391c3923bec73e23a9662efc9c229c6a0054600160401b900460ff16611ea757604051631afcd79f60e31b815260040160405180910390fd5b61471e614744565b6139e4614744565b8280548282559060005260206000209081019282156147d8579160200282015b828111156147d85782518255916020019190600101906147bd565b506147e49291506147e8565b5090565b5b808211156147e457600081556001016147e9565b80356001600160a01b038116811461481457600080fd5b919050565b60006020828403121561482b57600080fd5b6110d9826147fd565b60008083601f84011261484657600080fd5b5081356001600160401b0381111561485d57600080fd5b6020830191508360208260051b850101111561487857600080fd5b9250929050565b6000806020838503121561489257600080fd5b82356001600160401b038111156148a857600080fd5b6148b485828601614834565b90969095509350505050565b60008083601f8401126148d257600080fd5b5081356001600160401b038111156148e957600080fd5b60208301915083602082850101111561487857600080fd5b60008060008060006060868803121561491957600080fd5b614922866147fd565b945060208601356001600160401b038082111561493e57600080fd5b61494a89838a016148c0565b9096509450604088013591508082111561496357600080fd5b50614970888289016148c0565b969995985093965092949392505050565b6000806040838503121561499457600080fd5b61499d836147fd565b946020939093013593505050565b600080600080600080608087890312156149c457600080fd5b86356001600160401b03808211156149db57600080fd5b6149e78a838b016148c0565b90985096506020890135915080821115614a0057600080fd5b50614a0d89828a016148c0565b979a9699509760408101359660609091013595509350505050565b60008060408385031215614a3b57600080fd5b614a44836147fd565b9150614a52602084016147fd565b90509250929050565b60008060408385031215614a6e57600080fd5b50508035926020909101359150565b634e487b7160e01b600052602160045260246000fd5b60058110614ab157634e487b7160e01b600052602160045260246000fd5b9052565b6020810161192b8284614a93565b600081518084526020808501945080840160005b83811015614af357815187529582019590820190600101614ad7565b509495945050505050565b60005b83811015614b19578181015183820152602001614b01565b50506000910152565b60008151808452614b3a816020860160208601614afe565b601f01601f19169290920160200192915050565b60208152614b686020820183516001600160a01b03169052565b602082015160408201526040820151606082015260006060830151614b906080840182614a93565b50608083015160a083015260a083015160c083015260c0830151614bbf60e08401826001600160a01b03169052565b5060e0830151610100614bdc818501836001600160a01b03169052565b808501519150506102206101208181860152614bfc610240860184614ac3565b90860151909250610140614c1a868201836001600160a01b03169052565b80870151915050601f19610160818786030181880152614c3a8584614b22565b945080880151925050610180818786030181880152614c598584614b22565b9450808801519250506101a08281880152808801519250506101c0818786030181880152614c878584614b22565b9450808801519250506101e0818786030181880152614ca68584614b22565b94508088015192505050610200614cc7818701836001600160a01b03169052565b959095015193019290925250919050565b600080600060608486031215614ced57600080fd5b614cf6846147fd565b9250614d04602085016147fd565b9150614d12604085016147fd565b90509250925092565b60008060008060008060008060a0898b031215614d3757600080fd5b88356001600160401b0380821115614d4e57600080fd5b614d5a8c838d01614834565b909a50985060208b0135915080821115614d7357600080fd5b614d7f8c838d016148c0565b909850965060408b0135915080821115614d9857600080fd5b50614da58b828c016148c0565b999c989b509699959896976060870135966080013595509350505050565b6020815260006110d96020830184614b22565b634e487b7160e01b600052601160045260246000fd5b8082018082111561192b5761192b614dd6565b600181811c90821680614e1357607f821691505b602082108103614e3357634e487b7160e01b600052602260045260246000fd5b50919050565b600060208284031215614e4b57600080fd5b8151600581106110d957600080fd5b848152606060208201819052810183905260006001600160fb1b03841115614e8157600080fd5b8360051b8086608085013782016080019050614ea06040830184614a93565b95945050505050565b634e487b7160e01b600052604160045260246000fd5b601f821115614f0957600081815260208120601f850160051c81016020861015614ee65750805b601f850160051c820191505b81811015614f0557828155600101614ef2565b5050505b505050565b6001600160401b03831115614f2557614f25614ea9565b614f3983614f338354614dff565b83614ebf565b6000601f841160018114614f6d5760008515614f555750838201355b600019600387901b1c1916600186901b178355614179565b600083815260209020601f19861690835b82811015614f9e5786850135825560209485019460019092019101614f7e565b5086821015614fbb5760001960f88860031b161c19848701351681555b505060018560011b0183555050505050565b81835281816020850137506000828201602090810191909152601f909101601f19169091010190565b6001600160a01b038616815260606020820181905260009061501b9083018688614fcd565b828103604084015261502e818587614fcd565b98975050505050505050565b60208082526011908201527041726269747261746f72576f726b696e6760781b604082015260600190565b60006020828403121561507757600080fd5b815180151581146110d957600080fd5b634e487b7160e01b600052603260045260246000fd5b6000600182016150af576150af614dd6565b5060010190565b6000606082018583526020606081850152818651808452608086019150828801935060005b818110156150f7578451835293830193918301916001016150db565b505080935050505061078b6040830184614a93565b6000815461511981614dff565b80855260206001838116801561513657600181146151505761517e565b60ff1985168884015283151560051b88018301955061517e565b866000528260002060005b858110156151765781548a820186015290830190840161515b565b890184019650505b505050505092915050565b6001600160a01b038616815260a0602082018190526000906151ad9083018761510c565b82810360408401526151bf818761510c565b60608401959095525050608001529392505050565b6040815260006151e8604083018688614fcd565b82810360208401526151fb818587614fcd565b979650505050505050565b60006020828403121561521857600080fd5b5051919050565b604051608081016001600160401b038111828210171561524157615241614ea9565b60405290565b604051606081016001600160401b038111828210171561524157615241614ea9565b604051601f8201601f191681016001600160401b038111828210171561529157615291614ea9565b604052919050565b805163ffffffff8116811461481457600080fd5b80516001600160401b038116811461481457600080fd5b600080604083850312156152d757600080fd5b8251915060208301516001600160401b03808211156152f557600080fd5b908401906080828703121561530957600080fd5b61531161521f565b8251815261532160208401615299565b6020820152604083015160ff8116811461533a57600080fd5b604082015260608301518281111561535157600080fd5b80840193505086601f84011261536657600080fd5b82518281111561537857615378614ea9565b61538760208260051b01615269565b8082825260208201915060208360051b8701019250898311156153a957600080fd5b602086015b8381101561548c578051868111156153c557600080fd5b8701601f196060828e03820112156153dc57600080fd5b6153e4615247565b6020830151898111156153f657600080fd5b8301603f81018f1361540757600080fd5b60208101518a81111561541c5761541c614ea9565b61542d602085601f84011601615269565b93508084528f604082840101111561544457600080fd5b615455816020860160408501614afe565b5050818152615466604084016152ad565b602082015261547760608401615299565b604082015285525050602092830192016153ae565b506060840152509497909650945050505050565b6001600160401b038181168382160280821691908281146154c3576154c3614dd6565b505092915050565b6001600160a01b038816815260a0602082018190526000906154f0908301888a614fcd565b8281036040840152615503818789614fcd565b60608401959095525050608001529594505050505056fe3a8979d9edd937f82708579234f5915d536a25d9fd31832a26aeb36a4a991c3c4a7441ccb0499b6afa089369858b4b9dccc3f55bc8732c72f51ae12075b2504041726269747261746f72206e6f74207265676973746572656400000000000000a2646970667358221220eecc3f1ade56effdf010baeee7d27d15893102a9d88eb181fe72f97f3ce3758d64736f6c63430008140033",
  "linkReferences": {},
  "deployedLinkReferences": {}
}