{
  "_format": "hh-sol-artifact-1",
  "contractName": "ArbitratorManager",
  "sourceName": "contracts/core/ArbitratorManager.sol",
  "abi": [
    {
      "inputs": [],
      "stateMutability": "nonpayable",
      "type": "constructor"
    },
    {
      "inputs": [],
      "name": "ALREADY_INITIALIZED",
      "type": "error"
    },
    {
      "inputs": [],
      "name": "ARBITRATOR_ALREADY_WORKING",
      "type": "error"
    },
    {
      "inputs": [],
      "name": "ARBITRATOR_NOT_ACTIVE",
      "type": "error"
    },
    {
      "inputs": [],
      "name": "ARBITRATOR_NOT_REGISTERED",
      "type": "error"
    },
    {
      "inputs": [],
      "name": "ARBITRATOR_NOT_WORKING",
      "type": "error"
    },
    {
      "inputs": [],
      "name": "EMPTY_TOKEN_IDS",
      "type": "error"
    },
    {
      "inputs": [],
      "name": "INSUFFICIENT_STAKE",
      "type": "error"
    },
    {
      "inputs": [],
      "name": "INVALID_NFT_CONTRACT",
      "type": "error"
    },
    {
      "inputs": [],
      "name": "INVALID_TRANSACTION_ID",
      "type": "error"
    },
    {
      "inputs": [],
      "name": "InvalidInitialization",
      "type": "error"
    },
    {
      "inputs": [],
      "name": "NOT_COMPENSATION_MANAGER",
      "type": "error"
    },
    {
      "inputs": [],
      "name": "NOT_INITIALIZED",
      "type": "error"
    },
    {
      "inputs": [],
      "name": "NOT_TRANSACTION_MANAGER",
      "type": "error"
    },
    {
      "inputs": [],
      "name": "NotInitializing",
      "type": "error"
    },
    {
      "inputs": [
        {
          "internalType": "address",
          "name": "owner",
          "type": "address"
        }
      ],
      "name": "OwnableInvalidOwner",
      "type": "error"
    },
    {
      "inputs": [
        {
          "internalType": "address",
          "name": "account",
          "type": "address"
        }
      ],
      "name": "OwnableUnauthorizedAccount",
      "type": "error"
    },
    {
      "inputs": [],
      "name": "ReentrancyGuardReentrantCall",
      "type": "error"
    },
    {
      "inputs": [],
      "name": "STAKE_EXCEEDS_MAX",
      "type": "error"
    },
    {
      "inputs": [],
      "name": "TRANSFER_FAILED",
      "type": "error"
    },
    {
      "inputs": [],
      "name": "ZERO_ADDRESS",
      "type": "error"
    },
    {
      "anonymous": false,
      "inputs": [
        {
          "indexed": true,
          "internalType": "address",
          "name": "arbitrator",
          "type": "address"
        },
        {
          "indexed": false,
          "internalType": "uint256",
          "name": "feeRate",
          "type": "uint256"
        },
        {
          "indexed": false,
          "internalType": "uint256",
          "name": "deadline",
          "type": "uint256"
        }
      ],
      "name": "ArbitratorParamsSet",
      "type": "event"
    },
    {
      "anonymous": false,
      "inputs": [
        {
          "indexed": true,
          "internalType": "address",
          "name": "arbitrator",
          "type": "address"
        }
      ],
      "name": "ArbitratorPaused",
      "type": "event"
    },
    {
      "anonymous": false,
      "inputs": [
        {
          "indexed": true,
          "internalType": "address",
          "name": "arbitrator",
          "type": "address"
        },
        {
          "indexed": false,
          "internalType": "enum DataTypes.ArbitratorStatus",
          "name": "status",
          "type": "uint8"
        }
      ],
      "name": "ArbitratorStatusChanged",
      "type": "event"
    },
    {
      "anonymous": false,
      "inputs": [
        {
          "indexed": true,
          "internalType": "address",
          "name": "arbitrator",
          "type": "address"
        }
      ],
      "name": "ArbitratorUnpaused",
      "type": "event"
    },
    {
      "anonymous": false,
      "inputs": [
        {
          "indexed": true,
          "internalType": "address",
          "name": "oldManager",
          "type": "address"
        },
        {
          "indexed": true,
          "internalType": "address",
          "name": "newManager",
          "type": "address"
        }
      ],
      "name": "CompensationManagerUpdated",
      "type": "event"
    },
    {
      "anonymous": false,
      "inputs": [
        {
          "indexed": false,
          "internalType": "uint64",
          "name": "version",
          "type": "uint64"
        }
      ],
      "name": "Initialized",
      "type": "event"
    },
    {
      "anonymous": false,
      "inputs": [
        {
          "indexed": true,
          "internalType": "address",
          "name": "transactionManager",
          "type": "address"
        },
        {
          "indexed": true,
          "internalType": "address",
          "name": "compensationManager",
          "type": "address"
        }
      ],
      "name": "Initialized",
      "type": "event"
    },
    {
      "anonymous": false,
      "inputs": [
        {
          "indexed": true,
          "internalType": "address",
          "name": "arbitrator",
          "type": "address"
        },
        {
          "indexed": true,
          "internalType": "address",
          "name": "operator",
          "type": "address"
        },
        {
          "indexed": false,
          "internalType": "bytes",
          "name": "btcPubKey",
          "type": "bytes"
        },
        {
          "indexed": false,
          "internalType": "string",
          "name": "btcAddress",
          "type": "string"
        }
      ],
      "name": "OperatorSet",
      "type": "event"
    },
    {
      "anonymous": false,
      "inputs": [
        {
          "indexed": true,
          "internalType": "address",
          "name": "previousOwner",
          "type": "address"
        },
        {
          "indexed": true,
          "internalType": "address",
          "name": "newOwner",
          "type": "address"
        }
      ],
      "name": "OwnershipTransferred",
      "type": "event"
    },
    {
      "anonymous": false,
      "inputs": [
        {
          "indexed": true,
          "internalType": "address",
          "name": "arbitrator",
          "type": "address"
        },
        {
          "indexed": false,
          "internalType": "address",
          "name": "ethAddress",
          "type": "address"
        },
        {
          "indexed": false,
          "internalType": "bytes",
          "name": "btcPubKey",
          "type": "bytes"
        },
        {
          "indexed": false,
          "internalType": "string",
          "name": "btcAddress",
          "type": "string"
        }
      ],
      "name": "RevenueAddressesSet",
      "type": "event"
    },
    {
      "anonymous": false,
      "inputs": [
        {
          "indexed": true,
          "internalType": "address",
          "name": "arbitrator",
          "type": "address"
        },
        {
          "indexed": true,
          "internalType": "address",
          "name": "assetAddress",
          "type": "address"
        },
        {
          "indexed": false,
          "internalType": "uint256",
          "name": "amount",
          "type": "uint256"
        }
      ],
      "name": "StakeAdded",
      "type": "event"
    },
    {
      "anonymous": false,
      "inputs": [
        {
          "indexed": true,
          "internalType": "address",
          "name": "arbitrator",
          "type": "address"
        },
        {
          "indexed": true,
          "internalType": "address",
          "name": "assetAddress",
          "type": "address"
        },
        {
          "indexed": false,
          "internalType": "uint256",
          "name": "amount",
          "type": "uint256"
        }
      ],
      "name": "StakeWithdrawn",
      "type": "event"
    },
    {
      "anonymous": false,
      "inputs": [
        {
          "indexed": true,
          "internalType": "address",
          "name": "oldManager",
          "type": "address"
        },
        {
          "indexed": true,
          "internalType": "address",
          "name": "newManager",
          "type": "address"
        }
      ],
      "name": "TransactionManagerUpdated",
      "type": "event"
    },
    {
      "inputs": [
        {
          "internalType": "address",
          "name": "arbitrator",
          "type": "address"
        }
      ],
      "name": "canUnstake",
      "outputs": [
        {
          "internalType": "bool",
          "name": "",
          "type": "bool"
        }
      ],
      "stateMutability": "view",
      "type": "function"
    },
    {
      "inputs": [],
      "name": "compensationManager",
      "outputs": [
        {
          "internalType": "address",
          "name": "",
          "type": "address"
        }
      ],
      "stateMutability": "view",
      "type": "function"
    },
    {
      "inputs": [],
      "name": "configManager",
      "outputs": [
        {
          "internalType": "contract ConfigManager",
          "name": "",
          "type": "address"
        }
      ],
      "stateMutability": "view",
      "type": "function"
    },
    {
      "inputs": [
        {
          "internalType": "address",
          "name": "arbitratorAddress",
          "type": "address"
        }
      ],
      "name": "getArbitratorInfo",
      "outputs": [
        {
          "components": [
            {
              "internalType": "address",
              "name": "arbitrator",
              "type": "address"
            },
            {
              "internalType": "uint256",
              "name": "currentFeeRate",
              "type": "uint256"
            },
            {
              "internalType": "uint256",
              "name": "pendingFeeRate",
              "type": "uint256"
            },
            {
              "internalType": "enum DataTypes.ArbitratorStatus",
              "name": "status",
              "type": "uint8"
            },
            {
              "internalType": "bytes32",
              "name": "activeTransactionId",
              "type": "bytes32"
            },
            {
              "internalType": "uint256",
              "name": "ethAmount",
              "type": "uint256"
            },
            {
              "internalType": "address",
              "name": "erc20Token",
              "type": "address"
            },
            {
              "internalType": "address",
              "name": "nftContract",
              "type": "address"
            },
            {
              "internalType": "uint256[]",
              "name": "nftTokenIds",
              "type": "uint256[]"
            },
            {
              "internalType": "address",
              "name": "operator",
              "type": "address"
            },
            {
              "internalType": "bytes",
              "name": "operatorBtcPubKey",
              "type": "bytes"
            },
            {
              "internalType": "string",
              "name": "operatorBtcAddress",
              "type": "string"
            },
            {
              "internalType": "uint256",
              "name": "lastArbitrationTime",
              "type": "uint256"
            },
            {
              "internalType": "bytes",
              "name": "revenueBtcPubKey",
              "type": "bytes"
            },
            {
              "internalType": "string",
              "name": "revenueBtcAddress",
              "type": "string"
            },
            {
              "internalType": "address",
              "name": "revenueETHAddress",
              "type": "address"
            }
          ],
          "internalType": "struct DataTypes.ArbitratorInfo",
          "name": "",
          "type": "tuple"
        }
      ],
      "stateMutability": "view",
      "type": "function"
    },
    {
      "inputs": [
        {
          "internalType": "address",
          "name": "arbitrator",
          "type": "address"
        }
      ],
      "name": "getAvailableStake",
      "outputs": [
        {
          "internalType": "uint256",
          "name": "",
          "type": "uint256"
        }
      ],
      "stateMutability": "view",
      "type": "function"
    },
    {
      "inputs": [
        {
          "internalType": "address",
          "name": "arbitrator",
          "type": "address"
        }
      ],
      "name": "getTotalNFTStakeValue",
      "outputs": [
        {
          "internalType": "uint256",
          "name": "",
          "type": "uint256"
        }
      ],
      "stateMutability": "view",
      "type": "function"
    },
    {
      "inputs": [
        {
          "internalType": "address",
          "name": "_transactionManager",
          "type": "address"
        },
        {
          "internalType": "address",
          "name": "_compensationManager",
          "type": "address"
        }
      ],
      "name": "initTransactionAndCompensationManager",
      "outputs": [],
      "stateMutability": "nonpayable",
      "type": "function"
    },
    {
      "inputs": [
        {
          "internalType": "address",
          "name": "_configManager",
          "type": "address"
        },
        {
          "internalType": "address",
          "name": "_nftContract",
          "type": "address"
        },
        {
          "internalType": "address",
          "name": "_nftInfo",
          "type": "address"
        }
      ],
      "name": "initialize",
      "outputs": [],
      "stateMutability": "nonpayable",
      "type": "function"
    },
    {
      "inputs": [
        {
          "internalType": "address",
          "name": "arbitratorAddress",
          "type": "address"
        }
      ],
      "name": "isActiveArbitrator",
      "outputs": [
        {
          "internalType": "bool",
          "name": "",
          "type": "bool"
        }
      ],
      "stateMutability": "view",
      "type": "function"
    },
    {
      "inputs": [
        {
          "internalType": "address",
          "name": "arbitrator",
          "type": "address"
        },
        {
          "internalType": "address",
          "name": "operator",
          "type": "address"
        }
      ],
      "name": "isOperatorOf",
      "outputs": [
        {
          "internalType": "bool",
          "name": "",
          "type": "bool"
        }
      ],
      "stateMutability": "view",
      "type": "function"
    },
    {
      "inputs": [
        {
          "internalType": "address",
          "name": "arbitrator",
          "type": "address"
        }
      ],
      "name": "isPaused",
      "outputs": [
        {
          "internalType": "bool",
          "name": "",
          "type": "bool"
        }
      ],
      "stateMutability": "view",
      "type": "function"
    },
    {
      "inputs": [],
      "name": "nftContract",
      "outputs": [
        {
          "internalType": "contract IERC721",
          "name": "",
          "type": "address"
        }
      ],
      "stateMutability": "view",
      "type": "function"
    },
    {
      "inputs": [],
      "name": "nftInfo",
      "outputs": [
        {
          "internalType": "contract IBNFTInfo",
          "name": "",
          "type": "address"
        }
      ],
      "stateMutability": "view",
      "type": "function"
    },
    {
      "inputs": [],
      "name": "owner",
      "outputs": [
        {
          "internalType": "address",
          "name": "",
          "type": "address"
        }
      ],
      "stateMutability": "view",
      "type": "function"
    },
    {
      "inputs": [],
      "name": "pause",
      "outputs": [],
      "stateMutability": "nonpayable",
      "type": "function"
    },
    {
      "inputs": [
        {
          "internalType": "address",
          "name": "arbitrator",
          "type": "address"
        },
        {
          "internalType": "bytes32",
          "name": "transactionId",
          "type": "bytes32"
        }
      ],
      "name": "releaseArbitrator",
      "outputs": [],
      "stateMutability": "nonpayable",
      "type": "function"
    },
    {
      "inputs": [],
      "name": "renounceOwnership",
      "outputs": [],
      "stateMutability": "nonpayable",
      "type": "function"
    },
    {
      "inputs": [
        {
          "internalType": "uint256",
          "name": "feeRate",
          "type": "uint256"
        },
        {
          "internalType": "uint256",
          "name": "deadline",
          "type": "uint256"
        }
      ],
      "name": "setArbitratorParams",
      "outputs": [],
      "stateMutability": "nonpayable",
      "type": "function"
    },
    {
      "inputs": [
        {
          "internalType": "address",
          "name": "arbitrator",
          "type": "address"
        },
        {
          "internalType": "bytes32",
          "name": "transactionId",
          "type": "bytes32"
        }
      ],
      "name": "setArbitratorWorking",
      "outputs": [],
      "stateMutability": "nonpayable",
      "type": "function"
    },
    {
      "inputs": [
        {
          "internalType": "address",
          "name": "_compensationManager",
          "type": "address"
        }
      ],
      "name": "setCompensationManager",
      "outputs": [],
      "stateMutability": "nonpayable",
      "type": "function"
    },
    {
      "inputs": [
        {
          "internalType": "address",
          "name": "operator",
          "type": "address"
        },
        {
          "internalType": "bytes",
          "name": "btcPubKey",
          "type": "bytes"
        },
        {
          "internalType": "string",
          "name": "btcAddress",
          "type": "string"
        }
      ],
      "name": "setOperator",
      "outputs": [],
      "stateMutability": "nonpayable",
      "type": "function"
    },
    {
      "inputs": [
        {
          "internalType": "address",
          "name": "ethAddress",
          "type": "address"
        },
        {
          "internalType": "bytes",
          "name": "btcPubKey",
          "type": "bytes"
        },
        {
          "internalType": "string",
          "name": "btcAddress",
          "type": "string"
        }
      ],
      "name": "setRevenueAddresses",
      "outputs": [],
      "stateMutability": "nonpayable",
      "type": "function"
    },
    {
      "inputs": [
        {
          "internalType": "address",
          "name": "_transactionManager",
          "type": "address"
        }
      ],
      "name": "setTransactionManager",
      "outputs": [],
      "stateMutability": "nonpayable",
      "type": "function"
    },
    {
      "inputs": [],
      "name": "stakeETH",
      "outputs": [],
      "stateMutability": "payable",
      "type": "function"
    },
    {
      "inputs": [
        {
          "internalType": "uint256[]",
          "name": "tokenIds",
          "type": "uint256[]"
        }
      ],
      "name": "stakeNFT",
      "outputs": [],
      "stateMutability": "nonpayable",
      "type": "function"
    },
    {
      "inputs": [
        {
          "internalType": "address",
          "name": "arbitrator",
          "type": "address"
        }
      ],
      "name": "terminateArbitratorWithSlash",
      "outputs": [],
      "stateMutability": "nonpayable",
      "type": "function"
    },
    {
      "inputs": [],
      "name": "transactionManager",
      "outputs": [
        {
          "internalType": "address",
          "name": "",
          "type": "address"
        }
      ],
      "stateMutability": "view",
      "type": "function"
    },
    {
      "inputs": [
        {
          "internalType": "address",
          "name": "newOwner",
          "type": "address"
        }
      ],
      "name": "transferOwnership",
      "outputs": [],
      "stateMutability": "nonpayable",
      "type": "function"
    },
    {
      "inputs": [],
      "name": "unpause",
      "outputs": [],
      "stateMutability": "nonpayable",
      "type": "function"
    },
    {
      "inputs": [],
      "name": "unstake",
      "outputs": [],
      "stateMutability": "nonpayable",
      "type": "function"
    },
    {
      "inputs": [],
      "name": "zeroAddress",
      "outputs": [
        {
          "internalType": "address",
          "name": "",
          "type": "address"
        }
      ],
      "stateMutability": "view",
      "type": "function"
    }
  ],
  "bytecode": "0x60806040523480156200001157600080fd5b506200001c62000022565b620000d6565b7ff0c57e16840df040f15088dc2f81fe391c3923bec73e23a9662efc9c229c6a00805468010000000000000000900460ff1615620000735760405163f92ee8a960e01b815260040160405180910390fd5b80546001600160401b0390811614620000d35780546001600160401b0319166001600160401b0390811782556040519081527fc7f505b2f371ae2175ee4913f4499e1f2633a7b5936321eed1cdaeb6115181d29060200160405180910390a15b50565b61318a80620000e66000396000f3fe6080604052600436106101d85760003560e01c8063715018a611610102578063ca0ab07511610095578063dceb986d11610064578063dceb986d14610587578063e25268d21461058f578063e2b4efb8146105af578063f2fde38b146105cf57600080fd5b8063ca0ab07514610507578063cedb588b14610527578063d2b6f74b14610547578063d56d229d1461056757600080fd5b806399056c3c116100d157806399056c3c1461047a578063998b2fd8146104a7578063b553fe1e146104c7578063c0c53b8b146104e757600080fd5b8063715018a6146103d95780638456cb59146103ee57806385f4498b146104035780638da5cb5b1461043d57600080fd5b80632def66201161017a5780634476a660116101495780634476a660146103595780635b14f18314610379578063654b4e83146103995780636a65f2fd146103b957600080fd5b80632def6620146102df57806339c25e2c146102f45780633b716452146103245780633f4ba83a1461034457600080fd5b806314f6b190116101b657806314f6b19014610251578063182c57441461027f57806329a3f2031461029f5780632b2d37da146102bf57600080fd5b80630559b877146101dd5780630930907b1461021a5780630b1fa61c1461022f575b600080fd5b3480156101e957600080fd5b506005546101fd906001600160a01b031681565b6040516001600160a01b0390911681526020015b60405180910390f35b34801561022657600080fd5b506101fd600081565b34801561023b57600080fd5b5061024f61024a3660046127c8565b6105ef565b005b34801561025d57600080fd5b5061027161026c3660046127c8565b610670565b604051908152602001610211565b34801561028b57600080fd5b5061024f61029a3660046127ea565b6106ac565b3480156102ab57600080fd5b5061024f6102ba3660046128a6565b610bbb565b3480156102cb57600080fd5b5061024f6102da366004612926565b610c80565b3480156102eb57600080fd5b5061024f610da8565b34801561030057600080fd5b5061031461030f366004612950565b611032565b6040519015158152602001610211565b34801561033057600080fd5b506004546101fd906001600160a01b031681565b34801561035057600080fd5b5061024f61105c565b34801561036557600080fd5b5061024f6103743660046127c8565b611154565b34801561038557600080fd5b506103146103943660046127c8565b6111d5565b3480156103a557600080fd5b5061024f6103b43660046128a6565b611211565b3480156103c557600080fd5b5061024f6103d4366004612983565b611326565b3480156103e557600080fd5b5061024f611537565b3480156103fa57600080fd5b5061024f61154b565b34801561040f57600080fd5b5061031461041e3660046127c8565b6001600160a01b03166000908152600360205260409020600401541590565b34801561044957600080fd5b507f9016d09d72d40fdae2fd8ceac6b6234c7706214fd39c1cd1e609a0528c199300546001600160a01b03166101fd565b34801561048657600080fd5b5061049a6104953660046127c8565b611646565b6040516102119190612a68565b3480156104b357600080fd5b5061024f6104c23660046127c8565b611a54565b3480156104d357600080fd5b506002546101fd906001600160a01b031681565b3480156104f357600080fd5b5061024f610502366004612be8565b611cc6565b34801561051357600080fd5b506000546101fd906001600160a01b031681565b34801561053357600080fd5b5061024f610542366004612926565b611e90565b34801561055357600080fd5b5061024f610562366004612950565b611fa9565b34801561057357600080fd5b506001546101fd906001600160a01b031681565b61024f612096565b34801561059b57600080fd5b506102716105aa3660046127c8565b612326565b3480156105bb57600080fd5b506103146105ca3660046127c8565b612461565b3480156105db57600080fd5b5061024f6105ea3660046127c8565b6125a2565b6105f76125e0565b6001600160a01b03811661061e5760405163538ba4f960e01b815260040160405180910390fd5b600480546001600160a01b038381166001600160a01b0319831681179093556040519116919082907f960d9803c7ca631d3232d16e9971c7fd8e82d5f7ff7c2824c7b29dcab8a37d2e90600090a35050565b6001600160a01b03811660009081526003602052604081208161069284612326565b90508082600501546106a49190612c41565b949350505050565b60008190036106ce57604051630b72e1b360e21b815260040160405180910390fd5b33600090815260036020526040902080546001600160a01b03166106fd5780546001600160a01b031916331781555b6000805b8381101561080b576002546000906001600160a01b031663d5ec2d8387878581811061072f5761072f612c54565b905060200201356040518263ffffffff1660e01b815260040161075491815260200190565b600060405180830381865afa158015610771573d6000803e3d6000fd5b505050506040513d6000823e601f3d908101601f191682016040526107999190810190612d25565b91505060005b8160600151518110156107f657816060015181815181106107c2576107c2612c54565b6020026020010151602001516001600160401b0316846107e29190612c41565b9350806107ee81612f01565b91505061079f565b5050808061080390612f01565b915050610701565b5060005b838110156108f5576001546001600160a01b03166323b872dd333088888681811061083c5761083c612c54565b6040516001600160e01b031960e088901b1681526001600160a01b03958616600482015294909316602485015250602090910201356044820152606401600060405180830381600087803b15801561089357600080fd5b505af11580156108a7573d6000803e3d6000fd5b50505050826008018585838181106108c1576108c1612c54565b83546001810185556000948552602094859020919094029290920135919092015550806108ed81612f01565b91505061080f565b5060008183600501546109089190612c41565b60008054604080516332c70ad760e21b8152905193945091926001600160a01b0390911691636dd5b69d91839163cb1c2b5c9160048083019260209291908290030181865afa15801561095f573d6000803e3d6000fd5b505050506040513d601f19601f820116820180604052508101906109839190612f1a565b6040518263ffffffff1660e01b81526004016109a191815260200190565b602060405180830381865afa1580156109be573d6000803e3d6000fd5b505050506040513d601f19601f820116820180604052508101906109e29190612f1a565b600080546040805163c98517c560e01b8152905193945091926001600160a01b0390911691636dd5b69d91839163c98517c59160048083019260209291908290030181865afa158015610a39573d6000803e3d6000fd5b505050506040513d601f19601f82011682018060405250810190610a5d9190612f1a565b6040518263ffffffff1660e01b8152600401610a7b91815260200190565b602060405180830381865afa158015610a98573d6000803e3d6000fd5b505050506040513d601f19601f82011682018060405250810190610abc9190612f1a565b905081831015610adf5760405163379e1d0760e01b815260040160405180910390fd5b80831115610b00576040516339ff922560e11b815260040160405180910390fd5b60078501546001600160a01b0316610b3b576001546007860180546001600160a01b0319166001600160a01b03909216919091179055610b6e565b60015460078601546001600160a01b03908116911614610b6e576040516312372a3960e01b815260040160405180910390fd5b6001546040518581526001600160a01b039091169033907ffb8efd70c9f0ca009bfc9f2ca8a9256a5aefbc720bdb8d838e4bcd42c241b9eb9060200160405180910390a350505050505050565b33600090815260036020526040902080546001600160a01b0316610bf257604051634381b6c160e11b815260040160405180910390fd5b600f810180546001600160a01b0319166001600160a01b038816179055600d8101610c1e858783612fbc565b50600e8101610c2e838583612fbc565b50336001600160a01b03167f8e68353cf53df77c6b6993341bb1d784fab04f2f38b2c51654b51de6ce32274e8787878787604051610c709594939291906130a5565b60405180910390a2505050505050565b6004546001600160a01b03163314610cab57604051631a4273c160e01b815260040160405180910390fd5b600554600160a01b900460ff16610cd557604051630f68fe6360e21b815260040160405180910390fd5b6001600160a01b03821660009081526003602052604081209060038083015460ff1690811115610d0757610d076129a5565b14610d255760405163689b992760e01b815260040160405180910390fd5b600481015415610d4857604051630f58271760e01b815260040160405180910390fd5b60038101805460ff19166001908117909155600482018390556040516001600160a01b038516917f3a8979d9edd937f82708579234f5915d536a25d9fd31832a26aeb36a4a991c3c91610d9b91906130e9565b60405180910390a2505050565b336000908152600360205260409020600481015415610de25760405162461bcd60e51b8152600401610dd9906130f7565b60405180910390fd5b3360009081526003602052604090206005810154151580610e065750600881015415155b610e3c5760405162461bcd60e51b81526020600482015260076024820152664e6f5374616b6560c81b6044820152606401610dd9565b600581018054600090915560078201546001600160a01b031615801590610e665750600882015415155b15610f645760005b6008830154811015610f30576001546008840180546001600160a01b03909216916323b872dd91309133919086908110610eaa57610eaa612c54565b6000918252602090912001546040516001600160e01b031960e086901b1681526001600160a01b0393841660048201529290911660248301526044820152606401600060405180830381600087803b158015610f0557600080fd5b505af1158015610f19573d6000803e3d6000fd5b505050508080610f2890612f01565b915050610e6e565b506040805160008152602081019182905251610f5091600885019161274c565b506007820180546001600160a01b03191690555b8015610ff557604051600090339083908381818185875af1925050503d8060008114610fac576040519150601f19603f3d011682016040523d82523d6000602084013e610fb1565b606091505b5050905080610ff35760405162461bcd60e51b815260206004820152600e60248201526d151c985b9cd9995c91985a5b195960921b6044820152606401610dd9565b505b60405181815260009033907fb7c918e0e249f999e965cafeb6c664271b3f4317d296461500e71da39f0cbda39060200160405180910390a3505050565b6001600160a01b038281166000908152600360205260409020600901548116908216145b92915050565b33600090815260036020526040902060048101541561108d5760405162461bcd60e51b8152600401610dd9906130f7565b33600090815260036020526040902080546001600160a01b03166110c457604051634381b6c160e11b815260040160405180910390fd5b600260038083015460ff16908111156110df576110df6129a5565b146111195760405162461bcd60e51b815260206004820152600a6024820152691b9bdd081c185d5cd95960b21b6044820152606401610dd9565b60038101805460ff1916905560405133907f9f71f687820b75e4208e6fdd2091be151d94465fe4bafd2506bed2b9a430437d90600090a25050565b61115c6125e0565b6001600160a01b0381166111835760405163538ba4f960e01b815260040160405180910390fd5b600580546001600160a01b038381166001600160a01b0319831681179093556040519116919082907fb2de57cf284062a9a3402f8683281c49d5a6747b1f369d0eec883b83503f3c8d90600090a35050565b600060026001600160a01b038316600090815260036020819052604090912081015460ff169081111561120a5761120a6129a5565b1492915050565b6001600160a01b0385166112595760405162461bcd60e51b815260206004820152600f60248201526e24b73b30b634b227b832b930ba37b960891b6044820152606401610dd9565b33600090815260036020526040902080546001600160a01b031661129057604051634381b6c160e11b815260040160405180910390fd5b6009810180546001600160a01b0319166001600160a01b038816179055600a81016112bc858783612fbc565b50600b81016112cc838583612fbc565b50856001600160a01b0316336001600160a01b03167ff920b7832d3774e2ac2efb86fccb411bc92e19a8ea66687764dea93140bdad4a878787876040516113169493929190613122565b60405180910390a3505050505050565b3360009081526003602052604090206004810154156113575760405162461bcd60e51b8152600401610dd9906130f7565b600054604080516325ba6ce560e11b815290516001600160a01b0390921691636dd5b69d918391634b74d9ca916004808201926020929091908290030181865afa1580156113a9573d6000803e3d6000fd5b505050506040513d601f19601f820116820180604052508101906113cd9190612f1a565b6040518263ffffffff1660e01b81526004016113eb91815260200190565b602060405180830381865afa158015611408573d6000803e3d6000fd5b505050506040513d601f19601f8201168201806040525081019061142c9190612f1a565b8310156114675760405162461bcd60e51b8152602060048201526009602482015268466565546f6f4c6f7760b81b6044820152606401610dd9565b81158061147357504282115b6114b15760405162461bcd60e51b815260206004820152600f60248201526e496e76616c6964446561646c696e6560881b6044820152606401610dd9565b33600090815260036020526040902080546001600160a01b03166114e857604051634381b6c160e11b815260040160405180910390fd5b60018101849055600c8101839055604080518581526020810185905233917f37a8e1e367daa706c049f32e9f3db5c7f05287d62d178accd3a148a80d4bf01a910160405180910390a250505050565b61153f6125e0565b611549600061263b565b565b33600090815260036020526040902060048101541561157c5760405162461bcd60e51b8152600401610dd9906130f7565b33600090815260036020526040902080546001600160a01b03166115b357604051634381b6c160e11b815260040160405180910390fd5b600060038083015460ff16908111156115ce576115ce6129a5565b146116085760405162461bcd60e51b815260206004820152600a6024820152694e6f742061637469766560b01b6044820152606401610dd9565b60038101805460ff1916600217905560405133907ff8f74f9bb1ed360c36a0bd59e0d8aa5cbdd15bb6e8e86af871f343daf432be2290600090a25050565b604080516102008101825260008082526020820181905291810182905260608082018390526080820183905260a0820183905260c0820183905260e08201839052610100820181905261012082018390526101408201819052610160820181905261018082018390526101a082018190526101c08201526101e08101919091526001600160a01b038083166000908152600360208181526040928390208351610200810185528154909516855260018101549185019190915260028101549284019290925281810154606084019160ff90911690811115611729576117296129a5565b600381111561173a5761173a6129a5565b81526004820154602080830191909152600583015460408084019190915260068401546001600160a01b039081166060850152600785015416608084015260088401805482518185028101850190935280835260a09094019391929091908301828280156117c757602002820191906000526020600020905b8154815260200190600101908083116117b3575b505050918352505060098201546001600160a01b03166020820152600a820180546040909201916117f790612f33565b80601f016020809104026020016040519081016040528092919081815260200182805461182390612f33565b80156118705780601f1061184557610100808354040283529160200191611870565b820191906000526020600020905b81548152906001019060200180831161185357829003601f168201915b50505050508152602001600b8201805461188990612f33565b80601f01602080910402602001604051908101604052809291908181526020018280546118b590612f33565b80156119025780601f106118d757610100808354040283529160200191611902565b820191906000526020600020905b8154815290600101906020018083116118e557829003601f168201915b50505050508152602001600c8201548152602001600d8201805461192590612f33565b80601f016020809104026020016040519081016040528092919081815260200182805461195190612f33565b801561199e5780601f106119735761010080835404028352916020019161199e565b820191906000526020600020905b81548152906001019060200180831161198157829003601f168201915b50505050508152602001600e820180546119b790612f33565b80601f01602080910402602001604051908101604052809291908181526020018280546119e390612f33565b8015611a305780601f10611a0557610100808354040283529160200191611a30565b820191906000526020600020905b815481529060010190602001808311611a1357829003601f168201915b5050509183525050600f91909101546001600160a01b031660209091015292915050565b6005546001600160a01b03163314611a7f57604051636f5ba97360e01b815260040160405180910390fd5b600554600160a01b900460ff16611aa957604051630f68fe6360e21b815260040160405180910390fd5b6001600160a01b0380821660009081526003602052604090208054909116611ae457604051634381b6c160e11b815260040160405180910390fd5b6003818101805460ff1916909117905560058101548015611b7c5760006005838101829055546040516001600160a01b039091169083908381818185875af1925050503d8060008114611b53576040519150601f19603f3d011682016040523d82523d6000602084013e611b58565b606091505b5050905080611b7a57604051631fa55c0760e11b815260040160405180910390fd5b505b60078201546001600160a01b031615801590611b9b5750600882015415155b15611c8c5760005b6008830154811015611c6a5760078301546005546008850180546001600160a01b03938416936323b872dd93309391169186908110611be457611be4612c54565b6000918252602090912001546040516001600160e01b031960e086901b1681526001600160a01b0393841660048201529290911660248301526044820152606401600060405180830381600087803b158015611c3f57600080fd5b505af1158015611c53573d6000803e3d6000fd5b505050508080611c6290612f01565b915050611ba3565b506040805160008152602081019182905251611c8a91600885019161274c565b505b826001600160a01b03167f3a8979d9edd937f82708579234f5915d536a25d9fd31832a26aeb36a4a991c3c6003604051610d9b91906130e9565b7ff0c57e16840df040f15088dc2f81fe391c3923bec73e23a9662efc9c229c6a008054600160401b810460ff1615906001600160401b0316600081158015611d0b5750825b90506000826001600160401b03166001148015611d275750303b155b905081158015611d35575080155b15611d535760405163f92ee8a960e01b815260040160405180910390fd5b845467ffffffffffffffff191660011785558315611d7d57845460ff60401b1916600160401b1785555b611d856126ac565b611d8e336126bc565b6001600160a01b038816611db55760405163538ba4f960e01b815260040160405180910390fd5b6001600160a01b038716611ddc5760405163538ba4f960e01b815260040160405180910390fd5b6001600160a01b038616611e035760405163538ba4f960e01b815260040160405180910390fd5b600080546001600160a01b03808b166001600160a01b031992831617909255600180548a841690831617905560028054928916929091169190911790558315611e8657845460ff60401b19168555604051600181527fc7f505b2f371ae2175ee4913f4499e1f2633a7b5936321eed1cdaeb6115181d29060200160405180910390a15b5050505050505050565b6004546001600160a01b03163314611ebb57604051631a4273c160e01b815260040160405180910390fd5b600554600160a01b900460ff16611ee557604051630f68fe6360e21b815260040160405180910390fd5b6001600160a01b0382166000908152600360205260409020600160038083015460ff1690811115611f1857611f186129a5565b14611f365760405163650925bd60e11b815260040160405180910390fd5b81816004015414611f5a5760405163286976e760e21b815260040160405180910390fd5b60038101805460ff191690556000600482018190556040516001600160a01b038516917f3a8979d9edd937f82708579234f5915d536a25d9fd31832a26aeb36a4a991c3c91610d9b91906130e9565b611fb16125e0565b600554600160a01b900460ff1615611fdc5760405163439a74c960e01b815260040160405180910390fd5b6001600160a01b0382166120035760405163538ba4f960e01b815260040160405180910390fd5b6001600160a01b03811661202a5760405163538ba4f960e01b815260040160405180910390fd5b600480546001600160a01b038085166001600160a01b03199092168217909255600580546001600160a81b03191684841617600160a01b17908190556040519216917f3cd5ec01b1ae7cfec6ca1863e2cd6aa25d6d1702825803ff2b7cc95010fffdc290600090a35050565b33600090815260036020526040902080546001600160a01b03166120c55780546001600160a01b031916331781555b60006120d033612326565b905060003483600501546120e49190612c41565b60058401819055905060006120f98383612c41565b60008054604080516332c70ad760e21b8152905193945091926001600160a01b0390911691636dd5b69d91839163cb1c2b5c9160048083019260209291908290030181865afa158015612150573d6000803e3d6000fd5b505050506040513d601f19601f820116820180604052508101906121749190612f1a565b6040518263ffffffff1660e01b815260040161219291815260200190565b602060405180830381865afa1580156121af573d6000803e3d6000fd5b505050506040513d601f19601f820116820180604052508101906121d39190612f1a565b600080546040805163c98517c560e01b8152905193945091926001600160a01b0390911691636dd5b69d91839163c98517c59160048083019260209291908290030181865afa15801561222a573d6000803e3d6000fd5b505050506040513d601f19601f8201168201806040525081019061224e9190612f1a565b6040518263ffffffff1660e01b815260040161226c91815260200190565b602060405180830381865afa158015612289573d6000803e3d6000fd5b505050506040513d601f19601f820116820180604052508101906122ad9190612f1a565b9050818310156122d05760405163379e1d0760e01b815260040160405180910390fd5b808311156122f1576040516339ff922560e11b815260040160405180910390fd5b60405134815260009033907ffb8efd70c9f0ca009bfc9f2ca8a9256a5aefbc720bdb8d838e4bcd42c241b9eb90602001611316565b6001600160a01b038116600090815260036020526040812081805b6008830154811015612459576002546008840180546000926001600160a01b03169163d5ec2d83918590811061237957612379612c54565b90600052602060002001546040518263ffffffff1660e01b81526004016123a291815260200190565b600060405180830381865afa1580156123bf573d6000803e3d6000fd5b505050506040513d6000823e601f3d908101601f191682016040526123e79190810190612d25565b91505060005b816060015151811015612444578160600151818151811061241057612410612c54565b6020026020010151602001516001600160401b0316846124309190612c41565b93508061243c81612f01565b9150506123ed565b5050808061245190612f01565b915050612341565b509392505050565b6001600160a01b03811660009081526003602052604081208160038083015460ff1690811115612493576124936129a5565b146124a15750600092915050565b60006124ac84612326565b905060008183600501546124c09190612c41565b600054604080516332c70ad760e21b815290519293506001600160a01b0390911691636dd5b69d91839163cb1c2b5c916004808201926020929091908290030181865afa158015612515573d6000803e3d6000fd5b505050506040513d601f19601f820116820180604052508101906125399190612f1a565b6040518263ffffffff1660e01b815260040161255791815260200190565b602060405180830381865afa158015612574573d6000803e3d6000fd5b505050506040513d601f19601f820116820180604052508101906125989190612f1a565b1115949350505050565b6125aa6125e0565b6001600160a01b0381166125d457604051631e4fbdf760e01b815260006004820152602401610dd9565b6125dd8161263b565b50565b336126127f9016d09d72d40fdae2fd8ceac6b6234c7706214fd39c1cd1e609a0528c199300546001600160a01b031690565b6001600160a01b0316146115495760405163118cdaa760e01b8152336004820152602401610dd9565b7f9016d09d72d40fdae2fd8ceac6b6234c7706214fd39c1cd1e609a0528c19930080546001600160a01b031981166001600160a01b03848116918217845560405192169182907f8be0079c531659141344cd1fd0a4f28419497f9722a3daafe3b4186f6b6457e090600090a3505050565b6126b46126cd565b611549612716565b6126c46126cd565b6125dd81612744565b7ff0c57e16840df040f15088dc2f81fe391c3923bec73e23a9662efc9c229c6a0054600160401b900460ff1661154957604051631afcd79f60e31b815260040160405180910390fd5b61271e6126cd565b60017f9b779b17422d0df92223018b32b4d1fa46e071723d6817e2486d003becc55f0055565b6125aa6126cd565b828054828255906000526020600020908101928215612787579160200282015b8281111561278757825182559160200191906001019061276c565b50612793929150612797565b5090565b5b808211156127935760008155600101612798565b80356001600160a01b03811681146127c357600080fd5b919050565b6000602082840312156127da57600080fd5b6127e3826127ac565b9392505050565b600080602083850312156127fd57600080fd5b82356001600160401b038082111561281457600080fd5b818501915085601f83011261282857600080fd5b81358181111561283757600080fd5b8660208260051b850101111561284c57600080fd5b60209290920196919550909350505050565b60008083601f84011261287057600080fd5b5081356001600160401b0381111561288757600080fd5b60208301915083602082850101111561289f57600080fd5b9250929050565b6000806000806000606086880312156128be57600080fd5b6128c7866127ac565b945060208601356001600160401b03808211156128e357600080fd5b6128ef89838a0161285e565b9096509450604088013591508082111561290857600080fd5b506129158882890161285e565b969995985093965092949392505050565b6000806040838503121561293957600080fd5b612942836127ac565b946020939093013593505050565b6000806040838503121561296357600080fd5b61296c836127ac565b915061297a602084016127ac565b90509250929050565b6000806040838503121561299657600080fd5b50508035926020909101359150565b634e487b7160e01b600052602160045260246000fd5b600481106129d957634e487b7160e01b600052602160045260246000fd5b9052565b600081518084526020808501945080840160005b83811015612a0d578151875295820195908201906001016129f1565b509495945050505050565b60005b83811015612a33578181015183820152602001612a1b565b50506000910152565b60008151808452612a54816020860160208601612a18565b601f01601f19169290920160200192915050565b60208152612a826020820183516001600160a01b03169052565b602082015160408201526040820151606082015260006060830151612aaa60808401826129bb565b50608083015160a083015260a083015160c083015260c0830151612ad960e08401826001600160a01b03169052565b5060e0830151610100612af6818501836001600160a01b03169052565b808501519150506102006101208181860152612b166102208601846129dd565b90860151909250610140612b34868201836001600160a01b03169052565b80870151915050601f19610160818786030181880152612b548584612a3c565b945080880151925050610180818786030181880152612b738584612a3c565b9450808801519250506101a08281880152808801519250506101c0818786030181880152612ba18584612a3c565b9450808801519250506101e0818786030181880152612bc08584612a3c565b94508088015192505050612bde828601826001600160a01b03169052565b5090949350505050565b600080600060608486031215612bfd57600080fd5b612c06846127ac565b9250612c14602085016127ac565b9150612c22604085016127ac565b90509250925092565b634e487b7160e01b600052601160045260246000fd5b8082018082111561105657611056612c2b565b634e487b7160e01b600052603260045260246000fd5b634e487b7160e01b600052604160045260246000fd5b604051608081016001600160401b0381118282101715612ca257612ca2612c6a565b60405290565b604051606081016001600160401b0381118282101715612ca257612ca2612c6a565b604051601f8201601f191681016001600160401b0381118282101715612cf257612cf2612c6a565b604052919050565b805163ffffffff811681146127c357600080fd5b80516001600160401b03811681146127c357600080fd5b60008060408385031215612d3857600080fd5b8251915060208301516001600160401b0380821115612d5657600080fd5b9084019060808287031215612d6a57600080fd5b612d72612c80565b82518152612d8260208401612cfa565b6020820152604083015160ff81168114612d9b57600080fd5b6040820152606083015182811115612db257600080fd5b80840193505086601f840112612dc757600080fd5b825182811115612dd957612dd9612c6a565b612de860208260051b01612cca565b8082825260208201915060208360051b870101925089831115612e0a57600080fd5b602086015b83811015612eed57805186811115612e2657600080fd5b8701601f196060828e0382011215612e3d57600080fd5b612e45612ca8565b602083015189811115612e5757600080fd5b8301603f81018f13612e6857600080fd5b60208101518a811115612e7d57612e7d612c6a565b612e8e602085601f84011601612cca565b93508084528f6040828401011115612ea557600080fd5b612eb6816020860160408501612a18565b5050818152612ec760408401612d0e565b6020820152612ed860608401612cfa565b60408201528552505060209283019201612e0f565b506060840152509497909650945050505050565b600060018201612f1357612f13612c2b565b5060010190565b600060208284031215612f2c57600080fd5b5051919050565b600181811c90821680612f4757607f821691505b602082108103612f6757634e487b7160e01b600052602260045260246000fd5b50919050565b601f821115612fb757600081815260208120601f850160051c81016020861015612f945750805b601f850160051c820191505b81811015612fb357828155600101612fa0565b5050505b505050565b6001600160401b03831115612fd357612fd3612c6a565b612fe783612fe18354612f33565b83612f6d565b6000601f84116001811461301b57600085156130035750838201355b600019600387901b1c1916600186901b178355613075565b600083815260209020601f19861690835b8281101561304c578685013582556020948501946001909201910161302c565b50868210156130695760001960f88860031b161c19848701351681555b505060018560011b0183555b5050505050565b81835281816020850137506000828201602090810191909152601f909101601f19169091010190565b6001600160a01b03861681526060602082018190526000906130ca908301868861307c565b82810360408401526130dd81858761307c565b98975050505050505050565b6020810161105682846129bb565b60208082526011908201527041726269747261746f72576f726b696e6760781b604082015260600190565b60408152600061313660408301868861307c565b828103602084015261314981858761307c565b97965050505050505056fea2646970667358221220a911df8a76ab48ff52462d98a83032395b9c12832124f7acdde530dd7b6cc79c64736f6c63430008140033",
  "linkReferences": {},
  "deployedLinkReferences": {}
}