{
  "_format": "hh-sol-artifact-1",
  "contractName": "ArbitratorManager",
  "sourceName": "contracts/core/ArbitratorManager.sol",
  "abi": [
    {
      "inputs": [],
      "stateMutability": "nonpayable",
      "type": "constructor"
    },
    {
      "inputs": [],
      "name": "InvalidInitialization",
      "type": "error"
    },
    {
      "inputs": [],
      "name": "NotInitializing",
      "type": "error"
    },
    {
      "inputs": [
        {
          "internalType": "address",
          "name": "owner",
          "type": "address"
        }
      ],
      "name": "OwnableInvalidOwner",
      "type": "error"
    },
    {
      "inputs": [
        {
          "internalType": "address",
          "name": "account",
          "type": "address"
        }
      ],
      "name": "OwnableUnauthorizedAccount",
      "type": "error"
    },
    {
      "inputs": [],
      "name": "ReentrancyGuardReentrantCall",
      "type": "error"
    },
    {
      "anonymous": false,
      "inputs": [
        {
          "indexed": true,
          "internalType": "address",
          "name": "arbitrator",
          "type": "address"
        },
        {
          "indexed": false,
          "internalType": "uint256",
          "name": "feeRate",
          "type": "uint256"
        },
        {
          "indexed": false,
          "internalType": "uint256",
          "name": "deadline",
          "type": "uint256"
        }
      ],
      "name": "ArbitratorParamsSet",
      "type": "event"
    },
    {
      "anonymous": false,
      "inputs": [
        {
          "indexed": true,
          "internalType": "address",
          "name": "arbitrator",
          "type": "address"
        }
      ],
      "name": "ArbitratorPaused",
      "type": "event"
    },
    {
      "anonymous": false,
      "inputs": [
        {
          "indexed": true,
          "internalType": "address",
          "name": "arbitrator",
          "type": "address"
        },
        {
          "indexed": true,
          "internalType": "address",
          "name": "operator",
          "type": "address"
        },
        {
          "indexed": false,
          "internalType": "address",
          "name": "revenueAddress",
          "type": "address"
        },
        {
          "indexed": false,
          "internalType": "string",
          "name": "btcAddress",
          "type": "string"
        },
        {
          "indexed": false,
          "internalType": "bytes",
          "name": "btcPubKey",
          "type": "bytes"
        },
        {
          "indexed": false,
          "internalType": "uint256",
          "name": "feeRate",
          "type": "uint256"
        },
        {
          "indexed": false,
          "internalType": "uint256",
          "name": "deadline",
          "type": "uint256"
        }
      ],
      "name": "ArbitratorRegistered",
      "type": "event"
    },
    {
      "anonymous": false,
      "inputs": [
        {
          "indexed": true,
          "internalType": "address",
          "name": "arbitrator",
          "type": "address"
        },
        {
          "indexed": false,
          "internalType": "enum DataTypes.ArbitratorStatus",
          "name": "status",
          "type": "uint8"
        }
      ],
      "name": "ArbitratorStatusChanged",
      "type": "event"
    },
    {
      "anonymous": false,
      "inputs": [
        {
          "indexed": true,
          "internalType": "address",
          "name": "arbitrator",
          "type": "address"
        }
      ],
      "name": "ArbitratorUnpaused",
      "type": "event"
    },
    {
      "anonymous": false,
      "inputs": [
        {
          "indexed": true,
          "internalType": "address",
          "name": "oldManager",
          "type": "address"
        },
        {
          "indexed": true,
          "internalType": "address",
          "name": "newManager",
          "type": "address"
        }
      ],
      "name": "CompensationManagerUpdated",
      "type": "event"
    },
    {
      "anonymous": false,
      "inputs": [
        {
          "indexed": false,
          "internalType": "uint64",
          "name": "version",
          "type": "uint64"
        }
      ],
      "name": "Initialized",
      "type": "event"
    },
    {
      "anonymous": false,
      "inputs": [
        {
          "indexed": true,
          "internalType": "address",
          "name": "transactionManager",
          "type": "address"
        },
        {
          "indexed": true,
          "internalType": "address",
          "name": "compensationManager",
          "type": "address"
        }
      ],
      "name": "InitializedManager",
      "type": "event"
    },
    {
      "anonymous": false,
      "inputs": [
        {
          "indexed": true,
          "internalType": "address",
          "name": "arbitrator",
          "type": "address"
        },
        {
          "indexed": true,
          "internalType": "address",
          "name": "operator",
          "type": "address"
        },
        {
          "indexed": false,
          "internalType": "bytes",
          "name": "btcPubKey",
          "type": "bytes"
        },
        {
          "indexed": false,
          "internalType": "string",
          "name": "btcAddress",
          "type": "string"
        }
      ],
      "name": "OperatorSet",
      "type": "event"
    },
    {
      "anonymous": false,
      "inputs": [
        {
          "indexed": true,
          "internalType": "address",
          "name": "previousOwner",
          "type": "address"
        },
        {
          "indexed": true,
          "internalType": "address",
          "name": "newOwner",
          "type": "address"
        }
      ],
      "name": "OwnershipTransferred",
      "type": "event"
    },
    {
      "anonymous": false,
      "inputs": [
        {
          "indexed": true,
          "internalType": "address",
          "name": "arbitrator",
          "type": "address"
        },
        {
          "indexed": false,
          "internalType": "address",
          "name": "ethAddress",
          "type": "address"
        },
        {
          "indexed": false,
          "internalType": "bytes",
          "name": "btcPubKey",
          "type": "bytes"
        },
        {
          "indexed": false,
          "internalType": "string",
          "name": "btcAddress",
          "type": "string"
        }
      ],
      "name": "RevenueAddressesSet",
      "type": "event"
    },
    {
      "anonymous": false,
      "inputs": [
        {
          "indexed": true,
          "internalType": "address",
          "name": "arbitrator",
          "type": "address"
        },
        {
          "indexed": true,
          "internalType": "address",
          "name": "assetAddress",
          "type": "address"
        },
        {
          "indexed": false,
          "internalType": "uint256",
          "name": "amount",
          "type": "uint256"
        }
      ],
      "name": "StakeAdded",
      "type": "event"
    },
    {
      "anonymous": false,
      "inputs": [
        {
          "indexed": true,
          "internalType": "address",
          "name": "arbitrator",
          "type": "address"
        },
        {
          "indexed": true,
          "internalType": "address",
          "name": "assetAddress",
          "type": "address"
        },
        {
          "indexed": false,
          "internalType": "uint256",
          "name": "amount",
          "type": "uint256"
        }
      ],
      "name": "StakeWithdrawn",
      "type": "event"
    },
    {
      "anonymous": false,
      "inputs": [
        {
          "indexed": true,
          "internalType": "address",
          "name": "oldManager",
          "type": "address"
        },
        {
          "indexed": true,
          "internalType": "address",
          "name": "newManager",
          "type": "address"
        }
      ],
      "name": "TransactionManagerUpdated",
      "type": "event"
    },
    {
      "inputs": [
        {
          "internalType": "address",
          "name": "arbitrator",
          "type": "address"
        }
      ],
      "name": "canUnStake",
      "outputs": [
        {
          "internalType": "bool",
          "name": "",
          "type": "bool"
        }
      ],
      "stateMutability": "view",
      "type": "function"
    },
    {
      "inputs": [],
      "name": "compensationManager",
      "outputs": [
        {
          "internalType": "address",
          "name": "",
          "type": "address"
        }
      ],
      "stateMutability": "view",
      "type": "function"
    },
    {
      "inputs": [],
      "name": "configManager",
      "outputs": [
        {
          "internalType": "contract ConfigManager",
          "name": "",
          "type": "address"
        }
      ],
      "stateMutability": "view",
      "type": "function"
    },
    {
      "inputs": [
        {
          "internalType": "address",
          "name": "arbitratorAddress",
          "type": "address"
        }
      ],
      "name": "getArbitratorInfo",
      "outputs": [
        {
          "components": [
            {
              "internalType": "address",
              "name": "arbitrator",
              "type": "address"
            },
            {
              "internalType": "uint256",
              "name": "currentFeeRate",
              "type": "uint256"
            },
            {
              "internalType": "uint256",
              "name": "pendingFeeRate",
              "type": "uint256"
            },
            {
              "internalType": "enum DataTypes.ArbitratorStatus",
              "name": "status",
              "type": "uint8"
            },
            {
              "internalType": "bytes32",
              "name": "activeTransactionId",
              "type": "bytes32"
            },
            {
              "internalType": "uint256",
              "name": "ethAmount",
              "type": "uint256"
            },
            {
              "internalType": "address",
              "name": "erc20Token",
              "type": "address"
            },
            {
              "internalType": "address",
              "name": "nftContract",
              "type": "address"
            },
            {
              "internalType": "uint256[]",
              "name": "nftTokenIds",
              "type": "uint256[]"
            },
            {
              "internalType": "address",
              "name": "operator",
              "type": "address"
            },
            {
              "internalType": "bytes",
              "name": "operatorBtcPubKey",
              "type": "bytes"
            },
            {
              "internalType": "string",
              "name": "operatorBtcAddress",
              "type": "string"
            },
            {
              "internalType": "uint256",
              "name": "deadLine",
              "type": "uint256"
            },
            {
              "internalType": "bytes",
              "name": "revenueBtcPubKey",
              "type": "bytes"
            },
            {
              "internalType": "string",
              "name": "revenueBtcAddress",
              "type": "string"
            },
            {
              "internalType": "address",
              "name": "revenueETHAddress",
              "type": "address"
            },
            {
              "internalType": "uint256",
              "name": "lastCompletedWorkTime",
              "type": "uint256"
            }
          ],
          "internalType": "struct DataTypes.ArbitratorInfo",
          "name": "",
          "type": "tuple"
        }
      ],
      "stateMutability": "view",
      "type": "function"
    },
    {
      "inputs": [
        {
          "internalType": "address",
          "name": "arbitrator",
          "type": "address"
        }
      ],
      "name": "getAvailableStake",
      "outputs": [
        {
          "internalType": "uint256",
          "name": "",
          "type": "uint256"
        }
      ],
      "stateMutability": "view",
      "type": "function"
    },
    {
      "inputs": [
        {
          "internalType": "address",
          "name": "arbitrator",
          "type": "address"
        }
      ],
      "name": "getTotalNFTStakeValue",
      "outputs": [
        {
          "internalType": "uint256",
          "name": "",
          "type": "uint256"
        }
      ],
      "stateMutability": "view",
      "type": "function"
    },
    {
      "inputs": [
        {
          "internalType": "address",
          "name": "_transactionManager",
          "type": "address"
        },
        {
          "internalType": "address",
          "name": "_compensationManager",
          "type": "address"
        }
      ],
      "name": "initTransactionAndCompensationManager",
      "outputs": [],
      "stateMutability": "nonpayable",
      "type": "function"
    },
    {
      "inputs": [
        {
          "internalType": "address",
          "name": "_configManager",
          "type": "address"
        },
        {
          "internalType": "address",
          "name": "_nftContract",
          "type": "address"
        },
        {
          "internalType": "address",
          "name": "_nftInfo",
          "type": "address"
        }
      ],
      "name": "initialize",
      "outputs": [],
      "stateMutability": "nonpayable",
      "type": "function"
    },
    {
      "inputs": [
        {
          "internalType": "address",
          "name": "arbitratorAddress",
          "type": "address"
        }
      ],
      "name": "isActiveArbitrator",
      "outputs": [
        {
          "internalType": "bool",
          "name": "",
          "type": "bool"
        }
      ],
      "stateMutability": "view",
      "type": "function"
    },
    {
      "inputs": [
        {
          "internalType": "address",
          "name": "arbitrator",
          "type": "address"
        },
        {
          "internalType": "address",
          "name": "operator",
          "type": "address"
        }
      ],
      "name": "isOperatorOf",
      "outputs": [
        {
          "internalType": "bool",
          "name": "",
          "type": "bool"
        }
      ],
      "stateMutability": "view",
      "type": "function"
    },
    {
      "inputs": [
        {
          "internalType": "address",
          "name": "arbitrator",
          "type": "address"
        }
      ],
      "name": "isPaused",
      "outputs": [
        {
          "internalType": "bool",
          "name": "",
          "type": "bool"
        }
      ],
      "stateMutability": "view",
      "type": "function"
    },
    {
      "inputs": [],
      "name": "nftContract",
      "outputs": [
        {
          "internalType": "contract IERC721",
          "name": "",
          "type": "address"
        }
      ],
      "stateMutability": "view",
      "type": "function"
    },
    {
      "inputs": [],
      "name": "nftInfo",
      "outputs": [
        {
          "internalType": "contract IBNFTInfo",
          "name": "",
          "type": "address"
        }
      ],
      "stateMutability": "view",
      "type": "function"
    },
    {
      "inputs": [],
      "name": "owner",
      "outputs": [
        {
          "internalType": "address",
          "name": "",
          "type": "address"
        }
      ],
      "stateMutability": "view",
      "type": "function"
    },
    {
      "inputs": [],
      "name": "pause",
      "outputs": [],
      "stateMutability": "nonpayable",
      "type": "function"
    },
    {
      "inputs": [
        {
          "internalType": "address",
          "name": "operator",
          "type": "address"
        },
        {
          "internalType": "address",
          "name": "revenueAddress",
          "type": "address"
        },
        {
          "internalType": "string",
          "name": "btcAddress",
          "type": "string"
        },
        {
          "internalType": "bytes",
          "name": "btcPubKey",
          "type": "bytes"
        },
        {
          "internalType": "uint256",
          "name": "feeRate",
          "type": "uint256"
        },
        {
          "internalType": "uint256",
          "name": "deadline",
          "type": "uint256"
        }
      ],
      "name": "registerArbitratorByStakeETH",
      "outputs": [],
      "stateMutability": "payable",
      "type": "function"
    },
    {
      "inputs": [
        {
          "internalType": "uint256[]",
          "name": "tokenIds",
          "type": "uint256[]"
        },
        {
          "internalType": "address",
          "name": "operator",
          "type": "address"
        },
        {
          "internalType": "address",
          "name": "revenueAddress",
          "type": "address"
        },
        {
          "internalType": "string",
          "name": "btcAddress",
          "type": "string"
        },
        {
          "internalType": "bytes",
          "name": "btcPubKey",
          "type": "bytes"
        },
        {
          "internalType": "uint256",
          "name": "feeRate",
          "type": "uint256"
        },
        {
          "internalType": "uint256",
          "name": "deadline",
          "type": "uint256"
        }
      ],
      "name": "registerArbitratorByStakeNFT",
      "outputs": [],
      "stateMutability": "nonpayable",
      "type": "function"
    },
    {
      "inputs": [
        {
          "internalType": "address",
          "name": "arbitrator",
          "type": "address"
        },
        {
          "internalType": "bytes32",
          "name": "transactionId",
          "type": "bytes32"
        }
      ],
      "name": "releaseArbitrator",
      "outputs": [],
      "stateMutability": "nonpayable",
      "type": "function"
    },
    {
      "inputs": [],
      "name": "renounceOwnership",
      "outputs": [],
      "stateMutability": "nonpayable",
      "type": "function"
    },
    {
      "inputs": [
        {
          "internalType": "uint256",
          "name": "feeRate",
          "type": "uint256"
        },
        {
          "internalType": "uint256",
          "name": "deadline",
          "type": "uint256"
        }
      ],
      "name": "setArbitratorParams",
      "outputs": [],
      "stateMutability": "nonpayable",
      "type": "function"
    },
    {
      "inputs": [
        {
          "internalType": "address",
          "name": "arbitrator",
          "type": "address"
        },
        {
          "internalType": "bytes32",
          "name": "transactionId",
          "type": "bytes32"
        }
      ],
      "name": "setArbitratorWorking",
      "outputs": [],
      "stateMutability": "nonpayable",
      "type": "function"
    },
    {
      "inputs": [
        {
          "internalType": "address",
          "name": "_compensationManager",
          "type": "address"
        }
      ],
      "name": "setCompensationManager",
      "outputs": [],
      "stateMutability": "nonpayable",
      "type": "function"
    },
    {
      "inputs": [
        {
          "internalType": "address",
          "name": "operator",
          "type": "address"
        },
        {
          "internalType": "bytes",
          "name": "btcPubKey",
          "type": "bytes"
        },
        {
          "internalType": "string",
          "name": "btcAddress",
          "type": "string"
        }
      ],
      "name": "setOperator",
      "outputs": [],
      "stateMutability": "nonpayable",
      "type": "function"
    },
    {
      "inputs": [
        {
          "internalType": "address",
          "name": "ethAddress",
          "type": "address"
        },
        {
          "internalType": "bytes",
          "name": "btcPubKey",
          "type": "bytes"
        },
        {
          "internalType": "string",
          "name": "btcAddress",
          "type": "string"
        }
      ],
      "name": "setRevenueAddresses",
      "outputs": [],
      "stateMutability": "nonpayable",
      "type": "function"
    },
    {
      "inputs": [
        {
          "internalType": "address",
          "name": "_transactionManager",
          "type": "address"
        }
      ],
      "name": "setTransactionManager",
      "outputs": [],
      "stateMutability": "nonpayable",
      "type": "function"
    },
    {
      "inputs": [],
      "name": "stakeETH",
      "outputs": [],
      "stateMutability": "payable",
      "type": "function"
    },
    {
      "inputs": [
        {
          "internalType": "uint256[]",
          "name": "tokenIds",
          "type": "uint256[]"
        }
      ],
      "name": "stakeNFT",
      "outputs": [],
      "stateMutability": "nonpayable",
      "type": "function"
    },
    {
      "inputs": [
        {
          "internalType": "address",
          "name": "arbitrator",
          "type": "address"
        }
      ],
      "name": "terminateArbitratorWithSlash",
      "outputs": [],
      "stateMutability": "nonpayable",
      "type": "function"
    },
    {
      "inputs": [],
      "name": "transactionManager",
      "outputs": [
        {
          "internalType": "address",
          "name": "",
          "type": "address"
        }
      ],
      "stateMutability": "view",
      "type": "function"
    },
    {
      "inputs": [
        {
          "internalType": "address",
          "name": "newOwner",
          "type": "address"
        }
      ],
      "name": "transferOwnership",
      "outputs": [],
      "stateMutability": "nonpayable",
      "type": "function"
    },
    {
      "inputs": [],
      "name": "unpause",
      "outputs": [],
      "stateMutability": "nonpayable",
      "type": "function"
    },
    {
      "inputs": [],
      "name": "unstake",
      "outputs": [],
      "stateMutability": "nonpayable",
      "type": "function"
    },
    {
      "inputs": [],
      "name": "zeroAddress",
      "outputs": [
        {
          "internalType": "address",
          "name": "",
          "type": "address"
        }
      ],
      "stateMutability": "view",
      "type": "function"
    }
  ],
  "bytecode": "0x60806040523480156200001157600080fd5b506200001c62000022565b620000d6565b7ff0c57e16840df040f15088dc2f81fe391c3923bec73e23a9662efc9c229c6a00805468010000000000000000900460ff1615620000735760405163f92ee8a960e01b815260040160405180910390fd5b80546001600160401b0390811614620000d35780546001600160401b0319166001600160401b0390811782556040519081527fc7f505b2f371ae2175ee4913f4499e1f2633a7b5936321eed1cdaeb6115181d29060200160405180910390a15b50565b6148ee80620000e66000396000f3fe6080604052600436106101ee5760003560e01c80636a65f2fd1161010d578063c0c53b8b116100a0578063d56d229d1161006f578063d56d229d14610596578063dceb986d146105b6578063e25268d2146105be578063e2b4efb8146105de578063f2fde38b146105fe57600080fd5b8063c0c53b8b14610516578063ca0ab07514610536578063cedb588b14610556578063d2b6f74b1461057657600080fd5b80638da5cb5b116100dc5780638da5cb5b1461046c57806399056c3c146104a9578063998b2fd8146104d6578063b553fe1e146104f657600080fd5b80636a65f2fd14610402578063715018a6146104225780637cacabef146104375780638456cb591461045757600080fd5b806330507df8116101855780634476a660116101545780634476a660146103825780635b14f183146103a25780636097f211146103c2578063654b4e83146103e257600080fd5b806330507df81461030a57806339c25e2c1461031d5780633b7164521461034d5780633f4ba83a1461036d57600080fd5b8063182c5744116101c1578063182c57441461029557806329a3f203146102b55780632b2d37da146102d55780632def6620146102f557600080fd5b80630559b877146101f35780630930907b146102305780630b1fa61c1461024557806314f6b19014610267575b600080fd5b3480156101ff57600080fd5b50600554610213906001600160a01b031681565b6040516001600160a01b0390911681526020015b60405180910390f35b34801561023c57600080fd5b50610213600081565b34801561025157600080fd5b50610265610260366004613cd7565b61061e565b005b34801561027357600080fd5b50610287610282366004613cd7565b6106c9565b604051908152602001610227565b3480156102a157600080fd5b506102656102b0366004613d44565b610705565b3480156102c157600080fd5b506102656102d0366004613dc6565b610806565b3480156102e157600080fd5b506102656102f0366004613e46565b6108eb565b34801561030157600080fd5b50610265610abf565b610265610318366004613e70565b611106565b34801561032957600080fd5b5061033d610338366004613f0f565b6116f0565b6040519015158152602001610227565b34801561035957600080fd5b50600454610213906001600160a01b031681565b34801561037957600080fd5b5061026561171a565b34801561038e57600080fd5b5061026561039d366004613cd7565b611832565b3480156103ae57600080fd5b5061033d6103bd366004613cd7565b6118d4565b3480156103ce57600080fd5b506102656103dd366004613f42565b611910565b3480156103ee57600080fd5b506102656103fd366004613dc6565b611cfc565b34801561040e57600080fd5b5061026561041d366004614011565b611e31565b34801561042e57600080fd5b5061026561206c565b34801561044357600080fd5b5061033d610452366004613cd7565b612080565b34801561046357600080fd5b50610265612112565b34801561047857600080fd5b507f9016d09d72d40fdae2fd8ceac6b6234c7706214fd39c1cd1e609a0528c199300546001600160a01b0316610213565b3480156104b557600080fd5b506104c96104c4366004613cd7565b61222d565b60405161022791906140f6565b3480156104e257600080fd5b506102656104f1366004613cd7565b61264c565b34801561050257600080fd5b50600254610213906001600160a01b031681565b34801561052257600080fd5b50610265610531366004614280565b612958565b34801561054257600080fd5b50600054610213906001600160a01b031681565b34801561056257600080fd5b50610265610571366004613e46565b612b85565b34801561058257600080fd5b50610265610591366004613f0f565b612d44565b3480156105a257600080fd5b50600154610213906001600160a01b031681565b610265612e9b565b3480156105ca57600080fd5b506102876105d9366004613cd7565b61319c565b3480156105ea57600080fd5b5061033d6105f9366004613cd7565b6132e6565b34801561060a57600080fd5b50610265610619366004613cd7565b6134fe565b61062661353c565b6001600160a01b03811661067757604080518082018252600c81526b5a65726f206164647265737360a01b6020820152905162461bcd60e51b815261066e91906004016142c3565b60405180910390fd5b600480546001600160a01b038381166001600160a01b0319831681179093556040519116919082907f960d9803c7ca631d3232d16e9971c7fd8e82d5f7ff7c2824c7b29dcab8a37d2e90600090a35050565b6001600160a01b0381166000908152600360205260408120816106eb8461319c565b90508082600501546106fd91906142ec565b949350505050565b600081900361074b57604080518082018252600f81526e456d70747920746f6b656e2049447360881b6020820152905162461bcd60e51b815261066e91906004016142c3565b33600090815260036020526040902080546001600160a01b03166107a257604080518082018252601981526000805160206148798339815191526020820152905162461bcd60e51b815261066e91906004016142c3565b60006107ae8484613597565b90506107bb8285856136b5565b6107c582826137a4565b6107ce82613a06565b6001546040518281526001600160a01b039091169033906000805160206148998339815191529060200160405180910390a350505050565b33600090815260036020526040902080546001600160a01b031661085d57604080518082018252601981526000805160206148798339815191526020820152905162461bcd60e51b815261066e91906004016142c3565b600f810180546001600160a01b0319166001600160a01b038816179055600d810161088985878361439e565b50600e810161089983858361439e565b50336001600160a01b03167f8e68353cf53df77c6b6993341bb1d784fab04f2f38b2c51654b51de6ce32274e87878787876040516108db959493929190614486565b60405180910390a2505050505050565b6004546001600160a01b031633146109425760408051808201825260178152762737ba103a3930b739b0b1ba34b7b71036b0b730b3b2b960491b6020820152905162461bcd60e51b815261066e91906004016142c3565b600554600160a01b900460ff1661099057604080518082018252600f81526e139bdd081a5b9a5d1a585b1a5e9959608a1b6020820152905162461bcd60e51b815261066e91906004016142c3565b6001600160a01b03821660009081526003602052604081209060038083015460ff16908111156109c2576109c2614033565b14610a0a57604080518082018252601581527441726269747261746f72206e6f742061637469766560581b6020820152905162461bcd60e51b815261066e91906004016142c3565b600481015415610a5f57604080518082018252601a81527f41726269747261746f7220616c726561647920776f726b696e670000000000006020820152905162461bcd60e51b815261066e91906004016142c3565b60038101805460ff19166001908117909155600482018390556040516001600160a01b038516917f3a8979d9edd937f82708579234f5915d536a25d9fd31832a26aeb36a4a991c3c91610ab291906144ca565b60405180910390a2505050565b336000908152600360205260409020600481015415610af05760405162461bcd60e51b815260040161066e906144d8565b3360009081526003602081815260409283902083516102208101855281546001600160a01b0316815260018201549281019290925260028101549382019390935282820154610e88928491606084019160ff90911690811115610b5557610b55614033565b6003811115610b6657610b66614033565b81526004820154602080830191909152600583015460408084019190915260068401546001600160a01b039081166060850152600785015416608084015260088401805482518185028101850190935280835260a0909401939192909190830182828015610bf357602002820191906000526020600020905b815481526020019060010190808311610bdf575b505050918352505060098201546001600160a01b03166020820152600a82018054604090920191610c2390614315565b80601f0160208091040260200160405190810160405280929190818152602001828054610c4f90614315565b8015610c9c5780601f10610c7157610100808354040283529160200191610c9c565b820191906000526020600020905b815481529060010190602001808311610c7f57829003601f168201915b50505050508152602001600b82018054610cb590614315565b80601f0160208091040260200160405190810160405280929190818152602001828054610ce190614315565b8015610d2e5780601f10610d0357610100808354040283529160200191610d2e565b820191906000526020600020905b815481529060010190602001808311610d1157829003601f168201915b50505050508152602001600c8201548152602001600d82018054610d5190614315565b80601f0160208091040260200160405190810160405280929190818152602001828054610d7d90614315565b8015610dca5780601f10610d9f57610100808354040283529160200191610dca565b820191906000526020600020905b815481529060010190602001808311610dad57829003601f168201915b50505050508152602001600e82018054610de390614315565b80601f0160208091040260200160405190810160405280929190818152602001828054610e0f90614315565b8015610e5c5780601f10610e3157610100808354040283529160200191610e5c565b820191906000526020600020905b815481529060010190602001808311610e3f57829003601f168201915b5050509183525050600f8201546001600160a01b03166020820152601090910154604090910152613a9b565b15610ec457604080518082018252600981526824b990333937bd32b760b91b6020820152905162461bcd60e51b815261066e91906004016142c3565b600081600501541180610eda5750600881015415155b610f105760405162461bcd60e51b81526020600482015260076024820152664e6f5374616b6560c81b604482015260640161066e565b600581018054600090915560078201546001600160a01b031615801590610f3a5750600882015415155b156110385760005b6008830154811015611004576001546008840180546001600160a01b03909216916323b872dd91309133919086908110610f7e57610f7e614503565b6000918252602090912001546040516001600160e01b031960e086901b1681526001600160a01b0393841660048201529290911660248301526044820152606401600060405180830381600087803b158015610fd957600080fd5b505af1158015610fed573d6000803e3d6000fd5b505050508080610ffc90614519565b915050610f42565b506040805160008152602081019182905251611024916008850191613c5b565b506007820180546001600160a01b03191690555b80156110c957604051600090339083908381818185875af1925050503d8060008114611080576040519150601f19603f3d011682016040523d82523d6000602084013e611085565b606091505b50509050806110c75760405162461bcd60e51b815260206004820152600e60248201526d151c985b9cd9995c91985a5b195960921b604482015260640161066e565b505b60405181815260009033907fb7c918e0e249f999e965cafeb6c664271b3f4317d296461500e71da39f0cbda39060200160405180910390a3505050565b60408051808201909152601081526f24b73b30b634b21037b832b930ba37b960811b60208201526001600160a01b0389166111545760405162461bcd60e51b815260040161066e91906142c3565b50604080518082019091526017815276496e76616c696420726576656e7565206164647265737360481b60208201526001600160a01b0388166111aa5760405162461bcd60e51b815260040161066e91906142c3565b50600054604080516325ba6ce560e11b815290516001600160a01b0390921691636dd5b69d918391634b74d9ca916004808201926020929091908290030181865afa1580156111fd573d6000803e3d6000fd5b505050506040513d601f19601f820116820180604052508101906112219190614532565b6040518263ffffffff1660e01b815260040161123f91815260200190565b602060405180830381865afa15801561125c573d6000803e3d6000fd5b505050506040513d601f19601f820116820180604052508101906112809190614532565b8210156040518060400160405280601081526020016f496e76616c696420666565207261746560801b815250906112ca5760405162461bcd60e51b815260040161066e91906142c3565b508015806112d757504281115b6040518060400160405280601081526020016f496e76616c696420646561646c696e6560801b8152509061131e5760405162461bcd60e51b815260040161066e91906142c3565b5060008054604080516332c70ad760e21b815290516001600160a01b0390921691636dd5b69d91839163cb1c2b5c916004808201926020929091908290030181865afa158015611372573d6000803e3d6000fd5b505050506040513d601f19601f820116820180604052508101906113969190614532565b6040518263ffffffff1660e01b81526004016113b491815260200190565b602060405180830381865afa1580156113d1573d6000803e3d6000fd5b505050506040513d601f19601f820116820180604052508101906113f59190614532565b600080546040805163c98517c560e01b8152905193945091926001600160a01b0390911691636dd5b69d91839163c98517c59160048083019260209291908290030181865afa15801561144c573d6000803e3d6000fd5b505050506040513d601f19601f820116820180604052508101906114709190614532565b6040518263ffffffff1660e01b815260040161148e91815260200190565b602060405180830381865afa1580156114ab573d6000803e3d6000fd5b505050506040513d601f19601f820116820180604052508101906114cf9190614532565b905081341015611519576040805180820182526012815271496e73756666696369656e74207374616b6560701b6020820152905162461bcd60e51b815261066e91906004016142c3565b803411156115645760408051808201825260158152745374616b652065786365656473206d6178696d756d60581b6020820152905162461bcd60e51b815261066e91906004016142c3565b3360009081526003602090815260409182902080548351808501909452601d84527f41726269747261746f7220616c726561647920726567697374657265640000009284019290925291906001600160a01b0316156115d65760405162461bcd60e51b815260040161066e91906142c3565b508054336001600160a01b031991821617825560098201805482166001600160a01b038e811691909117909155600f83018054909216908c16179055600b8101611621898b8361439e565b50600a810161163187898361439e565b5060018101859055600c81018490556005810180543491906000906116579084906142ec565b909155505080546040513481526000916001600160a01b0316906000805160206148998339815191529060200160405180910390a38a6001600160a01b0316336001600160a01b03167f1ab9d0508879cf64270650fc89b30617972d694fd1053946f028860daf125c7c8c8c8c8c8c8c8c6040516116db979695949392919061454b565b60405180910390a35050505050505050505050565b6001600160a01b038281166000908152600360205260409020600901548116908216145b92915050565b33600090815260036020526040902060048101541561174b5760405162461bcd60e51b815260040161066e906144d8565b33600090815260036020526040902080546001600160a01b03166117a257604080518082018252601981526000805160206148798339815191526020820152905162461bcd60e51b815261066e91906004016142c3565b600260038083015460ff16908111156117bd576117bd614033565b146117f75760405162461bcd60e51b815260206004820152600a6024820152691b9bdd081c185d5cd95960b21b604482015260640161066e565b60038101805460ff1916905560405133907f9f71f687820b75e4208e6fdd2091be151d94465fe4bafd2506bed2b9a430437d90600090a25050565b61183a61353c565b6001600160a01b03811661188257604080518082018252600c81526b5a65726f206164647265737360a01b6020820152905162461bcd60e51b815261066e91906004016142c3565b600580546001600160a01b038381166001600160a01b0319831681179093556040519116919082907fb2de57cf284062a9a3402f8683281c49d5a6747b1f369d0eec883b83503f3c8d90600090a35050565b600060026001600160a01b038316600090815260036020819052604090912081015460ff169081111561190957611909614033565b1492915050565b6001600160a01b03881661195c57604080518082018252601081526f24b73b30b634b21037b832b930ba37b960811b6020820152905162461bcd60e51b815261066e91906004016142c3565b6001600160a01b0387166119af576040805180820182526017815276496e76616c696420726576656e7565206164647265737360481b6020820152905162461bcd60e51b815261066e91906004016142c3565b60008054604080516325ba6ce560e11b815290516001600160a01b0390921691636dd5b69d918391634b74d9ca916004808201926020929091908290030181865afa158015611a02573d6000803e3d6000fd5b505050506040513d601f19601f82011682018060405250810190611a269190614532565b6040518263ffffffff1660e01b8152600401611a4491815260200190565b602060405180830381865afa158015611a61573d6000803e3d6000fd5b505050506040513d601f19601f82011682018060405250810190611a859190614532565b905080831015611acd57604080518082018252601081526f496e76616c696420666565207261746560801b6020820152905162461bcd60e51b815261066e91906004016142c3565b8115801590611adc5750428211155b15611b1f57604080518082018252601081526f496e76616c696420646561646c696e6560801b6020820152905162461bcd60e51b815261066e91906004016142c3565b60008a9003611b6557604080518082018252600f81526e456d70747920746f6b656e2049447360881b6020820152905162461bcd60e51b815261066e91906004016142c3565b33600090815260036020526040902080546001600160a01b031615611bcf57604080518082018252601d81527f41726269747261746f7220616c726561647920726567697374657265640000006020820152905162461bcd60e51b815261066e91906004016142c3565b8054336001600160a01b031991821617825560098201805482166001600160a01b038d811691909117909155600f83018054909216908b16179055600b8101611c19888a8361439e565b50600a8101611c2986888361439e565b5060018101849055600c81018390556000611c448d8d613597565b9050611c51828e8e6136b5565b611c5b82826137a4565b611c6482613a06565b6001546040518281526001600160a01b039091169033906000805160206148998339815191529060200160405180910390a38a6001600160a01b0316336001600160a01b03167f1ab9d0508879cf64270650fc89b30617972d694fd1053946f028860daf125c7c8c8c8c8c8c8c8c604051611ce5979695949392919061454b565b60405180910390a350505050505050505050505050565b6001600160a01b038516611d445760405162461bcd60e51b815260206004820152600f60248201526e24b73b30b634b227b832b930ba37b960891b604482015260640161066e565b33600090815260036020526040902080546001600160a01b0316611d9b57604080518082018252601981526000805160206148798339815191526020820152905162461bcd60e51b815261066e91906004016142c3565b6009810180546001600160a01b0319166001600160a01b038816179055600a8101611dc785878361439e565b50600b8101611dd783858361439e565b50856001600160a01b0316336001600160a01b03167ff920b7832d3774e2ac2efb86fccb411bc92e19a8ea66687764dea93140bdad4a87878787604051611e21949392919061459a565b60405180910390a3505050505050565b336000908152600360205260409020600481015415611e625760405162461bcd60e51b815260040161066e906144d8565b600054604080516325ba6ce560e11b815290516001600160a01b0390921691636dd5b69d918391634b74d9ca916004808201926020929091908290030181865afa158015611eb4573d6000803e3d6000fd5b505050506040513d601f19601f82011682018060405250810190611ed89190614532565b6040518263ffffffff1660e01b8152600401611ef691815260200190565b602060405180830381865afa158015611f13573d6000803e3d6000fd5b505050506040513d601f19601f82011682018060405250810190611f379190614532565b831015611f725760405162461bcd60e51b8152602060048201526009602482015268466565546f6f4c6f7760b81b604482015260640161066e565b811580611f7e57504282115b6040518060400160405280601081526020016f496e76616c696420646561646c696e6560801b81525090611fc55760405162461bcd60e51b815260040161066e91906142c3565b5033600090815260036020526040902080546001600160a01b031661201d57604080518082018252601981526000805160206148798339815191526020820152905162461bcd60e51b815261066e91906004016142c3565b60018101849055600c8101839055604080518581526020810185905233917f37a8e1e367daa706c049f32e9f3db5c7f05287d62d178accd3a148a80d4bf01a910160405180910390a250505050565b61207461353c565b61207e6000613b4a565b565b6001600160a01b038082166000908152600360208181526040808420815161022081018352815490961686526001810154928601929092526002820154908501528082015492936120e5939092606084019160ff1690811115610b5557610b55614033565b156120f257506000919050565b506001600160a01b03166000908152600360205260409020600401541590565b3360009081526003602052604090206004810154156121435760405162461bcd60e51b815260040161066e906144d8565b33600090815260036020526040902080546001600160a01b031661219a57604080518082018252601981526000805160206148798339815191526020820152905162461bcd60e51b815261066e91906004016142c3565b600060038083015460ff16908111156121b5576121b5614033565b146121ef5760405162461bcd60e51b815260206004820152600a6024820152694e6f742061637469766560b01b604482015260640161066e565b60038101805460ff1916600217905560405133907ff8f74f9bb1ed360c36a0bd59e0d8aa5cbdd15bb6e8e86af871f343daf432be2290600090a25050565b604080516102208101825260008082526020820181905291810182905260608082018390526080820183905260a0820183905260c0820183905260e08201839052610100820181905261012082018390526101408201819052610160820181905261018082018390526101a082018190526101c08201526101e081018290526102008101919091526001600160a01b038083166000908152600360208181526040928390208351610220810185528154909516855260018101549185019190915260028101549284019290925281810154606084019160ff9091169081111561231857612318614033565b600381111561232957612329614033565b81526004820154602080830191909152600583015460408084019190915260068401546001600160a01b039081166060850152600785015416608084015260088401805482518185028101850190935280835260a09094019391929091908301828280156123b657602002820191906000526020600020905b8154815260200190600101908083116123a2575b505050918352505060098201546001600160a01b03166020820152600a820180546040909201916123e690614315565b80601f016020809104026020016040519081016040528092919081815260200182805461241290614315565b801561245f5780601f106124345761010080835404028352916020019161245f565b820191906000526020600020905b81548152906001019060200180831161244257829003601f168201915b50505050508152602001600b8201805461247890614315565b80601f01602080910402602001604051908101604052809291908181526020018280546124a490614315565b80156124f15780601f106124c6576101008083540402835291602001916124f1565b820191906000526020600020905b8154815290600101906020018083116124d457829003601f168201915b50505050508152602001600c8201548152602001600d8201805461251490614315565b80601f016020809104026020016040519081016040528092919081815260200182805461254090614315565b801561258d5780601f106125625761010080835404028352916020019161258d565b820191906000526020600020905b81548152906001019060200180831161257057829003601f168201915b50505050508152602001600e820180546125a690614315565b80601f01602080910402602001604051908101604052809291908181526020018280546125d290614315565b801561261f5780601f106125f45761010080835404028352916020019161261f565b820191906000526020600020905b81548152906001019060200180831161260257829003601f168201915b5050509183525050600f8201546001600160a01b0316602082015260109091015460409091015292915050565b6005546001600160a01b031633146126a957604080518082018252601881527f4e6f7420636f6d70656e736174696f6e206d616e6167657200000000000000006020820152905162461bcd60e51b815261066e91906004016142c3565b600554600160a01b900460ff166126f757604080518082018252600f81526e139bdd081a5b9a5d1a585b1a5e9959608a1b6020820152905162461bcd60e51b815261066e91906004016142c3565b6001600160a01b038082166000908152600360205260409020805490911661275257604080518082018252601981526000805160206148798339815191526020820152905162461bcd60e51b815261066e91906004016142c3565b6003818101805460ff191690911790556005810154801561280e5760006005838101829055546040516001600160a01b039091169083908381818185875af1925050503d80600081146127c1576040519150601f19603f3d011682016040523d82523d6000602084013e6127c6565b606091505b505090508061280c57604080518082018252600f81526e151c985b9cd9995c8819985a5b1959608a1b6020820152905162461bcd60e51b815261066e91906004016142c3565b505b60078201546001600160a01b03161580159061282d5750600882015415155b1561291e5760005b60088301548110156128fc5760078301546005546008850180546001600160a01b03938416936323b872dd9330939116918690811061287657612876614503565b6000918252602090912001546040516001600160e01b031960e086901b1681526001600160a01b0393841660048201529290911660248301526044820152606401600060405180830381600087803b1580156128d157600080fd5b505af11580156128e5573d6000803e3d6000fd5b5050505080806128f490614519565b915050612835565b50604080516000815260208101918290525161291c916008850191613c5b565b505b826001600160a01b03167f3a8979d9edd937f82708579234f5915d536a25d9fd31832a26aeb36a4a991c3c6003604051610ab291906144ca565b7ff0c57e16840df040f15088dc2f81fe391c3923bec73e23a9662efc9c229c6a008054600160401b810460ff1615906001600160401b031660008115801561299d5750825b90506000826001600160401b031660011480156129b95750303b155b9050811580156129c7575080155b156129e55760405163f92ee8a960e01b815260040160405180910390fd5b845467ffffffffffffffff191660011785558315612a0f57845460ff60401b1916600160401b1785555b612a17613bbb565b612a2033613bcb565b6001600160a01b038816612a6857604080518082018252600c81526b5a65726f206164647265737360a01b6020820152905162461bcd60e51b815261066e91906004016142c3565b6001600160a01b038716612ab057604080518082018252600c81526b5a65726f206164647265737360a01b6020820152905162461bcd60e51b815261066e91906004016142c3565b6001600160a01b038616612af857604080518082018252600c81526b5a65726f206164647265737360a01b6020820152905162461bcd60e51b815261066e91906004016142c3565b600080546001600160a01b03808b166001600160a01b031992831617909255600180548a841690831617905560028054928916929091169190911790558315612b7b57845460ff60401b19168555604051600181527fc7f505b2f371ae2175ee4913f4499e1f2633a7b5936321eed1cdaeb6115181d29060200160405180910390a15b5050505050505050565b6004546001600160a01b03163314612bdc5760408051808201825260178152762737ba103a3930b739b0b1ba34b7b71036b0b730b3b2b960491b6020820152905162461bcd60e51b815261066e91906004016142c3565b600554600160a01b900460ff16612c2a57604080518082018252600f81526e139bdd081a5b9a5d1a585b1a5e9959608a1b6020820152905162461bcd60e51b815261066e91906004016142c3565b6001600160a01b0382166000908152600360205260409020600160038083015460ff1690811115612c5d57612c5d614033565b14612ca657604080518082018252601681527541726269747261746f72206e6f7420776f726b696e6760501b6020820152905162461bcd60e51b815261066e91906004016142c3565b81816004015414612cf5576040805180820182526016815275125b9d985b1a59081d1c985b9cd858dd1a5bdb88125160521b6020820152905162461bcd60e51b815261066e91906004016142c3565b60038101805460ff191690556000600482018190556040516001600160a01b038516917f3a8979d9edd937f82708579234f5915d536a25d9fd31832a26aeb36a4a991c3c91610ab291906144ca565b612d4c61353c565b600554600160a01b900460ff1615612d9f576040805180820182526013815272105b1c9958591e481a5b9a5d1a585b1a5e9959606a1b6020820152905162461bcd60e51b815261066e91906004016142c3565b6001600160a01b038216612de757604080518082018252600c81526b5a65726f206164647265737360a01b6020820152905162461bcd60e51b815261066e91906004016142c3565b6001600160a01b038116612e2f57604080518082018252600c81526b5a65726f206164647265737360a01b6020820152905162461bcd60e51b815261066e91906004016142c3565b600480546001600160a01b038085166001600160a01b03199092168217909255600580546001600160a81b03191684841617600160a01b17908190556040519216917f255c9edca3ea4cd6ff3c64c4cd7a5f812c6ae0ca0ae939f85e9e3eb49cdb416f90600090a35050565b33600090815260036020526040902080546001600160a01b0316612ef257604080518082018252601981526000805160206148798339815191526020820152905162461bcd60e51b815261066e91906004016142c3565b6000612efd3361319c565b90506000348360050154612f1191906142ec565b6005840181905590506000612f2683836142ec565b60008054604080516332c70ad760e21b8152905193945091926001600160a01b0390911691636dd5b69d91839163cb1c2b5c9160048083019260209291908290030181865afa158015612f7d573d6000803e3d6000fd5b505050506040513d601f19601f82011682018060405250810190612fa19190614532565b6040518263ffffffff1660e01b8152600401612fbf91815260200190565b602060405180830381865afa158015612fdc573d6000803e3d6000fd5b505050506040513d601f19601f820116820180604052508101906130009190614532565b600080546040805163c98517c560e01b8152905193945091926001600160a01b0390911691636dd5b69d91839163c98517c59160048083019260209291908290030181865afa158015613057573d6000803e3d6000fd5b505050506040513d601f19601f8201168201806040525081019061307b9190614532565b6040518263ffffffff1660e01b815260040161309991815260200190565b602060405180830381865afa1580156130b6573d6000803e3d6000fd5b505050506040513d601f19601f820116820180604052508101906130da9190614532565b905081831015613124576040805180820182526012815271496e73756666696369656e74207374616b6560701b6020820152905162461bcd60e51b815261066e91906004016142c3565b8083111561316f5760408051808201825260158152745374616b652065786365656473206d6178696d756d60581b6020820152905162461bcd60e51b815261066e91906004016142c3565b85546040513481526000916001600160a01b03169060008051602061489983398151915290602001611e21565b6001600160a01b038116600090815260036020526040812081805b60088301548110156132de576002546008840180546000926001600160a01b03169163d5ec2d8391859081106131ef576131ef614503565b90600052602060002001546040518263ffffffff1660e01b815260040161321891815260200190565b600060405180830381865afa158015613235573d6000803e3d6000fd5b505050506040513d6000823e601f3d908101601f1916820160405261325d9190810190614671565b91505060005b8160600151518110156132c9578160600151818151811061328657613286614503565b6020026020010151602001516402540be4006132a2919061484d565b6132b5906001600160401b0316856142ec565b9350806132c181614519565b915050613263565b505080806132d690614519565b9150506131b7565b509392505050565b6001600160a01b03811660009081526003602052604081208160038083015460ff169081111561331857613318614033565b146133265750600092915050565b80600c015460000361333b5750600092915050565b4281600c01541161334f5750600092915050565b604080516102208101825282546001600160a01b03168152600183015460208201526002830154918101919091526003808301546133a492918491606084019160ff90911690811115610b5557610b55614033565b156133b25750600092915050565b60405163014f6b1960e41b81526001600160a01b038416600482015260009030906314f6b19090602401602060405180830381865afa1580156133f9573d6000803e3d6000fd5b505050506040513d601f19601f8201168201806040525081019061341d9190614532565b600054604080516332c70ad760e21b815290519293506001600160a01b0390911691636dd5b69d91839163cb1c2b5c916004808201926020929091908290030181865afa158015613472573d6000803e3d6000fd5b505050506040513d601f19601f820116820180604052508101906134969190614532565b6040518263ffffffff1660e01b81526004016134b491815260200190565b602060405180830381865afa1580156134d1573d6000803e3d6000fd5b505050506040513d601f19601f820116820180604052508101906134f59190614532565b11159392505050565b61350661353c565b6001600160a01b03811661353057604051631e4fbdf760e01b81526000600482015260240161066e565b61353981613b4a565b50565b3361356e7f9016d09d72d40fdae2fd8ceac6b6234c7706214fd39c1cd1e609a0528c199300546001600160a01b031690565b6001600160a01b03161461207e5760405163118cdaa760e01b815233600482015260240161066e565b600080805b838110156132de576002546000906001600160a01b031663d5ec2d838787858181106135ca576135ca614503565b905060200201356040518263ffffffff1660e01b81526004016135ef91815260200190565b600060405180830381865afa15801561360c573d6000803e3d6000fd5b505050506040513d6000823e601f3d908101601f191682016040526136349190810190614671565b91505060005b8160600151518110156136a0578160600151818151811061365d5761365d614503565b6020026020010151602001516402540be400613679919061484d565b61368c906001600160401b0316856142ec565b93508061369881614519565b91505061363a565b505080806136ad90614519565b91505061359c565b60005b8181101561379e576001546001600160a01b03166323b872dd33308686868181106136e5576136e5614503565b6040516001600160e01b031960e088901b1681526001600160a01b03958616600482015294909316602485015250602090910201356044820152606401600060405180830381600087803b15801561373c57600080fd5b505af1158015613750573d6000803e3d6000fd5b505050508360080183838381811061376a5761376a614503565b835460018101855560009485526020948590209190940292909201359190920155508061379681614519565b9150506136b8565b50505050565b60008183600501546137b691906142ec565b60008054604080516332c70ad760e21b8152905193945091926001600160a01b0390911691636dd5b69d91839163cb1c2b5c9160048083019260209291908290030181865afa15801561380d573d6000803e3d6000fd5b505050506040513d601f19601f820116820180604052508101906138319190614532565b6040518263ffffffff1660e01b815260040161384f91815260200190565b602060405180830381865afa15801561386c573d6000803e3d6000fd5b505050506040513d601f19601f820116820180604052508101906138909190614532565b600080546040805163c98517c560e01b8152905193945091926001600160a01b0390911691636dd5b69d91839163c98517c59160048083019260209291908290030181865afa1580156138e7573d6000803e3d6000fd5b505050506040513d601f19601f8201168201806040525081019061390b9190614532565b6040518263ffffffff1660e01b815260040161392991815260200190565b602060405180830381865afa158015613946573d6000803e3d6000fd5b505050506040513d601f19601f8201168201806040525081019061396a9190614532565b9050818310156139b4576040805180820182526012815271496e73756666696369656e74207374616b6560701b6020820152905162461bcd60e51b815261066e91906004016142c3565b808311156139ff5760408051808201825260158152745374616b652065786365656473206d6178696d756d60581b6020820152905162461bcd60e51b815261066e91906004016142c3565b5050505050565b60078101546001600160a01b0316613a3f576001546007820180546001600160a01b0319166001600160a01b0390921691909117905550565b60015460078201546001600160a01b03908116911614613539576040805180820182526014815273125b9d985b1a59081391950818dbdb9d1c9858dd60621b6020820152905162461bcd60e51b815261066e91906004016142c3565b6000805460408051632f672f1960e11b8152905183926001600160a01b031691635ece5e329160048083019260209291908290030181865afa158015613ae5573d6000803e3d6000fd5b505050506040513d601f19601f82011682018060405250810190613b099190614532565b9050826102000151600003613b215750600092915050565b4281846102000151613b3391906142ec565b11613b415750600092915050565b50600092915050565b7f9016d09d72d40fdae2fd8ceac6b6234c7706214fd39c1cd1e609a0528c19930080546001600160a01b031981166001600160a01b03848116918217845560405192169182907f8be0079c531659141344cd1fd0a4f28419497f9722a3daafe3b4186f6b6457e090600090a3505050565b613bc3613bdc565b61207e613c25565b613bd3613bdc565b61353981613c53565b7ff0c57e16840df040f15088dc2f81fe391c3923bec73e23a9662efc9c229c6a0054600160401b900460ff1661207e57604051631afcd79f60e31b815260040160405180910390fd5b613c2d613bdc565b60017f9b779b17422d0df92223018b32b4d1fa46e071723d6817e2486d003becc55f0055565b613506613bdc565b828054828255906000526020600020908101928215613c96579160200282015b82811115613c96578251825591602001919060010190613c7b565b50613ca2929150613ca6565b5090565b5b80821115613ca25760008155600101613ca7565b80356001600160a01b0381168114613cd257600080fd5b919050565b600060208284031215613ce957600080fd5b613cf282613cbb565b9392505050565b60008083601f840112613d0b57600080fd5b5081356001600160401b03811115613d2257600080fd5b6020830191508360208260051b8501011115613d3d57600080fd5b9250929050565b60008060208385031215613d5757600080fd5b82356001600160401b03811115613d6d57600080fd5b613d7985828601613cf9565b90969095509350505050565b60008083601f840112613d9757600080fd5b5081356001600160401b03811115613dae57600080fd5b602083019150836020828501011115613d3d57600080fd5b600080600080600060608688031215613dde57600080fd5b613de786613cbb565b945060208601356001600160401b0380821115613e0357600080fd5b613e0f89838a01613d85565b90965094506040880135915080821115613e2857600080fd5b50613e3588828901613d85565b969995985093965092949392505050565b60008060408385031215613e5957600080fd5b613e6283613cbb565b946020939093013593505050565b60008060008060008060008060c0898b031215613e8c57600080fd5b613e9589613cbb565b9750613ea360208a01613cbb565b965060408901356001600160401b0380821115613ebf57600080fd5b613ecb8c838d01613d85565b909850965060608b0135915080821115613ee457600080fd5b50613ef18b828c01613d85565b999c989b5096999598969760808701359660a0013595509350505050565b60008060408385031215613f2257600080fd5b613f2b83613cbb565b9150613f3960208401613cbb565b90509250929050565b60008060008060008060008060008060e08b8d031215613f6157600080fd5b8a356001600160401b0380821115613f7857600080fd5b613f848e838f01613cf9565b909c509a508a9150613f9860208e01613cbb565b9950613fa660408e01613cbb565b985060608d0135915080821115613fbc57600080fd5b613fc88e838f01613d85565b909850965060808d0135915080821115613fe157600080fd5b50613fee8d828e01613d85565b9b9e9a9d50989b979a969995989760a08101359660c09091013595509350505050565b6000806040838503121561402457600080fd5b50508035926020909101359150565b634e487b7160e01b600052602160045260246000fd5b6004811061406757634e487b7160e01b600052602160045260246000fd5b9052565b600081518084526020808501945080840160005b8381101561409b5781518752958201959082019060010161407f565b509495945050505050565b60005b838110156140c15781810151838201526020016140a9565b50506000910152565b600081518084526140e28160208601602086016140a6565b601f01601f19169290920160200192915050565b602081526141106020820183516001600160a01b03169052565b6020820151604082015260408201516060820152600060608301516141386080840182614049565b50608083015160a083015260a083015160c083015260c083015161416760e08401826001600160a01b03169052565b5060e0830151610100614184818501836001600160a01b03169052565b8085015191505061022061012081818601526141a461024086018461406b565b908601519092506101406141c2868201836001600160a01b03169052565b80870151915050601f196101608187860301818801526141e285846140ca565b94508088015192505061018081878603018188015261420185846140ca565b9450808801519250506101a08281880152808801519250506101c081878603018188015261422f85846140ca565b9450808801519250506101e081878603018188015261424e85846140ca565b9450808801519250505061020061426f818701836001600160a01b03169052565b959095015193019290925250919050565b60008060006060848603121561429557600080fd5b61429e84613cbb565b92506142ac60208501613cbb565b91506142ba60408501613cbb565b90509250925092565b602081526000613cf260208301846140ca565b634e487b7160e01b600052601160045260246000fd5b80820180821115611714576117146142d6565b634e487b7160e01b600052604160045260246000fd5b600181811c9082168061432957607f821691505b60208210810361434957634e487b7160e01b600052602260045260246000fd5b50919050565b601f82111561439957600081815260208120601f850160051c810160208610156143765750805b601f850160051c820191505b8181101561439557828155600101614382565b5050505b505050565b6001600160401b038311156143b5576143b56142ff565b6143c9836143c38354614315565b8361434f565b6000601f8411600181146143fd57600085156143e55750838201355b600019600387901b1c1916600186901b1783556139ff565b600083815260209020601f19861690835b8281101561442e578685013582556020948501946001909201910161440e565b508682101561444b5760001960f88860031b161c19848701351681555b505060018560011b0183555050505050565b81835281816020850137506000828201602090810191909152601f909101601f19169091010190565b6001600160a01b03861681526060602082018190526000906144ab908301868861445d565b82810360408401526144be81858761445d565b98975050505050505050565b602081016117148284614049565b60208082526011908201527041726269747261746f72576f726b696e6760781b604082015260600190565b634e487b7160e01b600052603260045260246000fd5b60006001820161452b5761452b6142d6565b5060010190565b60006020828403121561454457600080fd5b5051919050565b6001600160a01b038816815260a060208201819052600090614570908301888a61445d565b828103604084015261458381878961445d565b606084019590955250506080015295945050505050565b6040815260006145ae60408301868861445d565b82810360208401526145c181858761445d565b979650505050505050565b604051608081016001600160401b03811182821017156145ee576145ee6142ff565b60405290565b604051606081016001600160401b03811182821017156145ee576145ee6142ff565b604051601f8201601f191681016001600160401b038111828210171561463e5761463e6142ff565b604052919050565b805163ffffffff81168114613cd257600080fd5b80516001600160401b0381168114613cd257600080fd5b6000806040838503121561468457600080fd5b8251915060208301516001600160401b03808211156146a257600080fd5b90840190608082870312156146b657600080fd5b6146be6145cc565b825181526146ce60208401614646565b6020820152604083015160ff811681146146e757600080fd5b60408201526060830151828111156146fe57600080fd5b80840193505086601f84011261471357600080fd5b825182811115614725576147256142ff565b61473460208260051b01614616565b8082825260208201915060208360051b87010192508983111561475657600080fd5b602086015b838110156148395780518681111561477257600080fd5b8701601f196060828e038201121561478957600080fd5b6147916145f4565b6020830151898111156147a357600080fd5b8301603f81018f136147b457600080fd5b60208101518a8111156147c9576147c96142ff565b6147da602085601f84011601614616565b93508084528f60408284010111156147f157600080fd5b6148028160208601604085016140a6565b50508181526148136040840161465a565b602082015261482460608401614646565b6040820152855250506020928301920161475b565b506060840152509497909650945050505050565b6001600160401b03818116838216028082169190828114614870576148706142d6565b50509291505056fe41726269747261746f72206e6f74207265676973746572656400000000000000fb8efd70c9f0ca009bfc9f2ca8a9256a5aefbc720bdb8d838e4bcd42c241b9eba264697066735822122091534bd27114e28c3a919d2cfb0adbe4ea6ec23180c705d4ac384f0b2b4d8ff264736f6c63430008140033",
  "linkReferences": {},
  "deployedLinkReferences": {}
}