{
  "_format": "hh-sol-artifact-1",
  "contractName": "ArbitratorManager",
  "sourceName": "contracts/core/ArbitratorManager.sol",
  "abi": [
    {
      "inputs": [],
      "stateMutability": "nonpayable",
      "type": "constructor"
    },
    {
      "inputs": [],
      "name": "InvalidInitialization",
      "type": "error"
    },
    {
      "inputs": [],
      "name": "NotInitializing",
      "type": "error"
    },
    {
      "inputs": [
        {
          "internalType": "address",
          "name": "owner",
          "type": "address"
        }
      ],
      "name": "OwnableInvalidOwner",
      "type": "error"
    },
    {
      "inputs": [
        {
          "internalType": "address",
          "name": "account",
          "type": "address"
        }
      ],
      "name": "OwnableUnauthorizedAccount",
      "type": "error"
    },
    {
      "inputs": [],
      "name": "ReentrancyGuardReentrantCall",
      "type": "error"
    },
    {
      "anonymous": false,
      "inputs": [
        {
          "indexed": true,
          "internalType": "address",
          "name": "arbitrator",
          "type": "address"
        },
        {
          "indexed": false,
          "internalType": "uint256",
          "name": "feeRate",
          "type": "uint256"
        },
        {
          "indexed": false,
          "internalType": "uint256",
          "name": "deadline",
          "type": "uint256"
        }
      ],
      "name": "ArbitratorParamsSet",
      "type": "event"
    },
    {
      "anonymous": false,
      "inputs": [
        {
          "indexed": true,
          "internalType": "address",
          "name": "arbitrator",
          "type": "address"
        }
      ],
      "name": "ArbitratorPaused",
      "type": "event"
    },
    {
      "anonymous": false,
      "inputs": [
        {
          "indexed": true,
          "internalType": "address",
          "name": "arbitrator",
          "type": "address"
        },
        {
          "indexed": false,
          "internalType": "enum DataTypes.ArbitratorStatus",
          "name": "status",
          "type": "uint8"
        }
      ],
      "name": "ArbitratorStatusChanged",
      "type": "event"
    },
    {
      "anonymous": false,
      "inputs": [
        {
          "indexed": true,
          "internalType": "address",
          "name": "arbitrator",
          "type": "address"
        }
      ],
      "name": "ArbitratorUnpaused",
      "type": "event"
    },
    {
      "anonymous": false,
      "inputs": [
        {
          "indexed": true,
          "internalType": "address",
          "name": "oldManager",
          "type": "address"
        },
        {
          "indexed": true,
          "internalType": "address",
          "name": "newManager",
          "type": "address"
        }
      ],
      "name": "CompensationManagerUpdated",
      "type": "event"
    },
    {
      "anonymous": false,
      "inputs": [
        {
          "indexed": false,
          "internalType": "uint64",
          "name": "version",
          "type": "uint64"
        }
      ],
      "name": "Initialized",
      "type": "event"
    },
    {
      "anonymous": false,
      "inputs": [
        {
          "indexed": true,
          "internalType": "address",
          "name": "transactionManager",
          "type": "address"
        },
        {
          "indexed": true,
          "internalType": "address",
          "name": "compensationManager",
          "type": "address"
        }
      ],
      "name": "InitializedManager",
      "type": "event"
    },
    {
      "anonymous": false,
      "inputs": [
        {
          "indexed": true,
          "internalType": "address",
          "name": "arbitrator",
          "type": "address"
        },
        {
          "indexed": true,
          "internalType": "address",
          "name": "operator",
          "type": "address"
        },
        {
          "indexed": false,
          "internalType": "bytes",
          "name": "btcPubKey",
          "type": "bytes"
        },
        {
          "indexed": false,
          "internalType": "string",
          "name": "btcAddress",
          "type": "string"
        }
      ],
      "name": "OperatorSet",
      "type": "event"
    },
    {
      "anonymous": false,
      "inputs": [
        {
          "indexed": true,
          "internalType": "address",
          "name": "previousOwner",
          "type": "address"
        },
        {
          "indexed": true,
          "internalType": "address",
          "name": "newOwner",
          "type": "address"
        }
      ],
      "name": "OwnershipTransferred",
      "type": "event"
    },
    {
      "anonymous": false,
      "inputs": [
        {
          "indexed": true,
          "internalType": "address",
          "name": "arbitrator",
          "type": "address"
        },
        {
          "indexed": false,
          "internalType": "address",
          "name": "ethAddress",
          "type": "address"
        },
        {
          "indexed": false,
          "internalType": "bytes",
          "name": "btcPubKey",
          "type": "bytes"
        },
        {
          "indexed": false,
          "internalType": "string",
          "name": "btcAddress",
          "type": "string"
        }
      ],
      "name": "RevenueAddressesSet",
      "type": "event"
    },
    {
      "anonymous": false,
      "inputs": [
        {
          "indexed": true,
          "internalType": "address",
          "name": "arbitrator",
          "type": "address"
        },
        {
          "indexed": true,
          "internalType": "address",
          "name": "assetAddress",
          "type": "address"
        },
        {
          "indexed": false,
          "internalType": "uint256",
          "name": "amount",
          "type": "uint256"
        }
      ],
      "name": "StakeAdded",
      "type": "event"
    },
    {
      "anonymous": false,
      "inputs": [
        {
          "indexed": true,
          "internalType": "address",
          "name": "arbitrator",
          "type": "address"
        },
        {
          "indexed": true,
          "internalType": "address",
          "name": "assetAddress",
          "type": "address"
        },
        {
          "indexed": false,
          "internalType": "uint256",
          "name": "amount",
          "type": "uint256"
        }
      ],
      "name": "StakeWithdrawn",
      "type": "event"
    },
    {
      "anonymous": false,
      "inputs": [
        {
          "indexed": true,
          "internalType": "address",
          "name": "oldManager",
          "type": "address"
        },
        {
          "indexed": true,
          "internalType": "address",
          "name": "newManager",
          "type": "address"
        }
      ],
      "name": "TransactionManagerUpdated",
      "type": "event"
    },
    {
      "inputs": [
        {
          "internalType": "address",
          "name": "arbitrator",
          "type": "address"
        }
      ],
      "name": "canUnstake",
      "outputs": [
        {
          "internalType": "bool",
          "name": "",
          "type": "bool"
        }
      ],
      "stateMutability": "view",
      "type": "function"
    },
    {
      "inputs": [],
      "name": "compensationManager",
      "outputs": [
        {
          "internalType": "address",
          "name": "",
          "type": "address"
        }
      ],
      "stateMutability": "view",
      "type": "function"
    },
    {
      "inputs": [],
      "name": "configManager",
      "outputs": [
        {
          "internalType": "contract ConfigManager",
          "name": "",
          "type": "address"
        }
      ],
      "stateMutability": "view",
      "type": "function"
    },
    {
      "inputs": [
        {
          "internalType": "address",
          "name": "arbitratorAddress",
          "type": "address"
        }
      ],
      "name": "getArbitratorInfo",
      "outputs": [
        {
          "components": [
            {
              "internalType": "address",
              "name": "arbitrator",
              "type": "address"
            },
            {
              "internalType": "uint256",
              "name": "currentFeeRate",
              "type": "uint256"
            },
            {
              "internalType": "uint256",
              "name": "pendingFeeRate",
              "type": "uint256"
            },
            {
              "internalType": "enum DataTypes.ArbitratorStatus",
              "name": "status",
              "type": "uint8"
            },
            {
              "internalType": "bytes32",
              "name": "activeTransactionId",
              "type": "bytes32"
            },
            {
              "internalType": "uint256",
              "name": "ethAmount",
              "type": "uint256"
            },
            {
              "internalType": "address",
              "name": "erc20Token",
              "type": "address"
            },
            {
              "internalType": "address",
              "name": "nftContract",
              "type": "address"
            },
            {
              "internalType": "uint256[]",
              "name": "nftTokenIds",
              "type": "uint256[]"
            },
            {
              "internalType": "address",
              "name": "operator",
              "type": "address"
            },
            {
              "internalType": "bytes",
              "name": "operatorBtcPubKey",
              "type": "bytes"
            },
            {
              "internalType": "string",
              "name": "operatorBtcAddress",
              "type": "string"
            },
            {
              "internalType": "uint256",
              "name": "lastArbitrationTime",
              "type": "uint256"
            },
            {
              "internalType": "bytes",
              "name": "revenueBtcPubKey",
              "type": "bytes"
            },
            {
              "internalType": "string",
              "name": "revenueBtcAddress",
              "type": "string"
            },
            {
              "internalType": "address",
              "name": "revenueETHAddress",
              "type": "address"
            }
          ],
          "internalType": "struct DataTypes.ArbitratorInfo",
          "name": "",
          "type": "tuple"
        }
      ],
      "stateMutability": "view",
      "type": "function"
    },
    {
      "inputs": [
        {
          "internalType": "address",
          "name": "arbitrator",
          "type": "address"
        }
      ],
      "name": "getAvailableStake",
      "outputs": [
        {
          "internalType": "uint256",
          "name": "",
          "type": "uint256"
        }
      ],
      "stateMutability": "view",
      "type": "function"
    },
    {
      "inputs": [
        {
          "internalType": "address",
          "name": "arbitrator",
          "type": "address"
        }
      ],
      "name": "getTotalNFTStakeValue",
      "outputs": [
        {
          "internalType": "uint256",
          "name": "",
          "type": "uint256"
        }
      ],
      "stateMutability": "view",
      "type": "function"
    },
    {
      "inputs": [
        {
          "internalType": "address",
          "name": "_transactionManager",
          "type": "address"
        },
        {
          "internalType": "address",
          "name": "_compensationManager",
          "type": "address"
        }
      ],
      "name": "initTransactionAndCompensationManager",
      "outputs": [],
      "stateMutability": "nonpayable",
      "type": "function"
    },
    {
      "inputs": [
        {
          "internalType": "address",
          "name": "_configManager",
          "type": "address"
        },
        {
          "internalType": "address",
          "name": "_nftContract",
          "type": "address"
        },
        {
          "internalType": "address",
          "name": "_nftInfo",
          "type": "address"
        }
      ],
      "name": "initialize",
      "outputs": [],
      "stateMutability": "nonpayable",
      "type": "function"
    },
    {
      "inputs": [
        {
          "internalType": "address",
          "name": "arbitratorAddress",
          "type": "address"
        }
      ],
      "name": "isActiveArbitrator",
      "outputs": [
        {
          "internalType": "bool",
          "name": "",
          "type": "bool"
        }
      ],
      "stateMutability": "view",
      "type": "function"
    },
    {
      "inputs": [
        {
          "internalType": "address",
          "name": "arbitrator",
          "type": "address"
        },
        {
          "internalType": "address",
          "name": "operator",
          "type": "address"
        }
      ],
      "name": "isOperatorOf",
      "outputs": [
        {
          "internalType": "bool",
          "name": "",
          "type": "bool"
        }
      ],
      "stateMutability": "view",
      "type": "function"
    },
    {
      "inputs": [
        {
          "internalType": "address",
          "name": "arbitrator",
          "type": "address"
        }
      ],
      "name": "isPaused",
      "outputs": [
        {
          "internalType": "bool",
          "name": "",
          "type": "bool"
        }
      ],
      "stateMutability": "view",
      "type": "function"
    },
    {
      "inputs": [],
      "name": "nftContract",
      "outputs": [
        {
          "internalType": "contract IERC721",
          "name": "",
          "type": "address"
        }
      ],
      "stateMutability": "view",
      "type": "function"
    },
    {
      "inputs": [],
      "name": "nftInfo",
      "outputs": [
        {
          "internalType": "contract IBNFTInfo",
          "name": "",
          "type": "address"
        }
      ],
      "stateMutability": "view",
      "type": "function"
    },
    {
      "inputs": [],
      "name": "owner",
      "outputs": [
        {
          "internalType": "address",
          "name": "",
          "type": "address"
        }
      ],
      "stateMutability": "view",
      "type": "function"
    },
    {
      "inputs": [],
      "name": "pause",
      "outputs": [],
      "stateMutability": "nonpayable",
      "type": "function"
    },
    {
      "inputs": [
        {
          "internalType": "address",
          "name": "arbitrator",
          "type": "address"
        },
        {
          "internalType": "bytes32",
          "name": "transactionId",
          "type": "bytes32"
        }
      ],
      "name": "releaseArbitrator",
      "outputs": [],
      "stateMutability": "nonpayable",
      "type": "function"
    },
    {
      "inputs": [],
      "name": "renounceOwnership",
      "outputs": [],
      "stateMutability": "nonpayable",
      "type": "function"
    },
    {
      "inputs": [
        {
          "internalType": "uint256",
          "name": "feeRate",
          "type": "uint256"
        },
        {
          "internalType": "uint256",
          "name": "deadline",
          "type": "uint256"
        }
      ],
      "name": "setArbitratorParams",
      "outputs": [],
      "stateMutability": "nonpayable",
      "type": "function"
    },
    {
      "inputs": [
        {
          "internalType": "address",
          "name": "arbitrator",
          "type": "address"
        },
        {
          "internalType": "bytes32",
          "name": "transactionId",
          "type": "bytes32"
        }
      ],
      "name": "setArbitratorWorking",
      "outputs": [],
      "stateMutability": "nonpayable",
      "type": "function"
    },
    {
      "inputs": [
        {
          "internalType": "address",
          "name": "_compensationManager",
          "type": "address"
        }
      ],
      "name": "setCompensationManager",
      "outputs": [],
      "stateMutability": "nonpayable",
      "type": "function"
    },
    {
      "inputs": [
        {
          "internalType": "address",
          "name": "operator",
          "type": "address"
        },
        {
          "internalType": "bytes",
          "name": "btcPubKey",
          "type": "bytes"
        },
        {
          "internalType": "string",
          "name": "btcAddress",
          "type": "string"
        }
      ],
      "name": "setOperator",
      "outputs": [],
      "stateMutability": "nonpayable",
      "type": "function"
    },
    {
      "inputs": [
        {
          "internalType": "address",
          "name": "ethAddress",
          "type": "address"
        },
        {
          "internalType": "bytes",
          "name": "btcPubKey",
          "type": "bytes"
        },
        {
          "internalType": "string",
          "name": "btcAddress",
          "type": "string"
        }
      ],
      "name": "setRevenueAddresses",
      "outputs": [],
      "stateMutability": "nonpayable",
      "type": "function"
    },
    {
      "inputs": [
        {
          "internalType": "address",
          "name": "_transactionManager",
          "type": "address"
        }
      ],
      "name": "setTransactionManager",
      "outputs": [],
      "stateMutability": "nonpayable",
      "type": "function"
    },
    {
      "inputs": [],
      "name": "stakeETH",
      "outputs": [],
      "stateMutability": "payable",
      "type": "function"
    },
    {
      "inputs": [
        {
          "internalType": "uint256[]",
          "name": "tokenIds",
          "type": "uint256[]"
        }
      ],
      "name": "stakeNFT",
      "outputs": [],
      "stateMutability": "nonpayable",
      "type": "function"
    },
    {
      "inputs": [
        {
          "internalType": "address",
          "name": "arbitrator",
          "type": "address"
        }
      ],
      "name": "terminateArbitratorWithSlash",
      "outputs": [],
      "stateMutability": "nonpayable",
      "type": "function"
    },
    {
      "inputs": [],
      "name": "transactionManager",
      "outputs": [
        {
          "internalType": "address",
          "name": "",
          "type": "address"
        }
      ],
      "stateMutability": "view",
      "type": "function"
    },
    {
      "inputs": [
        {
          "internalType": "address",
          "name": "newOwner",
          "type": "address"
        }
      ],
      "name": "transferOwnership",
      "outputs": [],
      "stateMutability": "nonpayable",
      "type": "function"
    },
    {
      "inputs": [],
      "name": "unpause",
      "outputs": [],
      "stateMutability": "nonpayable",
      "type": "function"
    },
    {
      "inputs": [],
      "name": "unstake",
      "outputs": [],
      "stateMutability": "nonpayable",
      "type": "function"
    },
    {
      "inputs": [],
      "name": "zeroAddress",
      "outputs": [
        {
          "internalType": "address",
          "name": "",
          "type": "address"
        }
      ],
      "stateMutability": "view",
      "type": "function"
    }
  ],
  "bytecode": "0x60806040523480156200001157600080fd5b506200001c62000022565b620000d6565b7ff0c57e16840df040f15088dc2f81fe391c3923bec73e23a9662efc9c229c6a00805468010000000000000000900460ff1615620000735760405163f92ee8a960e01b815260040160405180910390fd5b80546001600160401b0390811614620000d35780546001600160401b0319166001600160401b0390811782556040519081527fc7f505b2f371ae2175ee4913f4499e1f2633a7b5936321eed1cdaeb6115181d29060200160405180910390a15b50565b61368b80620000e66000396000f3fe6080604052600436106101d85760003560e01c8063715018a611610102578063ca0ab07511610095578063dceb986d11610064578063dceb986d14610587578063e25268d21461058f578063e2b4efb8146105af578063f2fde38b146105cf57600080fd5b8063ca0ab07514610507578063cedb588b14610527578063d2b6f74b14610547578063d56d229d1461056757600080fd5b806399056c3c116100d157806399056c3c1461047a578063998b2fd8146104a7578063b553fe1e146104c7578063c0c53b8b146104e757600080fd5b8063715018a6146103d95780638456cb59146103ee57806385f4498b146104035780638da5cb5b1461043d57600080fd5b80632def66201161017a5780634476a660116101495780634476a660146103595780635b14f18314610379578063654b4e83146103995780636a65f2fd146103b957600080fd5b80632def6620146102df57806339c25e2c146102f45780633b716452146103245780633f4ba83a1461034457600080fd5b806314f6b190116101b657806314f6b19014610251578063182c57441461027f57806329a3f2031461029f5780632b2d37da146102bf57600080fd5b80630559b877146101dd5780630930907b1461021a5780630b1fa61c1461022f575b600080fd5b3480156101e957600080fd5b506005546101fd906001600160a01b031681565b6040516001600160a01b0390911681526020015b60405180910390f35b34801561022657600080fd5b506101fd600081565b34801561023b57600080fd5b5061024f61024a366004612c6b565b6105ef565b005b34801561025d57600080fd5b5061027161026c366004612c6b565b61069a565b604051908152602001610211565b34801561028b57600080fd5b5061024f61029a366004612c8d565b6106d6565b3480156102ab57600080fd5b5061024f6102ba366004612d49565b610c83565b3480156102cb57600080fd5b5061024f6102da366004612dc9565b610d68565b3480156102eb57600080fd5b5061024f610f3c565b34801561030057600080fd5b5061031461030f366004612df3565b6111bd565b6040519015158152602001610211565b34801561033057600080fd5b506004546101fd906001600160a01b031681565b34801561035057600080fd5b5061024f6111e7565b34801561036557600080fd5b5061024f610374366004612c6b565b6112ff565b34801561038557600080fd5b50610314610394366004612c6b565b6113a1565b3480156103a557600080fd5b5061024f6103b4366004612d49565b6113dd565b3480156103c557600080fd5b5061024f6103d4366004612e26565b611512565b3480156103e557600080fd5b5061024f61174d565b3480156103fa57600080fd5b5061024f611761565b34801561040f57600080fd5b5061031461041e366004612c6b565b6001600160a01b03166000908152600360205260409020600401541590565b34801561044957600080fd5b507f9016d09d72d40fdae2fd8ceac6b6234c7706214fd39c1cd1e609a0528c199300546001600160a01b03166101fd565b34801561048657600080fd5b5061049a610495366004612c6b565b61187c565b6040516102119190612f0b565b3480156104b357600080fd5b5061024f6104c2366004612c6b565b611c8a565b3480156104d357600080fd5b506002546101fd906001600160a01b031681565b3480156104f357600080fd5b5061024f61050236600461308b565b611f96565b34801561051357600080fd5b506000546101fd906001600160a01b031681565b34801561053357600080fd5b5061024f610542366004612dc9565b6121c3565b34801561055357600080fd5b5061024f610562366004612df3565b612382565b34801561057357600080fd5b506001546101fd906001600160a01b031681565b61024f6124d9565b34801561059b57600080fd5b506102716105aa366004612c6b565b6127ba565b3480156105bb57600080fd5b506103146105ca366004612c6b565b612904565b3480156105db57600080fd5b5061024f6105ea366004612c6b565b612a45565b6105f7612a83565b6001600160a01b03811661064857604080518082018252600c81526b5a65726f206164647265737360a01b6020820152905162461bcd60e51b815261063f91906004016130ce565b60405180910390fd5b600480546001600160a01b038381166001600160a01b0319831681179093556040519116919082907f960d9803c7ca631d3232d16e9971c7fd8e82d5f7ff7c2824c7b29dcab8a37d2e90600090a35050565b6001600160a01b0381166000908152600360205260408120816106bc846127ba565b90508082600501546106ce91906130f7565b949350505050565b600081900361071c57604080518082018252600f81526e456d70747920746f6b656e2049447360881b6020820152905162461bcd60e51b815261063f91906004016130ce565b33600090815260036020526040902080546001600160a01b031661074b5780546001600160a01b031916331781555b6000805b83811015610859576002546000906001600160a01b031663d5ec2d8387878581811061077d5761077d61310a565b905060200201356040518263ffffffff1660e01b81526004016107a291815260200190565b600060405180830381865afa1580156107bf573d6000803e3d6000fd5b505050506040513d6000823e601f3d908101601f191682016040526107e791908101906131db565b91505060005b81606001515181101561084457816060015181815181106108105761081061310a565b6020026020010151602001516001600160401b03168461083091906130f7565b93508061083c816133b7565b9150506107ed565b50508080610851906133b7565b91505061074f565b5060005b83811015610943576001546001600160a01b03166323b872dd333088888681811061088a5761088a61310a565b6040516001600160e01b031960e088901b1681526001600160a01b03958616600482015294909316602485015250602090910201356044820152606401600060405180830381600087803b1580156108e157600080fd5b505af11580156108f5573d6000803e3d6000fd5b505050508260080185858381811061090f5761090f61310a565b835460018101855560009485526020948590209190940292909201359190920155508061093b816133b7565b91505061085d565b50600081836005015461095691906130f7565b60008054604080516332c70ad760e21b8152905193945091926001600160a01b0390911691636dd5b69d91839163cb1c2b5c9160048083019260209291908290030181865afa1580156109ad573d6000803e3d6000fd5b505050506040513d601f19601f820116820180604052508101906109d191906133d0565b6040518263ffffffff1660e01b81526004016109ef91815260200190565b602060405180830381865afa158015610a0c573d6000803e3d6000fd5b505050506040513d601f19601f82011682018060405250810190610a3091906133d0565b600080546040805163c98517c560e01b8152905193945091926001600160a01b0390911691636dd5b69d91839163c98517c59160048083019260209291908290030181865afa158015610a87573d6000803e3d6000fd5b505050506040513d601f19601f82011682018060405250810190610aab91906133d0565b6040518263ffffffff1660e01b8152600401610ac991815260200190565b602060405180830381865afa158015610ae6573d6000803e3d6000fd5b505050506040513d601f19601f82011682018060405250810190610b0a91906133d0565b905081831015610b54576040805180820182526012815271496e73756666696369656e74207374616b6560701b6020820152905162461bcd60e51b815261063f91906004016130ce565b80831115610b9f5760408051808201825260158152745374616b652065786365656473206d6178696d756d60581b6020820152905162461bcd60e51b815261063f91906004016130ce565b60078501546001600160a01b0316610bda576001546007860180546001600160a01b0319166001600160a01b03909216919091179055610c36565b60015460078601546001600160a01b03908116911614610c36576040805180820182526014815273125b9d985b1a59081391950818dbdb9d1c9858dd60621b6020820152905162461bcd60e51b815261063f91906004016130ce565b6001546040518581526001600160a01b039091169033907ffb8efd70c9f0ca009bfc9f2ca8a9256a5aefbc720bdb8d838e4bcd42c241b9eb9060200160405180910390a350505050505050565b33600090815260036020526040902080546001600160a01b0316610cda57604080518082018252601981526000805160206136368339815191526020820152905162461bcd60e51b815261063f91906004016130ce565b600f810180546001600160a01b0319166001600160a01b038816179055600d8101610d06858783613472565b50600e8101610d16838583613472565b50336001600160a01b03167f8e68353cf53df77c6b6993341bb1d784fab04f2f38b2c51654b51de6ce32274e8787878787604051610d5895949392919061355b565b60405180910390a2505050505050565b6004546001600160a01b03163314610dbf5760408051808201825260178152762737ba103a3930b739b0b1ba34b7b71036b0b730b3b2b960491b6020820152905162461bcd60e51b815261063f91906004016130ce565b600554600160a01b900460ff16610e0d57604080518082018252600f81526e139bdd081a5b9a5d1a585b1a5e9959608a1b6020820152905162461bcd60e51b815261063f91906004016130ce565b6001600160a01b03821660009081526003602052604081209060038083015460ff1690811115610e3f57610e3f612e48565b14610e8757604080518082018252601581527441726269747261746f72206e6f742061637469766560581b6020820152905162461bcd60e51b815261063f91906004016130ce565b600481015415610edc57604080518082018252601a81527f41726269747261746f7220616c726561647920776f726b696e670000000000006020820152905162461bcd60e51b815261063f91906004016130ce565b60038101805460ff19166001908117909155600482018390556040516001600160a01b038516917f3a8979d9edd937f82708579234f5915d536a25d9fd31832a26aeb36a4a991c3c91610f2f919061359f565b60405180910390a2505050565b336000908152600360205260409020600481015415610f6d5760405162461bcd60e51b815260040161063f906135ad565b3360009081526003602052604090206005810154151580610f915750600881015415155b610fc75760405162461bcd60e51b81526020600482015260076024820152664e6f5374616b6560c81b604482015260640161063f565b600581018054600090915560078201546001600160a01b031615801590610ff15750600882015415155b156110ef5760005b60088301548110156110bb576001546008840180546001600160a01b03909216916323b872dd913091339190869081106110355761103561310a565b6000918252602090912001546040516001600160e01b031960e086901b1681526001600160a01b0393841660048201529290911660248301526044820152606401600060405180830381600087803b15801561109057600080fd5b505af11580156110a4573d6000803e3d6000fd5b5050505080806110b3906133b7565b915050610ff9565b5060408051600081526020810191829052516110db916008850191612bef565b506007820180546001600160a01b03191690555b801561118057604051600090339083908381818185875af1925050503d8060008114611137576040519150601f19603f3d011682016040523d82523d6000602084013e61113c565b606091505b505090508061117e5760405162461bcd60e51b815260206004820152600e60248201526d151c985b9cd9995c91985a5b195960921b604482015260640161063f565b505b60405181815260009033907fb7c918e0e249f999e965cafeb6c664271b3f4317d296461500e71da39f0cbda39060200160405180910390a3505050565b6001600160a01b038281166000908152600360205260409020600901548116908216145b92915050565b3360009081526003602052604090206004810154156112185760405162461bcd60e51b815260040161063f906135ad565b33600090815260036020526040902080546001600160a01b031661126f57604080518082018252601981526000805160206136368339815191526020820152905162461bcd60e51b815261063f91906004016130ce565b600260038083015460ff169081111561128a5761128a612e48565b146112c45760405162461bcd60e51b815260206004820152600a6024820152691b9bdd081c185d5cd95960b21b604482015260640161063f565b60038101805460ff1916905560405133907f9f71f687820b75e4208e6fdd2091be151d94465fe4bafd2506bed2b9a430437d90600090a25050565b611307612a83565b6001600160a01b03811661134f57604080518082018252600c81526b5a65726f206164647265737360a01b6020820152905162461bcd60e51b815261063f91906004016130ce565b600580546001600160a01b038381166001600160a01b0319831681179093556040519116919082907fb2de57cf284062a9a3402f8683281c49d5a6747b1f369d0eec883b83503f3c8d90600090a35050565b600060026001600160a01b038316600090815260036020819052604090912081015460ff16908111156113d6576113d6612e48565b1492915050565b6001600160a01b0385166114255760405162461bcd60e51b815260206004820152600f60248201526e24b73b30b634b227b832b930ba37b960891b604482015260640161063f565b33600090815260036020526040902080546001600160a01b031661147c57604080518082018252601981526000805160206136368339815191526020820152905162461bcd60e51b815261063f91906004016130ce565b6009810180546001600160a01b0319166001600160a01b038816179055600a81016114a8858783613472565b50600b81016114b8838583613472565b50856001600160a01b0316336001600160a01b03167ff920b7832d3774e2ac2efb86fccb411bc92e19a8ea66687764dea93140bdad4a8787878760405161150294939291906135d8565b60405180910390a3505050505050565b3360009081526003602052604090206004810154156115435760405162461bcd60e51b815260040161063f906135ad565b600054604080516325ba6ce560e11b815290516001600160a01b0390921691636dd5b69d918391634b74d9ca916004808201926020929091908290030181865afa158015611595573d6000803e3d6000fd5b505050506040513d601f19601f820116820180604052508101906115b991906133d0565b6040518263ffffffff1660e01b81526004016115d791815260200190565b602060405180830381865afa1580156115f4573d6000803e3d6000fd5b505050506040513d601f19601f8201168201806040525081019061161891906133d0565b8310156116535760405162461bcd60e51b8152602060048201526009602482015268466565546f6f4c6f7760b81b604482015260640161063f565b81158061165f57504282115b6040518060400160405280601081526020016f496e76616c696420646561646c696e6560801b815250906116a65760405162461bcd60e51b815260040161063f91906130ce565b5033600090815260036020526040902080546001600160a01b03166116fe57604080518082018252601981526000805160206136368339815191526020820152905162461bcd60e51b815261063f91906004016130ce565b60018101849055600c8101839055604080518581526020810185905233917f37a8e1e367daa706c049f32e9f3db5c7f05287d62d178accd3a148a80d4bf01a910160405180910390a250505050565b611755612a83565b61175f6000612ade565b565b3360009081526003602052604090206004810154156117925760405162461bcd60e51b815260040161063f906135ad565b33600090815260036020526040902080546001600160a01b03166117e957604080518082018252601981526000805160206136368339815191526020820152905162461bcd60e51b815261063f91906004016130ce565b600060038083015460ff169081111561180457611804612e48565b1461183e5760405162461bcd60e51b815260206004820152600a6024820152694e6f742061637469766560b01b604482015260640161063f565b60038101805460ff1916600217905560405133907ff8f74f9bb1ed360c36a0bd59e0d8aa5cbdd15bb6e8e86af871f343daf432be2290600090a25050565b604080516102008101825260008082526020820181905291810182905260608082018390526080820183905260a0820183905260c0820183905260e08201839052610100820181905261012082018390526101408201819052610160820181905261018082018390526101a082018190526101c08201526101e08101919091526001600160a01b038083166000908152600360208181526040928390208351610200810185528154909516855260018101549185019190915260028101549284019290925281810154606084019160ff9091169081111561195f5761195f612e48565b600381111561197057611970612e48565b81526004820154602080830191909152600583015460408084019190915260068401546001600160a01b039081166060850152600785015416608084015260088401805482518185028101850190935280835260a09094019391929091908301828280156119fd57602002820191906000526020600020905b8154815260200190600101908083116119e9575b505050918352505060098201546001600160a01b03166020820152600a82018054604090920191611a2d906133e9565b80601f0160208091040260200160405190810160405280929190818152602001828054611a59906133e9565b8015611aa65780601f10611a7b57610100808354040283529160200191611aa6565b820191906000526020600020905b815481529060010190602001808311611a8957829003601f168201915b50505050508152602001600b82018054611abf906133e9565b80601f0160208091040260200160405190810160405280929190818152602001828054611aeb906133e9565b8015611b385780601f10611b0d57610100808354040283529160200191611b38565b820191906000526020600020905b815481529060010190602001808311611b1b57829003601f168201915b50505050508152602001600c8201548152602001600d82018054611b5b906133e9565b80601f0160208091040260200160405190810160405280929190818152602001828054611b87906133e9565b8015611bd45780601f10611ba957610100808354040283529160200191611bd4565b820191906000526020600020905b815481529060010190602001808311611bb757829003601f168201915b50505050508152602001600e82018054611bed906133e9565b80601f0160208091040260200160405190810160405280929190818152602001828054611c19906133e9565b8015611c665780601f10611c3b57610100808354040283529160200191611c66565b820191906000526020600020905b815481529060010190602001808311611c4957829003601f168201915b5050509183525050600f91909101546001600160a01b031660209091015292915050565b6005546001600160a01b03163314611ce757604080518082018252601881527f4e6f7420636f6d70656e736174696f6e206d616e6167657200000000000000006020820152905162461bcd60e51b815261063f91906004016130ce565b600554600160a01b900460ff16611d3557604080518082018252600f81526e139bdd081a5b9a5d1a585b1a5e9959608a1b6020820152905162461bcd60e51b815261063f91906004016130ce565b6001600160a01b0380821660009081526003602052604090208054909116611d9057604080518082018252601981526000805160206136368339815191526020820152905162461bcd60e51b815261063f91906004016130ce565b6003818101805460ff1916909117905560058101548015611e4c5760006005838101829055546040516001600160a01b039091169083908381818185875af1925050503d8060008114611dff576040519150601f19603f3d011682016040523d82523d6000602084013e611e04565b606091505b5050905080611e4a57604080518082018252600f81526e151c985b9cd9995c8819985a5b1959608a1b6020820152905162461bcd60e51b815261063f91906004016130ce565b505b60078201546001600160a01b031615801590611e6b5750600882015415155b15611f5c5760005b6008830154811015611f3a5760078301546005546008850180546001600160a01b03938416936323b872dd93309391169186908110611eb457611eb461310a565b6000918252602090912001546040516001600160e01b031960e086901b1681526001600160a01b0393841660048201529290911660248301526044820152606401600060405180830381600087803b158015611f0f57600080fd5b505af1158015611f23573d6000803e3d6000fd5b505050508080611f32906133b7565b915050611e73565b506040805160008152602081019182905251611f5a916008850191612bef565b505b826001600160a01b03167f3a8979d9edd937f82708579234f5915d536a25d9fd31832a26aeb36a4a991c3c6003604051610f2f919061359f565b7ff0c57e16840df040f15088dc2f81fe391c3923bec73e23a9662efc9c229c6a008054600160401b810460ff1615906001600160401b0316600081158015611fdb5750825b90506000826001600160401b03166001148015611ff75750303b155b905081158015612005575080155b156120235760405163f92ee8a960e01b815260040160405180910390fd5b845467ffffffffffffffff19166001178555831561204d57845460ff60401b1916600160401b1785555b612055612b4f565b61205e33612b5f565b6001600160a01b0388166120a657604080518082018252600c81526b5a65726f206164647265737360a01b6020820152905162461bcd60e51b815261063f91906004016130ce565b6001600160a01b0387166120ee57604080518082018252600c81526b5a65726f206164647265737360a01b6020820152905162461bcd60e51b815261063f91906004016130ce565b6001600160a01b03861661213657604080518082018252600c81526b5a65726f206164647265737360a01b6020820152905162461bcd60e51b815261063f91906004016130ce565b600080546001600160a01b03808b166001600160a01b031992831617909255600180548a8416908316179055600280549289169290911691909117905583156121b957845460ff60401b19168555604051600181527fc7f505b2f371ae2175ee4913f4499e1f2633a7b5936321eed1cdaeb6115181d29060200160405180910390a15b5050505050505050565b6004546001600160a01b0316331461221a5760408051808201825260178152762737ba103a3930b739b0b1ba34b7b71036b0b730b3b2b960491b6020820152905162461bcd60e51b815261063f91906004016130ce565b600554600160a01b900460ff1661226857604080518082018252600f81526e139bdd081a5b9a5d1a585b1a5e9959608a1b6020820152905162461bcd60e51b815261063f91906004016130ce565b6001600160a01b0382166000908152600360205260409020600160038083015460ff169081111561229b5761229b612e48565b146122e457604080518082018252601681527541726269747261746f72206e6f7420776f726b696e6760501b6020820152905162461bcd60e51b815261063f91906004016130ce565b81816004015414612333576040805180820182526016815275125b9d985b1a59081d1c985b9cd858dd1a5bdb88125160521b6020820152905162461bcd60e51b815261063f91906004016130ce565b60038101805460ff191690556000600482018190556040516001600160a01b038516917f3a8979d9edd937f82708579234f5915d536a25d9fd31832a26aeb36a4a991c3c91610f2f919061359f565b61238a612a83565b600554600160a01b900460ff16156123dd576040805180820182526013815272105b1c9958591e481a5b9a5d1a585b1a5e9959606a1b6020820152905162461bcd60e51b815261063f91906004016130ce565b6001600160a01b03821661242557604080518082018252600c81526b5a65726f206164647265737360a01b6020820152905162461bcd60e51b815261063f91906004016130ce565b6001600160a01b03811661246d57604080518082018252600c81526b5a65726f206164647265737360a01b6020820152905162461bcd60e51b815261063f91906004016130ce565b600480546001600160a01b038085166001600160a01b03199092168217909255600580546001600160a81b03191684841617600160a01b17908190556040519216917f255c9edca3ea4cd6ff3c64c4cd7a5f812c6ae0ca0ae939f85e9e3eb49cdb416f90600090a35050565b33600090815260036020526040902080546001600160a01b03166125085780546001600160a01b031916331781555b6000612513336127ba565b9050600034836005015461252791906130f7565b600584018190559050600061253c83836130f7565b60008054604080516332c70ad760e21b8152905193945091926001600160a01b0390911691636dd5b69d91839163cb1c2b5c9160048083019260209291908290030181865afa158015612593573d6000803e3d6000fd5b505050506040513d601f19601f820116820180604052508101906125b791906133d0565b6040518263ffffffff1660e01b81526004016125d591815260200190565b602060405180830381865afa1580156125f2573d6000803e3d6000fd5b505050506040513d601f19601f8201168201806040525081019061261691906133d0565b600080546040805163c98517c560e01b8152905193945091926001600160a01b0390911691636dd5b69d91839163c98517c59160048083019260209291908290030181865afa15801561266d573d6000803e3d6000fd5b505050506040513d601f19601f8201168201806040525081019061269191906133d0565b6040518263ffffffff1660e01b81526004016126af91815260200190565b602060405180830381865afa1580156126cc573d6000803e3d6000fd5b505050506040513d601f19601f820116820180604052508101906126f091906133d0565b90508183101561273a576040805180820182526012815271496e73756666696369656e74207374616b6560701b6020820152905162461bcd60e51b815261063f91906004016130ce565b808311156127855760408051808201825260158152745374616b652065786365656473206d6178696d756d60581b6020820152905162461bcd60e51b815261063f91906004016130ce565b60405134815260009033907ffb8efd70c9f0ca009bfc9f2ca8a9256a5aefbc720bdb8d838e4bcd42c241b9eb90602001611502565b6001600160a01b038116600090815260036020526040812081805b60088301548110156128fc576002546008840180546000926001600160a01b03169163d5ec2d83918590811061280d5761280d61310a565b90600052602060002001546040518263ffffffff1660e01b815260040161283691815260200190565b600060405180830381865afa158015612853573d6000803e3d6000fd5b505050506040513d6000823e601f3d908101601f1916820160405261287b91908101906131db565b91505060005b8160600151518110156128e757816060015181815181106128a4576128a461310a565b6020026020010151602001516402540be4006128c0919061360a565b6128d3906001600160401b0316856130f7565b9350806128df816133b7565b915050612881565b505080806128f4906133b7565b9150506127d5565b509392505050565b6001600160a01b03811660009081526003602052604081208160038083015460ff169081111561293657612936612e48565b146129445750600092915050565b600061294f846127ba565b9050600081836005015461296391906130f7565b600054604080516332c70ad760e21b815290519293506001600160a01b0390911691636dd5b69d91839163cb1c2b5c916004808201926020929091908290030181865afa1580156129b8573d6000803e3d6000fd5b505050506040513d601f19601f820116820180604052508101906129dc91906133d0565b6040518263ffffffff1660e01b81526004016129fa91815260200190565b602060405180830381865afa158015612a17573d6000803e3d6000fd5b505050506040513d601f19601f82011682018060405250810190612a3b91906133d0565b1115949350505050565b612a4d612a83565b6001600160a01b038116612a7757604051631e4fbdf760e01b81526000600482015260240161063f565b612a8081612ade565b50565b33612ab57f9016d09d72d40fdae2fd8ceac6b6234c7706214fd39c1cd1e609a0528c199300546001600160a01b031690565b6001600160a01b03161461175f5760405163118cdaa760e01b815233600482015260240161063f565b7f9016d09d72d40fdae2fd8ceac6b6234c7706214fd39c1cd1e609a0528c19930080546001600160a01b031981166001600160a01b03848116918217845560405192169182907f8be0079c531659141344cd1fd0a4f28419497f9722a3daafe3b4186f6b6457e090600090a3505050565b612b57612b70565b61175f612bb9565b612b67612b70565b612a8081612be7565b7ff0c57e16840df040f15088dc2f81fe391c3923bec73e23a9662efc9c229c6a0054600160401b900460ff1661175f57604051631afcd79f60e31b815260040160405180910390fd5b612bc1612b70565b60017f9b779b17422d0df92223018b32b4d1fa46e071723d6817e2486d003becc55f0055565b612a4d612b70565b828054828255906000526020600020908101928215612c2a579160200282015b82811115612c2a578251825591602001919060010190612c0f565b50612c36929150612c3a565b5090565b5b80821115612c365760008155600101612c3b565b80356001600160a01b0381168114612c6657600080fd5b919050565b600060208284031215612c7d57600080fd5b612c8682612c4f565b9392505050565b60008060208385031215612ca057600080fd5b82356001600160401b0380821115612cb757600080fd5b818501915085601f830112612ccb57600080fd5b813581811115612cda57600080fd5b8660208260051b8501011115612cef57600080fd5b60209290920196919550909350505050565b60008083601f840112612d1357600080fd5b5081356001600160401b03811115612d2a57600080fd5b602083019150836020828501011115612d4257600080fd5b9250929050565b600080600080600060608688031215612d6157600080fd5b612d6a86612c4f565b945060208601356001600160401b0380821115612d8657600080fd5b612d9289838a01612d01565b90965094506040880135915080821115612dab57600080fd5b50612db888828901612d01565b969995985093965092949392505050565b60008060408385031215612ddc57600080fd5b612de583612c4f565b946020939093013593505050565b60008060408385031215612e0657600080fd5b612e0f83612c4f565b9150612e1d60208401612c4f565b90509250929050565b60008060408385031215612e3957600080fd5b50508035926020909101359150565b634e487b7160e01b600052602160045260246000fd5b60048110612e7c57634e487b7160e01b600052602160045260246000fd5b9052565b600081518084526020808501945080840160005b83811015612eb057815187529582019590820190600101612e94565b509495945050505050565b60005b83811015612ed6578181015183820152602001612ebe565b50506000910152565b60008151808452612ef7816020860160208601612ebb565b601f01601f19169290920160200192915050565b60208152612f256020820183516001600160a01b03169052565b602082015160408201526040820151606082015260006060830151612f4d6080840182612e5e565b50608083015160a083015260a083015160c083015260c0830151612f7c60e08401826001600160a01b03169052565b5060e0830151610100612f99818501836001600160a01b03169052565b808501519150506102006101208181860152612fb9610220860184612e80565b90860151909250610140612fd7868201836001600160a01b03169052565b80870151915050601f19610160818786030181880152612ff78584612edf565b9450808801519250506101808187860301818801526130168584612edf565b9450808801519250506101a08281880152808801519250506101c08187860301818801526130448584612edf565b9450808801519250506101e08187860301818801526130638584612edf565b94508088015192505050613081828601826001600160a01b03169052565b5090949350505050565b6000806000606084860312156130a057600080fd5b6130a984612c4f565b92506130b760208501612c4f565b91506130c560408501612c4f565b90509250925092565b602081526000612c866020830184612edf565b634e487b7160e01b600052601160045260246000fd5b808201808211156111e1576111e16130e1565b634e487b7160e01b600052603260045260246000fd5b634e487b7160e01b600052604160045260246000fd5b604051608081016001600160401b038111828210171561315857613158613120565b60405290565b604051606081016001600160401b038111828210171561315857613158613120565b604051601f8201601f191681016001600160401b03811182821017156131a8576131a8613120565b604052919050565b805163ffffffff81168114612c6657600080fd5b80516001600160401b0381168114612c6657600080fd5b600080604083850312156131ee57600080fd5b8251915060208301516001600160401b038082111561320c57600080fd5b908401906080828703121561322057600080fd5b613228613136565b82518152613238602084016131b0565b6020820152604083015160ff8116811461325157600080fd5b604082015260608301518281111561326857600080fd5b80840193505086601f84011261327d57600080fd5b82518281111561328f5761328f613120565b61329e60208260051b01613180565b8082825260208201915060208360051b8701019250898311156132c057600080fd5b602086015b838110156133a3578051868111156132dc57600080fd5b8701601f196060828e03820112156132f357600080fd5b6132fb61315e565b60208301518981111561330d57600080fd5b8301603f81018f1361331e57600080fd5b60208101518a81111561333357613333613120565b613344602085601f84011601613180565b93508084528f604082840101111561335b57600080fd5b61336c816020860160408501612ebb565b505081815261337d604084016131c4565b602082015261338e606084016131b0565b604082015285525050602092830192016132c5565b506060840152509497909650945050505050565b6000600182016133c9576133c96130e1565b5060010190565b6000602082840312156133e257600080fd5b5051919050565b600181811c908216806133fd57607f821691505b60208210810361341d57634e487b7160e01b600052602260045260246000fd5b50919050565b601f82111561346d57600081815260208120601f850160051c8101602086101561344a5750805b601f850160051c820191505b8181101561346957828155600101613456565b5050505b505050565b6001600160401b0383111561348957613489613120565b61349d8361349783546133e9565b83613423565b6000601f8411600181146134d157600085156134b95750838201355b600019600387901b1c1916600186901b17835561352b565b600083815260209020601f19861690835b8281101561350257868501358255602094850194600190920191016134e2565b508682101561351f5760001960f88860031b161c19848701351681555b505060018560011b0183555b5050505050565b81835281816020850137506000828201602090810191909152601f909101601f19169091010190565b6001600160a01b03861681526060602082018190526000906135809083018688613532565b8281036040840152613593818587613532565b98975050505050505050565b602081016111e18284612e5e565b60208082526011908201527041726269747261746f72576f726b696e6760781b604082015260600190565b6040815260006135ec604083018688613532565b82810360208401526135ff818587613532565b979650505050505050565b6001600160401b0381811683821602808216919082811461362d5761362d6130e1565b50509291505056fe41726269747261746f72206e6f74207265676973746572656400000000000000a2646970667358221220de556a0b29a02c7335660d8c4d85f41aa99107355dda22aba6956b4820ffe71664736f6c63430008140033",
  "linkReferences": {},
  "deployedLinkReferences": {}
}