{
  "_format": "hh-sol-artifact-1",
  "contractName": "ArbitratorManager",
  "sourceName": "contracts/core/ArbitratorManager.sol",
  "abi": [
    {
      "inputs": [],
      "stateMutability": "nonpayable",
      "type": "constructor"
    },
    {
      "inputs": [],
      "name": "ALREADY_INITIALIZED",
      "type": "error"
    },
    {
      "inputs": [],
      "name": "ARBITRATOR_ALREADY_REGISTERED",
      "type": "error"
    },
    {
      "inputs": [],
      "name": "ARBITRATOR_NOT_ACTIVE",
      "type": "error"
    },
    {
      "inputs": [],
      "name": "ARBITRATOR_NOT_REGISTERED",
      "type": "error"
    },
    {
      "inputs": [],
      "name": "ARBITRATOR_NOT_WORKING",
      "type": "error"
    },
    {
      "inputs": [],
      "name": "CONFIG_NOT_MODIFIABLE",
      "type": "error"
    },
    {
      "inputs": [],
      "name": "EMPTY_TOKEN_IDS",
      "type": "error"
    },
    {
      "inputs": [],
      "name": "INSUFFICIENT_STAKE",
      "type": "error"
    },
    {
      "inputs": [],
      "name": "INVALID_DEADLINE",
      "type": "error"
    },
    {
      "inputs": [],
      "name": "INVALID_FEE_RATE",
      "type": "error"
    },
    {
      "inputs": [],
      "name": "INVALID_NFT_CONTRACT",
      "type": "error"
    },
    {
      "inputs": [],
      "name": "INVALID_PARAMETER",
      "type": "error"
    },
    {
      "inputs": [],
      "name": "INVALID_TRANSACTION_ID",
      "type": "error"
    },
    {
      "inputs": [],
      "name": "InvalidInitialization",
      "type": "error"
    },
    {
      "inputs": [],
      "name": "NOT_COMPENSATION_MANAGER",
      "type": "error"
    },
    {
      "inputs": [],
      "name": "NOT_INITIALIZED",
      "type": "error"
    },
    {
      "inputs": [],
      "name": "NOT_TRANSACTION_MANAGER",
      "type": "error"
    },
    {
      "inputs": [],
      "name": "NotInitializing",
      "type": "error"
    },
    {
      "inputs": [
        {
          "internalType": "address",
          "name": "owner",
          "type": "address"
        }
      ],
      "name": "OwnableInvalidOwner",
      "type": "error"
    },
    {
      "inputs": [
        {
          "internalType": "address",
          "name": "account",
          "type": "address"
        }
      ],
      "name": "OwnableUnauthorizedAccount",
      "type": "error"
    },
    {
      "inputs": [],
      "name": "ReentrancyGuardReentrantCall",
      "type": "error"
    },
    {
      "inputs": [],
      "name": "STAKE_EXCEEDS_MAX",
      "type": "error"
    },
    {
      "inputs": [],
      "name": "STAKE_STILL_LOCKED",
      "type": "error"
    },
    {
      "inputs": [],
      "name": "TRANSFER_FAILED",
      "type": "error"
    },
    {
      "inputs": [],
      "name": "ZERO_ADDRESS",
      "type": "error"
    },
    {
      "anonymous": false,
      "inputs": [
        {
          "indexed": true,
          "internalType": "address",
          "name": "arbitrator",
          "type": "address"
        },
        {
          "indexed": false,
          "internalType": "uint256",
          "name": "deadline",
          "type": "uint256"
        }
      ],
      "name": "ArbitratorDeadlineUpdated",
      "type": "event"
    },
    {
      "anonymous": false,
      "inputs": [
        {
          "indexed": true,
          "internalType": "address",
          "name": "arbitrator",
          "type": "address"
        },
        {
          "indexed": false,
          "internalType": "uint256",
          "name": "feeRate",
          "type": "uint256"
        }
      ],
      "name": "ArbitratorFeeRateUpdated",
      "type": "event"
    },
    {
      "anonymous": false,
      "inputs": [
        {
          "indexed": true,
          "internalType": "address",
          "name": "arbitrator",
          "type": "address"
        }
      ],
      "name": "ArbitratorFrozen",
      "type": "event"
    },
    {
      "anonymous": false,
      "inputs": [
        {
          "indexed": true,
          "internalType": "address",
          "name": "arbitrator",
          "type": "address"
        }
      ],
      "name": "ArbitratorPaused",
      "type": "event"
    },
    {
      "anonymous": false,
      "inputs": [
        {
          "indexed": true,
          "internalType": "address",
          "name": "arbitrator",
          "type": "address"
        },
        {
          "indexed": true,
          "internalType": "address",
          "name": "operator",
          "type": "address"
        },
        {
          "indexed": false,
          "internalType": "address",
          "name": "revenueAddress",
          "type": "address"
        },
        {
          "indexed": false,
          "internalType": "string",
          "name": "btcAddress",
          "type": "string"
        },
        {
          "indexed": false,
          "internalType": "bytes",
          "name": "btcPubKey",
          "type": "bytes"
        },
        {
          "indexed": false,
          "internalType": "uint256",
          "name": "feeRate",
          "type": "uint256"
        },
        {
          "indexed": false,
          "internalType": "uint256",
          "name": "deadline",
          "type": "uint256"
        }
      ],
      "name": "ArbitratorRegistered",
      "type": "event"
    },
    {
      "anonymous": false,
      "inputs": [
        {
          "indexed": true,
          "internalType": "address",
          "name": "arbitrator",
          "type": "address"
        },
        {
          "indexed": true,
          "internalType": "bytes32",
          "name": "transactionId",
          "type": "bytes32"
        }
      ],
      "name": "ArbitratorReleased",
      "type": "event"
    },
    {
      "anonymous": false,
      "inputs": [
        {
          "indexed": true,
          "internalType": "address",
          "name": "arbitrator",
          "type": "address"
        }
      ],
      "name": "ArbitratorTerminatedWithSlash",
      "type": "event"
    },
    {
      "anonymous": false,
      "inputs": [
        {
          "indexed": true,
          "internalType": "address",
          "name": "arbitrator",
          "type": "address"
        }
      ],
      "name": "ArbitratorUnpaused",
      "type": "event"
    },
    {
      "anonymous": false,
      "inputs": [
        {
          "indexed": true,
          "internalType": "address",
          "name": "arbitrator",
          "type": "address"
        },
        {
          "indexed": true,
          "internalType": "bytes32",
          "name": "transactionId",
          "type": "bytes32"
        }
      ],
      "name": "ArbitratorWorking",
      "type": "event"
    },
    {
      "anonymous": false,
      "inputs": [
        {
          "indexed": true,
          "internalType": "address",
          "name": "oldManager",
          "type": "address"
        },
        {
          "indexed": true,
          "internalType": "address",
          "name": "newManager",
          "type": "address"
        }
      ],
      "name": "CompensationManagerUpdated",
      "type": "event"
    },
    {
      "anonymous": false,
      "inputs": [
        {
          "indexed": false,
          "internalType": "uint64",
          "name": "version",
          "type": "uint64"
        }
      ],
      "name": "Initialized",
      "type": "event"
    },
    {
      "anonymous": false,
      "inputs": [
        {
          "indexed": true,
          "internalType": "address",
          "name": "transactionManager",
          "type": "address"
        },
        {
          "indexed": true,
          "internalType": "address",
          "name": "compensationManager",
          "type": "address"
        }
      ],
      "name": "InitializedManager",
      "type": "event"
    },
    {
      "anonymous": false,
      "inputs": [
        {
          "indexed": true,
          "internalType": "address",
          "name": "oldNFTContract",
          "type": "address"
        },
        {
          "indexed": true,
          "internalType": "address",
          "name": "newNFTContract",
          "type": "address"
        }
      ],
      "name": "NFTContractUpdated",
      "type": "event"
    },
    {
      "anonymous": false,
      "inputs": [
        {
          "indexed": true,
          "internalType": "address",
          "name": "arbitrator",
          "type": "address"
        },
        {
          "indexed": true,
          "internalType": "address",
          "name": "operator",
          "type": "address"
        },
        {
          "indexed": false,
          "internalType": "bytes",
          "name": "btcPubKey",
          "type": "bytes"
        },
        {
          "indexed": false,
          "internalType": "string",
          "name": "btcAddress",
          "type": "string"
        }
      ],
      "name": "OperatorSet",
      "type": "event"
    },
    {
      "anonymous": false,
      "inputs": [
        {
          "indexed": true,
          "internalType": "address",
          "name": "previousOwner",
          "type": "address"
        },
        {
          "indexed": true,
          "internalType": "address",
          "name": "newOwner",
          "type": "address"
        }
      ],
      "name": "OwnershipTransferred",
      "type": "event"
    },
    {
      "anonymous": false,
      "inputs": [
        {
          "indexed": true,
          "internalType": "address",
          "name": "arbitrator",
          "type": "address"
        },
        {
          "indexed": false,
          "internalType": "address",
          "name": "ethAddress",
          "type": "address"
        },
        {
          "indexed": false,
          "internalType": "bytes",
          "name": "btcPubKey",
          "type": "bytes"
        },
        {
          "indexed": false,
          "internalType": "string",
          "name": "btcAddress",
          "type": "string"
        }
      ],
      "name": "RevenueAddressesSet",
      "type": "event"
    },
    {
      "anonymous": false,
      "inputs": [
        {
          "indexed": true,
          "internalType": "address",
          "name": "arbitrator",
          "type": "address"
        },
        {
          "indexed": true,
          "internalType": "address",
          "name": "assetAddress",
          "type": "address"
        },
        {
          "indexed": false,
          "internalType": "uint256",
          "name": "amount",
          "type": "uint256"
        },
        {
          "indexed": false,
          "internalType": "uint256[]",
          "name": "nftTokenIds",
          "type": "uint256[]"
        }
      ],
      "name": "StakeAdded",
      "type": "event"
    },
    {
      "anonymous": false,
      "inputs": [
        {
          "indexed": true,
          "internalType": "address",
          "name": "arbitrator",
          "type": "address"
        },
        {
          "indexed": true,
          "internalType": "address",
          "name": "assetAddress",
          "type": "address"
        },
        {
          "indexed": false,
          "internalType": "uint256",
          "name": "amount",
          "type": "uint256"
        }
      ],
      "name": "StakeWithdrawn",
      "type": "event"
    },
    {
      "anonymous": false,
      "inputs": [
        {
          "indexed": true,
          "internalType": "address",
          "name": "oldManager",
          "type": "address"
        },
        {
          "indexed": true,
          "internalType": "address",
          "name": "newManager",
          "type": "address"
        }
      ],
      "name": "TransactionManagerUpdated",
      "type": "event"
    },
    {
      "inputs": [],
      "name": "compensationManager",
      "outputs": [
        {
          "internalType": "address",
          "name": "",
          "type": "address"
        }
      ],
      "stateMutability": "view",
      "type": "function"
    },
    {
      "inputs": [],
      "name": "configManager",
      "outputs": [
        {
          "internalType": "contract ConfigManager",
          "name": "",
          "type": "address"
        }
      ],
      "stateMutability": "view",
      "type": "function"
    },
    {
      "inputs": [
        {
          "internalType": "address",
          "name": "arbitrator",
          "type": "address"
        }
      ],
      "name": "frozenArbitrator",
      "outputs": [],
      "stateMutability": "nonpayable",
      "type": "function"
    },
    {
      "inputs": [
        {
          "internalType": "address",
          "name": "arbitratorAddress",
          "type": "address"
        }
      ],
      "name": "getArbitratorInfo",
      "outputs": [
        {
          "components": [
            {
              "internalType": "address",
              "name": "arbitrator",
              "type": "address"
            },
            {
              "internalType": "bool",
              "name": "paused",
              "type": "bool"
            },
            {
              "internalType": "uint256",
              "name": "currentFeeRate",
              "type": "uint256"
            },
            {
              "internalType": "bytes32",
              "name": "activeTransactionId",
              "type": "bytes32"
            },
            {
              "internalType": "uint256",
              "name": "ethAmount",
              "type": "uint256"
            },
            {
              "internalType": "address",
              "name": "erc20Token",
              "type": "address"
            },
            {
              "internalType": "address",
              "name": "nftContract",
              "type": "address"
            },
            {
              "internalType": "uint256[]",
              "name": "nftTokenIds",
              "type": "uint256[]"
            },
            {
              "internalType": "address",
              "name": "operator",
              "type": "address"
            },
            {
              "internalType": "bytes",
              "name": "operatorBtcPubKey",
              "type": "bytes"
            },
            {
              "internalType": "string",
              "name": "operatorBtcAddress",
              "type": "string"
            },
            {
              "internalType": "uint256",
              "name": "deadLine",
              "type": "uint256"
            },
            {
              "internalType": "bytes",
              "name": "revenueBtcPubKey",
              "type": "bytes"
            },
            {
              "internalType": "string",
              "name": "revenueBtcAddress",
              "type": "string"
            },
            {
              "internalType": "address",
              "name": "revenueETHAddress",
              "type": "address"
            },
            {
              "internalType": "uint256",
              "name": "lastSubmittedWorkTime",
              "type": "uint256"
            }
          ],
          "internalType": "struct DataTypes.ArbitratorInfo",
          "name": "",
          "type": "tuple"
        }
      ],
      "stateMutability": "view",
      "type": "function"
    },
    {
      "inputs": [
        {
          "internalType": "address",
          "name": "arbitrator",
          "type": "address"
        }
      ],
      "name": "getAvailableStake",
      "outputs": [
        {
          "internalType": "uint256",
          "name": "",
          "type": "uint256"
        }
      ],
      "stateMutability": "view",
      "type": "function"
    },
    {
      "inputs": [
        {
          "internalType": "address",
          "name": "arbitrator",
          "type": "address"
        }
      ],
      "name": "getTotalNFTStakeValue",
      "outputs": [
        {
          "internalType": "uint256",
          "name": "",
          "type": "uint256"
        }
      ],
      "stateMutability": "view",
      "type": "function"
    },
    {
      "inputs": [
        {
          "internalType": "address",
          "name": "_transactionManager",
          "type": "address"
        },
        {
          "internalType": "address",
          "name": "_compensationManager",
          "type": "address"
        }
      ],
      "name": "initTransactionAndCompensationManager",
      "outputs": [],
      "stateMutability": "nonpayable",
      "type": "function"
    },
    {
      "inputs": [
        {
          "internalType": "address",
          "name": "_configManager",
          "type": "address"
        },
        {
          "internalType": "address",
          "name": "_nftContract",
          "type": "address"
        },
        {
          "internalType": "address",
          "name": "_nftInfo",
          "type": "address"
        }
      ],
      "name": "initialize",
      "outputs": [],
      "stateMutability": "nonpayable",
      "type": "function"
    },
    {
      "inputs": [
        {
          "internalType": "address",
          "name": "arbitratorAddress",
          "type": "address"
        }
      ],
      "name": "isActiveArbitrator",
      "outputs": [
        {
          "internalType": "bool",
          "name": "",
          "type": "bool"
        }
      ],
      "stateMutability": "view",
      "type": "function"
    },
    {
      "inputs": [
        {
          "internalType": "address",
          "name": "arbitrator",
          "type": "address"
        }
      ],
      "name": "isConfigModifiable",
      "outputs": [
        {
          "internalType": "bool",
          "name": "",
          "type": "bool"
        }
      ],
      "stateMutability": "view",
      "type": "function"
    },
    {
      "inputs": [
        {
          "internalType": "address",
          "name": "arbitrator",
          "type": "address"
        }
      ],
      "name": "isFrozenStatus",
      "outputs": [
        {
          "internalType": "bool",
          "name": "",
          "type": "bool"
        }
      ],
      "stateMutability": "view",
      "type": "function"
    },
    {
      "inputs": [
        {
          "internalType": "address",
          "name": "arbitrator",
          "type": "address"
        },
        {
          "internalType": "address",
          "name": "operator",
          "type": "address"
        }
      ],
      "name": "isOperatorOf",
      "outputs": [
        {
          "internalType": "bool",
          "name": "",
          "type": "bool"
        }
      ],
      "stateMutability": "view",
      "type": "function"
    },
    {
      "inputs": [
        {
          "internalType": "address",
          "name": "arbitrator",
          "type": "address"
        }
      ],
      "name": "isPaused",
      "outputs": [
        {
          "internalType": "bool",
          "name": "",
          "type": "bool"
        }
      ],
      "stateMutability": "view",
      "type": "function"
    },
    {
      "inputs": [],
      "name": "nftContract",
      "outputs": [
        {
          "internalType": "contract IERC721",
          "name": "",
          "type": "address"
        }
      ],
      "stateMutability": "view",
      "type": "function"
    },
    {
      "inputs": [],
      "name": "nftInfo",
      "outputs": [
        {
          "internalType": "contract IBNFTInfo",
          "name": "",
          "type": "address"
        }
      ],
      "stateMutability": "view",
      "type": "function"
    },
    {
      "inputs": [],
      "name": "owner",
      "outputs": [
        {
          "internalType": "address",
          "name": "",
          "type": "address"
        }
      ],
      "stateMutability": "view",
      "type": "function"
    },
    {
      "inputs": [],
      "name": "pause",
      "outputs": [],
      "stateMutability": "nonpayable",
      "type": "function"
    },
    {
      "inputs": [
        {
          "internalType": "string",
          "name": "defaultBtcAddress",
          "type": "string"
        },
        {
          "internalType": "bytes",
          "name": "defaultBtcPubKey",
          "type": "bytes"
        },
        {
          "internalType": "uint256",
          "name": "feeRate",
          "type": "uint256"
        },
        {
          "internalType": "uint256",
          "name": "deadline",
          "type": "uint256"
        }
      ],
      "name": "registerArbitratorByStakeETH",
      "outputs": [],
      "stateMutability": "payable",
      "type": "function"
    },
    {
      "inputs": [
        {
          "internalType": "uint256[]",
          "name": "tokenIds",
          "type": "uint256[]"
        },
        {
          "internalType": "string",
          "name": "defaultBtcAddress",
          "type": "string"
        },
        {
          "internalType": "bytes",
          "name": "defaultBtcPubKey",
          "type": "bytes"
        },
        {
          "internalType": "uint256",
          "name": "feeRate",
          "type": "uint256"
        },
        {
          "internalType": "uint256",
          "name": "deadline",
          "type": "uint256"
        }
      ],
      "name": "registerArbitratorByStakeNFT",
      "outputs": [],
      "stateMutability": "nonpayable",
      "type": "function"
    },
    {
      "inputs": [
        {
          "internalType": "address",
          "name": "arbitrator",
          "type": "address"
        },
        {
          "internalType": "bytes32",
          "name": "transactionId",
          "type": "bytes32"
        }
      ],
      "name": "releaseArbitrator",
      "outputs": [],
      "stateMutability": "nonpayable",
      "type": "function"
    },
    {
      "inputs": [],
      "name": "renounceOwnership",
      "outputs": [],
      "stateMutability": "nonpayable",
      "type": "function"
    },
    {
      "inputs": [
        {
          "internalType": "uint256",
          "name": "deadline",
          "type": "uint256"
        }
      ],
      "name": "setArbitratorDeadline",
      "outputs": [],
      "stateMutability": "nonpayable",
      "type": "function"
    },
    {
      "inputs": [
        {
          "internalType": "uint256",
          "name": "feeRate",
          "type": "uint256"
        }
      ],
      "name": "setArbitratorFeeRate",
      "outputs": [],
      "stateMutability": "nonpayable",
      "type": "function"
    },
    {
      "inputs": [
        {
          "internalType": "address",
          "name": "arbitrator",
          "type": "address"
        },
        {
          "internalType": "bytes32",
          "name": "transactionId",
          "type": "bytes32"
        }
      ],
      "name": "setArbitratorWorking",
      "outputs": [],
      "stateMutability": "nonpayable",
      "type": "function"
    },
    {
      "inputs": [
        {
          "internalType": "address",
          "name": "_compensationManager",
          "type": "address"
        }
      ],
      "name": "setCompensationManager",
      "outputs": [],
      "stateMutability": "nonpayable",
      "type": "function"
    },
    {
      "inputs": [
        {
          "internalType": "address",
          "name": "_nftContract",
          "type": "address"
        }
      ],
      "name": "setNFTContract",
      "outputs": [],
      "stateMutability": "nonpayable",
      "type": "function"
    },
    {
      "inputs": [
        {
          "internalType": "address",
          "name": "operator",
          "type": "address"
        },
        {
          "internalType": "bytes",
          "name": "btcPubKey",
          "type": "bytes"
        },
        {
          "internalType": "string",
          "name": "btcAddress",
          "type": "string"
        }
      ],
      "name": "setOperator",
      "outputs": [],
      "stateMutability": "nonpayable",
      "type": "function"
    },
    {
      "inputs": [
        {
          "internalType": "address",
          "name": "ethAddress",
          "type": "address"
        },
        {
          "internalType": "bytes",
          "name": "btcPubKey",
          "type": "bytes"
        },
        {
          "internalType": "string",
          "name": "btcAddress",
          "type": "string"
        }
      ],
      "name": "setRevenueAddresses",
      "outputs": [],
      "stateMutability": "nonpayable",
      "type": "function"
    },
    {
      "inputs": [
        {
          "internalType": "address",
          "name": "_transactionManager",
          "type": "address"
        }
      ],
      "name": "setTransactionManager",
      "outputs": [],
      "stateMutability": "nonpayable",
      "type": "function"
    },
    {
      "inputs": [],
      "name": "stakeETH",
      "outputs": [],
      "stateMutability": "payable",
      "type": "function"
    },
    {
      "inputs": [
        {
          "internalType": "uint256[]",
          "name": "tokenIds",
          "type": "uint256[]"
        }
      ],
      "name": "stakeNFT",
      "outputs": [],
      "stateMutability": "nonpayable",
      "type": "function"
    },
    {
      "inputs": [
        {
          "internalType": "address",
          "name": "arbitrator",
          "type": "address"
        }
      ],
      "name": "terminateArbitratorWithSlash",
      "outputs": [],
      "stateMutability": "nonpayable",
      "type": "function"
    },
    {
      "inputs": [],
      "name": "transactionManager",
      "outputs": [
        {
          "internalType": "address",
          "name": "",
          "type": "address"
        }
      ],
      "stateMutability": "view",
      "type": "function"
    },
    {
      "inputs": [
        {
          "internalType": "address",
          "name": "newOwner",
          "type": "address"
        }
      ],
      "name": "transferOwnership",
      "outputs": [],
      "stateMutability": "nonpayable",
      "type": "function"
    },
    {
      "inputs": [],
      "name": "unpause",
      "outputs": [],
      "stateMutability": "nonpayable",
      "type": "function"
    },
    {
      "inputs": [],
      "name": "unstake",
      "outputs": [],
      "stateMutability": "nonpayable",
      "type": "function"
    },
    {
      "inputs": [],
      "name": "zeroAddress",
      "outputs": [
        {
          "internalType": "address",
          "name": "",
          "type": "address"
        }
      ],
      "stateMutability": "view",
      "type": "function"
    }
  ],
  "bytecode": "0x60806040523480156200001157600080fd5b506200001c62000022565b620000d6565b7ff0c57e16840df040f15088dc2f81fe391c3923bec73e23a9662efc9c229c6a00805468010000000000000000900460ff1615620000735760405163f92ee8a960e01b815260040160405180910390fd5b80546001600160401b0390811614620000d35780546001600160401b0319166001600160401b0390811782556040519081527fc7f505b2f371ae2175ee4913f4499e1f2633a7b5936321eed1cdaeb6115181d29060200160405180910390a15b50565b6149e480620000e66000396000f3fe60806040526004361061021a5760003560e01c8063715018a611610123578063ca0ab075116100ab578063dceb986d1161006f578063dceb986d14610662578063e25268d21461066a578063e2b4efb81461068a578063f2fde38b146106aa578063f3724d18146106ca57600080fd5b8063ca0ab075146105c2578063cedb588b146105e2578063d2b6f74b14610602578063d3f414e014610622578063d56d229d1461064257600080fd5b8063998b2fd8116100f2578063998b2fd8146105225780639f7ca8dd14610542578063a7ccabdf14610562578063b553fe1e14610582578063c0c53b8b146105a257600080fd5b8063715018a61461048e5780638456cb59146104a35780638da5cb5b146104b857806399056c3c146104f557600080fd5b80632def6620116101a65780633f4ba83a116101755780633f4ba83a146103d957806344019f7e146103ee5780634476a6601461040e5780635b14f1831461042e578063654b4e831461046e57600080fd5b80632def66201461037157806337e406e91461038657806339c25e2c146103995780633b716452146103b957600080fd5b806314f6b190116101ed57806314f6b190146102b3578063182c5744146102e1578063291112511461030157806329a3f203146103315780632b2d37da1461035157600080fd5b8063044a291a1461021f5780630559b877146102415780630930907b1461027e5780630b1fa61c14610293575b600080fd5b34801561022b57600080fd5b5061023f61023a366004613cf2565b6106ea565b005b34801561024d57600080fd5b50600554610261906001600160a01b031681565b6040516001600160a01b0390911681526020015b60405180910390f35b34801561028a57600080fd5b50610261600081565b34801561029f57600080fd5b5061023f6102ae366004613d20565b61089d565b3480156102bf57600080fd5b506102d36102ce366004613d20565b61091e565b604051908152602001610275565b3480156102ed57600080fd5b5061023f6102fc366004613d81565b61095a565b34801561030d57600080fd5b5061032161031c366004613d20565b610a4a565b6040519015158152602001610275565b34801561033d57600080fd5b5061023f61034c366004613e03565b610dd2565b34801561035d57600080fd5b5061023f61036c366004613e85565b610ebd565b34801561037d57600080fd5b5061023f610f92565b61023f610394366004613eb1565b611304565b3480156103a557600080fd5b506103216103b4366004613f2e565b611495565b3480156103c557600080fd5b50600454610261906001600160a01b031681565b3480156103e557600080fd5b5061023f6114bf565b3480156103fa57600080fd5b5061023f610409366004613cf2565b611574565b34801561041a57600080fd5b5061023f610429366004613d20565b61163a565b34801561043a57600080fd5b50610321610449366004613d20565b6001600160a01b0316600090815260036020526040902054600160a01b900460ff1690565b34801561047a57600080fd5b5061023f610489366004613e03565b6116bb565b34801561049a57600080fd5b5061023f6117f6565b3480156104af57600080fd5b5061023f611808565b3480156104c457600080fd5b507f9016d09d72d40fdae2fd8ceac6b6234c7706214fd39c1cd1e609a0528c199300546001600160a01b0316610261565b34801561050157600080fd5b50610515610510366004613d20565b6118c0565b6040516102759190613ff2565b34801561052e57600080fd5b5061023f61053d366004613d20565b611c96565b34801561054e57600080fd5b5061032161055d366004613d20565b611f85565b34801561056e57600080fd5b5061023f61057d366004613d20565b612320565b34801561058e57600080fd5b50600254610261906001600160a01b031681565b3480156105ae57600080fd5b5061023f6105bd36600461416a565b6123a1565b3480156105ce57600080fd5b50600054610261906001600160a01b031681565b3480156105ee57600080fd5b5061023f6105fd366004613e85565b61256b565b34801561060e57600080fd5b5061023f61061d366004613f2e565b61263e565b34801561062e57600080fd5b5061023f61063d366004613d20565b61272b565b34801561064e57600080fd5b50600154610261906001600160a01b031681565b61023f61281b565b34801561067657600080fd5b506102d3610685366004613d20565b6128f1565b34801561069657600080fd5b506103216106a5366004613d20565b612a60565b3480156106b657600080fd5b5061023f6106c5366004613d20565b612f32565b3480156106d657600080fd5b5061023f6106e53660046141b5565b612f70565b600054604080516325ba6ce560e11b815290516001600160a01b0390921691636dd5b69d918391634b74d9ca916004808201926020929091908290030181865afa15801561073c573d6000803e3d6000fd5b505050506040513d601f19601f82011682018060405250810190610760919061425d565b6040518263ffffffff1660e01b815260040161077e91815260200190565b602060405180830381865afa15801561079b573d6000803e3d6000fd5b505050506040513d601f19601f820116820180604052508101906107bf919061425d565b8110156107ff5760405162461bcd60e51b8152602060048201526009602482015268466565546f6f4c6f7760b81b60448201526064015b60405180910390fd5b33600090815260036020526040902080546001600160a01b031661083657604051634381b6c160e11b815260040160405180910390fd5b61083f33611f85565b61085c5760405163f74c564d60e01b815260040160405180910390fd5b6001810182905560405182815233907fc073301ddf8865aa8a0ac12d7b49f92e150867ffd6de12ce421d1ee62653dfc7906020015b60405180910390a25050565b6108a561313b565b6001600160a01b0381166108cc5760405163538ba4f960e01b815260040160405180910390fd5b600480546001600160a01b038381166001600160a01b0319831681179093556040519116919082907f960d9803c7ca631d3232d16e9971c7fd8e82d5f7ff7c2824c7b29dcab8a37d2e90600090a35050565b6001600160a01b038116600090815260036020526040812081610940846128f1565b9050808260030154610952919061428c565b949350505050565b600081900361097c57604051630b72e1b360e21b815260040160405180910390fd5b33600090815260036020526040902080546001600160a01b03166109b357604051634381b6c160e11b815260040160405180910390fd5b6109bc33611f85565b6109d95760405163f74c564d60e01b815260040160405180910390fd5b60006109e58484613196565b90506109f2828585613446565b610a0082600301548261367d565b610a0982613881565b6001546040516001600160a01b0390911690339060008051602061496f83398151915290610a3c9085908990899061429f565b60405180910390a350505050565b6001600160a01b03818116600090815260036020818152604080842081516102008101835281548088168252600160a01b900460ff16151581850152600182015481840152600282015460608201529381015460808501526004810154861660a0850152600581015490951660c084015260068501805482518185028101850190935280835294958695909360e0860193929190830182828015610b0d57602002820191906000526020600020905b815481526020019060010190808311610af9575b505050918352505060078201546001600160a01b03166020820152600882018054604090920191610b3d906142e0565b80601f0160208091040260200160405190810160405280929190818152602001828054610b69906142e0565b8015610bb65780601f10610b8b57610100808354040283529160200191610bb6565b820191906000526020600020905b815481529060010190602001808311610b9957829003601f168201915b50505050508152602001600982018054610bcf906142e0565b80601f0160208091040260200160405190810160405280929190818152602001828054610bfb906142e0565b8015610c485780601f10610c1d57610100808354040283529160200191610c48565b820191906000526020600020905b815481529060010190602001808311610c2b57829003601f168201915b50505050508152602001600a8201548152602001600b82018054610c6b906142e0565b80601f0160208091040260200160405190810160405280929190818152602001828054610c97906142e0565b8015610ce45780601f10610cb957610100808354040283529160200191610ce4565b820191906000526020600020905b815481529060010190602001808311610cc757829003601f168201915b50505050508152602001600c82018054610cfd906142e0565b80601f0160208091040260200160405190810160405280929190818152602001828054610d29906142e0565b8015610d765780601f10610d4b57610100808354040283529160200191610d76565b820191906000526020600020905b815481529060010190602001808311610d5957829003601f168201915b5050509183525050600d8201546001600160a01b039081166020830152600e90920154604090910152815191925016610dc257604051634381b6c160e11b815260040160405180910390fd5b610dcb816138ed565b9392505050565b33600090815260036020526040902080546001600160a01b0316610e0957604051634381b6c160e11b815260040160405180910390fd5b610e1233611f85565b610e2f5760405163f74c564d60e01b815260040160405180910390fd5b600d810180546001600160a01b0319166001600160a01b038816179055600b8101610e5b85878361437f565b50600c8101610e6b83858361437f565b50336001600160a01b03167f8e68353cf53df77c6b6993341bb1d784fab04f2f38b2c51654b51de6ce32274e8787878787604051610ead959493929190614467565b60405180910390a2505050505050565b6004546001600160a01b03163314610ee857604051631a4273c160e01b815260040160405180910390fd5b600554600160a01b900460ff16610f1257604051630f68fe6360e21b815260040160405180910390fd5b6001600160a01b0382166000908152600360205260409020610f3383612a60565b610f505760405163689b992760e01b815260040160405180910390fd5b6002810182905560405182906001600160a01b038516907f43b9442ba3328a37dad0041120b36563dafcdbdb7b200665d8cbb0c44982720c90600090a3505050565b610f9a61399d565b336000908152600360205260409020600281015415610fef5760405162461bcd60e51b815260206004820152601160248201527041726269747261746f72576f726b696e6760781b60448201526064016107f6565b3360009081526003602052604090208054611012906001600160a01b0316611f85565b61102f576040516306299bf960e31b815260040160405180910390fd5b6000816003015411806110455750600681015415155b61107b5760405162461bcd60e51b81526020600482015260076024820152664e6f5374616b6560c81b60448201526064016107f6565b600381018054600090915560058201546001600160a01b0316158015906110a55750600682015415155b1561121f576000826006018054806020026020016040519081016040528092919081815260200182805480156110fa57602002820191906000526020600020905b8154815260200190600101908083116110e6575b509394506000935061110b92505050565b604051908082528060200260200182016040528015611134578160200160208202803683370190505b50805161114b916006860191602090910190613c92565b506005830180546001600160a01b031916905560005b815181101561121c5760015482516001600160a01b03909116906323b872dd9030903390869086908110611197576111976144ab565b60209081029190910101516040516001600160e01b031960e086901b1681526001600160a01b0393841660048201529290911660248301526044820152606401600060405180830381600087803b1580156111f157600080fd5b505af1158015611205573d6000803e3d6000fd5b505050508080611214906144c1565b915050611161565b50505b80156112b057604051600090339083908381818185875af1925050503d8060008114611267576040519150601f19603f3d011682016040523d82523d6000602084013e61126c565b606091505b50509050806112ae5760405162461bcd60e51b815260206004820152600e60248201526d151c985b9cd9995c91985a5b195960921b60448201526064016107f6565b505b60405181815260009033907fb7c918e0e249f999e965cafeb6c664271b3f4317d296461500e71da39f0cbda39060200160405180910390a3505050611302600160008051602061498f83398151915255565b565b6113128686868686866139e9565b61131d34600061367d565b33600090815260036020526040902080546001600160a01b03161561135557604051630b30b38360e41b815260040160405180910390fd5b8054336001600160a01b031991821681178355600783018054831682179055600d83018054909216179055600c810161138f87898361437f565b50600b810161139f85878361437f565b50600981016113af87898361437f565b50600881016113bf85878361437f565b5060018101839055600a81018290556003810180543491906000906113e590849061428c565b909155505080546040805160008082526020820192839052926001600160a01b03169160008051602061496f83398151915291611424913491906144da565b60405180910390a36007810154600d8201546040516001600160a01b039283169233927f1ab9d0508879cf64270650fc89b30617972d694fd1053946f028860daf125c7c926114849290911690600c870190600b8801908a908a906145a5565b60405180910390a350505050505050565b6001600160a01b038281166000908152600360205260409020600701548116908216145b92915050565b33600090815260036020526040902080546001600160a01b03166114f657604051634381b6c160e11b815260040160405180910390fd5b8054600160a01b900460ff1661153b5760405162461bcd60e51b815260206004820152600a6024820152691b9bdd081c185d5cd95960b21b60448201526064016107f6565b805460ff60a01b1916815560405133907f9f71f687820b75e4208e6fdd2091be151d94465fe4bafd2506bed2b9a430437d90600090a250565b42811161159457604051632c5af88760e21b815260040160405180910390fd5b33600090815260036020526040902080546001600160a01b03166115cb57604051634381b6c160e11b815260040160405180910390fd5b600081600a01541180156115e3575080600a01548211155b1561160157604051632c5af88760e21b815260040160405180910390fd5b600a810182905560405182815233907fff191d17033fc90a7dae896652cf93df6f261bc4176c000d0e5e21345b139ccb90602001610891565b61164261313b565b6001600160a01b0381166116695760405163538ba4f960e01b815260040160405180910390fd5b600580546001600160a01b038381166001600160a01b0319831681179093556040519116919082907fb2de57cf284062a9a3402f8683281c49d5a6747b1f369d0eec883b83503f3c8d90600090a35050565b6001600160a01b0385166117035760405162461bcd60e51b815260206004820152600f60248201526e24b73b30b634b227b832b930ba37b960891b60448201526064016107f6565b61170c33611f85565b6117295760405163f74c564d60e01b815260040160405180910390fd5b33600090815260036020526040902080546001600160a01b031661176057604051634381b6c160e11b815260040160405180910390fd5b6007810180546001600160a01b0319166001600160a01b0388161790556008810161178c85878361437f565b506009810161179c83858361437f565b50856001600160a01b0316336001600160a01b03167ff920b7832d3774e2ac2efb86fccb411bc92e19a8ea66687764dea93140bdad4a878787876040516117e694939291906145f0565b60405180910390a3505050505050565b6117fe61313b565b6113026000613b5c565b33600090815260036020526040902080546001600160a01b031661183f57604051634381b6c160e11b815260040160405180910390fd5b61184833612a60565b6118815760405162461bcd60e51b815260206004820152600a6024820152694e6f742061637469766560b01b60448201526064016107f6565b805460ff60a01b1916600160a01b17815560405133907ff8f74f9bb1ed360c36a0bd59e0d8aa5cbdd15bb6e8e86af871f343daf432be2290600090a250565b604080516102008101825260008082526020820181905291810182905260608082018390526080820183905260a0820183905260c0820183905260e08201819052610100820183905261012082018190526101408201819052610160820183905261018082018190526101a08201526101c081018290526101e08101919091526001600160a01b0382811660009081526003602081815260409283902083516102008101855281548087168252600160a01b900460ff16151581840152600182015481860152600282015460608201529281015460808401526004810154851660a0840152600581015490941660c083015260068401805484518184028101840190955280855292949360e08601939092830182828015611a0057602002820191906000526020600020905b8154815260200190600101908083116119ec575b505050918352505060078201546001600160a01b03166020820152600882018054604090920191611a30906142e0565b80601f0160208091040260200160405190810160405280929190818152602001828054611a5c906142e0565b8015611aa95780601f10611a7e57610100808354040283529160200191611aa9565b820191906000526020600020905b815481529060010190602001808311611a8c57829003601f168201915b50505050508152602001600982018054611ac2906142e0565b80601f0160208091040260200160405190810160405280929190818152602001828054611aee906142e0565b8015611b3b5780601f10611b1057610100808354040283529160200191611b3b565b820191906000526020600020905b815481529060010190602001808311611b1e57829003601f168201915b50505050508152602001600a8201548152602001600b82018054611b5e906142e0565b80601f0160208091040260200160405190810160405280929190818152602001828054611b8a906142e0565b8015611bd75780601f10611bac57610100808354040283529160200191611bd7565b820191906000526020600020905b815481529060010190602001808311611bba57829003601f168201915b50505050508152602001600c82018054611bf0906142e0565b80601f0160208091040260200160405190810160405280929190818152602001828054611c1c906142e0565b8015611c695780601f10611c3e57610100808354040283529160200191611c69565b820191906000526020600020905b815481529060010190602001808311611c4c57829003601f168201915b5050509183525050600d8201546001600160a01b03166020820152600e9091015460409091015292915050565b6005546001600160a01b03163314611cc157604051636f5ba97360e01b815260040160405180910390fd5b600554600160a01b900460ff16611ceb57604051630f68fe6360e21b815260040160405180910390fd5b6001600160a01b0380821660009081526003602052604090208054909116611d2657604051634381b6c160e11b815260040160405180910390fd5b60038101548015611daf576000600383018190556005546040516001600160a01b039091169083908381818185875af1925050503d8060008114611d86576040519150601f19603f3d011682016040523d82523d6000602084013e611d8b565b606091505b5050905080611dad57604051631fa55c0760e11b815260040160405180910390fd5b505b60058201546001600160a01b031615801590611dce5750600682015415155b15611f4c57600082600601805480602002602001604051908101604052809291908181526020018280548015611e2357602002820191906000526020600020905b815481526020019060010190808311611e0f575b5093945060009350611e3492505050565b604051908082528060200260200182016040528015611e5d578160200160208202803683370190505b508051611e74916006860191602090910190613c92565b506005830180546001600160a01b031916905560005b8151811015611f495760015460055483516001600160a01b03928316926323b872dd923092911690869086908110611ec457611ec46144ab565b60209081029190910101516040516001600160e01b031960e086901b1681526001600160a01b0393841660048201529290911660248301526044820152606401600060405180830381600087803b158015611f1e57600080fd5b505af1158015611f32573d6000803e3d6000fd5b505050508080611f41906144c1565b915050611e8a565b50505b6040516001600160a01b038416907fc0c6efb1c6f315e6721ba44dc1a435e4ca9a730d45f3caf4a67c43b22ca008a290600090a2505050565b6001600160a01b03818116600090815260036020818152604080842081516102008101835281548088168252600160a01b900460ff16151581850152600182015481840152600282015460608201529381015460808501526004810154861660a0850152600581015490951660c084015260068501805482518185028101850190935280835294958695909360e086019392919083018282801561204857602002820191906000526020600020905b815481526020019060010190808311612034575b505050918352505060078201546001600160a01b03166020820152600882018054604090920191612078906142e0565b80601f01602080910402602001604051908101604052809291908181526020018280546120a4906142e0565b80156120f15780601f106120c6576101008083540402835291602001916120f1565b820191906000526020600020905b8154815290600101906020018083116120d457829003601f168201915b5050505050815260200160098201805461210a906142e0565b80601f0160208091040260200160405190810160405280929190818152602001828054612136906142e0565b80156121835780601f1061215857610100808354040283529160200191612183565b820191906000526020600020905b81548152906001019060200180831161216657829003601f168201915b50505050508152602001600a8201548152602001600b820180546121a6906142e0565b80601f01602080910402602001604051908101604052809291908181526020018280546121d2906142e0565b801561221f5780601f106121f45761010080835404028352916020019161221f565b820191906000526020600020905b81548152906001019060200180831161220257829003601f168201915b50505050508152602001600c82018054612238906142e0565b80601f0160208091040260200160405190810160405280929190818152602001828054612264906142e0565b80156122b15780601f10612286576101008083540402835291602001916122b1565b820191906000526020600020905b81548152906001019060200180831161229457829003601f168201915b5050509183525050600d8201546001600160a01b039081166020830152600e909201546040909101528151919250166122ed5750600092915050565b6060810151156123005750600092915050565b612309816138ed565b156123175750600092915050565b50600192915050565b61232861313b565b6001600160a01b03811661234f5760405163538ba4f960e01b815260040160405180910390fd5b600180546001600160a01b038381166001600160a01b0319831681179093556040519116919082907fab9636faa03b42a52a353eb86f070f1ac15b69f0bc419fba63d07b5d996edad790600090a35050565b7ff0c57e16840df040f15088dc2f81fe391c3923bec73e23a9662efc9c229c6a008054600160401b810460ff1615906001600160401b03166000811580156123e65750825b90506000826001600160401b031660011480156124025750303b155b905081158015612410575080155b1561242e5760405163f92ee8a960e01b815260040160405180910390fd5b845467ffffffffffffffff19166001178555831561245857845460ff60401b1916600160401b1785555b612460613bcd565b61246933613bdd565b6001600160a01b0388166124905760405163538ba4f960e01b815260040160405180910390fd5b6001600160a01b0387166124b75760405163538ba4f960e01b815260040160405180910390fd5b6001600160a01b0386166124de5760405163538ba4f960e01b815260040160405180910390fd5b600080546001600160a01b03808b166001600160a01b031992831617909255600180548a84169083161790556002805492891692909116919091179055831561256157845460ff60401b19168555604051600181527fc7f505b2f371ae2175ee4913f4499e1f2633a7b5936321eed1cdaeb6115181d29060200160405180910390a15b5050505050505050565b6004546001600160a01b0316331461259657604051631a4273c160e01b815260040160405180910390fd5b600554600160a01b900460ff166125c057604051630f68fe6360e21b815260040160405180910390fd5b6001600160a01b0382166000908152600360205260409020600281015482146125fc5760405163286976e760e21b815260040160405180910390fd5b60006002820181905560405183916001600160a01b038616917fec0516e78db51665510a6ab319cb07cbb5b1e66d1de10f9abd1994eaaa555b309190a3505050565b61264661313b565b600554600160a01b900460ff16156126715760405163439a74c960e01b815260040160405180910390fd5b6001600160a01b0382166126985760405163538ba4f960e01b815260040160405180910390fd5b6001600160a01b0381166126bf5760405163538ba4f960e01b815260040160405180910390fd5b600480546001600160a01b038085166001600160a01b03199092168217909255600580546001600160a81b03191684841617600160a01b17908190556040519216917f255c9edca3ea4cd6ff3c64c4cd7a5f812c6ae0ca0ae939f85e9e3eb49cdb416f90600090a35050565b6004546001600160a01b0316331461275657604051631a4273c160e01b815260040160405180910390fd5b600554600160a01b900460ff1661278057604051630f68fe6360e21b815260040160405180910390fd5b6001600160a01b03808216600090815260036020526040902080549091166127bb57604051634381b6c160e11b815260040160405180910390fd5b60028101546127dd5760405163650925bd60e11b815260040160405180910390fd5b42600e8201556040516001600160a01b038316907fb5c433aa54e775c63ae22f75b359af0e25c57eddd9bb55eb71445b74b523bfa890600090a25050565b33600090815260036020526040902080546001600160a01b031661285257604051634381b6c160e11b815260040160405180910390fd5b61285b33611f85565b6128785760405163f74c564d60e01b815260040160405180910390fd5b6000612883336128f1565b90506000348360030154612897919061428c565b6003840181905590506128aa818361367d565b82546040805160008082526020820192839052926001600160a01b03169160008051602061496f833981519152916128e4913491906144da565b60405180910390a3505050565b6001600160a01b038116600090815260036020526040812081805b6006830154811015612a58576002546006840180546000926001600160a01b03169163d5ec2d839185908110612944576129446144ab565b90600052602060002001546040518263ffffffff1660e01b815260040161296d91815260200190565b600060405180830381865afa15801561298a573d6000803e3d6000fd5b505050506040513d6000823e601f3d908101601f191682016040526129b291908101906146cc565b91505060005b816060015151811015612a4357600080612a01846060015184815181106129e1576129e16144ab565b6020026020010151602001516001600160401b03166402540be400613bee565b9150915081612a225760405162461bcd60e51b81526004016107f6906148a8565b612a2c818761428c565b955050508080612a3b906144c1565b9150506129b8565b50508080612a50906144c1565b91505061290c565b509392505050565b6001600160a01b0381166000908152600360205260408120600a81015415801590612a8f57504281600a015411155b15612a9d5750600092915050565b8054600090612ab4906001600160a01b031661091e565b600054604080516332c70ad760e21b815290519293506001600160a01b0390911691636dd5b69d91839163cb1c2b5c916004808201926020929091908290030181865afa158015612b09573d6000803e3d6000fd5b505050506040513d601f19601f82011682018060405250810190612b2d919061425d565b6040518263ffffffff1660e01b8152600401612b4b91815260200190565b602060405180830381865afa158015612b68573d6000803e3d6000fd5b505050506040513d601f19601f82011682018060405250810190612b8c919061425d565b811015612b9d575060009392505050565b604080516102008101825283546001600160a01b038082168352600160a01b90910460ff16151560208084019190915260018601548385015260028601546060840152600386015460808401526004860154821660a0840152600586015490911660c0830152600685018054845181840281018401909552808552612eea94879360e0860193919290830182828015612c5557602002820191906000526020600020905b815481526020019060010190808311612c41575b505050918352505060078201546001600160a01b03166020820152600882018054604090920191612c85906142e0565b80601f0160208091040260200160405190810160405280929190818152602001828054612cb1906142e0565b8015612cfe5780601f10612cd357610100808354040283529160200191612cfe565b820191906000526020600020905b815481529060010190602001808311612ce157829003601f168201915b50505050508152602001600982018054612d17906142e0565b80601f0160208091040260200160405190810160405280929190818152602001828054612d43906142e0565b8015612d905780601f10612d6557610100808354040283529160200191612d90565b820191906000526020600020905b815481529060010190602001808311612d7357829003601f168201915b50505050508152602001600a8201548152602001600b82018054612db3906142e0565b80601f0160208091040260200160405190810160405280929190818152602001828054612ddf906142e0565b8015612e2c5780601f10612e0157610100808354040283529160200191612e2c565b820191906000526020600020905b815481529060010190602001808311612e0f57829003601f168201915b50505050508152602001600c82018054612e45906142e0565b80601f0160208091040260200160405190810160405280929190818152602001828054612e71906142e0565b8015612ebe5780601f10612e9357610100808354040283529160200191612ebe565b820191906000526020600020905b815481529060010190602001808311612ea157829003601f168201915b5050509183525050600d8201546001600160a01b03166020820152600e909101546040909101526138ed565b15612ef9575060009392505050565b600282015415612f0d575060009392505050565b8154600160a01b900460ff1615612f28575060009392505050565b5060019392505050565b612f3a61313b565b6001600160a01b038116612f6457604051631e4fbdf760e01b8152600060048201526024016107f6565b612f6d81613b5c565b50565b612f7861399d565b612f868686868686866139e9565b6000879003612fa857604051630b72e1b360e21b815260040160405180910390fd5b33600090815260036020526040902080546001600160a01b031615612fe057604051630b30b38360e41b815260040160405180910390fd5b8054336001600160a01b031991821681178355600783018054831682179055600d83018054909216179055600c810161301a87898361437f565b50600b810161302a85878361437f565b506009810161303a87898361437f565b506008810161304a85878361437f565b5060018101839055600a810182905560006130658a8a613196565b9050613072828b8b613446565b61308082600301548261367d565b61308982613881565b6001546040516001600160a01b0390911690339060008051602061496f833981519152906130bc9085908f908f9061429f565b60405180910390a36007820154600d8301546040516001600160a01b039283169233927f1ab9d0508879cf64270650fc89b30617972d694fd1053946f028860daf125c7c9261311a92909116908d908d908d908d908d908d906148ca565b60405180910390a35050612561600160008051602061498f83398151915255565b3361316d7f9016d09d72d40fdae2fd8ceac6b6234c7706214fd39c1cd1e609a0528c199300546001600160a01b031690565b6001600160a01b0316146113025760405163118cdaa760e01b81523360048201526024016107f6565b600080806402540be400815b858110156132de576002546000906001600160a01b031663d5ec2d838989858181106131d0576131d06144ab565b905060200201356040518263ffffffff1660e01b81526004016131f591815260200190565b600060405180830381865afa158015613212573d6000803e3d6000fd5b505050506040513d6000823e601f3d908101601f1916820160405261323a91908101906146cc565b91505060005b8160600151518110156132c95781606001518181518110613263576132636144ab565b6020026020010151602001516001600160401b031694506000806132878787613bee565b91509150816132a85760405162461bcd60e51b81526004016107f6906148a8565b6132b2818961428c565b9750505080806132c1906144c1565b915050613240565b505080806132d6906144c1565b9150506131a2565b50336000908152600360205260408120905b600682015481101561343a576002546006830180546000926001600160a01b03169163d5ec2d839185908110613328576133286144ab565b90600052602060002001546040518263ffffffff1660e01b815260040161335191815260200190565b600060405180830381865afa15801561336e573d6000803e3d6000fd5b505050506040513d6000823e601f3d908101601f1916820160405261339691908101906146cc565b91505060005b81606001515181101561342557816060015181815181106133bf576133bf6144ab565b6020026020010151602001516001600160401b031695506000806133e38888613bee565b91509150816134045760405162461bcd60e51b81526004016107f6906148a8565b61340e818a61428c565b98505050808061341d906144c1565b91505061339c565b50508080613432906144c1565b9150506132f0565b50929695505050505050565b60015460405163e985e9c560e01b81523360048201523060248201526000916001600160a01b03169063e985e9c590604401602060405180830381865afa158015613495573d6000803e3d6000fd5b505050506040513d601f19601f820116820180604052508101906134b99190614919565b905060005b8281101561367657816135985760015430906001600160a01b031663081812fc8686858181106134f0576134f06144ab565b905060200201356040518263ffffffff1660e01b815260040161351591815260200190565b602060405180830381865afa158015613532573d6000803e3d6000fd5b505050506040513d601f19601f82011682018060405250810190613556919061493b565b6001600160a01b0316146135985760405162461bcd60e51b81526020600482015260096024820152684e6f417070726f766560b81b60448201526064016107f6565b6001546001600160a01b03166323b872dd33308787868181106135bd576135bd6144ab565b6040516001600160e01b031960e088901b1681526001600160a01b03958616600482015294909316602485015250602090910201356044820152606401600060405180830381600087803b15801561361457600080fd5b505af1158015613628573d6000803e3d6000fd5b5050505084600601848483818110613642576136426144ab565b835460018101855560009485526020948590209190940292909201359190920155508061366e816144c1565b9150506134be565b5050505050565b6000613689828461428c565b60008054604080516332c70ad760e21b8152905193945091926001600160a01b0390911691636dd5b69d91839163cb1c2b5c9160048083019260209291908290030181865afa1580156136e0573d6000803e3d6000fd5b505050506040513d601f19601f82011682018060405250810190613704919061425d565b6040518263ffffffff1660e01b815260040161372291815260200190565b602060405180830381865afa15801561373f573d6000803e3d6000fd5b505050506040513d601f19601f82011682018060405250810190613763919061425d565b600080546040805163c98517c560e01b8152905193945091926001600160a01b0390911691636dd5b69d91839163c98517c59160048083019260209291908290030181865afa1580156137ba573d6000803e3d6000fd5b505050506040513d601f19601f820116820180604052508101906137de919061425d565b6040518263ffffffff1660e01b81526004016137fc91815260200190565b602060405180830381865afa158015613819573d6000803e3d6000fd5b505050506040513d601f19601f8201168201806040525081019061383d919061425d565b9050818310156138605760405163379e1d0760e01b815260040160405180910390fd5b80831115613676576040516339ff922560e11b815260040160405180910390fd5b60058101546001600160a01b03166138ba576001546005820180546001600160a01b0319166001600160a01b0390921691909117905550565b60015460058201546001600160a01b03908116911614612f6d576040516312372a3960e01b815260040160405180910390fd5b6000805460408051632f672f1960e11b8152905183926001600160a01b031691635ece5e329160048083019260209291908290030181865afa158015613937573d6000803e3d6000fd5b505050506040513d601f19601f8201168201806040525081019061395b919061425d565b9050826101e001516000036139735750600092915050565b4281846101e00151613985919061428c565b11156139945750600192915050565b50600092915050565b60008051602061498f8339815191528054600119016139cf57604051633ee5aeb560e01b815260040160405180910390fd5b60029055565b600160008051602061498f83398151915255565b6000859003613a0b57604051632627b42d60e11b815260040160405180910390fd5b6000839003613a2d57604051632627b42d60e11b815260040160405180910390fd5b60008054604080516325ba6ce560e11b815290516001600160a01b0390921691636dd5b69d918391634b74d9ca916004808201926020929091908290030181865afa158015613a80573d6000803e3d6000fd5b505050506040513d601f19601f82011682018060405250810190613aa4919061425d565b6040518263ffffffff1660e01b8152600401613ac291815260200190565b602060405180830381865afa158015613adf573d6000803e3d6000fd5b505050506040513d601f19601f82011682018060405250810190613b03919061425d565b905080831015613b2657604051634560802960e01b815260040160405180910390fd5b8115801590613b355750428211155b15613b5357604051632c5af88760e21b815260040160405180910390fd5b50505050505050565b7f9016d09d72d40fdae2fd8ceac6b6234c7706214fd39c1cd1e609a0528c19930080546001600160a01b031981166001600160a01b03848116918217845560405192169182907f8be0079c531659141344cd1fd0a4f28419497f9722a3daafe3b4186f6b6457e090600090a3505050565b613bd5613c39565b611302613c82565b613be5613c39565b612f6d81613c8a565b60008083600003613c055750600190506000613c32565b83830283858281613c1857613c18614958565b0414613c2b576000809250925050613c32565b6001925090505b9250929050565b7ff0c57e16840df040f15088dc2f81fe391c3923bec73e23a9662efc9c229c6a0054600160401b900460ff1661130257604051631afcd79f60e31b815260040160405180910390fd5b6139d5613c39565b612f3a613c39565b828054828255906000526020600020908101928215613ccd579160200282015b82811115613ccd578251825591602001919060010190613cb2565b50613cd9929150613cdd565b5090565b5b80821115613cd95760008155600101613cde565b600060208284031215613d0457600080fd5b5035919050565b6001600160a01b0381168114612f6d57600080fd5b600060208284031215613d3257600080fd5b8135610dcb81613d0b565b60008083601f840112613d4f57600080fd5b5081356001600160401b03811115613d6657600080fd5b6020830191508360208260051b8501011115613c3257600080fd5b60008060208385031215613d9457600080fd5b82356001600160401b03811115613daa57600080fd5b613db685828601613d3d565b90969095509350505050565b60008083601f840112613dd457600080fd5b5081356001600160401b03811115613deb57600080fd5b602083019150836020828501011115613c3257600080fd5b600080600080600060608688031215613e1b57600080fd5b8535613e2681613d0b565b945060208601356001600160401b0380821115613e4257600080fd5b613e4e89838a01613dc2565b90965094506040880135915080821115613e6757600080fd5b50613e7488828901613dc2565b969995985093965092949392505050565b60008060408385031215613e9857600080fd5b8235613ea381613d0b565b946020939093013593505050565b60008060008060008060808789031215613eca57600080fd5b86356001600160401b0380821115613ee157600080fd5b613eed8a838b01613dc2565b90985096506020890135915080821115613f0657600080fd5b50613f1389828a01613dc2565b979a9699509760408101359660609091013595509350505050565b60008060408385031215613f4157600080fd5b8235613f4c81613d0b565b91506020830135613f5c81613d0b565b809150509250929050565b600081518084526020808501945080840160005b83811015613f9757815187529582019590820190600101613f7b565b509495945050505050565b60005b83811015613fbd578181015183820152602001613fa5565b50506000910152565b60008151808452613fde816020860160208601613fa2565b601f01601f19169290920160200192915050565b6020815261400c6020820183516001600160a01b03169052565b60006020830151614021604084018215159052565b506040830151606083015260608301516080830152608083015160a083015260a083015161405a60c08401826001600160a01b03169052565b5060c08301516001600160a01b03811660e08401525060e0830151610200610100818186015261408e610220860184613f67565b908601519092506101206140ac868201836001600160a01b03169052565b80870151915050601f196101408187860301818801526140cc8584613fc6565b9450808801519250506101608187860301818801526140eb8584613fc6565b9450808801519250506101808281880152808801519250506101a08187860301818801526141198584613fc6565b9450808801519250506101c08187860301818801526141388584613fc6565b945080880151925050506101e0614159818701836001600160a01b03169052565b959095015193019290925250919050565b60008060006060848603121561417f57600080fd5b833561418a81613d0b565b9250602084013561419a81613d0b565b915060408401356141aa81613d0b565b809150509250925092565b60008060008060008060008060a0898b0312156141d157600080fd5b88356001600160401b03808211156141e857600080fd5b6141f48c838d01613d3d565b909a50985060208b013591508082111561420d57600080fd5b6142198c838d01613dc2565b909850965060408b013591508082111561423257600080fd5b5061423f8b828c01613dc2565b999c989b509699959896976060870135966080013595509350505050565b60006020828403121561426f57600080fd5b5051919050565b634e487b7160e01b600052601160045260246000fd5b808201808211156114b9576114b9614276565b838152604060208201819052810182905260006001600160fb1b038311156142c657600080fd5b8260051b8085606085013791909101606001949350505050565b600181811c908216806142f457607f821691505b60208210810361431457634e487b7160e01b600052602260045260246000fd5b50919050565b634e487b7160e01b600052604160045260246000fd5b601f82111561437a57600081815260208120601f850160051c810160208610156143575750805b601f850160051c820191505b8181101561437657828155600101614363565b5050505b505050565b6001600160401b038311156143965761439661431a565b6143aa836143a483546142e0565b83614330565b6000601f8411600181146143de57600085156143c65750838201355b600019600387901b1c1916600186901b178355613676565b600083815260209020601f19861690835b8281101561440f57868501358255602094850194600190920191016143ef565b508682101561442c5760001960f88860031b161c19848701351681555b505060018560011b0183555050505050565b81835281816020850137506000828201602090810191909152601f909101601f19169091010190565b6001600160a01b038616815260606020820181905260009061448c908301868861443e565b828103604084015261449f81858761443e565b98975050505050505050565b634e487b7160e01b600052603260045260246000fd5b6000600182016144d3576144d3614276565b5060010190565b6000604082018483526020604081850152818551808452606086019150828701935060005b8181101561451b578451835293830193918301916001016144ff565b5090979650505050505050565b60008154614535816142e0565b808552602060018381168015614552576001811461456c5761459a565b60ff1985168884015283151560051b88018301955061459a565b866000528260002060005b858110156145925781548a8201860152908301908401614577565b890184019650505b505050505092915050565b6001600160a01b038616815260a0602082018190526000906145c990830187614528565b82810360408401526145db8187614528565b60608401959095525050608001529392505050565b60408152600061460460408301868861443e565b828103602084015261461781858761443e565b979650505050505050565b604051608081016001600160401b03811182821017156146445761464461431a565b60405290565b604051606081016001600160401b03811182821017156146445761464461431a565b604051601f8201601f191681016001600160401b03811182821017156146945761469461431a565b604052919050565b805163ffffffff811681146146b057600080fd5b919050565b80516001600160401b03811681146146b057600080fd5b600080604083850312156146df57600080fd5b8251915060208301516001600160401b03808211156146fd57600080fd5b908401906080828703121561471157600080fd5b614719614622565b825181526147296020840161469c565b6020820152604083015160ff8116811461474257600080fd5b604082015260608301518281111561475957600080fd5b80840193505086601f84011261476e57600080fd5b8251828111156147805761478061431a565b61478f60208260051b0161466c565b8082825260208201915060208360051b8701019250898311156147b157600080fd5b602086015b83811015614894578051868111156147cd57600080fd5b8701601f196060828e03820112156147e457600080fd5b6147ec61464a565b6020830151898111156147fe57600080fd5b8301603f81018f1361480f57600080fd5b60208101518a8111156148245761482461431a565b614835602085601f8401160161466c565b93508084528f604082840101111561484c57600080fd5b61485d816020860160408501613fa2565b505081815261486e604084016146b5565b602082015261487f6060840161469c565b604082015285525050602092830192016147b6565b506060840152509497909650945050505050565b6020808252600890820152674f766572666c6f7760c01b604082015260600190565b6001600160a01b038816815260a0602082018190526000906148ef908301888a61443e565b828103604084015261490281878961443e565b606084019590955250506080015295945050505050565b60006020828403121561492b57600080fd5b81518015158114610dcb57600080fd5b60006020828403121561494d57600080fd5b8151610dcb81613d0b565b634e487b7160e01b600052601260045260246000fdfe03666b063f075e29b3926eb82a4d1f7746231db3395483f453e477b56531038e9b779b17422d0df92223018b32b4d1fa46e071723d6817e2486d003becc55f00a2646970667358221220c642514509d7dc663542b62da8f1e6c43f375cdc8482801394fa73fddffe588a64736f6c63430008140033",
  "linkReferences": {},
  "deployedLinkReferences": {}
}