{
  "_format": "hh-sol-artifact-1",
  "contractName": "ArbitratorManager",
  "sourceName": "contracts/core/ArbitratorManager.sol",
  "abi": [
    {
      "inputs": [
        {
          "internalType": "address",
          "name": "_configManager",
          "type": "address"
        },
        {
          "internalType": "address",
          "name": "initialOwner",
          "type": "address"
        },
        {
          "internalType": "address",
          "name": "_nftContract",
          "type": "address"
        },
        {
          "internalType": "address",
          "name": "_nftInfo",
          "type": "address"
        }
      ],
      "stateMutability": "nonpayable",
      "type": "constructor"
    },
    {
      "inputs": [],
      "name": "ALREADY_INITIALIZED",
      "type": "error"
    },
    {
      "inputs": [],
      "name": "ARBITRATOR_ALREADY_WORKING",
      "type": "error"
    },
    {
      "inputs": [],
      "name": "ARBITRATOR_NOT_ACTIVE",
      "type": "error"
    },
    {
      "inputs": [],
      "name": "ARBITRATOR_NOT_REGISTERED",
      "type": "error"
    },
    {
      "inputs": [],
      "name": "ARBITRATOR_NOT_WORKING",
      "type": "error"
    },
    {
      "inputs": [],
      "name": "EMPTY_TOKEN_IDS",
      "type": "error"
    },
    {
      "inputs": [],
      "name": "INSUFFICIENT_STAKE",
      "type": "error"
    },
    {
      "inputs": [],
      "name": "INVALID_NFT_CONTRACT",
      "type": "error"
    },
    {
      "inputs": [],
      "name": "INVALID_TRANSACTION_ID",
      "type": "error"
    },
    {
      "inputs": [],
      "name": "NOT_COMPENSATION_MANAGER",
      "type": "error"
    },
    {
      "inputs": [],
      "name": "NOT_INITIALIZED",
      "type": "error"
    },
    {
      "inputs": [],
      "name": "NOT_TRANSACTION_MANAGER",
      "type": "error"
    },
    {
      "inputs": [
        {
          "internalType": "address",
          "name": "owner",
          "type": "address"
        }
      ],
      "name": "OwnableInvalidOwner",
      "type": "error"
    },
    {
      "inputs": [
        {
          "internalType": "address",
          "name": "account",
          "type": "address"
        }
      ],
      "name": "OwnableUnauthorizedAccount",
      "type": "error"
    },
    {
      "inputs": [],
      "name": "ReentrancyGuardReentrantCall",
      "type": "error"
    },
    {
      "inputs": [],
      "name": "STAKE_EXCEEDS_MAX",
      "type": "error"
    },
    {
      "inputs": [],
      "name": "TRANSFER_FAILED",
      "type": "error"
    },
    {
      "inputs": [],
      "name": "ZERO_ADDRESS",
      "type": "error"
    },
    {
      "anonymous": false,
      "inputs": [
        {
          "indexed": true,
          "internalType": "address",
          "name": "arbitrator",
          "type": "address"
        },
        {
          "indexed": false,
          "internalType": "uint256",
          "name": "feeRate",
          "type": "uint256"
        },
        {
          "indexed": false,
          "internalType": "uint256",
          "name": "deadline",
          "type": "uint256"
        }
      ],
      "name": "ArbitratorParamsSet",
      "type": "event"
    },
    {
      "anonymous": false,
      "inputs": [
        {
          "indexed": true,
          "internalType": "address",
          "name": "arbitrator",
          "type": "address"
        }
      ],
      "name": "ArbitratorPaused",
      "type": "event"
    },
    {
      "anonymous": false,
      "inputs": [
        {
          "indexed": true,
          "internalType": "address",
          "name": "arbitrator",
          "type": "address"
        },
        {
          "indexed": false,
          "internalType": "enum DataTypes.ArbitratorStatus",
          "name": "status",
          "type": "uint8"
        }
      ],
      "name": "ArbitratorStatusChanged",
      "type": "event"
    },
    {
      "anonymous": false,
      "inputs": [
        {
          "indexed": true,
          "internalType": "address",
          "name": "arbitrator",
          "type": "address"
        }
      ],
      "name": "ArbitratorUnpaused",
      "type": "event"
    },
    {
      "anonymous": false,
      "inputs": [
        {
          "indexed": true,
          "internalType": "address",
          "name": "transactionManager",
          "type": "address"
        },
        {
          "indexed": true,
          "internalType": "address",
          "name": "compensationManager",
          "type": "address"
        }
      ],
      "name": "Initialized",
      "type": "event"
    },
    {
      "anonymous": false,
      "inputs": [
        {
          "indexed": true,
          "internalType": "address",
          "name": "arbitrator",
          "type": "address"
        },
        {
          "indexed": true,
          "internalType": "address",
          "name": "operator",
          "type": "address"
        },
        {
          "indexed": false,
          "internalType": "bytes",
          "name": "btcPubKey",
          "type": "bytes"
        },
        {
          "indexed": false,
          "internalType": "string",
          "name": "btcAddress",
          "type": "string"
        }
      ],
      "name": "OperatorSet",
      "type": "event"
    },
    {
      "anonymous": false,
      "inputs": [
        {
          "indexed": true,
          "internalType": "address",
          "name": "previousOwner",
          "type": "address"
        },
        {
          "indexed": true,
          "internalType": "address",
          "name": "newOwner",
          "type": "address"
        }
      ],
      "name": "OwnershipTransferred",
      "type": "event"
    },
    {
      "anonymous": false,
      "inputs": [
        {
          "indexed": true,
          "internalType": "address",
          "name": "arbitrator",
          "type": "address"
        },
        {
          "indexed": false,
          "internalType": "address",
          "name": "ethAddress",
          "type": "address"
        },
        {
          "indexed": false,
          "internalType": "bytes",
          "name": "btcPubKey",
          "type": "bytes"
        },
        {
          "indexed": false,
          "internalType": "string",
          "name": "btcAddress",
          "type": "string"
        }
      ],
      "name": "RevenueAddressesSet",
      "type": "event"
    },
    {
      "anonymous": false,
      "inputs": [
        {
          "indexed": true,
          "internalType": "address",
          "name": "arbitrator",
          "type": "address"
        },
        {
          "indexed": true,
          "internalType": "address",
          "name": "assetAddress",
          "type": "address"
        },
        {
          "indexed": false,
          "internalType": "uint256",
          "name": "amount",
          "type": "uint256"
        }
      ],
      "name": "StakeAdded",
      "type": "event"
    },
    {
      "anonymous": false,
      "inputs": [
        {
          "indexed": true,
          "internalType": "address",
          "name": "arbitrator",
          "type": "address"
        },
        {
          "indexed": true,
          "internalType": "address",
          "name": "assetAddress",
          "type": "address"
        },
        {
          "indexed": false,
          "internalType": "uint256",
          "name": "amount",
          "type": "uint256"
        }
      ],
      "name": "StakeWithdrawn",
      "type": "event"
    },
    {
      "inputs": [
        {
          "internalType": "address",
          "name": "arbitrator",
          "type": "address"
        }
      ],
      "name": "canUnstake",
      "outputs": [
        {
          "internalType": "bool",
          "name": "",
          "type": "bool"
        }
      ],
      "stateMutability": "view",
      "type": "function"
    },
    {
      "inputs": [],
      "name": "compensationManager",
      "outputs": [
        {
          "internalType": "address",
          "name": "",
          "type": "address"
        }
      ],
      "stateMutability": "view",
      "type": "function"
    },
    {
      "inputs": [
        {
          "internalType": "address",
          "name": "arbitratorAddress",
          "type": "address"
        }
      ],
      "name": "getArbitratorInfo",
      "outputs": [
        {
          "components": [
            {
              "internalType": "address",
              "name": "arbitrator",
              "type": "address"
            },
            {
              "internalType": "uint256",
              "name": "currentFeeRate",
              "type": "uint256"
            },
            {
              "internalType": "uint256",
              "name": "pendingFeeRate",
              "type": "uint256"
            },
            {
              "internalType": "enum DataTypes.ArbitratorStatus",
              "name": "status",
              "type": "uint8"
            },
            {
              "internalType": "bytes32",
              "name": "activeTransactionId",
              "type": "bytes32"
            },
            {
              "internalType": "uint256",
              "name": "ethAmount",
              "type": "uint256"
            },
            {
              "internalType": "address",
              "name": "erc20Token",
              "type": "address"
            },
            {
              "internalType": "address",
              "name": "nftContract",
              "type": "address"
            },
            {
              "internalType": "uint256[]",
              "name": "nftTokenIds",
              "type": "uint256[]"
            },
            {
              "internalType": "address",
              "name": "operator",
              "type": "address"
            },
            {
              "internalType": "bytes",
              "name": "operatorBtcPubKey",
              "type": "bytes"
            },
            {
              "internalType": "string",
              "name": "operatorBtcAddress",
              "type": "string"
            },
            {
              "internalType": "uint256",
              "name": "lastArbitrationTime",
              "type": "uint256"
            },
            {
              "internalType": "bytes",
              "name": "revenueBtcPubKey",
              "type": "bytes"
            },
            {
              "internalType": "string",
              "name": "revenueBtcAddress",
              "type": "string"
            },
            {
              "internalType": "address",
              "name": "revenueETHAddress",
              "type": "address"
            }
          ],
          "internalType": "struct DataTypes.ArbitratorInfo",
          "name": "",
          "type": "tuple"
        }
      ],
      "stateMutability": "view",
      "type": "function"
    },
    {
      "inputs": [
        {
          "internalType": "address",
          "name": "arbitrator",
          "type": "address"
        }
      ],
      "name": "getAvailableStake",
      "outputs": [
        {
          "internalType": "uint256",
          "name": "",
          "type": "uint256"
        }
      ],
      "stateMutability": "view",
      "type": "function"
    },
    {
      "inputs": [
        {
          "internalType": "address",
          "name": "arbitrator",
          "type": "address"
        }
      ],
      "name": "getTotalNFTStakeValue",
      "outputs": [
        {
          "internalType": "uint256",
          "name": "",
          "type": "uint256"
        }
      ],
      "stateMutability": "view",
      "type": "function"
    },
    {
      "inputs": [
        {
          "internalType": "address",
          "name": "_transactionManager",
          "type": "address"
        },
        {
          "internalType": "address",
          "name": "_compensationManager",
          "type": "address"
        }
      ],
      "name": "initialize",
      "outputs": [],
      "stateMutability": "nonpayable",
      "type": "function"
    },
    {
      "inputs": [
        {
          "internalType": "address",
          "name": "arbitratorAddress",
          "type": "address"
        }
      ],
      "name": "isActiveArbitrator",
      "outputs": [
        {
          "internalType": "bool",
          "name": "",
          "type": "bool"
        }
      ],
      "stateMutability": "view",
      "type": "function"
    },
    {
      "inputs": [
        {
          "internalType": "address",
          "name": "arbitrator",
          "type": "address"
        },
        {
          "internalType": "address",
          "name": "operator",
          "type": "address"
        }
      ],
      "name": "isOperatorOf",
      "outputs": [
        {
          "internalType": "bool",
          "name": "",
          "type": "bool"
        }
      ],
      "stateMutability": "view",
      "type": "function"
    },
    {
      "inputs": [
        {
          "internalType": "address",
          "name": "arbitrator",
          "type": "address"
        }
      ],
      "name": "isPaused",
      "outputs": [
        {
          "internalType": "bool",
          "name": "",
          "type": "bool"
        }
      ],
      "stateMutability": "view",
      "type": "function"
    },
    {
      "inputs": [],
      "name": "nftContract",
      "outputs": [
        {
          "internalType": "contract IERC721",
          "name": "",
          "type": "address"
        }
      ],
      "stateMutability": "view",
      "type": "function"
    },
    {
      "inputs": [],
      "name": "nftInfo",
      "outputs": [
        {
          "internalType": "contract IBNFTInfo",
          "name": "",
          "type": "address"
        }
      ],
      "stateMutability": "view",
      "type": "function"
    },
    {
      "inputs": [],
      "name": "owner",
      "outputs": [
        {
          "internalType": "address",
          "name": "",
          "type": "address"
        }
      ],
      "stateMutability": "view",
      "type": "function"
    },
    {
      "inputs": [],
      "name": "pause",
      "outputs": [],
      "stateMutability": "nonpayable",
      "type": "function"
    },
    {
      "inputs": [
        {
          "internalType": "address",
          "name": "arbitrator",
          "type": "address"
        },
        {
          "internalType": "bytes32",
          "name": "transactionId",
          "type": "bytes32"
        }
      ],
      "name": "releaseArbitrator",
      "outputs": [],
      "stateMutability": "nonpayable",
      "type": "function"
    },
    {
      "inputs": [],
      "name": "renounceOwnership",
      "outputs": [],
      "stateMutability": "nonpayable",
      "type": "function"
    },
    {
      "inputs": [
        {
          "internalType": "uint256",
          "name": "feeRate",
          "type": "uint256"
        },
        {
          "internalType": "uint256",
          "name": "deadline",
          "type": "uint256"
        }
      ],
      "name": "setArbitratorParams",
      "outputs": [],
      "stateMutability": "nonpayable",
      "type": "function"
    },
    {
      "inputs": [
        {
          "internalType": "address",
          "name": "arbitrator",
          "type": "address"
        },
        {
          "internalType": "bytes32",
          "name": "transactionId",
          "type": "bytes32"
        }
      ],
      "name": "setArbitratorWorking",
      "outputs": [],
      "stateMutability": "nonpayable",
      "type": "function"
    },
    {
      "inputs": [
        {
          "internalType": "address",
          "name": "operator",
          "type": "address"
        },
        {
          "internalType": "bytes",
          "name": "btcPubKey",
          "type": "bytes"
        },
        {
          "internalType": "string",
          "name": "btcAddress",
          "type": "string"
        }
      ],
      "name": "setOperator",
      "outputs": [],
      "stateMutability": "nonpayable",
      "type": "function"
    },
    {
      "inputs": [
        {
          "internalType": "address",
          "name": "ethAddress",
          "type": "address"
        },
        {
          "internalType": "bytes",
          "name": "btcPubKey",
          "type": "bytes"
        },
        {
          "internalType": "string",
          "name": "btcAddress",
          "type": "string"
        }
      ],
      "name": "setRevenueAddresses",
      "outputs": [],
      "stateMutability": "nonpayable",
      "type": "function"
    },
    {
      "inputs": [],
      "name": "stakeETH",
      "outputs": [],
      "stateMutability": "payable",
      "type": "function"
    },
    {
      "inputs": [
        {
          "internalType": "uint256[]",
          "name": "tokenIds",
          "type": "uint256[]"
        }
      ],
      "name": "stakeNFT",
      "outputs": [],
      "stateMutability": "nonpayable",
      "type": "function"
    },
    {
      "inputs": [
        {
          "internalType": "address",
          "name": "arbitrator",
          "type": "address"
        }
      ],
      "name": "terminateArbitratorWithSlash",
      "outputs": [],
      "stateMutability": "nonpayable",
      "type": "function"
    },
    {
      "inputs": [],
      "name": "transactionManager",
      "outputs": [
        {
          "internalType": "address",
          "name": "",
          "type": "address"
        }
      ],
      "stateMutability": "view",
      "type": "function"
    },
    {
      "inputs": [
        {
          "internalType": "address",
          "name": "newOwner",
          "type": "address"
        }
      ],
      "name": "transferOwnership",
      "outputs": [],
      "stateMutability": "nonpayable",
      "type": "function"
    },
    {
      "inputs": [],
      "name": "unpause",
      "outputs": [],
      "stateMutability": "nonpayable",
      "type": "function"
    },
    {
      "inputs": [],
      "name": "unstake",
      "outputs": [],
      "stateMutability": "nonpayable",
      "type": "function"
    },
    {
      "inputs": [],
      "name": "zeroAddress",
      "outputs": [
        {
          "internalType": "address",
          "name": "",
          "type": "address"
        }
      ],
      "stateMutability": "view",
      "type": "function"
    }
  ],
  "bytecode": "0x60a06040523480156200001157600080fd5b506040516200307f3803806200307f833981016040819052620000349162000195565b6001600055826001600160a01b0381166200006957604051631e4fbdf760e01b81526000600482015260240160405180910390fd5b620000748162000126565b506001600160a01b0384166200009d5760405163538ba4f960e01b815260040160405180910390fd5b6001600160a01b038216620000c55760405163538ba4f960e01b815260040160405180910390fd5b6001600160a01b038116620000ed5760405163538ba4f960e01b815260040160405180910390fd5b6001600160a01b03938416608052600280549285166001600160a01b0319938416179055600380549190941691161790915550620001f2565b600180546001600160a01b038381166001600160a01b0319831681179093556040519116919082907f8be0079c531659141344cd1fd0a4f28419497f9722a3daafe3b4186f6b6457e090600090a35050565b80516001600160a01b03811681146200019057600080fd5b919050565b60008060008060808587031215620001ac57600080fd5b620001b78562000178565b9350620001c76020860162000178565b9250620001d76040860162000178565b9150620001e76060860162000178565b905092959194509250565b608051612e246200025b600039600081816107b4015281816107e3015281816108c8015281816108f7015281816112e20152818161131101528181611e1101528181611e4001528181611f2501528181611f540152818161224b015261227a0152612e246000f3fe60806040526004361061019c5760003560e01c80636a65f2fd116100ec578063b553fe1e1161008a578063dceb986d11610064578063dceb986d146104ad578063e25268d2146104b5578063e2b4efb8146104d5578063f2fde38b146104f557600080fd5b8063b553fe1e1461044d578063cedb588b1461046d578063d56d229d1461048d57600080fd5b806385f4498b116100c657806385f4498b146103a75780638da5cb5b146103e257806399056c3c14610400578063998b2fd81461042d57600080fd5b80636a65f2fd1461035d578063715018a61461037d5780638456cb591461039257600080fd5b80632def6620116101595780633f4ba83a116101335780633f4ba83a146102e8578063485cc955146102fd5780635b14f1831461031d578063654b4e831461033d57600080fd5b80632def66201461028357806339c25e2c146102985780633b716452146102c857600080fd5b80630559b877146101a15780630930907b146101de57806314f6b190146101f3578063182c57441461022157806329a3f203146102435780632b2d37da14610263575b600080fd5b3480156101ad57600080fd5b506006546101c1906001600160a01b031681565b6040516001600160a01b0390911681526020015b60405180910390f35b3480156101ea57600080fd5b506101c1600081565b3480156101ff57600080fd5b5061021361020e36600461249c565b610515565b6040519081526020016101d5565b34801561022d57600080fd5b5061024161023c3660046124be565b610551565b005b34801561024f57600080fd5b5061024161025e36600461257c565b610ad5565b34801561026f57600080fd5b5061024161027e3660046125fd565b610b9a565b34801561028f57600080fd5b50610241610cc2565b3480156102a457600080fd5b506102b86102b3366004612627565b610f4e565b60405190151581526020016101d5565b3480156102d457600080fd5b506005546101c1906001600160a01b031681565b3480156102f457600080fd5b50610241610f78565b34801561030957600080fd5b50610241610318366004612627565b611072565b34801561032957600080fd5b506102b861033836600461249c565b61115c565b34801561034957600080fd5b5061024161035836600461257c565b611198565b34801561036957600080fd5b5061024161037836600461265a565b6112ad565b34801561038957600080fd5b506102416114fb565b34801561039e57600080fd5b5061024161150f565b3480156103b357600080fd5b506102b86103c236600461249c565b6001600160a01b0316600090815260046020819052604090912001541590565b3480156103ee57600080fd5b506001546001600160a01b03166101c1565b34801561040c57600080fd5b5061042061041b36600461249c565b61160c565b6040516101d5919061273f565b34801561043957600080fd5b5061024161044836600461249c565b611a1c565b34801561045957600080fd5b506003546101c1906001600160a01b031681565b34801561047957600080fd5b506102416104883660046125fd565b611c8f565b34801561049957600080fd5b506002546101c1906001600160a01b031681565b610241611da8565b3480156104c157600080fd5b506102136104d036600461249c565b6120ac565b3480156104e157600080fd5b506102b86104f036600461249c565b6121e8565b34801561050157600080fd5b5061024161051036600461249c565b612363565b6001600160a01b038116600090815260046020526040812081610537846120ac565b905080826005015461054991906128d5565b949350505050565b600081900361057357604051630b72e1b360e21b815260040160405180910390fd5b33600090815260046020526040902080546001600160a01b03166105a25780546001600160a01b031916331781555b6000805b838110156106b1576003546000906001600160a01b031663d5ec2d838787858181106105d4576105d46128e8565b905060200201356040518263ffffffff1660e01b81526004016105f991815260200190565b600060405180830381865afa158015610616573d6000803e3d6000fd5b505050506040513d6000823e601f3d908101601f1916820160405261063e91908101906129bd565b91505060005b81606001515181101561069c5781606001518181518110610667576106676128e8565b60200260200101516020015167ffffffffffffffff168461068891906128d5565b93508061069481612b9a565b915050610644565b505080806106a990612b9a565b9150506105a6565b5060005b8381101561079b576002546001600160a01b03166323b872dd33308888868181106106e2576106e26128e8565b6040516001600160e01b031960e088901b1681526001600160a01b03958616600482015294909316602485015250602090910201356044820152606401600060405180830381600087803b15801561073957600080fd5b505af115801561074d573d6000803e3d6000fd5b5050505082600801858583818110610767576107676128e8565b835460018101855560009485526020948590209190940292909201359190920155508061079381612b9a565b9150506106b5565b5060008183600501546107ae91906128d5565b905060007f00000000000000000000000000000000000000000000000000000000000000006001600160a01b0316636dd5b69d7f00000000000000000000000000000000000000000000000000000000000000006001600160a01b031663cb1c2b5c6040518163ffffffff1660e01b8152600401602060405180830381865afa15801561083f573d6000803e3d6000fd5b505050506040513d601f19601f820116820180604052508101906108639190612bb3565b6040518263ffffffff1660e01b815260040161088191815260200190565b602060405180830381865afa15801561089e573d6000803e3d6000fd5b505050506040513d601f19601f820116820180604052508101906108c29190612bb3565b905060007f00000000000000000000000000000000000000000000000000000000000000006001600160a01b0316636dd5b69d7f00000000000000000000000000000000000000000000000000000000000000006001600160a01b031663c98517c56040518163ffffffff1660e01b8152600401602060405180830381865afa158015610953573d6000803e3d6000fd5b505050506040513d601f19601f820116820180604052508101906109779190612bb3565b6040518263ffffffff1660e01b815260040161099591815260200190565b602060405180830381865afa1580156109b2573d6000803e3d6000fd5b505050506040513d601f19601f820116820180604052508101906109d69190612bb3565b9050818310156109f95760405163379e1d0760e01b815260040160405180910390fd5b80831115610a1a576040516339ff922560e11b815260040160405180910390fd5b60078501546001600160a01b0316610a55576002546007860180546001600160a01b0319166001600160a01b03909216919091179055610a88565b60025460078601546001600160a01b03908116911614610a88576040516312372a3960e01b815260040160405180910390fd5b6002546040518581526001600160a01b039091169033907ffb8efd70c9f0ca009bfc9f2ca8a9256a5aefbc720bdb8d838e4bcd42c241b9eb9060200160405180910390a350505050505050565b33600090815260046020526040902080546001600160a01b0316610b0c57604051634381b6c160e11b815260040160405180910390fd5b600f810180546001600160a01b0319166001600160a01b038816179055600d8101610b38858783612c55565b50600e8101610b48838583612c55565b50336001600160a01b03167f8e68353cf53df77c6b6993341bb1d784fab04f2f38b2c51654b51de6ce32274e8787878787604051610b8a959493929190612d3f565b60405180910390a2505050505050565b6005546001600160a01b03163314610bc557604051631a4273c160e01b815260040160405180910390fd5b600654600160a01b900460ff16610bef57604051630f68fe6360e21b815260040160405180910390fd5b6001600160a01b03821660009081526004602052604081209060038083015460ff1690811115610c2157610c2161267c565b14610c3f5760405163689b992760e01b815260040160405180910390fd5b600481015415610c6257604051630f58271760e01b815260040160405180910390fd5b60038101805460ff19166001908117909155600482018390556040516001600160a01b038516917f3a8979d9edd937f82708579234f5915d536a25d9fd31832a26aeb36a4a991c3c91610cb59190612d83565b60405180910390a2505050565b3360009081526004602081905260409091209081015415610cfe5760405162461bcd60e51b8152600401610cf590612d91565b60405180910390fd5b3360009081526004602052604090206005810154151580610d225750600881015415155b610d585760405162461bcd60e51b81526020600482015260076024820152664e6f5374616b6560c81b6044820152606401610cf5565b600581018054600090915560078201546001600160a01b031615801590610d825750600882015415155b15610e805760005b6008830154811015610e4c576002546008840180546001600160a01b03909216916323b872dd91309133919086908110610dc657610dc66128e8565b6000918252602090912001546040516001600160e01b031960e086901b1681526001600160a01b0393841660048201529290911660248301526044820152606401600060405180830381600087803b158015610e2157600080fd5b505af1158015610e35573d6000803e3d6000fd5b505050508080610e4490612b9a565b915050610d8a565b506040805160008152602081019182905251610e6c916008850191612420565b506007820180546001600160a01b03191690555b8015610f1157604051600090339083908381818185875af1925050503d8060008114610ec8576040519150601f19603f3d011682016040523d82523d6000602084013e610ecd565b606091505b5050905080610f0f5760405162461bcd60e51b815260206004820152600e60248201526d151c985b9cd9995c91985a5b195960921b6044820152606401610cf5565b505b60405181815260009033907fb7c918e0e249f999e965cafeb6c664271b3f4317d296461500e71da39f0cbda39060200160405180910390a3505050565b6001600160a01b038281166000908152600460205260409020600901548116908216145b92915050565b3360009081526004602081905260409091209081015415610fab5760405162461bcd60e51b8152600401610cf590612d91565b33600090815260046020526040902080546001600160a01b0316610fe257604051634381b6c160e11b815260040160405180910390fd5b600260038083015460ff1690811115610ffd57610ffd61267c565b146110375760405162461bcd60e51b815260206004820152600a6024820152691b9bdd081c185d5cd95960b21b6044820152606401610cf5565b60038101805460ff1916905560405133907f9f71f687820b75e4208e6fdd2091be151d94465fe4bafd2506bed2b9a430437d90600090a25050565b61107a6123a1565b600654600160a01b900460ff16156110a55760405163439a74c960e01b815260040160405180910390fd5b6001600160a01b0382166110cc5760405163538ba4f960e01b815260040160405180910390fd5b6001600160a01b0381166110f35760405163538ba4f960e01b815260040160405180910390fd5b600580546001600160a01b038085166001600160a01b03199092168217909255600680546001600160a81b031916928416928317600160a01b1790556040517f3cd5ec01b1ae7cfec6ca1863e2cd6aa25d6d1702825803ff2b7cc95010fffdc290600090a35050565b600060026001600160a01b038316600090815260046020526040902060039081015460ff16908111156111915761119161267c565b1492915050565b6001600160a01b0385166111e05760405162461bcd60e51b815260206004820152600f60248201526e24b73b30b634b227b832b930ba37b960891b6044820152606401610cf5565b33600090815260046020526040902080546001600160a01b031661121757604051634381b6c160e11b815260040160405180910390fd5b6009810180546001600160a01b0319166001600160a01b038816179055600a8101611243858783612c55565b50600b8101611253838583612c55565b50856001600160a01b0316336001600160a01b03167ff920b7832d3774e2ac2efb86fccb411bc92e19a8ea66687764dea93140bdad4a8787878760405161129d9493929190612dbc565b60405180910390a3505050505050565b33600090815260046020819052604090912090810154156112e05760405162461bcd60e51b8152600401610cf590612d91565b7f00000000000000000000000000000000000000000000000000000000000000006001600160a01b0316636dd5b69d7f00000000000000000000000000000000000000000000000000000000000000006001600160a01b0316634b74d9ca6040518163ffffffff1660e01b8152600401602060405180830381865afa15801561136d573d6000803e3d6000fd5b505050506040513d601f19601f820116820180604052508101906113919190612bb3565b6040518263ffffffff1660e01b81526004016113af91815260200190565b602060405180830381865afa1580156113cc573d6000803e3d6000fd5b505050506040513d601f19601f820116820180604052508101906113f09190612bb3565b83101561142b5760405162461bcd60e51b8152602060048201526009602482015268466565546f6f4c6f7760b81b6044820152606401610cf5565b81158061143757504282115b6114755760405162461bcd60e51b815260206004820152600f60248201526e496e76616c6964446561646c696e6560881b6044820152606401610cf5565b33600090815260046020526040902080546001600160a01b03166114ac57604051634381b6c160e11b815260040160405180910390fd5b60018101849055600c8101839055604080518581526020810185905233917f37a8e1e367daa706c049f32e9f3db5c7f05287d62d178accd3a148a80d4bf01a910160405180910390a250505050565b6115036123a1565b61150d60006123ce565b565b33600090815260046020819052604090912090810154156115425760405162461bcd60e51b8152600401610cf590612d91565b33600090815260046020526040902080546001600160a01b031661157957604051634381b6c160e11b815260040160405180910390fd5b600060038083015460ff16908111156115945761159461267c565b146115ce5760405162461bcd60e51b815260206004820152600a6024820152694e6f742061637469766560b01b6044820152606401610cf5565b60038101805460ff1916600217905560405133907ff8f74f9bb1ed360c36a0bd59e0d8aa5cbdd15bb6e8e86af871f343daf432be2290600090a25050565b604080516102008101825260008082526020820181905291810182905260608082018390526080820183905260a0820183905260c0820183905260e08201839052610100820181905261012082018390526101408201819052610160820181905261018082018390526101a082018190526101c08201526101e08101919091526001600160a01b0380831660009081526004602090815260409182902082516102008101845281549094168452600181015491840191909152600281015491830191909152600380820154606084019160ff909116908111156116f1576116f161267c565b60038111156117025761170261267c565b81526004820154602080830191909152600583015460408084019190915260068401546001600160a01b039081166060850152600785015416608084015260088401805482518185028101850190935280835260a090940193919290919083018282801561178f57602002820191906000526020600020905b81548152602001906001019080831161177b575b505050918352505060098201546001600160a01b03166020820152600a820180546040909201916117bf90612bcc565b80601f01602080910402602001604051908101604052809291908181526020018280546117eb90612bcc565b80156118385780601f1061180d57610100808354040283529160200191611838565b820191906000526020600020905b81548152906001019060200180831161181b57829003601f168201915b50505050508152602001600b8201805461185190612bcc565b80601f016020809104026020016040519081016040528092919081815260200182805461187d90612bcc565b80156118ca5780601f1061189f576101008083540402835291602001916118ca565b820191906000526020600020905b8154815290600101906020018083116118ad57829003601f168201915b50505050508152602001600c8201548152602001600d820180546118ed90612bcc565b80601f016020809104026020016040519081016040528092919081815260200182805461191990612bcc565b80156119665780601f1061193b57610100808354040283529160200191611966565b820191906000526020600020905b81548152906001019060200180831161194957829003601f168201915b50505050508152602001600e8201805461197f90612bcc565b80601f01602080910402602001604051908101604052809291908181526020018280546119ab90612bcc565b80156119f85780601f106119cd576101008083540402835291602001916119f8565b820191906000526020600020905b8154815290600101906020018083116119db57829003601f168201915b5050509183525050600f91909101546001600160a01b031660209091015292915050565b6006546001600160a01b03163314611a4757604051636f5ba97360e01b815260040160405180910390fd5b600654600160a01b900460ff16611a7157604051630f68fe6360e21b815260040160405180910390fd5b6001600160a01b0380821660009081526004602052604090208054909116611aac57604051634381b6c160e11b815260040160405180910390fd5b6003818101805460ff1916909117905560058101548015611b45576000600583018190556006546040516001600160a01b039091169083908381818185875af1925050503d8060008114611b1c576040519150601f19603f3d011682016040523d82523d6000602084013e611b21565b606091505b5050905080611b4357604051631fa55c0760e11b815260040160405180910390fd5b505b60078201546001600160a01b031615801590611b645750600882015415155b15611c555760005b6008830154811015611c335760078301546006546008850180546001600160a01b03938416936323b872dd93309391169186908110611bad57611bad6128e8565b6000918252602090912001546040516001600160e01b031960e086901b1681526001600160a01b0393841660048201529290911660248301526044820152606401600060405180830381600087803b158015611c0857600080fd5b505af1158015611c1c573d6000803e3d6000fd5b505050508080611c2b90612b9a565b915050611b6c565b506040805160008152602081019182905251611c53916008850191612420565b505b826001600160a01b03167f3a8979d9edd937f82708579234f5915d536a25d9fd31832a26aeb36a4a991c3c6003604051610cb59190612d83565b6005546001600160a01b03163314611cba57604051631a4273c160e01b815260040160405180910390fd5b600654600160a01b900460ff16611ce457604051630f68fe6360e21b815260040160405180910390fd5b6001600160a01b0382166000908152600460205260409020600160038083015460ff1690811115611d1757611d1761267c565b14611d355760405163650925bd60e11b815260040160405180910390fd5b81816004015414611d595760405163286976e760e21b815260040160405180910390fd5b60038101805460ff191690556000600482018190556040516001600160a01b038516917f3a8979d9edd937f82708579234f5915d536a25d9fd31832a26aeb36a4a991c3c91610cb59190612d83565b33600090815260046020526040902080546001600160a01b0316611dd75780546001600160a01b031916331781555b6000611de2336120ac565b90506000348360050154611df691906128d5565b6005840181905590506000611e0b83836128d5565b905060007f00000000000000000000000000000000000000000000000000000000000000006001600160a01b0316636dd5b69d7f00000000000000000000000000000000000000000000000000000000000000006001600160a01b031663cb1c2b5c6040518163ffffffff1660e01b8152600401602060405180830381865afa158015611e9c573d6000803e3d6000fd5b505050506040513d601f19601f82011682018060405250810190611ec09190612bb3565b6040518263ffffffff1660e01b8152600401611ede91815260200190565b602060405180830381865afa158015611efb573d6000803e3d6000fd5b505050506040513d601f19601f82011682018060405250810190611f1f9190612bb3565b905060007f00000000000000000000000000000000000000000000000000000000000000006001600160a01b0316636dd5b69d7f00000000000000000000000000000000000000000000000000000000000000006001600160a01b031663c98517c56040518163ffffffff1660e01b8152600401602060405180830381865afa158015611fb0573d6000803e3d6000fd5b505050506040513d601f19601f82011682018060405250810190611fd49190612bb3565b6040518263ffffffff1660e01b8152600401611ff291815260200190565b602060405180830381865afa15801561200f573d6000803e3d6000fd5b505050506040513d601f19601f820116820180604052508101906120339190612bb3565b9050818310156120565760405163379e1d0760e01b815260040160405180910390fd5b80831115612077576040516339ff922560e11b815260040160405180910390fd5b60405134815260009033907ffb8efd70c9f0ca009bfc9f2ca8a9256a5aefbc720bdb8d838e4bcd42c241b9eb9060200161129d565b6001600160a01b038116600090815260046020526040812081805b60088301548110156121e0576003546008840180546000926001600160a01b03169163d5ec2d8391859081106120ff576120ff6128e8565b90600052602060002001546040518263ffffffff1660e01b815260040161212891815260200190565b600060405180830381865afa158015612145573d6000803e3d6000fd5b505050506040513d6000823e601f3d908101601f1916820160405261216d91908101906129bd565b91505060005b8160600151518110156121cb5781606001518181518110612196576121966128e8565b60200260200101516020015167ffffffffffffffff16846121b791906128d5565b9350806121c381612b9a565b915050612173565b505080806121d890612b9a565b9150506120c7565b509392505050565b6001600160a01b03811660009081526004602052604081208160038083015460ff169081111561221a5761221a61267c565b146122285750600092915050565b6000612233846120ac565b9050600081836005015461224791906128d5565b90507f00000000000000000000000000000000000000000000000000000000000000006001600160a01b0316636dd5b69d7f00000000000000000000000000000000000000000000000000000000000000006001600160a01b031663cb1c2b5c6040518163ffffffff1660e01b8152600401602060405180830381865afa1580156122d6573d6000803e3d6000fd5b505050506040513d601f19601f820116820180604052508101906122fa9190612bb3565b6040518263ffffffff1660e01b815260040161231891815260200190565b602060405180830381865afa158015612335573d6000803e3d6000fd5b505050506040513d601f19601f820116820180604052508101906123599190612bb3565b1115949350505050565b61236b6123a1565b6001600160a01b03811661239557604051631e4fbdf760e01b815260006004820152602401610cf5565b61239e816123ce565b50565b6001546001600160a01b0316331461150d5760405163118cdaa760e01b8152336004820152602401610cf5565b600180546001600160a01b038381166001600160a01b0319831681179093556040519116919082907f8be0079c531659141344cd1fd0a4f28419497f9722a3daafe3b4186f6b6457e090600090a35050565b82805482825590600052602060002090810192821561245b579160200282015b8281111561245b578251825591602001919060010190612440565b5061246792915061246b565b5090565b5b80821115612467576000815560010161246c565b80356001600160a01b038116811461249757600080fd5b919050565b6000602082840312156124ae57600080fd5b6124b782612480565b9392505050565b600080602083850312156124d157600080fd5b823567ffffffffffffffff808211156124e957600080fd5b818501915085601f8301126124fd57600080fd5b81358181111561250c57600080fd5b8660208260051b850101111561252157600080fd5b60209290920196919550909350505050565b60008083601f84011261254557600080fd5b50813567ffffffffffffffff81111561255d57600080fd5b60208301915083602082850101111561257557600080fd5b9250929050565b60008060008060006060868803121561259457600080fd5b61259d86612480565b9450602086013567ffffffffffffffff808211156125ba57600080fd5b6125c689838a01612533565b909650945060408801359150808211156125df57600080fd5b506125ec88828901612533565b969995985093965092949392505050565b6000806040838503121561261057600080fd5b61261983612480565b946020939093013593505050565b6000806040838503121561263a57600080fd5b61264383612480565b915061265160208401612480565b90509250929050565b6000806040838503121561266d57600080fd5b50508035926020909101359150565b634e487b7160e01b600052602160045260246000fd5b600481106126b057634e487b7160e01b600052602160045260246000fd5b9052565b600081518084526020808501945080840160005b838110156126e4578151875295820195908201906001016126c8565b509495945050505050565b60005b8381101561270a5781810151838201526020016126f2565b50506000910152565b6000815180845261272b8160208601602086016126ef565b601f01601f19169290920160200192915050565b602081526127596020820183516001600160a01b03169052565b6020820151604082015260408201516060820152600060608301516127816080840182612692565b50608083015160a083015260a083015160c083015260c08301516127b060e08401826001600160a01b03169052565b5060e08301516101006127cd818501836001600160a01b03169052565b8085015191505061020061012081818601526127ed6102208601846126b4565b9086015190925061014061280b868201836001600160a01b03169052565b80870151915050601f1961016081878603018188015261282b8584612713565b94508088015192505061018081878603018188015261284a8584612713565b9450808801519250506101a08281880152808801519250506101c08187860301818801526128788584612713565b9450808801519250506101e08187860301818801526128978584612713565b945080880151925050506128b5828601826001600160a01b03169052565b5090949350505050565b634e487b7160e01b600052601160045260246000fd5b80820180821115610f7257610f726128bf565b634e487b7160e01b600052603260045260246000fd5b634e487b7160e01b600052604160045260246000fd5b6040516080810167ffffffffffffffff81118282101715612937576129376128fe565b60405290565b6040516060810167ffffffffffffffff81118282101715612937576129376128fe565b604051601f8201601f1916810167ffffffffffffffff81118282101715612989576129896128fe565b604052919050565b805163ffffffff8116811461249757600080fd5b805167ffffffffffffffff8116811461249757600080fd5b600080604083850312156129d057600080fd5b82519150602083015167ffffffffffffffff808211156129ef57600080fd5b9084019060808287031215612a0357600080fd5b612a0b612914565b82518152612a1b60208401612991565b6020820152604083015160ff81168114612a3457600080fd5b6040820152606083015182811115612a4b57600080fd5b80840193505086601f840112612a6057600080fd5b825182811115612a7257612a726128fe565b612a8160208260051b01612960565b8082825260208201915060208360051b870101925089831115612aa357600080fd5b602086015b83811015612b8657805186811115612abf57600080fd5b8701601f196060828e0382011215612ad657600080fd5b612ade61293d565b602083015189811115612af057600080fd5b8301603f81018f13612b0157600080fd5b60208101518a811115612b1657612b166128fe565b612b27602085601f84011601612960565b93508084528f6040828401011115612b3e57600080fd5b612b4f8160208601604085016126ef565b5050818152612b60604084016129a5565b6020820152612b7160608401612991565b60408201528552505060209283019201612aa8565b506060840152509497909650945050505050565b600060018201612bac57612bac6128bf565b5060010190565b600060208284031215612bc557600080fd5b5051919050565b600181811c90821680612be057607f821691505b602082108103612c0057634e487b7160e01b600052602260045260246000fd5b50919050565b601f821115612c5057600081815260208120601f850160051c81016020861015612c2d5750805b601f850160051c820191505b81811015612c4c57828155600101612c39565b5050505b505050565b67ffffffffffffffff831115612c6d57612c6d6128fe565b612c8183612c7b8354612bcc565b83612c06565b6000601f841160018114612cb55760008515612c9d5750838201355b600019600387901b1c1916600186901b178355612d0f565b600083815260209020601f19861690835b82811015612ce65786850135825560209485019460019092019101612cc6565b5086821015612d035760001960f88860031b161c19848701351681555b505060018560011b0183555b5050505050565b81835281816020850137506000828201602090810191909152601f909101601f19169091010190565b6001600160a01b0386168152606060208201819052600090612d649083018688612d16565b8281036040840152612d77818587612d16565b98975050505050505050565b60208101610f728284612692565b60208082526011908201527041726269747261746f72576f726b696e6760781b604082015260600190565b604081526000612dd0604083018688612d16565b8281036020840152612de3818587612d16565b97965050505050505056fea264697066735822122094b6595a1255be9c59bb9d20c65b75eba8f82f2a9e039006935f3838a3881a2964736f6c63430008140033",
  "linkReferences": {},
  "deployedLinkReferences": {}
}