{
  "_format": "hh-sol-artifact-1",
  "contractName": "ArbitratorManager",
  "sourceName": "contracts/core/ArbitratorManager.sol",
  "abi": [
    {
      "inputs": [],
      "stateMutability": "nonpayable",
      "type": "constructor"
    },
    {
      "inputs": [],
      "name": "InvalidInitialization",
      "type": "error"
    },
    {
      "inputs": [],
      "name": "NotInitializing",
      "type": "error"
    },
    {
      "inputs": [
        {
          "internalType": "address",
          "name": "owner",
          "type": "address"
        }
      ],
      "name": "OwnableInvalidOwner",
      "type": "error"
    },
    {
      "inputs": [
        {
          "internalType": "address",
          "name": "account",
          "type": "address"
        }
      ],
      "name": "OwnableUnauthorizedAccount",
      "type": "error"
    },
    {
      "inputs": [],
      "name": "ReentrancyGuardReentrantCall",
      "type": "error"
    },
    {
      "anonymous": false,
      "inputs": [
        {
          "indexed": true,
          "internalType": "address",
          "name": "arbitrator",
          "type": "address"
        },
        {
          "indexed": false,
          "internalType": "uint256",
          "name": "deadline",
          "type": "uint256"
        }
      ],
      "name": "ArbitratorDeadlineUpdated",
      "type": "event"
    },
    {
      "anonymous": false,
      "inputs": [
        {
          "indexed": true,
          "internalType": "address",
          "name": "arbitrator",
          "type": "address"
        },
        {
          "indexed": false,
          "internalType": "uint256",
          "name": "feeRate",
          "type": "uint256"
        }
      ],
      "name": "ArbitratorFeeRateUpdated",
      "type": "event"
    },
    {
      "anonymous": false,
      "inputs": [
        {
          "indexed": true,
          "internalType": "address",
          "name": "arbitrator",
          "type": "address"
        }
      ],
      "name": "ArbitratorFrozen",
      "type": "event"
    },
    {
      "anonymous": false,
      "inputs": [
        {
          "indexed": true,
          "internalType": "address",
          "name": "arbitrator",
          "type": "address"
        }
      ],
      "name": "ArbitratorPaused",
      "type": "event"
    },
    {
      "anonymous": false,
      "inputs": [
        {
          "indexed": true,
          "internalType": "address",
          "name": "arbitrator",
          "type": "address"
        },
        {
          "indexed": true,
          "internalType": "address",
          "name": "operator",
          "type": "address"
        },
        {
          "indexed": false,
          "internalType": "address",
          "name": "revenueAddress",
          "type": "address"
        },
        {
          "indexed": false,
          "internalType": "string",
          "name": "btcAddress",
          "type": "string"
        },
        {
          "indexed": false,
          "internalType": "bytes",
          "name": "btcPubKey",
          "type": "bytes"
        },
        {
          "indexed": false,
          "internalType": "uint256",
          "name": "feeRate",
          "type": "uint256"
        },
        {
          "indexed": false,
          "internalType": "uint256",
          "name": "deadline",
          "type": "uint256"
        }
      ],
      "name": "ArbitratorRegistered",
      "type": "event"
    },
    {
      "anonymous": false,
      "inputs": [
        {
          "indexed": true,
          "internalType": "address",
          "name": "arbitrator",
          "type": "address"
        },
        {
          "indexed": true,
          "internalType": "bytes32",
          "name": "transactionId",
          "type": "bytes32"
        }
      ],
      "name": "ArbitratorReleased",
      "type": "event"
    },
    {
      "anonymous": false,
      "inputs": [
        {
          "indexed": true,
          "internalType": "address",
          "name": "arbitrator",
          "type": "address"
        }
      ],
      "name": "ArbitratorTerminatedWithSlash",
      "type": "event"
    },
    {
      "anonymous": false,
      "inputs": [
        {
          "indexed": true,
          "internalType": "address",
          "name": "arbitrator",
          "type": "address"
        }
      ],
      "name": "ArbitratorUnpaused",
      "type": "event"
    },
    {
      "anonymous": false,
      "inputs": [
        {
          "indexed": true,
          "internalType": "address",
          "name": "arbitrator",
          "type": "address"
        },
        {
          "indexed": true,
          "internalType": "bytes32",
          "name": "transactionId",
          "type": "bytes32"
        }
      ],
      "name": "ArbitratorWorking",
      "type": "event"
    },
    {
      "anonymous": false,
      "inputs": [
        {
          "indexed": true,
          "internalType": "address",
          "name": "oldManager",
          "type": "address"
        },
        {
          "indexed": true,
          "internalType": "address",
          "name": "newManager",
          "type": "address"
        }
      ],
      "name": "CompensationManagerUpdated",
      "type": "event"
    },
    {
      "anonymous": false,
      "inputs": [
        {
          "indexed": false,
          "internalType": "uint64",
          "name": "version",
          "type": "uint64"
        }
      ],
      "name": "Initialized",
      "type": "event"
    },
    {
      "anonymous": false,
      "inputs": [
        {
          "indexed": true,
          "internalType": "address",
          "name": "transactionManager",
          "type": "address"
        },
        {
          "indexed": true,
          "internalType": "address",
          "name": "compensationManager",
          "type": "address"
        }
      ],
      "name": "InitializedManager",
      "type": "event"
    },
    {
      "anonymous": false,
      "inputs": [
        {
          "indexed": true,
          "internalType": "address",
          "name": "oldNFTContract",
          "type": "address"
        },
        {
          "indexed": true,
          "internalType": "address",
          "name": "newNFTContract",
          "type": "address"
        }
      ],
      "name": "NFTContractUpdated",
      "type": "event"
    },
    {
      "anonymous": false,
      "inputs": [
        {
          "indexed": true,
          "internalType": "address",
          "name": "arbitrator",
          "type": "address"
        },
        {
          "indexed": true,
          "internalType": "address",
          "name": "operator",
          "type": "address"
        },
        {
          "indexed": false,
          "internalType": "bytes",
          "name": "btcPubKey",
          "type": "bytes"
        },
        {
          "indexed": false,
          "internalType": "string",
          "name": "btcAddress",
          "type": "string"
        }
      ],
      "name": "OperatorSet",
      "type": "event"
    },
    {
      "anonymous": false,
      "inputs": [
        {
          "indexed": true,
          "internalType": "address",
          "name": "previousOwner",
          "type": "address"
        },
        {
          "indexed": true,
          "internalType": "address",
          "name": "newOwner",
          "type": "address"
        }
      ],
      "name": "OwnershipTransferred",
      "type": "event"
    },
    {
      "anonymous": false,
      "inputs": [
        {
          "indexed": true,
          "internalType": "address",
          "name": "arbitrator",
          "type": "address"
        },
        {
          "indexed": false,
          "internalType": "address",
          "name": "ethAddress",
          "type": "address"
        },
        {
          "indexed": false,
          "internalType": "bytes",
          "name": "btcPubKey",
          "type": "bytes"
        },
        {
          "indexed": false,
          "internalType": "string",
          "name": "btcAddress",
          "type": "string"
        }
      ],
      "name": "RevenueAddressesSet",
      "type": "event"
    },
    {
      "anonymous": false,
      "inputs": [
        {
          "indexed": true,
          "internalType": "address",
          "name": "arbitrator",
          "type": "address"
        },
        {
          "indexed": true,
          "internalType": "address",
          "name": "assetAddress",
          "type": "address"
        },
        {
          "indexed": false,
          "internalType": "uint256",
          "name": "amount",
          "type": "uint256"
        },
        {
          "indexed": false,
          "internalType": "uint256[]",
          "name": "nftTokenIds",
          "type": "uint256[]"
        }
      ],
      "name": "StakeAdded",
      "type": "event"
    },
    {
      "anonymous": false,
      "inputs": [
        {
          "indexed": true,
          "internalType": "address",
          "name": "arbitrator",
          "type": "address"
        },
        {
          "indexed": true,
          "internalType": "address",
          "name": "assetAddress",
          "type": "address"
        },
        {
          "indexed": false,
          "internalType": "uint256",
          "name": "amount",
          "type": "uint256"
        }
      ],
      "name": "StakeWithdrawn",
      "type": "event"
    },
    {
      "anonymous": false,
      "inputs": [
        {
          "indexed": true,
          "internalType": "address",
          "name": "oldManager",
          "type": "address"
        },
        {
          "indexed": true,
          "internalType": "address",
          "name": "newManager",
          "type": "address"
        }
      ],
      "name": "TransactionManagerUpdated",
      "type": "event"
    },
    {
      "inputs": [],
      "name": "compensationManager",
      "outputs": [
        {
          "internalType": "address",
          "name": "",
          "type": "address"
        }
      ],
      "stateMutability": "view",
      "type": "function"
    },
    {
      "inputs": [],
      "name": "configManager",
      "outputs": [
        {
          "internalType": "contract ConfigManager",
          "name": "",
          "type": "address"
        }
      ],
      "stateMutability": "view",
      "type": "function"
    },
    {
      "inputs": [
        {
          "internalType": "address",
          "name": "arbitrator",
          "type": "address"
        }
      ],
      "name": "frozenArbitrator",
      "outputs": [],
      "stateMutability": "nonpayable",
      "type": "function"
    },
    {
      "inputs": [
        {
          "internalType": "address",
          "name": "arbitratorAddress",
          "type": "address"
        }
      ],
      "name": "getArbitratorInfo",
      "outputs": [
        {
          "components": [
            {
              "internalType": "address",
              "name": "arbitrator",
              "type": "address"
            },
            {
              "internalType": "bool",
              "name": "paused",
              "type": "bool"
            },
            {
              "internalType": "uint256",
              "name": "currentFeeRate",
              "type": "uint256"
            },
            {
              "internalType": "bytes32",
              "name": "activeTransactionId",
              "type": "bytes32"
            },
            {
              "internalType": "uint256",
              "name": "ethAmount",
              "type": "uint256"
            },
            {
              "internalType": "address",
              "name": "erc20Token",
              "type": "address"
            },
            {
              "internalType": "address",
              "name": "nftContract",
              "type": "address"
            },
            {
              "internalType": "uint256[]",
              "name": "nftTokenIds",
              "type": "uint256[]"
            },
            {
              "internalType": "address",
              "name": "operator",
              "type": "address"
            },
            {
              "internalType": "bytes",
              "name": "operatorBtcPubKey",
              "type": "bytes"
            },
            {
              "internalType": "string",
              "name": "operatorBtcAddress",
              "type": "string"
            },
            {
              "internalType": "uint256",
              "name": "deadLine",
              "type": "uint256"
            },
            {
              "internalType": "bytes",
              "name": "revenueBtcPubKey",
              "type": "bytes"
            },
            {
              "internalType": "string",
              "name": "revenueBtcAddress",
              "type": "string"
            },
            {
              "internalType": "address",
              "name": "revenueETHAddress",
              "type": "address"
            },
            {
              "internalType": "uint256",
              "name": "lastSubmittedWorkTime",
              "type": "uint256"
            }
          ],
          "internalType": "struct DataTypes.ArbitratorInfo",
          "name": "",
          "type": "tuple"
        }
      ],
      "stateMutability": "view",
      "type": "function"
    },
    {
      "inputs": [
        {
          "internalType": "address",
          "name": "arbitrator",
          "type": "address"
        }
      ],
      "name": "getAvailableStake",
      "outputs": [
        {
          "internalType": "uint256",
          "name": "",
          "type": "uint256"
        }
      ],
      "stateMutability": "view",
      "type": "function"
    },
    {
      "inputs": [
        {
          "internalType": "address",
          "name": "arbitrator",
          "type": "address"
        }
      ],
      "name": "getTotalNFTStakeValue",
      "outputs": [
        {
          "internalType": "uint256",
          "name": "",
          "type": "uint256"
        }
      ],
      "stateMutability": "view",
      "type": "function"
    },
    {
      "inputs": [
        {
          "internalType": "address",
          "name": "_transactionManager",
          "type": "address"
        },
        {
          "internalType": "address",
          "name": "_compensationManager",
          "type": "address"
        }
      ],
      "name": "initTransactionAndCompensationManager",
      "outputs": [],
      "stateMutability": "nonpayable",
      "type": "function"
    },
    {
      "inputs": [
        {
          "internalType": "address",
          "name": "_configManager",
          "type": "address"
        },
        {
          "internalType": "address",
          "name": "_nftContract",
          "type": "address"
        },
        {
          "internalType": "address",
          "name": "_nftInfo",
          "type": "address"
        }
      ],
      "name": "initialize",
      "outputs": [],
      "stateMutability": "nonpayable",
      "type": "function"
    },
    {
      "inputs": [
        {
          "internalType": "address",
          "name": "arbitratorAddress",
          "type": "address"
        }
      ],
      "name": "isActiveArbitrator",
      "outputs": [
        {
          "internalType": "bool",
          "name": "",
          "type": "bool"
        }
      ],
      "stateMutability": "view",
      "type": "function"
    },
    {
      "inputs": [
        {
          "internalType": "address",
          "name": "arbitrator",
          "type": "address"
        }
      ],
      "name": "isConfigModifiable",
      "outputs": [
        {
          "internalType": "bool",
          "name": "",
          "type": "bool"
        }
      ],
      "stateMutability": "view",
      "type": "function"
    },
    {
      "inputs": [
        {
          "internalType": "address",
          "name": "arbitrator",
          "type": "address"
        }
      ],
      "name": "isFrozenStatus",
      "outputs": [
        {
          "internalType": "bool",
          "name": "",
          "type": "bool"
        }
      ],
      "stateMutability": "view",
      "type": "function"
    },
    {
      "inputs": [
        {
          "internalType": "address",
          "name": "arbitrator",
          "type": "address"
        },
        {
          "internalType": "address",
          "name": "operator",
          "type": "address"
        }
      ],
      "name": "isOperatorOf",
      "outputs": [
        {
          "internalType": "bool",
          "name": "",
          "type": "bool"
        }
      ],
      "stateMutability": "view",
      "type": "function"
    },
    {
      "inputs": [
        {
          "internalType": "address",
          "name": "arbitrator",
          "type": "address"
        }
      ],
      "name": "isPaused",
      "outputs": [
        {
          "internalType": "bool",
          "name": "",
          "type": "bool"
        }
      ],
      "stateMutability": "view",
      "type": "function"
    },
    {
      "inputs": [],
      "name": "nftContract",
      "outputs": [
        {
          "internalType": "contract IERC721",
          "name": "",
          "type": "address"
        }
      ],
      "stateMutability": "view",
      "type": "function"
    },
    {
      "inputs": [],
      "name": "nftInfo",
      "outputs": [
        {
          "internalType": "contract IBNFTInfo",
          "name": "",
          "type": "address"
        }
      ],
      "stateMutability": "view",
      "type": "function"
    },
    {
      "inputs": [],
      "name": "owner",
      "outputs": [
        {
          "internalType": "address",
          "name": "",
          "type": "address"
        }
      ],
      "stateMutability": "view",
      "type": "function"
    },
    {
      "inputs": [],
      "name": "pause",
      "outputs": [],
      "stateMutability": "nonpayable",
      "type": "function"
    },
    {
      "inputs": [
        {
          "internalType": "string",
          "name": "defaultBtcAddress",
          "type": "string"
        },
        {
          "internalType": "bytes",
          "name": "defaultBtcPubKey",
          "type": "bytes"
        },
        {
          "internalType": "uint256",
          "name": "feeRate",
          "type": "uint256"
        },
        {
          "internalType": "uint256",
          "name": "deadline",
          "type": "uint256"
        }
      ],
      "name": "registerArbitratorByStakeETH",
      "outputs": [],
      "stateMutability": "payable",
      "type": "function"
    },
    {
      "inputs": [
        {
          "internalType": "uint256[]",
          "name": "tokenIds",
          "type": "uint256[]"
        },
        {
          "internalType": "string",
          "name": "defaultBtcAddress",
          "type": "string"
        },
        {
          "internalType": "bytes",
          "name": "defaultBtcPubKey",
          "type": "bytes"
        },
        {
          "internalType": "uint256",
          "name": "feeRate",
          "type": "uint256"
        },
        {
          "internalType": "uint256",
          "name": "deadline",
          "type": "uint256"
        }
      ],
      "name": "registerArbitratorByStakeNFT",
      "outputs": [],
      "stateMutability": "nonpayable",
      "type": "function"
    },
    {
      "inputs": [
        {
          "internalType": "address",
          "name": "arbitrator",
          "type": "address"
        },
        {
          "internalType": "bytes32",
          "name": "transactionId",
          "type": "bytes32"
        }
      ],
      "name": "releaseArbitrator",
      "outputs": [],
      "stateMutability": "nonpayable",
      "type": "function"
    },
    {
      "inputs": [],
      "name": "renounceOwnership",
      "outputs": [],
      "stateMutability": "nonpayable",
      "type": "function"
    },
    {
      "inputs": [
        {
          "internalType": "uint256",
          "name": "deadline",
          "type": "uint256"
        }
      ],
      "name": "setArbitratorDeadline",
      "outputs": [],
      "stateMutability": "nonpayable",
      "type": "function"
    },
    {
      "inputs": [
        {
          "internalType": "uint256",
          "name": "feeRate",
          "type": "uint256"
        }
      ],
      "name": "setArbitratorFeeRate",
      "outputs": [],
      "stateMutability": "nonpayable",
      "type": "function"
    },
    {
      "inputs": [
        {
          "internalType": "address",
          "name": "arbitrator",
          "type": "address"
        },
        {
          "internalType": "bytes32",
          "name": "transactionId",
          "type": "bytes32"
        }
      ],
      "name": "setArbitratorWorking",
      "outputs": [],
      "stateMutability": "nonpayable",
      "type": "function"
    },
    {
      "inputs": [
        {
          "internalType": "address",
          "name": "_compensationManager",
          "type": "address"
        }
      ],
      "name": "setCompensationManager",
      "outputs": [],
      "stateMutability": "nonpayable",
      "type": "function"
    },
    {
      "inputs": [
        {
          "internalType": "address",
          "name": "_nftContract",
          "type": "address"
        }
      ],
      "name": "setNFTContract",
      "outputs": [],
      "stateMutability": "nonpayable",
      "type": "function"
    },
    {
      "inputs": [
        {
          "internalType": "address",
          "name": "operator",
          "type": "address"
        },
        {
          "internalType": "bytes",
          "name": "btcPubKey",
          "type": "bytes"
        },
        {
          "internalType": "string",
          "name": "btcAddress",
          "type": "string"
        }
      ],
      "name": "setOperator",
      "outputs": [],
      "stateMutability": "nonpayable",
      "type": "function"
    },
    {
      "inputs": [
        {
          "internalType": "address",
          "name": "ethAddress",
          "type": "address"
        },
        {
          "internalType": "bytes",
          "name": "btcPubKey",
          "type": "bytes"
        },
        {
          "internalType": "string",
          "name": "btcAddress",
          "type": "string"
        }
      ],
      "name": "setRevenueAddresses",
      "outputs": [],
      "stateMutability": "nonpayable",
      "type": "function"
    },
    {
      "inputs": [
        {
          "internalType": "address",
          "name": "_transactionManager",
          "type": "address"
        }
      ],
      "name": "setTransactionManager",
      "outputs": [],
      "stateMutability": "nonpayable",
      "type": "function"
    },
    {
      "inputs": [],
      "name": "stakeETH",
      "outputs": [],
      "stateMutability": "payable",
      "type": "function"
    },
    {
      "inputs": [
        {
          "internalType": "uint256[]",
          "name": "tokenIds",
          "type": "uint256[]"
        }
      ],
      "name": "stakeNFT",
      "outputs": [],
      "stateMutability": "nonpayable",
      "type": "function"
    },
    {
      "inputs": [
        {
          "internalType": "address",
          "name": "arbitrator",
          "type": "address"
        }
      ],
      "name": "terminateArbitratorWithSlash",
      "outputs": [],
      "stateMutability": "nonpayable",
      "type": "function"
    },
    {
      "inputs": [],
      "name": "transactionManager",
      "outputs": [
        {
          "internalType": "address",
          "name": "",
          "type": "address"
        }
      ],
      "stateMutability": "view",
      "type": "function"
    },
    {
      "inputs": [
        {
          "internalType": "address",
          "name": "newOwner",
          "type": "address"
        }
      ],
      "name": "transferOwnership",
      "outputs": [],
      "stateMutability": "nonpayable",
      "type": "function"
    },
    {
      "inputs": [],
      "name": "unpause",
      "outputs": [],
      "stateMutability": "nonpayable",
      "type": "function"
    },
    {
      "inputs": [],
      "name": "unstake",
      "outputs": [],
      "stateMutability": "nonpayable",
      "type": "function"
    },
    {
      "inputs": [],
      "name": "zeroAddress",
      "outputs": [
        {
          "internalType": "address",
          "name": "",
          "type": "address"
        }
      ],
      "stateMutability": "view",
      "type": "function"
    }
  ],
  "bytecode": "0x60808060405234620000bd577ff0c57e16840df040f15088dc2f81fe391c3923bec73e23a9662efc9c229c6a009081549060ff8260401c16620000ae57506001600160401b036002600160401b03198282160162000068575b6040516140169081620000c38239f35b6001600160401b031990911681179091556040519081527fc7f505b2f371ae2175ee4913f4499e1f2633a7b5936321eed1cdaeb6115181d290602090a138808062000058565b63f92ee8a960e01b8152600490fd5b600080fdfe608080604052600436101561001357600080fd5b60003560e01c908163044a291a14612990575080630559b877146129675780630930907b1461294b5780630b1fa61c146128db57806314f6b190146128b8578063182c5744146127ff57806329111251146127b357806329a3f203146125465780632b2d37da1461247c5780632def6620146121b957806337e406e914611a3457806339c25e2c146119e95780633b716452146119c05780633f4ba83a1461192057806344019f7e1461187b5780634476a6601461180b5780635b14f183146117c9578063654b4e8314611531578063715018a6146114c75780638456cb591461141f5780638da5cb5b146113e957806399056c3c146111e3578063998b2fd814610f935780639f7ca8dd14610f70578063a7ccabdf14610f00578063b553fe1e14610ed7578063c0c53b8b14610d17578063ca0ab07514610cee578063cedb588b14610c16578063d2b6f74b14610b1d578063d3f414e014610a17578063d56d229d146109ee578063dceb986d14610944578063e25268d214610919578063e2b4efb8146108ec578063f2fde38b146108c15763f3724d18146101b657600080fd5b3461082f5760a036600319011261082f576004356001600160401b03811161082f576101e6903690600401612b22565b906024356001600160401b03811161082f57610206903690600401612b52565b91906044356001600160401b03811161082f57610227903690600401612b52565b919092610232613013565b841580156108b9575b61087b576000546040516325ba6ce560e11b81526001600160a01b0390911690602081600481855afa801561083c57600090610848575b60209150602460405180948193636dd5b69d60e01b835260048301525afa90811561083c57600091610805575b50606435106107c7576084351515806107bb575b6107b05785156107a557336000526003602052604060002095865460018060a01b03811661077657336001600160a01b031991821681178955600789018054831682179055600d890180549092161790556001600160401b0386116106e75761032c86610323600c8a0154612df1565b600c8a01612e42565b856000601f8211600114610708576000916106fd575b508660011b906000198860031b1c191617600c8801555b6001600160401b0384116106e75761038184610378600b8a0154612df1565b600b8a01612e42565b836000601f82116001146106795760009161066e575b508460011b906000198660031b1c191617600b8801555b6103c8866103bf60098a0154612df1565b60098a01612e42565b856000601f8211600114610600576000916105f5575b508660011b906000198860031b1c19161760098801555b61040f8461040660088a0154612df1565b60088a01612e42565b6000601f851160011461054c579284926003600080516020613f8183398151915261050894610516987f1ab9d0508879cf64270650fc89b30617972d694fd1053946f028860daf125c7c9a98600091610541575b5060001988851b1c1916600188901b1760088d01555b60643560018d0155608435600a8d01556104ac8c61049783876132a8565b94816104a585898995613505565b015461376d565b6104b58c61399c565b60018060a01b0360015416936104d2604051928392339684612fc2565b0390a36007880154600d909801546040516001600160a01b03918216815260a06020820181905291909916989790880191612ff2565b918583036040870152612ff2565b91606435606082015260843560808201528033930390a36001600080516020613fc183398151915255005b905088013538610463565b6008880160005260206000209060005b601f19871681106105dd5750926003600080516020613f81833981519152610508947f1ab9d0508879cf64270650fc89b30617972d694fd1053946f028860daf125c7c99979489976105169a601f198116106105c5575b5050600187811b0160088d0155610479565b89013560001989861b60f8161c1916905538806105b3565b9091602060018192858b01358155019301910161055c565b9050830135386103de565b90506009880160005260206000209060005b601f1989168110610656575087601f1981161061063c575b5050600186811b0160098801556103f5565b840135600019600389901b60f8161c19169055388061062a565b90916020600181928589013581550193019101610612565b905085013538610397565b9050600b880160005260206000209060005b601f19871681106106cf575085601f198116106106b5575b5050600184811b01600b8801556103ae565b860135600019600387901b60f8161c1916905538806106a3565b9091602060018192858b01358155019301910161068b565b634e487b7160e01b600052604160045260246000fd5b905083013538610342565b9050600c880160005260206000209060005b601f198916811061075e575087601f19811610610744575b5050600186811b01600c880155610359565b840135600019600389901b60f8161c191690553880610732565b9091602060018192858901358155019301910161071a565b6107a1610781612dd3565b60405162461bcd60e51b8152602060048201529182916024830190612c01565b0390fd5b6107a1610781612fa4565b6107a1610781612f86565b504260843511156102b3565b6107a16040516107d681612d02565b6002815261046360f41b602082015260405191829162461bcd60e51b8352602060048401526024830190612c01565b90506020813d602011610834575b8161082060209383612d38565b8101031261082f57513861029f565b600080fd5b3d9150610813565b6040513d6000823e3d90fd5b506020813d602011610873575b8161086260209383612d38565b8101031261082f5760209051610272565b3d9150610855565b6107a160405161088a81612d02565b6002815261049360f41b602082015260405191829162461bcd60e51b8352602060048401526024830190612c01565b50821561023b565b3461082f57602036600319011261082f576108ea6108dd612af6565b6108e5612c26565b612c5f565b005b3461082f57602036600319011261082f57602061090f61090a612af6565b613ba3565b6040519015158152f35b3461082f57602036600319011261082f57602061093c610937612af6565b613e55565b604051908152f35b600036600319011261082f5733600090815260036020526040902080546001600160a01b031680156109e35761097933613dc8565b156109d8576109a5600092600361098f33613e55565b910161099d81543490612e89565b80915561376d565b600080516020613f818339815191526109d36040516109c381612d1d565b8481526040519182913483612eac565b0390a3005b6107a1610781613061565b6107a1610781613043565b3461082f57600036600319011261082f576001546040516001600160a01b039091168152602090f35b3461082f5760208060031936011261082f57610a31612af6565b6004546001600160a01b03919082163303610b145760ff60055460a01c1615610b0b57811691826000526003815260406000209182541615610ae157600282015415610aa55750600e429101557fb5c433aa54e775c63ae22f75b359af0e25c57eddd9bb55eb71445b74b523bfa8600080a2005b60405190610ab282612d02565b6002825261413560f01b818301526107a160405192839262461bcd60e51b845260048401526024830190612c01565b610ae9613043565b906107a160405192839262461bcd60e51b845260048401526024830190612c01565b82610ae9613e37565b82610ae9613e19565b3461082f57604036600319011261082f57610b36612af6565b610b3e612b0c565b90610b47612c26565b6005549160ff8360a01c16610bd8576001600160a01b039182169283158015610bce575b610bc357600480546001600160a01b031916851790556001600160a81b03191690821617600160a01b17600581905516907f255c9edca3ea4cd6ff3c64c4cd7a5f812c6ae0ca0ae939f85e9e3eb49cdb416f600080a3005b6107a1610781612d74565b5082821615610b6b565b6107a1604051610be781612d02565b6002815261041360f41b602082015260405191829162461bcd60e51b8352602060048401526024830190612c01565b3461082f57604036600319011261082f57610c2f612af6565b600454602435916001600160a01b039182163303610ce35760ff60055460a01c1615610cd85716806000526003602052600260406000200182815403610c9a57600090557fec0516e78db51665510a6ab319cb07cbb5b1e66d1de10f9abd1994eaaa555b30600080a3005b6107a1604051610ca981612d02565b60028152612a1b60f11b602082015260405191829162461bcd60e51b8352602060048401526024830190612c01565b6107a1610781613e37565b6107a1610781613e19565b3461082f57600036600319011261082f576000546040516001600160a01b039091168152602090f35b3461082f57606036600319011261082f57610d30612af6565b610d38612b0c565b6001600160a01b036044358181169081900361082f577ff0c57e16840df040f15088dc2f81fe391c3923bec73e23a9662efc9c229c6a009283549260ff8460401c1615936001600160401b03811696871580610ed0575b60018099149081610ec6575b159081610ebd575b50610eab5767ffffffffffffffff19821688178755829186610e8c575b50610dc9612d92565b610dd1612d92565b87600080516020613fc183398151915255610dea612d92565b610df2612d92565b610dfb33612c5f565b169182158015610e82575b8015610e7a575b610bc3576001600160601b0360a01b9283600054161760005516818654161785556002541617600255610e3c57005b805468ff0000000000000000191690556040519081527fc7f505b2f371ae2175ee4913f4499e1f2633a7b5936321eed1cdaeb6115181d290602090a1005b508315610e0d565b5081811615610e06565b68ffffffffffffffffff19166801000000000000000117875588610dc0565b60405163f92ee8a960e01b8152600490fd5b90501589610da3565b303b159150610d9b565b5085610d8f565b3461082f57600036600319011261082f576002546040516001600160a01b039091168152602090f35b3461082f57602036600319011261082f57610f19612af6565b610f21612c26565b6001600160a01b03908116908115610bc357600154826001600160601b0360a01b821617600155167fab9636faa03b42a52a353eb86f070f1ac15b69f0bc419fba63d07b5d996edad7600080a3005b3461082f57602036600319011261082f57602061090f610f8e612af6565b613dc8565b3461082f5760208060031936011261082f57610fad612af6565b6005805490926001600160a01b0392909183811633036111a75760a01c60ff161561119e57821691826000526003825260406000208181541615611195576003810180549081611135575b50508481019082825416151580611128575b611037575b847fc0c6efb1c6f315e6721ba44dc1a435e4ca9a730d45f3caf4a67c43b22ca008a2600080a2005b60060161104381613a15565b93600060405161105281612d1d565b528154600083558061110d575b50506000526001600160601b0360a01b815416905560005b82518110156110fe57816001541690828654166110948286613259565b51833b1561082f576040516323b872dd60e01b81523060048201526001600160a01b039290921660248301526044820152916000908390606490829084905af191821561083c576110ea926110ef575b5061307f565b611077565b6110f890612cd3565b866110e4565b5050509050808280808061100f565b611121918360005260002090810190612e2b565b868061105f565b506006810154151561100a565b600080809381809455868a54165af161114c613a64565b5015611159578580610ff8565b6040518361116682612d02565b6002825261463160f01b818301526107a160405192839262461bcd60e51b845260048401526024830190612c01565b82610ae9613043565b50610ae9613e37565b604051836111b482612d02565b60028252614e3760f01b818301526107a160405192839262461bcd60e51b845260048401526024830190612c01565b3461082f57602036600319011261082f576111fc612af6565b60006101e060405161120d81612ce6565b8281528260208201528260408201528260608201528260808201528260a08201528260c0820152606060e0820152826101008201526060610120820152606061014082015282610160820152606061018082015260606101a0820152826101c0820152015260018060a01b0316600052600360205261128f6040600020613a94565b6040516020815261022081019160018060a01b0381511660208301526020810151151560408301526040810151606083015260608101516080830152608081015160a083015260018060a01b0360a08201511660c083015260018060a01b0360c08201511660e083015260e08101519261020061010084015283518091526020610240840194019060005b8181106113d3575050506101e06113b3839460018060a01b036101008501511661012086015261139c61137a61136461012087015193601f1994858a8303016101408b0152612c01565b61014087015184898303016101608a0152612c01565b61016086015161018088015261018086015183888303016101a0890152612c01565b906101a085015190868303016101c0870152612c01565b6101c08301516001600160a01b0316848301529101516102008301520390f35b825186526020958601959092019160010161131a565b3461082f57600036600319011261082f57600080516020613fa1833981519152546040516001600160a01b039091168152602090f35b3461082f57600036600319011261082f5733600090815260036020526040902080546001600160a01b038116156109e35761145933613ba3565b156114955760ff60a01b1916600160a01b179055337ff8f74f9bb1ed360c36a0bd59e0d8aa5cbdd15bb6e8e86af871f343daf432be22600080a2005b60405162461bcd60e51b815260206004820152600a6024820152694e6f742061637469766560b01b6044820152606490fd5b3461082f57600036600319011261082f576114e0612c26565b600080516020613fa183398151915280546001600160a01b031981169091556000906001600160a01b03167f8be0079c531659141344cd1fd0a4f28419497f9722a3daafe3b4186f6b6457e08280a3005b3461082f5761153f36612b7f565b6001600160a01b039485169391929084156117925761155d33613dc8565b156109d857336000526020956003875260406000209081541615611789576007810180546001600160a01b031916871790556001600160401b039060088101908285116106e7576115b8856115b28454612df1565b84612e42565b60009185601f811160011461171f57600993600091611714575b508660011b906000198860031b1c19161790555b019082116106e757611602826115fc8354612df1565b83612e42565b6000601f831160011461168757917ff920b7832d3774e2ac2efb86fccb411bc92e19a8ea66687764dea93140bdad4a95969791816109d39460009161167c575b508260011b906000198460031b1c19161790555b61166d604051958695604087526040870191612ff2565b91848303908501523396612ff2565b90508801358a611642565b601f1983169082600052886000209160005b8181106116fd5750917ff920b7832d3774e2ac2efb86fccb411bc92e19a8ea66687764dea93140bdad4a9798999391856109d39694106116e3575b5050600182811b019055611656565b890135600019600385901b60f8161c1916905589806116d4565b91928a60018192868c013581550194019201611699565b90508701358b6115d2565b5060008181528a8120909387601f1981165b8d81881061176d57506009965010611753575b5050600186811b0190556115e6565b880135600019600389901b60f8161c191690558a80611744565b838c013585559687019660019094019390920191899150611731565b86610ae9613043565b60405162461bcd60e51b815260206004820152600f60248201526e24b73b30b634b227b832b930ba37b960891b6044820152606490fd5b3461082f57602036600319011261082f576001600160a01b036117ea612af6565b166000526003602052602060ff60406000205460a01c166040519015158152f35b3461082f57602036600319011261082f57611824612af6565b61182c612c26565b6001600160a01b03908116908115610bc357600554826001600160601b0360a01b821617600555167fb2de57cf284062a9a3402f8683281c49d5a6747b1f369d0eec883b83503f3c8d600080a3005b3461082f5760208060031936011261082f57600435904282111561191857336000908152600382526040902080546001600160a01b03161561190f57600a0180548015159081611904575b506118fb5790827fff191d17033fc90a7dae896652cf93df6f261bc4176c000d0e5e21345b139ccb92556040519283523392a2005b50610ae9612f86565b9050831115846118c6565b50610ae9613043565b610ae9612f86565b3461082f57600036600319011261082f5733600090815260036020526040902080546001600160a01b038116156109e35760ff8160a01c161561198e5760ff60a01b19169055337f9f71f687820b75e4208e6fdd2091be151d94465fe4bafd2506bed2b9a430437d600080a2005b60405162461bcd60e51b815260206004820152600a6024820152691b9bdd081c185d5cd95960b21b6044820152606490fd5b3461082f57600036600319011261082f576004546040516001600160a01b039091168152602090f35b3461082f57604036600319011261082f576020611a04612af6565b611a0c612b0c565b9060018060a01b03809116600052600383528060076040600020015416906040519216148152f35b608036600319011261082f576004356001600160401b03811161082f57611a5f903690600401612b52565b906024356001600160401b03811161082f57611a7f903690600401612b52565b9092801580156121b1575b61087b576000546040516325ba6ce560e11b81526001600160a01b0390911690602081600481855afa90811561083c5760009161217f575b50604051636dd5b69d60e01b918282526004820152602081602481865afa90811561083c5760009161214d575b50604435106107c757606435151580612141575b6107b0576040516332c70ad760e21b815290602082600481865afa91821561083c5760009261210d575b50604051918183526004830152602082602481865afa91821561083c576000926120d9575b5060405163c98517c560e01b815290602082600481875afa91821561083c576000926120a4575b509060246020926040519586938492835260048301525afa91821561083c57600092612070575b503410612032573411611ff457336000526003602052604060002092835460018060a01b03811661077657336001600160a01b031991821681178655600786018054831682179055600d860180549092161790556001600160401b0382116106e757611c1c82611c13600c870154612df1565b600c8701612e42565b816000601f8211600114611f8657600091611f7b575b508260011b906000198460031b1c191617600c8501555b6001600160401b0383116106e7578190611c7384611c6a600b880154612df1565b600b8801612e42565b836000601f8211600114611f0a57600091611eff575b508460011b906000198660031b1c191617600b8601555b611cba82611cb16009880154612df1565b60098801612e42565b600090601f8311600114611e8e57600092611e83575b50508160011b916000199060031b1c19161760098301555b611d0281611cf96008850154612df1565b60088501612e42565b600092601f8211600114611e145792819293600092611e09575b50508160011b916000199060031b1c19161760088201555b6044356001820155606435600a82015560038101611d53348254612e89565b9055600060018060a01b03825416600080516020613f81833981519152611d7f6040516109c381612d1d565b0390a360018060a01b03600782015416907f1ab9d0508879cf64270650fc89b30617972d694fd1053946f028860daf125c7c611df060018060a01b03600d840154169260405193845260a06020850152600b611de160a08601600c8401612ef0565b91858303604087015201612ef0565b91604435606082015260643560808201528033930390a3005b013590508380611d1c565b600883016000526020600020906000945b601f1984168610611e6b57600194955083601f19811610611e51575b505050811b016008820155611d34565b0135600019600384901b60f8161c19169055838080611e41565b91602060018192858501358155019301950194611e25565b013590508580611cd0565b909250600985016000526020600020906000935b601f1984168510611ee7576001945083601f19811610611ecd575b505050811b016009830155611ce8565b0135600019600384901b60f8161c19169055858080611ebd565b81810135835560209485019460019093019201611ea2565b905086013587611c89565b9050600b860160005260206000209060005b601f1987168110611f60575085601f19811610611f46575b5050600184811b01600b860155611ca0565b870135600019600387901b60f8161c191690558680611f34565b88820135835585945060019092019160209182019101611f1c565b905081013586611c32565b9050600c850160005260206000209060005b601f1985168110611fdc575083601f19811610611fc2575b5050600182811b01600c850155611c49565b820135600019600385901b60f8161c191690558580611fb0565b90916020600181928587013581550193019101611f98565b6107a160405161200381612d02565b6002815261533360f01b602082015260405191829162461bcd60e51b8352602060048401526024830190612c01565b6107a160405161204181612d02565b6002815261299960f11b602082015260405191829162461bcd60e51b8352602060048401526024830190612c01565b9091506020813d60201161209c575b8161208c60209383612d38565b8101031261082f57519086611ba0565b3d915061207f565b91506020823d6020116120d1575b816120bf60209383612d38565b8101031261082f579051906024611b79565b3d91506120b2565b9091506020813d602011612105575b816120f560209383612d38565b8101031261082f57519087611b52565b3d91506120e8565b9091506020813d602011612139575b8161212960209383612d38565b8101031261082f57519087611b2d565b3d915061211c565b50426064351115611b03565b90506020813d602011612177575b8161216860209383612d38565b8101031261082f575187611aef565b3d915061215b565b90506020813d6020116121a9575b8161219a60209383612d38565b8101031261082f575186611ac2565b3d915061218d565b508115611a8a565b3461082f57600036600319011261082f576121d2613013565b33600052602060038152600260406000200154612444573360005260038152604060002060018060a01b039061220a82825416613dc8565b15612408576003810190815492831592831580946123fb575b156123cc57600090556005820191818354161515806123bf575b6122d7575b50505061228b575b7fb7c918e0e249f999e965cafeb6c664271b3f4317d296461500e71da39f0cbda36000926040519283523392a36001600080516020613fc183398151915255005b600080808084335af161229c613a64565b5061224a5760405162461bcd60e51b815260048101839052600e60248201526d151c985b9cd9995c91985a5b195960921b6044820152606490fd5b6006019492939092916122e986613a15565b9560006040516122f881612d1d565b52805460008255806123a4575b506000526001600160601b0360a01b815416905560005b8551811015612396578360015416906123358188613259565b5191803b1561082f576040516323b872dd60e01b815230600482015233602482015260448101939093526000908390606490829084905af191821561083c5761238292612387575061307f565b61231c565b61239090612cd3565b876110e4565b509291509250838080612242565b6123b990826000528560002090810190612e2b565b87612305565b506006810154151561223d565b60405162461bcd60e51b81526004810187905260076024820152664e6f5374616b6560c81b6044820152606490fd5b5060068301541515612223565b6040518361241582612d02565b6002825261533160f01b818301526107a160405192839262461bcd60e51b845260048401526024830190612c01565b6064906040519062461bcd60e51b82526004820152601160248201527041726269747261746f72576f726b696e6760781b6044820152fd5b3461082f57604036600319011261082f57612495612af6565b60045460243591906001600160a01b039081163303610ce35760ff60055460a01c1615610cd8578116908160005260036020526124d6604060002091613ba3565b15612508576002839101557f43b9442ba3328a37dad0041120b36563dafcdbdb7b200665d8cbb0c44982720c600080a3005b6107a160405161251781612d02565b6002815261413360f01b602082015260405191829162461bcd60e51b8352602060048401526024830190612c01565b3461082f5761255436612b7f565b9390929193336000526020926003845260406000209560018060a01b0380885416156127aa5761258333613dc8565b156127a157600d8801941693846001600160601b0360a01b825416179055600b87016001600160401b03978883116106e7576125c3836115b28454612df1565b60009183601f811160011461273757600c9360009161272c575b508460011b906000198660031b1c19161790555b019683116106e75761260d836126078954612df1565b89612e42565b600096601f841160011461269c579161267c91849361268c957f8e68353cf53df77c6b6993341bb1d784fab04f2f38b2c51654b51de6ce32274e999a600091612691575b508560011b906000198760031b1c19161790555b606060405197889788528701526060860191612ff2565b9083820360408501523396612ff2565b0390a2005b90508a01358b612651565b601f1984169781600052866000209860005b8181106127155750917f8e68353cf53df77c6b6993341bb1d784fab04f2f38b2c51654b51de6ce32274e989961267c94928761268c989795106126fb575b5050600185811b019055612665565b8b0135600019600388901b60f8161c191690558a806126ec565b898301358b556001909a01999188019188016126ae565b90508501358b6125dd565b506000818152888120909385601f1981165b8b8188106127855750600c96501061276b575b5050600184811b0190556125f1565b860135600019600387901b60f8161c191690558a8061275c565b838a013585559687019660019094019390920191879150612749565b85610ae9613061565b85610ae9613043565b3461082f57602036600319011261082f576001600160a01b03806127d5612af6565b1660005260036020526127eb6040600020613a94565b90815116156109e35761090f602091613cfb565b3461082f57602036600319011261082f576004356001600160401b03811161082f5761282f903690600401612b22565b80156107a557336000908152600360205260409020805490916001600160a01b03918216156109e35761286133613dc8565b156109d857600080516020613f81833981519152916128a261288383876132a8565b9461288f848883613505565b61289d86600383015461376d565b61399c565b60015416936109d3604051928392339684612fc2565b3461082f57602036600319011261082f57602061093c6128d6612af6565b613d9b565b3461082f57602036600319011261082f576128f4612af6565b6128fc612c26565b6001600160a01b03908116908115610bc357600454826001600160601b0360a01b821617600455167f960d9803c7ca631d3232d16e9971c7fd8e82d5f7ff7c2824c7b29dcab8a37d2e600080a3005b3461082f57600036600319011261082f57602060405160008152f35b3461082f57600036600319011261082f576005546040516001600160a01b039091168152602090f35b3461082f5760208060031936011261082f576000546325ba6ce560e11b835260048035936001600160a01b03928316918490829081855afa801561083c578491600091612ac7575b50602460405180948193636dd5b69d60e01b835260048301525afa90811561083c57600091612a9a575b508310612a695733600052600382526040600020908154161561190f57612a2833613dc8565b15612a6057908260017fc073301ddf8865aa8a0ac12d7b49f92e150867ffd6de12ce421d1ee62653dfc79301556040519283523392a2005b50610ae9613061565b60405162461bcd60e51b8152600481018390526009602482015268466565546f6f4c6f7760b81b6044820152606490fd5b90508281813d8311612ac0575b612ab18183612d38565b8101031261082f575184612a02565b503d612aa7565b82819392503d8311612aef575b612ade8183612d38565b8101031261082f57839051866129d8565b503d612ad4565b600435906001600160a01b038216820361082f57565b602435906001600160a01b038216820361082f57565b9181601f8401121561082f578235916001600160401b03831161082f576020808501948460051b01011161082f57565b9181601f8401121561082f578235916001600160401b03831161082f576020838186019501011161082f57565b90606060031983011261082f576004356001600160a01b038116810361082f57916001600160401b039160243583811161082f5782612bc091600401612b52565b9390939260443591821161082f57612bda91600401612b52565b9091565b60005b838110612bf15750506000910152565b8181015183820152602001612be1565b90602091612c1a81518092818552858086019101612bde565b601f01601f1916010190565b600080516020613fa1833981519152546001600160a01b03163303612c4757565b60405163118cdaa760e01b8152336004820152602490fd5b6001600160a01b03908116908115612cba57600080516020613fa183398151915280546001600160a01b031981168417909155167f8be0079c531659141344cd1fd0a4f28419497f9722a3daafe3b4186f6b6457e0600080a3565b604051631e4fbdf760e01b815260006004820152602490fd5b6001600160401b0381116106e757604052565b61020081019081106001600160401b038211176106e757604052565b604081019081106001600160401b038211176106e757604052565b602081019081106001600160401b038211176106e757604052565b90601f801991011681019081106001600160401b038211176106e757604052565b6001600160401b0381116106e757601f01601f191660200190565b60405190612d8182612d02565b600282526105a360f41b6020830152565b60ff7ff0c57e16840df040f15088dc2f81fe391c3923bec73e23a9662efc9c229c6a005460401c1615612dc157565b604051631afcd79f60e31b8152600490fd5b60405190612de082612d02565b6002825261413160f01b6020830152565b90600182811c92168015612e21575b6020831014612e0b57565b634e487b7160e01b600052602260045260246000fd5b91607f1691612e00565b818110612e36575050565b60008155600101612e2b565b9190601f8111612e5157505050565b612e7d926000526020600020906020601f840160051c83019310612e7f575b601f0160051c0190612e2b565b565b9091508190612e70565b91908201809211612e9657565b634e487b7160e01b600052601160045260246000fd5b9060609160408101918152602092816040858094015285518094520193019160005b828110612edc575050505090565b835185529381019392810192600101612ece565b9060009291805491612f0183612df1565b918282526001938481169081600014612f635750600114612f23575b50505050565b90919394506000526020928360002092846000945b838610612f4f575050505001019038808080612f1d565b805485870183015294019385908201612f38565b9294505050602093945060ff191683830152151560051b01019038808080612f1d565b60405190612f9382612d02565b6002825261543360f01b6020830152565b60405190612fb182612d02565b6002825261453560f01b6020830152565b90815260406020820181905281018390526001600160fb1b03831161082f5760609260051b809284830137010190565b908060209392818452848401376000828201840152601f01601f1916010190565b600080516020613fc183398151915260028154146130315760029055565b604051633ee5aeb560e01b8152600490fd5b6040519061305082612d02565b6002825261209960f11b6020830152565b6040519061306e82612d02565b6002825261043360f41b6020830152565b6000198114612e965760010190565b919081101561309e5760051b0190565b634e487b7160e01b600052603260045260246000fd5b519063ffffffff8216820361082f57565b9190916040808285031261082f578151936020808401516001600160401b039485821161082f57019160808382031261082f5783519460808601868110828211176106e75785528351865261311b8385016130b4565b838701528484015160ff8116810361082f5785870152606093848101519082821161082f57019180601f8401121561082f578251958287116106e7578660051b9281519761316b8786018a612d38565b885285808901948601019483861161082f57868101945b86861061319757505050505050505082015290565b855183811161082f5782019089601f19838803011261082f578451908a8201828110868211176132445786528983015185811161082f57830187603f8201121561082f578a810151906131e982612d59565b916131f689519384612d38565b8083528989828401011161082f5761321391898e85019101612bde565b82528583015191858316830361082f576132358c8c95869586850152016130b4565b87820152815201950194613182565b60246000634e487b7160e01b81526041600452fd5b805182101561309e5760209160051b010190565b6060906020815260086020820152674f766572666c6f7760c01b60408201520190565b805482101561309e5760005260206000200190600090565b6002546000926001600160a01b039091169190835b8181106133f5575050503360005260036020908082526040928360002092600660009401938454945b8582106132f7575050505050505090565b90929496919395976133098483613290565b905490881b1c9589519863d5ec2d8360e01b8a52600497888b015260008a602481855afa998a156133ea5760009a6133c5575b506000945b60608b015180518710156133a5576001600160401b03896133658961336e94613259565b510151166134d6565b91901561338e576133889161338291612e89565b9561307f565b94613341565b8c5162461bcd60e51b8152806107a1818d0161326d565b509950949096506133b9919997935061307f565b909492949391936132e6565b6133e1919a3d8091833e6133d98183612d38565b8101906130c5565b9050983861333c565b8b513d6000823e3d90fd5b9091929361340482848661308e565b359260409687519663d5ec2d8360e01b885260049586890152600088602481845afa9788156134cb576000986134ae575b506000935b60608901518051861015613496576001600160401b0360206133658861345f94613259565b91901561347f576134799161347391612e89565b9461307f565b9361343a565b8a5162461bcd60e51b8152806107a1818b0161326d565b5097509594509650916134a9915061307f565b6132bd565b6134c291983d8091833e6133d98183612d38565b90509638613435565b89513d6000823e3d90fd5b9081156134fc576402540be400808302928304036134f45760019190565b600091508190565b60019150600090565b909160018060a01b03926001848154169260409485519563e985e9c560e01b875260049733898901528780602498308a830152602091829160449485915afa998a156137625760009a613729575b5060005b86811061356c57505050505050505050505050565b88828d8c8b8f8c8a889215613675575b9650505092505050541661359182898c61308e565b3590803b1561082f576135dd916000918f838a518096819582946323b872dd60e01b845230903390850160409194939294606082019560018060a01b0380921683521660208201520152565b03925af1801561366a5761365b575b50600686016135fc82898c61308e565b3590805490680100000000000000008210156136465781613626918c613641969594018155613290565b819291549060031b91821b91600019901b191617905561307f565b613557565b508b60418f634e487b7160e01b600052526000fd5b61366490612cd3565b386135ec565b86513d6000823e3d90fd5b6136819354169661308e565b35918951948593849263020604bf60e21b84528301525afa90811561366a576000916136ec575b5084309116036136bf5788828d8c8b858c8a61357c565b845162461bcd60e51b8152808d018390526009818c0152684e6f417070726f766560b81b81850152606490fd5b8381813d8311613722575b6137018183612d38565b8101031261371e575190858216820361371b5750386136a8565b80fd5b5080fd5b503d6136f7565b8181819c933d831161375b575b6137408183612d38565b8101031261371e575190811515820361371b57509838613553565b503d613736565b84513d6000823e3d90fd5b9061377791612e89565b60008054604080516332c70ad760e21b815260209460049492939091906001600160a01b031686828781845afa91821561399257849261395f575b50845191636dd5b69d60e01b90818452878401528783602481855afa928315613955578593613922575b50855163c98517c560e01b81529088828981865afa918215613918579089929187926138e3575b506024908851948593849283528b8301525afa9384156138d85780946138a6575b5050811061386d571161383657505050565b80516107a19161384582612d02565b6002825261533360f01b858301525193849362461bcd60e51b85528401526024830190612c01565b505080516107a19161387e82612d02565b6002825261299960f11b858301525193849362461bcd60e51b85528401526024830190612c01565b909193508682813d83116138d1575b6138bf8183612d38565b8101031261371b575051913880613824565b503d6138b5565b8551903d90823e3d90fd5b8092508391933d8311613911575b6138fb8183612d38565b8101031261390d575188916024613803565b8580fd5b503d6138f1565b87513d88823e3d90fd5b9092508781813d831161394e575b61393a8183612d38565b8101031261394a575191386137dc565b8480fd5b503d613930565b86513d87823e3d90fd5b9091508681813d831161398b575b6139778183612d38565b81010312613987575190386137b2565b8380fd5b503d61396d565b85513d86823e3d90fd5b60050180546001600160a01b03808216806139c8575060015416906001600160601b0360a01b16179055565b9250905060015416036139d757565b6107a16040516139e681612d02565b6002815261249b60f11b602082015260405191829162461bcd60e51b8352602060048401526024830190612c01565b9060405191828154918282526020928383019160005283600020936000905b828210613a4a57505050612e7d92500383612d38565b855484526001958601958895509381019390910190613a34565b3d15613a8f573d90613a7582612d59565b91613a836040519384612d38565b82523d6000602084013e565b606090565b906040916101e0600e845192613aa984612ce6565b839581549060ff60018060a01b0392838116885260a01c161515602087015260018301548187015260028301546060870152600383015460808701528160048401541660a08701528160058401541660c0870152613b0960068401613a15565b60e0870152816007840154166101008701528051613b3581613b2e8160088801612ef0565b0382612d38565b6101208701528051613b4e81613b2e8160098801612ef0565b610140870152600a8301546101608701528051613b7281613b2e81600b8801612ef0565b61018087015251613b8a81613b2e81600c8701612ef0565b6101a0860152600d820154166101c08501520154910152565b60018060a01b03806000921682526020600381526040832090600a8201548015159081613cf0575b50613cea57815492613bde818516613d9b565b908554166040516332c70ad760e21b81528381600481855afa908115613cdf579084918891613cac575b50602460405180948193636dd5b69d60e01b835260048301525afa928315613ca1578693613c71575b505010613c6c57613c49613c4482613a94565b613cfb565b613c6c5760020154613c685760a01c60ff16613c655750600190565b90565b5090565b505090565b9080929350813d8311613c9a575b613c898183612d38565b8101031261394a5751903880613c31565b503d613c7f565b6040513d88823e3d90fd5b82819392503d8311613cd8575b613cc38183612d38565b81010312613cd45783905138613c08565b8680fd5b503d613cb9565b6040513d89823e3d90fd5b50505090565b905042101538613bcb565b60008054604051632f672f1960e11b8152919290602090839060049082906001600160a01b03165afa918215613d90578392613d57575b506101e00151908115613c6c57613d4891612e89565b4210613d515790565b50600190565b9091506020813d8211613d88575b81613d7260209383612d38565b81010312613d845751906101e0613d32565b8280fd5b3d9150613d65565b6040513d85823e3d90fd5b613c659060018060a01b03811660005260036020526003613dc0604060002092613e55565b910154612e89565b6001600160a01b039081166000908152600360205260409020613dea90613a94565b9081511615613e13576060810151613e1357613e0590613cfb565b613e0e57600190565b600090565b50600090565b60405190613e2682612d02565b60028252614e3160f01b6020830152565b60405190613e4482612d02565b60028252614e3560f01b6020830152565b60018060a01b03806000921682526003916020928084526040928383209483956006859101805493600254165b848310613e9457505050505050505090565b613ea783839496989a9597999b93613290565b905490891b1c968a519963d5ec2d8360e01b8b52600498898c0152808b602481865afa9a8b15613f7457819b613f56575b5080955b60608c01518051881015613f37576001600160401b038a6133658a613f0094613259565b919015613f2057613f1a91613f1491612e89565b9661307f565b95613edc565b8d5162461bcd60e51b8152806107a1818e0161326d565b509a50945094613f4d919750999792919961307f565b91949295613e82565b613f6b919b503d808d833e6133d98183612d38565b90509938613ed8565b508b51903d90823e3d90fdfe03666b063f075e29b3926eb82a4d1f7746231db3395483f453e477b56531038e9016d09d72d40fdae2fd8ceac6b6234c7706214fd39c1cd1e609a0528c1993009b779b17422d0df92223018b32b4d1fa46e071723d6817e2486d003becc55f00a2646970667358221220092fc152e776d825483597c9f145563697b4002b8826ec4671f33f0a20c887bf64736f6c63430008140033",
  "linkReferences": {},
  "deployedLinkReferences": {}
}