{
  "_format": "hh-sol-artifact-1",
  "contractName": "ArbitratorManager",
  "sourceName": "contracts/core/ArbitratorManager.sol",
  "abi": [
    {
      "inputs": [],
      "stateMutability": "nonpayable",
      "type": "constructor"
    },
    {
      "inputs": [],
      "name": "InvalidInitialization",
      "type": "error"
    },
    {
      "inputs": [],
      "name": "NotInitializing",
      "type": "error"
    },
    {
      "inputs": [
        {
          "internalType": "address",
          "name": "owner",
          "type": "address"
        }
      ],
      "name": "OwnableInvalidOwner",
      "type": "error"
    },
    {
      "inputs": [
        {
          "internalType": "address",
          "name": "account",
          "type": "address"
        }
      ],
      "name": "OwnableUnauthorizedAccount",
      "type": "error"
    },
    {
      "inputs": [],
      "name": "ReentrancyGuardReentrantCall",
      "type": "error"
    },
    {
      "anonymous": false,
      "inputs": [
        {
          "indexed": true,
          "internalType": "address",
          "name": "arbitrator",
          "type": "address"
        },
        {
          "indexed": false,
          "internalType": "uint256",
          "name": "feeRate",
          "type": "uint256"
        },
        {
          "indexed": false,
          "internalType": "uint256",
          "name": "deadline",
          "type": "uint256"
        },
        {
          "indexed": false,
          "internalType": "enum DataTypes.ArbitratorStatus",
          "name": "status",
          "type": "uint8"
        }
      ],
      "name": "ArbitratorParamsSet",
      "type": "event"
    },
    {
      "anonymous": false,
      "inputs": [
        {
          "indexed": true,
          "internalType": "address",
          "name": "arbitrator",
          "type": "address"
        },
        {
          "indexed": false,
          "internalType": "enum DataTypes.ArbitratorStatus",
          "name": "status",
          "type": "uint8"
        }
      ],
      "name": "ArbitratorPaused",
      "type": "event"
    },
    {
      "anonymous": false,
      "inputs": [
        {
          "indexed": true,
          "internalType": "address",
          "name": "arbitrator",
          "type": "address"
        },
        {
          "indexed": true,
          "internalType": "address",
          "name": "operator",
          "type": "address"
        },
        {
          "indexed": false,
          "internalType": "address",
          "name": "revenueAddress",
          "type": "address"
        },
        {
          "indexed": false,
          "internalType": "string",
          "name": "btcAddress",
          "type": "string"
        },
        {
          "indexed": false,
          "internalType": "bytes",
          "name": "btcPubKey",
          "type": "bytes"
        },
        {
          "indexed": false,
          "internalType": "uint256",
          "name": "feeRate",
          "type": "uint256"
        },
        {
          "indexed": false,
          "internalType": "uint256",
          "name": "deadline",
          "type": "uint256"
        }
      ],
      "name": "ArbitratorRegistered",
      "type": "event"
    },
    {
      "anonymous": false,
      "inputs": [
        {
          "indexed": true,
          "internalType": "address",
          "name": "arbitrator",
          "type": "address"
        },
        {
          "indexed": false,
          "internalType": "enum DataTypes.ArbitratorStatus",
          "name": "status",
          "type": "uint8"
        }
      ],
      "name": "ArbitratorStatusChanged",
      "type": "event"
    },
    {
      "anonymous": false,
      "inputs": [
        {
          "indexed": true,
          "internalType": "address",
          "name": "arbitrator",
          "type": "address"
        },
        {
          "indexed": false,
          "internalType": "enum DataTypes.ArbitratorStatus",
          "name": "status",
          "type": "uint8"
        }
      ],
      "name": "ArbitratorUnpaused",
      "type": "event"
    },
    {
      "anonymous": false,
      "inputs": [
        {
          "indexed": true,
          "internalType": "address",
          "name": "oldManager",
          "type": "address"
        },
        {
          "indexed": true,
          "internalType": "address",
          "name": "newManager",
          "type": "address"
        }
      ],
      "name": "CompensationManagerUpdated",
      "type": "event"
    },
    {
      "anonymous": false,
      "inputs": [
        {
          "indexed": false,
          "internalType": "uint64",
          "name": "version",
          "type": "uint64"
        }
      ],
      "name": "Initialized",
      "type": "event"
    },
    {
      "anonymous": false,
      "inputs": [
        {
          "indexed": true,
          "internalType": "address",
          "name": "transactionManager",
          "type": "address"
        },
        {
          "indexed": true,
          "internalType": "address",
          "name": "compensationManager",
          "type": "address"
        }
      ],
      "name": "InitializedManager",
      "type": "event"
    },
    {
      "anonymous": false,
      "inputs": [
        {
          "indexed": true,
          "internalType": "address",
          "name": "arbitrator",
          "type": "address"
        },
        {
          "indexed": true,
          "internalType": "address",
          "name": "operator",
          "type": "address"
        },
        {
          "indexed": false,
          "internalType": "bytes",
          "name": "btcPubKey",
          "type": "bytes"
        },
        {
          "indexed": false,
          "internalType": "string",
          "name": "btcAddress",
          "type": "string"
        }
      ],
      "name": "OperatorSet",
      "type": "event"
    },
    {
      "anonymous": false,
      "inputs": [
        {
          "indexed": true,
          "internalType": "address",
          "name": "previousOwner",
          "type": "address"
        },
        {
          "indexed": true,
          "internalType": "address",
          "name": "newOwner",
          "type": "address"
        }
      ],
      "name": "OwnershipTransferred",
      "type": "event"
    },
    {
      "anonymous": false,
      "inputs": [
        {
          "indexed": true,
          "internalType": "address",
          "name": "arbitrator",
          "type": "address"
        },
        {
          "indexed": false,
          "internalType": "address",
          "name": "ethAddress",
          "type": "address"
        },
        {
          "indexed": false,
          "internalType": "bytes",
          "name": "btcPubKey",
          "type": "bytes"
        },
        {
          "indexed": false,
          "internalType": "string",
          "name": "btcAddress",
          "type": "string"
        }
      ],
      "name": "RevenueAddressesSet",
      "type": "event"
    },
    {
      "anonymous": false,
      "inputs": [
        {
          "indexed": true,
          "internalType": "address",
          "name": "arbitrator",
          "type": "address"
        },
        {
          "indexed": true,
          "internalType": "address",
          "name": "assetAddress",
          "type": "address"
        },
        {
          "indexed": false,
          "internalType": "uint256",
          "name": "amount",
          "type": "uint256"
        },
        {
          "indexed": false,
          "internalType": "uint256[]",
          "name": "nftTokenIds",
          "type": "uint256[]"
        },
        {
          "indexed": false,
          "internalType": "enum DataTypes.ArbitratorStatus",
          "name": "status",
          "type": "uint8"
        }
      ],
      "name": "StakeAdded",
      "type": "event"
    },
    {
      "anonymous": false,
      "inputs": [
        {
          "indexed": true,
          "internalType": "address",
          "name": "arbitrator",
          "type": "address"
        },
        {
          "indexed": true,
          "internalType": "address",
          "name": "assetAddress",
          "type": "address"
        },
        {
          "indexed": false,
          "internalType": "uint256",
          "name": "amount",
          "type": "uint256"
        }
      ],
      "name": "StakeWithdrawn",
      "type": "event"
    },
    {
      "anonymous": false,
      "inputs": [
        {
          "indexed": true,
          "internalType": "address",
          "name": "oldManager",
          "type": "address"
        },
        {
          "indexed": true,
          "internalType": "address",
          "name": "newManager",
          "type": "address"
        }
      ],
      "name": "TransactionManagerUpdated",
      "type": "event"
    },
    {
      "inputs": [
        {
          "internalType": "address",
          "name": "arbitrator",
          "type": "address"
        }
      ],
      "name": "canUnStake",
      "outputs": [
        {
          "internalType": "bool",
          "name": "",
          "type": "bool"
        }
      ],
      "stateMutability": "view",
      "type": "function"
    },
    {
      "inputs": [],
      "name": "compensationManager",
      "outputs": [
        {
          "internalType": "address",
          "name": "",
          "type": "address"
        }
      ],
      "stateMutability": "view",
      "type": "function"
    },
    {
      "inputs": [],
      "name": "configManager",
      "outputs": [
        {
          "internalType": "contract ConfigManager",
          "name": "",
          "type": "address"
        }
      ],
      "stateMutability": "view",
      "type": "function"
    },
    {
      "inputs": [
        {
          "internalType": "address",
          "name": "arbitrator",
          "type": "address"
        }
      ],
      "name": "frozenArbitrator",
      "outputs": [],
      "stateMutability": "nonpayable",
      "type": "function"
    },
    {
      "inputs": [
        {
          "internalType": "address",
          "name": "arbitratorAddress",
          "type": "address"
        }
      ],
      "name": "getArbitratorInfo",
      "outputs": [
        {
          "components": [
            {
              "internalType": "address",
              "name": "arbitrator",
              "type": "address"
            },
            {
              "internalType": "uint256",
              "name": "currentFeeRate",
              "type": "uint256"
            },
            {
              "internalType": "uint256",
              "name": "pendingFeeRate",
              "type": "uint256"
            },
            {
              "internalType": "enum DataTypes.ArbitratorStatus",
              "name": "status",
              "type": "uint8"
            },
            {
              "internalType": "bytes32",
              "name": "activeTransactionId",
              "type": "bytes32"
            },
            {
              "internalType": "uint256",
              "name": "ethAmount",
              "type": "uint256"
            },
            {
              "internalType": "address",
              "name": "erc20Token",
              "type": "address"
            },
            {
              "internalType": "address",
              "name": "nftContract",
              "type": "address"
            },
            {
              "internalType": "uint256[]",
              "name": "nftTokenIds",
              "type": "uint256[]"
            },
            {
              "internalType": "address",
              "name": "operator",
              "type": "address"
            },
            {
              "internalType": "bytes",
              "name": "operatorBtcPubKey",
              "type": "bytes"
            },
            {
              "internalType": "string",
              "name": "operatorBtcAddress",
              "type": "string"
            },
            {
              "internalType": "uint256",
              "name": "deadLine",
              "type": "uint256"
            },
            {
              "internalType": "bytes",
              "name": "revenueBtcPubKey",
              "type": "bytes"
            },
            {
              "internalType": "string",
              "name": "revenueBtcAddress",
              "type": "string"
            },
            {
              "internalType": "address",
              "name": "revenueETHAddress",
              "type": "address"
            },
            {
              "internalType": "uint256",
              "name": "lastSubmittedWorkTime",
              "type": "uint256"
            }
          ],
          "internalType": "struct DataTypes.ArbitratorInfo",
          "name": "",
          "type": "tuple"
        }
      ],
      "stateMutability": "view",
      "type": "function"
    },
    {
      "inputs": [
        {
          "internalType": "address",
          "name": "arbitrator",
          "type": "address"
        }
      ],
      "name": "getArbitratorStatus",
      "outputs": [
        {
          "internalType": "enum DataTypes.ArbitratorStatus",
          "name": "",
          "type": "uint8"
        }
      ],
      "stateMutability": "view",
      "type": "function"
    },
    {
      "inputs": [
        {
          "internalType": "address",
          "name": "arbitrator",
          "type": "address"
        }
      ],
      "name": "getAvailableStake",
      "outputs": [
        {
          "internalType": "uint256",
          "name": "",
          "type": "uint256"
        }
      ],
      "stateMutability": "view",
      "type": "function"
    },
    {
      "inputs": [
        {
          "internalType": "address",
          "name": "arbitrator",
          "type": "address"
        }
      ],
      "name": "getTotalNFTStakeValue",
      "outputs": [
        {
          "internalType": "uint256",
          "name": "",
          "type": "uint256"
        }
      ],
      "stateMutability": "view",
      "type": "function"
    },
    {
      "inputs": [
        {
          "internalType": "address",
          "name": "_transactionManager",
          "type": "address"
        },
        {
          "internalType": "address",
          "name": "_compensationManager",
          "type": "address"
        }
      ],
      "name": "initTransactionAndCompensationManager",
      "outputs": [],
      "stateMutability": "nonpayable",
      "type": "function"
    },
    {
      "inputs": [
        {
          "internalType": "address",
          "name": "_configManager",
          "type": "address"
        },
        {
          "internalType": "address",
          "name": "_nftContract",
          "type": "address"
        },
        {
          "internalType": "address",
          "name": "_nftInfo",
          "type": "address"
        }
      ],
      "name": "initialize",
      "outputs": [],
      "stateMutability": "nonpayable",
      "type": "function"
    },
    {
      "inputs": [
        {
          "internalType": "address",
          "name": "arbitratorAddress",
          "type": "address"
        }
      ],
      "name": "isActiveArbitrator",
      "outputs": [
        {
          "internalType": "bool",
          "name": "",
          "type": "bool"
        }
      ],
      "stateMutability": "view",
      "type": "function"
    },
    {
      "inputs": [
        {
          "internalType": "address",
          "name": "arbitrator",
          "type": "address"
        }
      ],
      "name": "isFrozenStatus",
      "outputs": [
        {
          "internalType": "bool",
          "name": "",
          "type": "bool"
        }
      ],
      "stateMutability": "view",
      "type": "function"
    },
    {
      "inputs": [
        {
          "internalType": "address",
          "name": "arbitrator",
          "type": "address"
        },
        {
          "internalType": "address",
          "name": "operator",
          "type": "address"
        }
      ],
      "name": "isOperatorOf",
      "outputs": [
        {
          "internalType": "bool",
          "name": "",
          "type": "bool"
        }
      ],
      "stateMutability": "view",
      "type": "function"
    },
    {
      "inputs": [
        {
          "internalType": "address",
          "name": "arbitrator",
          "type": "address"
        }
      ],
      "name": "isPaused",
      "outputs": [
        {
          "internalType": "bool",
          "name": "",
          "type": "bool"
        }
      ],
      "stateMutability": "view",
      "type": "function"
    },
    {
      "inputs": [],
      "name": "nftContract",
      "outputs": [
        {
          "internalType": "contract IERC721",
          "name": "",
          "type": "address"
        }
      ],
      "stateMutability": "view",
      "type": "function"
    },
    {
      "inputs": [],
      "name": "nftInfo",
      "outputs": [
        {
          "internalType": "contract IBNFTInfo",
          "name": "",
          "type": "address"
        }
      ],
      "stateMutability": "view",
      "type": "function"
    },
    {
      "inputs": [],
      "name": "owner",
      "outputs": [
        {
          "internalType": "address",
          "name": "",
          "type": "address"
        }
      ],
      "stateMutability": "view",
      "type": "function"
    },
    {
      "inputs": [],
      "name": "pause",
      "outputs": [],
      "stateMutability": "nonpayable",
      "type": "function"
    },
    {
      "inputs": [
        {
          "internalType": "string",
          "name": "defaultBtcAddress",
          "type": "string"
        },
        {
          "internalType": "bytes",
          "name": "defaultBtcPubKey",
          "type": "bytes"
        },
        {
          "internalType": "uint256",
          "name": "feeRate",
          "type": "uint256"
        },
        {
          "internalType": "uint256",
          "name": "deadline",
          "type": "uint256"
        }
      ],
      "name": "registerArbitratorByStakeETH",
      "outputs": [],
      "stateMutability": "payable",
      "type": "function"
    },
    {
      "inputs": [
        {
          "internalType": "uint256[]",
          "name": "tokenIds",
          "type": "uint256[]"
        },
        {
          "internalType": "string",
          "name": "defaultBtcAddress",
          "type": "string"
        },
        {
          "internalType": "bytes",
          "name": "defaultBtcPubKey",
          "type": "bytes"
        },
        {
          "internalType": "uint256",
          "name": "feeRate",
          "type": "uint256"
        },
        {
          "internalType": "uint256",
          "name": "deadline",
          "type": "uint256"
        }
      ],
      "name": "registerArbitratorByStakeNFT",
      "outputs": [],
      "stateMutability": "nonpayable",
      "type": "function"
    },
    {
      "inputs": [
        {
          "internalType": "address",
          "name": "arbitrator",
          "type": "address"
        },
        {
          "internalType": "bytes32",
          "name": "transactionId",
          "type": "bytes32"
        }
      ],
      "name": "releaseArbitrator",
      "outputs": [],
      "stateMutability": "nonpayable",
      "type": "function"
    },
    {
      "inputs": [],
      "name": "renounceOwnership",
      "outputs": [],
      "stateMutability": "nonpayable",
      "type": "function"
    },
    {
      "inputs": [
        {
          "internalType": "uint256",
          "name": "feeRate",
          "type": "uint256"
        },
        {
          "internalType": "uint256",
          "name": "deadline",
          "type": "uint256"
        }
      ],
      "name": "setArbitratorParams",
      "outputs": [],
      "stateMutability": "nonpayable",
      "type": "function"
    },
    {
      "inputs": [
        {
          "internalType": "address",
          "name": "arbitrator",
          "type": "address"
        },
        {
          "internalType": "bytes32",
          "name": "transactionId",
          "type": "bytes32"
        }
      ],
      "name": "setArbitratorWorking",
      "outputs": [],
      "stateMutability": "nonpayable",
      "type": "function"
    },
    {
      "inputs": [
        {
          "internalType": "address",
          "name": "_compensationManager",
          "type": "address"
        }
      ],
      "name": "setCompensationManager",
      "outputs": [],
      "stateMutability": "nonpayable",
      "type": "function"
    },
    {
      "inputs": [
        {
          "internalType": "address",
          "name": "operator",
          "type": "address"
        },
        {
          "internalType": "bytes",
          "name": "btcPubKey",
          "type": "bytes"
        },
        {
          "internalType": "string",
          "name": "btcAddress",
          "type": "string"
        }
      ],
      "name": "setOperator",
      "outputs": [],
      "stateMutability": "nonpayable",
      "type": "function"
    },
    {
      "inputs": [
        {
          "internalType": "address",
          "name": "ethAddress",
          "type": "address"
        },
        {
          "internalType": "bytes",
          "name": "btcPubKey",
          "type": "bytes"
        },
        {
          "internalType": "string",
          "name": "btcAddress",
          "type": "string"
        }
      ],
      "name": "setRevenueAddresses",
      "outputs": [],
      "stateMutability": "nonpayable",
      "type": "function"
    },
    {
      "inputs": [
        {
          "internalType": "address",
          "name": "_transactionManager",
          "type": "address"
        }
      ],
      "name": "setTransactionManager",
      "outputs": [],
      "stateMutability": "nonpayable",
      "type": "function"
    },
    {
      "inputs": [],
      "name": "stakeETH",
      "outputs": [],
      "stateMutability": "payable",
      "type": "function"
    },
    {
      "inputs": [
        {
          "internalType": "uint256[]",
          "name": "tokenIds",
          "type": "uint256[]"
        }
      ],
      "name": "stakeNFT",
      "outputs": [],
      "stateMutability": "nonpayable",
      "type": "function"
    },
    {
      "inputs": [
        {
          "internalType": "address",
          "name": "arbitrator",
          "type": "address"
        }
      ],
      "name": "terminateArbitratorWithSlash",
      "outputs": [],
      "stateMutability": "nonpayable",
      "type": "function"
    },
    {
      "inputs": [],
      "name": "transactionManager",
      "outputs": [
        {
          "internalType": "address",
          "name": "",
          "type": "address"
        }
      ],
      "stateMutability": "view",
      "type": "function"
    },
    {
      "inputs": [
        {
          "internalType": "address",
          "name": "newOwner",
          "type": "address"
        }
      ],
      "name": "transferOwnership",
      "outputs": [],
      "stateMutability": "nonpayable",
      "type": "function"
    },
    {
      "inputs": [],
      "name": "unpause",
      "outputs": [],
      "stateMutability": "nonpayable",
      "type": "function"
    },
    {
      "inputs": [],
      "name": "unstake",
      "outputs": [],
      "stateMutability": "nonpayable",
      "type": "function"
    },
    {
      "inputs": [],
      "name": "zeroAddress",
      "outputs": [
        {
          "internalType": "address",
          "name": "",
          "type": "address"
        }
      ],
      "stateMutability": "view",
      "type": "function"
    }
  ],
  "bytecode": "0x60806040523480156200001157600080fd5b506200001c62000022565b620000d6565b7ff0c57e16840df040f15088dc2f81fe391c3923bec73e23a9662efc9c229c6a00805468010000000000000000900460ff1615620000735760405163f92ee8a960e01b815260040160405180910390fd5b80546001600160401b0390811614620000d35780546001600160401b0319166001600160401b0390811782556040519081527fc7f505b2f371ae2175ee4913f4499e1f2633a7b5936321eed1cdaeb6115181d29060200160405180910390a15b50565b615ad180620000e66000396000f3fe6080604052600436106101cf5760003560e01c80637cacabef116100f8578063cedb588b11610090578063cedb588b14610535578063d2b6f74b14610555578063d3f414e014610575578063d56d229d14610595578063dceb986d146105b5578063e25268d2146105bd578063e2b4efb8146105dd578063f2fde38b146105fd578063f3724d181461061d57600080fd5b80637cacabef146104115780638456cb5914610431578063888d8fd5146104465780638da5cb5b1461047357806399056c3c14610488578063998b2fd8146104b5578063b553fe1e146104d5578063c0c53b8b146104f5578063ca0ab0751461051557600080fd5b806337e406e91161016b57806337e406e91461031457806339c25e2c146103275780633b716452146103475780633f4ba83a146103675780634476a6601461037c5780635b14f1831461039c578063654b4e83146103bc5780636a65f2fd146103dc578063715018a6146103fc57600080fd5b80630559b877146101d45780630930907b1461020a5780630b1fa61c1461021f57806314f6b19014610241578063182c57441461026f578063291112511461028f57806329a3f203146102bf5780632b2d37da146102df5780632def6620146102ff575b600080fd5b3480156101e057600080fd5b506005546101f4906001600160a01b031681565b6040516102019190614cf3565b60405180910390f35b34801561021657600080fd5b506101f4600081565b34801561022b57600080fd5b5061023f61023a366004614d23565b61063d565b005b34801561024d57600080fd5b5061026161025c366004614d23565b6106e8565b604051908152602001610201565b34801561027b57600080fd5b5061023f61028a366004614d89565b610724565b34801561029b57600080fd5b506102af6102aa366004614d23565b610c84565b6040519015158152602001610201565b3480156102cb57600080fd5b5061023f6102da366004614e0b565b611074565b3480156102eb57600080fd5b5061023f6102fa366004614e8b565b611159565b34801561030b57600080fd5b5061023f611318565b61023f610322366004614eb5565b6116d3565b34801561033357600080fd5b506102af610342366004614f32565b611904565b34801561035357600080fd5b506004546101f4906001600160a01b031681565b34801561037357600080fd5b5061023f61192e565b34801561038857600080fd5b5061023f610397366004614d23565b611a56565b3480156103a857600080fd5b506102af6103b7366004614d23565b611af8565b3480156103c857600080fd5b5061023f6103d7366004614e0b565b611b32565b3480156103e857600080fd5b5061023f6103f7366004614f65565b611c67565b34801561040857600080fd5b5061023f611fc0565b34801561041d57600080fd5b506102af61042c366004614d23565b611fd2565b34801561043d57600080fd5b5061023f6123be565b34801561045257600080fd5b50610466610461366004614d23565b6124de565b6040516102019190614fbf565b34801561047f57600080fd5b506101f4612960565b34801561049457600080fd5b506104a86104a3366004614d23565b61297b565b6040516102019190615058565b3480156104c157600080fd5b5061023f6104d0366004614d23565b612d98565b3480156104e157600080fd5b506002546101f4906001600160a01b031681565b34801561050157600080fd5b5061023f6105103660046151ba565b613100565b34801561052157600080fd5b506000546101f4906001600160a01b031681565b34801561054157600080fd5b5061023f610550366004614e8b565b613319565b34801561056157600080fd5b5061023f610570366004614f32565b613462565b34801561058157600080fd5b5061023f610590366004614d23565b6135b9565b3480156105a157600080fd5b506001546101f4906001600160a01b031681565b61023f61376c565b3480156105c957600080fd5b506102616105d8366004614d23565b61395b565b3480156105e957600080fd5b506102af6105f8366004614d23565b613aa5565b34801561060957600080fd5b5061023f610618366004614d23565b613ed3565b34801561062957600080fd5b5061023f6106383660046151fd565b613f11565b6106456141c8565b6001600160a01b03811661069657604080518082018252600c81526b5a65726f206164647265737360a01b6020820152905162461bcd60e51b815261068d91906004016152a5565b60405180910390fd5b600480546001600160a01b038381166001600160a01b0319831681179093556040519116919082907f960d9803c7ca631d3232d16e9971c7fd8e82d5f7ff7c2824c7b29dcab8a37d2e90600090a35050565b6001600160a01b03811660009081526003602052604081208161070a8461395b565b905080826005015461071c91906152ce565b949350505050565b600081900361076a57604080518082018252600f81526e456d70747920746f6b656e2049447360881b6020820152905162461bcd60e51b815261068d91906004016152a5565b33600090815260036020526040902080546001600160a01b03166107c15760408051808201825260198152600080516020615a7c8339815191526020820152905162461bcd60e51b815261068d91906004016152a5565b60006107cd84846141fa565b90506107da828585614318565b6107e88260050154826143ef565b6107f18261464b565b60038083015460ff16600481111561080b5761080b614f87565b03610ba757604080516102208101825283546001600160a01b03168152600184015460208201526002840154918101919091526003830154610b9691908490606083019060ff16600481111561086357610863614f87565b600481111561087457610874614f87565b81526004820154602080830191909152600583015460408084019190915260068401546001600160a01b039081166060850152600785015416608084015260088401805482518185028101850190935280835260a090940193919290919083018282801561090157602002820191906000526020600020905b8154815260200190600101908083116108ed575b505050918352505060098201546001600160a01b03166020820152600a82018054604090920191610931906152e1565b80601f016020809104026020016040519081016040528092919081815260200182805461095d906152e1565b80156109aa5780601f1061097f576101008083540402835291602001916109aa565b820191906000526020600020905b81548152906001019060200180831161098d57829003601f168201915b50505050508152602001600b820180546109c3906152e1565b80601f01602080910402602001604051908101604052809291908181526020018280546109ef906152e1565b8015610a3c5780601f10610a1157610100808354040283529160200191610a3c565b820191906000526020600020905b815481529060010190602001808311610a1f57829003601f168201915b50505050508152602001600c8201548152602001600d82018054610a5f906152e1565b80601f0160208091040260200160405190810160405280929190818152602001828054610a8b906152e1565b8015610ad85780601f10610aad57610100808354040283529160200191610ad8565b820191906000526020600020905b815481529060010190602001808311610abb57829003601f168201915b50505050508152602001600e82018054610af1906152e1565b80601f0160208091040260200160405190810160405280929190818152602001828054610b1d906152e1565b8015610b6a5780601f10610b3f57610100808354040283529160200191610b6a565b820191906000526020600020905b815481529060010190602001808311610b4d57829003601f168201915b5050509183525050600f8201546001600160a01b031660208201526010909101546040909101526146e0565b610ba75760038201805460ff191690555b815460405163888d8fd560e01b8152309163888d8fd591610bd4916001600160a01b031690600401614cf3565b602060405180830381865afa158015610bf1573d6000803e3d6000fd5b505050506040513d601f19601f82011682018060405250810190610c15919061531b565b60038301805460ff19166001836004811115610c3357610c33614f87565b021790555060015460038301546040516001600160a01b03909216913391600080516020615a5c83398151915291610c769186918a918a9160ff9091169061533c565b60405180910390a350505050565b6001600160a01b038082166000908152600360208181526040808420815161022081018352815490961686526001810154928601929092526002820154908501529081015491928392909190606083019060ff166004811115610ce957610ce9614f87565b6004811115610cfa57610cfa614f87565b81526004820154602080830191909152600583015460408084019190915260068401546001600160a01b039081166060850152600785015416608084015260088401805482518185028101850190935280835260a0909401939192909190830182828015610d8757602002820191906000526020600020905b815481526020019060010190808311610d73575b505050918352505060098201546001600160a01b03166020820152600a82018054604090920191610db7906152e1565b80601f0160208091040260200160405190810160405280929190818152602001828054610de3906152e1565b8015610e305780601f10610e0557610100808354040283529160200191610e30565b820191906000526020600020905b815481529060010190602001808311610e1357829003601f168201915b50505050508152602001600b82018054610e49906152e1565b80601f0160208091040260200160405190810160405280929190818152602001828054610e75906152e1565b8015610ec25780601f10610e9757610100808354040283529160200191610ec2565b820191906000526020600020905b815481529060010190602001808311610ea557829003601f168201915b50505050508152602001600c8201548152602001600d82018054610ee5906152e1565b80601f0160208091040260200160405190810160405280929190818152602001828054610f11906152e1565b8015610f5e5780601f10610f3357610100808354040283529160200191610f5e565b820191906000526020600020905b815481529060010190602001808311610f4157829003601f168201915b50505050508152602001600e82018054610f77906152e1565b80601f0160208091040260200160405190810160405280929190818152602001828054610fa3906152e1565b8015610ff05780601f10610fc557610100808354040283529160200191610ff0565b820191906000526020600020905b815481529060010190602001808311610fd357829003601f168201915b5050509183525050600f8201546001600160a01b039081166020808401919091526010909301546040928301528351825180840190935260198352600080516020615a7c8339815191529383019390935292935091166110635760405162461bcd60e51b815260040161068d91906152a5565b5061106d8161484e565b9392505050565b33600090815260036020526040902080546001600160a01b03166110cb5760408051808201825260198152600080516020615a7c8339815191526020820152905162461bcd60e51b815261068d91906004016152a5565b600f810180546001600160a01b0319166001600160a01b038816179055600d81016110f78587836153f0565b50600e81016111078385836153f0565b50336001600160a01b03167f8e68353cf53df77c6b6993341bb1d784fab04f2f38b2c51654b51de6ce32274e87878787876040516111499594939291906154d8565b60405180910390a2505050505050565b6004546001600160a01b031633146111b05760408051808201825260178152762737ba103a3930b739b0b1ba34b7b71036b0b730b3b2b960491b6020820152905162461bcd60e51b815261068d91906004016152a5565b600554600160a01b900460ff166111fe57604080518082018252600f81526e139bdd081a5b9a5d1a585b1a5e9959608a1b6020820152905162461bcd60e51b815261068d91906004016152a5565b6001600160a01b038216600090815260036020526040812090600382015460ff16600481111561123057611230614f87565b1461127857604080518082018252601581527441726269747261746f72206e6f742061637469766560581b6020820152905162461bcd60e51b815261068d91906004016152a5565b6004810154156112ca57604080518082018252601a81527941726269747261746f7220616c726561647920776f726b696e6760301b6020820152905162461bcd60e51b815261068d91906004016152a5565b60038101805460ff19166001908117909155600482018390556040516001600160a01b03851691600080516020615a3c8339815191529161130b9190614fbf565b60405180910390a2505050565b6113206148fe565b3360009081526003602052604090206004810154156113515760405162461bcd60e51b815260040161068d9061551c565b336000908152600360205260409081902080549151637cacabef60e01b815290913091637cacabef91611392916001600160a01b0390911690600401614cf3565b602060405180830381865afa1580156113af573d6000803e3d6000fd5b505050506040513d601f19601f820116820180604052508101906113d39190615547565b61141757604080518082018252601281527114dd185ad9481cdd1a5b1b081b1bd8dad95960721b6020820152905162461bcd60e51b815261068d91906004016152a5565b60008160050154118061142d5750600881015415155b6114635760405162461bcd60e51b81526020600482015260076024820152664e6f5374616b6560c81b604482015260640161068d565b60058101805460009091556003808301805460ff1916909117905560078201546001600160a01b03161580159061149d5750600882015415155b156115fd576000826008018054806020026020016040519081016040528092919081815260200182805480156114f257602002820191906000526020600020905b8154815260200190600101908083116114de575b509394506000935061150392505050565b60405190808252806020026020018201604052801561152c578160200160208202803683370190505b508051611543916008860191602090910190614c86565b506007830180546001600160a01b031916905560005b81518110156115fa5760015482516001600160a01b03909116906323b872dd903090339086908690811061158f5761158f615569565b60200260200101516040518463ffffffff1660e01b81526004016115b59392919061557f565b600060405180830381600087803b1580156115cf57600080fd5b505af11580156115e3573d6000803e3d6000fd5b5050505080806115f2906155a3565b915050611559565b50505b801561168e57604051600090339083908381818185875af1925050503d8060008114611645576040519150601f19603f3d011682016040523d82523d6000602084013e61164a565b606091505b505090508061168c5760405162461bcd60e51b815260206004820152600e60248201526d151c985b9cd9995c91985a5b195960921b604482015260640161068d565b505b60405181815260009033907fb7c918e0e249f999e965cafeb6c664271b3f4317d296461500e71da39f0cbda39060200160405180910390a35050506116d1614934565b565b6116e1868686868686614945565b6116ec3460006143ef565b3360009081526003602090815260409182902080548351808501909452601d84527f41726269747261746f7220616c726561647920726567697374657265640000009284019290925291906001600160a01b03161561175e5760405162461bcd60e51b815260040161068d91906152a5565b508054336001600160a01b031991821681178355600983018054831682179055600f83018054909216179055600e81016117998789836153f0565b50600d81016117a98587836153f0565b50600b81016117b98789836153f0565b50600a81016117c98587836153f0565b5060018101839055600c81018290556005810180543491906000906117ef9084906152ce565b90915550508054604080516000808252602082019283905263888d8fd560e01b90925290916001600160a01b031690600080516020615a5c8339815191529034903063888d8fd56118438660248501614cf3565b602060405180830381865afa158015611860573d6000803e3d6000fd5b505050506040513d601f19601f82011682018060405250810190611884919061531b565b604051611893939291906155bc565b60405180910390a36009810154600f8201546040516001600160a01b039283169233927f1ab9d0508879cf64270650fc89b30617972d694fd1053946f028860daf125c7c926118f39290911690600e870190600d8801908a908a9061568f565b60405180910390a350505050505050565b6001600160a01b038281166000908152600360205260409020600901548116908216145b92915050565b33600090815260036020526040902060048101541561195f5760405162461bcd60e51b815260040161068d9061551c565b33600090815260036020526040902080546001600160a01b03166119b65760408051808201825260198152600080516020615a7c8339815191526020820152905162461bcd60e51b815261068d91906004016152a5565b6002600382015460ff1660048111156119d1576119d1614f87565b14611a0b5760405162461bcd60e51b815260206004820152600a6024820152691b9bdd081c185d5cd95960b21b604482015260640161068d565b60038101805460ff1916905560405133907fd16b9e4542a1476722d4629190b689117c3c6626abfc54bd63a9e54094785fa790611a4a90600090614fbf565b60405180910390a25050565b611a5e6141c8565b6001600160a01b038116611aa657604080518082018252600c81526b5a65726f206164647265737360a01b6020820152905162461bcd60e51b815261068d91906004016152a5565b600580546001600160a01b038381166001600160a01b0319831681179093556040519116919082907fb2de57cf284062a9a3402f8683281c49d5a6747b1f369d0eec883b83503f3c8d90600090a35050565b6001600160a01b03811660009081526003602081905260408220015460029060ff166004811115611b2b57611b2b614f87565b1492915050565b6001600160a01b038516611b7a5760405162461bcd60e51b815260206004820152600f60248201526e24b73b30b634b227b832b930ba37b960891b604482015260640161068d565b33600090815260036020526040902080546001600160a01b0316611bd15760408051808201825260198152600080516020615a7c8339815191526020820152905162461bcd60e51b815261068d91906004016152a5565b6009810180546001600160a01b0319166001600160a01b038816179055600a8101611bfd8587836153f0565b50600b8101611c0d8385836153f0565b50856001600160a01b0316336001600160a01b03167ff920b7832d3774e2ac2efb86fccb411bc92e19a8ea66687764dea93140bdad4a87878787604051611c5794939291906156da565b60405180910390a3505050505050565b336000908152600360205260409020600481015415611c985760405162461bcd60e51b815260040161068d9061551c565b600054604080516325ba6ce560e11b815290516001600160a01b0390921691636dd5b69d918391634b74d9ca916004808201926020929091908290030181865afa158015611cea573d6000803e3d6000fd5b505050506040513d601f19601f82011682018060405250810190611d0e919061570c565b6040518263ffffffff1660e01b8152600401611d2c91815260200190565b602060405180830381865afa158015611d49573d6000803e3d6000fd5b505050506040513d601f19601f82011682018060405250810190611d6d919061570c565b831015611da85760405162461bcd60e51b8152602060048201526009602482015268466565546f6f4c6f7760b81b604482015260640161068d565b811580611db457504282115b6040518060400160405280601081526020016f496e76616c696420646561646c696e6560801b81525090611dfb5760405162461bcd60e51b815260040161068d91906152a5565b5033600090815260036020526040902080546001600160a01b0316611e535760408051808201825260198152600080516020615a7c8339815191526020820152905162461bcd60e51b815261068d91906004016152a5565b60018101849055600c810183905560038082015460ff166004811115611e7b57611e7b614f87565b03611ee457604080516102208101825282546001600160a01b03168152600183015460208201526002830154918101919091526003820154611ed391908390606083019060ff16600481111561086357610863614f87565b611ee45760038101805460ff191690555b805460405163888d8fd560e01b8152309163888d8fd591611f11916001600160a01b031690600401614cf3565b602060405180830381865afa158015611f2e573d6000803e3d6000fd5b505050506040513d601f19601f82011682018060405250810190611f52919061531b565b60038201805460ff19166001836004811115611f7057611f70614f87565b0217905550600381015460405133917f7a3910a8cad676c6853aaf8408eadf41961b44c04a2485867fae652f62af915b91611fb2918891889160ff1690615725565b60405180910390a250505050565b611fc86141c8565b6116d16000614b4e565b6001600160a01b038082166000908152600360208181526040808420815161022081018352815490961686526001810154928601929092526002820154908501529081015491928392909190606083019060ff16600481111561203757612037614f87565b600481111561204857612048614f87565b81526004820154602080830191909152600583015460408084019190915260068401546001600160a01b039081166060850152600785015416608084015260088401805482518185028101850190935280835260a09094019391929091908301828280156120d557602002820191906000526020600020905b8154815260200190600101908083116120c1575b505050918352505060098201546001600160a01b03166020820152600a82018054604090920191612105906152e1565b80601f0160208091040260200160405190810160405280929190818152602001828054612131906152e1565b801561217e5780601f106121535761010080835404028352916020019161217e565b820191906000526020600020905b81548152906001019060200180831161216157829003601f168201915b50505050508152602001600b82018054612197906152e1565b80601f01602080910402602001604051908101604052809291908181526020018280546121c3906152e1565b80156122105780601f106121e557610100808354040283529160200191612210565b820191906000526020600020905b8154815290600101906020018083116121f357829003601f168201915b50505050508152602001600c8201548152602001600d82018054612233906152e1565b80601f016020809104026020016040519081016040528092919081815260200182805461225f906152e1565b80156122ac5780601f10612281576101008083540402835291602001916122ac565b820191906000526020600020905b81548152906001019060200180831161228f57829003601f168201915b50505050508152602001600e820180546122c5906152e1565b80601f01602080910402602001604051908101604052809291908181526020018280546122f1906152e1565b801561233e5780601f106123135761010080835404028352916020019161233e565b820191906000526020600020905b81548152906001019060200180831161232157829003601f168201915b5050509183525050600f8201546001600160a01b039081166020830152601090920154604090910152815191925016158061238e575060038160600151600481111561238c5761238c614f87565b145b1561239c5750600092915050565b6123a58161484e565b156123b35750600092915050565b608001511592915050565b3360009081526003602052604090206004810154156123ef5760405162461bcd60e51b815260040161068d9061551c565b33600090815260036020526040902080546001600160a01b03166124465760408051808201825260198152600080516020615a7c8339815191526020820152905162461bcd60e51b815261068d91906004016152a5565b6000600382015460ff16600481111561246157612461614f87565b1461249b5760405162461bcd60e51b815260206004820152600a6024820152694e6f742061637469766560b01b604482015260640161068d565b60038101805460ff1916600290811790915560405133917f4ca61e0bd979290c68047351fd6094f2cafbac961dbbe718f69cf3c5c16cf42a91611a4a9190614fbf565b6001600160a01b038082166000908152600360208181526040808420815161022081018352815490961686526001810154928601929092526002820154908501529081015491928392909190606083019060ff16600481111561254357612543614f87565b600481111561255457612554614f87565b81526004820154602080830191909152600583015460408084019190915260068401546001600160a01b039081166060850152600785015416608084015260088401805482518185028101850190935280835260a09094019391929091908301828280156125e157602002820191906000526020600020905b8154815260200190600101908083116125cd575b505050918352505060098201546001600160a01b03166020820152600a82018054604090920191612611906152e1565b80601f016020809104026020016040519081016040528092919081815260200182805461263d906152e1565b801561268a5780601f1061265f5761010080835404028352916020019161268a565b820191906000526020600020905b81548152906001019060200180831161266d57829003601f168201915b50505050508152602001600b820180546126a3906152e1565b80601f01602080910402602001604051908101604052809291908181526020018280546126cf906152e1565b801561271c5780601f106126f15761010080835404028352916020019161271c565b820191906000526020600020905b8154815290600101906020018083116126ff57829003601f168201915b50505050508152602001600c8201548152602001600d8201805461273f906152e1565b80601f016020809104026020016040519081016040528092919081815260200182805461276b906152e1565b80156127b85780601f1061278d576101008083540402835291602001916127b8565b820191906000526020600020905b81548152906001019060200180831161279b57829003601f168201915b50505050508152602001600e820180546127d1906152e1565b80601f01602080910402602001604051908101604052809291908181526020018280546127fd906152e1565b801561284a5780601f1061281f5761010080835404028352916020019161284a565b820191906000526020600020905b81548152906001019060200180831161282d57829003601f168201915b5050509183525050600f8201546001600160a01b0390811660208301526010909201546040909101528151919250166128b65760408051808201825260198152600080516020615a7c8339815191526020820152905162461bcd60e51b815261068d91906004016152a5565b604051631c569df760e31b8152309063e2b4efb8906128d9908690600401614cf3565b602060405180830381865afa1580156128f6573d6000803e3d6000fd5b505050506040513d601f19601f8201168201806040525081019061291a9190615547565b156129285750600092915050565b6129318161484e565b1561293f5750600492915050565b612948816146e0565b156129565750600392915050565b6060015192915050565b60008061296b614baa565b546001600160a01b031692915050565b604080516102208101825260008082526020820181905291810182905260608082018390526080820183905260a0820183905260c0820183905260e08201839052610100820181905261012082018390526101408201819052610160820181905261018082018390526101a082018190526101c08201526101e081018290526102008101919091526001600160a01b0380831660009081526003602081815260409283902083516102208101855281549095168552600181015491850191909152600281015492840192909252810154606083019060ff166004811115612a6457612a64614f87565b6004811115612a7557612a75614f87565b81526004820154602080830191909152600583015460408084019190915260068401546001600160a01b039081166060850152600785015416608084015260088401805482518185028101850190935280835260a0909401939192909190830182828015612b0257602002820191906000526020600020905b815481526020019060010190808311612aee575b505050918352505060098201546001600160a01b03166020820152600a82018054604090920191612b32906152e1565b80601f0160208091040260200160405190810160405280929190818152602001828054612b5e906152e1565b8015612bab5780601f10612b8057610100808354040283529160200191612bab565b820191906000526020600020905b815481529060010190602001808311612b8e57829003601f168201915b50505050508152602001600b82018054612bc4906152e1565b80601f0160208091040260200160405190810160405280929190818152602001828054612bf0906152e1565b8015612c3d5780601f10612c1257610100808354040283529160200191612c3d565b820191906000526020600020905b815481529060010190602001808311612c2057829003601f168201915b50505050508152602001600c8201548152602001600d82018054612c60906152e1565b80601f0160208091040260200160405190810160405280929190818152602001828054612c8c906152e1565b8015612cd95780601f10612cae57610100808354040283529160200191612cd9565b820191906000526020600020905b815481529060010190602001808311612cbc57829003601f168201915b50505050508152602001600e82018054612cf2906152e1565b80601f0160208091040260200160405190810160405280929190818152602001828054612d1e906152e1565b8015612d6b5780601f10612d4057610100808354040283529160200191612d6b565b820191906000526020600020905b815481529060010190602001808311612d4e57829003601f168201915b5050509183525050600f8201546001600160a01b0316602082015260109091015460409091015292915050565b6005546001600160a01b03163314612df05760408051808201825260188152772737ba1031b7b6b832b739b0ba34b7b71036b0b730b3b2b960411b6020820152905162461bcd60e51b815261068d91906004016152a5565b600554600160a01b900460ff16612e3e57604080518082018252600f81526e139bdd081a5b9a5d1a585b1a5e9959608a1b6020820152905162461bcd60e51b815261068d91906004016152a5565b6001600160a01b0380821660009081526003602052604090208054909116612e995760408051808201825260198152600080516020615a7c8339815191526020820152905162461bcd60e51b815261068d91906004016152a5565b6003818101805460ff1916909117905560058101548015612f555760006005838101829055546040516001600160a01b039091169083908381818185875af1925050503d8060008114612f08576040519150601f19603f3d011682016040523d82523d6000602084013e612f0d565b606091505b5050905080612f5357604080518082018252600f81526e151c985b9cd9995c8819985a5b1959608a1b6020820152905162461bcd60e51b815261068d91906004016152a5565b505b60078201546001600160a01b031615801590612f745750600882015415155b156130d857600082600801805480602002602001604051908101604052809291908181526020018280548015612fc957602002820191906000526020600020905b815481526020019060010190808311612fb5575b5093945060009350612fda92505050565b604051908082528060200260200182016040528015613003578160200160208202803683370190505b50805161301a916008860191602090910190614c86565b506007830180546001600160a01b031916905560005b81518110156130d55760015460055483516001600160a01b03928316926323b872dd92309291169086908690811061306a5761306a615569565b60200260200101516040518463ffffffff1660e01b81526004016130909392919061557f565b600060405180830381600087803b1580156130aa57600080fd5b505af11580156130be573d6000803e3d6000fd5b5050505080806130cd906155a3565b915050613030565b50505b826001600160a01b0316600080516020615a3c833981519152600360405161130b9190614fbf565b600061310a614bce565b805490915060ff600160401b82041615906001600160401b03166000811580156131315750825b90506000826001600160401b0316600114801561314d5750303b155b90508115801561315b575080155b156131795760405163f92ee8a960e01b815260040160405180910390fd5b845467ffffffffffffffff1916600117855583156131a357845460ff60401b1916600160401b1785555b6131ab614bf2565b6131b433614c02565b6001600160a01b0388166131fc57604080518082018252600c81526b5a65726f206164647265737360a01b6020820152905162461bcd60e51b815261068d91906004016152a5565b6001600160a01b03871661324457604080518082018252600c81526b5a65726f206164647265737360a01b6020820152905162461bcd60e51b815261068d91906004016152a5565b6001600160a01b03861661328c57604080518082018252600c81526b5a65726f206164647265737360a01b6020820152905162461bcd60e51b815261068d91906004016152a5565b600080546001600160a01b03808b166001600160a01b031992831617909255600180548a84169083161790556002805492891692909116919091179055831561330f57845460ff60401b19168555604051600181527fc7f505b2f371ae2175ee4913f4499e1f2633a7b5936321eed1cdaeb6115181d29060200160405180910390a15b5050505050505050565b6004546001600160a01b031633146133705760408051808201825260178152762737ba103a3930b739b0b1ba34b7b71036b0b730b3b2b960491b6020820152905162461bcd60e51b815261068d91906004016152a5565b600554600160a01b900460ff166133be57604080518082018252600f81526e139bdd081a5b9a5d1a585b1a5e9959608a1b6020820152905162461bcd60e51b815261068d91906004016152a5565b6001600160a01b038216600090815260036020526040902060048101548214613425576040805180820182526016815275125b9d985b1a59081d1c985b9cd858dd1a5bdb88125160521b6020820152905162461bcd60e51b815261068d91906004016152a5565b60038101805460ff191690556000600482018190556040516001600160a01b03851691600080516020615a3c8339815191529161130b9190614fbf565b61346a6141c8565b600554600160a01b900460ff16156134bd576040805180820182526013815272105b1c9958591e481a5b9a5d1a585b1a5e9959606a1b6020820152905162461bcd60e51b815261068d91906004016152a5565b6001600160a01b03821661350557604080518082018252600c81526b5a65726f206164647265737360a01b6020820152905162461bcd60e51b815261068d91906004016152a5565b6001600160a01b03811661354d57604080518082018252600c81526b5a65726f206164647265737360a01b6020820152905162461bcd60e51b815261068d91906004016152a5565b600480546001600160a01b038085166001600160a01b03199092168217909255600580546001600160a81b03191684841617600160a01b17908190556040519216917f255c9edca3ea4cd6ff3c64c4cd7a5f812c6ae0ca0ae939f85e9e3eb49cdb416f90600090a35050565b6004546001600160a01b031633146136105760408051808201825260178152762737ba103a3930b739b0b1ba34b7b71036b0b730b3b2b960491b6020820152905162461bcd60e51b815261068d91906004016152a5565b600554600160a01b900460ff1661365e57604080518082018252600f81526e139bdd081a5b9a5d1a585b1a5e9959608a1b6020820152905162461bcd60e51b815261068d91906004016152a5565b6001600160a01b038082166000908152600360209081526040918290208054835180850190945260198452600080516020615a7c8339815191529284019290925292166136be5760405162461bcd60e51b815260040161068d91906152a5565b506001600382015460ff1660048111156136da576136da614f87565b1460405180604001604052806019815260200178496e76616c69642061726269747261746f722073746174757360381b8152509061372b5760405162461bcd60e51b815260040161068d91906152a5565b5042601082015560038101805460ff191660049081179091556040516001600160a01b03841691600080516020615a3c83398151915291611a4a9190614fbf565b33600090815260036020526040902080546001600160a01b03166137c35760408051808201825260198152600080516020615a7c8339815191526020820152905162461bcd60e51b815261068d91906004016152a5565b60006137ce3361395b565b905060003483600501546137e291906152ce565b60058401819055905060038084015460ff16600481111561380557613805614f87565b0361386e57604080516102208101825284546001600160a01b0316815260018501546020820152600285015491810191909152600384015461385d91908590606083019060ff16600481111561086357610863614f87565b61386e5760038301805460ff191690555b61387881836143ef565b825460405163888d8fd560e01b8152309163888d8fd5916138a5916001600160a01b031690600401614cf3565b602060405180830381865afa1580156138c2573d6000803e3d6000fd5b505050506040513d601f19601f820116820180604052508101906138e6919061531b565b60038401805460ff1916600183600481111561390457613904614f87565b021790555082546040805160008082526020820192839052600387015490936001600160a01b031692600080516020615a5c8339815191529261394e92349260ff909116906155bc565b60405180910390a3505050565b6001600160a01b038116600090815260036020526040812081805b6008830154811015613a9d576002546008840180546000926001600160a01b03169163d5ec2d8391859081106139ae576139ae615569565b90600052602060002001546040518263ffffffff1660e01b81526004016139d791815260200190565b600060405180830381865afa1580156139f4573d6000803e3d6000fd5b505050506040513d6000823e601f3d908101601f19168201604052613a1c91908101906157e5565b91505060005b816060015151811015613a885781606001518181518110613a4557613a45615569565b6020026020010151602001516402540be400613a6191906159c1565b613a74906001600160401b0316856152ce565b935080613a80816155a3565b915050613a22565b50508080613a95906155a3565b915050613976565b509392505050565b6001600160a01b038082166000908152600360208181526040808420815161022081018352815490961686526001810154928601929092526002820154908501529081015491929091613b0e91908390606083019060ff16600481111561086357610863614f87565b15613b1c5750600092915050565b604080516102208101825282546001600160a01b03168152600183015460208201526002830154918101919091526003820154613ea291908390606083019060ff166004811115613b6f57613b6f614f87565b6004811115613b8057613b80614f87565b81526004820154602080830191909152600583015460408084019190915260068401546001600160a01b039081166060850152600785015416608084015260088401805482518185028101850190935280835260a0909401939192909190830182828015613c0d57602002820191906000526020600020905b815481526020019060010190808311613bf9575b505050918352505060098201546001600160a01b03166020820152600a82018054604090920191613c3d906152e1565b80601f0160208091040260200160405190810160405280929190818152602001828054613c69906152e1565b8015613cb65780601f10613c8b57610100808354040283529160200191613cb6565b820191906000526020600020905b815481529060010190602001808311613c9957829003601f168201915b50505050508152602001600b82018054613ccf906152e1565b80601f0160208091040260200160405190810160405280929190818152602001828054613cfb906152e1565b8015613d485780601f10613d1d57610100808354040283529160200191613d48565b820191906000526020600020905b815481529060010190602001808311613d2b57829003601f168201915b50505050508152602001600c8201548152602001600d82018054613d6b906152e1565b80601f0160208091040260200160405190810160405280929190818152602001828054613d97906152e1565b8015613de45780601f10613db957610100808354040283529160200191613de4565b820191906000526020600020905b815481529060010190602001808311613dc757829003601f168201915b50505050508152602001600e82018054613dfd906152e1565b80601f0160208091040260200160405190810160405280929190818152602001828054613e29906152e1565b8015613e765780601f10613e4b57610100808354040283529160200191613e76565b820191906000526020600020905b815481529060010190602001808311613e5957829003601f168201915b5050509183525050600f8201546001600160a01b0316602082015260109091015460409091015261484e565b15613eb05750600092915050565b6000600382015460ff166004811115613ecb57613ecb614f87565b149392505050565b613edb6141c8565b6001600160a01b038116613f05576000604051631e4fbdf760e01b815260040161068d9190614cf3565b613f0e81614b4e565b50565b613f196148fe565b613f27868686868686614945565b6000879003613f6d57604080518082018252600f81526e456d70747920746f6b656e2049447360881b6020820152905162461bcd60e51b815261068d91906004016152a5565b3360009081526003602090815260409182902080548351808501909452601d84527f41726269747261746f7220616c726561647920726567697374657265640000009284019290925291906001600160a01b031615613fdf5760405162461bcd60e51b815260040161068d91906152a5565b508054336001600160a01b031991821681178355600983018054831682179055600f83018054909216179055600e810161401a8789836153f0565b50600d810161402a8587836153f0565b50600b810161403a8789836153f0565b50600a810161404a8587836153f0565b5060018101839055600c810182905560006140658a8a6141fa565b9050614072828b8b614318565b6140808260050154826143ef565b6140898261464b565b600160009054906101000a90046001600160a01b03166001600160a01b0316336001600160a01b0316600080516020615a5c833981519152838d8d306001600160a01b031663888d8fd58960000160009054906101000a90046001600160a01b03166040518263ffffffff1660e01b81526004016141079190614cf3565b602060405180830381865afa158015614124573d6000803e3d6000fd5b505050506040513d601f19601f82011682018060405250810190614148919061531b565b604051614158949392919061533c565b60405180910390a36009820154600f8301546040516001600160a01b039283169233927f1ab9d0508879cf64270650fc89b30617972d694fd1053946f028860daf125c7c926141b692909116908d908d908d908d908d908d906159ec565b60405180910390a3505061330f614934565b336141d1612960565b6001600160a01b0316146116d1573360405163118cdaa760e01b815260040161068d9190614cf3565b600080805b83811015613a9d576002546000906001600160a01b031663d5ec2d8387878581811061422d5761422d615569565b905060200201356040518263ffffffff1660e01b815260040161425291815260200190565b600060405180830381865afa15801561426f573d6000803e3d6000fd5b505050506040513d6000823e601f3d908101601f1916820160405261429791908101906157e5565b91505060005b81606001515181101561430357816060015181815181106142c0576142c0615569565b6020026020010151602001516402540be4006142dc91906159c1565b6142ef906001600160401b0316856152ce565b9350806142fb816155a3565b91505061429d565b50508080614310906155a3565b9150506141ff565b60005b818110156143e9576001546001600160a01b03166323b872dd333086868681811061434857614348615569565b905060200201356040518463ffffffff1660e01b815260040161436d9392919061557f565b600060405180830381600087803b15801561438757600080fd5b505af115801561439b573d6000803e3d6000fd5b50505050836008018383838181106143b5576143b5615569565b83546001810185556000948552602094859020919094029290920135919092015550806143e1816155a3565b91505061431b565b50505050565b60006143fb82846152ce565b60008054604080516332c70ad760e21b8152905193945091926001600160a01b0390911691636dd5b69d91839163cb1c2b5c9160048083019260209291908290030181865afa158015614452573d6000803e3d6000fd5b505050506040513d601f19601f82011682018060405250810190614476919061570c565b6040518263ffffffff1660e01b815260040161449491815260200190565b602060405180830381865afa1580156144b1573d6000803e3d6000fd5b505050506040513d601f19601f820116820180604052508101906144d5919061570c565b600080546040805163c98517c560e01b8152905193945091926001600160a01b0390911691636dd5b69d91839163c98517c59160048083019260209291908290030181865afa15801561452c573d6000803e3d6000fd5b505050506040513d601f19601f82011682018060405250810190614550919061570c565b6040518263ffffffff1660e01b815260040161456e91815260200190565b602060405180830381865afa15801561458b573d6000803e3d6000fd5b505050506040513d601f19601f820116820180604052508101906145af919061570c565b9050818310156145f9576040805180820182526012815271496e73756666696369656e74207374616b6560701b6020820152905162461bcd60e51b815261068d91906004016152a5565b808311156146445760408051808201825260158152745374616b652065786365656473206d6178696d756d60581b6020820152905162461bcd60e51b815261068d91906004016152a5565b5050505050565b60078101546001600160a01b0316614684576001546007820180546001600160a01b0319166001600160a01b0390921691909117905550565b60015460078201546001600160a01b03908116911614613f0e576040805180820182526014815273125b9d985b1a59081391950818dbdb9d1c9858dd60621b6020820152905162461bcd60e51b815261068d91906004016152a5565b6000808261018001511180156146fb57504282610180015111155b1561470857506001919050565b815160405163014f6b1960e41b815260009130916314f6b1909161472e91600401614cf3565b602060405180830381865afa15801561474b573d6000803e3d6000fd5b505050506040513d601f19601f8201168201806040525081019061476f919061570c565b600054604080516332c70ad760e21b815290519293506001600160a01b0390911691636dd5b69d91839163cb1c2b5c916004808201926020929091908290030181865afa1580156147c4573d6000803e3d6000fd5b505050506040513d601f19601f820116820180604052508101906147e8919061570c565b6040518263ffffffff1660e01b815260040161480691815260200190565b602060405180830381865afa158015614823573d6000803e3d6000fd5b505050506040513d601f19601f82011682018060405250810190614847919061570c565b1192915050565b6000805460408051632f672f1960e11b8152905183926001600160a01b031691635ece5e329160048083019260209291908290030181865afa158015614898573d6000803e3d6000fd5b505050506040513d601f19601f820116820180604052508101906148bc919061570c565b90508261020001516000036148d45750600092915050565b42818461020001516148e691906152ce565b11156148f55750600192915050565b50600092915050565b6000614908614c13565b80549091506001190161492e57604051633ee5aeb560e01b815260040160405180910390fd5b60029055565b600061493e614c13565b6001905550565b600085900361498d57604080518082018252601181527024b73b30b634b2103830b930b6b2ba32b960791b6020820152905162461bcd60e51b815261068d91906004016152a5565b60008390036149d557604080518082018252601181527024b73b30b634b2103830b930b6b2ba32b960791b6020820152905162461bcd60e51b815261068d91906004016152a5565b60008054604080516325ba6ce560e11b815290516001600160a01b0390921691636dd5b69d918391634b74d9ca916004808201926020929091908290030181865afa158015614a28573d6000803e3d6000fd5b505050506040513d601f19601f82011682018060405250810190614a4c919061570c565b6040518263ffffffff1660e01b8152600401614a6a91815260200190565b602060405180830381865afa158015614a87573d6000803e3d6000fd5b505050506040513d601f19601f82011682018060405250810190614aab919061570c565b905080831015614af357604080518082018252601081526f496e76616c696420666565207261746560801b6020820152905162461bcd60e51b815261068d91906004016152a5565b8115801590614b025750428211155b15614b4557604080518082018252601081526f496e76616c696420646561646c696e6560801b6020820152905162461bcd60e51b815261068d91906004016152a5565b50505050505050565b6000614b58614baa565b80546001600160a01b038481166001600160a01b031983168117845560405193945091169182907f8be0079c531659141344cd1fd0a4f28419497f9722a3daafe3b4186f6b6457e090600090a3505050565b7f9016d09d72d40fdae2fd8ceac6b6234c7706214fd39c1cd1e609a0528c19930090565b7ff0c57e16840df040f15088dc2f81fe391c3923bec73e23a9662efc9c229c6a0090565b614bfa614c37565b6116d1614c5c565b614c0a614c37565b613f0e81614c64565b7f9b779b17422d0df92223018b32b4d1fa46e071723d6817e2486d003becc55f0090565b614c3f614c6c565b6116d157604051631afcd79f60e31b815260040160405180910390fd5b614934614c37565b613edb614c37565b6000614c76614bce565b54600160401b900460ff16919050565b828054828255906000526020600020908101928215614cc1579160200282015b82811115614cc1578251825591602001919060010190614ca6565b50614ccd929150614cd1565b5090565b5b80821115614ccd5760008155600101614cd2565b6001600160a01b03169052565b6001600160a01b0391909116815260200190565b80356001600160a01b0381168114614d1e57600080fd5b919050565b600060208284031215614d3557600080fd5b61106d82614d07565b60008083601f840112614d5057600080fd5b5081356001600160401b03811115614d6757600080fd5b6020830191508360208260051b8501011115614d8257600080fd5b9250929050565b60008060208385031215614d9c57600080fd5b82356001600160401b03811115614db257600080fd5b614dbe85828601614d3e565b90969095509350505050565b60008083601f840112614ddc57600080fd5b5081356001600160401b03811115614df357600080fd5b602083019150836020828501011115614d8257600080fd5b600080600080600060608688031215614e2357600080fd5b614e2c86614d07565b945060208601356001600160401b0380821115614e4857600080fd5b614e5489838a01614dca565b90965094506040880135915080821115614e6d57600080fd5b50614e7a88828901614dca565b969995985093965092949392505050565b60008060408385031215614e9e57600080fd5b614ea783614d07565b946020939093013593505050565b60008060008060008060808789031215614ece57600080fd5b86356001600160401b0380821115614ee557600080fd5b614ef18a838b01614dca565b90985096506020890135915080821115614f0a57600080fd5b50614f1789828a01614dca565b979a9699509760408101359660609091013595509350505050565b60008060408385031215614f4557600080fd5b614f4e83614d07565b9150614f5c60208401614d07565b90509250929050565b60008060408385031215614f7857600080fd5b50508035926020909101359150565b634e487b7160e01b600052602160045260246000fd5b60058110614fbb57634e487b7160e01b600052602160045260246000fd5b9052565b602081016119288284614f9d565b600081518084526020808501945080840160005b83811015614ffd57815187529582019590820190600101614fe1565b509495945050505050565b60005b8381101561502357818101518382015260200161500b565b50506000910152565b60008151808452615044816020860160208601615008565b601f01601f19169290920160200192915050565b6020815261506a602082018351614ce6565b6020820151604082015260408201516060820152600060608301516150926080840182614f9d565b50608083015160a083015260a083015160c083015260c08301516150b960e0840182614ce6565b5060e08301516101006150ce81850183614ce6565b8085015191505061022061012081818601526150ee610240860184614fcd565b9086015190925061014061510486820183614ce6565b80870151915050601f19610160818786030181880152615124858461502c565b945080880151925050610180818786030181880152615143858461502c565b9450808801519250506101a08281880152808801519250506101c0818786030181880152615171858461502c565b9450808801519250506101e0818786030181880152615190858461502c565b945080880151925050506102006151a981870183614ce6565b959095015193019290925250919050565b6000806000606084860312156151cf57600080fd5b6151d884614d07565b92506151e660208501614d07565b91506151f460408501614d07565b90509250925092565b60008060008060008060008060a0898b03121561521957600080fd5b88356001600160401b038082111561523057600080fd5b61523c8c838d01614d3e565b909a50985060208b013591508082111561525557600080fd5b6152618c838d01614dca565b909850965060408b013591508082111561527a57600080fd5b506152878b828c01614dca565b999c989b509699959896976060870135966080013595509350505050565b60208152600061106d602083018461502c565b634e487b7160e01b600052601160045260246000fd5b80820180821115611928576119286152b8565b600181811c908216806152f557607f821691505b60208210810361531557634e487b7160e01b600052602260045260246000fd5b50919050565b60006020828403121561532d57600080fd5b81516005811061106d57600080fd5b848152606060208201819052810183905260006001600160fb1b0384111561536357600080fd5b8360051b80866080850137820160800190506153826040830184614f9d565b95945050505050565b634e487b7160e01b600052604160045260246000fd5b601f8211156153eb57600081815260208120601f850160051c810160208610156153c85750805b601f850160051c820191505b818110156153e7578281556001016153d4565b5050505b505050565b6001600160401b038311156154075761540761538b565b61541b8361541583546152e1565b836153a1565b6000601f84116001811461544f57600085156154375750838201355b600019600387901b1c1916600186901b178355614644565b600083815260209020601f19861690835b828110156154805786850135825560209485019460019092019101615460565b508682101561549d5760001960f88860031b161c19848701351681555b505060018560011b0183555050505050565b81835281816020850137506000828201602090810191909152601f909101601f19169091010190565b6001600160a01b03861681526060602082018190526000906154fd90830186886154af565b82810360408401526155108185876154af565b98975050505050505050565b60208082526011908201527041726269747261746f72576f726b696e6760781b604082015260600190565b60006020828403121561555957600080fd5b8151801515811461106d57600080fd5b634e487b7160e01b600052603260045260246000fd5b6001600160a01b039384168152919092166020820152604081019190915260600190565b6000600182016155b5576155b56152b8565b5060010190565b6000606082018583526020606081850152818651808452608086019150828801935060005b818110156155fd578451835293830193918301916001016155e1565b505080935050505061071c6040830184614f9d565b6000815461561f816152e1565b80855260206001838116801561563c576001811461565657615684565b60ff1985168884015283151560051b880183019550615684565b866000528260002060005b8581101561567c5781548a8201860152908301908401615661565b890184019650505b505050505092915050565b6001600160a01b038616815260a0602082018190526000906156b390830187615612565b82810360408401526156c58187615612565b60608401959095525050608001529392505050565b6040815260006156ee6040830186886154af565b82810360208401526157018185876154af565b979650505050505050565b60006020828403121561571e57600080fd5b5051919050565b838152602081018390526060810161071c6040830184614f9d565b604051608081016001600160401b03811182821017156157625761576261538b565b60405290565b604051606081016001600160401b03811182821017156157625761576261538b565b604051601f8201601f191681016001600160401b03811182821017156157b2576157b261538b565b604052919050565b805163ffffffff81168114614d1e57600080fd5b80516001600160401b0381168114614d1e57600080fd5b600080604083850312156157f857600080fd5b8251915060208301516001600160401b038082111561581657600080fd5b908401906080828703121561582a57600080fd5b615832615740565b82518152615842602084016157ba565b6020820152604083015160ff8116811461585b57600080fd5b604082015260608301518281111561587257600080fd5b80840193505086601f84011261588757600080fd5b8251828111156158995761589961538b565b6158a860208260051b0161578a565b8082825260208201915060208360051b8701019250898311156158ca57600080fd5b602086015b838110156159ad578051868111156158e657600080fd5b8701601f196060828e03820112156158fd57600080fd5b615905615768565b60208301518981111561591757600080fd5b8301603f81018f1361592857600080fd5b60208101518a81111561593d5761593d61538b565b61594e602085601f8401160161578a565b93508084528f604082840101111561596557600080fd5b615976816020860160408501615008565b5050818152615987604084016157ce565b6020820152615998606084016157ba565b604082015285525050602092830192016158cf565b506060840152509497909650945050505050565b6001600160401b038181168382160280821691908281146159e4576159e46152b8565b505092915050565b6001600160a01b038816815260a060208201819052600090615a11908301888a6154af565b8281036040840152615a248187896154af565b60608401959095525050608001529594505050505056fe3a8979d9edd937f82708579234f5915d536a25d9fd31832a26aeb36a4a991c3c4a7441ccb0499b6afa089369858b4b9dccc3f55bc8732c72f51ae12075b2504041726269747261746f72206e6f74207265676973746572656400000000000000a264697066735822122027af70ff92801e12adbf61ce56d93623399ec69d0e62809254e4cbd56eb91ea464736f6c63430008140033",
  "linkReferences": {},
  "deployedLinkReferences": {}
}