{
  "_format": "hh-sol-artifact-1",
  "contractName": "CompensationManager",
  "sourceName": "contracts/core/CompensationManager.sol",
  "abi": [
    {
      "inputs": [],
      "stateMutability": "nonpayable",
      "type": "constructor"
    },
    {
      "inputs": [],
      "name": "InvalidInitialization",
      "type": "error"
    },
    {
      "inputs": [],
      "name": "NotInitializing",
      "type": "error"
    },
    {
      "inputs": [
        {
          "internalType": "address",
          "name": "owner",
          "type": "address"
        }
      ],
      "name": "OwnableInvalidOwner",
      "type": "error"
    },
    {
      "inputs": [
        {
          "internalType": "address",
          "name": "account",
          "type": "address"
        }
      ],
      "name": "OwnableUnauthorizedAccount",
      "type": "error"
    },
    {
      "anonymous": false,
      "inputs": [
        {
          "indexed": true,
          "internalType": "address",
          "name": "newArbitratorManager",
          "type": "address"
        }
      ],
      "name": "ArbitratorManagerUpdated",
      "type": "event"
    },
    {
      "anonymous": false,
      "inputs": [
        {
          "indexed": true,
          "internalType": "bytes32",
          "name": "claimId",
          "type": "bytes32"
        },
        {
          "indexed": true,
          "internalType": "address",
          "name": "claimer",
          "type": "address"
        },
        {
          "indexed": true,
          "internalType": "address",
          "name": "arbitrator",
          "type": "address"
        },
        {
          "indexed": false,
          "internalType": "uint256",
          "name": "ethAmount",
          "type": "uint256"
        },
        {
          "indexed": false,
          "internalType": "uint256[]",
          "name": "nftTokenIds",
          "type": "uint256[]"
        },
        {
          "indexed": false,
          "internalType": "uint256",
          "name": "totalAmount",
          "type": "uint256"
        },
        {
          "indexed": false,
          "internalType": "address",
          "name": "receivedCompensationAddress",
          "type": "address"
        },
        {
          "indexed": false,
          "internalType": "uint8",
          "name": "claimType",
          "type": "uint8"
        }
      ],
      "name": "CompensationClaimed",
      "type": "event"
    },
    {
      "anonymous": false,
      "inputs": [
        {
          "indexed": true,
          "internalType": "bytes32",
          "name": "claimId",
          "type": "bytes32"
        },
        {
          "indexed": true,
          "internalType": "address",
          "name": "claimer",
          "type": "address"
        },
        {
          "indexed": true,
          "internalType": "address",
          "name": "receivedCompensationAddress",
          "type": "address"
        },
        {
          "indexed": false,
          "internalType": "uint256",
          "name": "ethAmount",
          "type": "uint256"
        },
        {
          "indexed": false,
          "internalType": "uint256[]",
          "name": "nftTokenIds",
          "type": "uint256[]"
        },
        {
          "indexed": false,
          "internalType": "uint256",
          "name": "systemFee",
          "type": "uint256"
        },
        {
          "indexed": false,
          "internalType": "uint256",
          "name": "excessPaymenttoClaimer",
          "type": "uint256"
        }
      ],
      "name": "CompensationWithdrawn",
      "type": "event"
    },
    {
      "anonymous": false,
      "inputs": [
        {
          "indexed": true,
          "internalType": "address",
          "name": "newConfigManager",
          "type": "address"
        }
      ],
      "name": "ConfigManagerUpdated",
      "type": "event"
    },
    {
      "anonymous": false,
      "inputs": [
        {
          "indexed": false,
          "internalType": "uint64",
          "name": "version",
          "type": "uint64"
        }
      ],
      "name": "Initialized",
      "type": "event"
    },
    {
      "anonymous": false,
      "inputs": [
        {
          "indexed": true,
          "internalType": "address",
          "name": "previousOwner",
          "type": "address"
        },
        {
          "indexed": true,
          "internalType": "address",
          "name": "newOwner",
          "type": "address"
        }
      ],
      "name": "OwnershipTransferred",
      "type": "event"
    },
    {
      "anonymous": false,
      "inputs": [
        {
          "indexed": true,
          "internalType": "address",
          "name": "newTransactionManager",
          "type": "address"
        }
      ],
      "name": "TransactionManagerUpdated",
      "type": "event"
    },
    {
      "anonymous": false,
      "inputs": [
        {
          "indexed": true,
          "internalType": "address",
          "name": "newZkService",
          "type": "address"
        }
      ],
      "name": "ZkServiceUpdated",
      "type": "event"
    },
    {
      "inputs": [],
      "name": "arbitratorManager",
      "outputs": [
        {
          "internalType": "contract IArbitratorManager",
          "name": "",
          "type": "address"
        }
      ],
      "stateMutability": "view",
      "type": "function"
    },
    {
      "inputs": [
        {
          "internalType": "bytes32",
          "name": "txId",
          "type": "bytes32"
        }
      ],
      "name": "claimArbitratorFee",
      "outputs": [
        {
          "internalType": "bytes32",
          "name": "",
          "type": "bytes32"
        }
      ],
      "stateMutability": "nonpayable",
      "type": "function"
    },
    {
      "inputs": [
        {
          "internalType": "bytes",
          "name": "btcTx",
          "type": "bytes"
        },
        {
          "internalType": "bytes32",
          "name": "evidence",
          "type": "bytes32"
        }
      ],
      "name": "claimFailedArbitrationCompensation",
      "outputs": [
        {
          "internalType": "bytes32",
          "name": "claimId",
          "type": "bytes32"
        }
      ],
      "stateMutability": "nonpayable",
      "type": "function"
    },
    {
      "inputs": [
        {
          "internalType": "address",
          "name": "arbitrator",
          "type": "address"
        },
        {
          "internalType": "bytes",
          "name": "btcTx",
          "type": "bytes"
        },
        {
          "internalType": "bytes32",
          "name": "evidence",
          "type": "bytes32"
        }
      ],
      "name": "claimIllegalSignatureCompensation",
      "outputs": [
        {
          "internalType": "bytes32",
          "name": "claimId",
          "type": "bytes32"
        }
      ],
      "stateMutability": "nonpayable",
      "type": "function"
    },
    {
      "inputs": [
        {
          "internalType": "bytes32",
          "name": "id",
          "type": "bytes32"
        }
      ],
      "name": "claimTimeoutCompensation",
      "outputs": [
        {
          "internalType": "bytes32",
          "name": "claimId",
          "type": "bytes32"
        }
      ],
      "stateMutability": "nonpayable",
      "type": "function"
    },
    {
      "inputs": [
        {
          "internalType": "bytes32",
          "name": "",
          "type": "bytes32"
        }
      ],
      "name": "claims",
      "outputs": [
        {
          "internalType": "address",
          "name": "claimer",
          "type": "address"
        },
        {
          "internalType": "address",
          "name": "arbitrator",
          "type": "address"
        },
        {
          "internalType": "uint256",
          "name": "ethAmount",
          "type": "uint256"
        },
        {
          "internalType": "address",
          "name": "nftContract",
          "type": "address"
        },
        {
          "internalType": "uint256",
          "name": "totalAmount",
          "type": "uint256"
        },
        {
          "internalType": "bool",
          "name": "withdrawn",
          "type": "bool"
        },
        {
          "internalType": "enum CompensationManager.CompensationType",
          "name": "claimType",
          "type": "uint8"
        },
        {
          "internalType": "address",
          "name": "receivedCompensationAddress",
          "type": "address"
        }
      ],
      "stateMutability": "view",
      "type": "function"
    },
    {
      "inputs": [],
      "name": "configManager",
      "outputs": [
        {
          "internalType": "contract IConfigManager",
          "name": "",
          "type": "address"
        }
      ],
      "stateMutability": "view",
      "type": "function"
    },
    {
      "inputs": [
        {
          "internalType": "bytes32",
          "name": "claimId",
          "type": "bytes32"
        }
      ],
      "name": "getClaimableAmount",
      "outputs": [
        {
          "internalType": "uint256",
          "name": "",
          "type": "uint256"
        }
      ],
      "stateMutability": "view",
      "type": "function"
    },
    {
      "inputs": [
        {
          "internalType": "address",
          "name": "_zkService",
          "type": "address"
        },
        {
          "internalType": "address",
          "name": "_configManager",
          "type": "address"
        },
        {
          "internalType": "address",
          "name": "_arbitratorManager",
          "type": "address"
        }
      ],
      "name": "initialize",
      "outputs": [],
      "stateMutability": "nonpayable",
      "type": "function"
    },
    {
      "inputs": [],
      "name": "owner",
      "outputs": [
        {
          "internalType": "address",
          "name": "",
          "type": "address"
        }
      ],
      "stateMutability": "view",
      "type": "function"
    },
    {
      "inputs": [],
      "name": "renounceOwnership",
      "outputs": [],
      "stateMutability": "nonpayable",
      "type": "function"
    },
    {
      "inputs": [
        {
          "internalType": "address",
          "name": "_arbitratorManager",
          "type": "address"
        }
      ],
      "name": "setArbitratorManager",
      "outputs": [],
      "stateMutability": "nonpayable",
      "type": "function"
    },
    {
      "inputs": [
        {
          "internalType": "address",
          "name": "_configManager",
          "type": "address"
        }
      ],
      "name": "setConfigManager",
      "outputs": [],
      "stateMutability": "nonpayable",
      "type": "function"
    },
    {
      "inputs": [
        {
          "internalType": "address",
          "name": "_transactionManager",
          "type": "address"
        }
      ],
      "name": "setTransactionManager",
      "outputs": [],
      "stateMutability": "nonpayable",
      "type": "function"
    },
    {
      "inputs": [
        {
          "internalType": "address",
          "name": "_zkService",
          "type": "address"
        }
      ],
      "name": "setZkService",
      "outputs": [],
      "stateMutability": "nonpayable",
      "type": "function"
    },
    {
      "inputs": [],
      "name": "transactionManager",
      "outputs": [
        {
          "internalType": "contract ITransactionManager",
          "name": "",
          "type": "address"
        }
      ],
      "stateMutability": "view",
      "type": "function"
    },
    {
      "inputs": [
        {
          "internalType": "address",
          "name": "newOwner",
          "type": "address"
        }
      ],
      "name": "transferOwnership",
      "outputs": [],
      "stateMutability": "nonpayable",
      "type": "function"
    },
    {
      "inputs": [
        {
          "internalType": "bytes32",
          "name": "claimId",
          "type": "bytes32"
        }
      ],
      "name": "withdrawCompensation",
      "outputs": [],
      "stateMutability": "payable",
      "type": "function"
    },
    {
      "inputs": [],
      "name": "zkService",
      "outputs": [
        {
          "internalType": "contract IZkService",
          "name": "",
          "type": "address"
        }
      ],
      "stateMutability": "view",
      "type": "function"
    },
    {
      "stateMutability": "payable",
      "type": "receive"
    }
  ],
  "bytecode": "0x60806040523480156200001157600080fd5b506200001c62000022565b620000d6565b7ff0c57e16840df040f15088dc2f81fe391c3923bec73e23a9662efc9c229c6a00805468010000000000000000900460ff1615620000735760405163f92ee8a960e01b815260040160405180910390fd5b80546001600160401b0390811614620000d35780546001600160401b0319166001600160401b0390811782556040519081527fc7f505b2f371ae2175ee4913f4499e1f2633a7b5936321eed1cdaeb6115181d29060200160405180910390a15b50565b6150a680620000e66000396000f3fe6080604052600436106101185760003560e01c80638cc5d008116100a0578063bb64fd4411610064578063bb64fd4414610316578063c0c53b8b14610336578063ca0ab07514610356578063eff0f59214610376578063f2fde38b146103ff57600080fd5b80638cc5d008146102665780638da5cb5b1461027957806399b29871146102b65780639a46c8cf146102d6578063b4e25e80146102f657600080fd5b80635cd5f637116100e75780635cd5f637146101c3578063715018a6146101e3578063759787c4146101f857806386312159146102185780638c4e46e91461024657600080fd5b80630b1fa61c146101245780632c7e8ca3146101465780633b716452146101665780633e5d7588146101a357600080fd5b3661011f57005b600080fd5b34801561013057600080fd5b5061014461013f36600461444b565b61041f565b005b34801561015257600080fd5b5061014461016136600461444b565b6104d7565b34801561017257600080fd5b50600154610186906001600160a01b031681565b6040516001600160a01b0390911681526020015b60405180910390f35b3480156101af57600080fd5b506101446101be36600461444b565b610589565b3480156101cf57600080fd5b50600054610186906001600160a01b031681565b3480156101ef57600080fd5b5061014461062f565b34801561020457600080fd5b50600354610186906001600160a01b031681565b34801561022457600080fd5b506102386102333660046144b0565b610643565b60405190815260200161019a565b34801561025257600080fd5b5061023861026136600461450b565b610e34565b610144610274366004614556565b61169b565b34801561028557600080fd5b507f9016d09d72d40fdae2fd8ceac6b6234c7706214fd39c1cd1e609a0528c199300546001600160a01b0316610186565b3480156102c257600080fd5b506102386102d1366004614556565b611b80565b3480156102e257600080fd5b506102386102f1366004614556565b612179565b34801561030257600080fd5b5061014461031136600461444b565b61256f565b34801561032257600080fd5b50610238610331366004614556565b612617565b34801561034257600080fd5b5061014461035136600461456f565b612645565b34801561036257600080fd5b50600254610186906001600160a01b031681565b34801561038257600080fd5b506103eb610391366004614556565b6004602052600090815260409020805460018201546002830154600384015460058501546006909501546001600160a01b03948516959385169492939183169260ff80831692610100810490911691620100009091041688565b60405161019a9897969594939291906145d0565b34801561040b57600080fd5b5061014461041a36600461444b565b6127f6565b610427612834565b6001600160a01b03811661048d5760405162461bcd60e51b815260206004820152602260248201527f496e76616c6964205472616e73616374696f6e4d616e61676572206164647265604482015261737360f01b60648201526084015b60405180910390fd5b600180546001600160a01b0319166001600160a01b0383169081179091556040517f3bc3af46ee56a7b5246248b8e24bb285f23d745c278db873d49f66c027a19f2b90600090a250565b6104df612834565b6001600160a01b03811661053f5760405162461bcd60e51b815260206004820152602160248201527f496e76616c69642041726269747261746f724d616e61676572206164647265736044820152607360f81b6064820152608401610484565b600380546001600160a01b0319166001600160a01b0383169081179091556040517f5501b7dfdd6860a14bdbc85c3ca16cf46242ad8c30ffecaaf2dbc192ef761bfc90600090a250565b610591612834565b6001600160a01b0381166105e75760405162461bcd60e51b815260206004820152601960248201527f496e76616c6964205a6b536572766963652061646472657373000000000000006044820152606401610484565b600080546001600160a01b0319166001600160a01b038316908117825560405190917f89f8f878479acf261604346b8864312704f9de61c236e83a48afc4d87d93b19a91a250565b610637612834565b610641600061288f565b565b6003546040516326415b0f60e21b81526001600160a01b03868116600483015260009283929116906399056c3c90602401600060405180830381865afa158015610691573d6000803e3d6000fd5b505050506040513d6000823e601f3d908101601f191682016040526106b99190810190614851565b60608101519091506000036106f857604080518082018252600281526109a760f31b6020820152905162461bcd60e51b815261048491906004016149f9565b6001546060820151604051632a242ded60e21b815260048101919091526000916001600160a01b03169063a890b7b490602401600060405180830381865afa158015610748573d6000803e3d6000fd5b505050506040513d6000823e601f3d908101601f191682016040526107709190810190614b28565b905060008160c00151600581111561078a5761078a6145ba565b146107bf57604080518082018252600281526109a760f31b6020820152905162461bcd60e51b815261048491906004016149f9565b838782610120015160006040516020016107dc9493929190614c95565b60408051601f198184030181529181528151602092830120600081815260049093529120549093506001600160a01b0316156108425760408051808201825260028152614d3960f01b6020820152905162461bcd60e51b815261048491906004016149f9565b6040805160c08101825260008082526060602083018190528284018290528083018190526080830182905260a083015254915163ddb8ec8b60e01b81526004810187905290916001600160a01b03169063ddb8ec8b90602401600060405180830381865afa1580156108b8573d6000803e3d6000fd5b505050506040513d6000823e601f3d908101601f191682016040526108e09190810190614cf3565b80519091501561091a576040805180820182526002815261269b60f11b6020820152905162461bcd60e51b815261048491906004016149f9565b602081015151158061092e57506040810151155b15610963576040805180820182526002815261493760f01b6020820152905162461bcd60e51b815261048491906004016149f9565b806080015161099c576040805180820182526002815261299b60f11b6020820152905162461bcd60e51b815261048491906004016149f9565b826101200151516000036109da576040805180820182526002815261493760f01b6020820152905162461bcd60e51b815261048491906004016149f9565b8261012001518051906020012081602001518051906020012014610a285760408051808201825260028152614d3760f01b6020820152905162461bcd60e51b815261048491906004016149f9565b6000610a348888612900565b90506000610a4182612af0565b90508260400151600282604051610a589190614dcc565b602060405180830381855afa158015610a75573d6000803e3d6000fd5b5050506040513d601f19601f82011682018060405250810190610a989190614de8565b14610acd576040805180820182526002815261423160f01b6020820152905162461bcd60e51b815261048491906004016149f9565b610ae08360a001518561016001516131c5565b60035460405163014f6b1960e41b81526001600160a01b038c8116600483015260009216906314f6b19090602401602060405180830381865afa158015610b2b573d6000803e3d6000fd5b505050506040513d601f19601f82011682018060405250810190610b4f9190614de8565b905080600003610b8957604080518082018252600281526109c760f31b6020820152905162461bcd60e51b815261048491906004016149f9565b604051806101200160405280336001600160a01b031681526020018c6001600160a01b03168152602001876080015181526020018760c001516001600160a01b031681526020018760e00151815260200182815260200160001515815260200160006003811115610bfc57610bfc6145ba565b81526101208701516001600160a01b0390811660209283015260008a81526004808452604091829020855181549085166001600160a01b031991821617825586860151600183018054918716918316919091179055928601516002820155606086015160038201805491909516931692909217909255608084015180519193610c8a938501929101906143d6565b5060a0820151600582015560c082015160068201805491151560ff1983168117825560e08501519261ff001990911661ffff1990911617610100836003811115610cd657610cd66145ba565b021790555061010091909101516006909101805462010000600160b01b031916620100006001600160a01b039384160217905560035460405163133165fb60e31b81528d8316600482015291169063998b2fd890602401600060405180830381600087803b158015610d4757600080fd5b505af1158015610d5b573d6000803e3d6000fd5b5050600154606089015161012089015160405163d09d03a360e01b81526001600160a01b03909316945063d09d03a39350610daa926004019182526001600160a01b0316602082015260400190565b600060405180830381600087803b158015610dc457600080fd5b505af1158015610dd8573d6000803e3d6000fd5b50505050608086015160e08701516101208701516040516001600160a01b038f169333938c9360008051602061505183398151915293610e1e9392918991600090614e01565b60405180910390a4505050505050949350505050565b6000610e746040518060c0016040528060008152602001606081526020016000801916815260200160608152602001600015158152602001606081525090565b60005460405163ddb8ec8b60e01b8152600481018590526001600160a01b039091169063ddb8ec8b90602401600060405180830381865afa158015610ebd573d6000803e3d6000fd5b505050506040513d6000823e601f3d908101601f19168201604052610ee59190810190614cf3565b805190915015610f1f576040805180820182526002815261269b60f11b6020820152905162461bcd60e51b815261048491906004016149f9565b806020015151600003610f5c576040805180820182526002815261453160f01b6020820152905162461bcd60e51b815261048491906004016149f9565b6040810151610f95576040805180820182526002815261229960f11b6020820152905162461bcd60e51b815261048491906004016149f9565b806060015151600003610fd2576040805180820182526002815261453360f01b6020820152905162461bcd60e51b815261048491906004016149f9565b80608001511561100c576040805180820182526002815261533760f01b6020820152905162461bcd60e51b815261048491906004016149f9565b600154604082810151905163255709e560e11b815260048101919091526000916001600160a01b031690634aae13ca90602401600060405180830381865afa15801561105c573d6000803e3d6000fd5b505050506040513d6000823e601f3d908101601f191682016040526110849190810190614b28565b905060006110928787612900565b9050600061109f82612af0565b90508260a001516002826040516110b69190614dcc565b602060405180830381855afa1580156110d3573d6000803e3d6000fd5b5050506040513d601f19601f820116820180604052508101906110f69190614de8565b1461112b576040805180820182526002815261423160f01b6020820152905162461bcd60e51b815261048491906004016149f9565b858360200151846101200151600260405160200161114c9493929190614c95565b60408051601f198184030181529181528151602092830120600081815260049093529120549095506001600160a01b0316156111b25760408051808201825260028152614d3960f01b6020820152905162461bcd60e51b815261048491906004016149f9565b6111c58460a001518461016001516131c5565b82610100015151600003611203576040805180820182526002815261533560f01b6020820152905162461bcd60e51b815261048491906004016149f9565b8360600151805190602001208361010001518051906020012014611251576040805180820182526002815261299b60f11b6020820152905162461bcd60e51b815261048491906004016149f9565b60035460208401516040516326415b0f60e21b81526001600160a01b03918216600482015260009291909116906399056c3c90602401600060405180830381865afa1580156112a4573d6000803e3d6000fd5b505050506040513d6000823e601f3d908101601f191682016040526112cc9190810190614851565b9050806101200151805190602001208560200151805190602001201461131c5760408051808201825260028152614d3760f01b6020820152905162461bcd60e51b815261048491906004016149f9565b600354602085015160405163014f6b1960e41b81526001600160a01b03918216600482015260009291909116906314f6b19090602401602060405180830381865afa15801561136f573d6000803e3d6000fd5b505050506040513d601f19601f820116820180604052508101906113939190614de8565b9050806000036113cd57604080518082018252600281526109c760f31b6020820152905162461bcd60e51b815261048491906004016149f9565b604051806101200160405280336001600160a01b0316815260200186602001516001600160a01b03168152602001836080015181526020018360c001516001600160a01b031681526020018360e00151815260200182815260200160001515815260200160026003811115611444576114446145ba565b81526101208701516001600160a01b0390811660209283015260008a81526004808452604091829020855181549085166001600160a01b0319918216178255868601516001830180549187169183169190911790559286015160028201556060860151600382018054919095169316929092179092556080840151805191936114d2938501929101906143d6565b5060a0820151600582015560c082015160068201805491151560ff1983168117825560e08501519261ff001990911661ffff199091161761010083600381111561151e5761151e6145ba565b021790555061010091909101516006909101805462010000600160b01b031916620100006001600160a01b0393841602179055600354602087015160405163133165fb60e31b8152908316600482015291169063998b2fd890602401600060405180830381600087803b15801561159457600080fd5b505af11580156115a8573d6000803e3d6000fd5b5050600154606085015161012089015160405163d09d03a360e01b81526001600160a01b03909316945063d09d03a393506115f7926004019182526001600160a01b0316602082015260400190565b600060405180830381600087803b15801561161157600080fd5b505af1158015611625573d6000803e3d6000fd5b5050505084602001516001600160a01b0316336001600160a01b03168860008051602061505183398151915285608001518660e00151868b610120015160026003811115611675576116756145ba565b604051611686959493929190614e01565b60405180910390a45050505050509392505050565b6000818152600460205260409020600681015460ff16156116e6576040805180820182526002815261134d60f21b6020820152905162461bcd60e51b815261048491906004016149f9565b60028101541580156116fa57506004810154155b1561172f5760408051808201825260028152614d3560f01b6020820152905162461bcd60e51b815261048491906004016149f9565b60068101546201000090046001600160a01b031661177757604080518082018252600281526105a360f41b6020820152905162461bcd60e51b815261048491906004016149f9565b60025460408051631e4432d760e11b815290516000926001600160a01b031691633c8865ae9160048083019260209291908290030181865afa1580156117c1573d6000803e3d6000fd5b505050506040513d601f19601f820116820180604052508101906117e59190614de8565b905060006127108284600501546117fc9190614e85565b6118069190614e9c565b905080341015611840576040805180820182526002815261543560f01b6020820152905162461bcd60e51b815261048491906004016149f9565b60068301805460ff191660011790556002830154156118fb57600683015460028401546040516000926201000090046001600160a01b031691908381818185875af1925050503d80600081146118b2576040519150601f19603f3d011682016040523d82523d6000602084013e6118b7565b606091505b50509050806118f95760405162461bcd60e51b815260206004820152600e60248201526d151c985b9cd9995c91985a5b195960921b6044820152606401610484565b505b60005b60048401548110156119cf57600384015460068501546004860180546001600160a01b03938416936323b872dd93309362010000909104909116918690811061194957611949614ebe565b6000918252602090912001546040516001600160e01b031960e086901b1681526001600160a01b0393841660048201529290911660248301526044820152606401600060405180830381600087803b1580156119a457600080fd5b505af11580156119b8573d6000803e3d6000fd5b5050505080806119c790614ed4565b9150506118fe565b506002546040805163045b2b8560e51b815290516000926001600160a01b031691638b6570a09160048083019260209291908290030181865afa158015611a1a573d6000803e3d6000fd5b505050506040513d601f19601f82011682018060405250810190611a3e9190614eed565b6040519091506001600160a01b0382169083156108fc029084906000818181858888f19350505050158015611a77573d6000803e3d6000fd5b50600082341115611b1a57611a8c8334614f0a565b604051909150600090339083908381818185875af1925050503d8060008114611ad1576040519150601f19603f3d011682016040523d82523d6000602084013e611ad6565b606091505b5050905080611b185760405162461bcd60e51b815260206004820152600e60248201526d151c985b9cd9995c91985a5b195960921b6044820152606401610484565b505b60068501546002860154604051620100009092046001600160a01b031691339189917fa6a4bd55cab187f1d44eb0f7fde59c599b88b1f8db6e4f916348d93ef1ad695091611b709160048c01908a908990614f1d565b60405180910390a4505050505050565b600154604051632a242ded60e21b81526004810183905260009182916001600160a01b039091169063a890b7b490602401600060405180830381865afa158015611bce573d6000803e3d6000fd5b505050506040513d6000823e601f3d908101601f19168201604052611bf69190810190614b28565b602080820151610140830151604051939450611c1793879360019101614c95565b60408051601f198184030181529181528151602092830120600081815260049093529120549092506001600160a01b031615611c7d5760408051808201825260028152614d3960f01b6020820152905162461bcd60e51b815261048491906004016149f9565b60028160c001516005811115611c9557611c956145ba565b14611cca576040805180820182526002815261269960f11b6020820152905162461bcd60e51b815261048491906004016149f9565b60025460408051632b6f600d60e01b815290516000926001600160a01b031691632b6f600d9160048083019260209291908290030181865afa158015611d14573d6000803e3d6000fd5b505050506040513d601f19601f82011682018060405250810190611d389190614de8565b90504281836101a00151611d4c9190614f7a565b1115611d825760408051808201825260028152614d3360f01b6020820152905162461bcd60e51b815261048491906004016149f9565b60035460208301516040516326415b0f60e21b81526001600160a01b03918216600482015260009291909116906399056c3c90602401600060405180830381865afa158015611dd5573d6000803e3d6000fd5b505050506040513d6000823e601f3d908101601f19168201604052611dfd9190810190614851565b600354602085015160405163014f6b1960e41b81526001600160a01b0391821660048201529293506000929116906314f6b19090602401602060405180830381865afa158015611e51573d6000803e3d6000fd5b505050506040513d601f19601f82011682018060405250810190611e759190614de8565b905080600003611eaf57604080518082018252600281526109c760f31b6020820152905162461bcd60e51b815261048491906004016149f9565b604051806101200160405280336001600160a01b0316815260200185602001516001600160a01b03168152602001836080015181526020018360c001516001600160a01b031681526020018360e00151815260200182815260200160001515815260200160016003811115611f2657611f266145ba565b81526101408601516001600160a01b0390811660209283015260008881526004808452604091829020855181549085166001600160a01b031991821617825586860151600183018054918716918316919091179055928601516002820155606086015160038201805491909516931692909217909255608084015180519193611fb4938501929101906143d6565b5060a0820151600582015560c082015160068201805491151560ff1983168117825560e08501519261ff001990911661ffff1990911617610100836003811115612000576120006145ba565b021790555061010091909101516006909101805462010000600160b01b031916620100006001600160a01b0393841602179055600354602086015160405163133165fb60e31b8152908316600482015291169063998b2fd890602401600060405180830381600087803b15801561207657600080fd5b505af115801561208a573d6000803e3d6000fd5b5050600154606085015161014088015160405163d09d03a360e01b81526001600160a01b03909316945063d09d03a393506120d9926004019182526001600160a01b0316602082015260400190565b600060405180830381600087803b1580156120f357600080fd5b505af1158015612107573d6000803e3d6000fd5b5050505083602001516001600160a01b0316336001600160a01b03168660008051602061505183398151915285608001518660e00151868a610140015160016003811115612157576121576145ba565b604051612168959493929190614e01565b60405180910390a450505050919050565b600154604051632a242ded60e21b81526004810183905260009182916001600160a01b039091169063a890b7b490602401600060405180830381865afa1580156121c7573d6000803e3d6000fd5b505050506040513d6000823e601f3d908101601f191682016040526121ef9190810190614b28565b60208101519091506001600160a01b031633146122365760408051808201825260028152614d3160f01b6020820152905162461bcd60e51b815261048491906004016149f9565b600154604051637577b6df60e01b8152600481018590526000916001600160a01b031690637577b6df9060240160408051808303816000875af1158015612281573d6000803e3d6000fd5b505050506040513d601f19601f820116820180604052508101906122a59190614f8d565b5060035460208401516040516326415b0f60e21b81526001600160a01b0391821660048201529293506000929116906399056c3c90602401600060405180830381865afa1580156122fa573d6000803e3d6000fd5b505050506040513d6000823e601f3d908101601f191682016040526123229190810190614851565b90506000858460200151836101c0015160036040516020016123479493929190614c95565b60408051601f198184030181529181528151602092830120600081815260049093529120549091506001600160a01b0316156123ad5760408051808201825260028152614d3960f01b6020820152905162461bcd60e51b815261048491906004016149f9565b60408051610120810182523381526020868101516001600160a01b03908116828401908152838501888152600060608601818152875182815280870189526080880190815260a088018c9052600160c08901819052600360e08a018190526101c08d015188166101008b01528b85526004808a529a909420895181549089166001600160a01b03199182161782559651918101805492891692881692909217909155935160028501559051918301805492909516919093161790925551805193949193612482939285019291909101906143d6565b5060a0820151600582015560c082015160068201805491151560ff1983168117825560e08501519261ff001990911661ffff19909116176101008360038111156124ce576124ce6145ba565b021790555061010091909101516006909101805462010000600160b01b031916620100006001600160a01b03938416021790556020850151163382600080516020615051833981519152866000604051908082528060200260200182016040528015612544578160200160208202803683370190505b506101c088015160405161255e9392918b91600390614e01565b60405180910390a495945050505050565b612577612834565b6001600160a01b0381166125cd5760405162461bcd60e51b815260206004820152601d60248201527f496e76616c696420436f6e6669674d616e6167657220616464726573730000006044820152606401610484565b600280546001600160a01b0319166001600160a01b0383169081179091556040517f6a801685c5950e3d8ece256f75ca0ff31ed0ae02aeae73f8180ff32e978a2f6b90600090a250565b6000818152600460205260408120600681015460ff161561263b5750600092915050565b6005015492915050565b7ff0c57e16840df040f15088dc2f81fe391c3923bec73e23a9662efc9c229c6a008054600160401b810460ff1615906001600160401b031660008115801561268a5750825b90506000826001600160401b031660011480156126a65750303b155b9050811580156126b4575080155b156126d25760405163f92ee8a960e01b815260040160405180910390fd5b845467ffffffffffffffff1916600117855583156126fc57845460ff60401b1916600160401b1785555b61270533613380565b6001600160a01b038816158061272257506001600160a01b038716155b8061273457506001600160a01b038616155b1561276957604080518082018252600281526105a360f41b6020820152905162461bcd60e51b815261048491906004016149f9565b600080546001600160a01b03808b166001600160a01b031992831617909255600280548a8416908316179055600380549289169290911691909117905583156127ec57845460ff60401b19168555604051600181527fc7f505b2f371ae2175ee4913f4499e1f2633a7b5936321eed1cdaeb6115181d29060200160405180910390a15b5050505050505050565b6127fe612834565b6001600160a01b03811661282857604051631e4fbdf760e01b815260006004820152602401610484565b6128318161288f565b50565b336128667f9016d09d72d40fdae2fd8ceac6b6234c7706214fd39c1cd1e609a0528c199300546001600160a01b031690565b6001600160a01b0316146106415760405163118cdaa760e01b8152336004820152602401610484565b7f9016d09d72d40fdae2fd8ceac6b6234c7706214fd39c1cd1e609a0528c19930080546001600160a01b031981166001600160a01b03848116918217845560405192169182907f8be0079c531659141344cd1fd0a4f28419497f9722a3daafe3b4186f6b6457e090600090a3505050565b6040805160a081018252600080825260606020830181905292820183905291810182905260808101829052908280612939600484614f7a565b111561296f576040805180820182526002815261543760f01b6020820152905162461bcd60e51b815261048491906004016149f9565b6129b085858080601f016020809104026020016040519081016040528093929190818152602001838380828437600092019190915250869250613391915050565b63ffffffff1683526129c3600483614f7a565b91506000806129d387878661347b565b8115156080880152945091508390506000806129f089898561350e565b6020890182905296509150859050600080612a0c8b8b85613606565b60408b01829052985091508790508515612a3057612a2d8b8b8a87516136e6565b97505b86612a3c896004614f7a565b1115612a72576040805180820182526002815261543760f01b6020820152905162461bcd60e51b815261048491906004016149f9565b8a888b612a80826004614f7a565b92612a8d93929190614fb1565b612a9691614fdb565b60e01c60608a0152612aa9600489614f7a565b9750868814612ae2576040805180820182526002815261543760f01b6020820152905162461bcd60e51b815261048491906004016149f9565b505050505050505092915050565b6060600060049050612b06836020015151613779565b612b109082614f7a565b905060005b836020015151811015612b4e57612b2d602883614f7a565b9150612b3a600183614f7a565b915080612b4681614ed4565b915050612b15565b50612b5d836040015151613779565b612b679082614f7a565b905060005b836040015151811015612bff57612b84600883614f7a565b9150612bb184604001518281518110612b9f57612b9f614ebe565b60200260200101516020015151613779565b612bbb9083614f7a565b915083604001518181518110612bd357612bd3614ebe565b6020026020010151602001515182612beb9190614f7a565b915080612bf781614ed4565b915050612b6c565b50612c0b600482614f7a565b90506000816001600160401b03811115612c2757612c27614643565b6040519080825280601f01601f191660200182016040528015612c51576020820181803683370190505b50845190915060009060e01b815b6004811015612ccc5781612c74826003614f0a565b60048110612c8457612c84614ebe565b1a60f81b84612c938386614f7a565b81518110612ca357612ca3614ebe565b60200101906001600160f81b031916908160001a90535080612cc481614ed4565b915050612c5f565b50612cd8600483614f7a565b9150612cea86602001515184846137bd565b612cf49083614f7a565b915060005b866020015151811015612f455760005b6020811015612d995787602001518281518110612d2857612d28614ebe565b60200260200101516000015181601f612d419190614f0a565b60208110612d5157612d51614ebe565b1a60f81b85612d608387614f7a565b81518110612d7057612d70614ebe565b60200101906001600160f81b031916908160001a90535080612d9181614ed4565b915050612d09565b50612da5602084614f7a565b9250600087602001518281518110612dbf57612dbf614ebe565b60200260200101516020015160e01b905060005b6004811015612e405781612de8826003614f0a565b60048110612df857612df8614ebe565b1a60f81b86612e078388614f7a565b81518110612e1757612e17614ebe565b60200101906001600160f81b031916908160001a90535080612e3881614ed4565b915050612dd3565b50612e4c600485614f7a565b9350600060f81b858581518110612e6557612e65614ebe565b60200101906001600160f81b031916908160001a905350612e87600185614f7a565b9350600088602001518381518110612ea157612ea1614ebe565b60200260200101516060015160e01b905060005b6004811015612f225781612eca826003614f0a565b60048110612eda57612eda614ebe565b1a60f81b87612ee98389614f7a565b81518110612ef957612ef9614ebe565b60200101906001600160f81b031916908160001a90535080612f1a81614ed4565b915050612eb5565b50612f2e600486614f7a565b945050508080612f3d90614ed4565b915050612cf9565b50612f5686604001515184846137bd565b612f609083614f7a565b915060005b86604001515181101561314a57600087604001518281518110612f8a57612f8a614ebe565b60200260200101516000015160c01b905060005b600881101561300b5781612fb3826007614f0a565b60088110612fc357612fc3614ebe565b1a60f81b86612fd28388614f7a565b81518110612fe257612fe2614ebe565b60200101906001600160f81b031916908160001a9053508061300381614ed4565b915050612f9e565b50613017600885614f7a565b93506130468860400151838151811061303257613032614ebe565b6020026020010151602001515186866137bd565b6130509085614f7a565b935060005b8860400151838151811061306b5761306b614ebe565b60200260200101516020015151811015613105578860400151838151811061309557613095614ebe565b60200260200101516020015181815181106130b2576130b2614ebe565b01602001516001600160f81b031916866130cc8388614f7a565b815181106130dc576130dc614ebe565b60200101906001600160f81b031916908160001a905350806130fd81614ed4565b915050613055565b508760400151828151811061311c5761311c614ebe565b60200260200101516020015151846131349190614f7a565b935050808061314290614ed4565b915050612f65565b50606086015160e01b60005b60048110156131b95781816004811061317157613171614ebe565b1a60f81b856131808387614f7a565b8151811061319057613190614ebe565b60200101906001600160f81b031916908160001a905350806131b181614ed4565b915050613156565b50929695505050505050565b80518251146131fe576040805180820182526002815261055360f41b6020820152905162461bcd60e51b815261048491906004016149f9565b60005b825181101561337b5781818151811061321c5761321c614ebe565b60200260200101516000015183828151811061323a5761323a614ebe565b6020026020010151600001511461327b576040805180820182526002815261055360f41b6020820152905162461bcd60e51b815261048491906004016149f9565b81818151811061328d5761328d614ebe565b60200260200101516020015163ffffffff168382815181106132b1576132b1614ebe565b60200260200101516020015163ffffffff16146132f8576040805180820182526002815261055360f41b6020820152905162461bcd60e51b815261048491906004016149f9565b81818151811061330a5761330a614ebe565b60200260200101516060015183828151811061332857613328614ebe565b60200260200101516060015114613369576040805180820182526002815261055360f41b6020820152905162461bcd60e51b815261048491906004016149f9565b8061337381614ed4565b915050613201565b505050565b613388613a3a565b61283181613a83565b81516000906133a1836004614f7a565b111560405180604001604052806002815260200161553560f01b815250906133dc5760405162461bcd60e51b815260040161048491906149f9565b508282815181106133ef576133ef614ebe565b016020015160f81c600884613405856001614f7a565b8151811061341557613415614ebe565b016020015160f81c901b60108561342d866002614f7a565b8151811061343d5761343d614ebe565b016020015160f81c901b601886613455876003614f7a565b8151811061346557613465614ebe565b016020015160f81c901b17171790505b92915050565b6000818361348a826002614f7a565b116135065760008585858181106134a3576134a3614ebe565b919091013560f81c91506000905086866134be876001614f7a565b8181106134cd576134cd614ebe565b919091013560f81c91505060ff82161580156134ec575060ff81166001145b156135035760019350613500600284614f7a565b92505b50505b935093915050565b60606000806000613520878787613a8b565b909250905061352f8186614f7a565b9250816001600160401b0381111561354957613549614643565b60405190808252806020026020018201604052801561359c57816020015b604080516080810182526000808252602080830182905260609383018490529282015282526000199092019101816135675790505b50935060005b828110156135fb576000806135b88a8a88613cf7565b91509150818784815181106135cf576135cf614ebe565b60209081029190910101526135e48187614f7a565b9550505080806135f390614ed4565b9150506135a2565b505050935093915050565b60606000806000613618878787613a8b565b90925090506136278186614f7a565b9250816001600160401b0381111561364157613641614643565b60405190808252806020026020018201604052801561368757816020015b60408051808201909152600081526060602082015281526020019060019003908161365f5790505b50935060005b828110156135fb576000806136a38a8a88613fab565b91509150818784815181106136ba576136ba614ebe565b60209081029190910101526136cf8187614f7a565b9550505080806136de90614ed4565b91505061368d565b8160005b8281101561377057600080613700888886613a8b565b909250905061370f8185614f7a565b935060005b8281101561375a5760008061372a8b8b89613a8b565b90925090506137398282614f7a565b6137439088614f7a565b96505050808061375290614ed4565b915050613714565b505050808061376890614ed4565b9150506136ea565b50949350505050565b600060fc82101561378c57506001919050565b61ffff821161379d57506003919050565b63ffffffff82116137b057506005919050565b506009919050565b919050565b600060fc8410156137fe578360f81b8383815181106137de576137de614ebe565b60200101906001600160f81b031916908160001a90535060019050613a33565b61ffff84116138b85760fd60f81b83838151811061381e5761381e614ebe565b60200101906001600160f81b031916908160001a90535060f084901b8060011a60f81b8461384d856001614f7a565b8151811061385d5761385d614ebe565b60200101906001600160f81b031916908160001a9053508060001a60f81b84613887856002614f7a565b8151811061389757613897614ebe565b60200101906001600160f81b031916908160001a9053506003915050613a33565b63ffffffff841161397d5760fe60f81b8383815181106138da576138da614ebe565b60200101906001600160f81b031916908160001a90535060e084901b60005b6004811015613972578161390e826003614f0a565b6004811061391e5761391e614ebe565b1a60f81b858261392f876001614f7a565b6139399190614f7a565b8151811061394957613949614ebe565b60200101906001600160f81b031916908160001a9053508061396a81614ed4565b9150506138f9565b506005915050613a33565b60ff60f81b83838151811061399457613994614ebe565b60200101906001600160f81b031916908160001a90535060c084901b60005b6008811015613a2c57816139c8826007614f0a565b600881106139d8576139d8614ebe565b1a60f81b85826139e9876001614f7a565b6139f39190614f7a565b81518110613a0357613a03614ebe565b60200101906001600160f81b031916908160001a90535080613a2481614ed4565b9150506139b3565b5060099150505b9392505050565b7ff0c57e16840df040f15088dc2f81fe391c3923bec73e23a9662efc9c229c6a0054600160401b900460ff1661064157604051631afcd79f60e31b815260040160405180910390fd5b6127fe613a3a565b600080838310613ac5576040805180820182526002815261543760f01b6020820152905162461bcd60e51b815261048491906004016149f9565b6000858585818110613ad957613ad9614ebe565b919091013560f81c91505060fc811015613afb5760ff16915060019050613506565b60fc1960ff821601613ba65784613b13856003614f7a565b1115613b49576040805180820182526002815261543760f01b6020820152905162461bcd60e51b815261048491906004016149f9565b613b9586868080601f016020809104026020016040519081016040528093929190818152602001838380828437600092019190915250613b90925088915060019050614f7a565b61411b565b61ffff169250600391506135069050565b60fd1960ff821601613c535784613bbe856005614f7a565b1115613bf4576040805180820182526002815261543760f01b6020820152905162461bcd60e51b815261048491906004016149f9565b613c4086868080601f016020809104026020016040519081016040528093929190818152602001838380828437600092019190915250613c3b925088915060019050614f7a565b613391565b63ffffffff169250600591506135069050565b84613c5f856009614f7a565b1115613c95576040805180820182526002815261543760f01b6020820152905162461bcd60e51b815261048491906004016149f9565b613ce186868080601f016020809104026020016040519081016040528093929190818152602001838380828437600092019190915250613cdc925088915060019050614f7a565b6141b2565b6001600160401b03169250600991506135069050565b6040805160808101825260008082526020820181905260609282018390529181019190915260008284613d2b826020614f7a565b1115613d61576040805180820182526002815261543760f01b6020820152905162461bcd60e51b815261048491906004016149f9565b613d8d868587613d72826020614f7a565b92613d7f93929190614fb1565b613d889161500b565b614341565b8352613d9a602085614f7a565b935084613da8856004614f7a565b1115613dde576040805180820182526002815261543760f01b6020820152905162461bcd60e51b815261048491906004016149f9565b613e1f86868080601f016020809104026020016040519081016040528093929190818152602001838380828437600092019190915250889250613391915050565b63ffffffff166020840152613e35600485614f7a565b9350600080613e45888888613a8b565b9092509050613e548187614f7a565b955086613e618388614f7a565b1115613e97576040805180820182526002815261543760f01b6020820152905162461bcd60e51b815261048491906004016149f9565b878688613ea48583614f7a565b92613eb193929190614fb1565b8080601f0160208091040260200160405190810160405280939291908181526020018383808284376000920191909152505050506040860152613ef48287614f7a565b955086613f02876004614f7a565b1115613f38576040805180820182526002815261543760f01b6020820152905162461bcd60e51b815261048491906004016149f9565b613f7988888080601f0160208091040260200160405190810160405280939291908181526020018383808284376000920191909152508a9250613391915050565b63ffffffff166060860152613f8f600487614f7a565b955084613f9c8488614f0a565b94509450505050935093915050565b60408051808201909152600081526060602082015260008284613fcf826008614f7a565b1115614005576040805180820182526002815261543760f01b6020820152905162461bcd60e51b815261048491906004016149f9565b61404686868080601f0160208091040260200160405190810160405280939291908181526020018383808284376000920191909152508892506141b2915050565b6001600160401b0316835261405c600885614f7a565b935060008061406c888888613a8b565b909250905061407b8187614f7a565b9550866140888388614f7a565b11156140be576040805180820182526002815261543760f01b6020820152905162461bcd60e51b815261048491906004016149f9565b8786886140cb8583614f7a565b926140d893929190614fb1565b8080601f0160208091040260200160405190810160405280939291908181526020018383808284376000920191909152505050506020860152613f8f8287614f7a565b815160009061412b836002614f7a565b111560405180604001604052806002815260200161154d60f21b815250906141665760405162461bcd60e51b815260040161048491906149f9565b5082828151811061417957614179614ebe565b016020015160f81c60088461418f856001614f7a565b8151811061419f5761419f614ebe565b016020015160f81c901b17905092915050565b81516000906141c2836008614f7a565b1115604051806040016040528060028152602001612a9b60f11b815250906141fd5760405162461bcd60e51b815260040161048491906149f9565b5082828151811061421057614210614ebe565b016020015160f81c600884614226856001614f7a565b8151811061423657614236614ebe565b016020015160f81c901b60108561424e866002614f7a565b8151811061425e5761425e614ebe565b016020015160f81c901b601886614276876003614f7a565b8151811061428657614286614ebe565b0160209081015160f81c90911b90876142a0886004614f7a565b815181106142b0576142b0614ebe565b016020015160f81c901b6028886142c8896005614f7a565b815181106142d8576142d8614ebe565b016020015160f81c901b6030896142f08a6006614f7a565b8151811061430057614300614ebe565b016020015160f81c901b60388a6143188b6007614f7a565b8151811061432857614328614ebe565b016020015160f81c901b17171717171717905092915050565b60408051602080825281830190925260009182919060208201818036833701905050905060005b60208110156143cc578361437d82601f614f0a565b6020811061438d5761438d614ebe565b1a60f81b8282815181106143a3576143a3614ebe565b60200101906001600160f81b031916908160001a905350806143c481614ed4565b915050614368565b50613a3381615029565b828054828255906000526020600020908101928215614411579160200282015b828111156144115782518255916020019190600101906143f6565b5061441d929150614421565b5090565b5b8082111561441d5760008155600101614422565b6001600160a01b038116811461283157600080fd5b60006020828403121561445d57600080fd5b8135613a3381614436565b60008083601f84011261447a57600080fd5b5081356001600160401b0381111561449157600080fd5b6020830191508360208285010111156144a957600080fd5b9250929050565b600080600080606085870312156144c657600080fd5b84356144d181614436565b935060208501356001600160401b038111156144ec57600080fd5b6144f887828801614468565b9598909750949560400135949350505050565b60008060006040848603121561452057600080fd5b83356001600160401b0381111561453657600080fd5b61454286828701614468565b909790965060209590950135949350505050565b60006020828403121561456857600080fd5b5035919050565b60008060006060848603121561458457600080fd5b833561458f81614436565b9250602084013561459f81614436565b915060408401356145af81614436565b809150509250925092565b634e487b7160e01b600052602160045260246000fd5b6001600160a01b03898116825288811660208301526040820188905286811660608301526080820186905284151560a08301526101008201906004851061462757634e487b7160e01b600052602160045260246000fd5b8460c084015280841660e0840152509998505050505050505050565b634e487b7160e01b600052604160045260246000fd5b60405161020081016001600160401b038111828210171561467c5761467c614643565b60405290565b604051608081016001600160401b038111828210171561467c5761467c614643565b6040516101c081016001600160401b038111828210171561467c5761467c614643565b60405160c081016001600160401b038111828210171561467c5761467c614643565b604051601f8201601f191681016001600160401b038111828210171561471157614711614643565b604052919050565b80516137b881614436565b805180151581146137b857600080fd5b60006001600160401b0382111561474d5761474d614643565b5060051b60200190565b600082601f83011261476857600080fd5b8151602061477d61477883614734565b6146e9565b82815260059290921b8401810191818101908684111561479c57600080fd5b8286015b848110156147b757805183529183019183016147a0565b509695505050505050565b60005b838110156147dd5781810151838201526020016147c5565b50506000910152565b600082601f8301126147f757600080fd5b81516001600160401b0381111561481057614810614643565b614823601f8201601f19166020016146e9565b81815284602083860101111561483857600080fd5b6148498260208301602087016147c2565b949350505050565b60006020828403121561486357600080fd5b81516001600160401b038082111561487a57600080fd5b90830190610200828603121561488f57600080fd5b614897614659565b6148a083614719565b81526148ae60208401614724565b60208201526040830151604082015260608301516060820152608083015160808201526148dd60a08401614719565b60a08201526148ee60c08401614719565b60c082015260e08301518281111561490557600080fd5b61491187828601614757565b60e083015250610100614925818501614719565b90820152610120838101518381111561493d57600080fd5b614949888287016147e6565b828401525050610140808401518381111561496357600080fd5b61496f888287016147e6565b828401525050610160808401518183015250610180808401518381111561499557600080fd5b6149a1888287016147e6565b8284015250506101a080840151838111156149bb57600080fd5b6149c7888287016147e6565b8284015250506101c091506149dd828401614719565b918101919091526101e091820151918101919091529392505050565b6020815260008251806020840152614a188160408501602087016147c2565b601f01601f19169190910160400192915050565b8051600681106137b857600080fd5b600082601f830112614a4c57600080fd5b81516020614a5c61477883614734565b82815260059290921b84018101918181019086841115614a7b57600080fd5b8286015b848110156147b75780516001600160401b0380821115614a9f5760008081fd5b908801906080828b03601f1901811315614ab95760008081fd5b614ac1614682565b87840151815260408085015163ffffffff81168114614ae05760008081fd5b828a015260608581015185811115614af85760008081fd5b614b068f8c838a01016147e6565b9284019290925294909201519381019390935250508352918301918301614a7f565b600060208284031215614b3a57600080fd5b81516001600160401b0380821115614b5157600080fd5b908301906101c08286031215614b6657600080fd5b614b6e6146a4565b614b7783614719565b8152614b8560208401614719565b60208201526040830151604082015260608301516060820152608083015182811115614bb057600080fd5b614bbc878286016147e6565b60808301525060a083015160a0820152614bd860c08401614a2c565b60c082015260e083015160e08201526101008084015183811115614bfb57600080fd5b614c07888287016147e6565b828401525050610120614c1b818501614719565b90820152610140614c2d848201614719565b908201526101608381015183811115614c4557600080fd5b614c5188828701614a3b565b8284015250506101808084015183811115614c6b57600080fd5b614c77888287016147e6565b91830191909152506101a09283015192810192909252509392505050565b84815260006bffffffffffffffffffffffff19808660601b166020840152808560601b1660348401525060048310614cdd57634e487b7160e01b600052602160045260246000fd5b5060f89190911b60488201526049019392505050565b600060208284031215614d0557600080fd5b81516001600160401b0380821115614d1c57600080fd5b9083019060c08286031215614d3057600080fd5b614d386146c7565b82518152602083015182811115614d4e57600080fd5b614d5a878286016147e6565b60208301525060408301516040820152606083015182811115614d7c57600080fd5b614d88878286016147e6565b606083015250614d9a60808401614724565b608082015260a083015182811115614db157600080fd5b614dbd87828601614a3b565b60a08301525095945050505050565b60008251614dde8184602087016147c2565b9190910192915050565b600060208284031215614dfa57600080fd5b5051919050565b600060a08201878352602060a08185015281885180845260c086019150828a01935060005b81811015614e4257845183529383019391830191600101614e26565b505060408501979097525050506001600160a01b0392909216606083015260ff1660809091015292915050565b634e487b7160e01b600052601160045260246000fd5b808202811582820484141761347557613475614e6f565b600082614eb957634e487b7160e01b600052601260045260246000fd5b500490565b634e487b7160e01b600052603260045260246000fd5b600060018201614ee657614ee6614e6f565b5060010190565b600060208284031215614eff57600080fd5b8151613a3381614436565b8181038181111561347557613475614e6f565b600060808201868352602060808185015281875480845260a0860191508860005282600020935060005b81811015614f6357845483526001948501949284019201614f47565b505060408501969096525050506060015292915050565b8082018082111561347557613475614e6f565b60008060408385031215614fa057600080fd5b505080516020909101519092909150565b60008085851115614fc157600080fd5b83861115614fce57600080fd5b5050820193919092039150565b6001600160e01b031981358181169160048510156150035780818660040360031b1b83161692505b505092915050565b8035602083101561347557600019602084900360031b1b1692915050565b8051602080830151919081101561504a576000198160200360031b1b821691505b5091905056feb9e0ad71af9252e1922aa65a5543f63b7ef69d1cbe0b60793ec8adaff1991817a26469706673582212200df33cf5ec4256670cd65e0c91190034f75e50246f77a3cbc6c76d25b98b0a3b64736f6c63430008140033",
  "linkReferences": {},
  "deployedLinkReferences": {}
}