{
  "_format": "hh-sol-artifact-1",
  "contractName": "CompensationManager",
  "sourceName": "contracts/core/CompensationManager.sol",
  "abi": [
    {
      "inputs": [],
      "stateMutability": "nonpayable",
      "type": "constructor"
    },
    {
      "inputs": [],
      "name": "InvalidInitialization",
      "type": "error"
    },
    {
      "inputs": [],
      "name": "NotInitializing",
      "type": "error"
    },
    {
      "inputs": [
        {
          "internalType": "address",
          "name": "owner",
          "type": "address"
        }
      ],
      "name": "OwnableInvalidOwner",
      "type": "error"
    },
    {
      "inputs": [
        {
          "internalType": "address",
          "name": "account",
          "type": "address"
        }
      ],
      "name": "OwnableUnauthorizedAccount",
      "type": "error"
    },
    {
      "anonymous": false,
      "inputs": [
        {
          "indexed": true,
          "internalType": "address",
          "name": "newArbitratorManager",
          "type": "address"
        }
      ],
      "name": "ArbitratorManagerUpdated",
      "type": "event"
    },
    {
      "anonymous": false,
      "inputs": [
        {
          "indexed": true,
          "internalType": "bytes32",
          "name": "claimId",
          "type": "bytes32"
        },
        {
          "indexed": true,
          "internalType": "address",
          "name": "claimer",
          "type": "address"
        },
        {
          "indexed": true,
          "internalType": "address",
          "name": "arbitrator",
          "type": "address"
        },
        {
          "indexed": false,
          "internalType": "uint256",
          "name": "ethAmount",
          "type": "uint256"
        },
        {
          "indexed": false,
          "internalType": "uint256[]",
          "name": "nftTokenIds",
          "type": "uint256[]"
        },
        {
          "indexed": false,
          "internalType": "uint256",
          "name": "totalAmount",
          "type": "uint256"
        },
        {
          "indexed": false,
          "internalType": "address",
          "name": "receivedCompensationAddress",
          "type": "address"
        },
        {
          "indexed": false,
          "internalType": "uint8",
          "name": "claimType",
          "type": "uint8"
        }
      ],
      "name": "CompensationClaimed",
      "type": "event"
    },
    {
      "anonymous": false,
      "inputs": [
        {
          "indexed": true,
          "internalType": "bytes32",
          "name": "claimId",
          "type": "bytes32"
        },
        {
          "indexed": true,
          "internalType": "address",
          "name": "claimer",
          "type": "address"
        },
        {
          "indexed": true,
          "internalType": "address",
          "name": "receivedCompensationAddress",
          "type": "address"
        },
        {
          "indexed": false,
          "internalType": "uint256",
          "name": "ethAmount",
          "type": "uint256"
        },
        {
          "indexed": false,
          "internalType": "uint256[]",
          "name": "nftTokenIds",
          "type": "uint256[]"
        },
        {
          "indexed": false,
          "internalType": "uint256",
          "name": "systemFee",
          "type": "uint256"
        },
        {
          "indexed": false,
          "internalType": "uint256",
          "name": "excessPaymenttoClaimer",
          "type": "uint256"
        }
      ],
      "name": "CompensationWithdrawn",
      "type": "event"
    },
    {
      "anonymous": false,
      "inputs": [
        {
          "indexed": true,
          "internalType": "address",
          "name": "newConfigManager",
          "type": "address"
        }
      ],
      "name": "ConfigManagerUpdated",
      "type": "event"
    },
    {
      "anonymous": false,
      "inputs": [
        {
          "indexed": false,
          "internalType": "uint64",
          "name": "version",
          "type": "uint64"
        }
      ],
      "name": "Initialized",
      "type": "event"
    },
    {
      "anonymous": false,
      "inputs": [
        {
          "indexed": true,
          "internalType": "address",
          "name": "previousOwner",
          "type": "address"
        },
        {
          "indexed": true,
          "internalType": "address",
          "name": "newOwner",
          "type": "address"
        }
      ],
      "name": "OwnershipTransferred",
      "type": "event"
    },
    {
      "anonymous": false,
      "inputs": [
        {
          "indexed": true,
          "internalType": "address",
          "name": "newSignatureValidationService",
          "type": "address"
        }
      ],
      "name": "SignatureValidationServiceUpdated",
      "type": "event"
    },
    {
      "anonymous": false,
      "inputs": [
        {
          "indexed": true,
          "internalType": "address",
          "name": "newTransactionManager",
          "type": "address"
        }
      ],
      "name": "TransactionManagerUpdated",
      "type": "event"
    },
    {
      "anonymous": false,
      "inputs": [
        {
          "indexed": true,
          "internalType": "address",
          "name": "newZkService",
          "type": "address"
        }
      ],
      "name": "ZkServiceUpdated",
      "type": "event"
    },
    {
      "inputs": [],
      "name": "arbitratorManager",
      "outputs": [
        {
          "internalType": "contract IArbitratorManager",
          "name": "",
          "type": "address"
        }
      ],
      "stateMutability": "view",
      "type": "function"
    },
    {
      "inputs": [
        {
          "internalType": "bytes32",
          "name": "txId",
          "type": "bytes32"
        }
      ],
      "name": "claimArbitratorFee",
      "outputs": [
        {
          "internalType": "bytes32",
          "name": "",
          "type": "bytes32"
        }
      ],
      "stateMutability": "nonpayable",
      "type": "function"
    },
    {
      "inputs": [
        {
          "internalType": "bytes32",
          "name": "evidence",
          "type": "bytes32"
        }
      ],
      "name": "claimFailedArbitrationCompensation",
      "outputs": [
        {
          "internalType": "bytes32",
          "name": "claimId",
          "type": "bytes32"
        }
      ],
      "stateMutability": "nonpayable",
      "type": "function"
    },
    {
      "inputs": [
        {
          "internalType": "address",
          "name": "arbitrator",
          "type": "address"
        },
        {
          "internalType": "bytes32",
          "name": "evidence",
          "type": "bytes32"
        }
      ],
      "name": "claimIllegalSignatureCompensation",
      "outputs": [
        {
          "internalType": "bytes32",
          "name": "claimId",
          "type": "bytes32"
        }
      ],
      "stateMutability": "nonpayable",
      "type": "function"
    },
    {
      "inputs": [
        {
          "internalType": "bytes32",
          "name": "id",
          "type": "bytes32"
        }
      ],
      "name": "claimTimeoutCompensation",
      "outputs": [
        {
          "internalType": "bytes32",
          "name": "claimId",
          "type": "bytes32"
        }
      ],
      "stateMutability": "nonpayable",
      "type": "function"
    },
    {
      "inputs": [
        {
          "internalType": "bytes32",
          "name": "",
          "type": "bytes32"
        }
      ],
      "name": "claims",
      "outputs": [
        {
          "internalType": "address",
          "name": "claimer",
          "type": "address"
        },
        {
          "internalType": "address",
          "name": "arbitrator",
          "type": "address"
        },
        {
          "internalType": "uint256",
          "name": "ethAmount",
          "type": "uint256"
        },
        {
          "internalType": "address",
          "name": "nftContract",
          "type": "address"
        },
        {
          "internalType": "uint256",
          "name": "totalAmount",
          "type": "uint256"
        },
        {
          "internalType": "bool",
          "name": "withdrawn",
          "type": "bool"
        },
        {
          "internalType": "enum CompensationManager.CompensationType",
          "name": "claimType",
          "type": "uint8"
        },
        {
          "internalType": "address",
          "name": "receivedCompensationAddress",
          "type": "address"
        }
      ],
      "stateMutability": "view",
      "type": "function"
    },
    {
      "inputs": [],
      "name": "configManager",
      "outputs": [
        {
          "internalType": "contract IConfigManager",
          "name": "",
          "type": "address"
        }
      ],
      "stateMutability": "view",
      "type": "function"
    },
    {
      "inputs": [
        {
          "internalType": "bytes32",
          "name": "claimId",
          "type": "bytes32"
        }
      ],
      "name": "getClaimableAmount",
      "outputs": [
        {
          "internalType": "uint256",
          "name": "",
          "type": "uint256"
        }
      ],
      "stateMutability": "view",
      "type": "function"
    },
    {
      "inputs": [
        {
          "internalType": "bytes32",
          "name": "claimId",
          "type": "bytes32"
        }
      ],
      "name": "getWithdrawCompensationFee",
      "outputs": [
        {
          "internalType": "uint256",
          "name": "",
          "type": "uint256"
        }
      ],
      "stateMutability": "view",
      "type": "function"
    },
    {
      "inputs": [
        {
          "internalType": "address",
          "name": "_zkService",
          "type": "address"
        },
        {
          "internalType": "address",
          "name": "_configManager",
          "type": "address"
        },
        {
          "internalType": "address",
          "name": "_arbitratorManager",
          "type": "address"
        },
        {
          "internalType": "address",
          "name": "_signatureValidationService",
          "type": "address"
        }
      ],
      "name": "initialize",
      "outputs": [],
      "stateMutability": "nonpayable",
      "type": "function"
    },
    {
      "inputs": [],
      "name": "owner",
      "outputs": [
        {
          "internalType": "address",
          "name": "",
          "type": "address"
        }
      ],
      "stateMutability": "view",
      "type": "function"
    },
    {
      "inputs": [],
      "name": "renounceOwnership",
      "outputs": [],
      "stateMutability": "nonpayable",
      "type": "function"
    },
    {
      "inputs": [
        {
          "internalType": "address",
          "name": "_arbitratorManager",
          "type": "address"
        }
      ],
      "name": "setArbitratorManager",
      "outputs": [],
      "stateMutability": "nonpayable",
      "type": "function"
    },
    {
      "inputs": [
        {
          "internalType": "address",
          "name": "_configManager",
          "type": "address"
        }
      ],
      "name": "setConfigManager",
      "outputs": [],
      "stateMutability": "nonpayable",
      "type": "function"
    },
    {
      "inputs": [
        {
          "internalType": "address",
          "name": "_signatureValidationService",
          "type": "address"
        }
      ],
      "name": "setSignatureValidationService",
      "outputs": [],
      "stateMutability": "nonpayable",
      "type": "function"
    },
    {
      "inputs": [
        {
          "internalType": "address",
          "name": "_transactionManager",
          "type": "address"
        }
      ],
      "name": "setTransactionManager",
      "outputs": [],
      "stateMutability": "nonpayable",
      "type": "function"
    },
    {
      "inputs": [
        {
          "internalType": "address",
          "name": "_zkService",
          "type": "address"
        }
      ],
      "name": "setZkService",
      "outputs": [],
      "stateMutability": "nonpayable",
      "type": "function"
    },
    {
      "inputs": [],
      "name": "signatureValidationService",
      "outputs": [
        {
          "internalType": "contract ISignatureValidationService",
          "name": "",
          "type": "address"
        }
      ],
      "stateMutability": "view",
      "type": "function"
    },
    {
      "inputs": [],
      "name": "transactionManager",
      "outputs": [
        {
          "internalType": "contract ITransactionManager",
          "name": "",
          "type": "address"
        }
      ],
      "stateMutability": "view",
      "type": "function"
    },
    {
      "inputs": [
        {
          "internalType": "address",
          "name": "newOwner",
          "type": "address"
        }
      ],
      "name": "transferOwnership",
      "outputs": [],
      "stateMutability": "nonpayable",
      "type": "function"
    },
    {
      "inputs": [
        {
          "internalType": "bytes32",
          "name": "claimId",
          "type": "bytes32"
        }
      ],
      "name": "withdrawCompensation",
      "outputs": [],
      "stateMutability": "payable",
      "type": "function"
    },
    {
      "inputs": [],
      "name": "zkService",
      "outputs": [
        {
          "internalType": "contract IZkService",
          "name": "",
          "type": "address"
        }
      ],
      "stateMutability": "view",
      "type": "function"
    },
    {
      "stateMutability": "payable",
      "type": "receive"
    }
  ],
  "bytecode": "0x60806040523480156200001157600080fd5b506200001c62000022565b620000d6565b7ff0c57e16840df040f15088dc2f81fe391c3923bec73e23a9662efc9c229c6a00805468010000000000000000900460ff1615620000735760405163f92ee8a960e01b815260040160405180910390fd5b80546001600160401b0390811614620000d35780546001600160401b0319166001600160401b0390811782556040519081527fc7f505b2f371ae2175ee4913f4499e1f2633a7b5936321eed1cdaeb6115181d29060200160405180910390a15b50565b6136fe80620000e66000396000f3fe6080604052600436106101395760003560e01c80638cc5d008116100ab578063bb64fd441161006f578063bb64fd4414610377578063ca0ab07514610397578063e2a0a69c146103b7578063eff0f592146103d7578063f2fde38b14610460578063f8c8765e1461048057600080fd5b80638cc5d008146102c75780638da5cb5b146102da57806399b29871146103175780639a46c8cf14610337578063b4e25e801461035757600080fd5b80635a91e24f116100fd5780635a91e24f146102125780635b33b1df146102325780635cd5f63714610252578063614b5d8c14610272578063715018a614610292578063759787c4146102a757600080fd5b806301db96cf146101455780630b1fa61c146101785780632c7e8ca31461019a5780633b716452146101ba5780633e5d7588146101f257600080fd5b3661014057005b600080fd5b34801561015157600080fd5b50610165610160366004612b80565b6104a0565b6040519081526020015b60405180910390f35b34801561018457600080fd5b50610198610193366004612bac565b610bf1565b005b3480156101a657600080fd5b506101986101b5366004612bac565b610ca4565b3480156101c657600080fd5b506001546101da906001600160a01b031681565b6040516001600160a01b03909116815260200161016f565b3480156101fe57600080fd5b5061019861020d366004612bac565b610d56565b34801561021e57600080fd5b5061016561022d366004612bd0565b610dfc565b34801561023e57600080fd5b5061016561024d366004612bd0565b610ea2565b34801561025e57600080fd5b506000546101da906001600160a01b031681565b34801561027e57600080fd5b5061019861028d366004612bac565b6115c7565b34801561029e57600080fd5b50610198611682565b3480156102b357600080fd5b506003546101da906001600160a01b031681565b6101986102d5366004612bd0565b611696565b3480156102e657600080fd5b507f9016d09d72d40fdae2fd8ceac6b6234c7706214fd39c1cd1e609a0528c199300546001600160a01b03166101da565b34801561032357600080fd5b50610165610332366004612bd0565b611b4e565b34801561034357600080fd5b50610165610352366004612bd0565b612147565b34801561036357600080fd5b50610198610372366004612bac565b61253d565b34801561038357600080fd5b50610165610392366004612bd0565b6125e5565b3480156103a357600080fd5b506002546101da906001600160a01b031681565b3480156103c357600080fd5b506005546101da906001600160a01b031681565b3480156103e357600080fd5b5061044c6103f2366004612bd0565b6004602052600090815260409020805460018201546002830154600384015460058501546006909501546001600160a01b03948516959385169492939183169260ff80831692610100810490911691620100009091041688565b60405161016f989796959493929190612bff565b34801561046c57600080fd5b5061019861047b366004612bac565b612613565b34801561048c57600080fd5b5061019861049b366004612c72565b612651565b6003546040516326415b0f60e21b81526001600160a01b03848116600483015260009283929116906399056c3c90602401600060405180830381865afa1580156104ee573d6000803e3d6000fd5b505050506040513d6000823e601f3d908101601f191682016040526105169190810190612ee1565b606081015190915060000361055e57604080518082018252600281526109a760f31b6020820152905162461bcd60e51b81526105559190600401613089565b60405180910390fd5b6001546060820151604051632a242ded60e21b815260048101919091526000916001600160a01b03169063a890b7b490602401600060405180830381865afa1580156105ae573d6000803e3d6000fd5b505050506040513d6000823e601f3d908101601f191682016040526105d691908101906131b8565b905060008160c0015160058111156105f0576105f0612be9565b1461062557604080518082018252600281526109a760f31b6020820152905162461bcd60e51b81526105559190600401613089565b838582610120015160006040516020016106429493929190613325565b60408051601f198184030181529181528151602092830120600081815260049093529120549093506001600160a01b0316156106a85760408051808201825260028152614d3960f01b6020820152905162461bcd60e51b81526105559190600401613089565b6040805160c08101825260008082526060602083018190528284018290528083018190526080830182905260a083015254915163ddb8ec8b60e01b81526004810187905290916001600160a01b03169063ddb8ec8b90602401600060405180830381865afa15801561071e573d6000803e3d6000fd5b505050506040513d6000823e601f3d908101601f191682016040526107469190810190613383565b805190915015610780576040805180820182526002815261269b60f11b6020820152905162461bcd60e51b81526105559190600401613089565b602081015151158061079457506040810151155b156107c9576040805180820182526002815261493760f01b6020820152905162461bcd60e51b81526105559190600401613089565b8060800151610802576040805180820182526002815261299b60f11b6020820152905162461bcd60e51b81526105559190600401613089565b82610120015151600003610840576040805180820182526002815261493760f01b6020820152905162461bcd60e51b81526105559190600401613089565b826101200151805190602001208160200151805190602001201461088e5760408051808201825260028152614d3760f01b6020820152905162461bcd60e51b81526105559190600401613089565b6108a18160a00151836101600151612822565b60035460405163014f6b1960e41b81526001600160a01b03888116600483015260009216906314f6b19090602401602060405180830381865afa1580156108ec573d6000803e3d6000fd5b505050506040513d601f19601f82011682018060405250810190610910919061345c565b90508060000361094a57604080518082018252600281526109c760f31b6020820152905162461bcd60e51b81526105559190600401613089565b604051806101200160405280336001600160a01b03168152602001886001600160a01b03168152602001856080015181526020018560c001516001600160a01b031681526020018560e001518152602001828152602001600015158152602001600060038111156109bd576109bd612be9565b81526101208501516001600160a01b0390811660209283015260008881526004808452604091829020855181549085166001600160a01b031991821617825586860151600183018054918716918316919091179055928601516002820155606086015160038201805491909516931692909217909255608084015180519193610a4b93850192910190612b0b565b5060a0820151600582015560c082015160068201805491151560ff1983168117825560e08501519261ff001990911661ffff1990911617610100836003811115610a9757610a97612be9565b021790555061010091909101516006909101805462010000600160b01b031916620100006001600160a01b039384160217905560035460405163133165fb60e31b8152898316600482015291169063998b2fd890602401600060405180830381600087803b158015610b0857600080fd5b505af1158015610b1c573d6000803e3d6000fd5b5050600154606087015161012087015160405163d09d03a360e01b81526001600160a01b03909316945063d09d03a39350610b6b926004019182526001600160a01b0316602082015260400190565b600060405180830381600087803b158015610b8557600080fd5b505af1158015610b99573d6000803e3d6000fd5b50505050608084015160e08501516101208501516040516001600160a01b038b169333938a936000805160206136a983398151915293610bdf9392918991600090613475565b60405180910390a45050505092915050565b610bf96129dd565b6001600160a01b038116610c5a5760405162461bcd60e51b815260206004820152602260248201527f496e76616c6964205472616e73616374696f6e4d616e61676572206164647265604482015261737360f01b6064820152608401610555565b600180546001600160a01b0319166001600160a01b0383169081179091556040517f3bc3af46ee56a7b5246248b8e24bb285f23d745c278db873d49f66c027a19f2b90600090a250565b610cac6129dd565b6001600160a01b038116610d0c5760405162461bcd60e51b815260206004820152602160248201527f496e76616c69642041726269747261746f724d616e61676572206164647265736044820152607360f81b6064820152608401610555565b600380546001600160a01b0319166001600160a01b0383169081179091556040517f5501b7dfdd6860a14bdbc85c3ca16cf46242ad8c30ffecaaf2dbc192ef761bfc90600090a250565b610d5e6129dd565b6001600160a01b038116610db45760405162461bcd60e51b815260206004820152601960248201527f496e76616c6964205a6b536572766963652061646472657373000000000000006044820152606401610555565b600080546001600160a01b0319166001600160a01b038316908117825560405190917f89f8f878479acf261604346b8864312704f9de61c236e83a48afc4d87d93b19a91a250565b60008181526004602081815260408084206002548251631e4432d760e11b81529251919486946001600160a01b0390921693633c8865ae93818301939290918290030181865afa158015610e54573d6000803e3d6000fd5b505050506040513d601f19601f82011682018060405250810190610e78919061345c565b90506000612710828460050154610e8f91906134f9565b610e999190613516565b95945050505050565b600554604051632b7531e160e21b81526004810183905260009182918291829182916001600160a01b03169063add4c78490602401600060405180830381865afa158015610ef4573d6000803e3d6000fd5b505050506040513d6000823e601f3d908101601f19168201604052610f1c9190810190613538565b92965090945092509050821580610f3257508151155b80610f3c57508051155b15610f71576040805180820182526002815261269b60f11b6020820152905162461bcd60e51b81526105559190600401613089565b8315610fa7576040805180820182526002815261533760f01b6020820152905162461bcd60e51b81526105559190600401613089565b60015460405163255709e560e11b8152600481018590526000916001600160a01b031690634aae13ca90602401600060405180830381865afa158015610ff1573d6000803e3d6000fd5b505050506040513d6000823e601f3d908101601f1916820160405261101991908101906131b8565b80519091506001600160a01b0316158061103e575060208101516001600160a01b0316155b1561107357604080518082018252600281526109a760f31b6020820152905162461bcd60e51b81526105559190600401613089565b86816020015182610120015160026040516020016110949493929190613325565b60408051601f198184030181529181528151602092830120600081815260049093529120549096506001600160a01b0316156110fa5760408051808201825260028152614d3960f01b6020820152905162461bcd60e51b81526105559190600401613089565b80610100015151600003611138576040805180820182526002815261533560f01b6020820152905162461bcd60e51b81526105559190600401613089565b82805190602001208161010001518051906020012014611182576040805180820182526002815261299b60f11b6020820152905162461bcd60e51b81526105559190600401613089565b60035460208201516040516326415b0f60e21b81526001600160a01b03918216600482015260009291909116906399056c3c90602401600060405180830381865afa1580156111d5573d6000803e3d6000fd5b505050506040513d6000823e601f3d908101601f191682016040526111fd9190810190612ee1565b9050806101200151805190602001208380519060200120146112495760408051808201825260028152614d3760f01b6020820152905162461bcd60e51b81526105559190600401613089565b600354602083015160405163014f6b1960e41b81526001600160a01b03918216600482015260009291909116906314f6b19090602401602060405180830381865afa15801561129c573d6000803e3d6000fd5b505050506040513d601f19601f820116820180604052508101906112c0919061345c565b9050806000036112fa57604080518082018252600281526109c760f31b6020820152905162461bcd60e51b81526105559190600401613089565b604051806101200160405280336001600160a01b0316815260200184602001516001600160a01b03168152602001836080015181526020018360c001516001600160a01b031681526020018360e0015181526020018281526020016000151581526020016002600381111561137157611371612be9565b81526101208501516001600160a01b0390811660209283015260008b81526004808452604091829020855181549085166001600160a01b0319918216178255868601516001830180549187169183169190911790559286015160028201556060860151600382018054919095169316929092179092556080840151805191936113ff93850192910190612b0b565b5060a0820151600582015560c082015160068201805491151560ff1983168117825560e08501519261ff001990911661ffff199091161761010083600381111561144b5761144b612be9565b021790555061010091909101516006909101805462010000600160b01b031916620100006001600160a01b0393841602179055600354602085015160405163133165fb60e31b8152908316600482015291169063998b2fd890602401600060405180830381600087803b1580156114c157600080fd5b505af11580156114d5573d6000803e3d6000fd5b5050600154606085015161012087015160405163d09d03a360e01b81526001600160a01b03909316945063d09d03a39350611524926004019182526001600160a01b0316602082015260400190565b600060405180830381600087803b15801561153e57600080fd5b505af1158015611552573d6000803e3d6000fd5b5050505082602001516001600160a01b0316336001600160a01b0316896000805160206136a983398151915285608001518660e0015186896101200151600260038111156115a2576115a2612be9565b6040516115b3959493929190613475565b60405180910390a450505050505050919050565b6115cf6129dd565b6001600160a01b0381166116385760405162461bcd60e51b815260206004820152602a60248201527f496e76616c6964205369676e617475726556616c69646174696f6e53657276696044820152696365206164647265737360b01b6064820152608401610555565b600580546001600160a01b0319166001600160a01b0383169081179091556040517f477f891f776a7f2e5d05a03ba599cad3b3715530049fc949bf6dc5d7e825c77790600090a250565b61168a6129dd565b6116946000612a38565b565b6000818152600460205260409020600681015460ff16156116e1576040805180820182526002815261134d60f21b6020820152905162461bcd60e51b81526105559190600401613089565b60028101541580156116f557506004810154155b1561172a5760408051808201825260028152614d3560f01b6020820152905162461bcd60e51b81526105559190600401613089565b60068101546201000090046001600160a01b031661177257604080518082018252600281526105a360f41b6020820152905162461bcd60e51b81526105559190600401613089565b604051635a91e24f60e01b8152600481018390526000903090635a91e24f90602401602060405180830381865afa1580156117b1573d6000803e3d6000fd5b505050506040513d601f19601f820116820180604052508101906117d5919061345c565b90508034101561180f576040805180820182526002815261543560f01b6020820152905162461bcd60e51b81526105559190600401613089565b60068201805460ff191660011790556002820154156118ca57600682015460028301546040516000926201000090046001600160a01b031691908381818185875af1925050503d8060008114611881576040519150601f19603f3d011682016040523d82523d6000602084013e611886565b606091505b50509050806118c85760405162461bcd60e51b815260206004820152600e60248201526d151c985b9cd9995c91985a5b195960921b6044820152606401610555565b505b60005b600483015481101561199e57600383015460068401546004850180546001600160a01b03938416936323b872dd933093620100009091049091169186908110611918576119186135b5565b6000918252602090912001546040516001600160e01b031960e086901b1681526001600160a01b0393841660048201529290911660248301526044820152606401600060405180830381600087803b15801561197357600080fd5b505af1158015611987573d6000803e3d6000fd5b505050508080611996906135cb565b9150506118cd565b506002546040805163045b2b8560e51b815290516000926001600160a01b031691638b6570a09160048083019260209291908290030181865afa1580156119e9573d6000803e3d6000fd5b505050506040513d601f19601f82011682018060405250810190611a0d91906135e4565b6040519091506001600160a01b0382169083156108fc029084906000818181858888f19350505050158015611a46573d6000803e3d6000fd5b50600082341115611ae957611a5b8334613601565b604051909150600090339083908381818185875af1925050503d8060008114611aa0576040519150601f19603f3d011682016040523d82523d6000602084013e611aa5565b606091505b5050905080611ae75760405162461bcd60e51b815260206004820152600e60248201526d151c985b9cd9995c91985a5b195960921b6044820152606401610555565b505b60068401546002850154604051620100009092046001600160a01b031691339188917fa6a4bd55cab187f1d44eb0f7fde59c599b88b1f8db6e4f916348d93ef1ad695091611b3f9160048b01908a908990613614565b60405180910390a45050505050565b600154604051632a242ded60e21b81526004810183905260009182916001600160a01b039091169063a890b7b490602401600060405180830381865afa158015611b9c573d6000803e3d6000fd5b505050506040513d6000823e601f3d908101601f19168201604052611bc491908101906131b8565b602080820151610140830151604051939450611be593879360019101613325565b60408051601f198184030181529181528151602092830120600081815260049093529120549092506001600160a01b031615611c4b5760408051808201825260028152614d3960f01b6020820152905162461bcd60e51b81526105559190600401613089565b60028160c001516005811115611c6357611c63612be9565b14611c98576040805180820182526002815261269960f11b6020820152905162461bcd60e51b81526105559190600401613089565b60025460408051632b6f600d60e01b815290516000926001600160a01b031691632b6f600d9160048083019260209291908290030181865afa158015611ce2573d6000803e3d6000fd5b505050506040513d601f19601f82011682018060405250810190611d06919061345c565b90504281836101a00151611d1a9190613671565b1115611d505760408051808201825260028152614d3360f01b6020820152905162461bcd60e51b81526105559190600401613089565b60035460208301516040516326415b0f60e21b81526001600160a01b03918216600482015260009291909116906399056c3c90602401600060405180830381865afa158015611da3573d6000803e3d6000fd5b505050506040513d6000823e601f3d908101601f19168201604052611dcb9190810190612ee1565b600354602085015160405163014f6b1960e41b81526001600160a01b0391821660048201529293506000929116906314f6b19090602401602060405180830381865afa158015611e1f573d6000803e3d6000fd5b505050506040513d601f19601f82011682018060405250810190611e43919061345c565b905080600003611e7d57604080518082018252600281526109c760f31b6020820152905162461bcd60e51b81526105559190600401613089565b604051806101200160405280336001600160a01b0316815260200185602001516001600160a01b03168152602001836080015181526020018360c001516001600160a01b031681526020018360e00151815260200182815260200160001515815260200160016003811115611ef457611ef4612be9565b81526101408601516001600160a01b0390811660209283015260008881526004808452604091829020855181549085166001600160a01b031991821617825586860151600183018054918716918316919091179055928601516002820155606086015160038201805491909516931692909217909255608084015180519193611f8293850192910190612b0b565b5060a0820151600582015560c082015160068201805491151560ff1983168117825560e08501519261ff001990911661ffff1990911617610100836003811115611fce57611fce612be9565b021790555061010091909101516006909101805462010000600160b01b031916620100006001600160a01b0393841602179055600354602086015160405163133165fb60e31b8152908316600482015291169063998b2fd890602401600060405180830381600087803b15801561204457600080fd5b505af1158015612058573d6000803e3d6000fd5b5050600154606085015161014088015160405163d09d03a360e01b81526001600160a01b03909316945063d09d03a393506120a7926004019182526001600160a01b0316602082015260400190565b600060405180830381600087803b1580156120c157600080fd5b505af11580156120d5573d6000803e3d6000fd5b5050505083602001516001600160a01b0316336001600160a01b0316866000805160206136a983398151915285608001518660e00151868a61014001516001600381111561212557612125612be9565b604051612136959493929190613475565b60405180910390a450505050919050565b600154604051632a242ded60e21b81526004810183905260009182916001600160a01b039091169063a890b7b490602401600060405180830381865afa158015612195573d6000803e3d6000fd5b505050506040513d6000823e601f3d908101601f191682016040526121bd91908101906131b8565b60208101519091506001600160a01b031633146122045760408051808201825260028152614d3160f01b6020820152905162461bcd60e51b81526105559190600401613089565b600154604051637577b6df60e01b8152600481018590526000916001600160a01b031690637577b6df9060240160408051808303816000875af115801561224f573d6000803e3d6000fd5b505050506040513d601f19601f820116820180604052508101906122739190613684565b5060035460208401516040516326415b0f60e21b81526001600160a01b0391821660048201529293506000929116906399056c3c90602401600060405180830381865afa1580156122c8573d6000803e3d6000fd5b505050506040513d6000823e601f3d908101601f191682016040526122f09190810190612ee1565b90506000858460200151836101c0015160036040516020016123159493929190613325565b60408051601f198184030181529181528151602092830120600081815260049093529120549091506001600160a01b03161561237b5760408051808201825260028152614d3960f01b6020820152905162461bcd60e51b81526105559190600401613089565b60408051610120810182523381526020868101516001600160a01b03908116828401908152838501888152600060608601818152875182815280870189526080880190815260a088018c9052600160c08901819052600360e08a018190526101c08d015188166101008b01528b85526004808a529a909420895181549089166001600160a01b0319918216178255965191810180549289169288169290921790915593516002850155905191830180549290951691909316179092555180519394919361245093928501929190910190612b0b565b5060a0820151600582015560c082015160068201805491151560ff1983168117825560e08501519261ff001990911661ffff199091161761010083600381111561249c5761249c612be9565b021790555061010091909101516006909101805462010000600160b01b031916620100006001600160a01b039384160217905560208501511633826000805160206136a9833981519152866000604051908082528060200260200182016040528015612512578160200160208202803683370190505b506101c088015160405161252c9392918b91600390613475565b60405180910390a495945050505050565b6125456129dd565b6001600160a01b03811661259b5760405162461bcd60e51b815260206004820152601d60248201527f496e76616c696420436f6e6669674d616e6167657220616464726573730000006044820152606401610555565b600280546001600160a01b0319166001600160a01b0383169081179091556040517f6a801685c5950e3d8ece256f75ca0ff31ed0ae02aeae73f8180ff32e978a2f6b90600090a250565b6000818152600460205260408120600681015460ff16156126095750600092915050565b6005015492915050565b61261b6129dd565b6001600160a01b03811661264557604051631e4fbdf760e01b815260006004820152602401610555565b61264e81612a38565b50565b7ff0c57e16840df040f15088dc2f81fe391c3923bec73e23a9662efc9c229c6a008054600160401b810460ff1615906001600160401b03166000811580156126965750825b90506000826001600160401b031660011480156126b25750303b155b9050811580156126c0575080155b156126de5760405163f92ee8a960e01b815260040160405180910390fd5b845467ffffffffffffffff19166001178555831561270857845460ff60401b1916600160401b1785555b61271133612aa9565b6001600160a01b038916158061272e57506001600160a01b038816155b8061274057506001600160a01b038716155b8061275257506001600160a01b038616155b1561278757604080518082018252600281526105a360f41b6020820152905162461bcd60e51b81526105559190600401613089565b600080546001600160a01b03808c166001600160a01b031992831617909255600280548b8416908316179055600380548a84169083161790556005805492891692909116919091179055831561281757845460ff60401b19168555604051600181527fc7f505b2f371ae2175ee4913f4499e1f2633a7b5936321eed1cdaeb6115181d29060200160405180910390a15b505050505050505050565b805182511461285b576040805180820182526002815261055360f41b6020820152905162461bcd60e51b81526105559190600401613089565b60005b82518110156129d857818181518110612879576128796135b5565b602002602001015160000151838281518110612897576128976135b5565b602002602001015160000151146128d8576040805180820182526002815261055360f41b6020820152905162461bcd60e51b81526105559190600401613089565b8181815181106128ea576128ea6135b5565b60200260200101516020015163ffffffff1683828151811061290e5761290e6135b5565b60200260200101516020015163ffffffff1614612955576040805180820182526002815261055360f41b6020820152905162461bcd60e51b81526105559190600401613089565b818181518110612967576129676135b5565b602002602001015160600151838281518110612985576129856135b5565b602002602001015160600151146129c6576040805180820182526002815261055360f41b6020820152905162461bcd60e51b81526105559190600401613089565b806129d0816135cb565b91505061285e565b505050565b33612a0f7f9016d09d72d40fdae2fd8ceac6b6234c7706214fd39c1cd1e609a0528c199300546001600160a01b031690565b6001600160a01b0316146116945760405163118cdaa760e01b8152336004820152602401610555565b7f9016d09d72d40fdae2fd8ceac6b6234c7706214fd39c1cd1e609a0528c19930080546001600160a01b031981166001600160a01b03848116918217845560405192169182907f8be0079c531659141344cd1fd0a4f28419497f9722a3daafe3b4186f6b6457e090600090a3505050565b612ab1612aba565b61264e81612b03565b7ff0c57e16840df040f15088dc2f81fe391c3923bec73e23a9662efc9c229c6a0054600160401b900460ff1661169457604051631afcd79f60e31b815260040160405180910390fd5b61261b612aba565b828054828255906000526020600020908101928215612b46579160200282015b82811115612b46578251825591602001919060010190612b2b565b50612b52929150612b56565b5090565b5b80821115612b525760008155600101612b57565b6001600160a01b038116811461264e57600080fd5b60008060408385031215612b9357600080fd5b8235612b9e81612b6b565b946020939093013593505050565b600060208284031215612bbe57600080fd5b8135612bc981612b6b565b9392505050565b600060208284031215612be257600080fd5b5035919050565b634e487b7160e01b600052602160045260246000fd5b6001600160a01b03898116825288811660208301526040820188905286811660608301526080820186905284151560a083015261010082019060048510612c5657634e487b7160e01b600052602160045260246000fd5b8460c084015280841660e0840152509998505050505050505050565b60008060008060808587031215612c8857600080fd5b8435612c9381612b6b565b93506020850135612ca381612b6b565b92506040850135612cb381612b6b565b91506060850135612cc381612b6b565b939692955090935050565b634e487b7160e01b600052604160045260246000fd5b60405161020081016001600160401b0381118282101715612d0757612d07612cce565b60405290565b604051608081016001600160401b0381118282101715612d0757612d07612cce565b6040516101c081016001600160401b0381118282101715612d0757612d07612cce565b60405160c081016001600160401b0381118282101715612d0757612d07612cce565b604051601f8201601f191681016001600160401b0381118282101715612d9c57612d9c612cce565b604052919050565b8051612daf81612b6b565b919050565b80518015158114612daf57600080fd5b60006001600160401b03821115612ddd57612ddd612cce565b5060051b60200190565b600082601f830112612df857600080fd5b81516020612e0d612e0883612dc4565b612d74565b82815260059290921b84018101918181019086841115612e2c57600080fd5b8286015b84811015612e475780518352918301918301612e30565b509695505050505050565b60005b83811015612e6d578181015183820152602001612e55565b50506000910152565b600082601f830112612e8757600080fd5b81516001600160401b03811115612ea057612ea0612cce565b612eb3601f8201601f1916602001612d74565b818152846020838601011115612ec857600080fd5b612ed9826020830160208701612e52565b949350505050565b600060208284031215612ef357600080fd5b81516001600160401b0380821115612f0a57600080fd5b908301906102008286031215612f1f57600080fd5b612f27612ce4565b612f3083612da4565b8152612f3e60208401612db4565b6020820152604083015160408201526060830151606082015260808301516080820152612f6d60a08401612da4565b60a0820152612f7e60c08401612da4565b60c082015260e083015182811115612f9557600080fd5b612fa187828601612de7565b60e083015250610100612fb5818501612da4565b908201526101208381015183811115612fcd57600080fd5b612fd988828701612e76565b8284015250506101408084015183811115612ff357600080fd5b612fff88828701612e76565b828401525050610160808401518183015250610180808401518381111561302557600080fd5b61303188828701612e76565b8284015250506101a0808401518381111561304b57600080fd5b61305788828701612e76565b8284015250506101c0915061306d828401612da4565b918101919091526101e091820151918101919091529392505050565b60208152600082518060208401526130a8816040850160208701612e52565b601f01601f19169190910160400192915050565b805160068110612daf57600080fd5b600082601f8301126130dc57600080fd5b815160206130ec612e0883612dc4565b82815260059290921b8401810191818101908684111561310b57600080fd5b8286015b84811015612e475780516001600160401b038082111561312f5760008081fd5b908801906080828b03601f19018113156131495760008081fd5b613151612d0d565b87840151815260408085015163ffffffff811681146131705760008081fd5b828a0152606085810151858111156131885760008081fd5b6131968f8c838a0101612e76565b928401929092529490920151938101939093525050835291830191830161310f565b6000602082840312156131ca57600080fd5b81516001600160401b03808211156131e157600080fd5b908301906101c082860312156131f657600080fd5b6131fe612d2f565b61320783612da4565b815261321560208401612da4565b6020820152604083015160408201526060830151606082015260808301518281111561324057600080fd5b61324c87828601612e76565b60808301525060a083015160a082015261326860c084016130bc565b60c082015260e083015160e0820152610100808401518381111561328b57600080fd5b61329788828701612e76565b8284015250506101206132ab818501612da4565b908201526101406132bd848201612da4565b9082015261016083810151838111156132d557600080fd5b6132e1888287016130cb565b82840152505061018080840151838111156132fb57600080fd5b61330788828701612e76565b91830191909152506101a09283015192810192909252509392505050565b84815260006bffffffffffffffffffffffff19808660601b166020840152808560601b166034840152506004831061336d57634e487b7160e01b600052602160045260246000fd5b5060f89190911b60488201526049019392505050565b60006020828403121561339557600080fd5b81516001600160401b03808211156133ac57600080fd5b9083019060c082860312156133c057600080fd5b6133c8612d52565b825181526020830151828111156133de57600080fd5b6133ea87828601612e76565b6020830152506040830151604082015260608301518281111561340c57600080fd5b61341887828601612e76565b60608301525061342a60808401612db4565b608082015260a08301518281111561344157600080fd5b61344d878286016130cb565b60a08301525095945050505050565b60006020828403121561346e57600080fd5b5051919050565b600060a08201878352602060a08185015281885180845260c086019150828a01935060005b818110156134b65784518352938301939183019160010161349a565b505060408501979097525050506001600160a01b0392909216606083015260ff1660809091015292915050565b634e487b7160e01b600052601160045260246000fd5b8082028115828204841417613510576135106134e3565b92915050565b60008261353357634e487b7160e01b600052601260045260246000fd5b500490565b6000806000806080858703121561354e57600080fd5b61355785612db4565b93506020850151925060408501516001600160401b038082111561357a57600080fd5b61358688838901612e76565b9350606087015191508082111561359c57600080fd5b506135a987828801612e76565b91505092959194509250565b634e487b7160e01b600052603260045260246000fd5b6000600182016135dd576135dd6134e3565b5060010190565b6000602082840312156135f657600080fd5b8151612bc981612b6b565b81810381811115613510576135106134e3565b600060808201868352602060808185015281875480845260a0860191508860005282600020935060005b8181101561365a5784548352600194850194928401920161363e565b505060408501969096525050506060015292915050565b80820180821115613510576135106134e3565b6000806040838503121561369757600080fd5b50508051602090910151909290915056feb9e0ad71af9252e1922aa65a5543f63b7ef69d1cbe0b60793ec8adaff1991817a2646970667358221220d88df356d9d3574f801758cd323fad212423d19944b7659c2a3a64d7a6c4eb9c64736f6c63430008140033",
  "linkReferences": {},
  "deployedLinkReferences": {}
}