{
  "_format": "hh-sol-artifact-1",
  "contractName": "CompensationManager",
  "sourceName": "contracts/core/CompensationManager.sol",
  "abi": [
    {
      "inputs": [],
      "stateMutability": "nonpayable",
      "type": "constructor"
    },
    {
      "inputs": [],
      "name": "InvalidInitialization",
      "type": "error"
    },
    {
      "inputs": [],
      "name": "NotInitializing",
      "type": "error"
    },
    {
      "inputs": [
        {
          "internalType": "address",
          "name": "owner",
          "type": "address"
        }
      ],
      "name": "OwnableInvalidOwner",
      "type": "error"
    },
    {
      "inputs": [
        {
          "internalType": "address",
          "name": "account",
          "type": "address"
        }
      ],
      "name": "OwnableUnauthorizedAccount",
      "type": "error"
    },
    {
      "anonymous": false,
      "inputs": [
        {
          "indexed": true,
          "internalType": "bytes32",
          "name": "claimId",
          "type": "bytes32"
        },
        {
          "indexed": true,
          "internalType": "address",
          "name": "claimer",
          "type": "address"
        },
        {
          "indexed": false,
          "internalType": "uint8",
          "name": "claimType",
          "type": "uint8"
        }
      ],
      "name": "CompensationClaimed",
      "type": "event"
    },
    {
      "anonymous": false,
      "inputs": [
        {
          "indexed": true,
          "internalType": "bytes32",
          "name": "claimId",
          "type": "bytes32"
        }
      ],
      "name": "CompensationWithdrawn",
      "type": "event"
    },
    {
      "anonymous": false,
      "inputs": [
        {
          "indexed": false,
          "internalType": "uint64",
          "name": "version",
          "type": "uint64"
        }
      ],
      "name": "Initialized",
      "type": "event"
    },
    {
      "anonymous": false,
      "inputs": [
        {
          "indexed": true,
          "internalType": "address",
          "name": "previousOwner",
          "type": "address"
        },
        {
          "indexed": true,
          "internalType": "address",
          "name": "newOwner",
          "type": "address"
        }
      ],
      "name": "OwnershipTransferred",
      "type": "event"
    },
    {
      "inputs": [],
      "name": "arbitratorManager",
      "outputs": [
        {
          "internalType": "contract IArbitratorManager",
          "name": "",
          "type": "address"
        }
      ],
      "stateMutability": "view",
      "type": "function"
    },
    {
      "inputs": [
        {
          "internalType": "bytes32",
          "name": "txId",
          "type": "bytes32"
        }
      ],
      "name": "claimArbitratorFee",
      "outputs": [
        {
          "internalType": "bytes32",
          "name": "",
          "type": "bytes32"
        }
      ],
      "stateMutability": "nonpayable",
      "type": "function"
    },
    {
      "inputs": [
        {
          "internalType": "bytes",
          "name": "btcTx",
          "type": "bytes"
        },
        {
          "internalType": "bytes32",
          "name": "evidence",
          "type": "bytes32"
        }
      ],
      "name": "claimFailedArbitrationCompensation",
      "outputs": [
        {
          "internalType": "bytes32",
          "name": "claimId",
          "type": "bytes32"
        }
      ],
      "stateMutability": "nonpayable",
      "type": "function"
    },
    {
      "inputs": [
        {
          "internalType": "address",
          "name": "arbitrator",
          "type": "address"
        },
        {
          "internalType": "bytes",
          "name": "btcTx",
          "type": "bytes"
        },
        {
          "internalType": "bytes32",
          "name": "evidence",
          "type": "bytes32"
        }
      ],
      "name": "claimIllegalSignatureCompensation",
      "outputs": [
        {
          "internalType": "bytes32",
          "name": "claimId",
          "type": "bytes32"
        }
      ],
      "stateMutability": "nonpayable",
      "type": "function"
    },
    {
      "inputs": [
        {
          "internalType": "bytes32",
          "name": "id",
          "type": "bytes32"
        }
      ],
      "name": "claimTimeoutCompensation",
      "outputs": [
        {
          "internalType": "bytes32",
          "name": "claimId",
          "type": "bytes32"
        }
      ],
      "stateMutability": "nonpayable",
      "type": "function"
    },
    {
      "inputs": [
        {
          "internalType": "bytes32",
          "name": "",
          "type": "bytes32"
        }
      ],
      "name": "claims",
      "outputs": [
        {
          "internalType": "address",
          "name": "dapp",
          "type": "address"
        },
        {
          "internalType": "address",
          "name": "arbitrator",
          "type": "address"
        },
        {
          "internalType": "uint256",
          "name": "ethAmount",
          "type": "uint256"
        },
        {
          "internalType": "address",
          "name": "nftContract",
          "type": "address"
        },
        {
          "internalType": "uint256",
          "name": "totalAmount",
          "type": "uint256"
        },
        {
          "internalType": "bool",
          "name": "withdrawn",
          "type": "bool"
        },
        {
          "internalType": "enum CompensationManager.CompensationType",
          "name": "claimType",
          "type": "uint8"
        }
      ],
      "stateMutability": "view",
      "type": "function"
    },
    {
      "inputs": [],
      "name": "configManager",
      "outputs": [
        {
          "internalType": "contract IConfigManager",
          "name": "",
          "type": "address"
        }
      ],
      "stateMutability": "view",
      "type": "function"
    },
    {
      "inputs": [
        {
          "internalType": "bytes32",
          "name": "claimId",
          "type": "bytes32"
        }
      ],
      "name": "getClaimableAmount",
      "outputs": [
        {
          "internalType": "uint256",
          "name": "",
          "type": "uint256"
        }
      ],
      "stateMutability": "view",
      "type": "function"
    },
    {
      "inputs": [
        {
          "internalType": "address",
          "name": "_zkService",
          "type": "address"
        },
        {
          "internalType": "address",
          "name": "_transactionManager",
          "type": "address"
        },
        {
          "internalType": "address",
          "name": "_configManager",
          "type": "address"
        },
        {
          "internalType": "address",
          "name": "_arbitratorManager",
          "type": "address"
        }
      ],
      "name": "initialize",
      "outputs": [],
      "stateMutability": "nonpayable",
      "type": "function"
    },
    {
      "inputs": [],
      "name": "owner",
      "outputs": [
        {
          "internalType": "address",
          "name": "",
          "type": "address"
        }
      ],
      "stateMutability": "view",
      "type": "function"
    },
    {
      "inputs": [],
      "name": "renounceOwnership",
      "outputs": [],
      "stateMutability": "nonpayable",
      "type": "function"
    },
    {
      "inputs": [],
      "name": "transactionManager",
      "outputs": [
        {
          "internalType": "contract ITransactionManager",
          "name": "",
          "type": "address"
        }
      ],
      "stateMutability": "view",
      "type": "function"
    },
    {
      "inputs": [
        {
          "internalType": "address",
          "name": "newOwner",
          "type": "address"
        }
      ],
      "name": "transferOwnership",
      "outputs": [],
      "stateMutability": "nonpayable",
      "type": "function"
    },
    {
      "inputs": [
        {
          "internalType": "bytes32",
          "name": "claimId",
          "type": "bytes32"
        }
      ],
      "name": "withdrawCompensation",
      "outputs": [],
      "stateMutability": "payable",
      "type": "function"
    },
    {
      "inputs": [],
      "name": "zkService",
      "outputs": [
        {
          "internalType": "contract IZkService",
          "name": "",
          "type": "address"
        }
      ],
      "stateMutability": "view",
      "type": "function"
    },
    {
      "stateMutability": "payable",
      "type": "receive"
    }
  ],
  "bytecode": "0x60806040523480156200001157600080fd5b506200001c62000022565b620000d6565b7ff0c57e16840df040f15088dc2f81fe391c3923bec73e23a9662efc9c229c6a00805468010000000000000000900460ff1615620000735760405163f92ee8a960e01b815260040160405180910390fd5b80546001600160401b0390811614620000d35780546001600160401b0319166001600160401b0390811782556040519081527fc7f505b2f371ae2175ee4913f4499e1f2633a7b5936321eed1cdaeb6115181d29060200160405180910390a15b50565b612c4480620000e66000396000f3fe6080604052600436106100ec5760003560e01c80638da5cb5b1161008a578063ca0ab07511610059578063ca0ab0751461028a578063eff0f592146102aa578063f2fde38b14610328578063f8c8765e1461034857600080fd5b80638da5cb5b146101ed57806399b298711461022a5780639a46c8cf1461024a578063bb64fd441461026a57600080fd5b8063759787c4116100c6578063759787c41461016c578063863121591461018c5780638c4e46e9146101ba5780638cc5d008146101da57600080fd5b80633b716452146100f85780635cd5f63714610135578063715018a61461015557600080fd5b366100f357005b600080fd5b34801561010457600080fd5b50600154610118906001600160a01b031681565b6040516001600160a01b0390911681526020015b60405180910390f35b34801561014157600080fd5b50600054610118906001600160a01b031681565b34801561016157600080fd5b5061016a610368565b005b34801561017857600080fd5b50600354610118906001600160a01b031681565b34801561019857600080fd5b506101ac6101a73660046123d6565b61037c565b60405190815260200161012c565b3480156101c657600080fd5b506101ac6101d5366004612431565b610a6a565b61016a6101e836600461247c565b61118d565b3480156101f957600080fd5b507f9016d09d72d40fdae2fd8ceac6b6234c7706214fd39c1cd1e609a0528c199300546001600160a01b0316610118565b34801561023657600080fd5b506101ac61024536600461247c565b611628565b34801561025657600080fd5b506101ac61026536600461247c565b611b4a565b34801561027657600080fd5b506101ac61028536600461247c565b611f04565b34801561029657600080fd5b50600254610118906001600160a01b031681565b3480156102b657600080fd5b506103156102c536600461247c565b6004602052600090815260409020805460018201546002830154600384015460058501546006909501546001600160a01b0394851695938516949293919092169160ff8082169161010090041687565b60405161012c97969594939291906124ab565b34801561033457600080fd5b5061016a610343366004612511565b611f32565b34801561035457600080fd5b5061016a610363366004612535565b611f70565b6103706121eb565b61037a6000612246565b565b6000805460405163ddb8ec8b60e01b81526004810184905282918291829182916001600160a01b039091169063ddb8ec8b90602401600060405180830381865afa1580156103ce573d6000803e3d6000fd5b505050506040513d6000823e601f3d908101601f191682016040526103f691908101906126b2565b945050935093509350835160000361044d57604080518082018252600e81526d456d70747920726177206461746160901b6020820152905162461bcd60e51b8152610444919060040161275d565b60405180910390fd5b825160000361049457604080518082018252601081526f456d707479207075626c6963206b657960801b6020820152905162461bcd60e51b8152610444919060040161275d565b816104d157604080518082018252600a81526908adae0e8f240d0c2e6d60b31b6020820152905162461bcd60e51b8152610444919060040161275d565b8061052157604080518082018252601c81527f496e76616c6964207a65726f2d6b6e6f776c656467652070726f6f66000000006020820152905162461bcd60e51b8152610444919060040161275d565b6001546040516360e723e960e11b8152600481018490526000916001600160a01b03169063c1ce47d290602401602060405180830381865afa15801561056b573d6000803e3d6000fd5b505050506040513d601f19601f8201168201806040525081019061058f9190612790565b905080156105d75760408051808201825260128152715472616e73616374696f6e2065786973747360701b6020820152905162461bcd60e51b8152610444919060040161275d565b6003546040516326415b0f60e21b81526001600160a01b038c8116600483015260009216906399056c3c90602401600060405180830381865afa158015610622573d6000803e3d6000fd5b505050506040513d6000823e601f3d908101601f1916820160405261064a9190810190612847565b9050806101400151516000036106a557604080518082018252601981527f456d707479206f70657261746f72207075626c6963206b6579000000000000006020820152905162461bcd60e51b8152610444919060040161275d565b806101400151805190602001208580519060200120146107005760408051808201825260138152720a0eac4d8d2c640d6caf240dad2e6dac2e8c6d606b1b6020820152905162461bcd60e51b8152610444919060040161275d565b85516020870120604051610717908c908c906129ee565b60405180910390201461076a576040805180820182526018815277084a88640e8e4c2dce6c2c6e8d2dedc40dad2e6dac2e8c6d60431b6020820152905162461bcd60e51b8152610444919060040161275d565b60a081015160008190036107b85760408051808201825260128152714e6f207374616b6520617661696c61626c6560701b6020820152905162461bcd60e51b8152610444919060040161275d565b604080514260208201526001600160601b031960608f811b8216938301939093523390921b90911660548201526f496c6c6567616c5369676e617475726560801b6068820152607801604051602081830303815290604052805190602001209750604051806101000160405280336001600160a01b031681526020018d6001600160a01b031681526020018281526020018360e001516001600160a01b031681526020018361010001518152602001600360009054906101000a90046001600160a01b03166001600160a01b03166314f6b1908f6040518263ffffffff1660e01b81526004016108b791906001600160a01b0391909116815260200190565b602060405180830381865afa1580156108d4573d6000803e3d6000fd5b505050506040513d601f19601f820116820180604052508101906108f89190612790565b8152600060208201819052604090910152600089815260046020818152604092839020845181546001600160a01b03199081166001600160a01b03928316178355868401516001840180548316918416919091179055948601516002830155606086015160038301805490961691161790935560808401518051610983938501929190910190612319565b5060a0820151600582015560c082015160068201805491151560ff1983168117825560e08501519261ff001990911661ffff19909116176101008360038111156109cf576109cf612495565b02179055505060035460405163133165fb60e31b81526001600160a01b038f81166004830152909116915063998b2fd890602401600060405180830381600087803b158015610a1d57600080fd5b505af1158015610a31573d6000803e3d6000fd5b5050604051600081523392508a9150600080516020612bef8339815191529060200160405180910390a350505050505050949350505050565b6000805460405163ddb8ec8b60e01b815260048101849052829182918291829182916001600160a01b03169063ddb8ec8b90602401600060405180830381865afa158015610abc573d6000803e3d6000fd5b505050506040513d6000823e601f3d908101601f19168201604052610ae491908101906126b2565b945094509450945094508451600003610b3357604080518082018252600e81526d456d70747920726177206461746160901b6020820152905162461bcd60e51b8152610444919060040161275d565b8351600003610b7a57604080518082018252601081526f456d707479207075626c6963206b657960801b6020820152905162461bcd60e51b8152610444919060040161275d565b82610bb757604080518082018252600a81526908adae0e8f240d0c2e6d60b31b6020820152905162461bcd60e51b8152610444919060040161275d565b8151600003610bfd57604080518082018252600f81526e456d707479207369676e617475726560881b6020820152905162461bcd60e51b8152610444919060040161275d565b8015610c4e57604080518082018252601c81527f496e76616c6964207a65726f2d6b6e6f776c656467652070726f6f66000000006020820152905162461bcd60e51b8152610444919060040161275d565b84516020860120604051610c65908b908b906129ee565b604051809103902014610cb8576040805180820182526018815277084a88640e8e4c2dce6c2c6e8d2dedc40dad2e6dac2e8c6d60431b6020820152905162461bcd60e51b8152610444919060040161275d565b60015460405163255709e560e11b8152600481018590526000916001600160a01b031690634aae13ca90602401600060405180830381865afa158015610d02573d6000803e3d6000fd5b505050506040513d6000823e601f3d908101601f19168201604052610d2a9190810190612a0d565b80519091506001600160a01b03163314610d815760408051808201825260158152742737ba103a3930b739b0b1ba34b7b71037bbb732b960591b6020820152905162461bcd60e51b8152610444919060040161275d565b80610100015151600003610dda57604080518082018252601781527f5369676e6174757265206e6f74207375626d69747465640000000000000000006020820152905162461bcd60e51b8152610444919060040161275d565b80610100015180519060200120838051906020012014610e345760408051808201825260128152710a6d2cedcc2e8eae4ca40dad2e6dac2e8c6d60731b6020820152905162461bcd60e51b8152610444919060040161275d565b60035460208201516040516326415b0f60e21b81526001600160a01b03918216600482015260009291909116906399056c3c90602401600060405180830381865afa158015610e87573d6000803e3d6000fd5b505050506040513d6000823e601f3d908101601f19168201604052610eaf9190810190612847565b60a08101519091506000819003610f005760408051808201825260128152714e6f207374616b6520617661696c61626c6560701b6020820152905162461bcd60e51b8152610444919060040161275d565b42836020015133604051602001610f5593929190928352606091821b6001600160601b03199081166020850152911b166034820152702330b4b632b220b93134ba3930ba34b7b760791b604882015260590190565b60408051808303601f190181528282528051602091820120610100808501845233855287830180516001600160a01b039081169487019490945285850187905260e0880151841660608701529087015160808601526003549051935163014f6b1960e41b81529383166004850152909c5060a08401929116906314f6b19090602401602060405180830381865afa158015610ff4573d6000803e3d6000fd5b505050506040513d601f19601f820116820180604052508101906110189190612790565b8152600060208201526040016002905260008a815260046020818152604092839020845181546001600160a01b03199081166001600160a01b039283161783558684015160018401805483169184169190911790559486015160028301556060860151600383018054909616911617909355608084015180516110a2938501929190910190612319565b5060a0820151600582015560c082015160068201805491151560ff1983168117825560e08501519261ff001990911661ffff19909116176101008360038111156110ee576110ee612495565b021790555050600354602085015160405163133165fb60e31b81526001600160a01b0391821660048201529116915063998b2fd890602401600060405180830381600087803b15801561114057600080fd5b505af1158015611154573d6000803e3d6000fd5b5050604051600281523392508b9150600080516020612bef8339815191529060200160405180910390a350505050505050509392505050565b6000818152600460205260409020600681015460ff16156111ec57604080518082018252601681527521b7b6b832b739b0ba34b7b7103bb4ba34323930bbb760511b6020820152905162461bcd60e51b8152610444919060040161275d565b600281015415801561120057506004810154155b1561125057604080518082018252601981527f4e6f20636f6d70656e736174696f6e20617661696c61626c65000000000000006020820152905162461bcd60e51b8152610444919060040161275d565b60025460408051631e4432d760e11b815290516000926001600160a01b031691633c8865ae9160048083019260209291908290030181865afa15801561129a573d6000803e3d6000fd5b505050506040513d601f19601f820116820180604052508101906112be9190612790565b905060006127108284600501546112d59190612b2c565b6112df9190612b49565b90508034101561133457604080518082018252601781527f496e73756666696369656e742073797374656d206665650000000000000000006020820152905162461bcd60e51b8152610444919060040161275d565b600283015460068401805460ff1916600117905580156113eb5760006002850181905584546040516001600160a01b039091169083908381818185875af1925050503d80600081146113a2576040519150601f19603f3d011682016040523d82523d6000602084013e6113a7565b606091505b50509050806113e95760405162461bcd60e51b815260206004820152600e60248201526d151c985b9cd9995c91985a5b195960921b6044820152606401610444565b505b60005b60048501548110156114b25760038501546004860180546001600160a01b03909216916323b872dd9130913391908690811061142c5761142c612b6b565b6000918252602090912001546040516001600160e01b031960e086901b1681526001600160a01b0393841660048201529290911660248301526044820152606401600060405180830381600087803b15801561148757600080fd5b505af115801561149b573d6000803e3d6000fd5b5050505080806114aa90612b81565b9150506113ee565b506002546040805163045b2b8560e51b815290516000926001600160a01b031691638b6570a09160048083019260209291908290030181865afa1580156114fd573d6000803e3d6000fd5b505050506040513d601f19601f820116820180604052508101906115219190612b9a565b6040519091506001600160a01b0382169084156108fc029085906000818181858888f1935050505015801561155a573d6000803e3d6000fd5b50823411156115f5576000336115708534612bb7565b604051600081818185875af1925050503d80600081146115ac576040519150601f19603f3d011682016040523d82523d6000602084013e6115b1565b606091505b50509050806115f35760405162461bcd60e51b815260206004820152600e60248201526d151c985b9cd9995c91985a5b195960921b6044820152606401610444565b505b60405186907f7c719d0bd68ca0ef65ed3c059467ed6600adb256a026587f6eb3a06c50f6f4aa90600090a2505050505050565b600154604051632a242ded60e21b81526004810183905260009182916001600160a01b039091169063a890b7b490602401600060405180830381865afa158015611676573d6000803e3d6000fd5b505050506040513d6000823e601f3d908101601f1916820160405261169e9190810190612a0d565b80519091506001600160a01b031633146116f55760408051808201825260158152742737ba103a3930b739b0b1ba34b7b71037bbb732b960591b6020820152905162461bcd60e51b8152610444919060040161275d565b60018160c00151600581111561170d5761170d612495565b03611755576040805180820182526015815274151c985b9cd858dd1a5bdb8818dbdb5c1b195d1959605a1b6020820152905162461bcd60e51b8152610444919060040161275d565b806060015142116117a2576040805180820182526014815273111958591b1a5b99481b9bdd081c995858da195960621b6020820152905162461bcd60e51b8152610444919060040161275d565b61010081015151156117f957604080518082018252601b81527f5369676e617475726520616c7265616479207375626d697474656400000000006020820152905162461bcd60e51b8152610444919060040161275d565b60035460208201516040516326415b0f60e21b81526001600160a01b03918216600482015260009291909116906399056c3c90602401600060405180830381865afa15801561184c573d6000803e3d6000fd5b505050506040513d6000823e601f3d908101601f191682016040526118749190810190612847565b60a081015190915060008190036118c55760408051808201825260128152714e6f207374616b6520617661696c61626c6560701b6020820152905162461bcd60e51b8152610444919060040161275d565b42836020015133876040516020016119199493929190938452606092831b6001600160601b031990811660208601529190921b16603483015266151a5b595bdd5d60ca1b6048830152604f820152606f0190565b60408051808303601f190181528282528051602091820120610100808501845233855287830180516001600160a01b039081169487019490945285850187905260e0880151841660608701529087015160808601526003549051935163014f6b1960e41b8152938316600485015290975060a08401929116906314f6b19090602401602060405180830381865afa1580156119b8573d6000803e3d6000fd5b505050506040513d601f19601f820116820180604052508101906119dc9190612790565b81526000602082015260400160019052600085815260046020818152604092839020845181546001600160a01b03199081166001600160a01b03928316178355868401516001840180548316918416919091179055948601516002830155606086015160038301805490961691161790935560808401518051611a66938501929190910190612319565b5060a0820151600582015560c082015160068201805491151560ff1983168117825560e08501519261ff001990911661ffff1990911617610100836003811115611ab257611ab2612495565b021790555050600354602085015160405163133165fb60e31b81526001600160a01b0391821660048201529116915063998b2fd890602401600060405180830381600087803b158015611b0457600080fd5b505af1158015611b18573d6000803e3d6000fd5b505060405160018152339250869150600080516020612bef8339815191529060200160405180910390a3505050919050565b600154604051632a242ded60e21b81526004810183905260009182916001600160a01b039091169063a890b7b490602401600060405180830381865afa158015611b98573d6000803e3d6000fd5b505050506040513d6000823e601f3d908101601f19168201604052611bc09190810190612a0d565b60208101519091506001600160a01b03163314611c2257604080518082018252601a81527f4e6f74207472616e73616374696f6e2061726269747261746f720000000000006020820152905162461bcd60e51b8152610444919060040161275d565b60018160c001516005811115611c3a57611c3a612495565b14611c8a57604080518082018252601981527f5472616e73616374696f6e206e6f7420636f6d706c65746564000000000000006020820152905162461bcd60e51b8152610444919060040161275d565b600154604051637577b6df60e01b8152600481018590526000916001600160a01b031690637577b6df9060240160408051808303816000875af1158015611cd5573d6000803e3d6000fd5b505050506040513d601f19601f82011682018060405250810190611cf99190612bca565b509050600042836020015133604051602001611d4f93929190928352606091821b6001600160601b03199081166020850152911b1660348201526c41726269747261746f7246656560981b604882015260550190565b60405160208183030381529060405280519060200120905060405180610100016040528084600001516001600160a01b0316815260200184602001516001600160a01b0316815260200183815260200160006001600160a01b0316815260200160006001600160401b03811115611dc857611dc8612591565b604051908082528060200260200182016040528015611df1578160200160208202803683370190505b508152602081018490526001604082015260600160039052600082815260046020818152604092839020845181546001600160a01b03199081166001600160a01b03928316178355868401516001840180548316918416919091179055948601516002830155606086015160038301805490961691161790935560808401518051611e83938501929190910190612319565b5060a0820151600582015560c082015160068201805491151560ff1983168117825560e08501519261ff001990911661ffff1990911617610100836003811115611ecf57611ecf612495565b021790555050604051600381523391508290600080516020612bef8339815191529060200160405180910390a3949350505050565b6000818152600460205260408120600681015460ff1615611f285750600092915050565b6005015492915050565b611f3a6121eb565b6001600160a01b038116611f6457604051631e4fbdf760e01b815260006004820152602401610444565b611f6d81612246565b50565b7ff0c57e16840df040f15088dc2f81fe391c3923bec73e23a9662efc9c229c6a008054600160401b810460ff1615906001600160401b0316600081158015611fb55750825b90506000826001600160401b03166001148015611fd15750303b155b905081158015611fdf575080155b15611ffd5760405163f92ee8a960e01b815260040160405180910390fd5b845467ffffffffffffffff19166001178555831561202757845460ff60401b1916600160401b1785555b612030336122b7565b6001600160a01b03891661207857604080518082018252600c81526b5a65726f206164647265737360a01b6020820152905162461bcd60e51b8152610444919060040161275d565b6001600160a01b0388166120c057604080518082018252600c81526b5a65726f206164647265737360a01b6020820152905162461bcd60e51b8152610444919060040161275d565b6001600160a01b03871661210857604080518082018252600c81526b5a65726f206164647265737360a01b6020820152905162461bcd60e51b8152610444919060040161275d565b6001600160a01b03861661215057604080518082018252600c81526b5a65726f206164647265737360a01b6020820152905162461bcd60e51b8152610444919060040161275d565b600080546001600160a01b03808c166001600160a01b031992831617909255600180548b8416908316179055600280548a8416908316179055600380549289169290911691909117905583156121e057845460ff60401b19168555604051600181527fc7f505b2f371ae2175ee4913f4499e1f2633a7b5936321eed1cdaeb6115181d29060200160405180910390a15b505050505050505050565b3361221d7f9016d09d72d40fdae2fd8ceac6b6234c7706214fd39c1cd1e609a0528c199300546001600160a01b031690565b6001600160a01b03161461037a5760405163118cdaa760e01b8152336004820152602401610444565b7f9016d09d72d40fdae2fd8ceac6b6234c7706214fd39c1cd1e609a0528c19930080546001600160a01b031981166001600160a01b03848116918217845560405192169182907f8be0079c531659141344cd1fd0a4f28419497f9722a3daafe3b4186f6b6457e090600090a3505050565b6122bf6122c8565b611f6d81612311565b7ff0c57e16840df040f15088dc2f81fe391c3923bec73e23a9662efc9c229c6a0054600160401b900460ff1661037a57604051631afcd79f60e31b815260040160405180910390fd5b611f3a6122c8565b828054828255906000526020600020908101928215612354579160200282015b82811115612354578251825591602001919060010190612339565b50612360929150612364565b5090565b5b808211156123605760008155600101612365565b6001600160a01b0381168114611f6d57600080fd5b60008083601f8401126123a057600080fd5b5081356001600160401b038111156123b757600080fd5b6020830191508360208285010111156123cf57600080fd5b9250929050565b600080600080606085870312156123ec57600080fd5b84356123f781612379565b935060208501356001600160401b0381111561241257600080fd5b61241e8782880161238e565b9598909750949560400135949350505050565b60008060006040848603121561244657600080fd5b83356001600160401b0381111561245c57600080fd5b6124688682870161238e565b909790965060209590950135949350505050565b60006020828403121561248e57600080fd5b5035919050565b634e487b7160e01b600052602160045260246000fd5b6001600160a01b038881168252878116602083015260408201879052851660608201526080810184905282151560a082015260e08101600483106124ff57634e487b7160e01b600052602160045260246000fd5b8260c083015298975050505050505050565b60006020828403121561252357600080fd5b813561252e81612379565b9392505050565b6000806000806080858703121561254b57600080fd5b843561255681612379565b9350602085013561256681612379565b9250604085013561257681612379565b9150606085013561258681612379565b939692955090935050565b634e487b7160e01b600052604160045260246000fd5b60405161020081016001600160401b03811182821017156125ca576125ca612591565b60405290565b60405161016081016001600160401b03811182821017156125ca576125ca612591565b604051601f8201601f191681016001600160401b038111828210171561261b5761261b612591565b604052919050565b60005b8381101561263e578181015183820152602001612626565b50506000910152565b600082601f83011261265857600080fd5b81516001600160401b0381111561267157612671612591565b612684601f8201601f19166020016125f3565b81815284602083860101111561269957600080fd5b6126aa826020830160208701612623565b949350505050565b600080600080600060a086880312156126ca57600080fd5b85516001600160401b03808211156126e157600080fd5b6126ed89838a01612647565b9650602088015191508082111561270357600080fd5b61270f89838a01612647565b955060408801519450606088015191508082111561272c57600080fd5b5061273988828901612647565b9250506080860151801515811461274f57600080fd5b809150509295509295909350565b602081526000825180602084015261277c816040850160208701612623565b601f01601f19169190910160400192915050565b6000602082840312156127a257600080fd5b5051919050565b80516127b481612379565b919050565b8051600481106127b457600080fd5b600082601f8301126127d957600080fd5b815160206001600160401b038211156127f4576127f4612591565b8160051b6128038282016125f3565b928352848101820192828101908785111561281d57600080fd5b83870192505b8483101561283c57825182529183019190830190612823565b979650505050505050565b60006020828403121561285957600080fd5b81516001600160401b038082111561287057600080fd5b90830190610200828603121561288557600080fd5b61288d6125a7565b612896836127a9565b815260208301516020820152604083015160408201526128b8606084016127b9565b60608201526080830151608082015260a083015160a08201526128dd60c084016127a9565b60c08201526128ee60e084016127a9565b60e0820152610100808401518381111561290757600080fd5b612913888287016127c8565b8284015250506101206129278185016127a9565b90820152610140838101518381111561293f57600080fd5b61294b88828701612647565b828401525050610160808401518381111561296557600080fd5b61297188828701612647565b8284015250506101808084015181830152506101a0808401518381111561299757600080fd5b6129a388828701612647565b8284015250506101c080840151838111156129bd57600080fd5b6129c988828701612647565b8284015250506101e091506129df8284016127a9565b91810191909152949350505050565b8183823760009101908152919050565b8051600681106127b457600080fd5b600060208284031215612a1f57600080fd5b81516001600160401b0380821115612a3657600080fd5b908301906101608286031215612a4b57600080fd5b612a536125d0565b612a5c836127a9565b8152612a6a602084016127a9565b60208201526040830151604082015260608301516060820152608083015182811115612a9557600080fd5b612aa187828601612647565b60808301525060a083015160a0820152612abd60c084016129fe565b60c082015260e083015160e08201526101008084015183811115612ae057600080fd5b612aec88828701612647565b8284015250506101209150612b028284016127a9565b8282015261014091506129df8284016127a9565b634e487b7160e01b600052601160045260246000fd5b8082028115828204841417612b4357612b43612b16565b92915050565b600082612b6657634e487b7160e01b600052601260045260246000fd5b500490565b634e487b7160e01b600052603260045260246000fd5b600060018201612b9357612b93612b16565b5060010190565b600060208284031215612bac57600080fd5b815161252e81612379565b81810381811115612b4357612b43612b16565b60008060408385031215612bdd57600080fd5b50508051602090910151909290915056fe35b845de5e0534eed951fd57a2e3050c150cedde6cf5b0facfc7924b107d467aa2646970667358221220d83bf66c3fec8fbe8dd120fb211461dd6c34821019cf112f7060356f3771c2f564736f6c63430008140033",
  "linkReferences": {},
  "deployedLinkReferences": {}
}