{
  "_format": "hh-sol-artifact-1",
  "contractName": "CompensationManager",
  "sourceName": "contracts/core/CompensationManager.sol",
  "abi": [
    {
      "inputs": [],
      "stateMutability": "nonpayable",
      "type": "constructor"
    },
    {
      "inputs": [],
      "name": "InvalidInitialization",
      "type": "error"
    },
    {
      "inputs": [],
      "name": "NotInitializing",
      "type": "error"
    },
    {
      "inputs": [
        {
          "internalType": "address",
          "name": "owner",
          "type": "address"
        }
      ],
      "name": "OwnableInvalidOwner",
      "type": "error"
    },
    {
      "inputs": [
        {
          "internalType": "address",
          "name": "account",
          "type": "address"
        }
      ],
      "name": "OwnableUnauthorizedAccount",
      "type": "error"
    },
    {
      "anonymous": false,
      "inputs": [
        {
          "indexed": true,
          "internalType": "address",
          "name": "newArbitratorManager",
          "type": "address"
        }
      ],
      "name": "ArbitratorManagerUpdated",
      "type": "event"
    },
    {
      "anonymous": false,
      "inputs": [
        {
          "indexed": true,
          "internalType": "bytes32",
          "name": "claimId",
          "type": "bytes32"
        },
        {
          "indexed": true,
          "internalType": "address",
          "name": "claimer",
          "type": "address"
        },
        {
          "indexed": true,
          "internalType": "address",
          "name": "arbitrator",
          "type": "address"
        },
        {
          "indexed": false,
          "internalType": "uint256",
          "name": "ethAmount",
          "type": "uint256"
        },
        {
          "indexed": false,
          "internalType": "uint256[]",
          "name": "nftTokenIds",
          "type": "uint256[]"
        },
        {
          "indexed": false,
          "internalType": "uint256",
          "name": "totalAmount",
          "type": "uint256"
        },
        {
          "indexed": false,
          "internalType": "address",
          "name": "receivedCompensationAddress",
          "type": "address"
        },
        {
          "indexed": false,
          "internalType": "uint8",
          "name": "claimType",
          "type": "uint8"
        }
      ],
      "name": "CompensationClaimed",
      "type": "event"
    },
    {
      "anonymous": false,
      "inputs": [
        {
          "indexed": true,
          "internalType": "bytes32",
          "name": "claimId",
          "type": "bytes32"
        },
        {
          "indexed": true,
          "internalType": "address",
          "name": "claimer",
          "type": "address"
        },
        {
          "indexed": true,
          "internalType": "address",
          "name": "receivedCompensationAddress",
          "type": "address"
        },
        {
          "indexed": false,
          "internalType": "uint256",
          "name": "ethAmount",
          "type": "uint256"
        },
        {
          "indexed": false,
          "internalType": "uint256[]",
          "name": "nftTokenIds",
          "type": "uint256[]"
        },
        {
          "indexed": false,
          "internalType": "uint256",
          "name": "systemFee",
          "type": "uint256"
        },
        {
          "indexed": false,
          "internalType": "uint256",
          "name": "excessPaymenttoClaimer",
          "type": "uint256"
        }
      ],
      "name": "CompensationWithdrawn",
      "type": "event"
    },
    {
      "anonymous": false,
      "inputs": [
        {
          "indexed": true,
          "internalType": "address",
          "name": "newConfigManager",
          "type": "address"
        }
      ],
      "name": "ConfigManagerUpdated",
      "type": "event"
    },
    {
      "anonymous": false,
      "inputs": [
        {
          "indexed": false,
          "internalType": "uint64",
          "name": "version",
          "type": "uint64"
        }
      ],
      "name": "Initialized",
      "type": "event"
    },
    {
      "anonymous": false,
      "inputs": [
        {
          "indexed": true,
          "internalType": "address",
          "name": "previousOwner",
          "type": "address"
        },
        {
          "indexed": true,
          "internalType": "address",
          "name": "newOwner",
          "type": "address"
        }
      ],
      "name": "OwnershipTransferred",
      "type": "event"
    },
    {
      "anonymous": false,
      "inputs": [
        {
          "indexed": true,
          "internalType": "address",
          "name": "newSignatureValidationService",
          "type": "address"
        }
      ],
      "name": "SignatureValidationServiceUpdated",
      "type": "event"
    },
    {
      "anonymous": false,
      "inputs": [
        {
          "indexed": true,
          "internalType": "address",
          "name": "newTransactionManager",
          "type": "address"
        }
      ],
      "name": "TransactionManagerUpdated",
      "type": "event"
    },
    {
      "anonymous": false,
      "inputs": [
        {
          "indexed": true,
          "internalType": "address",
          "name": "newZkService",
          "type": "address"
        }
      ],
      "name": "ZkServiceUpdated",
      "type": "event"
    },
    {
      "inputs": [],
      "name": "arbitratorManager",
      "outputs": [
        {
          "internalType": "contract IArbitratorManager",
          "name": "",
          "type": "address"
        }
      ],
      "stateMutability": "view",
      "type": "function"
    },
    {
      "inputs": [
        {
          "internalType": "bytes32",
          "name": "txId",
          "type": "bytes32"
        }
      ],
      "name": "claimArbitratorFee",
      "outputs": [
        {
          "internalType": "bytes32",
          "name": "",
          "type": "bytes32"
        }
      ],
      "stateMutability": "nonpayable",
      "type": "function"
    },
    {
      "inputs": [
        {
          "internalType": "bytes32",
          "name": "evidence",
          "type": "bytes32"
        }
      ],
      "name": "claimFailedArbitrationCompensation",
      "outputs": [
        {
          "internalType": "bytes32",
          "name": "claimId",
          "type": "bytes32"
        }
      ],
      "stateMutability": "nonpayable",
      "type": "function"
    },
    {
      "inputs": [
        {
          "internalType": "address",
          "name": "arbitrator",
          "type": "address"
        },
        {
          "internalType": "bytes32",
          "name": "evidence",
          "type": "bytes32"
        }
      ],
      "name": "claimIllegalSignatureCompensation",
      "outputs": [
        {
          "internalType": "bytes32",
          "name": "claimId",
          "type": "bytes32"
        }
      ],
      "stateMutability": "nonpayable",
      "type": "function"
    },
    {
      "inputs": [
        {
          "internalType": "bytes32",
          "name": "id",
          "type": "bytes32"
        }
      ],
      "name": "claimTimeoutCompensation",
      "outputs": [
        {
          "internalType": "bytes32",
          "name": "claimId",
          "type": "bytes32"
        }
      ],
      "stateMutability": "nonpayable",
      "type": "function"
    },
    {
      "inputs": [
        {
          "internalType": "bytes32",
          "name": "",
          "type": "bytes32"
        }
      ],
      "name": "claims",
      "outputs": [
        {
          "internalType": "address",
          "name": "claimer",
          "type": "address"
        },
        {
          "internalType": "address",
          "name": "arbitrator",
          "type": "address"
        },
        {
          "internalType": "uint256",
          "name": "ethAmount",
          "type": "uint256"
        },
        {
          "internalType": "address",
          "name": "nftContract",
          "type": "address"
        },
        {
          "internalType": "uint256",
          "name": "totalAmount",
          "type": "uint256"
        },
        {
          "internalType": "bool",
          "name": "withdrawn",
          "type": "bool"
        },
        {
          "internalType": "enum CompensationManager.CompensationType",
          "name": "claimType",
          "type": "uint8"
        },
        {
          "internalType": "address",
          "name": "receivedCompensationAddress",
          "type": "address"
        }
      ],
      "stateMutability": "view",
      "type": "function"
    },
    {
      "inputs": [],
      "name": "configManager",
      "outputs": [
        {
          "internalType": "contract IConfigManager",
          "name": "",
          "type": "address"
        }
      ],
      "stateMutability": "view",
      "type": "function"
    },
    {
      "inputs": [
        {
          "internalType": "bytes32",
          "name": "claimId",
          "type": "bytes32"
        }
      ],
      "name": "getClaimableAmount",
      "outputs": [
        {
          "internalType": "uint256",
          "name": "",
          "type": "uint256"
        }
      ],
      "stateMutability": "view",
      "type": "function"
    },
    {
      "inputs": [
        {
          "internalType": "bytes32",
          "name": "claimId",
          "type": "bytes32"
        }
      ],
      "name": "getWithdrawCompensationFee",
      "outputs": [
        {
          "internalType": "uint256",
          "name": "",
          "type": "uint256"
        }
      ],
      "stateMutability": "view",
      "type": "function"
    },
    {
      "inputs": [
        {
          "internalType": "address",
          "name": "_zkService",
          "type": "address"
        },
        {
          "internalType": "address",
          "name": "_configManager",
          "type": "address"
        },
        {
          "internalType": "address",
          "name": "_arbitratorManager",
          "type": "address"
        },
        {
          "internalType": "address",
          "name": "_signatureValidationService",
          "type": "address"
        }
      ],
      "name": "initialize",
      "outputs": [],
      "stateMutability": "nonpayable",
      "type": "function"
    },
    {
      "inputs": [],
      "name": "owner",
      "outputs": [
        {
          "internalType": "address",
          "name": "",
          "type": "address"
        }
      ],
      "stateMutability": "view",
      "type": "function"
    },
    {
      "inputs": [],
      "name": "renounceOwnership",
      "outputs": [],
      "stateMutability": "nonpayable",
      "type": "function"
    },
    {
      "inputs": [
        {
          "internalType": "address",
          "name": "_arbitratorManager",
          "type": "address"
        }
      ],
      "name": "setArbitratorManager",
      "outputs": [],
      "stateMutability": "nonpayable",
      "type": "function"
    },
    {
      "inputs": [
        {
          "internalType": "address",
          "name": "_configManager",
          "type": "address"
        }
      ],
      "name": "setConfigManager",
      "outputs": [],
      "stateMutability": "nonpayable",
      "type": "function"
    },
    {
      "inputs": [
        {
          "internalType": "address",
          "name": "_signatureValidationService",
          "type": "address"
        }
      ],
      "name": "setSignatureValidationService",
      "outputs": [],
      "stateMutability": "nonpayable",
      "type": "function"
    },
    {
      "inputs": [
        {
          "internalType": "address",
          "name": "_transactionManager",
          "type": "address"
        }
      ],
      "name": "setTransactionManager",
      "outputs": [],
      "stateMutability": "nonpayable",
      "type": "function"
    },
    {
      "inputs": [
        {
          "internalType": "address",
          "name": "_zkService",
          "type": "address"
        }
      ],
      "name": "setZkService",
      "outputs": [],
      "stateMutability": "nonpayable",
      "type": "function"
    },
    {
      "inputs": [],
      "name": "signatureValidationService",
      "outputs": [
        {
          "internalType": "contract ISignatureValidationService",
          "name": "",
          "type": "address"
        }
      ],
      "stateMutability": "view",
      "type": "function"
    },
    {
      "inputs": [],
      "name": "transactionManager",
      "outputs": [
        {
          "internalType": "contract ITransactionManager",
          "name": "",
          "type": "address"
        }
      ],
      "stateMutability": "view",
      "type": "function"
    },
    {
      "inputs": [
        {
          "internalType": "address",
          "name": "newOwner",
          "type": "address"
        }
      ],
      "name": "transferOwnership",
      "outputs": [],
      "stateMutability": "nonpayable",
      "type": "function"
    },
    {
      "inputs": [
        {
          "internalType": "bytes32",
          "name": "claimId",
          "type": "bytes32"
        }
      ],
      "name": "withdrawCompensation",
      "outputs": [],
      "stateMutability": "payable",
      "type": "function"
    },
    {
      "inputs": [],
      "name": "zkService",
      "outputs": [
        {
          "internalType": "contract IZkService",
          "name": "",
          "type": "address"
        }
      ],
      "stateMutability": "view",
      "type": "function"
    },
    {
      "stateMutability": "payable",
      "type": "receive"
    }
  ],
  "bytecode": "0x608080604052346100b9577ff0c57e16840df040f15088dc2f81fe391c3923bec73e23a9662efc9c229c6a009081549060ff8260401c166100aa57506001600160401b036002600160401b031982821601610065575b604051612f9f9081620000bf8239f35b6001600160401b031990911681179091556040519081527fc7f505b2f371ae2175ee4913f4499e1f2633a7b5936321eed1cdaeb6115181d290602090a1388080610055565b63f92ee8a960e01b8152600490fd5b600080fdfe608080604052600436101561001d575b50361561001b57600080fd5b005b600090813560e01c90816301db96cf14611f1e575080630b1fa61c14611e645780632c7e8ca314611dab5780633b71645214611d825780633e5d758814611cd55780635a91e24f14611c1b5780635b33b1df146115525780635cd5f6371461152b578063614b5d8c14611469578063715018a6146113fe578063759787c4146113d55780638cc5d0081461104f5780638da5cb5b1461101957806399b29871146109bd5780639a46c8cf1461050f578063b4e25e8014610460578063bb64fd4414610439578063ca0ab07514610410578063e2a0a69c146103e7578063eff0f5921461033d578063f2fde38b146103105763f8c8765e0361000f573461030d57608036600319011261030d5761013161267b565b6001600160a01b03906024358281169081900361030857604435908382168092036103085760643591848316809303610308577ff0c57e16840df040f15088dc2f81fe391c3923bec73e23a9662efc9c229c6a009485549460ff8660401c1615956001600160401b03811680159081610300575b60011490816102f6575b1590816102ed575b506102db5767ffffffffffffffff1981166001178855866102bc575b506101dc612898565b6101e4612898565b6101ed336126ca565b1691821580156102b4575b80156102ac575b80156102a4575b61027d576001600160601b0360a01b9283885416178755826002541617600255816003541617600355600554161760055561023f575080f35b68ff00000000000000001981541690557fc7f505b2f371ae2175ee4913f4499e1f2633a7b5936321eed1cdaeb6115181d2602060405160018152a180f35b6102a061028861282b565b60405162461bcd60e51b81529182916004830161286c565b0390fd5b508315610206565b5081156101ff565b5080156101f8565b68ffffffffffffffffff191668010000000000000001178755386101d3565b60405163f92ee8a960e01b8152600490fd5b905015386101b7565b303b1591506101af565b8891506101a5565b600080fd5b80fd5b503461030d57602036600319011261030d5761033a61032d61267b565b610335612691565b6126ca565b80f35b503461030d57602036600319011261030d57600435815260046020526040812060018060a01b0380825416918160018201541660028201549183600382015416600660058301549201549360ff8560081c1693604051978852602088015260408701526060860152608085015260ff8216151560a085015260048110156103d357610100945060c084015260101c1660e0820152f35b634e487b7160e01b85526021600452602485fd5b503461030d578060031936011261030d576005546040516001600160a01b039091168152602090f35b503461030d578060031936011261030d576002546040516001600160a01b039091168152602090f35b503461030d57602036600319011261030d576020610458600435612f03565b604051908152f35b503461030d57602036600319011261030d5761047a61267b565b610482612691565b6001600160a01b031680156104ca57600280546001600160a01b031916821790557f6a801685c5950e3d8ece256f75ca0ff31ed0ae02aeae73f8180ff32e978a2f6b8280a280f35b60405162461bcd60e51b815260206004820152601d60248201527f496e76616c696420436f6e6669674d616e6167657220616464726573730000006044820152606490fd5b503461030d57602036600319011261030d57600154604051632a242ded60e21b81526004803590820181905290916001600160a01b03168383602481845afa928315610958578493610999575b5060208301516001600160a01b0316330361096357604084916024825180948193637577b6df60e01b83528760048401525af1908115610958578491610922575b5060035460208401516040516326415b0f60e21b81526001600160a01b0391821660048201529391869185916024918391165afa9283156109175785936108f3575b5060208401516101c08401519060405191602083019384526001600160601b0319809260601b16604084015260601b166054820152600360f81b60688201526049815261062b816127d4565b519020808552600460205260408520549093906001600160a01b03166108e85760018060a01b03602082015116604051610664816127b9565b86815260018060a01b036101c08601511690604051926106838461276f565b338452602084015284604084015287606084015260808301528360a0830152600160c0830152600360e083015261010082015284865260046020526040862060018060a01b038251166001600160601b0360a01b90818354161782556001820160018060a01b036020850151168282541617905560408301516002830155600382019060018060a01b036060850151169082541617905560808201518051906001600160401b0382116108d457600160401b82116108d45760048301548260048501558083106108aa575b5060200160048301895260208920895b838110610896575050505060069060a08301516005820155019061079460c08201511515839060ff801983541691151516179055565b60e081015190600482101561088257825461010090910151610100600160b01b031990911660089290921b61ff00169190911760109190911b62010000600160b01b031617905560200151604051946001600160a01b039190911692906107fa866127b9565b85526101c060018060a01b03910151166040519160a0830181845260a060208501528651809152602060c0850197019060005b81811061086c57505050828592600080516020612f4a8339815191529260406020999601526060820152600360808201528033940390a4604051908152f35b825189526020988901989092019160010161082d565b634e487b7160e01b88526021600452602488fd5b60019060208451940193818401550161075e565b600484018a5260208a20908382015b81830181106108c957505061074e565b8b81556001016108b9565b634e487b7160e01b89526041600452602489fd5b6102a0610288612d75565b6109109193503d8087833e61090881836127ef565b810190612956565b91386105df565b6040513d87823e3d90fd5b90506040813d604011610950575b8161093d604093836127ef565b8101031261094c57513861059d565b8380fd5b3d9150610930565b6040513d86823e3d90fd5b6102a06040516109728161279e565b60028152614d3160f01b602082015260405162461bcd60e51b81529182916004830161286c565b6109b69193503d8086833e6109ae81836127ef565b810190612c23565b913861055c565b503461030d57602036600319011261030d576024906004358160018060a01b036001541660405194858092632a242ded60e21b82528560048301525afa928315610e46578293610ffd575b5060208301516101408401519060405191602083019384526001600160601b0319809260601b16604084015260601b166054820152600160f81b606882015260498152610a54816127d4565b519020808252600460205260408220549091906001600160a01b03166108e85760c08301516006811015610fe957600203610fb357600254604051632b6f600d60e01b815290602090829060049082906001600160a01b03165afa908115610e46578291610f81575b506101a0840151908101809111610f6d574210610f375760035460208401516040516326415b0f60e21b81526001600160a01b0391821660048201529116918082602481865afa918215610f0e578192610f1b575b5060208581015160405163014f6b1960e41b81526001600160a01b03909116600482015293849060249082905afa928315610f0e578193610eda575b508215610ecf576020850151608083015160c084015160e0850151610140890151604051946001600160a01b039182169492938216929116610b8f8661276f565b33865260208601526040850152606084015260808301528460a08301528260c0830152600160e083015261010082015284825260046020526040822060018060a01b038251166001600160601b0360a01b90818354161782556001820160018060a01b036020850151168282541617905560408301516002830155600382019060018060a01b036060850151169082541617905560808201518051906001600160401b038211610ebb57600160401b8211610ebb576004830154826004850155808310610e91575b5060200160048301855260208520855b838110610e7d575050505060069060a083015160058201550190610c9d60c08201511515839060ff801983541691151516179055565b60e0810151906004821015610e6957825461010090910151610100600160b01b031990911660089290921b61ff00169190911760109190911b62010000600160b01b031617905560035460208601516001600160a01b039182169116813b15610e6557829160248392604051948593849263133165fb60e31b845260048401525af18015610e4657908291610e51575b505060015460608301516101408701516001600160a01b03908116921690813b1561094c5760405163d09d03a360e01b815260048101919091526001600160a01b0392909216602483015282908290604490829084905af18015610e4657610e32575b505060018060a01b036020850151169160e060808301519201519461014060018060a01b0391015116906040519260a0840190845260a060208501528651809152602060c0850197019060005b818110610e1c57505050828592600080516020612f4a8339815191529260406020999601526060820152600160808201528033940390a4604051908152f35b8251895260209889019890920191600101610ddd565b610e3c829161278b565b61030d5780610d90565b6040513d84823e3d90fd5b610e5a9061278b565b61030d578038610d2d565b8280fd5b634e487b7160e01b84526021600452602484fd5b600190602084519401938184015501610c67565b60048401865260208620908382015b8183018110610eb0575050610c57565b878155600101610ea0565b634e487b7160e01b85526041600452602485fd5b6102a0610288612e0b565b9092506020813d602011610f06575b81610ef6602093836127ef565b8101031261030857519138610b4e565b3d9150610ee9565b50604051903d90823e3d90fd5b610f309192503d8084833e61090881836127ef565b9038610b12565b6102a0604051610f468161279e565b60028152614d3360f01b602082015260405162461bcd60e51b81529182916004830161286c565b634e487b7160e01b82526011600452602482fd5b90506020813d602011610fab575b81610f9c602093836127ef565b81010312610308575138610abd565b3d9150610f8f565b6102a0604051610fc28161279e565b6002815261269960f11b602082015260405162461bcd60e51b81529182916004830161286c565b634e487b7160e01b82526021600452602482fd5b6110129193503d8084833e6109ae81836127ef565b9138610a08565b503461030d578060031936011261030d57600080516020612f2a833981519152546040516001600160a01b039091168152602090f35b50602080600319360112611268576004358083526004825260408320906006820192835460ff81166113be5760028401948554918215918280936113b2575b61139b576001600160a01b039060109083821c83161561027d5760405194635a91e24f60e01b865288600487015260249688878981305afa968715611390578d97611361575b5086341061132b578c90856001809860ff191617938486551561130c575b505090508b85600360048d019c01905b611273575b50905060048885600254166040519283809263045b2b8560e51b82525afa908115610e4657829188918391611232575b50829182918883918315611228575b1690f11561121d578a958534116111df575b5095929554901c169654936040519460808601908652608083870152875480915260a08601978a52828a20928a905b8282106111ca57505050505090829160407fa6a4bd55cab187f1d44eb0f7fde59c599b88b1f8db6e4f916348d93ef1ad695094015260608201528033940390a480f35b84548a52988901989383019390830190611187565b348681039750871161120b57506112058b8080808a335af16111ff612e96565b50612ec6565b38611158565b634e487b7160e01b8c5260116004528bfd5b6040513d8c823e3d90fd5b6108fc9250611146565b925050508881813d831161126c575b61124b81836127ef565b810103126112685781808861126082946128d9565b915091611137565b5080fd5b503d611241565b8b54831015611307578581541692868554871c16938d8452818c8520015494813b156113035760648c868094604051998a9586946323b872dd60e01b865230600487015285015260448401525af19384156112f85788946112df575b506112d990612e47565b92611102565b839194506112ec9061278b565b611268578692386112cf565b6040513d85823e3d90fd5b8480fd5b611107565b828092819261132296891c165af16111ff612e96565b388b81856110f2565b6102a08961543560f01b604051916113428361279e565b6002835282015260405162461bcd60e51b81529182916004830161286c565b9096508881813d8311611389575b61137981836127ef565b81010312610308575195386110d4565b503d61136f565b6040513d8f823e3d90fd5b6102a085614d3560f01b604051916113428361279e565b5060048701541561108e565b6102a08261134d60f21b604051916113428361279e565b503461030d578060031936011261030d576003546040516001600160a01b039091168152602090f35b503461030d578060031936011261030d57611417612691565b600080516020612f2a83398151915280546001600160a01b031981169091556000906001600160a01b03167f8be0079c531659141344cd1fd0a4f28419497f9722a3daafe3b4186f6b6457e08280a380f35b503461030d57602036600319011261030d5761148361267b565b61148b612691565b6001600160a01b031680156114d357600580546001600160a01b031916821790557f477f891f776a7f2e5d05a03ba599cad3b3715530049fc949bf6dc5d7e825c7778280a280f35b60405162461bcd60e51b815260206004820152602a60248201527f496e76616c6964205369676e617475726556616c69646174696f6e53657276696044820152696365206164647265737360b01b6064820152608490fd5b503461030d578060031936011261030d57546040516001600160a01b039091168152602090f35b503461030d57602036600319011261030d576024600435918060018060a01b036005541660405193848092632b7531e160e21b82528760048301525afa8015610f0e578193829483948493611ba4575b5085158015611b9b575b8015611b92575b611b8757611b515760015460405163255709e560e11b815260048101969096528390869060249082906001600160a01b03165afa9485156112f8578395611b35575b5084516001600160a01b0316158015611b20575b611b155760208501516101208601519060405191602083019384526001600160601b0319809260601b16604084015260601b166054820152600160f91b606882015260498152611658816127d4565b519020808352600460205260408320549093906001600160a01b03166108e857610100850180515115611adf575160208151910120906020815191012003611ad45760035460208501516040516326415b0f60e21b81526001600160a01b03918216600482015291169290918183602481875afa928315610e46578293611ab8575b50602081519101206101208301516020815191012003611aad5760208581015160405163014f6b1960e41b81526001600160a01b03909116600482015293849060249082905afa928315610f0e578193611a79575b508215610ecf576020850151608083015160c084015160e0850151610120890151604051946001600160a01b0391821694929382169291166117708661276f565b33865260208601526040850152606084015260808301528460a08301528260c0830152600260e083015261010082015284825260046020526040822060018060a01b038251166001600160601b0360a01b90818354161782556001820160018060a01b036020850151168282541617905560408301516002830155600382019060018060a01b036060850151169082541617905560808201518051906001600160401b038211610ebb57600160401b8211610ebb576004830154826004850155808310611a4f575b5060200160048301855260208520855b838110611a3b575050505060069060a08301516005820155019061187e60c08201511515839060ff801983541691151516179055565b60e0810151906004821015610e6957825461010090910151610100600160b01b031990911660089290921b61ff00169190911760109190911b62010000600160b01b031617905560035460208601516001600160a01b039182169116813b15610e6557829160248392604051948593849263133165fb60e31b845260048401525af18015610e4657908291611a27575b505060015460608301516101208701516001600160a01b03908116921690813b1561094c5760405163d09d03a360e01b815260048101919091526001600160a01b0392909216602483015282908290604490829084905af18015610e4657611a13575b505060018060a01b036020850151169160e060808301519201519461012060018060a01b0391015116906040519260a0840190845260a060208501528651809152602060c0850197019060005b8181106119fd57505050828592600080516020612f4a8339815191529260406020999601526060820152600260808201528033940390a4604051908152f35b82518952602098890198909201916001016119be565b611a1d829161278b565b61030d5780611971565b611a309061278b565b61030d57803861190e565b600190602084519401938184015501611848565b60048401865260208620908382015b8183018110611a6e575050611838565b878155600101611a5e565b9092506020813d602011611aa5575b81611a95602093836127ef565b810103126103085751913861172f565b3d9150611a88565b6102a0610288612ded565b611acd9193503d8084833e61090881836127ef565b91386116da565b6102a0610288612dcf565b6102a0604051611aee8161279e565b6002815261533560f01b602082015260405162461bcd60e51b81529182916004830161286c565b6102a0610288612b13565b5060208501516001600160a01b031615611609565b611b4a9195503d8085833e6109ae81836127ef565b93386115f5565b6102a0604051611b608161279e565b6002815261533760f01b602082015260405162461bcd60e51b81529182916004830161286c565b6102a0610288612d93565b508251156115b3565b508451156115ac565b9550509250503d8082853e611bb981856127ef565b830160808482031261126857611bce846128ed565b9260208501519160408601516001600160401b0390818111611c175782611bf6918901612911565b966060810151918211611c1757611c0e929101612911565b919493386115a2565b8580fd5b503461030d576020908160031936011261030d5760048035825280835260408083206002549151631e4432d760e11b8152939290918591859182906001600160a01b03165afa928315610e46578293611ca5575b5060050154828102928184041490151715611c91575061271060405191048152f35b634e487b7160e01b81526011600452602490fd5b9092508381813d8311611cce575b611cbd81836127ef565b810103126103085751916005611c6f565b503d611cb3565b503461030d57602036600319011261030d57611cef61267b565b611cf7612691565b6001600160a01b03168015611d3d5781546001600160a01b031916811782557f89f8f878479acf261604346b8864312704f9de61c236e83a48afc4d87d93b19a8280a280f35b60405162461bcd60e51b815260206004820152601960248201527f496e76616c6964205a6b536572766963652061646472657373000000000000006044820152606490fd5b503461030d578060031936011261030d576001546040516001600160a01b039091168152602090f35b503461030d57602036600319011261030d57611dc561267b565b611dcd612691565b6001600160a01b03168015611e1557600380546001600160a01b031916821790557f5501b7dfdd6860a14bdbc85c3ca16cf46242ad8c30ffecaaf2dbc192ef761bfc8280a280f35b60405162461bcd60e51b815260206004820152602160248201527f496e76616c69642041726269747261746f724d616e61676572206164647265736044820152607360f81b6064820152608490fd5b503461030d57602036600319011261030d57611e7e61267b565b611e86612691565b6001600160a01b03168015611ece57600180546001600160a01b031916821790557f3bc3af46ee56a7b5246248b8e24bb285f23d745c278db873d49f66c027a19f2b8280a280f35b60405162461bcd60e51b815260206004820152602260248201527f496e76616c6964205472616e73616374696f6e4d616e61676572206164647265604482015261737360f01b6064820152608490fd5b823461030d57604036600319011261030d57611f3861267b565b6003546326415b0f60e21b84526001600160a01b03828116600486015216928281602481875afa9081156112f8578391612661575b50606081015115611b155760018060a01b036001541690836060820151602460405180958193632a242ded60e21b835260048301525afa918215610958578492612645575b5060c082015160068110156103d357611b1557610120820151604051602081019160243583526001600160601b031990818760601b16604084015260601b16605482015285606882015260498152612009816127d4565b519020808552600460205260408520549091906001600160a01b03166108e857606060a06040516120398161273e565b8781528260208201528760408201528280820152876080820152015260248560018060a01b038154166040519283809263ddb8ec8b60e01b8252823560048301525afa90811561263a57869161253d575b508051611b8757602081015151158015612531575b61252657608081015115611ad4576101208201515115612526576020810151602081519101206101208301516020815191012003611aad5760a001519361016084015195855187510361217157805b865181101561217c576121018188612e6c565b515161210d828a612e6c565b5151036121715763ffffffff806020612126848b612e6c565b51015116906020612137848c612e6c565b510151160361217157606061214c8289612e6c565b510151606061215b838b612e6c565b510151036121715761216c90612e47565b6120ee565b6102a0610288612e29565b5060405163014f6b1960e41b81526001600160a01b0383166004820152906020826024818c5afa918215610f0e5781926124f2575b508115610ecf57608084015160c085015160e0860151610120890151604051936001600160a01b0391821693909116906121ea8561276f565b33855260018060a01b03881660208601526040850152606084015260808301528360a08301528260c08301528260e083015261010082015285825260046020526040822060018060a01b038251166001600160601b0360a01b90818354161782556001820160018060a01b036020850151168282541617905560408301516002830155600382019060018060a01b036060850151169082541617905560808201518051906001600160401b038211610ebb57600160401b8211610ebb5760048301548260048501558083106124c8575b5060200160048301855260208520855b8381106124b4575050505060069060a08301516005820155019061230060c08201511515839060ff801983541691151516179055565b60e0810151906004821015610e6957825461010090910151610100600160b01b031990911660089290921b61ff00169190911760109190911b62010000600160b01b03161790556003546001600160a01b0316803b156112685760405163133165fb60e31b81526001600160a01b03851660048201529082908290602490829084905af18015610e46576124a5575b5060015460608501516101208801516001600160a01b03908116921690813b1561094c5760405163d09d03a360e01b815260048101919091526001600160a01b0392909216602483015282908290604490829084905af18015610e4657612491575b505060e060808401519301519461012060018060a01b0391015116906040519360a0850190855260a060208601528651809152602060c0860197019060005b81811061247b5750505060408401526060830152600060808301526020936001600160a01b039091169133918491600080516020612f4a8339815191529181900390a4604051908152f35b8251895260209889019890920191600101612430565b61249b829161278b565b61030d57806123f1565b6124ae9061278b565b8661238f565b6001906020845194019381840155016122ca565b60048401865260208620908382015b81830181106124e75750506122ba565b8781556001016124d7565b9091506020813d60201161251e575b8161250e602093836127ef565b81010312611268575190866121b1565b3d9150612501565b6102a0610288612db1565b5060408101511561209f565b3d91508187823e61254e82826127ef565b6020818381010312612636578051916001600160401b0383116126325760c0838301828401031261263257604051926125868461273e565b82810180518552602001516001600160401b03811161262e576125b0908385019083860101612911565b602085015282810160408181015190860152606001516001600160401b03811161262e576125e5908385019083860101612911565b60608501526125f86080828501016128ed565b608085015260a08184010151916001600160401b03831161262e576126239390810192910101612b31565b60a08201528761208a565b8980fd5b8780fd5b8680fd5b6040513d88823e3d90fd5b61265a9192503d8086833e6109ae81836127ef565b9085611fb2565b61267591503d8085833e61090881836127ef565b84611f6d565b600435906001600160a01b038216820361030857565b600080516020612f2a833981519152546001600160a01b031633036126b257565b60405163118cdaa760e01b8152336004820152602490fd5b6001600160a01b0390811690811561272557600080516020612f2a83398151915280546001600160a01b031981168417909155167f8be0079c531659141344cd1fd0a4f28419497f9722a3daafe3b4186f6b6457e0600080a3565b604051631e4fbdf760e01b815260006004820152602490fd5b60c081019081106001600160401b0382111761275957604052565b634e487b7160e01b600052604160045260246000fd5b61012081019081106001600160401b0382111761275957604052565b6001600160401b03811161275957604052565b604081019081106001600160401b0382111761275957604052565b602081019081106001600160401b0382111761275957604052565b608081019081106001600160401b0382111761275957604052565b90601f801991011681019081106001600160401b0382111761275957604052565b6001600160401b03811161275957601f01601f191660200190565b604051906128388261279e565b600282526105a360f41b6020830152565b60005b83811061285c5750506000910152565b818101518382015260200161284c565b6040916020825261288c8151809281602086015260208686019101612849565b601f01601f1916010190565b60ff7ff0c57e16840df040f15088dc2f81fe391c3923bec73e23a9662efc9c229c6a005460401c16156128c757565b604051631afcd79f60e31b8152600490fd5b51906001600160a01b038216820361030857565b5190811515820361030857565b6001600160401b0381116127595760051b60200190565b81601f8201121561030857805161292781612810565b9261293560405194856127ef565b81845260208284010111610308576129539160208085019101612849565b90565b60209182828203126103085781516001600160401b03928382116103085701916102009384848403126103085760405194850185811083821117612759576040526129a0846128d9565b85526129ad8185016128ed565b818601526040840151604086015260608401516060860152608084015160808601526129db60a085016128d9565b60a08601526129ec60c085016128d9565b60c086015260e08401518281116103085784019083601f8301121561030857815191612a17836128fa565b92612a2560405194856127ef565b808452828085019160051b83010191868311610308578301905b828210612b04575050505060e0850152610100612a5d8185016128d9565b90850152610120808401518281116103085783612a7b918601612911565b90850152610140808401518281116103085783612a99918601612911565b908501526101608084015190850152610180808401518281116103085783612ac2918601612911565b908501526101a0918284015191821161030857612ae0918401612911565b908301526101c0612af28183016128d9565b908301526101e0809101519082015290565b81518152908301908301612a3f565b60405190612b208261279e565b600282526109a760f31b6020830152565b81601f8201121561030857805190612b48826128fa565b92604092612b58845195866127ef565b808552602093848087019260051b8501019383851161030857858101925b858410612b87575050505050505090565b83516001600160401b039081811161030857830191608080601f19858a0301126103085785519080820182811085821117612c0e5787528a85015182528685015163ffffffff81168103610308578b830152606090818601519485116103085785612bf98b8e80999881990101612911565b89850152015190820152815201930192612b76565b60246000634e487b7160e01b81526041600452fd5b906020828203126103085781516001600160401b03928382116103085701906101e0928383830312610308576040519384018481108282111761275957604052612c6c836128d9565b8452612c7a602084016128d9565b6020850152604083015160408501526060830151606085015260808301518181116103085782612cab918501612911565b608085015260a083015160a085015260c083015160068110156103085760c085015260e083015160e0850152610100808401518281116103085783612cf1918601612911565b90850152610120612d038185016128d9565b90850152610140612d158185016128d9565b90850152610160808401518281116103085783612d33918601612b31565b90850152610180918284015191821161030857612d51918401612911565b908301526101a08082015190830152612d6e6101c08092016128d9565b9082015290565b60405190612d828261279e565b60028252614d3960f01b6020830152565b60405190612da08261279e565b6002825261269b60f11b6020830152565b60405190612dbe8261279e565b6002825261493760f01b6020830152565b60405190612ddc8261279e565b6002825261299b60f11b6020830152565b60405190612dfa8261279e565b60028252614d3760f01b6020830152565b60405190612e188261279e565b600282526109c760f31b6020830152565b60405190612e368261279e565b6002825261055360f41b6020830152565b6000198114612e565760010190565b634e487b7160e01b600052601160045260246000fd5b8051821015612e805760209160051b010190565b634e487b7160e01b600052603260045260246000fd5b3d15612ec1573d90612ea782612810565b91612eb560405193846127ef565b82523d6000602084013e565b606090565b15612ecd57565b60405162461bcd60e51b815260206004820152600e60248201526d151c985b9cd9995c91985a5b195960921b6044820152606490fd5b6000526004602052604060002060ff600682015416612f23576005015490565b5060009056fe9016d09d72d40fdae2fd8ceac6b6234c7706214fd39c1cd1e609a0528c199300b9e0ad71af9252e1922aa65a5543f63b7ef69d1cbe0b60793ec8adaff1991817a2646970667358221220b4654b0cffa31548ea6d26a57916cb9801f0b207c8ddfc736788a4de71f8334364736f6c63430008140033",
  "linkReferences": {},
  "deployedLinkReferences": {}
}