{
  "_format": "hh-sol-artifact-1",
  "contractName": "CompensationManager",
  "sourceName": "contracts/core/CompensationManager.sol",
  "abi": [
    {
      "inputs": [],
      "stateMutability": "nonpayable",
      "type": "constructor"
    },
    {
      "inputs": [],
      "name": "InvalidInitialization",
      "type": "error"
    },
    {
      "inputs": [],
      "name": "NotInitializing",
      "type": "error"
    },
    {
      "inputs": [
        {
          "internalType": "address",
          "name": "owner",
          "type": "address"
        }
      ],
      "name": "OwnableInvalidOwner",
      "type": "error"
    },
    {
      "inputs": [
        {
          "internalType": "address",
          "name": "account",
          "type": "address"
        }
      ],
      "name": "OwnableUnauthorizedAccount",
      "type": "error"
    },
    {
      "anonymous": false,
      "inputs": [
        {
          "indexed": true,
          "internalType": "address",
          "name": "newArbitratorManager",
          "type": "address"
        }
      ],
      "name": "ArbitratorManagerUpdated",
      "type": "event"
    },
    {
      "anonymous": false,
      "inputs": [
        {
          "indexed": true,
          "internalType": "bytes32",
          "name": "claimId",
          "type": "bytes32"
        },
        {
          "indexed": true,
          "internalType": "address",
          "name": "claimer",
          "type": "address"
        },
        {
          "indexed": false,
          "internalType": "uint8",
          "name": "claimType",
          "type": "uint8"
        }
      ],
      "name": "CompensationClaimed",
      "type": "event"
    },
    {
      "anonymous": false,
      "inputs": [
        {
          "indexed": true,
          "internalType": "bytes32",
          "name": "claimId",
          "type": "bytes32"
        }
      ],
      "name": "CompensationWithdrawn",
      "type": "event"
    },
    {
      "anonymous": false,
      "inputs": [
        {
          "indexed": true,
          "internalType": "address",
          "name": "newConfigManager",
          "type": "address"
        }
      ],
      "name": "ConfigManagerUpdated",
      "type": "event"
    },
    {
      "anonymous": false,
      "inputs": [
        {
          "indexed": false,
          "internalType": "uint64",
          "name": "version",
          "type": "uint64"
        }
      ],
      "name": "Initialized",
      "type": "event"
    },
    {
      "anonymous": false,
      "inputs": [
        {
          "indexed": true,
          "internalType": "address",
          "name": "previousOwner",
          "type": "address"
        },
        {
          "indexed": true,
          "internalType": "address",
          "name": "newOwner",
          "type": "address"
        }
      ],
      "name": "OwnershipTransferred",
      "type": "event"
    },
    {
      "anonymous": false,
      "inputs": [
        {
          "indexed": true,
          "internalType": "address",
          "name": "newTransactionManager",
          "type": "address"
        }
      ],
      "name": "TransactionManagerUpdated",
      "type": "event"
    },
    {
      "anonymous": false,
      "inputs": [
        {
          "indexed": true,
          "internalType": "address",
          "name": "newZkService",
          "type": "address"
        }
      ],
      "name": "ZkServiceUpdated",
      "type": "event"
    },
    {
      "inputs": [],
      "name": "arbitratorManager",
      "outputs": [
        {
          "internalType": "contract IArbitratorManager",
          "name": "",
          "type": "address"
        }
      ],
      "stateMutability": "view",
      "type": "function"
    },
    {
      "inputs": [
        {
          "internalType": "bytes32",
          "name": "txId",
          "type": "bytes32"
        }
      ],
      "name": "claimArbitratorFee",
      "outputs": [
        {
          "internalType": "bytes32",
          "name": "",
          "type": "bytes32"
        }
      ],
      "stateMutability": "nonpayable",
      "type": "function"
    },
    {
      "inputs": [
        {
          "internalType": "bytes",
          "name": "btcTx",
          "type": "bytes"
        },
        {
          "internalType": "bytes32",
          "name": "evidence",
          "type": "bytes32"
        }
      ],
      "name": "claimFailedArbitrationCompensation",
      "outputs": [
        {
          "internalType": "bytes32",
          "name": "claimId",
          "type": "bytes32"
        }
      ],
      "stateMutability": "nonpayable",
      "type": "function"
    },
    {
      "inputs": [
        {
          "internalType": "address",
          "name": "arbitrator",
          "type": "address"
        },
        {
          "internalType": "bytes",
          "name": "btcTx",
          "type": "bytes"
        },
        {
          "internalType": "bytes32",
          "name": "evidence",
          "type": "bytes32"
        }
      ],
      "name": "claimIllegalSignatureCompensation",
      "outputs": [
        {
          "internalType": "bytes32",
          "name": "claimId",
          "type": "bytes32"
        }
      ],
      "stateMutability": "nonpayable",
      "type": "function"
    },
    {
      "inputs": [
        {
          "internalType": "bytes32",
          "name": "id",
          "type": "bytes32"
        }
      ],
      "name": "claimTimeoutCompensation",
      "outputs": [
        {
          "internalType": "bytes32",
          "name": "claimId",
          "type": "bytes32"
        }
      ],
      "stateMutability": "nonpayable",
      "type": "function"
    },
    {
      "inputs": [
        {
          "internalType": "bytes32",
          "name": "",
          "type": "bytes32"
        }
      ],
      "name": "claims",
      "outputs": [
        {
          "internalType": "address",
          "name": "claimer",
          "type": "address"
        },
        {
          "internalType": "address",
          "name": "arbitrator",
          "type": "address"
        },
        {
          "internalType": "uint256",
          "name": "ethAmount",
          "type": "uint256"
        },
        {
          "internalType": "address",
          "name": "nftContract",
          "type": "address"
        },
        {
          "internalType": "uint256",
          "name": "totalAmount",
          "type": "uint256"
        },
        {
          "internalType": "bool",
          "name": "withdrawn",
          "type": "bool"
        },
        {
          "internalType": "enum CompensationManager.CompensationType",
          "name": "claimType",
          "type": "uint8"
        },
        {
          "internalType": "address",
          "name": "receivedCompensationAddress",
          "type": "address"
        }
      ],
      "stateMutability": "view",
      "type": "function"
    },
    {
      "inputs": [],
      "name": "configManager",
      "outputs": [
        {
          "internalType": "contract IConfigManager",
          "name": "",
          "type": "address"
        }
      ],
      "stateMutability": "view",
      "type": "function"
    },
    {
      "inputs": [
        {
          "internalType": "bytes32",
          "name": "claimId",
          "type": "bytes32"
        }
      ],
      "name": "getClaimableAmount",
      "outputs": [
        {
          "internalType": "uint256",
          "name": "",
          "type": "uint256"
        }
      ],
      "stateMutability": "view",
      "type": "function"
    },
    {
      "inputs": [
        {
          "internalType": "address",
          "name": "_zkService",
          "type": "address"
        },
        {
          "internalType": "address",
          "name": "_transactionManager",
          "type": "address"
        },
        {
          "internalType": "address",
          "name": "_configManager",
          "type": "address"
        },
        {
          "internalType": "address",
          "name": "_arbitratorManager",
          "type": "address"
        }
      ],
      "name": "initialize",
      "outputs": [],
      "stateMutability": "nonpayable",
      "type": "function"
    },
    {
      "inputs": [],
      "name": "owner",
      "outputs": [
        {
          "internalType": "address",
          "name": "",
          "type": "address"
        }
      ],
      "stateMutability": "view",
      "type": "function"
    },
    {
      "inputs": [],
      "name": "renounceOwnership",
      "outputs": [],
      "stateMutability": "nonpayable",
      "type": "function"
    },
    {
      "inputs": [
        {
          "internalType": "address",
          "name": "_arbitratorManager",
          "type": "address"
        }
      ],
      "name": "setArbitratorManager",
      "outputs": [],
      "stateMutability": "nonpayable",
      "type": "function"
    },
    {
      "inputs": [
        {
          "internalType": "address",
          "name": "_configManager",
          "type": "address"
        }
      ],
      "name": "setConfigManager",
      "outputs": [],
      "stateMutability": "nonpayable",
      "type": "function"
    },
    {
      "inputs": [
        {
          "internalType": "address",
          "name": "_transactionManager",
          "type": "address"
        }
      ],
      "name": "setTransactionManager",
      "outputs": [],
      "stateMutability": "nonpayable",
      "type": "function"
    },
    {
      "inputs": [
        {
          "internalType": "address",
          "name": "_zkService",
          "type": "address"
        }
      ],
      "name": "setZkService",
      "outputs": [],
      "stateMutability": "nonpayable",
      "type": "function"
    },
    {
      "inputs": [],
      "name": "transactionManager",
      "outputs": [
        {
          "internalType": "contract ITransactionManager",
          "name": "",
          "type": "address"
        }
      ],
      "stateMutability": "view",
      "type": "function"
    },
    {
      "inputs": [
        {
          "internalType": "address",
          "name": "newOwner",
          "type": "address"
        }
      ],
      "name": "transferOwnership",
      "outputs": [],
      "stateMutability": "nonpayable",
      "type": "function"
    },
    {
      "inputs": [
        {
          "internalType": "bytes32",
          "name": "claimId",
          "type": "bytes32"
        }
      ],
      "name": "withdrawCompensation",
      "outputs": [],
      "stateMutability": "payable",
      "type": "function"
    },
    {
      "inputs": [],
      "name": "zkService",
      "outputs": [
        {
          "internalType": "contract IZkService",
          "name": "",
          "type": "address"
        }
      ],
      "stateMutability": "view",
      "type": "function"
    },
    {
      "stateMutability": "payable",
      "type": "receive"
    }
  ],
  "bytecode": "0x60806040523480156200001157600080fd5b506200001c62000022565b620000d6565b7ff0c57e16840df040f15088dc2f81fe391c3923bec73e23a9662efc9c229c6a00805468010000000000000000900460ff1615620000735760405163f92ee8a960e01b815260040160405180910390fd5b80546001600160401b0390811614620000d35780546001600160401b0319166001600160401b0390811782556040519081527fc7f505b2f371ae2175ee4913f4499e1f2633a7b5936321eed1cdaeb6115181d29060200160405180910390a15b50565b614f6d80620000e66000396000f3fe6080604052600436106100f85760003560e01c80638cc5d008116100905780638cc5d0081461023f5780638da5cb5b1461025257806399b29871146102675780639a46c8cf14610287578063b4e25e80146102a7578063bb64fd44146102c7578063ca0ab075146102e7578063eff0f59214610307578063f2fde38b14610390578063f8c8765e146103b057600080fd5b80630b1fa61c146101045780632c7e8ca3146101265780633b716452146101465780633e5d75881461017c5780635cd5f6371461019c578063715018a6146101bc578063759787c4146101d157806386312159146101f15780638c4e46e91461021f57600080fd5b366100ff57005b600080fd5b34801561011057600080fd5b5061012461011f36600461430c565b6103d0565b005b34801561013257600080fd5b5061012461014136600461430c565b610488565b34801561015257600080fd5b50600154610166906001600160a01b031681565b6040516101739190614329565b60405180910390f35b34801561018857600080fd5b5061012461019736600461430c565b61053a565b3480156101a857600080fd5b50600054610166906001600160a01b031681565b3480156101c857600080fd5b506101246105dc565b3480156101dd57600080fd5b50600354610166906001600160a01b031681565b3480156101fd57600080fd5b5061021161020c366004614385565b6105f0565b604051908152602001610173565b34801561022b57600080fd5b5061021161023a3660046143e0565b610d9a565b61012461024d36600461442b565b61150a565b34801561025e57600080fd5b50610166611a0c565b34801561027357600080fd5b5061021161028236600461442b565b611a27565b34801561029357600080fd5b506102116102a236600461442b565b611f80565b3480156102b357600080fd5b506101246102c236600461430c565b612361565b3480156102d357600080fd5b506102116102e236600461442b565b612409565b3480156102f357600080fd5b50600254610166906001600160a01b031681565b34801561031357600080fd5b5061037c61032236600461442b565b6004602052600090815260409020805460018201546002830154600384015460058501546006909501546001600160a01b03948516959385169492939183169260ff80831692610100810490911691620100009091041688565b60405161017398979695949392919061445a565b34801561039c57600080fd5b506101246103ab36600461430c565b612437565b3480156103bc57600080fd5b506101246103cb3660046144cd565b612475565b6103d86126dc565b6001600160a01b03811661043e5760405162461bcd60e51b815260206004820152602260248201527f496e76616c6964205472616e73616374696f6e4d616e61676572206164647265604482015261737360f01b60648201526084015b60405180910390fd5b600180546001600160a01b0319166001600160a01b0383169081179091556040517f3bc3af46ee56a7b5246248b8e24bb285f23d745c278db873d49f66c027a19f2b90600090a250565b6104906126dc565b6001600160a01b0381166104f05760405162461bcd60e51b815260206004820152602160248201527f496e76616c69642041726269747261746f724d616e61676572206164647265736044820152607360f81b6064820152608401610435565b600380546001600160a01b0319166001600160a01b0383169081179091556040517f5501b7dfdd6860a14bdbc85c3ca16cf46242ad8c30ffecaaf2dbc192ef761bfc90600090a250565b6105426126dc565b6001600160a01b0381166105945760405162461bcd60e51b8152602060048201526019602482015278496e76616c6964205a6b53657276696365206164647265737360381b6044820152606401610435565b600080546001600160a01b0319166001600160a01b038316908117825560405190917f89f8f878479acf261604346b8864312704f9de61c236e83a48afc4d87d93b19a91a250565b6105e46126dc565b6105ee600061270e565b565b6003546040516326415b0f60e21b815260009182916001600160a01b03909116906399056c3c90610625908990600401614329565b600060405180830381865afa158015610642573d6000803e3d6000fd5b505050506040513d6000823e601f3d908101601f1916820160405261066a9190810190614736565b60808101519091506000036106bc57604080518082018252601581527427379030b1ba34bb32903a3930b739b0b1ba34b7b760591b6020820152905162461bcd60e51b815261043591906004016148ea565b6001546080820151604051632a242ded60e21b815260048101919091526000916001600160a01b03169063a890b7b490602401600060405180830381865afa15801561070c573d6000803e3d6000fd5b505050506040513d6000823e601f3d908101601f191682016040526107349190810190614a19565b905060008160c00151600581111561074e5761074e614444565b1461079657604080518082018252601581527427379030b1ba34bb32903a3930b739b0b1ba34b7b760591b6020820152905162461bcd60e51b815261043591906004016148ea565b838782610120015160006040516020016107b39493929190614b79565b60408051601f198184030181529181528151602092830120600081815260049093529120549093506001600160a01b03161561082257604080518082018252601c8152600080516020614eb88339815191526020820152905162461bcd60e51b815261043591906004016148ea565b6000805460405163ddb8ec8b60e01b8152600481018790526001600160a01b039091169063ddb8ec8b90602401600060405180830381865afa15801561086c573d6000803e3d6000fd5b505050506040513d6000823e601f3d908101601f191682016040526108949190810190614be0565b80515190915015806108a857506020810151155b156108e65760408051808201825260198152600080516020614e988339815191526020820152905162461bcd60e51b815261043591906004016148ea565b806060015161092f5760408051808201825260128152710a6d2cedcc2e8eae4ca40dad2e6dac2e8c6d60731b6020820152905162461bcd60e51b815261043591906004016148ea565b80602001518260a0015114610984576040805180820182526018815277084a88640e8e4c2dce6c2c6e8d2dedc40dad2e6dac2e8c6d60431b6020820152905162461bcd60e51b815261043591906004016148ea565b826101400151516000036109cb5760408051808201825260198152600080516020614e988339815191526020820152905162461bcd60e51b815261043591906004016148ea565b8261014001518051906020012081600001518051906020012014610a225760408051808201825260198152600080516020614e988339815191526020820152905162461bcd60e51b815261043591906004016148ea565b6000610a2e888861276a565b90506000610a3b8261298f565b90508260200151600282604051610a529190614caf565b602060405180830381855afa158015610a6f573d6000803e3d6000fd5b5050506040513d601f19601f82011682018060405250810190610a929190614ccb565b14610ad05760408051808201825260198152600080516020614e988339815191526020820152905162461bcd60e51b815261043591906004016148ea565b60035460405163014f6b1960e41b81526000916001600160a01b0316906314f6b19090610b01908e90600401614329565b602060405180830381865afa158015610b1e573d6000803e3d6000fd5b505050506040513d601f19601f82011682018060405250810190610b429190614ccb565b905080600003610b8c5760408051808201825260128152714e6f207374616b6520617661696c61626c6560701b6020820152905162461bcd60e51b815261043591906004016148ea565b604051806101200160405280336001600160a01b031681526020018c6001600160a01b031681526020018760a0015181526020018760e001516001600160a01b03168152602001876101000151815260200182815260200160001515815260200160006003811115610c0057610c00614444565b81526101208701516001600160a01b0390811660209283015260008a81526004808452604091829020855181549085166001600160a01b031991821617825586860151600183018054918716918316919091179055928601516002820155606086015160038201805491909516931692909217909255608084015180519193610c8e9385019291019061426f565b5060a0820151600582015560c082015160068201805491151560ff1983168117825560e08501519261ff001990911661ffff1990911617610100836003811115610cda57610cda614444565b021790555061010091909101516006909101805462010000600160b01b031916620100006001600160a01b039384160217905560035460405163133165fb60e31b815291169063998b2fd890610d34908e90600401614329565b600060405180830381600087803b158015610d4e57600080fd5b505af1158015610d62573d6000803e3d6000fd5b505060405160008152339250899150600080516020614ef88339815191529060200160405180910390a3505050505050949350505050565b6000805460405163ddb8ec8b60e01b81526004810184905282916001600160a01b03169063ddb8ec8b90602401600060405180830381865afa158015610de4573d6000803e3d6000fd5b505050506040513d6000823e601f3d908101601f19168201604052610e0c9190810190614be0565b805151909150600003610e5757604080518082018252601081526f456d707479207075626c6963206b657960801b6020820152905162461bcd60e51b815261043591906004016148ea565b6020810151610e9857604080518082018252600a81526908adae0e8f240d0c2e6d60b31b6020820152905162461bcd60e51b815261043591906004016148ea565b806040015151600003610ee257604080518082018252600f81526e456d707479207369676e617475726560881b6020820152905162461bcd60e51b815261043591906004016148ea565b806060015115610f2c57604080518082018252601281527114da59db985d1d5c99481d995c9a599a595960721b6020820152905162461bcd60e51b815261043591906004016148ea565b600154602082015160405163255709e560e11b815260048101919091526000916001600160a01b031690634aae13ca90602401600060405180830381865afa158015610f7c573d6000803e3d6000fd5b505050506040513d6000823e601f3d908101601f19168201604052610fa49190810190614a19565b90506000610fb2878761276a565b90506000610fbf8261298f565b90508260a00151600282604051610fd69190614caf565b602060405180830381855afa158015610ff3573d6000803e3d6000fd5b5050506040513d601f19601f820116820180604052508101906110169190614ccb565b14611061576040805180820182526018815277084a88640e8e4c2dce6c2c6e8d2dedc40dad2e6dac2e8c6d60431b6020820152905162461bcd60e51b815261043591906004016148ea565b85836020015184610120015160026040516020016110829493929190614b79565b60408051601f198184030181529181528151602092830120600081815260049093529120549095506001600160a01b0316156110f157604080518082018252601c8152600080516020614eb88339815191526020820152905162461bcd60e51b815261043591906004016148ea565b6111048460800151846101600151613030565b8261010001515160000361115757604080518082018252601781527614da59db985d1d5c99481b9bdd081cdd589b5a5d1d1959604a1b6020820152905162461bcd60e51b815261043591906004016148ea565b83604001518051906020012083610100015180519060200120146111b55760408051808201825260128152710a6d2cedcc2e8eae4ca40dad2e6dac2e8c6d60731b6020820152905162461bcd60e51b815261043591906004016148ea565b60035460208401516040516326415b0f60e21b81526000926001600160a01b0316916399056c3c916111ea9190600401614329565b600060405180830381865afa158015611207573d6000803e3d6000fd5b505050506040513d6000823e601f3d908101601f1916820160405261122f9190810190614736565b600354602086015160405163014f6b1960e41b81529293506000926001600160a01b03909216916314f6b1909161126891600401614329565b602060405180830381865afa158015611285573d6000803e3d6000fd5b505050506040513d601f19601f820116820180604052508101906112a99190614ccb565b9050806000036112f35760408051808201825260128152714e6f207374616b6520617661696c61626c6560701b6020820152905162461bcd60e51b815261043591906004016148ea565b604051806101200160405280336001600160a01b0316815260200186602001516001600160a01b031681526020018360a0015181526020018360e001516001600160a01b0316815260200183610100015181526020018281526020016000151581526020016002600381111561136b5761136b614444565b81526101208701516001600160a01b0390811660209283015260008a81526004808452604091829020855181549085166001600160a01b0319918216178255868601516001830180549187169183169190911790559286015160028201556060860151600382018054919095169316929092179092556080840151805191936113f99385019291019061426f565b5060a0820151600582015560c082015160068201805491151560ff1983168117825560e08501519261ff001990911661ffff199091161761010083600381111561144557611445614444565b021790555061010091909101516006909101805462010000600160b01b031916620100006001600160a01b0393841602179055600354602087015160405163133165fb60e31b8152919092169163998b2fd8916114a59190600401614329565b600060405180830381600087803b1580156114bf57600080fd5b505af11580156114d3573d6000803e3d6000fd5b505060405160028152339250899150600080516020614ef88339815191529060200160405180910390a35050505050509392505050565b6000818152600460205260409020600681015460ff161561156957604080518082018252601681527521b7b6b832b739b0ba34b7b7103bb4ba34323930bbb760511b6020820152905162461bcd60e51b815261043591906004016148ea565b600281015415801561157d57506004810154155b156115c95760408051808201825260198152784e6f20636f6d70656e736174696f6e20617661696c61626c6560381b6020820152905162461bcd60e51b815261043591906004016148ea565b60025460408051631e4432d760e11b815290516000926001600160a01b031691633c8865ae9160048083019260209291908290030181865afa158015611613573d6000803e3d6000fd5b505050506040513d601f19601f820116820180604052508101906116379190614ccb565b9050600061271082846005015461164e9190614cfa565b6116589190614d11565b9050803410156116a7576040805180820182526017815276496e73756666696369656e742073797374656d2066656560481b6020820152905162461bcd60e51b815261043591906004016148ea565b60068301546201000090046001600160a01b03166117065760408051808201825260198152784e6f20636f6d70656e736174696f6e20617661696c61626c6560381b6020820152905162461bcd60e51b815261043591906004016148ea565b600283015460068401805460ff19166001179055801580159061173b575060068401546201000090046001600160a01b031615155b156117c9576000600285018190556006850154604051620100009091046001600160a01b031690839060006040518083038185875af1925050503d80600081146117a1576040519150601f19603f3d011682016040523d82523d6000602084013e6117a6565b606091505b50509050806117c75760405162461bcd60e51b815260040161043590614d33565b505b60068401546201000090046001600160a01b0316156118b85760005b60048501548110156118b657600385015460068601546004870180546001600160a01b03938416936323b872dd93309362010000909104909116918690811061183057611830614d5b565b6000918252602090912001546040516001600160e01b031960e086901b1681526001600160a01b0393841660048201529290911660248301526044820152606401600060405180830381600087803b15801561188b57600080fd5b505af115801561189f573d6000803e3d6000fd5b5050505080806118ae90614d71565b9150506117e5565b505b6002546040805163045b2b8560e51b815290516000926001600160a01b031691638b6570a09160048083019260209291908290030181865afa158015611902573d6000803e3d6000fd5b505050506040513d601f19601f820116820180604052508101906119269190614d8a565b6040519091506001600160a01b0382169084156108fc029085906000818181858888f1935050505015801561195f573d6000803e3d6000fd5b50823411156119d9576000336119758534614da7565b604051600081818185875af1925050503d80600081146119b1576040519150601f19603f3d011682016040523d82523d6000602084013e6119b6565b606091505b50509050806119d75760405162461bcd60e51b815260040161043590614d33565b505b60405186907f7c719d0bd68ca0ef65ed3c059467ed6600adb256a026587f6eb3a06c50f6f4aa90600090a2505050505050565b600080611a1761329c565b546001600160a01b031692915050565b600154604051632a242ded60e21b81526004810183905260009182916001600160a01b039091169063a890b7b490602401600060405180830381865afa158015611a75573d6000803e3d6000fd5b505050506040513d6000823e601f3d908101601f19168201604052611a9d9190810190614a19565b602080820151610140830151604051939450611abe93879360019101614b79565b60408051601f198184030181529181528151602092830120600081815260049093529120549092506001600160a01b031615611b2d57604080518082018252601c8152600080516020614eb88339815191526020820152905162461bcd60e51b815261043591906004016148ea565b60018160c001516005811115611b4557611b45614444565b03611b8d576040805180820182526015815274151c985b9cd858dd1a5bdb8818dbdb5c1b195d1959605a1b6020820152905162461bcd60e51b815261043591906004016148ea565b8060600151421015611bdb576040805180820182526014815273111958591b1a5b99481b9bdd081c995858da195960621b6020820152905162461bcd60e51b815261043591906004016148ea565b6101008101515115611c3057604080518082018252601b81527a14da59db985d1d5c9948185b1c9958591e481cdd589b5a5d1d1959602a1b6020820152905162461bcd60e51b815261043591906004016148ea565b60035460208201516040516326415b0f60e21b81526000926001600160a01b0316916399056c3c91611c659190600401614329565b600060405180830381865afa158015611c82573d6000803e3d6000fd5b505050506040513d6000823e601f3d908101601f19168201604052611caa9190810190614736565b600354602084015160405163014f6b1960e41b81529293506000926001600160a01b03909216916314f6b19091611ce391600401614329565b602060405180830381865afa158015611d00573d6000803e3d6000fd5b505050506040513d601f19601f82011682018060405250810190611d249190614ccb565b905080600003611d6e5760408051808201825260128152714e6f207374616b6520617661696c61626c6560701b6020820152905162461bcd60e51b815261043591906004016148ea565b604051806101200160405280336001600160a01b0316815260200184602001516001600160a01b031681526020018360a0015181526020018360e001516001600160a01b03168152602001836101000151815260200182815260200160001515815260200160016003811115611de657611de6614444565b81526101408501516001600160a01b0390811660209283015260008781526004808452604091829020855181549085166001600160a01b031991821617825586860151600183018054918716918316919091179055928601516002820155606086015160038201805491909516931692909217909255608084015180519193611e749385019291019061426f565b5060a0820151600582015560c082015160068201805491151560ff1983168117825560e08501519261ff001990911661ffff1990911617610100836003811115611ec057611ec0614444565b021790555061010091909101516006909101805462010000600160b01b031916620100006001600160a01b0393841602179055600354602085015160405163133165fb60e31b8152919092169163998b2fd891611f209190600401614329565b600060405180830381600087803b158015611f3a57600080fd5b505af1158015611f4e573d6000803e3d6000fd5b505060405160018152339250869150600080516020614ef88339815191529060200160405180910390a3505050919050565b600154604051632a242ded60e21b81526004810183905260009182916001600160a01b039091169063a890b7b490602401600060405180830381865afa158015611fce573d6000803e3d6000fd5b505050506040513d6000823e601f3d908101601f19168201604052611ff69190810190614a19565b60208101519091506001600160a01b0316331461205557604080518082018252601a8152792737ba103a3930b739b0b1ba34b7b71030b93134ba3930ba37b960311b6020820152905162461bcd60e51b815261043591906004016148ea565b600154604051637577b6df60e01b8152600481018590526000916001600160a01b031690637577b6df9060240160408051808303816000875af11580156120a0573d6000803e3d6000fd5b505050506040513d601f19601f820116820180604052508101906120c49190614dba565b5060035460208401516040516326415b0f60e21b81529293506000926001600160a01b03909216916399056c3c916120fe91600401614329565b600060405180830381865afa15801561211b573d6000803e3d6000fd5b505050506040513d6000823e601f3d908101601f191682016040526121439190810190614736565b90506000858460200151836101e0015160036040516020016121689493929190614b79565b60408051601f198184030181529181528151602092830120600081815260049093529120549091506001600160a01b0316156121d757604080518082018252601c8152600080516020614eb88339815191526020820152905162461bcd60e51b815261043591906004016148ea565b60408051610120810182523381526020868101516001600160a01b03908116828401908152838501888152600060608601818152875182815280870189526080880190815260a088018c9052600160c08901819052600360e08a018190526101e08d015188166101008b01528b85526004808a529a909420895181549089166001600160a01b031991821617825596519181018054928916928816929092179091559351600285015590519183018054929095169190931617909255518051939491936122ac9392850192919091019061426f565b5060a0820151600582015560c082015160068201805491151560ff1983168117825560e08501519261ff001990911661ffff19909116176101008360038111156122f8576122f8614444565b02179055506101009190910151600690910180546001600160a01b03909216620100000262010000600160b01b03199092169190911790553381600080516020614ef8833981519152600360405160ff909116815260200160405180910390a395945050505050565b6123696126dc565b6001600160a01b0381166123bf5760405162461bcd60e51b815260206004820152601d60248201527f496e76616c696420436f6e6669674d616e6167657220616464726573730000006044820152606401610435565b600280546001600160a01b0319166001600160a01b0383169081179091556040517f6a801685c5950e3d8ece256f75ca0ff31ed0ae02aeae73f8180ff32e978a2f6b90600090a250565b6000818152600460205260408120600681015460ff161561242d5750600092915050565b6005015492915050565b61243f6126dc565b6001600160a01b038116612469576000604051631e4fbdf760e01b81526004016104359190614329565b6124728161270e565b50565b600061247f6132c0565b805490915060ff600160401b82041615906001600160401b03166000811580156124a65750825b90506000826001600160401b031660011480156124c25750303b155b9050811580156124d0575080155b156124ee5760405163f92ee8a960e01b815260040160405180910390fd5b845467ffffffffffffffff19166001178555831561251857845460ff60401b1916600160401b1785555b612521336132e4565b6001600160a01b03891661256957604080518082018252600c81526b5a65726f206164647265737360a01b6020820152905162461bcd60e51b815261043591906004016148ea565b6001600160a01b0388166125b157604080518082018252600c81526b5a65726f206164647265737360a01b6020820152905162461bcd60e51b815261043591906004016148ea565b6001600160a01b0387166125f957604080518082018252600c81526b5a65726f206164647265737360a01b6020820152905162461bcd60e51b815261043591906004016148ea565b6001600160a01b03861661264157604080518082018252600c81526b5a65726f206164647265737360a01b6020820152905162461bcd60e51b815261043591906004016148ea565b600080546001600160a01b03808c166001600160a01b031992831617909255600180548b8416908316179055600280548a8416908316179055600380549289169290911691909117905583156126d157845460ff60401b19168555604051600181527fc7f505b2f371ae2175ee4913f4499e1f2633a7b5936321eed1cdaeb6115181d29060200160405180910390a15b505050505050505050565b336126e5611a0c565b6001600160a01b0316146105ee573360405163118cdaa760e01b81526004016104359190614329565b600061271861329c565b80546001600160a01b038481166001600160a01b031983168117845560405193945091169182907f8be0079c531659141344cd1fd0a4f28419497f9722a3daafe3b4186f6b6457e090600090a3505050565b6040805160a0810182526000808252606060208301819052928201839052918101829052608081018290529082806127a3600484614dde565b11156127e25760408051808201825260178152600080516020614f188339815191526020820152905162461bcd60e51b815261043591906004016148ea565b8482856127f0600483614dde565b926127fd93929190614df1565b61280691614e1b565b60e01c8352612816600483614dde565b91506000806128268787866132f5565b811515608088015294509150839050600080612843898985613388565b602089018290529650915085905060008061285f8b8b85613466565b60408b01829052985091508790508515612883576128808b8b8a8751613546565b97505b83516001146128bd5760405162461bcd60e51b815260206004820152600660248201526503232b13ab3960d51b6044820152606401610435565b866128c9896004614dde565b11156129085760408051808201825260178152600080516020614f188339815191526020820152905162461bcd60e51b815261043591906004016148ea565b8a888b612916826004614dde565b9261292393929190614df1565b61292c91614e1b565b60e01c60608a015261293f600489614dde565b97508688146129815760408051808201825260178152600080516020614f188339815191526020820152905162461bcd60e51b815261043591906004016148ea565b505050505050505092915050565b60606000600490506129a58360200151516135d9565b6129af9082614dde565b905060005b8360200151518110156129ed576129cc602883614dde565b91506129d9600183614dde565b9150806129e581614d71565b9150506129b4565b506129fc8360400151516135d9565b612a069082614dde565b905060005b836040015151811015612a9e57612a23600883614dde565b9150612a5084604001518281518110612a3e57612a3e614d5b565b602002602001015160200151516135d9565b612a5a9083614dde565b915083604001518181518110612a7257612a72614d5b565b6020026020010151602001515182612a8a9190614dde565b915080612a9681614d71565b915050612a0b565b50612aaa600482614dde565b90506000816001600160401b03811115612ac657612ac6614529565b6040519080825280601f01601f191660200182016040528015612af0576020820181803683370190505b50845190915060009060e01b815b6004811015612b6157818160048110612b1957612b19614d5b565b1a60f81b84612b288386614dde565b81518110612b3857612b38614d5b565b60200101906001600160f81b031916908160001a90535080612b5981614d71565b915050612afe565b50612b6d600483614dde565b9150612b7f866020015151848461361d565b612b899083614dde565b915060005b866020015151811015612dba5760005b6020811015612c225787602001518281518110612bbd57612bbd614d5b565b6020026020010151600001518160208110612bda57612bda614d5b565b1a60f81b85612be98387614dde565b81518110612bf957612bf9614d5b565b60200101906001600160f81b031916908160001a90535080612c1a81614d71565b915050612b9e565b50612c2e602084614dde565b9250600087602001518281518110612c4857612c48614d5b565b60200260200101516020015160e01b905060005b6004811015612cbf57818160048110612c7757612c77614d5b565b1a60f81b86612c868388614dde565b81518110612c9657612c96614d5b565b60200101906001600160f81b031916908160001a90535080612cb781614d71565b915050612c5c565b50612ccb600485614dde565b9350600060f81b858581518110612ce457612ce4614d5b565b60200101906001600160f81b031916908160001a905350612d06600185614dde565b9350600088602001518381518110612d2057612d20614d5b565b60200260200101516060015160e01b905060005b6004811015612d9757818160048110612d4f57612d4f614d5b565b1a60f81b87612d5e8389614dde565b81518110612d6e57612d6e614d5b565b60200101906001600160f81b031916908160001a90535080612d8f81614d71565b915050612d34565b50612da3600486614dde565b945050508080612db290614d71565b915050612b8e565b50612dcb866040015151848461361d565b612dd59083614dde565b915060005b866040015151811015612fb557600087604001518281518110612dff57612dff614d5b565b60200260200101516000015160c01b905060005b6008811015612e7657818160088110612e2e57612e2e614d5b565b1a60f81b86612e3d8388614dde565b81518110612e4d57612e4d614d5b565b60200101906001600160f81b031916908160001a90535080612e6e81614d71565b915050612e13565b50612e82600885614dde565b9350612eb188604001518381518110612e9d57612e9d614d5b565b60200260200101516020015151868661361d565b612ebb9085614dde565b935060005b88604001518381518110612ed657612ed6614d5b565b60200260200101516020015151811015612f705788604001518381518110612f0057612f00614d5b565b6020026020010151602001518181518110612f1d57612f1d614d5b565b01602001516001600160f81b03191686612f378388614dde565b81518110612f4757612f47614d5b565b60200101906001600160f81b031916908160001a90535080612f6881614d71565b915050612ec0565b5087604001518281518110612f8757612f87614d5b565b6020026020010151602001515184612f9f9190614dde565b9350508080612fad90614d71565b915050612dda565b50606086015160e01b60005b600481101561302457818160048110612fdc57612fdc614d5b565b1a60f81b85612feb8387614dde565b81518110612ffb57612ffb614d5b565b60200101906001600160f81b031916908160001a9053508061301c81614d71565b915050612fc1565b50929695505050505050565b805182511461307357604080518082018252600c81526b496e76616c6964205554584f60a01b6020820152905162461bcd60e51b815261043591906004016148ea565b60005b82518110156132975781818151811061309157613091614d5b565b6020026020010151600001518382815181106130af576130af614d5b565b602002602001015160000151146130fa57604080518082018252600c81526b496e76616c6964205554584f60a01b6020820152905162461bcd60e51b815261043591906004016148ea565b81818151811061310c5761310c614d5b565b60200260200101516020015163ffffffff1683828151811061313057613130614d5b565b60200260200101516020015163ffffffff161461318157604080518082018252600c81526b496e76616c6964205554584f60a01b6020820152905162461bcd60e51b815261043591906004016148ea565b81818151811061319357613193614d5b565b602002602001015160400151805190602001208382815181106131b8576131b8614d5b565b602002602001015160400151805190602001201461320a57604080518082018252600c81526b496e76616c6964205554584f60a01b6020820152905162461bcd60e51b815261043591906004016148ea565b81818151811061321c5761321c614d5b565b60200260200101516060015183828151811061323a5761323a614d5b565b6020026020010151606001511461328557604080518082018252600c81526b496e76616c6964205554584f60a01b6020820152905162461bcd60e51b815261043591906004016148ea565b8061328f81614d71565b915050613076565b505050565b7f9016d09d72d40fdae2fd8ceac6b6234c7706214fd39c1cd1e609a0528c19930090565b7ff0c57e16840df040f15088dc2f81fe391c3923bec73e23a9662efc9c229c6a0090565b6132ec613886565b612472816138ab565b60008183613304826002614dde565b1161338057600085858581811061331d5761331d614d5b565b919091013560f81c9150600090508686613338876001614dde565b81811061334757613347614d5b565b919091013560f81c91505060ff8216158015613366575060ff81166001145b1561337d576001935061337a600284614dde565b92505b50505b935093915050565b6060600080600061339a8787876138b3565b90925090506133a98186614dde565b9250816001600160401b038111156133c3576133c3614529565b6040519080825280602002602001820160405280156133fc57816020015b6133e96142ba565b8152602001906001900390816133e15790505b50935060005b8281101561345b576000806134188a8a88613b43565b915091508187848151811061342f5761342f614d5b565b60209081029190910101526134448187614dde565b95505050808061345390614d71565b915050613402565b505050935093915050565b606060008060006134788787876138b3565b90925090506134878186614dde565b9250816001600160401b038111156134a1576134a1614529565b6040519080825280602002602001820160405280156134e757816020015b6040805180820190915260008152606060208201528152602001906001900390816134bf5790505b50935060005b8281101561345b576000806135038a8a88613db6565b915091508187848151811061351a5761351a614d5b565b602090810291909101015261352f8187614dde565b95505050808061353e90614d71565b9150506134ed565b8160005b828110156135d0576000806135608888866138b3565b909250905061356f8185614dde565b935060005b828110156135ba5760008061358a8b8b896138b3565b90925090506135998282614dde565b6135a39088614dde565b9650505080806135b290614d71565b915050613574565b50505080806135c890614d71565b91505061354a565b50949350505050565b600060fc8210156135ec57506001919050565b61ffff82116135fd57506003919050565b63ffffffff821161361057506005919050565b506009919050565b919050565b600060fc84101561365e578360f81b83838151811061363e5761363e614d5b565b60200101906001600160f81b031916908160001a9053506001905061387f565b61ffff84116137185760fd60f81b83838151811061367e5761367e614d5b565b60200101906001600160f81b031916908160001a90535060f084901b8060001a60f81b846136ad856001614dde565b815181106136bd576136bd614d5b565b60200101906001600160f81b031916908160001a9053508060011a60f81b846136e7856002614dde565b815181106136f7576136f7614d5b565b60200101906001600160f81b031916908160001a905350600391505061387f565b63ffffffff84116137d35760fe60f81b83838151811061373a5761373a614d5b565b60200101906001600160f81b031916908160001a90535060e084901b60005b60048110156137c85781816004811061377457613774614d5b565b1a60f81b8582613785876001614dde565b61378f9190614dde565b8151811061379f5761379f614d5b565b60200101906001600160f81b031916908160001a905350806137c081614d71565b915050613759565b50600591505061387f565b60ff60f81b8383815181106137ea576137ea614d5b565b60200101906001600160f81b031916908160001a90535060c084901b60005b60088110156138785781816008811061382457613824614d5b565b1a60f81b8582613835876001614dde565b61383f9190614dde565b8151811061384f5761384f614d5b565b60200101906001600160f81b031916908160001a9053508061387081614d71565b915050613809565b5060099150505b9392505050565b61388e613f15565b6105ee57604051631afcd79f60e31b815260040160405180910390fd5b61243f613886565b6000808383106138f65760408051808201825260178152600080516020614f188339815191526020820152905162461bcd60e51b815261043591906004016148ea565b600085858581811061390a5761390a614d5b565b919091013560f81c91505060fc81101561392c5760ff16915060019050613380565b60fc1960ff8216016139e05784613944856003614dde565b11156139835760408051808201825260178152600080516020614f188339815191526020820152905162461bcd60e51b815261043591906004016148ea565b6139cf86868080601f0160208091040260200160405190810160405280939291908181526020018383808284376000920191909152506139ca925088915060019050614dde565b613f2f565b61ffff169250600391506133809050565b60fd1960ff821601613a9657846139f8856005614dde565b1115613a375760408051808201825260178152600080516020614f188339815191526020820152905162461bcd60e51b815261043591906004016148ea565b613a8386868080601f016020809104026020016040519081016040528093929190818152602001838380828437600092019190915250613a7e925088915060019050614dde565b613fd7565b63ffffffff169250600591506133809050565b84613aa2856009614dde565b1115613ae15760408051808201825260178152600080516020614f188339815191526020820152905162461bcd60e51b815261043591906004016148ea565b613b2d86868080601f016020809104026020016040519081016040528093929190818152602001838380828437600092019190915250613b28925088915060019050614dde565b6140d0565b6001600160401b03169250600991506133809050565b613b4b6142ba565b60008284613b5a826020614dde565b1115613b995760408051808201825260178152600080516020614f188339815191526020820152905162461bcd60e51b815261043591906004016148ea565b858486613ba7826020614dde565b92613bb493929190614df1565b613bbd91614e4b565b8352613bca602085614dde565b935084613bd8856004614dde565b1115613c175760408051808201825260178152600080516020614f188339815191526020820152905162461bcd60e51b815261043591906004016148ea565b858486613c25826004614dde565b92613c3293929190614df1565b613c3b91614e1b565b60e01c6020840152613c4e600485614dde565b9350600080613c5e8888886138b3565b9092509050613c6d8187614dde565b955086613c7a8388614dde565b1115613cb95760408051808201825260178152600080516020614f188339815191526020820152905162461bcd60e51b815261043591906004016148ea565b878688613cc68583614dde565b92613cd393929190614df1565b8080601f0160208091040260200160405190810160405280939291908181526020018383808284376000920191909152505050506040860152613d168287614dde565b955086613d24876004614dde565b1115613d635760408051808201825260178152600080516020614f188339815191526020820152905162461bcd60e51b815261043591906004016148ea565b878688613d71826004614dde565b92613d7e93929190614df1565b613d8791614e1b565b60e01c6060860152613d9a600487614dde565b955084613da78488614da7565b94509450505050935093915050565b60408051808201909152600081526060602082015260008284613dda826008614dde565b1115613e195760408051808201825260178152600080516020614f188339815191526020820152905162461bcd60e51b815261043591906004016148ea565b858486613e27826008614dde565b92613e3493929190614df1565b613e3d91614e69565b60c01c8352613e4d600885614dde565b9350600080613e5d8888886138b3565b9092509050613e6c8187614dde565b955086613e798388614dde565b1115613eb85760408051808201825260178152600080516020614f188339815191526020820152905162461bcd60e51b815261043591906004016148ea565b878688613ec58583614dde565b92613ed293929190614df1565b8080601f0160208091040260200160405190810160405280939291908181526020018383808284376000920191909152505050506020860152613d9a8287614dde565b6000613f1f6132c0565b54600160401b900460ff16919050565b8151600090613f3f836002614dde565b1115613f8b5760405162461bcd60e51b81526020600482015260276024820152600080516020614ed8833981519152604482015266103ab4b73a189b60c91b6064820152608401610435565b828281518110613f9d57613f9d614d5b565b016020015160f81c600884613fb3856001614dde565b81518110613fc357613fc3614d5b565b016020015160f81c901b1790505b92915050565b8151600090613fe7836004614dde565b11156140335760405162461bcd60e51b81526020600482015260276024820152600080516020614ed8833981519152604482015266103ab4b73a199960c91b6064820152608401610435565b82828151811061404557614045614d5b565b016020015160f81c60088461405b856001614dde565b8151811061406b5761406b614d5b565b016020015160f81c901b601085614083866002614dde565b8151811061409357614093614d5b565b016020015160f81c901b6018866140ab876003614dde565b815181106140bb576140bb614d5b565b016020015160f81c901b171717905092915050565b81516000906140e0836008614dde565b111561412c5760405162461bcd60e51b81526020600482015260276024820152600080516020614ed8833981519152604482015266081d5a5b9d0d8d60ca1b6064820152608401610435565b82828151811061413e5761413e614d5b565b016020015160f81c600884614154856001614dde565b8151811061416457614164614d5b565b016020015160f81c901b60108561417c866002614dde565b8151811061418c5761418c614d5b565b016020015160f81c901b6018866141a4876003614dde565b815181106141b4576141b4614d5b565b0160209081015160f81c90911b90876141ce886004614dde565b815181106141de576141de614d5b565b016020015160f81c901b6028886141f6896005614dde565b8151811061420657614206614d5b565b016020015160f81c901b60308961421e8a6006614dde565b8151811061422e5761422e614d5b565b016020015160f81c901b60388a6142468b6007614dde565b8151811061425657614256614d5b565b016020015160f81c901b17171717171717905092915050565b8280548282559060005260206000209081019282156142aa579160200282015b828111156142aa57825182559160200191906001019061428f565b506142b69291506142e2565b5090565b6040805160808101825260008082526020820181905260609282018390529181019190915290565b5b808211156142b657600081556001016142e3565b6001600160a01b038116811461247257600080fd5b60006020828403121561431e57600080fd5b813561387f816142f7565b6001600160a01b0391909116815260200190565b60008083601f84011261434f57600080fd5b5081356001600160401b0381111561436657600080fd5b60208301915083602082850101111561437e57600080fd5b9250929050565b6000806000806060858703121561439b57600080fd5b84356143a6816142f7565b935060208501356001600160401b038111156143c157600080fd5b6143cd8782880161433d565b9598909750949560400135949350505050565b6000806000604084860312156143f557600080fd5b83356001600160401b0381111561440b57600080fd5b6144178682870161433d565b909790965060209590950135949350505050565b60006020828403121561443d57600080fd5b5035919050565b634e487b7160e01b600052602160045260246000fd5b6001600160a01b03898116825288811660208301526040820188905286811660608301526080820186905284151560a0830152610100820190600485106144b157634e487b7160e01b600052602160045260246000fd5b8460c084015280841660e0840152509998505050505050505050565b600080600080608085870312156144e357600080fd5b84356144ee816142f7565b935060208501356144fe816142f7565b9250604085013561450e816142f7565b9150606085013561451e816142f7565b939692955090935050565b634e487b7160e01b600052604160045260246000fd5b60405161022081016001600160401b038111828210171561456257614562614529565b60405290565b604051608081016001600160401b038111828210171561456257614562614529565b6040516101a081016001600160401b038111828210171561456257614562614529565b60405160a081016001600160401b038111828210171561456257614562614529565b604051601f8201601f191681016001600160401b03811182821017156145f7576145f7614529565b604052919050565b8051613618816142f7565b80516005811061361857600080fd5b60006001600160401b0382111561463257614632614529565b5060051b60200190565b600082601f83011261464d57600080fd5b8151602061466261465d83614619565b6145cf565b82815260059290921b8401810191818101908684111561468157600080fd5b8286015b8481101561469c5780518352918301918301614685565b509695505050505050565b60005b838110156146c25781810151838201526020016146aa565b50506000910152565b600082601f8301126146dc57600080fd5b81516001600160401b038111156146f5576146f5614529565b614708601f8201601f19166020016145cf565b81815284602083860101111561471d57600080fd5b61472e8260208301602087016146a7565b949350505050565b60006020828403121561474857600080fd5b81516001600160401b038082111561475f57600080fd5b90830190610220828603121561477457600080fd5b61477c61453f565b614785836145ff565b815260208301516020820152604083015160408201526147a76060840161460a565b60608201526080830151608082015260a083015160a08201526147cc60c084016145ff565b60c08201526147dd60e084016145ff565b60e082015261010080840151838111156147f657600080fd5b6148028882870161463c565b8284015250506101206148168185016145ff565b90820152610140838101518381111561482e57600080fd5b61483a888287016146cb565b828401525050610160808401518381111561485457600080fd5b614860888287016146cb565b8284015250506101808084015181830152506101a0808401518381111561488657600080fd5b614892888287016146cb565b8284015250506101c080840151838111156148ac57600080fd5b6148b8888287016146cb565b8284015250506101e091506148ce8284016145ff565b9181019190915261020091820151918101919091529392505050565b60208152600082518060208401526149098160408501602087016146a7565b601f01601f19169190910160400192915050565b80516006811061361857600080fd5b600082601f83011261493d57600080fd5b8151602061494d61465d83614619565b82815260059290921b8401810191818101908684111561496c57600080fd5b8286015b8481101561469c5780516001600160401b03808211156149905760008081fd5b908801906080828b03601f19018113156149aa5760008081fd5b6149b2614568565b87840151815260408085015163ffffffff811681146149d15760008081fd5b828a0152606085810151858111156149e95760008081fd5b6149f78f8c838a01016146cb565b9284019290925294909201519381019390935250508352918301918301614970565b600060208284031215614a2b57600080fd5b81516001600160401b0380821115614a4257600080fd5b908301906101a08286031215614a5757600080fd5b614a5f61458a565b614a68836145ff565b8152614a76602084016145ff565b60208201526040830151604082015260608301516060820152608083015182811115614aa157600080fd5b614aad878286016146cb565b60808301525060a083015160a0820152614ac960c0840161491d565b60c082015260e083015160e08201526101008084015183811115614aec57600080fd5b614af8888287016146cb565b828401525050610120614b0c8185016145ff565b90820152610140614b1e8482016145ff565b908201526101608381015183811115614b3657600080fd5b614b428882870161492c565b8284015250506101808084015183811115614b5c57600080fd5b614b68888287016146cb565b918301919091525095945050505050565b8481526001600160601b0319606085811b8216602084015284901b166034820152600060048310614bba57634e487b7160e01b600052602160045260246000fd5b5060f89190911b60488201526049019392505050565b8051801515811461361857600080fd5b600060208284031215614bf257600080fd5b81516001600160401b0380821115614c0957600080fd5b9083019060a08286031215614c1d57600080fd5b614c256145ad565b825182811115614c3457600080fd5b614c40878286016146cb565b82525060208301516020820152604083015182811115614c5f57600080fd5b614c6b878286016146cb565b604083015250614c7d60608401614bd0565b6060820152608083015182811115614c9457600080fd5b614ca08782860161492c565b60808301525095945050505050565b60008251614cc18184602087016146a7565b9190910192915050565b600060208284031215614cdd57600080fd5b5051919050565b634e487b7160e01b600052601160045260246000fd5b8082028115828204841417613fd157613fd1614ce4565b600082614d2e57634e487b7160e01b600052601260045260246000fd5b500490565b6020808252600e908201526d151c985b9cd9995c91985a5b195960921b604082015260600190565b634e487b7160e01b600052603260045260246000fd5b600060018201614d8357614d83614ce4565b5060010190565b600060208284031215614d9c57600080fd5b815161387f816142f7565b81810381811115613fd157613fd1614ce4565b60008060408385031215614dcd57600080fd5b505080516020909101519092909150565b80820180821115613fd157613fd1614ce4565b60008085851115614e0157600080fd5b83861115614e0e57600080fd5b5050820193919092039150565b6001600160e01b03198135818116916004851015614e435780818660040360031b1b83161692505b505092915050565b80356020831015613fd157600019602084900360031b1b1692915050565b6001600160c01b03198135818116916008851015614e435760089490940360031b84901b169092169291505056fe496e76616c696420766572696669636174696f6e206461746100000000000000436f6d70656e736174696f6e20616c726561647920636c61696d6564000000004254435574696c733a20696e73756666696369656e7420627974657320666f7235b845de5e0534eed951fd57a2e3050c150cedde6cf5b0facfc7924b107d467a496e76616c696420425443207472616e73616374696f6e000000000000000000a26469706673582212202d1f1d3dfe71c99d61bcc5343a1ba62b6fde8914a6307d14a4755dfa7013080364736f6c63430008140033",
  "linkReferences": {},
  "deployedLinkReferences": {}
}