{
  "_format": "hh-sol-artifact-1",
  "contractName": "ConfigManager",
  "sourceName": "contracts/core/ConfigManager.sol",
  "abi": [
    {
      "inputs": [],
      "stateMutability": "nonpayable",
      "type": "constructor"
    },
    {
      "inputs": [],
      "name": "InvalidInitialization",
      "type": "error"
    },
    {
      "inputs": [],
      "name": "NotInitializing",
      "type": "error"
    },
    {
      "inputs": [
        {
          "internalType": "address",
          "name": "owner",
          "type": "address"
        }
      ],
      "name": "OwnableInvalidOwner",
      "type": "error"
    },
    {
      "inputs": [
        {
          "internalType": "address",
          "name": "account",
          "type": "address"
        }
      ],
      "name": "OwnableUnauthorizedAccount",
      "type": "error"
    },
    {
      "anonymous": false,
      "inputs": [
        {
          "indexed": true,
          "internalType": "bytes32",
          "name": "key",
          "type": "bytes32"
        },
        {
          "indexed": false,
          "internalType": "uint256",
          "name": "oldValue",
          "type": "uint256"
        },
        {
          "indexed": false,
          "internalType": "uint256",
          "name": "newValue",
          "type": "uint256"
        }
      ],
      "name": "ConfigUpdated",
      "type": "event"
    },
    {
      "anonymous": false,
      "inputs": [
        {
          "indexed": false,
          "internalType": "uint64",
          "name": "version",
          "type": "uint64"
        }
      ],
      "name": "Initialized",
      "type": "event"
    },
    {
      "anonymous": false,
      "inputs": [
        {
          "indexed": true,
          "internalType": "address",
          "name": "previousOwner",
          "type": "address"
        },
        {
          "indexed": true,
          "internalType": "address",
          "name": "newOwner",
          "type": "address"
        }
      ],
      "name": "OwnershipTransferred",
      "type": "event"
    },
    {
      "inputs": [],
      "name": "ARBITRATION_FROZEN_PERIOD",
      "outputs": [
        {
          "internalType": "bytes32",
          "name": "",
          "type": "bytes32"
        }
      ],
      "stateMutability": "view",
      "type": "function"
    },
    {
      "inputs": [],
      "name": "ARBITRATION_TIMEOUT",
      "outputs": [
        {
          "internalType": "bytes32",
          "name": "",
          "type": "bytes32"
        }
      ],
      "stateMutability": "view",
      "type": "function"
    },
    {
      "inputs": [],
      "name": "MAX_STAKE",
      "outputs": [
        {
          "internalType": "bytes32",
          "name": "",
          "type": "bytes32"
        }
      ],
      "stateMutability": "view",
      "type": "function"
    },
    {
      "inputs": [],
      "name": "MAX_TRANSACTION_DURATION",
      "outputs": [
        {
          "internalType": "bytes32",
          "name": "",
          "type": "bytes32"
        }
      ],
      "stateMutability": "view",
      "type": "function"
    },
    {
      "inputs": [],
      "name": "MIN_STAKE",
      "outputs": [
        {
          "internalType": "bytes32",
          "name": "",
          "type": "bytes32"
        }
      ],
      "stateMutability": "view",
      "type": "function"
    },
    {
      "inputs": [],
      "name": "MIN_STAKE_LOCKED_TIME",
      "outputs": [
        {
          "internalType": "bytes32",
          "name": "",
          "type": "bytes32"
        }
      ],
      "stateMutability": "view",
      "type": "function"
    },
    {
      "inputs": [],
      "name": "MIN_TRANSACTION_DURATION",
      "outputs": [
        {
          "internalType": "bytes32",
          "name": "",
          "type": "bytes32"
        }
      ],
      "stateMutability": "view",
      "type": "function"
    },
    {
      "inputs": [],
      "name": "SYSTEM_COMPENSATION_FEE_RATE",
      "outputs": [
        {
          "internalType": "bytes32",
          "name": "",
          "type": "bytes32"
        }
      ],
      "stateMutability": "view",
      "type": "function"
    },
    {
      "inputs": [],
      "name": "SYSTEM_FEE_COLLECTOR",
      "outputs": [
        {
          "internalType": "bytes32",
          "name": "",
          "type": "bytes32"
        }
      ],
      "stateMutability": "view",
      "type": "function"
    },
    {
      "inputs": [],
      "name": "SYSTEM_FEE_RATE",
      "outputs": [
        {
          "internalType": "bytes32",
          "name": "",
          "type": "bytes32"
        }
      ],
      "stateMutability": "view",
      "type": "function"
    },
    {
      "inputs": [],
      "name": "TRANSACTION_MIN_FEE_RATE",
      "outputs": [
        {
          "internalType": "bytes32",
          "name": "",
          "type": "bytes32"
        }
      ],
      "stateMutability": "view",
      "type": "function"
    },
    {
      "inputs": [],
      "name": "getAllConfigs",
      "outputs": [
        {
          "internalType": "bytes32[]",
          "name": "keys",
          "type": "bytes32[]"
        },
        {
          "internalType": "uint256[]",
          "name": "values",
          "type": "uint256[]"
        }
      ],
      "stateMutability": "view",
      "type": "function"
    },
    {
      "inputs": [],
      "name": "getArbitrationFrozenPeriod",
      "outputs": [
        {
          "internalType": "uint256",
          "name": "",
          "type": "uint256"
        }
      ],
      "stateMutability": "view",
      "type": "function"
    },
    {
      "inputs": [
        {
          "internalType": "bytes32",
          "name": "key",
          "type": "bytes32"
        }
      ],
      "name": "getConfig",
      "outputs": [
        {
          "internalType": "uint256",
          "name": "",
          "type": "uint256"
        }
      ],
      "stateMutability": "view",
      "type": "function"
    },
    {
      "inputs": [],
      "name": "getSystemCompensationFeeRate",
      "outputs": [
        {
          "internalType": "uint256",
          "name": "",
          "type": "uint256"
        }
      ],
      "stateMutability": "view",
      "type": "function"
    },
    {
      "inputs": [],
      "name": "getSystemFeeCollector",
      "outputs": [
        {
          "internalType": "address",
          "name": "",
          "type": "address"
        }
      ],
      "stateMutability": "view",
      "type": "function"
    },
    {
      "inputs": [],
      "name": "getSystemFeeRate",
      "outputs": [
        {
          "internalType": "uint256",
          "name": "",
          "type": "uint256"
        }
      ],
      "stateMutability": "view",
      "type": "function"
    },
    {
      "inputs": [],
      "name": "initialize",
      "outputs": [],
      "stateMutability": "nonpayable",
      "type": "function"
    },
    {
      "inputs": [],
      "name": "owner",
      "outputs": [
        {
          "internalType": "address",
          "name": "",
          "type": "address"
        }
      ],
      "stateMutability": "view",
      "type": "function"
    },
    {
      "inputs": [],
      "name": "renounceOwnership",
      "outputs": [],
      "stateMutability": "nonpayable",
      "type": "function"
    },
    {
      "inputs": [
        {
          "internalType": "uint256",
          "name": "period",
          "type": "uint256"
        }
      ],
      "name": "setArbitrationFrozenPeriod",
      "outputs": [],
      "stateMutability": "nonpayable",
      "type": "function"
    },
    {
      "inputs": [
        {
          "internalType": "uint256",
          "name": "timeout",
          "type": "uint256"
        }
      ],
      "name": "setArbitrationTimeout",
      "outputs": [],
      "stateMutability": "nonpayable",
      "type": "function"
    },
    {
      "inputs": [
        {
          "internalType": "bytes32[]",
          "name": "keys",
          "type": "bytes32[]"
        },
        {
          "internalType": "uint256[]",
          "name": "values",
          "type": "uint256[]"
        }
      ],
      "name": "setConfigs",
      "outputs": [],
      "stateMutability": "nonpayable",
      "type": "function"
    },
    {
      "inputs": [
        {
          "internalType": "uint256",
          "name": "amount",
          "type": "uint256"
        }
      ],
      "name": "setMaxStake",
      "outputs": [],
      "stateMutability": "nonpayable",
      "type": "function"
    },
    {
      "inputs": [
        {
          "internalType": "uint256",
          "name": "duration",
          "type": "uint256"
        }
      ],
      "name": "setMaxTransactionDuration",
      "outputs": [],
      "stateMutability": "nonpayable",
      "type": "function"
    },
    {
      "inputs": [
        {
          "internalType": "uint256",
          "name": "amount",
          "type": "uint256"
        }
      ],
      "name": "setMinStake",
      "outputs": [],
      "stateMutability": "nonpayable",
      "type": "function"
    },
    {
      "inputs": [
        {
          "internalType": "uint256",
          "name": "time",
          "type": "uint256"
        }
      ],
      "name": "setMinStakeLockedTime",
      "outputs": [],
      "stateMutability": "nonpayable",
      "type": "function"
    },
    {
      "inputs": [
        {
          "internalType": "uint256",
          "name": "duration",
          "type": "uint256"
        }
      ],
      "name": "setMinTransactionDuration",
      "outputs": [],
      "stateMutability": "nonpayable",
      "type": "function"
    },
    {
      "inputs": [
        {
          "internalType": "uint256",
          "name": "rate",
          "type": "uint256"
        }
      ],
      "name": "setSystemCompensationFeeRate",
      "outputs": [],
      "stateMutability": "nonpayable",
      "type": "function"
    },
    {
      "inputs": [
        {
          "internalType": "address",
          "name": "collector",
          "type": "address"
        }
      ],
      "name": "setSystemFeeCollector",
      "outputs": [],
      "stateMutability": "nonpayable",
      "type": "function"
    },
    {
      "inputs": [
        {
          "internalType": "uint256",
          "name": "rate",
          "type": "uint256"
        }
      ],
      "name": "setSystemFeeRate",
      "outputs": [],
      "stateMutability": "nonpayable",
      "type": "function"
    },
    {
      "inputs": [
        {
          "internalType": "uint256",
          "name": "rate",
          "type": "uint256"
        }
      ],
      "name": "setTransactionMinFeeRate",
      "outputs": [],
      "stateMutability": "nonpayable",
      "type": "function"
    },
    {
      "inputs": [
        {
          "internalType": "address",
          "name": "newOwner",
          "type": "address"
        }
      ],
      "name": "transferOwnership",
      "outputs": [],
      "stateMutability": "nonpayable",
      "type": "function"
    }
  ],
  "bytecode": "0x608060405234801561001057600080fd5b5061001961001e565b6100d0565b7ff0c57e16840df040f15088dc2f81fe391c3923bec73e23a9662efc9c229c6a00805468010000000000000000900460ff161561006e5760405163f92ee8a960e01b815260040160405180910390fd5b80546001600160401b03908116146100cd5780546001600160401b0319166001600160401b0390811782556040519081527fc7f505b2f371ae2175ee4913f4499e1f2633a7b5936321eed1cdaeb6115181d29060200160405180910390a15b50565b6118b2806100df6000396000f3fe608060405234801561001057600080fd5b50600436106101fb5760003560e01c80636fc148371161011a578063a1ba7344116100ad578063cc9157b71161007c578063cc9157b7146104f0578063cd4abbcb14610503578063e6feb4f314610516578063e78c93631461052b578063f2fde38b1461053e57600080fd5b8063a1ba73441461049c578063b46d9ff7146104b1578063c98517c5146104c6578063cb1c2b5c146104db57600080fd5b80638129fc1c116100e95780638129fc1c146104595780638b6570a0146104615780638c80fd90146104815780638da5cb5b1461049457600080fd5b80636fc1483714610418578063715018a61461042b5780637869bdd9146104335780637c16f1bc1461044657600080fd5b806350e610b4116101925780635c97b6e1116101615780635c97b6e1146103915780635ece5e32146103a457806363507956146103e25780636dd5b69d146103f857600080fd5b806350e610b414610318578063552efc82146103565780635670ef721461036957806358d0b1471461037c57600080fd5b80633c8865ae116101ce5780633c8865ae1461028b578063400bec77146102c95780634a700a9d146102dc5780634b74d9ca146102f157600080fd5b80630868b0421461020057806309c71c0314610215578063104600651461024f5780633918a84614610276575b600080fd5b61021361020e366004611555565b610551565b005b61023c7ff67cbfc49efbe49cfda2049f4fae02cff32ce41383dd9cd151875b60a92f872b81565b6040519081526020015b60405180910390f35b61023c7f8f589203cf1469152b6891bfec4d1037191a00847decb605045205b8d2c419f081565b61023c6000805160206117bd83398151915281565b6000805160206117dd83398151915260009081526020527f1273dc24968734fd6716e4443b1b490a1d2263bc285c9f2109e7b8972350fafa5461023c565b6102136102d7366004611555565b6105d9565b61023c60008051602061183d83398151915281565b61023c7fc919595274e5e6882421c3b30662e7d18eb2b09181b22c8f941f70ad25c9668581565b60008051602061175d83398151915260009081526020527fb4ebefe1c2bb30334c2647c39d91c3bc2b86bc444dc7ed06c1d3ab50c8052f345461023c565b61021361036436600461156e565b610659565b6102136103773660046115ea565b610722565b61023c60008051602061181d83398151915281565b61021361039f366004611555565b61086a565b60008051602061183d83398151915260009081526020527f207fb48e2de38b1702af3ecad91ef3dcd50020cef182ed6f6531e9ea41972ecb5461023c565b6103ea6108d8565b604051610246929190611656565b61023c610406366004611555565b60009081526020819052604090205490565b610213610426366004611555565b610bbf565b610213610caa565b610213610441366004611555565b610cbe565b610213610454366004611555565b610d2c565b610213610dac565b610469611051565b6040516001600160a01b039091168152602001610246565b61021361048f366004611555565b6110a6565b610469611193565b61023c60008051602061175d83398151915281565b61023c60008051602061177d83398151915281565b61023c60008051602061185d83398151915281565b61023c60008051602061179d83398151915281565b6102136104fe366004611555565b6111c1565b610213610511366004611555565b6112b6565b61023c6000805160206117dd83398151915281565b610213610539366004611555565b611324565b61021361054c36600461156e565b611412565b610559611450565b7f8f589203cf1469152b6891bfec4d1037191a00847decb605045205b8d2c419f0600081815260209081527fd4dc9d022ea66284bf3759878e1770176314bb36aaa222128064ad39ef2e7840805490849055604080518281529283018590529092916000805160206117fd83398151915291015b60405180910390a25050565b6105e1611450565b7ff67cbfc49efbe49cfda2049f4fae02cff32ce41383dd9cd151875b60a92f872b600081815260209081527f9180475faa5598bd671d18c2e73a090c51d6e4c22382770d80ff4f5359ffb669805490849055604080518281529283018590529092916000805160206117fd83398151915291016105cd565b610661611450565b6001600160a01b0381166106b257604080518082018252600c81526b5a65726f206164647265737360a01b6020820152905162461bcd60e51b81526106a991906004016116d1565b60405180910390fd5b60008051602061177d83398151915260008181526020527f3adec799e625fbcf9a9e6abd7129347c0d136e03b8c2b85a7bc847978c47995d80546001600160a01b038416918290556040519092916000805160206117fd833981519152916105cd91858252602082015260400190565b61072a611450565b82811461076e57604080518082018252600f81526e098cadccee8d040dad2e6dac2e8c6d608b1b6020820152905162461bcd60e51b81526106a991906004016116d1565b60005b838110156108635760008060008787858181106107905761079061171f565b9050602002013581526020019081526020016000205490508383838181106107ba576107ba61171f565b905060200201356000808888868181106107d6576107d661171f565b905060200201358152602001908152602001600020819055508585838181106108015761080161171f565b905060200201356000805160206117fd8339815191528286868681811061082a5761082a61171f565b90506020020135604051610848929190918252602082015260400190565b60405180910390a2508061085b81611735565b915050610771565b5050505050565b610872611450565b60008051602061175d833981519152600081815260209081527fb4ebefe1c2bb30334c2647c39d91c3bc2b86bc444dc7ed06c1d3ab50c8052f34805490849055604080518281529283018590529092916000805160206117fd83398151915291016105cd565b60408051600b80825261018082019092526060918291906020820161016080368337505060408051600b80825261018082019092529294509050602082016101608036833701905050905060008051602061179d833981519152826000815181106109455761094561171f565b60200260200101818152505060008051602061185d833981519152826001815181106109735761097361171f565b6020026020010181815250507f8f589203cf1469152b6891bfec4d1037191a00847decb605045205b8d2c419f0826002815181106109b3576109b361171f565b6020026020010181815250506000805160206117bd833981519152826003815181106109e1576109e161171f565b60200260200101818152505060008051602061181d83398151915282600481518110610a0f57610a0f61171f565b6020026020010181815250507fc919595274e5e6882421c3b30662e7d18eb2b09181b22c8f941f70ad25c9668582600581518110610a4f57610a4f61171f565b6020026020010181815250507ff67cbfc49efbe49cfda2049f4fae02cff32ce41383dd9cd151875b60a92f872b82600681518110610a8f57610a8f61171f565b60200260200101818152505060008051602061183d83398151915282600781518110610abd57610abd61171f565b60200260200101818152505060008051602061175d83398151915282600881518110610aeb57610aeb61171f565b6020026020010181815250506000805160206117dd83398151915282600981518110610b1957610b1961171f565b60200260200101818152505060008051602061177d83398151915282600a81518110610b4757610b4761171f565b60200260200101818152505060005b8251811015610bba57600080848381518110610b7457610b7461171f565b6020026020010151815260200190815260200160002054828281518110610b9d57610b9d61171f565b602090810291909101015280610bb281611735565b915050610b56565b509091565b610bc7611450565b60008051602061179d83398151915260009081526020527f8bafc881ab8770d3aa3c40a001af1a259c4daead43125889a41a0df74b95df7b548111610c445760405162461bcd60e51b815260206004820152601360248201527226a0ac2fa9aa20a5a2afa122a627abafa6a4a760691b60448201526064016106a9565b60008051602061185d833981519152600081815260209081527f51ac12cdf0151e6aa80713607543060d53398bb18ee7490680ae53a7f3b7a5d5805490849055604080518281529283018590529092916000805160206117fd83398151915291016105cd565b610cb2611450565b610cbc6000611482565b565b610cc6611450565b6000805160206117dd833981519152600081815260209081527f1273dc24968734fd6716e4443b1b490a1d2263bc285c9f2109e7b8972350fafa805490849055604080518281529283018590529092916000805160206117fd83398151915291016105cd565b610d34611450565b7fc919595274e5e6882421c3b30662e7d18eb2b09181b22c8f941f70ad25c96685600081815260209081527f93e2898a7ee2cc0245ce84b51d23cf640698dbafe7113348e9ffbd937319eb75805490849055604080518281529283018590529092916000805160206117fd83398151915291016105cd565b7ff0c57e16840df040f15088dc2f81fe391c3923bec73e23a9662efc9c229c6a008054600160401b810460ff16159067ffffffffffffffff16600081158015610df25750825b905060008267ffffffffffffffff166001148015610e0f5750303b155b905081158015610e1d575080155b15610e3b5760405163f92ee8a960e01b815260040160405180910390fd5b845467ffffffffffffffff191660011785558315610e6557845460ff60401b1916600160401b1785555b610e6e336114f3565b60006020819052670de0b6b3a76400007f8bafc881ab8770d3aa3c40a001af1a259c4daead43125889a41a0df74b95df7b5568056bc75e2d631000007f51ac12cdf0151e6aa80713607543060d53398bb18ee7490680ae53a7f3b7a5d55562093a807fd4dc9d022ea66284bf3759878e1770176314bb36aaa222128064ad39ef2e784055620151807feb2d9762322eda69d1229fed9cd144289eed5219d3d6c156e84fe513b33e612d81905562278d007f0606a183f408ed27cd9d043212a6d33aa8f4b829614c8aacaaea09b483cbb1c55560647f93e2898a7ee2cc0245ce84b51d23cf640698dbafe7113348e9ffbd937319eb75557f9180475faa5598bd671d18c2e73a090c51d6e4c22382770d80ff4f5359ffb669556107087f207fb48e2de38b1702af3ecad91ef3dcd50020cef182ed6f6531e9ea41972ecb556101f47fb4ebefe1c2bb30334c2647c39d91c3bc2b86bc444dc7ed06c1d3ab50c8052f34556000805160206117dd833981519152905260c87f1273dc24968734fd6716e4443b1b490a1d2263bc285c9f2109e7b8972350fafa55831561086357845460ff60401b19168555604051600181527fc7f505b2f371ae2175ee4913f4499e1f2633a7b5936321eed1cdaeb6115181d29060200160405180910390a15050505050565b60008051602061177d833981519152600090815260208190527f3adec799e625fbcf9a9e6abd7129347c0d136e03b8c2b85a7bc847978c47995d548082036110a15761109b611193565b91505090565b919050565b6110ae611450565b60008051602061185d83398151915260009081526020527f51ac12cdf0151e6aa80713607543060d53398bb18ee7490680ae53a7f3b7a5d554811061112d5760405162461bcd60e51b815260206004820152601560248201527409a929cbea6a882968abe8ab0868a8a88a6be9a82b605b1b60448201526064016106a9565b60008051602061179d833981519152600081815260209081527f8bafc881ab8770d3aa3c40a001af1a259c4daead43125889a41a0df74b95df7b805490849055604080518281529283018590529092916000805160206117fd83398151915291016105cd565b7f9016d09d72d40fdae2fd8ceac6b6234c7706214fd39c1cd1e609a0528c199300546001600160a01b031690565b6111c9611450565b60008051602061181d83398151915260009081526020527f0606a183f408ed27cd9d043212a6d33aa8f4b829614c8aacaaea09b483cbb1c55481106112505760405162461bcd60e51b815260206004820152601860248201527f4d494e5f4455524154494f4e5f455843454544535f4d4158000000000000000060448201526064016106a9565b6000805160206117bd833981519152600081815260209081527feb2d9762322eda69d1229fed9cd144289eed5219d3d6c156e84fe513b33e612d805490849055604080518281529283018590529092916000805160206117fd83398151915291016105cd565b6112be611450565b60008051602061183d833981519152600081815260209081527f207fb48e2de38b1702af3ecad91ef3dcd50020cef182ed6f6531e9ea41972ecb805490849055604080518281529283018590529092916000805160206117fd83398151915291016105cd565b61132c611450565b6000805160206117bd83398151915260009081526020527feb2d9762322eda69d1229fed9cd144289eed5219d3d6c156e84fe513b33e612d5481116113ac5760405162461bcd60e51b815260206004820152601660248201527526a0ac2fa22aa920aa24a7a72fa122a627abafa6a4a760511b60448201526064016106a9565b60008051602061181d833981519152600081815260209081527f0606a183f408ed27cd9d043212a6d33aa8f4b829614c8aacaaea09b483cbb1c5805490849055604080518281529283018590529092916000805160206117fd83398151915291016105cd565b61141a611450565b6001600160a01b03811661144457604051631e4fbdf760e01b8152600060048201526024016106a9565b61144d81611482565b50565b33611459611193565b6001600160a01b031614610cbc5760405163118cdaa760e01b81523360048201526024016106a9565b7f9016d09d72d40fdae2fd8ceac6b6234c7706214fd39c1cd1e609a0528c19930080546001600160a01b031981166001600160a01b03848116918217845560405192169182907f8be0079c531659141344cd1fd0a4f28419497f9722a3daafe3b4186f6b6457e090600090a3505050565b6114fb611504565b61144d8161154d565b7ff0c57e16840df040f15088dc2f81fe391c3923bec73e23a9662efc9c229c6a0054600160401b900460ff16610cbc57604051631afcd79f60e31b815260040160405180910390fd5b61141a611504565b60006020828403121561156757600080fd5b5035919050565b60006020828403121561158057600080fd5b81356001600160a01b038116811461159757600080fd5b9392505050565b60008083601f8401126115b057600080fd5b50813567ffffffffffffffff8111156115c857600080fd5b6020830191508360208260051b85010111156115e357600080fd5b9250929050565b6000806000806040858703121561160057600080fd5b843567ffffffffffffffff8082111561161857600080fd5b6116248883890161159e565b9096509450602087013591508082111561163d57600080fd5b5061164a8782880161159e565b95989497509550505050565b604080825283519082018190526000906020906060840190828701845b8281101561168f57815184529284019290840190600101611673565b5050508381038285015284518082528583019183019060005b818110156116c4578351835292840192918401916001016116a8565b5090979650505050505050565b600060208083528351808285015260005b818110156116fe578581018301518582016040015282016116e2565b506000604082860101526040601f19601f8301168501019250505092915050565b634e487b7160e01b600052603260045260246000fd5b60006001820161175557634e487b7160e01b600052601160045260246000fd5b506001019056fed91f20541e9312a0f4d27f0f0ba02500035307ac99ea67c86c8342ab3fd71bc5ab24f8bdba3ac1714795343236c2c4f2f4ec1dc7852ad6c62c7d11680c9f1a58a2cacd4c4a17915c9b22ff024458e28713037852123218861ef99f8b37b23424251496a2e9229b930e5943f3c3e4da6cb786017948b856c9d455ed9cf0fc156c4d71e6d712d945d50e1827c705441b1e232ecaaeb195788524f5523b0785b0a2ac2ccce3de9c0816ae772598f7f65fe69f9893b637f7c490497378cbb3ea043ed31f84da73b6cb3a8c2e853a7c46b1c95600fc6ab5acdbeb4f7f16e875c25ab80e223b97d7f941cfc1eaa79302686d0fb0d9628e1d7a65633e700791f0beecce6ce6c3872790fbf28e7fa6102c9021f882ca7c1af8a947c293f9d8c6a5537a5fa2646970667358221220d33925a7b19253539ad0ce5711585ac51218dc484394967658fd9d6d8f7771f164736f6c63430008140033",
  "linkReferences": {},
  "deployedLinkReferences": {}
}