{
  "_format": "hh-sol-artifact-1",
  "contractName": "ConfigManager",
  "sourceName": "contracts/core/ConfigManager.sol",
  "abi": [
    {
      "inputs": [],
      "stateMutability": "nonpayable",
      "type": "constructor"
    },
    {
      "inputs": [],
      "name": "InvalidInitialization",
      "type": "error"
    },
    {
      "inputs": [],
      "name": "LENGTH_MISMATCH",
      "type": "error"
    },
    {
      "inputs": [],
      "name": "NotInitializing",
      "type": "error"
    },
    {
      "inputs": [
        {
          "internalType": "address",
          "name": "owner",
          "type": "address"
        }
      ],
      "name": "OwnableInvalidOwner",
      "type": "error"
    },
    {
      "inputs": [
        {
          "internalType": "address",
          "name": "account",
          "type": "address"
        }
      ],
      "name": "OwnableUnauthorizedAccount",
      "type": "error"
    },
    {
      "inputs": [],
      "name": "ZERO_ADDRESS",
      "type": "error"
    },
    {
      "anonymous": false,
      "inputs": [
        {
          "indexed": true,
          "internalType": "bytes32",
          "name": "key",
          "type": "bytes32"
        },
        {
          "indexed": false,
          "internalType": "uint256",
          "name": "oldValue",
          "type": "uint256"
        },
        {
          "indexed": false,
          "internalType": "uint256",
          "name": "newValue",
          "type": "uint256"
        }
      ],
      "name": "ConfigUpdated",
      "type": "event"
    },
    {
      "anonymous": false,
      "inputs": [
        {
          "indexed": false,
          "internalType": "uint64",
          "name": "version",
          "type": "uint64"
        }
      ],
      "name": "Initialized",
      "type": "event"
    },
    {
      "anonymous": false,
      "inputs": [
        {
          "indexed": true,
          "internalType": "address",
          "name": "previousOwner",
          "type": "address"
        },
        {
          "indexed": true,
          "internalType": "address",
          "name": "newOwner",
          "type": "address"
        }
      ],
      "name": "OwnershipTransferred",
      "type": "event"
    },
    {
      "inputs": [],
      "name": "ARBITRATION_FROZEN_PERIOD",
      "outputs": [
        {
          "internalType": "bytes32",
          "name": "",
          "type": "bytes32"
        }
      ],
      "stateMutability": "view",
      "type": "function"
    },
    {
      "inputs": [],
      "name": "ARBITRATION_TIMEOUT",
      "outputs": [
        {
          "internalType": "bytes32",
          "name": "",
          "type": "bytes32"
        }
      ],
      "stateMutability": "view",
      "type": "function"
    },
    {
      "inputs": [],
      "name": "MAX_STAKE",
      "outputs": [
        {
          "internalType": "bytes32",
          "name": "",
          "type": "bytes32"
        }
      ],
      "stateMutability": "view",
      "type": "function"
    },
    {
      "inputs": [],
      "name": "MAX_TRANSACTION_DURATION",
      "outputs": [
        {
          "internalType": "bytes32",
          "name": "",
          "type": "bytes32"
        }
      ],
      "stateMutability": "view",
      "type": "function"
    },
    {
      "inputs": [],
      "name": "MIN_STAKE",
      "outputs": [
        {
          "internalType": "bytes32",
          "name": "",
          "type": "bytes32"
        }
      ],
      "stateMutability": "view",
      "type": "function"
    },
    {
      "inputs": [],
      "name": "MIN_STAKE_LOCKED_TIME",
      "outputs": [
        {
          "internalType": "bytes32",
          "name": "",
          "type": "bytes32"
        }
      ],
      "stateMutability": "view",
      "type": "function"
    },
    {
      "inputs": [],
      "name": "MIN_TRANSACTION_DURATION",
      "outputs": [
        {
          "internalType": "bytes32",
          "name": "",
          "type": "bytes32"
        }
      ],
      "stateMutability": "view",
      "type": "function"
    },
    {
      "inputs": [],
      "name": "SYSTEM_COMPENSATION_FEE_RATE",
      "outputs": [
        {
          "internalType": "bytes32",
          "name": "",
          "type": "bytes32"
        }
      ],
      "stateMutability": "view",
      "type": "function"
    },
    {
      "inputs": [],
      "name": "SYSTEM_FEE_COLLECTOR",
      "outputs": [
        {
          "internalType": "bytes32",
          "name": "",
          "type": "bytes32"
        }
      ],
      "stateMutability": "view",
      "type": "function"
    },
    {
      "inputs": [],
      "name": "SYSTEM_FEE_RATE",
      "outputs": [
        {
          "internalType": "bytes32",
          "name": "",
          "type": "bytes32"
        }
      ],
      "stateMutability": "view",
      "type": "function"
    },
    {
      "inputs": [],
      "name": "TRANSACTION_MIN_FEE_RATE",
      "outputs": [
        {
          "internalType": "bytes32",
          "name": "",
          "type": "bytes32"
        }
      ],
      "stateMutability": "view",
      "type": "function"
    },
    {
      "inputs": [],
      "name": "getAllConfigs",
      "outputs": [
        {
          "internalType": "bytes32[]",
          "name": "keys",
          "type": "bytes32[]"
        },
        {
          "internalType": "uint256[]",
          "name": "values",
          "type": "uint256[]"
        }
      ],
      "stateMutability": "view",
      "type": "function"
    },
    {
      "inputs": [],
      "name": "getArbitrationFrozenPeriod",
      "outputs": [
        {
          "internalType": "uint256",
          "name": "",
          "type": "uint256"
        }
      ],
      "stateMutability": "view",
      "type": "function"
    },
    {
      "inputs": [],
      "name": "getArbitrationTimeout",
      "outputs": [
        {
          "internalType": "uint256",
          "name": "",
          "type": "uint256"
        }
      ],
      "stateMutability": "view",
      "type": "function"
    },
    {
      "inputs": [
        {
          "internalType": "bytes32",
          "name": "key",
          "type": "bytes32"
        }
      ],
      "name": "getConfig",
      "outputs": [
        {
          "internalType": "uint256",
          "name": "",
          "type": "uint256"
        }
      ],
      "stateMutability": "view",
      "type": "function"
    },
    {
      "inputs": [],
      "name": "getSystemCompensationFeeRate",
      "outputs": [
        {
          "internalType": "uint256",
          "name": "",
          "type": "uint256"
        }
      ],
      "stateMutability": "view",
      "type": "function"
    },
    {
      "inputs": [],
      "name": "getSystemFeeCollector",
      "outputs": [
        {
          "internalType": "address",
          "name": "",
          "type": "address"
        }
      ],
      "stateMutability": "view",
      "type": "function"
    },
    {
      "inputs": [],
      "name": "getSystemFeeRate",
      "outputs": [
        {
          "internalType": "uint256",
          "name": "",
          "type": "uint256"
        }
      ],
      "stateMutability": "view",
      "type": "function"
    },
    {
      "inputs": [],
      "name": "initialize",
      "outputs": [],
      "stateMutability": "nonpayable",
      "type": "function"
    },
    {
      "inputs": [],
      "name": "owner",
      "outputs": [
        {
          "internalType": "address",
          "name": "",
          "type": "address"
        }
      ],
      "stateMutability": "view",
      "type": "function"
    },
    {
      "inputs": [],
      "name": "renounceOwnership",
      "outputs": [],
      "stateMutability": "nonpayable",
      "type": "function"
    },
    {
      "inputs": [
        {
          "internalType": "uint256",
          "name": "period",
          "type": "uint256"
        }
      ],
      "name": "setArbitrationFrozenPeriod",
      "outputs": [],
      "stateMutability": "nonpayable",
      "type": "function"
    },
    {
      "inputs": [
        {
          "internalType": "uint256",
          "name": "timeout",
          "type": "uint256"
        }
      ],
      "name": "setArbitrationTimeout",
      "outputs": [],
      "stateMutability": "nonpayable",
      "type": "function"
    },
    {
      "inputs": [
        {
          "internalType": "bytes32[]",
          "name": "keys",
          "type": "bytes32[]"
        },
        {
          "internalType": "uint256[]",
          "name": "values",
          "type": "uint256[]"
        }
      ],
      "name": "setConfigs",
      "outputs": [],
      "stateMutability": "nonpayable",
      "type": "function"
    },
    {
      "inputs": [
        {
          "internalType": "uint256",
          "name": "amount",
          "type": "uint256"
        }
      ],
      "name": "setMaxStake",
      "outputs": [],
      "stateMutability": "nonpayable",
      "type": "function"
    },
    {
      "inputs": [
        {
          "internalType": "uint256",
          "name": "duration",
          "type": "uint256"
        }
      ],
      "name": "setMaxTransactionDuration",
      "outputs": [],
      "stateMutability": "nonpayable",
      "type": "function"
    },
    {
      "inputs": [
        {
          "internalType": "uint256",
          "name": "amount",
          "type": "uint256"
        }
      ],
      "name": "setMinStake",
      "outputs": [],
      "stateMutability": "nonpayable",
      "type": "function"
    },
    {
      "inputs": [
        {
          "internalType": "uint256",
          "name": "time",
          "type": "uint256"
        }
      ],
      "name": "setMinStakeLockedTime",
      "outputs": [],
      "stateMutability": "nonpayable",
      "type": "function"
    },
    {
      "inputs": [
        {
          "internalType": "uint256",
          "name": "duration",
          "type": "uint256"
        }
      ],
      "name": "setMinTransactionDuration",
      "outputs": [],
      "stateMutability": "nonpayable",
      "type": "function"
    },
    {
      "inputs": [
        {
          "internalType": "uint256",
          "name": "rate",
          "type": "uint256"
        }
      ],
      "name": "setSystemCompensationFeeRate",
      "outputs": [],
      "stateMutability": "nonpayable",
      "type": "function"
    },
    {
      "inputs": [
        {
          "internalType": "address",
          "name": "collector",
          "type": "address"
        }
      ],
      "name": "setSystemFeeCollector",
      "outputs": [],
      "stateMutability": "nonpayable",
      "type": "function"
    },
    {
      "inputs": [
        {
          "internalType": "uint256",
          "name": "rate",
          "type": "uint256"
        }
      ],
      "name": "setSystemFeeRate",
      "outputs": [],
      "stateMutability": "nonpayable",
      "type": "function"
    },
    {
      "inputs": [
        {
          "internalType": "uint256",
          "name": "rate",
          "type": "uint256"
        }
      ],
      "name": "setTransactionMinFeeRate",
      "outputs": [],
      "stateMutability": "nonpayable",
      "type": "function"
    },
    {
      "inputs": [
        {
          "internalType": "address",
          "name": "newOwner",
          "type": "address"
        }
      ],
      "name": "transferOwnership",
      "outputs": [],
      "stateMutability": "nonpayable",
      "type": "function"
    }
  ],
  "bytecode": "0x608060405234801561001057600080fd5b5061001961001e565b6100d0565b7ff0c57e16840df040f15088dc2f81fe391c3923bec73e23a9662efc9c229c6a00805468010000000000000000900460ff161561006e5760405163f92ee8a960e01b815260040160405180910390fd5b80546001600160401b03908116146100cd5780546001600160401b0319166001600160401b0390811782556040519081527fc7f505b2f371ae2175ee4913f4499e1f2633a7b5936321eed1cdaeb6115181d29060200160405180910390a15b50565b61184e806100df6000396000f3fe608060405234801561001057600080fd5b50600436106102065760003560e01c80636fc148371161011a578063a1ba7344116100ad578063cc9157b71161007c578063cc9157b714610527578063cd4abbcb1461053a578063e6feb4f31461054d578063e78c936314610562578063f2fde38b1461057557600080fd5b8063a1ba7344146104d3578063b46d9ff7146104e8578063c98517c5146104fd578063cb1c2b5c1461051257600080fd5b80638129fc1c116100e95780638129fc1c146104905780638b6570a0146104985780638c80fd90146104b85780638da5cb5b146104cb57600080fd5b80636fc148371461044f578063715018a6146104625780637869bdd91461046a5780637c16f1bc1461047d57600080fd5b80634b74d9ca1161019d57806358d0b1471161016c57806358d0b147146103b35780635c97b6e1146103c85780635ece5e32146103db57806363507956146104195780636dd5b69d1461042f57600080fd5b80634b74d9ca1461032857806350e610b41461034f578063552efc821461038d5780635670ef72146103a057600080fd5b80633918a846116101d95780633918a846146102ad5780633c8865ae146102c2578063400bec77146103005780634a700a9d1461031357600080fd5b80630868b0421461020b57806309c71c031461022057806310460065146102485780632b6f600d1461026f575b600080fd5b61021e61021936600461151f565b610588565b005b6102356000805160206116f983398151915281565b6040519081526020015b60405180910390f35b6102357f8f589203cf1469152b6891bfec4d1037191a00847decb605045205b8d2c419f081565b6000805160206116f983398151915260009081526020527f9180475faa5598bd671d18c2e73a090c51d6e4c22382770d80ff4f5359ffb66954610235565b61023560008051602061175983398151915281565b60008051602061177983398151915260009081526020527f1273dc24968734fd6716e4443b1b490a1d2263bc285c9f2109e7b8972350fafa54610235565b61021e61030e36600461151f565b610610565b6102356000805160206117d983398151915281565b6102357fc919595274e5e6882421c3b30662e7d18eb2b09181b22c8f941f70ad25c9668581565b6000805160206116d983398151915260009081526020527fb4ebefe1c2bb30334c2647c39d91c3bc2b86bc444dc7ed06c1d3ab50c8052f3454610235565b61021e61039b366004611538565b61067e565b61021e6103ae3660046115b4565b61071d565b6102356000805160206117b983398151915281565b61021e6103d636600461151f565b610841565b6000805160206117d983398151915260009081526020527f207fb48e2de38b1702af3ecad91ef3dcd50020cef182ed6f6531e9ea41972ecb54610235565b6104216108af565b60405161023f929190611620565b61023561043d36600461151f565b60009081526020819052604090205490565b61021e61045d36600461151f565b610b84565b61021e610c74565b61021e61047836600461151f565b610c88565b61021e61048b36600461151f565b610cf6565b61021e610d76565b6104a061101b565b6040516001600160a01b03909116815260200161023f565b61021e6104c636600461151f565b611070565b6104a061115d565b6102356000805160206116d983398151915281565b61023560008051602061171983398151915281565b6102356000805160206117f983398151915281565b61023560008051602061173983398151915281565b61021e61053536600461151f565b61118b565b61021e61054836600461151f565b611280565b61023560008051602061177983398151915281565b61021e61057036600461151f565b6112ee565b61021e610583366004611538565b6113dc565b61059061141a565b7f8f589203cf1469152b6891bfec4d1037191a00847decb605045205b8d2c419f0600081815260209081527fd4dc9d022ea66284bf3759878e1770176314bb36aaa222128064ad39ef2e78408054908490556040805182815292830185905290929160008051602061179983398151915291015b60405180910390a25050565b61061861141a565b6000805160206116f9833981519152600081815260209081527f9180475faa5598bd671d18c2e73a090c51d6e4c22382770d80ff4f5359ffb669805490849055604080518281529283018590529092916000805160206117998339815191529101610604565b61068661141a565b6001600160a01b0381166106ad5760405163538ba4f960e01b815260040160405180910390fd5b60008051602061171983398151915260008181526020527f3adec799e625fbcf9a9e6abd7129347c0d136e03b8c2b85a7bc847978c47995d80546001600160a01b038416918290556040519092916000805160206117998339815191529161060491858252602082015260400190565b61072561141a565b8281146107455760405163899ef10d60e01b815260040160405180910390fd5b60005b8381101561083a5760008060008787858181106107675761076761169b565b9050602002013581526020019081526020016000205490508383838181106107915761079161169b565b905060200201356000808888868181106107ad576107ad61169b565b905060200201358152602001908152602001600020819055508585838181106107d8576107d861169b565b90506020020135600080516020611799833981519152828686868181106108015761080161169b565b9050602002013560405161081f929190918252602082015260400190565b60405180910390a25080610832816116b1565b915050610748565b5050505050565b61084961141a565b6000805160206116d9833981519152600081815260209081527fb4ebefe1c2bb30334c2647c39d91c3bc2b86bc444dc7ed06c1d3ab50c8052f34805490849055604080518281529283018590529092916000805160206117998339815191529101610604565b60408051600b80825261018082019092526060918291906020820161016080368337505060408051600b8082526101808201909252929450905060208201610160803683370190505090506000805160206117398339815191528260008151811061091c5761091c61169b565b6020026020010181815250506000805160206117f98339815191528260018151811061094a5761094a61169b565b6020026020010181815250507f8f589203cf1469152b6891bfec4d1037191a00847decb605045205b8d2c419f08260028151811061098a5761098a61169b565b602002602001018181525050600080516020611759833981519152826003815181106109b8576109b861169b565b6020026020010181815250506000805160206117b9833981519152826004815181106109e6576109e661169b565b6020026020010181815250507fc919595274e5e6882421c3b30662e7d18eb2b09181b22c8f941f70ad25c9668582600581518110610a2657610a2661169b565b6020026020010181815250506000805160206116f983398151915282600681518110610a5457610a5461169b565b6020026020010181815250506000805160206117d983398151915282600781518110610a8257610a8261169b565b6020026020010181815250506000805160206116d983398151915282600881518110610ab057610ab061169b565b60200260200101818152505060008051602061177983398151915282600981518110610ade57610ade61169b565b60200260200101818152505060008051602061171983398151915282600a81518110610b0c57610b0c61169b565b60200260200101818152505060005b8251811015610b7f57600080848381518110610b3957610b3961169b565b6020026020010151815260200190815260200160002054828281518110610b6257610b6261169b565b602090810291909101015280610b77816116b1565b915050610b1b565b509091565b610b8c61141a565b60008051602061173983398151915260009081526020527f8bafc881ab8770d3aa3c40a001af1a259c4daead43125889a41a0df74b95df7b548111610c0e5760405162461bcd60e51b815260206004820152601360248201527226a0ac2fa9aa20a5a2afa122a627abafa6a4a760691b60448201526064015b60405180910390fd5b6000805160206117f9833981519152600081815260209081527f51ac12cdf0151e6aa80713607543060d53398bb18ee7490680ae53a7f3b7a5d5805490849055604080518281529283018590529092916000805160206117998339815191529101610604565b610c7c61141a565b610c86600061144c565b565b610c9061141a565b600080516020611779833981519152600081815260209081527f1273dc24968734fd6716e4443b1b490a1d2263bc285c9f2109e7b8972350fafa805490849055604080518281529283018590529092916000805160206117998339815191529101610604565b610cfe61141a565b7fc919595274e5e6882421c3b30662e7d18eb2b09181b22c8f941f70ad25c96685600081815260209081527f93e2898a7ee2cc0245ce84b51d23cf640698dbafe7113348e9ffbd937319eb75805490849055604080518281529283018590529092916000805160206117998339815191529101610604565b7ff0c57e16840df040f15088dc2f81fe391c3923bec73e23a9662efc9c229c6a008054600160401b810460ff16159067ffffffffffffffff16600081158015610dbc5750825b905060008267ffffffffffffffff166001148015610dd95750303b155b905081158015610de7575080155b15610e055760405163f92ee8a960e01b815260040160405180910390fd5b845467ffffffffffffffff191660011785558315610e2f57845460ff60401b1916600160401b1785555b610e38336114bd565b60006020819052670de0b6b3a76400007f8bafc881ab8770d3aa3c40a001af1a259c4daead43125889a41a0df74b95df7b5568056bc75e2d631000007f51ac12cdf0151e6aa80713607543060d53398bb18ee7490680ae53a7f3b7a5d55562093a807fd4dc9d022ea66284bf3759878e1770176314bb36aaa222128064ad39ef2e784055620151807feb2d9762322eda69d1229fed9cd144289eed5219d3d6c156e84fe513b33e612d81905562278d007f0606a183f408ed27cd9d043212a6d33aa8f4b829614c8aacaaea09b483cbb1c55560647f93e2898a7ee2cc0245ce84b51d23cf640698dbafe7113348e9ffbd937319eb75557f9180475faa5598bd671d18c2e73a090c51d6e4c22382770d80ff4f5359ffb669556107087f207fb48e2de38b1702af3ecad91ef3dcd50020cef182ed6f6531e9ea41972ecb556101f47fb4ebefe1c2bb30334c2647c39d91c3bc2b86bc444dc7ed06c1d3ab50c8052f3455600080516020611779833981519152905260c87f1273dc24968734fd6716e4443b1b490a1d2263bc285c9f2109e7b8972350fafa55831561083a57845460ff60401b19168555604051600181527fc7f505b2f371ae2175ee4913f4499e1f2633a7b5936321eed1cdaeb6115181d29060200160405180910390a15050505050565b600080516020611719833981519152600090815260208190527f3adec799e625fbcf9a9e6abd7129347c0d136e03b8c2b85a7bc847978c47995d5480820361106b5761106561115d565b91505090565b919050565b61107861141a565b6000805160206117f983398151915260009081526020527f51ac12cdf0151e6aa80713607543060d53398bb18ee7490680ae53a7f3b7a5d55481106110f75760405162461bcd60e51b815260206004820152601560248201527409a929cbea6a882968abe8ab0868a8a88a6be9a82b605b1b6044820152606401610c05565b600080516020611739833981519152600081815260209081527f8bafc881ab8770d3aa3c40a001af1a259c4daead43125889a41a0df74b95df7b805490849055604080518281529283018590529092916000805160206117998339815191529101610604565b7f9016d09d72d40fdae2fd8ceac6b6234c7706214fd39c1cd1e609a0528c199300546001600160a01b031690565b61119361141a565b6000805160206117b983398151915260009081526020527f0606a183f408ed27cd9d043212a6d33aa8f4b829614c8aacaaea09b483cbb1c554811061121a5760405162461bcd60e51b815260206004820152601860248201527f4d494e5f4455524154494f4e5f455843454544535f4d415800000000000000006044820152606401610c05565b600080516020611759833981519152600081815260209081527feb2d9762322eda69d1229fed9cd144289eed5219d3d6c156e84fe513b33e612d805490849055604080518281529283018590529092916000805160206117998339815191529101610604565b61128861141a565b6000805160206117d9833981519152600081815260209081527f207fb48e2de38b1702af3ecad91ef3dcd50020cef182ed6f6531e9ea41972ecb805490849055604080518281529283018590529092916000805160206117998339815191529101610604565b6112f661141a565b60008051602061175983398151915260009081526020527feb2d9762322eda69d1229fed9cd144289eed5219d3d6c156e84fe513b33e612d5481116113765760405162461bcd60e51b815260206004820152601660248201527526a0ac2fa22aa920aa24a7a72fa122a627abafa6a4a760511b6044820152606401610c05565b6000805160206117b9833981519152600081815260209081527f0606a183f408ed27cd9d043212a6d33aa8f4b829614c8aacaaea09b483cbb1c5805490849055604080518281529283018590529092916000805160206117998339815191529101610604565b6113e461141a565b6001600160a01b03811661140e57604051631e4fbdf760e01b815260006004820152602401610c05565b6114178161144c565b50565b3361142361115d565b6001600160a01b031614610c865760405163118cdaa760e01b8152336004820152602401610c05565b7f9016d09d72d40fdae2fd8ceac6b6234c7706214fd39c1cd1e609a0528c19930080546001600160a01b031981166001600160a01b03848116918217845560405192169182907f8be0079c531659141344cd1fd0a4f28419497f9722a3daafe3b4186f6b6457e090600090a3505050565b6114c56114ce565b61141781611517565b7ff0c57e16840df040f15088dc2f81fe391c3923bec73e23a9662efc9c229c6a0054600160401b900460ff16610c8657604051631afcd79f60e31b815260040160405180910390fd5b6113e46114ce565b60006020828403121561153157600080fd5b5035919050565b60006020828403121561154a57600080fd5b81356001600160a01b038116811461156157600080fd5b9392505050565b60008083601f84011261157a57600080fd5b50813567ffffffffffffffff81111561159257600080fd5b6020830191508360208260051b85010111156115ad57600080fd5b9250929050565b600080600080604085870312156115ca57600080fd5b843567ffffffffffffffff808211156115e257600080fd5b6115ee88838901611568565b9096509450602087013591508082111561160757600080fd5b5061161487828801611568565b95989497509550505050565b604080825283519082018190526000906020906060840190828701845b828110156116595781518452928401929084019060010161163d565b5050508381038285015284518082528583019183019060005b8181101561168e57835183529284019291840191600101611672565b5090979650505050505050565b634e487b7160e01b600052603260045260246000fd5b6000600182016116d157634e487b7160e01b600052601160045260246000fd5b506001019056fed91f20541e9312a0f4d27f0f0ba02500035307ac99ea67c86c8342ab3fd71bc5f67cbfc49efbe49cfda2049f4fae02cff32ce41383dd9cd151875b60a92f872bab24f8bdba3ac1714795343236c2c4f2f4ec1dc7852ad6c62c7d11680c9f1a58a2cacd4c4a17915c9b22ff024458e28713037852123218861ef99f8b37b23424251496a2e9229b930e5943f3c3e4da6cb786017948b856c9d455ed9cf0fc156c4d71e6d712d945d50e1827c705441b1e232ecaaeb195788524f5523b0785b0a2ac2ccce3de9c0816ae772598f7f65fe69f9893b637f7c490497378cbb3ea043ed31f84da73b6cb3a8c2e853a7c46b1c95600fc6ab5acdbeb4f7f16e875c25ab80e223b97d7f941cfc1eaa79302686d0fb0d9628e1d7a65633e700791f0beecce6ce6c3872790fbf28e7fa6102c9021f882ca7c1af8a947c293f9d8c6a5537a5fa2646970667358221220331f4d8ebd4bd831ac57b046725a8e248d3cdd13809a47519d17286916bfb88064736f6c63430008140033",
  "linkReferences": {},
  "deployedLinkReferences": {}
}