{
  "_format": "hh-sol-artifact-1",
  "contractName": "ConfigManager",
  "sourceName": "contracts/core/ConfigManager.sol",
  "abi": [
    {
      "inputs": [],
      "stateMutability": "nonpayable",
      "type": "constructor"
    },
    {
      "inputs": [],
      "name": "InvalidInitialization",
      "type": "error"
    },
    {
      "inputs": [],
      "name": "NotInitializing",
      "type": "error"
    },
    {
      "inputs": [
        {
          "internalType": "address",
          "name": "owner",
          "type": "address"
        }
      ],
      "name": "OwnableInvalidOwner",
      "type": "error"
    },
    {
      "inputs": [
        {
          "internalType": "address",
          "name": "account",
          "type": "address"
        }
      ],
      "name": "OwnableUnauthorizedAccount",
      "type": "error"
    },
    {
      "anonymous": false,
      "inputs": [
        {
          "indexed": true,
          "internalType": "bytes32",
          "name": "key",
          "type": "bytes32"
        },
        {
          "indexed": false,
          "internalType": "uint256",
          "name": "oldValue",
          "type": "uint256"
        },
        {
          "indexed": false,
          "internalType": "uint256",
          "name": "newValue",
          "type": "uint256"
        }
      ],
      "name": "ConfigUpdated",
      "type": "event"
    },
    {
      "anonymous": false,
      "inputs": [
        {
          "indexed": false,
          "internalType": "uint64",
          "name": "version",
          "type": "uint64"
        }
      ],
      "name": "Initialized",
      "type": "event"
    },
    {
      "anonymous": false,
      "inputs": [
        {
          "indexed": true,
          "internalType": "address",
          "name": "previousOwner",
          "type": "address"
        },
        {
          "indexed": true,
          "internalType": "address",
          "name": "newOwner",
          "type": "address"
        }
      ],
      "name": "OwnershipTransferred",
      "type": "event"
    },
    {
      "inputs": [],
      "name": "ARBITRATION_FROZEN_PERIOD",
      "outputs": [
        {
          "internalType": "bytes32",
          "name": "",
          "type": "bytes32"
        }
      ],
      "stateMutability": "view",
      "type": "function"
    },
    {
      "inputs": [],
      "name": "ARBITRATION_TIMEOUT",
      "outputs": [
        {
          "internalType": "bytes32",
          "name": "",
          "type": "bytes32"
        }
      ],
      "stateMutability": "view",
      "type": "function"
    },
    {
      "inputs": [],
      "name": "MAX_STAKE",
      "outputs": [
        {
          "internalType": "bytes32",
          "name": "",
          "type": "bytes32"
        }
      ],
      "stateMutability": "view",
      "type": "function"
    },
    {
      "inputs": [],
      "name": "MAX_TRANSACTION_DURATION",
      "outputs": [
        {
          "internalType": "bytes32",
          "name": "",
          "type": "bytes32"
        }
      ],
      "stateMutability": "view",
      "type": "function"
    },
    {
      "inputs": [],
      "name": "MIN_STAKE",
      "outputs": [
        {
          "internalType": "bytes32",
          "name": "",
          "type": "bytes32"
        }
      ],
      "stateMutability": "view",
      "type": "function"
    },
    {
      "inputs": [],
      "name": "MIN_STAKE_LOCKED_TIME",
      "outputs": [
        {
          "internalType": "bytes32",
          "name": "",
          "type": "bytes32"
        }
      ],
      "stateMutability": "view",
      "type": "function"
    },
    {
      "inputs": [],
      "name": "MIN_TRANSACTION_DURATION",
      "outputs": [
        {
          "internalType": "bytes32",
          "name": "",
          "type": "bytes32"
        }
      ],
      "stateMutability": "view",
      "type": "function"
    },
    {
      "inputs": [],
      "name": "SYSTEM_COMPENSATION_FEE_RATE",
      "outputs": [
        {
          "internalType": "bytes32",
          "name": "",
          "type": "bytes32"
        }
      ],
      "stateMutability": "view",
      "type": "function"
    },
    {
      "inputs": [],
      "name": "SYSTEM_FEE_COLLECTOR",
      "outputs": [
        {
          "internalType": "bytes32",
          "name": "",
          "type": "bytes32"
        }
      ],
      "stateMutability": "view",
      "type": "function"
    },
    {
      "inputs": [],
      "name": "SYSTEM_FEE_RATE",
      "outputs": [
        {
          "internalType": "bytes32",
          "name": "",
          "type": "bytes32"
        }
      ],
      "stateMutability": "view",
      "type": "function"
    },
    {
      "inputs": [],
      "name": "TRANSACTION_MIN_FEE_RATE",
      "outputs": [
        {
          "internalType": "bytes32",
          "name": "",
          "type": "bytes32"
        }
      ],
      "stateMutability": "view",
      "type": "function"
    },
    {
      "inputs": [],
      "name": "getAllConfigs",
      "outputs": [
        {
          "internalType": "bytes32[]",
          "name": "keys",
          "type": "bytes32[]"
        },
        {
          "internalType": "uint256[]",
          "name": "values",
          "type": "uint256[]"
        }
      ],
      "stateMutability": "view",
      "type": "function"
    },
    {
      "inputs": [],
      "name": "getArbitrationFrozenPeriod",
      "outputs": [
        {
          "internalType": "uint256",
          "name": "",
          "type": "uint256"
        }
      ],
      "stateMutability": "view",
      "type": "function"
    },
    {
      "inputs": [],
      "name": "getArbitrationTimeout",
      "outputs": [
        {
          "internalType": "uint256",
          "name": "",
          "type": "uint256"
        }
      ],
      "stateMutability": "view",
      "type": "function"
    },
    {
      "inputs": [
        {
          "internalType": "bytes32",
          "name": "key",
          "type": "bytes32"
        }
      ],
      "name": "getConfig",
      "outputs": [
        {
          "internalType": "uint256",
          "name": "",
          "type": "uint256"
        }
      ],
      "stateMutability": "view",
      "type": "function"
    },
    {
      "inputs": [],
      "name": "getSystemCompensationFeeRate",
      "outputs": [
        {
          "internalType": "uint256",
          "name": "",
          "type": "uint256"
        }
      ],
      "stateMutability": "view",
      "type": "function"
    },
    {
      "inputs": [],
      "name": "getSystemFeeCollector",
      "outputs": [
        {
          "internalType": "address",
          "name": "",
          "type": "address"
        }
      ],
      "stateMutability": "view",
      "type": "function"
    },
    {
      "inputs": [],
      "name": "getSystemFeeRate",
      "outputs": [
        {
          "internalType": "uint256",
          "name": "",
          "type": "uint256"
        }
      ],
      "stateMutability": "view",
      "type": "function"
    },
    {
      "inputs": [],
      "name": "initialize",
      "outputs": [],
      "stateMutability": "nonpayable",
      "type": "function"
    },
    {
      "inputs": [],
      "name": "owner",
      "outputs": [
        {
          "internalType": "address",
          "name": "",
          "type": "address"
        }
      ],
      "stateMutability": "view",
      "type": "function"
    },
    {
      "inputs": [],
      "name": "renounceOwnership",
      "outputs": [],
      "stateMutability": "nonpayable",
      "type": "function"
    },
    {
      "inputs": [
        {
          "internalType": "uint256",
          "name": "period",
          "type": "uint256"
        }
      ],
      "name": "setArbitrationFrozenPeriod",
      "outputs": [],
      "stateMutability": "nonpayable",
      "type": "function"
    },
    {
      "inputs": [
        {
          "internalType": "uint256",
          "name": "timeout",
          "type": "uint256"
        }
      ],
      "name": "setArbitrationTimeout",
      "outputs": [],
      "stateMutability": "nonpayable",
      "type": "function"
    },
    {
      "inputs": [
        {
          "internalType": "bytes32[]",
          "name": "keys",
          "type": "bytes32[]"
        },
        {
          "internalType": "uint256[]",
          "name": "values",
          "type": "uint256[]"
        }
      ],
      "name": "setConfigs",
      "outputs": [],
      "stateMutability": "nonpayable",
      "type": "function"
    },
    {
      "inputs": [
        {
          "internalType": "uint256",
          "name": "amount",
          "type": "uint256"
        }
      ],
      "name": "setMaxStake",
      "outputs": [],
      "stateMutability": "nonpayable",
      "type": "function"
    },
    {
      "inputs": [
        {
          "internalType": "uint256",
          "name": "duration",
          "type": "uint256"
        }
      ],
      "name": "setMaxTransactionDuration",
      "outputs": [],
      "stateMutability": "nonpayable",
      "type": "function"
    },
    {
      "inputs": [
        {
          "internalType": "uint256",
          "name": "amount",
          "type": "uint256"
        }
      ],
      "name": "setMinStake",
      "outputs": [],
      "stateMutability": "nonpayable",
      "type": "function"
    },
    {
      "inputs": [
        {
          "internalType": "uint256",
          "name": "time",
          "type": "uint256"
        }
      ],
      "name": "setMinStakeLockedTime",
      "outputs": [],
      "stateMutability": "nonpayable",
      "type": "function"
    },
    {
      "inputs": [
        {
          "internalType": "uint256",
          "name": "duration",
          "type": "uint256"
        }
      ],
      "name": "setMinTransactionDuration",
      "outputs": [],
      "stateMutability": "nonpayable",
      "type": "function"
    },
    {
      "inputs": [
        {
          "internalType": "uint256",
          "name": "rate",
          "type": "uint256"
        }
      ],
      "name": "setSystemCompensationFeeRate",
      "outputs": [],
      "stateMutability": "nonpayable",
      "type": "function"
    },
    {
      "inputs": [
        {
          "internalType": "address",
          "name": "collector",
          "type": "address"
        }
      ],
      "name": "setSystemFeeCollector",
      "outputs": [],
      "stateMutability": "nonpayable",
      "type": "function"
    },
    {
      "inputs": [
        {
          "internalType": "uint256",
          "name": "rate",
          "type": "uint256"
        }
      ],
      "name": "setSystemFeeRate",
      "outputs": [],
      "stateMutability": "nonpayable",
      "type": "function"
    },
    {
      "inputs": [
        {
          "internalType": "uint256",
          "name": "rate",
          "type": "uint256"
        }
      ],
      "name": "setTransactionMinFeeRate",
      "outputs": [],
      "stateMutability": "nonpayable",
      "type": "function"
    },
    {
      "inputs": [
        {
          "internalType": "address",
          "name": "newOwner",
          "type": "address"
        }
      ],
      "name": "transferOwnership",
      "outputs": [],
      "stateMutability": "nonpayable",
      "type": "function"
    }
  ],
  "bytecode": "0x608080604052346100b8577ff0c57e16840df040f15088dc2f81fe391c3923bec73e23a9662efc9c229c6a009081549060ff8260401c166100a957506001600160401b036002600160401b031982821601610064575b60405161153990816100be8239f35b6001600160401b031990911681179091556040519081527fc7f505b2f371ae2175ee4913f4499e1f2633a7b5936321eed1cdaeb6115181d290602090a1388080610055565b63f92ee8a960e01b8152600490fd5b600080fdfe60406080815260048036101561001457600080fd5b600091823560e01c9081630868b0421461107c57816309c71c0314611053578163104600651461102a5781632b6f600d14610ff75781633918a84614610fce5781633c8865ae14610f9b578163400bec7714610f3f5781634a700a9d14610f165781634b74d9ca14610eed57816350e610b414610eba578163552efc8214610e125781635670ef7214610ced57816358d0b14714610cc45781635c97b6e114610c685781635ece5e3214610c3557816363507956146109c05781636dd5b69d146109985781636fc14837146108e3578163715018a6146108765781637869bdd91461081a5781637c16f1bc146107be5781638129fc1c146105915781638b6570a0146105635781638c80fd90146104ac5781638da5cb5b14610476578163a1ba73441461044d578163b46d9ff714610424578163c98517c5146103fb578163cb1c2b5c146103d2578163cc9157b714610313578163cd4abbcb146102b7578163e6feb4f31461028e578163e78c9363146101d2575063f2fde38b1461019857600080fd5b346101ce5760203660031901126101ce57356001600160a01b03811681036101ce576101cb906101c661110e565b611147565b80f35b5080fd5b90503461028a57602036600319011261028a578135916101f061110e565b6000805160206114248339815191528452836020528184205483111561024f5750600080516020611484833981519152906000805160206114a4833981519152928385528460205281852090808254925582519182526020820152a280f35b6020606492519162461bcd60e51b8352820152601660248201527526a0ac2fa22aa920aa24a7a72fa122a627abafa6a4a760511b6044820152fd5b8280fd5b8390346101ce57816003193601126101ce57602090516000805160206114648339815191528152f35b9190503461028a57602036600319011261028a576000805160206114848339815191529035916102e561110e565b6000805160206114c4833981519152928385528460205281852090808254925582519182526020820152a280f35b90503461028a57602036600319011261028a5781359161033161110e565b6000805160206114a483398151915284528360205281842054831015610390575060008051602061148483398151915290600080516020611424833981519152928385528460205281852090808254925582519182526020820152a280f35b6020606492519162461bcd60e51b8352820152601860248201527f4d494e5f4455524154494f4e5f455843454544535f4d415800000000000000006044820152fd5b8390346101ce57816003193601126101ce57602090516000805160206114048339815191528152f35b8390346101ce57816003193601126101ce57602090516000805160206114e48339815191528152f35b8390346101ce57816003193601126101ce57602090516000805160206113a48339815191528152f35b8390346101ce57816003193601126101ce57602090516000805160206113648339815191528152f35b8390346101ce57816003193601126101ce576000805160206113e48339815191525490516001600160a01b039091168152602090f35b90503461028a57602036600319011261028a578135916104ca61110e565b6000805160206114e483398151915284528360205281842054831015610529575060008051602061148483398151915290600080516020611404833981519152928385528460205281852090808254925582519182526020820152a280f35b6020606492519162461bcd60e51b8352820152601560248201527409a929cbea6a882968abe8ab0868a8a88a6be9a82b605b1b6044820152fd5b8390346101ce57816003193601126101ce576020906105806112fb565b90516001600160a01b039091168152f35b9190503461028a578260031936011261028a577ff0c57e16840df040f15088dc2f81fe391c3923bec73e23a9662efc9c229c6a0090815460ff81851c16159167ffffffffffffffff8216801590816107b6575b60011490816107ac575b1590816107a3575b50610795575067ffffffffffffffff198116600117835581610776575b5061061c6111bb565b6106246111bb565b61062d33611147565b600080516020611404833981519152845283602052670de0b6b3a7640000838520556000805160206114e4833981519152845268056bc75e2d6310000083852055600080516020611444833981519152845262093a808385205560008051602061142483398151915284526201518080848620556000805160206114a4833981519152855262278d00848620556000805160206113c483398151915285526064848620556000805160206113848339815191528552838520556000805160206114c483398151915284526107088385205560008051602061136483398151915284526101f483852055600080516020611464833981519152845260c883852055610735578280f35b805468ff00000000000000001916905551600181527fc7f505b2f371ae2175ee4913f4499e1f2633a7b5936321eed1cdaeb6115181d290602090a138808280f35b68ffffffffffffffffff19166801000000000000000117825538610613565b845163f92ee8a960e01b8152fd5b905015386105f6565b303b1591506105ee565b8491506105e4565b9190503461028a57602036600319011261028a576000805160206114848339815191529035916107ec61110e565b6000805160206113c4833981519152928385528460205281852090808254925582519182526020820152a280f35b9190503461028a57602036600319011261028a5760008051602061148483398151915290359161084861110e565b600080516020611464833981519152928385528460205281852090808254925582519182526020820152a280f35b83346108e057806003193601126108e05761088f61110e565b6000805160206113e483398151915280546001600160a01b0319811690915581906001600160a01b03167f8be0079c531659141344cd1fd0a4f28419497f9722a3daafe3b4186f6b6457e08280a380f35b80fd5b90503461028a57602036600319011261028a5781359161090161110e565b600080516020611404833981519152845283602052818420548311156109605750600080516020611484833981519152906000805160206114e4833981519152928385528460205281852090808254925582519182526020820152a280f35b6020606492519162461bcd60e51b8352820152601360248201527226a0ac2fa9aa20a5a2afa122a627abafa6a4a760691b6044820152fd5b9190503461028a57602036600319011261028a57602092829135815280845220549051908152f35b839150346101ce57816003193601126101ce576109db611232565b91600b835260208084019161016093843685376109f6611232565b90600b82528382019580368837875115610c225760008051602061140483398151915286528751986001998a1015610c0f576000805160206114e4833981519152838a0152885160021015610c0f5760008051602061144483398151915260608a0152885160031015610c0f5760008051602061142483398151915260808a01528851811015610c0f576000805160206114a483398151915260a08a0152885160051015610c0f576000805160206113c483398151915260c08a0152885160061015610c0f5760008051602061138483398151915260e08a0152885160071015610c0f576000805160206114c48339815191526101008a0152885160081015610c0f576000805160206113648339815191526101208a0152885160091015610c0f576000805160206114648339815191526101408a01528851600a1015610c0f5750918894916000805160206113a48339815191528997948801528585905b610bbe575b5080519681880191885251809152606087019390855b818110610bab57505050858303868301525180835291810195925b828110610b985785870386f35b8351875295810195928101928401610b8b565b8251865294840194918401918701610b70565b95809896889694959651811015610c035780610bdd610bf7928b6112e7565b51865285875283862054610bf182876112e7565b5261129c565b90969895949395610b55565b50959794939294610b5a565b634e487b7160e01b855260329052602484fd5b634e487b7160e01b845260328952602484fd5b8390346101ce57816003193601126101ce5780826000805160206114c48339815191526020945280845220549051908152f35b9190503461028a57602036600319011261028a57600080516020611484833981519152903591610c9661110e565b600080516020611364833981519152928385528460205281852090808254925582519182526020820152a280f35b8390346101ce57816003193601126101ce57602090516000805160206114a48339815191528152f35b9190503461028a578160031936011261028a5767ffffffffffffffff918135838111610e0e57610d2090369084016110d8565b9093602435908111610e0a57610d3990369085016110d8565b919093610d4461110e565b828203610dd55750855b818110610d59578680f35b80610d68610dd09284896112c1565b3588528760008051602061148483398151915286888a610d9e8689610d97828d8860209b808d522054976112c1565b35936112c1565b358d528c8552828d2055610db385888d6112c1565b3593610dc0868a8d6112c1565b35908351928352820152a261129c565b610d4e565b8390610e06610de26111fc565b600281526104c360f41b6020820152925162461bcd60e51b81529283928301611253565b0390fd5b8580fd5b8480fd5b90503461028a57602036600319011261028a5781356001600160a01b0381169290839003610eb657610e4261110e565b8215610e875750600080516020611484833981519152906000805160206113a4833981519152928385528460205281852090808254925582519182526020820152a280f35b610e06610e926111fc565b600281526105a360f41b6020820152925162461bcd60e51b81529283928301611253565b8380fd5b8390346101ce57816003193601126101ce5780826000805160206113648339815191526020945280845220549051908152f35b8390346101ce57816003193601126101ce57602090516000805160206113c48339815191528152f35b8390346101ce57816003193601126101ce57602090516000805160206114c48339815191528152f35b9190503461028a57602036600319011261028a57600080516020611484833981519152903591610f6d61110e565b600080516020611384833981519152928385528460205281852090808254925582519182526020820152a280f35b8390346101ce57816003193601126101ce5780826000805160206114648339815191526020945280845220549051908152f35b8390346101ce57816003193601126101ce57602090516000805160206114248339815191528152f35b8390346101ce57816003193601126101ce5780826000805160206113848339815191526020945280845220549051908152f35b8390346101ce57816003193601126101ce57602090516000805160206114448339815191528152f35b8390346101ce57816003193601126101ce57602090516000805160206113848339815191528152f35b9190503461028a57602036600319011261028a576000805160206114848339815191529035916110aa61110e565b600080516020611444833981519152928385528460205281852090808254925582519182526020820152a280f35b9181601f840112156111095782359167ffffffffffffffff8311611109576020808501948460051b01011161110957565b600080fd5b6000805160206113e4833981519152546001600160a01b0316330361112f57565b60405163118cdaa760e01b8152336004820152602490fd5b6001600160a01b039081169081156111a2576000805160206113e483398151915280546001600160a01b031981168417909155167f8be0079c531659141344cd1fd0a4f28419497f9722a3daafe3b4186f6b6457e0600080a3565b604051631e4fbdf760e01b815260006004820152602490fd5b60ff7ff0c57e16840df040f15088dc2f81fe391c3923bec73e23a9662efc9c229c6a005460401c16156111ea57565b604051631afcd79f60e31b8152600490fd5b604051906040820182811067ffffffffffffffff82111761121c57604052565b634e487b7160e01b600052604160045260246000fd5b60405190610180820182811067ffffffffffffffff82111761121c57604052565b6020808252825181830181905290939260005b82811061128857505060409293506000838284010152601f8019910116010190565b818101860151848201604001528501611266565b60001981146112ab5760010190565b634e487b7160e01b600052601160045260246000fd5b91908110156112d15760051b0190565b634e487b7160e01b600052603260045260246000fd5b80518210156112d15760209160051b010190565b6000805160206113a483398151915260009081526020527f3adec799e625fbcf9a9e6abd7129347c0d136e03b8c2b85a7bc847978c47995d548015611346576001600160a01b031690565b506000805160206113e4833981519152546001600160a01b03169056fed91f20541e9312a0f4d27f0f0ba02500035307ac99ea67c86c8342ab3fd71bc5f67cbfc49efbe49cfda2049f4fae02cff32ce41383dd9cd151875b60a92f872bab24f8bdba3ac1714795343236c2c4f2f4ec1dc7852ad6c62c7d11680c9f1a58c919595274e5e6882421c3b30662e7d18eb2b09181b22c8f941f70ad25c966859016d09d72d40fdae2fd8ceac6b6234c7706214fd39c1cd1e609a0528c199300a2cacd4c4a17915c9b22ff024458e28713037852123218861ef99f8b37b23424251496a2e9229b930e5943f3c3e4da6cb786017948b856c9d455ed9cf0fc156c8f589203cf1469152b6891bfec4d1037191a00847decb605045205b8d2c419f04d71e6d712d945d50e1827c705441b1e232ecaaeb195788524f5523b0785b0a2ac2ccce3de9c0816ae772598f7f65fe69f9893b637f7c490497378cbb3ea043ed31f84da73b6cb3a8c2e853a7c46b1c95600fc6ab5acdbeb4f7f16e875c25ab80e223b97d7f941cfc1eaa79302686d0fb0d9628e1d7a65633e700791f0beecce6ce6c3872790fbf28e7fa6102c9021f882ca7c1af8a947c293f9d8c6a5537a5fa2646970667358221220fe84ea2f8d7d1207dcd8d663a76356eeb1bdd21e9d23060fcd58854edff3fef264736f6c63430008140033",
  "linkReferences": {},
  "deployedLinkReferences": {}
}