{
  "_format": "hh-sol-artifact-1",
  "contractName": "DAppRegistry",
  "sourceName": "contracts/core/DAppRegistry.sol",
  "abi": [
    {
      "inputs": [],
      "stateMutability": "nonpayable",
      "type": "constructor"
    },
    {
      "inputs": [],
      "name": "InvalidInitialization",
      "type": "error"
    },
    {
      "inputs": [],
      "name": "NotInitializing",
      "type": "error"
    },
    {
      "inputs": [
        {
          "internalType": "address",
          "name": "owner",
          "type": "address"
        }
      ],
      "name": "OwnableInvalidOwner",
      "type": "error"
    },
    {
      "inputs": [
        {
          "internalType": "address",
          "name": "account",
          "type": "address"
        }
      ],
      "name": "OwnableUnauthorizedAccount",
      "type": "error"
    },
    {
      "anonymous": false,
      "inputs": [
        {
          "indexed": true,
          "internalType": "address",
          "name": "oldConfigManager",
          "type": "address"
        },
        {
          "indexed": true,
          "internalType": "address",
          "name": "newConfigManager",
          "type": "address"
        }
      ],
      "name": "ConfigManagerUpdated",
      "type": "event"
    },
    {
      "anonymous": false,
      "inputs": [
        {
          "indexed": true,
          "internalType": "address",
          "name": "dapp",
          "type": "address"
        }
      ],
      "name": "DAppAuthorized",
      "type": "event"
    },
    {
      "anonymous": false,
      "inputs": [
        {
          "indexed": true,
          "internalType": "address",
          "name": "dapp",
          "type": "address"
        }
      ],
      "name": "DAppDeregistered",
      "type": "event"
    },
    {
      "anonymous": false,
      "inputs": [
        {
          "indexed": true,
          "internalType": "address",
          "name": "dapp",
          "type": "address"
        },
        {
          "indexed": true,
          "internalType": "address",
          "name": "owner",
          "type": "address"
        }
      ],
      "name": "DAppRegistered",
      "type": "event"
    },
    {
      "anonymous": false,
      "inputs": [
        {
          "indexed": true,
          "internalType": "address",
          "name": "dapp",
          "type": "address"
        }
      ],
      "name": "DAppSuspended",
      "type": "event"
    },
    {
      "anonymous": false,
      "inputs": [
        {
          "indexed": false,
          "internalType": "uint64",
          "name": "version",
          "type": "uint64"
        }
      ],
      "name": "Initialized",
      "type": "event"
    },
    {
      "anonymous": false,
      "inputs": [
        {
          "indexed": true,
          "internalType": "address",
          "name": "previousOwner",
          "type": "address"
        },
        {
          "indexed": true,
          "internalType": "address",
          "name": "newOwner",
          "type": "address"
        }
      ],
      "name": "OwnershipTransferred",
      "type": "event"
    },
    {
      "inputs": [],
      "name": "REGISTRATION_FEE",
      "outputs": [
        {
          "internalType": "uint256",
          "name": "",
          "type": "uint256"
        }
      ],
      "stateMutability": "view",
      "type": "function"
    },
    {
      "inputs": [
        {
          "internalType": "address",
          "name": "dapp",
          "type": "address"
        }
      ],
      "name": "authorizeDApp",
      "outputs": [],
      "stateMutability": "nonpayable",
      "type": "function"
    },
    {
      "inputs": [],
      "name": "configManager",
      "outputs": [
        {
          "internalType": "contract IConfigManager",
          "name": "",
          "type": "address"
        }
      ],
      "stateMutability": "view",
      "type": "function"
    },
    {
      "inputs": [
        {
          "internalType": "address",
          "name": "dapp",
          "type": "address"
        }
      ],
      "name": "deregisterDApp",
      "outputs": [],
      "stateMutability": "nonpayable",
      "type": "function"
    },
    {
      "inputs": [
        {
          "internalType": "address",
          "name": "dapp",
          "type": "address"
        }
      ],
      "name": "getDAppOwner",
      "outputs": [
        {
          "internalType": "address",
          "name": "",
          "type": "address"
        }
      ],
      "stateMutability": "view",
      "type": "function"
    },
    {
      "inputs": [
        {
          "internalType": "address",
          "name": "dapp",
          "type": "address"
        }
      ],
      "name": "getDAppStatus",
      "outputs": [
        {
          "internalType": "enum DataTypes.DAppStatus",
          "name": "",
          "type": "uint8"
        }
      ],
      "stateMutability": "view",
      "type": "function"
    },
    {
      "inputs": [
        {
          "internalType": "address",
          "name": "_configManager",
          "type": "address"
        }
      ],
      "name": "initialize",
      "outputs": [],
      "stateMutability": "nonpayable",
      "type": "function"
    },
    {
      "inputs": [
        {
          "internalType": "address",
          "name": "dapp",
          "type": "address"
        }
      ],
      "name": "isActiveDApp",
      "outputs": [
        {
          "internalType": "bool",
          "name": "",
          "type": "bool"
        }
      ],
      "stateMutability": "view",
      "type": "function"
    },
    {
      "inputs": [
        {
          "internalType": "address",
          "name": "dapp",
          "type": "address"
        }
      ],
      "name": "isRegistered",
      "outputs": [
        {
          "internalType": "bool",
          "name": "",
          "type": "bool"
        }
      ],
      "stateMutability": "view",
      "type": "function"
    },
    {
      "inputs": [],
      "name": "owner",
      "outputs": [
        {
          "internalType": "address",
          "name": "",
          "type": "address"
        }
      ],
      "stateMutability": "view",
      "type": "function"
    },
    {
      "inputs": [
        {
          "internalType": "address",
          "name": "dappContract",
          "type": "address"
        }
      ],
      "name": "registerDApp",
      "outputs": [],
      "stateMutability": "payable",
      "type": "function"
    },
    {
      "inputs": [],
      "name": "renounceOwnership",
      "outputs": [],
      "stateMutability": "nonpayable",
      "type": "function"
    },
    {
      "inputs": [
        {
          "internalType": "address",
          "name": "_configManager",
          "type": "address"
        }
      ],
      "name": "setConfigManager",
      "outputs": [],
      "stateMutability": "nonpayable",
      "type": "function"
    },
    {
      "inputs": [
        {
          "internalType": "address",
          "name": "newOwner",
          "type": "address"
        }
      ],
      "name": "transferOwnership",
      "outputs": [],
      "stateMutability": "nonpayable",
      "type": "function"
    }
  ],
  "bytecode": "0x608080604052346100b8577ff0c57e16840df040f15088dc2f81fe391c3923bec73e23a9662efc9c229c6a009081549060ff8260401c166100a957506001600160401b036002600160401b031982821601610064575b604051610b2390816100be8239f35b6001600160401b031990911681179091556040519081527fc7f505b2f371ae2175ee4913f4499e1f2633a7b5936321eed1cdaeb6115181d290602090a1388080610055565b63f92ee8a960e01b8152600490fd5b600080fdfe60806040908082526004908136101561001757600080fd5b600092833560e01c91826364b4f751146108e457508163715018a61461087a5781637d1bff571461075b57816382adbfde146105615781638da5cb5b1461052b578163b4e25e80146104ae578163c3c5a54714610463578163c4d66de8146102f8578163ca0ab075146102cf578163d05b90561461026e578163d83c123d14610212578163e80263dc14610140578163f0c9bcfd146100fa575063f2fde38b146100c057600080fd5b346100f65760203660031901126100f657356001600160a01b03811681036100f6576100f3906100ee610906565b61093f565b80f35b5080fd5b9190503461013c57602036600319011261013c576001600160a01b039035818116908190036101385783839160209552600185522054169051908152f35b8380fd5b8280fd5b90503461013c57602036600319011261013c5781356001600160a01b038116929083900361013857610170610906565b8215610207578284528360205260ff828520541660058110156101f4576001036101d05750818352826020528220600260ff198254161790557fa4e9a3f971c061ed79f140c54a4bd3a6b627031cb183cf824e50c1eed621ddeb8280a280f35b6101f06101db610aaf565b925162461bcd60e51b81529283928301610a25565b0390fd5b634e487b7160e01b855260218252602485fd5b6101f06101db610a07565b839150346100f65760203660031901126100f65782356001600160a01b0381169081900361013c5782528160205260ff8183205416905191600582101561025b57602083838152f35b634e487b7160e01b815260218452602490fd5b8284346102cc5760203660031901126102cc5781356001600160a01b038116908190036100f65781528060205260ff83822054169160058310156102b9576020836002865191148152f35b634e487b7160e01b825260219052602490fd5b80fd5b8390346100f657816003193601126100f65760025490516001600160a01b039091168152602090f35b9190503461013c57602036600319011261013c5780356001600160a01b0381169190829003610138577ff0c57e16840df040f15088dc2f81fe391c3923bec73e23a9662efc9c229c6a009182549160ff83861c16159267ffffffffffffffff81168015908161045b575b6001149081610451575b159081610448575b506104395767ffffffffffffffff19811660011785558361041a575b50610399610a6e565b6103a1610a6e565b6103aa3361093f565b811561040d57506001600160601b0360a01b60025416176002556103cc578280f35b805468ff00000000000000001916905551600181527fc7f505b2f371ae2175ee4913f4499e1f2633a7b5936321eed1cdaeb6115181d290602090a138808280f35b84906101f06101db610a07565b68ffffffffffffffffff19166801000000000000000117845538610390565b50845163f92ee8a960e01b8152fd5b90501538610374565b303b15915061036c565b859150610362565b8284346102cc5760203660031901126102cc5781356001600160a01b038116908190036100f65781528060205260ff83822054169160058310156102b9576020836001865191148152f35b9190503461013c57602036600319011261013c576001600160a01b03813581811693919290849003610527576104e2610906565b8315610207575050600254826001600160601b0360a01b821617600255167f9a8adda1be0c6ce602e02c6b77f3da07fadafdc4b4b8d466e3f967ee5ba24a928380a380f35b8480fd5b8390346100f657816003193601126100f657600080516020610ace8339815191525490516001600160a01b039091168152602090f35b90506020806003193601126101385782356001600160a01b03818116949185900361075757841561074a5784865285835260ff848720541660058110156107375761072057678ac7230489e8000034036107095781818488936002541687519384809263045b2b8560e51b82525afa9182156106ff579083929183926106c3575b505081809134905af13d156106be573d67ffffffffffffffff81116106ab57845190610617601f8201601f19168601836109e5565b815286843d92013e5b1561067a57506001908385528481528285208260ff19825416179055528220336001600160601b0360a01b82541617905533907f9556da376adaed27a1a0abee59b39c360a149f34758848160830a78715e8524d8380a380f35b6101f08361463160f01b815194610690866109b3565b600286528501525162461bcd60e51b81529283928301610a25565b634e487b7160e01b875260418352602487fd5b610620565b86809294508193503d83116106f8575b6106dd81836109e5565b8101031261013c575190811681036100f657819081806105e2565b503d6106d3565b86513d85823e3d90fd5b506101f08361543560f01b815194610690866109b3565b506101f08361044360f41b815194610690866109b3565b634e487b7160e01b875260218352602487fd5b83826101f06101db610a07565b8580fd5b9190503461013c57602036600319011261013c5780356001600160a01b03818116939184900361052757831561086d578385528460205260ff8286205416600581101561085a571561084d5783855260016020528082862054163314159081610831575b506107fe578284528360205283209060ff198254161790557f5be02dc93181c90c736ed2fd1e05bd3972f0d008b3274ca14909f0465456b7738280a280f35b906101f082519261080e846109b3565b600284526104e360f41b60208501525162461bcd60e51b81529283928301610a25565b9050600080516020610ace8339815191525416331415386107bf565b50906101f06101db610aaf565b634e487b7160e01b865260218452602486fd5b50906101f06101db610a07565b83346102cc57806003193601126102cc57610893610906565b600080516020610ace83398151915280546001600160a01b0319811690915581906001600160a01b03167f8be0079c531659141344cd1fd0a4f28419497f9722a3daafe3b4186f6b6457e08280a380f35b8490346100f657816003193601126100f65780678ac7230489e8000060209252f35b600080516020610ace833981519152546001600160a01b0316330361092757565b60405163118cdaa760e01b8152336004820152602490fd5b6001600160a01b0390811690811561099a57600080516020610ace83398151915280546001600160a01b031981168417909155167f8be0079c531659141344cd1fd0a4f28419497f9722a3daafe3b4186f6b6457e0600080a3565b604051631e4fbdf760e01b815260006004820152602490fd5b6040810190811067ffffffffffffffff8211176109cf57604052565b634e487b7160e01b600052604160045260246000fd5b90601f8019910116810190811067ffffffffffffffff8211176109cf57604052565b60405190610a14826109b3565b600282526105a360f41b6020830152565b6020808252825181830181905290939260005b828110610a5a57505060409293506000838284010152601f8019910116010190565b818101860151848201604001528501610a38565b60ff7ff0c57e16840df040f15088dc2f81fe391c3923bec73e23a9662efc9c229c6a005460401c1615610a9d57565b604051631afcd79f60e31b8152600490fd5b60405190610abc826109b3565b6002825261443160f01b602083015256fe9016d09d72d40fdae2fd8ceac6b6234c7706214fd39c1cd1e609a0528c199300a26469706673582212204ea8e4d63c47677eb32e5501842bced833c55cf333fd0295ab54b84ea9847e6b64736f6c63430008140033",
  "linkReferences": {},
  "deployedLinkReferences": {}
}