{
  "_format": "hh-sol-artifact-1",
  "contractName": "DAppRegistry",
  "sourceName": "contracts/core/DAppRegistry.sol",
  "abi": [
    {
      "inputs": [
        {
          "internalType": "address",
          "name": "_configManager",
          "type": "address"
        },
        {
          "internalType": "address",
          "name": "initialOwner",
          "type": "address"
        }
      ],
      "stateMutability": "nonpayable",
      "type": "constructor"
    },
    {
      "inputs": [],
      "name": "DAPP_ALREADY_REGISTERED",
      "type": "error"
    },
    {
      "inputs": [],
      "name": "DAPP_NOT_REGISTERED",
      "type": "error"
    },
    {
      "inputs": [],
      "name": "INSUFFICIENT_FEE",
      "type": "error"
    },
    {
      "inputs": [],
      "name": "NOT_AUTHORIZED",
      "type": "error"
    },
    {
      "inputs": [
        {
          "internalType": "address",
          "name": "owner",
          "type": "address"
        }
      ],
      "name": "OwnableInvalidOwner",
      "type": "error"
    },
    {
      "inputs": [
        {
          "internalType": "address",
          "name": "account",
          "type": "address"
        }
      ],
      "name": "OwnableUnauthorizedAccount",
      "type": "error"
    },
    {
      "inputs": [],
      "name": "TRANSFER_FAILED",
      "type": "error"
    },
    {
      "inputs": [],
      "name": "ZERO_ADDRESS",
      "type": "error"
    },
    {
      "anonymous": false,
      "inputs": [
        {
          "indexed": true,
          "internalType": "address",
          "name": "dapp",
          "type": "address"
        }
      ],
      "name": "DAppAuthorized",
      "type": "event"
    },
    {
      "anonymous": false,
      "inputs": [
        {
          "indexed": true,
          "internalType": "address",
          "name": "dapp",
          "type": "address"
        }
      ],
      "name": "DAppDeregistered",
      "type": "event"
    },
    {
      "anonymous": false,
      "inputs": [
        {
          "indexed": true,
          "internalType": "address",
          "name": "dapp",
          "type": "address"
        },
        {
          "indexed": true,
          "internalType": "address",
          "name": "owner",
          "type": "address"
        }
      ],
      "name": "DAppRegistered",
      "type": "event"
    },
    {
      "anonymous": false,
      "inputs": [
        {
          "indexed": true,
          "internalType": "address",
          "name": "dapp",
          "type": "address"
        }
      ],
      "name": "DAppSuspended",
      "type": "event"
    },
    {
      "anonymous": false,
      "inputs": [
        {
          "indexed": true,
          "internalType": "address",
          "name": "previousOwner",
          "type": "address"
        },
        {
          "indexed": true,
          "internalType": "address",
          "name": "newOwner",
          "type": "address"
        }
      ],
      "name": "OwnershipTransferred",
      "type": "event"
    },
    {
      "inputs": [],
      "name": "REGISTRATION_FEE",
      "outputs": [
        {
          "internalType": "uint256",
          "name": "",
          "type": "uint256"
        }
      ],
      "stateMutability": "view",
      "type": "function"
    },
    {
      "inputs": [
        {
          "internalType": "address",
          "name": "dapp",
          "type": "address"
        }
      ],
      "name": "authorizeDApp",
      "outputs": [],
      "stateMutability": "nonpayable",
      "type": "function"
    },
    {
      "inputs": [],
      "name": "configManager",
      "outputs": [
        {
          "internalType": "contract IConfigManager",
          "name": "",
          "type": "address"
        }
      ],
      "stateMutability": "view",
      "type": "function"
    },
    {
      "inputs": [
        {
          "internalType": "address",
          "name": "dapp",
          "type": "address"
        }
      ],
      "name": "deregisterDApp",
      "outputs": [],
      "stateMutability": "nonpayable",
      "type": "function"
    },
    {
      "inputs": [
        {
          "internalType": "address",
          "name": "dapp",
          "type": "address"
        }
      ],
      "name": "getDAppOwner",
      "outputs": [
        {
          "internalType": "address",
          "name": "",
          "type": "address"
        }
      ],
      "stateMutability": "view",
      "type": "function"
    },
    {
      "inputs": [
        {
          "internalType": "address",
          "name": "dapp",
          "type": "address"
        }
      ],
      "name": "getDAppStatus",
      "outputs": [
        {
          "internalType": "enum DataTypes.DAppStatus",
          "name": "",
          "type": "uint8"
        }
      ],
      "stateMutability": "view",
      "type": "function"
    },
    {
      "inputs": [
        {
          "internalType": "address",
          "name": "dapp",
          "type": "address"
        }
      ],
      "name": "isActiveDApp",
      "outputs": [
        {
          "internalType": "bool",
          "name": "",
          "type": "bool"
        }
      ],
      "stateMutability": "view",
      "type": "function"
    },
    {
      "inputs": [
        {
          "internalType": "address",
          "name": "dapp",
          "type": "address"
        }
      ],
      "name": "isRegistered",
      "outputs": [
        {
          "internalType": "bool",
          "name": "",
          "type": "bool"
        }
      ],
      "stateMutability": "view",
      "type": "function"
    },
    {
      "inputs": [],
      "name": "owner",
      "outputs": [
        {
          "internalType": "address",
          "name": "",
          "type": "address"
        }
      ],
      "stateMutability": "view",
      "type": "function"
    },
    {
      "inputs": [
        {
          "internalType": "address",
          "name": "dappContract",
          "type": "address"
        }
      ],
      "name": "registerDApp",
      "outputs": [],
      "stateMutability": "payable",
      "type": "function"
    },
    {
      "inputs": [],
      "name": "renounceOwnership",
      "outputs": [],
      "stateMutability": "nonpayable",
      "type": "function"
    },
    {
      "inputs": [
        {
          "internalType": "address",
          "name": "newOwner",
          "type": "address"
        }
      ],
      "name": "transferOwnership",
      "outputs": [],
      "stateMutability": "nonpayable",
      "type": "function"
    }
  ],
  "bytecode": "0x60a060405234801561001057600080fd5b506040516109b63803806109b683398101604081905261002f9161010d565b806001600160a01b03811661005e57604051631e4fbdf760e01b81526000600482015260240160405180910390fd5b610067816100a1565b506001600160a01b03821661008f5760405163538ba4f960e01b815260040160405180910390fd5b506001600160a01b0316608052610140565b600080546001600160a01b038381166001600160a01b0319831681178455604051919092169283917f8be0079c531659141344cd1fd0a4f28419497f9722a3daafe3b4186f6b6457e09190a35050565b80516001600160a01b038116811461010857600080fd5b919050565b6000806040838503121561012057600080fd5b610129836100f1565b9150610137602084016100f1565b90509250929050565b60805161085461016260003960008181610199015261045c01526108546000f3fe6080604052600436106100a75760003560e01c8063ca0ab07511610064578063ca0ab07514610187578063d05b9056146101bb578063d83c123d146101db578063e80263dc14610221578063f0c9bcfd14610241578063f2fde38b1461027a57600080fd5b806364b4f751146100ac578063715018a6146100db5780637d1bff57146100f257806382adbfde146101125780638da5cb5b14610125578063c3c5a54714610157575b600080fd5b3480156100b857600080fd5b506100c8678ac7230489e8000081565b6040519081526020015b60405180910390f35b3480156100e757600080fd5b506100f061029a565b005b3480156100fe57600080fd5b506100f061010d36600461079f565b6102ae565b6100f061012036600461079f565b6103bf565b34801561013157600080fd5b506000546001600160a01b03165b6040516001600160a01b0390911681526020016100d2565b34801561016357600080fd5b5061017761017236600461079f565b6105c0565b60405190151581526020016100d2565b34801561019357600080fd5b5061013f7f000000000000000000000000000000000000000000000000000000000000000081565b3480156101c757600080fd5b506101776101d636600461079f565b6105f9565b3480156101e757600080fd5b506102146101f636600461079f565b6001600160a01b031660009081526001602052604090205460ff1690565b6040516100d291906107d9565b34801561022d57600080fd5b506100f061023c36600461079f565b610602565b34801561024d57600080fd5b5061013f61025c36600461079f565b6001600160a01b039081166000908152600260205260409020541690565b34801561028657600080fd5b506100f061029536600461079f565b6106ca565b6102a261070d565b6102ac600061073a565b565b6001600160a01b0381166102d55760405163538ba4f960e01b815260040160405180910390fd5b6001600160a01b03811660009081526001602052604081205460ff166004811115610302576103026107c3565b0361032057604051635300e3eb60e11b815260040160405180910390fd5b6001600160a01b0381811660009081526002602052604090205416331480159061035557506000546001600160a01b03163314155b1561037357604051633d83866f60e01b815260040160405180910390fd5b6001600160a01b038116600081815260016020526040808220805460ff19166004179055517f5be02dc93181c90c736ed2fd1e05bd3972f0d008b3274ca14909f0465456b7739190a250565b6001600160a01b0381166103e65760405163538ba4f960e01b815260040160405180910390fd5b6001600160a01b03811660009081526001602052604081205460ff166004811115610413576104136107c3565b14610430576040516296a01160e61b815260040160405180910390fd5b678ac7230489e800003414610458576040516380e5952760e01b815260040160405180910390fd5b60007f00000000000000000000000000000000000000000000000000000000000000006001600160a01b0316638b6570a06040518163ffffffff1660e01b8152600401602060405180830381865afa1580156104b8573d6000803e3d6000fd5b505050506040513d601f19601f820116820180604052508101906104dc9190610801565b90506000816001600160a01b03163460405160006040518083038185875af1925050503d806000811461052b576040519150601f19603f3d011682016040523d82523d6000602084013e610530565b606091505b505090508061055257604051631fa55c0760e11b815260040160405180910390fd5b6001600160a01b0383166000818152600160208181526040808420805460ff19169093179092556002905280822080546001600160a01b0319163390811790915590519092917f9556da376adaed27a1a0abee59b39c360a149f34758848160830a78715e8524d91a3505050565b600060015b6001600160a01b03831660009081526001602052604090205460ff1660048111156105f2576105f26107c3565b1492915050565b600060026105c5565b61060a61070d565b6001600160a01b0381166106315760405163538ba4f960e01b815260040160405180910390fd5b60016001600160a01b03821660009081526001602052604090205460ff166004811115610660576106606107c3565b1461067e57604051635300e3eb60e11b815260040160405180910390fd5b6001600160a01b038116600081815260016020526040808220805460ff19166002179055517fa4e9a3f971c061ed79f140c54a4bd3a6b627031cb183cf824e50c1eed621ddeb9190a250565b6106d261070d565b6001600160a01b03811661070157604051631e4fbdf760e01b8152600060048201526024015b60405180910390fd5b61070a8161073a565b50565b6000546001600160a01b031633146102ac5760405163118cdaa760e01b81523360048201526024016106f8565b600080546001600160a01b038381166001600160a01b0319831681178455604051919092169283917f8be0079c531659141344cd1fd0a4f28419497f9722a3daafe3b4186f6b6457e09190a35050565b6001600160a01b038116811461070a57600080fd5b6000602082840312156107b157600080fd5b81356107bc8161078a565b9392505050565b634e487b7160e01b600052602160045260246000fd5b60208101600583106107fb57634e487b7160e01b600052602160045260246000fd5b91905290565b60006020828403121561081357600080fd5b81516107bc8161078a56fea2646970667358221220ce9675a62fe3a43dfe0e5e90346e8d29244158f38676d6d9b1dabb4c5f97a71464736f6c63430008140033",
  "linkReferences": {},
  "deployedLinkReferences": {}
}