{
  "_format": "hh-sol-artifact-1",
  "contractName": "TransactionManager",
  "sourceName": "contracts/core/TransactionManager.sol",
  "abi": [
    {
      "inputs": [],
      "stateMutability": "nonpayable",
      "type": "constructor"
    },
    {
      "inputs": [],
      "name": "InvalidInitialization",
      "type": "error"
    },
    {
      "inputs": [],
      "name": "NotInitializing",
      "type": "error"
    },
    {
      "inputs": [
        {
          "internalType": "address",
          "name": "owner",
          "type": "address"
        }
      ],
      "name": "OwnableInvalidOwner",
      "type": "error"
    },
    {
      "inputs": [
        {
          "internalType": "address",
          "name": "account",
          "type": "address"
        }
      ],
      "name": "OwnableUnauthorizedAccount",
      "type": "error"
    },
    {
      "inputs": [],
      "name": "ReentrancyGuardReentrantCall",
      "type": "error"
    },
    {
      "anonymous": false,
      "inputs": [
        {
          "indexed": true,
          "internalType": "address",
          "name": "dapp",
          "type": "address"
        },
        {
          "indexed": true,
          "internalType": "bytes32",
          "name": "txId",
          "type": "bytes32"
        }
      ],
      "name": "ArbitrationRequested",
      "type": "event"
    },
    {
      "anonymous": false,
      "inputs": [
        {
          "indexed": true,
          "internalType": "address",
          "name": "dapp",
          "type": "address"
        },
        {
          "indexed": true,
          "internalType": "bytes32",
          "name": "txId",
          "type": "bytes32"
        }
      ],
      "name": "ArbitrationSubmitted",
      "type": "event"
    },
    {
      "anonymous": false,
      "inputs": [
        {
          "indexed": true,
          "internalType": "address",
          "name": "compensationManager",
          "type": "address"
        }
      ],
      "name": "CompensationManagerInitialized",
      "type": "event"
    },
    {
      "anonymous": false,
      "inputs": [
        {
          "indexed": false,
          "internalType": "uint64",
          "name": "version",
          "type": "uint64"
        }
      ],
      "name": "Initialized",
      "type": "event"
    },
    {
      "anonymous": false,
      "inputs": [
        {
          "indexed": true,
          "internalType": "address",
          "name": "previousOwner",
          "type": "address"
        },
        {
          "indexed": true,
          "internalType": "address",
          "name": "newOwner",
          "type": "address"
        }
      ],
      "name": "OwnershipTransferred",
      "type": "event"
    },
    {
      "anonymous": false,
      "inputs": [
        {
          "indexed": true,
          "internalType": "address",
          "name": "arbitratorManager",
          "type": "address"
        }
      ],
      "name": "SetArbitratorManager",
      "type": "event"
    },
    {
      "anonymous": false,
      "inputs": [
        {
          "indexed": true,
          "internalType": "bytes32",
          "name": "id",
          "type": "bytes32"
        }
      ],
      "name": "TransactionCancelled",
      "type": "event"
    },
    {
      "anonymous": false,
      "inputs": [
        {
          "indexed": true,
          "internalType": "address",
          "name": "dapp",
          "type": "address"
        },
        {
          "indexed": true,
          "internalType": "bytes32",
          "name": "txId",
          "type": "bytes32"
        }
      ],
      "name": "TransactionCompleted",
      "type": "event"
    },
    {
      "anonymous": false,
      "inputs": [
        {
          "indexed": true,
          "internalType": "bytes32",
          "name": "id",
          "type": "bytes32"
        },
        {
          "indexed": true,
          "internalType": "address",
          "name": "sender",
          "type": "address"
        },
        {
          "indexed": true,
          "internalType": "address",
          "name": "arbitrator",
          "type": "address"
        }
      ],
      "name": "TransactionCreated",
      "type": "event"
    },
    {
      "anonymous": false,
      "inputs": [
        {
          "indexed": true,
          "internalType": "bytes32",
          "name": "id",
          "type": "bytes32"
        },
        {
          "indexed": true,
          "internalType": "address",
          "name": "dapp",
          "type": "address"
        },
        {
          "indexed": true,
          "internalType": "address",
          "name": "arbitrator",
          "type": "address"
        },
        {
          "indexed": false,
          "internalType": "uint256",
          "name": "deadline",
          "type": "uint256"
        }
      ],
      "name": "TransactionRegistered",
      "type": "event"
    },
    {
      "inputs": [],
      "name": "arbitratorManager",
      "outputs": [
        {
          "internalType": "contract IArbitratorManager",
          "name": "",
          "type": "address"
        }
      ],
      "stateMutability": "view",
      "type": "function"
    },
    {
      "inputs": [],
      "name": "compensationManager",
      "outputs": [
        {
          "internalType": "address",
          "name": "",
          "type": "address"
        }
      ],
      "stateMutability": "view",
      "type": "function"
    },
    {
      "inputs": [
        {
          "internalType": "bytes32",
          "name": "id",
          "type": "bytes32"
        }
      ],
      "name": "completeTransaction",
      "outputs": [],
      "stateMutability": "nonpayable",
      "type": "function"
    },
    {
      "inputs": [],
      "name": "configManager",
      "outputs": [
        {
          "internalType": "contract ConfigManager",
          "name": "",
          "type": "address"
        }
      ],
      "stateMutability": "view",
      "type": "function"
    },
    {
      "inputs": [],
      "name": "dappRegistry",
      "outputs": [
        {
          "internalType": "contract IDAppRegistry",
          "name": "",
          "type": "address"
        }
      ],
      "stateMutability": "view",
      "type": "function"
    },
    {
      "inputs": [
        {
          "internalType": "uint256",
          "name": "deadline",
          "type": "uint256"
        },
        {
          "internalType": "address",
          "name": "arbitrator",
          "type": "address"
        }
      ],
      "name": "getRegisterTransactionFee",
      "outputs": [
        {
          "internalType": "uint256",
          "name": "fee",
          "type": "uint256"
        }
      ],
      "stateMutability": "view",
      "type": "function"
    },
    {
      "inputs": [
        {
          "internalType": "bytes32",
          "name": "txHash",
          "type": "bytes32"
        }
      ],
      "name": "getTransaction",
      "outputs": [
        {
          "components": [
            {
              "internalType": "address",
              "name": "dapp",
              "type": "address"
            },
            {
              "internalType": "address",
              "name": "arbitrator",
              "type": "address"
            },
            {
              "internalType": "uint256",
              "name": "startTime",
              "type": "uint256"
            },
            {
              "internalType": "uint256",
              "name": "deadline",
              "type": "uint256"
            },
            {
              "internalType": "bytes",
              "name": "btcTx",
              "type": "bytes"
            },
            {
              "internalType": "bytes32",
              "name": "btcTxHash",
              "type": "bytes32"
            },
            {
              "internalType": "enum DataTypes.TransactionStatus",
              "name": "status",
              "type": "uint8"
            },
            {
              "internalType": "uint256",
              "name": "depositedFee",
              "type": "uint256"
            },
            {
              "internalType": "bytes",
              "name": "signature",
              "type": "bytes"
            },
            {
              "internalType": "address",
              "name": "compensationReceiver",
              "type": "address"
            },
            {
              "internalType": "address",
              "name": "timeoutCompensationReceiver",
              "type": "address"
            },
            {
              "components": [
                {
                  "internalType": "bytes32",
                  "name": "txHash",
                  "type": "bytes32"
                },
                {
                  "internalType": "uint32",
                  "name": "index",
                  "type": "uint32"
                },
                {
                  "internalType": "bytes",
                  "name": "script",
                  "type": "bytes"
                },
                {
                  "internalType": "uint256",
                  "name": "amount",
                  "type": "uint256"
                }
              ],
              "internalType": "struct DataTypes.UTXO[]",
              "name": "utxos",
              "type": "tuple[]"
            }
          ],
          "internalType": "struct DataTypes.Transaction",
          "name": "",
          "type": "tuple"
        }
      ],
      "stateMutability": "view",
      "type": "function"
    },
    {
      "inputs": [
        {
          "internalType": "bytes32",
          "name": "id",
          "type": "bytes32"
        }
      ],
      "name": "getTransactionById",
      "outputs": [
        {
          "components": [
            {
              "internalType": "address",
              "name": "dapp",
              "type": "address"
            },
            {
              "internalType": "address",
              "name": "arbitrator",
              "type": "address"
            },
            {
              "internalType": "uint256",
              "name": "startTime",
              "type": "uint256"
            },
            {
              "internalType": "uint256",
              "name": "deadline",
              "type": "uint256"
            },
            {
              "internalType": "bytes",
              "name": "btcTx",
              "type": "bytes"
            },
            {
              "internalType": "bytes32",
              "name": "btcTxHash",
              "type": "bytes32"
            },
            {
              "internalType": "enum DataTypes.TransactionStatus",
              "name": "status",
              "type": "uint8"
            },
            {
              "internalType": "uint256",
              "name": "depositedFee",
              "type": "uint256"
            },
            {
              "internalType": "bytes",
              "name": "signature",
              "type": "bytes"
            },
            {
              "internalType": "address",
              "name": "compensationReceiver",
              "type": "address"
            },
            {
              "internalType": "address",
              "name": "timeoutCompensationReceiver",
              "type": "address"
            },
            {
              "components": [
                {
                  "internalType": "bytes32",
                  "name": "txHash",
                  "type": "bytes32"
                },
                {
                  "internalType": "uint32",
                  "name": "index",
                  "type": "uint32"
                },
                {
                  "internalType": "bytes",
                  "name": "script",
                  "type": "bytes"
                },
                {
                  "internalType": "uint256",
                  "name": "amount",
                  "type": "uint256"
                }
              ],
              "internalType": "struct DataTypes.UTXO[]",
              "name": "utxos",
              "type": "tuple[]"
            }
          ],
          "internalType": "struct DataTypes.Transaction",
          "name": "",
          "type": "tuple"
        }
      ],
      "stateMutability": "view",
      "type": "function"
    },
    {
      "inputs": [
        {
          "internalType": "address",
          "name": "_compensationManager",
          "type": "address"
        }
      ],
      "name": "initCompensationManager",
      "outputs": [],
      "stateMutability": "nonpayable",
      "type": "function"
    },
    {
      "inputs": [
        {
          "internalType": "address",
          "name": "_arbitratorManager",
          "type": "address"
        },
        {
          "internalType": "address",
          "name": "_dappRegistry",
          "type": "address"
        },
        {
          "internalType": "address",
          "name": "_configManager",
          "type": "address"
        }
      ],
      "name": "initialize",
      "outputs": [],
      "stateMutability": "nonpayable",
      "type": "function"
    },
    {
      "inputs": [
        {
          "internalType": "bytes32",
          "name": "id",
          "type": "bytes32"
        }
      ],
      "name": "isAbleCompletedTransaction",
      "outputs": [
        {
          "internalType": "bool",
          "name": "",
          "type": "bool"
        }
      ],
      "stateMutability": "view",
      "type": "function"
    },
    {
      "inputs": [],
      "name": "owner",
      "outputs": [
        {
          "internalType": "address",
          "name": "",
          "type": "address"
        }
      ],
      "stateMutability": "view",
      "type": "function"
    },
    {
      "inputs": [
        {
          "components": [
            {
              "internalType": "bytes32",
              "name": "txHash",
              "type": "bytes32"
            },
            {
              "internalType": "uint32",
              "name": "index",
              "type": "uint32"
            },
            {
              "internalType": "bytes",
              "name": "script",
              "type": "bytes"
            },
            {
              "internalType": "uint256",
              "name": "amount",
              "type": "uint256"
            }
          ],
          "internalType": "struct DataTypes.UTXO[]",
          "name": "utxos",
          "type": "tuple[]"
        },
        {
          "internalType": "address",
          "name": "arbitrator",
          "type": "address"
        },
        {
          "internalType": "uint256",
          "name": "deadline",
          "type": "uint256"
        },
        {
          "internalType": "address",
          "name": "compensationReceiver",
          "type": "address"
        }
      ],
      "name": "registerTransaction",
      "outputs": [
        {
          "internalType": "bytes32",
          "name": "",
          "type": "bytes32"
        }
      ],
      "stateMutability": "payable",
      "type": "function"
    },
    {
      "inputs": [],
      "name": "renounceOwnership",
      "outputs": [],
      "stateMutability": "nonpayable",
      "type": "function"
    },
    {
      "inputs": [
        {
          "internalType": "bytes32",
          "name": "id",
          "type": "bytes32"
        },
        {
          "internalType": "bytes",
          "name": "btcTx",
          "type": "bytes"
        },
        {
          "internalType": "address",
          "name": "timeoutCompensationReceiver",
          "type": "address"
        }
      ],
      "name": "requestArbitration",
      "outputs": [],
      "stateMutability": "nonpayable",
      "type": "function"
    },
    {
      "inputs": [
        {
          "internalType": "address",
          "name": "_arbitratorManager",
          "type": "address"
        }
      ],
      "name": "setArbitratorManager",
      "outputs": [],
      "stateMutability": "nonpayable",
      "type": "function"
    },
    {
      "inputs": [
        {
          "internalType": "bytes32",
          "name": "id",
          "type": "bytes32"
        },
        {
          "internalType": "bytes",
          "name": "btcTxSignature",
          "type": "bytes"
        }
      ],
      "name": "submitArbitration",
      "outputs": [],
      "stateMutability": "nonpayable",
      "type": "function"
    },
    {
      "inputs": [
        {
          "internalType": "bytes32",
          "name": "",
          "type": "bytes32"
        }
      ],
      "name": "transactions",
      "outputs": [
        {
          "internalType": "address",
          "name": "dapp",
          "type": "address"
        },
        {
          "internalType": "address",
          "name": "arbitrator",
          "type": "address"
        },
        {
          "internalType": "uint256",
          "name": "startTime",
          "type": "uint256"
        },
        {
          "internalType": "uint256",
          "name": "deadline",
          "type": "uint256"
        },
        {
          "internalType": "bytes",
          "name": "btcTx",
          "type": "bytes"
        },
        {
          "internalType": "bytes32",
          "name": "btcTxHash",
          "type": "bytes32"
        },
        {
          "internalType": "enum DataTypes.TransactionStatus",
          "name": "status",
          "type": "uint8"
        },
        {
          "internalType": "uint256",
          "name": "depositedFee",
          "type": "uint256"
        },
        {
          "internalType": "bytes",
          "name": "signature",
          "type": "bytes"
        },
        {
          "internalType": "address",
          "name": "compensationReceiver",
          "type": "address"
        },
        {
          "internalType": "address",
          "name": "timeoutCompensationReceiver",
          "type": "address"
        }
      ],
      "stateMutability": "view",
      "type": "function"
    },
    {
      "inputs": [
        {
          "internalType": "bytes32",
          "name": "id",
          "type": "bytes32"
        }
      ],
      "name": "transferArbitrationFee",
      "outputs": [
        {
          "internalType": "uint256",
          "name": "arbitratorFee",
          "type": "uint256"
        },
        {
          "internalType": "uint256",
          "name": "systemFee",
          "type": "uint256"
        }
      ],
      "stateMutability": "nonpayable",
      "type": "function"
    },
    {
      "inputs": [
        {
          "internalType": "address",
          "name": "newOwner",
          "type": "address"
        }
      ],
      "name": "transferOwnership",
      "outputs": [],
      "stateMutability": "nonpayable",
      "type": "function"
    },
    {
      "inputs": [
        {
          "internalType": "bytes32",
          "name": "",
          "type": "bytes32"
        }
      ],
      "name": "txHashToId",
      "outputs": [
        {
          "internalType": "bytes32",
          "name": "",
          "type": "bytes32"
        }
      ],
      "stateMutability": "view",
      "type": "function"
    }
  ],
  "bytecode": "0x60806040523480156200001157600080fd5b506200001c62000022565b620000d6565b7ff0c57e16840df040f15088dc2f81fe391c3923bec73e23a9662efc9c229c6a00805468010000000000000000900460ff1615620000735760405163f92ee8a960e01b815260040160405180910390fd5b80546001600160401b0390811614620000d35780546001600160401b0319166001600160401b0390811782556040519081527fc7f505b2f371ae2175ee4913f4499e1f2633a7b5936321eed1cdaeb6115181d29060200160405180910390a15b50565b615b9e80620000e66000396000f3fe60806040526004361061012a5760003560e01c80638da5cb5b116100ab578063c0c53b8b1161006f578063c0c53b8b1461038a578063c0e3896b146103aa578063c1ce47d2146103ca578063ca0ab075146103f7578063de0ca16614610417578063f2fde38b1461043757600080fd5b80638da5cb5b146102cc5780639100c06214610309578063a130312a1461032a578063a71571901461034a578063a890b7b41461036a57600080fd5b8063520936b5116100f2578063520936b5146101fb578063642f2eaf1461022b578063715018a6146102625780637577b6df14610277578063759787c4146102ac57600080fd5b80630559b8771461012f5780632c7e8ca31461016c578063350a07ea1461018e5780634aae13ca146101ae5780634e4f0ec4146101db575b600080fd5b34801561013b57600080fd5b5060065461014f906001600160a01b031681565b6040516001600160a01b0390911681526020015b60405180910390f35b34801561017857600080fd5b5061018c610187366004614e95565b610457565b005b34801561019a57600080fd5b5061018c6101a9366004614e95565b6104a7565b3480156101ba57600080fd5b506101ce6101c9366004614eb2565b610550565b6040516101639190614fdd565b3480156101e757600080fd5b5061018c6101f6366004615130565b6108b7565b34801561020757600080fd5b5061021b610216366004614eb2565b610def565b6040519015158152602001610163565b34801561023757600080fd5b5061024b610246366004614eb2565b61117f565b6040516101639b9a9998979695949392919061517b565b34801561026e57600080fd5b5061018c611307565b34801561028357600080fd5b50610297610292366004614eb2565b61131b565b60408051928352602083019190915201610163565b3480156102b857600080fd5b5060005461014f906001600160a01b031681565b3480156102d857600080fd5b507f9016d09d72d40fdae2fd8ceac6b6234c7706214fd39c1cd1e609a0528c199300546001600160a01b031661014f565b61031c610317366004615206565b61150b565b604051908152602001610163565b34801561033657600080fd5b5061018c610345366004614eb2565b611d04565b34801561035657600080fd5b5061031c6103653660046152a8565b611e1f565b34801561037657600080fd5b506101ce610385366004614eb2565b61210c565b34801561039657600080fd5b5061018c6103a53660046152d8565b61241b565b3480156103b657600080fd5b5061018c6103c5366004615323565b612648565b3480156103d657600080fd5b5061031c6103e5366004614eb2565b60046020526000908152604090205481565b34801561040357600080fd5b5060025461014f906001600160a01b031681565b34801561042357600080fd5b5060015461014f906001600160a01b031681565b34801561044357600080fd5b5061018c610452366004614e95565b6129d6565b61045f612a14565b600080546001600160a01b0319166001600160a01b038316908117825560405190917fa323f9f93bbee02edb5e1034969f6ef41fb674527d2ea7e9271ad206435b58f491a250565b6104af612a14565b6001600160a01b03811661050057604080518082018252600c81526b5a65726f206164647265737360a01b6020820152905162461bcd60e51b81526104f79190600401615381565b60405180910390fd5b600680546001600160a81b0319166001600160a01b038316908117600160a01b179091556040517f3e89cfb4fcf3c219579a7287319c014b58f4ff0f30188fd1d661727cf54faae590600090a250565b610558614d6a565b600082815260046020526040902054806105af576040805180820182526015815274151c985b9cd858dd1a5bdb881b9bdd08199bdd5b99605a1b6020820152905162461bcd60e51b81526104f79190600401615381565b60008181526003602081815260409283902083516101808101855281546001600160a01b0390811682526001830154169281019290925260028101549382019390935290820154606082015260048201805491929160808401919061061390615394565b80601f016020809104026020016040519081016040528092919081815260200182805461063f90615394565b801561068c5780601f106106615761010080835404028352916020019161068c565b820191906000526020600020905b81548152906001019060200180831161066f57829003601f168201915b50505091835250506005828101546020830152600683015460409092019160ff16908111156106bd576106bd614f1b565b60058111156106ce576106ce614f1b565b8152602001600782015481526020016008820180546106ec90615394565b80601f016020809104026020016040519081016040528092919081815260200182805461071890615394565b80156107655780601f1061073a57610100808354040283529160200191610765565b820191906000526020600020905b81548152906001019060200180831161074857829003601f168201915b505050918352505060098201546001600160a01b03908116602080840191909152600a840154909116604080840191909152600b84018054825181850281018501909352808352606090940193919290919060009084015b828210156108a8576000848152602090819020604080516080810182526004860290920180548352600181015463ffffffff16938301939093526002830180549293929184019161080d90615394565b80601f016020809104026020016040519081016040528092919081815260200182805461083990615394565b80156108865780601f1061085b57610100808354040283529160200191610886565b820191906000526020600020905b81548152906001019060200180831161086957829003601f168201915b50505050508152602001600382015481525050815260200190600101906107bd565b50505091525090949350505050565b60008381526003602052604090206002600682015460ff1660058111156108e0576108e0614f1b565b1461092d57604080518082018252601a815279496e76616c6964207472616e73616374696f6e2073746174757360301b6020820152905162461bcd60e51b81526104f79190600401615381565b604080516101808101825282546001600160a01b039081168252600184015416602082015260028301549181019190915260038201546060820152600482018054610c269291849160808401919061098490615394565b80601f01602080910402602001604051908101604052809291908181526020018280546109b090615394565b80156109fd5780601f106109d2576101008083540402835291602001916109fd565b820191906000526020600020905b8154815290600101906020018083116109e057829003601f168201915b50505091835250506005828101546020830152600683015460409092019160ff1690811115610a2e57610a2e614f1b565b6005811115610a3f57610a3f614f1b565b815260200160078201548152602001600882018054610a5d90615394565b80601f0160208091040260200160405190810160405280929190818152602001828054610a8990615394565b8015610ad65780601f10610aab57610100808354040283529160200191610ad6565b820191906000526020600020905b815481529060010190602001808311610ab957829003601f168201915b505050918352505060098201546001600160a01b03908116602080840191909152600a840154909116604080840191909152600b84018054825181850281018501909352808352606090940193919290919060009084015b82821015610c19576000848152602090819020604080516080810182526004860290920180548352600181015463ffffffff169383019390935260028301805492939291840191610b7e90615394565b80601f0160208091040260200160405190810160405280929190818152602001828054610baa90615394565b8015610bf75780601f10610bcc57610100808354040283529160200191610bf7565b820191906000526020600020905b815481529060010190602001808311610bda57829003601f168201915b5050505050815260200160038201548152505081526020019060010190610b2e565b5050505081525050612a6f565b15610c7657604080518082018252601d81527f4f7574207375626d6974746564207369676e6174757265732074696d650000006020820152905162461bcd60e51b81526104f79190600401615381565b6000546001820154604051630e70978b60e21b81526001600160a01b0391821660048201523360248201529116906339c25e2c90604401602060405180830381865afa158015610cca573d6000803e3d6000fd5b505050506040513d601f19601f82011682018060405250810190610cee91906153ce565b610d2e57604080518082018252600e81526d139bdd08185d5d1a1bdc9a5e995960921b6020820152905162461bcd60e51b81526104f79190600401615381565b60068101805460ff1916600517905560088101610d4c838583615455565b50600054600182015460405163069fa0a760e51b81526001600160a01b03918216600482015291169063d3f414e090602401600060405180830381600087803b158015610d9857600080fd5b505af1158015610dac573d6000803e3d6000fd5b505082546040518793506001600160a01b0390911691507fc5a53e8918a64b3e9944e2344fc4fdd4c8b33a433b3a696975c4996090b39f6190600090a350505050565b600081815260036020818152604080842081516101808101835281546001600160a01b039081168252600183015416938101939093526002810154918301919091529182015460608201526004820180548493916080840191610e5190615394565b80601f0160208091040260200160405190810160405280929190818152602001828054610e7d90615394565b8015610eca5780601f10610e9f57610100808354040283529160200191610eca565b820191906000526020600020905b815481529060010190602001808311610ead57829003601f168201915b50505091835250506005828101546020830152600683015460409092019160ff1690811115610efb57610efb614f1b565b6005811115610f0c57610f0c614f1b565b815260200160078201548152602001600882018054610f2a90615394565b80601f0160208091040260200160405190810160405280929190818152602001828054610f5690615394565b8015610fa35780601f10610f7857610100808354040283529160200191610fa3565b820191906000526020600020905b815481529060010190602001808311610f8657829003601f168201915b505050918352505060098201546001600160a01b03908116602080840191909152600a840154909116604080840191909152600b84018054825181850281018501909352808352606090940193919290919060009084015b828210156110e6576000848152602090819020604080516080810182526004860290920180548352600181015463ffffffff16938301939093526002830180549293929184019161104b90615394565b80601f016020809104026020016040519081016040528092919081815260200182805461107790615394565b80156110c45780601f10611099576101008083540402835291602001916110c4565b820191906000526020600020905b8154815290600101906020018083116110a757829003601f168201915b5050505050815260200160038201548152505081526020019060010190610ffb565b505050915250909150600090508160c00151600581111561110957611109614f1b565b036111175750600192915050565b60028160c00151600581111561112f5761112f614f1b565b036111505761113d81612a6f565b1561114b5750600192915050565b611176565b60058160c00151600581111561116857611168614f1b565b036111765750600192915050565b50600092915050565b6003602081905260009182526040909120805460018201546002830154938301546004840180546001600160a01b0394851696949093169491926111c290615394565b80601f01602080910402602001604051908101604052809291908181526020018280546111ee90615394565b801561123b5780601f106112105761010080835404028352916020019161123b565b820191906000526020600020905b81548152906001019060200180831161121e57829003601f168201915b5050506005840154600685015460078601546008870180549697939660ff90931695509093509061126b90615394565b80601f016020809104026020016040519081016040528092919081815260200182805461129790615394565b80156112e45780601f106112b9576101008083540402835291602001916112e4565b820191906000526020600020905b8154815290600101906020018083116112c757829003601f168201915b505050506009830154600a9093015491926001600160a01b03908116921690508b565b61130f612a14565b6113196000612b0e565b565b60065460009081906001600160a01b0316331461137d57604080518082018252601881527f4e6f7420636f6d70656e736174696f6e206d616e6167657200000000000000006020820152905162461bcd60e51b81526104f79190600401615381565b600654600160a01b900460ff166113cb57604080518082018252600f81526e139bdd081a5b9a5d1a585b1a5e9959608a1b6020820152905162461bcd60e51b81526104f79190600401615381565b60008381526003602052604090206005600682015460ff1660058111156113f4576113f4614f1b565b1461144157604080518082018252601a815279496e76616c6964207472616e73616374696f6e2073746174757360301b6020820152905162461bcd60e51b81526104f79190600401615381565b6000546001820154604051632911125160e01b81526001600160a01b039182166004820152911690632911125190602401602060405180830381865afa15801561148f573d6000803e3d6000fd5b505050506040513d601f19601f820116820180604052508101906114b391906153ce565b156114f757604080518082018252601181527020b93134ba3930ba37b910333937bd32b760791b6020820152905162461bcd60e51b81526104f79190600401615381565b6115018482612b7f565b9250925050915091565b6000611515612f43565b6001600160a01b038416158061153257506001600160a01b038216155b1561157157604080518082018252600c81526b5a65726f206164647265737360a01b6020820152905162461bcd60e51b81526104f79190600401615381565b60008590036115b457604080518082018252600c81526b496e76616c6964205554584f60a01b6020820152905162461bcd60e51b81526104f79190600401615381565b60015460405163682dc82b60e11b81523360048201526001600160a01b039091169063d05b905690602401602060405180830381865afa1580156115fc573d6000803e3d6000fd5b505050506040513d601f19601f8201168201806040525081019061162091906153ce565b61166157604080518082018252600f81526e44417070206e6f742061637469766560881b6020820152905162461bcd60e51b81526104f79190600401615381565b600054604051631c569df760e31b81526001600160a01b0386811660048301529091169063e2b4efb890602401602060405180830381865afa1580156116ab573d6000803e3d6000fd5b505050506040513d601f19601f820116820180604052508101906116cf91906153ce565b61171657604080518082018252601581527441726269747261746f72206e6f742061637469766560581b6020820152905162461bcd60e51b81526104f79190600401615381565b42831161175b57604080518082018252601081526f496e76616c696420646561646c696e6560801b6020820152905162461bcd60e51b81526104f79190600401615381565b6000611767428561552b565b60025460408051631c8c542360e11b815290519293506001600160a01b0390911691636dd5b69d918391633918a846916004808201926020929091908290030181865afa1580156117bc573d6000803e3d6000fd5b505050506040513d601f19601f820116820180604052508101906117e0919061553e565b6040518263ffffffff1660e01b81526004016117fe91815260200190565b602060405180830381865afa15801561181b573d6000803e3d6000fd5b505050506040513d601f19601f8201168201806040525081019061183f919061553e565b81108061191f5750600254604080516358d0b14760e01b815290516001600160a01b0390921691636dd5b69d9183916358d0b147916004808201926020929091908290030181865afa158015611899573d6000803e3d6000fd5b505050506040513d601f19601f820116820180604052508101906118bd919061553e565b6040518263ffffffff1660e01b81526004016118db91815260200190565b602060405180830381865afa1580156118f8573d6000803e3d6000fd5b505050506040513d601f19601f8201168201806040525081019061191c919061553e565b81115b1561196257604080518082018252601081526f24b73b30b634b210323ab930ba34b7b760811b6020820152905162461bcd60e51b81526104f79190600401615381565b604051630a71571960e41b8152600481018590526001600160a01b0386166024820152600090309063a715719090604401602060405180830381865afa1580156119b0573d6000803e3d6000fd5b505050506040513d601f19601f820116820180604052508101906119d4919061553e565b905080600003611a1757604080518082018252600b81526a496e76616c69642066656560a81b6020820152905162461bcd60e51b81526104f79190600401615381565b80341015611a5d57604080518082018252601081526f496e73756666696369656e742066656560801b6020820152905162461bcd60e51b81526104f79190600401615381565b600042338860056000815480929190611a7590615557565b909155506040805160208101959095526bffffffffffffffffffffffff19606094851b8116918601919091529190921b166054830152606882015260880160408051808303601f190181529082905280516020909101206000546315969bed60e11b83526001600160a01b038a81166004850152602484018390529193501690632b2d37da90604401600060405180830381600087803b158015611b1857600080fd5b505af1158015611b2c573d6000803e3d6000fd5b505050600082815260036020819052604082208054336001600160a01b03199182161782556001820180549091166001600160a01b038d1617905542600282015590810189905591506040519080825280601f01601f191660200182016040528015611b9f576020820181803683370190505b506004820190611baf9082615570565b5060006005820181905560068201805460ff1916905560078201849055604080519182526020820190526008820190611be89082615570565b506009810180546001600160a01b0388166001600160a01b03199182168117909255600a830180549091169091179055611c26600b82016000614ddc565b60005b89811015611c905781600b018b8b83818110611c4757611c4761562f565b9050602002810190611c599190615645565b815460018101835560009283526020909220909160040201611c7b8282615665565b50508080611c8890615557565b915050611c29565b50876001600160a01b0316336001600160a01b0316837f28e758374824239244dc643d410b8124a754fdee951bb92efadad0f77d195e718a604051611cd791815260200190565b60405180910390a45092505050611cfb6001600080516020615b4983398151915255565b95945050505050565b60008181526003602052604090819020905163520936b560e01b815260048101839052309063520936b590602401602060405180830381865afa158015611d4f573d6000803e3d6000fd5b505050506040513d601f19601f82011682018060405250810190611d7391906153ce565b611dc257604080518082018252601b81527f43616e6e6f7420636f6d706c657465207472616e73616374696f6e00000000006020820152905162461bcd60e51b81526104f79190600401615381565b80546001600160a01b03163314611e0f57604080518082018252600e81526d139bdd08185d5d1a1bdc9a5e995960921b6020820152905162461bcd60e51b81526104f79190600401615381565b611e198282612b7f565b50505050565b600080428411611e30576000611e3a565b611e3a428561552b565b60025460408051631c8c542360e11b815290519293506001600160a01b0390911691636dd5b69d918391633918a846916004808201926020929091908290030181865afa158015611e8f573d6000803e3d6000fd5b505050506040513d601f19601f82011682018060405250810190611eb3919061553e565b6040518263ffffffff1660e01b8152600401611ed191815260200190565b602060405180830381865afa158015611eee573d6000803e3d6000fd5b505050506040513d601f19601f82011682018060405250810190611f12919061553e565b811080611ff25750600254604080516358d0b14760e01b815290516001600160a01b0390921691636dd5b69d9183916358d0b147916004808201926020929091908290030181865afa158015611f6c573d6000803e3d6000fd5b505050506040513d601f19601f82011682018060405250810190611f90919061553e565b6040518263ffffffff1660e01b8152600401611fae91815260200190565b602060405180830381865afa158015611fcb573d6000803e3d6000fd5b505050506040513d601f19601f82011682018060405250810190611fef919061553e565b81115b1561203557604080518082018252601081526f24b73b30b634b210323ab930ba34b7b760811b6020820152905162461bcd60e51b81526104f79190600401615381565b6001600160a01b03831661207d57604080518082018252600c81526b5a65726f206164647265737360a01b6020820152905162461bcd60e51b81526104f79190600401615381565b600080546040516326415b0f60e21b81526001600160a01b038681166004830152909116906399056c3c90602401600060405180830381865afa1580156120c8573d6000803e3d6000fd5b505050506040513d6000823e601f3d908101601f191682016040526120f09190810190615853565b905061210184826020015184612f8f565b925050505b92915050565b612114614d6a565b60008281526003602081815260409283902083516101808101855281546001600160a01b0390811682526001830154169281019290925260028101549382019390935290820154606082015260048201805491929160808401919061217890615394565b80601f01602080910402602001604051908101604052809291908181526020018280546121a490615394565b80156121f15780601f106121c6576101008083540402835291602001916121f1565b820191906000526020600020905b8154815290600101906020018083116121d457829003601f168201915b50505091835250506005828101546020830152600683015460409092019160ff169081111561222257612222614f1b565b600581111561223357612233614f1b565b81526020016007820154815260200160088201805461225190615394565b80601f016020809104026020016040519081016040528092919081815260200182805461227d90615394565b80156122ca5780601f1061229f576101008083540402835291602001916122ca565b820191906000526020600020905b8154815290600101906020018083116122ad57829003601f168201915b505050918352505060098201546001600160a01b03908116602080840191909152600a840154909116604080840191909152600b84018054825181850281018501909352808352606090940193919290919060009084015b8282101561240d576000848152602090819020604080516080810182526004860290920180548352600181015463ffffffff16938301939093526002830180549293929184019161237290615394565b80601f016020809104026020016040519081016040528092919081815260200182805461239e90615394565b80156123eb5780601f106123c0576101008083540402835291602001916123eb565b820191906000526020600020905b8154815290600101906020018083116123ce57829003601f168201915b5050505050815260200160038201548152505081526020019060010190612322565b505050915250909392505050565b7ff0c57e16840df040f15088dc2f81fe391c3923bec73e23a9662efc9c229c6a008054600160401b810460ff1615906001600160401b03166000811580156124605750825b90506000826001600160401b0316600114801561247c5750303b155b90508115801561248a575080155b156124a85760405163f92ee8a960e01b815260040160405180910390fd5b845467ffffffffffffffff1916600117855583156124d257845460ff60401b1916600160401b1785555b6124da61303a565b6124e33361304a565b6001600160a01b03881661252b57604080518082018252600c81526b5a65726f206164647265737360a01b6020820152905162461bcd60e51b81526104f79190600401615381565b6001600160a01b03871661257357604080518082018252600c81526b5a65726f206164647265737360a01b6020820152905162461bcd60e51b81526104f79190600401615381565b6001600160a01b0386166125bb57604080518082018252600c81526b5a65726f206164647265737360a01b6020820152905162461bcd60e51b81526104f79190600401615381565b600080546001600160a01b03808b166001600160a01b031992831617909255600180548a84169083161790556002805492891692909116919091179055831561263e57845460ff60401b19168555604051600181527fc7f505b2f371ae2175ee4913f4499e1f2633a7b5936321eed1cdaeb6115181d29060200160405180910390a15b5050505050505050565b612650612f43565b6001600160a01b03811661269857604080518082018252600c81526b5a65726f206164647265737360a01b6020820152905162461bcd60e51b81526104f79190600401615381565b600084815260036020526040812090600682015460ff1660058111156126c0576126c0614f1b565b1461270d57604080518082018252601a815279496e76616c6964207472616e73616374696f6e2073746174757360301b6020820152905162461bcd60e51b81526104f79190600401615381565b80546001600160a01b0316331461275a57604080518082018252600e81526d139bdd08185d5d1a1bdc9a5e995960921b6020820152905162461bcd60e51b81526104f79190600401615381565b6000612766858561305b565b600b830154602082015151919250146127ba57604080518082018252601381527224b73b30b634b2103a3930b739b0b1ba34b7b760691b6020820152905162461bcd60e51b81526104f79190600401615381565b60005b8160200151518110156128d15782600b0181815481106127df576127df61562f565b906000526020600020906004020160000154826020015182815181106128075761280761562f565b602002602001015160000151141580612879575082600b0181815481106128305761283061562f565b60009182526020918290206001600490920201015490830151805163ffffffff90921691839081106128645761286461562f565b60200260200101516020015163ffffffff1614155b156128bf57604080518082018252601381527224b73b30b634b2103a3930b739b0b1ba34b7b760691b6020820152905162461bcd60e51b81526104f79190600401615381565b806128c981615557565b9150506127bd565b5060006128dd82613280565b905060006002826040516128f19190615a07565b602060405180830381855afa15801561290e573d6000803e3d6000fd5b5050506040513d601f19601f82011682018060405250810190612931919061553e565b60068501805460ff19166002179055905060048401612951878983615455565b5060058401819055600a840180546001600160a01b0319166001600160a01b03878116919091179091556000828152600460205260408082208b9055865490518b9391909116917f31e90e280e677d9edeb57411a7ccf29ae3094cc999a12de72dfdecf0b9ed1f0591a350505050611e196001600080516020615b4983398151915255565b6129de612a14565b6001600160a01b038116612a0857604051631e4fbdf760e01b8152600060048201526024016104f7565b612a1181612b0e565b50565b33612a467f9016d09d72d40fdae2fd8ceac6b6234c7706214fd39c1cd1e609a0528c199300546001600160a01b031690565b6001600160a01b0316146113195760405163118cdaa760e01b81523360048201526024016104f7565b60008160600151421115612a8557506001919050565b60025460408051632b6f600d60e01b815290516000926001600160a01b031691632b6f600d9160048083019260209291908290030181865afa158015612acf573d6000803e3d6000fd5b505050506040513d601f19601f82011682018060405250810190612af3919061553e565b9050808360400151612b059190615a19565b42119392505050565b7f9016d09d72d40fdae2fd8ceac6b6234c7706214fd39c1cd1e609a0528c19930080546001600160a01b031981166001600160a01b03848116918217845560405192169182907f8be0079c531659141344cd1fd0a4f28419497f9722a3daafe3b4186f6b6457e090600090a3505050565b604080516101808101825282546001600160a01b039081168252600184015416602082015260028301549181019190915260038201546060820152600482018054600092839283928392612e8192909188916080840191612bdf90615394565b80601f0160208091040260200160405190810160405280929190818152602001828054612c0b90615394565b8015612c585780601f10612c2d57610100808354040283529160200191612c58565b820191906000526020600020905b815481529060010190602001808311612c3b57829003601f168201915b50505091835250506005828101546020830152600683015460409092019160ff1690811115612c8957612c89614f1b565b6005811115612c9a57612c9a614f1b565b815260200160078201548152602001600882018054612cb890615394565b80601f0160208091040260200160405190810160405280929190818152602001828054612ce490615394565b8015612d315780601f10612d0657610100808354040283529160200191612d31565b820191906000526020600020905b815481529060010190602001808311612d1457829003601f168201915b505050918352505060098201546001600160a01b03908116602080840191909152600a840154909116604080840191909152600b84018054825181850281018501909352808352606090940193919290919060009084015b82821015612e74576000848152602090819020604080516080810182526004860290920180548352600181015463ffffffff169383019390935260028301805492939291840191612dd990615394565b80601f0160208091040260200160405190810160405280929190818152602001828054612e0590615394565b8015612e525780601f10612e2757610100808354040283529160200191612e52565b820191906000526020600020905b815481529060010190602001808311612e3557829003601f168201915b5050505050815260200160038201548152505081526020019060010190612d89565b5050505081525050613921565b600054600188015460405163cedb588b60e01b81526001600160a01b039182166004820152602481018b9052939550919350169063cedb588b90604401600060405180830381600087803b158015612ed857600080fd5b505af1158015612eec573d6000803e3d6000fd5b5050505060068501805460ff19166001179055845460405187916001600160a01b0316907fd4ce83344b315e3d656d76b02d51dcb1e3c92f1f9f9c28524cfb20882e9e6bc790600090a390925090505b9250929050565b600080516020615b49833981519152805460011901612f7557604051633ee5aeb560e01b815260040160405180910390fd5b60029055565b6001600080516020615b4983398151915255565b6000805460405163014f6b1960e41b81526001600160a01b038681166004830152839216906314f6b19090602401602060405180830381865afa158015612fda573d6000803e3d6000fd5b505050506040513d601f19601f82011682018060405250810190612ffe919061553e565b90506130106127106301e13380615a2c565b8461301b8584615a2c565b6130259190615a2c565b61302f9190615a43565b9150505b9392505050565b613042613d75565b611319613dbe565b613052613d75565b612a1181613dc6565b6040805160a081018252600080825260606020830181905292820183905291810182905260808101829052908280613094600484615a19565b11156130d35760408051808201825260178152600080516020615b298339815191526020820152905162461bcd60e51b81526104f79190600401615381565b8482856130e1600483615a19565b926130ee93929190615a65565b6130f791615a8f565b60e01c8352613107600483615a19565b9150600080613117878786613dce565b811515608088015294509150839050600080613134898985613e61565b60208901829052965091508590506000806131508b8b85613f59565b60408b01829052985091508790508515613174576131718b8b8a8751614039565b97505b83516001146131ae5760405162461bcd60e51b815260206004820152600660248201526503232b13ab3960d51b60448201526064016104f7565b866131ba896004615a19565b11156131f95760408051808201825260178152600080516020615b298339815191526020820152905162461bcd60e51b81526104f79190600401615381565b8a888b613207826004615a19565b9261321493929190615a65565b61321d91615a8f565b60e01c60608a0152613230600489615a19565b97508688146132725760408051808201825260178152600080516020615b298339815191526020820152905162461bcd60e51b81526104f79190600401615381565b505050505050505092915050565b60606000600490506132968360200151516140cc565b6132a09082615a19565b905060005b8360200151518110156132de576132bd602883615a19565b91506132ca600183615a19565b9150806132d681615557565b9150506132a5565b506132ed8360400151516140cc565b6132f79082615a19565b905060005b83604001515181101561338f57613314600883615a19565b91506133418460400151828151811061332f5761332f61562f565b602002602001015160200151516140cc565b61334b9083615a19565b9150836040015181815181106133635761336361562f565b602002602001015160200151518261337b9190615a19565b91508061338781615557565b9150506132fc565b5061339b600482615a19565b90506000816001600160401b038111156133b7576133b76153f0565b6040519080825280601f01601f1916602001820160405280156133e1576020820181803683370190505b50845190915060009060e01b815b60048110156134525781816004811061340a5761340a61562f565b1a60f81b846134198386615a19565b815181106134295761342961562f565b60200101906001600160f81b031916908160001a9053508061344a81615557565b9150506133ef565b5061345e600483615a19565b91506134708660200151518484614110565b61347a9083615a19565b915060005b8660200151518110156136ab5760005b602081101561351357876020015182815181106134ae576134ae61562f565b60200260200101516000015181602081106134cb576134cb61562f565b1a60f81b856134da8387615a19565b815181106134ea576134ea61562f565b60200101906001600160f81b031916908160001a9053508061350b81615557565b91505061348f565b5061351f602084615a19565b92506000876020015182815181106135395761353961562f565b60200260200101516020015160e01b905060005b60048110156135b0578181600481106135685761356861562f565b1a60f81b866135778388615a19565b815181106135875761358761562f565b60200101906001600160f81b031916908160001a905350806135a881615557565b91505061354d565b506135bc600485615a19565b9350600060f81b8585815181106135d5576135d561562f565b60200101906001600160f81b031916908160001a9053506135f7600185615a19565b93506000886020015183815181106136115761361161562f565b60200260200101516060015160e01b905060005b6004811015613688578181600481106136405761364061562f565b1a60f81b8761364f8389615a19565b8151811061365f5761365f61562f565b60200101906001600160f81b031916908160001a9053508061368081615557565b915050613625565b50613694600486615a19565b9450505080806136a390615557565b91505061347f565b506136bc8660400151518484614110565b6136c69083615a19565b915060005b8660400151518110156138a6576000876040015182815181106136f0576136f061562f565b60200260200101516000015160c01b905060005b60088110156137675781816008811061371f5761371f61562f565b1a60f81b8661372e8388615a19565b8151811061373e5761373e61562f565b60200101906001600160f81b031916908160001a9053508061375f81615557565b915050613704565b50613773600885615a19565b93506137a28860400151838151811061378e5761378e61562f565b602002602001015160200151518686614110565b6137ac9085615a19565b935060005b886040015183815181106137c7576137c761562f565b6020026020010151602001515181101561386157886040015183815181106137f1576137f161562f565b602002602001015160200151818151811061380e5761380e61562f565b01602001516001600160f81b031916866138288388615a19565b815181106138385761383861562f565b60200101906001600160f81b031916908160001a9053508061385981615557565b9150506137b1565b50876040015182815181106138785761387861562f565b60200260200101516020015151846138909190615a19565b935050808061389e90615557565b9150506136cb565b50606086015160e01b60005b6004811015613915578181600481106138cd576138cd61562f565b1a60f81b856138dc8387615a19565b815181106138ec576138ec61562f565b60200101906001600160f81b031916908160001a9053508061390d81615557565b9150506138b2565b50929695505050505050565b6000805460208301516040516326415b0f60e21b81526001600160a01b0391821660048201528392839216906399056c3c90602401600060405180830381865afa158015613973573d6000803e3d6000fd5b505050506040513d6000823e601f3d908101601f1916820160405261399b9190810190615853565b90506000846060015142116139be5760408501516139b9904261552b565b6139d2565b846040015185606001516139d2919061552b565b905060006139e98660200151846020015184612f8f565b90508560e001518111156139fe575060e08501515b6002546040805163286e9cd160e21b81529051600092612710926001600160a01b0390911691636dd5b69d91839163a1ba7344916004808201926020929091908290030181865afa158015613a57573d6000803e3d6000fd5b505050506040513d601f19601f82011682018060405250810190613a7b919061553e565b6040518263ffffffff1660e01b8152600401613a9991815260200190565b602060405180830381865afa158015613ab6573d6000803e3d6000fd5b505050506040513d601f19601f82011682018060405250810190613ada919061553e565b613ae49084615a2c565b613aee9190615a43565b90506000613afc828461552b565b90506000600260009054906101000a90046001600160a01b03166001600160a01b0316638b6570a06040518163ffffffff1660e01b8152600401602060405180830381865afa158015613b53573d6000803e3d6000fd5b505050506040513d601f19601f82011682018060405250810190613b779190615abf565b90506000816001600160a01b03168460405160006040518083038185875af1925050503d8060008114613bc6576040519150601f19603f3d011682016040523d82523d6000602084013e613bcb565b606091505b5050905080613c1157604080518082018252600f81526e151c985b9cd9995c8819985a5b1959608a1b6020820152905162461bcd60e51b81526104f79190600401615381565b6000876101e001516001600160a01b03168460405160006040518083038185875af1925050503d8060008114613c63576040519150601f19603f3d011682016040523d82523d6000602084013e613c68565b606091505b5050905080613cae57604080518082018252600f81526e151c985b9cd9995c8819985a5b1959608a1b6020820152905162461bcd60e51b81526104f79190600401615381565b6000868c60e00151613cc0919061552b565b90508015613d63578b516040516000916001600160a01b03169083908381818185875af1925050503d8060008114613d14576040519150601f19603f3d011682016040523d82523d6000602084013e613d19565b606091505b5050905080613d615760408051808201825260118152701b9bc81c9958d95a5d99481b595d1a1bd9607a1b6020820152905162461bcd60e51b81526104f79190600401615381565b505b50929a93995092975050505050505050565b7ff0c57e16840df040f15088dc2f81fe391c3923bec73e23a9662efc9c229c6a0054600160401b900460ff1661131957604051631afcd79f60e31b815260040160405180910390fd5b612f7b613d75565b6129de613d75565b60008183613ddd826002615a19565b11613e59576000858585818110613df657613df661562f565b919091013560f81c9150600090508686613e11876001615a19565b818110613e2057613e2061562f565b919091013560f81c91505060ff8216158015613e3f575060ff81166001145b15613e565760019350613e53600284615a19565b92505b50505b935093915050565b60606000806000613e73878787614376565b9092509050613e828186615a19565b9250816001600160401b03811115613e9c57613e9c6153f0565b604051908082528060200260200182016040528015613eef57816020015b60408051608081018252600080825260208083018290526060938301849052928201528252600019909201910181613eba5790505b50935060005b82811015613f4e57600080613f0b8a8a88614606565b9150915081878481518110613f2257613f2261562f565b6020908102919091010152613f378187615a19565b955050508080613f4690615557565b915050613ef5565b505050935093915050565b60606000806000613f6b878787614376565b9092509050613f7a8186615a19565b9250816001600160401b03811115613f9457613f946153f0565b604051908082528060200260200182016040528015613fda57816020015b604080518082019091526000815260606020820152815260200190600190039081613fb25790505b50935060005b82811015613f4e57600080613ff68a8a88614896565b915091508187848151811061400d5761400d61562f565b60209081029190910101526140228187615a19565b95505050808061403190615557565b915050613fe0565b8160005b828110156140c357600080614053888886614376565b90925090506140628185615a19565b935060005b828110156140ad5760008061407d8b8b89614376565b909250905061408c8282615a19565b6140969088615a19565b9650505080806140a590615557565b915050614067565b50505080806140bb90615557565b91505061403d565b50949350505050565b600060fc8210156140df57506001919050565b61ffff82116140f057506003919050565b63ffffffff821161410357506005919050565b506009919050565b919050565b600060fc841015614151578360f81b8383815181106141315761413161562f565b60200101906001600160f81b031916908160001a90535060019050613033565b61ffff841161420b5760fd60f81b8383815181106141715761417161562f565b60200101906001600160f81b031916908160001a90535060f084901b8060001a60f81b846141a0856001615a19565b815181106141b0576141b061562f565b60200101906001600160f81b031916908160001a9053508060011a60f81b846141da856002615a19565b815181106141ea576141ea61562f565b60200101906001600160f81b031916908160001a9053506003915050613033565b63ffffffff84116142c65760fe60f81b83838151811061422d5761422d61562f565b60200101906001600160f81b031916908160001a90535060e084901b60005b60048110156142bb578181600481106142675761426761562f565b1a60f81b8582614278876001615a19565b6142829190615a19565b815181106142925761429261562f565b60200101906001600160f81b031916908160001a905350806142b381615557565b91505061424c565b506005915050613033565b60ff60f81b8383815181106142dd576142dd61562f565b60200101906001600160f81b031916908160001a90535060c084901b60005b600881101561436b578181600881106143175761431761562f565b1a60f81b8582614328876001615a19565b6143329190615a19565b815181106143425761434261562f565b60200101906001600160f81b031916908160001a9053508061436381615557565b9150506142fc565b506009915050613033565b6000808383106143b95760408051808201825260178152600080516020615b298339815191526020820152905162461bcd60e51b81526104f79190600401615381565b60008585858181106143cd576143cd61562f565b919091013560f81c91505060fc8110156143ef5760ff16915060019050613e59565b60fc1960ff8216016144a35784614407856003615a19565b11156144465760408051808201825260178152600080516020615b298339815191526020820152905162461bcd60e51b81526104f79190600401615381565b61449286868080601f01602080910402602001604051908101604052809392919081815260200183838082843760009201919091525061448d925088915060019050615a19565b6149f5565b61ffff16925060039150613e599050565b60fd1960ff82160161455957846144bb856005615a19565b11156144fa5760408051808201825260178152600080516020615b298339815191526020820152905162461bcd60e51b81526104f79190600401615381565b61454686868080601f016020809104026020016040519081016040528093929190818152602001838380828437600092019190915250614541925088915060019050615a19565b614aae565b63ffffffff16925060059150613e599050565b84614565856009615a19565b11156145a45760408051808201825260178152600080516020615b298339815191526020820152905162461bcd60e51b81526104f79190600401615381565b6145f086868080601f0160208091040260200160405190810160405280939291908181526020018383808284376000920191909152506145eb925088915060019050615a19565b614bb9565b6001600160401b0316925060099150613e599050565b604080516080810182526000808252602082018190526060928201839052918101919091526000828461463a826020615a19565b11156146795760408051808201825260178152600080516020615b298339815191526020820152905162461bcd60e51b81526104f79190600401615381565b858486614687826020615a19565b9261469493929190615a65565b61469d91615adc565b83526146aa602085615a19565b9350846146b8856004615a19565b11156146f75760408051808201825260178152600080516020615b298339815191526020820152905162461bcd60e51b81526104f79190600401615381565b858486614705826004615a19565b9261471293929190615a65565b61471b91615a8f565b60e01c602084015261472e600485615a19565b935060008061473e888888614376565b909250905061474d8187615a19565b95508661475a8388615a19565b11156147995760408051808201825260178152600080516020615b298339815191526020820152905162461bcd60e51b81526104f79190600401615381565b8786886147a68583615a19565b926147b393929190615a65565b8080601f01602080910402602001604051908101604052809392919081815260200183838082843760009201919091525050505060408601526147f68287615a19565b955086614804876004615a19565b11156148435760408051808201825260178152600080516020615b298339815191526020820152905162461bcd60e51b81526104f79190600401615381565b878688614851826004615a19565b9261485e93929190615a65565b61486791615a8f565b60e01c606086015261487a600487615a19565b955084614887848861552b565b94509450505050935093915050565b604080518082019091526000815260606020820152600082846148ba826008615a19565b11156148f95760408051808201825260178152600080516020615b298339815191526020820152905162461bcd60e51b81526104f79190600401615381565b858486614907826008615a19565b9261491493929190615a65565b61491d91615afa565b60c01c835261492d600885615a19565b935060008061493d888888614376565b909250905061494c8187615a19565b9550866149598388615a19565b11156149985760408051808201825260178152600080516020615b298339815191526020820152905162461bcd60e51b81526104f79190600401615381565b8786886149a58583615a19565b926149b293929190615a65565b8080601f016020809104026020016040519081016040528093929190818152602001838380828437600092019190915250505050602086015261487a8287615a19565b8151600090614a05836002615a19565b1115614a635760405162461bcd60e51b815260206004820152602760248201527f4254435574696c733a20696e73756666696369656e7420627974657320666f72604482015266103ab4b73a189b60c91b60648201526084016104f7565b828281518110614a7557614a7561562f565b016020015160f81c600884614a8b856001615a19565b81518110614a9b57614a9b61562f565b016020015160f81c901b17905092915050565b8151600090614abe836004615a19565b1115614b1c5760405162461bcd60e51b815260206004820152602760248201527f4254435574696c733a20696e73756666696369656e7420627974657320666f72604482015266103ab4b73a199960c91b60648201526084016104f7565b828281518110614b2e57614b2e61562f565b016020015160f81c600884614b44856001615a19565b81518110614b5457614b5461562f565b016020015160f81c901b601085614b6c866002615a19565b81518110614b7c57614b7c61562f565b016020015160f81c901b601886614b94876003615a19565b81518110614ba457614ba461562f565b016020015160f81c901b171717905092915050565b8151600090614bc9836008615a19565b1115614c275760405162461bcd60e51b815260206004820152602760248201527f4254435574696c733a20696e73756666696369656e7420627974657320666f72604482015266081d5a5b9d0d8d60ca1b60648201526084016104f7565b828281518110614c3957614c3961562f565b016020015160f81c600884614c4f856001615a19565b81518110614c5f57614c5f61562f565b016020015160f81c901b601085614c77866002615a19565b81518110614c8757614c8761562f565b016020015160f81c901b601886614c9f876003615a19565b81518110614caf57614caf61562f565b0160209081015160f81c90911b9087614cc9886004615a19565b81518110614cd957614cd961562f565b016020015160f81c901b602888614cf1896005615a19565b81518110614d0157614d0161562f565b016020015160f81c901b603089614d198a6006615a19565b81518110614d2957614d2961562f565b016020015160f81c901b60388a614d418b6007615a19565b81518110614d5157614d5161562f565b016020015160f81c901b17171717171717905092915050565b60408051610180810182526000808252602082018190529181018290526060808201839052608082015260a081018290529060c08201908152602001600081526020016060815260200160006001600160a01b0316815260200160006001600160a01b03168152602001606081525090565b5080546000825560040290600052602060002090810190612a1191905b80821115614e3257600080825560018201805463ffffffff19169055614e226002830182614e36565b5060006003820155600401614df9565b5090565b508054614e4290615394565b6000825580601f10614e52575050565b601f016020900490600052602060002090810190612a1191905b80821115614e325760008155600101614e6c565b6001600160a01b0381168114612a1157600080fd5b600060208284031215614ea757600080fd5b813561303381614e80565b600060208284031215614ec457600080fd5b5035919050565b60005b83811015614ee6578181015183820152602001614ece565b50506000910152565b60008151808452614f07816020860160208601614ecb565b601f01601f19169290920160200192915050565b634e487b7160e01b600052602160045260246000fd5b60068110614f4f57634e487b7160e01b600052602160045260246000fd5b9052565b600082825180855260208086019550808260051b84010181860160005b84811015614fd057601f19868403018952815160808151855263ffffffff8683015116868601526040808301518282880152614fae83880182614eef565b6060948501519790940196909652505098840198925090830190600101614f70565b5090979650505050505050565b60208152614ff76020820183516001600160a01b03169052565b6000602083015161501360408401826001600160a01b03169052565b50604083015160608301526060830151608083015260808301516101808060a08501526150446101a0850183614eef565b915060a085015160c085015260c085015161506260e0860182614f31565b5060e0850151610100818187015280870151915050601f196101208187860301818801526150908584614eef565b9450808801519250506101406150b0818801846001600160a01b03169052565b87015191506101606150cc878201846001600160a01b03169052565b8701518685039091018387015290506150e58382614f53565b9695505050505050565b60008083601f84011261510157600080fd5b5081356001600160401b0381111561511857600080fd5b602083019150836020828501011115612f3c57600080fd5b60008060006040848603121561514557600080fd5b8335925060208401356001600160401b0381111561516257600080fd5b61516e868287016150ef565b9497909650939450505050565b600061016060018060a01b03808f168452808e1660208501528c60408501528b60608501528160808501526151b28285018c614eef565b91508960a08501526151c760c085018a614f31565b8760e08501528382036101008501526151e08288614eef565b925080861661012085015280851661014085015250509c9b505050505050505050505050565b60008060008060006080868803121561521e57600080fd5b85356001600160401b038082111561523557600080fd5b818801915088601f83011261524957600080fd5b81358181111561525857600080fd5b8960208260051b850101111561526d57600080fd5b6020928301975095505086013561528381614e80565b925060408601359150606086013561529a81614e80565b809150509295509295909350565b600080604083850312156152bb57600080fd5b8235915060208301356152cd81614e80565b809150509250929050565b6000806000606084860312156152ed57600080fd5b83356152f881614e80565b9250602084013561530881614e80565b9150604084013561531881614e80565b809150509250925092565b6000806000806060858703121561533957600080fd5b8435935060208501356001600160401b0381111561535657600080fd5b615362878288016150ef565b909450925050604085013561537681614e80565b939692955090935050565b6020815260006130336020830184614eef565b600181811c908216806153a857607f821691505b6020821081036153c857634e487b7160e01b600052602260045260246000fd5b50919050565b6000602082840312156153e057600080fd5b8151801515811461303357600080fd5b634e487b7160e01b600052604160045260246000fd5b601f82111561545057600081815260208120601f850160051c8101602086101561542d5750805b601f850160051c820191505b8181101561544c57828155600101615439565b5050505b505050565b6001600160401b0383111561546c5761546c6153f0565b6154808361547a8354615394565b83615406565b6000601f8411600181146154b4576000851561549c5750838201355b600019600387901b1c1916600186901b17835561550e565b600083815260209020601f19861690835b828110156154e557868501358255602094850194600190920191016154c5565b50868210156155025760001960f88860031b161c19848701351681555b505060018560011b0183555b5050505050565b634e487b7160e01b600052601160045260246000fd5b8181038181111561210657612106615515565b60006020828403121561555057600080fd5b5051919050565b60006001820161556957615569615515565b5060010190565b81516001600160401b03811115615589576155896153f0565b61559d816155978454615394565b84615406565b602080601f8311600181146155d257600084156155ba5750858301515b600019600386901b1c1916600185901b17855561544c565b600085815260208120601f198616915b82811015615601578886015182559484019460019091019084016155e2565b508582101561561f5787850151600019600388901b60f8161c191681555b5050505050600190811b01905550565b634e487b7160e01b600052603260045260246000fd5b60008235607e1983360301811261565b57600080fd5b9190910192915050565b8135815560018101602083013563ffffffff811680821461568557600080fd5b825463ffffffff19161790915550604082013536839003601e190181126156ab57600080fd5b820180356001600160401b038111156156c357600080fd5b6020820191508036038213156156d857600080fd5b6156e6818360028601615455565b5050606082013560038201555050565b60405161022081016001600160401b0381118282101715615719576157196153f0565b60405290565b604051601f8201601f191681016001600160401b0381118282101715615747576157476153f0565b604052919050565b805161410b81614e80565b80516005811061410b57600080fd5b600082601f83011261577a57600080fd5b815160206001600160401b03821115615795576157956153f0565b8160051b6157a482820161571f565b92835284810182019282810190878511156157be57600080fd5b83870192505b848310156157dd578251825291830191908301906157c4565b979650505050505050565b600082601f8301126157f957600080fd5b81516001600160401b03811115615812576158126153f0565b615825601f8201601f191660200161571f565b81815284602083860101111561583a57600080fd5b61584b826020830160208701614ecb565b949350505050565b60006020828403121561586557600080fd5b81516001600160401b038082111561587c57600080fd5b90830190610220828603121561589157600080fd5b6158996156f6565b6158a28361574f565b815260208301516020820152604083015160408201526158c46060840161575a565b60608201526080830151608082015260a083015160a08201526158e960c0840161574f565b60c08201526158fa60e0840161574f565b60e0820152610100808401518381111561591357600080fd5b61591f88828701615769565b82840152505061012061593381850161574f565b90820152610140838101518381111561594b57600080fd5b615957888287016157e8565b828401525050610160808401518381111561597157600080fd5b61597d888287016157e8565b8284015250506101808084015181830152506101a080840151838111156159a357600080fd5b6159af888287016157e8565b8284015250506101c080840151838111156159c957600080fd5b6159d5888287016157e8565b8284015250506101e091506159eb82840161574f565b9181019190915261020091820151918101919091529392505050565b6000825161565b818460208701614ecb565b8082018082111561210657612106615515565b808202811582820484141761210657612106615515565b600082615a6057634e487b7160e01b600052601260045260246000fd5b500490565b60008085851115615a7557600080fd5b83861115615a8257600080fd5b5050820193919092039150565b6001600160e01b03198135818116916004851015615ab75780818660040360031b1b83161692505b505092915050565b600060208284031215615ad157600080fd5b815161303381614e80565b8035602083101561210657600019602084900360031b1b1692915050565b6001600160c01b03198135818116916008851015615ab75760089490940360031b84901b169092169291505056fe496e76616c696420425443207472616e73616374696f6e0000000000000000009b779b17422d0df92223018b32b4d1fa46e071723d6817e2486d003becc55f00a2646970667358221220f66a6aa1956edffcd04d3f4abbde19f0821b6faf542efc47644dd10b7c45091c64736f6c63430008140033",
  "linkReferences": {},
  "deployedLinkReferences": {}
}