{
  "_format": "hh-sol-artifact-1",
  "contractName": "TransactionManager",
  "sourceName": "contracts/core/TransactionManager.sol",
  "abi": [
    {
      "inputs": [],
      "stateMutability": "nonpayable",
      "type": "constructor"
    },
    {
      "inputs": [],
      "name": "InvalidInitialization",
      "type": "error"
    },
    {
      "inputs": [],
      "name": "NotInitializing",
      "type": "error"
    },
    {
      "inputs": [
        {
          "internalType": "address",
          "name": "owner",
          "type": "address"
        }
      ],
      "name": "OwnableInvalidOwner",
      "type": "error"
    },
    {
      "inputs": [
        {
          "internalType": "address",
          "name": "account",
          "type": "address"
        }
      ],
      "name": "OwnableUnauthorizedAccount",
      "type": "error"
    },
    {
      "inputs": [],
      "name": "ReentrancyGuardReentrantCall",
      "type": "error"
    },
    {
      "anonymous": false,
      "inputs": [
        {
          "indexed": true,
          "internalType": "address",
          "name": "dapp",
          "type": "address"
        },
        {
          "indexed": true,
          "internalType": "bytes32",
          "name": "txId",
          "type": "bytes32"
        },
        {
          "indexed": false,
          "internalType": "bytes",
          "name": "btcTx",
          "type": "bytes"
        },
        {
          "indexed": false,
          "internalType": "bytes",
          "name": "script",
          "type": "bytes"
        },
        {
          "indexed": false,
          "internalType": "address",
          "name": "arbitrator",
          "type": "address"
        }
      ],
      "name": "ArbitrationRequested",
      "type": "event"
    },
    {
      "anonymous": false,
      "inputs": [
        {
          "indexed": true,
          "internalType": "address",
          "name": "dapp",
          "type": "address"
        },
        {
          "indexed": true,
          "internalType": "bytes32",
          "name": "txId",
          "type": "bytes32"
        }
      ],
      "name": "ArbitrationSubmitted",
      "type": "event"
    },
    {
      "anonymous": false,
      "inputs": [
        {
          "indexed": true,
          "internalType": "address",
          "name": "compensationManager",
          "type": "address"
        }
      ],
      "name": "CompensationManagerInitialized",
      "type": "event"
    },
    {
      "anonymous": false,
      "inputs": [
        {
          "indexed": false,
          "internalType": "uint64",
          "name": "version",
          "type": "uint64"
        }
      ],
      "name": "Initialized",
      "type": "event"
    },
    {
      "anonymous": false,
      "inputs": [
        {
          "indexed": true,
          "internalType": "address",
          "name": "previousOwner",
          "type": "address"
        },
        {
          "indexed": true,
          "internalType": "address",
          "name": "newOwner",
          "type": "address"
        }
      ],
      "name": "OwnershipTransferred",
      "type": "event"
    },
    {
      "anonymous": false,
      "inputs": [
        {
          "indexed": true,
          "internalType": "address",
          "name": "arbitratorManager",
          "type": "address"
        }
      ],
      "name": "SetArbitratorManager",
      "type": "event"
    },
    {
      "anonymous": false,
      "inputs": [
        {
          "indexed": true,
          "internalType": "bytes32",
          "name": "id",
          "type": "bytes32"
        }
      ],
      "name": "TransactionCancelled",
      "type": "event"
    },
    {
      "anonymous": false,
      "inputs": [
        {
          "indexed": true,
          "internalType": "address",
          "name": "dapp",
          "type": "address"
        },
        {
          "indexed": true,
          "internalType": "bytes32",
          "name": "txId",
          "type": "bytes32"
        }
      ],
      "name": "TransactionCompleted",
      "type": "event"
    },
    {
      "anonymous": false,
      "inputs": [
        {
          "indexed": true,
          "internalType": "bytes32",
          "name": "id",
          "type": "bytes32"
        },
        {
          "indexed": true,
          "internalType": "address",
          "name": "sender",
          "type": "address"
        },
        {
          "indexed": true,
          "internalType": "address",
          "name": "arbitrator",
          "type": "address"
        }
      ],
      "name": "TransactionCreated",
      "type": "event"
    },
    {
      "anonymous": false,
      "inputs": [
        {
          "indexed": true,
          "internalType": "bytes32",
          "name": "id",
          "type": "bytes32"
        },
        {
          "indexed": true,
          "internalType": "address",
          "name": "dapp",
          "type": "address"
        },
        {
          "indexed": true,
          "internalType": "address",
          "name": "arbitrator",
          "type": "address"
        },
        {
          "indexed": false,
          "internalType": "uint256",
          "name": "deadline",
          "type": "uint256"
        },
        {
          "indexed": false,
          "internalType": "uint256",
          "name": "depositFee",
          "type": "uint256"
        }
      ],
      "name": "TransactionRegistered",
      "type": "event"
    },
    {
      "inputs": [],
      "name": "arbitratorManager",
      "outputs": [
        {
          "internalType": "contract IArbitratorManager",
          "name": "",
          "type": "address"
        }
      ],
      "stateMutability": "view",
      "type": "function"
    },
    {
      "inputs": [],
      "name": "compensationManager",
      "outputs": [
        {
          "internalType": "address",
          "name": "",
          "type": "address"
        }
      ],
      "stateMutability": "view",
      "type": "function"
    },
    {
      "inputs": [
        {
          "internalType": "bytes32",
          "name": "id",
          "type": "bytes32"
        }
      ],
      "name": "completeTransaction",
      "outputs": [],
      "stateMutability": "nonpayable",
      "type": "function"
    },
    {
      "inputs": [],
      "name": "configManager",
      "outputs": [
        {
          "internalType": "contract ConfigManager",
          "name": "",
          "type": "address"
        }
      ],
      "stateMutability": "view",
      "type": "function"
    },
    {
      "inputs": [],
      "name": "dappRegistry",
      "outputs": [
        {
          "internalType": "contract IDAppRegistry",
          "name": "",
          "type": "address"
        }
      ],
      "stateMutability": "view",
      "type": "function"
    },
    {
      "inputs": [
        {
          "internalType": "uint256",
          "name": "deadline",
          "type": "uint256"
        },
        {
          "internalType": "address",
          "name": "arbitrator",
          "type": "address"
        }
      ],
      "name": "getRegisterTransactionFee",
      "outputs": [
        {
          "internalType": "uint256",
          "name": "fee",
          "type": "uint256"
        }
      ],
      "stateMutability": "view",
      "type": "function"
    },
    {
      "inputs": [
        {
          "internalType": "bytes32",
          "name": "txHash",
          "type": "bytes32"
        }
      ],
      "name": "getTransaction",
      "outputs": [
        {
          "components": [
            {
              "internalType": "address",
              "name": "dapp",
              "type": "address"
            },
            {
              "internalType": "address",
              "name": "arbitrator",
              "type": "address"
            },
            {
              "internalType": "uint256",
              "name": "startTime",
              "type": "uint256"
            },
            {
              "internalType": "uint256",
              "name": "deadline",
              "type": "uint256"
            },
            {
              "internalType": "bytes",
              "name": "btcTx",
              "type": "bytes"
            },
            {
              "internalType": "bytes32",
              "name": "btcTxHash",
              "type": "bytes32"
            },
            {
              "internalType": "enum DataTypes.TransactionStatus",
              "name": "status",
              "type": "uint8"
            },
            {
              "internalType": "uint256",
              "name": "depositedFee",
              "type": "uint256"
            },
            {
              "internalType": "bytes",
              "name": "signature",
              "type": "bytes"
            },
            {
              "internalType": "address",
              "name": "compensationReceiver",
              "type": "address"
            },
            {
              "internalType": "address",
              "name": "timeoutCompensationReceiver",
              "type": "address"
            },
            {
              "components": [
                {
                  "internalType": "bytes32",
                  "name": "txHash",
                  "type": "bytes32"
                },
                {
                  "internalType": "uint32",
                  "name": "index",
                  "type": "uint32"
                },
                {
                  "internalType": "bytes",
                  "name": "script",
                  "type": "bytes"
                },
                {
                  "internalType": "uint256",
                  "name": "amount",
                  "type": "uint256"
                }
              ],
              "internalType": "struct DataTypes.UTXO[]",
              "name": "utxos",
              "type": "tuple[]"
            },
            {
              "internalType": "bytes",
              "name": "script",
              "type": "bytes"
            }
          ],
          "internalType": "struct DataTypes.Transaction",
          "name": "",
          "type": "tuple"
        }
      ],
      "stateMutability": "view",
      "type": "function"
    },
    {
      "inputs": [
        {
          "internalType": "bytes32",
          "name": "id",
          "type": "bytes32"
        }
      ],
      "name": "getTransactionById",
      "outputs": [
        {
          "components": [
            {
              "internalType": "address",
              "name": "dapp",
              "type": "address"
            },
            {
              "internalType": "address",
              "name": "arbitrator",
              "type": "address"
            },
            {
              "internalType": "uint256",
              "name": "startTime",
              "type": "uint256"
            },
            {
              "internalType": "uint256",
              "name": "deadline",
              "type": "uint256"
            },
            {
              "internalType": "bytes",
              "name": "btcTx",
              "type": "bytes"
            },
            {
              "internalType": "bytes32",
              "name": "btcTxHash",
              "type": "bytes32"
            },
            {
              "internalType": "enum DataTypes.TransactionStatus",
              "name": "status",
              "type": "uint8"
            },
            {
              "internalType": "uint256",
              "name": "depositedFee",
              "type": "uint256"
            },
            {
              "internalType": "bytes",
              "name": "signature",
              "type": "bytes"
            },
            {
              "internalType": "address",
              "name": "compensationReceiver",
              "type": "address"
            },
            {
              "internalType": "address",
              "name": "timeoutCompensationReceiver",
              "type": "address"
            },
            {
              "components": [
                {
                  "internalType": "bytes32",
                  "name": "txHash",
                  "type": "bytes32"
                },
                {
                  "internalType": "uint32",
                  "name": "index",
                  "type": "uint32"
                },
                {
                  "internalType": "bytes",
                  "name": "script",
                  "type": "bytes"
                },
                {
                  "internalType": "uint256",
                  "name": "amount",
                  "type": "uint256"
                }
              ],
              "internalType": "struct DataTypes.UTXO[]",
              "name": "utxos",
              "type": "tuple[]"
            },
            {
              "internalType": "bytes",
              "name": "script",
              "type": "bytes"
            }
          ],
          "internalType": "struct DataTypes.Transaction",
          "name": "",
          "type": "tuple"
        }
      ],
      "stateMutability": "view",
      "type": "function"
    },
    {
      "inputs": [
        {
          "internalType": "address",
          "name": "_compensationManager",
          "type": "address"
        }
      ],
      "name": "initCompensationManager",
      "outputs": [],
      "stateMutability": "nonpayable",
      "type": "function"
    },
    {
      "inputs": [
        {
          "internalType": "address",
          "name": "_arbitratorManager",
          "type": "address"
        },
        {
          "internalType": "address",
          "name": "_dappRegistry",
          "type": "address"
        },
        {
          "internalType": "address",
          "name": "_configManager",
          "type": "address"
        }
      ],
      "name": "initialize",
      "outputs": [],
      "stateMutability": "nonpayable",
      "type": "function"
    },
    {
      "inputs": [
        {
          "internalType": "bytes32",
          "name": "id",
          "type": "bytes32"
        }
      ],
      "name": "isAbleCompletedTransaction",
      "outputs": [
        {
          "internalType": "bool",
          "name": "",
          "type": "bool"
        }
      ],
      "stateMutability": "view",
      "type": "function"
    },
    {
      "inputs": [],
      "name": "owner",
      "outputs": [
        {
          "internalType": "address",
          "name": "",
          "type": "address"
        }
      ],
      "stateMutability": "view",
      "type": "function"
    },
    {
      "inputs": [
        {
          "components": [
            {
              "internalType": "bytes32",
              "name": "txHash",
              "type": "bytes32"
            },
            {
              "internalType": "uint32",
              "name": "index",
              "type": "uint32"
            },
            {
              "internalType": "bytes",
              "name": "script",
              "type": "bytes"
            },
            {
              "internalType": "uint256",
              "name": "amount",
              "type": "uint256"
            }
          ],
          "internalType": "struct DataTypes.UTXO[]",
          "name": "utxos",
          "type": "tuple[]"
        },
        {
          "internalType": "address",
          "name": "arbitrator",
          "type": "address"
        },
        {
          "internalType": "uint256",
          "name": "deadline",
          "type": "uint256"
        },
        {
          "internalType": "address",
          "name": "compensationReceiver",
          "type": "address"
        }
      ],
      "name": "registerTransaction",
      "outputs": [
        {
          "internalType": "bytes32",
          "name": "",
          "type": "bytes32"
        }
      ],
      "stateMutability": "payable",
      "type": "function"
    },
    {
      "inputs": [],
      "name": "renounceOwnership",
      "outputs": [],
      "stateMutability": "nonpayable",
      "type": "function"
    },
    {
      "inputs": [
        {
          "internalType": "bytes32",
          "name": "id",
          "type": "bytes32"
        },
        {
          "internalType": "bytes",
          "name": "btcTx",
          "type": "bytes"
        },
        {
          "internalType": "bytes",
          "name": "script",
          "type": "bytes"
        },
        {
          "internalType": "address",
          "name": "timeoutCompensationReceiver",
          "type": "address"
        }
      ],
      "name": "requestArbitration",
      "outputs": [],
      "stateMutability": "nonpayable",
      "type": "function"
    },
    {
      "inputs": [
        {
          "internalType": "address",
          "name": "_arbitratorManager",
          "type": "address"
        }
      ],
      "name": "setArbitratorManager",
      "outputs": [],
      "stateMutability": "nonpayable",
      "type": "function"
    },
    {
      "inputs": [
        {
          "internalType": "bytes32",
          "name": "id",
          "type": "bytes32"
        },
        {
          "internalType": "bytes",
          "name": "btcTxSignature",
          "type": "bytes"
        }
      ],
      "name": "submitArbitration",
      "outputs": [],
      "stateMutability": "nonpayable",
      "type": "function"
    },
    {
      "inputs": [
        {
          "internalType": "bytes32",
          "name": "",
          "type": "bytes32"
        }
      ],
      "name": "transactions",
      "outputs": [
        {
          "internalType": "address",
          "name": "dapp",
          "type": "address"
        },
        {
          "internalType": "address",
          "name": "arbitrator",
          "type": "address"
        },
        {
          "internalType": "uint256",
          "name": "startTime",
          "type": "uint256"
        },
        {
          "internalType": "uint256",
          "name": "deadline",
          "type": "uint256"
        },
        {
          "internalType": "bytes",
          "name": "btcTx",
          "type": "bytes"
        },
        {
          "internalType": "bytes32",
          "name": "btcTxHash",
          "type": "bytes32"
        },
        {
          "internalType": "enum DataTypes.TransactionStatus",
          "name": "status",
          "type": "uint8"
        },
        {
          "internalType": "uint256",
          "name": "depositedFee",
          "type": "uint256"
        },
        {
          "internalType": "bytes",
          "name": "signature",
          "type": "bytes"
        },
        {
          "internalType": "address",
          "name": "compensationReceiver",
          "type": "address"
        },
        {
          "internalType": "address",
          "name": "timeoutCompensationReceiver",
          "type": "address"
        },
        {
          "internalType": "bytes",
          "name": "script",
          "type": "bytes"
        }
      ],
      "stateMutability": "view",
      "type": "function"
    },
    {
      "inputs": [
        {
          "internalType": "bytes32",
          "name": "id",
          "type": "bytes32"
        }
      ],
      "name": "transferArbitrationFee",
      "outputs": [
        {
          "internalType": "uint256",
          "name": "arbitratorFee",
          "type": "uint256"
        },
        {
          "internalType": "uint256",
          "name": "systemFee",
          "type": "uint256"
        }
      ],
      "stateMutability": "nonpayable",
      "type": "function"
    },
    {
      "inputs": [
        {
          "internalType": "address",
          "name": "newOwner",
          "type": "address"
        }
      ],
      "name": "transferOwnership",
      "outputs": [],
      "stateMutability": "nonpayable",
      "type": "function"
    },
    {
      "inputs": [
        {
          "internalType": "bytes32",
          "name": "",
          "type": "bytes32"
        }
      ],
      "name": "txHashToId",
      "outputs": [
        {
          "internalType": "bytes32",
          "name": "",
          "type": "bytes32"
        }
      ],
      "stateMutability": "view",
      "type": "function"
    }
  ],
  "bytecode": "0x60806040523480156200001157600080fd5b506200001c62000022565b620000d6565b7ff0c57e16840df040f15088dc2f81fe391c3923bec73e23a9662efc9c229c6a00805468010000000000000000900460ff1615620000735760405163f92ee8a960e01b815260040160405180910390fd5b80546001600160401b0390811614620000d35780546001600160401b0319166001600160401b0390811782556040519081527fc7f505b2f371ae2175ee4913f4499e1f2633a7b5936321eed1cdaeb6115181d29060200160405180910390a15b50565b615fcf80620000e66000396000f3fe60806040526004361061010a5760003560e01c8063759787c41161009b578063759787c4146102a65780638da5cb5b146102c65780639100c062146102db578063a130312a146102fc578063a71571901461031c578063a890b7b41461033c578063c0c53b8b1461035c578063c1ce47d21461037c578063ca0ab075146103a9578063de0ca166146103c9578063f2fde38b146103e957600080fd5b80630433e9041461010f5780630559b877146101315780632c7e8ca314610167578063350a07ea146101875780634aae13ca146101a75780634e4f0ec4146101d4578063520936b5146101f4578063642f2eaf14610224578063715018a61461025c5780637577b6df14610271575b600080fd5b34801561011b57600080fd5b5061012f61012a3660046151fb565b610409565b005b34801561013d57600080fd5b50600654610151906001600160a01b031681565b60405161015e9190615293565b60405180910390f35b34801561017357600080fd5b5061012f6101823660046152a7565b6107bc565b34801561019357600080fd5b5061012f6101a23660046152a7565b61080c565b3480156101b357600080fd5b506101c76101c23660046152c4565b6108ac565b60405161015e91906153ef565b3480156101e057600080fd5b5061012f6101ef366004615501565b610ca6565b34801561020057600080fd5b5061021461020f3660046152c4565b611266565b604051901515815260200161015e565b34801561023057600080fd5b5061024461023f3660046152c4565b611698565b60405161015e9c9b9a9998979695949392919061554c565b34801561026857600080fd5b5061012f6118b3565b34801561027d57600080fd5b5061029161028c3660046152c4565b6118c7565b6040805192835260208301919091520161015e565b3480156102b257600080fd5b50600054610151906001600160a01b031681565b3480156102d257600080fd5b50610151611aa8565b6102ee6102e93660046155ec565b611ac3565b60405190815260200161015e565b34801561030857600080fd5b5061012f6103173660046152c4565b6122ba565b34801561032857600080fd5b506102ee61033736600461568e565b6123d3565b34801561034857600080fd5b506101c76103573660046152c4565b6126c3565b34801561036857600080fd5b5061012f6103773660046156be565b612a65565b34801561038857600080fd5b506102ee6103973660046152c4565b60046020526000908152604090205481565b3480156103b557600080fd5b50600254610151906001600160a01b031681565b3480156103d557600080fd5b50600154610151906001600160a01b031681565b3480156103f557600080fd5b5061012f6104043660046152a7565b612c7e565b610411612cbc565b6001600160a01b03811661046257604080518082018252600c81526b5a65726f206164647265737360a01b6020820152905162461bcd60e51b81526104599190600401615709565b60405180910390fd5b600086815260036020526040812090600682015460ff16600581111561048a5761048a61532d565b146104c857604080518082018252601a8152600080516020615f7a8339815191526020820152905162461bcd60e51b81526104599190600401615709565b80546001600160a01b0316331461051557604080518082018252600e81526d139bdd08185d5d1a1bdc9a5e995960921b6020820152905162461bcd60e51b81526104599190600401615709565b60006105218787612cf2565b600b8301546020820151519192501461057557604080518082018252601381527224b73b30b634b2103a3930b739b0b1ba34b7b760691b6020820152905162461bcd60e51b81526104599190600401615709565b60005b81602001515181101561068c5782600b01818154811061059a5761059a61571c565b906000526020600020906004020160000154826020015182815181106105c2576105c261571c565b602002602001015160000151141580610634575082600b0181815481106105eb576105eb61571c565b60009182526020918290206001600490920201015490830151805163ffffffff909216918390811061061f5761061f61571c565b60200260200101516020015163ffffffff1614155b1561067a57604080518082018252601381527224b73b30b634b2103a3930b739b0b1ba34b7b760691b6020820152905162461bcd60e51b81526104599190600401615709565b8061068481615748565b915050610578565b50600061069882612f17565b905060006002826040516106ac9190615761565b602060405180830381855afa1580156106c9573d6000803e3d6000fd5b5050506040513d601f19601f820116820180604052508101906106ec919061577d565b60068501805460ff1916600217905590506004840161070c898b83615846565b5060058401819055600a840180546001600160a01b0319166001600160a01b038716179055600c8401610740878983615846565b50600081815260046020526040908190208b90558454600186015491518c926001600160a01b03928316927f5a2c96db0313a2158eab2ef09596ac2c5b1f07aef1d48268523a21db7ca7aa48926107a0928f928f928f928f921690615929565b60405180910390a3505050506107b46135b8565b505050505050565b6107c46135c9565b600080546001600160a01b0319166001600160a01b038316908117825560405190917fa323f9f93bbee02edb5e1034969f6ef41fb674527d2ea7e9271ad206435b58f491a250565b6108146135c9565b6001600160a01b03811661085c57604080518082018252600c81526b5a65726f206164647265737360a01b6020820152905162461bcd60e51b81526104599190600401615709565b600680546001600160a81b0319166001600160a01b038316908117600160a01b179091556040517f3e89cfb4fcf3c219579a7287319c014b58f4ff0f30188fd1d661727cf54faae590600090a250565b6108b461505c565b6000828152600460205260409020548061090b576040805180820182526015815274151c985b9cd858dd1a5bdb881b9bdd08199bdd5b99605a1b6020820152905162461bcd60e51b81526104599190600401615709565b60008181526003602081815260409283902083516101a08101855281546001600160a01b0390811682526001830154169281019290925260028101549382019390935290820154606082015260048201805491929160808401919061096f906157ac565b80601f016020809104026020016040519081016040528092919081815260200182805461099b906157ac565b80156109e85780601f106109bd576101008083540402835291602001916109e8565b820191906000526020600020905b8154815290600101906020018083116109cb57829003601f168201915b50505091835250506005828101546020830152600683015460409092019160ff1690811115610a1957610a1961532d565b6005811115610a2a57610a2a61532d565b815260200160078201548152602001600882018054610a48906157ac565b80601f0160208091040260200160405190810160405280929190818152602001828054610a74906157ac565b8015610ac15780601f10610a9657610100808354040283529160200191610ac1565b820191906000526020600020905b815481529060010190602001808311610aa457829003601f168201915b505050918352505060098201546001600160a01b03908116602080840191909152600a840154909116604080840191909152600b84018054825181850281018501909352808352606090940193919290919060009084015b82821015610c04576000848152602090819020604080516080810182526004860290920180548352600181015463ffffffff169383019390935260028301805492939291840191610b69906157ac565b80601f0160208091040260200160405190810160405280929190818152602001828054610b95906157ac565b8015610be25780601f10610bb757610100808354040283529160200191610be2565b820191906000526020600020905b815481529060010190602001808311610bc557829003601f168201915b5050505050815260200160038201548152505081526020019060010190610b19565b505050508152602001600c82018054610c1c906157ac565b80601f0160208091040260200160405190810160405280929190818152602001828054610c48906157ac565b8015610c955780601f10610c6a57610100808354040283529160200191610c95565b820191906000526020600020905b815481529060010190602001808311610c7857829003601f168201915b505050505081525050915050919050565b60008381526003602052604090206002600682015460ff166005811115610ccf57610ccf61532d565b14610d0d57604080518082018252601a8152600080516020615f7a8339815191526020820152905162461bcd60e51b81526104599190600401615709565b604080516101a08101825282546001600160a01b03908116825260018401541660208201526002830154918101919091526003820154606082015260048201805461109892918491608084019190610d64906157ac565b80601f0160208091040260200160405190810160405280929190818152602001828054610d90906157ac565b8015610ddd5780601f10610db257610100808354040283529160200191610ddd565b820191906000526020600020905b815481529060010190602001808311610dc057829003601f168201915b50505091835250506005828101546020830152600683015460409092019160ff1690811115610e0e57610e0e61532d565b6005811115610e1f57610e1f61532d565b815260200160078201548152602001600882018054610e3d906157ac565b80601f0160208091040260200160405190810160405280929190818152602001828054610e69906157ac565b8015610eb65780601f10610e8b57610100808354040283529160200191610eb6565b820191906000526020600020905b815481529060010190602001808311610e9957829003601f168201915b505050918352505060098201546001600160a01b03908116602080840191909152600a840154909116604080840191909152600b84018054825181850281018501909352808352606090940193919290919060009084015b82821015610ff9576000848152602090819020604080516080810182526004860290920180548352600181015463ffffffff169383019390935260028301805492939291840191610f5e906157ac565b80601f0160208091040260200160405190810160405280929190818152602001828054610f8a906157ac565b8015610fd75780601f10610fac57610100808354040283529160200191610fd7565b820191906000526020600020905b815481529060010190602001808311610fba57829003601f168201915b5050505050815260200160038201548152505081526020019060010190610f0e565b505050508152602001600c82018054611011906157ac565b80601f016020809104026020016040519081016040528092919081815260200182805461103d906157ac565b801561108a5780601f1061105f5761010080835404028352916020019161108a565b820191906000526020600020905b81548152906001019060200180831161106d57829003601f168201915b5050505050815250506135fb565b156110e857604080518082018252601d81527f4f7574207375626d6974746564207369676e6174757265732074696d650000006020820152905162461bcd60e51b81526104599190600401615709565b6000546001820154604051630e70978b60e21b81526001600160a01b0391821660048201523360248201529116906339c25e2c90604401602060405180830381865afa15801561113c573d6000803e3d6000fd5b505050506040513d601f19601f82011682018060405250810190611160919061596b565b6111a057604080518082018252600e81526d139bdd08185d5d1a1bdc9a5e995960921b6020820152905162461bcd60e51b81526104599190600401615709565b60068101805460ff19166005179055600881016111be838583615846565b50600054600182015460405163069fa0a760e51b81526001600160a01b039283169263d3f414e0926111f592911690600401615293565b600060405180830381600087803b15801561120f57600080fd5b505af1158015611223573d6000803e3d6000fd5b505082546040518793506001600160a01b0390911691507fc5a53e8918a64b3e9944e2344fc4fdd4c8b33a433b3a696975c4996090b39f6190600090a350505050565b600081815260036020818152604080842081516101a08101835281546001600160a01b0390811682526001830154169381019390935260028101549183019190915291820154606082015260048201805484939160808401916112c8906157ac565b80601f01602080910402602001604051908101604052809291908181526020018280546112f4906157ac565b80156113415780601f1061131657610100808354040283529160200191611341565b820191906000526020600020905b81548152906001019060200180831161132457829003601f168201915b50505091835250506005828101546020830152600683015460409092019160ff16908111156113725761137261532d565b60058111156113835761138361532d565b8152602001600782015481526020016008820180546113a1906157ac565b80601f01602080910402602001604051908101604052809291908181526020018280546113cd906157ac565b801561141a5780601f106113ef5761010080835404028352916020019161141a565b820191906000526020600020905b8154815290600101906020018083116113fd57829003601f168201915b505050918352505060098201546001600160a01b03908116602080840191909152600a840154909116604080840191909152600b84018054825181850281018501909352808352606090940193919290919060009084015b8282101561155d576000848152602090819020604080516080810182526004860290920180548352600181015463ffffffff1693830193909352600283018054929392918401916114c2906157ac565b80601f01602080910402602001604051908101604052809291908181526020018280546114ee906157ac565b801561153b5780601f106115105761010080835404028352916020019161153b565b820191906000526020600020905b81548152906001019060200180831161151e57829003601f168201915b5050505050815260200160038201548152505081526020019060010190611472565b505050508152602001600c82018054611575906157ac565b80601f01602080910402602001604051908101604052809291908181526020018280546115a1906157ac565b80156115ee5780601f106115c3576101008083540402835291602001916115ee565b820191906000526020600020905b8154815290600101906020018083116115d157829003601f168201915b50505050508152505090506000600581111561160c5761160c61532d565b8160c0015160058111156116225761162261532d565b036116305750600192915050565b60028160c0015160058111156116485761164861532d565b0361166957611656816135fb565b156116645750600192915050565b61168f565b60058160c0015160058111156116815761168161532d565b0361168f5750600192915050565b50600092915050565b6003602081905260009182526040909120805460018201546002830154938301546004840180546001600160a01b0394851696949093169491926116db906157ac565b80601f0160208091040260200160405190810160405280929190818152602001828054611707906157ac565b80156117545780601f1061172957610100808354040283529160200191611754565b820191906000526020600020905b81548152906001019060200180831161173757829003601f168201915b5050506005840154600685015460078601546008870180549697939660ff909316955090935090611784906157ac565b80601f01602080910402602001604051908101604052809291908181526020018280546117b0906157ac565b80156117fd5780601f106117d2576101008083540402835291602001916117fd565b820191906000526020600020905b8154815290600101906020018083116117e057829003601f168201915b5050506009840154600a850154600c8601805495966001600160a01b0393841696929093169450919250611830906157ac565b80601f016020809104026020016040519081016040528092919081815260200182805461185c906157ac565b80156118a95780601f1061187e576101008083540402835291602001916118a9565b820191906000526020600020905b81548152906001019060200180831161188c57829003601f168201915b505050505090508c565b6118bb6135c9565b6118c5600061369a565b565b60065460009081906001600160a01b031633146119245760408051808201825260188152772737ba1031b7b6b832b739b0ba34b7b71036b0b730b3b2b960411b6020820152905162461bcd60e51b81526104599190600401615709565b600654600160a01b900460ff1661197257604080518082018252600f81526e139bdd081a5b9a5d1a585b1a5e9959608a1b6020820152905162461bcd60e51b81526104599190600401615709565b60008381526003602052604090206005600682015460ff16600581111561199b5761199b61532d565b146119d957604080518082018252601a8152600080516020615f7a8339815191526020820152905162461bcd60e51b81526104599190600401615709565b6000546001820154604051632911125160e01b81526001600160a01b0392831692632911125192611a0f92911690600401615293565b602060405180830381865afa158015611a2c573d6000803e3d6000fd5b505050506040513d601f19601f82011682018060405250810190611a50919061596b565b15611a9457604080518082018252601181527020b93134ba3930ba37b910333937bd32b760791b6020820152905162461bcd60e51b81526104599190600401615709565b611a9e84826136f6565b9250925050915091565b600080611ab3613b4c565b546001600160a01b031692915050565b6000611acd612cbc565b6001600160a01b0384161580611aea57506001600160a01b038216155b15611b2957604080518082018252600c81526b5a65726f206164647265737360a01b6020820152905162461bcd60e51b81526104599190600401615709565b6000859003611b6c57604080518082018252600c81526b496e76616c6964205554584f60a01b6020820152905162461bcd60e51b81526104599190600401615709565b60015460405163682dc82b60e11b81526001600160a01b039091169063d05b905690611b9c903390600401615293565b602060405180830381865afa158015611bb9573d6000803e3d6000fd5b505050506040513d601f19601f82011682018060405250810190611bdd919061596b565b611c1e57604080518082018252600f81526e44417070206e6f742061637469766560881b6020820152905162461bcd60e51b81526104599190600401615709565b600054604051631c569df760e31b81526001600160a01b039091169063e2b4efb890611c4e908790600401615293565b602060405180830381865afa158015611c6b573d6000803e3d6000fd5b505050506040513d601f19601f82011682018060405250810190611c8f919061596b565b611cd657604080518082018252601581527441726269747261746f72206e6f742061637469766560581b6020820152905162461bcd60e51b81526104599190600401615709565b428311611d1b57604080518082018252601081526f496e76616c696420646561646c696e6560801b6020820152905162461bcd60e51b81526104599190600401615709565b6000611d27428561598d565b60025460408051631c8c542360e11b815290519293506001600160a01b0390911691636dd5b69d918391633918a846916004808201926020929091908290030181865afa158015611d7c573d6000803e3d6000fd5b505050506040513d601f19601f82011682018060405250810190611da0919061577d565b6040518263ffffffff1660e01b8152600401611dbe91815260200190565b602060405180830381865afa158015611ddb573d6000803e3d6000fd5b505050506040513d601f19601f82011682018060405250810190611dff919061577d565b811080611edf5750600254604080516358d0b14760e01b815290516001600160a01b0390921691636dd5b69d9183916358d0b147916004808201926020929091908290030181865afa158015611e59573d6000803e3d6000fd5b505050506040513d601f19601f82011682018060405250810190611e7d919061577d565b6040518263ffffffff1660e01b8152600401611e9b91815260200190565b602060405180830381865afa158015611eb8573d6000803e3d6000fd5b505050506040513d601f19601f82011682018060405250810190611edc919061577d565b81115b15611f2257604080518082018252601081526f24b73b30b634b210323ab930ba34b7b760811b6020820152905162461bcd60e51b81526104599190600401615709565b604051630a71571960e41b8152600481018590526001600160a01b0386166024820152600090309063a715719090604401602060405180830381865afa158015611f70573d6000803e3d6000fd5b505050506040513d601f19601f82011682018060405250810190611f94919061577d565b905080600003611fd757604080518082018252600b81526a496e76616c69642066656560a81b6020820152905162461bcd60e51b81526104599190600401615709565b8034101561201d57604080518082018252601081526f496e73756666696369656e742066656560801b6020820152905162461bcd60e51b81526104599190600401615709565b60004233886005600081548092919061203590615748565b909155506040805160208101959095526001600160601b0319606094851b8116918601919091529190921b166054830152606882015260880160408051601f198184030181529082905280516020909101206000546315969bed60e11b83529092506001600160a01b031690632b2d37da906120b7908a9085906004016159a0565b600060405180830381600087803b1580156120d157600080fd5b505af11580156120e5573d6000803e3d6000fd5b505050600082815260036020819052604082208054336001600160a01b03199182161782556001820180549091166001600160a01b038d1617905542600282015590810189905591506040519080825280601f01601f191660200182016040528015612158576020820181803683370190505b50600482019061216890826159b9565b5060006005820181905560068201805460ff191690553460078301556040805191825260208201905260088201906121a090826159b9565b506009810180546001600160a01b0388166001600160a01b03199182168117909255600a8301805490911690911790556121de600b820160006150d5565b60005b898110156122485781600b018b8b838181106121ff576121ff61571c565b90506020028101906122119190615a72565b8154600181018355600092835260209092209091600402016122338282615a88565b5050808061224090615748565b9150506121e1565b50876001600160a01b0316336001600160a01b0316837ff9b5be7732ebf6fd00980fa5df88478650fb10bdb89a67b351b4134cff7d8d258a856007015460405161229c929190918252602082015260400190565b60405180910390a450925050506122b16135b8565b95945050505050565b60008181526003602052604090819020905163520936b560e01b815260048101839052309063520936b590602401602060405180830381865afa158015612305573d6000803e3d6000fd5b505050506040513d601f19601f82011682018060405250810190612329919061596b565b61237657604080518082018252601b81527a21b0b73737ba1031b7b6b83632ba32903a3930b739b0b1ba34b7b760291b6020820152905162461bcd60e51b81526104599190600401615709565b80546001600160a01b031633146123c357604080518082018252600e81526d139bdd08185d5d1a1bdc9a5e995960921b6020820152905162461bcd60e51b81526104599190600401615709565b6123cd82826136f6565b50505050565b6000804284116123e45760006123ee565b6123ee428561598d565b60025460408051631c8c542360e11b815290519293506001600160a01b0390911691636dd5b69d918391633918a846916004808201926020929091908290030181865afa158015612443573d6000803e3d6000fd5b505050506040513d601f19601f82011682018060405250810190612467919061577d565b6040518263ffffffff1660e01b815260040161248591815260200190565b602060405180830381865afa1580156124a2573d6000803e3d6000fd5b505050506040513d601f19601f820116820180604052508101906124c6919061577d565b8110806125a65750600254604080516358d0b14760e01b815290516001600160a01b0390921691636dd5b69d9183916358d0b147916004808201926020929091908290030181865afa158015612520573d6000803e3d6000fd5b505050506040513d601f19601f82011682018060405250810190612544919061577d565b6040518263ffffffff1660e01b815260040161256291815260200190565b602060405180830381865afa15801561257f573d6000803e3d6000fd5b505050506040513d601f19601f820116820180604052508101906125a3919061577d565b81115b156125e957604080518082018252601081526f24b73b30b634b210323ab930ba34b7b760811b6020820152905162461bcd60e51b81526104599190600401615709565b6001600160a01b03831661263157604080518082018252600c81526b5a65726f206164647265737360a01b6020820152905162461bcd60e51b81526104599190600401615709565b600080546040516326415b0f60e21b81526001600160a01b03909116906399056c3c90612662908790600401615293565b600060405180830381865afa15801561267f573d6000803e3d6000fd5b505050506040513d6000823e601f3d908101601f191682016040526126a79190810190615c76565b90506126b884826020015184613b70565b925050505b92915050565b6126cb61505c565b60008281526003602081815260409283902083516101a08101855281546001600160a01b0390811682526001830154169281019290925260028101549382019390935290820154606082015260048201805491929160808401919061272f906157ac565b80601f016020809104026020016040519081016040528092919081815260200182805461275b906157ac565b80156127a85780601f1061277d576101008083540402835291602001916127a8565b820191906000526020600020905b81548152906001019060200180831161278b57829003601f168201915b50505091835250506005828101546020830152600683015460409092019160ff16908111156127d9576127d961532d565b60058111156127ea576127ea61532d565b815260200160078201548152602001600882018054612808906157ac565b80601f0160208091040260200160405190810160405280929190818152602001828054612834906157ac565b80156128815780601f1061285657610100808354040283529160200191612881565b820191906000526020600020905b81548152906001019060200180831161286457829003601f168201915b505050918352505060098201546001600160a01b03908116602080840191909152600a840154909116604080840191909152600b84018054825181850281018501909352808352606090940193919290919060009084015b828210156129c4576000848152602090819020604080516080810182526004860290920180548352600181015463ffffffff169383019390935260028301805492939291840191612929906157ac565b80601f0160208091040260200160405190810160405280929190818152602001828054612955906157ac565b80156129a25780601f10612977576101008083540402835291602001916129a2565b820191906000526020600020905b81548152906001019060200180831161298557829003601f168201915b50505050508152602001600382015481525050815260200190600101906128d9565b505050508152602001600c820180546129dc906157ac565b80601f0160208091040260200160405190810160405280929190818152602001828054612a08906157ac565b8015612a555780601f10612a2a57610100808354040283529160200191612a55565b820191906000526020600020905b815481529060010190602001808311612a3857829003601f168201915b5050505050815250509050919050565b6000612a6f613c1e565b805490915060ff600160401b82041615906001600160401b0316600081158015612a965750825b90506000826001600160401b03166001148015612ab25750303b155b905081158015612ac0575080155b15612ade5760405163f92ee8a960e01b815260040160405180910390fd5b845467ffffffffffffffff191660011785558315612b0857845460ff60401b1916600160401b1785555b612b10613c42565b612b1933613c52565b6001600160a01b038816612b6157604080518082018252600c81526b5a65726f206164647265737360a01b6020820152905162461bcd60e51b81526104599190600401615709565b6001600160a01b038716612ba957604080518082018252600c81526b5a65726f206164647265737360a01b6020820152905162461bcd60e51b81526104599190600401615709565b6001600160a01b038616612bf157604080518082018252600c81526b5a65726f206164647265737360a01b6020820152905162461bcd60e51b81526104599190600401615709565b600080546001600160a01b03808b166001600160a01b031992831617909255600180548a841690831617905560028054928916929091169190911790558315612c7457845460ff60401b19168555604051600181527fc7f505b2f371ae2175ee4913f4499e1f2633a7b5936321eed1cdaeb6115181d29060200160405180910390a15b5050505050505050565b612c866135c9565b6001600160a01b038116612cb0576000604051631e4fbdf760e01b81526004016104599190615293565b612cb98161369a565b50565b6000612cc6613c63565b805490915060011901612cec57604051633ee5aeb560e01b815260040160405180910390fd5b60029055565b6040805160a081018252600080825260606020830181905292820183905291810182905260808101829052908280612d2b600484615e2a565b1115612d6a5760408051808201825260178152600080516020615f5a8339815191526020820152905162461bcd60e51b81526104599190600401615709565b848285612d78600483615e2a565b92612d8593929190615e3d565b612d8e91615e67565b60e01c8352612d9e600483615e2a565b9150600080612dae878786613c87565b811515608088015294509150839050600080612dcb898985613d1a565b6020890182905296509150859050600080612de78b8b85613df8565b60408b01829052985091508790508515612e0b57612e088b8b8a8751613ed8565b97505b8351600114612e455760405162461bcd60e51b815260206004820152600660248201526503232b13ab3960d51b6044820152606401610459565b86612e51896004615e2a565b1115612e905760408051808201825260178152600080516020615f5a8339815191526020820152905162461bcd60e51b81526104599190600401615709565b8a888b612e9e826004615e2a565b92612eab93929190615e3d565b612eb491615e67565b60e01c60608a0152612ec7600489615e2a565b9750868814612f095760408051808201825260178152600080516020615f5a8339815191526020820152905162461bcd60e51b81526104599190600401615709565b505050505050505092915050565b6060600060049050612f2d836020015151613f6b565b612f379082615e2a565b905060005b836020015151811015612f7557612f54602883615e2a565b9150612f61600183615e2a565b915080612f6d81615748565b915050612f3c565b50612f84836040015151613f6b565b612f8e9082615e2a565b905060005b83604001515181101561302657612fab600883615e2a565b9150612fd884604001518281518110612fc657612fc661571c565b60200260200101516020015151613f6b565b612fe29083615e2a565b915083604001518181518110612ffa57612ffa61571c565b60200260200101516020015151826130129190615e2a565b91508061301e81615748565b915050612f93565b50613032600482615e2a565b90506000816001600160401b0381111561304e5761304e615796565b6040519080825280601f01601f191660200182016040528015613078576020820181803683370190505b50845190915060009060e01b815b60048110156130e9578181600481106130a1576130a161571c565b1a60f81b846130b08386615e2a565b815181106130c0576130c061571c565b60200101906001600160f81b031916908160001a905350806130e181615748565b915050613086565b506130f5600483615e2a565b91506131078660200151518484613faf565b6131119083615e2a565b915060005b8660200151518110156133425760005b60208110156131aa57876020015182815181106131455761314561571c565b60200260200101516000015181602081106131625761316261571c565b1a60f81b856131718387615e2a565b815181106131815761318161571c565b60200101906001600160f81b031916908160001a905350806131a281615748565b915050613126565b506131b6602084615e2a565b92506000876020015182815181106131d0576131d061571c565b60200260200101516020015160e01b905060005b6004811015613247578181600481106131ff576131ff61571c565b1a60f81b8661320e8388615e2a565b8151811061321e5761321e61571c565b60200101906001600160f81b031916908160001a9053508061323f81615748565b9150506131e4565b50613253600485615e2a565b9350600060f81b85858151811061326c5761326c61571c565b60200101906001600160f81b031916908160001a90535061328e600185615e2a565b93506000886020015183815181106132a8576132a861571c565b60200260200101516060015160e01b905060005b600481101561331f578181600481106132d7576132d761571c565b1a60f81b876132e68389615e2a565b815181106132f6576132f661571c565b60200101906001600160f81b031916908160001a9053508061331781615748565b9150506132bc565b5061332b600486615e2a565b94505050808061333a90615748565b915050613116565b506133538660400151518484613faf565b61335d9083615e2a565b915060005b86604001515181101561353d576000876040015182815181106133875761338761571c565b60200260200101516000015160c01b905060005b60088110156133fe578181600881106133b6576133b661571c565b1a60f81b866133c58388615e2a565b815181106133d5576133d561571c565b60200101906001600160f81b031916908160001a905350806133f681615748565b91505061339b565b5061340a600885615e2a565b9350613439886040015183815181106134255761342561571c565b602002602001015160200151518686613faf565b6134439085615e2a565b935060005b8860400151838151811061345e5761345e61571c565b602002602001015160200151518110156134f857886040015183815181106134885761348861571c565b60200260200101516020015181815181106134a5576134a561571c565b01602001516001600160f81b031916866134bf8388615e2a565b815181106134cf576134cf61571c565b60200101906001600160f81b031916908160001a905350806134f081615748565b915050613448565b508760400151828151811061350f5761350f61571c565b60200260200101516020015151846135279190615e2a565b935050808061353590615748565b915050613362565b50606086015160e01b60005b60048110156135ac578181600481106135645761356461571c565b1a60f81b856135738387615e2a565b815181106135835761358361571c565b60200101906001600160f81b031916908160001a905350806135a481615748565b915050613549565b50929695505050505050565b60006135c2613c63565b6001905550565b336135d2611aa8565b6001600160a01b0316146118c5573360405163118cdaa760e01b81526004016104599190615293565b6000816060015142111561361157506001919050565b60025460408051632b6f600d60e01b815290516000926001600160a01b031691632b6f600d9160048083019260209291908290030181865afa15801561365b573d6000803e3d6000fd5b505050506040513d601f19601f8201168201806040525081019061367f919061577d565b90508083604001516136919190615e2a565b42119392505050565b60006136a4613b4c565b80546001600160a01b038481166001600160a01b031983168117845560405193945091169182907f8be0079c531659141344cd1fd0a4f28419497f9722a3daafe3b4186f6b6457e090600090a3505050565b604080516101a08101825282546001600160a01b039081168252600184015416602082015260028301549181019190915260038201546060820152600482018054600092839283928392613a8a92909188916080840191613756906157ac565b80601f0160208091040260200160405190810160405280929190818152602001828054613782906157ac565b80156137cf5780601f106137a4576101008083540402835291602001916137cf565b820191906000526020600020905b8154815290600101906020018083116137b257829003601f168201915b50505091835250506005828101546020830152600683015460409092019160ff16908111156138005761380061532d565b60058111156138115761381161532d565b81526020016007820154815260200160088201805461382f906157ac565b80601f016020809104026020016040519081016040528092919081815260200182805461385b906157ac565b80156138a85780601f1061387d576101008083540402835291602001916138a8565b820191906000526020600020905b81548152906001019060200180831161388b57829003601f168201915b505050918352505060098201546001600160a01b03908116602080840191909152600a840154909116604080840191909152600b84018054825181850281018501909352808352606090940193919290919060009084015b828210156139eb576000848152602090819020604080516080810182526004860290920180548352600181015463ffffffff169383019390935260028301805492939291840191613950906157ac565b80601f016020809104026020016040519081016040528092919081815260200182805461397c906157ac565b80156139c95780601f1061399e576101008083540402835291602001916139c9565b820191906000526020600020905b8154815290600101906020018083116139ac57829003601f168201915b5050505050815260200160038201548152505081526020019060010190613900565b505050508152602001600c82018054613a03906157ac565b80601f0160208091040260200160405190810160405280929190818152602001828054613a2f906157ac565b8015613a7c5780601f10613a5157610100808354040283529160200191613a7c565b820191906000526020600020905b815481529060010190602001808311613a5f57829003601f168201915b505050505081525050614215565b600054600188015460405163cedb588b60e01b81529395509193506001600160a01b039081169263cedb588b92613ac79216908a906004016159a0565b600060405180830381600087803b158015613ae157600080fd5b505af1158015613af5573d6000803e3d6000fd5b5050505060068501805460ff19166001179055845460405187916001600160a01b0316907fd4ce83344b315e3d656d76b02d51dcb1e3c92f1f9f9c28524cfb20882e9e6bc790600090a390925090505b9250929050565b7f9016d09d72d40fdae2fd8ceac6b6234c7706214fd39c1cd1e609a0528c19930090565b6000805460405163014f6b1960e41b815282916001600160a01b0316906314f6b19090613ba1908890600401615293565b602060405180830381865afa158015613bbe573d6000803e3d6000fd5b505050506040513d601f19601f82011682018060405250810190613be2919061577d565b9050613bf46127106301e13380615e97565b84613bff8584615e97565b613c099190615e97565b613c139190615eae565b9150505b9392505050565b7ff0c57e16840df040f15088dc2f81fe391c3923bec73e23a9662efc9c229c6a0090565b613c4a61466c565b6118c5614691565b613c5a61466c565b612cb981614699565b7f9b779b17422d0df92223018b32b4d1fa46e071723d6817e2486d003becc55f0090565b60008183613c96826002615e2a565b11613d12576000858585818110613caf57613caf61571c565b919091013560f81c9150600090508686613cca876001615e2a565b818110613cd957613cd961571c565b919091013560f81c91505060ff8216158015613cf8575060ff81166001145b15613d0f5760019350613d0c600284615e2a565b92505b50505b935093915050565b60606000806000613d2c8787876146a1565b9092509050613d3b8186615e2a565b9250816001600160401b03811115613d5557613d55615796565b604051908082528060200260200182016040528015613d8e57816020015b613d7b6150f6565b815260200190600190039081613d735790505b50935060005b82811015613ded57600080613daa8a8a88614931565b9150915081878481518110613dc157613dc161571c565b6020908102919091010152613dd68187615e2a565b955050508080613de590615748565b915050613d94565b505050935093915050565b60606000806000613e0a8787876146a1565b9092509050613e198186615e2a565b9250816001600160401b03811115613e3357613e33615796565b604051908082528060200260200182016040528015613e7957816020015b604080518082019091526000815260606020820152815260200190600190039081613e515790505b50935060005b82811015613ded57600080613e958a8a88614ba4565b9150915081878481518110613eac57613eac61571c565b6020908102919091010152613ec18187615e2a565b955050508080613ed090615748565b915050613e7f565b8160005b82811015613f6257600080613ef28888866146a1565b9092509050613f018185615e2a565b935060005b82811015613f4c57600080613f1c8b8b896146a1565b9092509050613f2b8282615e2a565b613f359088615e2a565b965050508080613f4490615748565b915050613f06565b5050508080613f5a90615748565b915050613edc565b50949350505050565b600060fc821015613f7e57506001919050565b61ffff8211613f8f57506003919050565b63ffffffff8211613fa257506005919050565b506009919050565b919050565b600060fc841015613ff0578360f81b838381518110613fd057613fd061571c565b60200101906001600160f81b031916908160001a90535060019050613c17565b61ffff84116140aa5760fd60f81b8383815181106140105761401061571c565b60200101906001600160f81b031916908160001a90535060f084901b8060001a60f81b8461403f856001615e2a565b8151811061404f5761404f61571c565b60200101906001600160f81b031916908160001a9053508060011a60f81b84614079856002615e2a565b815181106140895761408961571c565b60200101906001600160f81b031916908160001a9053506003915050613c17565b63ffffffff84116141655760fe60f81b8383815181106140cc576140cc61571c565b60200101906001600160f81b031916908160001a90535060e084901b60005b600481101561415a578181600481106141065761410661571c565b1a60f81b8582614117876001615e2a565b6141219190615e2a565b815181106141315761413161571c565b60200101906001600160f81b031916908160001a9053508061415281615748565b9150506140eb565b506005915050613c17565b60ff60f81b83838151811061417c5761417c61571c565b60200101906001600160f81b031916908160001a90535060c084901b60005b600881101561420a578181600881106141b6576141b661571c565b1a60f81b85826141c7876001615e2a565b6141d19190615e2a565b815181106141e1576141e161571c565b60200101906001600160f81b031916908160001a9053508061420281615748565b91505061419b565b506009915050613c17565b6000805460208301516040516326415b0f60e21b8152839283926001600160a01b03909116916399056c3c9161424d91600401615293565b600060405180830381865afa15801561426a573d6000803e3d6000fd5b505050506040513d6000823e601f3d908101601f191682016040526142929190810190615c76565b90506000846060015142116142b55760408501516142b0904261598d565b6142c9565b846040015185606001516142c9919061598d565b905060006142e08660200151846020015184613b70565b90508560e001518111156142f5575060e08501515b6002546040805163286e9cd160e21b81529051600092612710926001600160a01b0390911691636dd5b69d91839163a1ba7344916004808201926020929091908290030181865afa15801561434e573d6000803e3d6000fd5b505050506040513d601f19601f82011682018060405250810190614372919061577d565b6040518263ffffffff1660e01b815260040161439091815260200190565b602060405180830381865afa1580156143ad573d6000803e3d6000fd5b505050506040513d601f19601f820116820180604052508101906143d1919061577d565b6143db9084615e97565b6143e59190615eae565b905060006143f3828461598d565b90506000600260009054906101000a90046001600160a01b03166001600160a01b0316638b6570a06040518163ffffffff1660e01b8152600401602060405180830381865afa15801561444a573d6000803e3d6000fd5b505050506040513d601f19601f8201168201806040525081019061446e9190615ed0565b90506000816001600160a01b03168460405160006040518083038185875af1925050503d80600081146144bd576040519150601f19603f3d011682016040523d82523d6000602084013e6144c2565b606091505b505090508061450857604080518082018252600f81526e151c985b9cd9995c8819985a5b1959608a1b6020820152905162461bcd60e51b81526104599190600401615709565b6000876101e001516001600160a01b03168460405160006040518083038185875af1925050503d806000811461455a576040519150601f19603f3d011682016040523d82523d6000602084013e61455f565b606091505b50509050806145a557604080518082018252600f81526e151c985b9cd9995c8819985a5b1959608a1b6020820152905162461bcd60e51b81526104599190600401615709565b6000868c60e001516145b7919061598d565b9050801561465a578b516040516000916001600160a01b03169083908381818185875af1925050503d806000811461460b576040519150601f19603f3d011682016040523d82523d6000602084013e614610565b606091505b50509050806146585760408051808201825260118152701b9bc81c9958d95a5d99481b595d1a1bd9607a1b6020820152905162461bcd60e51b81526104599190600401615709565b505b50929a93995092975050505050505050565b614674614d03565b6118c557604051631afcd79f60e31b815260040160405180910390fd5b6135b861466c565b612c8661466c565b6000808383106146e45760408051808201825260178152600080516020615f5a8339815191526020820152905162461bcd60e51b81526104599190600401615709565b60008585858181106146f8576146f861571c565b919091013560f81c91505060fc81101561471a5760ff16915060019050613d12565b60fc1960ff8216016147ce5784614732856003615e2a565b11156147715760408051808201825260178152600080516020615f5a8339815191526020820152905162461bcd60e51b81526104599190600401615709565b6147bd86868080601f0160208091040260200160405190810160405280939291908181526020018383808284376000920191909152506147b8925088915060019050615e2a565b614d1d565b61ffff16925060039150613d129050565b60fd1960ff82160161488457846147e6856005615e2a565b11156148255760408051808201825260178152600080516020615f5a8339815191526020820152905162461bcd60e51b81526104599190600401615709565b61487186868080601f01602080910402602001604051908101604052809392919081815260200183838082843760009201919091525061486c925088915060019050615e2a565b614dc4565b63ffffffff16925060059150613d129050565b84614890856009615e2a565b11156148cf5760408051808201825260178152600080516020615f5a8339815191526020820152905162461bcd60e51b81526104599190600401615709565b61491b86868080601f016020809104026020016040519081016040528093929190818152602001838380828437600092019190915250614916925088915060019050615e2a565b614ebd565b6001600160401b0316925060099150613d129050565b6149396150f6565b60008284614948826020615e2a565b11156149875760408051808201825260178152600080516020615f5a8339815191526020820152905162461bcd60e51b81526104599190600401615709565b858486614995826020615e2a565b926149a293929190615e3d565b6149ab91615eed565b83526149b8602085615e2a565b9350846149c6856004615e2a565b1115614a055760408051808201825260178152600080516020615f5a8339815191526020820152905162461bcd60e51b81526104599190600401615709565b858486614a13826004615e2a565b92614a2093929190615e3d565b614a2991615e67565b60e01c6020840152614a3c600485615e2a565b9350600080614a4c8888886146a1565b9092509050614a5b8187615e2a565b955086614a688388615e2a565b1115614aa75760408051808201825260178152600080516020615f5a8339815191526020820152905162461bcd60e51b81526104599190600401615709565b878688614ab48583615e2a565b92614ac193929190615e3d565b8080601f0160208091040260200160405190810160405280939291908181526020018383808284376000920191909152505050506040860152614b048287615e2a565b955086614b12876004615e2a565b1115614b515760408051808201825260178152600080516020615f5a8339815191526020820152905162461bcd60e51b81526104599190600401615709565b878688614b5f826004615e2a565b92614b6c93929190615e3d565b614b7591615e67565b60e01c6060860152614b88600487615e2a565b955084614b95848861598d565b94509450505050935093915050565b60408051808201909152600081526060602082015260008284614bc8826008615e2a565b1115614c075760408051808201825260178152600080516020615f5a8339815191526020820152905162461bcd60e51b81526104599190600401615709565b858486614c15826008615e2a565b92614c2293929190615e3d565b614c2b91615f0b565b60c01c8352614c3b600885615e2a565b9350600080614c4b8888886146a1565b9092509050614c5a8187615e2a565b955086614c678388615e2a565b1115614ca65760408051808201825260178152600080516020615f5a8339815191526020820152905162461bcd60e51b81526104599190600401615709565b878688614cb38583615e2a565b92614cc093929190615e3d565b8080601f0160208091040260200160405190810160405280939291908181526020018383808284376000920191909152505050506020860152614b888287615e2a565b6000614d0d613c1e565b54600160401b900460ff16919050565b8151600090614d2d836002615e2a565b1115614d795760405162461bcd60e51b81526020600482015260276024820152600080516020615f3a833981519152604482015266103ab4b73a189b60c91b6064820152608401610459565b828281518110614d8b57614d8b61571c565b016020015160f81c600884614da1856001615e2a565b81518110614db157614db161571c565b016020015160f81c901b17905092915050565b8151600090614dd4836004615e2a565b1115614e205760405162461bcd60e51b81526020600482015260276024820152600080516020615f3a833981519152604482015266103ab4b73a199960c91b6064820152608401610459565b828281518110614e3257614e3261571c565b016020015160f81c600884614e48856001615e2a565b81518110614e5857614e5861571c565b016020015160f81c901b601085614e70866002615e2a565b81518110614e8057614e8061571c565b016020015160f81c901b601886614e98876003615e2a565b81518110614ea857614ea861571c565b016020015160f81c901b171717905092915050565b8151600090614ecd836008615e2a565b1115614f195760405162461bcd60e51b81526020600482015260276024820152600080516020615f3a833981519152604482015266081d5a5b9d0d8d60ca1b6064820152608401610459565b828281518110614f2b57614f2b61571c565b016020015160f81c600884614f41856001615e2a565b81518110614f5157614f5161571c565b016020015160f81c901b601085614f69866002615e2a565b81518110614f7957614f7961571c565b016020015160f81c901b601886614f91876003615e2a565b81518110614fa157614fa161571c565b0160209081015160f81c90911b9087614fbb886004615e2a565b81518110614fcb57614fcb61571c565b016020015160f81c901b602888614fe3896005615e2a565b81518110614ff357614ff361571c565b016020015160f81c901b60308961500b8a6006615e2a565b8151811061501b5761501b61571c565b016020015160f81c901b60388a6150338b6007615e2a565b815181106150435761504361571c565b016020015160f81c901b17171717171717905092915050565b604080516101a0810182526000808252602082018190529181018290526060808201839052608082015260a081018290529060c08201908152602001600081526020016060815260200160006001600160a01b0316815260200160006001600160a01b0316815260200160608152602001606081525090565b5080546000825560040290600052602060002090810190612cb9919061511e565b6040805160808101825260008082526020820181905260609282018390529181019190915290565b8082111561515757600080825560018201805463ffffffff19169055615147600283018261515b565b506000600382015560040161511e565b5090565b508054615167906157ac565b6000825580601f10615177575050565b601f016020900490600052602060002090810190612cb991905b808211156151575760008155600101615191565b60008083601f8401126151b757600080fd5b5081356001600160401b038111156151ce57600080fd5b602083019150836020828501011115613b4557600080fd5b6001600160a01b0381168114612cb957600080fd5b6000806000806000806080878903121561521457600080fd5b8635955060208701356001600160401b038082111561523257600080fd5b61523e8a838b016151a5565b9097509550604089013591508082111561525757600080fd5b5061526489828a016151a5565b9094509250506060870135615278816151e6565b809150509295509295509295565b6001600160a01b03169052565b6001600160a01b0391909116815260200190565b6000602082840312156152b957600080fd5b8135613c17816151e6565b6000602082840312156152d657600080fd5b5035919050565b60005b838110156152f85781810151838201526020016152e0565b50506000910152565b600081518084526153198160208601602086016152dd565b601f01601f19169290920160200192915050565b634e487b7160e01b600052602160045260246000fd5b6006811061536157634e487b7160e01b600052602160045260246000fd5b9052565b600082825180855260208086019550808260051b84010181860160005b848110156153e257601f19868403018952815160808151855263ffffffff86830151168686015260408083015182828801526153c083880182615301565b6060948501519790940196909652505098840198925090830190600101615382565b5090979650505050505050565b60208152615401602082018351615286565b600060208301516154156040840182615286565b50604083015160608301526060830151608083015260808301516101a08060a08501526154466101c0850183615301565b915060a085015160c085015260c085015161546460e0860182615343565b5060e0850151610100818187015280870151915050601f196101208187860301818801526154928584615301565b9450808801519250506101406154aa81880184615286565b87015191506101606154be87820184615286565b808801519250506101808187860301818801526154db8584615365565b9088015187820390920184880152935090506154f78382615301565b9695505050505050565b60008060006040848603121561551657600080fd5b8335925060208401356001600160401b0381111561553357600080fd5b61553f868287016151a5565b9497909650939450505050565b600060018060a01b03808f168352808e1660208401528c60408401528b6060840152610180608084015261558461018084018c615301565b8a60a085015261559760c085018b615343565b8860e08501528381036101008501526155b08189615301565b90508187166101208501528186166101408501528381036101608501526155d78186615301565b925050509d9c50505050505050505050505050565b60008060008060006080868803121561560457600080fd5b85356001600160401b038082111561561b57600080fd5b818801915088601f83011261562f57600080fd5b81358181111561563e57600080fd5b8960208260051b850101111561565357600080fd5b60209283019750955050860135615669816151e6565b9250604086013591506060860135615680816151e6565b809150509295509295909350565b600080604083850312156156a157600080fd5b8235915060208301356156b3816151e6565b809150509250929050565b6000806000606084860312156156d357600080fd5b83356156de816151e6565b925060208401356156ee816151e6565b915060408401356156fe816151e6565b809150509250925092565b602081526000613c176020830184615301565b634e487b7160e01b600052603260045260246000fd5b634e487b7160e01b600052601160045260246000fd5b60006001820161575a5761575a615732565b5060010190565b600082516157738184602087016152dd565b9190910192915050565b60006020828403121561578f57600080fd5b5051919050565b634e487b7160e01b600052604160045260246000fd5b600181811c908216806157c057607f821691505b6020821081036157e057634e487b7160e01b600052602260045260246000fd5b50919050565b601f82111561582c57600081815260208120601f850160051c8101602086101561580d5750805b601f850160051c820191505b818110156107b457828155600101615819565b505050565b600019600383901b1c191660019190911b1790565b6001600160401b0383111561585d5761585d615796565b6158718361586b83546157ac565b836157e6565b6000601f84116001811461589f576000851561588d5750838201355b6158978682615831565b8455506158f9565b600083815260209020601f19861690835b828110156158d057868501358255602094850194600190920191016158b0565b50868210156158ed5760001960f88860031b161c19848701351681555b505060018560011b0183555b5050505050565b81835281816020850137506000828201602090810191909152601f909101601f19169091010190565b60608152600061593d606083018789615900565b8281036020840152615950818688615900565b91505060018060a01b03831660408301529695505050505050565b60006020828403121561597d57600080fd5b81518015158114613c1757600080fd5b818103818111156126bd576126bd615732565b6001600160a01b03929092168252602082015260400190565b81516001600160401b038111156159d2576159d2615796565b6159e6816159e084546157ac565b846157e6565b602080601f831160018114615a155760008415615a035750858301515b615a0d8582615831565b8655506107b4565b600085815260208120601f198616915b82811015615a4457888601518255948401946001909101908401615a25565b5085821015615a625787850151600019600388901b60f8161c191681555b5050505050600190811b01905550565b60008235607e1983360301811261577357600080fd5b8135815560018101602083013563ffffffff8116808214615aa857600080fd5b825463ffffffff19161790915550604082013536839003601e19018112615ace57600080fd5b820180356001600160401b03811115615ae657600080fd5b602082019150803603821315615afb57600080fd5b615b09818360028601615846565b5050606082013560038201555050565b60405161022081016001600160401b0381118282101715615b3c57615b3c615796565b60405290565b604051601f8201601f191681016001600160401b0381118282101715615b6a57615b6a615796565b604052919050565b8051613faa816151e6565b805160058110613faa57600080fd5b600082601f830112615b9d57600080fd5b815160206001600160401b03821115615bb857615bb8615796565b8160051b615bc7828201615b42565b9283528481018201928281019087851115615be157600080fd5b83870192505b84831015615c0057825182529183019190830190615be7565b979650505050505050565b600082601f830112615c1c57600080fd5b81516001600160401b03811115615c3557615c35615796565b615c48601f8201601f1916602001615b42565b818152846020838601011115615c5d57600080fd5b615c6e8260208301602087016152dd565b949350505050565b600060208284031215615c8857600080fd5b81516001600160401b0380821115615c9f57600080fd5b908301906102208286031215615cb457600080fd5b615cbc615b19565b615cc583615b72565b81526020830151602082015260408301516040820152615ce760608401615b7d565b60608201526080830151608082015260a083015160a0820152615d0c60c08401615b72565b60c0820152615d1d60e08401615b72565b60e08201526101008084015183811115615d3657600080fd5b615d4288828701615b8c565b828401525050610120615d56818501615b72565b908201526101408381015183811115615d6e57600080fd5b615d7a88828701615c0b565b8284015250506101608084015183811115615d9457600080fd5b615da088828701615c0b565b8284015250506101808084015181830152506101a08084015183811115615dc657600080fd5b615dd288828701615c0b565b8284015250506101c08084015183811115615dec57600080fd5b615df888828701615c0b565b8284015250506101e09150615e0e828401615b72565b9181019190915261020091820151918101919091529392505050565b808201808211156126bd576126bd615732565b60008085851115615e4d57600080fd5b83861115615e5a57600080fd5b5050820193919092039150565b6001600160e01b03198135818116916004851015615e8f5780818660040360031b1b83161692505b505092915050565b80820281158282048414176126bd576126bd615732565b600082615ecb57634e487b7160e01b600052601260045260246000fd5b500490565b600060208284031215615ee257600080fd5b8151613c17816151e6565b803560208310156126bd57600019602084900360031b1b1692915050565b6001600160c01b03198135818116916008851015615e8f5760089490940360031b84901b169092169291505056fe4254435574696c733a20696e73756666696369656e7420627974657320666f72496e76616c696420425443207472616e73616374696f6e000000000000000000496e76616c6964207472616e73616374696f6e20737461747573000000000000a2646970667358221220a44a8d205539af3db1a33cea3a47647ec6efbf817ace84c7a14aa4b700fbc2b564736f6c63430008140033",
  "linkReferences": {},
  "deployedLinkReferences": {}
}