{
  "_format": "hh-sol-artifact-1",
  "contractName": "TransactionManager",
  "sourceName": "contracts/core/TransactionManager.sol",
  "abi": [
    {
      "inputs": [],
      "stateMutability": "nonpayable",
      "type": "constructor"
    },
    {
      "inputs": [],
      "name": "ARBITRATOR_NOT_ACTIVE",
      "type": "error"
    },
    {
      "inputs": [],
      "name": "DAPP_NOT_ACTIVE",
      "type": "error"
    },
    {
      "inputs": [],
      "name": "INSUFFICIENT_FEE",
      "type": "error"
    },
    {
      "inputs": [],
      "name": "INVALID_BTC_TX",
      "type": "error"
    },
    {
      "inputs": [],
      "name": "INVALID_DEADLINE",
      "type": "error"
    },
    {
      "inputs": [],
      "name": "INVALID_DURATION",
      "type": "error"
    },
    {
      "inputs": [],
      "name": "INVALID_FEE",
      "type": "error"
    },
    {
      "inputs": [],
      "name": "INVALID_FEE_RATE",
      "type": "error"
    },
    {
      "inputs": [],
      "name": "INVALID_TRANSACTION_STATUS",
      "type": "error"
    },
    {
      "inputs": [],
      "name": "InvalidInitialization",
      "type": "error"
    },
    {
      "inputs": [],
      "name": "NOT_AUTHORIZED",
      "type": "error"
    },
    {
      "inputs": [],
      "name": "NOT_COMPENSATION_MANAGER",
      "type": "error"
    },
    {
      "inputs": [],
      "name": "NOT_INITIALIZED",
      "type": "error"
    },
    {
      "inputs": [],
      "name": "NotInitializing",
      "type": "error"
    },
    {
      "inputs": [
        {
          "internalType": "address",
          "name": "owner",
          "type": "address"
        }
      ],
      "name": "OwnableInvalidOwner",
      "type": "error"
    },
    {
      "inputs": [
        {
          "internalType": "address",
          "name": "account",
          "type": "address"
        }
      ],
      "name": "OwnableUnauthorizedAccount",
      "type": "error"
    },
    {
      "inputs": [],
      "name": "ReentrancyGuardReentrantCall",
      "type": "error"
    },
    {
      "inputs": [],
      "name": "TRANSACTION_NOT_FOUND",
      "type": "error"
    },
    {
      "inputs": [],
      "name": "TRANSFER_FAILED",
      "type": "error"
    },
    {
      "inputs": [],
      "name": "ZERO_ADDRESS",
      "type": "error"
    },
    {
      "anonymous": false,
      "inputs": [
        {
          "indexed": true,
          "internalType": "address",
          "name": "dapp",
          "type": "address"
        },
        {
          "indexed": true,
          "internalType": "bytes32",
          "name": "txId",
          "type": "bytes32"
        }
      ],
      "name": "ArbitrationRequested",
      "type": "event"
    },
    {
      "anonymous": false,
      "inputs": [
        {
          "indexed": true,
          "internalType": "address",
          "name": "dapp",
          "type": "address"
        },
        {
          "indexed": true,
          "internalType": "bytes32",
          "name": "txId",
          "type": "bytes32"
        }
      ],
      "name": "ArbitrationSubmitted",
      "type": "event"
    },
    {
      "anonymous": false,
      "inputs": [
        {
          "indexed": false,
          "internalType": "uint64",
          "name": "version",
          "type": "uint64"
        }
      ],
      "name": "Initialized",
      "type": "event"
    },
    {
      "anonymous": false,
      "inputs": [
        {
          "indexed": true,
          "internalType": "address",
          "name": "compensationManager",
          "type": "address"
        }
      ],
      "name": "Initialized",
      "type": "event"
    },
    {
      "anonymous": false,
      "inputs": [
        {
          "indexed": true,
          "internalType": "address",
          "name": "previousOwner",
          "type": "address"
        },
        {
          "indexed": true,
          "internalType": "address",
          "name": "newOwner",
          "type": "address"
        }
      ],
      "name": "OwnershipTransferred",
      "type": "event"
    },
    {
      "anonymous": false,
      "inputs": [
        {
          "indexed": true,
          "internalType": "bytes32",
          "name": "id",
          "type": "bytes32"
        }
      ],
      "name": "TransactionCancelled",
      "type": "event"
    },
    {
      "anonymous": false,
      "inputs": [
        {
          "indexed": true,
          "internalType": "address",
          "name": "dapp",
          "type": "address"
        },
        {
          "indexed": true,
          "internalType": "bytes32",
          "name": "txId",
          "type": "bytes32"
        }
      ],
      "name": "TransactionCompleted",
      "type": "event"
    },
    {
      "anonymous": false,
      "inputs": [
        {
          "indexed": true,
          "internalType": "bytes32",
          "name": "id",
          "type": "bytes32"
        },
        {
          "indexed": false,
          "internalType": "uint256",
          "name": "arbitratorFee",
          "type": "uint256"
        },
        {
          "indexed": false,
          "internalType": "uint256",
          "name": "systemFee",
          "type": "uint256"
        }
      ],
      "name": "TransactionCompleted",
      "type": "event"
    },
    {
      "anonymous": false,
      "inputs": [
        {
          "indexed": true,
          "internalType": "bytes32",
          "name": "id",
          "type": "bytes32"
        },
        {
          "indexed": true,
          "internalType": "address",
          "name": "sender",
          "type": "address"
        },
        {
          "indexed": true,
          "internalType": "address",
          "name": "arbitrator",
          "type": "address"
        }
      ],
      "name": "TransactionCreated",
      "type": "event"
    },
    {
      "anonymous": false,
      "inputs": [
        {
          "indexed": true,
          "internalType": "bytes32",
          "name": "id",
          "type": "bytes32"
        },
        {
          "indexed": true,
          "internalType": "address",
          "name": "dapp",
          "type": "address"
        },
        {
          "indexed": true,
          "internalType": "address",
          "name": "arbitrator",
          "type": "address"
        }
      ],
      "name": "TransactionRegistered",
      "type": "event"
    },
    {
      "inputs": [],
      "name": "arbitratorManager",
      "outputs": [
        {
          "internalType": "contract IArbitratorManager",
          "name": "",
          "type": "address"
        }
      ],
      "stateMutability": "view",
      "type": "function"
    },
    {
      "inputs": [],
      "name": "compensationManager",
      "outputs": [
        {
          "internalType": "address",
          "name": "",
          "type": "address"
        }
      ],
      "stateMutability": "view",
      "type": "function"
    },
    {
      "inputs": [
        {
          "internalType": "bytes32",
          "name": "id",
          "type": "bytes32"
        }
      ],
      "name": "completeTransaction",
      "outputs": [],
      "stateMutability": "nonpayable",
      "type": "function"
    },
    {
      "inputs": [],
      "name": "configManager",
      "outputs": [
        {
          "internalType": "contract ConfigManager",
          "name": "",
          "type": "address"
        }
      ],
      "stateMutability": "view",
      "type": "function"
    },
    {
      "inputs": [],
      "name": "dappRegistry",
      "outputs": [
        {
          "internalType": "contract IDAppRegistry",
          "name": "",
          "type": "address"
        }
      ],
      "stateMutability": "view",
      "type": "function"
    },
    {
      "inputs": [
        {
          "internalType": "bytes32",
          "name": "txHash",
          "type": "bytes32"
        }
      ],
      "name": "getTransaction",
      "outputs": [
        {
          "components": [
            {
              "internalType": "address",
              "name": "dapp",
              "type": "address"
            },
            {
              "internalType": "address",
              "name": "arbitrator",
              "type": "address"
            },
            {
              "internalType": "uint256",
              "name": "startTime",
              "type": "uint256"
            },
            {
              "internalType": "uint256",
              "name": "deadline",
              "type": "uint256"
            },
            {
              "internalType": "bytes",
              "name": "btcTx",
              "type": "bytes"
            },
            {
              "internalType": "bytes32",
              "name": "btcTxHash",
              "type": "bytes32"
            },
            {
              "internalType": "enum DataTypes.TransactionStatus",
              "name": "status",
              "type": "uint8"
            },
            {
              "internalType": "uint256",
              "name": "depositedFee",
              "type": "uint256"
            },
            {
              "internalType": "bytes",
              "name": "signature",
              "type": "bytes"
            },
            {
              "internalType": "address",
              "name": "compensationReceiver",
              "type": "address"
            },
            {
              "internalType": "address",
              "name": "timeoutCompensationReceiver",
              "type": "address"
            }
          ],
          "internalType": "struct DataTypes.Transaction",
          "name": "",
          "type": "tuple"
        }
      ],
      "stateMutability": "view",
      "type": "function"
    },
    {
      "inputs": [
        {
          "internalType": "bytes32",
          "name": "id",
          "type": "bytes32"
        }
      ],
      "name": "getTransactionById",
      "outputs": [
        {
          "components": [
            {
              "internalType": "address",
              "name": "dapp",
              "type": "address"
            },
            {
              "internalType": "address",
              "name": "arbitrator",
              "type": "address"
            },
            {
              "internalType": "uint256",
              "name": "startTime",
              "type": "uint256"
            },
            {
              "internalType": "uint256",
              "name": "deadline",
              "type": "uint256"
            },
            {
              "internalType": "bytes",
              "name": "btcTx",
              "type": "bytes"
            },
            {
              "internalType": "bytes32",
              "name": "btcTxHash",
              "type": "bytes32"
            },
            {
              "internalType": "enum DataTypes.TransactionStatus",
              "name": "status",
              "type": "uint8"
            },
            {
              "internalType": "uint256",
              "name": "depositedFee",
              "type": "uint256"
            },
            {
              "internalType": "bytes",
              "name": "signature",
              "type": "bytes"
            },
            {
              "internalType": "address",
              "name": "compensationReceiver",
              "type": "address"
            },
            {
              "internalType": "address",
              "name": "timeoutCompensationReceiver",
              "type": "address"
            }
          ],
          "internalType": "struct DataTypes.Transaction",
          "name": "",
          "type": "tuple"
        }
      ],
      "stateMutability": "view",
      "type": "function"
    },
    {
      "inputs": [
        {
          "internalType": "address",
          "name": "_compensationManager",
          "type": "address"
        }
      ],
      "name": "initCompensationManager",
      "outputs": [],
      "stateMutability": "nonpayable",
      "type": "function"
    },
    {
      "inputs": [
        {
          "internalType": "address",
          "name": "_arbitratorManager",
          "type": "address"
        },
        {
          "internalType": "address",
          "name": "_dappRegistry",
          "type": "address"
        },
        {
          "internalType": "address",
          "name": "_configManager",
          "type": "address"
        }
      ],
      "name": "initialize",
      "outputs": [],
      "stateMutability": "nonpayable",
      "type": "function"
    },
    {
      "inputs": [],
      "name": "owner",
      "outputs": [
        {
          "internalType": "address",
          "name": "",
          "type": "address"
        }
      ],
      "stateMutability": "view",
      "type": "function"
    },
    {
      "inputs": [
        {
          "internalType": "address",
          "name": "arbitrator",
          "type": "address"
        },
        {
          "internalType": "uint256",
          "name": "deadline",
          "type": "uint256"
        },
        {
          "internalType": "address",
          "name": "compensationReceiver",
          "type": "address"
        }
      ],
      "name": "registerTransaction",
      "outputs": [
        {
          "internalType": "uint256",
          "name": "",
          "type": "uint256"
        }
      ],
      "stateMutability": "payable",
      "type": "function"
    },
    {
      "inputs": [],
      "name": "renounceOwnership",
      "outputs": [],
      "stateMutability": "nonpayable",
      "type": "function"
    },
    {
      "inputs": [
        {
          "internalType": "bytes32",
          "name": "id",
          "type": "bytes32"
        },
        {
          "internalType": "bytes",
          "name": "btcTx",
          "type": "bytes"
        },
        {
          "internalType": "address",
          "name": "timeoutCompensationReceiver",
          "type": "address"
        }
      ],
      "name": "requestArbitration",
      "outputs": [],
      "stateMutability": "nonpayable",
      "type": "function"
    },
    {
      "inputs": [
        {
          "internalType": "bytes32",
          "name": "id",
          "type": "bytes32"
        },
        {
          "internalType": "bytes",
          "name": "btcTxSignature",
          "type": "bytes"
        }
      ],
      "name": "submitArbitration",
      "outputs": [],
      "stateMutability": "nonpayable",
      "type": "function"
    },
    {
      "inputs": [
        {
          "internalType": "bytes32",
          "name": "",
          "type": "bytes32"
        }
      ],
      "name": "transactions",
      "outputs": [
        {
          "internalType": "address",
          "name": "dapp",
          "type": "address"
        },
        {
          "internalType": "address",
          "name": "arbitrator",
          "type": "address"
        },
        {
          "internalType": "uint256",
          "name": "startTime",
          "type": "uint256"
        },
        {
          "internalType": "uint256",
          "name": "deadline",
          "type": "uint256"
        },
        {
          "internalType": "bytes",
          "name": "btcTx",
          "type": "bytes"
        },
        {
          "internalType": "bytes32",
          "name": "btcTxHash",
          "type": "bytes32"
        },
        {
          "internalType": "enum DataTypes.TransactionStatus",
          "name": "status",
          "type": "uint8"
        },
        {
          "internalType": "uint256",
          "name": "depositedFee",
          "type": "uint256"
        },
        {
          "internalType": "bytes",
          "name": "signature",
          "type": "bytes"
        },
        {
          "internalType": "address",
          "name": "compensationReceiver",
          "type": "address"
        },
        {
          "internalType": "address",
          "name": "timeoutCompensationReceiver",
          "type": "address"
        }
      ],
      "stateMutability": "view",
      "type": "function"
    },
    {
      "inputs": [
        {
          "internalType": "bytes32",
          "name": "id",
          "type": "bytes32"
        }
      ],
      "name": "transferArbitrationFee",
      "outputs": [
        {
          "internalType": "uint256",
          "name": "arbitratorFee",
          "type": "uint256"
        },
        {
          "internalType": "uint256",
          "name": "systemFee",
          "type": "uint256"
        }
      ],
      "stateMutability": "nonpayable",
      "type": "function"
    },
    {
      "inputs": [
        {
          "internalType": "address",
          "name": "newOwner",
          "type": "address"
        }
      ],
      "name": "transferOwnership",
      "outputs": [],
      "stateMutability": "nonpayable",
      "type": "function"
    },
    {
      "inputs": [
        {
          "internalType": "bytes32",
          "name": "",
          "type": "bytes32"
        }
      ],
      "name": "txHashToId",
      "outputs": [
        {
          "internalType": "bytes32",
          "name": "",
          "type": "bytes32"
        }
      ],
      "stateMutability": "view",
      "type": "function"
    }
  ],
  "bytecode": "0x60806040523480156200001157600080fd5b506200001c62000022565b620000d6565b7ff0c57e16840df040f15088dc2f81fe391c3923bec73e23a9662efc9c229c6a00805468010000000000000000900460ff1615620000735760405163f92ee8a960e01b815260040160405180910390fd5b80546001600160401b0390811614620000d35780546001600160401b0319166001600160401b0390811782556040519081527fc7f505b2f371ae2175ee4913f4499e1f2633a7b5936321eed1cdaeb6115181d29060200160405180910390a15b50565b613ca880620000e66000396000f3fe6080604052600436106101095760003560e01c80638da5cb5b11610095578063c0e3896b11610064578063c0e3896b14610319578063c1ce47d214610339578063ca0ab07514610366578063de0ca16614610386578063f2fde38b146103a657600080fd5b80638da5cb5b1461027c578063a130312a146102b9578063a890b7b4146102d9578063c0c53b8b146102f957600080fd5b80634e4f0ec4116100dc5780634e4f0ec4146101bb578063642f2eaf146101db578063715018a6146102125780637577b6df14610227578063759787c41461025c57600080fd5b80630559b8771461010e5780631613f25b1461014b578063350a07ea1461016c5780634aae13ca1461018e575b600080fd5b34801561011a57600080fd5b5060065461012e906001600160a01b031681565b6040516001600160a01b0390911681526020015b60405180910390f35b61015e61015936600461319e565b6103c6565b604051908152602001610142565b34801561017857600080fd5b5061018c6101873660046131e0565b610c08565b005b34801561019a57600080fd5b506101ae6101a93660046131fd565b610c87565b604051610142919061329e565b3480156101c757600080fd5b5061018c6101d63660046133ca565b610ea5565b3480156101e757600080fd5b506101fb6101f63660046131fd565b610fdc565b6040516101429b9a99989796959493929190613415565b34801561021e57600080fd5b5061018c611164565b34801561023357600080fd5b506102476102423660046131fd565b611178565b60408051928352602083019190915201610142565b34801561026857600080fd5b5060005461012e906001600160a01b031681565b34801561028857600080fd5b507f9016d09d72d40fdae2fd8ceac6b6234c7706214fd39c1cd1e609a0528c199300546001600160a01b031661012e565b3480156102c557600080fd5b5061018c6102d43660046131fd565b6111f4565b3480156102e557600080fd5b506101ae6102f43660046131fd565b611273565b34801561030557600080fd5b5061018c6103143660046134a0565b611463565b34801561032557600080fd5b5061018c6103343660046134e0565b61162d565b34801561034557600080fd5b5061015e6103543660046131fd565b60046020526000908152604090205481565b34801561037257600080fd5b5060025461012e906001600160a01b031681565b34801561039257600080fd5b5060015461012e906001600160a01b031681565b3480156103b257600080fd5b5061018c6103c13660046131e0565b6117dd565b60006103d0611820565b6001600160a01b03841615806103ed57506001600160a01b038216155b1561040b5760405163538ba4f960e01b815260040160405180910390fd5b60015460405163682dc82b60e11b81523360048201526001600160a01b039091169063d05b905690602401602060405180830381865afa158015610453573d6000803e3d6000fd5b505050506040513d601f19601f82011682018060405250810190610477919061353e565b6104945760405163289ea21560e11b815260040160405180910390fd5b600080546040516326415b0f60e21b81526001600160a01b038781166004830152909116906399056c3c90602401600060405180830381865afa1580156104df573d6000803e3d6000fd5b505050506040513d6000823e601f3d908101601f1916820160405261050791908101906136d3565b600054604051631c569df760e31b81526001600160a01b03888116600483015292935091169063e2b4efb890602401602060405180830381865afa158015610553573d6000803e3d6000fd5b505050506040513d601f19601f82011682018060405250810190610577919061353e565b6105945760405163689b992760e01b815260040160405180910390fd5b4284116105b457604051632c5af88760e21b815260040160405180910390fd5b60006105c04286613890565b60025460408051631c8c542360e11b815290519293506001600160a01b0390911691636dd5b69d918391633918a846916004808201926020929091908290030181865afa158015610615573d6000803e3d6000fd5b505050506040513d601f19601f8201168201806040525081019061063991906138a9565b6040518263ffffffff1660e01b815260040161065791815260200190565b602060405180830381865afa158015610674573d6000803e3d6000fd5b505050506040513d601f19601f8201168201806040525081019061069891906138a9565b8110806107785750600254604080516358d0b14760e01b815290516001600160a01b0390921691636dd5b69d9183916358d0b147916004808201926020929091908290030181865afa1580156106f2573d6000803e3d6000fd5b505050506040513d601f19601f8201168201806040525081019061071691906138a9565b6040518263ffffffff1660e01b815260040161073491815260200190565b602060405180830381865afa158015610751573d6000803e3d6000fd5b505050506040513d601f19601f8201168201806040525081019061077591906138a9565b81115b1561079657604051630c51c95b60e21b815260040160405180910390fd5b60006107a86127106301e133806138c2565b8360200151838560a001516107bd91906138c2565b6107c791906138c2565b6107d191906138d9565b600254604080516325ba6ce560e11b815290519293506000926001600160a01b0390921691636dd5b69d918391634b74d9ca916004808201926020929091908290030181865afa158015610829573d6000803e3d6000fd5b505050506040513d601f19601f8201168201806040525081019061084d91906138a9565b6040518263ffffffff1660e01b815260040161086b91815260200190565b602060405180830381865afa158015610888573d6000803e3d6000fd5b505050506040513d601f19601f820116820180604052508101906108ac91906138a9565b905080846020015110806108c557506127108460200151115b156108e357604051634560802960e01b815260040160405180910390fd5b8160000361090457604051632fb15b8760e01b815260040160405180910390fd5b81341015610925576040516380e5952760e01b815260040160405180910390fd5b600042338a6005600081548092919061093d906138fb565b909155506040805160208101959095526bffffffffffffffffffffffff19606094851b8116918601919091529190921b166054830152606882015260880160408051808303601f190181529082905280516020909101206000546315969bed60e11b83526001600160a01b038c81166004850152602484018390529193501690632b2d37da90604401600060405180830381600087803b1580156109e057600080fd5b505af11580156109f4573d6000803e3d6000fd5b50505050604051806101600160405280336001600160a01b031681526020018a6001600160a01b0316815260200142815260200189815260200160006001600160401b03811115610a4757610a47613560565b6040519080825280601f01601f191660200182016040528015610a71576020820181803683370190505b5081526000602080830182905260408084018390526060840188905280518381529182019052608090920191905081526001600160a01b03808a1660208084018290526040938401919091526000858152600380835290849020855181549085166001600160a01b0319918216178255928601516001820180549190951693169290921790925591830151600283015560608301519082015560808201516004820190610b1e908261399d565b5060a0820151600582015560c082015160068201805460ff19166001836004811115610b4c57610b4c613266565b021790555060e082015160078201556101008201516008820190610b70908261399d565b506101208201516009820180546001600160a01b03199081166001600160a01b039384161790915561014090930151600a909201805490931691811691909117909155604051908a1690339083907f3f9704516fd7b664375bdfc5fb0c00e1326d44378d723aa344109738be611a2a90600090a4945050505050610c016001600080516020613c5383398151915255565b9392505050565b610c1061186c565b6001600160a01b038116610c375760405163538ba4f960e01b815260040160405180910390fd5b600680546001600160a81b0319166001600160a01b038316908117600160a01b179091556040517f908408e307fc569b417f6cbec5d5a06f44a0a505ac0479b47d421a4b2fd6a1e690600090a250565b610c8f613130565b60008281526004602052604090205480610cbc5760405163d0e6a1c560e01b815260040160405180910390fd5b60008181526003602081815260409283902083516101608101855281546001600160a01b03908116825260018301541692810192909252600281015493820193909352908201546060820152600482018054919291608084019190610d2090613914565b80601f0160208091040260200160405190810160405280929190818152602001828054610d4c90613914565b8015610d995780601f10610d6e57610100808354040283529160200191610d99565b820191906000526020600020905b815481529060010190602001808311610d7c57829003601f168201915b505050918352505060058201546020820152600682015460409091019060ff166004811115610dca57610dca613266565b6004811115610ddb57610ddb613266565b815260200160078201548152602001600882018054610df990613914565b80601f0160208091040260200160405190810160405280929190818152602001828054610e2590613914565b8015610e725780601f10610e4757610100808354040283529160200191610e72565b820191906000526020600020905b815481529060010190602001808311610e5557829003601f168201915b505050918352505060098201546001600160a01b039081166020830152600a909201549091166040909101529392505050565b60008381526003602052604090206002600682015460ff166004811115610ece57610ece613266565b14610eeb5760405162cd158d60e51b815260040160405180910390fd5b6000546001820154604051630e70978b60e21b81526001600160a01b0391821660048201523360248201529116906339c25e2c90604401602060405180830381865afa158015610f3f573d6000803e3d6000fd5b505050506040513d601f19601f82011682018060405250810190610f63919061353e565b610f8057604051633d83866f60e01b815260040160405180910390fd5b60068101805460ff1916600117905560088101610f9e838583613a5c565b50805460405185916001600160a01b0316907fc5a53e8918a64b3e9944e2344fc4fdd4c8b33a433b3a696975c4996090b39f6190600090a350505050565b6003602081905260009182526040909120805460018201546002830154938301546004840180546001600160a01b03948516969490931694919261101f90613914565b80601f016020809104026020016040519081016040528092919081815260200182805461104b90613914565b80156110985780601f1061106d57610100808354040283529160200191611098565b820191906000526020600020905b81548152906001019060200180831161107b57829003601f168201915b5050506005840154600685015460078601546008870180549697939660ff9093169550909350906110c890613914565b80601f01602080910402602001604051908101604052809291908181526020018280546110f490613914565b80156111415780601f1061111657610100808354040283529160200191611141565b820191906000526020600020905b81548152906001019060200180831161112457829003601f168201915b505050506009830154600a9093015491926001600160a01b03908116921690508b565b61116c61186c565b61117660006118c7565b565b60065460009081906001600160a01b031633146111a857604051636f5ba97360e01b815260040160405180910390fd5b600654600160a01b900460ff166111d257604051630f68fe6360e21b815260040160405180910390fd5b60008381526003602052604090206111ea8482611938565b9250925050915091565b600081815260036020526040812090600682015460ff16600481111561121c5761121c613266565b146112395760405162cd158d60e51b815260040160405180910390fd5b80546001600160a01b0316331461126357604051633d83866f60e01b815260040160405180910390fd5b61126d8282611938565b50505050565b61127b613130565b60008281526003602081815260409283902083516101608101855281546001600160a01b039081168252600183015416928101929092526002810154938201939093529082015460608201526004820180549192916080840191906112df90613914565b80601f016020809104026020016040519081016040528092919081815260200182805461130b90613914565b80156113585780601f1061132d57610100808354040283529160200191611358565b820191906000526020600020905b81548152906001019060200180831161133b57829003601f168201915b505050918352505060058201546020820152600682015460409091019060ff16600481111561138957611389613266565b600481111561139a5761139a613266565b8152602001600782015481526020016008820180546113b890613914565b80601f01602080910402602001604051908101604052809291908181526020018280546113e490613914565b80156114315780601f1061140657610100808354040283529160200191611431565b820191906000526020600020905b81548152906001019060200180831161141457829003601f168201915b505050918352505060098201546001600160a01b039081166020830152600a9092015490911660409091015292915050565b7ff0c57e16840df040f15088dc2f81fe391c3923bec73e23a9662efc9c229c6a008054600160401b810460ff1615906001600160401b03166000811580156114a85750825b90506000826001600160401b031660011480156114c45750303b155b9050811580156114d2575080155b156114f05760405163f92ee8a960e01b815260040160405180910390fd5b845467ffffffffffffffff19166001178555831561151a57845460ff60401b1916600160401b1785555b611522611ddd565b61152b33611ded565b6001600160a01b0388166115525760405163538ba4f960e01b815260040160405180910390fd5b6001600160a01b0387166115795760405163538ba4f960e01b815260040160405180910390fd5b6001600160a01b0386166115a05760405163538ba4f960e01b815260040160405180910390fd5b600080546001600160a01b03808b166001600160a01b031992831617909255600180548a84169083161790556002805492891692909116919091179055831561162357845460ff60401b19168555604051600181527fc7f505b2f371ae2175ee4913f4499e1f2633a7b5936321eed1cdaeb6115181d29060200160405180910390a15b5050505050505050565b611635611820565b6001600160a01b03811661165c5760405163538ba4f960e01b815260040160405180910390fd5b600084815260036020526040812090600682015460ff16600481111561168457611684613266565b146116a15760405162cd158d60e51b815260040160405180910390fd5b80546001600160a01b031633146116cb57604051633d83866f60e01b815260040160405180910390fd5b60006116d78585611dfe565b905060006116e482611f92565b905060006002826040516116f89190613b1c565b602060405180830381855afa158015611715573d6000803e3d6000fd5b5050506040513d601f19601f8201168201806040525081019061173891906138a9565b60068501805460ff19166002179055905060048401611758878983613a5c565b5060058401819055600a840180546001600160a01b0319166001600160a01b03878116919091179091556000828152600460205260408082208b9055865490518b9391909116917f31e90e280e677d9edeb57411a7ccf29ae3094cc999a12de72dfdecf0b9ed1f0591a35050505061126d6001600080516020613c5383398151915255565b6117e561186c565b6001600160a01b03811661181457604051631e4fbdf760e01b8152600060048201526024015b60405180910390fd5b61181d816118c7565b50565b600080516020613c5383398151915280546001190161185257604051633ee5aeb560e01b815260040160405180910390fd5b60029055565b6001600080516020613c5383398151915255565b3361189e7f9016d09d72d40fdae2fd8ceac6b6234c7706214fd39c1cd1e609a0528c199300546001600160a01b031690565b6001600160a01b0316146111765760405163118cdaa760e01b815233600482015260240161180b565b7f9016d09d72d40fdae2fd8ceac6b6234c7706214fd39c1cd1e609a0528c19930080546001600160a01b031981166001600160a01b03848116918217845560405192169182907f8be0079c531659141344cd1fd0a4f28419497f9722a3daafe3b4186f6b6457e090600090a3505050565b6000805460018301546040516326415b0f60e21b81526001600160a01b0391821660048201528392839216906399056c3c90602401600060405180830381865afa15801561198a573d6000803e3d6000fd5b505050506040513d6000823e601f3d908101601f191682016040526119b291908101906136d3565b905060008460020154426119c69190613890565b905060006119da6127106301e133806138c2565b8360200151838560a001516119ef91906138c2565b6119f991906138c2565b611a0391906138d9565b6002546040805163286e9cd160e21b81529051929350600092612710926001600160a01b031691636dd5b69d91839163a1ba73449160048083019260209291908290030181865afa158015611a5c573d6000803e3d6000fd5b505050506040513d601f19601f82011682018060405250810190611a8091906138a9565b6040518263ffffffff1660e01b8152600401611a9e91815260200190565b602060405180830381865afa158015611abb573d6000803e3d6000fd5b505050506040513d601f19601f82011682018060405250810190611adf91906138a9565b611ae990846138c2565b611af391906138d9565b90506000611b018284613890565b90506000600260009054906101000a90046001600160a01b03166001600160a01b0316638b6570a06040518163ffffffff1660e01b8152600401602060405180830381865afa158015611b58573d6000803e3d6000fd5b505050506040513d601f19601f82011682018060405250810190611b7c9190613b38565b90506000816001600160a01b03168460405160006040518083038185875af1925050503d8060008114611bcb576040519150601f19603f3d011682016040523d82523d6000602084013e611bd0565b606091505b5050905080611bf257604051631fa55c0760e11b815260040160405180910390fd5b60018a01546040516000916001600160a01b03169085908381818185875af1925050503d8060008114611c41576040519150601f19603f3d011682016040523d82523d6000602084013e611c46565b606091505b5050905080611c6857604051631fa55c0760e11b815260040160405180910390fd5b478015611ce4578b546040516000916001600160a01b03169083908381818185875af1925050503d8060008114611cbb576040519150601f19603f3d011682016040523d82523d6000602084013e611cc0565b606091505b5050905080611ce257604051631fa55c0760e11b815260040160405180910390fd5b505b60008054906101000a90046001600160a01b03166001600160a01b031663cedb588b8d60010160009054906101000a90046001600160a01b03168f6040518363ffffffff1660e01b8152600401611d509291906001600160a01b03929092168252602082015260400190565b600060405180830381600087803b158015611d6a57600080fd5b505af1158015611d7e573d6000803e3d6000fd5b5050505060068c01805460ff191660011790558b546040518e916001600160a01b0316907fd4ce83344b315e3d656d76b02d51dcb1e3c92f1f9f9c28524cfb20882e9e6bc790600090a3509298509296505050505050505b9250929050565b611de5612633565b61117661267c565b611df5612633565b61181d81612684565b6040805160a081018252600080825260606020830181905292820183905291810182905260808101829052908280611e37600484613b55565b1115611e595760405160016203ac8b60e61b0319815260040160405180910390fd5b848285611e67600483613b55565b92611e7493929190613b68565b611e7d91613b92565b60e01c8352611e8d600483613b55565b9150600080611e9d87878661268c565b811515608088015294509150839050600080611eba89898561271f565b6020890182905296509150859050600080611ed68b8b85612817565b60408b01829052985091508790508515611efa57611ef78b8b8a87516128f7565b97505b86611f06896004613b55565b1115611f285760405160016203ac8b60e61b0319815260040160405180910390fd5b8a888b611f36826004613b55565b92611f4393929190613b68565b611f4c91613b92565b60e01c60608a0152611f5f600489613b55565b9750868814611f845760405160016203ac8b60e61b0319815260040160405180910390fd5b505050505050505092915050565b6060600060049050611fa883602001515161298a565b611fb29082613b55565b905060005b836020015151811015611ff057611fcf602883613b55565b9150611fdc600183613b55565b915080611fe8816138fb565b915050611fb7565b50611fff83604001515161298a565b6120099082613b55565b905060005b8360400151518110156120a157612026600883613b55565b91506120538460400151828151811061204157612041613bc2565b6020026020010151602001515161298a565b61205d9083613b55565b91508360400151818151811061207557612075613bc2565b602002602001015160200151518261208d9190613b55565b915080612099816138fb565b91505061200e565b506120ad600482613b55565b90506000816001600160401b038111156120c9576120c9613560565b6040519080825280601f01601f1916602001820160405280156120f3576020820181803683370190505b50845190915060009060e01b815b60048110156121645781816004811061211c5761211c613bc2565b1a60f81b8461212b8386613b55565b8151811061213b5761213b613bc2565b60200101906001600160f81b031916908160001a9053508061215c816138fb565b915050612101565b50612170600483613b55565b915061218286602001515184846129ce565b61218c9083613b55565b915060005b8660200151518110156123bd5760005b602081101561222557876020015182815181106121c0576121c0613bc2565b60200260200101516000015181602081106121dd576121dd613bc2565b1a60f81b856121ec8387613b55565b815181106121fc576121fc613bc2565b60200101906001600160f81b031916908160001a9053508061221d816138fb565b9150506121a1565b50612231602084613b55565b925060008760200151828151811061224b5761224b613bc2565b60200260200101516020015160e01b905060005b60048110156122c25781816004811061227a5761227a613bc2565b1a60f81b866122898388613b55565b8151811061229957612299613bc2565b60200101906001600160f81b031916908160001a905350806122ba816138fb565b91505061225f565b506122ce600485613b55565b9350600060f81b8585815181106122e7576122e7613bc2565b60200101906001600160f81b031916908160001a905350612309600185613b55565b935060008860200151838151811061232357612323613bc2565b60200260200101516060015160e01b905060005b600481101561239a5781816004811061235257612352613bc2565b1a60f81b876123618389613b55565b8151811061237157612371613bc2565b60200101906001600160f81b031916908160001a90535080612392816138fb565b915050612337565b506123a6600486613b55565b9450505080806123b5906138fb565b915050612191565b506123ce86604001515184846129ce565b6123d89083613b55565b915060005b8660400151518110156125b85760008760400151828151811061240257612402613bc2565b60200260200101516000015160c01b905060005b60088110156124795781816008811061243157612431613bc2565b1a60f81b866124408388613b55565b8151811061245057612450613bc2565b60200101906001600160f81b031916908160001a90535080612471816138fb565b915050612416565b50612485600885613b55565b93506124b4886040015183815181106124a0576124a0613bc2565b6020026020010151602001515186866129ce565b6124be9085613b55565b935060005b886040015183815181106124d9576124d9613bc2565b60200260200101516020015151811015612573578860400151838151811061250357612503613bc2565b602002602001015160200151818151811061252057612520613bc2565b01602001516001600160f81b0319168661253a8388613b55565b8151811061254a5761254a613bc2565b60200101906001600160f81b031916908160001a9053508061256b816138fb565b9150506124c3565b508760400151828151811061258a5761258a613bc2565b60200260200101516020015151846125a29190613b55565b93505080806125b0906138fb565b9150506123dd565b50606086015160e01b60005b6004811015612627578181600481106125df576125df613bc2565b1a60f81b856125ee8387613b55565b815181106125fe576125fe613bc2565b60200101906001600160f81b031916908160001a9053508061261f816138fb565b9150506125c4565b50929695505050505050565b7ff0c57e16840df040f15088dc2f81fe391c3923bec73e23a9662efc9c229c6a0054600160401b900460ff1661117657604051631afcd79f60e31b815260040160405180910390fd5b611858612633565b6117e5612633565b6000818361269b826002613b55565b116127175760008585858181106126b4576126b4613bc2565b919091013560f81c91506000905086866126cf876001613b55565b8181106126de576126de613bc2565b919091013560f81c91505060ff82161580156126fd575060ff81166001145b156127145760019350612711600284613b55565b92505b50505b935093915050565b60606000806000612731878787612c34565b90925090506127408186613b55565b9250816001600160401b0381111561275a5761275a613560565b6040519080825280602002602001820160405280156127ad57816020015b604080516080810182526000808252602080830182905260609383018490529282015282526000199092019101816127785790505b50935060005b8281101561280c576000806127c98a8a88612def565b91509150818784815181106127e0576127e0613bc2565b60209081029190910101526127f58187613b55565b955050508080612804906138fb565b9150506127b3565b505050935093915050565b60606000806000612829878787612c34565b90925090506128388186613b55565b9250816001600160401b0381111561285257612852613560565b60405190808252806020026020018201604052801561289857816020015b6040805180820190915260008152606060208201528152602001906001900390816128705790505b50935060005b8281101561280c576000806128b48a8a8861300b565b91509150818784815181106128cb576128cb613bc2565b60209081029190910101526128e08187613b55565b9550505080806128ef906138fb565b91505061289e565b8160005b8281101561298157600080612911888886612c34565b90925090506129208185613b55565b935060005b8281101561296b5760008061293b8b8b89612c34565b909250905061294a8282613b55565b6129549088613b55565b965050508080612963906138fb565b915050612925565b5050508080612979906138fb565b9150506128fb565b50949350505050565b600060fc82101561299d57506001919050565b61ffff82116129ae57506003919050565b63ffffffff82116129c157506005919050565b506009919050565b919050565b600060fc841015612a0f578360f81b8383815181106129ef576129ef613bc2565b60200101906001600160f81b031916908160001a90535060019050610c01565b61ffff8411612ac95760fd60f81b838381518110612a2f57612a2f613bc2565b60200101906001600160f81b031916908160001a90535060f084901b8060001a60f81b84612a5e856001613b55565b81518110612a6e57612a6e613bc2565b60200101906001600160f81b031916908160001a9053508060011a60f81b84612a98856002613b55565b81518110612aa857612aa8613bc2565b60200101906001600160f81b031916908160001a9053506003915050610c01565b63ffffffff8411612b845760fe60f81b838381518110612aeb57612aeb613bc2565b60200101906001600160f81b031916908160001a90535060e084901b60005b6004811015612b7957818160048110612b2557612b25613bc2565b1a60f81b8582612b36876001613b55565b612b409190613b55565b81518110612b5057612b50613bc2565b60200101906001600160f81b031916908160001a90535080612b71816138fb565b915050612b0a565b506005915050610c01565b60ff60f81b838381518110612b9b57612b9b613bc2565b60200101906001600160f81b031916908160001a90535060c084901b60005b6008811015612c2957818160088110612bd557612bd5613bc2565b1a60f81b8582612be6876001613b55565b612bf09190613b55565b81518110612c0057612c00613bc2565b60200101906001600160f81b031916908160001a90535080612c21816138fb565b915050612bba565b506009915050610c01565b600080838310612c5a5760405160016203ac8b60e61b0319815260040160405180910390fd5b6000858585818110612c6e57612c6e613bc2565b919091013560f81c91505060fc811015612c905760ff16915060019050612717565b60fc1960ff821601612d095784612ca8856003613b55565b1115612cca5760405160016203ac8b60e61b0319815260040160405180910390fd5b8585612cd7866001613b55565b90612ce3876003613b55565b92612cf093929190613b68565b612cf991613bd8565b60f01c9250600391506127179050565b60fd1960ff821601612d825784612d21856005613b55565b1115612d435760405160016203ac8b60e61b0319815260040160405180910390fd5b8585612d50866001613b55565b90612d5c876005613b55565b92612d6993929190613b68565b612d7291613b92565b60e01c9250600591506127179050565b84612d8e856009613b55565b1115612db05760405160016203ac8b60e61b0319815260040160405180910390fd5b8585612dbd866001613b55565b90612dc9876009613b55565b92612dd693929190613b68565b612ddf91613c06565b60c01c9250600991506127179050565b6040805160808101825260008082526020820181905260609282018390529181019190915260008284612e23826020613b55565b1115612e455760405160016203ac8b60e61b0319815260040160405180910390fd5b858486612e53826020613b55565b92612e6093929190613b68565b612e6991613c34565b8352612e76602085613b55565b935084612e84856004613b55565b1115612ea65760405160016203ac8b60e61b0319815260040160405180910390fd5b858486612eb4826004613b55565b92612ec193929190613b68565b612eca91613b92565b60e01c6020840152612edd600485613b55565b9350600080612eed888888612c34565b9092509050612efc8187613b55565b955086612f098388613b55565b1115612f2b5760405160016203ac8b60e61b0319815260040160405180910390fd5b878688612f388583613b55565b92612f4593929190613b68565b8080601f0160208091040260200160405190810160405280939291908181526020018383808284376000920191909152505050506040860152612f888287613b55565b955086612f96876004613b55565b1115612fb85760405160016203ac8b60e61b0319815260040160405180910390fd5b878688612fc6826004613b55565b92612fd393929190613b68565b612fdc91613b92565b60e01c6060860152612fef600487613b55565b955084612ffc8488613890565b94509450505050935093915050565b6040805180820190915260008152606060208201526000828461302f826008613b55565b11156130515760405160016203ac8b60e61b0319815260040160405180910390fd5b85848661305f826008613b55565b9261306c93929190613b68565b61307591613c06565b60c01c8352613085600885613b55565b9350600080613095888888612c34565b90925090506130a48187613b55565b9550866130b18388613b55565b11156130d35760405160016203ac8b60e61b0319815260040160405180910390fd5b8786886130e08583613b55565b926130ed93929190613b68565b8080601f0160208091040260200160405190810160405280939291908181526020018383808284376000920191909152505050506020860152612fef8287613b55565b60408051610160810182526000808252602082018190529181018290526060808201839052608082015260a081018290529060c08201908152600060208201819052606060408301819052820181905260809091015290565b6001600160a01b038116811461181d57600080fd5b6000806000606084860312156131b357600080fd5b83356131be81613189565b92506020840135915060408401356131d581613189565b809150509250925092565b6000602082840312156131f257600080fd5b8135610c0181613189565b60006020828403121561320f57600080fd5b5035919050565b60005b83811015613231578181015183820152602001613219565b50506000910152565b60008151808452613252816020860160208601613216565b601f01601f19169290920160200192915050565b634e487b7160e01b600052602160045260246000fd5b6005811061329a57634e487b7160e01b600052602160045260246000fd5b9052565b602081526132b86020820183516001600160a01b03169052565b600060208301516132d460408401826001600160a01b03169052565b50604083015160608301526060830151608083015260808301516101608060a085015261330561018085018361323a565b915060a085015160c085015260c085015161332360e086018261327c565b5060e0850151610100818187015280870151915050610120601f198685030181870152613350848361323a565b935080870151915050610140613370818701836001600160a01b03169052565b909501516001600160a01b031693019290925250919050565b60008083601f84011261339b57600080fd5b5081356001600160401b038111156133b257600080fd5b602083019150836020828501011115611dd657600080fd5b6000806000604084860312156133df57600080fd5b8335925060208401356001600160401b038111156133fc57600080fd5b61340886828701613389565b9497909650939450505050565b600061016060018060a01b03808f168452808e1660208501528c60408501528b606085015281608085015261344c8285018c61323a565b91508960a085015261346160c085018a61327c565b8760e085015283820361010085015261347a828861323a565b925080861661012085015280851661014085015250509c9b505050505050505050505050565b6000806000606084860312156134b557600080fd5b83356134c081613189565b925060208401356134d081613189565b915060408401356131d581613189565b600080600080606085870312156134f657600080fd5b8435935060208501356001600160401b0381111561351357600080fd5b61351f87828801613389565b909450925050604085013561353381613189565b939692955090935050565b60006020828403121561355057600080fd5b81518015158114610c0157600080fd5b634e487b7160e01b600052604160045260246000fd5b60405161020081016001600160401b038111828210171561359957613599613560565b60405290565b604051601f8201601f191681016001600160401b03811182821017156135c7576135c7613560565b604052919050565b80516129c981613189565b8051600481106129c957600080fd5b600082601f8301126135fa57600080fd5b815160206001600160401b0382111561361557613615613560565b8160051b61362482820161359f565b928352848101820192828101908785111561363e57600080fd5b83870192505b8483101561365d57825182529183019190830190613644565b979650505050505050565b600082601f83011261367957600080fd5b81516001600160401b0381111561369257613692613560565b6136a5601f8201601f191660200161359f565b8181528460208386010111156136ba57600080fd5b6136cb826020830160208701613216565b949350505050565b6000602082840312156136e557600080fd5b81516001600160401b03808211156136fc57600080fd5b90830190610200828603121561371157600080fd5b613719613576565b613722836135cf565b81526020830151602082015260408301516040820152613744606084016135da565b60608201526080830151608082015260a083015160a082015261376960c084016135cf565b60c082015261377a60e084016135cf565b60e0820152610100808401518381111561379357600080fd5b61379f888287016135e9565b8284015250506101206137b38185016135cf565b9082015261014083810151838111156137cb57600080fd5b6137d788828701613668565b82840152505061016080840151838111156137f157600080fd5b6137fd88828701613668565b8284015250506101808084015181830152506101a0808401518381111561382357600080fd5b61382f88828701613668565b8284015250506101c0808401518381111561384957600080fd5b61385588828701613668565b8284015250506101e0915061386b8284016135cf565b91810191909152949350505050565b634e487b7160e01b600052601160045260246000fd5b818103818111156138a3576138a361387a565b92915050565b6000602082840312156138bb57600080fd5b5051919050565b80820281158282048414176138a3576138a361387a565b6000826138f657634e487b7160e01b600052601260045260246000fd5b500490565b60006001820161390d5761390d61387a565b5060010190565b600181811c9082168061392857607f821691505b60208210810361394857634e487b7160e01b600052602260045260246000fd5b50919050565b601f82111561399857600081815260208120601f850160051c810160208610156139755750805b601f850160051c820191505b8181101561399457828155600101613981565b5050505b505050565b81516001600160401b038111156139b6576139b6613560565b6139ca816139c48454613914565b8461394e565b602080601f8311600181146139ff57600084156139e75750858301515b600019600386901b1c1916600185901b178555613994565b600085815260208120601f198616915b82811015613a2e57888601518255948401946001909101908401613a0f565b5085821015613a4c5787850151600019600388901b60f8161c191681555b5050505050600190811b01905550565b6001600160401b03831115613a7357613a73613560565b613a8783613a818354613914565b8361394e565b6000601f841160018114613abb5760008515613aa35750838201355b600019600387901b1c1916600186901b178355613b15565b600083815260209020601f19861690835b82811015613aec5786850135825560209485019460019092019101613acc565b5086821015613b095760001960f88860031b161c19848701351681555b505060018560011b0183555b5050505050565b60008251613b2e818460208701613216565b9190910192915050565b600060208284031215613b4a57600080fd5b8151610c0181613189565b808201808211156138a3576138a361387a565b60008085851115613b7857600080fd5b83861115613b8557600080fd5b5050820193919092039150565b6001600160e01b03198135818116916004851015613bba5780818660040360031b1b83161692505b505092915050565b634e487b7160e01b600052603260045260246000fd5b6001600160f01b03198135818116916002851015613bba5760029490940360031b84901b1690921692915050565b6001600160c01b03198135818116916008851015613bba5760089490940360031b84901b1690921692915050565b803560208310156138a357600019602084900360031b1b169291505056fe9b779b17422d0df92223018b32b4d1fa46e071723d6817e2486d003becc55f00a264697066735822122085cfe525b6cd9cd8327fb6bae0ff9ea964c8e672831db749c4f13860ede69ecc64736f6c63430008140033",
  "linkReferences": {},
  "deployedLinkReferences": {}
}