{
  "_format": "hh-sol-artifact-1",
  "contractName": "TransactionManager",
  "sourceName": "contracts/core/TransactionManager.sol",
  "abi": [
    {
      "inputs": [],
      "stateMutability": "nonpayable",
      "type": "constructor"
    },
    {
      "inputs": [],
      "name": "InvalidInitialization",
      "type": "error"
    },
    {
      "inputs": [],
      "name": "NotInitializing",
      "type": "error"
    },
    {
      "inputs": [
        {
          "internalType": "address",
          "name": "owner",
          "type": "address"
        }
      ],
      "name": "OwnableInvalidOwner",
      "type": "error"
    },
    {
      "inputs": [
        {
          "internalType": "address",
          "name": "account",
          "type": "address"
        }
      ],
      "name": "OwnableUnauthorizedAccount",
      "type": "error"
    },
    {
      "inputs": [],
      "name": "ReentrancyGuardReentrantCall",
      "type": "error"
    },
    {
      "anonymous": false,
      "inputs": [
        {
          "indexed": true,
          "internalType": "address",
          "name": "dapp",
          "type": "address"
        },
        {
          "indexed": true,
          "internalType": "bytes32",
          "name": "txId",
          "type": "bytes32"
        }
      ],
      "name": "ArbitrationRequested",
      "type": "event"
    },
    {
      "anonymous": false,
      "inputs": [
        {
          "indexed": true,
          "internalType": "address",
          "name": "dapp",
          "type": "address"
        },
        {
          "indexed": true,
          "internalType": "bytes32",
          "name": "txId",
          "type": "bytes32"
        }
      ],
      "name": "ArbitrationSubmitted",
      "type": "event"
    },
    {
      "anonymous": false,
      "inputs": [
        {
          "indexed": true,
          "internalType": "address",
          "name": "compensationManager",
          "type": "address"
        }
      ],
      "name": "CompensationManagerInitialized",
      "type": "event"
    },
    {
      "anonymous": false,
      "inputs": [
        {
          "indexed": false,
          "internalType": "uint64",
          "name": "version",
          "type": "uint64"
        }
      ],
      "name": "Initialized",
      "type": "event"
    },
    {
      "anonymous": false,
      "inputs": [
        {
          "indexed": true,
          "internalType": "address",
          "name": "previousOwner",
          "type": "address"
        },
        {
          "indexed": true,
          "internalType": "address",
          "name": "newOwner",
          "type": "address"
        }
      ],
      "name": "OwnershipTransferred",
      "type": "event"
    },
    {
      "anonymous": false,
      "inputs": [
        {
          "indexed": true,
          "internalType": "bytes32",
          "name": "id",
          "type": "bytes32"
        }
      ],
      "name": "TransactionCancelled",
      "type": "event"
    },
    {
      "anonymous": false,
      "inputs": [
        {
          "indexed": true,
          "internalType": "address",
          "name": "dapp",
          "type": "address"
        },
        {
          "indexed": true,
          "internalType": "bytes32",
          "name": "txId",
          "type": "bytes32"
        }
      ],
      "name": "TransactionCompleted",
      "type": "event"
    },
    {
      "anonymous": false,
      "inputs": [
        {
          "indexed": true,
          "internalType": "bytes32",
          "name": "id",
          "type": "bytes32"
        },
        {
          "indexed": true,
          "internalType": "address",
          "name": "sender",
          "type": "address"
        },
        {
          "indexed": true,
          "internalType": "address",
          "name": "arbitrator",
          "type": "address"
        }
      ],
      "name": "TransactionCreated",
      "type": "event"
    },
    {
      "anonymous": false,
      "inputs": [
        {
          "indexed": true,
          "internalType": "bytes32",
          "name": "id",
          "type": "bytes32"
        },
        {
          "indexed": true,
          "internalType": "address",
          "name": "dapp",
          "type": "address"
        },
        {
          "indexed": true,
          "internalType": "address",
          "name": "arbitrator",
          "type": "address"
        }
      ],
      "name": "TransactionRegistered",
      "type": "event"
    },
    {
      "inputs": [],
      "name": "arbitratorManager",
      "outputs": [
        {
          "internalType": "contract IArbitratorManager",
          "name": "",
          "type": "address"
        }
      ],
      "stateMutability": "view",
      "type": "function"
    },
    {
      "inputs": [],
      "name": "compensationManager",
      "outputs": [
        {
          "internalType": "address",
          "name": "",
          "type": "address"
        }
      ],
      "stateMutability": "view",
      "type": "function"
    },
    {
      "inputs": [
        {
          "internalType": "bytes32",
          "name": "id",
          "type": "bytes32"
        }
      ],
      "name": "completeTransaction",
      "outputs": [],
      "stateMutability": "nonpayable",
      "type": "function"
    },
    {
      "inputs": [],
      "name": "configManager",
      "outputs": [
        {
          "internalType": "contract ConfigManager",
          "name": "",
          "type": "address"
        }
      ],
      "stateMutability": "view",
      "type": "function"
    },
    {
      "inputs": [],
      "name": "dappRegistry",
      "outputs": [
        {
          "internalType": "contract IDAppRegistry",
          "name": "",
          "type": "address"
        }
      ],
      "stateMutability": "view",
      "type": "function"
    },
    {
      "inputs": [
        {
          "internalType": "uint256",
          "name": "deadline",
          "type": "uint256"
        },
        {
          "internalType": "address",
          "name": "arbitrator",
          "type": "address"
        }
      ],
      "name": "getRegisterTransactionFee",
      "outputs": [
        {
          "internalType": "uint256",
          "name": "fee",
          "type": "uint256"
        }
      ],
      "stateMutability": "view",
      "type": "function"
    },
    {
      "inputs": [
        {
          "internalType": "bytes32",
          "name": "txHash",
          "type": "bytes32"
        }
      ],
      "name": "getTransaction",
      "outputs": [
        {
          "components": [
            {
              "internalType": "address",
              "name": "dapp",
              "type": "address"
            },
            {
              "internalType": "address",
              "name": "arbitrator",
              "type": "address"
            },
            {
              "internalType": "uint256",
              "name": "startTime",
              "type": "uint256"
            },
            {
              "internalType": "uint256",
              "name": "deadline",
              "type": "uint256"
            },
            {
              "internalType": "bytes",
              "name": "btcTx",
              "type": "bytes"
            },
            {
              "internalType": "bytes32",
              "name": "btcTxHash",
              "type": "bytes32"
            },
            {
              "internalType": "enum DataTypes.TransactionStatus",
              "name": "status",
              "type": "uint8"
            },
            {
              "internalType": "uint256",
              "name": "depositedFee",
              "type": "uint256"
            },
            {
              "internalType": "bytes",
              "name": "signature",
              "type": "bytes"
            },
            {
              "internalType": "address",
              "name": "compensationReceiver",
              "type": "address"
            },
            {
              "internalType": "address",
              "name": "timeoutCompensationReceiver",
              "type": "address"
            },
            {
              "components": [
                {
                  "internalType": "bytes32",
                  "name": "txHash",
                  "type": "bytes32"
                },
                {
                  "internalType": "uint32",
                  "name": "index",
                  "type": "uint32"
                },
                {
                  "internalType": "bytes",
                  "name": "script",
                  "type": "bytes"
                },
                {
                  "internalType": "uint256",
                  "name": "amount",
                  "type": "uint256"
                }
              ],
              "internalType": "struct DataTypes.UTXO[]",
              "name": "utxos",
              "type": "tuple[]"
            }
          ],
          "internalType": "struct DataTypes.Transaction",
          "name": "",
          "type": "tuple"
        }
      ],
      "stateMutability": "view",
      "type": "function"
    },
    {
      "inputs": [
        {
          "internalType": "bytes32",
          "name": "id",
          "type": "bytes32"
        }
      ],
      "name": "getTransactionById",
      "outputs": [
        {
          "components": [
            {
              "internalType": "address",
              "name": "dapp",
              "type": "address"
            },
            {
              "internalType": "address",
              "name": "arbitrator",
              "type": "address"
            },
            {
              "internalType": "uint256",
              "name": "startTime",
              "type": "uint256"
            },
            {
              "internalType": "uint256",
              "name": "deadline",
              "type": "uint256"
            },
            {
              "internalType": "bytes",
              "name": "btcTx",
              "type": "bytes"
            },
            {
              "internalType": "bytes32",
              "name": "btcTxHash",
              "type": "bytes32"
            },
            {
              "internalType": "enum DataTypes.TransactionStatus",
              "name": "status",
              "type": "uint8"
            },
            {
              "internalType": "uint256",
              "name": "depositedFee",
              "type": "uint256"
            },
            {
              "internalType": "bytes",
              "name": "signature",
              "type": "bytes"
            },
            {
              "internalType": "address",
              "name": "compensationReceiver",
              "type": "address"
            },
            {
              "internalType": "address",
              "name": "timeoutCompensationReceiver",
              "type": "address"
            },
            {
              "components": [
                {
                  "internalType": "bytes32",
                  "name": "txHash",
                  "type": "bytes32"
                },
                {
                  "internalType": "uint32",
                  "name": "index",
                  "type": "uint32"
                },
                {
                  "internalType": "bytes",
                  "name": "script",
                  "type": "bytes"
                },
                {
                  "internalType": "uint256",
                  "name": "amount",
                  "type": "uint256"
                }
              ],
              "internalType": "struct DataTypes.UTXO[]",
              "name": "utxos",
              "type": "tuple[]"
            }
          ],
          "internalType": "struct DataTypes.Transaction",
          "name": "",
          "type": "tuple"
        }
      ],
      "stateMutability": "view",
      "type": "function"
    },
    {
      "inputs": [
        {
          "internalType": "address",
          "name": "_compensationManager",
          "type": "address"
        }
      ],
      "name": "initCompensationManager",
      "outputs": [],
      "stateMutability": "nonpayable",
      "type": "function"
    },
    {
      "inputs": [
        {
          "internalType": "address",
          "name": "_arbitratorManager",
          "type": "address"
        },
        {
          "internalType": "address",
          "name": "_dappRegistry",
          "type": "address"
        },
        {
          "internalType": "address",
          "name": "_configManager",
          "type": "address"
        }
      ],
      "name": "initialize",
      "outputs": [],
      "stateMutability": "nonpayable",
      "type": "function"
    },
    {
      "inputs": [
        {
          "internalType": "bytes32",
          "name": "id",
          "type": "bytes32"
        }
      ],
      "name": "isAbleCompletedTransaction",
      "outputs": [
        {
          "internalType": "bool",
          "name": "",
          "type": "bool"
        }
      ],
      "stateMutability": "view",
      "type": "function"
    },
    {
      "inputs": [],
      "name": "owner",
      "outputs": [
        {
          "internalType": "address",
          "name": "",
          "type": "address"
        }
      ],
      "stateMutability": "view",
      "type": "function"
    },
    {
      "inputs": [
        {
          "components": [
            {
              "internalType": "bytes32",
              "name": "txHash",
              "type": "bytes32"
            },
            {
              "internalType": "uint32",
              "name": "index",
              "type": "uint32"
            },
            {
              "internalType": "bytes",
              "name": "script",
              "type": "bytes"
            },
            {
              "internalType": "uint256",
              "name": "amount",
              "type": "uint256"
            }
          ],
          "internalType": "struct DataTypes.UTXO[]",
          "name": "utxos",
          "type": "tuple[]"
        },
        {
          "internalType": "address",
          "name": "arbitrator",
          "type": "address"
        },
        {
          "internalType": "uint256",
          "name": "deadline",
          "type": "uint256"
        },
        {
          "internalType": "address",
          "name": "compensationReceiver",
          "type": "address"
        }
      ],
      "name": "registerTransaction",
      "outputs": [
        {
          "internalType": "bytes32",
          "name": "",
          "type": "bytes32"
        }
      ],
      "stateMutability": "payable",
      "type": "function"
    },
    {
      "inputs": [],
      "name": "renounceOwnership",
      "outputs": [],
      "stateMutability": "nonpayable",
      "type": "function"
    },
    {
      "inputs": [
        {
          "internalType": "bytes32",
          "name": "id",
          "type": "bytes32"
        },
        {
          "internalType": "bytes",
          "name": "btcTx",
          "type": "bytes"
        },
        {
          "internalType": "address",
          "name": "timeoutCompensationReceiver",
          "type": "address"
        }
      ],
      "name": "requestArbitration",
      "outputs": [],
      "stateMutability": "nonpayable",
      "type": "function"
    },
    {
      "inputs": [
        {
          "internalType": "bytes32",
          "name": "id",
          "type": "bytes32"
        },
        {
          "internalType": "bytes",
          "name": "btcTxSignature",
          "type": "bytes"
        }
      ],
      "name": "submitArbitration",
      "outputs": [],
      "stateMutability": "nonpayable",
      "type": "function"
    },
    {
      "inputs": [
        {
          "internalType": "bytes32",
          "name": "",
          "type": "bytes32"
        }
      ],
      "name": "transactions",
      "outputs": [
        {
          "internalType": "address",
          "name": "dapp",
          "type": "address"
        },
        {
          "internalType": "address",
          "name": "arbitrator",
          "type": "address"
        },
        {
          "internalType": "uint256",
          "name": "startTime",
          "type": "uint256"
        },
        {
          "internalType": "uint256",
          "name": "deadline",
          "type": "uint256"
        },
        {
          "internalType": "bytes",
          "name": "btcTx",
          "type": "bytes"
        },
        {
          "internalType": "bytes32",
          "name": "btcTxHash",
          "type": "bytes32"
        },
        {
          "internalType": "enum DataTypes.TransactionStatus",
          "name": "status",
          "type": "uint8"
        },
        {
          "internalType": "uint256",
          "name": "depositedFee",
          "type": "uint256"
        },
        {
          "internalType": "bytes",
          "name": "signature",
          "type": "bytes"
        },
        {
          "internalType": "address",
          "name": "compensationReceiver",
          "type": "address"
        },
        {
          "internalType": "address",
          "name": "timeoutCompensationReceiver",
          "type": "address"
        }
      ],
      "stateMutability": "view",
      "type": "function"
    },
    {
      "inputs": [
        {
          "internalType": "bytes32",
          "name": "id",
          "type": "bytes32"
        }
      ],
      "name": "transferArbitrationFee",
      "outputs": [
        {
          "internalType": "uint256",
          "name": "arbitratorFee",
          "type": "uint256"
        },
        {
          "internalType": "uint256",
          "name": "systemFee",
          "type": "uint256"
        }
      ],
      "stateMutability": "nonpayable",
      "type": "function"
    },
    {
      "inputs": [
        {
          "internalType": "address",
          "name": "newOwner",
          "type": "address"
        }
      ],
      "name": "transferOwnership",
      "outputs": [],
      "stateMutability": "nonpayable",
      "type": "function"
    },
    {
      "inputs": [
        {
          "internalType": "bytes32",
          "name": "",
          "type": "bytes32"
        }
      ],
      "name": "txHashToId",
      "outputs": [
        {
          "internalType": "bytes32",
          "name": "",
          "type": "bytes32"
        }
      ],
      "stateMutability": "view",
      "type": "function"
    }
  ],
  "bytecode": "0x60806040523480156200001157600080fd5b506200001c62000022565b620000d6565b7ff0c57e16840df040f15088dc2f81fe391c3923bec73e23a9662efc9c229c6a00805468010000000000000000900460ff1615620000735760405163f92ee8a960e01b815260040160405180910390fd5b80546001600160401b0390811614620000d35780546001600160401b0319166001600160401b0390811782556040519081527fc7f505b2f371ae2175ee4913f4499e1f2633a7b5936321eed1cdaeb6115181d29060200160405180910390a15b50565b61556580620000e66000396000f3fe60806040526004361061011f5760003560e01c80639100c062116100a0578063c0e3896b11610064578063c0e3896b1461037f578063c1ce47d21461039f578063ca0ab075146103cc578063de0ca166146103ec578063f2fde38b1461040c57600080fd5b80639100c062146102de578063a130312a146102ff578063a71571901461031f578063a890b7b41461033f578063c0c53b8b1461035f57600080fd5b8063642f2eaf116100e7578063642f2eaf14610200578063715018a6146102375780637577b6df1461024c578063759787c4146102815780638da5cb5b146102a157600080fd5b80630559b87714610124578063350a07ea146101615780634aae13ca146101835780634e4f0ec4146101b0578063520936b5146101d0575b600080fd5b34801561013057600080fd5b50600654610144906001600160a01b031681565b6040516001600160a01b0390911681526020015b60405180910390f35b34801561016d57600080fd5b5061018161017c366004614838565b61042c565b005b34801561018f57600080fd5b506101a361019e366004614855565b6104d5565b6040516101589190614980565b3480156101bc57600080fd5b506101816101cb366004614ac9565b61083c565b3480156101dc57600080fd5b506101f06101eb366004614855565b610d12565b6040519015158152602001610158565b34801561020c57600080fd5b5061022061021b366004614855565b6110a2565b6040516101589b9a99989796959493929190614b14565b34801561024357600080fd5b5061018161122a565b34801561025857600080fd5b5061026c610267366004614855565b61123e565b60408051928352602083019190915201610158565b34801561028d57600080fd5b50600054610144906001600160a01b031681565b3480156102ad57600080fd5b507f9016d09d72d40fdae2fd8ceac6b6234c7706214fd39c1cd1e609a0528c199300546001600160a01b0316610144565b6102f16102ec366004614b9f565b611310565b604051908152602001610158565b34801561030b57600080fd5b5061018161031a366004614855565b611af4565b34801561032b57600080fd5b506102f161033a366004614c41565b611c0f565b34801561034b57600080fd5b506101a361035a366004614855565b61205c565b34801561036b57600080fd5b5061018161037a366004614c71565b61236b565b34801561038b57600080fd5b5061018161039a366004614cbc565b612598565b3480156103ab57600080fd5b506102f16103ba366004614855565b60046020526000908152604090205481565b3480156103d857600080fd5b50600254610144906001600160a01b031681565b3480156103f857600080fd5b50600154610144906001600160a01b031681565b34801561041857600080fd5b50610181610427366004614838565b6127c5565b610434612803565b6001600160a01b03811661048557604080518082018252600c81526b5a65726f206164647265737360a01b6020820152905162461bcd60e51b815261047c9190600401614d1a565b60405180910390fd5b600680546001600160a81b0319166001600160a01b038316908117600160a01b179091556040517f3e89cfb4fcf3c219579a7287319c014b58f4ff0f30188fd1d661727cf54faae590600090a250565b6104dd61470d565b60008281526004602052604090205480610534576040805180820182526015815274151c985b9cd858dd1a5bdb881b9bdd08199bdd5b99605a1b6020820152905162461bcd60e51b815261047c9190600401614d1a565b60008181526003602081815260409283902083516101808101855281546001600160a01b0390811682526001830154169281019290925260028101549382019390935290820154606082015260048201805491929160808401919061059890614d2d565b80601f01602080910402602001604051908101604052809291908181526020018280546105c490614d2d565b80156106115780601f106105e657610100808354040283529160200191610611565b820191906000526020600020905b8154815290600101906020018083116105f457829003601f168201915b50505091835250506005828101546020830152600683015460409092019160ff1690811115610642576106426148be565b6005811115610653576106536148be565b81526020016007820154815260200160088201805461067190614d2d565b80601f016020809104026020016040519081016040528092919081815260200182805461069d90614d2d565b80156106ea5780601f106106bf576101008083540402835291602001916106ea565b820191906000526020600020905b8154815290600101906020018083116106cd57829003601f168201915b505050918352505060098201546001600160a01b03908116602080840191909152600a840154909116604080840191909152600b84018054825181850281018501909352808352606090940193919290919060009084015b8282101561082d576000848152602090819020604080516080810182526004860290920180548352600181015463ffffffff16938301939093526002830180549293929184019161079290614d2d565b80601f01602080910402602001604051908101604052809291908181526020018280546107be90614d2d565b801561080b5780601f106107e05761010080835404028352916020019161080b565b820191906000526020600020905b8154815290600101906020018083116107ee57829003601f168201915b5050505050815260200160038201548152505081526020019060010190610742565b50505091525090949350505050565b60008381526003602052604090206002600682015460ff166005811115610865576108656148be565b146108b557604080518082018252601a81527f496e76616c6964207472616e73616374696f6e207374617475730000000000006020820152905162461bcd60e51b815261047c9190600401614d1a565b604080516101808101825282546001600160a01b039081168252600184015416602082015260028301549181019190915260038201546060820152600482018054610bae9291849160808401919061090c90614d2d565b80601f016020809104026020016040519081016040528092919081815260200182805461093890614d2d565b80156109855780601f1061095a57610100808354040283529160200191610985565b820191906000526020600020905b81548152906001019060200180831161096857829003601f168201915b50505091835250506005828101546020830152600683015460409092019160ff16908111156109b6576109b66148be565b60058111156109c7576109c76148be565b8152602001600782015481526020016008820180546109e590614d2d565b80601f0160208091040260200160405190810160405280929190818152602001828054610a1190614d2d565b8015610a5e5780601f10610a3357610100808354040283529160200191610a5e565b820191906000526020600020905b815481529060010190602001808311610a4157829003601f168201915b505050918352505060098201546001600160a01b03908116602080840191909152600a840154909116604080840191909152600b84018054825181850281018501909352808352606090940193919290919060009084015b82821015610ba1576000848152602090819020604080516080810182526004860290920180548352600181015463ffffffff169383019390935260028301805492939291840191610b0690614d2d565b80601f0160208091040260200160405190810160405280929190818152602001828054610b3290614d2d565b8015610b7f5780601f10610b5457610100808354040283529160200191610b7f565b820191906000526020600020905b815481529060010190602001808311610b6257829003601f168201915b5050505050815260200160038201548152505081526020019060010190610ab6565b505050508152505061285e565b15610bfe57604080518082018252601d81527f4f7574207375626d6974746564207369676e6174757265732074696d650000006020820152905162461bcd60e51b815261047c9190600401614d1a565b6000546001820154604051630e70978b60e21b81526001600160a01b0391821660048201523360248201529116906339c25e2c90604401602060405180830381865afa158015610c52573d6000803e3d6000fd5b505050506040513d601f19601f82011682018060405250810190610c769190614d67565b610cb657604080518082018252600e81526d139bdd08185d5d1a1bdc9a5e995960921b6020820152905162461bcd60e51b815261047c9190600401614d1a565b60068101805460ff1916600517905560088101610cd4838583614dee565b50805460405185916001600160a01b0316907fc5a53e8918a64b3e9944e2344fc4fdd4c8b33a433b3a696975c4996090b39f6190600090a350505050565b600081815260036020818152604080842081516101808101835281546001600160a01b039081168252600183015416938101939093526002810154918301919091529182015460608201526004820180548493916080840191610d7490614d2d565b80601f0160208091040260200160405190810160405280929190818152602001828054610da090614d2d565b8015610ded5780601f10610dc257610100808354040283529160200191610ded565b820191906000526020600020905b815481529060010190602001808311610dd057829003601f168201915b50505091835250506005828101546020830152600683015460409092019160ff1690811115610e1e57610e1e6148be565b6005811115610e2f57610e2f6148be565b815260200160078201548152602001600882018054610e4d90614d2d565b80601f0160208091040260200160405190810160405280929190818152602001828054610e7990614d2d565b8015610ec65780601f10610e9b57610100808354040283529160200191610ec6565b820191906000526020600020905b815481529060010190602001808311610ea957829003601f168201915b505050918352505060098201546001600160a01b03908116602080840191909152600a840154909116604080840191909152600b84018054825181850281018501909352808352606090940193919290919060009084015b82821015611009576000848152602090819020604080516080810182526004860290920180548352600181015463ffffffff169383019390935260028301805492939291840191610f6e90614d2d565b80601f0160208091040260200160405190810160405280929190818152602001828054610f9a90614d2d565b8015610fe75780601f10610fbc57610100808354040283529160200191610fe7565b820191906000526020600020905b815481529060010190602001808311610fca57829003601f168201915b5050505050815260200160038201548152505081526020019060010190610f1e565b505050915250909150600090508160c00151600581111561102c5761102c6148be565b0361103a5750600192915050565b60028160c001516005811115611052576110526148be565b03611073576110608161285e565b1561106e5750600192915050565b611099565b60058160c00151600581111561108b5761108b6148be565b036110995750600192915050565b50600092915050565b6003602081905260009182526040909120805460018201546002830154938301546004840180546001600160a01b0394851696949093169491926110e590614d2d565b80601f016020809104026020016040519081016040528092919081815260200182805461111190614d2d565b801561115e5780601f106111335761010080835404028352916020019161115e565b820191906000526020600020905b81548152906001019060200180831161114157829003601f168201915b5050506005840154600685015460078601546008870180549697939660ff90931695509093509061118e90614d2d565b80601f01602080910402602001604051908101604052809291908181526020018280546111ba90614d2d565b80156112075780601f106111dc57610100808354040283529160200191611207565b820191906000526020600020905b8154815290600101906020018083116111ea57829003601f168201915b505050506009830154600a9093015491926001600160a01b03908116921690508b565b611232612803565b61123c60006128fd565b565b60065460009081906001600160a01b031633146112a057604080518082018252601881527f4e6f7420636f6d70656e736174696f6e206d616e6167657200000000000000006020820152905162461bcd60e51b815261047c9190600401614d1a565b600654600160a01b900460ff166112ee57604080518082018252600f81526e139bdd081a5b9a5d1a585b1a5e9959608a1b6020820152905162461bcd60e51b815261047c9190600401614d1a565b6000838152600360205260409020611306848261296e565b9250925050915091565b600061131a612d4e565b6001600160a01b038416158061133757506001600160a01b038216155b1561137657604080518082018252600c81526b5a65726f206164647265737360a01b6020820152905162461bcd60e51b815261047c9190600401614d1a565b60008590036113b957604080518082018252600c81526b496e76616c6964205554584f60a01b6020820152905162461bcd60e51b815261047c9190600401614d1a565b60015460405163682dc82b60e11b81523360048201526001600160a01b039091169063d05b905690602401602060405180830381865afa158015611401573d6000803e3d6000fd5b505050506040513d601f19601f820116820180604052508101906114259190614d67565b61146657604080518082018252600f81526e44417070206e6f742061637469766560881b6020820152905162461bcd60e51b815261047c9190600401614d1a565b600054604051631c569df760e31b81526001600160a01b0386811660048301529091169063e2b4efb890602401602060405180830381865afa1580156114b0573d6000803e3d6000fd5b505050506040513d601f19601f820116820180604052508101906114d49190614d67565b61151b57604080518082018252601581527441726269747261746f72206e6f742061637469766560581b6020820152905162461bcd60e51b815261047c9190600401614d1a565b42831161156057604080518082018252601081526f496e76616c696420646561646c696e6560801b6020820152905162461bcd60e51b815261047c9190600401614d1a565b600061156c4285614ec4565b60025460408051631c8c542360e11b815290519293506001600160a01b0390911691636dd5b69d918391633918a846916004808201926020929091908290030181865afa1580156115c1573d6000803e3d6000fd5b505050506040513d601f19601f820116820180604052508101906115e59190614ed7565b6040518263ffffffff1660e01b815260040161160391815260200190565b602060405180830381865afa158015611620573d6000803e3d6000fd5b505050506040513d601f19601f820116820180604052508101906116449190614ed7565b8110806117245750600254604080516358d0b14760e01b815290516001600160a01b0390921691636dd5b69d9183916358d0b147916004808201926020929091908290030181865afa15801561169e573d6000803e3d6000fd5b505050506040513d601f19601f820116820180604052508101906116c29190614ed7565b6040518263ffffffff1660e01b81526004016116e091815260200190565b602060405180830381865afa1580156116fd573d6000803e3d6000fd5b505050506040513d601f19601f820116820180604052508101906117219190614ed7565b81115b1561176757604080518082018252601081526f24b73b30b634b210323ab930ba34b7b760811b6020820152905162461bcd60e51b815261047c9190600401614d1a565b604051630a71571960e41b8152600481018590526001600160a01b0386166024820152600090309063a715719090604401602060405180830381865afa1580156117b5573d6000803e3d6000fd5b505050506040513d601f19601f820116820180604052508101906117d99190614ed7565b90508060000361181c57604080518082018252600b81526a496e76616c69642066656560a81b6020820152905162461bcd60e51b815261047c9190600401614d1a565b8034101561186257604080518082018252601081526f496e73756666696369656e742066656560801b6020820152905162461bcd60e51b815261047c9190600401614d1a565b60004233886005600081548092919061187a90614ef0565b909155506040805160208101959095526bffffffffffffffffffffffff19606094851b8116918601919091529190921b166054830152606882015260880160408051808303601f190181529082905280516020909101206000546315969bed60e11b83526001600160a01b038a81166004850152602484018390529193501690632b2d37da90604401600060405180830381600087803b15801561191d57600080fd5b505af1158015611931573d6000803e3d6000fd5b505050600082815260036020819052604082208054336001600160a01b03199182161782556001820180549091166001600160a01b038d161790556002810183905590810189905591506040519080825280601f01601f1916602001820160405280156119a5576020820181803683370190505b5060048201906119b59082614f09565b5060006005820181905560068201805460ff19169055600782018490556040805191825260208201905260088201906119ee9082614f09565b506009810180546001600160a01b0388166001600160a01b03199182168117909255600a830180549091169091179055611a2c600b8201600061477f565b60005b89811015611a965781600b018b8b83818110611a4d57611a4d614fc8565b9050602002810190611a5f9190614fde565b815460018101835560009283526020909220909160040201611a818282614ffe565b50508080611a8e90614ef0565b915050611a2f565b506040516001600160a01b03891690339084907f3f9704516fd7b664375bdfc5fb0c00e1326d44378d723aa344109738be611a2a90600090a45092505050611aeb600160008051602061551083398151915255565b95945050505050565b60008181526003602052604090819020905163520936b560e01b815260048101839052309063520936b590602401602060405180830381865afa158015611b3f573d6000803e3d6000fd5b505050506040513d601f19601f82011682018060405250810190611b639190614d67565b611bb257604080518082018252601b81527f43616e6e6f7420636f6d706c657465207472616e73616374696f6e00000000006020820152905162461bcd60e51b815261047c9190600401614d1a565b80546001600160a01b03163314611bff57604080518082018252600e81526d139bdd08185d5d1a1bdc9a5e995960921b6020820152905162461bcd60e51b815261047c9190600401614d1a565b611c09828261296e565b50505050565b600080428411611c20576000611c2a565b611c2a4285614ec4565b60025460408051631c8c542360e11b815290519293506001600160a01b0390911691636dd5b69d918391633918a846916004808201926020929091908290030181865afa158015611c7f573d6000803e3d6000fd5b505050506040513d601f19601f82011682018060405250810190611ca39190614ed7565b6040518263ffffffff1660e01b8152600401611cc191815260200190565b602060405180830381865afa158015611cde573d6000803e3d6000fd5b505050506040513d601f19601f82011682018060405250810190611d029190614ed7565b811080611de25750600254604080516358d0b14760e01b815290516001600160a01b0390921691636dd5b69d9183916358d0b147916004808201926020929091908290030181865afa158015611d5c573d6000803e3d6000fd5b505050506040513d601f19601f82011682018060405250810190611d809190614ed7565b6040518263ffffffff1660e01b8152600401611d9e91815260200190565b602060405180830381865afa158015611dbb573d6000803e3d6000fd5b505050506040513d601f19601f82011682018060405250810190611ddf9190614ed7565b81115b15611e2557604080518082018252601081526f24b73b30b634b210323ab930ba34b7b760811b6020820152905162461bcd60e51b815261047c9190600401614d1a565b6001600160a01b038316611e6d57604080518082018252600c81526b5a65726f206164647265737360a01b6020820152905162461bcd60e51b815261047c9190600401614d1a565b600080546040516326415b0f60e21b81526001600160a01b038681166004830152909116906399056c3c90602401600060405180830381865afa158015611eb8573d6000803e3d6000fd5b505050506040513d6000823e601f3d908101601f19168201604052611ee091908101906151ec565b600254604080516325ba6ce560e11b815290519293506000926001600160a01b0390921691636dd5b69d918391634b74d9ca916004808201926020929091908290030181865afa158015611f38573d6000803e3d6000fd5b505050506040513d601f19601f82011682018060405250810190611f5c9190614ed7565b6040518263ffffffff1660e01b8152600401611f7a91815260200190565b602060405180830381865afa158015611f97573d6000803e3d6000fd5b505050506040513d601f19601f82011682018060405250810190611fbb9190614ed7565b90508082602001511080611fd457506127108260200151115b1561201757604080518082018252601081526f496e76616c696420666565207261746560801b6020820152905162461bcd60e51b815261047c9190600401614d1a565b6120276127106301e133806153a0565b8260200151848460a0015161203c91906153a0565b61204691906153a0565b61205091906153b7565b93505050505b92915050565b61206461470d565b60008281526003602081815260409283902083516101808101855281546001600160a01b039081168252600183015416928101929092526002810154938201939093529082015460608201526004820180549192916080840191906120c890614d2d565b80601f01602080910402602001604051908101604052809291908181526020018280546120f490614d2d565b80156121415780601f1061211657610100808354040283529160200191612141565b820191906000526020600020905b81548152906001019060200180831161212457829003601f168201915b50505091835250506005828101546020830152600683015460409092019160ff1690811115612172576121726148be565b6005811115612183576121836148be565b8152602001600782015481526020016008820180546121a190614d2d565b80601f01602080910402602001604051908101604052809291908181526020018280546121cd90614d2d565b801561221a5780601f106121ef5761010080835404028352916020019161221a565b820191906000526020600020905b8154815290600101906020018083116121fd57829003601f168201915b505050918352505060098201546001600160a01b03908116602080840191909152600a840154909116604080840191909152600b84018054825181850281018501909352808352606090940193919290919060009084015b8282101561235d576000848152602090819020604080516080810182526004860290920180548352600181015463ffffffff1693830193909352600283018054929392918401916122c290614d2d565b80601f01602080910402602001604051908101604052809291908181526020018280546122ee90614d2d565b801561233b5780601f106123105761010080835404028352916020019161233b565b820191906000526020600020905b81548152906001019060200180831161231e57829003601f168201915b5050505050815260200160038201548152505081526020019060010190612272565b505050915250909392505050565b7ff0c57e16840df040f15088dc2f81fe391c3923bec73e23a9662efc9c229c6a008054600160401b810460ff1615906001600160401b03166000811580156123b05750825b90506000826001600160401b031660011480156123cc5750303b155b9050811580156123da575080155b156123f85760405163f92ee8a960e01b815260040160405180910390fd5b845467ffffffffffffffff19166001178555831561242257845460ff60401b1916600160401b1785555b61242a612d9a565b61243333612daa565b6001600160a01b03881661247b57604080518082018252600c81526b5a65726f206164647265737360a01b6020820152905162461bcd60e51b815261047c9190600401614d1a565b6001600160a01b0387166124c357604080518082018252600c81526b5a65726f206164647265737360a01b6020820152905162461bcd60e51b815261047c9190600401614d1a565b6001600160a01b03861661250b57604080518082018252600c81526b5a65726f206164647265737360a01b6020820152905162461bcd60e51b815261047c9190600401614d1a565b600080546001600160a01b03808b166001600160a01b031992831617909255600180548a84169083161790556002805492891692909116919091179055831561258e57845460ff60401b19168555604051600181527fc7f505b2f371ae2175ee4913f4499e1f2633a7b5936321eed1cdaeb6115181d29060200160405180910390a15b5050505050505050565b6125a0612d4e565b6001600160a01b0381166125e857604080518082018252600c81526b5a65726f206164647265737360a01b6020820152905162461bcd60e51b815261047c9190600401614d1a565b600084815260036020526040812090600682015460ff166005811115612610576126106148be565b1461266057604080518082018252601a81527f496e76616c6964207472616e73616374696f6e207374617475730000000000006020820152905162461bcd60e51b815261047c9190600401614d1a565b80546001600160a01b031633146126ad57604080518082018252600e81526d139bdd08185d5d1a1bdc9a5e995960921b6020820152905162461bcd60e51b815261047c9190600401614d1a565b60006126b98585612dbb565b905060006126c682612fa6565b905060006002826040516126da91906153d9565b602060405180830381855afa1580156126f7573d6000803e3d6000fd5b5050506040513d601f19601f8201168201806040525081019061271a9190614ed7565b60068501805460ff1916600217905590506004840161273a878983614dee565b5060058401819055426002850155600a840180546001600160a01b0319166001600160a01b03878116919091179091556000828152600460205260408082208b9055865490518b9391909116917f31e90e280e677d9edeb57411a7ccf29ae3094cc999a12de72dfdecf0b9ed1f0591a350505050611c09600160008051602061551083398151915255565b6127cd612803565b6001600160a01b0381166127f757604051631e4fbdf760e01b81526000600482015260240161047c565b612800816128fd565b50565b336128357f9016d09d72d40fdae2fd8ceac6b6234c7706214fd39c1cd1e609a0528c199300546001600160a01b031690565b6001600160a01b03161461123c5760405163118cdaa760e01b815233600482015260240161047c565b6000816060015142111561287457506001919050565b60025460408051632b6f600d60e01b815290516000926001600160a01b031691632b6f600d9160048083019260209291908290030181865afa1580156128be573d6000803e3d6000fd5b505050506040513d601f19601f820116820180604052508101906128e29190614ed7565b90508083604001516128f491906153eb565b42119392505050565b7f9016d09d72d40fdae2fd8ceac6b6234c7706214fd39c1cd1e609a0528c19930080546001600160a01b031981166001600160a01b03848116918217845560405192169182907f8be0079c531659141344cd1fd0a4f28419497f9722a3daafe3b4186f6b6457e090600090a3505050565b600080808080600686015460ff16600581111561298d5761298d6148be565b14612c9157604080516101808101825286546001600160a01b039081168252600188015416602082015260028701549181019190915260038601546060820152600486018054612c8b929188916080840191906129e990614d2d565b80601f0160208091040260200160405190810160405280929190818152602001828054612a1590614d2d565b8015612a625780601f10612a3757610100808354040283529160200191612a62565b820191906000526020600020905b815481529060010190602001808311612a4557829003601f168201915b50505091835250506005828101546020830152600683015460409092019160ff1690811115612a9357612a936148be565b6005811115612aa457612aa46148be565b815260200160078201548152602001600882018054612ac290614d2d565b80601f0160208091040260200160405190810160405280929190818152602001828054612aee90614d2d565b8015612b3b5780601f10612b1057610100808354040283529160200191612b3b565b820191906000526020600020905b815481529060010190602001808311612b1e57829003601f168201915b505050918352505060098201546001600160a01b03908116602080840191909152600a840154909116604080840191909152600b84018054825181850281018501909352808352606090940193919290919060009084015b82821015612c7e576000848152602090819020604080516080810182526004860290920180548352600181015463ffffffff169383019390935260028301805492939291840191612be390614d2d565b80601f0160208091040260200160405190810160405280929190818152602001828054612c0f90614d2d565b8015612c5c5780601f10612c3157610100808354040283529160200191612c5c565b820191906000526020600020905b815481529060010190602001808311612c3f57829003601f168201915b5050505050815260200160038201548152505081526020019060010190612b93565b5050505081525050613647565b90925090505b600054600186015460405163cedb588b60e01b81526001600160a01b0391821660048201526024810189905291169063cedb588b90604401600060405180830381600087803b158015612ce357600080fd5b505af1158015612cf7573d6000803e3d6000fd5b5050505060068501805460ff19166001179055845460405187916001600160a01b0316907fd4ce83344b315e3d656d76b02d51dcb1e3c92f1f9f9c28524cfb20882e9e6bc790600090a390925090505b9250929050565b600080516020615510833981519152805460011901612d8057604051633ee5aeb560e01b815260040160405180910390fd5b60029055565b600160008051602061551083398151915255565b612da2613aeb565b61123c613b34565b612db2613aeb565b61280081613b3c565b6040805160a081018252600080825260606020830181905292820183905291810182905260808101829052908280612df46004846153eb565b1115612e3357604080518082018252601781526000805160206154f08339815191526020820152905162461bcd60e51b815261047c9190600401614d1a565b848285612e416004836153eb565b92612e4e939291906153fe565b612e5791615428565b60e01c8352612e676004836153eb565b9150600080612e77878786613b44565b811515608088015294509150839050600080612e94898985613bd7565b6020890182905296509150859050600080612eb08b8b85613ccf565b60408b01829052985091508790508515612ed457612ed18b8b8a8751613daf565b97505b86612ee08960046153eb565b1115612f1f57604080518082018252601781526000805160206154f08339815191526020820152905162461bcd60e51b815261047c9190600401614d1a565b8a888b612f2d8260046153eb565b92612f3a939291906153fe565b612f4391615428565b60e01c60608a0152612f566004896153eb565b9750868814612f9857604080518082018252601781526000805160206154f08339815191526020820152905162461bcd60e51b815261047c9190600401614d1a565b505050505050505092915050565b6060600060049050612fbc836020015151613e42565b612fc690826153eb565b905060005b83602001515181101561300457612fe36028836153eb565b9150612ff06001836153eb565b915080612ffc81614ef0565b915050612fcb565b50613013836040015151613e42565b61301d90826153eb565b905060005b8360400151518110156130b55761303a6008836153eb565b91506130678460400151828151811061305557613055614fc8565b60200260200101516020015151613e42565b61307190836153eb565b91508360400151818151811061308957613089614fc8565b60200260200101516020015151826130a191906153eb565b9150806130ad81614ef0565b915050613022565b506130c16004826153eb565b90506000816001600160401b038111156130dd576130dd614d89565b6040519080825280601f01601f191660200182016040528015613107576020820181803683370190505b50845190915060009060e01b815b60048110156131785781816004811061313057613130614fc8565b1a60f81b8461313f83866153eb565b8151811061314f5761314f614fc8565b60200101906001600160f81b031916908160001a9053508061317081614ef0565b915050613115565b506131846004836153eb565b91506131968660200151518484613e86565b6131a090836153eb565b915060005b8660200151518110156133d15760005b602081101561323957876020015182815181106131d4576131d4614fc8565b60200260200101516000015181602081106131f1576131f1614fc8565b1a60f81b8561320083876153eb565b8151811061321057613210614fc8565b60200101906001600160f81b031916908160001a9053508061323181614ef0565b9150506131b5565b506132456020846153eb565b925060008760200151828151811061325f5761325f614fc8565b60200260200101516020015160e01b905060005b60048110156132d65781816004811061328e5761328e614fc8565b1a60f81b8661329d83886153eb565b815181106132ad576132ad614fc8565b60200101906001600160f81b031916908160001a905350806132ce81614ef0565b915050613273565b506132e26004856153eb565b9350600060f81b8585815181106132fb576132fb614fc8565b60200101906001600160f81b031916908160001a90535061331d6001856153eb565b935060008860200151838151811061333757613337614fc8565b60200260200101516060015160e01b905060005b60048110156133ae5781816004811061336657613366614fc8565b1a60f81b8761337583896153eb565b8151811061338557613385614fc8565b60200101906001600160f81b031916908160001a905350806133a681614ef0565b91505061334b565b506133ba6004866153eb565b9450505080806133c990614ef0565b9150506131a5565b506133e28660400151518484613e86565b6133ec90836153eb565b915060005b8660400151518110156135cc5760008760400151828151811061341657613416614fc8565b60200260200101516000015160c01b905060005b600881101561348d5781816008811061344557613445614fc8565b1a60f81b8661345483886153eb565b8151811061346457613464614fc8565b60200101906001600160f81b031916908160001a9053508061348581614ef0565b91505061342a565b506134996008856153eb565b93506134c8886040015183815181106134b4576134b4614fc8565b602002602001015160200151518686613e86565b6134d290856153eb565b935060005b886040015183815181106134ed576134ed614fc8565b60200260200101516020015151811015613587578860400151838151811061351757613517614fc8565b602002602001015160200151818151811061353457613534614fc8565b01602001516001600160f81b0319168661354e83886153eb565b8151811061355e5761355e614fc8565b60200101906001600160f81b031916908160001a9053508061357f81614ef0565b9150506134d7565b508760400151828151811061359e5761359e614fc8565b60200260200101516020015151846135b691906153eb565b93505080806135c490614ef0565b9150506133f1565b50606086015160e01b60005b600481101561363b578181600481106135f3576135f3614fc8565b1a60f81b8561360283876153eb565b8151811061361257613612614fc8565b60200101906001600160f81b031916908160001a9053508061363381614ef0565b9150506135d8565b50929695505050505050565b6000805460208301516040516326415b0f60e21b81526001600160a01b0391821660048201528392839216906399056c3c90602401600060405180830381865afa158015613699573d6000803e3d6000fd5b505050506040513d6000823e601f3d908101601f191682016040526136c191908101906151ec565b905060008460c0015160058111156136db576136db6148be565b0361373a5760405162461bcd60e51b815260206004820152602960248201527f43616e2774207472616e736665722066656520666f722061637469766520747260448201526830b739b0b1ba34b7b760b91b606482015260840161047c565b600084604001514261374c9190614ec4565b905060006137606127106301e133806153a0565b8360200151838560a0015161377591906153a0565b61377f91906153a0565b61378991906153b7565b6002546040805163286e9cd160e21b81529051929350600092612710926001600160a01b031691636dd5b69d91839163a1ba73449160048083019260209291908290030181865afa1580156137e2573d6000803e3d6000fd5b505050506040513d601f19601f820116820180604052508101906138069190614ed7565b6040518263ffffffff1660e01b815260040161382491815260200190565b602060405180830381865afa158015613841573d6000803e3d6000fd5b505050506040513d601f19601f820116820180604052508101906138659190614ed7565b61386f90846153a0565b61387991906153b7565b905060006138878284614ec4565b90506000600260009054906101000a90046001600160a01b03166001600160a01b0316638b6570a06040518163ffffffff1660e01b8152600401602060405180830381865afa1580156138de573d6000803e3d6000fd5b505050506040513d601f19601f820116820180604052508101906139029190615458565b90506000816001600160a01b03168460405160006040518083038185875af1925050503d8060008114613951576040519150601f19603f3d011682016040523d82523d6000602084013e613956565b606091505b505090508061399c57604080518082018252600f81526e151c985b9cd9995c8819985a5b1959608a1b6020820152905162461bcd60e51b815261047c9190600401614d1a565b6000876101e001516001600160a01b03168460405160006040518083038185875af1925050503d80600081146139ee576040519150601f19603f3d011682016040523d82523d6000602084013e6139f3565b606091505b5050905080613a3957604080518082018252600f81526e151c985b9cd9995c8819985a5b1959608a1b6020820152905162461bcd60e51b815261047c9190600401614d1a565b478015613ad9578b516040516000916001600160a01b03169083908381818185875af1925050503d8060008114613a8c576040519150601f19603f3d011682016040523d82523d6000602084013e613a91565b606091505b5050905080613ad757604080518082018252600f81526e151c985b9cd9995c8819985a5b1959608a1b6020820152905162461bcd60e51b815261047c9190600401614d1a565b505b50929a93995092975050505050505050565b7ff0c57e16840df040f15088dc2f81fe391c3923bec73e23a9662efc9c229c6a0054600160401b900460ff1661123c57604051631afcd79f60e31b815260040160405180910390fd5b612d86613aeb565b6127cd613aeb565b60008183613b538260026153eb565b11613bcf576000858585818110613b6c57613b6c614fc8565b919091013560f81c9150600090508686613b878760016153eb565b818110613b9657613b96614fc8565b919091013560f81c91505060ff8216158015613bb5575060ff81166001145b15613bcc5760019350613bc96002846153eb565b92505b50505b935093915050565b60606000806000613be98787876140ef565b9092509050613bf881866153eb565b9250816001600160401b03811115613c1257613c12614d89565b604051908082528060200260200182016040528015613c6557816020015b60408051608081018252600080825260208083018290526060938301849052928201528252600019909201910181613c305790505b50935060005b82811015613cc457600080613c818a8a8861431e565b9150915081878481518110613c9857613c98614fc8565b6020908102919091010152613cad81876153eb565b955050508080613cbc90614ef0565b915050613c6b565b505050935093915050565b60606000806000613ce18787876140ef565b9092509050613cf081866153eb565b9250816001600160401b03811115613d0a57613d0a614d89565b604051908082528060200260200182016040528015613d5057816020015b604080518082019091526000815260606020820152815260200190600190039081613d285790505b50935060005b82811015613cc457600080613d6c8a8a886145ae565b9150915081878481518110613d8357613d83614fc8565b6020908102919091010152613d9881876153eb565b955050508080613da790614ef0565b915050613d56565b8160005b82811015613e3957600080613dc98888866140ef565b9092509050613dd881856153eb565b935060005b82811015613e2357600080613df38b8b896140ef565b9092509050613e0282826153eb565b613e0c90886153eb565b965050508080613e1b90614ef0565b915050613ddd565b5050508080613e3190614ef0565b915050613db3565b50949350505050565b600060fc821015613e5557506001919050565b61ffff8211613e6657506003919050565b63ffffffff8211613e7957506005919050565b506009919050565b919050565b600060fc841015613ec7578360f81b838381518110613ea757613ea7614fc8565b60200101906001600160f81b031916908160001a905350600190506140e8565b61ffff8411613f815760fd60f81b838381518110613ee757613ee7614fc8565b60200101906001600160f81b031916908160001a90535060f084901b8060001a60f81b84613f168560016153eb565b81518110613f2657613f26614fc8565b60200101906001600160f81b031916908160001a9053508060011a60f81b84613f508560026153eb565b81518110613f6057613f60614fc8565b60200101906001600160f81b031916908160001a90535060039150506140e8565b63ffffffff841161403c5760fe60f81b838381518110613fa357613fa3614fc8565b60200101906001600160f81b031916908160001a90535060e084901b60005b600481101561403157818160048110613fdd57613fdd614fc8565b1a60f81b8582613fee8760016153eb565b613ff891906153eb565b8151811061400857614008614fc8565b60200101906001600160f81b031916908160001a9053508061402981614ef0565b915050613fc2565b5060059150506140e8565b60ff60f81b83838151811061405357614053614fc8565b60200101906001600160f81b031916908160001a90535060c084901b60005b60088110156140e15781816008811061408d5761408d614fc8565b1a60f81b858261409e8760016153eb565b6140a891906153eb565b815181106140b8576140b8614fc8565b60200101906001600160f81b031916908160001a905350806140d981614ef0565b915050614072565b5060099150505b9392505050565b60008083831061413257604080518082018252601781526000805160206154f08339815191526020820152905162461bcd60e51b815261047c9190600401614d1a565b600085858581811061414657614146614fc8565b919091013560f81c91505060fc8110156141685760ff16915060019050613bcf565b60fc1960ff8216016141fe57846141808560036153eb565b11156141bf57604080518082018252601781526000805160206154f08339815191526020820152905162461bcd60e51b815261047c9190600401614d1a565b85856141cc8660016153eb565b906141d88760036153eb565b926141e5939291906153fe565b6141ee91615475565b60f01c925060039150613bcf9050565b60fd1960ff82160161429457846142168560056153eb565b111561425557604080518082018252601781526000805160206154f08339815191526020820152905162461bcd60e51b815261047c9190600401614d1a565b85856142628660016153eb565b9061426e8760056153eb565b9261427b939291906153fe565b61428491615428565b60e01c925060059150613bcf9050565b846142a08560096153eb565b11156142df57604080518082018252601781526000805160206154f08339815191526020820152905162461bcd60e51b815261047c9190600401614d1a565b85856142ec8660016153eb565b906142f88760096153eb565b92614305939291906153fe565b61430e916154a3565b60c01c925060099150613bcf9050565b60408051608081018252600080825260208201819052606092820183905291810191909152600082846143528260206153eb565b111561439157604080518082018252601781526000805160206154f08339815191526020820152905162461bcd60e51b815261047c9190600401614d1a565b85848661439f8260206153eb565b926143ac939291906153fe565b6143b5916154d1565b83526143c26020856153eb565b9350846143d08560046153eb565b111561440f57604080518082018252601781526000805160206154f08339815191526020820152905162461bcd60e51b815261047c9190600401614d1a565b85848661441d8260046153eb565b9261442a939291906153fe565b61443391615428565b60e01c60208401526144466004856153eb565b93506000806144568888886140ef565b909250905061446581876153eb565b95508661447283886153eb565b11156144b157604080518082018252601781526000805160206154f08339815191526020820152905162461bcd60e51b815261047c9190600401614d1a565b8786886144be85836153eb565b926144cb939291906153fe565b8080601f016020809104026020016040519081016040528093929190818152602001838380828437600092019190915250505050604086015261450e82876153eb565b95508661451c8760046153eb565b111561455b57604080518082018252601781526000805160206154f08339815191526020820152905162461bcd60e51b815261047c9190600401614d1a565b8786886145698260046153eb565b92614576939291906153fe565b61457f91615428565b60e01c60608601526145926004876153eb565b95508461459f8488614ec4565b94509450505050935093915050565b604080518082019091526000815260606020820152600082846145d28260086153eb565b111561461157604080518082018252601781526000805160206154f08339815191526020820152905162461bcd60e51b815261047c9190600401614d1a565b85848661461f8260086153eb565b9261462c939291906153fe565b614635916154a3565b60c01c83526146456008856153eb565b93506000806146558888886140ef565b909250905061466481876153eb565b95508661467183886153eb565b11156146b057604080518082018252601781526000805160206154f08339815191526020820152905162461bcd60e51b815261047c9190600401614d1a565b8786886146bd85836153eb565b926146ca939291906153fe565b8080601f016020809104026020016040519081016040528093929190818152602001838380828437600092019190915250505050602086015261459282876153eb565b60408051610180810182526000808252602082018190529181018290526060808201839052608082015260a081018290529060c08201908152602001600081526020016060815260200160006001600160a01b0316815260200160006001600160a01b03168152602001606081525090565b508054600082556004029060005260206000209081019061280091905b808211156147d557600080825560018201805463ffffffff191690556147c560028301826147d9565b506000600382015560040161479c565b5090565b5080546147e590614d2d565b6000825580601f106147f5575050565b601f01602090049060005260206000209081019061280091905b808211156147d5576000815560010161480f565b6001600160a01b038116811461280057600080fd5b60006020828403121561484a57600080fd5b81356140e881614823565b60006020828403121561486757600080fd5b5035919050565b60005b83811015614889578181015183820152602001614871565b50506000910152565b600081518084526148aa81602086016020860161486e565b601f01601f19169290920160200192915050565b634e487b7160e01b600052602160045260246000fd5b600681106148f257634e487b7160e01b600052602160045260246000fd5b9052565b600082825180855260208086019550808260051b84010181860160005b8481101561497357601f19868403018952815160808151855263ffffffff868301511686860152604080830151828288015261495183880182614892565b6060948501519790940196909652505098840198925090830190600101614913565b5090979650505050505050565b6020815261499a6020820183516001600160a01b03169052565b600060208301516149b660408401826001600160a01b03169052565b50604083015160608301526060830151608083015260808301516101808060a08501526149e76101a0850183614892565b915060a085015160c085015260c0850151614a0560e08601826148d4565b5060e0850151610100818187015280870151915050601f19610120818786030181880152614a338584614892565b945080880151925050610140614a53818801846001600160a01b03169052565b8701519150610160614a6f878201846001600160a01b03169052565b87015186850390910183870152905061205083826148f6565b60008083601f840112614a9a57600080fd5b5081356001600160401b03811115614ab157600080fd5b602083019150836020828501011115612d4757600080fd5b600080600060408486031215614ade57600080fd5b8335925060208401356001600160401b03811115614afb57600080fd5b614b0786828701614a88565b9497909650939450505050565b600061016060018060a01b03808f168452808e1660208501528c60408501528b6060850152816080850152614b4b8285018c614892565b91508960a0850152614b6060c085018a6148d4565b8760e0850152838203610100850152614b798288614892565b925080861661012085015280851661014085015250509c9b505050505050505050505050565b600080600080600060808688031215614bb757600080fd5b85356001600160401b0380821115614bce57600080fd5b818801915088601f830112614be257600080fd5b813581811115614bf157600080fd5b8960208260051b8501011115614c0657600080fd5b60209283019750955050860135614c1c81614823565b9250604086013591506060860135614c3381614823565b809150509295509295909350565b60008060408385031215614c5457600080fd5b823591506020830135614c6681614823565b809150509250929050565b600080600060608486031215614c8657600080fd5b8335614c9181614823565b92506020840135614ca181614823565b91506040840135614cb181614823565b809150509250925092565b60008060008060608587031215614cd257600080fd5b8435935060208501356001600160401b03811115614cef57600080fd5b614cfb87828801614a88565b9094509250506040850135614d0f81614823565b939692955090935050565b6020815260006140e86020830184614892565b600181811c90821680614d4157607f821691505b602082108103614d6157634e487b7160e01b600052602260045260246000fd5b50919050565b600060208284031215614d7957600080fd5b815180151581146140e857600080fd5b634e487b7160e01b600052604160045260246000fd5b601f821115614de957600081815260208120601f850160051c81016020861015614dc65750805b601f850160051c820191505b81811015614de557828155600101614dd2565b5050505b505050565b6001600160401b03831115614e0557614e05614d89565b614e1983614e138354614d2d565b83614d9f565b6000601f841160018114614e4d5760008515614e355750838201355b600019600387901b1c1916600186901b178355614ea7565b600083815260209020601f19861690835b82811015614e7e5786850135825560209485019460019092019101614e5e565b5086821015614e9b5760001960f88860031b161c19848701351681555b505060018560011b0183555b5050505050565b634e487b7160e01b600052601160045260246000fd5b8181038181111561205657612056614eae565b600060208284031215614ee957600080fd5b5051919050565b600060018201614f0257614f02614eae565b5060010190565b81516001600160401b03811115614f2257614f22614d89565b614f3681614f308454614d2d565b84614d9f565b602080601f831160018114614f6b5760008415614f535750858301515b600019600386901b1c1916600185901b178555614de5565b600085815260208120601f198616915b82811015614f9a57888601518255948401946001909101908401614f7b565b5085821015614fb85787850151600019600388901b60f8161c191681555b5050505050600190811b01905550565b634e487b7160e01b600052603260045260246000fd5b60008235607e19833603018112614ff457600080fd5b9190910192915050565b8135815560018101602083013563ffffffff811680821461501e57600080fd5b825463ffffffff19161790915550604082013536839003601e1901811261504457600080fd5b820180356001600160401b0381111561505c57600080fd5b60208201915080360382131561507157600080fd5b61507f818360028601614dee565b5050606082013560038201555050565b60405161022081016001600160401b03811182821017156150b2576150b2614d89565b60405290565b604051601f8201601f191681016001600160401b03811182821017156150e0576150e0614d89565b604052919050565b8051613e8181614823565b805160048110613e8157600080fd5b600082601f83011261511357600080fd5b815160206001600160401b0382111561512e5761512e614d89565b8160051b61513d8282016150b8565b928352848101820192828101908785111561515757600080fd5b83870192505b848310156151765782518252918301919083019061515d565b979650505050505050565b600082601f83011261519257600080fd5b81516001600160401b038111156151ab576151ab614d89565b6151be601f8201601f19166020016150b8565b8181528460208386010111156151d357600080fd5b6151e482602083016020870161486e565b949350505050565b6000602082840312156151fe57600080fd5b81516001600160401b038082111561521557600080fd5b90830190610220828603121561522a57600080fd5b61523261508f565b61523b836150e8565b8152602083015160208201526040830151604082015261525d606084016150f3565b60608201526080830151608082015260a083015160a082015261528260c084016150e8565b60c082015261529360e084016150e8565b60e082015261010080840151838111156152ac57600080fd5b6152b888828701615102565b8284015250506101206152cc8185016150e8565b9082015261014083810151838111156152e457600080fd5b6152f088828701615181565b828401525050610160808401518381111561530a57600080fd5b61531688828701615181565b8284015250506101808084015181830152506101a0808401518381111561533c57600080fd5b61534888828701615181565b8284015250506101c0808401518381111561536257600080fd5b61536e88828701615181565b8284015250506101e091506153848284016150e8565b9181019190915261020091820151918101919091529392505050565b808202811582820484141761205657612056614eae565b6000826153d457634e487b7160e01b600052601260045260246000fd5b500490565b60008251614ff481846020870161486e565b8082018082111561205657612056614eae565b6000808585111561540e57600080fd5b8386111561541b57600080fd5b5050820193919092039150565b6001600160e01b031981358181169160048510156154505780818660040360031b1b83161692505b505092915050565b60006020828403121561546a57600080fd5b81516140e881614823565b6001600160f01b031981358181169160028510156154505760029490940360031b84901b1690921692915050565b6001600160c01b031981358181169160088510156154505760089490940360031b84901b1690921692915050565b8035602083101561205657600019602084900360031b1b169291505056fe496e76616c696420425443207472616e73616374696f6e0000000000000000009b779b17422d0df92223018b32b4d1fa46e071723d6817e2486d003becc55f00a26469706673582212209e2df3dde485ca3426e686a0280de520ee30d715486c8cbe65ee1965b48eb1dd64736f6c63430008140033",
  "linkReferences": {},
  "deployedLinkReferences": {}
}