{
  "_format": "hh-sol-artifact-1",
  "contractName": "TransactionManager",
  "sourceName": "contracts/core/TransactionManager.sol",
  "abi": [
    {
      "inputs": [
        {
          "internalType": "address",
          "name": "_arbitratorManager",
          "type": "address"
        },
        {
          "internalType": "address",
          "name": "_dappRegistry",
          "type": "address"
        },
        {
          "internalType": "address",
          "name": "_configManager",
          "type": "address"
        },
        {
          "internalType": "address",
          "name": "initialOwner",
          "type": "address"
        }
      ],
      "stateMutability": "nonpayable",
      "type": "constructor"
    },
    {
      "inputs": [],
      "name": "ALREADY_INITIALIZED",
      "type": "error"
    },
    {
      "inputs": [],
      "name": "ARBITRATOR_NOT_ACTIVE",
      "type": "error"
    },
    {
      "inputs": [],
      "name": "DAPP_NOT_ACTIVE",
      "type": "error"
    },
    {
      "inputs": [],
      "name": "INSUFFICIENT_FEE",
      "type": "error"
    },
    {
      "inputs": [],
      "name": "INVALID_BTC_TX",
      "type": "error"
    },
    {
      "inputs": [],
      "name": "INVALID_DEADLINE",
      "type": "error"
    },
    {
      "inputs": [],
      "name": "INVALID_DURATION",
      "type": "error"
    },
    {
      "inputs": [],
      "name": "INVALID_FEE",
      "type": "error"
    },
    {
      "inputs": [],
      "name": "INVALID_FEE_RATE",
      "type": "error"
    },
    {
      "inputs": [],
      "name": "INVALID_TRANSACTION_STATUS",
      "type": "error"
    },
    {
      "inputs": [],
      "name": "NOT_AUTHORIZED",
      "type": "error"
    },
    {
      "inputs": [],
      "name": "NOT_COMPENSATION_MANAGER",
      "type": "error"
    },
    {
      "inputs": [
        {
          "internalType": "address",
          "name": "owner",
          "type": "address"
        }
      ],
      "name": "OwnableInvalidOwner",
      "type": "error"
    },
    {
      "inputs": [
        {
          "internalType": "address",
          "name": "account",
          "type": "address"
        }
      ],
      "name": "OwnableUnauthorizedAccount",
      "type": "error"
    },
    {
      "inputs": [],
      "name": "ReentrancyGuardReentrantCall",
      "type": "error"
    },
    {
      "inputs": [],
      "name": "TRANSACTION_NOT_FOUND",
      "type": "error"
    },
    {
      "inputs": [],
      "name": "TRANSFER_FAILED",
      "type": "error"
    },
    {
      "inputs": [],
      "name": "ZERO_ADDRESS",
      "type": "error"
    },
    {
      "anonymous": false,
      "inputs": [
        {
          "indexed": true,
          "internalType": "address",
          "name": "dapp",
          "type": "address"
        },
        {
          "indexed": true,
          "internalType": "bytes32",
          "name": "txId",
          "type": "bytes32"
        }
      ],
      "name": "ArbitrationRequested",
      "type": "event"
    },
    {
      "anonymous": false,
      "inputs": [
        {
          "indexed": true,
          "internalType": "address",
          "name": "dapp",
          "type": "address"
        },
        {
          "indexed": true,
          "internalType": "bytes32",
          "name": "txId",
          "type": "bytes32"
        }
      ],
      "name": "ArbitrationSubmitted",
      "type": "event"
    },
    {
      "anonymous": false,
      "inputs": [
        {
          "indexed": true,
          "internalType": "address",
          "name": "previousOwner",
          "type": "address"
        },
        {
          "indexed": true,
          "internalType": "address",
          "name": "newOwner",
          "type": "address"
        }
      ],
      "name": "OwnershipTransferred",
      "type": "event"
    },
    {
      "anonymous": false,
      "inputs": [
        {
          "indexed": true,
          "internalType": "address",
          "name": "dapp",
          "type": "address"
        },
        {
          "indexed": true,
          "internalType": "bytes32",
          "name": "txId",
          "type": "bytes32"
        }
      ],
      "name": "TransactionCompleted",
      "type": "event"
    },
    {
      "anonymous": false,
      "inputs": [
        {
          "indexed": true,
          "internalType": "bytes32",
          "name": "id",
          "type": "bytes32"
        },
        {
          "indexed": true,
          "internalType": "address",
          "name": "dapp",
          "type": "address"
        },
        {
          "indexed": true,
          "internalType": "address",
          "name": "arbitrator",
          "type": "address"
        }
      ],
      "name": "TransactionRegistered",
      "type": "event"
    },
    {
      "inputs": [],
      "name": "arbitratorManager",
      "outputs": [
        {
          "internalType": "contract IArbitratorManager",
          "name": "",
          "type": "address"
        }
      ],
      "stateMutability": "view",
      "type": "function"
    },
    {
      "inputs": [],
      "name": "compensationManager",
      "outputs": [
        {
          "internalType": "address",
          "name": "",
          "type": "address"
        }
      ],
      "stateMutability": "view",
      "type": "function"
    },
    {
      "inputs": [
        {
          "internalType": "bytes32",
          "name": "id",
          "type": "bytes32"
        }
      ],
      "name": "completeTransaction",
      "outputs": [],
      "stateMutability": "nonpayable",
      "type": "function"
    },
    {
      "inputs": [],
      "name": "configManager",
      "outputs": [
        {
          "internalType": "contract ConfigManager",
          "name": "",
          "type": "address"
        }
      ],
      "stateMutability": "view",
      "type": "function"
    },
    {
      "inputs": [],
      "name": "dappRegistry",
      "outputs": [
        {
          "internalType": "contract IDAppRegistry",
          "name": "",
          "type": "address"
        }
      ],
      "stateMutability": "view",
      "type": "function"
    },
    {
      "inputs": [
        {
          "internalType": "bytes32",
          "name": "txHash",
          "type": "bytes32"
        }
      ],
      "name": "getTransaction",
      "outputs": [
        {
          "components": [
            {
              "internalType": "address",
              "name": "dapp",
              "type": "address"
            },
            {
              "internalType": "address",
              "name": "arbitrator",
              "type": "address"
            },
            {
              "internalType": "uint256",
              "name": "startTime",
              "type": "uint256"
            },
            {
              "internalType": "uint256",
              "name": "deadline",
              "type": "uint256"
            },
            {
              "internalType": "bytes",
              "name": "btcTx",
              "type": "bytes"
            },
            {
              "internalType": "bytes32",
              "name": "btcTxHash",
              "type": "bytes32"
            },
            {
              "internalType": "enum DataTypes.TransactionStatus",
              "name": "status",
              "type": "uint8"
            },
            {
              "internalType": "uint256",
              "name": "depositedFee",
              "type": "uint256"
            },
            {
              "internalType": "bytes",
              "name": "signature",
              "type": "bytes"
            },
            {
              "internalType": "address",
              "name": "compensationReceiver",
              "type": "address"
            },
            {
              "internalType": "address",
              "name": "timeoutCompensationReceiver",
              "type": "address"
            }
          ],
          "internalType": "struct DataTypes.Transaction",
          "name": "",
          "type": "tuple"
        }
      ],
      "stateMutability": "view",
      "type": "function"
    },
    {
      "inputs": [
        {
          "internalType": "bytes32",
          "name": "id",
          "type": "bytes32"
        }
      ],
      "name": "getTransactionById",
      "outputs": [
        {
          "components": [
            {
              "internalType": "address",
              "name": "dapp",
              "type": "address"
            },
            {
              "internalType": "address",
              "name": "arbitrator",
              "type": "address"
            },
            {
              "internalType": "uint256",
              "name": "startTime",
              "type": "uint256"
            },
            {
              "internalType": "uint256",
              "name": "deadline",
              "type": "uint256"
            },
            {
              "internalType": "bytes",
              "name": "btcTx",
              "type": "bytes"
            },
            {
              "internalType": "bytes32",
              "name": "btcTxHash",
              "type": "bytes32"
            },
            {
              "internalType": "enum DataTypes.TransactionStatus",
              "name": "status",
              "type": "uint8"
            },
            {
              "internalType": "uint256",
              "name": "depositedFee",
              "type": "uint256"
            },
            {
              "internalType": "bytes",
              "name": "signature",
              "type": "bytes"
            },
            {
              "internalType": "address",
              "name": "compensationReceiver",
              "type": "address"
            },
            {
              "internalType": "address",
              "name": "timeoutCompensationReceiver",
              "type": "address"
            }
          ],
          "internalType": "struct DataTypes.Transaction",
          "name": "",
          "type": "tuple"
        }
      ],
      "stateMutability": "view",
      "type": "function"
    },
    {
      "inputs": [
        {
          "internalType": "address",
          "name": "_compensationManager",
          "type": "address"
        }
      ],
      "name": "initialize",
      "outputs": [],
      "stateMutability": "nonpayable",
      "type": "function"
    },
    {
      "inputs": [],
      "name": "owner",
      "outputs": [
        {
          "internalType": "address",
          "name": "",
          "type": "address"
        }
      ],
      "stateMutability": "view",
      "type": "function"
    },
    {
      "inputs": [
        {
          "internalType": "address",
          "name": "arbitrator",
          "type": "address"
        },
        {
          "internalType": "uint256",
          "name": "deadline",
          "type": "uint256"
        },
        {
          "internalType": "address",
          "name": "compensationReceiver",
          "type": "address"
        }
      ],
      "name": "registerTransaction",
      "outputs": [
        {
          "internalType": "uint256",
          "name": "",
          "type": "uint256"
        }
      ],
      "stateMutability": "payable",
      "type": "function"
    },
    {
      "inputs": [],
      "name": "renounceOwnership",
      "outputs": [],
      "stateMutability": "nonpayable",
      "type": "function"
    },
    {
      "inputs": [
        {
          "internalType": "bytes32",
          "name": "id",
          "type": "bytes32"
        },
        {
          "internalType": "bytes",
          "name": "btcTx",
          "type": "bytes"
        },
        {
          "internalType": "address",
          "name": "timeoutCompensationReceiver",
          "type": "address"
        }
      ],
      "name": "requestArbitration",
      "outputs": [],
      "stateMutability": "nonpayable",
      "type": "function"
    },
    {
      "inputs": [
        {
          "internalType": "bytes32",
          "name": "id",
          "type": "bytes32"
        },
        {
          "internalType": "bytes",
          "name": "btcTxSignature",
          "type": "bytes"
        }
      ],
      "name": "submitArbitration",
      "outputs": [],
      "stateMutability": "nonpayable",
      "type": "function"
    },
    {
      "inputs": [
        {
          "internalType": "bytes32",
          "name": "",
          "type": "bytes32"
        }
      ],
      "name": "transactions",
      "outputs": [
        {
          "internalType": "address",
          "name": "dapp",
          "type": "address"
        },
        {
          "internalType": "address",
          "name": "arbitrator",
          "type": "address"
        },
        {
          "internalType": "uint256",
          "name": "startTime",
          "type": "uint256"
        },
        {
          "internalType": "uint256",
          "name": "deadline",
          "type": "uint256"
        },
        {
          "internalType": "bytes",
          "name": "btcTx",
          "type": "bytes"
        },
        {
          "internalType": "bytes32",
          "name": "btcTxHash",
          "type": "bytes32"
        },
        {
          "internalType": "enum DataTypes.TransactionStatus",
          "name": "status",
          "type": "uint8"
        },
        {
          "internalType": "uint256",
          "name": "depositedFee",
          "type": "uint256"
        },
        {
          "internalType": "bytes",
          "name": "signature",
          "type": "bytes"
        },
        {
          "internalType": "address",
          "name": "compensationReceiver",
          "type": "address"
        },
        {
          "internalType": "address",
          "name": "timeoutCompensationReceiver",
          "type": "address"
        }
      ],
      "stateMutability": "view",
      "type": "function"
    },
    {
      "inputs": [
        {
          "internalType": "bytes32",
          "name": "id",
          "type": "bytes32"
        }
      ],
      "name": "transferArbitrationFee",
      "outputs": [
        {
          "internalType": "uint256",
          "name": "arbitratorFee",
          "type": "uint256"
        },
        {
          "internalType": "uint256",
          "name": "systemFee",
          "type": "uint256"
        }
      ],
      "stateMutability": "nonpayable",
      "type": "function"
    },
    {
      "inputs": [
        {
          "internalType": "address",
          "name": "newOwner",
          "type": "address"
        }
      ],
      "name": "transferOwnership",
      "outputs": [],
      "stateMutability": "nonpayable",
      "type": "function"
    },
    {
      "inputs": [
        {
          "internalType": "bytes32",
          "name": "",
          "type": "bytes32"
        }
      ],
      "name": "txHashToId",
      "outputs": [
        {
          "internalType": "bytes32",
          "name": "",
          "type": "bytes32"
        }
      ],
      "stateMutability": "view",
      "type": "function"
    }
  ],
  "bytecode": "0x60e06040523480156200001157600080fd5b5060405162003cdb38038062003cdb833981016040819052620000349162000166565b6001600055806001600160a01b0381166200006957604051631e4fbdf760e01b81526000600482015260240160405180910390fd5b6200007481620000f7565b506001600160a01b03841615806200009357506001600160a01b038316155b80620000a657506001600160a01b038216155b80620000b957506001600160a01b038116155b15620000d85760405163538ba4f960e01b815260040160405180910390fd5b506001600160a01b0392831660805290821660a0521660c052620001c3565b600180546001600160a01b038381166001600160a01b0319831681179093556040519116919082907f8be0079c531659141344cd1fd0a4f28419497f9722a3daafe3b4186f6b6457e090600090a35050565b80516001600160a01b03811681146200016157600080fd5b919050565b600080600080608085870312156200017d57600080fd5b620001888562000149565b9350620001986020860162000149565b9250620001a86040860162000149565b9150620001b86060860162000149565b905092959194509250565b60805160a05160c051613a7862000263600039600081816103420152818161061101528181610640015281816107290152818161075801528181610899015281816108c8015281816118e4015281816119130152611a1a0152600081816103760152610412015260008181610243015281816104c40152818161055701528181610ab501528181610f9e0152818161181b0152611c2d0152613a786000f3fe6080604052600436106100fe5760003560e01c80638da5cb5b11610095578063c1ce47d211610064578063c1ce47d2146102e3578063c4d66de814610310578063ca0ab07514610330578063de0ca16614610364578063f2fde38b1461039857600080fd5b80638da5cb5b14610265578063a130312a14610283578063a890b7b4146102a3578063c0e3896b146102c357600080fd5b8063642f2eaf116100d1578063642f2eaf146101b0578063715018a6146101e75780637577b6df146101fc578063759787c41461023157600080fd5b80630559b877146101035780631613f25b146101405780634aae13ca146101615780634e4f0ec41461018e575b600080fd5b34801561010f57600080fd5b50600554610123906001600160a01b031681565b6040516001600160a01b0390911681526020015b60405180910390f35b61015361014e36600461302d565b6103b8565b604051908152602001610137565b34801561016d57600080fd5b5061018161017c36600461306f565b610d14565b6040516101379190613110565b34801561019a57600080fd5b506101ae6101a936600461323c565b610f2f565b005b3480156101bc57600080fd5b506101d06101cb36600461306f565b611084565b6040516101379b9a99989796959493929190613287565b3480156101f357600080fd5b506101ae61120e565b34801561020857600080fd5b5061021c61021736600461306f565b611222565b60408051928352602083019190915201610137565b34801561023d57600080fd5b506101237f000000000000000000000000000000000000000000000000000000000000000081565b34801561027157600080fd5b506001546001600160a01b0316610123565b34801561028f57600080fd5b506101ae61029e36600461306f565b611274565b3480156102af57600080fd5b506101816102be36600461306f565b6112f3565b3480156102cf57600080fd5b506101ae6102de366004613312565b6114e0565b3480156102ef57600080fd5b506101536102fe36600461306f565b60036020526000908152604090205481565b34801561031c57600080fd5b506101ae61032b366004613370565b611683565b34801561033c57600080fd5b506101237f000000000000000000000000000000000000000000000000000000000000000081565b34801561037057600080fd5b506101237f000000000000000000000000000000000000000000000000000000000000000081565b3480156103a457600080fd5b506101ae6103b3366004613370565b611704565b60006103c2611747565b6001600160a01b03841615806103df57506001600160a01b038216155b156103fd5760405163538ba4f960e01b815260040160405180910390fd5b60405163682dc82b60e11b81523360048201527f00000000000000000000000000000000000000000000000000000000000000006001600160a01b03169063d05b905690602401602060405180830381865afa158015610461573d6000803e3d6000fd5b505050506040513d601f19601f82011682018060405250810190610485919061338d565b6104a25760405163289ea21560e11b815260040160405180910390fd5b6040516326415b0f60e21b81526001600160a01b0385811660048301526000917f0000000000000000000000000000000000000000000000000000000000000000909116906399056c3c90602401600060405180830381865afa15801561050d573d6000803e3d6000fd5b505050506040513d6000823e601f3d908101601f191682016040526105359190810190613522565b604051631c569df760e31b81526001600160a01b0387811660048301529192507f00000000000000000000000000000000000000000000000000000000000000009091169063e2b4efb890602401602060405180830381865afa1580156105a0573d6000803e3d6000fd5b505050506040513d601f19601f820116820180604052508101906105c4919061338d565b6105e15760405163689b992760e01b815260040160405180910390fd5b42841161060157604051632c5af88760e21b815260040160405180910390fd5b600061060d4286613680565b90507f00000000000000000000000000000000000000000000000000000000000000006001600160a01b0316636dd5b69d7f00000000000000000000000000000000000000000000000000000000000000006001600160a01b0316633918a8466040518163ffffffff1660e01b8152600401602060405180830381865afa15801561069c573d6000803e3d6000fd5b505050506040513d601f19601f820116820180604052508101906106c09190613699565b6040518263ffffffff1660e01b81526004016106de91815260200190565b602060405180830381865afa1580156106fb573d6000803e3d6000fd5b505050506040513d601f19601f8201168201806040525081019061071f9190613699565b81108061083a57507f00000000000000000000000000000000000000000000000000000000000000006001600160a01b0316636dd5b69d7f00000000000000000000000000000000000000000000000000000000000000006001600160a01b03166358d0b1476040518163ffffffff1660e01b8152600401602060405180830381865afa1580156107b4573d6000803e3d6000fd5b505050506040513d601f19601f820116820180604052508101906107d89190613699565b6040518263ffffffff1660e01b81526004016107f691815260200190565b602060405180830381865afa158015610813573d6000803e3d6000fd5b505050506040513d601f19601f820116820180604052508101906108379190613699565b81115b1561085857604051630c51c95b60e21b815260040160405180910390fd5b600061086a6127106301e133806136b2565b8360200151838560a0015161087f91906136b2565b61088991906136b2565b61089391906136c9565b905060007f00000000000000000000000000000000000000000000000000000000000000006001600160a01b0316636dd5b69d7f00000000000000000000000000000000000000000000000000000000000000006001600160a01b0316634b74d9ca6040518163ffffffff1660e01b8152600401602060405180830381865afa158015610924573d6000803e3d6000fd5b505050506040513d601f19601f820116820180604052508101906109489190613699565b6040518263ffffffff1660e01b815260040161096691815260200190565b602060405180830381865afa158015610983573d6000803e3d6000fd5b505050506040513d601f19601f820116820180604052508101906109a79190613699565b905080846020015110806109c057506127108460200151115b156109de57604051634560802960e01b815260040160405180910390fd5b816000036109ff57604051632fb15b8760e01b815260040160405180910390fd5b81341015610a20576040516380e5952760e01b815260040160405180910390fd5b600042338a60046000815480929190610a38906136eb565b909155506040805160208101959095526bffffffffffffffffffffffff19606094851b8116918601919091529190921b166054830152606882015260880160408051808303601f190181529082905280516020909101206315969bed60e11b82526001600160a01b038b81166004840152602483018290529092507f00000000000000000000000000000000000000000000000000000000000000001690632b2d37da90604401600060405180830381600087803b158015610af957600080fd5b505af1158015610b0d573d6000803e3d6000fd5b50505050604051806101600160405280336001600160a01b031681526020018a6001600160a01b0316815260200142815260200189815260200160006001600160401b03811115610b6057610b606133af565b6040519080825280601f01601f191660200182016040528015610b8a576020820181803683370190505b5081526000602080830182905260408084018390526060840188905280518381529182019052608090920191905081526001600160a01b03808a1660208084018290526040938401919091526000858152600280835290849020855181549085166001600160a01b0319918216178255928601516001820180549190951693169290921790925591830151908201556060820151600382015560808201516004820190610c37908261378d565b5060a0820151600582015560c082015160068201805460ff19166001836004811115610c6557610c656130d8565b021790555060e082015160078201556101008201516008820190610c89908261378d565b506101208201516009820180546001600160a01b03199081166001600160a01b039384161790915561014090930151600a909201805490931691811691909117909155604051908a1690339083907f3f9704516fd7b664375bdfc5fb0c00e1326d44378d723aa344109738be611a2a90600090a4945050505050610d0d6001600055565b9392505050565b610d1c612fbf565b60008281526003602052604090205480610d495760405163d0e6a1c560e01b815260040160405180910390fd5b60008181526002602081815260409283902083516101608101855281546001600160a01b03908116825260018301541692810192909252918201549281019290925260038101546060830152600481018054608084019190610daa90613704565b80601f0160208091040260200160405190810160405280929190818152602001828054610dd690613704565b8015610e235780601f10610df857610100808354040283529160200191610e23565b820191906000526020600020905b815481529060010190602001808311610e0657829003601f168201915b505050918352505060058201546020820152600682015460409091019060ff166004811115610e5457610e546130d8565b6004811115610e6557610e656130d8565b815260200160078201548152602001600882018054610e8390613704565b80601f0160208091040260200160405190810160405280929190818152602001828054610eaf90613704565b8015610efc5780601f10610ed157610100808354040283529160200191610efc565b820191906000526020600020905b815481529060010190602001808311610edf57829003601f168201915b505050918352505060098201546001600160a01b039081166020830152600a909201549091166040909101529392505050565b600083815260026020526040812090600682015460ff166004811115610f5757610f576130d8565b14610f745760405162cd158d60e51b815260040160405180910390fd5b6001810154604051630e70978b60e21b81526001600160a01b0391821660048201523360248201527f0000000000000000000000000000000000000000000000000000000000000000909116906339c25e2c90604401602060405180830381865afa158015610fe7573d6000803e3d6000fd5b505050506040513d601f19601f8201168201806040525081019061100b919061338d565b61102857604051633d83866f60e01b815260040160405180910390fd5b60068101805460ff191660011790556008810161104683858361384c565b50805460405185916001600160a01b0316907fc5a53e8918a64b3e9944e2344fc4fdd4c8b33a433b3a696975c4996090b39f6190600090a350505050565b6002602081905260009182526040909120805460018201549282015460038301546004840180546001600160a01b03948516969094169492939192916110c990613704565b80601f01602080910402602001604051908101604052809291908181526020018280546110f590613704565b80156111425780601f1061111757610100808354040283529160200191611142565b820191906000526020600020905b81548152906001019060200180831161112557829003601f168201915b5050506005840154600685015460078601546008870180549697939660ff90931695509093509061117290613704565b80601f016020809104026020016040519081016040528092919081815260200182805461119e90613704565b80156111eb5780601f106111c0576101008083540402835291602001916111eb565b820191906000526020600020905b8154815290600101906020018083116111ce57829003601f168201915b505050506009830154600a9093015491926001600160a01b03908116921690508b565b611216611771565b611220600061179e565b565b60055460009081906001600160a01b0316331461125257604051636f5ba97360e01b815260040160405180910390fd5b600083815260026020526040902061126a84826117f0565b9250925050915091565b600081815260026020526040812090600682015460ff16600481111561129c5761129c6130d8565b146112b95760405162cd158d60e51b815260040160405180910390fd5b80546001600160a01b031633146112e357604051633d83866f60e01b815260040160405180910390fd5b6112ed82826117f0565b50505050565b6112fb612fbf565b60008281526002602081815260409283902083516101608101855281546001600160a01b0390811682526001830154169281019290925291820154928101929092526003810154606083015260048101805460808401919061135c90613704565b80601f016020809104026020016040519081016040528092919081815260200182805461138890613704565b80156113d55780601f106113aa576101008083540402835291602001916113d5565b820191906000526020600020905b8154815290600101906020018083116113b857829003601f168201915b505050918352505060058201546020820152600682015460409091019060ff166004811115611406576114066130d8565b6004811115611417576114176130d8565b81526020016007820154815260200160088201805461143590613704565b80601f016020809104026020016040519081016040528092919081815260200182805461146190613704565b80156114ae5780601f10611483576101008083540402835291602001916114ae565b820191906000526020600020905b81548152906001019060200180831161149157829003601f168201915b505050918352505060098201546001600160a01b039081166020830152600a9092015490911660409091015292915050565b6114e8611747565b6001600160a01b03811661150f5760405163538ba4f960e01b815260040160405180910390fd5b600084815260026020526040812090600682015460ff166004811115611537576115376130d8565b146115545760405162cd158d60e51b815260040160405180910390fd5b80546001600160a01b0316331461157e57604051633d83866f60e01b815260040160405180910390fd5b600061158a8585611ce6565b9050600061159782611e7a565b905060006002826040516115ab919061390c565b602060405180830381855afa1580156115c8573d6000803e3d6000fd5b5050506040513d601f19601f820116820180604052508101906115eb9190613699565b60068501805460ff1916600217905590506004840161160b87898361384c565b5060058401819055600a840180546001600160a01b0319166001600160a01b03878116919091179091556000828152600360205260408082208b9055865490518b9391909116917f31e90e280e677d9edeb57411a7ccf29ae3094cc999a12de72dfdecf0b9ed1f0591a3505050506112ed6001600055565b61168b611771565b600554600160a01b900460ff16156116b65760405163439a74c960e01b815260040160405180910390fd5b6001600160a01b0381166116dd5760405163538ba4f960e01b815260040160405180910390fd5b600580546001600160a81b0319166001600160a01b0390921691909117600160a01b179055565b61170c611771565b6001600160a01b03811661173b57604051631e4fbdf760e01b8152600060048201526024015b60405180910390fd5b6117448161179e565b50565b60026000540361176a57604051633ee5aeb560e01b815260040160405180910390fd5b6002600055565b6001546001600160a01b031633146112205760405163118cdaa760e01b8152336004820152602401611732565b600180546001600160a01b038381166001600160a01b0319831681179093556040519116919082907f8be0079c531659141344cd1fd0a4f28419497f9722a3daafe3b4186f6b6457e090600090a35050565b60018101546040516326415b0f60e21b81526001600160a01b039182166004820152600091829182917f000000000000000000000000000000000000000000000000000000000000000016906399056c3c90602401600060405180830381865afa158015611862573d6000803e3d6000fd5b505050506040513d6000823e601f3d908101601f1916820160405261188a9190810190613522565b9050600084600201544261189e9190613680565b905060006118b26127106301e133806136b2565b8360200151838560a001516118c791906136b2565b6118d191906136b2565b6118db91906136c9565b905060006127107f00000000000000000000000000000000000000000000000000000000000000006001600160a01b0316636dd5b69d7f00000000000000000000000000000000000000000000000000000000000000006001600160a01b031663a1ba73446040518163ffffffff1660e01b8152600401602060405180830381865afa15801561196f573d6000803e3d6000fd5b505050506040513d601f19601f820116820180604052508101906119939190613699565b6040518263ffffffff1660e01b81526004016119b191815260200190565b602060405180830381865afa1580156119ce573d6000803e3d6000fd5b505050506040513d601f19601f820116820180604052508101906119f29190613699565b6119fc90846136b2565b611a0691906136c9565b90506000611a148284613680565b905060007f00000000000000000000000000000000000000000000000000000000000000006001600160a01b0316638b6570a06040518163ffffffff1660e01b8152600401602060405180830381865afa158015611a76573d6000803e3d6000fd5b505050506040513d601f19601f82011682018060405250810190611a9a9190613928565b90506000816001600160a01b03168460405160006040518083038185875af1925050503d8060008114611ae9576040519150601f19603f3d011682016040523d82523d6000602084013e611aee565b606091505b5050905080611b1057604051631fa55c0760e11b815260040160405180910390fd5b60018a01546040516000916001600160a01b03169085908381818185875af1925050503d8060008114611b5f576040519150601f19603f3d011682016040523d82523d6000602084013e611b64565b606091505b5050905080611b8657604051631fa55c0760e11b815260040160405180910390fd5b478015611c02578b546040516000916001600160a01b03169083908381818185875af1925050503d8060008114611bd9576040519150601f19603f3d011682016040523d82523d6000602084013e611bde565b606091505b5050905080611c0057604051631fa55c0760e11b815260040160405180910390fd5b505b60018c015460405163cedb588b60e01b81526001600160a01b039182166004820152602481018f90527f00000000000000000000000000000000000000000000000000000000000000009091169063cedb588b90604401600060405180830381600087803b158015611c7357600080fd5b505af1158015611c87573d6000803e3d6000fd5b5050505060068c01805460ff191660011790558b546040518e916001600160a01b0316907fd4ce83344b315e3d656d76b02d51dcb1e3c92f1f9f9c28524cfb20882e9e6bc790600090a3509298509296505050505050505b9250929050565b6040805160a081018252600080825260606020830181905292820183905291810182905260808101829052908280611d1f600484613945565b1115611d415760405160016203ac8b60e61b0319815260040160405180910390fd5b848285611d4f600483613945565b92611d5c93929190613958565b611d6591613982565b60e01c8352611d75600483613945565b9150600080611d8587878661251b565b811515608088015294509150839050600080611da28989856125ae565b6020890182905296509150859050600080611dbe8b8b856126a6565b60408b01829052985091508790508515611de257611ddf8b8b8a8751612786565b97505b86611dee896004613945565b1115611e105760405160016203ac8b60e61b0319815260040160405180910390fd5b8a888b611e1e826004613945565b92611e2b93929190613958565b611e3491613982565b60e01c60608a0152611e47600489613945565b9750868814611e6c5760405160016203ac8b60e61b0319815260040160405180910390fd5b505050505050505092915050565b6060600060049050611e90836020015151612819565b611e9a9082613945565b905060005b836020015151811015611ed857611eb7602883613945565b9150611ec4600183613945565b915080611ed0816136eb565b915050611e9f565b50611ee7836040015151612819565b611ef19082613945565b905060005b836040015151811015611f8957611f0e600883613945565b9150611f3b84604001518281518110611f2957611f296139b2565b60200260200101516020015151612819565b611f459083613945565b915083604001518181518110611f5d57611f5d6139b2565b6020026020010151602001515182611f759190613945565b915080611f81816136eb565b915050611ef6565b50611f95600482613945565b90506000816001600160401b03811115611fb157611fb16133af565b6040519080825280601f01601f191660200182016040528015611fdb576020820181803683370190505b50845190915060009060e01b815b600481101561204c57818160048110612004576120046139b2565b1a60f81b846120138386613945565b81518110612023576120236139b2565b60200101906001600160f81b031916908160001a90535080612044816136eb565b915050611fe9565b50612058600483613945565b915061206a866020015151848461285d565b6120749083613945565b915060005b8660200151518110156122a55760005b602081101561210d57876020015182815181106120a8576120a86139b2565b60200260200101516000015181602081106120c5576120c56139b2565b1a60f81b856120d48387613945565b815181106120e4576120e46139b2565b60200101906001600160f81b031916908160001a90535080612105816136eb565b915050612089565b50612119602084613945565b9250600087602001518281518110612133576121336139b2565b60200260200101516020015160e01b905060005b60048110156121aa57818160048110612162576121626139b2565b1a60f81b866121718388613945565b81518110612181576121816139b2565b60200101906001600160f81b031916908160001a905350806121a2816136eb565b915050612147565b506121b6600485613945565b9350600060f81b8585815181106121cf576121cf6139b2565b60200101906001600160f81b031916908160001a9053506121f1600185613945565b935060008860200151838151811061220b5761220b6139b2565b60200260200101516060015160e01b905060005b60048110156122825781816004811061223a5761223a6139b2565b1a60f81b876122498389613945565b81518110612259576122596139b2565b60200101906001600160f81b031916908160001a9053508061227a816136eb565b91505061221f565b5061228e600486613945565b94505050808061229d906136eb565b915050612079565b506122b6866040015151848461285d565b6122c09083613945565b915060005b8660400151518110156124a0576000876040015182815181106122ea576122ea6139b2565b60200260200101516000015160c01b905060005b600881101561236157818160088110612319576123196139b2565b1a60f81b866123288388613945565b81518110612338576123386139b2565b60200101906001600160f81b031916908160001a90535080612359816136eb565b9150506122fe565b5061236d600885613945565b935061239c88604001518381518110612388576123886139b2565b60200260200101516020015151868661285d565b6123a69085613945565b935060005b886040015183815181106123c1576123c16139b2565b6020026020010151602001515181101561245b57886040015183815181106123eb576123eb6139b2565b6020026020010151602001518181518110612408576124086139b2565b01602001516001600160f81b031916866124228388613945565b81518110612432576124326139b2565b60200101906001600160f81b031916908160001a90535080612453816136eb565b9150506123ab565b5087604001518281518110612472576124726139b2565b602002602001015160200151518461248a9190613945565b9350508080612498906136eb565b9150506122c5565b50606086015160e01b60005b600481101561250f578181600481106124c7576124c76139b2565b1a60f81b856124d68387613945565b815181106124e6576124e66139b2565b60200101906001600160f81b031916908160001a90535080612507816136eb565b9150506124ac565b50929695505050505050565b6000818361252a826002613945565b116125a6576000858585818110612543576125436139b2565b919091013560f81c915060009050868661255e876001613945565b81811061256d5761256d6139b2565b919091013560f81c91505060ff821615801561258c575060ff81166001145b156125a357600193506125a0600284613945565b92505b50505b935093915050565b606060008060006125c0878787612ac3565b90925090506125cf8186613945565b9250816001600160401b038111156125e9576125e96133af565b60405190808252806020026020018201604052801561263c57816020015b604080516080810182526000808252602080830182905260609383018490529282015282526000199092019101816126075790505b50935060005b8281101561269b576000806126588a8a88612c7e565b915091508187848151811061266f5761266f6139b2565b60209081029190910101526126848187613945565b955050508080612693906136eb565b915050612642565b505050935093915050565b606060008060006126b8878787612ac3565b90925090506126c78186613945565b9250816001600160401b038111156126e1576126e16133af565b60405190808252806020026020018201604052801561272757816020015b6040805180820190915260008152606060208201528152602001906001900390816126ff5790505b50935060005b8281101561269b576000806127438a8a88612e9a565b915091508187848151811061275a5761275a6139b2565b602090810291909101015261276f8187613945565b95505050808061277e906136eb565b91505061272d565b8160005b82811015612810576000806127a0888886612ac3565b90925090506127af8185613945565b935060005b828110156127fa576000806127ca8b8b89612ac3565b90925090506127d98282613945565b6127e39088613945565b9650505080806127f2906136eb565b9150506127b4565b5050508080612808906136eb565b91505061278a565b50949350505050565b600060fc82101561282c57506001919050565b61ffff821161283d57506003919050565b63ffffffff821161285057506005919050565b506009919050565b919050565b600060fc84101561289e578360f81b83838151811061287e5761287e6139b2565b60200101906001600160f81b031916908160001a90535060019050610d0d565b61ffff84116129585760fd60f81b8383815181106128be576128be6139b2565b60200101906001600160f81b031916908160001a90535060f084901b8060001a60f81b846128ed856001613945565b815181106128fd576128fd6139b2565b60200101906001600160f81b031916908160001a9053508060011a60f81b84612927856002613945565b81518110612937576129376139b2565b60200101906001600160f81b031916908160001a9053506003915050610d0d565b63ffffffff8411612a135760fe60f81b83838151811061297a5761297a6139b2565b60200101906001600160f81b031916908160001a90535060e084901b60005b6004811015612a08578181600481106129b4576129b46139b2565b1a60f81b85826129c5876001613945565b6129cf9190613945565b815181106129df576129df6139b2565b60200101906001600160f81b031916908160001a90535080612a00816136eb565b915050612999565b506005915050610d0d565b60ff60f81b838381518110612a2a57612a2a6139b2565b60200101906001600160f81b031916908160001a90535060c084901b60005b6008811015612ab857818160088110612a6457612a646139b2565b1a60f81b8582612a75876001613945565b612a7f9190613945565b81518110612a8f57612a8f6139b2565b60200101906001600160f81b031916908160001a90535080612ab0816136eb565b915050612a49565b506009915050610d0d565b600080838310612ae95760405160016203ac8b60e61b0319815260040160405180910390fd5b6000858585818110612afd57612afd6139b2565b919091013560f81c91505060fc811015612b1f5760ff169150600190506125a6565b60fc1960ff821601612b985784612b37856003613945565b1115612b595760405160016203ac8b60e61b0319815260040160405180910390fd5b8585612b66866001613945565b90612b72876003613945565b92612b7f93929190613958565b612b88916139c8565b60f01c9250600391506125a69050565b60fd1960ff821601612c115784612bb0856005613945565b1115612bd25760405160016203ac8b60e61b0319815260040160405180910390fd5b8585612bdf866001613945565b90612beb876005613945565b92612bf893929190613958565b612c0191613982565b60e01c9250600591506125a69050565b84612c1d856009613945565b1115612c3f5760405160016203ac8b60e61b0319815260040160405180910390fd5b8585612c4c866001613945565b90612c58876009613945565b92612c6593929190613958565b612c6e916139f6565b60c01c9250600991506125a69050565b6040805160808101825260008082526020820181905260609282018390529181019190915260008284612cb2826020613945565b1115612cd45760405160016203ac8b60e61b0319815260040160405180910390fd5b858486612ce2826020613945565b92612cef93929190613958565b612cf891613a24565b8352612d05602085613945565b935084612d13856004613945565b1115612d355760405160016203ac8b60e61b0319815260040160405180910390fd5b858486612d43826004613945565b92612d5093929190613958565b612d5991613982565b60e01c6020840152612d6c600485613945565b9350600080612d7c888888612ac3565b9092509050612d8b8187613945565b955086612d988388613945565b1115612dba5760405160016203ac8b60e61b0319815260040160405180910390fd5b878688612dc78583613945565b92612dd493929190613958565b8080601f0160208091040260200160405190810160405280939291908181526020018383808284376000920191909152505050506040860152612e178287613945565b955086612e25876004613945565b1115612e475760405160016203ac8b60e61b0319815260040160405180910390fd5b878688612e55826004613945565b92612e6293929190613958565b612e6b91613982565b60e01c6060860152612e7e600487613945565b955084612e8b8488613680565b94509450505050935093915050565b60408051808201909152600081526060602082015260008284612ebe826008613945565b1115612ee05760405160016203ac8b60e61b0319815260040160405180910390fd5b858486612eee826008613945565b92612efb93929190613958565b612f04916139f6565b60c01c8352612f14600885613945565b9350600080612f24888888612ac3565b9092509050612f338187613945565b955086612f408388613945565b1115612f625760405160016203ac8b60e61b0319815260040160405180910390fd5b878688612f6f8583613945565b92612f7c93929190613958565b8080601f0160208091040260200160405190810160405280939291908181526020018383808284376000920191909152505050506020860152612e7e8287613945565b60408051610160810182526000808252602082018190529181018290526060808201839052608082015260a081018290529060c08201908152600060208201819052606060408301819052820181905260809091015290565b6001600160a01b038116811461174457600080fd5b60008060006060848603121561304257600080fd5b833561304d81613018565b925060208401359150604084013561306481613018565b809150509250925092565b60006020828403121561308157600080fd5b5035919050565b60005b838110156130a357818101518382015260200161308b565b50506000910152565b600081518084526130c4816020860160208601613088565b601f01601f19169290920160200192915050565b634e487b7160e01b600052602160045260246000fd5b6005811061310c57634e487b7160e01b600052602160045260246000fd5b9052565b6020815261312a6020820183516001600160a01b03169052565b6000602083015161314660408401826001600160a01b03169052565b50604083015160608301526060830151608083015260808301516101608060a08501526131776101808501836130ac565b915060a085015160c085015260c085015161319560e08601826130ee565b5060e0850151610100818187015280870151915050610120601f1986850301818701526131c284836130ac565b9350808701519150506101406131e2818701836001600160a01b03169052565b909501516001600160a01b031693019290925250919050565b60008083601f84011261320d57600080fd5b5081356001600160401b0381111561322457600080fd5b602083019150836020828501011115611cdf57600080fd5b60008060006040848603121561325157600080fd5b8335925060208401356001600160401b0381111561326e57600080fd5b61327a868287016131fb565b9497909650939450505050565b600061016060018060a01b03808f168452808e1660208501528c60408501528b60608501528160808501526132be8285018c6130ac565b91508960a08501526132d360c085018a6130ee565b8760e08501528382036101008501526132ec82886130ac565b925080861661012085015280851661014085015250509c9b505050505050505050505050565b6000806000806060858703121561332857600080fd5b8435935060208501356001600160401b0381111561334557600080fd5b613351878288016131fb565b909450925050604085013561336581613018565b939692955090935050565b60006020828403121561338257600080fd5b8135610d0d81613018565b60006020828403121561339f57600080fd5b81518015158114610d0d57600080fd5b634e487b7160e01b600052604160045260246000fd5b6040516101a081016001600160401b03811182821017156133e8576133e86133af565b60405290565b604051601f8201601f191681016001600160401b0381118282101715613416576134166133af565b604052919050565b805161285881613018565b80516004811061285857600080fd5b600082601f83011261344957600080fd5b815160206001600160401b03821115613464576134646133af565b8160051b6134738282016133ee565b928352848101820192828101908785111561348d57600080fd5b83870192505b848310156134ac57825182529183019190830190613493565b979650505050505050565b600082601f8301126134c857600080fd5b81516001600160401b038111156134e1576134e16133af565b6134f4601f8201601f19166020016133ee565b81815284602083860101111561350957600080fd5b61351a826020830160208701613088565b949350505050565b60006020828403121561353457600080fd5b81516001600160401b038082111561354b57600080fd5b908301906101a0828603121561356057600080fd5b6135686133c5565b6135718361341e565b8152602083015160208201526040830151604082015261359360608401613429565b60608201526080830151608082015260a083015160a08201526135b860c0840161341e565b60c08201526135c960e0840161341e565b60e082015261010080840151838111156135e257600080fd5b6135ee88828701613438565b82840152505061012061360281850161341e565b90820152610140838101518381111561361a57600080fd5b613626888287016134b7565b828401525050610160808401518381111561364057600080fd5b61364c888287016134b7565b91830191909152506101809283015192810192909252509392505050565b634e487b7160e01b600052601160045260246000fd5b818103818111156136935761369361366a565b92915050565b6000602082840312156136ab57600080fd5b5051919050565b80820281158282048414176136935761369361366a565b6000826136e657634e487b7160e01b600052601260045260246000fd5b500490565b6000600182016136fd576136fd61366a565b5060010190565b600181811c9082168061371857607f821691505b60208210810361373857634e487b7160e01b600052602260045260246000fd5b50919050565b601f82111561378857600081815260208120601f850160051c810160208610156137655750805b601f850160051c820191505b8181101561378457828155600101613771565b5050505b505050565b81516001600160401b038111156137a6576137a66133af565b6137ba816137b48454613704565b8461373e565b602080601f8311600181146137ef57600084156137d75750858301515b600019600386901b1c1916600185901b178555613784565b600085815260208120601f198616915b8281101561381e578886015182559484019460019091019084016137ff565b508582101561383c5787850151600019600388901b60f8161c191681555b5050505050600190811b01905550565b6001600160401b03831115613863576138636133af565b613877836138718354613704565b8361373e565b6000601f8411600181146138ab57600085156138935750838201355b600019600387901b1c1916600186901b178355613905565b600083815260209020601f19861690835b828110156138dc57868501358255602094850194600190920191016138bc565b50868210156138f95760001960f88860031b161c19848701351681555b505060018560011b0183555b5050505050565b6000825161391e818460208701613088565b9190910192915050565b60006020828403121561393a57600080fd5b8151610d0d81613018565b808201808211156136935761369361366a565b6000808585111561396857600080fd5b8386111561397557600080fd5b5050820193919092039150565b6001600160e01b031981358181169160048510156139aa5780818660040360031b1b83161692505b505092915050565b634e487b7160e01b600052603260045260246000fd5b6001600160f01b031981358181169160028510156139aa5760029490940360031b84901b1690921692915050565b6001600160c01b031981358181169160088510156139aa5760089490940360031b84901b1690921692915050565b8035602083101561369357600019602084900360031b1b169291505056fea2646970667358221220b49402baf36b43f2e18792782619ab881bb167ad49f770aa76ebbd977b9a089364736f6c63430008140033",
  "linkReferences": {},
  "deployedLinkReferences": {}
}