{
  "_format": "hh-sol-artifact-1",
  "contractName": "TransactionManager",
  "sourceName": "contracts/core/TransactionManager.sol",
  "abi": [
    {
      "inputs": [],
      "stateMutability": "nonpayable",
      "type": "constructor"
    },
    {
      "inputs": [],
      "name": "InvalidInitialization",
      "type": "error"
    },
    {
      "inputs": [],
      "name": "NotInitializing",
      "type": "error"
    },
    {
      "inputs": [
        {
          "internalType": "address",
          "name": "owner",
          "type": "address"
        }
      ],
      "name": "OwnableInvalidOwner",
      "type": "error"
    },
    {
      "inputs": [
        {
          "internalType": "address",
          "name": "account",
          "type": "address"
        }
      ],
      "name": "OwnableUnauthorizedAccount",
      "type": "error"
    },
    {
      "inputs": [],
      "name": "ReentrancyGuardReentrantCall",
      "type": "error"
    },
    {
      "anonymous": false,
      "inputs": [
        {
          "indexed": true,
          "internalType": "bytes32",
          "name": "txId",
          "type": "bytes32"
        },
        {
          "indexed": true,
          "internalType": "address",
          "name": "dapp",
          "type": "address"
        },
        {
          "indexed": false,
          "internalType": "address",
          "name": "arbitrator",
          "type": "address"
        },
        {
          "indexed": false,
          "internalType": "bytes",
          "name": "signData",
          "type": "bytes"
        },
        {
          "indexed": false,
          "internalType": "bytes",
          "name": "script",
          "type": "bytes"
        },
        {
          "indexed": false,
          "internalType": "address",
          "name": "timeoutCompensationReceiver",
          "type": "address"
        }
      ],
      "name": "ArbitrationRequested",
      "type": "event"
    },
    {
      "anonymous": false,
      "inputs": [
        {
          "indexed": true,
          "internalType": "bytes32",
          "name": "txId",
          "type": "bytes32"
        },
        {
          "indexed": true,
          "internalType": "address",
          "name": "dapp",
          "type": "address"
        },
        {
          "indexed": true,
          "internalType": "address",
          "name": "arbitrator",
          "type": "address"
        },
        {
          "indexed": false,
          "internalType": "bytes",
          "name": "btcTxSignature",
          "type": "bytes"
        }
      ],
      "name": "ArbitrationSubmitted",
      "type": "event"
    },
    {
      "anonymous": false,
      "inputs": [
        {
          "indexed": false,
          "internalType": "uint64",
          "name": "version",
          "type": "uint64"
        }
      ],
      "name": "Initialized",
      "type": "event"
    },
    {
      "anonymous": false,
      "inputs": [
        {
          "indexed": true,
          "internalType": "address",
          "name": "previousOwner",
          "type": "address"
        },
        {
          "indexed": true,
          "internalType": "address",
          "name": "newOwner",
          "type": "address"
        }
      ],
      "name": "OwnershipTransferred",
      "type": "event"
    },
    {
      "anonymous": false,
      "inputs": [
        {
          "indexed": true,
          "internalType": "address",
          "name": "arbitratorManager",
          "type": "address"
        }
      ],
      "name": "SetArbitratorManager",
      "type": "event"
    },
    {
      "anonymous": false,
      "inputs": [
        {
          "indexed": true,
          "internalType": "bytes32",
          "name": "txId",
          "type": "bytes32"
        },
        {
          "indexed": true,
          "internalType": "address",
          "name": "dapp",
          "type": "address"
        }
      ],
      "name": "TransactionCompleted",
      "type": "event"
    },
    {
      "anonymous": false,
      "inputs": [
        {
          "indexed": true,
          "internalType": "bytes32",
          "name": "id",
          "type": "bytes32"
        },
        {
          "indexed": true,
          "internalType": "address",
          "name": "dapp",
          "type": "address"
        },
        {
          "indexed": true,
          "internalType": "address",
          "name": "arbitrator",
          "type": "address"
        },
        {
          "indexed": false,
          "internalType": "uint256",
          "name": "deadline",
          "type": "uint256"
        },
        {
          "indexed": false,
          "internalType": "uint256",
          "name": "depositFee",
          "type": "uint256"
        },
        {
          "indexed": false,
          "internalType": "address",
          "name": "compensationReceiver",
          "type": "address"
        }
      ],
      "name": "TransactionRegistered",
      "type": "event"
    },
    {
      "anonymous": false,
      "inputs": [
        {
          "indexed": true,
          "internalType": "bytes32",
          "name": "txId",
          "type": "bytes32"
        },
        {
          "indexed": true,
          "internalType": "address",
          "name": "dapp",
          "type": "address"
        }
      ],
      "name": "UTXOsUploaded",
      "type": "event"
    },
    {
      "inputs": [],
      "name": "arbitratorManager",
      "outputs": [
        {
          "internalType": "contract IArbitratorManager",
          "name": "",
          "type": "address"
        }
      ],
      "stateMutability": "view",
      "type": "function"
    },
    {
      "inputs": [],
      "name": "compensationManager",
      "outputs": [
        {
          "internalType": "address",
          "name": "",
          "type": "address"
        }
      ],
      "stateMutability": "view",
      "type": "function"
    },
    {
      "inputs": [
        {
          "internalType": "bytes32",
          "name": "id",
          "type": "bytes32"
        }
      ],
      "name": "completeTransaction",
      "outputs": [],
      "stateMutability": "nonpayable",
      "type": "function"
    },
    {
      "inputs": [
        {
          "internalType": "bytes32",
          "name": "id",
          "type": "bytes32"
        },
        {
          "internalType": "address",
          "name": "receivedCompensationAddress",
          "type": "address"
        }
      ],
      "name": "completeTransactionWithSlash",
      "outputs": [],
      "stateMutability": "nonpayable",
      "type": "function"
    },
    {
      "inputs": [],
      "name": "configManager",
      "outputs": [
        {
          "internalType": "contract ConfigManager",
          "name": "",
          "type": "address"
        }
      ],
      "stateMutability": "view",
      "type": "function"
    },
    {
      "inputs": [],
      "name": "dappRegistry",
      "outputs": [
        {
          "internalType": "contract IDAppRegistry",
          "name": "",
          "type": "address"
        }
      ],
      "stateMutability": "view",
      "type": "function"
    },
    {
      "inputs": [
        {
          "internalType": "uint256",
          "name": "deadline",
          "type": "uint256"
        },
        {
          "internalType": "address",
          "name": "arbitrator",
          "type": "address"
        }
      ],
      "name": "getRegisterTransactionFee",
      "outputs": [
        {
          "internalType": "uint256",
          "name": "fee",
          "type": "uint256"
        }
      ],
      "stateMutability": "view",
      "type": "function"
    },
    {
      "inputs": [
        {
          "internalType": "bytes32",
          "name": "txHash",
          "type": "bytes32"
        }
      ],
      "name": "getTransaction",
      "outputs": [
        {
          "components": [
            {
              "internalType": "address",
              "name": "dapp",
              "type": "address"
            },
            {
              "internalType": "address",
              "name": "arbitrator",
              "type": "address"
            },
            {
              "internalType": "uint256",
              "name": "startTime",
              "type": "uint256"
            },
            {
              "internalType": "uint256",
              "name": "deadline",
              "type": "uint256"
            },
            {
              "internalType": "bytes",
              "name": "btcTx",
              "type": "bytes"
            },
            {
              "internalType": "bytes32",
              "name": "btcTxHash",
              "type": "bytes32"
            },
            {
              "internalType": "enum DataTypes.TransactionStatus",
              "name": "status",
              "type": "uint8"
            },
            {
              "internalType": "uint256",
              "name": "depositedFee",
              "type": "uint256"
            },
            {
              "internalType": "bytes",
              "name": "signature",
              "type": "bytes"
            },
            {
              "internalType": "address",
              "name": "compensationReceiver",
              "type": "address"
            },
            {
              "internalType": "address",
              "name": "timeoutCompensationReceiver",
              "type": "address"
            },
            {
              "components": [
                {
                  "internalType": "bytes32",
                  "name": "txHash",
                  "type": "bytes32"
                },
                {
                  "internalType": "uint32",
                  "name": "index",
                  "type": "uint32"
                },
                {
                  "internalType": "bytes",
                  "name": "script",
                  "type": "bytes"
                },
                {
                  "internalType": "uint256",
                  "name": "amount",
                  "type": "uint256"
                }
              ],
              "internalType": "struct DataTypes.UTXO[]",
              "name": "utxos",
              "type": "tuple[]"
            },
            {
              "internalType": "bytes",
              "name": "script",
              "type": "bytes"
            },
            {
              "internalType": "uint256",
              "name": "requestArbitrationTime",
              "type": "uint256"
            }
          ],
          "internalType": "struct DataTypes.Transaction",
          "name": "",
          "type": "tuple"
        }
      ],
      "stateMutability": "view",
      "type": "function"
    },
    {
      "inputs": [
        {
          "internalType": "bytes32",
          "name": "id",
          "type": "bytes32"
        }
      ],
      "name": "getTransactionById",
      "outputs": [
        {
          "components": [
            {
              "internalType": "address",
              "name": "dapp",
              "type": "address"
            },
            {
              "internalType": "address",
              "name": "arbitrator",
              "type": "address"
            },
            {
              "internalType": "uint256",
              "name": "startTime",
              "type": "uint256"
            },
            {
              "internalType": "uint256",
              "name": "deadline",
              "type": "uint256"
            },
            {
              "internalType": "bytes",
              "name": "btcTx",
              "type": "bytes"
            },
            {
              "internalType": "bytes32",
              "name": "btcTxHash",
              "type": "bytes32"
            },
            {
              "internalType": "enum DataTypes.TransactionStatus",
              "name": "status",
              "type": "uint8"
            },
            {
              "internalType": "uint256",
              "name": "depositedFee",
              "type": "uint256"
            },
            {
              "internalType": "bytes",
              "name": "signature",
              "type": "bytes"
            },
            {
              "internalType": "address",
              "name": "compensationReceiver",
              "type": "address"
            },
            {
              "internalType": "address",
              "name": "timeoutCompensationReceiver",
              "type": "address"
            },
            {
              "components": [
                {
                  "internalType": "bytes32",
                  "name": "txHash",
                  "type": "bytes32"
                },
                {
                  "internalType": "uint32",
                  "name": "index",
                  "type": "uint32"
                },
                {
                  "internalType": "bytes",
                  "name": "script",
                  "type": "bytes"
                },
                {
                  "internalType": "uint256",
                  "name": "amount",
                  "type": "uint256"
                }
              ],
              "internalType": "struct DataTypes.UTXO[]",
              "name": "utxos",
              "type": "tuple[]"
            },
            {
              "internalType": "bytes",
              "name": "script",
              "type": "bytes"
            },
            {
              "internalType": "uint256",
              "name": "requestArbitrationTime",
              "type": "uint256"
            }
          ],
          "internalType": "struct DataTypes.Transaction",
          "name": "",
          "type": "tuple"
        }
      ],
      "stateMutability": "view",
      "type": "function"
    },
    {
      "inputs": [
        {
          "internalType": "address",
          "name": "_arbitratorManager",
          "type": "address"
        },
        {
          "internalType": "address",
          "name": "_dappRegistry",
          "type": "address"
        },
        {
          "internalType": "address",
          "name": "_configManager",
          "type": "address"
        },
        {
          "internalType": "address",
          "name": "_compensationManager",
          "type": "address"
        }
      ],
      "name": "initialize",
      "outputs": [],
      "stateMutability": "nonpayable",
      "type": "function"
    },
    {
      "inputs": [
        {
          "internalType": "bytes32",
          "name": "id",
          "type": "bytes32"
        }
      ],
      "name": "isAbleCompletedTransaction",
      "outputs": [
        {
          "internalType": "bool",
          "name": "",
          "type": "bool"
        }
      ],
      "stateMutability": "view",
      "type": "function"
    },
    {
      "inputs": [],
      "name": "owner",
      "outputs": [
        {
          "internalType": "address",
          "name": "",
          "type": "address"
        }
      ],
      "stateMutability": "view",
      "type": "function"
    },
    {
      "inputs": [
        {
          "internalType": "address",
          "name": "arbitrator",
          "type": "address"
        },
        {
          "internalType": "uint256",
          "name": "deadline",
          "type": "uint256"
        },
        {
          "internalType": "address",
          "name": "compensationReceiver",
          "type": "address"
        }
      ],
      "name": "registerTransaction",
      "outputs": [
        {
          "internalType": "bytes32",
          "name": "",
          "type": "bytes32"
        }
      ],
      "stateMutability": "payable",
      "type": "function"
    },
    {
      "inputs": [],
      "name": "renounceOwnership",
      "outputs": [],
      "stateMutability": "nonpayable",
      "type": "function"
    },
    {
      "inputs": [
        {
          "internalType": "bytes32",
          "name": "id",
          "type": "bytes32"
        },
        {
          "internalType": "bytes",
          "name": "signData",
          "type": "bytes"
        },
        {
          "internalType": "enum DataTypes.SignDataType",
          "name": "signDataType",
          "type": "uint8"
        },
        {
          "internalType": "bytes",
          "name": "script",
          "type": "bytes"
        },
        {
          "internalType": "address",
          "name": "timeoutCompensationReceiver",
          "type": "address"
        }
      ],
      "name": "requestArbitration",
      "outputs": [],
      "stateMutability": "nonpayable",
      "type": "function"
    },
    {
      "inputs": [
        {
          "internalType": "address",
          "name": "_arbitratorManager",
          "type": "address"
        }
      ],
      "name": "setArbitratorManager",
      "outputs": [],
      "stateMutability": "nonpayable",
      "type": "function"
    },
    {
      "inputs": [
        {
          "internalType": "bytes32",
          "name": "id",
          "type": "bytes32"
        },
        {
          "internalType": "bytes",
          "name": "btcTxSignature",
          "type": "bytes"
        }
      ],
      "name": "submitArbitration",
      "outputs": [],
      "stateMutability": "nonpayable",
      "type": "function"
    },
    {
      "inputs": [
        {
          "internalType": "bytes32",
          "name": "",
          "type": "bytes32"
        }
      ],
      "name": "transactions",
      "outputs": [
        {
          "internalType": "address",
          "name": "dapp",
          "type": "address"
        },
        {
          "internalType": "address",
          "name": "arbitrator",
          "type": "address"
        },
        {
          "internalType": "uint256",
          "name": "startTime",
          "type": "uint256"
        },
        {
          "internalType": "uint256",
          "name": "deadline",
          "type": "uint256"
        },
        {
          "internalType": "bytes",
          "name": "btcTx",
          "type": "bytes"
        },
        {
          "internalType": "bytes32",
          "name": "btcTxHash",
          "type": "bytes32"
        },
        {
          "internalType": "enum DataTypes.TransactionStatus",
          "name": "status",
          "type": "uint8"
        },
        {
          "internalType": "uint256",
          "name": "depositedFee",
          "type": "uint256"
        },
        {
          "internalType": "bytes",
          "name": "signature",
          "type": "bytes"
        },
        {
          "internalType": "address",
          "name": "compensationReceiver",
          "type": "address"
        },
        {
          "internalType": "address",
          "name": "timeoutCompensationReceiver",
          "type": "address"
        },
        {
          "internalType": "bytes",
          "name": "script",
          "type": "bytes"
        },
        {
          "internalType": "uint256",
          "name": "requestArbitrationTime",
          "type": "uint256"
        }
      ],
      "stateMutability": "view",
      "type": "function"
    },
    {
      "inputs": [
        {
          "internalType": "bytes32",
          "name": "id",
          "type": "bytes32"
        }
      ],
      "name": "transferArbitrationFee",
      "outputs": [
        {
          "internalType": "uint256",
          "name": "arbitratorFee",
          "type": "uint256"
        },
        {
          "internalType": "uint256",
          "name": "systemFee",
          "type": "uint256"
        }
      ],
      "stateMutability": "nonpayable",
      "type": "function"
    },
    {
      "inputs": [
        {
          "internalType": "address",
          "name": "newOwner",
          "type": "address"
        }
      ],
      "name": "transferOwnership",
      "outputs": [],
      "stateMutability": "nonpayable",
      "type": "function"
    },
    {
      "inputs": [
        {
          "internalType": "bytes32",
          "name": "",
          "type": "bytes32"
        }
      ],
      "name": "txHashToId",
      "outputs": [
        {
          "internalType": "bytes32",
          "name": "",
          "type": "bytes32"
        }
      ],
      "stateMutability": "view",
      "type": "function"
    },
    {
      "inputs": [
        {
          "internalType": "bytes32",
          "name": "id",
          "type": "bytes32"
        },
        {
          "components": [
            {
              "internalType": "bytes32",
              "name": "txHash",
              "type": "bytes32"
            },
            {
              "internalType": "uint32",
              "name": "index",
              "type": "uint32"
            },
            {
              "internalType": "bytes",
              "name": "script",
              "type": "bytes"
            },
            {
              "internalType": "uint256",
              "name": "amount",
              "type": "uint256"
            }
          ],
          "internalType": "struct DataTypes.UTXO[]",
          "name": "utxos",
          "type": "tuple[]"
        }
      ],
      "name": "uploadUTXOs",
      "outputs": [],
      "stateMutability": "nonpayable",
      "type": "function"
    }
  ],
  "bytecode": "0x60806040523480156200001157600080fd5b506200001c62000022565b620000d6565b7ff0c57e16840df040f15088dc2f81fe391c3923bec73e23a9662efc9c229c6a00805468010000000000000000900460ff1615620000735760405163f92ee8a960e01b815260040160405180910390fd5b80546001600160401b0390811614620000d35780546001600160401b0319166001600160401b0390811782556040519081527fc7f505b2f371ae2175ee4913f4499e1f2633a7b5936321eed1cdaeb6115181d29060200160405180910390a15b50565b61574980620000e66000396000f3fe6080604052600436106101355760003560e01c8063870967ec116100ab578063c1ce47d21161006f578063c1ce47d2146103b7578063ca0ab075146103e4578063d09d03a314610404578063de0ca16614610424578063f2fde38b14610444578063f8c8765e1461046457600080fd5b8063870967ec146102fa5780638da5cb5b1461031a578063a130312a14610357578063a715719014610377578063a890b7b41461039757600080fd5b80634e4f0ec4116100fd5780634e4f0ec414610207578063520936b514610227578063642f2eaf14610257578063715018a6146102905780637577b6df146102a5578063759787c4146102da57600080fd5b80630559b8771461013a5780630f6f9a1e146101775780631613f25b146101995780632c7e8ca3146101ba5780634aae13ca146101da575b600080fd5b34801561014657600080fd5b5060065461015a906001600160a01b031681565b6040516001600160a01b0390911681526020015b60405180910390f35b34801561018357600080fd5b506101976101923660046149ba565b610484565b005b6101ac6101a7366004614a4d565b61063b565b60405190815260200161016e565b3480156101c657600080fd5b506101976101d5366004614a8f565b610cae565b3480156101e657600080fd5b506101fa6101f5366004614aac565b610cfe565b60405161016e9190614bd7565b34801561021357600080fd5b50610197610222366004614d57565b6110b4565b34801561023357600080fd5b50610247610242366004614aac565b61169a565b604051901515815260200161016e565b34801561026357600080fd5b50610277610272366004614aac565b611ac7565b60405161016e9d9c9b9a99989796959493929190614da2565b34801561029c57600080fd5b50610197611ce8565b3480156102b157600080fd5b506102c56102c0366004614aac565b611cfc565b6040805192835260208301919091520161016e565b3480156102e657600080fd5b5060005461015a906001600160a01b031681565b34801561030657600080fd5b50610197610315366004614e57565b611e61565b34801561032657600080fd5b507f9016d09d72d40fdae2fd8ceac6b6234c7706214fd39c1cd1e609a0528c199300546001600160a01b031661015a565b34801561036357600080fd5b50610197610372366004614aac565b612382565b34801561038357600080fd5b506101ac610392366004614efc565b612476565b3480156103a357600080fd5b506101fa6103b2366004614aac565b61274b565b3480156103c357600080fd5b506101ac6103d2366004614aac565b60046020526000908152604090205481565b3480156103f057600080fd5b5060025461015a906001600160a01b031681565b34801561041057600080fd5b5061019761041f366004614efc565b612a4c565b34801561043057600080fd5b5060015461015a906001600160a01b031681565b34801561045057600080fd5b5061019761045f366004614a8f565b612c6e565b34801561047057600080fd5b5061019761047f366004614f2c565b612cac565b600181146104c5576040805180820182526002815261055360f41b6020820152905162461bcd60e51b81526104bc9190600401614f88565b60405180910390fd5b600083815260036020526040812090600682015460ff1660058111156104ed576104ed614b15565b146105225760408051808201825260028152612a1960f11b6020820152905162461bcd60e51b81526104bc9190600401614f88565b80546001600160a01b0316331461056357604080518082018252600281526104e360f41b6020820152905162461bcd60e51b81526104bc9190600401614f88565b600b8101541561059d5760408051808201825260028152612a9960f11b6020820152905162461bcd60e51b81526104bc9190600401614f88565b60005b828110156106075781600b018484838181106105be576105be614f9b565b90506020028101906105d09190614fb1565b8154600181018355600092835260209092209091600402016105f28282615130565b505080806105ff906151d7565b9150506105a0565b50604051339085907fbe870ee46d1946169135a006725f4beb7bf05701d38e45b8d0e55892fabff1d990600090a350505050565b6000610645612e85565b6001600160a01b038416158061066257506001600160a01b038216155b1561069757604080518082018252600281526105a360f41b6020820152905162461bcd60e51b81526104bc9190600401614f88565b60015460405163682dc82b60e11b81523360048201526001600160a01b039091169063d05b905690602401602060405180830381865afa1580156106df573d6000803e3d6000fd5b505050506040513d601f19601f820116820180604052508101906107039190615205565b610737576040805180820182526002815261221960f11b6020820152905162461bcd60e51b81526104bc9190600401614f88565b600054604051631c569df760e31b81526001600160a01b0386811660048301529091169063e2b4efb890602401602060405180830381865afa158015610781573d6000803e3d6000fd5b505050506040513d601f19601f820116820180604052508101906107a59190615205565b6107d9576040805180820182526002815261413360f01b6020820152905162461bcd60e51b81526104bc9190600401614f88565b428311610810576040805180820182526002815261543360f01b6020820152905162461bcd60e51b81526104bc9190600401614f88565b600061081c4285615220565b60025460408051631c8c542360e11b815290519293506001600160a01b0390911691636dd5b69d918391633918a846916004808201926020929091908290030181865afa158015610871573d6000803e3d6000fd5b505050506040513d601f19601f820116820180604052508101906108959190615233565b6040518263ffffffff1660e01b81526004016108b391815260200190565b602060405180830381865afa1580156108d0573d6000803e3d6000fd5b505050506040513d601f19601f820116820180604052508101906108f49190615233565b8110806109d45750600254604080516358d0b14760e01b815290516001600160a01b0390921691636dd5b69d9183916358d0b147916004808201926020929091908290030181865afa15801561094e573d6000803e3d6000fd5b505050506040513d601f19601f820116820180604052508101906109729190615233565b6040518263ffffffff1660e01b815260040161099091815260200190565b602060405180830381865afa1580156109ad573d6000803e3d6000fd5b505050506040513d601f19601f820116820180604052508101906109d19190615233565b81115b15610a09576040805180820182526002815261493160f01b6020820152905162461bcd60e51b81526104bc9190600401614f88565b604051630a71571960e41b8152600481018590526001600160a01b0386166024820152600090309063a715719090604401602060405180830381865afa158015610a57573d6000803e3d6000fd5b505050506040513d601f19601f82011682018060405250810190610a7b9190615233565b905080600003610ab5576040805180820182526002815261150d60f21b6020820152905162461bcd60e51b81526104bc9190600401614f88565b80341015610aed576040805180820182526002815261543560f01b6020820152905162461bcd60e51b81526104bc9190600401614f88565b600042338860056000815480929190610b05906151d7565b909155506040805160208101959095526bffffffffffffffffffffffff19606094851b8116918601919091529190921b166054830152606882015260880160408051808303601f190181529082905280516020909101206000546315969bed60e11b83526001600160a01b038a81166004850152602484018390529193501690632b2d37da90604401600060405180830381600087803b158015610ba857600080fd5b505af1158015610bbc573d6000803e3d6000fd5b505050600082815260036020819052604082208054336001600160a01b0319918216178255600180830180549092166001600160a01b038e16179091554260028301559181018a90556006810180549194509160ff199091169083021790555034600782018190556009820180546001600160a01b0319166001600160a01b03898116918217909255604080518b81526020810194909452830152891690339084907feb31e9cc08e6aec1724c65bd618ab8709af006b0972f1a04bba0fe0b0192142e9060600160405180910390a45092505050610ca760016000805160206156f483398151915255565b9392505050565b610cb6612ed1565b600080546001600160a01b0319166001600160a01b038316908117825560405190917fa323f9f93bbee02edb5e1034969f6ef41fb674527d2ea7e9271ad206435b58f491a250565b610d0661493a565b600082815260046020818152604080842054845260038083529381902081516101c08101835281546001600160a01b039081168252600183015416938101939093526002810154918301919091529283015460608201529082018054919291608084019190610d7490614fe7565b80601f0160208091040260200160405190810160405280929190818152602001828054610da090614fe7565b8015610ded5780601f10610dc257610100808354040283529160200191610ded565b820191906000526020600020905b815481529060010190602001808311610dd057829003601f168201915b50505091835250506005828101546020830152600683015460409092019160ff1690811115610e1e57610e1e614b15565b6005811115610e2f57610e2f614b15565b815260200160078201548152602001600882018054610e4d90614fe7565b80601f0160208091040260200160405190810160405280929190818152602001828054610e7990614fe7565b8015610ec65780601f10610e9b57610100808354040283529160200191610ec6565b820191906000526020600020905b815481529060010190602001808311610ea957829003601f168201915b505050918352505060098201546001600160a01b03908116602080840191909152600a840154909116604080840191909152600b84018054825181850281018501909352808352606090940193919290919060009084015b82821015611009576000848152602090819020604080516080810182526004860290920180548352600181015463ffffffff169383019390935260028301805492939291840191610f6e90614fe7565b80601f0160208091040260200160405190810160405280929190818152602001828054610f9a90614fe7565b8015610fe75780601f10610fbc57610100808354040283529160200191610fe7565b820191906000526020600020905b815481529060010190602001808311610fca57829003601f168201915b5050505050815260200160038201548152505081526020019060010190610f1e565b505050508152602001600c8201805461102190614fe7565b80601f016020809104026020016040519081016040528092919081815260200182805461104d90614fe7565b801561109a5780601f1061106f5761010080835404028352916020019161109a565b820191906000526020600020905b81548152906001019060200180831161107d57829003601f168201915b50505050508152602001600d820154815250509050919050565b60008381526003602052604090206002600682015460ff1660058111156110dd576110dd614b15565b146111125760408051808201825260028152612a1960f11b6020820152905162461bcd60e51b81526104bc9190600401614f88565b604080516101c08101825282546001600160a01b0390811682526001840154166020820152600283015491810191909152600382015460608201526004820180546114a79291849160808401919061116990614fe7565b80601f016020809104026020016040519081016040528092919081815260200182805461119590614fe7565b80156111e25780601f106111b7576101008083540402835291602001916111e2565b820191906000526020600020905b8154815290600101906020018083116111c557829003601f168201915b50505091835250506005828101546020830152600683015460409092019160ff169081111561121357611213614b15565b600581111561122457611224614b15565b81526020016007820154815260200160088201805461124290614fe7565b80601f016020809104026020016040519081016040528092919081815260200182805461126e90614fe7565b80156112bb5780601f10611290576101008083540402835291602001916112bb565b820191906000526020600020905b81548152906001019060200180831161129e57829003601f168201915b505050918352505060098201546001600160a01b03908116602080840191909152600a840154909116604080840191909152600b84018054825181850281018501909352808352606090940193919290919060009084015b828210156113fe576000848152602090819020604080516080810182526004860290920180548352600181015463ffffffff16938301939093526002830180549293929184019161136390614fe7565b80601f016020809104026020016040519081016040528092919081815260200182805461138f90614fe7565b80156113dc5780601f106113b1576101008083540402835291602001916113dc565b820191906000526020600020905b8154815290600101906020018083116113bf57829003601f168201915b5050505050815260200160038201548152505081526020019060010190611313565b505050508152602001600c8201805461141690614fe7565b80601f016020809104026020016040519081016040528092919081815260200182805461144290614fe7565b801561148f5780601f106114645761010080835404028352916020019161148f565b820191906000526020600020905b81548152906001019060200180831161147257829003601f168201915b50505050508152602001600d82015481525050612f2c565b156114dc576040805180820182526002815261543960f01b6020820152905162461bcd60e51b81526104bc9190600401614f88565b6000546001820154604051630e70978b60e21b81526001600160a01b0391821660048201523360248201529116906339c25e2c90604401602060405180830381865afa158015611530573d6000803e3d6000fd5b505050506040513d601f19601f820116820180604052508101906115549190615205565b61158857604080518082018252600281526104e360f41b6020820152905162461bcd60e51b81526104bc9190600401614f88565b6115928383612fcc565b6115c6576040805180820182526002815261553960f01b6020820152905162461bcd60e51b81526104bc9190600401614f88565b60068101805460ff19166005179055600881016115e4838583615070565b50600054600182015460405163069fa0a760e51b81526001600160a01b03918216600482015291169063d3f414e090602401600060405180830381600087803b15801561163057600080fd5b505af1158015611644573d6000803e3d6000fd5b505082546040513393506001600160a01b03909116915086907fc3087094b1ca79d1b0196cfe915c3153df5266eba37502790ddfc1e3532d35599061168c9088908890615275565b60405180910390a450505050565b600081815260036020818152604080842081516101c08101835281546001600160a01b0390811682526001830154169381019390935260028101549183019190915291820154606082015260048201805484939160808401916116fc90614fe7565b80601f016020809104026020016040519081016040528092919081815260200182805461172890614fe7565b80156117755780601f1061174a57610100808354040283529160200191611775565b820191906000526020600020905b81548152906001019060200180831161175857829003601f168201915b50505091835250506005828101546020830152600683015460409092019160ff16908111156117a6576117a6614b15565b60058111156117b7576117b7614b15565b8152602001600782015481526020016008820180546117d590614fe7565b80601f016020809104026020016040519081016040528092919081815260200182805461180190614fe7565b801561184e5780601f106118235761010080835404028352916020019161184e565b820191906000526020600020905b81548152906001019060200180831161183157829003601f168201915b505050918352505060098201546001600160a01b03908116602080840191909152600a840154909116604080840191909152600b84018054825181850281018501909352808352606090940193919290919060009084015b82821015611991576000848152602090819020604080516080810182526004860290920180548352600181015463ffffffff1693830193909352600283018054929392918401916118f690614fe7565b80601f016020809104026020016040519081016040528092919081815260200182805461192290614fe7565b801561196f5780601f106119445761010080835404028352916020019161196f565b820191906000526020600020905b81548152906001019060200180831161195257829003601f168201915b50505050508152602001600382015481525050815260200190600101906118a6565b505050508152602001600c820180546119a990614fe7565b80601f01602080910402602001604051908101604052809291908181526020018280546119d590614fe7565b8015611a225780601f106119f757610100808354040283529160200191611a22565b820191906000526020600020905b815481529060010190602001808311611a0557829003601f168201915b5050509183525050600d9190910154602090910152905060008160c001516005811115611a5157611a51614b15565b03611a5f5750600192915050565b60028160c001516005811115611a7757611a77614b15565b03611a9857611a8581612f2c565b15611a935750600192915050565b611abe565b60058160c001516005811115611ab057611ab0614b15565b03611abe5750600192915050565b50600092915050565b6003602081905260009182526040909120805460018201546002830154938301546004840180546001600160a01b039485169694909316949192611b0a90614fe7565b80601f0160208091040260200160405190810160405280929190818152602001828054611b3690614fe7565b8015611b835780601f10611b5857610100808354040283529160200191611b83565b820191906000526020600020905b815481529060010190602001808311611b6657829003601f168201915b5050506005840154600685015460078601546008870180549697939660ff909316955090935090611bb390614fe7565b80601f0160208091040260200160405190810160405280929190818152602001828054611bdf90614fe7565b8015611c2c5780601f10611c0157610100808354040283529160200191611c2c565b820191906000526020600020905b815481529060010190602001808311611c0f57829003601f168201915b5050506009840154600a850154600c8601805495966001600160a01b0393841696929093169450919250611c5f90614fe7565b80601f0160208091040260200160405190810160405280929190818152602001828054611c8b90614fe7565b8015611cd85780601f10611cad57610100808354040283529160200191611cd8565b820191906000526020600020905b815481529060010190602001808311611cbb57829003601f168201915b50505050509080600d015490508d565b611cf0612ed1565b611cfa60006132e2565b565b60065460009081906001600160a01b03163314611d435760408051808201825260028152614e3760f01b6020820152905162461bcd60e51b81526104bc9190600401614f88565b600083815260036020526040812090600682015460ff166005811115611d6b57611d6b614b15565b148015611d7b5750806003015442115b80611e1857506005600682015460ff166005811115611d9c57611d9c614b15565b148015611e1857506000546001820154604051632911125160e01b81526001600160a01b039182166004820152911690632911125190602401602060405180830381865afa158015611df2573d6000803e3d6000fd5b505050506040513d601f19601f82011682018060405250810190611e169190615205565b155b15611e3157611e278482613353565b9250925050915091565b60408051808201825260028152612a1960f11b6020820152905162461bcd60e51b81526104bc9190600401614f88565b611e69612e85565b6001600160a01b038116611ea757604080518082018252600281526105a360f41b6020820152905162461bcd60e51b81526104bc9190600401614f88565b600087815260036020526040812090600682015460ff166005811115611ecf57611ecf614b15565b14611f045760408051808201825260028152612a1960f11b6020820152905162461bcd60e51b81526104bc9190600401614f88565b80546001600160a01b03163314611f4557604080518082018252600281526104e360f41b6020820152905162461bcd60e51b81526104bc9190600401614f88565b600b810154600003611f81576040805180820182526002815261553360f01b6020820152905162461bcd60e51b81526104bc9190600401614f88565b8060030154600260009054906101000a90046001600160a01b03166001600160a01b0316632b6f600d6040518163ffffffff1660e01b8152600401602060405180830381865afa158015611fd9573d6000803e3d6000fd5b505050506040513d601f19601f82011682018060405250810190611ffd9190615233565b6120079042615291565b111561203d576040805180820182526002815261553760f01b6020820152905162461bcd60e51b81526104bc9190600401614f88565b600185600281111561205157612051614b15565b146120865760408051808201825260028152610aa760f31b6020820152905162461bcd60e51b81526104bc9190600401614f88565b600061209288886137b5565b600b830154602082015151919250146120d5576040805180820182526002815261553160f01b6020820152905162461bcd60e51b81526104bc9190600401614f88565b60005b8160200151518110156121db5782600b0181815481106120fa576120fa614f9b565b9060005260206000209060040201600001548260200151828151811061212257612122614f9b565b602002602001015160000151141580612194575082600b01818154811061214b5761214b614f9b565b60009182526020918290206001600490920201015490830151805163ffffffff909216918390811061217f5761217f614f9b565b60200260200101516020015163ffffffff1614155b156121c9576040805180820182526002815261553160f01b6020820152905162461bcd60e51b81526104bc9190600401614f88565b806121d3816151d7565b9150506120d8565b5060006002808a8a6040516121f19291906152a4565b602060405180830381855afa15801561220e573d6000803e3d6000fd5b5050506040513d601f19601f820116820180604052508101906122319190615233565b60405160200161224391815260200190565b60408051601f198184030181529082905261225d916152b4565b602060405180830381855afa15801561227a573d6000803e3d6000fd5b5050506040513d601f19601f8201168201806040525081019061229d9190615233565b60068401805460ff191660021790559050600483016122bd898b83615070565b5060058301819055600a830180546001600160a01b0319166001600160a01b038616179055600c83016122f1868883615070565b5042600d840155600081815260046020526040908190208b90556001840154905133918c917f81c89bbce5115bf315ea29f7001ebabb88f6d3e4d76132bf792f2085799ed0e491612357916001600160a01b03909116908e908e908d908d908d906152c6565b60405180910390a350505061237960016000805160206156f483398151915255565b50505050505050565b60008181526003602052604090819020905163520936b560e01b815260048101839052309063520936b590602401602060405180830381865afa1580156123cd573d6000803e3d6000fd5b505050506040513d601f19601f820116820180604052508101906123f19190615205565b6124255760408051808201825260028152610a8760f31b6020820152905162461bcd60e51b81526104bc9190600401614f88565b80546001600160a01b0316331461246657604080518082018252600281526104e360f41b6020820152905162461bcd60e51b81526104bc9190600401614f88565b6124708282613353565b50505050565b600080428411612487576000612491565b6124914285615220565b60025460408051631c8c542360e11b815290519293506001600160a01b0390911691636dd5b69d918391633918a846916004808201926020929091908290030181865afa1580156124e6573d6000803e3d6000fd5b505050506040513d601f19601f8201168201806040525081019061250a9190615233565b6040518263ffffffff1660e01b815260040161252891815260200190565b602060405180830381865afa158015612545573d6000803e3d6000fd5b505050506040513d601f19601f820116820180604052508101906125699190615233565b8110806126495750600254604080516358d0b14760e01b815290516001600160a01b0390921691636dd5b69d9183916358d0b147916004808201926020929091908290030181865afa1580156125c3573d6000803e3d6000fd5b505050506040513d601f19601f820116820180604052508101906125e79190615233565b6040518263ffffffff1660e01b815260040161260591815260200190565b602060405180830381865afa158015612622573d6000803e3d6000fd5b505050506040513d601f19601f820116820180604052508101906126469190615233565b81115b1561267e576040805180820182526002815261493160f01b6020820152905162461bcd60e51b81526104bc9190600401614f88565b6001600160a01b0383166126bc57604080518082018252600281526105a360f41b6020820152905162461bcd60e51b81526104bc9190600401614f88565b600080546040516326415b0f60e21b81526001600160a01b038681166004830152909116906399056c3c90602401600060405180830381865afa158015612707573d6000803e3d6000fd5b505050506040513d6000823e601f3d908101601f1916820160405261272f9190810190615459565b905061274084826040015184613dd4565b925050505b92915050565b61275361493a565b60008281526003602081815260409283902083516101c08101855281546001600160a01b039081168252600183015416928101929092526002810154938201939093529082015460608201526004820180549192916080840191906127b790614fe7565b80601f01602080910402602001604051908101604052809291908181526020018280546127e390614fe7565b80156128305780601f1061280557610100808354040283529160200191612830565b820191906000526020600020905b81548152906001019060200180831161281357829003601f168201915b50505091835250506005828101546020830152600683015460409092019160ff169081111561286157612861614b15565b600581111561287257612872614b15565b81526020016007820154815260200160088201805461289090614fe7565b80601f01602080910402602001604051908101604052809291908181526020018280546128bc90614fe7565b80156129095780601f106128de57610100808354040283529160200191612909565b820191906000526020600020905b8154815290600101906020018083116128ec57829003601f168201915b505050918352505060098201546001600160a01b03908116602080840191909152600a840154909116604080840191909152600b84018054825181850281018501909352808352606090940193919290919060009084015b82821015611009576000848152602090819020604080516080810182526004860290920180548352600181015463ffffffff1693830193909352600283018054929392918401916129b190614fe7565b80601f01602080910402602001604051908101604052809291908181526020018280546129dd90614fe7565b8015612a2a5780601f106129ff57610100808354040283529160200191612a2a565b820191906000526020600020905b815481529060010190602001808311612a0d57829003601f168201915b5050505050815260200160038201548152505081526020019060010190612961565b6006546001600160a01b03163314612a8e5760408051808201825260028152614e3760f01b6020820152905162461bcd60e51b81526104bc9190600401614f88565b60008281526003602052604090206001600682015460ff166005811115612ab757612ab7614b15565b03612aec5760408051808201825260028152612a1960f11b6020820152905162461bcd60e51b81526104bc9190600401614f88565b6001600160a01b038216612b2a57604080518082018252600281526105a360f41b6020820152905162461bcd60e51b81526104bc9190600401614f88565b60068101805460ff1916600117905560078101546040516000916001600160a01b038516918381818185875af1925050503d8060008114612b87576040519150601f19603f3d011682016040523d82523d6000602084013e612b8c565b606091505b5050905080612bc5576040805180820182526002815261463160f01b6020820152905162461bcd60e51b81526104bc9190600401614f88565b600054600183015460405163cedb588b60e01b81526001600160a01b0391821660048201526024810187905291169063cedb588b90604401600060405180830381600087803b158015612c1757600080fd5b505af1158015612c2b573d6000803e3d6000fd5b505083546040516001600160a01b0390911692508691507f15d1e788ed875e6f2294a51087aa5cd2e2c10c92e627eb0a6bbbfceceaa01b9890600090a350505050565b612c76612ed1565b6001600160a01b038116612ca057604051631e4fbdf760e01b8152600060048201526024016104bc565b612ca9816132e2565b50565b7ff0c57e16840df040f15088dc2f81fe391c3923bec73e23a9662efc9c229c6a008054600160401b810460ff1615906001600160401b0316600081158015612cf15750825b90506000826001600160401b03166001148015612d0d5750303b155b905081158015612d1b575080155b15612d395760405163f92ee8a960e01b815260040160405180910390fd5b845467ffffffffffffffff191660011785558315612d6357845460ff60401b1916600160401b1785555b612d6b613e7d565b612d7433613e8d565b6001600160a01b0389161580612d9157506001600160a01b038816155b80612da357506001600160a01b038716155b80612db557506001600160a01b038616155b15612dea57604080518082018252600281526105a360f41b6020820152905162461bcd60e51b81526104bc9190600401614f88565b600080546001600160a01b03808c166001600160a01b031992831617909255600180548b8416908316179055600280548a841690831617905560068054928916929091169190911790558315612e7a57845460ff60401b19168555604051600181527fc7f505b2f371ae2175ee4913f4499e1f2633a7b5936321eed1cdaeb6115181d29060200160405180910390a15b505050505050505050565b6000805160206156f4833981519152805460011901612eb757604051633ee5aeb560e01b815260040160405180910390fd5b60029055565b60016000805160206156f483398151915255565b33612f037f9016d09d72d40fdae2fd8ceac6b6234c7706214fd39c1cd1e609a0528c199300546001600160a01b031690565b6001600160a01b031614611cfa5760405163118cdaa760e01b81523360048201526024016104bc565b60008160600151421115612f4257506001919050565b60025460408051632b6f600d60e01b815290516000926001600160a01b031691632b6f600d9160048083019260209291908290030181865afa158015612f8c573d6000803e3d6000fd5b505050506040513d601f19601f82011682018060405250810190612fb09190615233565b905080836101a00151612fc39190615291565b42119392505050565b60006008821015612fdf57506000612745565b82826000818110612ff257612ff2614f9b565b9091013560f81c603014905061300a57506000612745565b60008383600181811061301f5761301f614f9b565b919091013560f81c9150839050613037826002615291565b14613046576000915050612745565b600284848281811061305a5761305a614f9b565b9091013560f81c600214905061307557600092505050612745565b60008585613084846001615291565b81811061309357613093614f9b565b919091013560f81c91505060008190036130b35760009350505050612745565b60218111806130d7575084816130ca846002615291565b6130d49190615291565b10155b156130e85760009350505050612745565b60018111801561311b57508585613100846002615291565b81811061310f5761310f614f9b565b919091013560f81c1590505b8015613152575060808686613131856003615291565b81811061314057613140614f9b565b9050013560f81c60f81b60f81c60ff16105b156131635760009350505050612745565b600081613171846002615291565b61317b9190615291565b905086868281811061318f5761318f614f9b565b9091013560f81c60021490506131ac576000945050505050612745565b600087876131bb846001615291565b8181106131ca576131ca614f9b565b919091013560f81c91505060008190036131ec57600095505050505050612745565b602181118061320f57508681613203846002615291565b61320d9190615291565b115b1561322257600095505050505050612745565b6001811180156132555750878761323a846002615291565b81811061324957613249614f9b565b919091013560f81c1590505b801561328c57506080888861326b856003615291565b81811061327a5761327a614f9b565b9050013560f81c60f81b60f81c60ff16105b1561329f57600095505050505050612745565b806132ab846002615291565b6132b6906002615291565b6132c09190615291565b85146132d457600095505050505050612745565b506001979650505050505050565b7f9016d09d72d40fdae2fd8ceac6b6234c7706214fd39c1cd1e609a0528c19930080546001600160a01b031981166001600160a01b03848116918217845560405192169182907f8be0079c531659141344cd1fd0a4f28419497f9722a3daafe3b4186f6b6457e090600090a3505050565b604080516101c08101825282546001600160a01b0390811682526001840154166020820152600283015491810191909152600382015460608201526004820180546000928392839283926136f1929091889160808401916133b390614fe7565b80601f01602080910402602001604051908101604052809291908181526020018280546133df90614fe7565b801561342c5780601f106134015761010080835404028352916020019161342c565b820191906000526020600020905b81548152906001019060200180831161340f57829003601f168201915b50505091835250506005828101546020830152600683015460409092019160ff169081111561345d5761345d614b15565b600581111561346e5761346e614b15565b81526020016007820154815260200160088201805461348c90614fe7565b80601f01602080910402602001604051908101604052809291908181526020018280546134b890614fe7565b80156135055780601f106134da57610100808354040283529160200191613505565b820191906000526020600020905b8154815290600101906020018083116134e857829003601f168201915b505050918352505060098201546001600160a01b03908116602080840191909152600a840154909116604080840191909152600b84018054825181850281018501909352808352606090940193919290919060009084015b82821015613648576000848152602090819020604080516080810182526004860290920180548352600181015463ffffffff1693830193909352600283018054929392918401916135ad90614fe7565b80601f01602080910402602001604051908101604052809291908181526020018280546135d990614fe7565b80156136265780601f106135fb57610100808354040283529160200191613626565b820191906000526020600020905b81548152906001019060200180831161360957829003601f168201915b505050505081526020016003820154815250508152602001906001019061355d565b505050508152602001600c8201805461366090614fe7565b80601f016020809104026020016040519081016040528092919081815260200182805461368c90614fe7565b80156136d95780601f106136ae576101008083540402835291602001916136d9565b820191906000526020600020905b8154815290600101906020018083116136bc57829003601f168201915b50505050508152602001600d82015481525050613e9e565b600054600188015460405163cedb588b60e01b81526001600160a01b039182166004820152602481018b9052939550919350169063cedb588b90604401600060405180830381600087803b15801561374857600080fd5b505af115801561375c573d6000803e3d6000fd5b5050505060068501805460ff1916600117905584546040516001600160a01b039091169087907f15d1e788ed875e6f2294a51087aa5cd2e2c10c92e627eb0a6bbbfceceaa01b9890600090a390925090505b9250929050565b6040805160a0810182526000808252606060208301819052928201839052918101829052608081018290529082806137ee600484615291565b1115613824576040805180820182526002815261543760f01b6020820152905162461bcd60e51b81526104bc9190600401614f88565b61386585858080601f0160208091040260200160405190810160405280939291908181526020018383808284376000920191909152508692506142c9915050565b63ffffffff168352613878600483615291565b915080613886836020615291565b11156138bc576040805180820182526002815261543760f01b6020820152905162461bcd60e51b81526104bc9190600401614f88565b6138c7602083615291565b9150806138d5836020615291565b111561390b576040805180820182526002815261543760f01b6020820152905162461bcd60e51b81526104bc9190600401614f88565b613916602083615291565b604080516001808252818301909252919350816020015b6040805160808101825260008082526020808301829052606093830184905292820152825260001990920191018161392d579050508360200181905250808260206139789190615291565b11156139ae576040805180820182526002815261543760f01b6020820152905162461bcd60e51b81526104bc9190600401614f88565b6139da8583866139bf826020615291565b926139cc93929190615601565b6139d59161562b565b6143b2565b83602001516000815181106139f1576139f1614f9b565b60200260200101516000018181525050602082613a0e9190615291565b915080613a1c836004615291565b1115613a52576040805180820182526002815261543760f01b6020820152905162461bcd60e51b81526104bc9190600401614f88565b613a9385858080601f0160208091040260200160405190810160405280939291908181526020018383808284376000920191909152508692506142c9915050565b8360200151600081518110613aaa57613aaa614f9b565b60209081029190910181015163ffffffff909216910152613acc600483615291565b9150600080613adc878786614447565b9092509050613aeb8185615291565b935082613af88386615291565b1115613b2e576040805180820182526002815261543760f01b6020820152905162461bcd60e51b81526104bc9190600401614f88565b868487613b3b8583615291565b92613b4893929190615601565b8080601f016020809104026020016040519081016040528093929190818152602001838380828437600092018290525060208a0151805190945090925015159050613b9557613b95614f9b565b602090810291909101015160400152613bae8285615291565b935082613bbc856008615291565b1115613bf2576040805180820182526002815261543760f01b6020820152905162461bcd60e51b81526104bc9190600401614f88565b613bfd600885615291565b935082613c0b856004615291565b1115613c41576040805180820182526002815261543760f01b6020820152905162461bcd60e51b81526104bc9190600401614f88565b613c8287878080601f0160208091040260200160405190810160405280939291908181526020018383808284376000920191909152508892506142c9915050565b8560200151600081518110613c9957613c99614f9b565b602090810291909101015163ffffffff909116606090910152613cbd600485615291565b935082613ccb856020615291565b1115613d01576040805180820182526002815261543760f01b6020820152905162461bcd60e51b81526104bc9190600401614f88565b613d0c602085615291565b935082613d1a856004615291565b1115613d50576040805180820182526002815261543760f01b6020820152905162461bcd60e51b81526104bc9190600401614f88565b868487613d5e826004615291565b92613d6b93929190615601565b613d7491615649565b60e01c6060860152613d87600485615291565b935082613d95856004615291565b14613dca576040805180820182526002815261543760f01b6020820152905162461bcd60e51b81526104bc9190600401614f88565b5050505092915050565b6000805460405163014f6b1960e41b81526001600160a01b038681166004830152839216906314f6b19090602401602060405180830381865afa158015613e1f573d6000803e3d6000fd5b505050506040513d601f19601f82011682018060405250810190613e439190615233565b9050613e556127106301e13380615679565b84613e608584615679565b613e6a9190615679565b613e749190615690565b95945050505050565b613e856146bb565b611cfa614704565b613e956146bb565b612ca98161470c565b6000805460208301516040516326415b0f60e21b81526001600160a01b0391821660048201528392839216906399056c3c90602401600060405180830381865afa158015613ef0573d6000803e3d6000fd5b505050506040513d6000823e601f3d908101601f19168201604052613f189190810190615459565b9050600084606001514211613f3b576040850151613f369042615220565b613f4f565b84604001518560600151613f4f9190615220565b90506000613f668660200151846040015184613dd4565b90508560e00151811115613f7b575060e08501515b6002546040805163286e9cd160e21b81529051600092612710926001600160a01b0390911691636dd5b69d91839163a1ba7344916004808201926020929091908290030181865afa158015613fd4573d6000803e3d6000fd5b505050506040513d601f19601f82011682018060405250810190613ff89190615233565b6040518263ffffffff1660e01b815260040161401691815260200190565b602060405180830381865afa158015614033573d6000803e3d6000fd5b505050506040513d601f19601f820116820180604052508101906140579190615233565b6140619084615679565b61406b9190615690565b905060006140798284615220565b90506000600260009054906101000a90046001600160a01b03166001600160a01b0316638b6570a06040518163ffffffff1660e01b8152600401602060405180830381865afa1580156140d0573d6000803e3d6000fd5b505050506040513d601f19601f820116820180604052508101906140f491906156b2565b90506000816001600160a01b03168460405160006040518083038185875af1925050503d8060008114614143576040519150601f19603f3d011682016040523d82523d6000602084013e614148565b606091505b5050905080614181576040805180820182526002815261463160f01b6020820152905162461bcd60e51b81526104bc9190600401614f88565b6000876101c001516001600160a01b03168460405160006040518083038185875af1925050503d80600081146141d3576040519150601f19603f3d011682016040523d82523d6000602084013e6141d8565b606091505b5050905080614211576040805180820182526002815261463160f01b6020820152905162461bcd60e51b81526104bc9190600401614f88565b6000868c60e001516142239190615220565b905080156142b7578b516040516000916001600160a01b03169083908381818185875af1925050503d8060008114614277576040519150601f19603f3d011682016040523d82523d6000602084013e61427c565b606091505b50509050806142b5576040805180820182526002815261271b60f11b6020820152905162461bcd60e51b81526104bc9190600401614f88565b505b50929a93995092975050505050505050565b81516000906142d9836004615291565b111560405180604001604052806002815260200161553560f01b815250906143145760405162461bcd60e51b81526004016104bc9190614f88565b5082828151811061432757614327614f9b565b016020015160f81c60088461433d856001615291565b8151811061434d5761434d614f9b565b016020015160f81c901b601085614365866002615291565b8151811061437557614375614f9b565b016020015160f81c901b60188661438d876003615291565b8151811061439d5761439d614f9b565b016020015160f81c901b171717905092915050565b60408051602080825281830190925260009182919060208201818036833701905050905060005b602081101561443d57836143ee82601f615220565b602081106143fe576143fe614f9b565b1a60f81b82828151811061441457614414614f9b565b60200101906001600160f81b031916908160001a90535080614435816151d7565b9150506143d9565b50610ca7816156cf565b600080838310614481576040805180820182526002815261543760f01b6020820152905162461bcd60e51b81526104bc9190600401614f88565b600085858581811061449557614495614f9b565b919091013560f81c91505060fc8110156144b75760ff169150600190506146b3565b60fc1960ff82160161456257846144cf856003615291565b1115614505576040805180820182526002815261543760f01b6020820152905162461bcd60e51b81526104bc9190600401614f88565b61455186868080601f01602080910402602001604051908101604052809392919081815260200183838082843760009201919091525061454c925088915060019050615291565b614714565b61ffff169250600391506146b39050565b60fd1960ff82160161460f578461457a856005615291565b11156145b0576040805180820182526002815261543760f01b6020820152905162461bcd60e51b81526104bc9190600401614f88565b6145fc86868080601f0160208091040260200160405190810160405280939291908181526020018383808284376000920191909152506145f7925088915060019050615291565b6142c9565b63ffffffff169250600591506146b39050565b8461461b856009615291565b1115614651576040805180820182526002815261543760f01b6020820152905162461bcd60e51b81526104bc9190600401614f88565b61469d86868080601f016020809104026020016040519081016040528093929190818152602001838380828437600092019190915250614698925088915060019050615291565b6147ab565b6001600160401b03169250600991506146b39050565b935093915050565b7ff0c57e16840df040f15088dc2f81fe391c3923bec73e23a9662efc9c229c6a0054600160401b900460ff16611cfa57604051631afcd79f60e31b815260040160405180910390fd5b612ebd6146bb565b612c766146bb565b8151600090614724836002615291565b111560405180604001604052806002815260200161154d60f21b8152509061475f5760405162461bcd60e51b81526004016104bc9190614f88565b5082828151811061477257614772614f9b565b016020015160f81c600884614788856001615291565b8151811061479857614798614f9b565b016020015160f81c901b17905092915050565b81516000906147bb836008615291565b1115604051806040016040528060028152602001612a9b60f11b815250906147f65760405162461bcd60e51b81526004016104bc9190614f88565b5082828151811061480957614809614f9b565b016020015160f81c60088461481f856001615291565b8151811061482f5761482f614f9b565b016020015160f81c901b601085614847866002615291565b8151811061485757614857614f9b565b016020015160f81c901b60188661486f876003615291565b8151811061487f5761487f614f9b565b0160209081015160f81c90911b9087614899886004615291565b815181106148a9576148a9614f9b565b016020015160f81c901b6028886148c1896005615291565b815181106148d1576148d1614f9b565b016020015160f81c901b6030896148e98a6006615291565b815181106148f9576148f9614f9b565b016020015160f81c901b60388a6149118b6007615291565b8151811061492157614921614f9b565b016020015160f81c901b17171717171717905092915050565b604080516101c0810182526000808252602082018190529181018290526060808201839052608082015260a081018290529060c08201908152602001600081526020016060815260200160006001600160a01b0316815260200160006001600160a01b031681526020016060815260200160608152602001600081525090565b6000806000604084860312156149cf57600080fd5b8335925060208401356001600160401b03808211156149ed57600080fd5b818601915086601f830112614a0157600080fd5b813581811115614a1057600080fd5b8760208260051b8501011115614a2557600080fd5b6020830194508093505050509250925092565b6001600160a01b0381168114612ca957600080fd5b600080600060608486031215614a6257600080fd5b8335614a6d81614a38565b9250602084013591506040840135614a8481614a38565b809150509250925092565b600060208284031215614aa157600080fd5b8135610ca781614a38565b600060208284031215614abe57600080fd5b5035919050565b60005b83811015614ae0578181015183820152602001614ac8565b50506000910152565b60008151808452614b01816020860160208601614ac5565b601f01601f19169290920160200192915050565b634e487b7160e01b600052602160045260246000fd5b60068110614b4957634e487b7160e01b600052602160045260246000fd5b9052565b600082825180855260208086019550808260051b84010181860160005b84811015614bca57601f19868403018952815160808151855263ffffffff8683015116868601526040808301518282880152614ba883880182614ae9565b6060948501519790940196909652505098840198925090830190600101614b6a565b5090979650505050505050565b60208152614bf16020820183516001600160a01b03169052565b60006020830151614c0d60408401826001600160a01b03169052565b50604083015160608301526060830151608083015260808301516101c08060a0850152614c3e6101e0850183614ae9565b915060a085015160c085015260c0850151614c5c60e0860182614b2b565b5060e0850151610100818187015280870151915050601f19610120818786030181880152614c8a8584614ae9565b945080880151925050610140614caa818801846001600160a01b03169052565b8701519150610160614cc6878201846001600160a01b03169052565b80880151925050610180818786030181880152614ce38584614b4d565b9450808801519250506101a0818786030181880152614d028584614ae9565b970151959092019490945250929392505050565b60008083601f840112614d2857600080fd5b5081356001600160401b03811115614d3f57600080fd5b6020830191508360208285010111156137ae57600080fd5b600080600060408486031215614d6c57600080fd5b8335925060208401356001600160401b03811115614d8957600080fd5b614d9586828701614d16565b9497909650939450505050565b6001600160a01b038e811682528d1660208201528b60408201528a60608201526101a060808201526000614dda6101a083018c614ae9565b8a60a0840152614ded60c084018b614b2b565b8860e0840152828103610100840152614e068189614ae9565b6001600160a01b03881661012085015290506001600160a01b038616610140840152828103610160840152614e3b8186614ae9565b915050826101808301529e9d5050505050505050505050505050565b600080600080600080600060a0888a031215614e7257600080fd5b8735965060208801356001600160401b0380821115614e9057600080fd5b614e9c8b838c01614d16565b909850965060408a0135915060038210614eb557600080fd5b90945060608901359080821115614ecb57600080fd5b50614ed88a828b01614d16565b9094509250506080880135614eec81614a38565b8091505092959891949750929550565b60008060408385031215614f0f57600080fd5b823591506020830135614f2181614a38565b809150509250929050565b60008060008060808587031215614f4257600080fd5b8435614f4d81614a38565b93506020850135614f5d81614a38565b92506040850135614f6d81614a38565b91506060850135614f7d81614a38565b939692955090935050565b602081526000610ca76020830184614ae9565b634e487b7160e01b600052603260045260246000fd5b60008235607e19833603018112614fc757600080fd5b9190910192915050565b634e487b7160e01b600052604160045260246000fd5b600181811c90821680614ffb57607f821691505b60208210810361501b57634e487b7160e01b600052602260045260246000fd5b50919050565b601f82111561506b57600081815260208120601f850160051c810160208610156150485750805b601f850160051c820191505b8181101561506757828155600101615054565b5050505b505050565b6001600160401b0383111561508757615087614fd1565b61509b836150958354614fe7565b83615021565b6000601f8411600181146150cf57600085156150b75750838201355b600019600387901b1c1916600186901b178355615129565b600083815260209020601f19861690835b8281101561510057868501358255602094850194600190920191016150e0565b508682101561511d5760001960f88860031b161c19848701351681555b505060018560011b0183555b5050505050565b8135815560018101602083013563ffffffff811680821461515057600080fd5b825463ffffffff19161790915550604082013536839003601e1901811261517657600080fd5b820180356001600160401b0381111561518e57600080fd5b6020820191508036038213156151a357600080fd5b6151b1818360028601615070565b5050606082013560038201555050565b634e487b7160e01b600052601160045260246000fd5b6000600182016151e9576151e96151c1565b5060010190565b8051801515811461520057600080fd5b919050565b60006020828403121561521757600080fd5b610ca7826151f0565b81810381811115612745576127456151c1565b60006020828403121561524557600080fd5b5051919050565b81835281816020850137506000828201602090810191909152601f909101601f19169091010190565b60208152600061528960208301848661524c565b949350505050565b80820180821115612745576127456151c1565b8183823760009101908152919050565b60008251614fc7818460208701614ac5565b600060018060a01b038089168352608060208401526152e960808401888a61524c565b83810360408501526152fc81878961524c565b925050808416606084015250979650505050505050565b60405161020081016001600160401b038111828210171561533657615336614fd1565b60405290565b604051601f8201601f191681016001600160401b038111828210171561536457615364614fd1565b604052919050565b805161520081614a38565b600082601f83011261538857600080fd5b815160206001600160401b038211156153a3576153a3614fd1565b8160051b6153b282820161533c565b92835284810182019282810190878511156153cc57600080fd5b83870192505b848310156153eb578251825291830191908301906153d2565b979650505050505050565b600082601f83011261540757600080fd5b81516001600160401b0381111561542057615420614fd1565b615433601f8201601f191660200161533c565b81815284602083860101111561544857600080fd5b615289826020830160208701614ac5565b60006020828403121561546b57600080fd5b81516001600160401b038082111561548257600080fd5b90830190610200828603121561549757600080fd5b61549f615313565b6154a88361536c565b81526154b6602084016151f0565b60208201526040830151604082015260608301516060820152608083015160808201526154e560a0840161536c565b60a08201526154f660c0840161536c565b60c082015260e08301518281111561550d57600080fd5b61551987828601615377565b60e08301525061010061552d81850161536c565b90820152610120838101518381111561554557600080fd5b615551888287016153f6565b828401525050610140808401518381111561556b57600080fd5b615577888287016153f6565b828401525050610160808401518183015250610180808401518381111561559d57600080fd5b6155a9888287016153f6565b8284015250506101a080840151838111156155c357600080fd5b6155cf888287016153f6565b8284015250506101c091506155e582840161536c565b918101919091526101e091820151918101919091529392505050565b6000808585111561561157600080fd5b8386111561561e57600080fd5b5050820193919092039150565b8035602083101561274557600019602084900360031b1b1692915050565b6001600160e01b031981358181169160048510156156715780818660040360031b1b83161692505b505092915050565b8082028115828204841417612745576127456151c1565b6000826156ad57634e487b7160e01b600052601260045260246000fd5b500490565b6000602082840312156156c457600080fd5b8151610ca781614a38565b8051602080830151919081101561501b5760001960209190910360031b1b1691905056fe9b779b17422d0df92223018b32b4d1fa46e071723d6817e2486d003becc55f00a2646970667358221220cfe782d32c6ed4896542fd10f7f7e6351af10eb489835145227660afec18f6f464736f6c63430008140033",
  "linkReferences": {},
  "deployedLinkReferences": {}
}