{
  "_format": "hh-sol-artifact-1",
  "contractName": "TransactionManager",
  "sourceName": "contracts/core/TransactionManager.sol",
  "abi": [
    {
      "inputs": [],
      "stateMutability": "nonpayable",
      "type": "constructor"
    },
    {
      "inputs": [],
      "name": "ARBITRATOR_FROZEN",
      "type": "error"
    },
    {
      "inputs": [],
      "name": "ARBITRATOR_NOT_ACTIVE",
      "type": "error"
    },
    {
      "inputs": [],
      "name": "CANNOT_COMPLETE_TRANSACTION",
      "type": "error"
    },
    {
      "inputs": [],
      "name": "DAPP_NOT_ACTIVE",
      "type": "error"
    },
    {
      "inputs": [],
      "name": "INSUFFICIENT_FEE",
      "type": "error"
    },
    {
      "inputs": [],
      "name": "INVALID_BTC_TX",
      "type": "error"
    },
    {
      "inputs": [],
      "name": "INVALID_DEADLINE",
      "type": "error"
    },
    {
      "inputs": [],
      "name": "INVALID_DURATION",
      "type": "error"
    },
    {
      "inputs": [],
      "name": "INVALID_FEE",
      "type": "error"
    },
    {
      "inputs": [],
      "name": "INVALID_TRANSACTION",
      "type": "error"
    },
    {
      "inputs": [],
      "name": "INVALID_TRANSACTION_STATUS",
      "type": "error"
    },
    {
      "inputs": [],
      "name": "INVALID_UTXO",
      "type": "error"
    },
    {
      "inputs": [],
      "name": "InvalidInitialization",
      "type": "error"
    },
    {
      "inputs": [],
      "name": "NOT_AUTHORIZED",
      "type": "error"
    },
    {
      "inputs": [],
      "name": "NOT_COMPENSATION_MANAGER",
      "type": "error"
    },
    {
      "inputs": [],
      "name": "NOT_INITIALIZED",
      "type": "error"
    },
    {
      "inputs": [],
      "name": "NO_RECEIVE_METHOD",
      "type": "error"
    },
    {
      "inputs": [],
      "name": "NotInitializing",
      "type": "error"
    },
    {
      "inputs": [
        {
          "internalType": "address",
          "name": "owner",
          "type": "address"
        }
      ],
      "name": "OwnableInvalidOwner",
      "type": "error"
    },
    {
      "inputs": [
        {
          "internalType": "address",
          "name": "account",
          "type": "address"
        }
      ],
      "name": "OwnableUnauthorizedAccount",
      "type": "error"
    },
    {
      "inputs": [],
      "name": "ReentrancyGuardReentrantCall",
      "type": "error"
    },
    {
      "inputs": [],
      "name": "SUBMITTED_SIGNATURES_OUTTIME",
      "type": "error"
    },
    {
      "inputs": [],
      "name": "TRANSACTION_NOT_FOUND",
      "type": "error"
    },
    {
      "inputs": [],
      "name": "TRANSFER_FAILED",
      "type": "error"
    },
    {
      "inputs": [],
      "name": "ZERO_ADDRESS",
      "type": "error"
    },
    {
      "anonymous": false,
      "inputs": [
        {
          "indexed": true,
          "internalType": "bytes32",
          "name": "txId",
          "type": "bytes32"
        },
        {
          "indexed": true,
          "internalType": "address",
          "name": "dapp",
          "type": "address"
        },
        {
          "indexed": false,
          "internalType": "address",
          "name": "arbitrator",
          "type": "address"
        },
        {
          "indexed": false,
          "internalType": "bytes",
          "name": "btcTx",
          "type": "bytes"
        },
        {
          "indexed": false,
          "internalType": "bytes",
          "name": "script",
          "type": "bytes"
        },
        {
          "indexed": false,
          "internalType": "address",
          "name": "timeoutCompensationReceiver",
          "type": "address"
        }
      ],
      "name": "ArbitrationRequested",
      "type": "event"
    },
    {
      "anonymous": false,
      "inputs": [
        {
          "indexed": true,
          "internalType": "bytes32",
          "name": "txId",
          "type": "bytes32"
        },
        {
          "indexed": true,
          "internalType": "address",
          "name": "dapp",
          "type": "address"
        },
        {
          "indexed": true,
          "internalType": "address",
          "name": "arbitrator",
          "type": "address"
        },
        {
          "indexed": false,
          "internalType": "bytes",
          "name": "btcTxSignature",
          "type": "bytes"
        }
      ],
      "name": "ArbitrationSubmitted",
      "type": "event"
    },
    {
      "anonymous": false,
      "inputs": [
        {
          "indexed": true,
          "internalType": "address",
          "name": "compensationManager",
          "type": "address"
        }
      ],
      "name": "CompensationManagerInitialized",
      "type": "event"
    },
    {
      "anonymous": false,
      "inputs": [
        {
          "indexed": false,
          "internalType": "uint64",
          "name": "version",
          "type": "uint64"
        }
      ],
      "name": "Initialized",
      "type": "event"
    },
    {
      "anonymous": false,
      "inputs": [
        {
          "indexed": true,
          "internalType": "address",
          "name": "previousOwner",
          "type": "address"
        },
        {
          "indexed": true,
          "internalType": "address",
          "name": "newOwner",
          "type": "address"
        }
      ],
      "name": "OwnershipTransferred",
      "type": "event"
    },
    {
      "anonymous": false,
      "inputs": [
        {
          "indexed": true,
          "internalType": "address",
          "name": "arbitratorManager",
          "type": "address"
        }
      ],
      "name": "SetArbitratorManager",
      "type": "event"
    },
    {
      "anonymous": false,
      "inputs": [
        {
          "indexed": true,
          "internalType": "bytes32",
          "name": "txId",
          "type": "bytes32"
        },
        {
          "indexed": true,
          "internalType": "address",
          "name": "dapp",
          "type": "address"
        }
      ],
      "name": "TransactionCompleted",
      "type": "event"
    },
    {
      "anonymous": false,
      "inputs": [
        {
          "indexed": true,
          "internalType": "bytes32",
          "name": "id",
          "type": "bytes32"
        },
        {
          "indexed": true,
          "internalType": "address",
          "name": "dapp",
          "type": "address"
        },
        {
          "indexed": true,
          "internalType": "address",
          "name": "arbitrator",
          "type": "address"
        },
        {
          "indexed": false,
          "internalType": "uint256",
          "name": "deadline",
          "type": "uint256"
        },
        {
          "indexed": false,
          "internalType": "uint256",
          "name": "depositFee",
          "type": "uint256"
        },
        {
          "indexed": false,
          "internalType": "address",
          "name": "compensationReceiver",
          "type": "address"
        }
      ],
      "name": "TransactionRegistered",
      "type": "event"
    },
    {
      "inputs": [],
      "name": "arbitratorManager",
      "outputs": [
        {
          "internalType": "contract IArbitratorManager",
          "name": "",
          "type": "address"
        }
      ],
      "stateMutability": "view",
      "type": "function"
    },
    {
      "inputs": [],
      "name": "compensationManager",
      "outputs": [
        {
          "internalType": "address",
          "name": "",
          "type": "address"
        }
      ],
      "stateMutability": "view",
      "type": "function"
    },
    {
      "inputs": [
        {
          "internalType": "bytes32",
          "name": "id",
          "type": "bytes32"
        }
      ],
      "name": "completeTransaction",
      "outputs": [],
      "stateMutability": "nonpayable",
      "type": "function"
    },
    {
      "inputs": [
        {
          "internalType": "bytes32",
          "name": "id",
          "type": "bytes32"
        },
        {
          "internalType": "address",
          "name": "receivedCompensationAddress",
          "type": "address"
        }
      ],
      "name": "completeTransactionWithSlash",
      "outputs": [],
      "stateMutability": "nonpayable",
      "type": "function"
    },
    {
      "inputs": [],
      "name": "configManager",
      "outputs": [
        {
          "internalType": "contract ConfigManager",
          "name": "",
          "type": "address"
        }
      ],
      "stateMutability": "view",
      "type": "function"
    },
    {
      "inputs": [],
      "name": "dappRegistry",
      "outputs": [
        {
          "internalType": "contract IDAppRegistry",
          "name": "",
          "type": "address"
        }
      ],
      "stateMutability": "view",
      "type": "function"
    },
    {
      "inputs": [
        {
          "internalType": "uint256",
          "name": "deadline",
          "type": "uint256"
        },
        {
          "internalType": "address",
          "name": "arbitrator",
          "type": "address"
        }
      ],
      "name": "getRegisterTransactionFee",
      "outputs": [
        {
          "internalType": "uint256",
          "name": "fee",
          "type": "uint256"
        }
      ],
      "stateMutability": "view",
      "type": "function"
    },
    {
      "inputs": [
        {
          "internalType": "bytes32",
          "name": "txHash",
          "type": "bytes32"
        }
      ],
      "name": "getTransaction",
      "outputs": [
        {
          "components": [
            {
              "internalType": "address",
              "name": "dapp",
              "type": "address"
            },
            {
              "internalType": "address",
              "name": "arbitrator",
              "type": "address"
            },
            {
              "internalType": "uint256",
              "name": "startTime",
              "type": "uint256"
            },
            {
              "internalType": "uint256",
              "name": "deadline",
              "type": "uint256"
            },
            {
              "internalType": "bytes",
              "name": "btcTx",
              "type": "bytes"
            },
            {
              "internalType": "bytes32",
              "name": "btcTxHash",
              "type": "bytes32"
            },
            {
              "internalType": "enum DataTypes.TransactionStatus",
              "name": "status",
              "type": "uint8"
            },
            {
              "internalType": "uint256",
              "name": "depositedFee",
              "type": "uint256"
            },
            {
              "internalType": "bytes",
              "name": "signature",
              "type": "bytes"
            },
            {
              "internalType": "address",
              "name": "compensationReceiver",
              "type": "address"
            },
            {
              "internalType": "address",
              "name": "timeoutCompensationReceiver",
              "type": "address"
            },
            {
              "components": [
                {
                  "internalType": "bytes32",
                  "name": "txHash",
                  "type": "bytes32"
                },
                {
                  "internalType": "uint32",
                  "name": "index",
                  "type": "uint32"
                },
                {
                  "internalType": "bytes",
                  "name": "script",
                  "type": "bytes"
                },
                {
                  "internalType": "uint256",
                  "name": "amount",
                  "type": "uint256"
                }
              ],
              "internalType": "struct DataTypes.UTXO[]",
              "name": "utxos",
              "type": "tuple[]"
            },
            {
              "internalType": "bytes",
              "name": "script",
              "type": "bytes"
            }
          ],
          "internalType": "struct DataTypes.Transaction",
          "name": "",
          "type": "tuple"
        }
      ],
      "stateMutability": "view",
      "type": "function"
    },
    {
      "inputs": [
        {
          "internalType": "bytes32",
          "name": "id",
          "type": "bytes32"
        }
      ],
      "name": "getTransactionById",
      "outputs": [
        {
          "components": [
            {
              "internalType": "address",
              "name": "dapp",
              "type": "address"
            },
            {
              "internalType": "address",
              "name": "arbitrator",
              "type": "address"
            },
            {
              "internalType": "uint256",
              "name": "startTime",
              "type": "uint256"
            },
            {
              "internalType": "uint256",
              "name": "deadline",
              "type": "uint256"
            },
            {
              "internalType": "bytes",
              "name": "btcTx",
              "type": "bytes"
            },
            {
              "internalType": "bytes32",
              "name": "btcTxHash",
              "type": "bytes32"
            },
            {
              "internalType": "enum DataTypes.TransactionStatus",
              "name": "status",
              "type": "uint8"
            },
            {
              "internalType": "uint256",
              "name": "depositedFee",
              "type": "uint256"
            },
            {
              "internalType": "bytes",
              "name": "signature",
              "type": "bytes"
            },
            {
              "internalType": "address",
              "name": "compensationReceiver",
              "type": "address"
            },
            {
              "internalType": "address",
              "name": "timeoutCompensationReceiver",
              "type": "address"
            },
            {
              "components": [
                {
                  "internalType": "bytes32",
                  "name": "txHash",
                  "type": "bytes32"
                },
                {
                  "internalType": "uint32",
                  "name": "index",
                  "type": "uint32"
                },
                {
                  "internalType": "bytes",
                  "name": "script",
                  "type": "bytes"
                },
                {
                  "internalType": "uint256",
                  "name": "amount",
                  "type": "uint256"
                }
              ],
              "internalType": "struct DataTypes.UTXO[]",
              "name": "utxos",
              "type": "tuple[]"
            },
            {
              "internalType": "bytes",
              "name": "script",
              "type": "bytes"
            }
          ],
          "internalType": "struct DataTypes.Transaction",
          "name": "",
          "type": "tuple"
        }
      ],
      "stateMutability": "view",
      "type": "function"
    },
    {
      "inputs": [
        {
          "internalType": "address",
          "name": "_compensationManager",
          "type": "address"
        }
      ],
      "name": "initCompensationManager",
      "outputs": [],
      "stateMutability": "nonpayable",
      "type": "function"
    },
    {
      "inputs": [
        {
          "internalType": "address",
          "name": "_arbitratorManager",
          "type": "address"
        },
        {
          "internalType": "address",
          "name": "_dappRegistry",
          "type": "address"
        },
        {
          "internalType": "address",
          "name": "_configManager",
          "type": "address"
        }
      ],
      "name": "initialize",
      "outputs": [],
      "stateMutability": "nonpayable",
      "type": "function"
    },
    {
      "inputs": [
        {
          "internalType": "bytes32",
          "name": "id",
          "type": "bytes32"
        }
      ],
      "name": "isAbleCompletedTransaction",
      "outputs": [
        {
          "internalType": "bool",
          "name": "",
          "type": "bool"
        }
      ],
      "stateMutability": "view",
      "type": "function"
    },
    {
      "inputs": [],
      "name": "owner",
      "outputs": [
        {
          "internalType": "address",
          "name": "",
          "type": "address"
        }
      ],
      "stateMutability": "view",
      "type": "function"
    },
    {
      "inputs": [
        {
          "components": [
            {
              "internalType": "bytes32",
              "name": "txHash",
              "type": "bytes32"
            },
            {
              "internalType": "uint32",
              "name": "index",
              "type": "uint32"
            },
            {
              "internalType": "bytes",
              "name": "script",
              "type": "bytes"
            },
            {
              "internalType": "uint256",
              "name": "amount",
              "type": "uint256"
            }
          ],
          "internalType": "struct DataTypes.UTXO[]",
          "name": "utxos",
          "type": "tuple[]"
        },
        {
          "internalType": "address",
          "name": "arbitrator",
          "type": "address"
        },
        {
          "internalType": "uint256",
          "name": "deadline",
          "type": "uint256"
        },
        {
          "internalType": "address",
          "name": "compensationReceiver",
          "type": "address"
        }
      ],
      "name": "registerTransaction",
      "outputs": [
        {
          "internalType": "bytes32",
          "name": "",
          "type": "bytes32"
        }
      ],
      "stateMutability": "payable",
      "type": "function"
    },
    {
      "inputs": [],
      "name": "renounceOwnership",
      "outputs": [],
      "stateMutability": "nonpayable",
      "type": "function"
    },
    {
      "inputs": [
        {
          "internalType": "bytes32",
          "name": "id",
          "type": "bytes32"
        },
        {
          "internalType": "bytes",
          "name": "btcTx",
          "type": "bytes"
        },
        {
          "internalType": "bytes",
          "name": "script",
          "type": "bytes"
        },
        {
          "internalType": "address",
          "name": "timeoutCompensationReceiver",
          "type": "address"
        }
      ],
      "name": "requestArbitration",
      "outputs": [],
      "stateMutability": "nonpayable",
      "type": "function"
    },
    {
      "inputs": [
        {
          "internalType": "address",
          "name": "_arbitratorManager",
          "type": "address"
        }
      ],
      "name": "setArbitratorManager",
      "outputs": [],
      "stateMutability": "nonpayable",
      "type": "function"
    },
    {
      "inputs": [
        {
          "internalType": "bytes32",
          "name": "id",
          "type": "bytes32"
        },
        {
          "internalType": "bytes",
          "name": "btcTxSignature",
          "type": "bytes"
        }
      ],
      "name": "submitArbitration",
      "outputs": [],
      "stateMutability": "nonpayable",
      "type": "function"
    },
    {
      "inputs": [
        {
          "internalType": "bytes32",
          "name": "",
          "type": "bytes32"
        }
      ],
      "name": "transactions",
      "outputs": [
        {
          "internalType": "address",
          "name": "dapp",
          "type": "address"
        },
        {
          "internalType": "address",
          "name": "arbitrator",
          "type": "address"
        },
        {
          "internalType": "uint256",
          "name": "startTime",
          "type": "uint256"
        },
        {
          "internalType": "uint256",
          "name": "deadline",
          "type": "uint256"
        },
        {
          "internalType": "bytes",
          "name": "btcTx",
          "type": "bytes"
        },
        {
          "internalType": "bytes32",
          "name": "btcTxHash",
          "type": "bytes32"
        },
        {
          "internalType": "enum DataTypes.TransactionStatus",
          "name": "status",
          "type": "uint8"
        },
        {
          "internalType": "uint256",
          "name": "depositedFee",
          "type": "uint256"
        },
        {
          "internalType": "bytes",
          "name": "signature",
          "type": "bytes"
        },
        {
          "internalType": "address",
          "name": "compensationReceiver",
          "type": "address"
        },
        {
          "internalType": "address",
          "name": "timeoutCompensationReceiver",
          "type": "address"
        },
        {
          "internalType": "bytes",
          "name": "script",
          "type": "bytes"
        }
      ],
      "stateMutability": "view",
      "type": "function"
    },
    {
      "inputs": [
        {
          "internalType": "bytes32",
          "name": "id",
          "type": "bytes32"
        }
      ],
      "name": "transferArbitrationFee",
      "outputs": [
        {
          "internalType": "uint256",
          "name": "arbitratorFee",
          "type": "uint256"
        },
        {
          "internalType": "uint256",
          "name": "systemFee",
          "type": "uint256"
        }
      ],
      "stateMutability": "nonpayable",
      "type": "function"
    },
    {
      "inputs": [
        {
          "internalType": "address",
          "name": "newOwner",
          "type": "address"
        }
      ],
      "name": "transferOwnership",
      "outputs": [],
      "stateMutability": "nonpayable",
      "type": "function"
    },
    {
      "inputs": [
        {
          "internalType": "bytes32",
          "name": "",
          "type": "bytes32"
        }
      ],
      "name": "txHashToId",
      "outputs": [
        {
          "internalType": "bytes32",
          "name": "",
          "type": "bytes32"
        }
      ],
      "stateMutability": "view",
      "type": "function"
    }
  ],
  "bytecode": "0x60806040523480156200001157600080fd5b506200001c62000022565b620000d6565b7ff0c57e16840df040f15088dc2f81fe391c3923bec73e23a9662efc9c229c6a00805468010000000000000000900460ff1615620000735760405163f92ee8a960e01b815260040160405180910390fd5b80546001600160401b0390811614620000d35780546001600160401b0319166001600160401b0390811782556040519081527fc7f505b2f371ae2175ee4913f4499e1f2633a7b5936321eed1cdaeb6115181d29060200160405180910390a15b50565b615cfc80620000e66000396000f3fe6080604052600436106101355760003560e01c80638da5cb5b116100ab578063c0c53b8b1161006f578063c0c53b8b146103b6578063c1ce47d2146103d6578063ca0ab07514610403578063d09d03a314610423578063de0ca16614610443578063f2fde38b1461046357600080fd5b80638da5cb5b146102f85780639100c06214610335578063a130312a14610356578063a715719014610376578063a890b7b41461039657600080fd5b80634e4f0ec4116100fd5780634e4f0ec414610206578063520936b514610226578063642f2eaf14610256578063715018a61461028e5780637577b6df146102a3578063759787c4146102d857600080fd5b80630433e9041461013a5780630559b8771461015c5780632c7e8ca314610199578063350a07ea146101b95780634aae13ca146101d9575b600080fd5b34801561014657600080fd5b5061015a610155366004614f9b565b610483565b005b34801561016857600080fd5b5060065461017c906001600160a01b031681565b6040516001600160a01b0390911681526020015b60405180910390f35b3480156101a557600080fd5b5061015a6101b4366004615026565b610787565b3480156101c557600080fd5b5061015a6101d4366004615026565b6107d7565b3480156101e557600080fd5b506101f96101f4366004615043565b610856565b604051610190919061516e565b34801561021257600080fd5b5061015a6102213660046152a0565b610c26565b34801561023257600080fd5b50610246610241366004615043565b61117e565b6040519015158152602001610190565b34801561026257600080fd5b50610276610271366004615043565b6115b0565b6040516101909c9b9a999897969594939291906152eb565b34801561029a57600080fd5b5061015a6117cb565b3480156102af57600080fd5b506102c36102be366004615043565b6117df565b60408051928352602083019190915201610190565b3480156102e457600080fd5b5060005461017c906001600160a01b031681565b34801561030457600080fd5b507f9016d09d72d40fdae2fd8ceac6b6234c7706214fd39c1cd1e609a0528c199300546001600160a01b031661017c565b61034861034336600461538b565b611923565b604051908152602001610190565b34801561036257600080fd5b5061015a610371366004615043565b611fec565b34801561038257600080fd5b5061034861039136600461542d565b6120b2565b3480156103a257600080fd5b506101f96103b1366004615043565b612359565b3480156103c257600080fd5b5061015a6103d136600461545d565b6126fb565b3480156103e257600080fd5b506103486103f1366004615043565b60046020526000908152604090205481565b34801561040f57600080fd5b5060025461017c906001600160a01b031681565b34801561042f57600080fd5b5061015a61043e36600461542d565b6128c5565b34801561044f57600080fd5b5060015461017c906001600160a01b031681565b34801561046f57600080fd5b5061015a61047e366004615026565b612ab4565b61048b612af7565b6001600160a01b0381166104b25760405163538ba4f960e01b815260040160405180910390fd5b600086815260036020526040812090600682015460ff1660058111156104da576104da6150ac565b146104f75760405162cd158d60e51b815260040160405180910390fd5b80546001600160a01b0316331461052157604051633d83866f60e01b815260040160405180910390fd5b600061052d8787612b2f565b600b830154602082015151919250146105595760405163c60ff7ab60e01b815260040160405180910390fd5b60005b8160200151518110156106485782600b01818154811061057e5761057e6154a8565b906000526020600020906004020160000154826020015182815181106105a6576105a66154a8565b602002602001015160000151141580610618575082600b0181815481106105cf576105cf6154a8565b60009182526020918290206001600490920201015490830151805163ffffffff9092169183908110610603576106036154a8565b60200260200101516020015163ffffffff1614155b156106365760405163c60ff7ab60e01b815260040160405180910390fd5b80610640816154d4565b91505061055c565b50600061065482612ce3565b9050600060028260405161066891906154ed565b602060405180830381855afa158015610685573d6000803e3d6000fd5b5050506040513d601f19601f820116820180604052508101906106a89190615509565b60068501805460ff191660021790559050600484016106c8898b836155bd565b5060058401819055600a840180546001600160a01b0319166001600160a01b038716179055600c84016106fc8789836155bd565b50600081815260046020526040908190208b90556001850154905133918c917f81c89bbce5115bf315ea29f7001ebabb88f6d3e4d76132bf792f2085799ed0e49161075c916001600160a01b03909116908e908e908e908e908e906156a6565b60405180910390a35050505061077f6001600080516020615ca783398151915255565b505050505050565b61078f6133cc565b600080546001600160a01b0319166001600160a01b038316908117825560405190917fa323f9f93bbee02edb5e1034969f6ef41fb674527d2ea7e9271ad206435b58f491a250565b6107df6133cc565b6001600160a01b0381166108065760405163538ba4f960e01b815260040160405180910390fd5b600680546001600160a81b0319166001600160a01b038316908117600160a01b179091556040517f3e89cfb4fcf3c219579a7287319c014b58f4ff0f30188fd1d661727cf54faae590600090a250565b61085e614e28565b6000828152600460205260409020548061088b5760405163d0e6a1c560e01b815260040160405180910390fd5b60008181526003602081815260409283902083516101a08101855281546001600160a01b039081168252600183015416928101929092526002810154938201939093529082015460608201526004820180549192916080840191906108ef90615538565b80601f016020809104026020016040519081016040528092919081815260200182805461091b90615538565b80156109685780601f1061093d57610100808354040283529160200191610968565b820191906000526020600020905b81548152906001019060200180831161094b57829003601f168201915b50505091835250506005828101546020830152600683015460409092019160ff1690811115610999576109996150ac565b60058111156109aa576109aa6150ac565b8152602001600782015481526020016008820180546109c890615538565b80601f01602080910402602001604051908101604052809291908181526020018280546109f490615538565b8015610a415780601f10610a1657610100808354040283529160200191610a41565b820191906000526020600020905b815481529060010190602001808311610a2457829003601f168201915b505050918352505060098201546001600160a01b03908116602080840191909152600a840154909116604080840191909152600b84018054825181850281018501909352808352606090940193919290919060009084015b82821015610b84576000848152602090819020604080516080810182526004860290920180548352600181015463ffffffff169383019390935260028301805492939291840191610ae990615538565b80601f0160208091040260200160405190810160405280929190818152602001828054610b1590615538565b8015610b625780601f10610b3757610100808354040283529160200191610b62565b820191906000526020600020905b815481529060010190602001808311610b4557829003601f168201915b5050505050815260200160038201548152505081526020019060010190610a99565b505050508152602001600c82018054610b9c90615538565b80601f0160208091040260200160405190810160405280929190818152602001828054610bc890615538565b8015610c155780601f10610bea57610100808354040283529160200191610c15565b820191906000526020600020905b815481529060010190602001808311610bf857829003601f168201915b505050505081525050915050919050565b60008381526003602052604090206002600682015460ff166005811115610c4f57610c4f6150ac565b14610c6c5760405162cd158d60e51b815260040160405180910390fd5b604080516101a08101825282546001600160a01b039081168252600184015416602082015260028301549181019190915260038201546060820152600482018054610ff792918491608084019190610cc390615538565b80601f0160208091040260200160405190810160405280929190818152602001828054610cef90615538565b8015610d3c5780601f10610d1157610100808354040283529160200191610d3c565b820191906000526020600020905b815481529060010190602001808311610d1f57829003601f168201915b50505091835250506005828101546020830152600683015460409092019160ff1690811115610d6d57610d6d6150ac565b6005811115610d7e57610d7e6150ac565b815260200160078201548152602001600882018054610d9c90615538565b80601f0160208091040260200160405190810160405280929190818152602001828054610dc890615538565b8015610e155780601f10610dea57610100808354040283529160200191610e15565b820191906000526020600020905b815481529060010190602001808311610df857829003601f168201915b505050918352505060098201546001600160a01b03908116602080840191909152600a840154909116604080840191909152600b84018054825181850281018501909352808352606090940193919290919060009084015b82821015610f58576000848152602090819020604080516080810182526004860290920180548352600181015463ffffffff169383019390935260028301805492939291840191610ebd90615538565b80601f0160208091040260200160405190810160405280929190818152602001828054610ee990615538565b8015610f365780601f10610f0b57610100808354040283529160200191610f36565b820191906000526020600020905b815481529060010190602001808311610f1957829003601f168201915b5050505050815260200160038201548152505081526020019060010190610e6d565b505050508152602001600c82018054610f7090615538565b80601f0160208091040260200160405190810160405280929190818152602001828054610f9c90615538565b8015610fe95780601f10610fbe57610100808354040283529160200191610fe9565b820191906000526020600020905b815481529060010190602001808311610fcc57829003601f168201915b505050505081525050613427565b15611015576040516378fe628560e11b815260040160405180910390fd5b6000546001820154604051630e70978b60e21b81526001600160a01b0391821660048201523360248201529116906339c25e2c90604401602060405180830381865afa158015611069573d6000803e3d6000fd5b505050506040513d601f19601f8201168201806040525081019061108d9190615703565b6110aa57604051633d83866f60e01b815260040160405180910390fd5b60068101805460ff19166005179055600881016110c88385836155bd565b50600054600182015460405163069fa0a760e51b81526001600160a01b03918216600482015291169063d3f414e090602401600060405180830381600087803b15801561111457600080fd5b505af1158015611128573d6000803e3d6000fd5b505082546040513393506001600160a01b03909116915086907fc3087094b1ca79d1b0196cfe915c3153df5266eba37502790ddfc1e3532d355990611170908890889061571e565b60405180910390a450505050565b600081815260036020818152604080842081516101a08101835281546001600160a01b0390811682526001830154169381019390935260028101549183019190915291820154606082015260048201805484939160808401916111e090615538565b80601f016020809104026020016040519081016040528092919081815260200182805461120c90615538565b80156112595780601f1061122e57610100808354040283529160200191611259565b820191906000526020600020905b81548152906001019060200180831161123c57829003601f168201915b50505091835250506005828101546020830152600683015460409092019160ff169081111561128a5761128a6150ac565b600581111561129b5761129b6150ac565b8152602001600782015481526020016008820180546112b990615538565b80601f01602080910402602001604051908101604052809291908181526020018280546112e590615538565b80156113325780601f1061130757610100808354040283529160200191611332565b820191906000526020600020905b81548152906001019060200180831161131557829003601f168201915b505050918352505060098201546001600160a01b03908116602080840191909152600a840154909116604080840191909152600b84018054825181850281018501909352808352606090940193919290919060009084015b82821015611475576000848152602090819020604080516080810182526004860290920180548352600181015463ffffffff1693830193909352600283018054929392918401916113da90615538565b80601f016020809104026020016040519081016040528092919081815260200182805461140690615538565b80156114535780601f1061142857610100808354040283529160200191611453565b820191906000526020600020905b81548152906001019060200180831161143657829003601f168201915b505050505081526020016003820154815250508152602001906001019061138a565b505050508152602001600c8201805461148d90615538565b80601f01602080910402602001604051908101604052809291908181526020018280546114b990615538565b80156115065780601f106114db57610100808354040283529160200191611506565b820191906000526020600020905b8154815290600101906020018083116114e957829003601f168201915b505050505081525050905060006005811115611524576115246150ac565b8160c00151600581111561153a5761153a6150ac565b036115485750600192915050565b60028160c001516005811115611560576115606150ac565b036115815761156e81613427565b1561157c5750600192915050565b6115a7565b60058160c001516005811115611599576115996150ac565b036115a75750600192915050565b50600092915050565b6003602081905260009182526040909120805460018201546002830154938301546004840180546001600160a01b0394851696949093169491926115f390615538565b80601f016020809104026020016040519081016040528092919081815260200182805461161f90615538565b801561166c5780601f106116415761010080835404028352916020019161166c565b820191906000526020600020905b81548152906001019060200180831161164f57829003601f168201915b5050506005840154600685015460078601546008870180549697939660ff90931695509093509061169c90615538565b80601f01602080910402602001604051908101604052809291908181526020018280546116c890615538565b80156117155780601f106116ea57610100808354040283529160200191611715565b820191906000526020600020905b8154815290600101906020018083116116f857829003601f168201915b5050506009840154600a850154600c8601805495966001600160a01b039384169692909316945091925061174890615538565b80601f016020809104026020016040519081016040528092919081815260200182805461177490615538565b80156117c15780601f10611796576101008083540402835291602001916117c1565b820191906000526020600020905b8154815290600101906020018083116117a457829003601f168201915b505050505090508c565b6117d36133cc565b6117dd60006134c6565b565b60065460009081906001600160a01b0316331461180f57604051636f5ba97360e01b815260040160405180910390fd5b600654600160a01b900460ff1661183957604051630f68fe6360e21b815260040160405180910390fd5b60008381526003602052604090206005600682015460ff166005811115611862576118626150ac565b1461187f5760405162cd158d60e51b815260040160405180910390fd5b6000546001820154604051632911125160e01b81526001600160a01b039182166004820152911690632911125190602401602060405180830381865afa1580156118cd573d6000803e3d6000fd5b505050506040513d601f19601f820116820180604052508101906118f19190615703565b1561190f5760405163155a1edb60e31b815260040160405180910390fd5b6119198482613537565b9250925050915091565b600061192d612af7565b6001600160a01b038416158061194a57506001600160a01b038216155b156119685760405163538ba4f960e01b815260040160405180910390fd5b600085900361198a57604051637a4ec1b760e01b815260040160405180910390fd5b60015460405163682dc82b60e11b81523360048201526001600160a01b039091169063d05b905690602401602060405180830381865afa1580156119d2573d6000803e3d6000fd5b505050506040513d601f19601f820116820180604052508101906119f69190615703565b611a135760405163289ea21560e11b815260040160405180910390fd5b600054604051631c569df760e31b81526001600160a01b0386811660048301529091169063e2b4efb890602401602060405180830381865afa158015611a5d573d6000803e3d6000fd5b505050506040513d601f19601f82011682018060405250810190611a819190615703565b611a9e5760405163689b992760e01b815260040160405180910390fd5b428311611abe57604051632c5af88760e21b815260040160405180910390fd5b6000611aca428561573a565b60025460408051631c8c542360e11b815290519293506001600160a01b0390911691636dd5b69d918391633918a846916004808201926020929091908290030181865afa158015611b1f573d6000803e3d6000fd5b505050506040513d601f19601f82011682018060405250810190611b439190615509565b6040518263ffffffff1660e01b8152600401611b6191815260200190565b602060405180830381865afa158015611b7e573d6000803e3d6000fd5b505050506040513d601f19601f82011682018060405250810190611ba29190615509565b811080611c825750600254604080516358d0b14760e01b815290516001600160a01b0390921691636dd5b69d9183916358d0b147916004808201926020929091908290030181865afa158015611bfc573d6000803e3d6000fd5b505050506040513d601f19601f82011682018060405250810190611c209190615509565b6040518263ffffffff1660e01b8152600401611c3e91815260200190565b602060405180830381865afa158015611c5b573d6000803e3d6000fd5b505050506040513d601f19601f82011682018060405250810190611c7f9190615509565b81115b15611ca057604051630c51c95b60e21b815260040160405180910390fd5b604051630a71571960e41b8152600481018590526001600160a01b0386166024820152600090309063a715719090604401602060405180830381865afa158015611cee573d6000803e3d6000fd5b505050506040513d601f19601f82011682018060405250810190611d129190615509565b905080600003611d3557604051632fb15b8760e01b815260040160405180910390fd5b80341015611d56576040516380e5952760e01b815260040160405180910390fd5b600042338860056000815480929190611d6e906154d4565b909155506040805160208101959095526bffffffffffffffffffffffff19606094851b8116918601919091529190921b166054830152606882015260880160408051808303601f190181529082905280516020909101206000546315969bed60e11b83526001600160a01b038a81166004850152602484018390529193501690632b2d37da90604401600060405180830381600087803b158015611e1157600080fd5b505af1158015611e25573d6000803e3d6000fd5b505050600082815260036020819052604082208054336001600160a01b03199182161782556001820180549091166001600160a01b038d1617905542600282015590810189905591506040519080825280601f01601f191660200182016040528015611e98576020820181803683370190505b506004820190611ea8908261574d565b5060006005820181905560068201805460ff19169055346007830155604080519182526020820190526008820190611ee0908261574d565b506009810180546001600160a01b0319166001600160a01b038816179055611f0c600b82016000614ea1565b60005b89811015611f765781600b018b8b83818110611f2d57611f2d6154a8565b9050602002810190611f3f919061580c565b815460018101835560009283526020909220909160040201611f618282615822565b50508080611f6e906154d4565b915050611f0f565b50604080518881523460208201526001600160a01b03888116828401529151918a1691339185917feb31e9cc08e6aec1724c65bd618ab8709af006b0972f1a04bba0fe0b0192142e9181900360600190a45092505050611fe36001600080516020615ca783398151915255565b95945050505050565b60008181526003602052604090819020905163520936b560e01b815260048101839052309063520936b590602401602060405180830381865afa158015612037573d6000803e3d6000fd5b505050506040513d601f19601f8201168201806040525081019061205b9190615703565b61207857604051630ef52c5f60e31b815260040160405180910390fd5b80546001600160a01b031633146120a257604051633d83866f60e01b815260040160405180910390fd5b6120ac8282613537565b50505050565b6000804284116120c35760006120cd565b6120cd428561573a565b60025460408051631c8c542360e11b815290519293506001600160a01b0390911691636dd5b69d918391633918a846916004808201926020929091908290030181865afa158015612122573d6000803e3d6000fd5b505050506040513d601f19601f820116820180604052508101906121469190615509565b6040518263ffffffff1660e01b815260040161216491815260200190565b602060405180830381865afa158015612181573d6000803e3d6000fd5b505050506040513d601f19601f820116820180604052508101906121a59190615509565b8110806122855750600254604080516358d0b14760e01b815290516001600160a01b0390921691636dd5b69d9183916358d0b147916004808201926020929091908290030181865afa1580156121ff573d6000803e3d6000fd5b505050506040513d601f19601f820116820180604052508101906122239190615509565b6040518263ffffffff1660e01b815260040161224191815260200190565b602060405180830381865afa15801561225e573d6000803e3d6000fd5b505050506040513d601f19601f820116820180604052508101906122829190615509565b81115b156122a357604051630c51c95b60e21b815260040160405180910390fd5b6001600160a01b0383166122ca5760405163538ba4f960e01b815260040160405180910390fd5b600080546040516326415b0f60e21b81526001600160a01b038681166004830152909116906399056c3c90602401600060405180830381865afa158015612315573d6000803e3d6000fd5b505050506040513d6000823e601f3d908101601f1916820160405261233d91908101906159f9565b905061234e8482604001518461398f565b925050505b92915050565b612361614e28565b60008281526003602081815260409283902083516101a08101855281546001600160a01b039081168252600183015416928101929092526002810154938201939093529082015460608201526004820180549192916080840191906123c590615538565b80601f01602080910402602001604051908101604052809291908181526020018280546123f190615538565b801561243e5780601f106124135761010080835404028352916020019161243e565b820191906000526020600020905b81548152906001019060200180831161242157829003601f168201915b50505091835250506005828101546020830152600683015460409092019160ff169081111561246f5761246f6150ac565b6005811115612480576124806150ac565b81526020016007820154815260200160088201805461249e90615538565b80601f01602080910402602001604051908101604052809291908181526020018280546124ca90615538565b80156125175780601f106124ec57610100808354040283529160200191612517565b820191906000526020600020905b8154815290600101906020018083116124fa57829003601f168201915b505050918352505060098201546001600160a01b03908116602080840191909152600a840154909116604080840191909152600b84018054825181850281018501909352808352606090940193919290919060009084015b8282101561265a576000848152602090819020604080516080810182526004860290920180548352600181015463ffffffff1693830193909352600283018054929392918401916125bf90615538565b80601f01602080910402602001604051908101604052809291908181526020018280546125eb90615538565b80156126385780601f1061260d57610100808354040283529160200191612638565b820191906000526020600020905b81548152906001019060200180831161261b57829003601f168201915b505050505081526020016003820154815250508152602001906001019061256f565b505050508152602001600c8201805461267290615538565b80601f016020809104026020016040519081016040528092919081815260200182805461269e90615538565b80156126eb5780601f106126c0576101008083540402835291602001916126eb565b820191906000526020600020905b8154815290600101906020018083116126ce57829003601f168201915b5050505050815250509050919050565b7ff0c57e16840df040f15088dc2f81fe391c3923bec73e23a9662efc9c229c6a008054600160401b810460ff1615906001600160401b03166000811580156127405750825b90506000826001600160401b0316600114801561275c5750303b155b90508115801561276a575080155b156127885760405163f92ee8a960e01b815260040160405180910390fd5b845467ffffffffffffffff1916600117855583156127b257845460ff60401b1916600160401b1785555b6127ba613a3a565b6127c333613a4a565b6001600160a01b0388166127ea5760405163538ba4f960e01b815260040160405180910390fd5b6001600160a01b0387166128115760405163538ba4f960e01b815260040160405180910390fd5b6001600160a01b0386166128385760405163538ba4f960e01b815260040160405180910390fd5b600080546001600160a01b03808b166001600160a01b031992831617909255600180548a8416908316179055600280549289169290911691909117905583156128bb57845460ff60401b19168555604051600181527fc7f505b2f371ae2175ee4913f4499e1f2633a7b5936321eed1cdaeb6115181d29060200160405180910390a15b5050505050505050565b6006546001600160a01b031633146128f057604051636f5ba97360e01b815260040160405180910390fd5b600654600160a01b900460ff1661291a57604051630f68fe6360e21b815260040160405180910390fd5b60008281526003602052604090206001600682015460ff166005811115612943576129436150ac565b036129605760405162cd158d60e51b815260040160405180910390fd5b6001600160a01b0382166129875760405163538ba4f960e01b815260040160405180910390fd5b60068101805460ff1916600117905560078101546040516000916001600160a01b038516918381818185875af1925050503d80600081146129e4576040519150601f19603f3d011682016040523d82523d6000602084013e6129e9565b606091505b5050905080612a0b57604051631fa55c0760e11b815260040160405180910390fd5b600054600183015460405163cedb588b60e01b81526001600160a01b0391821660048201526024810187905291169063cedb588b90604401600060405180830381600087803b158015612a5d57600080fd5b505af1158015612a71573d6000803e3d6000fd5b505083546040516001600160a01b0390911692508691507f15d1e788ed875e6f2294a51087aa5cd2e2c10c92e627eb0a6bbbfceceaa01b9890600090a350505050565b612abc6133cc565b6001600160a01b038116612aeb57604051631e4fbdf760e01b8152600060048201526024015b60405180910390fd5b612af4816134c6565b50565b600080516020615ca7833981519152805460011901612b2957604051633ee5aeb560e01b815260040160405180910390fd5b60029055565b6040805160a081018252600080825260606020830181905292820183905291810182905260808101829052908280612b68600484615ba1565b1115612b8a5760405160016203ac8b60e61b0319815260040160405180910390fd5b612bcb85858080601f016020809104026020016040519081016040528093929190818152602001838380828437600092019190915250869250613a5b915050565b63ffffffff168352612bde600483615ba1565b9150600080612bee878786613b66565b811515608088015294509150839050600080612c0b898985613bf9565b6020890182905296509150859050600080612c278b8b85613cf1565b60408b01829052985091508790508515612c4b57612c488b8b8a8751613dd1565b97505b86612c57896004615ba1565b1115612c795760405160016203ac8b60e61b0319815260040160405180910390fd5b8a888b612c87826004615ba1565b92612c9493929190615bb4565b612c9d91615bde565b60e01c60608a0152612cb0600489615ba1565b9750868814612cd55760405160016203ac8b60e61b0319815260040160405180910390fd5b505050505050505092915050565b6060600060049050612cf9836020015151613e64565b612d039082615ba1565b905060005b836020015151811015612d4157612d20602883615ba1565b9150612d2d600183615ba1565b915080612d39816154d4565b915050612d08565b50612d50836040015151613e64565b612d5a9082615ba1565b905060005b836040015151811015612df257612d77600883615ba1565b9150612da484604001518281518110612d9257612d926154a8565b60200260200101516020015151613e64565b612dae9083615ba1565b915083604001518181518110612dc657612dc66154a8565b6020026020010151602001515182612dde9190615ba1565b915080612dea816154d4565b915050612d5f565b50612dfe600482615ba1565b90506000816001600160401b03811115612e1a57612e1a615522565b6040519080825280601f01601f191660200182016040528015612e44576020820181803683370190505b50845190915060009060e01b815b6004811015612ebf5781612e6782600361573a565b60048110612e7757612e776154a8565b1a60f81b84612e868386615ba1565b81518110612e9657612e966154a8565b60200101906001600160f81b031916908160001a90535080612eb7816154d4565b915050612e52565b50612ecb600483615ba1565b9150612edd8660200151518484613ea8565b612ee79083615ba1565b915060005b8660200151518110156131385760005b6020811015612f8c5787602001518281518110612f1b57612f1b6154a8565b60200260200101516000015181601f612f34919061573a565b60208110612f4457612f446154a8565b1a60f81b85612f538387615ba1565b81518110612f6357612f636154a8565b60200101906001600160f81b031916908160001a90535080612f84816154d4565b915050612efc565b50612f98602084615ba1565b9250600087602001518281518110612fb257612fb26154a8565b60200260200101516020015160e01b905060005b60048110156130335781612fdb82600361573a565b60048110612feb57612feb6154a8565b1a60f81b86612ffa8388615ba1565b8151811061300a5761300a6154a8565b60200101906001600160f81b031916908160001a9053508061302b816154d4565b915050612fc6565b5061303f600485615ba1565b9350600060f81b858581518110613058576130586154a8565b60200101906001600160f81b031916908160001a90535061307a600185615ba1565b9350600088602001518381518110613094576130946154a8565b60200260200101516060015160e01b905060005b600481101561311557816130bd82600361573a565b600481106130cd576130cd6154a8565b1a60f81b876130dc8389615ba1565b815181106130ec576130ec6154a8565b60200101906001600160f81b031916908160001a9053508061310d816154d4565b9150506130a8565b50613121600486615ba1565b945050508080613130906154d4565b915050612eec565b506131498660400151518484613ea8565b6131539083615ba1565b915060005b86604001515181101561333d5760008760400151828151811061317d5761317d6154a8565b60200260200101516000015160c01b905060005b60088110156131fe57816131a682600761573a565b600881106131b6576131b66154a8565b1a60f81b866131c58388615ba1565b815181106131d5576131d56154a8565b60200101906001600160f81b031916908160001a905350806131f6816154d4565b915050613191565b5061320a600885615ba1565b935061323988604001518381518110613225576132256154a8565b602002602001015160200151518686613ea8565b6132439085615ba1565b935060005b8860400151838151811061325e5761325e6154a8565b602002602001015160200151518110156132f85788604001518381518110613288576132886154a8565b60200260200101516020015181815181106132a5576132a56154a8565b01602001516001600160f81b031916866132bf8388615ba1565b815181106132cf576132cf6154a8565b60200101906001600160f81b031916908160001a905350806132f0816154d4565b915050613248565b508760400151828151811061330f5761330f6154a8565b60200260200101516020015151846133279190615ba1565b9350508080613335906154d4565b915050613158565b50606086015160e01b60005b60048110156133ac57818160048110613364576133646154a8565b1a60f81b856133738387615ba1565b81518110613383576133836154a8565b60200101906001600160f81b031916908160001a905350806133a4816154d4565b915050613349565b50929695505050505050565b6001600080516020615ca783398151915255565b336133fe7f9016d09d72d40fdae2fd8ceac6b6234c7706214fd39c1cd1e609a0528c199300546001600160a01b031690565b6001600160a01b0316146117dd5760405163118cdaa760e01b8152336004820152602401612ae2565b6000816060015142111561343d57506001919050565b60025460408051632b6f600d60e01b815290516000926001600160a01b031691632b6f600d9160048083019260209291908290030181865afa158015613487573d6000803e3d6000fd5b505050506040513d601f19601f820116820180604052508101906134ab9190615509565b90508083604001516134bd9190615ba1565b42119392505050565b7f9016d09d72d40fdae2fd8ceac6b6234c7706214fd39c1cd1e609a0528c19930080546001600160a01b031981166001600160a01b03848116918217845560405192169182907f8be0079c531659141344cd1fd0a4f28419497f9722a3daafe3b4186f6b6457e090600090a3505050565b604080516101a08101825282546001600160a01b0390811682526001840154166020820152600283015491810191909152600382015460608201526004820180546000928392839283926138cb9290918891608084019161359790615538565b80601f01602080910402602001604051908101604052809291908181526020018280546135c390615538565b80156136105780601f106135e557610100808354040283529160200191613610565b820191906000526020600020905b8154815290600101906020018083116135f357829003601f168201915b50505091835250506005828101546020830152600683015460409092019160ff1690811115613641576136416150ac565b6005811115613652576136526150ac565b81526020016007820154815260200160088201805461367090615538565b80601f016020809104026020016040519081016040528092919081815260200182805461369c90615538565b80156136e95780601f106136be576101008083540402835291602001916136e9565b820191906000526020600020905b8154815290600101906020018083116136cc57829003601f168201915b505050918352505060098201546001600160a01b03908116602080840191909152600a840154909116604080840191909152600b84018054825181850281018501909352808352606090940193919290919060009084015b8282101561382c576000848152602090819020604080516080810182526004860290920180548352600181015463ffffffff16938301939093526002830180549293929184019161379190615538565b80601f01602080910402602001604051908101604052809291908181526020018280546137bd90615538565b801561380a5780601f106137df5761010080835404028352916020019161380a565b820191906000526020600020905b8154815290600101906020018083116137ed57829003601f168201915b5050505050815260200160038201548152505081526020019060010190613741565b505050508152602001600c8201805461384490615538565b80601f016020809104026020016040519081016040528092919081815260200182805461387090615538565b80156138bd5780601f10613892576101008083540402835291602001916138bd565b820191906000526020600020905b8154815290600101906020018083116138a057829003601f168201915b505050505081525050614122565b600054600188015460405163cedb588b60e01b81526001600160a01b039182166004820152602481018b9052939550919350169063cedb588b90604401600060405180830381600087803b15801561392257600080fd5b505af1158015613936573d6000803e3d6000fd5b5050505060068501805460ff1916600117905584546040516001600160a01b039091169087907f15d1e788ed875e6f2294a51087aa5cd2e2c10c92e627eb0a6bbbfceceaa01b9890600090a390925090505b9250929050565b6000805460405163014f6b1960e41b81526001600160a01b038681166004830152839216906314f6b19090602401602060405180830381865afa1580156139da573d6000803e3d6000fd5b505050506040513d601f19601f820116820180604052508101906139fe9190615509565b9050613a106127106301e13380615c0e565b84613a1b8584615c0e565b613a259190615c0e565b613a2f9190615c25565b9150505b9392505050565b613a42614508565b6117dd614551565b613a52614508565b612af481614559565b8151600090613a6b836004615ba1565b1115613ac95760405162461bcd60e51b815260206004820152602760248201527f4254435574696c733a20696e73756666696369656e7420627974657320666f72604482015266103ab4b73a199960c91b6064820152608401612ae2565b828281518110613adb57613adb6154a8565b016020015160f81c600884613af1856001615ba1565b81518110613b0157613b016154a8565b016020015160f81c901b601085613b19866002615ba1565b81518110613b2957613b296154a8565b016020015160f81c901b601886613b41876003615ba1565b81518110613b5157613b516154a8565b016020015160f81c901b171717905092915050565b60008183613b75826002615ba1565b11613bf1576000858585818110613b8e57613b8e6154a8565b919091013560f81c9150600090508686613ba9876001615ba1565b818110613bb857613bb86154a8565b919091013560f81c91505060ff8216158015613bd7575060ff81166001145b15613bee5760019350613beb600284615ba1565b92505b50505b935093915050565b60606000806000613c0b878787614561565b9092509050613c1a8186615ba1565b9250816001600160401b03811115613c3457613c34615522565b604051908082528060200260200182016040528015613c8757816020015b60408051608081018252600080825260208083018290526060938301849052928201528252600019909201910181613c525790505b50935060005b82811015613ce657600080613ca38a8a8861477d565b9150915081878481518110613cba57613cba6154a8565b6020908102919091010152613ccf8187615ba1565b955050508080613cde906154d4565b915050613c8d565b505050935093915050565b60606000806000613d03878787614561565b9092509050613d128186615ba1565b9250816001600160401b03811115613d2c57613d2c615522565b604051908082528060200260200182016040528015613d7257816020015b604080518082019091526000815260606020820152815260200190600190039081613d4a5790505b50935060005b82811015613ce657600080613d8e8a8a886149e1565b9150915081878481518110613da557613da56154a8565b6020908102919091010152613dba8187615ba1565b955050508080613dc9906154d4565b915050613d78565b8160005b82811015613e5b57600080613deb888886614561565b9092509050613dfa8185615ba1565b935060005b82811015613e4557600080613e158b8b89614561565b9092509050613e248282615ba1565b613e2e9088615ba1565b965050508080613e3d906154d4565b915050613dff565b5050508080613e53906154d4565b915050613dd5565b50949350505050565b600060fc821015613e7757506001919050565b61ffff8211613e8857506003919050565b63ffffffff8211613e9b57506005919050565b506009919050565b919050565b600060fc841015613ee9578360f81b838381518110613ec957613ec96154a8565b60200101906001600160f81b031916908160001a90535060019050613a33565b61ffff8411613fa35760fd60f81b838381518110613f0957613f096154a8565b60200101906001600160f81b031916908160001a90535060f084901b8060011a60f81b84613f38856001615ba1565b81518110613f4857613f486154a8565b60200101906001600160f81b031916908160001a9053508060001a60f81b84613f72856002615ba1565b81518110613f8257613f826154a8565b60200101906001600160f81b031916908160001a9053506003915050613a33565b63ffffffff84116140685760fe60f81b838381518110613fc557613fc56154a8565b60200101906001600160f81b031916908160001a90535060e084901b60005b600481101561405d5781613ff982600361573a565b60048110614009576140096154a8565b1a60f81b858261401a876001615ba1565b6140249190615ba1565b81518110614034576140346154a8565b60200101906001600160f81b031916908160001a90535080614055816154d4565b915050613fe4565b506005915050613a33565b60ff60f81b83838151811061407f5761407f6154a8565b60200101906001600160f81b031916908160001a90535060c084901b60005b600881101561411757816140b382600761573a565b600881106140c3576140c36154a8565b1a60f81b85826140d4876001615ba1565b6140de9190615ba1565b815181106140ee576140ee6154a8565b60200101906001600160f81b031916908160001a9053508061410f816154d4565b91505061409e565b506009915050613a33565b6000805460208301516040516326415b0f60e21b81526001600160a01b0391821660048201528392839216906399056c3c90602401600060405180830381865afa158015614174573d6000803e3d6000fd5b505050506040513d6000823e601f3d908101601f1916820160405261419c91908101906159f9565b90506000846060015142116141bf5760408501516141ba904261573a565b6141d3565b846040015185606001516141d3919061573a565b905060006141ea866020015184604001518461398f565b90508560e001518111156141ff575060e08501515b6002546040805163286e9cd160e21b81529051600092612710926001600160a01b0390911691636dd5b69d91839163a1ba7344916004808201926020929091908290030181865afa158015614258573d6000803e3d6000fd5b505050506040513d601f19601f8201168201806040525081019061427c9190615509565b6040518263ffffffff1660e01b815260040161429a91815260200190565b602060405180830381865afa1580156142b7573d6000803e3d6000fd5b505050506040513d601f19601f820116820180604052508101906142db9190615509565b6142e59084615c0e565b6142ef9190615c25565b905060006142fd828461573a565b90506000600260009054906101000a90046001600160a01b03166001600160a01b0316638b6570a06040518163ffffffff1660e01b8152600401602060405180830381865afa158015614354573d6000803e3d6000fd5b505050506040513d601f19601f820116820180604052508101906143789190615c47565b90506000816001600160a01b03168460405160006040518083038185875af1925050503d80600081146143c7576040519150601f19603f3d011682016040523d82523d6000602084013e6143cc565b606091505b50509050806143ee57604051631fa55c0760e11b815260040160405180910390fd5b6000876101c001516001600160a01b03168460405160006040518083038185875af1925050503d8060008114614440576040519150601f19603f3d011682016040523d82523d6000602084013e614445565b606091505b505090508061446757604051631fa55c0760e11b815260040160405180910390fd5b6000868c60e00151614479919061573a565b905080156144f6578b516040516000916001600160a01b03169083908381818185875af1925050503d80600081146144cd576040519150601f19603f3d011682016040523d82523d6000602084013e6144d2565b606091505b50509050806144f4576040516329d39a2760e11b815260040160405180910390fd5b505b50929a93995092975050505050505050565b7ff0c57e16840df040f15088dc2f81fe391c3923bec73e23a9662efc9c229c6a0054600160401b900460ff166117dd57604051631afcd79f60e31b815260040160405180910390fd5b6133b8614508565b612abc614508565b6000808383106145875760405160016203ac8b60e61b0319815260040160405180910390fd5b600085858581811061459b5761459b6154a8565b919091013560f81c91505060fc8110156145bd5760ff16915060019050613bf1565b60fc1960ff82160161465457846145d5856003615ba1565b11156145f75760405160016203ac8b60e61b0319815260040160405180910390fd5b61464386868080601f01602080910402602001604051908101604052809392919081815260200183838082843760009201919091525061463e925088915060019050615ba1565b614b29565b61ffff16925060039150613bf19050565b60fd1960ff8216016146ed578461466c856005615ba1565b111561468e5760405160016203ac8b60e61b0319815260040160405180910390fd5b6146da86868080601f0160208091040260200160405190810160405280939291908181526020018383808284376000920191909152506146d5925088915060019050615ba1565b613a5b565b63ffffffff16925060059150613bf19050565b846146f9856009615ba1565b111561471b5760405160016203ac8b60e61b0319815260040160405180910390fd5b61476786868080601f016020809104026020016040519081016040528093929190818152602001838380828437600092019190915250614762925088915060019050615ba1565b614be2565b6001600160401b0316925060099150613bf19050565b60408051608081018252600080825260208201819052606092820183905291810191909152600082846147b1826020615ba1565b11156147d35760405160016203ac8b60e61b0319815260040160405180910390fd5b6147ff8685876147e4826020615ba1565b926147f193929190615bb4565b6147fa91615c64565b614d93565b835261480c602085615ba1565b93508461481a856004615ba1565b111561483c5760405160016203ac8b60e61b0319815260040160405180910390fd5b61487d86868080601f016020809104026020016040519081016040528093929190818152602001838380828437600092019190915250889250613a5b915050565b63ffffffff166020840152614893600485615ba1565b93506000806148a3888888614561565b90925090506148b28187615ba1565b9550866148bf8388615ba1565b11156148e15760405160016203ac8b60e61b0319815260040160405180910390fd5b8786886148ee8583615ba1565b926148fb93929190615bb4565b8080601f016020809104026020016040519081016040528093929190818152602001838380828437600092019190915250505050604086015261493e8287615ba1565b95508661494c876004615ba1565b111561496e5760405160016203ac8b60e61b0319815260040160405180910390fd5b6149af88888080601f0160208091040260200160405190810160405280939291908181526020018383808284376000920191909152508a9250613a5b915050565b63ffffffff1660608601526149c5600487615ba1565b9550846149d2848861573a565b94509450505050935093915050565b60408051808201909152600081526060602082015260008284614a05826008615ba1565b1115614a275760405160016203ac8b60e61b0319815260040160405180910390fd5b614a6886868080601f016020809104026020016040519081016040528093929190818152602001838380828437600092019190915250889250614be2915050565b6001600160401b03168352614a7e600885615ba1565b9350600080614a8e888888614561565b9092509050614a9d8187615ba1565b955086614aaa8388615ba1565b1115614acc5760405160016203ac8b60e61b0319815260040160405180910390fd5b878688614ad98583615ba1565b92614ae693929190615bb4565b8080601f01602080910402602001604051908101604052809392919081815260200183838082843760009201919091525050505060208601526149c58287615ba1565b8151600090614b39836002615ba1565b1115614b975760405162461bcd60e51b815260206004820152602760248201527f4254435574696c733a20696e73756666696369656e7420627974657320666f72604482015266103ab4b73a189b60c91b6064820152608401612ae2565b828281518110614ba957614ba96154a8565b016020015160f81c600884614bbf856001615ba1565b81518110614bcf57614bcf6154a8565b016020015160f81c901b17905092915050565b8151600090614bf2836008615ba1565b1115614c505760405162461bcd60e51b815260206004820152602760248201527f4254435574696c733a20696e73756666696369656e7420627974657320666f72604482015266081d5a5b9d0d8d60ca1b6064820152608401612ae2565b828281518110614c6257614c626154a8565b016020015160f81c600884614c78856001615ba1565b81518110614c8857614c886154a8565b016020015160f81c901b601085614ca0866002615ba1565b81518110614cb057614cb06154a8565b016020015160f81c901b601886614cc8876003615ba1565b81518110614cd857614cd86154a8565b0160209081015160f81c90911b9087614cf2886004615ba1565b81518110614d0257614d026154a8565b016020015160f81c901b602888614d1a896005615ba1565b81518110614d2a57614d2a6154a8565b016020015160f81c901b603089614d428a6006615ba1565b81518110614d5257614d526154a8565b016020015160f81c901b60388a614d6a8b6007615ba1565b81518110614d7a57614d7a6154a8565b016020015160f81c901b17171717171717905092915050565b60408051602080825281830190925260009182919060208201818036833701905050905060005b6020811015614e1e5783614dcf82601f61573a565b60208110614ddf57614ddf6154a8565b1a60f81b828281518110614df557614df56154a8565b60200101906001600160f81b031916908160001a90535080614e16816154d4565b915050614dba565b50613a3381615c82565b604080516101a0810182526000808252602082018190529181018290526060808201839052608082015260a081018290529060c08201908152602001600081526020016060815260200160006001600160a01b0316815260200160006001600160a01b0316815260200160608152602001606081525090565b5080546000825560040290600052602060002090810190612af491905b80821115614ef757600080825560018201805463ffffffff19169055614ee76002830182614efb565b5060006003820155600401614ebe565b5090565b508054614f0790615538565b6000825580601f10614f17575050565b601f016020900490600052602060002090810190612af491905b80821115614ef75760008155600101614f31565b60008083601f840112614f5757600080fd5b5081356001600160401b03811115614f6e57600080fd5b60208301915083602082850101111561398857600080fd5b6001600160a01b0381168114612af457600080fd5b60008060008060008060808789031215614fb457600080fd5b8635955060208701356001600160401b0380821115614fd257600080fd5b614fde8a838b01614f45565b90975095506040890135915080821115614ff757600080fd5b5061500489828a01614f45565b909450925050606087013561501881614f86565b809150509295509295509295565b60006020828403121561503857600080fd5b8135613a3381614f86565b60006020828403121561505557600080fd5b5035919050565b60005b8381101561507757818101518382015260200161505f565b50506000910152565b6000815180845261509881602086016020860161505c565b601f01601f19169290920160200192915050565b634e487b7160e01b600052602160045260246000fd5b600681106150e057634e487b7160e01b600052602160045260246000fd5b9052565b600082825180855260208086019550808260051b84010181860160005b8481101561516157601f19868403018952815160808151855263ffffffff868301511686860152604080830151828288015261513f83880182615080565b6060948501519790940196909652505098840198925090830190600101615101565b5090979650505050505050565b602081526151886020820183516001600160a01b03169052565b600060208301516151a460408401826001600160a01b03169052565b50604083015160608301526060830151608083015260808301516101a08060a08501526151d56101c0850183615080565b915060a085015160c085015260c08501516151f360e08601826150c2565b5060e0850151610100818187015280870151915050601f196101208187860301818801526152218584615080565b945080880151925050610140615241818801846001600160a01b03169052565b870151915061016061525d878201846001600160a01b03169052565b8088015192505061018081878603018188015261527a85846150e4565b9088015187820390920184880152935090506152968382615080565b9695505050505050565b6000806000604084860312156152b557600080fd5b8335925060208401356001600160401b038111156152d257600080fd5b6152de86828701614f45565b9497909650939450505050565b600060018060a01b03808f168352808e1660208401528c60408401528b6060840152610180608084015261532361018084018c615080565b8a60a085015261533660c085018b6150c2565b8860e085015283810361010085015261534f8189615080565b90508187166101208501528186166101408501528381036101608501526153768186615080565b925050509d9c50505050505050505050505050565b6000806000806000608086880312156153a357600080fd5b85356001600160401b03808211156153ba57600080fd5b818801915088601f8301126153ce57600080fd5b8135818111156153dd57600080fd5b8960208260051b85010111156153f257600080fd5b6020928301975095505086013561540881614f86565b925060408601359150606086013561541f81614f86565b809150509295509295909350565b6000806040838503121561544057600080fd5b82359150602083013561545281614f86565b809150509250929050565b60008060006060848603121561547257600080fd5b833561547d81614f86565b9250602084013561548d81614f86565b9150604084013561549d81614f86565b809150509250925092565b634e487b7160e01b600052603260045260246000fd5b634e487b7160e01b600052601160045260246000fd5b6000600182016154e6576154e66154be565b5060010190565b600082516154ff81846020870161505c565b9190910192915050565b60006020828403121561551b57600080fd5b5051919050565b634e487b7160e01b600052604160045260246000fd5b600181811c9082168061554c57607f821691505b60208210810361556c57634e487b7160e01b600052602260045260246000fd5b50919050565b601f8211156155b857600081815260208120601f850160051c810160208610156155995750805b601f850160051c820191505b8181101561077f578281556001016155a5565b505050565b6001600160401b038311156155d4576155d4615522565b6155e8836155e28354615538565b83615572565b6000601f84116001811461561c57600085156156045750838201355b600019600387901b1c1916600186901b178355615676565b600083815260209020601f19861690835b8281101561564d578685013582556020948501946001909201910161562d565b508682101561566a5760001960f88860031b161c19848701351681555b505060018560011b0183555b5050505050565b81835281816020850137506000828201602090810191909152601f909101601f19169091010190565b600060018060a01b038089168352608060208401526156c960808401888a61567d565b83810360408501526156dc81878961567d565b925050808416606084015250979650505050505050565b80518015158114613ea357600080fd5b60006020828403121561571557600080fd5b613a33826156f3565b60208152600061573260208301848661567d565b949350505050565b81810381811115612353576123536154be565b81516001600160401b0381111561576657615766615522565b61577a816157748454615538565b84615572565b602080601f8311600181146157af57600084156157975750858301515b600019600386901b1c1916600185901b17855561077f565b600085815260208120601f198616915b828110156157de578886015182559484019460019091019084016157bf565b50858210156157fc5787850151600019600388901b60f8161c191681555b5050505050600190811b01905550565b60008235607e198336030181126154ff57600080fd5b8135815560018101602083013563ffffffff811680821461584257600080fd5b825463ffffffff19161790915550604082013536839003601e1901811261586857600080fd5b820180356001600160401b0381111561588057600080fd5b60208201915080360382131561589557600080fd5b6158a38183600286016155bd565b5050606082013560038201555050565b60405161020081016001600160401b03811182821017156158d6576158d6615522565b60405290565b604051601f8201601f191681016001600160401b038111828210171561590457615904615522565b604052919050565b8051613ea381614f86565b600082601f83011261592857600080fd5b815160206001600160401b0382111561594357615943615522565b8160051b6159528282016158dc565b928352848101820192828101908785111561596c57600080fd5b83870192505b8483101561598b57825182529183019190830190615972565b979650505050505050565b600082601f8301126159a757600080fd5b81516001600160401b038111156159c0576159c0615522565b6159d3601f8201601f19166020016158dc565b8181528460208386010111156159e857600080fd5b61573282602083016020870161505c565b600060208284031215615a0b57600080fd5b81516001600160401b0380821115615a2257600080fd5b908301906102008286031215615a3757600080fd5b615a3f6158b3565b615a488361590c565b8152615a56602084016156f3565b6020820152604083015160408201526060830151606082015260808301516080820152615a8560a0840161590c565b60a0820152615a9660c0840161590c565b60c082015260e083015182811115615aad57600080fd5b615ab987828601615917565b60e083015250610100615acd81850161590c565b908201526101208381015183811115615ae557600080fd5b615af188828701615996565b8284015250506101408084015183811115615b0b57600080fd5b615b1788828701615996565b8284015250506101608084015181830152506101808084015183811115615b3d57600080fd5b615b4988828701615996565b8284015250506101a08084015183811115615b6357600080fd5b615b6f88828701615996565b8284015250506101c09150615b8582840161590c565b918101919091526101e091820151918101919091529392505050565b80820180821115612353576123536154be565b60008085851115615bc457600080fd5b83861115615bd157600080fd5b5050820193919092039150565b6001600160e01b03198135818116916004851015615c065780818660040360031b1b83161692505b505092915050565b8082028115828204841417612353576123536154be565b600082615c4257634e487b7160e01b600052601260045260246000fd5b500490565b600060208284031215615c5957600080fd5b8151613a3381614f86565b8035602083101561235357600019602084900360031b1b1692915050565b8051602080830151919081101561556c5760001960209190910360031b1b1691905056fe9b779b17422d0df92223018b32b4d1fa46e071723d6817e2486d003becc55f00a264697066735822122019b4e2786240f9a748cc7e7eccc5c0a04f905915cce011816b4178f6bf7e33fc64736f6c63430008140033",
  "linkReferences": {},
  "deployedLinkReferences": {}
}