{
  "_format": "hh-sol-artifact-1",
  "contractName": "TransactionManager",
  "sourceName": "contracts/core/TransactionManager.sol",
  "abi": [
    {
      "inputs": [],
      "stateMutability": "nonpayable",
      "type": "constructor"
    },
    {
      "inputs": [],
      "name": "InvalidInitialization",
      "type": "error"
    },
    {
      "inputs": [],
      "name": "NotInitializing",
      "type": "error"
    },
    {
      "inputs": [
        {
          "internalType": "address",
          "name": "owner",
          "type": "address"
        }
      ],
      "name": "OwnableInvalidOwner",
      "type": "error"
    },
    {
      "inputs": [
        {
          "internalType": "address",
          "name": "account",
          "type": "address"
        }
      ],
      "name": "OwnableUnauthorizedAccount",
      "type": "error"
    },
    {
      "inputs": [],
      "name": "ReentrancyGuardReentrantCall",
      "type": "error"
    },
    {
      "anonymous": false,
      "inputs": [
        {
          "indexed": true,
          "internalType": "bytes32",
          "name": "txId",
          "type": "bytes32"
        },
        {
          "indexed": true,
          "internalType": "address",
          "name": "dapp",
          "type": "address"
        },
        {
          "indexed": false,
          "internalType": "address",
          "name": "arbitrator",
          "type": "address"
        },
        {
          "indexed": false,
          "internalType": "bytes",
          "name": "signData",
          "type": "bytes"
        },
        {
          "indexed": false,
          "internalType": "bytes",
          "name": "script",
          "type": "bytes"
        },
        {
          "indexed": false,
          "internalType": "address",
          "name": "timeoutCompensationReceiver",
          "type": "address"
        }
      ],
      "name": "ArbitrationRequested",
      "type": "event"
    },
    {
      "anonymous": false,
      "inputs": [
        {
          "indexed": true,
          "internalType": "bytes32",
          "name": "txId",
          "type": "bytes32"
        },
        {
          "indexed": true,
          "internalType": "address",
          "name": "dapp",
          "type": "address"
        },
        {
          "indexed": true,
          "internalType": "address",
          "name": "arbitrator",
          "type": "address"
        },
        {
          "indexed": false,
          "internalType": "bytes",
          "name": "btcTxSignature",
          "type": "bytes"
        }
      ],
      "name": "ArbitrationSubmitted",
      "type": "event"
    },
    {
      "anonymous": false,
      "inputs": [
        {
          "indexed": true,
          "internalType": "bytes32",
          "name": "txId",
          "type": "bytes32"
        },
        {
          "indexed": true,
          "internalType": "address",
          "name": "revenueETHAddress",
          "type": "address"
        },
        {
          "indexed": false,
          "internalType": "uint256",
          "name": "arbitratorFee",
          "type": "uint256"
        },
        {
          "indexed": false,
          "internalType": "uint256",
          "name": "systemFee",
          "type": "uint256"
        },
        {
          "indexed": false,
          "internalType": "uint256",
          "name": "refundedFee",
          "type": "uint256"
        }
      ],
      "name": "DepositFeeTransfer",
      "type": "event"
    },
    {
      "anonymous": false,
      "inputs": [
        {
          "indexed": false,
          "internalType": "uint64",
          "name": "version",
          "type": "uint64"
        }
      ],
      "name": "Initialized",
      "type": "event"
    },
    {
      "anonymous": false,
      "inputs": [
        {
          "indexed": true,
          "internalType": "address",
          "name": "previousOwner",
          "type": "address"
        },
        {
          "indexed": true,
          "internalType": "address",
          "name": "newOwner",
          "type": "address"
        }
      ],
      "name": "OwnershipTransferred",
      "type": "event"
    },
    {
      "anonymous": false,
      "inputs": [
        {
          "indexed": true,
          "internalType": "address",
          "name": "arbitratorManager",
          "type": "address"
        }
      ],
      "name": "SetArbitratorManager",
      "type": "event"
    },
    {
      "anonymous": false,
      "inputs": [
        {
          "indexed": true,
          "internalType": "bytes32",
          "name": "txId",
          "type": "bytes32"
        },
        {
          "indexed": true,
          "internalType": "address",
          "name": "dapp",
          "type": "address"
        }
      ],
      "name": "TransactionCompleted",
      "type": "event"
    },
    {
      "anonymous": false,
      "inputs": [
        {
          "indexed": true,
          "internalType": "bytes32",
          "name": "id",
          "type": "bytes32"
        },
        {
          "indexed": true,
          "internalType": "address",
          "name": "dapp",
          "type": "address"
        },
        {
          "indexed": true,
          "internalType": "address",
          "name": "arbitrator",
          "type": "address"
        },
        {
          "indexed": false,
          "internalType": "uint256",
          "name": "deadline",
          "type": "uint256"
        },
        {
          "indexed": false,
          "internalType": "uint256",
          "name": "depositFee",
          "type": "uint256"
        },
        {
          "indexed": false,
          "internalType": "address",
          "name": "compensationReceiver",
          "type": "address"
        }
      ],
      "name": "TransactionRegistered",
      "type": "event"
    },
    {
      "anonymous": false,
      "inputs": [
        {
          "indexed": true,
          "internalType": "bytes32",
          "name": "txId",
          "type": "bytes32"
        },
        {
          "indexed": true,
          "internalType": "address",
          "name": "dapp",
          "type": "address"
        }
      ],
      "name": "UTXOsUploaded",
      "type": "event"
    },
    {
      "inputs": [],
      "name": "arbitratorManager",
      "outputs": [
        {
          "internalType": "contract IArbitratorManager",
          "name": "",
          "type": "address"
        }
      ],
      "stateMutability": "view",
      "type": "function"
    },
    {
      "inputs": [],
      "name": "compensationManager",
      "outputs": [
        {
          "internalType": "address",
          "name": "",
          "type": "address"
        }
      ],
      "stateMutability": "view",
      "type": "function"
    },
    {
      "inputs": [
        {
          "internalType": "bytes32",
          "name": "id",
          "type": "bytes32"
        }
      ],
      "name": "completeTransaction",
      "outputs": [],
      "stateMutability": "nonpayable",
      "type": "function"
    },
    {
      "inputs": [
        {
          "internalType": "bytes32",
          "name": "id",
          "type": "bytes32"
        },
        {
          "internalType": "address",
          "name": "receivedCompensationAddress",
          "type": "address"
        }
      ],
      "name": "completeTransactionWithSlash",
      "outputs": [],
      "stateMutability": "nonpayable",
      "type": "function"
    },
    {
      "inputs": [],
      "name": "configManager",
      "outputs": [
        {
          "internalType": "contract ConfigManager",
          "name": "",
          "type": "address"
        }
      ],
      "stateMutability": "view",
      "type": "function"
    },
    {
      "inputs": [],
      "name": "dappRegistry",
      "outputs": [
        {
          "internalType": "contract IDAppRegistry",
          "name": "",
          "type": "address"
        }
      ],
      "stateMutability": "view",
      "type": "function"
    },
    {
      "inputs": [
        {
          "internalType": "uint256",
          "name": "deadline",
          "type": "uint256"
        },
        {
          "internalType": "address",
          "name": "arbitrator",
          "type": "address"
        }
      ],
      "name": "getRegisterTransactionFee",
      "outputs": [
        {
          "internalType": "uint256",
          "name": "fee",
          "type": "uint256"
        }
      ],
      "stateMutability": "view",
      "type": "function"
    },
    {
      "inputs": [
        {
          "internalType": "bytes32",
          "name": "txHash",
          "type": "bytes32"
        }
      ],
      "name": "getTransaction",
      "outputs": [
        {
          "components": [
            {
              "internalType": "address",
              "name": "dapp",
              "type": "address"
            },
            {
              "internalType": "address",
              "name": "arbitrator",
              "type": "address"
            },
            {
              "internalType": "uint256",
              "name": "startTime",
              "type": "uint256"
            },
            {
              "internalType": "uint256",
              "name": "deadline",
              "type": "uint256"
            },
            {
              "internalType": "bytes",
              "name": "btcTx",
              "type": "bytes"
            },
            {
              "internalType": "bytes32",
              "name": "btcTxHash",
              "type": "bytes32"
            },
            {
              "internalType": "enum DataTypes.TransactionStatus",
              "name": "status",
              "type": "uint8"
            },
            {
              "internalType": "uint256",
              "name": "depositedFee",
              "type": "uint256"
            },
            {
              "internalType": "bytes",
              "name": "signature",
              "type": "bytes"
            },
            {
              "internalType": "address",
              "name": "compensationReceiver",
              "type": "address"
            },
            {
              "internalType": "address",
              "name": "timeoutCompensationReceiver",
              "type": "address"
            },
            {
              "components": [
                {
                  "internalType": "bytes32",
                  "name": "txHash",
                  "type": "bytes32"
                },
                {
                  "internalType": "uint32",
                  "name": "index",
                  "type": "uint32"
                },
                {
                  "internalType": "bytes",
                  "name": "script",
                  "type": "bytes"
                },
                {
                  "internalType": "uint256",
                  "name": "amount",
                  "type": "uint256"
                }
              ],
              "internalType": "struct DataTypes.UTXO[]",
              "name": "utxos",
              "type": "tuple[]"
            },
            {
              "internalType": "bytes",
              "name": "script",
              "type": "bytes"
            },
            {
              "internalType": "uint256",
              "name": "requestArbitrationTime",
              "type": "uint256"
            },
            {
              "internalType": "address",
              "name": "depositedFeeRefundAddress",
              "type": "address"
            }
          ],
          "internalType": "struct DataTypes.Transaction",
          "name": "",
          "type": "tuple"
        }
      ],
      "stateMutability": "view",
      "type": "function"
    },
    {
      "inputs": [
        {
          "internalType": "bytes32",
          "name": "id",
          "type": "bytes32"
        }
      ],
      "name": "getTransactionById",
      "outputs": [
        {
          "components": [
            {
              "internalType": "address",
              "name": "dapp",
              "type": "address"
            },
            {
              "internalType": "address",
              "name": "arbitrator",
              "type": "address"
            },
            {
              "internalType": "uint256",
              "name": "startTime",
              "type": "uint256"
            },
            {
              "internalType": "uint256",
              "name": "deadline",
              "type": "uint256"
            },
            {
              "internalType": "bytes",
              "name": "btcTx",
              "type": "bytes"
            },
            {
              "internalType": "bytes32",
              "name": "btcTxHash",
              "type": "bytes32"
            },
            {
              "internalType": "enum DataTypes.TransactionStatus",
              "name": "status",
              "type": "uint8"
            },
            {
              "internalType": "uint256",
              "name": "depositedFee",
              "type": "uint256"
            },
            {
              "internalType": "bytes",
              "name": "signature",
              "type": "bytes"
            },
            {
              "internalType": "address",
              "name": "compensationReceiver",
              "type": "address"
            },
            {
              "internalType": "address",
              "name": "timeoutCompensationReceiver",
              "type": "address"
            },
            {
              "components": [
                {
                  "internalType": "bytes32",
                  "name": "txHash",
                  "type": "bytes32"
                },
                {
                  "internalType": "uint32",
                  "name": "index",
                  "type": "uint32"
                },
                {
                  "internalType": "bytes",
                  "name": "script",
                  "type": "bytes"
                },
                {
                  "internalType": "uint256",
                  "name": "amount",
                  "type": "uint256"
                }
              ],
              "internalType": "struct DataTypes.UTXO[]",
              "name": "utxos",
              "type": "tuple[]"
            },
            {
              "internalType": "bytes",
              "name": "script",
              "type": "bytes"
            },
            {
              "internalType": "uint256",
              "name": "requestArbitrationTime",
              "type": "uint256"
            },
            {
              "internalType": "address",
              "name": "depositedFeeRefundAddress",
              "type": "address"
            }
          ],
          "internalType": "struct DataTypes.Transaction",
          "name": "",
          "type": "tuple"
        }
      ],
      "stateMutability": "view",
      "type": "function"
    },
    {
      "inputs": [
        {
          "internalType": "bytes32",
          "name": "id",
          "type": "bytes32"
        }
      ],
      "name": "getTransactionStatus",
      "outputs": [
        {
          "internalType": "enum DataTypes.TransactionStatus",
          "name": "status",
          "type": "uint8"
        }
      ],
      "stateMutability": "view",
      "type": "function"
    },
    {
      "inputs": [
        {
          "internalType": "address",
          "name": "_arbitratorManager",
          "type": "address"
        },
        {
          "internalType": "address",
          "name": "_dappRegistry",
          "type": "address"
        },
        {
          "internalType": "address",
          "name": "_configManager",
          "type": "address"
        },
        {
          "internalType": "address",
          "name": "_compensationManager",
          "type": "address"
        }
      ],
      "name": "initialize",
      "outputs": [],
      "stateMutability": "nonpayable",
      "type": "function"
    },
    {
      "inputs": [
        {
          "internalType": "bytes32",
          "name": "id",
          "type": "bytes32"
        }
      ],
      "name": "isAbleCompletedTransaction",
      "outputs": [
        {
          "internalType": "bool",
          "name": "",
          "type": "bool"
        }
      ],
      "stateMutability": "view",
      "type": "function"
    },
    {
      "inputs": [],
      "name": "owner",
      "outputs": [
        {
          "internalType": "address",
          "name": "",
          "type": "address"
        }
      ],
      "stateMutability": "view",
      "type": "function"
    },
    {
      "inputs": [
        {
          "internalType": "address",
          "name": "arbitrator",
          "type": "address"
        },
        {
          "internalType": "uint256",
          "name": "deadline",
          "type": "uint256"
        },
        {
          "internalType": "address",
          "name": "compensationReceiver",
          "type": "address"
        },
        {
          "internalType": "address",
          "name": "refundAddress",
          "type": "address"
        }
      ],
      "name": "registerTransaction",
      "outputs": [
        {
          "internalType": "bytes32",
          "name": "",
          "type": "bytes32"
        }
      ],
      "stateMutability": "payable",
      "type": "function"
    },
    {
      "inputs": [],
      "name": "renounceOwnership",
      "outputs": [],
      "stateMutability": "nonpayable",
      "type": "function"
    },
    {
      "inputs": [
        {
          "internalType": "bytes32",
          "name": "id",
          "type": "bytes32"
        },
        {
          "internalType": "bytes",
          "name": "signData",
          "type": "bytes"
        },
        {
          "internalType": "enum DataTypes.SignDataType",
          "name": "signDataType",
          "type": "uint8"
        },
        {
          "internalType": "bytes",
          "name": "script",
          "type": "bytes"
        },
        {
          "internalType": "address",
          "name": "timeoutCompensationReceiver",
          "type": "address"
        }
      ],
      "name": "requestArbitration",
      "outputs": [],
      "stateMutability": "nonpayable",
      "type": "function"
    },
    {
      "inputs": [
        {
          "internalType": "address",
          "name": "_arbitratorManager",
          "type": "address"
        }
      ],
      "name": "setArbitratorManager",
      "outputs": [],
      "stateMutability": "nonpayable",
      "type": "function"
    },
    {
      "inputs": [
        {
          "internalType": "bytes32",
          "name": "id",
          "type": "bytes32"
        },
        {
          "internalType": "bytes",
          "name": "btcTxSignature",
          "type": "bytes"
        }
      ],
      "name": "submitArbitration",
      "outputs": [],
      "stateMutability": "nonpayable",
      "type": "function"
    },
    {
      "inputs": [
        {
          "internalType": "bytes32",
          "name": "",
          "type": "bytes32"
        }
      ],
      "name": "transactions",
      "outputs": [
        {
          "internalType": "address",
          "name": "dapp",
          "type": "address"
        },
        {
          "internalType": "address",
          "name": "arbitrator",
          "type": "address"
        },
        {
          "internalType": "uint256",
          "name": "startTime",
          "type": "uint256"
        },
        {
          "internalType": "uint256",
          "name": "deadline",
          "type": "uint256"
        },
        {
          "internalType": "bytes",
          "name": "btcTx",
          "type": "bytes"
        },
        {
          "internalType": "bytes32",
          "name": "btcTxHash",
          "type": "bytes32"
        },
        {
          "internalType": "enum DataTypes.TransactionStatus",
          "name": "status",
          "type": "uint8"
        },
        {
          "internalType": "uint256",
          "name": "depositedFee",
          "type": "uint256"
        },
        {
          "internalType": "bytes",
          "name": "signature",
          "type": "bytes"
        },
        {
          "internalType": "address",
          "name": "compensationReceiver",
          "type": "address"
        },
        {
          "internalType": "address",
          "name": "timeoutCompensationReceiver",
          "type": "address"
        },
        {
          "internalType": "bytes",
          "name": "script",
          "type": "bytes"
        },
        {
          "internalType": "uint256",
          "name": "requestArbitrationTime",
          "type": "uint256"
        },
        {
          "internalType": "address",
          "name": "depositedFeeRefundAddress",
          "type": "address"
        }
      ],
      "stateMutability": "view",
      "type": "function"
    },
    {
      "inputs": [
        {
          "internalType": "bytes32",
          "name": "id",
          "type": "bytes32"
        }
      ],
      "name": "transferArbitrationFee",
      "outputs": [
        {
          "internalType": "uint256",
          "name": "arbitratorFee",
          "type": "uint256"
        },
        {
          "internalType": "uint256",
          "name": "systemFee",
          "type": "uint256"
        }
      ],
      "stateMutability": "nonpayable",
      "type": "function"
    },
    {
      "inputs": [
        {
          "internalType": "address",
          "name": "newOwner",
          "type": "address"
        }
      ],
      "name": "transferOwnership",
      "outputs": [],
      "stateMutability": "nonpayable",
      "type": "function"
    },
    {
      "inputs": [
        {
          "internalType": "bytes32",
          "name": "",
          "type": "bytes32"
        }
      ],
      "name": "txHashToId",
      "outputs": [
        {
          "internalType": "bytes32",
          "name": "",
          "type": "bytes32"
        }
      ],
      "stateMutability": "view",
      "type": "function"
    },
    {
      "inputs": [
        {
          "internalType": "bytes32",
          "name": "id",
          "type": "bytes32"
        },
        {
          "components": [
            {
              "internalType": "bytes32",
              "name": "txHash",
              "type": "bytes32"
            },
            {
              "internalType": "uint32",
              "name": "index",
              "type": "uint32"
            },
            {
              "internalType": "bytes",
              "name": "script",
              "type": "bytes"
            },
            {
              "internalType": "uint256",
              "name": "amount",
              "type": "uint256"
            }
          ],
          "internalType": "struct DataTypes.UTXO[]",
          "name": "utxos",
          "type": "tuple[]"
        }
      ],
      "name": "uploadUTXOs",
      "outputs": [],
      "stateMutability": "nonpayable",
      "type": "function"
    }
  ],
  "bytecode": "0x60808060405234620000bd577ff0c57e16840df040f15088dc2f81fe391c3923bec73e23a9662efc9c229c6a009081549060ff8260401c16620000ae57506001600160401b036002600160401b03198282160162000068575b604051613ced9081620000c38239f35b6001600160401b031990911681179091556040519081527fc7f505b2f371ae2175ee4913f4499e1f2633a7b5936321eed1cdaeb6115181d290602090a138808062000058565b63f92ee8a960e01b8152600490fd5b600080fdfe608080604052600436101561001357600080fd5b600090813560e01c9081630559b8771461259b575080630f6f9a1e146121925780632c7e8ca31461212c5780634aae13ca146120ed5780634e4f0ec414611d85578063520936b514611d5c578063642f2eaf14611c3c578063715018a614611bd15780637577b6df14611b94578063759787c414611b6d578063870967ec146110785780638da5cb5b146110425780639440746514610f8f578063a130312a14610e98578063a715719014610c34578063a890b7b414610bf0578063c1ce47d214610bc6578063ca0ab07514610b9d578063d09d03a314610a3d578063de0ca16614610a14578063f2fde38b146109e7578063f8c8765e146107fb5763f9a9df191461011e57600080fd5b60803660031901126107f8576101326125c0565b61013a6125ec565b610142612602565b9161014b612b06565b6001600160a01b0381161580156107e7575b80156107d6575b6107cb5760015460405163682dc82b60e11b815233600482015290602090829060249082906001600160a01b03165afa9081156107c0578591610786575b5015610748578354604051631c569df760e31b81526001600160a01b0383811660048301529091169390602081602481885afa90811561044a57869161070a575b50156106cc5742602435111561068e576101ff42602435612acc565b600254604051631c8c542360e11b81526001600160a01b0390911690602081600481855afa90811561061f57889161065c575b5060405190636dd5b69d60e01b82526004820152602081602481855afa90811561061f57889161062a575b508210918215610551575b505061052657604051630a71571960e41b81526024803560048301526001600160a01b03841690820152602081604481305afa90811561044a5786916104ef575b5080156104b157341061046f576005546102c281612af7565b6005556040519060208201904282523360601b60408401526001600160601b03198560601b16605484015260688301526068825260a08201918083106001600160401b03841117610459578791836040528151902096803b15610455576315969bed60e11b84526001600160a01b03861660a483015260c49091018790528290604490829084905af1801561044a57610432575b5060408585602097526003875220600e6001600160601b0360a01b9133838254161781556001810160018060a01b0386168482541617905542600282015560243560038201556006810160ff198154169055346007820155600981019560018060a01b0316958684825416179055019160018060a01b0316908254161790556040519160243583523485840152604083015260018060a01b031690827feb31e9cc08e6aec1724c65bd618ab8709af006b0972f1a04bba0fe0b0192142e60603393a46001600080516020613c9883398151915255604051908152f35b61043c869161286c565b6104465738610356565b8480fd5b6040513d88823e3d90fd5b8280fd5b634e487b7160e01b600052604160045260246000fd5b6104ad60405161047e816128b6565b6002815261543560f01b602082015260405191829162461bcd60e51b835260206004840152602483019061263b565b0390fd5b6104ad6040516104c0816128b6565b6002815261150d60f21b602082015260405191829162461bcd60e51b835260206004840152602483019061263b565b90506020813d60201161051e575b8161050a602093836128d1565b810103126105195751386102a9565b600080fd5b3d91506104fd565b6104ad610531612ad9565b60405162461bcd60e51b815260206004820152918291602483019061263b565b6040516358d0b14760e01b815291925090602081600481865afa801561061f5788906105ec575b60209150602460405180958193636dd5b69d60e01b835260048301525afa9182156105e15787926105ad575b50113880610268565b9091506020813d6020116105d9575b816105c9602093836128d1565b81010312610519575190386105a4565b3d91506105bc565b6040513d89823e3d90fd5b506020813d602011610617575b81610606602093836128d1565b810103126105195760209051610578565b3d91506105f9565b6040513d8a823e3d90fd5b90506020813d602011610654575b81610645602093836128d1565b8101031261051957513861025d565b3d9150610638565b90506020813d602011610686575b81610677602093836128d1565b81010312610519575138610232565b3d915061066a565b6104ad60405161069d816128b6565b6002815261543360f01b602082015260405191829162461bcd60e51b835260206004840152602483019061263b565b6104ad6040516106db816128b6565b6002815261413360f01b602082015260405191829162461bcd60e51b835260206004840152602483019061263b565b90506020813d602011610740575b81610725602093836128d1565b8101031261073c5761073690612abf565b386101e3565b8580fd5b3d9150610718565b6104ad604051610757816128b6565b6002815261221960f11b602082015260405191829162461bcd60e51b835260206004840152602483019061263b565b90506020813d6020116107b8575b816107a1602093836128d1565b81010312610446576107b290612abf565b386101a2565b3d9150610794565b6040513d87823e3d90fd5b6104ad610531612a60565b506001600160a01b03831615610164565b506001600160a01b0382161561015d565b80fd5b50346107f85760803660031901126107f8576108156125c0565b61081d6125d6565b906108266125ec565b9161082f612602565b927ff0c57e16840df040f15088dc2f81fe391c3923bec73e23a9662efc9c229c6a009283549460ff8660401c1615936001600160401b038716968715806109e0575b600180991490816109d6575b1590816109cd575b506109bb5767ffffffffffffffff198116881787558561099c575b506108a9612a7e565b6108b1612a7e565b86600080516020613c98833981519152556108ca612a7e565b6108d2612a7e565b6108db336129d1565b6001600160a01b039283169384158015610992575b8015610988575b801561097e575b6107cb578380926001600160601b0360a01b96878c5416178b551685895416178855168360025416176002551690600654161760065561093c578280f35b805468ff0000000000000000191690556040519081527fc7f505b2f371ae2175ee4913f4499e1f2633a7b5936321eed1cdaeb6115181d290602090a138808280f35b50838316156108fe565b50838116156108f7565b50838216156108f0565b68ffffffffffffffffff191668010000000000000001178655386108a0565b60405163f92ee8a960e01b8152600490fd5b90501538610885565b303b15915061087d565b5085610871565b50346107f85760203660031901126107f857610a11610a046125c0565b610a0c612998565b6129d1565b80f35b50346107f857806003193601126107f8576001546040516001600160a01b039091168152602090f35b50346107f85760403660031901126107f857600435610a5a6125d6565b6006546001600160a01b03919082163303610b9257828452600360205260408420906006820180549160ff83166006811015610b7e57600114610b735784169081156107cb57868093928193926001839460ff19161790556007860154905af1610ac2612e74565b5015610b685783828154168360018401541690803b156104555760405163cedb588b60e01b81526001600160a01b039290921660048301526024820186905282908290604490829084905af18015610b5d57610b45575b50505416907f15d1e788ed875e6f2294a51087aa5cd2e2c10c92e627eb0a6bbbfceceaa01b988380a380f35b610b4e9061286c565b610b59578338610b19565b8380fd5b6040513d84823e3d90fd5b6104ad610531612ea4565b6104ad610531612b36565b634e487b7160e01b88526021600452602488fd5b6104ad610531612e56565b50346107f857806003193601126107f8576002546040516001600160a01b039091168152602090f35b50346107f85760203660031901126107f85760406020916004358152600483522054604051908152f35b50346107f85760203660031901126107f857610c246040610c3092610c1361356b565b506004358152600360205220612ba5565b60405191829182612683565b0390f35b50346107f85760403660031901126107f857600435610c516125d6565b9042811115610e9157610c65904290612acc565b600254604051631c8c542360e11b8152602093916001600160a01b03919082168582600481845afa9182156105e1578792610e62575b50604051636dd5b69d60e01b9283825260048201528681602481855afa90811561061f578891610e35575b508510918215610d81575b5050610d7857808216908115610d4d578590815416916024604051809481936326415b0f60e21b835260048301525afa9081156107c0579060409186610d22969792610d2a575b50500151906136e0565b604051908152f35b610d4692503d8091833e610d3e81836128d1565b81019061333b565b3880610d18565b84610d56612a60565b906104ad60405192839262461bcd60e51b84526004840152602483019061263b565b83610d56612ad9565b6040516358d0b14760e01b81529192508682600481865afa90811561061f5787928992610e03575b506024906040519485938492835260048301525afa90811561044a578691610dd6575b5083113880610cd1565b90508481813d8311610dfc575b610ded81836128d1565b81010312610519575138610dcc565b503d610de3565b8381949293503d8311610e2e575b610e1b81836128d1565b8101031261051957905186916024610da9565b503d610e11565b90508681813d8311610e5b575b610e4c81836128d1565b81010312610519575138610cc6565b503d610e42565b9091508581813d8311610e8a575b610e7a81836128d1565b8101031261051957519038610c9b565b503d610e70565b5081610c65565b50346107f857602090816003193601126107f85760043580825260038352604082209060405163520936b560e01b81528160048201528481602481305afa908115610f84578491610f4f575b5015610f135781546001600160a01b03163303610f0a5790610f0591612ec2565b505080f35b83610d56612b54565b60405184610f20826128b6565b60028252610a8760f31b818301526104ad60405192839262461bcd60e51b84526004840152602483019061263b565b90508481813d8311610f7d575b610f6681836128d1565b81010312610b5957610f7790612abf565b38610ee4565b503d610f5c565b6040513d86823e3d90fd5b50346107f85760203660031901126107f85760043581526003602052610fb760408220612ba5565b60c081015191600683101561101857821580611035575b61102c575b60068310156110185750600282149081611008575b50611000575b602090610ffe6040518092612660565bf35b506003610fee565b6110129150612dc3565b38610fe8565b634e487b7160e01b81526021600452602490fd5b60039250610fd3565b5060608201514211610fce565b50346107f857806003193601126107f857600080516020613c78833981519152546040516001600160a01b039091168152602090f35b50346107f85760a03660031901126107f8576024356001600160401b038111611b69576110a9903690600401612805565b60036044939293351015611b69576064356001600160401b038111610455576110d6903690600401612805565b939092608435906001600160a01b0382168203610519576110f5612b06565b6001600160a01b038216156107cb5760043581526003602052604081209360068501549260ff84166006811015611b5557610b735785546001600160a01b03163303611b4a57600b860154968715611b0c57600254604051632b6f600d60e01b815290602090829060049082906001600160a01b03165afa80156107c0578590611ad8575b611185915042612db6565b600388015410611a9a57600160443503611a5c57604051978860a08101106001600160401b0360a08b0111176104595760a08901604052848952606060208a0152606060408a01528460608a01528460808a015283600411611959576111ec36858961378f565b61121681516004111560405190611202826128b6565b6002825261553560f01b6020830152613a2a565b8051600310156119a35763ff000000602382015160e01c168151600210156119a35760228201518251600110156119a3576021830151918351156119a35762ff000061ff00602063ffffffff96015160f81c9460f01c169260e81c1617171716895283602411611959578360441161195957604051611294816128b6565b60018152855b60208110611a2c575060208a015283606411611959576040516112bc816128b6565b6020815260203681830137855b602081106119cb57506020815191015190602081106119b9575b506112f160208b0151613529565b5152836068116119595761130636858961378f565b61131c81516068111560405190611202826128b6565b8051606710156119a35763ff000000608782015160e01c168151606610156119a35762ff0000608683015160e81c16178151606510156119a35761ff00608583015160f01c1617908051606410156119a3576084015160f81c1763ffffffff6020611389818d0151613529565b51019116905261139984886137ea565b908160680160681161198d57856113b38284606801612db6565b11611959578160206113f98d60406113ef6113e58f8d906113da8a6114039c606801612db6565b9189606801916137c6565b9590930151613529565b510192369161378f565b9052606801612db6565b6008810181116119645784600882011161195957600c810160088201116119645784600c8201116119595761143936868a61378f565b6114518151600c8401111560405190611202826128b6565b600b820180600884011161198d5761146e63ff0000009183613a56565b5160e01c16600a830180600885011161198d5761148f62ff00009184613a56565b5160e81c16179060098301600884011161198d5760606114e4602063ffffffff938f956114d79061ff006114c660098b0185613a56565b5160f01c1617916008890190613a56565b5160f81c17940151613529565b510191169052602c8101600c8201116119645784602c8201116119595760308101602c82011161196457846030820111611959578061152c6030809301602c8301888c6137c6565b6001600160e01b031991358281169160048110611978575b505060e01c60608d015250603481019101811061196457840361195957602089015151036115b257835b602089015180518210156115f5578161158691613536565b515161159582600b8b01612b72565b5054148015906115bd575b6115b2576115ad90612af7565b61156e565b6104ad61053161350b565b5063ffffffff60206115d283828d0151613536565b5101511663ffffffff60016115ea84600b8d01612b72565b5001541614156115a0565b50508886886020876040518885823780898101838152039060025afa1561044a576020876116448151604051848101918252848152611633816128b6565b604051928392839251928391612618565b8101039060025afa1561044a57600287519860ff19161760068201556001600160401b03861161188c5761167b6004820154612832565b601f8111611915575b508587601f82116001146118ab5788916118a0575b508660011b906000198860031b1c19161760048201555b60058101889055600a810180546001600160a01b0319166001600160a01b0387161790556001600160401b03831161188c576116ef600c820154612832565b601f8111611848575b508697601f84116001146117d2579061176b929184899a61177998999a916117c7575b508560011b906000198760031b1c191617600c8301555b42600d8301558952600460205260043560408a20556001808060a01b03910154169660405197885260806020890152608088019161354a565b91858303604087015261354a565b9060018060a01b031660608301527f81c89bbce5115bf315ea29f7001ebabb88f6d3e4d76132bf792f2085799ed0e4339280600435930390a36001600080516020613c988339815191525580f35b90508601358b61171b565b600c8201885260208820885b601f198616811061183057509061176b9392916117799798999a86601f19811610611816575b5050600185811b01600c830155611732565b870135600019600388901b60f8161c191690558a80611804565b868b0135825560209a8b019a600190920191016117de565b600c8201885260208820601f850160051c810160208610611885575b601f830160051c8201811061187a5750506116f8565b898155600101611864565b5080611864565b634e487b7160e01b87526041600452602487fd5b905082013589611699565b600483018952602089209150885b601f19891681106118fd575087601f198116106118e3575b5050600186811b0160048201556116b0565b830135600019600389901b60f8161c1916905588806118d1565b909160206001819285880135815501930191016118b9565b60048201885260208820601f880160051c810160208910611952575b601f830160051c82018110611947575050611684565b898155600101611931565b5080611931565b6104ad610531613771565b634e487b7160e01b86526011600452602486fd5b8391925060040360031b1b1616803880611544565b634e487b7160e01b600052601160045260246000fd5b634e487b7160e01b600052603260045260246000fd5b6000199060200360031b1b16386112e3565b601f8082810311611a185760208282031015611a0457906119ff918160448c013591031a6119f98285613a56565b53612af7565b6112c9565b634e487b7160e01b88526032600452602488fd5b634e487b7160e01b88526011600452602488fd5b602090604051611a3b8161287f565b8881528883820152606060408201528860608201528282850101520161129a565b6104ad604051611a6b816128b6565b60028152610aa760f31b602082015260405191829162461bcd60e51b835260206004840152602483019061263b565b6104ad604051611aa9816128b6565b6002815261553760f01b602082015260405191829162461bcd60e51b835260206004840152602483019061263b565b506020813d602011611b04575b81611af2602093836128d1565b8101031261051957611185905161117a565b3d9150611ae5565b6104ad604051611b1b816128b6565b6002815261553360f01b602082015260405191829162461bcd60e51b835260206004840152602483019061263b565b6104ad610531612b54565b634e487b7160e01b84526021600452602484fd5b5080fd5b50346107f857806003193601126107f857546040516001600160a01b039091168152602090f35b50346107f85760203660031901126107f8576006546001600160a01b03163303610b92576040611bc56004356135de565b82519182526020820152f35b50346107f857806003193601126107f857611bea612998565b600080516020613c7883398151915280546001600160a01b031981169091556000906001600160a01b03167f8be0079c531659141344cd1fd0a4f28419497f9722a3daafe3b4186f6b6457e08280a380f35b50346107f85760203660031901126107f857600480358252600360208190526040909220805460018201546002830154948301546001600160a01b039182169592821694611c8b9085016128f2565b906005850154600686015460ff1690600787015460088801611cac906128f2565b928660098a0154169587600a8b01541695600c8b01611cca906128f2565b98600d8c01549b600e015416996040519d8e809e81526020015260408d015260608c01526101c08060808d01528b01611d029161263b565b9260a08b015260c08a01611d1591612660565b60e0890152878103610100890152611d2c9161263b565b91610120870152610140860152848103610160860152611d4b9161263b565b916101808401526101a08301520390f35b50346107f85760203660031901126107f8576020611d7b600435612d24565b6040519015158152f35b50346107f85760403660031901126107f8576024356001600160401b038111611b6957611db6903690600401612805565b6004358352600360205260408320600681015460ff811660068110156120d957600203610b7357611dee611de983612ba5565b612dc3565b61209b578454600183810154604051630e70978b60e21b81526001600160a01b03918216600482015233602482015291939260209183916044918391165afa9081156105e157879161205d575b5015611b4a57611e4b8486613a67565b1561201f5760ff191660051760068301556001600160401b03831161200b57849060088301611e7a8154612832565b601f8111611fbd575b508483601f8211600114611f59578491611f4e575b50600019600387901b1c191685831b1790555b8154908301546001600160a01b039081169116803b156104555760248392604051948593849263069fa0a760e51b845260048401525af180156107c057611f3b575b5060018060a01b03905416907fc3087094b1ca79d1b0196cfe915c3153df5266eba37502790ddfc1e3532d35596040516020815280611f35339660043595602084019161354a565b0390a480f35b611f479094919461286c565b9238611eed565b905086013538611e98565b828552602085209150845b601f1988168110611fa4575086601f19811610611f8a575b50508185811b019055611eab565b870135600019600388901b60f8161c191690553880611f7c565b8882013583558995509184019160209182019101611f64565b908092935260208720601f860160051c81019160208710612001575b90601f89959493920160051c01905b818110611ff55750611e83565b93845587938301611fe8565b9091508190611fd9565b634e487b7160e01b85526041600452602485fd5b6104ad60405161202e816128b6565b6002815261553960f01b602082015260405191829162461bcd60e51b835260206004840152602483019061263b565b90506020813d602011612093575b81612078602093836128d1565b8101031261208f5761208990612abf565b38611e3b565b8680fd5b3d915061206b565b6104ad6040516120aa816128b6565b6002815261543960f01b602082015260405191829162461bcd60e51b835260206004840152602483019061263b565b634e487b7160e01b86526021600452602486fd5b50346107f85760203660031901126107f857610c246040610c309261211061356b565b5060043581526004602052818120548152600360205220612ba5565b50346107f85760203660031901126107f8576121466125c0565b61214e612998565b81546001600160a01b0319166001600160a01b039190911690811782557fa323f9f93bbee02edb5e1034969f6ef41fb674527d2ea7e9271ad206435b58f48280a280f35b50346107f85760403660031901126107f8576001600160401b03602435116107f8573660236024350112156107f8576001600160401b0360243560040135116107f85736602480356004013560051b81350101116107f8576001602435600401350361255d57600435815260036020526040812060ff600682015416600681101561254957610b735780546001600160a01b03163303611b4a57600b81015461250b57815b6024356004013581106122705782336004357fbe870ee46d1946169135a006725f4beb7bf05701d38e45b8d0e55892fabff1d98380a380f35b60248160051b813501013560a219602435360301811215610b5957600b8301546801000000000000000081101561200b578060016122b79201600b860155600b8501612b72565b9190916124f757602481813501013582556001820160448260243501013563ffffffff811680910361208f57815463ffffffff1916179055602435810136819003604219016064909101351215610446576001600160401b03602480358301606481013501013511610446576024803582016064810135019081013536036044909101136104465761234c6002830154612832565b601f81116124a5575b50846001601f602480358501606481013501013511146123e6576123c993929160039160849190889060248035840160648101350101356123ce575b50600019602480358401606481013501013580861b9190911c1990911660019190911b1760028501555b602435010135910155612af7565b612237565b60243583016064810135010160440135905038612391565b6002830186526020862090865b6024803585016064810135010135601f1916811061248057506123c99493926003926084926024803584016064810135010135601f19811610612451575b50506024803582016064810135010135600190811b0160028501556123bb565b602480358401606481013501918201604401356000199290910135861b60f8169190911c191690553880612431565b60243584016064810135018201604401358355600190920191602091820191016123f3565b6002830186526020808720906024803585016064810135010135601f810160051c830191116124f0575b601f830160051c820181106124e5575050612355565b8781556001016124cf565b50806124cf565b634e487b7160e01b85526004859052602485fd5b6104ad60405161251a816128b6565b60028152612a9960f11b602082015260405191829162461bcd60e51b835260206004840152602483019061263b565b634e487b7160e01b83526021600452602483fd5b6104ad60405161256c816128b6565b6002815261055360f41b602082015260405191829162461bcd60e51b835260206004840152602483019061263b565b905034611b695781600319360112611b69576006546001600160a01b03168152602090f35b600435906001600160a01b038216820361051957565b602435906001600160a01b038216820361051957565b604435906001600160a01b038216820361051957565b606435906001600160a01b038216820361051957565b60005b83811061262b5750506000910152565b818101518382015260200161261b565b9060209161265481518092818552858086019101612618565b601f01601f1916010190565b90600682101561266d5752565b634e487b7160e01b600052602160045260246000fd5b60209182825260018060a01b038082511684840152808483015116916040928385015283838201519360609485830152848301516080908184015280840151956126db6101e0978860a087015261020086019061263b565b9860a086015160c08601526126f860c087015160e0870190612660565b60e086015161010090818701528601518780612725601f199d8e946101209a8b878285030191015261263b565b978901511661014090818d01528801511661016090818c01528701519461018094828c890301868d01528651948589528489019285808860051b8c01019901996000955b8887106127a85750505050505050505061279292508301516101a097878303018888015261263b565b94810151906101c0918286015201511691015290565b96808b83949596979899600194839c9d9e030189528d51908151815263ffffffff83830151168382015287806127e9898501518c8b8601528c85019061263b565b9301519101529c0196019601949998979695939291908f612769565b9181601f84011215610519578235916001600160401b038311610519576020838186019501011161051957565b90600182811c92168015612862575b602083101461284c57565b634e487b7160e01b600052602260045260246000fd5b91607f1691612841565b6001600160401b03811161045957604052565b608081019081106001600160401b0382111761045957604052565b6101e081019081106001600160401b0382111761045957604052565b604081019081106001600160401b0382111761045957604052565b90601f801991011681019081106001600160401b0382111761045957604052565b906040519182600082549261290684612832565b9081845260019485811690816000146129755750600114612932575b5050612930925003836128d1565b565b9093915060005260209081600020936000915b81831061295d57505061293093508201013880612922565b85548884018501529485019487945091830191612945565b91505061293094506020925060ff191682840152151560051b8201013880612922565b600080516020613c78833981519152546001600160a01b031633036129b957565b60405163118cdaa760e01b8152336004820152602490fd5b6001600160a01b03908116908115612a2c57600080516020613c7883398151915280546001600160a01b031981168417909155167f8be0079c531659141344cd1fd0a4f28419497f9722a3daafe3b4186f6b6457e0600080a3565b604051631e4fbdf760e01b815260006004820152602490fd5b6001600160401b03811161045957601f01601f191660200190565b60405190612a6d826128b6565b600282526105a360f41b6020830152565b60ff7ff0c57e16840df040f15088dc2f81fe391c3923bec73e23a9662efc9c229c6a005460401c1615612aad57565b604051631afcd79f60e31b8152600490fd5b5190811515820361051957565b9190820391821161198d57565b60405190612ae6826128b6565b6002825261493160f01b6020830152565b600019811461198d5760010190565b600080516020613c988339815191526002815414612b245760029055565b604051633ee5aeb560e01b8152600490fd5b60405190612b43826128b6565b60028252612a1960f11b6020830152565b60405190612b61826128b6565b600282526104e360f41b6020830152565b80548210156119a35760005260206000209060021b0190600090565b6001600160401b0381116104595760051b60200190565b906040805190612bb48261289a565b819360018060a01b0391828254168452600183818401541660209081870152600280850154848801526003938486015492606093848a0152600492612bfa8489016128f2565b60808b0152600588015460a08b015260ff6006890154166006811015612d0f5760c08b0152600788015460e08b015291612c36600889016128f2565b6101008b0152886009890154166101208b015288600a890154166101408b0152600b880192835495612c6787612b8e565b98612c7484519a8b6128d1565b878a52600095865284862093858b015b898810612cc95750505050505050505050506101c09291600e91610160860152612cb0600c82016128f2565b610180860152600d8101546101a0860152015416910152565b88878c928451612cd88161287f565b8954815263ffffffff858b01541683820152612cf5898b016128f2565b86820152868a015488820152815201960197019694612c84565b602185634e487b7160e01b6000525260246000fd5b60009081526003602052612d3a60408220612ba5565b60c081019081516006811015611b5557612d5657505050600190565b81516006811015611b5557600203612d7f57612d729150612dc3565b612d795790565b50600190565b50516006811015612d9457600514612d795790565b634e487b7160e01b82526021600452602482fd5b600401908160041161198d57565b9190820180921161198d57565b60608101514211612d7957600254604051632b6f600d60e01b815290602090829060049082906001600160a01b03165afa908115612e4a57600091612e17575b506101a0612e12920151612db6565b421190565b906020823d8211612e42575b81612e30602093836128d1565b810103126107f85750516101a0612e03565b3d9150612e23565b6040513d6000823e3d90fd5b60405190612e63826128b6565b60028252614e3760f01b6020830152565b3d15612e9f573d90612e8582612a45565b91612e9360405193846128d1565b82523d6000602084013e565b606090565b60405190612eb1826128b6565b6002825261463160f01b6020830152565b9190602490612ed081612ba5565b9360009160018060a01b0390818454166020978881019084825116918760409485519a8b80926326415b0f60e21b8252600497888301525afa9889156132d85788996132b8575b50612f48908660608401805142116000146132a4575184870151612f3a91612acc565b915b5116858b0151906136e0565b9060e0810198895180841161329c575b50600254855163286e9cd160e21b81529088169a908d8187818f5afa908115613262578c918f918d9161326c575b506024895180948193636dd5b69d60e01b83528b8301525afa908115613262578e959493929187918d91613221575b50612fc090866134f8565b61271090049e8f612fd19087612acc565b9d89519283809263045b2b8560e51b82525afa908115613217578f90918d9283916131d2575b5082809281925af1613007612e74565b50156131c4579088918b80808f81906101c0809701978851165af161302a612e74565b50156131b6578493928f928d906130448e988e9551612acc565b958661315d575b50505091606093917f0e6f7005813080ec5f9df085ae1a9ee5221216f7746e432f210b6ce161e681659593511696895193845283015287820152a383865416908460018501541690823b1561315957835163cedb588b60e01b81526001600160a01b0390921690820190815260208101879052909291879184919082908490829060400103925af1908115613150575061311b575b5060068101805460ff191660011790555416917f15d1e788ed875e6f2294a51087aa5cd2e2c10c92e627eb0a6bbbfceceaa01b989080a39190565b936131487f15d1e788ed875e6f2294a51087aa5cd2e2c10c92e627eb0a6bbbfceceaa01b9893929561286c565b9390916130e0565b513d87823e3d90fd5b8780fd5b8697985082955093829491839497920151165af1613179612e74565b501561318d57908c888a94938c388061304b565b83856104ad8861319b612ea4565b905193849362461bcd60e51b8552840152602483019061263b565b85876104ad8a61319b612ea4565b84866104ad8961319b612ea4565b925050508581813d8311613210575b6131eb81836128d1565b8101031261320c578b8f8180939161320382936132e2565b92509250612ff7565b8b80fd5b503d6131e1565b88513d8e823e3d90fd5b92939495968092508391503d831161325b575b61323e81836128d1565b81010312613257579085612fc08f969594935190612fb5565b8a80fd5b503d613234565b87513d8d823e3d90fd5b92505081813d8311613295575b61328381836128d1565b81010312613257578d8c915138612f86565b503d613279565b925038612f58565b506132b28685015142612acc565b91612f3c565b612f489199506132d1903d808b833e610d3e81836128d1565b9890612f17565b84513d8a823e3d90fd5b51906001600160a01b038216820361051957565b81601f8201121561051957805161330c81612a45565b9261331a60405194856128d1565b81845260208284010111610519576133389160208085019101612618565b90565b60209182828203126105195781516001600160401b0392838211610519570191610200938484840312610519576040519485018581108382111761045957604052613385846132e2565b8552613392818501612abf565b818601526040840151604086015260608401516060860152608084015160808601526133c060a085016132e2565b60a08601526133d160c085016132e2565b60c086015260e08401518281116105195784019083601f83011215610519578151916133fc83612b8e565b9261340a60405194856128d1565b808452828085019160051b83010191868311610519578301905b8282106134e9575050505060e08501526101006134428185016132e2565b908501526101208084015182811161051957836134609186016132f6565b9085015261014080840151828111610519578361347e9186016132f6565b9085015261016080840151908501526101808084015182811161051957836134a79186016132f6565b908501526101a09182840151918211610519576134c59184016132f6565b908301526101c06134d78183016132e2565b908301526101e0809101519082015290565b81518152908301908301613424565b8181029291811591840414171561198d57565b60405190613518826128b6565b6002825261553160f01b6020830152565b8051156119a35760200190565b80518210156119a35760209160051b010190565b908060209392818452848401376000828201840152601f01601f1916010190565b604051906135788261289a565b816101c0600091828152826020820152826040820152826060820152606060808201528260a08201528260c08201528260e08201526060610100820152826101208201528261014082015260606101608201526060610180820152826101a08201520152565b90600082815260209260038452604082209160ff60068401541690600682101561101857811591826136d2575b8215613631575b50501561362857613624929350612ec2565b9091565b83610d56612b36565b600514915081613644575b503880613612565b80546001850154604051632911125160e01b81526001600160a01b039182166004820152929350879183916024918391165afa9182156136c657809261368e575b5050153861363c565b9091508582813d83116136bf575b6136a681836128d1565b810103126107f857506136b890612abf565b3880613685565b503d61369c565b604051903d90823e3d90fd5b60038501544211925061360b565b60005460405163014f6b1960e41b81526001600160a01b0392831660048201529293929160209183916024918391165afa908115612e4a5760009161373e575b509161373561373a9264496cebb800946134f8565b6134f8565b0490565b906020823d8211613769575b81613757602093836128d1565b810103126107f8575051613735613720565b3d915061374a565b6040519061377e826128b6565b6002825261543760f01b6020830152565b92919261379b82612a45565b916137a960405193846128d1565b829481845281830111610519578281602093846000960137010152565b90939293848311610519578411610519578101920390565b908210156119a3570190565b90806068101561195957606882013560f81c9160fc83101561380e57505090600190565b909160fd8103613885575081606b116119595761382c91369161378f565b6138568151606b111560405190613842826128b6565b6002825261154d60f21b6020830152613a2a565b8051606a10156119a35761ff00608a82015160f01c16908051606910156119a3576089015160f81c1790600390565b60fe0361391b5781606d116119595761389f91369161378f565b6138b58151606d111560405190611202826128b6565b8051606c10156119a35763ff000000608c82015160e01c168151606b10156119a35762ff0000608b83015160e81c16178151606a10156119a35761ff00608a83015160f01c16178151606910156119a357608963ffffffff92015160f81c171690600590565b816071116119595761392e91369161378f565b61395881516071111560405190613944826128b6565b60028252612a9b60f11b6020830152613a2a565b8051607010156119a35767ff00000000000000609082015160c01c16908051606f10156119a35766ff000000000000608f82015160c81c168151606e10156119a35765ff0000000000608e83015160d01c168251606d10156119a35764ff00000000608d84015160d81c168351606c10156119a35763ff000000608c85015160e01c16918451606b10156119a35762ff0000608b86015160e81c16938551606a10156119a35761ff00608a87015160f01c16958051606910156119a3576089015160f81c961717171717171790600990565b15613a325750565b60405162461bcd60e51b8152602060048201529081906104ad90602483019061263b565b9081518110156119a3570160200190565b9060088110613c705780156119a35760f860308335821c03613c6857600192828410156119a35783810135821c9260029283850180861161198d578203613c5d57818410156119a3578380840135821c03613c5d5781600310156119a3576003830135811c918215613c0f57602183118015613c4b575b613c0f5786831180613c34575b80613c1b575b613c0f57613afe83612da8565b9185613b0b8484886137de565b35821c03613c025787830180841161198d57613b289083876137de565b35811c948515613bd857602186118015613be6575b613bd8578886119384613bb7575b84613b8e575b50505050613b845780830180931161198d5760040180921161198d57613b7691612db6565b03613b7e5790565b50600090565b5050505050600090565b90919293506003810180911161198d57608093613baa926137de565b35901c1038808080613b51565b935086840180851161198d57613bce9084836137de565b35821c1593613b4b565b505050505050505050600090565b5086840180851161198d57613bfc878592612db6565b11613b3d565b5050505050505050600090565b50505050505050600090565b5080600510156119a35760806005850135831c10613af1565b5080600410156119a3576004840135821c15613aeb565b5080613c5684612da8565b1015613ade565b505050505050600090565b505050600090565b505060009056fe9016d09d72d40fdae2fd8ceac6b6234c7706214fd39c1cd1e609a0528c1993009b779b17422d0df92223018b32b4d1fa46e071723d6817e2486d003becc55f00a2646970667358221220c56e8aed8eb956f5cb9daf163f9699cbac822cb418abc70f1ccc82f473e3a61864736f6c63430008140033",
  "linkReferences": {},
  "deployedLinkReferences": {}
}