{
  "_format": "hh-sol-artifact-1",
  "contractName": "TransactionManager",
  "sourceName": "contracts/core/TransactionManager.sol",
  "abi": [
    {
      "inputs": [],
      "stateMutability": "nonpayable",
      "type": "constructor"
    },
    {
      "inputs": [],
      "name": "ARBITRATOR_FROZEN",
      "type": "error"
    },
    {
      "inputs": [],
      "name": "ARBITRATOR_NOT_ACTIVE",
      "type": "error"
    },
    {
      "inputs": [],
      "name": "CANNOT_COMPLETE_TRANSACTION",
      "type": "error"
    },
    {
      "inputs": [],
      "name": "DAPP_NOT_ACTIVE",
      "type": "error"
    },
    {
      "inputs": [],
      "name": "INSUFFICIENT_FEE",
      "type": "error"
    },
    {
      "inputs": [],
      "name": "INVALID_BTC_TX",
      "type": "error"
    },
    {
      "inputs": [],
      "name": "INVALID_DEADLINE",
      "type": "error"
    },
    {
      "inputs": [],
      "name": "INVALID_DURATION",
      "type": "error"
    },
    {
      "inputs": [],
      "name": "INVALID_FEE",
      "type": "error"
    },
    {
      "inputs": [],
      "name": "INVALID_TRANSACTION",
      "type": "error"
    },
    {
      "inputs": [],
      "name": "INVALID_TRANSACTION_STATUS",
      "type": "error"
    },
    {
      "inputs": [],
      "name": "INVALID_UTXO",
      "type": "error"
    },
    {
      "inputs": [],
      "name": "InvalidInitialization",
      "type": "error"
    },
    {
      "inputs": [],
      "name": "NOT_AUTHORIZED",
      "type": "error"
    },
    {
      "inputs": [],
      "name": "NOT_COMPENSATION_MANAGER",
      "type": "error"
    },
    {
      "inputs": [],
      "name": "NOT_INITIALIZED",
      "type": "error"
    },
    {
      "inputs": [],
      "name": "NO_RECEIVE_METHOD",
      "type": "error"
    },
    {
      "inputs": [],
      "name": "NotInitializing",
      "type": "error"
    },
    {
      "inputs": [
        {
          "internalType": "address",
          "name": "owner",
          "type": "address"
        }
      ],
      "name": "OwnableInvalidOwner",
      "type": "error"
    },
    {
      "inputs": [
        {
          "internalType": "address",
          "name": "account",
          "type": "address"
        }
      ],
      "name": "OwnableUnauthorizedAccount",
      "type": "error"
    },
    {
      "inputs": [],
      "name": "ReentrancyGuardReentrantCall",
      "type": "error"
    },
    {
      "inputs": [],
      "name": "SUBMITTED_SIGNATURES_OUTTIME",
      "type": "error"
    },
    {
      "inputs": [],
      "name": "TRANSACTION_NOT_FOUND",
      "type": "error"
    },
    {
      "inputs": [],
      "name": "TRANSFER_FAILED",
      "type": "error"
    },
    {
      "inputs": [],
      "name": "ZERO_ADDRESS",
      "type": "error"
    },
    {
      "anonymous": false,
      "inputs": [
        {
          "indexed": true,
          "internalType": "address",
          "name": "dapp",
          "type": "address"
        },
        {
          "indexed": true,
          "internalType": "bytes32",
          "name": "txId",
          "type": "bytes32"
        },
        {
          "indexed": false,
          "internalType": "bytes",
          "name": "btcTx",
          "type": "bytes"
        },
        {
          "indexed": false,
          "internalType": "bytes",
          "name": "script",
          "type": "bytes"
        },
        {
          "indexed": false,
          "internalType": "address",
          "name": "arbitrator",
          "type": "address"
        }
      ],
      "name": "ArbitrationRequested",
      "type": "event"
    },
    {
      "anonymous": false,
      "inputs": [
        {
          "indexed": true,
          "internalType": "address",
          "name": "dapp",
          "type": "address"
        },
        {
          "indexed": true,
          "internalType": "bytes32",
          "name": "txId",
          "type": "bytes32"
        }
      ],
      "name": "ArbitrationSubmitted",
      "type": "event"
    },
    {
      "anonymous": false,
      "inputs": [
        {
          "indexed": true,
          "internalType": "address",
          "name": "compensationManager",
          "type": "address"
        }
      ],
      "name": "CompensationManagerInitialized",
      "type": "event"
    },
    {
      "anonymous": false,
      "inputs": [
        {
          "indexed": false,
          "internalType": "uint64",
          "name": "version",
          "type": "uint64"
        }
      ],
      "name": "Initialized",
      "type": "event"
    },
    {
      "anonymous": false,
      "inputs": [
        {
          "indexed": true,
          "internalType": "address",
          "name": "previousOwner",
          "type": "address"
        },
        {
          "indexed": true,
          "internalType": "address",
          "name": "newOwner",
          "type": "address"
        }
      ],
      "name": "OwnershipTransferred",
      "type": "event"
    },
    {
      "anonymous": false,
      "inputs": [
        {
          "indexed": true,
          "internalType": "address",
          "name": "arbitratorManager",
          "type": "address"
        }
      ],
      "name": "SetArbitratorManager",
      "type": "event"
    },
    {
      "anonymous": false,
      "inputs": [
        {
          "indexed": true,
          "internalType": "bytes32",
          "name": "id",
          "type": "bytes32"
        }
      ],
      "name": "TransactionCancelled",
      "type": "event"
    },
    {
      "anonymous": false,
      "inputs": [
        {
          "indexed": true,
          "internalType": "address",
          "name": "dapp",
          "type": "address"
        },
        {
          "indexed": true,
          "internalType": "bytes32",
          "name": "txId",
          "type": "bytes32"
        }
      ],
      "name": "TransactionCompleted",
      "type": "event"
    },
    {
      "anonymous": false,
      "inputs": [
        {
          "indexed": true,
          "internalType": "bytes32",
          "name": "id",
          "type": "bytes32"
        },
        {
          "indexed": true,
          "internalType": "address",
          "name": "sender",
          "type": "address"
        },
        {
          "indexed": true,
          "internalType": "address",
          "name": "arbitrator",
          "type": "address"
        }
      ],
      "name": "TransactionCreated",
      "type": "event"
    },
    {
      "anonymous": false,
      "inputs": [
        {
          "indexed": true,
          "internalType": "bytes32",
          "name": "id",
          "type": "bytes32"
        },
        {
          "indexed": true,
          "internalType": "address",
          "name": "dapp",
          "type": "address"
        },
        {
          "indexed": true,
          "internalType": "address",
          "name": "arbitrator",
          "type": "address"
        },
        {
          "indexed": false,
          "internalType": "uint256",
          "name": "deadline",
          "type": "uint256"
        },
        {
          "indexed": false,
          "internalType": "uint256",
          "name": "depositFee",
          "type": "uint256"
        }
      ],
      "name": "TransactionRegistered",
      "type": "event"
    },
    {
      "inputs": [],
      "name": "arbitratorManager",
      "outputs": [
        {
          "internalType": "contract IArbitratorManager",
          "name": "",
          "type": "address"
        }
      ],
      "stateMutability": "view",
      "type": "function"
    },
    {
      "inputs": [],
      "name": "compensationManager",
      "outputs": [
        {
          "internalType": "address",
          "name": "",
          "type": "address"
        }
      ],
      "stateMutability": "view",
      "type": "function"
    },
    {
      "inputs": [
        {
          "internalType": "bytes32",
          "name": "id",
          "type": "bytes32"
        }
      ],
      "name": "completeTransaction",
      "outputs": [],
      "stateMutability": "nonpayable",
      "type": "function"
    },
    {
      "inputs": [
        {
          "internalType": "bytes32",
          "name": "id",
          "type": "bytes32"
        },
        {
          "internalType": "address",
          "name": "receivedCompensationAddress",
          "type": "address"
        }
      ],
      "name": "completeTransactionWithSlash",
      "outputs": [],
      "stateMutability": "nonpayable",
      "type": "function"
    },
    {
      "inputs": [],
      "name": "configManager",
      "outputs": [
        {
          "internalType": "contract ConfigManager",
          "name": "",
          "type": "address"
        }
      ],
      "stateMutability": "view",
      "type": "function"
    },
    {
      "inputs": [],
      "name": "dappRegistry",
      "outputs": [
        {
          "internalType": "contract IDAppRegistry",
          "name": "",
          "type": "address"
        }
      ],
      "stateMutability": "view",
      "type": "function"
    },
    {
      "inputs": [
        {
          "internalType": "uint256",
          "name": "deadline",
          "type": "uint256"
        },
        {
          "internalType": "address",
          "name": "arbitrator",
          "type": "address"
        }
      ],
      "name": "getRegisterTransactionFee",
      "outputs": [
        {
          "internalType": "uint256",
          "name": "fee",
          "type": "uint256"
        }
      ],
      "stateMutability": "view",
      "type": "function"
    },
    {
      "inputs": [
        {
          "internalType": "bytes32",
          "name": "txHash",
          "type": "bytes32"
        }
      ],
      "name": "getTransaction",
      "outputs": [
        {
          "components": [
            {
              "internalType": "address",
              "name": "dapp",
              "type": "address"
            },
            {
              "internalType": "address",
              "name": "arbitrator",
              "type": "address"
            },
            {
              "internalType": "uint256",
              "name": "startTime",
              "type": "uint256"
            },
            {
              "internalType": "uint256",
              "name": "deadline",
              "type": "uint256"
            },
            {
              "internalType": "bytes",
              "name": "btcTx",
              "type": "bytes"
            },
            {
              "internalType": "bytes32",
              "name": "btcTxHash",
              "type": "bytes32"
            },
            {
              "internalType": "enum DataTypes.TransactionStatus",
              "name": "status",
              "type": "uint8"
            },
            {
              "internalType": "uint256",
              "name": "depositedFee",
              "type": "uint256"
            },
            {
              "internalType": "bytes",
              "name": "signature",
              "type": "bytes"
            },
            {
              "internalType": "address",
              "name": "compensationReceiver",
              "type": "address"
            },
            {
              "internalType": "address",
              "name": "timeoutCompensationReceiver",
              "type": "address"
            },
            {
              "components": [
                {
                  "internalType": "bytes32",
                  "name": "txHash",
                  "type": "bytes32"
                },
                {
                  "internalType": "uint32",
                  "name": "index",
                  "type": "uint32"
                },
                {
                  "internalType": "bytes",
                  "name": "script",
                  "type": "bytes"
                },
                {
                  "internalType": "uint256",
                  "name": "amount",
                  "type": "uint256"
                }
              ],
              "internalType": "struct DataTypes.UTXO[]",
              "name": "utxos",
              "type": "tuple[]"
            },
            {
              "internalType": "bytes",
              "name": "script",
              "type": "bytes"
            }
          ],
          "internalType": "struct DataTypes.Transaction",
          "name": "",
          "type": "tuple"
        }
      ],
      "stateMutability": "view",
      "type": "function"
    },
    {
      "inputs": [
        {
          "internalType": "bytes32",
          "name": "id",
          "type": "bytes32"
        }
      ],
      "name": "getTransactionById",
      "outputs": [
        {
          "components": [
            {
              "internalType": "address",
              "name": "dapp",
              "type": "address"
            },
            {
              "internalType": "address",
              "name": "arbitrator",
              "type": "address"
            },
            {
              "internalType": "uint256",
              "name": "startTime",
              "type": "uint256"
            },
            {
              "internalType": "uint256",
              "name": "deadline",
              "type": "uint256"
            },
            {
              "internalType": "bytes",
              "name": "btcTx",
              "type": "bytes"
            },
            {
              "internalType": "bytes32",
              "name": "btcTxHash",
              "type": "bytes32"
            },
            {
              "internalType": "enum DataTypes.TransactionStatus",
              "name": "status",
              "type": "uint8"
            },
            {
              "internalType": "uint256",
              "name": "depositedFee",
              "type": "uint256"
            },
            {
              "internalType": "bytes",
              "name": "signature",
              "type": "bytes"
            },
            {
              "internalType": "address",
              "name": "compensationReceiver",
              "type": "address"
            },
            {
              "internalType": "address",
              "name": "timeoutCompensationReceiver",
              "type": "address"
            },
            {
              "components": [
                {
                  "internalType": "bytes32",
                  "name": "txHash",
                  "type": "bytes32"
                },
                {
                  "internalType": "uint32",
                  "name": "index",
                  "type": "uint32"
                },
                {
                  "internalType": "bytes",
                  "name": "script",
                  "type": "bytes"
                },
                {
                  "internalType": "uint256",
                  "name": "amount",
                  "type": "uint256"
                }
              ],
              "internalType": "struct DataTypes.UTXO[]",
              "name": "utxos",
              "type": "tuple[]"
            },
            {
              "internalType": "bytes",
              "name": "script",
              "type": "bytes"
            }
          ],
          "internalType": "struct DataTypes.Transaction",
          "name": "",
          "type": "tuple"
        }
      ],
      "stateMutability": "view",
      "type": "function"
    },
    {
      "inputs": [
        {
          "internalType": "address",
          "name": "_compensationManager",
          "type": "address"
        }
      ],
      "name": "initCompensationManager",
      "outputs": [],
      "stateMutability": "nonpayable",
      "type": "function"
    },
    {
      "inputs": [
        {
          "internalType": "address",
          "name": "_arbitratorManager",
          "type": "address"
        },
        {
          "internalType": "address",
          "name": "_dappRegistry",
          "type": "address"
        },
        {
          "internalType": "address",
          "name": "_configManager",
          "type": "address"
        }
      ],
      "name": "initialize",
      "outputs": [],
      "stateMutability": "nonpayable",
      "type": "function"
    },
    {
      "inputs": [
        {
          "internalType": "bytes32",
          "name": "id",
          "type": "bytes32"
        }
      ],
      "name": "isAbleCompletedTransaction",
      "outputs": [
        {
          "internalType": "bool",
          "name": "",
          "type": "bool"
        }
      ],
      "stateMutability": "view",
      "type": "function"
    },
    {
      "inputs": [],
      "name": "owner",
      "outputs": [
        {
          "internalType": "address",
          "name": "",
          "type": "address"
        }
      ],
      "stateMutability": "view",
      "type": "function"
    },
    {
      "inputs": [
        {
          "components": [
            {
              "internalType": "bytes32",
              "name": "txHash",
              "type": "bytes32"
            },
            {
              "internalType": "uint32",
              "name": "index",
              "type": "uint32"
            },
            {
              "internalType": "bytes",
              "name": "script",
              "type": "bytes"
            },
            {
              "internalType": "uint256",
              "name": "amount",
              "type": "uint256"
            }
          ],
          "internalType": "struct DataTypes.UTXO[]",
          "name": "utxos",
          "type": "tuple[]"
        },
        {
          "internalType": "address",
          "name": "arbitrator",
          "type": "address"
        },
        {
          "internalType": "uint256",
          "name": "deadline",
          "type": "uint256"
        },
        {
          "internalType": "address",
          "name": "compensationReceiver",
          "type": "address"
        }
      ],
      "name": "registerTransaction",
      "outputs": [
        {
          "internalType": "bytes32",
          "name": "",
          "type": "bytes32"
        }
      ],
      "stateMutability": "payable",
      "type": "function"
    },
    {
      "inputs": [],
      "name": "renounceOwnership",
      "outputs": [],
      "stateMutability": "nonpayable",
      "type": "function"
    },
    {
      "inputs": [
        {
          "internalType": "bytes32",
          "name": "id",
          "type": "bytes32"
        },
        {
          "internalType": "bytes",
          "name": "btcTx",
          "type": "bytes"
        },
        {
          "internalType": "bytes",
          "name": "script",
          "type": "bytes"
        },
        {
          "internalType": "address",
          "name": "timeoutCompensationReceiver",
          "type": "address"
        }
      ],
      "name": "requestArbitration",
      "outputs": [],
      "stateMutability": "nonpayable",
      "type": "function"
    },
    {
      "inputs": [
        {
          "internalType": "address",
          "name": "_arbitratorManager",
          "type": "address"
        }
      ],
      "name": "setArbitratorManager",
      "outputs": [],
      "stateMutability": "nonpayable",
      "type": "function"
    },
    {
      "inputs": [
        {
          "internalType": "bytes32",
          "name": "id",
          "type": "bytes32"
        },
        {
          "internalType": "bytes",
          "name": "btcTxSignature",
          "type": "bytes"
        }
      ],
      "name": "submitArbitration",
      "outputs": [],
      "stateMutability": "nonpayable",
      "type": "function"
    },
    {
      "inputs": [
        {
          "internalType": "bytes32",
          "name": "",
          "type": "bytes32"
        }
      ],
      "name": "transactions",
      "outputs": [
        {
          "internalType": "address",
          "name": "dapp",
          "type": "address"
        },
        {
          "internalType": "address",
          "name": "arbitrator",
          "type": "address"
        },
        {
          "internalType": "uint256",
          "name": "startTime",
          "type": "uint256"
        },
        {
          "internalType": "uint256",
          "name": "deadline",
          "type": "uint256"
        },
        {
          "internalType": "bytes",
          "name": "btcTx",
          "type": "bytes"
        },
        {
          "internalType": "bytes32",
          "name": "btcTxHash",
          "type": "bytes32"
        },
        {
          "internalType": "enum DataTypes.TransactionStatus",
          "name": "status",
          "type": "uint8"
        },
        {
          "internalType": "uint256",
          "name": "depositedFee",
          "type": "uint256"
        },
        {
          "internalType": "bytes",
          "name": "signature",
          "type": "bytes"
        },
        {
          "internalType": "address",
          "name": "compensationReceiver",
          "type": "address"
        },
        {
          "internalType": "address",
          "name": "timeoutCompensationReceiver",
          "type": "address"
        },
        {
          "internalType": "bytes",
          "name": "script",
          "type": "bytes"
        }
      ],
      "stateMutability": "view",
      "type": "function"
    },
    {
      "inputs": [
        {
          "internalType": "bytes32",
          "name": "id",
          "type": "bytes32"
        }
      ],
      "name": "transferArbitrationFee",
      "outputs": [
        {
          "internalType": "uint256",
          "name": "arbitratorFee",
          "type": "uint256"
        },
        {
          "internalType": "uint256",
          "name": "systemFee",
          "type": "uint256"
        }
      ],
      "stateMutability": "nonpayable",
      "type": "function"
    },
    {
      "inputs": [
        {
          "internalType": "address",
          "name": "newOwner",
          "type": "address"
        }
      ],
      "name": "transferOwnership",
      "outputs": [],
      "stateMutability": "nonpayable",
      "type": "function"
    },
    {
      "inputs": [
        {
          "internalType": "bytes32",
          "name": "",
          "type": "bytes32"
        }
      ],
      "name": "txHashToId",
      "outputs": [
        {
          "internalType": "bytes32",
          "name": "",
          "type": "bytes32"
        }
      ],
      "stateMutability": "view",
      "type": "function"
    }
  ],
  "bytecode": "0x60806040523480156200001157600080fd5b506200001c62000022565b620000d6565b7ff0c57e16840df040f15088dc2f81fe391c3923bec73e23a9662efc9c229c6a00805468010000000000000000900460ff1615620000735760405163f92ee8a960e01b815260040160405180910390fd5b80546001600160401b0390811614620000d35780546001600160401b0319166001600160401b0390811782556040519081527fc7f505b2f371ae2175ee4913f4499e1f2633a7b5936321eed1cdaeb6115181d29060200160405180910390a15b50565b615c8e80620000e66000396000f3fe6080604052600436106101355760003560e01c80638da5cb5b116100ab578063c0c53b8b1161006f578063c0c53b8b146103b6578063c1ce47d2146103d6578063ca0ab07514610403578063d09d03a314610423578063de0ca16614610443578063f2fde38b1461046357600080fd5b80638da5cb5b146102f85780639100c06214610335578063a130312a14610356578063a715719014610376578063a890b7b41461039657600080fd5b80634e4f0ec4116100fd5780634e4f0ec414610206578063520936b514610226578063642f2eaf14610256578063715018a61461028e5780637577b6df146102a3578063759787c4146102d857600080fd5b80630433e9041461013a5780630559b8771461015c5780632c7e8ca314610199578063350a07ea146101b95780634aae13ca146101d9575b600080fd5b34801561014657600080fd5b5061015a610155366004614f1e565b610483565b005b34801561016857600080fd5b5060065461017c906001600160a01b031681565b6040516001600160a01b0390911681526020015b60405180910390f35b3480156101a557600080fd5b5061015a6101b4366004614fa9565b610787565b3480156101c557600080fd5b5061015a6101d4366004614fa9565b6107d7565b3480156101e557600080fd5b506101f96101f4366004614fc6565b610856565b60405161019091906150f1565b34801561021257600080fd5b5061015a610221366004615223565b610c26565b34801561023257600080fd5b50610246610241366004614fc6565b61116b565b6040519015158152602001610190565b34801561026257600080fd5b50610276610271366004614fc6565b61159d565b6040516101909c9b9a9998979695949392919061526e565b34801561029a57600080fd5b5061015a6117b8565b3480156102af57600080fd5b506102c36102be366004614fc6565b6117cc565b60408051928352602083019190915201610190565b3480156102e457600080fd5b5060005461017c906001600160a01b031681565b34801561030457600080fd5b507f9016d09d72d40fdae2fd8ceac6b6234c7706214fd39c1cd1e609a0528c199300546001600160a01b031661017c565b61034861034336600461530e565b611910565b604051908152602001610190565b34801561036257600080fd5b5061015a610371366004614fc6565b611ff6565b34801561038257600080fd5b506103486103913660046153b0565b6120bc565b3480156103a257600080fd5b506101f96103b1366004614fc6565b612363565b3480156103c257600080fd5b5061015a6103d13660046153e0565b612705565b3480156103e257600080fd5b506103486103f1366004614fc6565b60046020526000908152604090205481565b34801561040f57600080fd5b5060025461017c906001600160a01b031681565b34801561042f57600080fd5b5061015a61043e3660046153b0565b6128cf565b34801561044f57600080fd5b5060015461017c906001600160a01b031681565b34801561046f57600080fd5b5061015a61047e366004614fa9565b612abe565b61048b612b01565b6001600160a01b0381166104b25760405163538ba4f960e01b815260040160405180910390fd5b600086815260036020526040812090600682015460ff1660058111156104da576104da61502f565b146104f75760405162cd158d60e51b815260040160405180910390fd5b80546001600160a01b0316331461052157604051633d83866f60e01b815260040160405180910390fd5b600061052d8787612b39565b600b830154602082015151919250146105595760405163c60ff7ab60e01b815260040160405180910390fd5b60005b8160200151518110156106485782600b01818154811061057e5761057e61542b565b906000526020600020906004020160000154826020015182815181106105a6576105a661542b565b602002602001015160000151141580610618575082600b0181815481106105cf576105cf61542b565b60009182526020918290206001600490920201015490830151805163ffffffff90921691839081106106035761060361542b565b60200260200101516020015163ffffffff1614155b156106365760405163c60ff7ab60e01b815260040160405180910390fd5b8061064081615457565b91505061055c565b50600061065482612d07565b905060006002826040516106689190615470565b602060405180830381855afa158015610685573d6000803e3d6000fd5b5050506040513d601f19601f820116820180604052508101906106a8919061548c565b60068501805460ff191660021790559050600484016106c8898b83615540565b5060058401819055600a840180546001600160a01b0319166001600160a01b038716179055600c84016106fc878983615540565b50600081815260046020526040908190208b90558454600186015491518c926001600160a01b03928316927f5a2c96db0313a2158eab2ef09596ac2c5b1f07aef1d48268523a21db7ca7aa489261075c928f928f928f928f921690615629565b60405180910390a35050505061077f6001600080516020615c3983398151915255565b505050505050565b61078f6133c8565b600080546001600160a01b0319166001600160a01b038316908117825560405190917fa323f9f93bbee02edb5e1034969f6ef41fb674527d2ea7e9271ad206435b58f491a250565b6107df6133c8565b6001600160a01b0381166108065760405163538ba4f960e01b815260040160405180910390fd5b600680546001600160a81b0319166001600160a01b038316908117600160a01b179091556040517f3e89cfb4fcf3c219579a7287319c014b58f4ff0f30188fd1d661727cf54faae590600090a250565b61085e614dab565b6000828152600460205260409020548061088b5760405163d0e6a1c560e01b815260040160405180910390fd5b60008181526003602081815260409283902083516101a08101855281546001600160a01b039081168252600183015416928101929092526002810154938201939093529082015460608201526004820180549192916080840191906108ef906154bb565b80601f016020809104026020016040519081016040528092919081815260200182805461091b906154bb565b80156109685780601f1061093d57610100808354040283529160200191610968565b820191906000526020600020905b81548152906001019060200180831161094b57829003601f168201915b50505091835250506005828101546020830152600683015460409092019160ff16908111156109995761099961502f565b60058111156109aa576109aa61502f565b8152602001600782015481526020016008820180546109c8906154bb565b80601f01602080910402602001604051908101604052809291908181526020018280546109f4906154bb565b8015610a415780601f10610a1657610100808354040283529160200191610a41565b820191906000526020600020905b815481529060010190602001808311610a2457829003601f168201915b505050918352505060098201546001600160a01b03908116602080840191909152600a840154909116604080840191909152600b84018054825181850281018501909352808352606090940193919290919060009084015b82821015610b84576000848152602090819020604080516080810182526004860290920180548352600181015463ffffffff169383019390935260028301805492939291840191610ae9906154bb565b80601f0160208091040260200160405190810160405280929190818152602001828054610b15906154bb565b8015610b625780601f10610b3757610100808354040283529160200191610b62565b820191906000526020600020905b815481529060010190602001808311610b4557829003601f168201915b5050505050815260200160038201548152505081526020019060010190610a99565b505050508152602001600c82018054610b9c906154bb565b80601f0160208091040260200160405190810160405280929190818152602001828054610bc8906154bb565b8015610c155780601f10610bea57610100808354040283529160200191610c15565b820191906000526020600020905b815481529060010190602001808311610bf857829003601f168201915b505050505081525050915050919050565b60008381526003602052604090206002600682015460ff166005811115610c4f57610c4f61502f565b14610c6c5760405162cd158d60e51b815260040160405180910390fd5b604080516101a08101825282546001600160a01b039081168252600184015416602082015260028301549181019190915260038201546060820152600482018054610ff792918491608084019190610cc3906154bb565b80601f0160208091040260200160405190810160405280929190818152602001828054610cef906154bb565b8015610d3c5780601f10610d1157610100808354040283529160200191610d3c565b820191906000526020600020905b815481529060010190602001808311610d1f57829003601f168201915b50505091835250506005828101546020830152600683015460409092019160ff1690811115610d6d57610d6d61502f565b6005811115610d7e57610d7e61502f565b815260200160078201548152602001600882018054610d9c906154bb565b80601f0160208091040260200160405190810160405280929190818152602001828054610dc8906154bb565b8015610e155780601f10610dea57610100808354040283529160200191610e15565b820191906000526020600020905b815481529060010190602001808311610df857829003601f168201915b505050918352505060098201546001600160a01b03908116602080840191909152600a840154909116604080840191909152600b84018054825181850281018501909352808352606090940193919290919060009084015b82821015610f58576000848152602090819020604080516080810182526004860290920180548352600181015463ffffffff169383019390935260028301805492939291840191610ebd906154bb565b80601f0160208091040260200160405190810160405280929190818152602001828054610ee9906154bb565b8015610f365780601f10610f0b57610100808354040283529160200191610f36565b820191906000526020600020905b815481529060010190602001808311610f1957829003601f168201915b5050505050815260200160038201548152505081526020019060010190610e6d565b505050508152602001600c82018054610f70906154bb565b80601f0160208091040260200160405190810160405280929190818152602001828054610f9c906154bb565b8015610fe95780601f10610fbe57610100808354040283529160200191610fe9565b820191906000526020600020905b815481529060010190602001808311610fcc57829003601f168201915b505050505081525050613423565b15611015576040516378fe628560e11b815260040160405180910390fd5b6000546001820154604051630e70978b60e21b81526001600160a01b0391821660048201523360248201529116906339c25e2c90604401602060405180830381865afa158015611069573d6000803e3d6000fd5b505050506040513d601f19601f8201168201806040525081019061108d919061567b565b6110aa57604051633d83866f60e01b815260040160405180910390fd5b60068101805460ff19166005179055600881016110c8838583615540565b50600054600182015460405163069fa0a760e51b81526001600160a01b03918216600482015291169063d3f414e090602401600060405180830381600087803b15801561111457600080fd5b505af1158015611128573d6000803e3d6000fd5b505082546040518793506001600160a01b0390911691507fc5a53e8918a64b3e9944e2344fc4fdd4c8b33a433b3a696975c4996090b39f6190600090a350505050565b600081815260036020818152604080842081516101a08101835281546001600160a01b0390811682526001830154169381019390935260028101549183019190915291820154606082015260048201805484939160808401916111cd906154bb565b80601f01602080910402602001604051908101604052809291908181526020018280546111f9906154bb565b80156112465780601f1061121b57610100808354040283529160200191611246565b820191906000526020600020905b81548152906001019060200180831161122957829003601f168201915b50505091835250506005828101546020830152600683015460409092019160ff16908111156112775761127761502f565b60058111156112885761128861502f565b8152602001600782015481526020016008820180546112a6906154bb565b80601f01602080910402602001604051908101604052809291908181526020018280546112d2906154bb565b801561131f5780601f106112f45761010080835404028352916020019161131f565b820191906000526020600020905b81548152906001019060200180831161130257829003601f168201915b505050918352505060098201546001600160a01b03908116602080840191909152600a840154909116604080840191909152600b84018054825181850281018501909352808352606090940193919290919060009084015b82821015611462576000848152602090819020604080516080810182526004860290920180548352600181015463ffffffff1693830193909352600283018054929392918401916113c7906154bb565b80601f01602080910402602001604051908101604052809291908181526020018280546113f3906154bb565b80156114405780601f1061141557610100808354040283529160200191611440565b820191906000526020600020905b81548152906001019060200180831161142357829003601f168201915b5050505050815260200160038201548152505081526020019060010190611377565b505050508152602001600c8201805461147a906154bb565b80601f01602080910402602001604051908101604052809291908181526020018280546114a6906154bb565b80156114f35780601f106114c8576101008083540402835291602001916114f3565b820191906000526020600020905b8154815290600101906020018083116114d657829003601f168201915b5050505050815250509050600060058111156115115761151161502f565b8160c0015160058111156115275761152761502f565b036115355750600192915050565b60028160c00151600581111561154d5761154d61502f565b0361156e5761155b81613423565b156115695750600192915050565b611594565b60058160c0015160058111156115865761158661502f565b036115945750600192915050565b50600092915050565b6003602081905260009182526040909120805460018201546002830154938301546004840180546001600160a01b0394851696949093169491926115e0906154bb565b80601f016020809104026020016040519081016040528092919081815260200182805461160c906154bb565b80156116595780601f1061162e57610100808354040283529160200191611659565b820191906000526020600020905b81548152906001019060200180831161163c57829003601f168201915b5050506005840154600685015460078601546008870180549697939660ff909316955090935090611689906154bb565b80601f01602080910402602001604051908101604052809291908181526020018280546116b5906154bb565b80156117025780601f106116d757610100808354040283529160200191611702565b820191906000526020600020905b8154815290600101906020018083116116e557829003601f168201915b5050506009840154600a850154600c8601805495966001600160a01b0393841696929093169450919250611735906154bb565b80601f0160208091040260200160405190810160405280929190818152602001828054611761906154bb565b80156117ae5780601f10611783576101008083540402835291602001916117ae565b820191906000526020600020905b81548152906001019060200180831161179157829003601f168201915b505050505090508c565b6117c06133c8565b6117ca60006134c2565b565b60065460009081906001600160a01b031633146117fc57604051636f5ba97360e01b815260040160405180910390fd5b600654600160a01b900460ff1661182657604051630f68fe6360e21b815260040160405180910390fd5b60008381526003602052604090206005600682015460ff16600581111561184f5761184f61502f565b1461186c5760405162cd158d60e51b815260040160405180910390fd5b6000546001820154604051632911125160e01b81526001600160a01b039182166004820152911690632911125190602401602060405180830381865afa1580156118ba573d6000803e3d6000fd5b505050506040513d601f19601f820116820180604052508101906118de919061567b565b156118fc5760405163155a1edb60e31b815260040160405180910390fd5b6119068482613533565b9250925050915091565b600061191a612b01565b6001600160a01b038416158061193757506001600160a01b038216155b156119555760405163538ba4f960e01b815260040160405180910390fd5b600085900361197757604051637a4ec1b760e01b815260040160405180910390fd5b60015460405163682dc82b60e11b81523360048201526001600160a01b039091169063d05b905690602401602060405180830381865afa1580156119bf573d6000803e3d6000fd5b505050506040513d601f19601f820116820180604052508101906119e3919061567b565b611a005760405163289ea21560e11b815260040160405180910390fd5b600054604051631c569df760e31b81526001600160a01b0386811660048301529091169063e2b4efb890602401602060405180830381865afa158015611a4a573d6000803e3d6000fd5b505050506040513d601f19601f82011682018060405250810190611a6e919061567b565b611a8b5760405163689b992760e01b815260040160405180910390fd5b428311611aab57604051632c5af88760e21b815260040160405180910390fd5b6000611ab74285615696565b60025460408051631c8c542360e11b815290519293506001600160a01b0390911691636dd5b69d918391633918a846916004808201926020929091908290030181865afa158015611b0c573d6000803e3d6000fd5b505050506040513d601f19601f82011682018060405250810190611b30919061548c565b6040518263ffffffff1660e01b8152600401611b4e91815260200190565b602060405180830381865afa158015611b6b573d6000803e3d6000fd5b505050506040513d601f19601f82011682018060405250810190611b8f919061548c565b811080611c6f5750600254604080516358d0b14760e01b815290516001600160a01b0390921691636dd5b69d9183916358d0b147916004808201926020929091908290030181865afa158015611be9573d6000803e3d6000fd5b505050506040513d601f19601f82011682018060405250810190611c0d919061548c565b6040518263ffffffff1660e01b8152600401611c2b91815260200190565b602060405180830381865afa158015611c48573d6000803e3d6000fd5b505050506040513d601f19601f82011682018060405250810190611c6c919061548c565b81115b15611c8d57604051630c51c95b60e21b815260040160405180910390fd5b604051630a71571960e41b8152600481018590526001600160a01b0386166024820152600090309063a715719090604401602060405180830381865afa158015611cdb573d6000803e3d6000fd5b505050506040513d601f19601f82011682018060405250810190611cff919061548c565b905080600003611d2257604051632fb15b8760e01b815260040160405180910390fd5b80341015611d43576040516380e5952760e01b815260040160405180910390fd5b600042338860056000815480929190611d5b90615457565b909155506040805160208101959095526bffffffffffffffffffffffff19606094851b8116918601919091529190921b166054830152606882015260880160408051808303601f190181529082905280516020909101206000546315969bed60e11b83526001600160a01b038a81166004850152602484018390529193501690632b2d37da90604401600060405180830381600087803b158015611dfe57600080fd5b505af1158015611e12573d6000803e3d6000fd5b505050600082815260036020819052604082208054336001600160a01b03199182161782556001820180549091166001600160a01b038d1617905542600282015590810189905591506040519080825280601f01601f191660200182016040528015611e85576020820181803683370190505b506004820190611e9590826156a9565b5060006005820181905560068201805460ff19169055346007830155604080519182526020820190526008820190611ecd90826156a9565b506009810180546001600160a01b0388166001600160a01b03199182168117909255600a830180549091169091179055611f0b600b82016000614e24565b60005b89811015611f755781600b018b8b83818110611f2c57611f2c61542b565b9050602002810190611f3e9190615768565b815460018101835560009283526020909220909160040201611f60828261577e565b50508080611f6d90615457565b915050611f0e565b50876001600160a01b0316336001600160a01b0316837ff9b5be7732ebf6fd00980fa5df88478650fb10bdb89a67b351b4134cff7d8d258a8560070154604051611fc9929190918252602082015260400190565b60405180910390a45092505050611fed6001600080516020615c3983398151915255565b95945050505050565b60008181526003602052604090819020905163520936b560e01b815260048101839052309063520936b590602401602060405180830381865afa158015612041573d6000803e3d6000fd5b505050506040513d601f19601f82011682018060405250810190612065919061567b565b61208257604051630ef52c5f60e31b815260040160405180910390fd5b80546001600160a01b031633146120ac57604051633d83866f60e01b815260040160405180910390fd5b6120b68282613533565b50505050565b6000804284116120cd5760006120d7565b6120d74285615696565b60025460408051631c8c542360e11b815290519293506001600160a01b0390911691636dd5b69d918391633918a846916004808201926020929091908290030181865afa15801561212c573d6000803e3d6000fd5b505050506040513d601f19601f82011682018060405250810190612150919061548c565b6040518263ffffffff1660e01b815260040161216e91815260200190565b602060405180830381865afa15801561218b573d6000803e3d6000fd5b505050506040513d601f19601f820116820180604052508101906121af919061548c565b81108061228f5750600254604080516358d0b14760e01b815290516001600160a01b0390921691636dd5b69d9183916358d0b147916004808201926020929091908290030181865afa158015612209573d6000803e3d6000fd5b505050506040513d601f19601f8201168201806040525081019061222d919061548c565b6040518263ffffffff1660e01b815260040161224b91815260200190565b602060405180830381865afa158015612268573d6000803e3d6000fd5b505050506040513d601f19601f8201168201806040525081019061228c919061548c565b81115b156122ad57604051630c51c95b60e21b815260040160405180910390fd5b6001600160a01b0383166122d45760405163538ba4f960e01b815260040160405180910390fd5b600080546040516326415b0f60e21b81526001600160a01b038681166004830152909116906399056c3c90602401600060405180830381865afa15801561231f573d6000803e3d6000fd5b505050506040513d6000823e601f3d908101601f19168201604052612347919081019061595d565b905061235884826040015184613989565b925050505b92915050565b61236b614dab565b60008281526003602081815260409283902083516101a08101855281546001600160a01b039081168252600183015416928101929092526002810154938201939093529082015460608201526004820180549192916080840191906123cf906154bb565b80601f01602080910402602001604051908101604052809291908181526020018280546123fb906154bb565b80156124485780601f1061241d57610100808354040283529160200191612448565b820191906000526020600020905b81548152906001019060200180831161242b57829003601f168201915b50505091835250506005828101546020830152600683015460409092019160ff16908111156124795761247961502f565b600581111561248a5761248a61502f565b8152602001600782015481526020016008820180546124a8906154bb565b80601f01602080910402602001604051908101604052809291908181526020018280546124d4906154bb565b80156125215780601f106124f657610100808354040283529160200191612521565b820191906000526020600020905b81548152906001019060200180831161250457829003601f168201915b505050918352505060098201546001600160a01b03908116602080840191909152600a840154909116604080840191909152600b84018054825181850281018501909352808352606090940193919290919060009084015b82821015612664576000848152602090819020604080516080810182526004860290920180548352600181015463ffffffff1693830193909352600283018054929392918401916125c9906154bb565b80601f01602080910402602001604051908101604052809291908181526020018280546125f5906154bb565b80156126425780601f1061261757610100808354040283529160200191612642565b820191906000526020600020905b81548152906001019060200180831161262557829003601f168201915b5050505050815260200160038201548152505081526020019060010190612579565b505050508152602001600c8201805461267c906154bb565b80601f01602080910402602001604051908101604052809291908181526020018280546126a8906154bb565b80156126f55780601f106126ca576101008083540402835291602001916126f5565b820191906000526020600020905b8154815290600101906020018083116126d857829003601f168201915b5050505050815250509050919050565b7ff0c57e16840df040f15088dc2f81fe391c3923bec73e23a9662efc9c229c6a008054600160401b810460ff1615906001600160401b031660008115801561274a5750825b90506000826001600160401b031660011480156127665750303b155b905081158015612774575080155b156127925760405163f92ee8a960e01b815260040160405180910390fd5b845467ffffffffffffffff1916600117855583156127bc57845460ff60401b1916600160401b1785555b6127c4613a34565b6127cd33613a44565b6001600160a01b0388166127f45760405163538ba4f960e01b815260040160405180910390fd5b6001600160a01b03871661281b5760405163538ba4f960e01b815260040160405180910390fd5b6001600160a01b0386166128425760405163538ba4f960e01b815260040160405180910390fd5b600080546001600160a01b03808b166001600160a01b031992831617909255600180548a8416908316179055600280549289169290911691909117905583156128c557845460ff60401b19168555604051600181527fc7f505b2f371ae2175ee4913f4499e1f2633a7b5936321eed1cdaeb6115181d29060200160405180910390a15b5050505050505050565b6006546001600160a01b031633146128fa57604051636f5ba97360e01b815260040160405180910390fd5b600654600160a01b900460ff1661292457604051630f68fe6360e21b815260040160405180910390fd5b60008281526003602052604090206001600682015460ff16600581111561294d5761294d61502f565b0361296a5760405162cd158d60e51b815260040160405180910390fd5b6001600160a01b0382166129915760405163538ba4f960e01b815260040160405180910390fd5b60068101805460ff1916600117905560078101546040516000916001600160a01b038516918381818185875af1925050503d80600081146129ee576040519150601f19603f3d011682016040523d82523d6000602084013e6129f3565b606091505b5050905080612a1557604051631fa55c0760e11b815260040160405180910390fd5b600054600183015460405163cedb588b60e01b81526001600160a01b0391821660048201526024810187905291169063cedb588b90604401600060405180830381600087803b158015612a6757600080fd5b505af1158015612a7b573d6000803e3d6000fd5b505083546040518793506001600160a01b0390911691507fd4ce83344b315e3d656d76b02d51dcb1e3c92f1f9f9c28524cfb20882e9e6bc790600090a350505050565b612ac66133c8565b6001600160a01b038116612af557604051631e4fbdf760e01b8152600060048201526024015b60405180910390fd5b612afe816134c2565b50565b600080516020615c39833981519152805460011901612b3357604051633ee5aeb560e01b815260040160405180910390fd5b60029055565b6040805160a081018252600080825260606020830181905292820183905291810182905260808101829052908280612b72600484615b05565b1115612b945760405160016203ac8b60e61b0319815260040160405180910390fd5b848285612ba2600483615b05565b92612baf93929190615b18565b612bb891615b42565b60e01c8352612bc8600483615b05565b9150600080612bd8878786613a55565b811515608088015294509150839050600080612bf5898985613ae8565b6020890182905296509150859050600080612c118b8b85613be0565b60408b01829052985091508790508515612c3557612c328b8b8a8751613cc0565b97505b8351600114612c6f5760405162461bcd60e51b815260206004820152600660248201526503232b13ab3960d51b6044820152606401612aec565b86612c7b896004615b05565b1115612c9d5760405160016203ac8b60e61b0319815260040160405180910390fd5b8a888b612cab826004615b05565b92612cb893929190615b18565b612cc191615b42565b60e01c60608a0152612cd4600489615b05565b9750868814612cf95760405160016203ac8b60e61b0319815260040160405180910390fd5b505050505050505092915050565b6060600060049050612d1d836020015151613d53565b612d279082615b05565b905060005b836020015151811015612d6557612d44602883615b05565b9150612d51600183615b05565b915080612d5d81615457565b915050612d2c565b50612d74836040015151613d53565b612d7e9082615b05565b905060005b836040015151811015612e1657612d9b600883615b05565b9150612dc884604001518281518110612db657612db661542b565b60200260200101516020015151613d53565b612dd29083615b05565b915083604001518181518110612dea57612dea61542b565b6020026020010151602001515182612e029190615b05565b915080612e0e81615457565b915050612d83565b50612e22600482615b05565b90506000816001600160401b03811115612e3e57612e3e6154a5565b6040519080825280601f01601f191660200182016040528015612e68576020820181803683370190505b50845190915060009060e01b815b6004811015612ed957818160048110612e9157612e9161542b565b1a60f81b84612ea08386615b05565b81518110612eb057612eb061542b565b60200101906001600160f81b031916908160001a90535080612ed181615457565b915050612e76565b50612ee5600483615b05565b9150612ef78660200151518484613d97565b612f019083615b05565b915060005b86602001515181101561313e5760005b6020811015612fa65787602001518281518110612f3557612f3561542b565b60200260200101516000015181601f612f4e9190615696565b60208110612f5e57612f5e61542b565b1a60f81b85612f6d8387615b05565b81518110612f7d57612f7d61542b565b60200101906001600160f81b031916908160001a90535080612f9e81615457565b915050612f16565b50612fb2602084615b05565b9250600087602001518281518110612fcc57612fcc61542b565b60200260200101516020015160e01b905060005b600481101561304357818160048110612ffb57612ffb61542b565b1a60f81b8661300a8388615b05565b8151811061301a5761301a61542b565b60200101906001600160f81b031916908160001a9053508061303b81615457565b915050612fe0565b5061304f600485615b05565b9350600060f81b8585815181106130685761306861542b565b60200101906001600160f81b031916908160001a90535061308a600185615b05565b93506000886020015183815181106130a4576130a461542b565b60200260200101516060015160e01b905060005b600481101561311b578181600481106130d3576130d361542b565b1a60f81b876130e28389615b05565b815181106130f2576130f261542b565b60200101906001600160f81b031916908160001a9053508061311381615457565b9150506130b8565b50613127600486615b05565b94505050808061313690615457565b915050612f06565b5061314f8660400151518484613d97565b6131599083615b05565b915060005b866040015151811015613339576000876040015182815181106131835761318361542b565b60200260200101516000015160c01b905060005b60088110156131fa578181600881106131b2576131b261542b565b1a60f81b866131c18388615b05565b815181106131d1576131d161542b565b60200101906001600160f81b031916908160001a905350806131f281615457565b915050613197565b50613206600885615b05565b9350613235886040015183815181106132215761322161542b565b602002602001015160200151518686613d97565b61323f9085615b05565b935060005b8860400151838151811061325a5761325a61542b565b602002602001015160200151518110156132f457886040015183815181106132845761328461542b565b60200260200101516020015181815181106132a1576132a161542b565b01602001516001600160f81b031916866132bb8388615b05565b815181106132cb576132cb61542b565b60200101906001600160f81b031916908160001a905350806132ec81615457565b915050613244565b508760400151828151811061330b5761330b61542b565b60200260200101516020015151846133239190615b05565b935050808061333190615457565b91505061315e565b50606086015160e01b60005b60048110156133a8578181600481106133605761336061542b565b1a60f81b8561336f8387615b05565b8151811061337f5761337f61542b565b60200101906001600160f81b031916908160001a905350806133a081615457565b915050613345565b50929695505050505050565b6001600080516020615c3983398151915255565b336133fa7f9016d09d72d40fdae2fd8ceac6b6234c7706214fd39c1cd1e609a0528c199300546001600160a01b031690565b6001600160a01b0316146117ca5760405163118cdaa760e01b8152336004820152602401612aec565b6000816060015142111561343957506001919050565b60025460408051632b6f600d60e01b815290516000926001600160a01b031691632b6f600d9160048083019260209291908290030181865afa158015613483573d6000803e3d6000fd5b505050506040513d601f19601f820116820180604052508101906134a7919061548c565b90508083604001516134b99190615b05565b42119392505050565b7f9016d09d72d40fdae2fd8ceac6b6234c7706214fd39c1cd1e609a0528c19930080546001600160a01b031981166001600160a01b03848116918217845560405192169182907f8be0079c531659141344cd1fd0a4f28419497f9722a3daafe3b4186f6b6457e090600090a3505050565b604080516101a08101825282546001600160a01b0390811682526001840154166020820152600283015491810191909152600382015460608201526004820180546000928392839283926138c792909188916080840191613593906154bb565b80601f01602080910402602001604051908101604052809291908181526020018280546135bf906154bb565b801561360c5780601f106135e15761010080835404028352916020019161360c565b820191906000526020600020905b8154815290600101906020018083116135ef57829003601f168201915b50505091835250506005828101546020830152600683015460409092019160ff169081111561363d5761363d61502f565b600581111561364e5761364e61502f565b81526020016007820154815260200160088201805461366c906154bb565b80601f0160208091040260200160405190810160405280929190818152602001828054613698906154bb565b80156136e55780601f106136ba576101008083540402835291602001916136e5565b820191906000526020600020905b8154815290600101906020018083116136c857829003601f168201915b505050918352505060098201546001600160a01b03908116602080840191909152600a840154909116604080840191909152600b84018054825181850281018501909352808352606090940193919290919060009084015b82821015613828576000848152602090819020604080516080810182526004860290920180548352600181015463ffffffff16938301939093526002830180549293929184019161378d906154bb565b80601f01602080910402602001604051908101604052809291908181526020018280546137b9906154bb565b80156138065780601f106137db57610100808354040283529160200191613806565b820191906000526020600020905b8154815290600101906020018083116137e957829003601f168201915b505050505081526020016003820154815250508152602001906001019061373d565b505050508152602001600c82018054613840906154bb565b80601f016020809104026020016040519081016040528092919081815260200182805461386c906154bb565b80156138b95780601f1061388e576101008083540402835291602001916138b9565b820191906000526020600020905b81548152906001019060200180831161389c57829003601f168201915b505050505081525050613ffd565b600054600188015460405163cedb588b60e01b81526001600160a01b039182166004820152602481018b9052939550919350169063cedb588b90604401600060405180830381600087803b15801561391e57600080fd5b505af1158015613932573d6000803e3d6000fd5b5050505060068501805460ff19166001179055845460405187916001600160a01b0316907fd4ce83344b315e3d656d76b02d51dcb1e3c92f1f9f9c28524cfb20882e9e6bc790600090a390925090505b9250929050565b6000805460405163014f6b1960e41b81526001600160a01b038681166004830152839216906314f6b19090602401602060405180830381865afa1580156139d4573d6000803e3d6000fd5b505050506040513d601f19601f820116820180604052508101906139f8919061548c565b9050613a0a6127106301e13380615b72565b84613a158584615b72565b613a1f9190615b72565b613a299190615b89565b9150505b9392505050565b613a3c6143e3565b6117ca61442c565b613a4c6143e3565b612afe81614434565b60008183613a64826002615b05565b11613ae0576000858585818110613a7d57613a7d61542b565b919091013560f81c9150600090508686613a98876001615b05565b818110613aa757613aa761542b565b919091013560f81c91505060ff8216158015613ac6575060ff81166001145b15613add5760019350613ada600284615b05565b92505b50505b935093915050565b60606000806000613afa87878761443c565b9092509050613b098186615b05565b9250816001600160401b03811115613b2357613b236154a5565b604051908082528060200260200182016040528015613b7657816020015b60408051608081018252600080825260208083018290526060938301849052928201528252600019909201910181613b415790505b50935060005b82811015613bd557600080613b928a8a88614658565b9150915081878481518110613ba957613ba961542b565b6020908102919091010152613bbe8187615b05565b955050508080613bcd90615457565b915050613b7c565b505050935093915050565b60606000806000613bf287878761443c565b9092509050613c018186615b05565b9250816001600160401b03811115613c1b57613c1b6154a5565b604051908082528060200260200182016040528015613c6157816020015b604080518082019091526000815260606020820152815260200190600190039081613c395790505b50935060005b82811015613bd557600080613c7d8a8a8861487c565b9150915081878481518110613c9457613c9461542b565b6020908102919091010152613ca98187615b05565b955050508080613cb890615457565b915050613c67565b8160005b82811015613d4a57600080613cda88888661443c565b9092509050613ce98185615b05565b935060005b82811015613d3457600080613d048b8b8961443c565b9092509050613d138282615b05565b613d1d9088615b05565b965050508080613d2c90615457565b915050613cee565b5050508080613d4290615457565b915050613cc4565b50949350505050565b600060fc821015613d6657506001919050565b61ffff8211613d7757506003919050565b63ffffffff8211613d8a57506005919050565b506009919050565b919050565b600060fc841015613dd8578360f81b838381518110613db857613db861542b565b60200101906001600160f81b031916908160001a90535060019050613a2d565b61ffff8411613e925760fd60f81b838381518110613df857613df861542b565b60200101906001600160f81b031916908160001a90535060f084901b8060001a60f81b84613e27856001615b05565b81518110613e3757613e3761542b565b60200101906001600160f81b031916908160001a9053508060011a60f81b84613e61856002615b05565b81518110613e7157613e7161542b565b60200101906001600160f81b031916908160001a9053506003915050613a2d565b63ffffffff8411613f4d5760fe60f81b838381518110613eb457613eb461542b565b60200101906001600160f81b031916908160001a90535060e084901b60005b6004811015613f4257818160048110613eee57613eee61542b565b1a60f81b8582613eff876001615b05565b613f099190615b05565b81518110613f1957613f1961542b565b60200101906001600160f81b031916908160001a90535080613f3a81615457565b915050613ed3565b506005915050613a2d565b60ff60f81b838381518110613f6457613f6461542b565b60200101906001600160f81b031916908160001a90535060c084901b60005b6008811015613ff257818160088110613f9e57613f9e61542b565b1a60f81b8582613faf876001615b05565b613fb99190615b05565b81518110613fc957613fc961542b565b60200101906001600160f81b031916908160001a90535080613fea81615457565b915050613f83565b506009915050613a2d565b6000805460208301516040516326415b0f60e21b81526001600160a01b0391821660048201528392839216906399056c3c90602401600060405180830381865afa15801561404f573d6000803e3d6000fd5b505050506040513d6000823e601f3d908101601f19168201604052614077919081019061595d565b905060008460600151421161409a5760408501516140959042615696565b6140ae565b846040015185606001516140ae9190615696565b905060006140c58660200151846040015184613989565b90508560e001518111156140da575060e08501515b6002546040805163286e9cd160e21b81529051600092612710926001600160a01b0390911691636dd5b69d91839163a1ba7344916004808201926020929091908290030181865afa158015614133573d6000803e3d6000fd5b505050506040513d601f19601f82011682018060405250810190614157919061548c565b6040518263ffffffff1660e01b815260040161417591815260200190565b602060405180830381865afa158015614192573d6000803e3d6000fd5b505050506040513d601f19601f820116820180604052508101906141b6919061548c565b6141c09084615b72565b6141ca9190615b89565b905060006141d88284615696565b90506000600260009054906101000a90046001600160a01b03166001600160a01b0316638b6570a06040518163ffffffff1660e01b8152600401602060405180830381865afa15801561422f573d6000803e3d6000fd5b505050506040513d601f19601f820116820180604052508101906142539190615bab565b90506000816001600160a01b03168460405160006040518083038185875af1925050503d80600081146142a2576040519150601f19603f3d011682016040523d82523d6000602084013e6142a7565b606091505b50509050806142c957604051631fa55c0760e11b815260040160405180910390fd5b6000876101c001516001600160a01b03168460405160006040518083038185875af1925050503d806000811461431b576040519150601f19603f3d011682016040523d82523d6000602084013e614320565b606091505b505090508061434257604051631fa55c0760e11b815260040160405180910390fd5b6000868c60e001516143549190615696565b905080156143d1578b516040516000916001600160a01b03169083908381818185875af1925050503d80600081146143a8576040519150601f19603f3d011682016040523d82523d6000602084013e6143ad565b606091505b50509050806143cf576040516329d39a2760e11b815260040160405180910390fd5b505b50929a93995092975050505050505050565b7ff0c57e16840df040f15088dc2f81fe391c3923bec73e23a9662efc9c229c6a0054600160401b900460ff166117ca57604051631afcd79f60e31b815260040160405180910390fd5b6133b46143e3565b612ac66143e3565b6000808383106144625760405160016203ac8b60e61b0319815260040160405180910390fd5b60008585858181106144765761447661542b565b919091013560f81c91505060fc8110156144985760ff16915060019050613ae0565b60fc1960ff82160161452f57846144b0856003615b05565b11156144d25760405160016203ac8b60e61b0319815260040160405180910390fd5b61451e86868080601f016020809104026020016040519081016040528093929190818152602001838380828437600092019190915250614519925088915060019050615b05565b6149a1565b61ffff16925060039150613ae09050565b60fd1960ff8216016145c85784614547856005615b05565b11156145695760405160016203ac8b60e61b0319815260040160405180910390fd5b6145b586868080601f0160208091040260200160405190810160405280939291908181526020018383808284376000920191909152506145b0925088915060019050615b05565b614a5a565b63ffffffff16925060059150613ae09050565b846145d4856009615b05565b11156145f65760405160016203ac8b60e61b0319815260040160405180910390fd5b61464286868080601f01602080910402602001604051908101604052809392919081815260200183838082843760009201919091525061463d925088915060019050615b05565b614b65565b6001600160401b0316925060099150613ae09050565b604080516080810182526000808252602082018190526060928201839052918101919091526000828461468c826020615b05565b11156146ae5760405160016203ac8b60e61b0319815260040160405180910390fd5b6146da8685876146bf826020615b05565b926146cc93929190615b18565b6146d591615bc8565b614d16565b83526146e7602085615b05565b9350846146f5856004615b05565b11156147175760405160016203ac8b60e61b0319815260040160405180910390fd5b858486614725826004615b05565b9261473293929190615b18565b61473b91615b42565b60e01c602084015261474e600485615b05565b935060008061475e88888861443c565b909250905061476d8187615b05565b95508661477a8388615b05565b111561479c5760405160016203ac8b60e61b0319815260040160405180910390fd5b8786886147a98583615b05565b926147b693929190615b18565b8080601f01602080910402602001604051908101604052809392919081815260200183838082843760009201919091525050505060408601526147f98287615b05565b955086614807876004615b05565b11156148295760405160016203ac8b60e61b0319815260040160405180910390fd5b878688614837826004615b05565b9261484493929190615b18565b61484d91615b42565b60e01c6060860152614860600487615b05565b95508461486d8488615696565b94509450505050935093915050565b604080518082019091526000815260606020820152600082846148a0826008615b05565b11156148c25760405160016203ac8b60e61b0319815260040160405180910390fd5b8584866148d0826008615b05565b926148dd93929190615b18565b6148e691615be6565b60c01c83526148f6600885615b05565b935060008061490688888861443c565b90925090506149158187615b05565b9550866149228388615b05565b11156149445760405160016203ac8b60e61b0319815260040160405180910390fd5b8786886149518583615b05565b9261495e93929190615b18565b8080601f01602080910402602001604051908101604052809392919081815260200183838082843760009201919091525050505060208601526148608287615b05565b81516000906149b1836002615b05565b1115614a0f5760405162461bcd60e51b815260206004820152602760248201527f4254435574696c733a20696e73756666696369656e7420627974657320666f72604482015266103ab4b73a189b60c91b6064820152608401612aec565b828281518110614a2157614a2161542b565b016020015160f81c600884614a37856001615b05565b81518110614a4757614a4761542b565b016020015160f81c901b17905092915050565b8151600090614a6a836004615b05565b1115614ac85760405162461bcd60e51b815260206004820152602760248201527f4254435574696c733a20696e73756666696369656e7420627974657320666f72604482015266103ab4b73a199960c91b6064820152608401612aec565b828281518110614ada57614ada61542b565b016020015160f81c600884614af0856001615b05565b81518110614b0057614b0061542b565b016020015160f81c901b601085614b18866002615b05565b81518110614b2857614b2861542b565b016020015160f81c901b601886614b40876003615b05565b81518110614b5057614b5061542b565b016020015160f81c901b171717905092915050565b8151600090614b75836008615b05565b1115614bd35760405162461bcd60e51b815260206004820152602760248201527f4254435574696c733a20696e73756666696369656e7420627974657320666f72604482015266081d5a5b9d0d8d60ca1b6064820152608401612aec565b828281518110614be557614be561542b565b016020015160f81c600884614bfb856001615b05565b81518110614c0b57614c0b61542b565b016020015160f81c901b601085614c23866002615b05565b81518110614c3357614c3361542b565b016020015160f81c901b601886614c4b876003615b05565b81518110614c5b57614c5b61542b565b0160209081015160f81c90911b9087614c75886004615b05565b81518110614c8557614c8561542b565b016020015160f81c901b602888614c9d896005615b05565b81518110614cad57614cad61542b565b016020015160f81c901b603089614cc58a6006615b05565b81518110614cd557614cd561542b565b016020015160f81c901b60388a614ced8b6007615b05565b81518110614cfd57614cfd61542b565b016020015160f81c901b17171717171717905092915050565b60408051602080825281830190925260009182919060208201818036833701905050905060005b6020811015614da15783614d5282601f615696565b60208110614d6257614d6261542b565b1a60f81b828281518110614d7857614d7861542b565b60200101906001600160f81b031916908160001a90535080614d9981615457565b915050614d3d565b50613a2d81615c14565b604080516101a0810182526000808252602082018190529181018290526060808201839052608082015260a081018290529060c08201908152602001600081526020016060815260200160006001600160a01b0316815260200160006001600160a01b0316815260200160608152602001606081525090565b5080546000825560040290600052602060002090810190612afe91905b80821115614e7a57600080825560018201805463ffffffff19169055614e6a6002830182614e7e565b5060006003820155600401614e41565b5090565b508054614e8a906154bb565b6000825580601f10614e9a575050565b601f016020900490600052602060002090810190612afe91905b80821115614e7a5760008155600101614eb4565b60008083601f840112614eda57600080fd5b5081356001600160401b03811115614ef157600080fd5b60208301915083602082850101111561398257600080fd5b6001600160a01b0381168114612afe57600080fd5b60008060008060008060808789031215614f3757600080fd5b8635955060208701356001600160401b0380821115614f5557600080fd5b614f618a838b01614ec8565b90975095506040890135915080821115614f7a57600080fd5b50614f8789828a01614ec8565b9094509250506060870135614f9b81614f09565b809150509295509295509295565b600060208284031215614fbb57600080fd5b8135613a2d81614f09565b600060208284031215614fd857600080fd5b5035919050565b60005b83811015614ffa578181015183820152602001614fe2565b50506000910152565b6000815180845261501b816020860160208601614fdf565b601f01601f19169290920160200192915050565b634e487b7160e01b600052602160045260246000fd5b6006811061506357634e487b7160e01b600052602160045260246000fd5b9052565b600082825180855260208086019550808260051b84010181860160005b848110156150e457601f19868403018952815160808151855263ffffffff86830151168686015260408083015182828801526150c283880182615003565b6060948501519790940196909652505098840198925090830190600101615084565b5090979650505050505050565b6020815261510b6020820183516001600160a01b03169052565b6000602083015161512760408401826001600160a01b03169052565b50604083015160608301526060830151608083015260808301516101a08060a08501526151586101c0850183615003565b915060a085015160c085015260c085015161517660e0860182615045565b5060e0850151610100818187015280870151915050601f196101208187860301818801526151a48584615003565b9450808801519250506101406151c4818801846001600160a01b03169052565b87015191506101606151e0878201846001600160a01b03169052565b808801519250506101808187860301818801526151fd8584615067565b9088015187820390920184880152935090506152198382615003565b9695505050505050565b60008060006040848603121561523857600080fd5b8335925060208401356001600160401b0381111561525557600080fd5b61526186828701614ec8565b9497909650939450505050565b600060018060a01b03808f168352808e1660208401528c60408401528b606084015261018060808401526152a661018084018c615003565b8a60a08501526152b960c085018b615045565b8860e08501528381036101008501526152d28189615003565b90508187166101208501528186166101408501528381036101608501526152f98186615003565b925050509d9c50505050505050505050505050565b60008060008060006080868803121561532657600080fd5b85356001600160401b038082111561533d57600080fd5b818801915088601f83011261535157600080fd5b81358181111561536057600080fd5b8960208260051b850101111561537557600080fd5b6020928301975095505086013561538b81614f09565b92506040860135915060608601356153a281614f09565b809150509295509295909350565b600080604083850312156153c357600080fd5b8235915060208301356153d581614f09565b809150509250929050565b6000806000606084860312156153f557600080fd5b833561540081614f09565b9250602084013561541081614f09565b9150604084013561542081614f09565b809150509250925092565b634e487b7160e01b600052603260045260246000fd5b634e487b7160e01b600052601160045260246000fd5b60006001820161546957615469615441565b5060010190565b60008251615482818460208701614fdf565b9190910192915050565b60006020828403121561549e57600080fd5b5051919050565b634e487b7160e01b600052604160045260246000fd5b600181811c908216806154cf57607f821691505b6020821081036154ef57634e487b7160e01b600052602260045260246000fd5b50919050565b601f82111561553b57600081815260208120601f850160051c8101602086101561551c5750805b601f850160051c820191505b8181101561077f57828155600101615528565b505050565b6001600160401b03831115615557576155576154a5565b61556b8361556583546154bb565b836154f5565b6000601f84116001811461559f57600085156155875750838201355b600019600387901b1c1916600186901b1783556155f9565b600083815260209020601f19861690835b828110156155d057868501358255602094850194600190920191016155b0565b50868210156155ed5760001960f88860031b161c19848701351681555b505060018560011b0183555b5050505050565b81835281816020850137506000828201602090810191909152601f909101601f19169091010190565b60608152600061563d606083018789615600565b8281036020840152615650818688615600565b91505060018060a01b03831660408301529695505050505050565b80518015158114613d9257600080fd5b60006020828403121561568d57600080fd5b613a2d8261566b565b8181038181111561235d5761235d615441565b81516001600160401b038111156156c2576156c26154a5565b6156d6816156d084546154bb565b846154f5565b602080601f83116001811461570b57600084156156f35750858301515b600019600386901b1c1916600185901b17855561077f565b600085815260208120601f198616915b8281101561573a5788860151825594840194600190910190840161571b565b50858210156157585787850151600019600388901b60f8161c191681555b5050505050600190811b01905550565b60008235607e1983360301811261548257600080fd5b8135815560018101602083013563ffffffff811680821461579e57600080fd5b825463ffffffff19161790915550604082013536839003601e190181126157c457600080fd5b820180356001600160401b038111156157dc57600080fd5b6020820191508036038213156157f157600080fd5b6157ff818360028601615540565b5050606082013560038201555050565b60405161020081016001600160401b0381118282101715615832576158326154a5565b60405290565b604051601f8201601f191681016001600160401b0381118282101715615860576158606154a5565b604052919050565b8051613d9281614f09565b600082601f83011261588457600080fd5b815160206001600160401b0382111561589f5761589f6154a5565b8160051b6158ae828201615838565b92835284810182019282810190878511156158c857600080fd5b83870192505b848310156158e7578251825291830191908301906158ce565b979650505050505050565b600082601f83011261590357600080fd5b81516001600160401b0381111561591c5761591c6154a5565b61592f601f8201601f1916602001615838565b81815284602083860101111561594457600080fd5b615955826020830160208701614fdf565b949350505050565b60006020828403121561596f57600080fd5b81516001600160401b038082111561598657600080fd5b90830190610200828603121561599b57600080fd5b6159a361580f565b6159ac83615868565b81526159ba6020840161566b565b60208201526040830151604082015260608301516060820152608083015160808201526159e960a08401615868565b60a08201526159fa60c08401615868565b60c082015260e083015182811115615a1157600080fd5b615a1d87828601615873565b60e083015250610100615a31818501615868565b908201526101208381015183811115615a4957600080fd5b615a55888287016158f2565b8284015250506101408084015183811115615a6f57600080fd5b615a7b888287016158f2565b8284015250506101608084015181830152506101808084015183811115615aa157600080fd5b615aad888287016158f2565b8284015250506101a08084015183811115615ac757600080fd5b615ad3888287016158f2565b8284015250506101c09150615ae9828401615868565b918101919091526101e091820151918101919091529392505050565b8082018082111561235d5761235d615441565b60008085851115615b2857600080fd5b83861115615b3557600080fd5b5050820193919092039150565b6001600160e01b03198135818116916004851015615b6a5780818660040360031b1b83161692505b505092915050565b808202811582820484141761235d5761235d615441565b600082615ba657634e487b7160e01b600052601260045260246000fd5b500490565b600060208284031215615bbd57600080fd5b8151613a2d81614f09565b8035602083101561235d57600019602084900360031b1b1692915050565b6001600160c01b03198135818116916008851015615b6a5760089490940360031b84901b1690921692915050565b805160208083015191908110156154ef5760001960209190910360031b1b1691905056fe9b779b17422d0df92223018b32b4d1fa46e071723d6817e2486d003becc55f00a264697066735822122058aa9cacdcbeaec3bbd1c11ef2ce73c9dd07850041c26021a7ca2b3fc93c4c9664736f6c63430008140033",
  "linkReferences": {},
  "deployedLinkReferences": {}
}