{
  "_format": "hh-sol-artifact-1",
  "contractName": "ConfigManager",
  "sourceName": "contracts/core/ConfigManager.sol",
  "abi": [
    {
      "inputs": [],
      "stateMutability": "nonpayable",
      "type": "constructor"
    },
    {
      "inputs": [],
      "name": "InvalidInitialization",
      "type": "error"
    },
    {
      "inputs": [],
      "name": "LENGTH_MISMATCH",
      "type": "error"
    },
    {
      "inputs": [],
      "name": "NotInitializing",
      "type": "error"
    },
    {
      "inputs": [
        {
          "internalType": "address",
          "name": "owner",
          "type": "address"
        }
      ],
      "name": "OwnableInvalidOwner",
      "type": "error"
    },
    {
      "inputs": [
        {
          "internalType": "address",
          "name": "account",
          "type": "address"
        }
      ],
      "name": "OwnableUnauthorizedAccount",
      "type": "error"
    },
    {
      "inputs": [],
      "name": "ZERO_ADDRESS",
      "type": "error"
    },
    {
      "anonymous": false,
      "inputs": [
        {
          "indexed": true,
          "internalType": "bytes32",
          "name": "key",
          "type": "bytes32"
        },
        {
          "indexed": false,
          "internalType": "uint256",
          "name": "oldValue",
          "type": "uint256"
        },
        {
          "indexed": false,
          "internalType": "uint256",
          "name": "newValue",
          "type": "uint256"
        }
      ],
      "name": "ConfigUpdated",
      "type": "event"
    },
    {
      "anonymous": false,
      "inputs": [
        {
          "indexed": false,
          "internalType": "uint64",
          "name": "version",
          "type": "uint64"
        }
      ],
      "name": "Initialized",
      "type": "event"
    },
    {
      "anonymous": false,
      "inputs": [
        {
          "indexed": true,
          "internalType": "address",
          "name": "previousOwner",
          "type": "address"
        },
        {
          "indexed": true,
          "internalType": "address",
          "name": "newOwner",
          "type": "address"
        }
      ],
      "name": "OwnershipTransferred",
      "type": "event"
    },
    {
      "inputs": [],
      "name": "ARBITRATION_FROZEN_PERIOD",
      "outputs": [
        {
          "internalType": "bytes32",
          "name": "",
          "type": "bytes32"
        }
      ],
      "stateMutability": "view",
      "type": "function"
    },
    {
      "inputs": [],
      "name": "ARBITRATION_TIMEOUT",
      "outputs": [
        {
          "internalType": "bytes32",
          "name": "",
          "type": "bytes32"
        }
      ],
      "stateMutability": "view",
      "type": "function"
    },
    {
      "inputs": [],
      "name": "MAX_STAKE",
      "outputs": [
        {
          "internalType": "bytes32",
          "name": "",
          "type": "bytes32"
        }
      ],
      "stateMutability": "view",
      "type": "function"
    },
    {
      "inputs": [],
      "name": "MAX_TRANSACTION_DURATION",
      "outputs": [
        {
          "internalType": "bytes32",
          "name": "",
          "type": "bytes32"
        }
      ],
      "stateMutability": "view",
      "type": "function"
    },
    {
      "inputs": [],
      "name": "MIN_STAKE",
      "outputs": [
        {
          "internalType": "bytes32",
          "name": "",
          "type": "bytes32"
        }
      ],
      "stateMutability": "view",
      "type": "function"
    },
    {
      "inputs": [],
      "name": "MIN_STAKE_LOCKED_TIME",
      "outputs": [
        {
          "internalType": "bytes32",
          "name": "",
          "type": "bytes32"
        }
      ],
      "stateMutability": "view",
      "type": "function"
    },
    {
      "inputs": [],
      "name": "MIN_TRANSACTION_DURATION",
      "outputs": [
        {
          "internalType": "bytes32",
          "name": "",
          "type": "bytes32"
        }
      ],
      "stateMutability": "view",
      "type": "function"
    },
    {
      "inputs": [],
      "name": "SYSTEM_COMPENSATION_FEE_RATE",
      "outputs": [
        {
          "internalType": "bytes32",
          "name": "",
          "type": "bytes32"
        }
      ],
      "stateMutability": "view",
      "type": "function"
    },
    {
      "inputs": [],
      "name": "SYSTEM_FEE_COLLECTOR",
      "outputs": [
        {
          "internalType": "bytes32",
          "name": "",
          "type": "bytes32"
        }
      ],
      "stateMutability": "view",
      "type": "function"
    },
    {
      "inputs": [],
      "name": "SYSTEM_FEE_RATE",
      "outputs": [
        {
          "internalType": "bytes32",
          "name": "",
          "type": "bytes32"
        }
      ],
      "stateMutability": "view",
      "type": "function"
    },
    {
      "inputs": [],
      "name": "TRANSACTION_MIN_FEE_RATE",
      "outputs": [
        {
          "internalType": "bytes32",
          "name": "",
          "type": "bytes32"
        }
      ],
      "stateMutability": "view",
      "type": "function"
    },
    {
      "inputs": [],
      "name": "getAllConfigs",
      "outputs": [
        {
          "internalType": "bytes32[]",
          "name": "keys",
          "type": "bytes32[]"
        },
        {
          "internalType": "uint256[]",
          "name": "values",
          "type": "uint256[]"
        }
      ],
      "stateMutability": "view",
      "type": "function"
    },
    {
      "inputs": [],
      "name": "getArbitrationFrozenPeriod",
      "outputs": [
        {
          "internalType": "uint256",
          "name": "",
          "type": "uint256"
        }
      ],
      "stateMutability": "view",
      "type": "function"
    },
    {
      "inputs": [
        {
          "internalType": "bytes32",
          "name": "key",
          "type": "bytes32"
        }
      ],
      "name": "getConfig",
      "outputs": [
        {
          "internalType": "uint256",
          "name": "",
          "type": "uint256"
        }
      ],
      "stateMutability": "view",
      "type": "function"
    },
    {
      "inputs": [],
      "name": "getSystemCompensationFeeRate",
      "outputs": [
        {
          "internalType": "uint256",
          "name": "",
          "type": "uint256"
        }
      ],
      "stateMutability": "view",
      "type": "function"
    },
    {
      "inputs": [],
      "name": "getSystemFeeCollector",
      "outputs": [
        {
          "internalType": "address",
          "name": "",
          "type": "address"
        }
      ],
      "stateMutability": "view",
      "type": "function"
    },
    {
      "inputs": [],
      "name": "getSystemFeeRate",
      "outputs": [
        {
          "internalType": "uint256",
          "name": "",
          "type": "uint256"
        }
      ],
      "stateMutability": "view",
      "type": "function"
    },
    {
      "inputs": [],
      "name": "initialize",
      "outputs": [],
      "stateMutability": "nonpayable",
      "type": "function"
    },
    {
      "inputs": [],
      "name": "owner",
      "outputs": [
        {
          "internalType": "address",
          "name": "",
          "type": "address"
        }
      ],
      "stateMutability": "view",
      "type": "function"
    },
    {
      "inputs": [],
      "name": "renounceOwnership",
      "outputs": [],
      "stateMutability": "nonpayable",
      "type": "function"
    },
    {
      "inputs": [
        {
          "internalType": "uint256",
          "name": "period",
          "type": "uint256"
        }
      ],
      "name": "setArbitrationFrozenPeriod",
      "outputs": [],
      "stateMutability": "nonpayable",
      "type": "function"
    },
    {
      "inputs": [
        {
          "internalType": "uint256",
          "name": "timeout",
          "type": "uint256"
        }
      ],
      "name": "setArbitrationTimeout",
      "outputs": [],
      "stateMutability": "nonpayable",
      "type": "function"
    },
    {
      "inputs": [
        {
          "internalType": "bytes32[]",
          "name": "keys",
          "type": "bytes32[]"
        },
        {
          "internalType": "uint256[]",
          "name": "values",
          "type": "uint256[]"
        }
      ],
      "name": "setConfigs",
      "outputs": [],
      "stateMutability": "nonpayable",
      "type": "function"
    },
    {
      "inputs": [
        {
          "internalType": "uint256",
          "name": "amount",
          "type": "uint256"
        }
      ],
      "name": "setMaxStake",
      "outputs": [],
      "stateMutability": "nonpayable",
      "type": "function"
    },
    {
      "inputs": [
        {
          "internalType": "uint256",
          "name": "duration",
          "type": "uint256"
        }
      ],
      "name": "setMaxTransactionDuration",
      "outputs": [],
      "stateMutability": "nonpayable",
      "type": "function"
    },
    {
      "inputs": [
        {
          "internalType": "uint256",
          "name": "amount",
          "type": "uint256"
        }
      ],
      "name": "setMinStake",
      "outputs": [],
      "stateMutability": "nonpayable",
      "type": "function"
    },
    {
      "inputs": [
        {
          "internalType": "uint256",
          "name": "time",
          "type": "uint256"
        }
      ],
      "name": "setMinStakeLockedTime",
      "outputs": [],
      "stateMutability": "nonpayable",
      "type": "function"
    },
    {
      "inputs": [
        {
          "internalType": "uint256",
          "name": "duration",
          "type": "uint256"
        }
      ],
      "name": "setMinTransactionDuration",
      "outputs": [],
      "stateMutability": "nonpayable",
      "type": "function"
    },
    {
      "inputs": [
        {
          "internalType": "uint256",
          "name": "rate",
          "type": "uint256"
        }
      ],
      "name": "setSystemCompensationFeeRate",
      "outputs": [],
      "stateMutability": "nonpayable",
      "type": "function"
    },
    {
      "inputs": [
        {
          "internalType": "address",
          "name": "collector",
          "type": "address"
        }
      ],
      "name": "setSystemFeeCollector",
      "outputs": [],
      "stateMutability": "nonpayable",
      "type": "function"
    },
    {
      "inputs": [
        {
          "internalType": "uint256",
          "name": "rate",
          "type": "uint256"
        }
      ],
      "name": "setSystemFeeRate",
      "outputs": [],
      "stateMutability": "nonpayable",
      "type": "function"
    },
    {
      "inputs": [
        {
          "internalType": "uint256",
          "name": "rate",
          "type": "uint256"
        }
      ],
      "name": "setTransactionMinFeeRate",
      "outputs": [],
      "stateMutability": "nonpayable",
      "type": "function"
    },
    {
      "inputs": [
        {
          "internalType": "address",
          "name": "newOwner",
          "type": "address"
        }
      ],
      "name": "transferOwnership",
      "outputs": [],
      "stateMutability": "nonpayable",
      "type": "function"
    }
  ],
  "bytecode": "0x608060405234801561001057600080fd5b5061001961001e565b6100d0565b7ff0c57e16840df040f15088dc2f81fe391c3923bec73e23a9662efc9c229c6a00805468010000000000000000900460ff161561006e5760405163f92ee8a960e01b815260040160405180910390fd5b80546001600160401b03908116146100cd5780546001600160401b0319166001600160401b0390811782556040519081527fc7f505b2f371ae2175ee4913f4499e1f2633a7b5936321eed1cdaeb6115181d29060200160405180910390a15b50565b61181b806100df6000396000f3fe608060405234801561001057600080fd5b50600436106101fb5760003560e01c80636fc148371161011a578063a1ba7344116100ad578063cc9157b71161007c578063cc9157b7146104f0578063cd4abbcb14610503578063e6feb4f314610516578063e78c93631461052b578063f2fde38b1461053e57600080fd5b8063a1ba73441461049c578063b46d9ff7146104b1578063c98517c5146104c6578063cb1c2b5c146104db57600080fd5b80638129fc1c116100e95780638129fc1c146104595780638b6570a0146104615780638c80fd90146104815780638da5cb5b1461049457600080fd5b80636fc1483714610418578063715018a61461042b5780637869bdd9146104335780637c16f1bc1461044657600080fd5b806350e610b4116101925780635c97b6e1116101615780635c97b6e1146103915780635ece5e32146103a457806363507956146103e25780636dd5b69d146103f857600080fd5b806350e610b414610318578063552efc82146103565780635670ef721461036957806358d0b1471461037c57600080fd5b80633c8865ae116101ce5780633c8865ae1461028b578063400bec77146102c95780634a700a9d146102dc5780634b74d9ca146102f157600080fd5b80630868b0421461020057806309c71c0314610215578063104600651461024f5780633918a84614610276575b600080fd5b61021361020e36600461150c565b610551565b005b61023c7ff67cbfc49efbe49cfda2049f4fae02cff32ce41383dd9cd151875b60a92f872b81565b6040519081526020015b60405180910390f35b61023c7f8f589203cf1469152b6891bfec4d1037191a00847decb605045205b8d2c419f081565b61023c60008051602061172683398151915281565b60008051602061174683398151915260009081526020527f1273dc24968734fd6716e4443b1b490a1d2263bc285c9f2109e7b8972350fafa5461023c565b6102136102d736600461150c565b6105d9565b61023c6000805160206117a683398151915281565b61023c7fc919595274e5e6882421c3b30662e7d18eb2b09181b22c8f941f70ad25c9668581565b6000805160206116c683398151915260009081526020527fb4ebefe1c2bb30334c2647c39d91c3bc2b86bc444dc7ed06c1d3ab50c8052f345461023c565b610213610364366004611525565b610659565b6102136103773660046115a1565b6106f8565b61023c60008051602061178683398151915281565b61021361039f36600461150c565b61081c565b6000805160206117a683398151915260009081526020527f207fb48e2de38b1702af3ecad91ef3dcd50020cef182ed6f6531e9ea41972ecb5461023c565b6103ea61088a565b60405161024692919061160d565b61023c61040636600461150c565b60009081526020819052604090205490565b61021361042636600461150c565b610b71565b610213610c61565b61021361044136600461150c565b610c75565b61021361045436600461150c565b610ce3565b610213610d63565b610469611008565b6040516001600160a01b039091168152602001610246565b61021361048f36600461150c565b61105d565b61046961114a565b61023c6000805160206116c683398151915281565b61023c6000805160206116e683398151915281565b61023c6000805160206117c683398151915281565b61023c60008051602061170683398151915281565b6102136104fe36600461150c565b611178565b61021361051136600461150c565b61126d565b61023c60008051602061174683398151915281565b61021361053936600461150c565b6112db565b61021361054c366004611525565b6113c9565b610559611407565b7f8f589203cf1469152b6891bfec4d1037191a00847decb605045205b8d2c419f0600081815260209081527fd4dc9d022ea66284bf3759878e1770176314bb36aaa222128064ad39ef2e78408054908490556040805182815292830185905290929160008051602061176683398151915291015b60405180910390a25050565b6105e1611407565b7ff67cbfc49efbe49cfda2049f4fae02cff32ce41383dd9cd151875b60a92f872b600081815260209081527f9180475faa5598bd671d18c2e73a090c51d6e4c22382770d80ff4f5359ffb6698054908490556040805182815292830185905290929160008051602061176683398151915291016105cd565b610661611407565b6001600160a01b0381166106885760405163538ba4f960e01b815260040160405180910390fd5b6000805160206116e683398151915260008181526020527f3adec799e625fbcf9a9e6abd7129347c0d136e03b8c2b85a7bc847978c47995d80546001600160a01b03841691829055604051909291600080516020611766833981519152916105cd91858252602082015260400190565b610700611407565b8281146107205760405163899ef10d60e01b815260040160405180910390fd5b60005b8381101561081557600080600087878581811061074257610742611688565b90506020020135815260200190815260200160002054905083838381811061076c5761076c611688565b9050602002013560008088888681811061078857610788611688565b905060200201358152602001908152602001600020819055508585838181106107b3576107b3611688565b90506020020135600080516020611766833981519152828686868181106107dc576107dc611688565b905060200201356040516107fa929190918252602082015260400190565b60405180910390a2508061080d8161169e565b915050610723565b5050505050565b610824611407565b6000805160206116c6833981519152600081815260209081527fb4ebefe1c2bb30334c2647c39d91c3bc2b86bc444dc7ed06c1d3ab50c8052f348054908490556040805182815292830185905290929160008051602061176683398151915291016105cd565b60408051600b80825261018082019092526060918291906020820161016080368337505060408051600b808252610180820190925292945090506020820161016080368337019050509050600080516020611706833981519152826000815181106108f7576108f7611688565b6020026020010181815250506000805160206117c68339815191528260018151811061092557610925611688565b6020026020010181815250507f8f589203cf1469152b6891bfec4d1037191a00847decb605045205b8d2c419f08260028151811061096557610965611688565b6020026020010181815250506000805160206117268339815191528260038151811061099357610993611688565b602002602001018181525050600080516020611786833981519152826004815181106109c1576109c1611688565b6020026020010181815250507fc919595274e5e6882421c3b30662e7d18eb2b09181b22c8f941f70ad25c9668582600581518110610a0157610a01611688565b6020026020010181815250507ff67cbfc49efbe49cfda2049f4fae02cff32ce41383dd9cd151875b60a92f872b82600681518110610a4157610a41611688565b6020026020010181815250506000805160206117a683398151915282600781518110610a6f57610a6f611688565b6020026020010181815250506000805160206116c683398151915282600881518110610a9d57610a9d611688565b60200260200101818152505060008051602061174683398151915282600981518110610acb57610acb611688565b6020026020010181815250506000805160206116e683398151915282600a81518110610af957610af9611688565b60200260200101818152505060005b8251811015610b6c57600080848381518110610b2657610b26611688565b6020026020010151815260200190815260200160002054828281518110610b4f57610b4f611688565b602090810291909101015280610b648161169e565b915050610b08565b509091565b610b79611407565b60008051602061170683398151915260009081526020527f8bafc881ab8770d3aa3c40a001af1a259c4daead43125889a41a0df74b95df7b548111610bfb5760405162461bcd60e51b815260206004820152601360248201527226a0ac2fa9aa20a5a2afa122a627abafa6a4a760691b60448201526064015b60405180910390fd5b6000805160206117c6833981519152600081815260209081527f51ac12cdf0151e6aa80713607543060d53398bb18ee7490680ae53a7f3b7a5d58054908490556040805182815292830185905290929160008051602061176683398151915291016105cd565b610c69611407565b610c736000611439565b565b610c7d611407565b600080516020611746833981519152600081815260209081527f1273dc24968734fd6716e4443b1b490a1d2263bc285c9f2109e7b8972350fafa8054908490556040805182815292830185905290929160008051602061176683398151915291016105cd565b610ceb611407565b7fc919595274e5e6882421c3b30662e7d18eb2b09181b22c8f941f70ad25c96685600081815260209081527f93e2898a7ee2cc0245ce84b51d23cf640698dbafe7113348e9ffbd937319eb758054908490556040805182815292830185905290929160008051602061176683398151915291016105cd565b7ff0c57e16840df040f15088dc2f81fe391c3923bec73e23a9662efc9c229c6a008054600160401b810460ff16159067ffffffffffffffff16600081158015610da95750825b905060008267ffffffffffffffff166001148015610dc65750303b155b905081158015610dd4575080155b15610df25760405163f92ee8a960e01b815260040160405180910390fd5b845467ffffffffffffffff191660011785558315610e1c57845460ff60401b1916600160401b1785555b610e25336114aa565b60006020819052670de0b6b3a76400007f8bafc881ab8770d3aa3c40a001af1a259c4daead43125889a41a0df74b95df7b5568056bc75e2d631000007f51ac12cdf0151e6aa80713607543060d53398bb18ee7490680ae53a7f3b7a5d55562093a807fd4dc9d022ea66284bf3759878e1770176314bb36aaa222128064ad39ef2e784055620151807feb2d9762322eda69d1229fed9cd144289eed5219d3d6c156e84fe513b33e612d81905562278d007f0606a183f408ed27cd9d043212a6d33aa8f4b829614c8aacaaea09b483cbb1c55560647f93e2898a7ee2cc0245ce84b51d23cf640698dbafe7113348e9ffbd937319eb75557f9180475faa5598bd671d18c2e73a090c51d6e4c22382770d80ff4f5359ffb669556107087f207fb48e2de38b1702af3ecad91ef3dcd50020cef182ed6f6531e9ea41972ecb556101f47fb4ebefe1c2bb30334c2647c39d91c3bc2b86bc444dc7ed06c1d3ab50c8052f3455600080516020611746833981519152905260c87f1273dc24968734fd6716e4443b1b490a1d2263bc285c9f2109e7b8972350fafa55831561081557845460ff60401b19168555604051600181527fc7f505b2f371ae2175ee4913f4499e1f2633a7b5936321eed1cdaeb6115181d29060200160405180910390a15050505050565b6000805160206116e6833981519152600090815260208190527f3adec799e625fbcf9a9e6abd7129347c0d136e03b8c2b85a7bc847978c47995d548082036110585761105261114a565b91505090565b919050565b611065611407565b6000805160206117c683398151915260009081526020527f51ac12cdf0151e6aa80713607543060d53398bb18ee7490680ae53a7f3b7a5d55481106110e45760405162461bcd60e51b815260206004820152601560248201527409a929cbea6a882968abe8ab0868a8a88a6be9a82b605b1b6044820152606401610bf2565b600080516020611706833981519152600081815260209081527f8bafc881ab8770d3aa3c40a001af1a259c4daead43125889a41a0df74b95df7b8054908490556040805182815292830185905290929160008051602061176683398151915291016105cd565b7f9016d09d72d40fdae2fd8ceac6b6234c7706214fd39c1cd1e609a0528c199300546001600160a01b031690565b611180611407565b60008051602061178683398151915260009081526020527f0606a183f408ed27cd9d043212a6d33aa8f4b829614c8aacaaea09b483cbb1c55481106112075760405162461bcd60e51b815260206004820152601860248201527f4d494e5f4455524154494f4e5f455843454544535f4d415800000000000000006044820152606401610bf2565b600080516020611726833981519152600081815260209081527feb2d9762322eda69d1229fed9cd144289eed5219d3d6c156e84fe513b33e612d8054908490556040805182815292830185905290929160008051602061176683398151915291016105cd565b611275611407565b6000805160206117a6833981519152600081815260209081527f207fb48e2de38b1702af3ecad91ef3dcd50020cef182ed6f6531e9ea41972ecb8054908490556040805182815292830185905290929160008051602061176683398151915291016105cd565b6112e3611407565b60008051602061172683398151915260009081526020527feb2d9762322eda69d1229fed9cd144289eed5219d3d6c156e84fe513b33e612d5481116113635760405162461bcd60e51b815260206004820152601660248201527526a0ac2fa22aa920aa24a7a72fa122a627abafa6a4a760511b6044820152606401610bf2565b600080516020611786833981519152600081815260209081527f0606a183f408ed27cd9d043212a6d33aa8f4b829614c8aacaaea09b483cbb1c58054908490556040805182815292830185905290929160008051602061176683398151915291016105cd565b6113d1611407565b6001600160a01b0381166113fb57604051631e4fbdf760e01b815260006004820152602401610bf2565b61140481611439565b50565b3361141061114a565b6001600160a01b031614610c735760405163118cdaa760e01b8152336004820152602401610bf2565b7f9016d09d72d40fdae2fd8ceac6b6234c7706214fd39c1cd1e609a0528c19930080546001600160a01b031981166001600160a01b03848116918217845560405192169182907f8be0079c531659141344cd1fd0a4f28419497f9722a3daafe3b4186f6b6457e090600090a3505050565b6114b26114bb565b61140481611504565b7ff0c57e16840df040f15088dc2f81fe391c3923bec73e23a9662efc9c229c6a0054600160401b900460ff16610c7357604051631afcd79f60e31b815260040160405180910390fd5b6113d16114bb565b60006020828403121561151e57600080fd5b5035919050565b60006020828403121561153757600080fd5b81356001600160a01b038116811461154e57600080fd5b9392505050565b60008083601f84011261156757600080fd5b50813567ffffffffffffffff81111561157f57600080fd5b6020830191508360208260051b850101111561159a57600080fd5b9250929050565b600080600080604085870312156115b757600080fd5b843567ffffffffffffffff808211156115cf57600080fd5b6115db88838901611555565b909650945060208701359150808211156115f457600080fd5b5061160187828801611555565b95989497509550505050565b604080825283519082018190526000906020906060840190828701845b828110156116465781518452928401929084019060010161162a565b5050508381038285015284518082528583019183019060005b8181101561167b5783518352928401929184019160010161165f565b5090979650505050505050565b634e487b7160e01b600052603260045260246000fd5b6000600182016116be57634e487b7160e01b600052601160045260246000fd5b506001019056fed91f20541e9312a0f4d27f0f0ba02500035307ac99ea67c86c8342ab3fd71bc5ab24f8bdba3ac1714795343236c2c4f2f4ec1dc7852ad6c62c7d11680c9f1a58a2cacd4c4a17915c9b22ff024458e28713037852123218861ef99f8b37b23424251496a2e9229b930e5943f3c3e4da6cb786017948b856c9d455ed9cf0fc156c4d71e6d712d945d50e1827c705441b1e232ecaaeb195788524f5523b0785b0a2ac2ccce3de9c0816ae772598f7f65fe69f9893b637f7c490497378cbb3ea043ed31f84da73b6cb3a8c2e853a7c46b1c95600fc6ab5acdbeb4f7f16e875c25ab80e223b97d7f941cfc1eaa79302686d0fb0d9628e1d7a65633e700791f0beecce6ce6c3872790fbf28e7fa6102c9021f882ca7c1af8a947c293f9d8c6a5537a5fa2646970667358221220b44634e024783b5ddcdc278f500fa5d620fd2859f3c9f1e3cf038e6ea2b4a81c64736f6c63430008140033",
  "linkReferences": {},
  "deployedLinkReferences": {}
}