{
  "_format": "hh-sol-artifact-1",
  "contractName": "ConfigManager",
  "sourceName": "contracts/core/ConfigManager.sol",
  "abi": [
    {
      "inputs": [
        {
          "internalType": "address",
          "name": "initialOwner",
          "type": "address"
        }
      ],
      "stateMutability": "nonpayable",
      "type": "constructor"
    },
    {
      "inputs": [],
      "name": "LENGTH_MISMATCH",
      "type": "error"
    },
    {
      "inputs": [
        {
          "internalType": "address",
          "name": "owner",
          "type": "address"
        }
      ],
      "name": "OwnableInvalidOwner",
      "type": "error"
    },
    {
      "inputs": [
        {
          "internalType": "address",
          "name": "account",
          "type": "address"
        }
      ],
      "name": "OwnableUnauthorizedAccount",
      "type": "error"
    },
    {
      "inputs": [],
      "name": "ZERO_ADDRESS",
      "type": "error"
    },
    {
      "anonymous": false,
      "inputs": [
        {
          "indexed": true,
          "internalType": "bytes32",
          "name": "key",
          "type": "bytes32"
        },
        {
          "indexed": false,
          "internalType": "uint256",
          "name": "oldValue",
          "type": "uint256"
        },
        {
          "indexed": false,
          "internalType": "uint256",
          "name": "newValue",
          "type": "uint256"
        }
      ],
      "name": "ConfigUpdated",
      "type": "event"
    },
    {
      "anonymous": false,
      "inputs": [
        {
          "indexed": true,
          "internalType": "address",
          "name": "previousOwner",
          "type": "address"
        },
        {
          "indexed": true,
          "internalType": "address",
          "name": "newOwner",
          "type": "address"
        }
      ],
      "name": "OwnershipTransferred",
      "type": "event"
    },
    {
      "inputs": [],
      "name": "ARBITRATION_FROZEN_PERIOD",
      "outputs": [
        {
          "internalType": "bytes32",
          "name": "",
          "type": "bytes32"
        }
      ],
      "stateMutability": "view",
      "type": "function"
    },
    {
      "inputs": [],
      "name": "ARBITRATION_TIMEOUT",
      "outputs": [
        {
          "internalType": "bytes32",
          "name": "",
          "type": "bytes32"
        }
      ],
      "stateMutability": "view",
      "type": "function"
    },
    {
      "inputs": [],
      "name": "MAX_STAKE",
      "outputs": [
        {
          "internalType": "bytes32",
          "name": "",
          "type": "bytes32"
        }
      ],
      "stateMutability": "view",
      "type": "function"
    },
    {
      "inputs": [],
      "name": "MAX_TRANSACTION_DURATION",
      "outputs": [
        {
          "internalType": "bytes32",
          "name": "",
          "type": "bytes32"
        }
      ],
      "stateMutability": "view",
      "type": "function"
    },
    {
      "inputs": [],
      "name": "MIN_STAKE",
      "outputs": [
        {
          "internalType": "bytes32",
          "name": "",
          "type": "bytes32"
        }
      ],
      "stateMutability": "view",
      "type": "function"
    },
    {
      "inputs": [],
      "name": "MIN_STAKE_LOCKED_TIME",
      "outputs": [
        {
          "internalType": "bytes32",
          "name": "",
          "type": "bytes32"
        }
      ],
      "stateMutability": "view",
      "type": "function"
    },
    {
      "inputs": [],
      "name": "MIN_TRANSACTION_DURATION",
      "outputs": [
        {
          "internalType": "bytes32",
          "name": "",
          "type": "bytes32"
        }
      ],
      "stateMutability": "view",
      "type": "function"
    },
    {
      "inputs": [],
      "name": "SYSTEM_COMPENSATION_FEE_RATE",
      "outputs": [
        {
          "internalType": "bytes32",
          "name": "",
          "type": "bytes32"
        }
      ],
      "stateMutability": "view",
      "type": "function"
    },
    {
      "inputs": [],
      "name": "SYSTEM_FEE_COLLECTOR",
      "outputs": [
        {
          "internalType": "bytes32",
          "name": "",
          "type": "bytes32"
        }
      ],
      "stateMutability": "view",
      "type": "function"
    },
    {
      "inputs": [],
      "name": "SYSTEM_FEE_RATE",
      "outputs": [
        {
          "internalType": "bytes32",
          "name": "",
          "type": "bytes32"
        }
      ],
      "stateMutability": "view",
      "type": "function"
    },
    {
      "inputs": [],
      "name": "TRANSACTION_MIN_FEE_RATE",
      "outputs": [
        {
          "internalType": "bytes32",
          "name": "",
          "type": "bytes32"
        }
      ],
      "stateMutability": "view",
      "type": "function"
    },
    {
      "inputs": [],
      "name": "getAllConfigs",
      "outputs": [
        {
          "internalType": "bytes32[]",
          "name": "keys",
          "type": "bytes32[]"
        },
        {
          "internalType": "uint256[]",
          "name": "values",
          "type": "uint256[]"
        }
      ],
      "stateMutability": "view",
      "type": "function"
    },
    {
      "inputs": [],
      "name": "getArbitrationFrozenPeriod",
      "outputs": [
        {
          "internalType": "uint256",
          "name": "",
          "type": "uint256"
        }
      ],
      "stateMutability": "view",
      "type": "function"
    },
    {
      "inputs": [
        {
          "internalType": "bytes32",
          "name": "key",
          "type": "bytes32"
        }
      ],
      "name": "getConfig",
      "outputs": [
        {
          "internalType": "uint256",
          "name": "",
          "type": "uint256"
        }
      ],
      "stateMutability": "view",
      "type": "function"
    },
    {
      "inputs": [],
      "name": "getSystemCompensationFeeRate",
      "outputs": [
        {
          "internalType": "uint256",
          "name": "",
          "type": "uint256"
        }
      ],
      "stateMutability": "view",
      "type": "function"
    },
    {
      "inputs": [],
      "name": "getSystemFeeCollector",
      "outputs": [
        {
          "internalType": "address",
          "name": "",
          "type": "address"
        }
      ],
      "stateMutability": "view",
      "type": "function"
    },
    {
      "inputs": [],
      "name": "getSystemFeeRate",
      "outputs": [
        {
          "internalType": "uint256",
          "name": "",
          "type": "uint256"
        }
      ],
      "stateMutability": "view",
      "type": "function"
    },
    {
      "inputs": [],
      "name": "owner",
      "outputs": [
        {
          "internalType": "address",
          "name": "",
          "type": "address"
        }
      ],
      "stateMutability": "view",
      "type": "function"
    },
    {
      "inputs": [],
      "name": "renounceOwnership",
      "outputs": [],
      "stateMutability": "nonpayable",
      "type": "function"
    },
    {
      "inputs": [
        {
          "internalType": "uint256",
          "name": "period",
          "type": "uint256"
        }
      ],
      "name": "setArbitrationFrozenPeriod",
      "outputs": [],
      "stateMutability": "nonpayable",
      "type": "function"
    },
    {
      "inputs": [
        {
          "internalType": "uint256",
          "name": "timeout",
          "type": "uint256"
        }
      ],
      "name": "setArbitrationTimeout",
      "outputs": [],
      "stateMutability": "nonpayable",
      "type": "function"
    },
    {
      "inputs": [
        {
          "internalType": "bytes32[]",
          "name": "keys",
          "type": "bytes32[]"
        },
        {
          "internalType": "uint256[]",
          "name": "values",
          "type": "uint256[]"
        }
      ],
      "name": "setConfigs",
      "outputs": [],
      "stateMutability": "nonpayable",
      "type": "function"
    },
    {
      "inputs": [
        {
          "internalType": "uint256",
          "name": "amount",
          "type": "uint256"
        }
      ],
      "name": "setMaxStake",
      "outputs": [],
      "stateMutability": "nonpayable",
      "type": "function"
    },
    {
      "inputs": [
        {
          "internalType": "uint256",
          "name": "duration",
          "type": "uint256"
        }
      ],
      "name": "setMaxTransactionDuration",
      "outputs": [],
      "stateMutability": "nonpayable",
      "type": "function"
    },
    {
      "inputs": [
        {
          "internalType": "uint256",
          "name": "amount",
          "type": "uint256"
        }
      ],
      "name": "setMinStake",
      "outputs": [],
      "stateMutability": "nonpayable",
      "type": "function"
    },
    {
      "inputs": [
        {
          "internalType": "uint256",
          "name": "time",
          "type": "uint256"
        }
      ],
      "name": "setMinStakeLockedTime",
      "outputs": [],
      "stateMutability": "nonpayable",
      "type": "function"
    },
    {
      "inputs": [
        {
          "internalType": "uint256",
          "name": "duration",
          "type": "uint256"
        }
      ],
      "name": "setMinTransactionDuration",
      "outputs": [],
      "stateMutability": "nonpayable",
      "type": "function"
    },
    {
      "inputs": [
        {
          "internalType": "uint256",
          "name": "rate",
          "type": "uint256"
        }
      ],
      "name": "setSystemCompensationFeeRate",
      "outputs": [],
      "stateMutability": "nonpayable",
      "type": "function"
    },
    {
      "inputs": [
        {
          "internalType": "address",
          "name": "collector",
          "type": "address"
        }
      ],
      "name": "setSystemFeeCollector",
      "outputs": [],
      "stateMutability": "nonpayable",
      "type": "function"
    },
    {
      "inputs": [
        {
          "internalType": "uint256",
          "name": "rate",
          "type": "uint256"
        }
      ],
      "name": "setSystemFeeRate",
      "outputs": [],
      "stateMutability": "nonpayable",
      "type": "function"
    },
    {
      "inputs": [
        {
          "internalType": "uint256",
          "name": "rate",
          "type": "uint256"
        }
      ],
      "name": "setTransactionMinFeeRate",
      "outputs": [],
      "stateMutability": "nonpayable",
      "type": "function"
    },
    {
      "inputs": [
        {
          "internalType": "address",
          "name": "newOwner",
          "type": "address"
        }
      ],
      "name": "transferOwnership",
      "outputs": [],
      "stateMutability": "nonpayable",
      "type": "function"
    }
  ],
  "bytecode": "0x608060405234801561001057600080fd5b5060405161177738038061177783398101604081905261002f91610266565b806001600160a01b03811661005e57604051631e4fbdf760e01b81526000600482015260240160405180910390fd5b61006781610216565b50506001602052670de0b6b3a76400007ff2a16b4ae4319fdfc8f05520a5b5cabfa8388cc310e4a09ab55f1457c48b6a4f5568056bc75e2d631000007f06fe885cfc110ebf1199965c07fe84f2b830ff5c61e33ded2277f5d0de9ea03a5562093a807f027fd12221b16450ed19e87fa16bee6e44862d687ec641c0f3785d6add2f4bbc55620151807f7427aea1c83f8aaab77bcbffec4543ace939cff3dfea672e509a6346e31ff1fc81905562278d007fb3eded19595ea6f0bfb6f4fe564ebda870edf06cc701ba79591812704e2a3b2e5560647fbdb4c5b02e9415594421ff895ded6dc4cd18a62ffc0c2019d199345b29d38a02557f21434ff3eb0421f510f7a4fb8f8ccd6d4cd1c666d33b68fc37f71f2a53279338556107087f44b7e368633c0591dd415813410ce2bf5d966db91c5de888ded033ed48973ed0556101f47fb835eafd87601cb4ee169ea5293e9134d59ccec5f2880b713bec528f509f75a0557f4d71e6d712d945d50e1827c705441b1e232ecaaeb195788524f5523b0785b0a260005260c87f7931bf5393db65e0d64bb4e8c78e6adf495165f394678a9fefaf623ff266cbd855610296565b600080546001600160a01b038381166001600160a01b0319831681178455604051919092169283917f8be0079c531659141344cd1fd0a4f28419497f9722a3daafe3b4186f6b6457e09190a35050565b60006020828403121561027857600080fd5b81516001600160a01b038116811461028f57600080fd5b9392505050565b6114d2806102a56000396000f3fe608060405234801561001057600080fd5b50600436106101f05760003560e01c80636fc148371161010f578063b46d9ff7116100a2578063cd4abbcb11610071578063cd4abbcb146104f9578063e6feb4f31461050c578063e78c936314610521578063f2fde38b1461053457600080fd5b8063b46d9ff7146104a7578063c98517c5146104bc578063cb1c2b5c146104d1578063cc9157b7146104e657600080fd5b80638b6570a0116100de5780638b6570a01461044e5780638c80fd901461046e5780638da5cb5b14610481578063a1ba73441461049257600080fd5b80636fc148371461040d578063715018a6146104205780637869bdd9146104285780637c16f1bc1461043b57600080fd5b806350e610b4116101875780635c97b6e1116101565780635c97b6e1146103865780635ece5e321461039957806363507956146103d75780636dd5b69d146103ed57600080fd5b806350e610b41461030d578063552efc821461034b5780635670ef721461035e57806358d0b1471461037157600080fd5b80633c8865ae116101c35780633c8865ae14610280578063400bec77146102be5780634a700a9d146102d15780634b74d9ca146102e657600080fd5b80630868b042146101f557806309c71c031461020a57806310460065146102445780633918a8461461026b575b600080fd5b6102086102033660046111c3565b610547565b005b6102317ff67cbfc49efbe49cfda2049f4fae02cff32ce41383dd9cd151875b60a92f872b81565b6040519081526020015b60405180910390f35b6102317f8f589203cf1469152b6891bfec4d1037191a00847decb605045205b8d2c419f081565b6102316000805160206113dd83398151915281565b6000805160206113fd83398151915260005260016020527f7931bf5393db65e0d64bb4e8c78e6adf495165f394678a9fefaf623ff266cbd854610231565b6102086102cc3660046111c3565b6105d1565b61023160008051602061145d83398151915281565b6102317fc919595274e5e6882421c3b30662e7d18eb2b09181b22c8f941f70ad25c9668581565b60008051602061137d83398151915260005260016020527fb835eafd87601cb4ee169ea5293e9134d59ccec5f2880b713bec528f509f75a054610231565b6102086103593660046111dc565b610653565b61020861036c366004611258565b6106f4565b61023160008051602061143d83398151915281565b6102086103943660046111c3565b61081a565b60008051602061145d83398151915260005260016020527f44b7e368633c0591dd415813410ce2bf5d966db91c5de888ded033ed48973ed054610231565b6103df61088a565b60405161023b9291906112c4565b6102316103fb3660046111c3565b60009081526001602052604090205490565b61020861041b3660046111c3565b610b72565b610208610c64565b6102086104363660046111c3565b610c78565b6102086104493660046111c3565b610ce8565b610456610d6a565b6040516001600160a01b03909116815260200161023b565b61020861047c3660046111c3565b610dc2565b6000546001600160a01b0316610456565b61023160008051602061137d83398151915281565b61023160008051602061139d83398151915281565b61023160008051602061147d83398151915281565b6102316000805160206113bd83398151915281565b6102086104f43660046111c3565b610eb1565b6102086105073660046111c3565b610fa8565b6102316000805160206113fd83398151915281565b61020861052f3660046111c3565b611018565b6102086105423660046111dc565b611108565b61054f611146565b7f8f589203cf1469152b6891bfec4d1037191a00847decb605045205b8d2c419f06000819052600160209081527f027fd12221b16450ed19e87fa16bee6e44862d687ec641c0f3785d6add2f4bbc8054908490556040805182815292830185905290929160008051602061141d83398151915291015b60405180910390a25050565b6105d9611146565b7ff67cbfc49efbe49cfda2049f4fae02cff32ce41383dd9cd151875b60a92f872b6000819052600160209081527f21434ff3eb0421f510f7a4fb8f8ccd6d4cd1c666d33b68fc37f71f2a532793388054908490556040805182815292830185905290929160008051602061141d83398151915291016105c5565b61065b611146565b6001600160a01b0381166106825760405163538ba4f960e01b815260040160405180910390fd5b60008051602061139d833981519152600081905260016020527ff2b9b84c1b4fe0d29f30ad0a0e0a0a428524e96cbd099dcc1d4bba136e60c19a80546001600160a01b0384169182905560405190929160008051602061141d833981519152916105c591858252602082015260400190565b6106fc611146565b82811461071c5760405163899ef10d60e01b815260040160405180910390fd5b60005b838110156108135760006001600087878581811061073f5761073f61133f565b9050602002013581526020019081526020016000205490508383838181106107695761076961133f565b90506020020135600160008888868181106107865761078661133f565b905060200201358152602001908152602001600020819055508585838181106107b1576107b161133f565b9050602002013560008051602061141d833981519152828686868181106107da576107da61133f565b905060200201356040516107f8929190918252602082015260400190565b60405180910390a2508061080b81611355565b91505061071f565b5050505050565b610822611146565b60008051602061137d8339815191526000819052600160209081527fb835eafd87601cb4ee169ea5293e9134d59ccec5f2880b713bec528f509f75a08054908490556040805182815292830185905290929160008051602061141d83398151915291016105c5565b60408051600b80825261018082019092526060918291906020820161016080368337505060408051600b8082526101808201909252929450905060208201610160803683370190505090506000805160206113bd833981519152826000815181106108f7576108f761133f565b60200260200101818152505060008051602061147d833981519152826001815181106109255761092561133f565b6020026020010181815250507f8f589203cf1469152b6891bfec4d1037191a00847decb605045205b8d2c419f0826002815181106109655761096561133f565b6020026020010181815250506000805160206113dd833981519152826003815181106109935761099361133f565b60200260200101818152505060008051602061143d833981519152826004815181106109c1576109c161133f565b6020026020010181815250507fc919595274e5e6882421c3b30662e7d18eb2b09181b22c8f941f70ad25c9668582600581518110610a0157610a0161133f565b6020026020010181815250507ff67cbfc49efbe49cfda2049f4fae02cff32ce41383dd9cd151875b60a92f872b82600681518110610a4157610a4161133f565b60200260200101818152505060008051602061145d83398151915282600781518110610a6f57610a6f61133f565b60200260200101818152505060008051602061137d83398151915282600881518110610a9d57610a9d61133f565b6020026020010181815250506000805160206113fd83398151915282600981518110610acb57610acb61133f565b60200260200101818152505060008051602061139d83398151915282600a81518110610af957610af961133f565b60200260200101818152505060005b8251811015610b6d5760016000848381518110610b2757610b2761133f565b6020026020010151815260200190815260200160002054828281518110610b5057610b5061133f565b602090810291909101015280610b6581611355565b915050610b08565b509091565b610b7a611146565b6000805160206113bd83398151915260005260016020527ff2a16b4ae4319fdfc8f05520a5b5cabfa8388cc310e4a09ab55f1457c48b6a4f548111610bfc5760405162461bcd60e51b815260206004820152601360248201527226a0ac2fa9aa20a5a2afa122a627abafa6a4a760691b60448201526064015b60405180910390fd5b60008051602061147d8339815191526000819052600160209081527f06fe885cfc110ebf1199965c07fe84f2b830ff5c61e33ded2277f5d0de9ea03a8054908490556040805182815292830185905290929160008051602061141d83398151915291016105c5565b610c6c611146565b610c766000611173565b565b610c80611146565b6000805160206113fd8339815191526000819052600160209081527f7931bf5393db65e0d64bb4e8c78e6adf495165f394678a9fefaf623ff266cbd88054908490556040805182815292830185905290929160008051602061141d83398151915291016105c5565b610cf0611146565b7fc919595274e5e6882421c3b30662e7d18eb2b09181b22c8f941f70ad25c966856000819052600160209081527fbdb4c5b02e9415594421ff895ded6dc4cd18a62ffc0c2019d199345b29d38a028054908490556040805182815292830185905290929160008051602061141d83398151915291016105c5565b60008051602061139d833981519152600090815260016020527ff2b9b84c1b4fe0d29f30ad0a0e0a0a428524e96cbd099dcc1d4bba136e60c19a54808203610dbd5750506000546001600160a01b031690565b919050565b610dca611146565b60008051602061147d83398151915260005260016020527f06fe885cfc110ebf1199965c07fe84f2b830ff5c61e33ded2277f5d0de9ea03a548110610e495760405162461bcd60e51b815260206004820152601560248201527409a929cbea6a882968abe8ab0868a8a88a6be9a82b605b1b6044820152606401610bf3565b6000805160206113bd8339815191526000819052600160209081527ff2a16b4ae4319fdfc8f05520a5b5cabfa8388cc310e4a09ab55f1457c48b6a4f8054908490556040805182815292830185905290929160008051602061141d83398151915291016105c5565b610eb9611146565b60008051602061143d83398151915260005260016020527fb3eded19595ea6f0bfb6f4fe564ebda870edf06cc701ba79591812704e2a3b2e548110610f405760405162461bcd60e51b815260206004820152601860248201527f4d494e5f4455524154494f4e5f455843454544535f4d415800000000000000006044820152606401610bf3565b6000805160206113dd8339815191526000819052600160209081527f7427aea1c83f8aaab77bcbffec4543ace939cff3dfea672e509a6346e31ff1fc8054908490556040805182815292830185905290929160008051602061141d83398151915291016105c5565b610fb0611146565b60008051602061145d8339815191526000819052600160209081527f44b7e368633c0591dd415813410ce2bf5d966db91c5de888ded033ed48973ed08054908490556040805182815292830185905290929160008051602061141d83398151915291016105c5565b611020611146565b6000805160206113dd83398151915260005260016020527f7427aea1c83f8aaab77bcbffec4543ace939cff3dfea672e509a6346e31ff1fc5481116110a05760405162461bcd60e51b815260206004820152601660248201527526a0ac2fa22aa920aa24a7a72fa122a627abafa6a4a760511b6044820152606401610bf3565b60008051602061143d8339815191526000819052600160209081527fb3eded19595ea6f0bfb6f4fe564ebda870edf06cc701ba79591812704e2a3b2e8054908490556040805182815292830185905290929160008051602061141d83398151915291016105c5565b611110611146565b6001600160a01b03811661113a57604051631e4fbdf760e01b815260006004820152602401610bf3565b61114381611173565b50565b6000546001600160a01b03163314610c765760405163118cdaa760e01b8152336004820152602401610bf3565b600080546001600160a01b038381166001600160a01b0319831681178455604051919092169283917f8be0079c531659141344cd1fd0a4f28419497f9722a3daafe3b4186f6b6457e09190a35050565b6000602082840312156111d557600080fd5b5035919050565b6000602082840312156111ee57600080fd5b81356001600160a01b038116811461120557600080fd5b9392505050565b60008083601f84011261121e57600080fd5b50813567ffffffffffffffff81111561123657600080fd5b6020830191508360208260051b850101111561125157600080fd5b9250929050565b6000806000806040858703121561126e57600080fd5b843567ffffffffffffffff8082111561128657600080fd5b6112928883890161120c565b909650945060208701359150808211156112ab57600080fd5b506112b88782880161120c565b95989497509550505050565b604080825283519082018190526000906020906060840190828701845b828110156112fd578151845292840192908401906001016112e1565b5050508381038285015284518082528583019183019060005b8181101561133257835183529284019291840191600101611316565b5090979650505050505050565b634e487b7160e01b600052603260045260246000fd5b60006001820161137557634e487b7160e01b600052601160045260246000fd5b506001019056fed91f20541e9312a0f4d27f0f0ba02500035307ac99ea67c86c8342ab3fd71bc5ab24f8bdba3ac1714795343236c2c4f2f4ec1dc7852ad6c62c7d11680c9f1a58a2cacd4c4a17915c9b22ff024458e28713037852123218861ef99f8b37b23424251496a2e9229b930e5943f3c3e4da6cb786017948b856c9d455ed9cf0fc156c4d71e6d712d945d50e1827c705441b1e232ecaaeb195788524f5523b0785b0a2ac2ccce3de9c0816ae772598f7f65fe69f9893b637f7c490497378cbb3ea043ed31f84da73b6cb3a8c2e853a7c46b1c95600fc6ab5acdbeb4f7f16e875c25ab80e223b97d7f941cfc1eaa79302686d0fb0d9628e1d7a65633e700791f0beecce6ce6c3872790fbf28e7fa6102c9021f882ca7c1af8a947c293f9d8c6a5537a5fa2646970667358221220a5a1f9d1d43089f74c396eba5b5d749a2f08d057626657c7cf7ac16a20ee9ec064736f6c63430008140033",
  "linkReferences": {},
  "deployedLinkReferences": {}
}