{
  "_format": "hh-sol-artifact-1",
  "contractName": "MockNFT",
  "sourceName": "contracts/mocks/MockNFT.sol",
  "abi": [
    {
      "inputs": [],
      "stateMutability": "nonpayable",
      "type": "constructor"
    },
    {
      "inputs": [
        {
          "internalType": "address",
          "name": "sender",
          "type": "address"
        },
        {
          "internalType": "uint256",
          "name": "tokenId",
          "type": "uint256"
        },
        {
          "internalType": "address",
          "name": "owner",
          "type": "address"
        }
      ],
      "name": "ERC721IncorrectOwner",
      "type": "error"
    },
    {
      "inputs": [
        {
          "internalType": "address",
          "name": "operator",
          "type": "address"
        },
        {
          "internalType": "uint256",
          "name": "tokenId",
          "type": "uint256"
        }
      ],
      "name": "ERC721InsufficientApproval",
      "type": "error"
    },
    {
      "inputs": [
        {
          "internalType": "address",
          "name": "approver",
          "type": "address"
        }
      ],
      "name": "ERC721InvalidApprover",
      "type": "error"
    },
    {
      "inputs": [
        {
          "internalType": "address",
          "name": "operator",
          "type": "address"
        }
      ],
      "name": "ERC721InvalidOperator",
      "type": "error"
    },
    {
      "inputs": [
        {
          "internalType": "address",
          "name": "owner",
          "type": "address"
        }
      ],
      "name": "ERC721InvalidOwner",
      "type": "error"
    },
    {
      "inputs": [
        {
          "internalType": "address",
          "name": "receiver",
          "type": "address"
        }
      ],
      "name": "ERC721InvalidReceiver",
      "type": "error"
    },
    {
      "inputs": [
        {
          "internalType": "address",
          "name": "sender",
          "type": "address"
        }
      ],
      "name": "ERC721InvalidSender",
      "type": "error"
    },
    {
      "inputs": [
        {
          "internalType": "uint256",
          "name": "tokenId",
          "type": "uint256"
        }
      ],
      "name": "ERC721NonexistentToken",
      "type": "error"
    },
    {
      "inputs": [
        {
          "internalType": "address",
          "name": "owner",
          "type": "address"
        }
      ],
      "name": "OwnableInvalidOwner",
      "type": "error"
    },
    {
      "inputs": [
        {
          "internalType": "address",
          "name": "account",
          "type": "address"
        }
      ],
      "name": "OwnableUnauthorizedAccount",
      "type": "error"
    },
    {
      "anonymous": false,
      "inputs": [
        {
          "indexed": true,
          "internalType": "address",
          "name": "owner",
          "type": "address"
        },
        {
          "indexed": true,
          "internalType": "address",
          "name": "approved",
          "type": "address"
        },
        {
          "indexed": true,
          "internalType": "uint256",
          "name": "tokenId",
          "type": "uint256"
        }
      ],
      "name": "Approval",
      "type": "event"
    },
    {
      "anonymous": false,
      "inputs": [
        {
          "indexed": true,
          "internalType": "address",
          "name": "owner",
          "type": "address"
        },
        {
          "indexed": true,
          "internalType": "address",
          "name": "operator",
          "type": "address"
        },
        {
          "indexed": false,
          "internalType": "bool",
          "name": "approved",
          "type": "bool"
        }
      ],
      "name": "ApprovalForAll",
      "type": "event"
    },
    {
      "anonymous": false,
      "inputs": [
        {
          "indexed": true,
          "internalType": "address",
          "name": "previousOwner",
          "type": "address"
        },
        {
          "indexed": true,
          "internalType": "address",
          "name": "newOwner",
          "type": "address"
        }
      ],
      "name": "OwnershipTransferred",
      "type": "event"
    },
    {
      "anonymous": false,
      "inputs": [
        {
          "indexed": true,
          "internalType": "address",
          "name": "from",
          "type": "address"
        },
        {
          "indexed": true,
          "internalType": "address",
          "name": "to",
          "type": "address"
        },
        {
          "indexed": true,
          "internalType": "uint256",
          "name": "tokenId",
          "type": "uint256"
        }
      ],
      "name": "Transfer",
      "type": "event"
    },
    {
      "inputs": [
        {
          "internalType": "address",
          "name": "to",
          "type": "address"
        },
        {
          "internalType": "uint256",
          "name": "tokenId",
          "type": "uint256"
        }
      ],
      "name": "approve",
      "outputs": [],
      "stateMutability": "nonpayable",
      "type": "function"
    },
    {
      "inputs": [
        {
          "internalType": "address",
          "name": "owner",
          "type": "address"
        }
      ],
      "name": "balanceOf",
      "outputs": [
        {
          "internalType": "uint256",
          "name": "",
          "type": "uint256"
        }
      ],
      "stateMutability": "view",
      "type": "function"
    },
    {
      "inputs": [
        {
          "internalType": "uint256",
          "name": "tokenId",
          "type": "uint256"
        }
      ],
      "name": "getApproved",
      "outputs": [
        {
          "internalType": "address",
          "name": "",
          "type": "address"
        }
      ],
      "stateMutability": "view",
      "type": "function"
    },
    {
      "inputs": [
        {
          "internalType": "address",
          "name": "owner",
          "type": "address"
        },
        {
          "internalType": "address",
          "name": "operator",
          "type": "address"
        }
      ],
      "name": "isApprovedForAll",
      "outputs": [
        {
          "internalType": "bool",
          "name": "",
          "type": "bool"
        }
      ],
      "stateMutability": "view",
      "type": "function"
    },
    {
      "inputs": [
        {
          "internalType": "address",
          "name": "to",
          "type": "address"
        }
      ],
      "name": "mint",
      "outputs": [
        {
          "internalType": "uint256",
          "name": "",
          "type": "uint256"
        }
      ],
      "stateMutability": "nonpayable",
      "type": "function"
    },
    {
      "inputs": [
        {
          "internalType": "address",
          "name": "to",
          "type": "address"
        },
        {
          "internalType": "uint256",
          "name": "count",
          "type": "uint256"
        }
      ],
      "name": "mintMultiple",
      "outputs": [
        {
          "internalType": "uint256[]",
          "name": "",
          "type": "uint256[]"
        }
      ],
      "stateMutability": "nonpayable",
      "type": "function"
    },
    {
      "inputs": [],
      "name": "name",
      "outputs": [
        {
          "internalType": "string",
          "name": "",
          "type": "string"
        }
      ],
      "stateMutability": "view",
      "type": "function"
    },
    {
      "inputs": [],
      "name": "owner",
      "outputs": [
        {
          "internalType": "address",
          "name": "",
          "type": "address"
        }
      ],
      "stateMutability": "view",
      "type": "function"
    },
    {
      "inputs": [
        {
          "internalType": "uint256",
          "name": "tokenId",
          "type": "uint256"
        }
      ],
      "name": "ownerOf",
      "outputs": [
        {
          "internalType": "address",
          "name": "",
          "type": "address"
        }
      ],
      "stateMutability": "view",
      "type": "function"
    },
    {
      "inputs": [],
      "name": "renounceOwnership",
      "outputs": [],
      "stateMutability": "nonpayable",
      "type": "function"
    },
    {
      "inputs": [
        {
          "internalType": "address",
          "name": "from",
          "type": "address"
        },
        {
          "internalType": "address",
          "name": "to",
          "type": "address"
        },
        {
          "internalType": "uint256",
          "name": "tokenId",
          "type": "uint256"
        }
      ],
      "name": "safeTransferFrom",
      "outputs": [],
      "stateMutability": "nonpayable",
      "type": "function"
    },
    {
      "inputs": [
        {
          "internalType": "address",
          "name": "from",
          "type": "address"
        },
        {
          "internalType": "address",
          "name": "to",
          "type": "address"
        },
        {
          "internalType": "uint256",
          "name": "tokenId",
          "type": "uint256"
        },
        {
          "internalType": "bytes",
          "name": "data",
          "type": "bytes"
        }
      ],
      "name": "safeTransferFrom",
      "outputs": [],
      "stateMutability": "nonpayable",
      "type": "function"
    },
    {
      "inputs": [
        {
          "internalType": "address",
          "name": "operator",
          "type": "address"
        },
        {
          "internalType": "bool",
          "name": "approved",
          "type": "bool"
        }
      ],
      "name": "setApprovalForAll",
      "outputs": [],
      "stateMutability": "nonpayable",
      "type": "function"
    },
    {
      "inputs": [
        {
          "internalType": "bytes4",
          "name": "interfaceId",
          "type": "bytes4"
        }
      ],
      "name": "supportsInterface",
      "outputs": [
        {
          "internalType": "bool",
          "name": "",
          "type": "bool"
        }
      ],
      "stateMutability": "view",
      "type": "function"
    },
    {
      "inputs": [],
      "name": "symbol",
      "outputs": [
        {
          "internalType": "string",
          "name": "",
          "type": "string"
        }
      ],
      "stateMutability": "view",
      "type": "function"
    },
    {
      "inputs": [
        {
          "internalType": "uint256",
          "name": "tokenId",
          "type": "uint256"
        }
      ],
      "name": "tokenURI",
      "outputs": [
        {
          "internalType": "string",
          "name": "",
          "type": "string"
        }
      ],
      "stateMutability": "view",
      "type": "function"
    },
    {
      "inputs": [
        {
          "internalType": "address",
          "name": "from",
          "type": "address"
        },
        {
          "internalType": "address",
          "name": "to",
          "type": "address"
        },
        {
          "internalType": "uint256",
          "name": "tokenId",
          "type": "uint256"
        }
      ],
      "name": "transferFrom",
      "outputs": [],
      "stateMutability": "nonpayable",
      "type": "function"
    },
    {
      "inputs": [
        {
          "internalType": "address",
          "name": "newOwner",
          "type": "address"
        }
      ],
      "name": "transferOwnership",
      "outputs": [],
      "stateMutability": "nonpayable",
      "type": "function"
    }
  ],
  "bytecode": "0x60806040523480156200001157600080fd5b503360405180604001604052806007815260200166135bd8dad3919560ca1b815250604051806040016040528060048152602001631353919560e21b8152508160009081620000619190620001ab565b506001620000708282620001ab565b5050506001600160a01b038116620000a257604051631e4fbdf760e01b81526000600482015260240160405180910390fd5b620000ad81620000b4565b5062000277565b600680546001600160a01b038381166001600160a01b0319831681179093556040519116919082907f8be0079c531659141344cd1fd0a4f28419497f9722a3daafe3b4186f6b6457e090600090a35050565b634e487b7160e01b600052604160045260246000fd5b600181811c908216806200013157607f821691505b6020821081036200015257634e487b7160e01b600052602260045260246000fd5b50919050565b601f821115620001a657600081815260208120601f850160051c81016020861015620001815750805b601f850160051c820191505b81811015620001a2578281556001016200018d565b5050505b505050565b81516001600160401b03811115620001c757620001c762000106565b620001df81620001d884546200011c565b8462000158565b602080601f831160018114620002175760008415620001fe5750858301515b600019600386901b1c1916600185901b178555620001a2565b600085815260208120601f198616915b82811015620002485788860151825594840194600190910190840162000227565b5085821015620002675787850151600019600388901b60f8161c191681555b5050505050600190811b01905550565b61125380620002876000396000f3fe608060405234801561001057600080fd5b50600436106101165760003560e01c8063715018a6116100a2578063b3fa4a4c11610071578063b3fa4a4c14610239578063b88d4fde14610259578063c87b56dd1461026c578063e985e9c51461027f578063f2fde38b1461029257600080fd5b8063715018a6146102055780638da5cb5b1461020d57806395d89b411461021e578063a22cb4651461022657600080fd5b806323b872dd116100e957806323b872dd1461019857806342842e0e146101ab5780636352211e146101be5780636a627842146101d157806370a08231146101f257600080fd5b806301ffc9a71461011b57806306fdde0314610143578063081812fc14610158578063095ea7b314610183575b600080fd5b61012e610129366004610e47565b6102a5565b60405190151581526020015b60405180910390f35b61014b6102f7565b60405161013a9190610eb4565b61016b610166366004610ec7565b610389565b6040516001600160a01b03909116815260200161013a565b610196610191366004610ef7565b6103b2565b005b6101966101a6366004610f21565b6103c1565b6101966101b9366004610f21565b610451565b61016b6101cc366004610ec7565b610471565b6101e46101df366004610f5d565b61047c565b60405190815260200161013a565b6101e4610200366004610f5d565b6104b1565b6101966104f9565b6006546001600160a01b031661016b565b61014b61050d565b610196610234366004610f78565b61051c565b61024c610247366004610ef7565b610527565b60405161013a9190610fb4565b61019661026736600461100e565b6105de565b61014b61027a366004610ec7565b6105f6565b61012e61028d3660046110ea565b61066b565b6101966102a0366004610f5d565b610699565b60006001600160e01b031982166380ac58cd60e01b14806102d657506001600160e01b03198216635b5e139f60e01b145b806102f157506301ffc9a760e01b6001600160e01b03198316145b92915050565b6060600080546103069061111d565b80601f01602080910402602001604051908101604052809291908181526020018280546103329061111d565b801561037f5780601f106103545761010080835404028352916020019161037f565b820191906000526020600020905b81548152906001019060200180831161036257829003601f168201915b5050505050905090565b6000610394826106d7565b506000828152600460205260409020546001600160a01b03166102f1565b6103bd828233610710565b5050565b6001600160a01b0382166103f057604051633250574960e11b8152600060048201526024015b60405180910390fd5b60006103fd83833361071d565b9050836001600160a01b0316816001600160a01b03161461044b576040516364283d7b60e01b81526001600160a01b03808616600483015260248201849052821660448201526064016103e7565b50505050565b61046c838383604051806020016040528060008152506105de565b505050565b60006102f1826106d7565b6000610486610816565b6007805490600061049683611157565b91905055506104a782600754610843565b506007545b919050565b60006001600160a01b0382166104dd576040516322718ad960e21b8152600060048201526024016103e7565b506001600160a01b031660009081526003602052604090205490565b610501610816565b61050b600061085d565b565b6060600180546103069061111d565b6103bd3383836108af565b6060610531610816565b60008267ffffffffffffffff81111561054c5761054c610ff8565b604051908082528060200260200182016040528015610575578160200160208202803683370190505b50905060005b838110156105d6576007805490600061059383611157565b91905055506105a485600754610843565b6007548282815181106105b9576105b961117e565b6020908102919091010152806105ce81611157565b91505061057b565b509392505050565b6105e98484846103c1565b61044b338585858561094e565b6060610601826106d7565b50600061061960408051602081019091526000815290565b905060008151116106395760405180602001604052806000815250610664565b8061064384610a79565b604051602001610654929190611194565b6040516020818303038152906040525b9392505050565b6001600160a01b03918216600090815260056020908152604080832093909416825291909152205460ff1690565b6106a1610816565b6001600160a01b0381166106cb57604051631e4fbdf760e01b8152600060048201526024016103e7565b6106d48161085d565b50565b6000818152600260205260408120546001600160a01b0316806102f157604051637e27328960e01b8152600481018490526024016103e7565b61046c8383836001610b0c565b6000828152600260205260408120546001600160a01b039081169083161561074a5761074a818486610c12565b6001600160a01b0381161561078857610767600085600080610b0c565b6001600160a01b038116600090815260036020526040902080546000190190555b6001600160a01b038516156107b7576001600160a01b0385166000908152600360205260409020805460010190555b60008481526002602052604080822080546001600160a01b0319166001600160a01b0389811691821790925591518793918516917fddf252ad1be2c89b69c2b068fc378daa952ba7f163c4a11628f55a4df523b3ef91a4949350505050565b6006546001600160a01b0316331461050b5760405163118cdaa760e01b81523360048201526024016103e7565b6103bd828260405180602001604052806000815250610c76565b600680546001600160a01b038381166001600160a01b0319831681179093556040519116919082907f8be0079c531659141344cd1fd0a4f28419497f9722a3daafe3b4186f6b6457e090600090a35050565b6001600160a01b0382166108e157604051630b61174360e31b81526001600160a01b03831660048201526024016103e7565b6001600160a01b03838116600081815260056020908152604080832094871680845294825291829020805460ff191686151590811790915591519182527f17307eab39ab6107e8899845ad3d59bd9653f200f220920489ca2b5937696c31910160405180910390a3505050565b6001600160a01b0383163b15610a7257604051630a85bd0160e11b81526001600160a01b0384169063150b7a02906109909088908890879087906004016111c3565b6020604051808303816000875af19250505080156109cb575060408051601f3d908101601f191682019092526109c891810190611200565b60015b610a34573d8080156109f9576040519150601f19603f3d011682016040523d82523d6000602084013e6109fe565b606091505b508051600003610a2c57604051633250574960e11b81526001600160a01b03851660048201526024016103e7565b805181602001fd5b6001600160e01b03198116630a85bd0160e11b14610a7057604051633250574960e11b81526001600160a01b03851660048201526024016103e7565b505b5050505050565b60606000610a8683610c8e565b600101905060008167ffffffffffffffff811115610aa657610aa6610ff8565b6040519080825280601f01601f191660200182016040528015610ad0576020820181803683370190505b5090508181016020015b600019016f181899199a1a9b1b9c1cb0b131b232b360811b600a86061a8153600a8504945084610ada57509392505050565b8080610b2057506001600160a01b03821615155b15610be2576000610b30846106d7565b90506001600160a01b03831615801590610b5c5750826001600160a01b0316816001600160a01b031614155b8015610b6f5750610b6d818461066b565b155b15610b985760405163a9fbf51f60e01b81526001600160a01b03841660048201526024016103e7565b8115610be05783856001600160a01b0316826001600160a01b03167f8c5be1e5ebec7d5bd14f71427d1e84f3dd0314c0f7b2291e5b200ac8c7c3b92560405160405180910390a45b505b5050600090815260046020526040902080546001600160a01b0319166001600160a01b0392909216919091179055565b610c1d838383610d66565b61046c576001600160a01b038316610c4b57604051637e27328960e01b8152600481018290526024016103e7565b60405163177e802f60e01b81526001600160a01b0383166004820152602481018290526044016103e7565b610c808383610dcc565b61046c33600085858561094e565b60008072184f03e93ff9f4daa797ed6e38ed64bf6a1f0160401b8310610ccd5772184f03e93ff9f4daa797ed6e38ed64bf6a1f0160401b830492506040015b6d04ee2d6d415b85acef81000000008310610cf9576d04ee2d6d415b85acef8100000000830492506020015b662386f26fc100008310610d1757662386f26fc10000830492506010015b6305f5e1008310610d2f576305f5e100830492506008015b6127108310610d4357612710830492506004015b60648310610d55576064830492506002015b600a83106102f15760010192915050565b60006001600160a01b03831615801590610dc45750826001600160a01b0316846001600160a01b03161480610da05750610da0848461066b565b80610dc457506000828152600460205260409020546001600160a01b038481169116145b949350505050565b6001600160a01b038216610df657604051633250574960e11b8152600060048201526024016103e7565b6000610e048383600061071d565b90506001600160a01b0381161561046c576040516339e3563760e11b8152600060048201526024016103e7565b6001600160e01b0319811681146106d457600080fd5b600060208284031215610e5957600080fd5b813561066481610e31565b60005b83811015610e7f578181015183820152602001610e67565b50506000910152565b60008151808452610ea0816020860160208601610e64565b601f01601f19169290920160200192915050565b6020815260006106646020830184610e88565b600060208284031215610ed957600080fd5b5035919050565b80356001600160a01b03811681146104ac57600080fd5b60008060408385031215610f0a57600080fd5b610f1383610ee0565b946020939093013593505050565b600080600060608486031215610f3657600080fd5b610f3f84610ee0565b9250610f4d60208501610ee0565b9150604084013590509250925092565b600060208284031215610f6f57600080fd5b61066482610ee0565b60008060408385031215610f8b57600080fd5b610f9483610ee0565b915060208301358015158114610fa957600080fd5b809150509250929050565b6020808252825182820181905260009190848201906040850190845b81811015610fec57835183529284019291840191600101610fd0565b50909695505050505050565b634e487b7160e01b600052604160045260246000fd5b6000806000806080858703121561102457600080fd5b61102d85610ee0565b935061103b60208601610ee0565b925060408501359150606085013567ffffffffffffffff8082111561105f57600080fd5b818701915087601f83011261107357600080fd5b81358181111561108557611085610ff8565b604051601f8201601f19908116603f011681019083821181831017156110ad576110ad610ff8565b816040528281528a60208487010111156110c657600080fd5b82602086016020830137600060208483010152809550505050505092959194509250565b600080604083850312156110fd57600080fd5b61110683610ee0565b915061111460208401610ee0565b90509250929050565b600181811c9082168061113157607f821691505b60208210810361115157634e487b7160e01b600052602260045260246000fd5b50919050565b60006001820161117757634e487b7160e01b600052601160045260246000fd5b5060010190565b634e487b7160e01b600052603260045260246000fd5b600083516111a6818460208801610e64565b8351908301906111ba818360208801610e64565b01949350505050565b6001600160a01b03858116825284166020820152604081018390526080606082018190526000906111f690830184610e88565b9695505050505050565b60006020828403121561121257600080fd5b815161066481610e3156fea264697066735822122025ef0f5bf83c72d79a3219f5b2d168ff5b3fc24594917b5a276401eaddc70faf64736f6c63430008140033",
  "linkReferences": {},
  "deployedLinkReferences": {}
}