{
  "_format": "hh-sol-artifact-1",
  "contractName": "MockNFT",
  "sourceName": "contracts/mocks/MockNFT.sol",
  "abi": [
    {
      "inputs": [],
      "stateMutability": "nonpayable",
      "type": "constructor"
    },
    {
      "inputs": [
        {
          "internalType": "address",
          "name": "sender",
          "type": "address"
        },
        {
          "internalType": "uint256",
          "name": "tokenId",
          "type": "uint256"
        },
        {
          "internalType": "address",
          "name": "owner",
          "type": "address"
        }
      ],
      "name": "ERC721IncorrectOwner",
      "type": "error"
    },
    {
      "inputs": [
        {
          "internalType": "address",
          "name": "operator",
          "type": "address"
        },
        {
          "internalType": "uint256",
          "name": "tokenId",
          "type": "uint256"
        }
      ],
      "name": "ERC721InsufficientApproval",
      "type": "error"
    },
    {
      "inputs": [
        {
          "internalType": "address",
          "name": "approver",
          "type": "address"
        }
      ],
      "name": "ERC721InvalidApprover",
      "type": "error"
    },
    {
      "inputs": [
        {
          "internalType": "address",
          "name": "operator",
          "type": "address"
        }
      ],
      "name": "ERC721InvalidOperator",
      "type": "error"
    },
    {
      "inputs": [
        {
          "internalType": "address",
          "name": "owner",
          "type": "address"
        }
      ],
      "name": "ERC721InvalidOwner",
      "type": "error"
    },
    {
      "inputs": [
        {
          "internalType": "address",
          "name": "receiver",
          "type": "address"
        }
      ],
      "name": "ERC721InvalidReceiver",
      "type": "error"
    },
    {
      "inputs": [
        {
          "internalType": "address",
          "name": "sender",
          "type": "address"
        }
      ],
      "name": "ERC721InvalidSender",
      "type": "error"
    },
    {
      "inputs": [
        {
          "internalType": "uint256",
          "name": "tokenId",
          "type": "uint256"
        }
      ],
      "name": "ERC721NonexistentToken",
      "type": "error"
    },
    {
      "inputs": [
        {
          "internalType": "address",
          "name": "owner",
          "type": "address"
        }
      ],
      "name": "OwnableInvalidOwner",
      "type": "error"
    },
    {
      "inputs": [
        {
          "internalType": "address",
          "name": "account",
          "type": "address"
        }
      ],
      "name": "OwnableUnauthorizedAccount",
      "type": "error"
    },
    {
      "anonymous": false,
      "inputs": [
        {
          "indexed": true,
          "internalType": "address",
          "name": "owner",
          "type": "address"
        },
        {
          "indexed": true,
          "internalType": "address",
          "name": "approved",
          "type": "address"
        },
        {
          "indexed": true,
          "internalType": "uint256",
          "name": "tokenId",
          "type": "uint256"
        }
      ],
      "name": "Approval",
      "type": "event"
    },
    {
      "anonymous": false,
      "inputs": [
        {
          "indexed": true,
          "internalType": "address",
          "name": "owner",
          "type": "address"
        },
        {
          "indexed": true,
          "internalType": "address",
          "name": "operator",
          "type": "address"
        },
        {
          "indexed": false,
          "internalType": "bool",
          "name": "approved",
          "type": "bool"
        }
      ],
      "name": "ApprovalForAll",
      "type": "event"
    },
    {
      "anonymous": false,
      "inputs": [
        {
          "indexed": true,
          "internalType": "address",
          "name": "previousOwner",
          "type": "address"
        },
        {
          "indexed": true,
          "internalType": "address",
          "name": "newOwner",
          "type": "address"
        }
      ],
      "name": "OwnershipTransferred",
      "type": "event"
    },
    {
      "anonymous": false,
      "inputs": [
        {
          "indexed": true,
          "internalType": "address",
          "name": "from",
          "type": "address"
        },
        {
          "indexed": true,
          "internalType": "address",
          "name": "to",
          "type": "address"
        },
        {
          "indexed": true,
          "internalType": "uint256",
          "name": "tokenId",
          "type": "uint256"
        }
      ],
      "name": "Transfer",
      "type": "event"
    },
    {
      "inputs": [
        {
          "internalType": "address",
          "name": "to",
          "type": "address"
        },
        {
          "internalType": "uint256",
          "name": "tokenId",
          "type": "uint256"
        }
      ],
      "name": "approve",
      "outputs": [],
      "stateMutability": "nonpayable",
      "type": "function"
    },
    {
      "inputs": [
        {
          "internalType": "address",
          "name": "owner",
          "type": "address"
        }
      ],
      "name": "balanceOf",
      "outputs": [
        {
          "internalType": "uint256",
          "name": "",
          "type": "uint256"
        }
      ],
      "stateMutability": "view",
      "type": "function"
    },
    {
      "inputs": [
        {
          "internalType": "uint256",
          "name": "tokenId",
          "type": "uint256"
        }
      ],
      "name": "getApproved",
      "outputs": [
        {
          "internalType": "address",
          "name": "",
          "type": "address"
        }
      ],
      "stateMutability": "view",
      "type": "function"
    },
    {
      "inputs": [
        {
          "internalType": "address",
          "name": "owner",
          "type": "address"
        },
        {
          "internalType": "address",
          "name": "operator",
          "type": "address"
        }
      ],
      "name": "isApprovedForAll",
      "outputs": [
        {
          "internalType": "bool",
          "name": "",
          "type": "bool"
        }
      ],
      "stateMutability": "view",
      "type": "function"
    },
    {
      "inputs": [
        {
          "internalType": "address",
          "name": "to",
          "type": "address"
        }
      ],
      "name": "mint",
      "outputs": [
        {
          "internalType": "uint256",
          "name": "",
          "type": "uint256"
        }
      ],
      "stateMutability": "nonpayable",
      "type": "function"
    },
    {
      "inputs": [
        {
          "internalType": "address",
          "name": "to",
          "type": "address"
        },
        {
          "internalType": "uint256",
          "name": "count",
          "type": "uint256"
        }
      ],
      "name": "mintMultiple",
      "outputs": [
        {
          "internalType": "uint256[]",
          "name": "",
          "type": "uint256[]"
        }
      ],
      "stateMutability": "nonpayable",
      "type": "function"
    },
    {
      "inputs": [],
      "name": "name",
      "outputs": [
        {
          "internalType": "string",
          "name": "",
          "type": "string"
        }
      ],
      "stateMutability": "view",
      "type": "function"
    },
    {
      "inputs": [],
      "name": "owner",
      "outputs": [
        {
          "internalType": "address",
          "name": "",
          "type": "address"
        }
      ],
      "stateMutability": "view",
      "type": "function"
    },
    {
      "inputs": [
        {
          "internalType": "uint256",
          "name": "tokenId",
          "type": "uint256"
        }
      ],
      "name": "ownerOf",
      "outputs": [
        {
          "internalType": "address",
          "name": "",
          "type": "address"
        }
      ],
      "stateMutability": "view",
      "type": "function"
    },
    {
      "inputs": [],
      "name": "renounceOwnership",
      "outputs": [],
      "stateMutability": "nonpayable",
      "type": "function"
    },
    {
      "inputs": [
        {
          "internalType": "address",
          "name": "from",
          "type": "address"
        },
        {
          "internalType": "address",
          "name": "to",
          "type": "address"
        },
        {
          "internalType": "uint256",
          "name": "tokenId",
          "type": "uint256"
        }
      ],
      "name": "safeTransferFrom",
      "outputs": [],
      "stateMutability": "nonpayable",
      "type": "function"
    },
    {
      "inputs": [
        {
          "internalType": "address",
          "name": "from",
          "type": "address"
        },
        {
          "internalType": "address",
          "name": "to",
          "type": "address"
        },
        {
          "internalType": "uint256",
          "name": "tokenId",
          "type": "uint256"
        },
        {
          "internalType": "bytes",
          "name": "data",
          "type": "bytes"
        }
      ],
      "name": "safeTransferFrom",
      "outputs": [],
      "stateMutability": "nonpayable",
      "type": "function"
    },
    {
      "inputs": [
        {
          "internalType": "address",
          "name": "operator",
          "type": "address"
        },
        {
          "internalType": "bool",
          "name": "approved",
          "type": "bool"
        }
      ],
      "name": "setApprovalForAll",
      "outputs": [],
      "stateMutability": "nonpayable",
      "type": "function"
    },
    {
      "inputs": [
        {
          "internalType": "bytes4",
          "name": "interfaceId",
          "type": "bytes4"
        }
      ],
      "name": "supportsInterface",
      "outputs": [
        {
          "internalType": "bool",
          "name": "",
          "type": "bool"
        }
      ],
      "stateMutability": "view",
      "type": "function"
    },
    {
      "inputs": [],
      "name": "symbol",
      "outputs": [
        {
          "internalType": "string",
          "name": "",
          "type": "string"
        }
      ],
      "stateMutability": "view",
      "type": "function"
    },
    {
      "inputs": [
        {
          "internalType": "uint256",
          "name": "tokenId",
          "type": "uint256"
        }
      ],
      "name": "tokenURI",
      "outputs": [
        {
          "internalType": "string",
          "name": "",
          "type": "string"
        }
      ],
      "stateMutability": "view",
      "type": "function"
    },
    {
      "inputs": [
        {
          "internalType": "address",
          "name": "from",
          "type": "address"
        },
        {
          "internalType": "address",
          "name": "to",
          "type": "address"
        },
        {
          "internalType": "uint256",
          "name": "tokenId",
          "type": "uint256"
        }
      ],
      "name": "transferFrom",
      "outputs": [],
      "stateMutability": "nonpayable",
      "type": "function"
    },
    {
      "inputs": [
        {
          "internalType": "address",
          "name": "newOwner",
          "type": "address"
        }
      ],
      "name": "transferOwnership",
      "outputs": [],
      "stateMutability": "nonpayable",
      "type": "function"
    }
  ],
  "bytecode": "0x60806040523480156200001157600080fd5b503360405180604001604052806007815260200166135bd8dad3919560ca1b815250604051806040016040528060048152602001631353919560e21b8152508160009081620000619190620001ab565b506001620000708282620001ab565b5050506001600160a01b038116620000a257604051631e4fbdf760e01b81526000600482015260240160405180910390fd5b620000ad81620000b4565b5062000277565b600680546001600160a01b038381166001600160a01b0319831681179093556040519116919082907f8be0079c531659141344cd1fd0a4f28419497f9722a3daafe3b4186f6b6457e090600090a35050565b634e487b7160e01b600052604160045260246000fd5b600181811c908216806200013157607f821691505b6020821081036200015257634e487b7160e01b600052602260045260246000fd5b50919050565b601f821115620001a657600081815260208120601f850160051c81016020861015620001815750805b601f850160051c820191505b81811015620001a2578281556001016200018d565b5050505b505050565b81516001600160401b03811115620001c757620001c762000106565b620001df81620001d884546200011c565b8462000158565b602080601f831160018114620002175760008415620001fe5750858301515b600019600386901b1c1916600185901b178555620001a2565b600085815260208120601f198616915b82811015620002485788860151825594840194600190910190840162000227565b5085821015620002675787850151600019600388901b60f8161c191681555b5050505050600190811b01905550565b61123680620002876000396000f3fe608060405234801561001057600080fd5b50600436106100f65760003560e01c8063715018a611610092578063715018a6146101da5780638da5cb5b146101e257806395d89b41146101f3578063a22cb465146101fb578063b3fa4a4c1461020e578063b88d4fde1461022e578063c87b56dd14610241578063e985e9c514610254578063f2fde38b1461026757600080fd5b806301ffc9a7146100fb57806306fdde0314610123578063081812fc14610138578063095ea7b31461015857806323b872dd1461016d57806342842e0e146101805780636352211e146101935780636a627842146101a657806370a08231146101c7575b600080fd5b61010e610109366004610e16565b61027a565b60405190151581526020015b60405180910390f35b61012b6102cc565b60405161011a9190610e83565b61014b610146366004610e96565b61035e565b60405161011a9190610eaf565b61016b610166366004610eda565b610373565b005b61016b61017b366004610f04565b610382565b61016b61018e366004610f04565b610416565b61014b6101a1366004610e96565b610436565b6101b96101b4366004610f40565b610441565b60405190815260200161011a565b6101b96101d5366004610f40565b610476565b61016b6104be565b6006546001600160a01b031661014b565b61012b6104d2565b61016b610209366004610f5b565b6104e1565b61022161021c366004610eda565b6104ec565b60405161011a9190610f97565b61016b61023c366004610ff1565b6105a3565b61012b61024f366004610e96565b6105bb565b61010e6102623660046110cd565b610630565b61016b610275366004610f40565b61065e565b60006001600160e01b031982166380ac58cd60e01b14806102ab57506001600160e01b03198216635b5e139f60e01b145b806102c657506301ffc9a760e01b6001600160e01b03198316145b92915050565b6060600080546102db90611100565b80601f016020809104026020016040519081016040528092919081815260200182805461030790611100565b80156103545780601f1061032957610100808354040283529160200191610354565b820191906000526020600020905b81548152906001019060200180831161033757829003601f168201915b5050505050905090565b60006103698261069c565b506102c6826106d4565b61037e8282336106ef565b5050565b6001600160a01b0382166103b5576000604051633250574960e11b81526004016103ac9190610eaf565b60405180910390fd5b60006103c28383336106fc565b9050836001600160a01b0316816001600160a01b031614610410576040516364283d7b60e01b81526001600160a01b03808616600483015260248201849052821660448201526064016103ac565b50505050565b610431838383604051806020016040528060008152506105a3565b505050565b60006102c68261069c565b600061044b6107f0565b6007805490600061045b8361113a565b919050555061046c8260075461081d565b506007545b919050565b60006001600160a01b0382166104a25760006040516322718ad960e21b81526004016103ac9190610eaf565b506001600160a01b031660009081526003602052604090205490565b6104c66107f0565b6104d06000610837565b565b6060600180546102db90611100565b61037e338383610889565b60606104f66107f0565b60008267ffffffffffffffff81111561051157610511610fdb565b60405190808252806020026020018201604052801561053a578160200160208202803683370190505b50905060005b8381101561059b57600780549060006105588361113a565b91905055506105698560075461081d565b60075482828151811061057e5761057e611161565b6020908102919091010152806105938161113a565b915050610540565b509392505050565b6105ae848484610382565b610410338585858561091f565b60606105c68261069c565b5060006105de60408051602081019091526000815290565b905060008151116105fe5760405180602001604052806000815250610629565b8061060884610a38565b604051602001610619929190611177565b6040516020818303038152906040525b9392505050565b6001600160a01b03918216600090815260056020908152604080832093909416825291909152205460ff1690565b6106666107f0565b6001600160a01b038116610690576000604051631e4fbdf760e01b81526004016103ac9190610eaf565b61069981610837565b50565b6000806106a883610acb565b90506001600160a01b0381166102c657604051637e27328960e01b8152600481018490526024016103ac565b6000908152600460205260409020546001600160a01b031690565b6104318383836001610ae6565b60008061070884610acb565b90506001600160a01b0383161561072457610724818486610be3565b6001600160a01b0381161561076257610741600085600080610ae6565b6001600160a01b038116600090815260036020526040902080546000190190555b6001600160a01b03851615610791576001600160a01b0385166000908152600360205260409020805460010190555b60008481526002602052604080822080546001600160a01b0319166001600160a01b0389811691821790925591518793918516917fddf252ad1be2c89b69c2b068fc378daa952ba7f163c4a11628f55a4df523b3ef91a4949350505050565b6006546001600160a01b031633146104d0573360405163118cdaa760e01b81526004016103ac9190610eaf565b61037e828260405180602001604052806000815250610c47565b600680546001600160a01b038381166001600160a01b0319831681179093556040519116919082907f8be0079c531659141344cd1fd0a4f28419497f9722a3daafe3b4186f6b6457e090600090a35050565b6001600160a01b0382166108b25781604051630b61174360e31b81526004016103ac9190610eaf565b6001600160a01b03838116600081815260056020908152604080832094871680845294825291829020805460ff191686151590811790915591519182527f17307eab39ab6107e8899845ad3d59bd9653f200f220920489ca2b5937696c31910160405180910390a3505050565b6001600160a01b0383163b15610a3157604051630a85bd0160e11b81526001600160a01b0384169063150b7a02906109619088908890879087906004016111a6565b6020604051808303816000875af192505050801561099c575060408051601f3d908101601f19168201909252610999918101906111e3565b60015b6109fc573d8080156109ca576040519150601f19603f3d011682016040523d82523d6000602084013e6109cf565b606091505b5080516000036109f45783604051633250574960e11b81526004016103ac9190610eaf565b805181602001fd5b6001600160e01b03198116630a85bd0160e11b14610a2f5783604051633250574960e11b81526004016103ac9190610eaf565b505b5050505050565b60606000610a4583610c5f565b600101905060008167ffffffffffffffff811115610a6557610a65610fdb565b6040519080825280601f01601f191660200182016040528015610a8f576020820181803683370190505b5090508181016020015b600019016f181899199a1a9b1b9c1cb0b131b232b360811b600a86061a8153600a8504945084610a9957509392505050565b6000908152600260205260409020546001600160a01b031690565b8080610afa57506001600160a01b03821615155b15610bb3576000610b0a8461069c565b90506001600160a01b03831615801590610b365750826001600160a01b0316816001600160a01b031614155b8015610b495750610b478184610630565b155b15610b69578260405163a9fbf51f60e01b81526004016103ac9190610eaf565b8115610bb15783856001600160a01b0316826001600160a01b03167f8c5be1e5ebec7d5bd14f71427d1e84f3dd0314c0f7b2291e5b200ac8c7c3b92560405160405180910390a45b505b5050600090815260046020526040902080546001600160a01b0319166001600160a01b0392909216919091179055565b610bee838383610d35565b610431576001600160a01b038316610c1c57604051637e27328960e01b8152600481018290526024016103ac565b60405163177e802f60e01b81526001600160a01b0383166004820152602481018290526044016103ac565b610c518383610d9b565b61043133600085858561091f565b60008072184f03e93ff9f4daa797ed6e38ed64bf6a1f0160401b8310610c9e5772184f03e93ff9f4daa797ed6e38ed64bf6a1f0160401b830492506040015b6904ee2d6d415b85acef8160201b8310610cc8576904ee2d6d415b85acef8160201b830492506020015b662386f26fc100008310610ce657662386f26fc10000830492506010015b6305f5e1008310610cfe576305f5e100830492506008015b6127108310610d1257612710830492506004015b60648310610d24576064830492506002015b600a83106102c65760010192915050565b60006001600160a01b03831615801590610d935750826001600160a01b0316846001600160a01b03161480610d6f5750610d6f8484610630565b80610d935750826001600160a01b0316610d88836106d4565b6001600160a01b0316145b949350505050565b6001600160a01b038216610dc5576000604051633250574960e11b81526004016103ac9190610eaf565b6000610dd3838360006106fc565b90506001600160a01b038116156104315760006040516339e3563760e11b81526004016103ac9190610eaf565b6001600160e01b03198116811461069957600080fd5b600060208284031215610e2857600080fd5b813561062981610e00565b60005b83811015610e4e578181015183820152602001610e36565b50506000910152565b60008151808452610e6f816020860160208601610e33565b601f01601f19169290920160200192915050565b6020815260006106296020830184610e57565b600060208284031215610ea857600080fd5b5035919050565b6001600160a01b0391909116815260200190565b80356001600160a01b038116811461047157600080fd5b60008060408385031215610eed57600080fd5b610ef683610ec3565b946020939093013593505050565b600080600060608486031215610f1957600080fd5b610f2284610ec3565b9250610f3060208501610ec3565b9150604084013590509250925092565b600060208284031215610f5257600080fd5b61062982610ec3565b60008060408385031215610f6e57600080fd5b610f7783610ec3565b915060208301358015158114610f8c57600080fd5b809150509250929050565b6020808252825182820181905260009190848201906040850190845b81811015610fcf57835183529284019291840191600101610fb3565b50909695505050505050565b634e487b7160e01b600052604160045260246000fd5b6000806000806080858703121561100757600080fd5b61101085610ec3565b935061101e60208601610ec3565b925060408501359150606085013567ffffffffffffffff8082111561104257600080fd5b818701915087601f83011261105657600080fd5b81358181111561106857611068610fdb565b604051601f8201601f19908116603f0116810190838211818310171561109057611090610fdb565b816040528281528a60208487010111156110a957600080fd5b82602086016020830137600060208483010152809550505050505092959194509250565b600080604083850312156110e057600080fd5b6110e983610ec3565b91506110f760208401610ec3565b90509250929050565b600181811c9082168061111457607f821691505b60208210810361113457634e487b7160e01b600052602260045260246000fd5b50919050565b60006001820161115a57634e487b7160e01b600052601160045260246000fd5b5060010190565b634e487b7160e01b600052603260045260246000fd5b60008351611189818460208801610e33565b83519083019061119d818360208801610e33565b01949350505050565b6001600160a01b03858116825284166020820152604081018390526080606082018190526000906111d990830184610e57565b9695505050505050565b6000602082840312156111f557600080fd5b815161062981610e0056fea264697066735822122042c26f9be1180d226b5cadf3109dda113d110aae2f4a3d7ca609b59b4774c6f764736f6c63430008140033",
  "linkReferences": {},
  "deployedLinkReferences": {}
}