{
  "_format": "hh-sol-artifact-1",
  "contractName": "MockZkService",
  "sourceName": "contracts/mocks/MockZkService.sol",
  "abi": [
    {
      "anonymous": false,
      "inputs": [
        {
          "indexed": true,
          "internalType": "bytes32",
          "name": "id",
          "type": "bytes32"
        },
        {
          "indexed": false,
          "internalType": "bytes",
          "name": "pubKey",
          "type": "bytes"
        },
        {
          "indexed": false,
          "internalType": "bytes",
          "name": "rawData",
          "type": "bytes"
        },
        {
          "indexed": false,
          "internalType": "bytes[]",
          "name": "utxos",
          "type": "bytes[]"
        },
        {
          "indexed": false,
          "internalType": "uint256",
          "name": "inputIndex",
          "type": "uint256"
        },
        {
          "indexed": false,
          "internalType": "uint256",
          "name": "signatureIndex",
          "type": "uint256"
        }
      ],
      "name": "ArbitrationReqStored",
      "type": "event"
    },
    {
      "anonymous": false,
      "inputs": [
        {
          "indexed": true,
          "internalType": "bytes32",
          "name": "id",
          "type": "bytes32"
        },
        {
          "indexed": false,
          "internalType": "bytes",
          "name": "pubKey",
          "type": "bytes"
        },
        {
          "indexed": false,
          "internalType": "bool",
          "name": "verified",
          "type": "bool"
        }
      ],
      "name": "TransactionStored",
      "type": "event"
    },
    {
      "inputs": [],
      "name": "fee",
      "outputs": [
        {
          "internalType": "uint256",
          "name": "",
          "type": "uint256"
        }
      ],
      "stateMutability": "pure",
      "type": "function"
    },
    {
      "inputs": [
        {
          "internalType": "bytes32",
          "name": "id",
          "type": "bytes32"
        }
      ],
      "name": "getZkVerification",
      "outputs": [
        {
          "components": [
            {
              "internalType": "uint256",
              "name": "status",
              "type": "uint256"
            },
            {
              "internalType": "bytes",
              "name": "pubKey",
              "type": "bytes"
            },
            {
              "internalType": "bytes32",
              "name": "txHash",
              "type": "bytes32"
            },
            {
              "internalType": "bytes",
              "name": "signature",
              "type": "bytes"
            },
            {
              "internalType": "bool",
              "name": "verified",
              "type": "bool"
            },
            {
              "components": [
                {
                  "internalType": "bytes32",
                  "name": "txHash",
                  "type": "bytes32"
                },
                {
                  "internalType": "uint32",
                  "name": "index",
                  "type": "uint32"
                },
                {
                  "internalType": "bytes",
                  "name": "script",
                  "type": "bytes"
                },
                {
                  "internalType": "uint256",
                  "name": "amount",
                  "type": "uint256"
                }
              ],
              "internalType": "struct DataTypes.UTXO[]",
              "name": "utxos",
              "type": "tuple[]"
            }
          ],
          "internalType": "struct DataTypes.ZKVerification",
          "name": "",
          "type": "tuple"
        }
      ],
      "stateMutability": "view",
      "type": "function"
    },
    {
      "inputs": [
        {
          "internalType": "bytes32",
          "name": "evidence",
          "type": "bytes32"
        }
      ],
      "name": "setEmptyPubKey",
      "outputs": [],
      "stateMutability": "nonpayable",
      "type": "function"
    },
    {
      "inputs": [
        {
          "internalType": "bytes32",
          "name": "evidence",
          "type": "bytes32"
        }
      ],
      "name": "setEmptyRawData",
      "outputs": [],
      "stateMutability": "nonpayable",
      "type": "function"
    },
    {
      "inputs": [
        {
          "internalType": "bytes32",
          "name": "evidence",
          "type": "bytes32"
        }
      ],
      "name": "setEmptyTxHash",
      "outputs": [],
      "stateMutability": "nonpayable",
      "type": "function"
    },
    {
      "inputs": [
        {
          "internalType": "bytes32",
          "name": "evidence",
          "type": "bytes32"
        },
        {
          "internalType": "uint256",
          "name": "status",
          "type": "uint256"
        },
        {
          "internalType": "bytes",
          "name": "pubKey",
          "type": "bytes"
        },
        {
          "internalType": "bytes32",
          "name": "signHash",
          "type": "bytes32"
        },
        {
          "internalType": "bytes",
          "name": "signature",
          "type": "bytes"
        },
        {
          "components": [
            {
              "internalType": "bytes32",
              "name": "txHash",
              "type": "bytes32"
            },
            {
              "internalType": "uint32",
              "name": "index",
              "type": "uint32"
            },
            {
              "internalType": "bytes",
              "name": "script",
              "type": "bytes"
            },
            {
              "internalType": "uint256",
              "name": "amount",
              "type": "uint256"
            }
          ],
          "internalType": "struct DataTypes.UTXO[]",
          "name": "utxos",
          "type": "tuple[]"
        }
      ],
      "name": "setInvalidVerification",
      "outputs": [],
      "stateMutability": "nonpayable",
      "type": "function"
    },
    {
      "inputs": [
        {
          "internalType": "bytes32",
          "name": "evidence",
          "type": "bytes32"
        },
        {
          "internalType": "bytes",
          "name": "pubKey",
          "type": "bytes"
        },
        {
          "internalType": "bytes32",
          "name": "signHash",
          "type": "bytes32"
        },
        {
          "internalType": "bytes",
          "name": "signature",
          "type": "bytes"
        },
        {
          "components": [
            {
              "internalType": "bytes32",
              "name": "txHash",
              "type": "bytes32"
            },
            {
              "internalType": "uint32",
              "name": "index",
              "type": "uint32"
            },
            {
              "internalType": "bytes",
              "name": "script",
              "type": "bytes"
            },
            {
              "internalType": "uint256",
              "name": "amount",
              "type": "uint256"
            }
          ],
          "internalType": "struct DataTypes.UTXO[]",
          "name": "utxos",
          "type": "tuple[]"
        }
      ],
      "name": "setValidVerification",
      "outputs": [],
      "stateMutability": "nonpayable",
      "type": "function"
    },
    {
      "inputs": [
        {
          "internalType": "bytes",
          "name": "pubKey",
          "type": "bytes"
        },
        {
          "internalType": "bytes",
          "name": "rawData",
          "type": "bytes"
        },
        {
          "internalType": "bytes[]",
          "name": "utxos",
          "type": "bytes[]"
        },
        {
          "internalType": "uint256",
          "name": "inputIndex",
          "type": "uint256"
        },
        {
          "internalType": "uint256",
          "name": "signatureIndex",
          "type": "uint256"
        }
      ],
      "name": "submitArbitration",
      "outputs": [
        {
          "internalType": "bytes32",
          "name": "",
          "type": "bytes32"
        }
      ],
      "stateMutability": "payable",
      "type": "function"
    }
  ],
  "bytecode": "0x608060405234801561001057600080fd5b5061115a806100206000396000f3fe60806040526004361061007b5760003560e01c8063c40a649b1161004e578063c40a649b14610102578063d6f0aef614610128578063ddb8ec8b14610148578063ddca3f431461017557600080fd5b8063284aff2e1461008057806371be68df146100a257806385eaf812146100c2578063af64a0e0146100e2575b600080fd5b34801561008c57600080fd5b506100a061009b366004610a58565b610189565b005b3480156100ae57600080fd5b506100a06100bd366004610b04565b61024e565b3480156100ce57600080fd5b506100a06100dd366004610ba6565b610316565b3480156100ee57600080fd5b506100a06100fd366004610ba6565b61039e565b610115610110366004610c01565b61041a565b6040519081526020015b60405180910390f35b34801561013457600080fd5b506100a0610143366004610ba6565b61055e565b34801561015457600080fd5b50610168610163366004610ba6565b61059b565b60405161011f9190610cf0565b34801561018157600080fd5b506000610115565b600087815260208190526040902060048101805460ff19169055600181016101b18782610e69565b5060028101859055600381016101c78582610e69565b508681556101d96005820160006108c5565b60005b8281101561024357816005018484838181106101fa576101fa610f29565b905060200281019061020c9190610f3f565b81546001810183556000928352602090922090916004020161022e8282611020565b5050808061023b906110b2565b9150506101dc565b505050505050505050565b600086815260208190526040812090815560048101805460ff19166001908117909155810161027d8782610e69565b5060028101859055600381016102938582610e69565b506102a26005820160006108c5565b60005b8281101561030c57816005018484838181106102c3576102c3610f29565b90506020028101906102d59190610f3f565b8154600181018355600092835260209092209091600402016102f78282611020565b50508080610304906110b2565b9150506102a5565b5050505050505050565b6000818152602081815260409182902082518084019093526006835265060f06a6c6e760d31b918301919091529060018201906103539082610e69565b5060006002820155604080518082019091526006815265183c1c98189960d11b602082015260038201906103879082610e69565b5060048101805460ff191660011790556000905550565b600081815260208181526040808320815192830190915291815260018201906103c79082610e69565b507f9c22ff5f21f0b81b113e63f7db6da94fedef11b2119b4088b89664fb9a3cb6586002820155604080518082019091526006815265060f06a6c6e760d31b602082015260038201906103879082610e69565b6000806002888860405161042f9291906110d9565b602060405180830381855afa15801561044c573d6000803e3d6000fd5b5050506040513d601f19601f8201168201806040525081019061046f91906110e9565b60008181526020819052604090209091506001810161048f8b8d83610f5f565b5060028101829055604080518082019091526006815265060f06a6c6e760d31b602082015260038201906104c39082610e69565b5060048101805460ff1916600117905560008082555b868110156104f357806104eb816110b2565b9150506104d9565b506105206040518060400160405280600a8152602001690d2dce0eae892dcc8caf60b31b8152508661084f565b6105506040518060400160405280600e81526020016d0e6d2cedcc2e8eae4ca92dcc8caf60931b8152508561084f565b509998505050505050505050565b60008181526020818152604091829020825180840190935260068352650c1e0c4c8ccd60d21b918301919091529060018201906103c79082610e69565b6040805160c0810182526000808252606060208301819052928201819052828201839052608082015260a081019190915260008060008481526020019081526020016000206040518060c00160405290816000820154815260200160018201805461060590610de0565b80601f016020809104026020016040519081016040528092919081815260200182805461063190610de0565b801561067e5780601f106106535761010080835404028352916020019161067e565b820191906000526020600020905b81548152906001019060200180831161066157829003601f168201915b50505050508152602001600282015481526020016003820180546106a190610de0565b80601f01602080910402602001604051908101604052809291908181526020018280546106cd90610de0565b801561071a5780601f106106ef5761010080835404028352916020019161071a565b820191906000526020600020905b8154815290600101906020018083116106fd57829003601f168201915b5050509183525050600482015460ff161515602080830191909152600583018054604080518285028101850182528281529401939260009084015b82821015610840576000848152602090819020604080516080810182526004860290920180548352600181015463ffffffff1693830193909352600283018054929392918401916107a590610de0565b80601f01602080910402602001604051908101604052809291908181526020018280546107d190610de0565b801561081e5780601f106107f35761010080835404028352916020019161081e565b820191906000526020600020905b81548152906001019060200180831161080157829003601f168201915b5050505050815260200160038201548152505081526020019060010190610755565b50505091525090949350505050565b6108948282604051602401610865929190611102565b60408051601f198184030181529190526020810180516001600160e01b0316632d839cb360e21b179052610898565b5050565b6108a1816108a4565b50565b60006a636f6e736f6c652e6c6f679050600080835160208501845afa505050565b50805460008255600402906000526020600020908101906108a191905b8082111561091b57600080825560018201805463ffffffff1916905561090b600283018261091f565b50600060038201556004016108e2565b5090565b50805461092b90610de0565b6000825580601f1061093b575050565b601f0160209004906000526020600020908101906108a191905b8082111561091b5760008155600101610955565b634e487b7160e01b600052604160045260246000fd5b600082601f83011261099057600080fd5b813567ffffffffffffffff808211156109ab576109ab610969565b604051601f8301601f19908116603f011681019082821181831017156109d3576109d3610969565b816040528381528660208588010111156109ec57600080fd5b836020870160208301376000602085830101528094505050505092915050565b60008083601f840112610a1e57600080fd5b50813567ffffffffffffffff811115610a3657600080fd5b6020830191508360208260051b8501011115610a5157600080fd5b9250929050565b600080600080600080600060c0888a031215610a7357600080fd5b8735965060208801359550604088013567ffffffffffffffff80821115610a9957600080fd5b610aa58b838c0161097f565b965060608a0135955060808a0135915080821115610ac257600080fd5b610ace8b838c0161097f565b945060a08a0135915080821115610ae457600080fd5b50610af18a828b01610a0c565b989b979a50959850939692959293505050565b60008060008060008060a08789031215610b1d57600080fd5b86359550602087013567ffffffffffffffff80821115610b3c57600080fd5b610b488a838b0161097f565b9650604089013595506060890135915080821115610b6557600080fd5b610b718a838b0161097f565b94506080890135915080821115610b8757600080fd5b50610b9489828a01610a0c565b979a9699509497509295939492505050565b600060208284031215610bb857600080fd5b5035919050565b60008083601f840112610bd157600080fd5b50813567ffffffffffffffff811115610be957600080fd5b602083019150836020828501011115610a5157600080fd5b60008060008060008060008060a0898b031215610c1d57600080fd5b883567ffffffffffffffff80821115610c3557600080fd5b610c418c838d01610bbf565b909a50985060208b0135915080821115610c5a57600080fd5b610c668c838d01610bbf565b909850965060408b0135915080821115610c7f57600080fd5b50610c8c8b828c01610a0c565b999c989b509699959896976060870135966080013595509350505050565b6000815180845260005b81811015610cd057602081850181015186830182015201610cb4565b506000602082860101526020601f19601f83011685010191505092915050565b6000602080835283518184015280840151604060c081860152610d1660e0860183610caa565b91508086015160608181880152808801519150601f1960808189870301818a0152610d418685610caa565b9550808a0151151560a08a015260a08a01519350818987030160c08a01528584518088528888019150888160051b890101898701965060005b82811015610dcf57858a830301845287518051835263ffffffff8c820151168c84015289810151868b850152610db287850182610caa565b9189015193890193909352978b0197938b01939150600101610d7a565b509c9b505050505050505050505050565b600181811c90821680610df457607f821691505b602082108103610e1457634e487b7160e01b600052602260045260246000fd5b50919050565b601f821115610e6457600081815260208120601f850160051c81016020861015610e415750805b601f850160051c820191505b81811015610e6057828155600101610e4d565b5050505b505050565b815167ffffffffffffffff811115610e8357610e83610969565b610e9781610e918454610de0565b84610e1a565b602080601f831160018114610ecc5760008415610eb45750858301515b600019600386901b1c1916600185901b178555610e60565b600085815260208120601f198616915b82811015610efb57888601518255948401946001909101908401610edc565b5085821015610f195787850151600019600388901b60f8161c191681555b5050505050600190811b01905550565b634e487b7160e01b600052603260045260246000fd5b60008235607e19833603018112610f5557600080fd5b9190910192915050565b67ffffffffffffffff831115610f7757610f77610969565b610f8b83610f858354610de0565b83610e1a565b6000601f841160018114610fbf5760008515610fa75750838201355b600019600387901b1c1916600186901b178355611019565b600083815260209020601f19861690835b82811015610ff05786850135825560209485019460019092019101610fd0565b508682101561100d5760001960f88860031b161c19848701351681555b505060018560011b0183555b5050505050565b8135815560018101602083013563ffffffff811680821461104057600080fd5b825463ffffffff19161790915550604082013536839003601e1901811261106657600080fd5b8201803567ffffffffffffffff81111561107f57600080fd5b60208201915080360382131561109457600080fd5b6110a2818360028601610f5f565b5050606082013560038201555050565b6000600182016110d257634e487b7160e01b600052601160045260246000fd5b5060010190565b8183823760009101908152919050565b6000602082840312156110fb57600080fd5b5051919050565b6040815260006111156040830185610caa565b9050826020830152939250505056fea2646970667358221220fd36802c66bb6de447ef40e982a062a0107d1796df96447e87e3d3d1d6c4f1b064736f6c63430008140033",
  "linkReferences": {},
  "deployedLinkReferences": {}
}