{
  "_format": "hh-sol-artifact-1",
  "contractName": "MockZkService",
  "sourceName": "contracts/mocks/MockZkService.sol",
  "abi": [
    {
      "inputs": [
        {
          "internalType": "bytes32",
          "name": "id",
          "type": "bytes32"
        }
      ],
      "name": "getZkVerification",
      "outputs": [
        {
          "components": [
            {
              "internalType": "uint256",
              "name": "status",
              "type": "uint256"
            },
            {
              "internalType": "bytes",
              "name": "pubKey",
              "type": "bytes"
            },
            {
              "internalType": "bytes32",
              "name": "txHash",
              "type": "bytes32"
            },
            {
              "internalType": "bytes",
              "name": "signature",
              "type": "bytes"
            },
            {
              "internalType": "bool",
              "name": "verified",
              "type": "bool"
            },
            {
              "components": [
                {
                  "internalType": "bytes32",
                  "name": "txHash",
                  "type": "bytes32"
                },
                {
                  "internalType": "uint32",
                  "name": "index",
                  "type": "uint32"
                },
                {
                  "internalType": "bytes",
                  "name": "script",
                  "type": "bytes"
                },
                {
                  "internalType": "uint256",
                  "name": "amount",
                  "type": "uint256"
                }
              ],
              "internalType": "struct DataTypes.UTXO[]",
              "name": "utxos",
              "type": "tuple[]"
            }
          ],
          "internalType": "struct DataTypes.ZKVerification",
          "name": "",
          "type": "tuple"
        }
      ],
      "stateMutability": "view",
      "type": "function"
    },
    {
      "inputs": [
        {
          "internalType": "bytes32",
          "name": "evidence",
          "type": "bytes32"
        }
      ],
      "name": "setEmptyPubKey",
      "outputs": [],
      "stateMutability": "nonpayable",
      "type": "function"
    },
    {
      "inputs": [
        {
          "internalType": "bytes32",
          "name": "evidence",
          "type": "bytes32"
        }
      ],
      "name": "setEmptyRawData",
      "outputs": [],
      "stateMutability": "nonpayable",
      "type": "function"
    },
    {
      "inputs": [
        {
          "internalType": "bytes32",
          "name": "evidence",
          "type": "bytes32"
        }
      ],
      "name": "setEmptyTxHash",
      "outputs": [],
      "stateMutability": "nonpayable",
      "type": "function"
    },
    {
      "inputs": [
        {
          "internalType": "bytes32",
          "name": "evidence",
          "type": "bytes32"
        },
        {
          "internalType": "uint256",
          "name": "status",
          "type": "uint256"
        },
        {
          "internalType": "bytes",
          "name": "pubKey",
          "type": "bytes"
        },
        {
          "internalType": "bytes32",
          "name": "txHash",
          "type": "bytes32"
        },
        {
          "internalType": "bytes",
          "name": "signature",
          "type": "bytes"
        },
        {
          "components": [
            {
              "internalType": "bytes32",
              "name": "txHash",
              "type": "bytes32"
            },
            {
              "internalType": "uint32",
              "name": "index",
              "type": "uint32"
            },
            {
              "internalType": "bytes",
              "name": "script",
              "type": "bytes"
            },
            {
              "internalType": "uint256",
              "name": "amount",
              "type": "uint256"
            }
          ],
          "internalType": "struct DataTypes.UTXO[]",
          "name": "utxos",
          "type": "tuple[]"
        }
      ],
      "name": "setInvalidVerification",
      "outputs": [],
      "stateMutability": "nonpayable",
      "type": "function"
    },
    {
      "inputs": [
        {
          "internalType": "bytes32",
          "name": "evidence",
          "type": "bytes32"
        },
        {
          "internalType": "bytes",
          "name": "pubKey",
          "type": "bytes"
        },
        {
          "internalType": "bytes32",
          "name": "txHash",
          "type": "bytes32"
        },
        {
          "internalType": "bytes",
          "name": "signature",
          "type": "bytes"
        },
        {
          "components": [
            {
              "internalType": "bytes32",
              "name": "txHash",
              "type": "bytes32"
            },
            {
              "internalType": "uint32",
              "name": "index",
              "type": "uint32"
            },
            {
              "internalType": "bytes",
              "name": "script",
              "type": "bytes"
            },
            {
              "internalType": "uint256",
              "name": "amount",
              "type": "uint256"
            }
          ],
          "internalType": "struct DataTypes.UTXO[]",
          "name": "utxos",
          "type": "tuple[]"
        }
      ],
      "name": "setValidVerification",
      "outputs": [],
      "stateMutability": "nonpayable",
      "type": "function"
    },
    {
      "inputs": [
        {
          "internalType": "bytes",
          "name": "pubKey",
          "type": "bytes"
        },
        {
          "internalType": "bytes",
          "name": "rawData",
          "type": "bytes"
        },
        {
          "internalType": "bytes[]",
          "name": "utxos",
          "type": "bytes[]"
        },
        {
          "internalType": "uint256",
          "name": "inputIndex",
          "type": "uint256"
        },
        {
          "internalType": "uint256",
          "name": "signatureIndex",
          "type": "uint256"
        }
      ],
      "name": "submitArbitration",
      "outputs": [],
      "stateMutability": "nonpayable",
      "type": "function"
    }
  ],
  "bytecode": "0x608060405234801561001057600080fd5b506110ed806100206000396000f3fe608060405234801561001057600080fd5b506004361061007d5760003560e01c8063af64a0e01161005b578063af64a0e0146100bd578063c40a649b146100d0578063d6f0aef6146100e3578063ddb8ec8b146100f657600080fd5b8063284aff2e1461008257806371be68df1461009757806385eaf812146100aa575b600080fd5b6100956100903660046109eb565b61011f565b005b6100956100a5366004610a97565b6101e4565b6100956100b8366004610b39565b6102ac565b6100956100cb366004610b39565b610334565b6100956100de366004610b94565b6103b0565b6100956100f1366004610b39565b6104f1565b610109610104366004610b39565b61052e565b6040516101169190610c83565b60405180910390f35b600087815260208190526040902060048101805460ff19169055600181016101478782610dfc565b50600281018590556003810161015d8582610dfc565b5086815561016f600582016000610858565b60005b828110156101d9578160050184848381811061019057610190610ebc565b90506020028101906101a29190610ed2565b8154600181018355600092835260209092209091600402016101c48282610fb3565b505080806101d190611045565b915050610172565b505050505050505050565b600086815260208190526040812090815560048101805460ff1916600190811790915581016102138782610dfc565b5060028101859055600381016102298582610dfc565b50610238600582016000610858565b60005b828110156102a2578160050184848381811061025957610259610ebc565b905060200281019061026b9190610ed2565b81546001810183556000928352602090922090916004020161028d8282610fb3565b5050808061029a90611045565b91505061023b565b5050505050505050565b6000818152602081815260409182902082518084019093526006835265060f06a6c6e760d31b918301919091529060018201906102e99082610dfc565b5060006002820155604080518082019091526006815265183c1c98189960d11b6020820152600382019061031d9082610dfc565b5060048101805460ff191660011790556000905550565b6000818152602081815260408083208151928301909152918152600182019061035d9082610dfc565b507f9c22ff5f21f0b81b113e63f7db6da94fedef11b2119b4088b89664fb9a3cb6586002820155604080518082019091526006815265060f06a6c6e760d31b6020820152600382019061031d9082610dfc565b6000600287876040516103c492919061106c565b602060405180830381855afa1580156103e1573d6000803e3d6000fd5b5050506040513d601f19601f82011682018060405250810190610404919061107c565b6000818152602081905260409020909150600181016104248a8c83610ef2565b5060028101829055604080518082019091526006815265060f06a6c6e760d31b602082015260038201906104589082610dfc565b5060048101805460ff1916600117905560008082555b85811015610488578061048081611045565b91505061046e565b506104b56040518060400160405280600a8152602001690d2dce0eae892dcc8caf60b31b815250856107e2565b6104e56040518060400160405280600e81526020016d0e6d2cedcc2e8eae4ca92dcc8caf60931b815250846107e2565b50505050505050505050565b60008181526020818152604091829020825180840190935260068352650c1e0c4c8ccd60d21b9183019190915290600182019061035d9082610dfc565b6040805160c0810182526000808252606060208301819052928201819052828201839052608082015260a081019190915260008060008481526020019081526020016000206040518060c00160405290816000820154815260200160018201805461059890610d73565b80601f01602080910402602001604051908101604052809291908181526020018280546105c490610d73565b80156106115780601f106105e657610100808354040283529160200191610611565b820191906000526020600020905b8154815290600101906020018083116105f457829003601f168201915b505050505081526020016002820154815260200160038201805461063490610d73565b80601f016020809104026020016040519081016040528092919081815260200182805461066090610d73565b80156106ad5780601f10610682576101008083540402835291602001916106ad565b820191906000526020600020905b81548152906001019060200180831161069057829003601f168201915b5050509183525050600482015460ff161515602080830191909152600583018054604080518285028101850182528281529401939260009084015b828210156107d3576000848152602090819020604080516080810182526004860290920180548352600181015463ffffffff16938301939093526002830180549293929184019161073890610d73565b80601f016020809104026020016040519081016040528092919081815260200182805461076490610d73565b80156107b15780601f10610786576101008083540402835291602001916107b1565b820191906000526020600020905b81548152906001019060200180831161079457829003601f168201915b50505050508152602001600382015481525050815260200190600101906106e8565b50505091525090949350505050565b61082782826040516024016107f8929190611095565b60408051601f198184030181529190526020810180516001600160e01b0316632d839cb360e21b17905261082b565b5050565b61083481610837565b50565b60006a636f6e736f6c652e6c6f679050600080835160208501845afa505050565b508054600082556004029060005260206000209081019061083491905b808211156108ae57600080825560018201805463ffffffff1916905561089e60028301826108b2565b5060006003820155600401610875565b5090565b5080546108be90610d73565b6000825580601f106108ce575050565b601f01602090049060005260206000209081019061083491905b808211156108ae57600081556001016108e8565b634e487b7160e01b600052604160045260246000fd5b600082601f83011261092357600080fd5b813567ffffffffffffffff8082111561093e5761093e6108fc565b604051601f8301601f19908116603f01168101908282118183101715610966576109666108fc565b8160405283815286602085880101111561097f57600080fd5b836020870160208301376000602085830101528094505050505092915050565b60008083601f8401126109b157600080fd5b50813567ffffffffffffffff8111156109c957600080fd5b6020830191508360208260051b85010111156109e457600080fd5b9250929050565b600080600080600080600060c0888a031215610a0657600080fd5b8735965060208801359550604088013567ffffffffffffffff80821115610a2c57600080fd5b610a388b838c01610912565b965060608a0135955060808a0135915080821115610a5557600080fd5b610a618b838c01610912565b945060a08a0135915080821115610a7757600080fd5b50610a848a828b0161099f565b989b979a50959850939692959293505050565b60008060008060008060a08789031215610ab057600080fd5b86359550602087013567ffffffffffffffff80821115610acf57600080fd5b610adb8a838b01610912565b9650604089013595506060890135915080821115610af857600080fd5b610b048a838b01610912565b94506080890135915080821115610b1a57600080fd5b50610b2789828a0161099f565b979a9699509497509295939492505050565b600060208284031215610b4b57600080fd5b5035919050565b60008083601f840112610b6457600080fd5b50813567ffffffffffffffff811115610b7c57600080fd5b6020830191508360208285010111156109e457600080fd5b60008060008060008060008060a0898b031215610bb057600080fd5b883567ffffffffffffffff80821115610bc857600080fd5b610bd48c838d01610b52565b909a50985060208b0135915080821115610bed57600080fd5b610bf98c838d01610b52565b909850965060408b0135915080821115610c1257600080fd5b50610c1f8b828c0161099f565b999c989b509699959896976060870135966080013595509350505050565b6000815180845260005b81811015610c6357602081850181015186830182015201610c47565b506000602082860101526020601f19601f83011685010191505092915050565b6000602080835283518184015280840151604060c081860152610ca960e0860183610c3d565b91508086015160608181880152808801519150601f1960808189870301818a0152610cd48685610c3d565b9550808a0151151560a08a015260a08a01519350818987030160c08a01528584518088528888019150888160051b890101898701965060005b82811015610d6257858a830301845287518051835263ffffffff8c820151168c84015289810151868b850152610d4587850182610c3d565b9189015193890193909352978b0197938b01939150600101610d0d565b509c9b505050505050505050505050565b600181811c90821680610d8757607f821691505b602082108103610da757634e487b7160e01b600052602260045260246000fd5b50919050565b601f821115610df757600081815260208120601f850160051c81016020861015610dd45750805b601f850160051c820191505b81811015610df357828155600101610de0565b5050505b505050565b815167ffffffffffffffff811115610e1657610e166108fc565b610e2a81610e248454610d73565b84610dad565b602080601f831160018114610e5f5760008415610e475750858301515b600019600386901b1c1916600185901b178555610df3565b600085815260208120601f198616915b82811015610e8e57888601518255948401946001909101908401610e6f565b5085821015610eac5787850151600019600388901b60f8161c191681555b5050505050600190811b01905550565b634e487b7160e01b600052603260045260246000fd5b60008235607e19833603018112610ee857600080fd5b9190910192915050565b67ffffffffffffffff831115610f0a57610f0a6108fc565b610f1e83610f188354610d73565b83610dad565b6000601f841160018114610f525760008515610f3a5750838201355b600019600387901b1c1916600186901b178355610fac565b600083815260209020601f19861690835b82811015610f835786850135825560209485019460019092019101610f63565b5086821015610fa05760001960f88860031b161c19848701351681555b505060018560011b0183555b5050505050565b8135815560018101602083013563ffffffff8116808214610fd357600080fd5b825463ffffffff19161790915550604082013536839003601e19018112610ff957600080fd5b8201803567ffffffffffffffff81111561101257600080fd5b60208201915080360382131561102757600080fd5b611035818360028601610ef2565b5050606082013560038201555050565b60006001820161106557634e487b7160e01b600052601160045260246000fd5b5060010190565b8183823760009101908152919050565b60006020828403121561108e57600080fd5b5051919050565b6040815260006110a86040830185610c3d565b9050826020830152939250505056fea2646970667358221220d13b617c66f32d7b863f9587619220911836997afb0da9b1a7b7416bd3dda5c464736f6c63430008140033",
  "linkReferences": {},
  "deployedLinkReferences": {}
}