{
  "_format": "hh-sol-artifact-1",
  "contractName": "MockZkService",
  "sourceName": "contracts/mocks/MockZkService.sol",
  "abi": [
    {
      "inputs": [
        {
          "internalType": "bytes32",
          "name": "id",
          "type": "bytes32"
        }
      ],
      "name": "getZkVerification",
      "outputs": [
        {
          "components": [
            {
              "internalType": "bytes",
              "name": "pubKey",
              "type": "bytes"
            },
            {
              "internalType": "bytes32",
              "name": "txHash",
              "type": "bytes32"
            },
            {
              "internalType": "bytes",
              "name": "signature",
              "type": "bytes"
            },
            {
              "internalType": "bool",
              "name": "verified",
              "type": "bool"
            },
            {
              "components": [
                {
                  "internalType": "bytes32",
                  "name": "txHash",
                  "type": "bytes32"
                },
                {
                  "internalType": "uint32",
                  "name": "index",
                  "type": "uint32"
                },
                {
                  "internalType": "bytes",
                  "name": "script",
                  "type": "bytes"
                },
                {
                  "internalType": "uint256",
                  "name": "amount",
                  "type": "uint256"
                }
              ],
              "internalType": "struct DataTypes.UTXO[]",
              "name": "utxos",
              "type": "tuple[]"
            }
          ],
          "internalType": "struct DataTypes.ZKVerification",
          "name": "",
          "type": "tuple"
        }
      ],
      "stateMutability": "view",
      "type": "function"
    },
    {
      "inputs": [
        {
          "internalType": "bytes32",
          "name": "evidence",
          "type": "bytes32"
        }
      ],
      "name": "setEmptyPubKey",
      "outputs": [],
      "stateMutability": "nonpayable",
      "type": "function"
    },
    {
      "inputs": [
        {
          "internalType": "bytes32",
          "name": "evidence",
          "type": "bytes32"
        }
      ],
      "name": "setEmptyRawData",
      "outputs": [],
      "stateMutability": "nonpayable",
      "type": "function"
    },
    {
      "inputs": [
        {
          "internalType": "bytes32",
          "name": "evidence",
          "type": "bytes32"
        }
      ],
      "name": "setEmptyTxHash",
      "outputs": [],
      "stateMutability": "nonpayable",
      "type": "function"
    },
    {
      "inputs": [
        {
          "internalType": "bytes32",
          "name": "evidence",
          "type": "bytes32"
        },
        {
          "internalType": "bytes",
          "name": "pubKey",
          "type": "bytes"
        },
        {
          "internalType": "bytes32",
          "name": "txHash",
          "type": "bytes32"
        },
        {
          "internalType": "bytes",
          "name": "signature",
          "type": "bytes"
        }
      ],
      "name": "setInvalidVerification",
      "outputs": [],
      "stateMutability": "nonpayable",
      "type": "function"
    },
    {
      "inputs": [
        {
          "internalType": "bytes32",
          "name": "evidence",
          "type": "bytes32"
        },
        {
          "internalType": "bytes",
          "name": "pubKey",
          "type": "bytes"
        },
        {
          "internalType": "bytes32",
          "name": "txHash",
          "type": "bytes32"
        },
        {
          "internalType": "bytes",
          "name": "signature",
          "type": "bytes"
        }
      ],
      "name": "setValidVerification",
      "outputs": [],
      "stateMutability": "nonpayable",
      "type": "function"
    }
  ],
  "bytecode": "0x608060405234801561001057600080fd5b50610912806100206000396000f3fe608060405234801561001057600080fd5b50600436106100625760003560e01c80631f99a81a1461006757806385eaf8121461007c578063af64a0e01461008f578063ccc464c0146100a2578063d6f0aef6146100b5578063ddb8ec8b146100c8575b600080fd5b61007a6100753660046105da565b6100f1565b005b61007a61008a366004610651565b610134565b61007a61009d366004610651565b6101b4565b61007a6100b03660046105da565b61022d565b61007a6100c3366004610651565b610255565b6100db6100d6366004610651565b61028f565b6040516100e891906106b0565b60405180910390f35b600084815260208190526040902060038101805460ff1916905580610116858261081c565b50600181018390556002810161012c838261081c565b505050505050565b6000818152602081815260409182902082518084019093526006835265060f06a6c6e760d31b9183019190915290819061016e908261081c565b5060006001820155604080518082019091526006815265183c1c98189960d11b602082015260028201906101a2908261081c565b50600301805460ff1916600117905550565b600081815260208181526040808320815192830190915291815281906101da908261081c565b507f9c22ff5f21f0b81b113e63f7db6da94fedef11b2119b4088b89664fb9a3cb6586001820155604080518082019091526006815265060f06a6c6e760d31b602082015260028201906101a2908261081c565b600084815260208190526040902060038101805460ff1916600117905580610116858261081c565b60008181526020818152604091829020825180840190935260068352650c1e0c4c8ccd60d21b918301919091529081906101da908261081c565b6102c66040518060a00160405280606081526020016000801916815260200160608152602001600015158152602001606081525090565b600082815260208190526040808220815160a081019092528054829082906102ed90610797565b80601f016020809104026020016040519081016040528092919081815260200182805461031990610797565b80156103665780601f1061033b57610100808354040283529160200191610366565b820191906000526020600020905b81548152906001019060200180831161034957829003601f168201915b505050505081526020016001820154815260200160028201805461038990610797565b80601f01602080910402602001604051908101604052809291908181526020018280546103b590610797565b80156104025780601f106103d757610100808354040283529160200191610402565b820191906000526020600020905b8154815290600101906020018083116103e557829003601f168201915b5050509183525050600382015460ff161515602080830191909152600483018054604080518285028101850182528281529401939260009084015b82821015610528576000848152602090819020604080516080810182526004860290920180548352600181015463ffffffff16938301939093526002830180549293929184019161048d90610797565b80601f01602080910402602001604051908101604052809291908181526020018280546104b990610797565b80156105065780601f106104db57610100808354040283529160200191610506565b820191906000526020600020905b8154815290600101906020018083116104e957829003601f168201915b505050505081526020016003820154815250508152602001906001019061043d565b50505091525090949350505050565b634e487b7160e01b600052604160045260246000fd5b600082601f83011261055e57600080fd5b813567ffffffffffffffff8082111561057957610579610537565b604051601f8301601f19908116603f011681019082821181831017156105a1576105a1610537565b816040528381528660208588010111156105ba57600080fd5b836020870160208301376000602085830101528094505050505092915050565b600080600080608085870312156105f057600080fd5b84359350602085013567ffffffffffffffff8082111561060f57600080fd5b61061b8883890161054d565b945060408701359350606087013591508082111561063857600080fd5b506106458782880161054d565b91505092959194509250565b60006020828403121561066357600080fd5b5035919050565b6000815180845260005b8181101561069057602081850181015186830182015201610674565b506000602082860101526020601f19601f83011685010191505092915050565b60006020808352835160a0828501526106cc60c085018261066a565b90508185015160408181870152808701519150601f1960608188860301818901526106f7858561066a565b89820151151560808a810191909152808b01518a8303850160a08c01528051808452929750880195509087870190600581901b8801890160005b8281101561078657868a830301845288518051835263ffffffff8c820151168c84015288810151868a8501526107698785018261066a565b9188015193880193909352988b0198938b01939150600101610731565b509c9b505050505050505050505050565b600181811c908216806107ab57607f821691505b6020821081036107cb57634e487b7160e01b600052602260045260246000fd5b50919050565b601f82111561081757600081815260208120601f850160051c810160208610156107f85750805b601f850160051c820191505b8181101561012c57828155600101610804565b505050565b815167ffffffffffffffff81111561083657610836610537565b61084a816108448454610797565b846107d1565b602080601f83116001811461087f57600084156108675750858301515b600019600386901b1c1916600185901b17855561012c565b600085815260208120601f198616915b828110156108ae5788860151825594840194600190910190840161088f565b50858210156108cc5787850151600019600388901b60f8161c191681555b5050505050600190811b0190555056fea2646970667358221220b50b168235b5c0908dc62e17c4f9b2cffbdec711802e261e63dc0479680516ae64736f6c63430008140033",
  "linkReferences": {},
  "deployedLinkReferences": {}
}