{
  "_format": "hh-sol-artifact-1",
  "contractName": "MockZkService",
  "sourceName": "contracts/mocks/MockZkService.sol",
  "abi": [
    {
      "inputs": [
        {
          "internalType": "bytes32",
          "name": "id",
          "type": "bytes32"
        }
      ],
      "name": "getZkVerification",
      "outputs": [
        {
          "components": [
            {
              "internalType": "uint256",
              "name": "status",
              "type": "uint256"
            },
            {
              "internalType": "bytes",
              "name": "pubKey",
              "type": "bytes"
            },
            {
              "internalType": "bytes32",
              "name": "txHash",
              "type": "bytes32"
            },
            {
              "internalType": "bytes",
              "name": "signature",
              "type": "bytes"
            },
            {
              "internalType": "bool",
              "name": "verified",
              "type": "bool"
            },
            {
              "components": [
                {
                  "internalType": "bytes32",
                  "name": "txHash",
                  "type": "bytes32"
                },
                {
                  "internalType": "uint32",
                  "name": "index",
                  "type": "uint32"
                },
                {
                  "internalType": "bytes",
                  "name": "script",
                  "type": "bytes"
                },
                {
                  "internalType": "uint256",
                  "name": "amount",
                  "type": "uint256"
                }
              ],
              "internalType": "struct DataTypes.UTXO[]",
              "name": "utxos",
              "type": "tuple[]"
            }
          ],
          "internalType": "struct DataTypes.ZKVerification",
          "name": "",
          "type": "tuple"
        }
      ],
      "stateMutability": "view",
      "type": "function"
    },
    {
      "inputs": [
        {
          "internalType": "bytes32",
          "name": "evidence",
          "type": "bytes32"
        }
      ],
      "name": "setEmptyPubKey",
      "outputs": [],
      "stateMutability": "nonpayable",
      "type": "function"
    },
    {
      "inputs": [
        {
          "internalType": "bytes32",
          "name": "evidence",
          "type": "bytes32"
        }
      ],
      "name": "setEmptyRawData",
      "outputs": [],
      "stateMutability": "nonpayable",
      "type": "function"
    },
    {
      "inputs": [
        {
          "internalType": "bytes32",
          "name": "evidence",
          "type": "bytes32"
        }
      ],
      "name": "setEmptyTxHash",
      "outputs": [],
      "stateMutability": "nonpayable",
      "type": "function"
    },
    {
      "inputs": [
        {
          "internalType": "bytes32",
          "name": "evidence",
          "type": "bytes32"
        },
        {
          "internalType": "uint256",
          "name": "status",
          "type": "uint256"
        },
        {
          "internalType": "bytes",
          "name": "pubKey",
          "type": "bytes"
        },
        {
          "internalType": "bytes32",
          "name": "txHash",
          "type": "bytes32"
        },
        {
          "internalType": "bytes",
          "name": "signature",
          "type": "bytes"
        },
        {
          "components": [
            {
              "internalType": "bytes32",
              "name": "txHash",
              "type": "bytes32"
            },
            {
              "internalType": "uint32",
              "name": "index",
              "type": "uint32"
            },
            {
              "internalType": "bytes",
              "name": "script",
              "type": "bytes"
            },
            {
              "internalType": "uint256",
              "name": "amount",
              "type": "uint256"
            }
          ],
          "internalType": "struct DataTypes.UTXO[]",
          "name": "utxos",
          "type": "tuple[]"
        }
      ],
      "name": "setInvalidVerification",
      "outputs": [],
      "stateMutability": "nonpayable",
      "type": "function"
    },
    {
      "inputs": [
        {
          "internalType": "bytes32",
          "name": "evidence",
          "type": "bytes32"
        },
        {
          "internalType": "bytes",
          "name": "pubKey",
          "type": "bytes"
        },
        {
          "internalType": "bytes32",
          "name": "txHash",
          "type": "bytes32"
        },
        {
          "internalType": "bytes",
          "name": "signature",
          "type": "bytes"
        },
        {
          "components": [
            {
              "internalType": "bytes32",
              "name": "txHash",
              "type": "bytes32"
            },
            {
              "internalType": "uint32",
              "name": "index",
              "type": "uint32"
            },
            {
              "internalType": "bytes",
              "name": "script",
              "type": "bytes"
            },
            {
              "internalType": "uint256",
              "name": "amount",
              "type": "uint256"
            }
          ],
          "internalType": "struct DataTypes.UTXO[]",
          "name": "utxos",
          "type": "tuple[]"
        }
      ],
      "name": "setValidVerification",
      "outputs": [],
      "stateMutability": "nonpayable",
      "type": "function"
    }
  ],
  "bytecode": "0x608060405234801561001057600080fd5b50610dd9806100206000396000f3fe608060405234801561001057600080fd5b50600436106100625760003560e01c8063284aff2e1461006757806371be68df1461007c57806385eaf8121461008f578063af64a0e0146100a2578063d6f0aef6146100b5578063ddb8ec8b146100c8575b600080fd5b61007a61007536600461080d565b6100f1565b005b61007a61008a3660046108b9565b6101b6565b61007a61009d36600461095b565b61027e565b61007a6100b036600461095b565b610306565b61007a6100c336600461095b565b610382565b6100db6100d636600461095b565b6103bf565b6040516100e891906109ba565b60405180910390f35b600087815260208190526040902060048101805460ff19169055600181016101198782610b33565b50600281018590556003810161012f8582610b33565b50868155610141600582016000610673565b60005b828110156101ab578160050184848381811061016257610162610bf3565b90506020028101906101749190610c09565b8154600181018355600092835260209092209091600402016101968282610cea565b505080806101a390610d7c565b915050610144565b505050505050505050565b600086815260208190526040812090815560048101805460ff1916600190811790915581016101e58782610b33565b5060028101859055600381016101fb8582610b33565b5061020a600582016000610673565b60005b82811015610274578160050184848381811061022b5761022b610bf3565b905060200281019061023d9190610c09565b81546001810183556000928352602090922090916004020161025f8282610cea565b5050808061026c90610d7c565b91505061020d565b5050505050505050565b6000818152602081815260409182902082518084019093526006835265060f06a6c6e760d31b918301919091529060018201906102bb9082610b33565b5060006002820155604080518082019091526006815265183c1c98189960d11b602082015260038201906102ef9082610b33565b5060048101805460ff191660011790556000905550565b6000818152602081815260408083208151928301909152918152600182019061032f9082610b33565b507f9c22ff5f21f0b81b113e63f7db6da94fedef11b2119b4088b89664fb9a3cb6586002820155604080518082019091526006815265060f06a6c6e760d31b602082015260038201906102ef9082610b33565b60008181526020818152604091829020825180840190935260068352650c1e0c4c8ccd60d21b9183019190915290600182019061032f9082610b33565b6040805160c0810182526000808252606060208301819052928201819052828201839052608082015260a081019190915260008060008481526020019081526020016000206040518060c00160405290816000820154815260200160018201805461042990610aaa565b80601f016020809104026020016040519081016040528092919081815260200182805461045590610aaa565b80156104a25780601f10610477576101008083540402835291602001916104a2565b820191906000526020600020905b81548152906001019060200180831161048557829003601f168201915b50505050508152602001600282015481526020016003820180546104c590610aaa565b80601f01602080910402602001604051908101604052809291908181526020018280546104f190610aaa565b801561053e5780601f106105135761010080835404028352916020019161053e565b820191906000526020600020905b81548152906001019060200180831161052157829003601f168201915b5050509183525050600482015460ff161515602080830191909152600583018054604080518285028101850182528281529401939260009084015b82821015610664576000848152602090819020604080516080810182526004860290920180548352600181015463ffffffff1693830193909352600283018054929392918401916105c990610aaa565b80601f01602080910402602001604051908101604052809291908181526020018280546105f590610aaa565b80156106425780601f1061061757610100808354040283529160200191610642565b820191906000526020600020905b81548152906001019060200180831161062557829003601f168201915b5050505050815260200160038201548152505081526020019060010190610579565b50505091525090949350505050565b50805460008255600402906000526020600020908101906106949190610697565b50565b808211156106d057600080825560018201805463ffffffff191690556106c060028301826106d4565b5060006003820155600401610697565b5090565b5080546106e090610aaa565b6000825580601f106106f0575050565b601f01602090049060005260206000209081019061069491905b808211156106d0576000815560010161070a565b634e487b7160e01b600052604160045260246000fd5b600082601f83011261074557600080fd5b813567ffffffffffffffff808211156107605761076061071e565b604051601f8301601f19908116603f011681019082821181831017156107885761078861071e565b816040528381528660208588010111156107a157600080fd5b836020870160208301376000602085830101528094505050505092915050565b60008083601f8401126107d357600080fd5b50813567ffffffffffffffff8111156107eb57600080fd5b6020830191508360208260051b850101111561080657600080fd5b9250929050565b600080600080600080600060c0888a03121561082857600080fd5b8735965060208801359550604088013567ffffffffffffffff8082111561084e57600080fd5b61085a8b838c01610734565b965060608a0135955060808a013591508082111561087757600080fd5b6108838b838c01610734565b945060a08a013591508082111561089957600080fd5b506108a68a828b016107c1565b989b979a50959850939692959293505050565b60008060008060008060a087890312156108d257600080fd5b86359550602087013567ffffffffffffffff808211156108f157600080fd5b6108fd8a838b01610734565b965060408901359550606089013591508082111561091a57600080fd5b6109268a838b01610734565b9450608089013591508082111561093c57600080fd5b5061094989828a016107c1565b979a9699509497509295939492505050565b60006020828403121561096d57600080fd5b5035919050565b6000815180845260005b8181101561099a5760208185018101518683018201520161097e565b506000602082860101526020601f19601f83011685010191505092915050565b6000602080835283518184015280840151604060c0818601526109e060e0860183610974565b91508086015160608181880152808801519150601f1960808189870301818a0152610a0b8685610974565b9550808a0151151560a08a015260a08a01519350818987030160c08a01528584518088528888019150888160051b890101898701965060005b82811015610a9957858a830301845287518051835263ffffffff8c820151168c84015289810151868b850152610a7c87850182610974565b9189015193890193909352978b0197938b01939150600101610a44565b509c9b505050505050505050505050565b600181811c90821680610abe57607f821691505b602082108103610ade57634e487b7160e01b600052602260045260246000fd5b50919050565b601f821115610b2e57600081815260208120601f850160051c81016020861015610b0b5750805b601f850160051c820191505b81811015610b2a57828155600101610b17565b5050505b505050565b815167ffffffffffffffff811115610b4d57610b4d61071e565b610b6181610b5b8454610aaa565b84610ae4565b602080601f831160018114610b965760008415610b7e5750858301515b600019600386901b1c1916600185901b178555610b2a565b600085815260208120601f198616915b82811015610bc557888601518255948401946001909101908401610ba6565b5085821015610be35787850151600019600388901b60f8161c191681555b5050505050600190811b01905550565b634e487b7160e01b600052603260045260246000fd5b60008235607e19833603018112610c1f57600080fd5b9190910192915050565b67ffffffffffffffff831115610c4157610c4161071e565b610c5583610c4f8354610aaa565b83610ae4565b6000601f841160018114610c895760008515610c715750838201355b600019600387901b1c1916600186901b178355610ce3565b600083815260209020601f19861690835b82811015610cba5786850135825560209485019460019092019101610c9a565b5086821015610cd75760001960f88860031b161c19848701351681555b505060018560011b0183555b5050505050565b8135815560018101602083013563ffffffff8116808214610d0a57600080fd5b825463ffffffff19161790915550604082013536839003601e19018112610d3057600080fd5b8201803567ffffffffffffffff811115610d4957600080fd5b602082019150803603821315610d5e57600080fd5b610d6c818360028601610c29565b5050606082013560038201555050565b600060018201610d9c57634e487b7160e01b600052601160045260246000fd5b506001019056fea2646970667358221220aac480aa392adaac514b1d736c5b0b83d9e40d2de20cba975817f654a54bef0064736f6c63430008140033",
  "linkReferences": {},
  "deployedLinkReferences": {}
}