{
  "_format": "hh-sol-artifact-1",
  "contractName": "MockZkService",
  "sourceName": "contracts/mocks/MockZkService.sol",
  "abi": [
    {
      "inputs": [
        {
          "internalType": "bytes32",
          "name": "id",
          "type": "bytes32"
        }
      ],
      "name": "getZkVerification",
      "outputs": [
        {
          "components": [
            {
              "internalType": "bytes",
              "name": "rawData",
              "type": "bytes"
            },
            {
              "internalType": "bytes",
              "name": "pubKey",
              "type": "bytes"
            },
            {
              "internalType": "bytes32",
              "name": "txHash",
              "type": "bytes32"
            },
            {
              "internalType": "bytes",
              "name": "signature",
              "type": "bytes"
            },
            {
              "internalType": "bool",
              "name": "verified",
              "type": "bool"
            },
            {
              "components": [
                {
                  "internalType": "bytes32",
                  "name": "txHash",
                  "type": "bytes32"
                },
                {
                  "internalType": "uint32",
                  "name": "index",
                  "type": "uint32"
                },
                {
                  "internalType": "bytes",
                  "name": "script",
                  "type": "bytes"
                },
                {
                  "internalType": "uint256",
                  "name": "amount",
                  "type": "uint256"
                }
              ],
              "internalType": "struct DataTypes.UTXO[]",
              "name": "utxos",
              "type": "tuple[]"
            }
          ],
          "internalType": "struct DataTypes.ZKVerification",
          "name": "",
          "type": "tuple"
        }
      ],
      "stateMutability": "view",
      "type": "function"
    },
    {
      "inputs": [
        {
          "internalType": "bytes32",
          "name": "evidence",
          "type": "bytes32"
        }
      ],
      "name": "setEmptyPubKey",
      "outputs": [],
      "stateMutability": "nonpayable",
      "type": "function"
    },
    {
      "inputs": [
        {
          "internalType": "bytes32",
          "name": "evidence",
          "type": "bytes32"
        }
      ],
      "name": "setEmptyRawData",
      "outputs": [],
      "stateMutability": "nonpayable",
      "type": "function"
    },
    {
      "inputs": [
        {
          "internalType": "bytes32",
          "name": "evidence",
          "type": "bytes32"
        }
      ],
      "name": "setEmptyTxHash",
      "outputs": [],
      "stateMutability": "nonpayable",
      "type": "function"
    },
    {
      "inputs": [
        {
          "internalType": "bytes32",
          "name": "evidence",
          "type": "bytes32"
        },
        {
          "internalType": "bytes",
          "name": "rawData",
          "type": "bytes"
        },
        {
          "internalType": "bytes",
          "name": "pubKey",
          "type": "bytes"
        },
        {
          "internalType": "bytes32",
          "name": "txHash",
          "type": "bytes32"
        },
        {
          "internalType": "bytes",
          "name": "signature",
          "type": "bytes"
        }
      ],
      "name": "setInvalidVerification",
      "outputs": [],
      "stateMutability": "nonpayable",
      "type": "function"
    },
    {
      "inputs": [
        {
          "internalType": "bytes32",
          "name": "evidence",
          "type": "bytes32"
        },
        {
          "internalType": "bytes",
          "name": "rawData",
          "type": "bytes"
        },
        {
          "internalType": "bytes",
          "name": "pubKey",
          "type": "bytes"
        },
        {
          "internalType": "bytes32",
          "name": "txHash",
          "type": "bytes32"
        },
        {
          "internalType": "bytes",
          "name": "signature",
          "type": "bytes"
        }
      ],
      "name": "setValidVerification",
      "outputs": [],
      "stateMutability": "nonpayable",
      "type": "function"
    }
  ],
  "bytecode": "0x608060405234801561001057600080fd5b50610a79806100206000396000f3fe608060405234801561001057600080fd5b50600436106100625760003560e01c806385eaf81214610067578063a76d7fc11461007c578063addc17401461008f578063af64a0e0146100a2578063d6f0aef6146100b5578063ddb8ec8b146100c8575b600080fd5b61007a610075366004610659565b6100f1565b005b61007a61008a366004610715565b61019e565b61007a61009d366004610715565b6101f4565b61007a6100b0366004610659565b610219565b61007a6100c3366004610659565b6102c5565b6100db6100d6366004610659565b610318565b6040516100e891906107f7565b60405180910390f35b60008181526020818152604091829020825180840190935260068352650c1e0c4c8ccd60d21b9183019190915290819061012b9082610983565b50604080518082019091526006815265060f06a6c6e760d31b602082015260018201906101589082610983565b5060006002820155604080518082019091526006815265183c1c98189960d11b6020820152600382019061018c9082610983565b50600401805460ff1916600117905550565b600085815260208190526040902060048101805460ff19166001179055806101c68682610983565b50600181016101d58582610983565b5060028101839055600381016101eb8382610983565b50505050505050565b600085815260208190526040902060048101805460ff19169055806101c68682610983565b60008181526020818152604091829020825180840190935260068352650c1e0c4c8ccd60d21b918301919091529081906102539082610983565b5060408051602081019091526000815260018201906102729082610983565b507f9c22ff5f21f0b81b113e63f7db6da94fedef11b2119b4088b89664fb9a3cb6586002820155604080518082019091526006815265060f06a6c6e760d31b6020820152600382019061018c9082610983565b600081815260208181526040808320815192830190915291815281906102eb9082610983565b506040805180820190915260068152650c1e0c4c8ccd60d21b602082015260018201906102729082610983565b6103566040518060c0016040528060608152602001606081526020016000801916815260200160608152602001600015158152602001606081525090565b600082815260208190526040808220815160c0810190925280548290829061037d906108fa565b80601f01602080910402602001604051908101604052809291908181526020018280546103a9906108fa565b80156103f65780601f106103cb576101008083540402835291602001916103f6565b820191906000526020600020905b8154815290600101906020018083116103d957829003601f168201915b5050505050815260200160018201805461040f906108fa565b80601f016020809104026020016040519081016040528092919081815260200182805461043b906108fa565b80156104885780601f1061045d57610100808354040283529160200191610488565b820191906000526020600020905b81548152906001019060200180831161046b57829003601f168201915b50505050508152602001600282015481526020016003820180546104ab906108fa565b80601f01602080910402602001604051908101604052809291908181526020018280546104d7906108fa565b80156105245780601f106104f957610100808354040283529160200191610524565b820191906000526020600020905b81548152906001019060200180831161050757829003601f168201915b5050509183525050600482015460ff161515602080830191909152600583018054604080518285028101850182528281529401939260009084015b8282101561064a576000848152602090819020604080516080810182526004860290920180548352600181015463ffffffff1693830193909352600283018054929392918401916105af906108fa565b80601f01602080910402602001604051908101604052809291908181526020018280546105db906108fa565b80156106285780601f106105fd57610100808354040283529160200191610628565b820191906000526020600020905b81548152906001019060200180831161060b57829003601f168201915b505050505081526020016003820154815250508152602001906001019061055f565b50505091525090949350505050565b60006020828403121561066b57600080fd5b5035919050565b634e487b7160e01b600052604160045260246000fd5b600082601f83011261069957600080fd5b813567ffffffffffffffff808211156106b4576106b4610672565b604051601f8301601f19908116603f011681019082821181831017156106dc576106dc610672565b816040528381528660208588010111156106f557600080fd5b836020870160208301376000602085830101528094505050505092915050565b600080600080600060a0868803121561072d57600080fd5b85359450602086013567ffffffffffffffff8082111561074c57600080fd5b61075889838a01610688565b9550604088013591508082111561076e57600080fd5b61077a89838a01610688565b945060608801359350608088013591508082111561079757600080fd5b506107a488828901610688565b9150509295509295909350565b6000815180845260005b818110156107d7576020818501810151868301820152016107bb565b506000602082860101526020601f19601f83011685010191505092915050565b60006020808352835160c08285015261081360e08501826107b1565b905081850151601f19604081878503018188015261083184846107b1565b93508088015192506060838189015280890151935060808389870301818a015261085b86866107b1565b9550808a0151151560a08a015260a08a01519450838987030160c08a01528585518088528888019150888160051b890101898801975060005b828110156108e957878a830301845288518051835263ffffffff8c820151168c8401528781015186898501526108cc878501826107b1565b9188015193880193909352988b0198938b01939150600101610894565b509c9b505050505050505050505050565b600181811c9082168061090e57607f821691505b60208210810361092e57634e487b7160e01b600052602260045260246000fd5b50919050565b601f82111561097e57600081815260208120601f850160051c8101602086101561095b5750805b601f850160051c820191505b8181101561097a57828155600101610967565b5050505b505050565b815167ffffffffffffffff81111561099d5761099d610672565b6109b1816109ab84546108fa565b84610934565b602080601f8311600181146109e657600084156109ce5750858301515b600019600386901b1c1916600185901b17855561097a565b600085815260208120601f198616915b82811015610a15578886015182559484019460019091019084016109f6565b5085821015610a335787850151600019600388901b60f8161c191681555b5050505050600190811b0190555056fea2646970667358221220d2e3e2fc5155f1683588b05d7400473eddae925c7f68744147e2b6e62236726c64736f6c63430008140033",
  "linkReferences": {},
  "deployedLinkReferences": {}
}